{
    "contractName": "BalanceTracker",
    "abi": [
        {
            "constant": true,
            "inputs": [
                {
                    "name": "service",
                    "type": "address"
                }
            ],
            "name": "isRegisteredActiveService",
            "outputs": [
                {
                    "name": "",
                    "type": "bool"
                }
            ],
            "payable": false,
            "stateMutability": "view",
            "type": "function"
        },
        {
            "constant": false,
            "inputs": [],
            "name": "triggerSelfDestruction",
            "outputs": [],
            "payable": false,
            "stateMutability": "nonpayable",
            "type": "function"
        },
        {
            "constant": false,
            "inputs": [
                {
                    "name": "service",
                    "type": "address"
                },
                {
                    "name": "action",
                    "type": "string"
                }
            ],
            "name": "enableServiceAction",
            "outputs": [],
            "payable": false,
            "stateMutability": "nonpayable",
            "type": "function"
        },
        {
            "constant": true,
            "inputs": [
                {
                    "name": "service",
                    "type": "address"
                }
            ],
            "name": "isRegisteredService",
            "outputs": [
                {
                    "name": "",
                    "type": "bool"
                }
            ],
            "payable": false,
            "stateMutability": "view",
            "type": "function"
        },
        {
            "constant": true,
            "inputs": [],
            "name": "selfDestructionDisabled",
            "outputs": [
                {
                    "name": "",
                    "type": "bool"
                }
            ],
            "payable": false,
            "stateMutability": "view",
            "type": "function"
        },
        {
            "constant": false,
            "inputs": [
                {
                    "name": "service",
                    "type": "address"
                },
                {
                    "name": "action",
                    "type": "string"
                }
            ],
            "name": "disableServiceAction",
            "outputs": [],
            "payable": false,
            "stateMutability": "nonpayable",
            "type": "function"
        },
        {
            "constant": true,
            "inputs": [],
            "name": "serviceActivationTimeout",
            "outputs": [
                {
                    "name": "",
                    "type": "uint256"
                }
            ],
            "payable": false,
            "stateMutability": "view",
            "type": "function"
        },
        {
            "constant": true,
            "inputs": [],
            "name": "destructor",
            "outputs": [
                {
                    "name": "",
                    "type": "address"
                }
            ],
            "payable": false,
            "stateMutability": "view",
            "type": "function"
        },
        {
            "constant": true,
            "inputs": [],
            "name": "settledBalanceType",
            "outputs": [
                {
                    "name": "",
                    "type": "bytes32"
                }
            ],
            "payable": false,
            "stateMutability": "view",
            "type": "function"
        },
        {
            "constant": false,
            "inputs": [
                {
                    "name": "service",
                    "type": "address"
                }
            ],
            "name": "deregisterService",
            "outputs": [],
            "payable": false,
            "stateMutability": "nonpayable",
            "type": "function"
        },
        {
            "constant": true,
            "inputs": [],
            "name": "DEPOSITED_BALANCE_TYPE",
            "outputs": [
                {
                    "name": "",
                    "type": "string"
                }
            ],
            "payable": false,
            "stateMutability": "view",
            "type": "function"
        },
        {
            "constant": true,
            "inputs": [],
            "name": "STAGED_BALANCE_TYPE",
            "outputs": [
                {
                    "name": "",
                    "type": "string"
                }
            ],
            "payable": false,
            "stateMutability": "view",
            "type": "function"
        },
        {
            "constant": true,
            "inputs": [
                {
                    "name": "",
                    "type": "uint256"
                }
            ],
            "name": "balanceTypes",
            "outputs": [
                {
                    "name": "",
                    "type": "bytes32"
                }
            ],
            "payable": false,
            "stateMutability": "view",
            "type": "function"
        },
        {
            "constant": true,
            "inputs": [],
            "name": "operator",
            "outputs": [
                {
                    "name": "",
                    "type": "address"
                }
            ],
            "payable": false,
            "stateMutability": "view",
            "type": "function"
        },
        {
            "constant": true,
            "inputs": [
                {
                    "name": "service",
                    "type": "address"
                },
                {
                    "name": "action",
                    "type": "string"
                }
            ],
            "name": "isEnabledServiceAction",
            "outputs": [
                {
                    "name": "",
                    "type": "bool"
                }
            ],
            "payable": false,
            "stateMutability": "view",
            "type": "function"
        },
        {
            "constant": false,
            "inputs": [],
            "name": "disableSelfDestruction",
            "outputs": [],
            "payable": false,
            "stateMutability": "nonpayable",
            "type": "function"
        },
        {
            "constant": true,
            "inputs": [],
            "name": "stagedBalanceType",
            "outputs": [
                {
                    "name": "",
                    "type": "bytes32"
                }
            ],
            "payable": false,
            "stateMutability": "view",
            "type": "function"
        },
        {
            "constant": false,
            "inputs": [
                {
                    "name": "timeoutInSeconds",
                    "type": "uint256"
                }
            ],
            "name": "setServiceActivationTimeout",
            "outputs": [],
            "payable": false,
            "stateMutability": "nonpayable",
            "type": "function"
        },
        {
            "constant": false,
            "inputs": [
                {
                    "name": "service",
                    "type": "address"
                }
            ],
            "name": "registerServiceDeferred",
            "outputs": [],
            "payable": false,
            "stateMutability": "nonpayable",
            "type": "function"
        },
        {
            "constant": false,
            "inputs": [
                {
                    "name": "newDeployer",
                    "type": "address"
                }
            ],
            "name": "setDeployer",
            "outputs": [],
            "payable": false,
            "stateMutability": "nonpayable",
            "type": "function"
        },
        {
            "constant": false,
            "inputs": [
                {
                    "name": "newOperator",
                    "type": "address"
                }
            ],
            "name": "setOperator",
            "outputs": [],
            "payable": false,
            "stateMutability": "nonpayable",
            "type": "function"
        },
        {
            "constant": true,
            "inputs": [],
            "name": "SETTLED_BALANCE_TYPE",
            "outputs": [
                {
                    "name": "",
                    "type": "string"
                }
            ],
            "payable": false,
            "stateMutability": "view",
            "type": "function"
        },
        {
            "constant": true,
            "inputs": [],
            "name": "deployer",
            "outputs": [
                {
                    "name": "",
                    "type": "address"
                }
            ],
            "payable": false,
            "stateMutability": "view",
            "type": "function"
        },
        {
            "constant": true,
            "inputs": [],
            "name": "depositedBalanceType",
            "outputs": [
                {
                    "name": "",
                    "type": "bytes32"
                }
            ],
            "payable": false,
            "stateMutability": "view",
            "type": "function"
        },
        {
            "constant": true,
            "inputs": [
                {
                    "name": "",
                    "type": "bytes32"
                }
            ],
            "name": "balanceTypeMap",
            "outputs": [
                {
                    "name": "",
                    "type": "bool"
                }
            ],
            "payable": false,
            "stateMutability": "view",
            "type": "function"
        },
        {
            "constant": false,
            "inputs": [
                {
                    "name": "service",
                    "type": "address"
                }
            ],
            "name": "registerService",
            "outputs": [],
            "payable": false,
            "stateMutability": "nonpayable",
            "type": "function"
        },
        {
            "inputs": [
                {
                    "name": "deployer",
                    "type": "address"
                }
            ],
            "payable": false,
            "stateMutability": "nonpayable",
            "type": "constructor"
        },
        {
            "anonymous": false,
            "inputs": [
                {
                    "indexed": false,
                    "name": "timeoutInSeconds",
                    "type": "uint256"
                }
            ],
            "name": "ServiceActivationTimeoutEvent",
            "type": "event"
        },
        {
            "anonymous": false,
            "inputs": [
                {
                    "indexed": false,
                    "name": "service",
                    "type": "address"
                }
            ],
            "name": "RegisterServiceEvent",
            "type": "event"
        },
        {
            "anonymous": false,
            "inputs": [
                {
                    "indexed": false,
                    "name": "service",
                    "type": "address"
                },
                {
                    "indexed": false,
                    "name": "timeout",
                    "type": "uint256"
                }
            ],
            "name": "RegisterServiceDeferredEvent",
            "type": "event"
        },
        {
            "anonymous": false,
            "inputs": [
                {
                    "indexed": false,
                    "name": "service",
                    "type": "address"
                }
            ],
            "name": "DeregisterServiceEvent",
            "type": "event"
        },
        {
            "anonymous": false,
            "inputs": [
                {
                    "indexed": false,
                    "name": "service",
                    "type": "address"
                },
                {
                    "indexed": false,
                    "name": "action",
                    "type": "string"
                }
            ],
            "name": "EnableServiceActionEvent",
            "type": "event"
        },
        {
            "anonymous": false,
            "inputs": [
                {
                    "indexed": false,
                    "name": "service",
                    "type": "address"
                },
                {
                    "indexed": false,
                    "name": "action",
                    "type": "string"
                }
            ],
            "name": "DisableServiceActionEvent",
            "type": "event"
        },
        {
            "anonymous": false,
            "inputs": [
                {
                    "indexed": false,
                    "name": "oldDeployer",
                    "type": "address"
                },
                {
                    "indexed": false,
                    "name": "newDeployer",
                    "type": "address"
                }
            ],
            "name": "SetDeployerEvent",
            "type": "event"
        },
        {
            "anonymous": false,
            "inputs": [
                {
                    "indexed": false,
                    "name": "oldOperator",
                    "type": "address"
                },
                {
                    "indexed": false,
                    "name": "newOperator",
                    "type": "address"
                }
            ],
            "name": "SetOperatorEvent",
            "type": "event"
        },
        {
            "anonymous": false,
            "inputs": [
                {
                    "indexed": false,
                    "name": "wallet",
                    "type": "address"
                }
            ],
            "name": "SelfDestructionDisabledEvent",
            "type": "event"
        },
        {
            "anonymous": false,
            "inputs": [
                {
                    "indexed": false,
                    "name": "wallet",
                    "type": "address"
                }
            ],
            "name": "TriggerSelfDestructionEvent",
            "type": "event"
        },
        {
            "constant": true,
            "inputs": [
                {
                    "name": "wallet",
                    "type": "address"
                },
                {
                    "name": "_type",
                    "type": "bytes32"
                },
                {
                    "name": "currencyCt",
                    "type": "address"
                },
                {
                    "name": "currencyId",
                    "type": "uint256"
                }
            ],
            "name": "get",
            "outputs": [
                {
                    "name": "",
                    "type": "int256"
                }
            ],
            "payable": false,
            "stateMutability": "view",
            "type": "function"
        },
        {
            "constant": false,
            "inputs": [
                {
                    "name": "wallet",
                    "type": "address"
                },
                {
                    "name": "_type",
                    "type": "bytes32"
                },
                {
                    "name": "amount",
                    "type": "int256"
                },
                {
                    "name": "currencyCt",
                    "type": "address"
                },
                {
                    "name": "currencyId",
                    "type": "uint256"
                }
            ],
            "name": "set",
            "outputs": [],
            "payable": false,
            "stateMutability": "nonpayable",
            "type": "function"
        },
        {
            "constant": false,
            "inputs": [
                {
                    "name": "wallet",
                    "type": "address"
                },
                {
                    "name": "currencyCt",
                    "type": "address"
                },
                {
                    "name": "currencyId",
                    "type": "uint256"
                }
            ],
            "name": "reset",
            "outputs": [],
            "payable": false,
            "stateMutability": "nonpayable",
            "type": "function"
        },
        {
            "constant": false,
            "inputs": [
                {
                    "name": "wallet",
                    "type": "address"
                },
                {
                    "name": "_type",
                    "type": "bytes32"
                },
                {
                    "name": "amount",
                    "type": "int256"
                },
                {
                    "name": "currencyCt",
                    "type": "address"
                },
                {
                    "name": "currencyId",
                    "type": "uint256"
                }
            ],
            "name": "add",
            "outputs": [],
            "payable": false,
            "stateMutability": "nonpayable",
            "type": "function"
        },
        {
            "constant": false,
            "inputs": [
                {
                    "name": "wallet",
                    "type": "address"
                },
                {
                    "name": "_type",
                    "type": "bytes32"
                },
                {
                    "name": "amount",
                    "type": "int256"
                },
                {
                    "name": "currencyCt",
                    "type": "address"
                },
                {
                    "name": "currencyId",
                    "type": "uint256"
                }
            ],
            "name": "sub",
            "outputs": [],
            "payable": false,
            "stateMutability": "nonpayable",
            "type": "function"
        },
        {
            "constant": false,
            "inputs": [
                {
                    "name": "wallet",
                    "type": "address"
                },
                {
                    "name": "fromType",
                    "type": "bytes32"
                },
                {
                    "name": "toType",
                    "type": "bytes32"
                },
                {
                    "name": "amount",
                    "type": "int256"
                },
                {
                    "name": "currencyCt",
                    "type": "address"
                },
                {
                    "name": "currencyId",
                    "type": "uint256"
                }
            ],
            "name": "transfer",
            "outputs": [],
            "payable": false,
            "stateMutability": "nonpayable",
            "type": "function"
        },
        {
            "constant": true,
            "inputs": [
                {
                    "name": "wallet",
                    "type": "address"
                },
                {
                    "name": "currencyCt",
                    "type": "address"
                },
                {
                    "name": "currencyId",
                    "type": "uint256"
                }
            ],
            "name": "sum",
            "outputs": [
                {
                    "name": "",
                    "type": "int256"
                }
            ],
            "payable": false,
            "stateMutability": "view",
            "type": "function"
        },
        {
            "constant": true,
            "inputs": [
                {
                    "name": "wallet",
                    "type": "address"
                },
                {
                    "name": "_type",
                    "type": "bytes32"
                },
                {
                    "name": "currencyCt",
                    "type": "address"
                },
                {
                    "name": "currencyId",
                    "type": "uint256"
                }
            ],
            "name": "hasCurrency",
            "outputs": [
                {
                    "name": "",
                    "type": "bool"
                }
            ],
            "payable": false,
            "stateMutability": "view",
            "type": "function"
        },
        {
            "constant": true,
            "inputs": [
                {
                    "name": "wallet",
                    "type": "address"
                },
                {
                    "name": "_type",
                    "type": "bytes32"
                },
                {
                    "name": "currencyCt",
                    "type": "address"
                },
                {
                    "name": "currencyId",
                    "type": "uint256"
                }
            ],
            "name": "logSize",
            "outputs": [
                {
                    "name": "",
                    "type": "uint256"
                }
            ],
            "payable": false,
            "stateMutability": "view",
            "type": "function"
        },
        {
            "constant": true,
            "inputs": [
                {
                    "name": "wallet",
                    "type": "address"
                },
                {
                    "name": "_type",
                    "type": "bytes32"
                },
                {
                    "name": "currencyCt",
                    "type": "address"
                },
                {
                    "name": "currencyId",
                    "type": "uint256"
                },
                {
                    "name": "index",
                    "type": "uint256"
                }
            ],
            "name": "logByIndex",
            "outputs": [
                {
                    "name": "amount",
                    "type": "int256"
                },
                {
                    "name": "blockNumber",
                    "type": "uint256"
                }
            ],
            "payable": false,
            "stateMutability": "view",
            "type": "function"
        },
        {
            "constant": true,
            "inputs": [
                {
                    "name": "wallet",
                    "type": "address"
                },
                {
                    "name": "_type",
                    "type": "bytes32"
                },
                {
                    "name": "currencyCt",
                    "type": "address"
                },
                {
                    "name": "currencyId",
                    "type": "uint256"
                },
                {
                    "name": "_blockNumber",
                    "type": "uint256"
                }
            ],
            "name": "logByBlockNumber",
            "outputs": [
                {
                    "name": "amount",
                    "type": "int256"
                },
                {
                    "name": "blockNumber",
                    "type": "uint256"
                }
            ],
            "payable": false,
            "stateMutability": "view",
            "type": "function"
        },
        {
            "constant": true,
            "inputs": [
                {
                    "name": "wallet",
                    "type": "address"
                },
                {
                    "name": "_type",
                    "type": "bytes32"
                },
                {
                    "name": "currencyCt",
                    "type": "address"
                },
                {
                    "name": "currencyId",
                    "type": "uint256"
                }
            ],
            "name": "lastLog",
            "outputs": [
                {
                    "name": "amount",
                    "type": "int256"
                },
                {
                    "name": "blockNumber",
                    "type": "uint256"
                }
            ],
            "payable": false,
            "stateMutability": "view",
            "type": "function"
        },
        {
            "constant": true,
            "inputs": [],
            "name": "balanceTypesCount",
            "outputs": [
                {
                    "name": "",
                    "type": "uint256"
                }
            ],
            "payable": false,
            "stateMutability": "view",
            "type": "function"
        }
    ],
    "bytecode": "0x60806040523480156200001157600080fd5b506040516020806200227583398101604052518080600160a060020a03811615156200003c57600080fd5b600160a060020a0381163014156200005357600080fd5b506000805461010060a860020a031916610100600160a060020a039390931692830217905560018054600160a060020a031916909117905560408051808201825260098082527f6465706f73697465640000000000000000000000000000000000000000000000602080840191825293519293929092019182918083835b60208310620000f25780518252601f199092019160209182019101620000d1565b6001836020036101000a0380198251168184511680821785525050505050509050019150506040516020818303038152906040526040518082805190602001908083835b60208310620001575780518252601f19909201916020918201910162000136565b51815160209384036101000a600019018019909216911617905260408051929094018290038220600455818401845260078083527f736574746c656400000000000000000000000000000000000000000000000000838301908152945192965091019350839291508083835b60208310620001e45780518252601f199092019160209182019101620001c3565b6001836020036101000a0380198251168184511680821785525050505050509050019150506040516020818303038152906040526040518082805190602001908083835b60208310620002495780518252601f19909201916020918201910162000228565b51815160209384036101000a600019018019909216911617905260408051929094018290038220600555818401845260068083527f7374616765640000000000000000000000000000000000000000000000000000838301908152945192965091019350839291508083835b60208310620002d65780518252601f199092019160209182019101620002b5565b6001836020036101000a0380198251168184511680821785525050505050509050019150506040516020818303038152906040526040518082805190602001908083835b602083106200033b5780518252601f1990920191602091820191016200031a565b5181516000196020949094036101000a93909301928316921916919091179052604051920182900390912060065550505050611ef8806200037d6000396000f3006080604052600436106101c95763ffffffff60e060020a600035041663030fc20981146101ce57806308d4a0231461020e5780630d05500a146102425780631055e0bb1461027857806317ba3f90146102a25780632738a112146102d75780632b5672e3146102ec5780632b91e0a9146103535780632f013a00146103745780633b58c501146103895780633b7bea6c146103f0578063435d67e4146104055780634476d23b1461044f5780634652ec741461048057806350b08c02146104955780635106c203146104b6578063528162c214610540578063554f584214610555578063570ca7351461056d5780635df1b0a31461058257806366aad151146105e957806370327ea11461061757806371f4ec511461062c57806379d6373c1461065a5780637aaa5e851461066f5780637e15dd5c1461069d5780638e8cef12146106b5578063914ed530146106d657806396214735146107005780639cab96d614610721578063af7ea1a114610753578063b3ab15fb14610768578063b71bf83a14610789578063c60c5b6c146107ba578063cb7fdd02146107cf578063d5f3948814610801578063ded1131014610816578063ece6b80d1461082b578063fdd9ec7d14610843575b600080fd5b3480156101da57600080fd5b506101fc600160a060020a036004358116906024359060443516606435610864565b60408051918252519081900360200190f35b34801561021a57600080fd5b50610240600160a060020a036004358116906024359060443590606435166084356108a4565b005b34801561024e57600080fd5b50610240600160a060020a036004358116906024359060443590606435906084351660a435610900565b34801561028457600080fd5b506101fc600160a060020a03600435811690602435166044356109a7565b3480156102ae57600080fd5b506102c3600160a060020a03600435166109fe565b604080519115158252519081900360200190f35b3480156102e357600080fd5b50610240610a36565b3480156102f857600080fd5b5060408051602060046024803582810135601f8101859004850286018501909652858552610240958335600160a060020a0316953695604494919390910191908190840183828082843750949750610a989650505050505050565b34801561035f57600080fd5b506102c3600160a060020a0360043516610c33565b34801561038057600080fd5b506102c3610c51565b34801561039557600080fd5b5060408051602060046024803582810135601f8101859004850286018501909652858552610240958335600160a060020a0316953695604494919390910191908190840183828082843750949750610c5a9650505050505050565b3480156103fc57600080fd5b506101fc610d6f565b34801561041157600080fd5b50610436600160a060020a036004358116906024359060443516606435608435610d75565b6040805192835260208301919091528051918290030190f35b34801561045b57600080fd5b50610464610dbd565b60408051600160a060020a039092168252519081900360200190f35b34801561048c57600080fd5b506101fc610dd1565b3480156104a157600080fd5b50610240600160a060020a0360043516610dd7565b3480156104c257600080fd5b506104cb610e96565b6040805160208082528351818301528351919283929083019185019080838360005b838110156105055781810151838201526020016104ed565b50505050905090810190601f1680156105325780820380516001836020036101000a031916815260200191505b509250505060405180910390f35b34801561054c57600080fd5b506104cb610ebc565b34801561056157600080fd5b506101fc600435610edf565b34801561057957600080fd5b50610464610efe565b34801561058e57600080fd5b5060408051602060046024803582810135601f81018590048502860185019096528585526102c3958335600160a060020a0316953695604494919390910191908190840183828082843750949750610f0d9650505050505050565b3480156105f557600080fd5b506102c3600160a060020a036004358116906024359060443516606435610f5d565b34801561062357600080fd5b50610240610f91565b34801561063857600080fd5b506101fc600160a060020a036004358116906024359060443516606435610fef565b34801561066657600080fd5b506101fc611023565b34801561067b57600080fd5b50610436600160a060020a036004358116906024359060443516606435611029565b3480156106a957600080fd5b5061024060043561106f565b3480156106c157600080fd5b50610240600160a060020a03600435166110bd565b3480156106e257600080fd5b50610240600160a060020a0360043581169060243516604435611153565b34801561070c57600080fd5b50610240600160a060020a03600435166111ac565b34801561072d57600080fd5b50610240600160a060020a03600435811690602435906044359060643516608435611278565b34801561075f57600080fd5b506101fc6112d6565b34801561077457600080fd5b50610240600160a060020a03600435166112dc565b34801561079557600080fd5b50610436600160a060020a036004358116906024359060443516606435608435611399565b3480156107c657600080fd5b506104cb6113d3565b3480156107db57600080fd5b50610240600160a060020a036004358116906024359060443590606435166084356113f7565b34801561080d57600080fd5b50610464611440565b34801561082257600080fd5b506101fc611454565b34801561083757600080fd5b506102c360043561145a565b34801561084f57600080fd5b50610240600160a060020a036004351661146f565b600160a060020a0384166000908152600960209081526040808320868452600101909152812061089b90848463ffffffff6114f916565b95945050505050565b6108ad336109fe565b15156108b857600080fd5b600160a060020a038516600090815260096020908152604080832087845290915290206108ed9084848463ffffffff61153f16565b6108f9858584846115b9565b5050505050565b610909336109fe565b151561091457600080fd5b600160a060020a038616600090815260096020908152604080832088845290915290206109499084848463ffffffff61153f16565b600160a060020a0386166000908152600960209081526040808320878452909152902061097e9084848463ffffffff6115fc16565b61098a868684846115b9565b610996868584846115b9565b61099f84611649565b505050505050565b600080805b6007548110156109f5576109eb6109de876007848154811015156109cc57fe5b90600052602060002001548888610fef565b839063ffffffff6116b216565b91506001016109ac565b50949350505050565b6000610a0982610c33565b8015610a305750600160a060020a0382166000908152600260205260409020600101544210155b92915050565b33610a3f610dbd565b600160a060020a031614610a5257600080fd5b60005460ff1615610a6257600080fd5b6040805133815290517f787a5d936e74f4b564b9153575886059829c78cd9927b1be5e0d976b317ef7369181900360200190a133ff5b6000610aa26116ee565b1515610aad57600080fd5b82600160a060020a0381161515610ac357600080fd5b600160a060020a038116301415610ad957600080fd5b600160a060020a03841660009081526002602052604090205460ff161515610b0057600080fd5b610b0983611704565b600160a060020a0385166000908152600260208181526040808420858552909201905290205490925060ff1615610b3f57600080fd5b600160a060020a03841660008181526002602081815260408084208785528084018352818520805460ff19166001908117909155938352600301805493840181558452818420909201869055815193845283810182815287519285019290925286517fec1b982d69bfc1a6fd8becf191d9a633486c822d3bdedd52303ca81fa635750194899489949193919260608501928601918190849084905b83811015610bf2578181015183820152602001610bda565b50505050905090810190601f168015610c1f5780820380516001836020036101000a031916815260200191505b50935050505060405180910390a150505050565b600160a060020a031660009081526002602052604090205460ff1690565b60005460ff1681565b6000610c646116ee565b1515610c6f57600080fd5b82600160a060020a0381161515610c8557600080fd5b600160a060020a038116301415610c9b57600080fd5b610ca483611704565b600160a060020a0385166000908152600260208181526040808420858552909201905290205490925060ff161515610cdb57600080fd5b600160a060020a03841660008181526002602081815260408084208785529092018152818320805460ff19169055815193845283810182815287519285019290925286517f92f4af6130f47c92f3899e06611c8c6ef191fb81207ad2675d134af619d2fe7d948994899491939192606085019286019181908490849083811015610bf2578181015183820152602001610bda565b60035481565b600160a060020a038516600090815260096020908152604080832087845260010190915281208190610daf9086868663ffffffff6117ce16565b915091509550959350505050565b6000546101009004600160a060020a031690565b60055481565b610ddf6116ee565b1515610dea57600080fd5b80600160a060020a0381161515610e0057600080fd5b600160a060020a038116301415610e1657600080fd5b600160a060020a03821660009081526002602052604090205460ff161515610e3d57600080fd5b600160a060020a038216600081815260026020908152604091829020805460ff19169055815192835290517f777645c5437dfbf962f57a281ead25f3d513f2f8e938685bbfc1738e81c9880e9281900390910190a15050565b604080518082019091526009815260ba60020a6819195c1bdcda5d195902602082015281565b604080518082019091526006815260d260020a651cdd1859d95902602082015281565b6007805482908110610eed57fe5b600091825260209091200154905081565b600154600160a060020a031681565b600080610f1983611704565b9050610f24846109fe565b8015610f555750600160a060020a0384166000908152600260208181526040808420858552909201905290205460ff165b949350505050565b600160a060020a0384166000908152600960209081526040808320868452909152812061089b90848463ffffffff6117e816565b33610f9a610dbd565b600160a060020a031614610fad57600080fd5b6000805460ff191660011790556040805133815290517fd5a2a04a775c741c2ca0dc46ea7ce4835190e1aaf1ca018def0e82568ec336169181900360200190a1565b600160a060020a0384166000908152600960209081526040808320868452909152812061089b90848463ffffffff6114f916565b60065481565b600160a060020a03841660009081526009602090815260408083208684526001019091528120819061106290858563ffffffff61188d16565b9150915094509492505050565b6110776116ee565b151561108257600080fd5b60038190556040805182815290517f4f1d324a1cbffc352fb64f1d73d95e4b200d92f99ef39bf2d7f5b41f946909d69181900360200190a150565b6110c56116ee565b15156110d057600080fd5b80600160a060020a03811615156110e657600080fd5b600160a060020a0381163014156110fc57600080fd5b61110882600354611969565b60035460408051600160a060020a0385168152602081019290925280517f7f3a8349917003ed377f6e9ae1608b92edd893903f8983bd274b1f8373dd3b119281900390910190a15050565b600061115e336109fe565b151561116957600080fd5b5060005b6007548110156111a65761119e8460078381548110151561118a57fe5b9060005260206000200154600086866113f7565b60010161116d565b50505050565b60006111b66116ee565b15156111c157600080fd5b81600160a060020a03811615156111d757600080fd5b600160a060020a0381163014156111ed57600080fd5b600054600160a060020a0384811661010090920416146112735760008054600160a060020a0385811661010081810261010060a860020a0319851617909455604080519490930491909116808452602084019190915281519094507f977e5fa58e458501775e0008d275006294c5249e3c08d1d0e3a9f3acad14f6e49281900390910190a15b505050565b611281336109fe565b151561128c57600080fd5b600160a060020a038516600090815260096020908152604080832087845290915290206112c19084848463ffffffff6115fc16565b6112cd858584846115b9565b6108f984611649565b60075490565b60006112e66119bb565b15156112f157600080fd5b81600160a060020a038116151561130757600080fd5b600160a060020a03811630141561131d57600080fd5b600154600160a060020a038481169116146112735760018054600160a060020a03858116600160a060020a0319831681179093556040805191909216808252602082019390935281519294507f9f611b789425d0d5b90b920f1b2852907dd865c80074a30b1629aaa041d1812c929081900390910190a1505050565b600160a060020a038516600090815260096020908152604080832087845260010190915281208190610daf9086868663ffffffff6119cc16565b604080518082019091526007815260ca60020a661cd95d1d1b195902602082015281565b611400336109fe565b151561140b57600080fd5b600160a060020a038516600090815260096020908152604080832087845290915290206112c19084848463ffffffff611aa016565b6000546101009004600160a060020a031681565b60045481565b60086020526000908152604090205460ff1681565b6114776116ee565b151561148257600080fd5b80600160a060020a038116151561149857600080fd5b600160a060020a0381163014156114ae57600080fd5b6114b9826000611969565b60408051600160a060020a038416815290517fb619d545cb511bd5f02907a1eac4f4cb8dace7b1846852fb0bf5e553937481c19181900360200190a15050565b6000600160a060020a038316151561151657811561151657600080fd5b50600160a060020a03919091166000908152602092835260408082209282529190925290205490565b600160a060020a038216151561155a57801561155a57600080fd5b600160a060020a03821660009081526020858152604080832084845290915290205461158c908463ffffffff611aea16565b600160a060020a0383166000908152602086815260408083208584529091529020556111a6848383611b26565b6111a66115c885858585610fef565b600160a060020a0386166000908152600960209081526040808320888452600101909152902090848463ffffffff611da216565b600160a060020a038216151561161757801561161757600080fd5b600160a060020a03821660009081526020858152604080832084845290915290205461158c908463ffffffff6116b216565b60008181526008602052604090205460ff1615156116af576000818152600860205260408120805460ff191660019081179091556007805491820181559091527fa66cc928b5edb82af9bd49922954155ab7b0942694bea4ce44661d9a8736c688018190555b50565b60008282018183128015906116c75750838112155b806116dc57506000831280156116dc57508381125b15156116e757600080fd5b9392505050565b6000546101009004600160a060020a0316331490565b6000816040516020018082805190602001908083835b602083106117395780518252601f19909201916020918201910161171a565b6001836020036101000a0380198251168184511680821785525050505050509050019150506040516020818303038152906040526040518082805190602001908083835b6020831061179c5780518252601f19909201916020918201910161177d565b5181516020939093036101000a6000190180199091169216919091179052604051920182900390912095945050505050565b6000806110628686866117e38a8a8a8a611e15565b6119cc565b6040805160e060020a632eaac119028152600185016004820152600160a060020a038416602482015260448101839052905160009173__InUseCurrencyLib______________________91632eaac11991606480820192602092909190829003018186803b15801561185957600080fd5b505af415801561186d573d6000803e3d6000fd5b505050506040513d602081101561188357600080fd5b5051949350505050565b60008080600160a060020a03851615156118ac5783156118ac57600080fd5b600160a060020a038516600090815260208781526040808320878452909152812054116118d857600080fd5b50600160a060020a03841660009081526020868152604080832086845290915290208054600019810191908290811061190d57fe5b60009182526020808320600290920290910154600160a060020a0388168352888252604080842088855290925291208054919450908290811061194c57fe5b906000526020600020906002020160010154915050935093915050565b600160a060020a03821660009081526002602052604090205460ff1615156119b757600160a060020a0382166000908152600260205260409020805460ff1916600190811782554283019101555b5050565b600154600160a060020a0316331490565b600080600160a060020a03851615156119ea5783156119ea57600080fd5b600160a060020a0385166000908152602087815260408083208784529091529020548310611a1757600080fd5b600160a060020a0385166000908152602087815260408083208784529091529020805484908110611a4457fe5b60009182526020808320600290920290910154600160a060020a03881683528882526040808420888552909252912080549193509084908110611a8357fe5b906000526020600020906002020160010154905094509492505050565b600160a060020a0382161515611abb578015611abb57600080fd5b600160a060020a03821660009081526020858152604080832084845290915290208390556111a6848383611b26565b6000808212158015611afe57508282840313155b80611b155750600082128015611b15575082828403135b1515611b2057600080fd5b50900390565b600160a060020a038216600090815260208481526040808320848452909152902054158015611bea57506040805160e060020a632eaac119028152600185016004820152600160a060020a038416602482015260448101839052905173__InUseCurrencyLib______________________91632eaac119916064808301926020929190829003018186803b158015611bbd57600080fd5b505af4158015611bd1573d6000803e3d6000fd5b505050506040513d6020811015611be757600080fd5b50515b15611c79576040805160e060020a632d98bc59028152600185016004820152600160a060020a038416602482015260448101839052905173__InUseCurrencyLib______________________91632d98bc59916064808301926000929190829003018186803b158015611c5c57600080fd5b505af4158015611c70573d6000803e3d6000fd5b50505050611273565b6040805160e060020a632eaac119028152600185016004820152600160a060020a038416602482015260448101839052905173__InUseCurrencyLib______________________91632eaac119916064808301926020929190829003018186803b158015611ce657600080fd5b505af4158015611cfa573d6000803e3d6000fd5b505050506040513d6020811015611d1057600080fd5b50511515611273576040805160e260020a630ea18e7f028152600185016004820152600160a060020a038416602482015260448101839052905173__InUseCurrencyLib______________________91633a8639fc916064808301926000929190829003018186803b158015611d8557600080fd5b505af4158015611d99573d6000803e3d6000fd5b50505050505050565b600160a060020a0382161515611dbd578015611dbd57600080fd5b600160a060020a03909116600090815260209384526040808220928252918452818120825180840190935292825243828501908152835460018181018655948352949091209151600290940290910192835551910155565b600160a060020a03831660009081526020858152604080832085845290915281205481908110611e4457600080fd5b50600160a060020a038416600090815260208681526040808320868452909152902054600019015b600081106101c957600160a060020a0385166000908152602087815260408083208784529091529020805482908110611ea157fe5b90600052602060002090600202016001015483101515611ec3578091506109f5565b60001901611e6c5600a165627a7a72305820a9fa6cc7d004784694ce6d7e1ddd6b6a9857d221651a7ec3fa91342b5a51c5ba0029",
    "source": "/*\n * Hubii Nahmii\n *\n * Compliant with the Hubii Nahmii specification v0.12.\n *\n * Copyright (C) 2017-2018 Hubii AS\n */\n\npragma solidity ^0.4.25;\n\nimport {Ownable} from \"./Ownable.sol\";\nimport {Servable} from \"./Servable.sol\";\nimport {SafeMathIntLib} from \"./SafeMathIntLib.sol\";\nimport {BalanceLib} from \"./BalanceLib.sol\";\nimport {BalanceLogLib} from \"./BalanceLogLib.sol\";\n\n/**\n@title Balance tracker\n@notice An ownable to track balances of generic types\n*/\ncontract BalanceTracker is Ownable, Servable {\n    using SafeMathIntLib for int256;\n    using BalanceLib for BalanceLib.Balance;\n    using BalanceLogLib for BalanceLogLib.BalanceLog;\n\n    //\n    // Constants\n    // -----------------------------------------------------------------------------------------------------------------\n    string constant public DEPOSITED_BALANCE_TYPE = \"deposited\";\n    string constant public SETTLED_BALANCE_TYPE = \"settled\";\n    string constant public STAGED_BALANCE_TYPE = \"staged\";\n\n    //\n    // Variables\n    // -----------------------------------------------------------------------------------------------------------------\n    bytes32 public depositedBalanceType;\n    bytes32 public settledBalanceType;\n    bytes32 public stagedBalanceType;\n    bytes32[] public balanceTypes;\n    mapping(bytes32 => bool) public balanceTypeMap;\n\n    //\n    // Structures\n    // -----------------------------------------------------------------------------------------------------------------\n    struct Wallet {\n        mapping(bytes32 => BalanceLib.Balance) balanceByType;\n        mapping(bytes32 => BalanceLogLib.BalanceLog) balanceLogByType;\n    }\n\n    //\n    // Variables\n    // -----------------------------------------------------------------------------------------------------------------\n    mapping(address => Wallet) private walletMap;\n\n    //\n    // Constructor\n    // -----------------------------------------------------------------------------------------------------------------\n    constructor(address deployer) Ownable(deployer)\n    public\n    {\n        depositedBalanceType = keccak256(abi.encodePacked(DEPOSITED_BALANCE_TYPE));\n        settledBalanceType = keccak256(abi.encodePacked(SETTLED_BALANCE_TYPE));\n        stagedBalanceType = keccak256(abi.encodePacked(STAGED_BALANCE_TYPE));\n    }\n\n    //\n    // Functions\n    // -----------------------------------------------------------------------------------------------------------------\n    /// @notice Get the balance of the given wallet, type and currency\n    /// @param wallet The address of the concerned wallet\n    /// @param _type The balance type\n    /// @param currencyCt The address of the concerned currency contract (address(0) == ETH)\n    /// @param currencyId The ID of the concerned currency (0 for ETH and ERC20)\n    /// @return The stored balance\n    function get(address wallet, bytes32 _type, address currencyCt, uint256 currencyId)\n    public\n    view\n    returns (int256)\n    {\n        return walletMap[wallet].balanceByType[_type].get(currencyCt, currencyId);\n    }\n\n    /// @notice Set the balance of the given wallet, type and currency to the given amount\n    /// @param wallet The address of the concerned wallet\n    /// @param _type The balance type\n    /// @param amount The concerned amount\n    /// @param currencyCt The address of the concerned currency contract (address(0) == ETH)\n    /// @param currencyId The ID of the concerned currency (0 for ETH and ERC20)\n    function set(address wallet, bytes32 _type, int256 amount, address currencyCt, uint256 currencyId)\n    public\n    onlyActiveService\n    {\n        // Update the balance\n        walletMap[wallet].balanceByType[_type].set(amount, currencyCt, currencyId);\n\n        // Update log\n        _updateBalanceLog(wallet, _type, currencyCt, currencyId);\n\n        // Update balance type hashes\n        _updateBalanceTypes(_type);\n    }\n\n    /// @notice Reset all balances of the given wallet and currency\n    /// @param wallet The address of the concerned wallet\n    /// @param currencyCt The address of the concerned currency contract (address(0) == ETH)\n    /// @param currencyId The ID of the concerned currency (0 for ETH and ERC20)\n    function reset(address wallet, address currencyCt, uint256 currencyId)\n    public\n    onlyActiveService\n    {\n        for (uint256 i = 0; i < balanceTypes.length; i++) {\n            // Set the balance\n            set(wallet, balanceTypes[i], 0, currencyCt, currencyId);\n        }\n    }\n\n    /// @notice Add the given amount to the balance of the given wallet, type and currency\n    /// @param wallet The address of the concerned wallet\n    /// @param _type The balance type\n    /// @param amount The concerned amount\n    /// @param currencyCt The address of the concerned currency contract (address(0) == ETH)\n    /// @param currencyId The ID of the concerned currency (0 for ETH and ERC20)\n    function add(address wallet, bytes32 _type, int256 amount, address currencyCt, uint256 currencyId)\n    public\n    onlyActiveService\n    {\n        // Update the balance\n        walletMap[wallet].balanceByType[_type].add(amount, currencyCt, currencyId);\n\n        // Update log\n        _updateBalanceLog(wallet, _type, currencyCt, currencyId);\n\n        // Update balance type hashes\n        _updateBalanceTypes(_type);\n    }\n\n    /// @notice Subtract the given amount from the balance of the given wallet, type and currency\n    /// @param wallet The address of the concerned wallet\n    /// @param _type The balance type\n    /// @param amount The concerned amount\n    /// @param currencyCt The address of the concerned currency contract (address(0) == ETH)\n    /// @param currencyId The ID of the concerned currency (0 for ETH and ERC20)\n    function sub(address wallet, bytes32 _type, int256 amount, address currencyCt, uint256 currencyId)\n    public\n    onlyActiveService\n    {\n        // Update the balance\n        walletMap[wallet].balanceByType[_type].sub(amount, currencyCt, currencyId);\n\n        // Update log\n        _updateBalanceLog(wallet, _type, currencyCt, currencyId);\n    }\n\n    /// @notice Transfer the given amount from the balance of fromType to the balance toType\n    /// of the given wallet, type and currency\n    /// @param wallet The address of the concerned wallet\n    /// @param fromType The balance from-type\n    /// @param toType The balance to-type\n    /// @param amount The concerned amount\n    /// @param currencyCt The address of the concerned currency contract (address(0) == ETH)\n    /// @param currencyId The ID of the concerned currency (0 for ETH and ERC20)\n    function transfer(address wallet, bytes32 fromType, bytes32 toType, int256 amount, address currencyCt,\n        uint256 currencyId)\n    public\n    onlyActiveService\n    {\n        // Update the balances\n        walletMap[wallet].balanceByType[fromType].sub(amount, currencyCt, currencyId);\n        walletMap[wallet].balanceByType[toType].add(amount, currencyCt, currencyId);\n\n        // Update logs\n        _updateBalanceLog(wallet, fromType, currencyCt, currencyId);\n        _updateBalanceLog(wallet, toType, currencyCt, currencyId);\n\n        // Update balance type hashes\n        _updateBalanceTypes(toType);\n    }\n\n    /// @notice Sum all balances of the given wallet and currency\n    /// @param wallet The address of the concerned wallet\n    /// @param currencyCt The address of the concerned currency contract (address(0) == ETH)\n    /// @param currencyId The ID of the concerned currency (0 for ETH and ERC20)\n    /// @return The sum of balance\n    function sum(address wallet, address currencyCt, uint256 currencyId)\n    public\n    view\n    returns (int256)\n    {\n        int256 _sum = 0;\n        for (uint256 i = 0; i < balanceTypes.length; i++) {\n            _sum = _sum.add(get(wallet, balanceTypes[i], currencyCt, currencyId));\n        }\n        return _sum;\n    }\n\n    /// @notice Gauge whether this tracker has data for the given wallet, type and currency\n    /// @param wallet The address of the concerned wallet\n    /// @param _type The balance type\n    /// @param currencyCt The address of the concerned currency contract (address(0) == ETH)\n    /// @param currencyId The ID of the concerned currency (0 for ETH and ERC20)\n    /// @return true if data is stored, else false\n    function hasCurrency(address wallet, bytes32 _type, address currencyCt, uint256 currencyId)\n    public\n    view\n    returns (bool)\n    {\n        return walletMap[wallet].balanceByType[_type].hasCurrency(currencyCt, currencyId);\n    }\n\n    /// @notice Get the number of balance log entries for the given wallet, type and currency\n    /// @param wallet The address of the concerned wallet\n    /// @param _type The balance type\n    /// @param currencyCt The address of the concerned currency contract (address(0) == ETH)\n    /// @param currencyId The ID of the concerned currency (0 for ETH and ERC20)\n    /// @return The count of balance log entries\n    function logSize(address wallet, bytes32 _type, address currencyCt, uint256 currencyId)\n    public\n    view\n    returns (uint256)\n    {\n        return walletMap[wallet].balanceLogByType[_type].count(currencyCt, currencyId);\n    }\n\n    /// @notice Get the log entry for the given wallet, type and currency by the given\n    /// log entry index\n    /// @param wallet The address of the concerned wallet\n    /// @param _type The balance type\n    /// @param currencyCt The address of the concerned currency contract (address(0) == ETH)\n    /// @param currencyId The ID of the concerned currency (0 for ETH and ERC20)\n    /// @param index The concerned log index\n    /// @return The log entry\n    function logByIndex(address wallet, bytes32 _type, address currencyCt, uint256 currencyId,\n        uint256 index)\n    public\n    view\n    returns (int256 amount, uint256 blockNumber)\n    {\n        return walletMap[wallet].balanceLogByType[_type].getByIndex(currencyCt, currencyId, index);\n    }\n\n    /// @notice Get the log entry for the given wallet, type and currency by the given\n    /// block number\n    /// @param wallet The address of the concerned wallet\n    /// @param _type The balance type\n    /// @param currencyCt The address of the concerned currency contract (address(0) == ETH)\n    /// @param currencyId The ID of the concerned currency (0 for ETH and ERC20)\n    /// @param _blockNumber The concerned block number\n    /// @return The log entry\n    function logByBlockNumber(address wallet, bytes32 _type, address currencyCt, uint256 currencyId,\n        uint256 _blockNumber)\n    public\n    view\n    returns (int256 amount, uint256 blockNumber)\n    {\n        return walletMap[wallet].balanceLogByType[_type].getByBlockNumber(currencyCt, currencyId, _blockNumber);\n    }\n\n    /// @notice Get the last (most recent) log entry for the given wallet, type and currency\n    /// @param wallet The address of the concerned wallet\n    /// @param _type The balance type\n    /// @param currencyCt The address of the concerned currency contract (address(0) == ETH)\n    /// @param currencyId The ID of the concerned currency (0 for ETH and ERC20)\n    /// @return The last log entry\n    function lastLog(address wallet, bytes32 _type, address currencyCt, uint256 currencyId)\n    public\n    view\n    returns (int256 amount, uint256 blockNumber)\n    {\n        return walletMap[wallet].balanceLogByType[_type].getLast(currencyCt, currencyId);\n    }\n\n    /// @notice Get the count of balance types stored\n    /// @return The count of balance types\n    function balanceTypesCount()\n    public\n    view\n    returns (uint256)\n    {\n        return balanceTypes.length;\n    }\n\n    //\n    // Private functions\n    // -----------------------------------------------------------------------------------------------------------------\n    function _updateBalanceLog(address wallet, bytes32 _type, address currencyCt, uint256 currencyId)\n    private\n    {\n        // Add a new log entry\n        walletMap[wallet].balanceLogByType[_type].add(\n            get(wallet, _type, currencyCt, currencyId), currencyCt, currencyId\n        );\n    }\n\n    function _updateBalanceTypes(bytes32 _type)\n    private\n    {\n        if (!balanceTypeMap[_type]) {\n            balanceTypeMap[_type] = true;\n            balanceTypes.push(_type);\n        }\n    }\n}",
    "sourcePath": "/Users/yons/development/hubii/striim-contracts/contracts/BalanceTracker.sol",
    "compiler": {
        "name": "solc",
        "version": "0.4.25+commit.59dbf8f1.Emscripten.clang"
    },
    "schemaVersion": "2.0.1",
    "updatedAt": "2018-12-07T08:47:11.920Z"
}