{
  "contractName": "ClientFund",
  "abi": [
    {
      "constant": false,
      "inputs": [
        {
          "name": "service",
          "type": "address"
        }
      ],
      "name": "authorizeRegisteredService",
      "outputs": [],
      "payable": false,
      "stateMutability": "nonpayable",
      "type": "function"
    },
    {
      "constant": true,
      "inputs": [
        {
          "name": "beneficiary",
          "type": "address"
        }
      ],
      "name": "isRegisteredBeneficiary",
      "outputs": [
        {
          "name": "",
          "type": "bool"
        }
      ],
      "payable": false,
      "stateMutability": "view",
      "type": "function"
    },
    {
      "constant": true,
      "inputs": [
        {
          "name": "service",
          "type": "address"
        }
      ],
      "name": "isRegisteredActiveService",
      "outputs": [
        {
          "name": "",
          "type": "bool"
        }
      ],
      "payable": false,
      "stateMutability": "view",
      "type": "function"
    },
    {
      "constant": false,
      "inputs": [
        {
          "name": "beneficiary",
          "type": "address"
        }
      ],
      "name": "deregisterBeneficiary",
      "outputs": [
        {
          "name": "",
          "type": "bool"
        }
      ],
      "payable": false,
      "stateMutability": "nonpayable",
      "type": "function"
    },
    {
      "constant": false,
      "inputs": [
        {
          "name": "service",
          "type": "address"
        },
        {
          "name": "action",
          "type": "string"
        }
      ],
      "name": "enableServiceAction",
      "outputs": [],
      "payable": false,
      "stateMutability": "nonpayable",
      "type": "function"
    },
    {
      "constant": true,
      "inputs": [
        {
          "name": "service",
          "type": "address"
        }
      ],
      "name": "isRegisteredService",
      "outputs": [
        {
          "name": "",
          "type": "bool"
        }
      ],
      "payable": false,
      "stateMutability": "view",
      "type": "function"
    },
    {
      "constant": false,
      "inputs": [
        {
          "name": "service",
          "type": "address"
        },
        {
          "name": "action",
          "type": "string"
        }
      ],
      "name": "disableServiceAction",
      "outputs": [],
      "payable": false,
      "stateMutability": "nonpayable",
      "type": "function"
    },
    {
      "constant": true,
      "inputs": [],
      "name": "serviceActivationTimeout",
      "outputs": [
        {
          "name": "",
          "type": "uint256"
        }
      ],
      "payable": false,
      "stateMutability": "view",
      "type": "function"
    },
    {
      "constant": true,
      "inputs": [],
      "name": "destructor",
      "outputs": [
        {
          "name": "",
          "type": "address"
        }
      ],
      "payable": false,
      "stateMutability": "view",
      "type": "function"
    },
    {
      "constant": false,
      "inputs": [
        {
          "name": "service",
          "type": "address"
        }
      ],
      "name": "deregisterService",
      "outputs": [],
      "payable": false,
      "stateMutability": "nonpayable",
      "type": "function"
    },
    {
      "constant": true,
      "inputs": [
        {
          "name": "service",
          "type": "address"
        },
        {
          "name": "wallet",
          "type": "address"
        }
      ],
      "name": "isAuthorizedServiceForWallet",
      "outputs": [
        {
          "name": "",
          "type": "bool"
        }
      ],
      "payable": false,
      "stateMutability": "view",
      "type": "function"
    },
    {
      "constant": true,
      "inputs": [
        {
          "name": "service",
          "type": "address"
        },
        {
          "name": "action",
          "type": "string"
        }
      ],
      "name": "isEnabledServiceAction",
      "outputs": [
        {
          "name": "",
          "type": "bool"
        }
      ],
      "payable": false,
      "stateMutability": "view",
      "type": "function"
    },
    {
      "constant": false,
      "inputs": [
        {
          "name": "service",
          "type": "address"
        },
        {
          "name": "action",
          "type": "string"
        }
      ],
      "name": "authorizeRegisteredServiceAction",
      "outputs": [],
      "payable": false,
      "stateMutability": "nonpayable",
      "type": "function"
    },
    {
      "constant": false,
      "inputs": [
        {
          "name": "timeoutInSeconds",
          "type": "uint256"
        }
      ],
      "name": "setServiceActivationTimeout",
      "outputs": [],
      "payable": false,
      "stateMutability": "nonpayable",
      "type": "function"
    },
    {
      "constant": false,
      "inputs": [
        {
          "name": "service",
          "type": "address"
        },
        {
          "name": "action",
          "type": "string"
        }
      ],
      "name": "unauthorizeRegisteredServiceAction",
      "outputs": [],
      "payable": false,
      "stateMutability": "nonpayable",
      "type": "function"
    },
    {
      "constant": true,
      "inputs": [],
      "name": "owner",
      "outputs": [
        {
          "name": "",
          "type": "address"
        }
      ],
      "payable": false,
      "stateMutability": "view",
      "type": "function"
    },
    {
      "constant": false,
      "inputs": [
        {
          "name": "service",
          "type": "address"
        }
      ],
      "name": "registerServiceDeferred",
      "outputs": [],
      "payable": false,
      "stateMutability": "nonpayable",
      "type": "function"
    },
    {
      "constant": false,
      "inputs": [],
      "name": "triggerDestroy",
      "outputs": [],
      "payable": false,
      "stateMutability": "nonpayable",
      "type": "function"
    },
    {
      "constant": false,
      "inputs": [
        {
          "name": "service",
          "type": "address"
        }
      ],
      "name": "unauthorizeRegisteredService",
      "outputs": [],
      "payable": false,
      "stateMutability": "nonpayable",
      "type": "function"
    },
    {
      "constant": false,
      "inputs": [
        {
          "name": "newOwner",
          "type": "address"
        }
      ],
      "name": "changeOwner",
      "outputs": [],
      "payable": false,
      "stateMutability": "nonpayable",
      "type": "function"
    },
    {
      "constant": true,
      "inputs": [],
      "name": "transferControllerManager",
      "outputs": [
        {
          "name": "",
          "type": "address"
        }
      ],
      "payable": false,
      "stateMutability": "view",
      "type": "function"
    },
    {
      "constant": false,
      "inputs": [
        {
          "name": "newAddress",
          "type": "address"
        }
      ],
      "name": "changeTransferControllerManager",
      "outputs": [],
      "payable": false,
      "stateMutability": "nonpayable",
      "type": "function"
    },
    {
      "constant": false,
      "inputs": [
        {
          "name": "beneficiary",
          "type": "address"
        }
      ],
      "name": "registerBeneficiary",
      "outputs": [
        {
          "name": "",
          "type": "bool"
        }
      ],
      "payable": false,
      "stateMutability": "nonpayable",
      "type": "function"
    },
    {
      "constant": true,
      "inputs": [
        {
          "name": "service",
          "type": "address"
        },
        {
          "name": "action",
          "type": "string"
        },
        {
          "name": "wallet",
          "type": "address"
        }
      ],
      "name": "isAuthorizedServiceActionForWallet",
      "outputs": [
        {
          "name": "",
          "type": "bool"
        }
      ],
      "payable": false,
      "stateMutability": "view",
      "type": "function"
    },
    {
      "constant": false,
      "inputs": [
        {
          "name": "service",
          "type": "address"
        }
      ],
      "name": "registerService",
      "outputs": [],
      "payable": false,
      "stateMutability": "nonpayable",
      "type": "function"
    },
    {
      "inputs": [
        {
          "name": "owner",
          "type": "address"
        }
      ],
      "payable": false,
      "stateMutability": "nonpayable",
      "type": "constructor"
    },
    {
      "payable": true,
      "stateMutability": "payable",
      "type": "fallback"
    },
    {
      "anonymous": false,
      "inputs": [
        {
          "indexed": false,
          "name": "wallet",
          "type": "address"
        },
        {
          "indexed": false,
          "name": "amount",
          "type": "int256"
        },
        {
          "indexed": false,
          "name": "currencyCt",
          "type": "address"
        },
        {
          "indexed": false,
          "name": "currencyId",
          "type": "uint256"
        },
        {
          "indexed": false,
          "name": "standard",
          "type": "string"
        }
      ],
      "name": "DepositEvent",
      "type": "event"
    },
    {
      "anonymous": false,
      "inputs": [
        {
          "indexed": false,
          "name": "wallet",
          "type": "address"
        },
        {
          "indexed": false,
          "name": "amount",
          "type": "int256"
        },
        {
          "indexed": false,
          "name": "currencyCt",
          "type": "address"
        },
        {
          "indexed": false,
          "name": "currencyId",
          "type": "uint256"
        },
        {
          "indexed": false,
          "name": "standard",
          "type": "string"
        }
      ],
      "name": "WithdrawEvent",
      "type": "event"
    },
    {
      "anonymous": false,
      "inputs": [
        {
          "indexed": false,
          "name": "wallet",
          "type": "address"
        },
        {
          "indexed": false,
          "name": "amount",
          "type": "int256"
        },
        {
          "indexed": false,
          "name": "currencyCt",
          "type": "address"
        },
        {
          "indexed": false,
          "name": "currencyId",
          "type": "uint256"
        }
      ],
      "name": "StageEvent",
      "type": "event"
    },
    {
      "anonymous": false,
      "inputs": [
        {
          "indexed": false,
          "name": "wallet",
          "type": "address"
        },
        {
          "indexed": false,
          "name": "amount",
          "type": "int256"
        },
        {
          "indexed": false,
          "name": "currencyCt",
          "type": "address"
        },
        {
          "indexed": false,
          "name": "currencyId",
          "type": "uint256"
        }
      ],
      "name": "UnstageEvent",
      "type": "event"
    },
    {
      "anonymous": false,
      "inputs": [
        {
          "indexed": false,
          "name": "wallet",
          "type": "address"
        },
        {
          "indexed": false,
          "name": "amount",
          "type": "int256"
        },
        {
          "indexed": false,
          "name": "currencyCt",
          "type": "address"
        },
        {
          "indexed": false,
          "name": "currencyId",
          "type": "uint256"
        }
      ],
      "name": "UpdateSettledBalanceEvent",
      "type": "event"
    },
    {
      "anonymous": false,
      "inputs": [
        {
          "indexed": false,
          "name": "sourceWallet",
          "type": "address"
        },
        {
          "indexed": false,
          "name": "beneficiary",
          "type": "address"
        },
        {
          "indexed": false,
          "name": "amount",
          "type": "int256"
        },
        {
          "indexed": false,
          "name": "currencyCt",
          "type": "address"
        },
        {
          "indexed": false,
          "name": "currencyId",
          "type": "uint256"
        }
      ],
      "name": "StageToBeneficiaryEvent",
      "type": "event"
    },
    {
      "anonymous": false,
      "inputs": [
        {
          "indexed": false,
          "name": "sourceWallet",
          "type": "address"
        },
        {
          "indexed": false,
          "name": "beneficiary",
          "type": "address"
        },
        {
          "indexed": false,
          "name": "amount",
          "type": "int256"
        },
        {
          "indexed": false,
          "name": "currencyCt",
          "type": "address"
        },
        {
          "indexed": false,
          "name": "currencyId",
          "type": "uint256"
        }
      ],
      "name": "StageToBeneficiaryUntargetedEvent",
      "type": "event"
    },
    {
      "anonymous": false,
      "inputs": [
        {
          "indexed": false,
          "name": "sourceWallet",
          "type": "address"
        },
        {
          "indexed": false,
          "name": "targetWallet",
          "type": "address"
        }
      ],
      "name": "SeizeAllBalancesEvent",
      "type": "event"
    },
    {
      "anonymous": false,
      "inputs": [
        {
          "indexed": false,
          "name": "oldTransferControllerManager",
          "type": "address"
        },
        {
          "indexed": false,
          "name": "newTransferControllerManager",
          "type": "address"
        }
      ],
      "name": "ChangeTransferControllerManagerEvent",
      "type": "event"
    },
    {
      "anonymous": false,
      "inputs": [
        {
          "indexed": false,
          "name": "wallet",
          "type": "address"
        },
        {
          "indexed": false,
          "name": "service",
          "type": "address"
        }
      ],
      "name": "AuthorizeRegisteredServiceEvent",
      "type": "event"
    },
    {
      "anonymous": false,
      "inputs": [
        {
          "indexed": false,
          "name": "wallet",
          "type": "address"
        },
        {
          "indexed": false,
          "name": "service",
          "type": "address"
        },
        {
          "indexed": false,
          "name": "action",
          "type": "string"
        }
      ],
      "name": "AuthorizeRegisteredServiceActionEvent",
      "type": "event"
    },
    {
      "anonymous": false,
      "inputs": [
        {
          "indexed": false,
          "name": "wallet",
          "type": "address"
        },
        {
          "indexed": false,
          "name": "service",
          "type": "address"
        }
      ],
      "name": "UnauthorizeRegisteredServiceEvent",
      "type": "event"
    },
    {
      "anonymous": false,
      "inputs": [
        {
          "indexed": false,
          "name": "wallet",
          "type": "address"
        },
        {
          "indexed": false,
          "name": "service",
          "type": "address"
        },
        {
          "indexed": false,
          "name": "action",
          "type": "string"
        }
      ],
      "name": "UnauthorizeRegisteredServiceActionEvent",
      "type": "event"
    },
    {
      "anonymous": false,
      "inputs": [
        {
          "indexed": false,
          "name": "timeoutInSeconds",
          "type": "uint256"
        }
      ],
      "name": "ServiceActivationTimeoutEvent",
      "type": "event"
    },
    {
      "anonymous": false,
      "inputs": [
        {
          "indexed": false,
          "name": "service",
          "type": "address"
        }
      ],
      "name": "RegisterServiceEvent",
      "type": "event"
    },
    {
      "anonymous": false,
      "inputs": [
        {
          "indexed": false,
          "name": "service",
          "type": "address"
        },
        {
          "indexed": false,
          "name": "timeout",
          "type": "uint256"
        }
      ],
      "name": "RegisterServiceDeferredEvent",
      "type": "event"
    },
    {
      "anonymous": false,
      "inputs": [
        {
          "indexed": false,
          "name": "service",
          "type": "address"
        }
      ],
      "name": "DeregisterServiceEvent",
      "type": "event"
    },
    {
      "anonymous": false,
      "inputs": [
        {
          "indexed": false,
          "name": "service",
          "type": "address"
        },
        {
          "indexed": false,
          "name": "action",
          "type": "string"
        }
      ],
      "name": "EnableServiceActionEvent",
      "type": "event"
    },
    {
      "anonymous": false,
      "inputs": [
        {
          "indexed": false,
          "name": "service",
          "type": "address"
        },
        {
          "indexed": false,
          "name": "action",
          "type": "string"
        }
      ],
      "name": "DisableServiceActionEvent",
      "type": "event"
    },
    {
      "anonymous": false,
      "inputs": [
        {
          "indexed": false,
          "name": "beneficiary",
          "type": "address"
        }
      ],
      "name": "RegisterBeneficiaryEvent",
      "type": "event"
    },
    {
      "anonymous": false,
      "inputs": [
        {
          "indexed": false,
          "name": "beneficiary",
          "type": "address"
        }
      ],
      "name": "DeregisterBeneficiaryEvent",
      "type": "event"
    },
    {
      "anonymous": false,
      "inputs": [
        {
          "indexed": false,
          "name": "oldOwner",
          "type": "address"
        },
        {
          "indexed": false,
          "name": "newOwner",
          "type": "address"
        }
      ],
      "name": "ChangeOwnerEvent",
      "type": "event"
    },
    {
      "constant": false,
      "inputs": [
        {
          "name": "wallet",
          "type": "address"
        }
      ],
      "name": "depositEthersTo",
      "outputs": [],
      "payable": true,
      "stateMutability": "payable",
      "type": "function"
    },
    {
      "constant": false,
      "inputs": [
        {
          "name": "amount",
          "type": "int256"
        },
        {
          "name": "currencyCt",
          "type": "address"
        },
        {
          "name": "currencyId",
          "type": "uint256"
        },
        {
          "name": "standard",
          "type": "string"
        }
      ],
      "name": "depositTokens",
      "outputs": [],
      "payable": false,
      "stateMutability": "nonpayable",
      "type": "function"
    },
    {
      "constant": false,
      "inputs": [
        {
          "name": "wallet",
          "type": "address"
        },
        {
          "name": "amount",
          "type": "int256"
        },
        {
          "name": "currencyCt",
          "type": "address"
        },
        {
          "name": "currencyId",
          "type": "uint256"
        },
        {
          "name": "standard",
          "type": "string"
        }
      ],
      "name": "depositTokensTo",
      "outputs": [],
      "payable": false,
      "stateMutability": "nonpayable",
      "type": "function"
    },
    {
      "constant": true,
      "inputs": [
        {
          "name": "wallet",
          "type": "address"
        },
        {
          "name": "index",
          "type": "uint256"
        }
      ],
      "name": "deposit",
      "outputs": [
        {
          "name": "amount",
          "type": "int256"
        },
        {
          "name": "timestamp",
          "type": "uint256"
        },
        {
          "name": "currencyCt",
          "type": "address"
        },
        {
          "name": "currencyId",
          "type": "uint256"
        }
      ],
      "payable": false,
      "stateMutability": "view",
      "type": "function"
    },
    {
      "constant": true,
      "inputs": [
        {
          "name": "wallet",
          "type": "address"
        }
      ],
      "name": "depositCount",
      "outputs": [
        {
          "name": "",
          "type": "uint256"
        }
      ],
      "payable": false,
      "stateMutability": "view",
      "type": "function"
    },
    {
      "constant": true,
      "inputs": [
        {
          "name": "wallet",
          "type": "address"
        },
        {
          "name": "currencyCt",
          "type": "address"
        },
        {
          "name": "currencyId",
          "type": "uint256"
        }
      ],
      "name": "depositedBalance",
      "outputs": [
        {
          "name": "",
          "type": "int256"
        }
      ],
      "payable": false,
      "stateMutability": "view",
      "type": "function"
    },
    {
      "constant": true,
      "inputs": [
        {
          "name": "wallet",
          "type": "address"
        },
        {
          "name": "currencyCt",
          "type": "address"
        },
        {
          "name": "currencyId",
          "type": "uint256"
        }
      ],
      "name": "settledBalance",
      "outputs": [
        {
          "name": "",
          "type": "int256"
        }
      ],
      "payable": false,
      "stateMutability": "view",
      "type": "function"
    },
    {
      "constant": true,
      "inputs": [
        {
          "name": "wallet",
          "type": "address"
        },
        {
          "name": "currencyCt",
          "type": "address"
        },
        {
          "name": "currencyId",
          "type": "uint256"
        }
      ],
      "name": "stagedBalance",
      "outputs": [
        {
          "name": "",
          "type": "int256"
        }
      ],
      "payable": false,
      "stateMutability": "view",
      "type": "function"
    },
    {
      "constant": false,
      "inputs": [
        {
          "name": "wallet",
          "type": "address"
        },
        {
          "name": "amount",
          "type": "int256"
        },
        {
          "name": "currencyCt",
          "type": "address"
        },
        {
          "name": "currencyId",
          "type": "uint256"
        }
      ],
      "name": "updateSettledBalance",
      "outputs": [],
      "payable": false,
      "stateMutability": "nonpayable",
      "type": "function"
    },
    {
      "constant": false,
      "inputs": [
        {
          "name": "wallet",
          "type": "address"
        },
        {
          "name": "amount",
          "type": "int256"
        },
        {
          "name": "currencyCt",
          "type": "address"
        },
        {
          "name": "currencyId",
          "type": "uint256"
        }
      ],
      "name": "stage",
      "outputs": [],
      "payable": false,
      "stateMutability": "nonpayable",
      "type": "function"
    },
    {
      "constant": false,
      "inputs": [
        {
          "name": "amount",
          "type": "int256"
        },
        {
          "name": "currencyCt",
          "type": "address"
        },
        {
          "name": "currencyId",
          "type": "uint256"
        }
      ],
      "name": "unstage",
      "outputs": [],
      "payable": false,
      "stateMutability": "nonpayable",
      "type": "function"
    },
    {
      "constant": false,
      "inputs": [
        {
          "name": "beneficiary",
          "type": "address"
        },
        {
          "name": "amount",
          "type": "int256"
        },
        {
          "name": "currencyCt",
          "type": "address"
        },
        {
          "name": "currencyId",
          "type": "uint256"
        }
      ],
      "name": "stageToBeneficiary",
      "outputs": [],
      "payable": false,
      "stateMutability": "nonpayable",
      "type": "function"
    },
    {
      "constant": false,
      "inputs": [
        {
          "name": "sourceWallet",
          "type": "address"
        },
        {
          "name": "beneficiary",
          "type": "address"
        },
        {
          "name": "amount",
          "type": "int256"
        },
        {
          "name": "currencyCt",
          "type": "address"
        },
        {
          "name": "currencyId",
          "type": "uint256"
        }
      ],
      "name": "stageToBeneficiaryUntargeted",
      "outputs": [],
      "payable": false,
      "stateMutability": "nonpayable",
      "type": "function"
    },
    {
      "constant": false,
      "inputs": [
        {
          "name": "sourceWallet",
          "type": "address"
        },
        {
          "name": "targetWallet",
          "type": "address"
        }
      ],
      "name": "seizeAllBalances",
      "outputs": [],
      "payable": false,
      "stateMutability": "nonpayable",
      "type": "function"
    },
    {
      "constant": false,
      "inputs": [
        {
          "name": "amount",
          "type": "int256"
        },
        {
          "name": "currencyCt",
          "type": "address"
        },
        {
          "name": "currencyId",
          "type": "uint256"
        },
        {
          "name": "standard",
          "type": "string"
        }
      ],
      "name": "withdraw",
      "outputs": [],
      "payable": false,
      "stateMutability": "nonpayable",
      "type": "function"
    },
    {
      "constant": true,
      "inputs": [
        {
          "name": "wallet",
          "type": "address"
        },
        {
          "name": "index",
          "type": "uint256"
        }
      ],
      "name": "withdrawal",
      "outputs": [
        {
          "name": "amount",
          "type": "int256"
        },
        {
          "name": "timestamp",
          "type": "uint256"
        },
        {
          "name": "token",
          "type": "address"
        },
        {
          "name": "id",
          "type": "uint256"
        }
      ],
      "payable": false,
      "stateMutability": "view",
      "type": "function"
    },
    {
      "constant": true,
      "inputs": [
        {
          "name": "wallet",
          "type": "address"
        }
      ],
      "name": "withdrawalCount",
      "outputs": [
        {
          "name": "",
          "type": "uint256"
        }
      ],
      "payable": false,
      "stateMutability": "view",
      "type": "function"
    }
  ],
  "bytecode": "0x60806040523480156200001157600080fd5b50604051602080620040b28339810180604052620000339190810190620000a4565b80600160a060020a03811615156200004a57600080fd5b600160a060020a0381163014156200006157600080fd5b60008054600160a060020a031916600160a060020a03929092169190911790555062093a80600455620000d9565b60006200009d8251620000cd565b9392505050565b600060208284031215620000b757600080fd5b6000620000c584846200008f565b949350505050565b600160a060020a031690565b613fc980620000e96000396000f3006080604052600436106101ea5763ffffffff60e060020a60003504166301f3241f81146101f557806304fd3130146102155780630bf378b71461024b5780630f200f9b1461027857806312e94dda1461029857806317ba3f90146102b85780631caf1d6d146102d85780632b5672e3146102f85780632b91e0a91461031857806332bdcb82146103385780633b58c5011461034b5780633b7bea6c1461036b5780633ed5d71c14610380578063406b20f8146103a05780634476d23b146103c057806347e7ef24146103e25780634f383b5e1461041257806350b08c021461043257806356b2986b146104525780635a6b26ba146104725780635df1b0a31461049257806362ac7621146104b25780636a1724a0146104d257806376788ffa146104f25780637e15dd5c146105125780637f290068146105325780638a2f30cc146105525780638da5cb5b146105725780638e38a4b6146105875780638e8cef12146105a757806394dd293c146105c7578063a3e5175d146105dc578063a6f9dae1146105fc578063af30b3121461061c578063affc0fa01461063e578063b3d8bcdc1461065e578063c5e07d3a1461067e578063cd49737d1461069e578063cdd8b2b2146106be578063f4443d9a146106de578063f45321d6146106fe578063fdd9ec7d1461071e575b6101f33361073e565b005b34801561020157600080fd5b506101f3610210366004613708565b6108e2565b34801561022157600080fd5b50610235610230366004613708565b6109b9565b6040516102429190613dcb565b60405180910390f35b34801561025757600080fd5b5061026b610266366004613760565b6109d5565b6040516102429190613e02565b34801561028457600080fd5b506101f3610293366004613aac565b610a21565b3480156102a457600080fd5b5061026b6102b3366004613760565b610d66565b3480156102c457600080fd5b506102356102d3366004613708565b610daa565b3480156102e457600080fd5b506102356102f3366004613708565b610de2565b34801561030457600080fd5b506101f3610313366004613902565b610fcf565b34801561032457600080fd5b50610235610333366004613708565b6110fe565b6101f3610346366004613708565b61073e565b34801561035757600080fd5b506101f3610366366004613902565b61111c565b34801561037757600080fd5b5061026b6111fe565b34801561038c57600080fd5b506101f361039b366004613aac565b611204565b3480156103ac57600080fd5b506101f36103bb3660046137ad565b611217565b3480156103cc57600080fd5b506103d56112ae565b6040516102429190613be3565b3480156103ee57600080fd5b506104026103fd3660046139a3565b6112be565b6040516102429493929190613e1e565b34801561041e57600080fd5b506101f361042d366004613883565b6112ff565b34801561043e57600080fd5b506101f361044d366004613708565b61159e565b34801561045e57600080fd5b5061023561046d366004613726565b611654565b34801561047e57600080fd5b5061040261048d3660046139a3565b6116ba565b34801561049e57600080fd5b506102356104ad366004613902565b6116fe565b3480156104be57600080fd5b506101f36104cd366004613902565b61174f565b3480156104de57600080fd5b506101f36104ed366004613a8b565b611891565b3480156104fe57600080fd5b506101f361050d366004613a0f565b611a60565b34801561051e57600080fd5b506101f361052d366004613b36565b611ab7565b34801561053e57600080fd5b506101f361054d366004613726565b611b0a565b34801561055e57600080fd5b506101f361056d366004613902565b611dfe565b34801561057e57600080fd5b506103d5611f22565b34801561059357600080fd5b5061026b6105a2366004613760565b611f31565b3480156105b357600080fd5b506101f36105c2366004613708565b611f75565b3480156105d357600080fd5b506101f3611ff3565b3480156105e857600080fd5b506101f36105f7366004613708565b612022565b34801561060857600080fd5b506101f3610617366004613708565b6120fc565b34801561062857600080fd5b506106316121a6565b6040516102429190613dd9565b34801561064a57600080fd5b506101f3610659366004613822565b6121b5565b34801561066a57600080fd5b5061026b610679366004613708565b612315565b34801561068a57600080fd5b506101f3610699366004613a31565b61234e565b3480156106aa57600080fd5b506101f36106b9366004613822565b6123e6565b3480156106ca57600080fd5b506102356106d9366004613708565b612728565b3480156106ea57600080fd5b5061026b6106f9366004613708565b612816565b34801561070a57600080fd5b50610235610719366004613949565b61283a565b34801561072a57600080fd5b506101f3610739366004613708565b6128b8565b60405160e060020a63802d10af02815260009073__SafeMathInt___________________________9063802d10af9061077b903490600401613e02565b60206040518083038186803b15801561079357600080fd5b505af41580156107a7573d6000803e3d6000fd5b505050506040513d601f19601f820116820180604052506107cb9190810190613a6d565b600160a060020a03831660009081526008602052604081209192506107f9919083908063ffffffff61293116565b600160a060020a03821660009081526008602052604081206108299160039091019083908063ffffffff6129a916565b600160a060020a038216600090815260086020526040808220905160e260020a630ea18e7f02815273__InUseCurrencyLib______________________92633a8639fc9261088292600590910191908190600401613e4a565b60006040518083038186803b15801561089a57600080fd5b505af41580156108ae573d6000803e3d6000fd5b50505050600080516020613f7083398151915282826000806040516108d69493929190613c8e565b60405180910390a15050565b6108ea612a20565b156108f457600080fd5b80600160a060020a038116151561090a57600080fd5b600160a060020a03811630141561092057600080fd5b33600160a060020a038316141561093657600080fd5b600160a060020a03821660009081526003602052604090205460ff16151561095d57600080fd5b600160a060020a038216600090815260056020908152604080832033808552925291829020805460ff1916905590517f7406a64e4e8c04b2a11d4cb484eb07cd5762012eafc449900b8d92de008ff27f916108d6918590613bf1565b600160a060020a03166000908152600260205260408120541190565b600083600160a060020a03811615156109ed57600080fd5b600160a060020a0385166000908152600860205260409020610a1690858563ffffffff612a3116565b91505b509392505050565b60405160e160020a6351750e5302815260009073__SafeMathInt___________________________9063a2ea1ca690610a5e908890600401613e02565b60206040518083038186803b158015610a7657600080fd5b505af4158015610a8a573d6000803e3d6000fd5b505050506040513d601f19601f82011682018060405250610aae91908101906139d3565b1515610ab957600080fd5b33600090815260086020526040902073__SafeMathInt___________________________9063755875b2908790610afa90600101888863ffffffff612a3116565b6040518363ffffffff1660e060020a028152600401610b1a929190613e10565b60206040518083038186803b158015610b3257600080fd5b505af4158015610b46573d6000803e3d6000fd5b505050506040513d601f19601f82011682018060405250610b6a9190810190613a6d565b945060008513610b7957610d5f565b336000908152600860205260409020610b9d9060010186868663ffffffff612a7716565b336000908152600860205260409020610bc19060030186868663ffffffff612ac416565b600160a060020a038416158015610bd6575082155b15610c0e57604051339086156108fc029087906000818181858888f19350505050158015610c08573d6000803e3d6000fd5b50610d1f565b610c188483612b3e565b905080600160a060020a031681600160a060020a0316633c229c266040518163ffffffff1660e060020a028152600401602060405180830381600087803b158015610c6257600080fd5b505af1158015610c76573d6000803e3d6000fd5b505050506040513d601f19601f82011682018060405250610c9a91908101906139f1565b6040805160e060020a9283900463ffffffff8116909302815230600482015233602482015260448101899052600160a060020a038816606482015260848101879052905160a48083019260009291908290030181865af4925050501515610d1f5760405160e560020a62461bcd028152600401610d1690613e2c565b60405180910390fd5b7f8e0adde15ffb742f47e7888277a26cea416253fcb63186dc4949fe493e92b77c3386868686604051610d56959493929190613d09565b60405180910390a15b5050505050565b600083600160a060020a0381161515610d7e57600080fd5b600160a060020a0385166000908152600860205260409020610a1690600101858563ffffffff612a3116565b6000610db5826110fe565b8015610ddc5750600160a060020a0382166000908152600360205260409020600101544210155b92915050565b600080610ded612a20565b1515610df857600080fd5b82600160a060020a0381161515610e0e57600080fd5b600160a060020a0384166000908152600260205260409020541515610e365760009250610fc8565b600160a060020a038416600090815260026020526040902054600154600019918201935001821015610f3457600180546000198101908110610e7457fe5b60009182526020909120015460018054600160a060020a039092169184908110610e9a57fe5b9060005260206000200160006101000a815481600160a060020a030219169083600160a060020a031602179055508160010160026000600185815481101515610edf57fe5b6000918252602080832090910154600160a060020a03168352820192909252604001902055600180546000198101908110610f1657fe5b60009182526020909120018054600160a060020a0319169055610f5c565b6001805483908110610f4257fe5b60009182526020909120018054600160a060020a03191690555b6001805490610f6f9060001983016135b4565b50600160a060020a03841660009081526002602052604080822091909155517f33f51cf787669db5b5aff6ba597298fd010748de93aaadef29aae876cef4a8c390610fbb908690613be3565b60405180910390a1600192505b5050919050565b6000610fd9612a20565b1515610fe457600080fd5b82600160a060020a0381161515610ffa57600080fd5b600160a060020a03811630141561101057600080fd5b600160a060020a03841660009081526003602052604090205460ff16151561103757600080fd5b61104083612be1565b600160a060020a038516600090815260036020908152604080832084845260020190915290205490925060ff161561107757600080fd5b600160a060020a0384166000908152600360208181526040808420868552600281018352818520805460ff191660019081179091558484529301805493840181558452922001839055517fec1b982d69bfc1a6fd8becf191d9a633486c822d3bdedd52303ca81fa6357501906110f09086908690613d90565b60405180910390a150505050565b600160a060020a031660009081526003602052604090205460ff1690565b6000611126612a20565b151561113157600080fd5b82600160a060020a038116151561114757600080fd5b600160a060020a03811630141561115d57600080fd5b61116683612be1565b600160a060020a038516600090815260036020908152604080832084845260020190915290205490925060ff16151561119e57600080fd5b600160a060020a038416600090815260036020908152604080832085845260020190915290819020805460ff19169055517f92f4af6130f47c92f3899e06611c8c6ef191fb81207ad2675d134af619d2fe7d906110f09086908690613d90565b60045481565b61121133858585856112ff565b50505050565b61122033610daa565b151561122b57600080fd5b84600160a060020a038116151561124157600080fd5b84600160a060020a038116151561125757600080fd5b61126687600088888888612cab565b7fcafb6d2bcd37cdc22f38a042f78c8908da4fa4dc8f773a9aaab77d5a5455575d878787878760405161129d959493929190613c42565b60405180910390a150505050505050565b600054600160a060020a03165b90565b600160a060020a03821660009081526008602052604081208190819081906112ef906003018663ffffffff612f8716565b9299919850965090945092505050565b60405160e160020a6351750e5302815260009073__SafeMathInt___________________________9063a2ea1ca69061133c908890600401613e02565b60206040518083038186803b15801561135457600080fd5b505af4158015611368573d6000803e3d6000fd5b505050506040513d601f19601f8201168201806040525061138c91908101906139d3565b151561139757600080fd5b6113a18483612b3e565b905080600160a060020a031681600160a060020a031663ad502f576040518163ffffffff1660e060020a028152600401602060405180830381600087803b1580156113eb57600080fd5b505af11580156113ff573d6000803e3d6000fd5b505050506040513d601f19601f8201168201806040525061142391908101906139f1565b6040805160e060020a9283900463ffffffff8116909302815233600482015230602482015260448101899052600160a060020a038816606482015260848101879052905160a48083019260009291908290030181865af492505050151561148957600080fd5b600160a060020a03861660009081526008602052604090206114b39086868663ffffffff61293116565b600160a060020a03861660009081526008602052604090206114e09060030186868663ffffffff6129a916565b600160a060020a03861660009081526008602052604090819020905160e260020a630ea18e7f02815273__InUseCurrencyLib______________________91633a8639fc91611539916005019088908890600401613e72565b60006040518083038186803b15801561155157600080fd5b505af4158015611565573d6000803e3d6000fd5b50505050600080516020613f70833981519152868686868660405161158e959493929190613d09565b60405180910390a1505050505050565b6115a6612a20565b15156115b157600080fd5b80600160a060020a03811615156115c757600080fd5b600160a060020a0381163014156115dd57600080fd5b600160a060020a03821660009081526003602052604090205460ff16151561160457600080fd5b600160a060020a03821660009081526003602052604090819020805460ff19169055517f777645c5437dfbf962f57a281ead25f3d513f2f8e938685bbfc1738e81c9880e906108d6908490613be3565b600081600160a060020a031683600160a060020a0316141561167857506000610ddc565b61168183610daa565b80156116b35750600160a060020a0380841660009081526005602090815260408083209386168352929052205460ff16155b9392505050565b6000806000806116c8612a20565b15156116d357600080fd5b600160a060020a03861660009081526008602052604090206112ef906003018663ffffffff61304116565b60008061170a83612be1565b905061171584610daa565b80156117475750600160a060020a038416600090815260036020908152604080832084845260020190915290205460ff165b949350505050565b6000611759612a20565b1561176357600080fd5b82600160a060020a038116151561177957600080fd5b600160a060020a03811630141561178f57600080fd5b33600160a060020a03851614156117a557600080fd5b6117ae83612be1565b600160a060020a03851660009081526003602052604090205490925060ff1680156117ff5750600160a060020a038416600090815260036020908152604080832085845260020190915290205460ff165b151561180a57600080fd5b600160a060020a038416600081815260056020908152604080832033808552908352818420805460ff19908116600117909155948452600683528184208785528352818420818552909252918290208054909316909255517fc007803323f3ca89cb3f8af1a12f354dc108e9dd4988c312b3f7a878914987ce916110f09187908790613c0c565b611899612a20565b156118a357600080fd5b60405160e160020a6351750e5302815273__SafeMathInt___________________________9063a2ea1ca6906118dd908690600401613e02565b60206040518083038186803b1580156118f557600080fd5b505af4158015611909573d6000803e3d6000fd5b505050506040513d601f19601f8201168201806040525061192d91908101906139d3565b151561193857600080fd5b33600090815260086020526040902073__SafeMathInt___________________________9063755875b290859061197990600101868663ffffffff612a3116565b6040518363ffffffff1660e060020a028152600401611999929190613e10565b60206040518083038186803b1580156119b157600080fd5b505af41580156119c5573d6000803e3d6000fd5b505050506040513d601f19601f820116820180604052506119e99190810190613a6d565b92508215156119f757611a5b565b336000908152600860205260409020611a1d90600181019085858563ffffffff6130e616565b7f013970fdfcc3b9ba3657604311c39270a2b090a94528cfdfd09abaddc6e8fb5233848484604051611a529493929190613cd4565b60405180910390a15b505050565b611a68612a20565b15611a7257600080fd5b611a80333386868686612cab565b7f3af3c9096da62c6c3938986d75a1b72363a1f1da79365987a822d9d8b1c7b14433858585856040516110f0959493929190613c42565b611abf612a20565b1515611aca57600080fd5b60048190556040517f4f1d324a1cbffc352fb64f1d73d95e4b200d92f99ef39bf2d7f5b41f946909d690611aff908390613e02565b60405180910390a150565b6000806000611b176135d8565b611b2033610daa565b1515611b2b57600080fd5b85600160a060020a0381161515611b4157600080fd5b85600160a060020a0381161515611b5757600080fd5b600160a060020a03881660009081526008602052604090819020905160e160020a6369c86ceb02815273__InUseCurrencyLib______________________9163d390d9d691611bac9160050190600401613e3c565b60206040518083038186803b158015611bc457600080fd5b505af4158015611bd8573d6000803e3d6000fd5b505050506040513d601f19601f82011682018060405250611bfc9190810190613a6d565b9350600094505b83851015611dbb57600160a060020a03881660009081526008602052604090819020905160e460020a630b8ee39b02815273__InUseCurrencyLib______________________9163b8ee39b091611c6291600501908990600401613e9a565b604080518083038186803b158015611c7957600080fd5b505af4158015611c8d573d6000803e3d6000fd5b505050506040513d601f19601f82011682018060405250611cb19190810190613b18565b9250611cc688846000015185602001516130fe565b95506000861215611cd357fe5b611ce68884600001518560200151613187565b8251602080850151600160a060020a038a16600090815260089092526040909120611d1f9260019091019189919063ffffffff61293116565b600160a060020a038716600090815260086020908152604091829020855191860151925160e260020a630ea18e7f02815273__InUseCurrencyLib______________________93633a8639fc93611d7f9360050192909190600401613e72565b60006040518083038186803b158015611d9757600080fd5b505af4158015611dab573d6000803e3d6000fd5b505060019096019550611c039050565b7fb452fad80b33c7d612bdb3269370f36bd4a4bfb4c7fe6f2d64d7937204b51fe58888604051611dec929190613bf1565b60405180910390a15050505050505050565b6000611e08612a20565b15611e1257600080fd5b82600160a060020a0381161515611e2857600080fd5b600160a060020a038116301415611e3e57600080fd5b33600160a060020a0385161415611e5457600080fd5b611e5d83612be1565b600160a060020a03851660009081526003602052604090205490925060ff168015611eae5750600160a060020a038416600090815260036020908152604080832085845260020190915290205460ff165b1515611eb957600080fd5b600160a060020a0384166000908152600660209081526040808320858452825280832033808552925291829020805460ff1916600117905590517f6fa0cdb0b5c22004ccfcaee11eed450e0184dda8edd417ae2410f0a883fdb740916110f09187908790613c0c565b600054600160a060020a031681565b600083600160a060020a0381161515611f4957600080fd5b600160a060020a0385166000908152600860205260409020610a1690600201858563ffffffff612a3116565b611f7d612a20565b1515611f8857600080fd5b80600160a060020a0381161515611f9e57600080fd5b600160a060020a038116301415611fb457600080fd5b611fc08260045461320e565b7f7f3a8349917003ed377f6e9ae1608b92edd893903f8983bd274b1f8373dd3b11826004546040516108d6929190613db0565b611ffb6112ae565b600160a060020a0316331461200f57600080fd5b6120176112ae565b600160a060020a0316ff5b61202a612a20565b1561203457600080fd5b80600160a060020a038116151561204a57600080fd5b600160a060020a03811630141561206057600080fd5b33600160a060020a038316141561207657600080fd5b600160a060020a03821660009081526003602052604090205460ff16151561209d57600080fd5b600160a060020a038216600090815260056020908152604080832033808552925291829020805460ff1916600117905590517fe25d4094f2181ddef4410dcc1539a7488abd881a90c56078314b9f70affc5f7e916108d6918590613bf1565b6000612106612a20565b151561211157600080fd5b81600160a060020a038116151561212757600080fd5b600160a060020a03811630141561213d57600080fd5b600054600160a060020a03848116911614611a5b5760008054600160a060020a03858116600160a060020a0319831617909255604051911692507f1c3c3d32752a939db9ac720da757226033136f4b2c9878c337e09f5c85b108da90611a529084908690613bf1565b600754600160a060020a031681565b60006121c033610daa565b15156121cb57600080fd5b84600160a060020a03811615156121e157600080fd5b60405160e060020a636b84d93102815273__SafeMathInt___________________________90636b84d9319061221b908890600401613e02565b60206040518083038186803b15801561223357600080fd5b505af4158015612247573d6000803e3d6000fd5b505050506040513d601f19601f8201168201806040525061226b91908101906139d3565b151561227657600080fd5b600160a060020a03861660009081526008602052604090206122b0906122a390868663ffffffff612a3116565b869063ffffffff61326016565b600160a060020a03871660009081526008602052604090209092506122e09060020183868663ffffffff61329c16565b7f6ded3dfe9bc210e5b60b695bac6bd623844003b866c14264d44e91b8352a4fad8686868660405161158e9493929190613cd4565b600061231f612a20565b151561232a57600080fd5b600160a060020a0382166000908152600860205260409020610ddc906003016132de565b6000612358612a20565b151561236357600080fd5b81600160a060020a038116151561237957600080fd5b6007548390600160a060020a039081169082168114610d5f5760078054600160a060020a03878116600160a060020a0319831617909255604051911694507fbe6ec9788bd1e132647569c388954227d7eabe035533f580e43398e08969dfb990610d569086908890613de7565b6123ef33610daa565b15156123fa57600080fd5b60405160e160020a6351750e5302815273__SafeMathInt___________________________9063a2ea1ca690612434908690600401613e02565b60206040518083038186803b15801561244c57600080fd5b505af4158015612460573d6000803e3d6000fd5b505050506040513d601f19601f8201168201806040525061248491908101906139d3565b151561248f57600080fd5b600160a060020a038416600090815260086020526040902073__SafeMathInt___________________________9063755875b2908590612512906124dd90600201878763ffffffff612a3116565b600160a060020a038916600090815260086020526040902061250690888863ffffffff612a3116565b9063ffffffff6132e516565b6040518363ffffffff1660e060020a028152600401612532929190613e10565b60206040518083038186803b15801561254a57600080fd5b505af415801561255e573d6000803e3d6000fd5b505050506040513d601f19601f820116820180604052506125829190810190613a6d565b92506000831361259157611211565b600160a060020a03841660009081526008602052604090206126339084906125c390600201858563ffffffff612a3116565b1361260a57600160a060020a0385166000908152600860205260409020612605906125f890600201858563ffffffff612a3116565b859063ffffffff61326016565b61260d565b60005b600160a060020a038616600090815260086020526040902090848463ffffffff612a7716565b600160a060020a03841660009081526008602052604090206126c690849061266590600201858563ffffffff612a3116565b1361269b57600160a060020a038516600090815260086020526040902061269690600201848463ffffffff612a3116565b61269d565b835b600160a060020a038616600090815260086020526040902060020190848463ffffffff61331a16565b600160a060020a03841660009081526008602052604090206126f39060010184848463ffffffff61293116565b7f573abd56f40c687bfaaabb8d68c68c84cc343b51fe661ff2080e2a6977b3c2b4848484846040516110f09493929190613cd4565b6000612732612a20565b151561273d57600080fd5b81600160a060020a038116151561275357600080fd5b600160a060020a038316600090815260026020526040812054111561277b5760009150612810565b6001805480820182557fb10e2d527612073b26eecdfd717e6a320cf44b4afac2b0732d9fcbe2b7fa0cf6018054600160a060020a031916600160a060020a03861690811790915590546000918252600260205260409182902055517fdd62ff6d9c23793871e7d4796bde6c5dfb2bf8bcbd4186411cee3eb9f618952190612803908590613be3565b60405180910390a1600191505b50919050565b600160a060020a0381166000908152600860205260408120610ddc90600301613367565b60008082600160a060020a031685600160a060020a031614156128605760009150610a19565b61286984612be1565b905061287585856116fe565b8015610a165750600160a060020a03808616600090815260066020908152604080832085845282528083209387168352929052205460ff16159150509392505050565b6128c0612a20565b15156128cb57600080fd5b80600160a060020a03811615156128e157600080fd5b600160a060020a0381163014156128f757600080fd5b61290282600061320e565b7fb619d545cb511bd5f02907a1eac4f4cb8dace7b1846852fb0bf5e553937481c1826040516108d69190613be3565b600160a060020a038216151561294c57801561294c57600080fd5b600160a060020a03821660009081526020858152604080832084845290915290205461297e908463ffffffff61336b16565b600160a060020a03909216600090815260209485526040808220928252919094529092209190915550565b60408051608081018252938452426020808601918252600160a060020a03948516928601928352606086019384528654600180820189556000988952919097209551600490970290950195865551938501939093559151600284018054600160a060020a0319169190921617905551600390910155565b600054600160a060020a0316331490565b6000600160a060020a0383161515612a4e578115612a4e57600080fd5b50600160a060020a03919091166000908152602092835260408082209282529190925290205490565b600160a060020a0382161515612a92578015612a9257600080fd5b600160a060020a03821660009081526020858152604080832084845290915290205461297e908463ffffffff61339c16565b60408051608081018252938452426020808601918252600160a060020a039485169286019283526060860193845260019687018054808901825560009182529190209551600490910290950194855551948401949094559251600283018054600160a060020a031916919092161790559051600390910155565b600754600090600160a060020a03161515612b5857600080fd5b600754604051600160e860020a61e3490203198152600160a060020a039091169063ff1cb70090612b8f9086908690600401613d90565b602060405180830381600087803b158015612ba957600080fd5b505af1158015612bbd573d6000803e3d6000fd5b505050506040513d601f19601f820116820180604052506116b39190810190613a4f565b6000816040516020018082805190602001908083835b60208310612c165780518252601f199092019160209182019101612bf7565b6001836020036101000a0380198251168184511680821785525050505050509050019150506040516020818303038152906040526040518082805190602001908083835b60208310612c795780518252601f199092019160209182019101612c5a565b5181516020939093036101000a6000190180199091169216919091179052604051920182900390912095945050505050565b60405160e160020a6351750e5302815273__SafeMathInt___________________________9063a2ea1ca690612ce5908690600401613e02565b60206040518083038186803b158015612cfd57600080fd5b505af4158015612d11573d6000803e3d6000fd5b505050506040513d601f19601f82011682018060405250612d3591908101906139d3565b1515612d4057600080fd5b612d49846109b9565b1515612d5457600080fd5b600160a060020a038616600090815260086020526040902073__SafeMathInt___________________________9063755875b2908590612dcb90612da290600201878763ffffffff612a3116565b600160a060020a038b16600090815260086020526040902061250690888863ffffffff612a3116565b6040518363ffffffff1660e060020a028152600401612deb929190613e10565b60206040518083038186803b158015612e0357600080fd5b505af4158015612e17573d6000803e3d6000fd5b505050506040513d601f19601f82011682018060405250612e3b9190810190613a6d565b925060008313612e4a57612f7f565b600160a060020a0386166000908152600860205260409020612edf908490612e7c90600201858563ffffffff612a3116565b13612eb657600160a060020a0387166000908152600860205260409020612eb1906125f890600201858563ffffffff612a3116565b612eb9565b60005b600160a060020a038816600090815260086020526040902090848463ffffffff612a7716565b600160a060020a0386166000908152600860205260409020612f72908490612f1190600201858563ffffffff612a3116565b13612f4757600160a060020a0387166000908152600860205260409020612f4290600201848463ffffffff612a3116565b612f49565b835b600160a060020a038816600090815260086020526040902060020190848463ffffffff61331a16565b612f7f85858585856133c3565b505050505050565b81546000908190819081908510612f9d57600080fd5b8554869086908110612fab57fe5b90600052602060002090600402016000015493508560000185815481101515612fd057fe5b90600052602060002090600402016001015492508560000185815481101515612ff557fe5b60009182526020909120600260049092020101548654600160a060020a03909116925086908690811061302457fe5b906000526020600020906004020160030154905092959194509250565b6001820154600090819081908190851061305a57600080fd5b6001860180548690811061306a57fe5b9060005260206000209060040201600001549350856001018581548110151561308f57fe5b906000526020600020906004020160010154925085600101858154811015156130b457fe5b6000918252602090912060026004909202010154600187018054600160a060020a039092169350908690811061302457fe5b6130f285848484612a77565b610d5f84848484612931565b600160a060020a03831660009081526008602052604081206117479061312e90600101858563ffffffff612a3116565b600160a060020a03861660009081526008602052604090206125069061315e90600201878763ffffffff612a3116565b600160a060020a038816600090815260086020526040902061250690888863ffffffff612a3116565b600160a060020a03831660009081526008602052604081206131b091848463ffffffff61329c16565b600160a060020a03831660009081526008602052604081206131df91600290910190848463ffffffff61329c16565b600160a060020a0383166000908152600860205260408120611a5b91600190910190848463ffffffff61329c16565b600160a060020a03821660009081526003602052604090205460ff16151561325c57600160a060020a0382166000908152600360205260409020805460ff1916600190811782554283019101555b5050565b600080821215801561327457508282840313155b8061328b575060008212801561328b575082828403135b151561329657600080fd5b50900390565b600160a060020a03821615156132b75780156132b757600080fd5b600160a060020a039091166000908152602093845260408082209282529190935290912055565b6001015490565b60008282018183128015906132fa5750838112155b8061330f575060008312801561330f57508381125b15156116b357600080fd5b600160a060020a038216151561333557801561333557600080fd5b600160a060020a03821660009081526020858152604080832084845290915290205461297e908463ffffffff61326016565b5490565b60008060008412158015613380575060008312155b151561338b57600080fd5b50828201838112156116b357600080fd5b60008083121580156133af575060008212155b801561328b57508282131561329657600080fd5b6000600160a060020a0383161580156133da575081155b156134475760405160e160020a63195ee5c1028152600160a060020a038616906332bdcb82908690613410908a90600401613be3565b6000604051808303818588803b15801561342957600080fd5b505af115801561343d573d6000803e3d6000fd5b5050505050612f7f565b613461836020604051908101604052806000815250612b3e565b905080600160a060020a031681600160a060020a0316631711a8946040518163ffffffff1660e060020a028152600401602060405180830381600087803b1580156134ab57600080fd5b505af11580156134bf573d6000803e3d6000fd5b505050506040513d601f19601f820116820180604052506134e391908101906139f1565b6040805160e060020a9283900463ffffffff81169093028152600160a060020a038981166004830152602482018990528716604482015260648101869052905160848083019260009291908290030181865af492505050151561354557600080fd5b60405160e160020a63279c1daf028152600160a060020a03861690634f383b5e9061357a908990889088908890600401613d5b565b600060405180830381600087803b15801561359457600080fd5b505af11580156135a8573d6000803e3d6000fd5b50505050505050505050565b815481835581811115611a5b57600083815260209020611a5b9181019083016135ef565b604080518082019091526000808252602082015290565b6112bb91905b8082111561360957600081556001016135f5565b5090565b60006116b38235613ef9565b60006116b38251613ef9565b60006116b38251613f05565b60006116b38251613f0a565b60006116b38235613f17565b60006116b38251613f17565b60006116b382356112bb565b60006116b382516112bb565b6000601f8201831361367e57600080fd5b813561369161368c82613ece565b613ea8565b915080825260208301602083018583830111156136ad57600080fd5b6136b8838284613f2d565b50505092915050565b6000604082840312156136d357600080fd5b6136dd6040613ea8565b905060006136eb8484613619565b82525060206136fc84848301613661565b60208301525092915050565b60006020828403121561371a57600080fd5b6000611747848461360d565b6000806040838503121561373957600080fd5b6000613745858561360d565b92505060206137568582860161360d565b9150509250929050565b60008060006060848603121561377557600080fd5b6000613781868661360d565b93505060206137928682870161360d565b92505060406137a386828701613655565b9150509250925092565b600080600080600060a086880312156137c557600080fd5b60006137d1888861360d565b95505060206137e28882890161363d565b94505060406137f388828901613655565b93505060606138048882890161360d565b925050608061381588828901613655565b9150509295509295909350565b6000806000806080858703121561383857600080fd5b6000613844878761360d565b945050602061385587828801613655565b93505060406138668782880161360d565b925050606061387787828801613655565b91505092959194509250565b600080600080600060a0868803121561389b57600080fd5b60006138a7888861360d565b95505060206138b888828901613655565b94505060406138c98882890161360d565b93505060606138da88828901613655565b92505060808601356001604060020a038111156138f657600080fd5b6138158882890161366d565b6000806040838503121561391557600080fd5b6000613921858561360d565b92505060208301356001604060020a0381111561393d57600080fd5b6137568582860161366d565b60008060006060848603121561395e57600080fd5b600061396a868661360d565b93505060208401356001604060020a0381111561398657600080fd5b6139928682870161366d565b92505060406137a38682870161360d565b600080604083850312156139b657600080fd5b60006139c2858561360d565b925050602061375685828601613655565b6000602082840312156139e557600080fd5b60006117478484613625565b600060208284031215613a0357600080fd5b60006117478484613631565b60008060008060808587031215613a2557600080fd5b6000613844878761363d565b600060208284031215613a4357600080fd5b6000611747848461363d565b600060208284031215613a6157600080fd5b60006117478484613649565b600060208284031215613a7f57600080fd5b60006117478484613661565b600080600060608486031215613aa057600080fd5b60006137818686613655565b60008060008060808587031215613ac257600080fd5b6000613ace8787613655565b9450506020613adf8782880161360d565b9350506040613af087828801613655565b92505060608501356001604060020a03811115613b0c57600080fd5b6138778782880161366d565b600060408284031215613b2a57600080fd5b600061174784846136c1565b600060208284031215613b4857600080fd5b60006117478484613655565b613b5d81613ef9565b82525050565b613b5d81613f05565b613b5d81613f17565b613b5d816112bb565b613b5d81613f22565b6000613b9282613ef5565b808452613ba6816020860160208601613f39565b613baf81613f65565b9093016020019392505050565b6003815260e960020a623ab33302602082015260400190565b6000815260200190565b9052565b60208101610ddc8284613b54565b60408101613bff8285613b54565b6116b36020830184613b54565b60608101613c1a8286613b54565b613c276020830185613b54565b8181036040830152613c398184613b87565b95945050505050565b60a08101613c508288613b54565b613c5d6020830187613b6c565b613c6a6040830186613b75565b613c776060830185613b54565b613c846080830184613b75565b9695505050505050565b60a08101613c9c8287613b54565b613ca96020830186613b75565b613cb66040830185613b54565b613cc36060830184613b7e565b8181036080830152613c8481613bd5565b60808101613ce28287613b54565b613cef6020830186613b75565b613cfc6040830185613b54565b613c396060830184613b75565b60a08101613d178288613b54565b613d246020830187613b75565b613d316040830186613b54565b613d3e6060830185613b75565b8181036080830152613d508184613b87565b979650505050505050565b60a08101613d698287613b54565b613d766020830186613b75565b613d836040830185613b54565b613cc36060830184613b75565b60408101613d9e8285613b54565b81810360208301526117478184613b87565b60408101613dbe8285613b54565b6116b36020830184613b75565b60208101610ddc8284613b63565b60208101610ddc8284613b6c565b60408101613df58285613b6c565b6116b36020830184613b6c565b60208101610ddc8284613b75565b60408101613dbe8285613b75565b60808101613ce28287613b75565b60208082528101610ddc81613bbc565b60208101610ddc8284613bdf565b60608101613e588286613bdf565b613e656020830185613b54565b6117476040830184613b7e565b60608101613e808286613bdf565b613e8d6020830185613b54565b6117476040830184613b75565b60408101613dbe8285613bdf565b6040518181016001604060020a0381118282101715613ec657600080fd5b604052919050565b60006001604060020a03821115613ee457600080fd5b506020601f91909101601f19160190565b5190565b600160a060020a031690565b151590565b600160e060020a03191690565b6000610ddc82613ef9565b6000610ddc826112bb565b82818337506000910152565b60005b83811015613f54578181015183820152602001613f3c565b838111156112115750506000910152565b601f01601f191690560040c19386897d9f44522a1850572060386c64b5f66cce986dd9115a1bb102dcfaa265627a7a72305820dd1406aeedf8206a4b4e87febdf93d9de97453f665afb4a47e43add2f7f1be236c6578706572696d656e74616cf50037",
  "source": "/*\n * Hubii Striim\n *\n * Compliant with the Hubii Striim specification v0.12.\n *\n * Copyright (C) 2017-2018 Hubii AS\n */\n\npragma solidity ^0.4.24;\npragma experimental ABIEncoderV2;\n\nimport {SafeMathInt} from \"./SafeMathInt.sol\";\nimport {Beneficiary} from \"./Beneficiary.sol\";\nimport {Benefactor} from \"./Benefactor.sol\";\nimport {AuthorizableServable} from \"./AuthorizableServable.sol\";\nimport {Ownable} from \"./Ownable.sol\";\nimport {TransferControllerManageable} from \"./TransferControllerManageable.sol\";\nimport {TransferController} from \"./TransferController.sol\";\nimport {BalanceLib} from \"./BalanceLib.sol\";\nimport {TxHistoryLib} from \"./TxHistoryLib.sol\";\nimport {InUseCurrencyLib} from \"./InUseCurrencyLib.sol\";\nimport {MonetaryTypes} from \"./MonetaryTypes.sol\";\n\n/**\n@title Client fund\n@notice Where clients crypto is deposited into, staged and withdrawn from.\n@dev Asset descriptor combo (currencyCt == 0x0, currencyId == 0) corresponds to ethers\n*/\ncontract ClientFund is Ownable, Beneficiary, Benefactor, AuthorizableServable, TransferControllerManageable {\n    using BalanceLib for BalanceLib.Balance;\n    using TxHistoryLib for TxHistoryLib.TxHistory;\n    using InUseCurrencyLib for InUseCurrencyLib.InUseCurrency;\n    using SafeMathInt for int256;\n\n    //\n    // Structures\n    // -----------------------------------------------------------------------------------------------------------------\n    struct Wallet {\n        BalanceLib.Balance deposited;\n        BalanceLib.Balance staged;\n        BalanceLib.Balance settled;\n\n        TxHistoryLib.TxHistory txHistory;\n\n        InUseCurrencyLib.InUseCurrency inUseCurrencies;\n    }\n\n    //\n    // Variables\n    // -----------------------------------------------------------------------------------------------------------------\n    mapping(address => Wallet) private walletMap;\n\n    mapping(address => uint256) private registeredServicesMap;\n    mapping(address => mapping(address => bool)) private disabledServicesMap;\n\n    //\n    // Events\n    // -----------------------------------------------------------------------------------------------------------------\n    event DepositEvent(address wallet, int256 amount, address currencyCt, uint256 currencyId, string standard);\n    event WithdrawEvent(address wallet, int256 amount, address currencyCt, uint256 currencyId, string standard);\n    event StageEvent(address wallet, int256 amount, address currencyCt, uint256 currencyId);\n    event UnstageEvent(address wallet, int256 amount, address currencyCt, uint256 currencyId);\n    event UpdateSettledBalanceEvent(address wallet, int256 amount, address currencyCt, uint256 currencyId);\n    event StageToBeneficiaryEvent(address sourceWallet, address beneficiary, int256 amount, address currencyCt,\n        uint256 currencyId);\n    event StageToBeneficiaryUntargetedEvent(address sourceWallet, address beneficiary, int256 amount,\n        address currencyCt, uint256 currencyId);\n\n    event SeizeAllBalancesEvent(address sourceWallet, address targetWallet);\n\n    //\n    // Constructor\n    // -----------------------------------------------------------------------------------------------------------------\n    constructor(address owner) Ownable(owner) Beneficiary() Benefactor() public {\n        serviceActivationTimeout = 1 weeks;\n    }\n\n    //\n    // Functions\n    // -----------------------------------------------------------------------------------------------------------------\n    function() public payable {\n        depositEthersTo(msg.sender);\n    }\n\n    function depositEthersTo(address wallet) public payable {\n        int256 amount = SafeMathInt.toNonZeroInt256(msg.value);\n\n        //add to per-wallet deposited balance\n        walletMap[wallet].deposited.add(amount, address(0), 0);\n        walletMap[wallet].txHistory.addDeposit(amount, address(0), 0);\n\n        //add currency to in-use list\n        walletMap[wallet].inUseCurrencies.addItem(address(0), 0);\n\n        //emit event\n        emit DepositEvent(wallet, amount, address(0), 0, \"\");\n    }\n\n    function depositTokens(int256 amount, address currencyCt, uint256 currencyId, string standard)\n    public\n    {\n        depositTokensTo(msg.sender, amount, currencyCt, currencyId, standard);\n    }\n\n    function depositTokensTo(address wallet, int256 amount, address currencyCt, uint256 currencyId, string standard)\n    public\n    {\n        require(amount.isNonZeroPositiveInt256());\n\n        //execute transfer\n        TransferController controller = getTransferController(currencyCt, standard);\n        require(address(controller).delegatecall(controller.getReceiveSignature(), msg.sender, this, uint256(amount), currencyCt, currencyId));\n\n        //add to per-wallet deposited balance\n        walletMap[wallet].deposited.add(amount, currencyCt, currencyId);\n        walletMap[wallet].txHistory.addDeposit(amount, currencyCt, currencyId);\n\n        //add currency to in-use list\n        walletMap[wallet].inUseCurrencies.addItem(currencyCt, currencyId);\n\n        //emit event\n        emit DepositEvent(wallet, amount, currencyCt, currencyId, standard);\n    }\n\n    function deposit(address wallet, uint index)\n    public\n    view\n    returns (int256 amount, uint256 timestamp, address currencyCt, uint256 currencyId)\n    {\n        return walletMap[wallet].txHistory.deposit(index);\n    }\n\n    function depositCount(address wallet) public view returns (uint256) {\n        return walletMap[wallet].txHistory.depositCount();\n    }\n\n    function depositedBalance(address wallet, address currencyCt, uint256 currencyId)\n    public\n    view\n    notNullAddress(wallet)\n    returns (int256)\n    {\n        return walletMap[wallet].deposited.get(currencyCt, currencyId);\n    }\n\n    function settledBalance(address wallet, address currencyCt, uint256 currencyId)\n    public\n    view\n    notNullAddress(wallet)\n    returns (int256)\n    {\n        return walletMap[wallet].settled.get(currencyCt, currencyId);\n    }\n\n    function stagedBalance(address wallet, address currencyCt, uint256 currencyId)\n    public\n    view\n    notNullAddress(wallet)\n    returns (int256)\n    {\n        return walletMap[wallet].staged.get(currencyCt, currencyId);\n    }\n\n    /// @notice Update the settled balance by the difference between provided amount and deposited on-chain balance\n    /// @param wallet Concerned wallet\n    /// @param amount The off-chain balance amount\n    /// @param currencyCt Concerned currency contract address (address(0) == ETH)\n    /// @param currencyId Concerned currency ID (0 for ETH and ERC20)\n    function updateSettledBalance(address wallet, int256 amount, address currencyCt, uint256 currencyId)\n    public\n    onlyRegisteredActiveService\n    notNullAddress(wallet)\n    {\n        //        require(isAuthorizedServiceForWallet(msg.sender, wallet));\n        require(amount.isPositiveInt256());\n\n        int256 settledBalanceAmount = amount.sub(walletMap[wallet].deposited.get(currencyCt, currencyId));\n        walletMap[wallet].settled.set(settledBalanceAmount, currencyCt, currencyId);\n\n        emit UpdateSettledBalanceEvent(wallet, amount, currencyCt, currencyId);\n    }\n\n    function stage(address wallet, int256 amount, address currencyCt, uint256 currencyId)\n    public\n    onlyRegisteredActiveService\n    {\n        //        require(isAuthorizedServiceForWallet(msg.sender, wallet));\n        require(amount.isNonZeroPositiveInt256());\n\n        //clamp amount to stage\n        amount = amount.clampMax(walletMap[wallet].deposited.get(currencyCt, currencyId).add(walletMap[wallet].settled.get(currencyCt, currencyId)));\n        if (amount <= 0)\n            return;\n\n        walletMap[wallet].deposited.sub(walletMap[wallet].settled.get(currencyCt, currencyId) > amount ? 0 : amount.sub(walletMap[wallet].settled.get(currencyCt, currencyId)), currencyCt, currencyId);\n        walletMap[wallet].settled.sub_allow_neg(walletMap[wallet].settled.get(currencyCt, currencyId) > amount ? amount : walletMap[wallet].settled.get(currencyCt, currencyId), currencyCt, currencyId);\n        walletMap[wallet].staged.add(amount, currencyCt, currencyId);\n\n        //emit event\n        emit StageEvent(wallet, amount, currencyCt, currencyId);\n    }\n\n    function unstage(int256 amount, address currencyCt, uint256 currencyId)\n    public\n    notOwner\n    {\n        require(amount.isNonZeroPositiveInt256());\n\n        //clamp amount to move\n        amount = amount.clampMax(walletMap[msg.sender].staged.get(currencyCt, currencyId));\n        if (amount == 0)\n            return;\n\n        //move from staged balance to deposited\n        walletMap[msg.sender].staged.transfer(walletMap[msg.sender].deposited, amount, currencyCt, currencyId);\n\n        //emit event\n        emit UnstageEvent(msg.sender, amount, currencyCt, currencyId);\n    }\n\n    function stageToBeneficiary(Beneficiary beneficiary, int256 amount, address currencyCt, uint256 currencyId)\n    public\n    notOwner\n    {\n        stageToBeneficiaryPrivate(msg.sender, msg.sender, beneficiary, amount, currencyCt, currencyId);\n\n        //emit event\n        emit StageToBeneficiaryEvent(msg.sender, beneficiary, amount, currencyCt, currencyId);\n    }\n\n    function stageToBeneficiaryUntargeted(address sourceWallet, Beneficiary beneficiary, int256 amount,\n        address currencyCt, uint256 currencyId)\n    public\n    onlyRegisteredActiveService\n    notNullAddress(sourceWallet)\n    notNullAddress(beneficiary)\n    {\n        //        require(isAuthorizedServiceForWallet(msg.sender, sourceWallet));\n\n        stageToBeneficiaryPrivate(sourceWallet, address(0), beneficiary, amount, currencyCt, currencyId);\n\n        //emit event\n        emit StageToBeneficiaryUntargetedEvent(sourceWallet, beneficiary, amount, currencyCt, currencyId);\n    }\n\n    function seizeAllBalances(address sourceWallet, address targetWallet)\n    public\n    onlyRegisteredActiveService\n    notNullAddress(sourceWallet)\n    notNullAddress(targetWallet)\n    {\n        int256 amount;\n        uint256 i;\n        uint256 len;\n\n        //        require(isAuthorizedServiceForWallet(msg.sender, sourceWallet));\n\n        //seize all currencies\n        len = walletMap[sourceWallet].inUseCurrencies.getLength();\n        for (i = 0; i < len; i++) {\n            MonetaryTypes.Currency memory currency = walletMap[sourceWallet].inUseCurrencies.getAt(i);\n\n            amount = sumAllBalancesOfWalletAndCurrency(sourceWallet, currency.ct, currency.id);\n            assert(amount >= 0);\n\n            zeroAllBalancesOfWalletAndCurrency(sourceWallet, currency.ct, currency.id);\n\n            //add to staged balance\n            walletMap[targetWallet].staged.add(amount, currency.ct, currency.id);\n\n            //add currencyCt to in-use list\n            walletMap[targetWallet].inUseCurrencies.addItem(currency.ct, currency.id);\n        }\n\n        //emit event\n        emit SeizeAllBalancesEvent(sourceWallet, targetWallet);\n    }\n\n    function withdraw(int256 amount, address currencyCt, uint256 currencyId, string standard) public {\n        require(amount.isNonZeroPositiveInt256());\n\n        amount = amount.clampMax(walletMap[msg.sender].staged.get(currencyCt, currencyId));\n        if (amount <= 0)\n            return;\n\n        //subtract to per-wallet staged balance\n        walletMap[msg.sender].staged.sub(amount, currencyCt, currencyId);\n        walletMap[msg.sender].txHistory.addWithdrawal(amount, currencyCt, currencyId);\n\n        //execute transfer\n        if (currencyCt == address(0) && currencyId == 0)\n            msg.sender.transfer(uint256(amount));\n\n        else {\n            TransferController controller = getTransferController(currencyCt, standard);\n            require(address(controller).delegatecall(controller.getSendSignature(), this, msg.sender, uint256(amount), currencyCt, currencyId), \"uff\");\n        }\n\n        //emit event\n        emit WithdrawEvent(msg.sender, amount, currencyCt, currencyId, standard);\n    }\n\n    function withdrawal(address wallet, uint index)\n    public\n    view\n    onlyOwner\n    returns (int256 amount, uint256 timestamp, address token, uint256 id)\n    {\n        return walletMap[wallet].txHistory.withdrawal(index);\n    }\n\n    function withdrawalCount(address wallet) public view onlyOwner returns (uint256) {\n        return walletMap[wallet].txHistory.withdrawalCount();\n    }\n\n    //\n    // Private functions\n    // -----------------------------------------------------------------------------------------------------------------\n    function stageToBeneficiaryPrivate(address sourceWallet, address destWallet, Beneficiary beneficiary,\n        int256 amount, address currencyCt, uint256 currencyId)\n    private\n    {\n        require(amount.isNonZeroPositiveInt256());\n        require(isRegisteredBeneficiary(beneficiary));\n\n        //clamp amount to stage\n        amount = amount.clampMax(walletMap[sourceWallet].deposited.get(currencyCt, currencyId)\n            .add(walletMap[sourceWallet].settled.get(currencyCt, currencyId)));\n        if (amount <= 0)\n            return;\n\n        walletMap[sourceWallet].deposited.sub(walletMap[sourceWallet].settled.get(currencyCt, currencyId) > amount ? 0 : amount.sub(walletMap[sourceWallet].settled.get(currencyCt, currencyId)), currencyCt, currencyId);\n        walletMap[sourceWallet].settled.sub_allow_neg(walletMap[sourceWallet].settled.get(currencyCt, currencyId) > amount ? amount : walletMap[sourceWallet].settled.get(currencyCt, currencyId), currencyCt, currencyId);\n\n        transferToBeneficiaryPrivate(destWallet, beneficiary, amount, currencyCt, currencyId);\n    }\n\n    // TODO Update this function with 'standard' parameter as in deposits and withdrawals\n    function transferToBeneficiaryPrivate(address destWallet, Beneficiary beneficiary,\n        int256 amount, address currencyCt, uint256 currencyId)\n    private {\n        //transfer funds to the beneficiary\n        if (currencyCt == address(0) && currencyId == 0)\n            beneficiary.depositEthersTo.value(uint256(amount))(destWallet);\n\n        else {\n            //execute transfer\n            TransferController controller = getTransferController(currencyCt, \"\");\n            require(address(controller).delegatecall(controller.getApproveSignature(), beneficiary, uint256(amount), currencyCt, currencyId));\n\n            //transfer funds to the beneficiary\n            beneficiary.depositTokensTo(destWallet, amount, currencyCt, currencyId, \"\");\n        }\n    }\n\n    function sumAllBalancesOfWalletAndCurrency(address wallet, address currencyCt, uint256 currencyId)\n    private\n    view\n    returns (int256)\n    {\n        return walletMap[wallet].deposited.get(currencyCt, currencyId)\n        .add(walletMap[wallet].settled.get(currencyCt, currencyId))\n        .add(walletMap[wallet].staged.get(currencyCt, currencyId));\n    }\n\n    function zeroAllBalancesOfWalletAndCurrency(address wallet, address currencyCt, uint256 currencyId) private {\n        walletMap[wallet].deposited.set(0, currencyCt, currencyId);\n        walletMap[wallet].settled.set(0, currencyCt, currencyId);\n        walletMap[wallet].staged.set(0, currencyCt, currencyId);\n    }\n}\n",
  "sourcePath": "/opt/buildagent/work/37b40ec413c08b5b/contracts/ClientFund.sol",
  "compiler": {
    "name": "solc",
    "version": "0.4.24+commit.e67f0147.Emscripten.clang"
  },
  "schemaVersion": "2.0.0",
  "updatedAt": "2018-09-06T23:02:36.656Z"
}