{
  "contractName": "ClientFund",
  "abi": [
    {
      "constant": false,
      "inputs": [
        {
          "name": "service",
          "type": "address"
        }
      ],
      "name": "authorizeRegisteredService",
      "outputs": [],
      "payable": false,
      "stateMutability": "nonpayable",
      "type": "function"
    },
    {
      "constant": true,
      "inputs": [
        {
          "name": "beneficiary",
          "type": "address"
        }
      ],
      "name": "isRegisteredBeneficiary",
      "outputs": [
        {
          "name": "",
          "type": "bool"
        }
      ],
      "payable": false,
      "stateMutability": "view",
      "type": "function"
    },
    {
      "constant": true,
      "inputs": [
        {
          "name": "service",
          "type": "address"
        },
        {
          "name": "action",
          "type": "string"
        },
        {
          "name": "wallet",
          "type": "address"
        }
      ],
      "name": "isAuthorizedRegisteredServiceAction",
      "outputs": [
        {
          "name": "",
          "type": "bool"
        }
      ],
      "payable": false,
      "stateMutability": "view",
      "type": "function"
    },
    {
      "constant": true,
      "inputs": [
        {
          "name": "service",
          "type": "address"
        }
      ],
      "name": "isRegisteredActiveService",
      "outputs": [
        {
          "name": "",
          "type": "bool"
        }
      ],
      "payable": false,
      "stateMutability": "view",
      "type": "function"
    },
    {
      "constant": true,
      "inputs": [
        {
          "name": "",
          "type": "address"
        }
      ],
      "name": "initialServiceAuthorizedMap",
      "outputs": [
        {
          "name": "",
          "type": "bool"
        }
      ],
      "payable": false,
      "stateMutability": "view",
      "type": "function"
    },
    {
      "constant": true,
      "inputs": [
        {
          "name": "",
          "type": "address"
        }
      ],
      "name": "lockedWalletIndexByWallet",
      "outputs": [
        {
          "name": "",
          "type": "uint256"
        }
      ],
      "payable": false,
      "stateMutability": "view",
      "type": "function"
    },
    {
      "constant": false,
      "inputs": [
        {
          "name": "beneficiary",
          "type": "address"
        }
      ],
      "name": "deregisterBeneficiary",
      "outputs": [
        {
          "name": "",
          "type": "bool"
        }
      ],
      "payable": false,
      "stateMutability": "nonpayable",
      "type": "function"
    },
    {
      "constant": false,
      "inputs": [
        {
          "name": "service",
          "type": "address"
        },
        {
          "name": "action",
          "type": "string"
        }
      ],
      "name": "enableServiceAction",
      "outputs": [],
      "payable": false,
      "stateMutability": "nonpayable",
      "type": "function"
    },
    {
      "constant": true,
      "inputs": [
        {
          "name": "service",
          "type": "address"
        }
      ],
      "name": "isRegisteredService",
      "outputs": [
        {
          "name": "",
          "type": "bool"
        }
      ],
      "payable": false,
      "stateMutability": "view",
      "type": "function"
    },
    {
      "constant": false,
      "inputs": [
        {
          "name": "service",
          "type": "address"
        }
      ],
      "name": "authorizeInitiallyRegisteredService",
      "outputs": [],
      "payable": false,
      "stateMutability": "nonpayable",
      "type": "function"
    },
    {
      "constant": false,
      "inputs": [
        {
          "name": "service",
          "type": "address"
        },
        {
          "name": "action",
          "type": "string"
        }
      ],
      "name": "disableServiceAction",
      "outputs": [],
      "payable": false,
      "stateMutability": "nonpayable",
      "type": "function"
    },
    {
      "constant": true,
      "inputs": [],
      "name": "serviceActivationTimeout",
      "outputs": [
        {
          "name": "",
          "type": "uint256"
        }
      ],
      "payable": false,
      "stateMutability": "view",
      "type": "function"
    },
    {
      "constant": true,
      "inputs": [],
      "name": "destructor",
      "outputs": [
        {
          "name": "",
          "type": "address"
        }
      ],
      "payable": false,
      "stateMutability": "view",
      "type": "function"
    },
    {
      "constant": false,
      "inputs": [
        {
          "name": "service",
          "type": "address"
        }
      ],
      "name": "deregisterService",
      "outputs": [],
      "payable": false,
      "stateMutability": "nonpayable",
      "type": "function"
    },
    {
      "constant": true,
      "inputs": [],
      "name": "DEPOSITED_BALANCE_TYPE",
      "outputs": [
        {
          "name": "",
          "type": "string"
        }
      ],
      "payable": false,
      "stateMutability": "view",
      "type": "function"
    },
    {
      "constant": true,
      "inputs": [],
      "name": "STAGED_BALANCE_TYPE",
      "outputs": [
        {
          "name": "",
          "type": "string"
        }
      ],
      "payable": false,
      "stateMutability": "view",
      "type": "function"
    },
    {
      "constant": true,
      "inputs": [],
      "name": "operator",
      "outputs": [
        {
          "name": "",
          "type": "address"
        }
      ],
      "payable": false,
      "stateMutability": "view",
      "type": "function"
    },
    {
      "constant": true,
      "inputs": [
        {
          "name": "service",
          "type": "address"
        },
        {
          "name": "wallet",
          "type": "address"
        }
      ],
      "name": "isAuthorizedRegisteredService",
      "outputs": [
        {
          "name": "",
          "type": "bool"
        }
      ],
      "payable": false,
      "stateMutability": "view",
      "type": "function"
    },
    {
      "constant": true,
      "inputs": [
        {
          "name": "service",
          "type": "address"
        },
        {
          "name": "action",
          "type": "string"
        }
      ],
      "name": "isEnabledServiceAction",
      "outputs": [
        {
          "name": "",
          "type": "bool"
        }
      ],
      "payable": false,
      "stateMutability": "view",
      "type": "function"
    },
    {
      "constant": false,
      "inputs": [
        {
          "name": "newConfiguration",
          "type": "address"
        }
      ],
      "name": "setConfiguration",
      "outputs": [],
      "payable": false,
      "stateMutability": "nonpayable",
      "type": "function"
    },
    {
      "constant": false,
      "inputs": [
        {
          "name": "service",
          "type": "address"
        },
        {
          "name": "action",
          "type": "string"
        }
      ],
      "name": "authorizeRegisteredServiceAction",
      "outputs": [],
      "payable": false,
      "stateMutability": "nonpayable",
      "type": "function"
    },
    {
      "constant": true,
      "inputs": [
        {
          "name": "",
          "type": "address"
        },
        {
          "name": "",
          "type": "address"
        }
      ],
      "name": "initialServiceWalletUnauthorizedMap",
      "outputs": [
        {
          "name": "",
          "type": "bool"
        }
      ],
      "payable": false,
      "stateMutability": "view",
      "type": "function"
    },
    {
      "constant": true,
      "inputs": [
        {
          "name": "",
          "type": "address"
        },
        {
          "name": "",
          "type": "bytes32"
        },
        {
          "name": "",
          "type": "address"
        }
      ],
      "name": "serviceActionWalletTouchedMap",
      "outputs": [
        {
          "name": "",
          "type": "bool"
        }
      ],
      "payable": false,
      "stateMutability": "view",
      "type": "function"
    },
    {
      "constant": true,
      "inputs": [],
      "name": "configuration",
      "outputs": [
        {
          "name": "",
          "type": "address"
        }
      ],
      "payable": false,
      "stateMutability": "view",
      "type": "function"
    },
    {
      "constant": true,
      "inputs": [
        {
          "name": "",
          "type": "address"
        },
        {
          "name": "",
          "type": "address"
        }
      ],
      "name": "serviceWalletAuthorizedMap",
      "outputs": [
        {
          "name": "",
          "type": "bool"
        }
      ],
      "payable": false,
      "stateMutability": "view",
      "type": "function"
    },
    {
      "constant": false,
      "inputs": [
        {
          "name": "timeoutInSeconds",
          "type": "uint256"
        }
      ],
      "name": "setServiceActivationTimeout",
      "outputs": [],
      "payable": false,
      "stateMutability": "nonpayable",
      "type": "function"
    },
    {
      "constant": true,
      "inputs": [],
      "name": "initialServiceAuthorizationDisabled",
      "outputs": [
        {
          "name": "",
          "type": "bool"
        }
      ],
      "payable": false,
      "stateMutability": "view",
      "type": "function"
    },
    {
      "constant": true,
      "inputs": [
        {
          "name": "",
          "type": "address"
        },
        {
          "name": "",
          "type": "bytes32"
        },
        {
          "name": "",
          "type": "address"
        }
      ],
      "name": "serviceActionWalletAuthorizedMap",
      "outputs": [
        {
          "name": "",
          "type": "bool"
        }
      ],
      "payable": false,
      "stateMutability": "view",
      "type": "function"
    },
    {
      "constant": false,
      "inputs": [
        {
          "name": "service",
          "type": "address"
        },
        {
          "name": "action",
          "type": "string"
        }
      ],
      "name": "unauthorizeRegisteredServiceAction",
      "outputs": [],
      "payable": false,
      "stateMutability": "nonpayable",
      "type": "function"
    },
    {
      "constant": false,
      "inputs": [
        {
          "name": "service",
          "type": "address"
        }
      ],
      "name": "registerServiceDeferred",
      "outputs": [],
      "payable": false,
      "stateMutability": "nonpayable",
      "type": "function"
    },
    {
      "constant": false,
      "inputs": [],
      "name": "triggerDestroy",
      "outputs": [],
      "payable": false,
      "stateMutability": "nonpayable",
      "type": "function"
    },
    {
      "constant": false,
      "inputs": [
        {
          "name": "newDeployer",
          "type": "address"
        }
      ],
      "name": "setDeployer",
      "outputs": [],
      "payable": false,
      "stateMutability": "nonpayable",
      "type": "function"
    },
    {
      "constant": false,
      "inputs": [
        {
          "name": "service",
          "type": "address"
        }
      ],
      "name": "unauthorizeRegisteredService",
      "outputs": [],
      "payable": false,
      "stateMutability": "nonpayable",
      "type": "function"
    },
    {
      "constant": true,
      "inputs": [],
      "name": "transferControllerManager",
      "outputs": [
        {
          "name": "",
          "type": "address"
        }
      ],
      "payable": false,
      "stateMutability": "view",
      "type": "function"
    },
    {
      "constant": false,
      "inputs": [
        {
          "name": "newOperator",
          "type": "address"
        }
      ],
      "name": "setOperator",
      "outputs": [],
      "payable": false,
      "stateMutability": "nonpayable",
      "type": "function"
    },
    {
      "constant": true,
      "inputs": [
        {
          "name": "",
          "type": "uint256"
        }
      ],
      "name": "seizedWallets",
      "outputs": [
        {
          "name": "",
          "type": "address"
        }
      ],
      "payable": false,
      "stateMutability": "view",
      "type": "function"
    },
    {
      "constant": true,
      "inputs": [
        {
          "name": "",
          "type": "uint256"
        }
      ],
      "name": "lockedWallets",
      "outputs": [
        {
          "name": "",
          "type": "address"
        }
      ],
      "payable": false,
      "stateMutability": "view",
      "type": "function"
    },
    {
      "constant": true,
      "inputs": [],
      "name": "SETTLED_BALANCE_TYPE",
      "outputs": [
        {
          "name": "",
          "type": "string"
        }
      ],
      "payable": false,
      "stateMutability": "view",
      "type": "function"
    },
    {
      "constant": false,
      "inputs": [
        {
          "name": "beneficiary",
          "type": "address"
        }
      ],
      "name": "registerBeneficiary",
      "outputs": [
        {
          "name": "",
          "type": "bool"
        }
      ],
      "payable": false,
      "stateMutability": "nonpayable",
      "type": "function"
    },
    {
      "constant": false,
      "inputs": [
        {
          "name": "newAddress",
          "type": "address"
        }
      ],
      "name": "setTransferControllerManager",
      "outputs": [],
      "payable": false,
      "stateMutability": "nonpayable",
      "type": "function"
    },
    {
      "constant": true,
      "inputs": [],
      "name": "deployer",
      "outputs": [
        {
          "name": "",
          "type": "address"
        }
      ],
      "payable": false,
      "stateMutability": "view",
      "type": "function"
    },
    {
      "constant": true,
      "inputs": [
        {
          "name": "",
          "type": "address"
        }
      ],
      "name": "seizedByWallet",
      "outputs": [
        {
          "name": "",
          "type": "bool"
        }
      ],
      "payable": false,
      "stateMutability": "view",
      "type": "function"
    },
    {
      "constant": false,
      "inputs": [],
      "name": "disableInitialServiceAuthorization",
      "outputs": [],
      "payable": false,
      "stateMutability": "nonpayable",
      "type": "function"
    },
    {
      "constant": true,
      "inputs": [
        {
          "name": "",
          "type": "address"
        },
        {
          "name": "",
          "type": "address"
        },
        {
          "name": "",
          "type": "uint256"
        }
      ],
      "name": "serviceWalletActionList",
      "outputs": [
        {
          "name": "",
          "type": "bytes32"
        }
      ],
      "payable": false,
      "stateMutability": "view",
      "type": "function"
    },
    {
      "constant": false,
      "inputs": [
        {
          "name": "service",
          "type": "address"
        }
      ],
      "name": "registerService",
      "outputs": [],
      "payable": false,
      "stateMutability": "nonpayable",
      "type": "function"
    },
    {
      "inputs": [
        {
          "name": "deployer",
          "type": "address"
        }
      ],
      "payable": false,
      "stateMutability": "nonpayable",
      "type": "constructor"
    },
    {
      "payable": true,
      "stateMutability": "payable",
      "type": "fallback"
    },
    {
      "anonymous": false,
      "inputs": [
        {
          "indexed": false,
          "name": "wallet",
          "type": "address"
        },
        {
          "indexed": false,
          "name": "balanceType",
          "type": "string"
        },
        {
          "indexed": false,
          "name": "amount",
          "type": "int256"
        },
        {
          "indexed": false,
          "name": "currencyCt",
          "type": "address"
        },
        {
          "indexed": false,
          "name": "currencyId",
          "type": "uint256"
        },
        {
          "indexed": false,
          "name": "standard",
          "type": "string"
        }
      ],
      "name": "ReceiveEvent",
      "type": "event"
    },
    {
      "anonymous": false,
      "inputs": [
        {
          "indexed": false,
          "name": "wallet",
          "type": "address"
        },
        {
          "indexed": false,
          "name": "amount",
          "type": "int256"
        },
        {
          "indexed": false,
          "name": "currencyCt",
          "type": "address"
        },
        {
          "indexed": false,
          "name": "currencyId",
          "type": "uint256"
        },
        {
          "indexed": false,
          "name": "standard",
          "type": "string"
        }
      ],
      "name": "WithdrawEvent",
      "type": "event"
    },
    {
      "anonymous": false,
      "inputs": [
        {
          "indexed": false,
          "name": "wallet",
          "type": "address"
        },
        {
          "indexed": false,
          "name": "amount",
          "type": "int256"
        },
        {
          "indexed": false,
          "name": "currencyCt",
          "type": "address"
        },
        {
          "indexed": false,
          "name": "currencyId",
          "type": "uint256"
        }
      ],
      "name": "StageEvent",
      "type": "event"
    },
    {
      "anonymous": false,
      "inputs": [
        {
          "indexed": false,
          "name": "wallet",
          "type": "address"
        },
        {
          "indexed": false,
          "name": "amount",
          "type": "int256"
        },
        {
          "indexed": false,
          "name": "currencyCt",
          "type": "address"
        },
        {
          "indexed": false,
          "name": "currencyId",
          "type": "uint256"
        }
      ],
      "name": "UnstageEvent",
      "type": "event"
    },
    {
      "anonymous": false,
      "inputs": [
        {
          "indexed": false,
          "name": "wallet",
          "type": "address"
        },
        {
          "indexed": false,
          "name": "amount",
          "type": "int256"
        },
        {
          "indexed": false,
          "name": "currencyCt",
          "type": "address"
        },
        {
          "indexed": false,
          "name": "currencyId",
          "type": "uint256"
        }
      ],
      "name": "UpdateSettledBalanceEvent",
      "type": "event"
    },
    {
      "anonymous": false,
      "inputs": [
        {
          "indexed": false,
          "name": "sourceWallet",
          "type": "address"
        },
        {
          "indexed": false,
          "name": "beneficiary",
          "type": "address"
        },
        {
          "indexed": false,
          "name": "amount",
          "type": "int256"
        },
        {
          "indexed": false,
          "name": "currencyCt",
          "type": "address"
        },
        {
          "indexed": false,
          "name": "currencyId",
          "type": "uint256"
        },
        {
          "indexed": false,
          "name": "standard",
          "type": "string"
        }
      ],
      "name": "StageToBeneficiaryEvent",
      "type": "event"
    },
    {
      "anonymous": false,
      "inputs": [
        {
          "indexed": false,
          "name": "beneficiary",
          "type": "address"
        },
        {
          "indexed": false,
          "name": "amount",
          "type": "int256"
        },
        {
          "indexed": false,
          "name": "currencyCt",
          "type": "address"
        },
        {
          "indexed": false,
          "name": "currencyId",
          "type": "uint256"
        }
      ],
      "name": "TransferToBeneficiaryEvent",
      "type": "event"
    },
    {
      "anonymous": false,
      "inputs": [
        {
          "indexed": false,
          "name": "lockedWallet",
          "type": "address"
        },
        {
          "indexed": false,
          "name": "lockerWallet",
          "type": "address"
        }
      ],
      "name": "LockBalancesEvent",
      "type": "event"
    },
    {
      "anonymous": false,
      "inputs": [
        {
          "indexed": false,
          "name": "lockedWallet",
          "type": "address"
        },
        {
          "indexed": false,
          "name": "lockerWallet",
          "type": "address"
        }
      ],
      "name": "UnlockBalancesEvent",
      "type": "event"
    },
    {
      "anonymous": false,
      "inputs": [
        {
          "indexed": false,
          "name": "lockedWallet",
          "type": "address"
        },
        {
          "indexed": false,
          "name": "lockerWallet",
          "type": "address"
        }
      ],
      "name": "UnlockBalancesByProxyEvent",
      "type": "event"
    },
    {
      "anonymous": false,
      "inputs": [
        {
          "indexed": false,
          "name": "lockedWallet",
          "type": "address"
        },
        {
          "indexed": false,
          "name": "lockerWallet",
          "type": "address"
        }
      ],
      "name": "SeizeBalancesEvent",
      "type": "event"
    },
    {
      "anonymous": false,
      "inputs": [
        {
          "indexed": false,
          "name": "oldTransferControllerManager",
          "type": "address"
        },
        {
          "indexed": false,
          "name": "newTransferControllerManager",
          "type": "address"
        }
      ],
      "name": "SetTransferControllerManagerEvent",
      "type": "event"
    },
    {
      "anonymous": false,
      "inputs": [
        {
          "indexed": false,
          "name": "wallet",
          "type": "address"
        },
        {
          "indexed": false,
          "name": "service",
          "type": "address"
        }
      ],
      "name": "AuthorizeInitiallyRegisteredServiceEvent",
      "type": "event"
    },
    {
      "anonymous": false,
      "inputs": [
        {
          "indexed": false,
          "name": "wallet",
          "type": "address"
        },
        {
          "indexed": false,
          "name": "service",
          "type": "address"
        }
      ],
      "name": "AuthorizeRegisteredServiceEvent",
      "type": "event"
    },
    {
      "anonymous": false,
      "inputs": [
        {
          "indexed": false,
          "name": "wallet",
          "type": "address"
        },
        {
          "indexed": false,
          "name": "service",
          "type": "address"
        },
        {
          "indexed": false,
          "name": "action",
          "type": "string"
        }
      ],
      "name": "AuthorizeRegisteredServiceActionEvent",
      "type": "event"
    },
    {
      "anonymous": false,
      "inputs": [
        {
          "indexed": false,
          "name": "wallet",
          "type": "address"
        },
        {
          "indexed": false,
          "name": "service",
          "type": "address"
        }
      ],
      "name": "UnauthorizeRegisteredServiceEvent",
      "type": "event"
    },
    {
      "anonymous": false,
      "inputs": [
        {
          "indexed": false,
          "name": "wallet",
          "type": "address"
        },
        {
          "indexed": false,
          "name": "service",
          "type": "address"
        },
        {
          "indexed": false,
          "name": "action",
          "type": "string"
        }
      ],
      "name": "UnauthorizeRegisteredServiceActionEvent",
      "type": "event"
    },
    {
      "anonymous": false,
      "inputs": [
        {
          "indexed": false,
          "name": "timeoutInSeconds",
          "type": "uint256"
        }
      ],
      "name": "ServiceActivationTimeoutEvent",
      "type": "event"
    },
    {
      "anonymous": false,
      "inputs": [
        {
          "indexed": false,
          "name": "service",
          "type": "address"
        }
      ],
      "name": "RegisterServiceEvent",
      "type": "event"
    },
    {
      "anonymous": false,
      "inputs": [
        {
          "indexed": false,
          "name": "service",
          "type": "address"
        },
        {
          "indexed": false,
          "name": "timeout",
          "type": "uint256"
        }
      ],
      "name": "RegisterServiceDeferredEvent",
      "type": "event"
    },
    {
      "anonymous": false,
      "inputs": [
        {
          "indexed": false,
          "name": "service",
          "type": "address"
        }
      ],
      "name": "DeregisterServiceEvent",
      "type": "event"
    },
    {
      "anonymous": false,
      "inputs": [
        {
          "indexed": false,
          "name": "service",
          "type": "address"
        },
        {
          "indexed": false,
          "name": "action",
          "type": "string"
        }
      ],
      "name": "EnableServiceActionEvent",
      "type": "event"
    },
    {
      "anonymous": false,
      "inputs": [
        {
          "indexed": false,
          "name": "service",
          "type": "address"
        },
        {
          "indexed": false,
          "name": "action",
          "type": "string"
        }
      ],
      "name": "DisableServiceActionEvent",
      "type": "event"
    },
    {
      "anonymous": false,
      "inputs": [
        {
          "indexed": false,
          "name": "beneficiary",
          "type": "address"
        }
      ],
      "name": "RegisterBeneficiaryEvent",
      "type": "event"
    },
    {
      "anonymous": false,
      "inputs": [
        {
          "indexed": false,
          "name": "beneficiary",
          "type": "address"
        }
      ],
      "name": "DeregisterBeneficiaryEvent",
      "type": "event"
    },
    {
      "anonymous": false,
      "inputs": [
        {
          "indexed": false,
          "name": "oldConfiguration",
          "type": "address"
        },
        {
          "indexed": false,
          "name": "newConfiguration",
          "type": "address"
        }
      ],
      "name": "SetConfigurationEvent",
      "type": "event"
    },
    {
      "anonymous": false,
      "inputs": [
        {
          "indexed": false,
          "name": "oldDeployer",
          "type": "address"
        },
        {
          "indexed": false,
          "name": "newDeployer",
          "type": "address"
        }
      ],
      "name": "SetDeployerEvent",
      "type": "event"
    },
    {
      "anonymous": false,
      "inputs": [
        {
          "indexed": false,
          "name": "oldOperator",
          "type": "address"
        },
        {
          "indexed": false,
          "name": "newOperator",
          "type": "address"
        }
      ],
      "name": "SetOperatorEvent",
      "type": "event"
    },
    {
      "constant": false,
      "inputs": [
        {
          "name": "wallet",
          "type": "address"
        },
        {
          "name": "balanceType",
          "type": "string"
        }
      ],
      "name": "receiveEthersTo",
      "outputs": [],
      "payable": true,
      "stateMutability": "payable",
      "type": "function"
    },
    {
      "constant": false,
      "inputs": [
        {
          "name": "balanceType",
          "type": "string"
        },
        {
          "name": "amount",
          "type": "int256"
        },
        {
          "name": "currencyCt",
          "type": "address"
        },
        {
          "name": "currencyId",
          "type": "uint256"
        },
        {
          "name": "standard",
          "type": "string"
        }
      ],
      "name": "receiveTokens",
      "outputs": [],
      "payable": false,
      "stateMutability": "nonpayable",
      "type": "function"
    },
    {
      "constant": false,
      "inputs": [
        {
          "name": "wallet",
          "type": "address"
        },
        {
          "name": "balanceType",
          "type": "string"
        },
        {
          "name": "amount",
          "type": "int256"
        },
        {
          "name": "currencyCt",
          "type": "address"
        },
        {
          "name": "currencyId",
          "type": "uint256"
        },
        {
          "name": "standard",
          "type": "string"
        }
      ],
      "name": "receiveTokensTo",
      "outputs": [],
      "payable": false,
      "stateMutability": "nonpayable",
      "type": "function"
    },
    {
      "constant": true,
      "inputs": [
        {
          "name": "wallet",
          "type": "address"
        },
        {
          "name": "index",
          "type": "uint256"
        }
      ],
      "name": "deposit",
      "outputs": [
        {
          "name": "amount",
          "type": "int256"
        },
        {
          "name": "blockNumber",
          "type": "uint256"
        },
        {
          "name": "currencyCt",
          "type": "address"
        },
        {
          "name": "currencyId",
          "type": "uint256"
        }
      ],
      "payable": false,
      "stateMutability": "view",
      "type": "function"
    },
    {
      "constant": true,
      "inputs": [
        {
          "name": "wallet",
          "type": "address"
        }
      ],
      "name": "depositsCount",
      "outputs": [
        {
          "name": "",
          "type": "uint256"
        }
      ],
      "payable": false,
      "stateMutability": "view",
      "type": "function"
    },
    {
      "constant": true,
      "inputs": [
        {
          "name": "wallet",
          "type": "address"
        },
        {
          "name": "currencyCt",
          "type": "address"
        },
        {
          "name": "currencyId",
          "type": "uint256"
        },
        {
          "name": "index",
          "type": "uint256"
        }
      ],
      "name": "depositOfCurrency",
      "outputs": [
        {
          "name": "amount",
          "type": "int256"
        },
        {
          "name": "blockNumber",
          "type": "uint256"
        }
      ],
      "payable": false,
      "stateMutability": "view",
      "type": "function"
    },
    {
      "constant": true,
      "inputs": [
        {
          "name": "wallet",
          "type": "address"
        },
        {
          "name": "currencyCt",
          "type": "address"
        },
        {
          "name": "currencyId",
          "type": "uint256"
        }
      ],
      "name": "depositsOfCurrencyCount",
      "outputs": [
        {
          "name": "",
          "type": "uint256"
        }
      ],
      "payable": false,
      "stateMutability": "view",
      "type": "function"
    },
    {
      "constant": true,
      "inputs": [
        {
          "name": "wallet",
          "type": "address"
        },
        {
          "name": "currencyCt",
          "type": "address"
        },
        {
          "name": "currencyId",
          "type": "uint256"
        }
      ],
      "name": "depositedBalance",
      "outputs": [
        {
          "name": "",
          "type": "int256"
        }
      ],
      "payable": false,
      "stateMutability": "view",
      "type": "function"
    },
    {
      "constant": true,
      "inputs": [
        {
          "name": "wallet",
          "type": "address"
        },
        {
          "name": "currencyCt",
          "type": "address"
        },
        {
          "name": "currencyId",
          "type": "uint256"
        }
      ],
      "name": "settledBalance",
      "outputs": [
        {
          "name": "",
          "type": "int256"
        }
      ],
      "payable": false,
      "stateMutability": "view",
      "type": "function"
    },
    {
      "constant": true,
      "inputs": [
        {
          "name": "wallet",
          "type": "address"
        },
        {
          "name": "currencyCt",
          "type": "address"
        },
        {
          "name": "currencyId",
          "type": "uint256"
        }
      ],
      "name": "stagedBalance",
      "outputs": [
        {
          "name": "",
          "type": "int256"
        }
      ],
      "payable": false,
      "stateMutability": "view",
      "type": "function"
    },
    {
      "constant": true,
      "inputs": [
        {
          "name": "wallet",
          "type": "address"
        },
        {
          "name": "currencyCt",
          "type": "address"
        },
        {
          "name": "currencyId",
          "type": "uint256"
        }
      ],
      "name": "activeBalance",
      "outputs": [
        {
          "name": "",
          "type": "int256"
        }
      ],
      "payable": false,
      "stateMutability": "view",
      "type": "function"
    },
    {
      "constant": true,
      "inputs": [
        {
          "name": "wallet",
          "type": "address"
        },
        {
          "name": "currencyCt",
          "type": "address"
        },
        {
          "name": "currencyId",
          "type": "uint256"
        },
        {
          "name": "index",
          "type": "uint256"
        }
      ],
      "name": "activeBalanceLogEntry",
      "outputs": [
        {
          "name": "amount",
          "type": "int256"
        },
        {
          "name": "blockNumber",
          "type": "uint256"
        }
      ],
      "payable": false,
      "stateMutability": "view",
      "type": "function"
    },
    {
      "constant": true,
      "inputs": [
        {
          "name": "wallet",
          "type": "address"
        },
        {
          "name": "currencyCt",
          "type": "address"
        },
        {
          "name": "currencyId",
          "type": "uint256"
        }
      ],
      "name": "activeBalanceLogEntriesCount",
      "outputs": [
        {
          "name": "",
          "type": "uint256"
        }
      ],
      "payable": false,
      "stateMutability": "view",
      "type": "function"
    },
    {
      "constant": false,
      "inputs": [
        {
          "name": "wallet",
          "type": "address"
        },
        {
          "name": "amount",
          "type": "int256"
        },
        {
          "name": "currencyCt",
          "type": "address"
        },
        {
          "name": "currencyId",
          "type": "uint256"
        }
      ],
      "name": "updateSettledBalance",
      "outputs": [],
      "payable": false,
      "stateMutability": "nonpayable",
      "type": "function"
    },
    {
      "constant": false,
      "inputs": [
        {
          "name": "wallet",
          "type": "address"
        },
        {
          "name": "amount",
          "type": "int256"
        },
        {
          "name": "currencyCt",
          "type": "address"
        },
        {
          "name": "currencyId",
          "type": "uint256"
        }
      ],
      "name": "stage",
      "outputs": [],
      "payable": false,
      "stateMutability": "nonpayable",
      "type": "function"
    },
    {
      "constant": false,
      "inputs": [
        {
          "name": "amount",
          "type": "int256"
        },
        {
          "name": "currencyCt",
          "type": "address"
        },
        {
          "name": "currencyId",
          "type": "uint256"
        }
      ],
      "name": "unstage",
      "outputs": [],
      "payable": false,
      "stateMutability": "nonpayable",
      "type": "function"
    },
    {
      "constant": false,
      "inputs": [
        {
          "name": "wallet",
          "type": "address"
        },
        {
          "name": "beneficiary",
          "type": "address"
        },
        {
          "name": "amount",
          "type": "int256"
        },
        {
          "name": "currencyCt",
          "type": "address"
        },
        {
          "name": "currencyId",
          "type": "uint256"
        },
        {
          "name": "standard",
          "type": "string"
        }
      ],
      "name": "stageToBeneficiary",
      "outputs": [],
      "payable": false,
      "stateMutability": "nonpayable",
      "type": "function"
    },
    {
      "constant": false,
      "inputs": [
        {
          "name": "beneficiary",
          "type": "address"
        },
        {
          "name": "amount",
          "type": "int256"
        },
        {
          "name": "currencyCt",
          "type": "address"
        },
        {
          "name": "currencyId",
          "type": "uint256"
        },
        {
          "name": "standard",
          "type": "string"
        }
      ],
      "name": "transferToBeneficiary",
      "outputs": [],
      "payable": false,
      "stateMutability": "nonpayable",
      "type": "function"
    },
    {
      "constant": false,
      "inputs": [
        {
          "name": "lockedWallet",
          "type": "address"
        },
        {
          "name": "lockerWallet",
          "type": "address"
        }
      ],
      "name": "lockBalancesByProxy",
      "outputs": [],
      "payable": false,
      "stateMutability": "nonpayable",
      "type": "function"
    },
    {
      "constant": false,
      "inputs": [],
      "name": "unlockBalances",
      "outputs": [],
      "payable": false,
      "stateMutability": "nonpayable",
      "type": "function"
    },
    {
      "constant": false,
      "inputs": [
        {
          "name": "wallet",
          "type": "address"
        }
      ],
      "name": "unlockBalancesByProxy",
      "outputs": [],
      "payable": false,
      "stateMutability": "nonpayable",
      "type": "function"
    },
    {
      "constant": false,
      "inputs": [
        {
          "name": "lockedWallet",
          "type": "address"
        },
        {
          "name": "currencyCt",
          "type": "address"
        },
        {
          "name": "currencyId",
          "type": "uint256"
        }
      ],
      "name": "seizeBalances",
      "outputs": [],
      "payable": false,
      "stateMutability": "nonpayable",
      "type": "function"
    },
    {
      "constant": false,
      "inputs": [
        {
          "name": "amount",
          "type": "int256"
        },
        {
          "name": "currencyCt",
          "type": "address"
        },
        {
          "name": "currencyId",
          "type": "uint256"
        },
        {
          "name": "standard",
          "type": "string"
        }
      ],
      "name": "withdraw",
      "outputs": [],
      "payable": false,
      "stateMutability": "nonpayable",
      "type": "function"
    },
    {
      "constant": true,
      "inputs": [
        {
          "name": "wallet",
          "type": "address"
        },
        {
          "name": "index",
          "type": "uint256"
        }
      ],
      "name": "withdrawal",
      "outputs": [
        {
          "name": "amount",
          "type": "int256"
        },
        {
          "name": "blockNumber",
          "type": "uint256"
        },
        {
          "name": "currencyCt",
          "type": "address"
        },
        {
          "name": "currencyId",
          "type": "uint256"
        }
      ],
      "payable": false,
      "stateMutability": "view",
      "type": "function"
    },
    {
      "constant": true,
      "inputs": [
        {
          "name": "wallet",
          "type": "address"
        }
      ],
      "name": "withdrawalsCount",
      "outputs": [
        {
          "name": "",
          "type": "uint256"
        }
      ],
      "payable": false,
      "stateMutability": "view",
      "type": "function"
    },
    {
      "constant": true,
      "inputs": [
        {
          "name": "wallet",
          "type": "address"
        },
        {
          "name": "currencyCt",
          "type": "address"
        },
        {
          "name": "currencyId",
          "type": "uint256"
        },
        {
          "name": "index",
          "type": "uint256"
        }
      ],
      "name": "withdrawalOfCurrency",
      "outputs": [
        {
          "name": "amount",
          "type": "int256"
        },
        {
          "name": "blockNumber",
          "type": "uint256"
        }
      ],
      "payable": false,
      "stateMutability": "view",
      "type": "function"
    },
    {
      "constant": true,
      "inputs": [
        {
          "name": "wallet",
          "type": "address"
        },
        {
          "name": "currencyCt",
          "type": "address"
        },
        {
          "name": "currencyId",
          "type": "uint256"
        }
      ],
      "name": "withdrawalsOfCurrencyCount",
      "outputs": [
        {
          "name": "",
          "type": "uint256"
        }
      ],
      "payable": false,
      "stateMutability": "view",
      "type": "function"
    },
    {
      "constant": true,
      "inputs": [
        {
          "name": "wallet",
          "type": "address"
        }
      ],
      "name": "isLockedWallet",
      "outputs": [
        {
          "name": "",
          "type": "bool"
        }
      ],
      "payable": false,
      "stateMutability": "view",
      "type": "function"
    },
    {
      "constant": true,
      "inputs": [],
      "name": "lockedWalletsCount",
      "outputs": [
        {
          "name": "",
          "type": "uint256"
        }
      ],
      "payable": false,
      "stateMutability": "view",
      "type": "function"
    },
    {
      "constant": true,
      "inputs": [
        {
          "name": "wallet",
          "type": "address"
        }
      ],
      "name": "locker",
      "outputs": [
        {
          "name": "",
          "type": "address"
        }
      ],
      "payable": false,
      "stateMutability": "view",
      "type": "function"
    },
    {
      "constant": true,
      "inputs": [
        {
          "name": "wallet",
          "type": "address"
        }
      ],
      "name": "unlockTime",
      "outputs": [
        {
          "name": "",
          "type": "uint256"
        }
      ],
      "payable": false,
      "stateMutability": "view",
      "type": "function"
    },
    {
      "constant": true,
      "inputs": [
        {
          "name": "wallet",
          "type": "address"
        }
      ],
      "name": "isSeizedWallet",
      "outputs": [
        {
          "name": "",
          "type": "bool"
        }
      ],
      "payable": false,
      "stateMutability": "view",
      "type": "function"
    },
    {
      "constant": true,
      "inputs": [],
      "name": "seizedWalletsCount",
      "outputs": [
        {
          "name": "",
          "type": "uint256"
        }
      ],
      "payable": false,
      "stateMutability": "view",
      "type": "function"
    }
  ],
  "bytecode": "0x60806040523480156200001157600080fd5b5060405160208062005b9e8339810180604052620000339190810190620000b0565b8080600160a060020a03811615156200004b57600080fd5b600160a060020a0381163014156200006257600080fd5b5060008054600160a060020a03909216600160a060020a03199283168117909155600180549092161790555062093a80600655620000e5565b6000620000a98251620000d9565b9392505050565b600060208284031215620000c357600080fd5b6000620000d184846200009b565b949350505050565b600160a060020a031690565b615aa980620000f56000396000f3006080604052600436106103765763ffffffff60e060020a60003504166301f3241f81146103a657806304fd3130146103c6578063077f9e0c146103fc5780630bf378b71461041c5780630c5d24fa146104495780630f200f9b1461046957806312e94dda1461048957806317ba3f90146104a957806319507d8a146104c95780631bf6f12c146104e95780631caf1d6d146105095780632145cd2014610529578063242e628d1461053e5780632b5672e31461055e5780632b91e0a91461057e5780632b91eddb1461059e578063396d404c146105be5780633b58c501146105de5780633b7bea6c146105fe578063423f9b28146106135780634476d23b1461062857806347e7ef241461064a5780634cbfa1141461067a57806350b08c02146106a85780635106c203146106c8578063528162c2146106ea578063536b7978146106ff578063570ca7351461071f57806357925b53146107345780635a6b26ba146107545780635df1b0a3146107745780635f28965114610794578063624c28d4146107b4578063627f09c3146107d457806362ac7621146107f457806362f1e6b314610814578063677ec9d6146108345780636a1724a0146108545780636c70bee91461087457806372b7ba63146108965780637687810c146108b657806376b467b7146108d65780637953d64d146108f65780637e15dd5c146109165780637f584f511461093657806384cfb4091461094b5780638a2f30cc1461096b5780638cfa3bcb1461098b5780638e38a4b6146109ab5780638e8cef12146109cb5780638f03b785146109eb57806394dd293c14610a0b5780639621473514610a205780639f82dc3114610a40578063a3e5175d14610a60578063a7654a1f14610a80578063af30b31214610a93578063affc0fa014610aa8578063b3ab15fb14610ac8578063b9bb9cd914610ae8578063c41570bd14610b08578063c45a9a7f14610b28578063c60c5b6c14610b48578063cc0dad4a14610b5d578063cd49737d14610b7d578063cdd8b2b214610b9d578063d3b41bd214610bbd578063d5f3948814610bdd578063d71c9c1214610bf2578063df9774d814610c12578063e167d4f614610c32578063e3d3e9fc14610c47578063e56715e014610c67578063f26a861e14610c87578063f8297dbe14610c9c578063fb2d4be314610cbc578063fc47987c14610cdc578063fdd9ec7d14610cfc575b6103a43360408051908101604052806009815260200160ba60020a6819195c1bdcda5d195902815250610d1c565b005b3480156103b257600080fd5b506103a46103c1366004615080565b6111f8565b3480156103d257600080fd5b506103e66103e1366004615080565b611304565b6040516103f391906158b8565b60405180910390f35b34801561040857600080fd5b506103e6610417366004615080565b611320565b34801561042857600080fd5b5061043c6104373660046150d8565b611340565b6040516103f391906158c6565b34801561045557600080fd5b506103e66104643660046152f2565b611373565b34801561047557600080fd5b506103a46104843660046154fb565b611402565b34801561049557600080fd5b5061043c6104a43660046150d8565b611728565b3480156104b557600080fd5b506103e66104c4366004615080565b611754565b3480156104d557600080fd5b506103e66104e4366004615080565b61178c565b3480156104f557600080fd5b5061043c610504366004615080565b6117a1565b34801561051557600080fd5b506103e6610524366004615080565b6117b3565b34801561053557600080fd5b5061043c6119a0565b34801561054a57600080fd5b506103a46105593660046153f4565b6119a7565b34801561056a57600080fd5b506103a46105793660046152ab565b611a25565b34801561058a57600080fd5b506103e6610599366004615080565b611b47565b3480156105aa57600080fd5b506103a46105b9366004615080565b611b65565b3480156105ca57600080fd5b5061043c6105d93660046150d8565b611c46565b3480156105ea57600080fd5b506103a46105f93660046152ab565b611c72565b34801561060a57600080fd5b5061043c611d54565b34801561061f57600080fd5b506103a4611d5a565b34801561063457600080fd5b5061063d611e04565b6040516103f39190615635565b34801561065657600080fd5b5061066a610665366004615388565b611e13565b6040516103f39493929190615919565b34801561068657600080fd5b5061069a610695366004615125565b611e54565b6040516103f392919061590b565b3480156106b457600080fd5b506103a46106c3366004615080565b611e90565b3480156106d457600080fd5b506106dd611f46565b6040516103f39190615927565b3480156106f657600080fd5b506106dd611f6c565b34801561070b57600080fd5b5061043c61071a3660046150d8565b611f8f565b34801561072b57600080fd5b5061063d611fbb565b34801561074057600080fd5b506103e661074f36600461509e565b611fca565b34801561076057600080fd5b5061066a61076f366004615388565b61203d565b34801561078057600080fd5b506103e661078f3660046152ab565b61206e565b3480156107a057600080fd5b506103a46107af36600461533b565b6120bf565b3480156107c057600080fd5b5061043c6107cf3660046150d8565b61268f565b3480156107e057600080fd5b506103a46107ef366004615480565b6126bb565b34801561080057600080fd5b506103a461080f3660046152ab565b612753565b34801561082057600080fd5b506103e661082f36600461509e565b61293a565b34801561084057600080fd5b506103e661084f366004615186565b61295a565b34801561086057600080fd5b506103a461086f3660046154da565b612980565b34801561088057600080fd5b50610889612b6b565b6040516103f391906158e2565b3480156108a257600080fd5b5061069a6108b1366004615125565b612b7a565b3480156108c257600080fd5b5061043c6108d1366004615080565b612ba9565b3480156108e257600080fd5b5061043c6108f1366004615080565b612bcd565b34801561090257600080fd5b506103e661091136600461509e565b612beb565b34801561092257600080fd5b506103a46109313660046155a1565b612c0b565b34801561094257600080fd5b506103e6612c53565b34801561095757600080fd5b506103e6610966366004615186565b612c5c565b34801561097757600080fd5b506103a46109863660046152ab565b612c82565b34801561099757600080fd5b506103a46109a636600461509e565b612dc9565b3480156109b757600080fd5b5061043c6109c63660046150d8565b612f58565b3480156109d757600080fd5b506103a46109e6366004615080565b612f84565b3480156109f757600080fd5b506103a4610a063660046150d8565b613002565b348015610a1757600080fd5b506103a4613156565b348015610a2c57600080fd5b506103a4610a3b366004615080565b613185565b348015610a4c57600080fd5b5061069a610a5b366004615125565b61322f565b348015610a6c57600080fd5b506103a4610a7b366004615080565b61325e565b6103a4610a8e3660046152ab565b610d1c565b348015610a9f57600080fd5b50610889613436565b348015610ab457600080fd5b506103a4610ac3366004615267565b613445565b348015610ad457600080fd5b506103a4610ae3366004615080565b6135b8565b348015610af457600080fd5b5061063d610b033660046155a1565b613662565b348015610b1457600080fd5b5061063d610b233660046155a1565b61368a565b348015610b3457600080fd5b506103a4610b43366004615567565b613698565b348015610b5457600080fd5b506106dd6136a6565b348015610b6957600080fd5b506103e6610b78366004615080565b6136ca565b348015610b8957600080fd5b506103a4610b98366004615267565b6136e8565b348015610ba957600080fd5b506103e6610bb8366004615080565b613838565b348015610bc957600080fd5b506103a4610bd8366004615480565b613927565b348015610be957600080fd5b5061063d6139bf565b348015610bfe57600080fd5b5061063d610c0d366004615080565b6139ce565b348015610c1e57600080fd5b506103e6610c2d366004615080565b6139ef565b348015610c3e57600080fd5b506103a4613a04565b348015610c5357600080fd5b5061043c610c623660046150d8565b613a26565b348015610c7357600080fd5b5061043c610c823660046150d8565b613a63565b348015610c9357600080fd5b5061043c613ac8565b348015610ca857600080fd5b506103a4610cb73660046151c9565b613ace565b348015610cc857600080fd5b506103a4610cd7366004615080565b613b6e565b348015610ce857600080fd5b5061043c610cf7366004615080565b613bde565b348015610d0857600080fd5b506103a4610d17366004615080565b613c02565b60008073__SafeMathIntLib________________________63802d10af346040518263ffffffff1660e060020a028152600401610d5991906158c6565b60206040518083038186803b158015610d7157600080fd5b505af4158015610d85573d6000803e3d6000fd5b505050506040513d601f19601f82011682018060405250610da991908101906154bc565b9150825160001415610ddb57604080518082019091526009815260ba60020a6819195c1bdcda5d195902602082015292505b826040516020018082805190602001908083835b60208310610e0e5780518252601f199092019160209182019101610def565b6001836020036101000a0380198251168184511680821785525050505050509050019150506040516020818303038152906040526040518082805190602001908083835b60208310610e715780518252601f199092019160209182019101610e52565b51815160209384036101000a6000190180199092169116179052604080519290940182900382208285018552600680845260d260020a651cdd1859d9590284840190815295519198508897509295500192839250908083835b60208310610ee95780518252601f199092019160209182019101610eca565b6001836020036101000a0380198251168184511680821785525050505050509050019150506040516020818303038152906040526040518082805190602001908083835b60208310610f4c5780518252601f199092019160209182019101610f2d565b6001836020036101000a0380198251168184511680821785525050505050509050019150506040518091039020600019161415610fb857600160a060020a0384166000908152600f60205260408120610fb39160019091019084908063ffffffff613c7b16565b61113b565b604080518082018252600980825260ba60020a6819195c1bdcda5d19590260208084019182529351859401918291908083835b6020831061100a5780518252601f199092019160209182019101610feb565b6001836020036101000a0380198251168184511680821785525050505050509050019150506040516020818303038152906040526040518082805190602001908083835b6020831061106d5780518252601f19909201916020918201910161104e565b6001836020036101000a038019825116818451168082178552505050505050905001915050604051809103902060001916141561113657600160a060020a0384166000908152600f602052604081206110ce9184908063ffffffff613c7b16565b600160a060020a0384166000908152600f602052604081206110fe9160049091019084908063ffffffff613cf316565b610fb361110d85600080613a63565b600160a060020a0386166000908152600f6020526040812060030191908063ffffffff613dc016565b600080fd5b600160a060020a0384166000908152600f6020526040808220905160e260020a630ea18e7f02815273__InUseCurrencyLib______________________92633a8639fc9261119492600890910191908190600401615938565b60006040518083038186803b1580156111ac57600080fd5b505af41580156111c0573d6000803e3d6000fd5b50505050600080516020615a508339815191528484846000806040516111ea95949392919061579b565b60405180910390a150505050565b611200613e33565b1561120a57600080fd5b80600160a060020a038116151561122057600080fd5b600160a060020a03811630141561123657600080fd5b33600160a060020a038316141561124c57600080fd5b600160a060020a03821660009081526005602052604090205460ff16151561127357600080fd5b600160a060020a03821660009081526008602052604090205460ff161561129957600080fd5b600160a060020a0382166000908152600a6020908152604080832033808552925291829020805460ff1916600117905590517f7406a64e4e8c04b2a11d4cb484eb07cd5762012eafc449900b8d92de008ff27f916112f8918590615643565b60405180910390a15050565b600160a060020a03166000908152600460205260408120541190565b600160a060020a03166000908152600f60205260409020600c0154421090565b600160a060020a0383166000908152600f6020526040812061136990848463ffffffff613e4416565b90505b9392505050565b60008082600160a060020a031685600160a060020a0316141561139957600091506113fa565b6113a284613e8a565b90506113ae858561206e565b80156113f757506113bf8584613f54565b806113f75750600160a060020a038086166000908152600b6020908152604080832085845282528083209387168352929052205460ff165b91505b509392505050565b60405160e160020a6351750e5302815260009073__SafeMathIntLib________________________9063a2ea1ca69061143f9088906004016158c6565b60206040518083038186803b15801561145757600080fd5b505af415801561146b573d6000803e3d6000fd5b505050506040513d601f19601f8201168201806040525061148f91908101906153b8565b151561149a57600080fd5b336000908152600f6020526040902073__SafeMathIntLib________________________9063755875b29087906114db90600101888863ffffffff613e4416565b6040518363ffffffff1660e060020a0281526004016114fb92919061590b565b60206040518083038186803b15801561151357600080fd5b505af4158015611527573d6000803e3d6000fd5b505050506040513d601f19601f8201168201806040525061154b91908101906154bc565b94506000851361155a57611721565b336000908152600f6020526040902061157e9060010186868663ffffffff613fab16565b336000908152600f602052604090206115a29060040186868663ffffffff613ff816565b600160a060020a0384161580156115b7575082155b156115ef57604051339086156108fc029087906000818181858888f193505050501580156115e9573d6000803e3d6000fd5b506116e1565b6115f984836140c9565b905080600160a060020a031681600160a060020a0316637228941f6040518163ffffffff1660e060020a028152600401602060405180830381600087803b15801561164357600080fd5b505af1158015611657573d6000803e3d6000fd5b505050506040513d601f19601f8201168201806040525061167b91908101906153d6565b6040805160e060020a9283900463ffffffff8116909302815230600482015233602482015260448101899052600160a060020a038816606482015260848101879052905160a48083019260009291908290030181865af49250505015156116e157600080fd5b7f8e0adde15ffb742f47e7888277a26cea416253fcb63186dc4949fe493e92b77c3386868686604051611718959493929190615729565b60405180910390a15b5050505050565b600160a060020a0383166000908152600f6020526040812061136990600101848463ffffffff613e4416565b600061175f82611b47565b80156117865750600160a060020a0382166000908152600560205260409020600101544210155b92915050565b60086020526000908152604090205460ff1681565b60116020526000908152604090205481565b6000806117be613e33565b15156117c957600080fd5b82600160a060020a03811615156117df57600080fd5b600160a060020a03841660009081526004602052604090205415156118075760009250611999565b600160a060020a0384166000908152600460205260409020546003546000199182019350018210156119055760038054600019810190811061184557fe5b60009182526020909120015460038054600160a060020a03909216918490811061186b57fe5b9060005260206000200160006101000a815481600160a060020a030219169083600160a060020a0316021790555081600101600460006003858154811015156118b057fe5b6000918252602080832090910154600160a060020a031683528201929092526040019020556003805460001981019081106118e757fe5b60009182526020909120018054600160a060020a031916905561192d565b600380548390811061191357fe5b60009182526020909120018054600160a060020a03191690555b6003805490611940906000198301614f64565b50600160a060020a03841660009081526004602052604080822091909155517f33f51cf787669db5b5aff6ba597298fd010748de93aaadef29aae876cef4a8c39061198c908690615635565b60405180910390a1600192505b5050919050565b6012545b90565b84600160a060020a03811615156119bd57600080fd5b6119c633611754565b15156119d157600080fd5b6119e06000878787878761416c565b7fefdb6484398847f1fe7bc37cd07fd2f054c05c5d3d9721d2705e6c1ee82b785c86868686604051611a1594939291906158d4565b60405180910390a1505050505050565b6000611a2f613e33565b1515611a3a57600080fd5b82600160a060020a0381161515611a5057600080fd5b600160a060020a038116301415611a6657600080fd5b600160a060020a03841660009081526005602052604090205460ff161515611a8d57600080fd5b611a9683613e8a565b600160a060020a038516600090815260056020908152604080832084845260020190915290205490925060ff1615611acd57600080fd5b600160a060020a0384166000908152600560208181526040808420868552600281018352818520805460ff19166001908117909155938352600301805493840181558452922001839055517fec1b982d69bfc1a6fd8becf191d9a633486c822d3bdedd52303ca81fa6357501906111ea908690869061577b565b600160a060020a031660009081526005602052604090205460ff1690565b611b6d613e33565b1515611b7857600080fd5b80600160a060020a0381161515611b8e57600080fd5b600160a060020a038116301415611ba457600080fd5b60075460ff1615611bb457600080fd5b33600160a060020a0383161415611bca57600080fd5b600160a060020a03821660009081526005602052604090205460ff161515611bf157600080fd5b600160a060020a03821660009081526008602052604090819020805460ff19166001179055517fd3a57acd07c4600b81930f29e6e9ccfa05db83a482e185e0c733c16e80603e36906112f89033908590615643565b600160a060020a0383166000908152600f6020526040812061136990600301848463ffffffff613e4416565b6000611c7c613e33565b1515611c8757600080fd5b82600160a060020a0381161515611c9d57600080fd5b600160a060020a038116301415611cb357600080fd5b611cbc83613e8a565b600160a060020a038516600090815260056020908152604080832084845260020190915290205490925060ff161515611cf457600080fd5b600160a060020a038416600090815260056020908152604080832085845260020190915290819020805460ff19169055517f92f4af6130f47c92f3899e06611c8c6ef191fb81207ad2675d134af619d2fe7d906111ea908690869061577b565b60065481565b336000908152600f60205260408120600b0154600160a060020a031615801590611d965750336000908152600f60205260409020600c01544210155b1515611da157600080fd5b50336000818152600f60205260409020600b0154600160a060020a031690611dc8906143fb565b7f267cb8c82a72e29199287d3e685215526d33d099188c41936194cccc3fedd5233382604051611df9929190615643565b60405180910390a150565b600054600160a060020a031690565b600160a060020a0382166000908152600f60205260408120819081908190611e44906004018663ffffffff61443516565b9299919850965090945092505050565b600160a060020a0384166000908152600f602052604081208190611e839060040186868663ffffffff6144ef16565b9150915094509492505050565b611e98613e33565b1515611ea357600080fd5b80600160a060020a0381161515611eb957600080fd5b600160a060020a038116301415611ecf57600080fd5b600160a060020a03821660009081526005602052604090205460ff161515611ef657600080fd5b600160a060020a03821660009081526005602052604090819020805460ff19169055517f777645c5437dfbf962f57a281ead25f3d513f2f8e938685bbfc1738e81c9880e906112f8908490615635565b604080518082019091526009815260ba60020a6819195c1bdcda5d195902602082015281565b604080518082019091526006815260d260020a651cdd1859d95902602082015281565b600160a060020a0383166000908152600f6020526040812061136990600401848463ffffffff6145b216565b600154600160a060020a031681565b600081600160a060020a031683600160a060020a03161415611fee57506000611786565b611ff783611754565b801561136c57506120088383613f54565b8061136c575050600160a060020a039182166000908152600a6020908152604080832093909416825291909152205460ff1690565b600160a060020a0382166000908152600f60205260408120819081908190611e44906004018663ffffffff6145df16565b60008061207a83613e8a565b905061208584611754565b80156120b75750600160a060020a038416600090815260056020908152604080832084845260020190915290205460ff165b949350505050565b60405160e160020a6351750e53028152600090819073__SafeMathIntLib________________________9063a2ea1ca6906120fe9089906004016158c6565b60206040518083038186803b15801561211657600080fd5b505af415801561212a573d6000803e3d6000fd5b505050506040513d601f19601f8201168201806040525061214e91908101906153b8565b151561215957600080fd5b61216385846140c9565b915081600160a060020a031682600160a060020a031663ad502f576040518163ffffffff1660e060020a028152600401602060405180830381600087803b1580156121ad57600080fd5b505af11580156121c1573d6000803e3d6000fd5b505050506040513d601f19601f820116820180604052506121e591908101906153d6565b6040805160e060020a9283900463ffffffff81169093028152336004820152306024820152604481018a9052600160a060020a038916606482015260848101889052905160a48083019260009291908290030181865af492505050151561224b57600080fd5b8651151561227957604080518082019091526009815260ba60020a6819195c1bdcda5d195902602082015296505b866040516020018082805190602001908083835b602083106122ac5780518252601f19909201916020918201910161228d565b6001836020036101000a0380198251168184511680821785525050505050509050019150506040516020818303038152906040526040518082805190602001908083835b6020831061230f5780518252601f1990920191602091820191016122f0565b51815160209384036101000a6000190180199092169116179052604080519290940182900382208285018552600680845260d260020a651cdd1859d9590284840190815295519198508897509295500192839250908083835b602083106123875780518252601f199092019160209182019101612368565b6001836020036101000a0380198251168184511680821785525050505050509050019150506040516020818303038152906040526040518082805190602001908083835b602083106123ea5780518252601f1990920191602091820191016123cb565b6001836020036101000a038019825116818451168082178552505050505050905001915050604051809103902060001916141561245357600160a060020a0388166000908152600f6020526040902061244e9060010187878763ffffffff613c7b16565b6125cd565b604080518082018252600980825260ba60020a6819195c1bdcda5d19590260208084019182529351859401918291908083835b602083106124a55780518252601f199092019160209182019101612486565b6001836020036101000a0380198251168184511680821785525050505050509050019150506040516020818303038152906040526040518082805190602001908083835b602083106125085780518252601f1990920191602091820191016124e9565b6001836020036101000a038019825116818451168082178552505050505050905001915050604051809103902060001916141561113657600160a060020a0388166000908152600f602052604090206125699087878763ffffffff613c7b16565b600160a060020a0388166000908152600f602052604090206125969060040187878763ffffffff613cf316565b61244e6125a4898787613a63565b600160a060020a038a166000908152600f6020526040902060030190878763ffffffff613dc016565b600160a060020a0388166000908152600f602052604090819020905160e260020a630ea18e7f02815273__InUseCurrencyLib______________________91633a8639fc91612626916008019089908990600401615960565b60006040518083038186803b15801561263e57600080fd5b505af4158015612652573d6000803e3d6000fd5b50505050600080516020615a5083398151915288888888888860405161267d969594939291906157f5565b60405180910390a15050505050505050565b600160a060020a0383166000908152600f6020526040812061136990600401848463ffffffff61468416565b60006126c5613e33565b15156126d057600080fd5b81600160a060020a03811615156126e657600080fd5b6002548390600160a060020a0390811690821681146117215760028054600160a060020a03878116600160a060020a0319831617909255604051911694507f634f61bf00e14adedce330c80c2823e16e184f189ebe853e1ddecc4a268477ff9061171890869088906158f0565b600061275d6146b1565b1561276757600080fd5b82600160a060020a038116151561277d57600080fd5b600160a060020a03811630141561279357600080fd5b33600160a060020a03851614156127a957600080fd5b6127b283613e8a565b600160a060020a03851660009081526005602052604090205490925060ff1680156128035750600160a060020a038416600090815260056020908152604080832085845260020190915290205460ff165b151561280e57600080fd5b600160a060020a03841660009081526008602052604090205460ff161561283457600080fd5b600160a060020a0384166000818152600a6020908152604080832033808552908352818420805460ff19908116909155858552600b84528285208886528452828520828652845282852080549091166001179055938352600c82528083208684528252808320938352929052205460ff16151561290757600160a060020a0384166000818152600c60209081526040808320868452825280832033808552908352818420805460ff19166001908117909155948452600d8352818420908452825282208054938401815582529020018290555b7fc007803323f3ca89cb3f8af1a12f354dc108e9dd4988c312b3f7a878914987ce3385856040516111ea9392919061565e565b600960209081526000928352604080842090915290825290205460ff1681565b600c60209081526000938452604080852082529284528284209052825290205460ff1681565b60405160e160020a6351750e5302815273__SafeMathIntLib________________________9063a2ea1ca6906129ba9086906004016158c6565b60206040518083038186803b1580156129d257600080fd5b505af41580156129e6573d6000803e3d6000fd5b505050506040513d601f19601f82011682018060405250612a0a91908101906153b8565b1515612a1557600080fd5b336000908152600f6020526040902073__SafeMathIntLib________________________9063755875b2908590612a5690600101868663ffffffff613e4416565b6040518363ffffffff1660e060020a028152600401612a7692919061590b565b60206040518083038186803b158015612a8e57600080fd5b505af4158015612aa2573d6000803e3d6000fd5b505050506040513d601f19601f82011682018060405250612ac691908101906154bc565b9250821515612ad457612b66565b336000908152600f60205260409020612afa90600181019085858563ffffffff6146ce16565b612b28612b08338484613a63565b336000908152600f6020526040902060030190848463ffffffff613dc016565b7f013970fdfcc3b9ba3657604311c39270a2b090a94528cfdfd09abaddc6e8fb5233848484604051612b5d94939291906156f4565b60405180910390a15b505050565b600254600160a060020a031681565b600160a060020a0384166000908152600f602052604081208190611e839060040186868663ffffffff6146e616565b600160a060020a0381166000908152600f602052604081206117869060040161478c565b600160a060020a03166000908152600f60205260409020600c015490565b600a60209081526000928352604080842090915290825290205460ff1681565b612c13613e33565b1515612c1e57600080fd5b60068190556040517f4f1d324a1cbffc352fb64f1d73d95e4b200d92f99ef39bf2d7f5b41f946909d690611df99083906158c6565b60075460ff1681565b600b60209081526000938452604080852082529284528284209052825290205460ff1681565b6000612c8c6146b1565b15612c9657600080fd5b82600160a060020a0381161515612cac57600080fd5b600160a060020a038116301415612cc257600080fd5b33600160a060020a0385161415612cd857600080fd5b612ce183613e8a565b600160a060020a03851660009081526005602052604090205490925060ff168015612d325750600160a060020a038416600090815260056020908152604080832085845260020190915290205460ff165b1515612d3d57600080fd5b600160a060020a03841660009081526008602052604090205460ff1615612d6357600080fd5b600160a060020a0384166000908152600b60209081526040808320858452825280832033808552925291829020805460ff1916905590517f6fa0cdb0b5c22004ccfcaee11eed450e0184dda8edd417ae2410f0a883fdb740916111ea918790879061565e565b80600160a060020a0381161515612ddf57600080fd5b82612dea3382611fca565b1515612df557600080fd5b600160a060020a038085166000908152600f60205260409020600b0154161580612e3e5750600160a060020a038085166000908152600f60205260409020600b01548482169116145b1515612e4957600080fd5b600160a060020a038481166000908152600f60209081526040808320600b018054600160a060020a031916888616179055600254815160e160020a6314f51fd50281529151612f029591909116936329ea3faa93600480850194919392918390030190829087803b158015612ebd57600080fd5b505af1158015612ed1573d6000803e3d6000fd5b505050506040513d601f19601f82011682018060405250612ef591908101906154bc565b429063ffffffff61479016565b600160a060020a0385166000908152600f60205260409020600c0155612f278461479f565b7fd4bed4c6e09a69347ad90e500c85191091e4401c9873e0f2e18f49d3d31adaad84846040516111ea929190615643565b600160a060020a0383166000908152600f6020526040812061136990600201848463ffffffff613e4416565b612f8c613e33565b1515612f9757600080fd5b80600160a060020a0381161515612fad57600080fd5b600160a060020a038116301415612fc357600080fd5b612fcf8260065461481a565b7f7f3a8349917003ed377f6e9ae1608b92edd893903f8983bd274b1f8373dd3b11826006546040516112f892919061589d565b600160a060020a038381166000908152600f60205260408120600b01549091163314801561304a5750600160a060020a0384166000908152600f60205260409020600c015442105b151561305557600080fd5b61306084848461486c565b9050600081121561306d57fe5b6130788484846148f5565b336000908152600f6020526040902061309c9060010182858563ffffffff613c7b16565b336000908152600f602052604090819020905160e260020a630ea18e7f02815273__InUseCurrencyLib______________________91633a8639fc916130ec916008019087908790600401615960565b60006040518083038186803b15801561310457600080fd5b505af4158015613118573d6000803e3d6000fd5b505050506131258461497c565b7f55d784b1b9abf14e96e6629805038d43d2cafee929d94fb2fad2834b77a58e6384336040516111ea929190615643565b61315e611e04565b600160a060020a0316331461317257600080fd5b61317a611e04565b600160a060020a0316ff5b600061318f613e33565b151561319a57600080fd5b81600160a060020a03811615156131b057600080fd5b600160a060020a0381163014156131c657600080fd5b600054600160a060020a03848116911614612b665760008054600160a060020a03858116600160a060020a0319831617909255604051911692507f977e5fa58e458501775e0008d275006294c5249e3c08d1d0e3a9f3acad14f6e490612b5d9084908690615643565b600160a060020a0384166000908152600f602052604081208190611e839060030186868663ffffffff614a0416565b6000613268613e33565b1561327257600080fd5b81600160a060020a038116151561328857600080fd5b600160a060020a03811630141561329e57600080fd5b33600160a060020a03841614156132b457600080fd5b600160a060020a03831660009081526005602052604090205460ff1615156132db57600080fd5b600160a060020a03831660009081526008602052604090205460ff161561332f57600160a060020a03831660009081526009602090815260408083203384529091529020805460ff19166001179055613405565b600160a060020a0383166000908152600a602090815260408083203384529091528120805460ff1916905591505b600160a060020a0383166000908152600d6020908152604080832033845290915290205482101561340557600160a060020a0383166000908152600b60209081526040808320600d8352818420338552909252822080546001939190869081106133c357fe5b600091825260208083209190910154835282810193909352604091820181203382529092529020805460ff19169115159190911790556001919091019061335d565b7fe25d4094f2181ddef4410dcc1539a7488abd881a90c56078314b9f70affc5f7e3384604051612b5d929190615643565b600e54600160a060020a031681565b6000846134523382611fca565b151561345d57600080fd5b85600160a060020a038116151561347357600080fd5b60405160e060020a636b84d93102815273__SafeMathIntLib________________________90636b84d931906134ad9089906004016158c6565b60206040518083038186803b1580156134c557600080fd5b505af41580156134d9573d6000803e3d6000fd5b505050506040513d601f19601f820116820180604052506134fd91908101906153b8565b151561350857600080fd5b600160a060020a0387166000908152600f602052604090206135429061353590878763ffffffff613e4416565b879063ffffffff614ad816565b600160a060020a0388166000908152600f602052604090209093506135729060020184878763ffffffff614b1416565b7f6ded3dfe9bc210e5b60b695bac6bd623844003b866c14264d44e91b8352a4fad878787876040516135a794939291906156f4565b60405180910390a150505050505050565b60006135c2614b56565b15156135cd57600080fd5b81600160a060020a03811615156135e357600080fd5b600160a060020a0381163014156135f957600080fd5b600154600160a060020a03848116911614612b665760018054600160a060020a03858116600160a060020a0319831617909255604051911692507f9f611b789425d0d5b90b920f1b2852907dd865c80074a30b1629aaa041d1812c90612b5d9084908690615643565b601280548290811061367057fe5b600091825260209091200154600160a060020a0316905081565b601080548290811061367057fe5b6117213386868686866120bf565b604080518082019091526007815260ca60020a661cd95d1d1b195902602082015281565b600160a060020a031660009081526013602052604090205460ff1690565b836136f33382611fca565b15156136fe57600080fd5b60405160e160020a6351750e5302815273__SafeMathIntLib________________________9063a2ea1ca6906137389087906004016158c6565b60206040518083038186803b15801561375057600080fd5b505af4158015613764573d6000803e3d6000fd5b505050506040513d601f19601f8201168201806040525061378891908101906153b8565b151561379357600080fd5b61379f85858585614b67565b6137d66137ad868585613a63565b600160a060020a0387166000908152600f6020526040902060030190858563ffffffff613dc016565b600160a060020a0385166000908152600f602052604090206138039060010185858563ffffffff613c7b16565b7f573abd56f40c687bfaaabb8d68c68c84cc343b51fe661ff2080e2a6977b3c2b48585858560405161171894939291906156f4565b6000613842613e33565b151561384d57600080fd5b81600160a060020a038116151561386357600080fd5b600160a060020a038316600090815260046020526040812054111561388b5760009150613921565b600380546001810182557fc2575a0e9e593c00f959f8c92f12db2869c3395a3b0502d05e2516446f71f85b018054600160a060020a031916600160a060020a03861690811790915590546000918252600460205260409182902055517fdd62ff6d9c23793871e7d4796bde6c5dfb2bf8bcbd4186411cee3eb9f618952190613914908590615635565b60405180910390a1600191505b50919050565b6000613931613e33565b151561393c57600080fd5b81600160a060020a038116151561395257600080fd5b600e548390600160a060020a03908116908216811461172157600e8054600160a060020a03878116600160a060020a0319831617909255604051911694507fee9ef6d53e152e48b1ebc1c23943fb2b96e847465ed779a0e2121a388ea83d2f9061171890869088906158f0565b600054600160a060020a031681565b600160a060020a039081166000908152600f60205260409020600b01541690565b60136020526000908152604090205460ff1681565b613a0c613e33565b1515613a1757600080fd5b6007805460ff19166001179055565b600d60205282600052604060002060205281600052604060002081815481101515613a4d57fe5b9060005260206000200160009250925050505481565b600160a060020a0383166000908152600f6020526040812061136990613a9390600101858563ffffffff613e4416565b600160a060020a0386166000908152600f60205260409020613abc90868663ffffffff613e4416565b9063ffffffff614d4716565b60105490565b85613ad93382611fca565b1515613ae457600080fd5b613af087868686614b67565b613b27613afe888686613a63565b600160a060020a0389166000908152600f6020526040902060030190868663ffffffff613dc016565b613b3587878787878761416c565b7f4c50864967876f6fcf5151a5e907d94d9c7b3d7780ca1c7f576680a2126ba39b8787878787876040516135a796959493929190615694565b600081613b7b3382611fca565b1515613b8657600080fd5b336000908152600f60205260409020600b0154600160a060020a03169150613bad836143fb565b7f5e0e042111ea62a16168b59a2b1586f9e350deeb7d3428a3c8093e104ae56d7b3383604051612b5d929190615643565b600160a060020a0381166000908152600f6020526040812061178690600401614d7c565b613c0a613e33565b1515613c1557600080fd5b80600160a060020a0381161515613c2b57600080fd5b600160a060020a038116301415613c4157600080fd5b613c4c82600061481a565b7fb619d545cb511bd5f02907a1eac4f4cb8dace7b1846852fb0bf5e553937481c1826040516112f89190615635565b600160a060020a0382161515613c96578015613c9657600080fd5b600160a060020a038216600090815260208581526040808320848452909152902054613cc8908463ffffffff614d8316565b600160a060020a03909216600090815260209485526040808220928252919094529092209190915550565b613cfb614f88565b5060408051608081018252938452436020808601918252600160a060020a0394851686840181815260608801868152895460018181018c5560008c81528681208c516004948502909101908155885181840155855160028083018054928f16600160a060020a031993841617905586516003938401559783529d830188528982209a8252998752978820805480830182559089529590972099519402909801928355925193820193909355905191810180549290941691909516179091559051910155565b600160a060020a0382161515613ddb578015613ddb57600080fd5b600160a060020a03909116600090815260209384526040808220928252918452818120825180840190935292825243828501908152835460018181018655948352949091209151600290940290910192835551910155565b600054600160a060020a0316331490565b6000600160a060020a0383161515613e61578115613e6157600080fd5b50600160a060020a03919091166000908152602092835260408082209282529190925290205490565b6000816040516020018082805190602001908083835b60208310613ebf5780518252601f199092019160209182019101613ea0565b6001836020036101000a0380198251168184511680821785525050505050509050019150506040516020818303038152906040526040518082805190602001908083835b60208310613f225780518252601f199092019160209182019101613f03565b5181516020939093036101000a6000190180199091169216919091179052604051920182900390912095945050505050565b600160a060020a03821660009081526008602052604081205460ff16613f7b57600061136c565b50600160a060020a03918216600090815260096020908152604080832093909416825291909152205460ff161590565b600160a060020a0382161515613fc6578015613fc657600080fd5b600160a060020a038216600090815260208581526040808320848452909152902054613cc8908463ffffffff614db416565b614000614f88565b5060408051608081018252938452436020808601918252600160a060020a03948516868401818152606088018681526002808b0180546001818101835560009283528783208d51600493840290910190815589518183015586518186018054918f16600160a060020a031992831617905586516003928301559784529d8e0188528983209a83529987529781208054808b018255908252959020995194909602909801928355925194820194909455905191810180549290941691909216179091559051910155565b600e54600090600160a060020a031615156140e357600080fd5b600e54604051600160e860020a61e3490203198152600160a060020a039091169063ff1cb7009061411a908690869060040161577b565b602060405180830381600087803b15801561413457600080fd5b505af1158015614148573d6000803e3d6000fd5b505050506040513d601f19601f8201168201806040525061136c919081019061549e565b60405160e160020a6351750e5302815260009073__SafeMathIntLib________________________9063a2ea1ca6906141a99088906004016158c6565b60206040518083038186803b1580156141c157600080fd5b505af41580156141d5573d6000803e3d6000fd5b505050506040513d601f19601f820116820180604052506141f991908101906153b8565b151561420457600080fd5b61420d86611304565b151561421857600080fd5b600160a060020a03841615801561422d575082155b1561429a5760405160e060020a63a7654a1f028152600160a060020a0387169063a7654a1f908790614263908b90600401615824565b6000604051808303818588803b15801561427c57600080fd5b505af1158015614290573d6000803e3d6000fd5b50505050506143f2565b6142a484836140c9565b905080600160a060020a031681600160a060020a0316631711a8946040518163ffffffff1660e060020a028152600401602060405180830381600087803b1580156142ee57600080fd5b505af1158015614302573d6000803e3d6000fd5b505050506040513d601f19601f8201168201806040525061432691908101906153d6565b6040805160e060020a9283900463ffffffff81169093028152600160a060020a038a81166004830152602482018a90528816604482015260648101879052905160848083019260009291908290030181865af492505050151561438857600080fd5b60405160e060020a635f289651028152600160a060020a03871690635f289651906143bf908a908990899089908990600401615843565b600060405180830381600087803b1580156143d957600080fd5b505af11580156143ed573d6000803e3d6000fd5b505050505b50505050505050565b600160a060020a0381166000908152600f60205260408120600b81018054600160a060020a0319169055600c015561443281614ddb565b50565b8154600090819081908190851061444b57600080fd5b855486908690811061445957fe5b9060005260206000209060040201600001549350856000018581548110151561447e57fe5b906000526020600020906004020160010154925085600001858154811015156144a357fe5b60009182526020909120600260049092020101548654600160a060020a0390911692508690869081106144d257fe5b906000526020600020906004020160030154905092959194509250565b600160a060020a038316600090815260038501602090815260408083208584529091528120548190831061452257600080fd5b600160a060020a03851660009081526003870160209081526040808320878452909152902080548490811061455357fe5b60009182526020808320600490920290910154600160a060020a0388168352600389018252604080842088855290925291208054919350908490811061459557fe5b906000526020600020906004020160010154905094509492505050565b600160a060020a038216600090815260038401602090815260408083208484529091529020549392505050565b600282015460009081908190819085106145f857600080fd5b6002860180548690811061460857fe5b9060005260206000209060040201600001549350856002018581548110151561462d57fe5b9060005260206000209060040201600101549250856002018581548110151561465257fe5b6000918252602090912060026004909202018101549087018054600160a060020a03909216935090869081106144d257fe5b600160a060020a038216600090815260018401602090815260408083208484529091529020549392505050565b60006146bb613e33565b806146c957506146c9614b56565b905090565b6146da85848484613fab565b61172184848484613c7b565b600160a060020a038316600090815260018501602090815260408083208584529091528120548190831061471957600080fd5b600160a060020a03851660009081526001870160209081526040808320878452909152902080548490811061474a57fe5b60009182526020808320600490920290910154600160a060020a0388168352600189018252604080842088855290925291208054919350908490811061459557fe5b5490565b60008282018381101561136c57fe5b600160a060020a038116600090815260116020526040902054151561443257601080546001810182557f1b6847dc741a1b0cd08d278845f9d819d87b734759afb55fe2de5cb82a9ae672018054600160a060020a031916600160a060020a039390931692831790555460009182526011602052604090912055565b600160a060020a03821660009081526005602052604090205460ff16151561486857600160a060020a0382166000908152600560205260409020805460ff1916600190811782554283019101555b5050565b600160a060020a0383166000908152600f602052604081206113699061489c90600101858563ffffffff613e4416565b600160a060020a0386166000908152600f60205260409020613abc906148cc90600201878763ffffffff613e4416565b600160a060020a0388166000908152600f60205260409020613abc90888863ffffffff613e4416565b600160a060020a0383166000908152600f6020526040812061491e91848463ffffffff614b1416565b600160a060020a0383166000908152600f6020526040812061494d91600290910190848463ffffffff614b1416565b600160a060020a0383166000908152600f60205260408120612b6691600190910190848463ffffffff614b1416565b600160a060020a03811660009081526013602052604090205460ff16151561443257600160a060020a03166000818152601360205260408120805460ff191660019081179091556012805491820181559091527fbb8a6a4669ba250d26cd7a459eca9d215f8307e33aebe50379bc5a3617ec3444018054600160a060020a0319169091179055565b600080600160a060020a0385161515614a22578315614a2257600080fd5b600160a060020a0385166000908152602087815260408083208784529091529020548310614a4f57600080fd5b600160a060020a0385166000908152602087815260408083208784529091529020805484908110614a7c57fe5b60009182526020808320600290920290910154600160a060020a03881683528882526040808420888552909252912080549193509084908110614abb57fe5b906000526020600020906002020160010154905094509492505050565b6000808212158015614aec57508282840313155b80614b035750600082128015614b03575082828403135b1515614b0e57600080fd5b50900390565b600160a060020a0382161515614b2f578015614b2f57600080fd5b600160a060020a039091166000908152602093845260408082209282529190935290912055565b600154600160a060020a0316331490565b73__SafeMathIntLib________________________63755875b284614b8d878686613a63565b6040518363ffffffff1660e060020a028152600401614bad92919061590b565b60206040518083038186803b158015614bc557600080fd5b505af4158015614bd9573d6000803e3d6000fd5b505050506040513d601f19601f82011682018060405250614bfd91908101906154bc565b925060008313614c0c57614d41565b600160a060020a0384166000908152600f60205260409020614cae908490614c3e90600201858563ffffffff613e4416565b13614c8557600160a060020a0385166000908152600f60205260409020614c8090614c7390600201858563ffffffff613e4416565b859063ffffffff614ad816565b614c88565b60005b600160a060020a0386166000908152600f6020526040902090848463ffffffff613fab16565b600160a060020a0384166000908152600f60205260409020614d41908490614ce090600201858563ffffffff613e4416565b13614d1657600160a060020a0385166000908152600f60205260409020614d1190600201848463ffffffff613e4416565b614d18565b835b600160a060020a0386166000908152600f6020526040902060020190848463ffffffff614f1716565b50505050565b6000828201818312801590614d5c5750838112155b80614d715750600083128015614d7157508381125b151561136c57600080fd5b6002015490565b60008060008412158015614d98575060008312155b1515614da357600080fd5b508282018381121561136c57600080fd5b6000808312158015614dc7575060008212155b8015614b03575082821315614b0e57600080fd5b600160a060020a0381166000908152601160205260409020541561443257601054600160a060020a0382166000908152601160205260409020541015614ee957600160a060020a0381166000908152601160208190526040822054601080549193916000198101908110614e4b57fe5b6000918252602080832090910154600160a060020a03168352820192909252604001902055601080546000198101908110614e8257fe5b6000918252602080832090910154600160a060020a0384811684526011909252604090922054601080549290931692918110614eba57fe5b9060005260206000200160006101000a815481600160a060020a030219169083600160a060020a031602179055505b6010805490614efc906000198301614f64565b50600160a060020a0316600090815260116020526040812055565b600160a060020a0382161515614f32578015614f3257600080fd5b600160a060020a038216600090815260208581526040808320848452909152902054613cc8908463ffffffff614ad816565b815481835581811115612b6657600083815260209020612b66918101908301614fba565b60806040519081016040528060008152602001600081526020016000600160a060020a03168152602001600081525090565b6119a491905b80821115614fd45760008155600101614fc0565b5090565b600061136c82356159d9565b600061136c82516159e5565b600061136c82356119a4565b600061136c82516159ea565b600061136c82356159f7565b600061136c82516159f7565b600061136c82516119a4565b6000601f8201831361503d57600080fd5b813561505061504b826159ae565b615988565b9150808252602083016020830185838301111561506c57600080fd5b615077838284615a0d565b50505092915050565b60006020828403121561509257600080fd5b60006120b78484614fd8565b600080604083850312156150b157600080fd5b60006150bd8585614fd8565b92505060206150ce85828601614fd8565b9150509250929050565b6000806000606084860312156150ed57600080fd5b60006150f98686614fd8565b935050602061510a86828701614fd8565b925050604061511b86828701614ff0565b9150509250925092565b6000806000806080858703121561513b57600080fd5b60006151478787614fd8565b945050602061515887828801614fd8565b935050604061516987828801614ff0565b925050606061517a87828801614ff0565b91505092959194509250565b60008060006060848603121561519b57600080fd5b60006151a78686614fd8565b93505060206151b886828701614ff0565b925050604061511b86828701614fd8565b60008060008060008060c087890312156151e257600080fd5b60006151ee8989614fd8565b96505060206151ff89828a01615008565b955050604061521089828a01614ff0565b945050606061522189828a01614fd8565b935050608061523289828a01614ff0565b92505060a08701356001604060020a0381111561524e57600080fd5b61525a89828a0161502c565b9150509295509295509295565b6000806000806080858703121561527d57600080fd5b60006152898787614fd8565b945050602061529a87828801614ff0565b935050604061516987828801614fd8565b600080604083850312156152be57600080fd5b60006152ca8585614fd8565b92505060208301356001604060020a038111156152e657600080fd5b6150ce8582860161502c565b60008060006060848603121561530757600080fd5b60006153138686614fd8565b93505060208401356001604060020a0381111561532f57600080fd5b6151b88682870161502c565b60008060008060008060c0878903121561535457600080fd5b60006153608989614fd8565b96505060208701356001604060020a0381111561537c57600080fd5b6151ff89828a0161502c565b6000806040838503121561539b57600080fd5b60006153a78585614fd8565b92505060206150ce85828601614ff0565b6000602082840312156153ca57600080fd5b60006120b78484614fe4565b6000602082840312156153e857600080fd5b60006120b78484614ffc565b600080600080600060a0868803121561540c57600080fd5b60006154188888615008565b955050602061542988828901614ff0565b945050604061543a88828901614fd8565b935050606061544b88828901614ff0565b92505060808601356001604060020a0381111561546757600080fd5b6154738882890161502c565b9150509295509295909350565b60006020828403121561549257600080fd5b60006120b78484615008565b6000602082840312156154b057600080fd5b60006120b78484615014565b6000602082840312156154ce57600080fd5b60006120b78484615020565b6000806000606084860312156154ef57600080fd5b60006150f98686614ff0565b6000806000806080858703121561551157600080fd5b600061551d8787614ff0565b945050602061552e87828801614fd8565b935050604061553f87828801614ff0565b92505060608501356001604060020a0381111561555b57600080fd5b61517a8782880161502c565b600080600080600060a0868803121561557f57600080fd5b85356001604060020a0381111561559557600080fd5b6154188882890161502c565b6000602082840312156155b357600080fd5b60006120b78484614ff0565b6155c8816159d9565b82525050565b6155c8816159e5565b6155c8816119a4565b6155c8816159f7565b6155c881615a02565b60006155fd826159d5565b808452615611816020860160208601615a19565b61561a81615a45565b9093016020019392505050565b6000815260200190565b9052565b6020810161178682846155bf565b6040810161565182856155bf565b61136c60208301846155bf565b6060810161566c82866155bf565b61567960208301856155bf565b818103604083015261568b81846155f2565b95945050505050565b60c081016156a282896155bf565b6156af60208301886155e0565b6156bc60408301876155d7565b6156c960608301866155bf565b6156d660808301856155d7565b81810360a08301526156e881846155f2565b98975050505050505050565b6080810161570282876155bf565b61570f60208301866155d7565b61571c60408301856155bf565b61568b60608301846155d7565b60a0810161573782886155bf565b61574460208301876155d7565b61575160408301866155bf565b61575e60608301856155d7565b818103608083015261577081846155f2565b979650505050505050565b6040810161578982856155bf565b818103602083015261136981846155f2565b60c081016157a982886155bf565b81810360208301526157bb81876155f2565b90506157ca60408301866155d7565b6157d760608301856155bf565b6157e460808301846155e9565b81810360a083015261577081615627565b60c0810161580382896155bf565b818103602083015261581581886155f2565b90506156bc60408301876155d7565b6040810161583282846155bf565b818103602083015261136c81615627565b60c0810161585182886155bf565b818103602083015261586281615627565b905061587160408301876155d7565b61587e60608301866155bf565b61588b60808301856155d7565b81810360a083015261577081846155f2565b604081016158ab82856155bf565b61136c60208301846155d7565b6020810161178682846155ce565b6020810161178682846155d7565b6080810161570282876155e0565b6020810161178682846155e0565b604081016158fe82856155e0565b61136c60208301846155e0565b604081016158ab82856155d7565b6080810161570282876155d7565b6020808252810161136c81846155f2565b606081016159468286615631565b61595360208301856155bf565b6120b760408301846155e9565b6060810161596e8286615631565b61597b60208301856155bf565b6120b760408301846155d7565b6040518181016001604060020a03811182821017156159a657600080fd5b604052919050565b60006001604060020a038211156159c457600080fd5b506020601f91909101601f19160190565b5190565b600160a060020a031690565b151590565b600160e060020a03191690565b6000611786826159d9565b6000611786826119a4565b82818337506000910152565b60005b83811015615a34578181015183820152602001615a1c565b83811115614d415750506000910152565b601f01601f1916905600b1054d4e81cc81e966ba33c7ce386432dcf8d4d78798e7a1f7f0b4aaef360330a265627a7a723058201a50c3ff9e68d000e23286593a9db8c93fdef36dc18bfda54f6acec1599d67d76c6578706572696d656e74616cf50037",
  "source": "/*\n * Hubii Nahmii\n *\n * Compliant with the Hubii Nahmii specification v0.12.\n *\n * Copyright (C) 2017-2018 Hubii AS\n */\n\npragma solidity ^0.4.24;\npragma experimental ABIEncoderV2;\n\nimport {Ownable} from \"./Ownable.sol\";\nimport {Configurable} from \"./Configurable.sol\";\nimport {Beneficiary} from \"./Beneficiary.sol\";\nimport {Benefactor} from \"./Benefactor.sol\";\nimport {AuthorizableServable} from \"./AuthorizableServable.sol\";\nimport {TransferControllerManageable} from \"./TransferControllerManageable.sol\";\nimport {TransferController} from \"./TransferController.sol\";\nimport {BalanceLib} from \"./BalanceLib.sol\";\nimport {BalanceLogLib} from \"./BalanceLogLib.sol\";\nimport {TxHistoryLib} from \"./TxHistoryLib.sol\";\nimport {InUseCurrencyLib} from \"./InUseCurrencyLib.sol\";\nimport {SafeMathIntLib} from \"./SafeMathIntLib.sol\";\nimport {SafeMathUintLib} from \"./SafeMathUintLib.sol\";\nimport {MonetaryTypesLib} from \"./MonetaryTypesLib.sol\";\n\n/**\n@title Client fund\n@notice Where clients crypto is deposited into, staged and withdrawn from.\n*/\ncontract ClientFund is Ownable, Configurable, Beneficiary, Benefactor, AuthorizableServable, TransferControllerManageable {\n    using BalanceLib for BalanceLib.Balance;\n    using BalanceLogLib for BalanceLogLib.BalanceLog;\n    using TxHistoryLib for TxHistoryLib.TxHistory;\n    using InUseCurrencyLib for InUseCurrencyLib.InUseCurrency;\n    using SafeMathIntLib for int256;\n    using SafeMathUintLib for uint256;\n\n    //\n    // Constants\n    // -----------------------------------------------------------------------------------------------------------------\n    string constant public DEPOSITED_BALANCE_TYPE = \"deposited\";\n    string constant public SETTLED_BALANCE_TYPE = \"settled\";\n    string constant public STAGED_BALANCE_TYPE = \"staged\";\n\n    //\n    // Structures\n    // -----------------------------------------------------------------------------------------------------------------\n    struct Wallet {\n        BalanceLib.Balance deposited;\n        BalanceLib.Balance staged;\n        BalanceLib.Balance settled;\n        BalanceLogLib.BalanceLog active;\n\n        TxHistoryLib.TxHistory txHistory;\n\n        InUseCurrencyLib.InUseCurrency inUseCurrencies;\n\n        address locker;\n        uint256 unlockTime;\n    }\n\n    //\n    // Variables\n    // -----------------------------------------------------------------------------------------------------------------\n    mapping(address => Wallet) private walletMap;\n\n    address[] public lockedWallets;\n    mapping(address => uint256) public lockedWalletIndexByWallet;\n\n    address[] public seizedWallets;\n    mapping(address => bool) public seizedByWallet;\n\n    //\n    // Events\n    // -----------------------------------------------------------------------------------------------------------------\n    event ReceiveEvent(address wallet, string balanceType, int256 amount, address currencyCt, uint256 currencyId,\n        string standard);\n    event WithdrawEvent(address wallet, int256 amount, address currencyCt, uint256 currencyId, string standard);\n    event StageEvent(address wallet, int256 amount, address currencyCt, uint256 currencyId);\n    event UnstageEvent(address wallet, int256 amount, address currencyCt, uint256 currencyId);\n    event UpdateSettledBalanceEvent(address wallet, int256 amount, address currencyCt, uint256 currencyId);\n    event StageToBeneficiaryEvent(address sourceWallet, address beneficiary, int256 amount, address currencyCt,\n        uint256 currencyId, string standard);\n    event TransferToBeneficiaryEvent(address beneficiary, int256 amount, address currencyCt, uint256 currencyId);\n    event LockBalancesEvent(address lockedWallet, address lockerWallet);\n    event UnlockBalancesEvent(address lockedWallet, address lockerWallet);\n    event UnlockBalancesByProxyEvent(address lockedWallet, address lockerWallet);\n    event SeizeBalancesEvent(address lockedWallet, address lockerWallet);\n\n    //\n    // Constructor\n    // -----------------------------------------------------------------------------------------------------------------\n    constructor(address deployer) Ownable(deployer) Beneficiary() Benefactor()\n    public\n    {\n        serviceActivationTimeout = 1 weeks;\n    }\n\n    //\n    // Functions\n    // -----------------------------------------------------------------------------------------------------------------\n    /// @notice Fallback function that deposits ethers to msg.sender's deposited balance\n    function()\n    public\n    payable\n    {\n        receiveEthersTo(msg.sender, DEPOSITED_BALANCE_TYPE);\n    }\n\n    /// @notice Deposit ethers to the given wallet's deposited balance\n    /// @param wallet The address of the concerned wallet\n    /// @param balanceType The target balance ty\n    function receiveEthersTo(address wallet, string balanceType)\n    public\n    payable\n    {\n        int256 amount = SafeMathIntLib.toNonZeroInt256(msg.value);\n\n        if (0 == bytes(balanceType).length)\n            balanceType = DEPOSITED_BALANCE_TYPE;\n\n        bytes32 balanceHash = keccak256(abi.encodePacked(balanceType));\n\n        if (keccak256(abi.encodePacked(STAGED_BALANCE_TYPE)) == balanceHash)\n            walletMap[wallet].staged.add(amount, address(0), 0);\n\n        else if (keccak256(abi.encodePacked(DEPOSITED_BALANCE_TYPE)) == balanceHash) {\n            // Add to per-wallet deposited balance\n            walletMap[wallet].deposited.add(amount, address(0), 0);\n            walletMap[wallet].txHistory.addDeposit(amount, address(0), 0);\n\n            // Add active balance log entry\n            walletMap[wallet].active.add(activeBalance(wallet, address(0), 0), address(0), 0);\n\n        } else\n            revert();\n\n        // Add currency to in-use list\n        walletMap[wallet].inUseCurrencies.addItem(address(0), 0);\n\n        // Emit event\n        emit ReceiveEvent(wallet, balanceType, amount, address(0), 0, \"\");\n    }\n\n    /// @notice Receive token to msg.sender's given balance\n    /// @dev The wallet must approve of this ClientFund's transfer prior to calling this function\n    /// @param balanceType The target balance type\n    /// @param amount The amount to deposit\n    /// @param currencyCt The address of the concerned currency contract (address(0) == ETH)\n    /// @param currencyId The ID of the concerned currency (0 for ETH and ERC20)\n    /// @param standard The standard of token (\"ERC20\", \"ERC721\")\n    function receiveTokens(string balanceType, int256 amount, address currencyCt,\n        uint256 currencyId, string standard)\n    public\n    {\n        receiveTokensTo(msg.sender, balanceType, amount, currencyCt, currencyId, standard);\n    }\n\n    /// @notice Receive token to the given wallet's given balance\n    /// @dev The wallet must approve of this ClientFund's transfer prior to calling this function\n    /// @param wallet The address of the concerned wallet\n    /// @param balanceType The target balance type\n    /// @param amount The amount to deposit\n    /// @param currencyCt The address of the concerned currency contract (address(0) == ETH)\n    /// @param currencyId The ID of the concerned currency (0 for ETH and ERC20)\n    /// @param standard The standard of the token (\"ERC20\", \"ERC721\")\n    function receiveTokensTo(address wallet, string balanceType, int256 amount, address currencyCt,\n        uint256 currencyId, string standard)\n    public\n    {\n        require(amount.isNonZeroPositiveInt256());\n\n        // Execute transfer\n        TransferController controller = getTransferController(currencyCt, standard);\n        require(address(controller).delegatecall(controller.getReceiveSignature(), msg.sender, this, uint256(amount), currencyCt, currencyId));\n\n        if (0 == bytes(balanceType).length)\n            balanceType = DEPOSITED_BALANCE_TYPE;\n\n        bytes32 balanceHash = keccak256(abi.encodePacked(balanceType));\n\n        if (keccak256(abi.encodePacked(STAGED_BALANCE_TYPE)) == balanceHash)\n            walletMap[wallet].staged.add(amount, currencyCt, currencyId);\n\n        else if (keccak256(abi.encodePacked(DEPOSITED_BALANCE_TYPE)) == balanceHash) {\n            // Add to per-wallet deposited balance\n            walletMap[wallet].deposited.add(amount, currencyCt, currencyId);\n            walletMap[wallet].txHistory.addDeposit(amount, currencyCt, currencyId);\n\n            // Add active balance log entry\n            walletMap[wallet].active.add(activeBalance(wallet, currencyCt, currencyId), currencyCt, currencyId);\n\n        } else\n            revert();\n\n        // Add currency to in-use list\n        walletMap[wallet].inUseCurrencies.addItem(currencyCt, currencyId);\n\n        // Emit event\n        emit ReceiveEvent(wallet, balanceType, amount, currencyCt, currencyId, standard);\n    }\n\n    /// @notice Get metadata of the given wallet's deposit at the given index\n    /// @param wallet The address of the concerned wallet\n    /// @param index The index of wallet's deposit\n    /// @return The deposit metadata\n    function deposit(address wallet, uint256 index)\n    public\n    view\n    returns (int256 amount, uint256 blockNumber, address currencyCt, uint256 currencyId)\n    {\n        return walletMap[wallet].txHistory.deposit(index);\n    }\n\n    /// @notice Get the count of the given wallet's deposits\n    /// @param wallet The address of the concerned wallet\n    /// @return The count of the concerned wallet's deposits\n    function depositsCount(address wallet) public view returns (uint256) {\n        return walletMap[wallet].txHistory.depositsCount();\n    }\n\n    /// @notice Get metadata of the given wallet's deposit in the given currency at the given index\n    /// @param wallet The address of the concerned wallet\n    /// @param currencyCt The address of the concerned currency contract (address(0) == ETH)\n    /// @param currencyId The ID of the concerned currency (0 for ETH and ERC20)\n    /// @param index The index of wallet's deposit in the given currency\n    /// @return The deposit metadata\n    function depositOfCurrency(address wallet, address currencyCt, uint256 currencyId, uint256 index)\n    public\n    view\n    returns (int256 amount, uint256 blockNumber)\n    {\n        return walletMap[wallet].txHistory.currencyDeposit(currencyCt, currencyId, index);\n    }\n\n    /// @notice Get the count of the given wallet's deposits in the given currency\n    /// @param wallet The address of the concerned wallet\n    /// @param currencyCt The address of the concerned currency contract (address(0) == ETH)\n    /// @param currencyId The ID of the concerned currency (0 for ETH and ERC20)\n    /// @return The count of the concerned wallet's deposits in the given currency\n    function depositsOfCurrencyCount(address wallet, address currencyCt, uint256 currencyId)\n    public\n    view\n    returns (uint256)\n    {\n        return walletMap[wallet].txHistory.currencyDepositsCount(currencyCt, currencyId);\n    }\n\n    /// @notice Get deposited balance of the given wallet and currency\n    /// @param wallet The address of the concerned wallet\n    /// @param currencyCt The address of the concerned currency contract (address(0) == ETH)\n    /// @param currencyId The ID of the concerned currency (0 for ETH and ERC20)\n    /// @return The deposited balance of the concerned wallet and currency\n    function depositedBalance(address wallet, address currencyCt, uint256 currencyId)\n    public\n    view\n    returns (int256)\n    {\n        return walletMap[wallet].deposited.get(currencyCt, currencyId);\n    }\n\n    /// @notice Get settled balance of the given wallet and currency\n    /// @param wallet The address of the concerned wallet\n    /// @param currencyCt The address of the concerned currency contract (address(0) == ETH)\n    /// @param currencyId The ID of the concerned currency (0 for ETH and ERC20)\n    /// @return The settled balance of the concerned wallet and currency\n    function settledBalance(address wallet, address currencyCt, uint256 currencyId)\n    public\n    view\n    returns (int256)\n    {\n        return walletMap[wallet].settled.get(currencyCt, currencyId);\n    }\n\n    /// @notice Get staged balance of the given wallet and currency\n    /// @param wallet The address of the concerned wallet\n    /// @param currencyCt The address of the concerned currency contract (address(0) == ETH)\n    /// @param currencyId The ID of the concerned currency (0 for ETH and ERC20)\n    /// @return The staged balance of the concerned wallet and currency\n    function stagedBalance(address wallet, address currencyCt, uint256 currencyId)\n    public\n    view\n    returns (int256)\n    {\n        return walletMap[wallet].staged.get(currencyCt, currencyId);\n    }\n\n    /// @notice Get active balance (sum of deposited and settled balances) of the given wallet and currency\n    /// @param wallet The address of the concerned wallet\n    /// @param currencyCt The address of the concerned currency contract (address(0) == ETH)\n    /// @param currencyId The ID of the concerned currency (0 for ETH and ERC20)\n    /// @return The active balance of the concerned wallet and currency\n    function activeBalance(address wallet, address currencyCt, uint256 currencyId)\n    public\n    view\n    returns (int256)\n    {\n        return walletMap[wallet].deposited.get(currencyCt, currencyId)\n        .add(walletMap[wallet].staged.get(currencyCt, currencyId));\n    }\n\n    /// @notice Get active balance log entry of the given wallet and currency at the given index\n    /// @param wallet The address of the concerned wallet\n    /// @param currencyCt The address of the concerned currency contract (address(0) == ETH)\n    /// @param currencyId The ID of the concerned currency (0 for ETH and ERC20)\n    /// @param index The index of wallet's active balance log entry in the given currency\n    /// @return The active balance log entry of the concerned wallet and currency\n    function activeBalanceLogEntry(address wallet, address currencyCt, uint256 currencyId, uint256 index)\n    public\n    view\n    returns (int256 amount, uint256 blockNumber)\n    {\n        return walletMap[wallet].active.get(currencyCt, currencyId, index);\n    }\n\n    /// @notice Get the count of entries of the given wallet's active balance log in the given currency\n    /// @param wallet The address of the concerned wallet\n    /// @param currencyCt The address of the concerned currency contract (address(0) == ETH)\n    /// @param currencyId The ID of the concerned currency (0 for ETH and ERC20)\n    /// @return The count of the concerned wallet's active balance log entries in the given currency\n    function activeBalanceLogEntriesCount(address wallet, address currencyCt, uint256 currencyId)\n    public\n    view\n    returns (uint256)\n    {\n        return walletMap[wallet].active.count(currencyCt, currencyId);\n    }\n\n    /// @notice Update the settled balance by the difference between provided amount and deposited on-chain balance\n    /// @param wallet The address of the concerned wallet\n    /// @param amount The off-chain balance amount\n    /// @param currencyCt The address of the concerned currency contract (address(0) == ETH)\n    /// @param currencyId The ID of the concerned currency (0 for ETH and ERC20)\n    function updateSettledBalance(address wallet, int256 amount, address currencyCt, uint256 currencyId)\n    public\n    onlyAuthorizedService(wallet)\n    notNullAddress(wallet)\n    {\n        require(amount.isPositiveInt256());\n\n        int256 settledBalanceAmount = amount.sub(walletMap[wallet].deposited.get(currencyCt, currencyId));\n        walletMap[wallet].settled.set(settledBalanceAmount, currencyCt, currencyId);\n\n        // Emit event\n        emit UpdateSettledBalanceEvent(wallet, amount, currencyCt, currencyId);\n    }\n\n    /// @notice Stage the amount for subsequent withdrawal\n    /// @param wallet The address of the concerned wallet\n    /// @param amount The concerned amount\n    /// @param currencyCt The address of the concerned currency contract (address(0) == ETH)\n    /// @param currencyId The ID of the concerned currency (0 for ETH and ERC20)\n    function stage(address wallet, int256 amount, address currencyCt, uint256 currencyId)\n    public\n    onlyAuthorizedService(wallet)\n    {\n        require(amount.isNonZeroPositiveInt256());\n\n        // Subtract stage amount from settled, possibly also from deposited\n        stageSubtract(wallet, amount, currencyCt, currencyId);\n\n        // Add active balance log entry\n        walletMap[wallet].active.add(activeBalance(wallet, currencyCt, currencyId), currencyCt, currencyId);\n\n        // Add to staged\n        walletMap[wallet].staged.add(amount, currencyCt, currencyId);\n\n        // Emit event\n        emit StageEvent(wallet, amount, currencyCt, currencyId);\n    }\n\n    /// @notice Unstage a staged amount\n    /// @param amount The concerned balance amount\n    /// @param currencyCt The address of the concerned currency contract (address(0) == ETH)\n    /// @param currencyId The ID of the concerned currency (0 for ETH and ERC20)\n    function unstage(int256 amount, address currencyCt, uint256 currencyId)\n    public\n    {\n        require(amount.isNonZeroPositiveInt256());\n\n        // Clamp amount to move\n        amount = amount.clampMax(walletMap[msg.sender].staged.get(currencyCt, currencyId));\n        if (amount == 0)\n            return;\n\n        // Move from staged balance to deposited\n        walletMap[msg.sender].staged.transfer(walletMap[msg.sender].deposited, amount, currencyCt, currencyId);\n\n        // Add active balance log entry\n        walletMap[msg.sender].active.add(activeBalance(msg.sender, currencyCt, currencyId), currencyCt, currencyId);\n\n        // Emit event\n        emit UnstageEvent(msg.sender, amount, currencyCt, currencyId);\n    }\n\n    /// @notice Stage the amount from wallet to the given beneficiary and targeted to wallet\n    /// @param wallet The address of the concerned wallet\n    /// @param beneficiary The (address of) concerned beneficiary contract\n    /// @param amount The concerned amount\n    /// @param currencyCt The address of the concerned currency contract (address(0) == ETH)\n    /// @param currencyId The ID of the concerned currency (0 for ETH and ERC20)\n    /// @param standard The standard of token (\"ERC20\", \"ERC721\")\n    function stageToBeneficiary(address wallet, Beneficiary beneficiary, int256 amount,\n        address currencyCt, uint256 currencyId, string standard)\n    public\n    onlyAuthorizedService(wallet)\n    {\n        // Subtract stage amount from settled, possibly also from deposited\n        stageSubtract(wallet, amount, currencyCt, currencyId);\n\n        // Add active balance log entry\n        walletMap[wallet].active.add(activeBalance(wallet, currencyCt, currencyId), currencyCt, currencyId);\n\n        // Transfer to beneficiary\n        transferToBeneficiaryPrivate(wallet, beneficiary, amount, currencyCt, currencyId, standard);\n\n        // Emit event\n        emit StageToBeneficiaryEvent(wallet, beneficiary, amount, currencyCt, currencyId, standard);\n    }\n\n    /// @notice Transfer the given amount of currency to the given beneficiary without target wallet\n    /// @param beneficiary The (address of) concerned beneficiary contract\n    /// @param amount The concerned amount\n    /// @param currencyCt The address of the concerned currency contract (address(0) == ETH)\n    /// @param currencyId The ID of the concerned currency (0 for ETH and ERC20)\n    /// @param standard The standard of token (\"ERC20\", \"ERC721\")\n    function transferToBeneficiary(Beneficiary beneficiary, int256 amount,\n        address currencyCt, uint256 currencyId, string standard)\n    public\n    notNullAddress(beneficiary)\n    onlyActiveService\n    {\n        // Transfer to beneficiary\n        transferToBeneficiaryPrivate(address(0), beneficiary, amount, currencyCt, currencyId, standard);\n\n        // Emit event\n        emit TransferToBeneficiaryEvent(beneficiary, amount, currencyCt, currencyId);\n    }\n\n    /// @notice Lock balances of the given locked wallet allowing them to be seized by\n    /// the given locker wallet\n    /// @param lockedWallet The address of concerned wallet whose balances will be locked\n    /// @param lockerWallet The address of concerned wallet that locks\n    function lockBalancesByProxy(address lockedWallet, address lockerWallet)\n    public\n    notNullAddress(lockerWallet)\n    onlyAuthorizedService(lockedWallet)\n    {\n        // Require that the wallet to be locked is not locked by other wallet\n        require(address(0) == walletMap[lockedWallet].locker || lockerWallet == walletMap[lockedWallet].locker);\n\n        // Lock and set release time\n        walletMap[lockedWallet].locker = lockerWallet;\n        walletMap[lockedWallet].unlockTime = block.timestamp.add(configuration.walletLockTimeout());\n\n        // Add to the store of locked wallets\n        addToLockedWallets(lockedWallet);\n\n        // Emit event\n        emit LockBalancesEvent(lockedWallet, lockerWallet);\n    }\n\n    /// @notice Unlock balances of msg.sender if release timeout has expired\n    function unlockBalances()\n    public\n    {\n        // Require that release timeout has expired\n        require(\n            address(0) != walletMap[msg.sender].locker &&\n            block.timestamp >= walletMap[msg.sender].unlockTime\n        );\n\n        // Store locker\n        address locker = walletMap[msg.sender].locker;\n\n        // Unlock balances\n        unlockBalancesPrivate(msg.sender);\n\n        // Emit event\n        emit UnlockBalancesEvent(msg.sender, locker);\n    }\n\n    /// @notice Unlock balances of the given wallet\n    /// @param wallet The address of concerned wallet whose balances will be unlocked\n    function unlockBalancesByProxy(address wallet)\n    public\n    onlyAuthorizedService(wallet)\n    {\n        // Store locker\n        address locker = walletMap[msg.sender].locker;\n\n        // Unlock balances\n        unlockBalancesPrivate(wallet);\n\n        // Emit event\n        emit UnlockBalancesByProxyEvent(msg.sender, locker);\n    }\n\n    /// @notice Seize balances in the given currency of the given locked wallet, provided that the\n    /// function is called by the wallet that locked and it is done before expiration of release timeout\n    /// @param lockedWallet The address of concerned wallet whose balances are locked\n    /// @param currencyCt The address of the concerned currency contract (address(0) == ETH)\n    /// @param currencyId The ID of the concerned currency (0 for ETH and ERC20)\n    function seizeBalances(address lockedWallet, address currencyCt, uint256 currencyId)\n    public\n    {\n        require(\n            msg.sender == walletMap[lockedWallet].locker &&\n            block.timestamp < walletMap[lockedWallet].unlockTime\n        );\n\n        int256 amount = sumAllBalancesOfWalletAndCurrency(lockedWallet, currencyCt, currencyId);\n        assert(amount >= 0);\n\n        zeroAllBalancesOfWalletAndCurrency(lockedWallet, currencyCt, currencyId);\n\n        // Add to staged balance\n        walletMap[msg.sender].staged.add(amount, currencyCt, currencyId);\n\n        // Add currencyCt to in-use list\n        walletMap[msg.sender].inUseCurrencies.addItem(currencyCt, currencyId);\n\n        // Add to the store of seized wallets\n        addToSeizedWallets(lockedWallet);\n\n        // Emit event\n        emit SeizeBalancesEvent(lockedWallet, msg.sender);\n    }\n\n    /// @notice Withdraw the given amount from staged balance\n    /// @param amount The concerned amount\n    /// @param currencyCt The address of the concerned currency contract (address(0) == ETH)\n    /// @param currencyId The ID of the concerned currency (0 for ETH and ERC20)\n    /// @param standard The standard of token (\"ERC20\", \"ERC721\")\n    function withdraw(int256 amount, address currencyCt, uint256 currencyId, string standard)\n    public\n    {\n        require(amount.isNonZeroPositiveInt256());\n\n        amount = amount.clampMax(walletMap[msg.sender].staged.get(currencyCt, currencyId));\n        if (amount <= 0)\n            return;\n\n        // Subtract to per-wallet staged balance\n        walletMap[msg.sender].staged.sub(amount, currencyCt, currencyId);\n        walletMap[msg.sender].txHistory.addWithdrawal(amount, currencyCt, currencyId);\n\n        // Execute transfer\n        if (currencyCt == address(0) && currencyId == 0)\n            msg.sender.transfer(uint256(amount));\n\n        else {\n            TransferController controller = getTransferController(currencyCt, standard);\n            require(address(controller).delegatecall(controller.getDispatchSignature(), this, msg.sender, uint256(amount), currencyCt, currencyId));\n        }\n\n        // Emit event\n        emit WithdrawEvent(msg.sender, amount, currencyCt, currencyId, standard);\n    }\n\n    /// @notice Get metadata of the given wallet's withdrawal at the given index\n    /// @param wallet The address of the concerned wallet\n    /// @param index The index of wallet's withdrawal\n    /// @return The withdrawal metadata\n    function withdrawal(address wallet, uint256 index)\n    public\n    view\n    returns (int256 amount, uint256 blockNumber, address currencyCt, uint256 currencyId)\n    {\n        return walletMap[wallet].txHistory.withdrawal(index);\n    }\n\n    /// @notice Get the count of the given wallet's withdrawals\n    /// @param wallet The address of the concerned wallet\n    /// @return The count of the concerned wallet's withdrawals\n    function withdrawalsCount(address wallet)\n    public\n    view\n    returns (uint256)\n    {\n        return walletMap[wallet].txHistory.withdrawalsCount();\n    }\n\n    /// @notice Get metadata of the given wallet's withdrawal in the given currency at the given index\n    /// @param wallet The address of the concerned wallet\n    /// @param currencyCt The address of the concerned currency contract (address(0) == ETH)\n    /// @param currencyId The ID of the concerned currency (0 for ETH and ERC20)\n    /// @param index The index of wallet's withdrawal in the given currency\n    /// @return The withdrawal metadata\n    function withdrawalOfCurrency(address wallet, address currencyCt, uint256 currencyId, uint256 index)\n    public\n    view\n    returns (int256 amount, uint256 blockNumber)\n    {\n        return walletMap[wallet].txHistory.currencyWithdrawal(currencyCt, currencyId, index);\n    }\n\n    /// @notice Get the count of the given wallet's withdrawals in the given currency\n    /// @param wallet The address of the concerned wallet\n    /// @param currencyCt The address of the concerned currency contract (address(0) == ETH)\n    /// @param currencyId The ID of the concerned currency (0 for ETH and ERC20)\n    /// @return The count of the concerned wallet's withdrawals in the given currency\n    function withdrawalsOfCurrencyCount(address wallet, address currencyCt, uint256 currencyId)\n    public\n    view\n    returns (uint256)\n    {\n        return walletMap[wallet].txHistory.currencyWithdrawalsCount(currencyCt, currencyId);\n    }\n\n    /// @notice Get the locked status of given wallet\n    /// @param wallet The address of the concerned wallet\n    /// @return true if wallet is locked, false otherwise\n    function isLockedWallet(address wallet) public view returns (bool) {\n        return block.timestamp < walletMap[wallet].unlockTime;\n    }\n\n    /// @notice Get the number of wallets whose funds have been locked\n    /// @return Number of wallets\n    function lockedWalletsCount() public view returns (uint256) {\n        return lockedWallets.length;\n    }\n\n    /// @notice Get the address of the wallet that locks the balances of the given wallet\n    /// @param wallet The address of the concerned wallet\n    /// @return The locking wallet's address\n    function locker(address wallet) public view returns (address) {\n        return walletMap[wallet].locker;\n    }\n\n    /// @notice Get the timestamp at which the wallet's locked balances will be released\n    /// @param wallet The address of the concerned wallet\n    /// @return The balances release timestamp\n    function unlockTime(address wallet) public view returns (uint256) {\n        return walletMap[wallet].unlockTime;\n    }\n\n    /// @notice Get the seized status of given wallet\n    /// @param wallet The address of the concerned wallet\n    /// @return true if wallet is seized, false otherwise\n    function isSeizedWallet(address wallet) public view returns (bool) {\n        return seizedByWallet[wallet];\n    }\n\n    /// @notice Get the number of wallets whose funds have been seized\n    /// @return Number of wallets\n    function seizedWalletsCount() public view returns (uint256) {\n        return seizedWallets.length;\n    }\n\n    //\n    // Private functions\n    // -----------------------------------------------------------------------------------------------------------------\n    function stageSubtract(address wallet, int256 amount, address currencyCt, uint256 currencyId)\n    private\n    {\n        // Clamp amount to stage\n        amount = amount.clampMax(activeBalance(wallet, currencyCt, currencyId));\n        if (amount <= 0)\n            return;\n\n        // Subtract from settled, possibly also from deposited\n        walletMap[wallet].deposited.sub(\n            walletMap[wallet].settled.get(currencyCt, currencyId) > amount ?\n            0 :\n            amount.sub(walletMap[wallet].settled.get(currencyCt, currencyId)),\n            currencyCt, currencyId\n        );\n        walletMap[wallet].settled.sub_allow_neg(\n            walletMap[wallet].settled.get(currencyCt, currencyId) > amount ?\n            amount :\n            walletMap[wallet].settled.get(currencyCt, currencyId),\n            currencyCt, currencyId\n        );\n    }\n\n    function transferToBeneficiaryPrivate(address destWallet, Beneficiary beneficiary,\n        int256 amount, address currencyCt, uint256 currencyId, string standard)\n    private\n    {\n        require(amount.isNonZeroPositiveInt256());\n        require(isRegisteredBeneficiary(beneficiary));\n\n        // Transfer funds to the beneficiary\n        if (currencyCt == address(0) && currencyId == 0)\n            beneficiary.receiveEthersTo.value(uint256(amount))(destWallet, \"\");\n\n        else {\n            // Approve of beneficiary\n            TransferController controller = getTransferController(currencyCt, standard);\n            require(address(controller).delegatecall(controller.getApproveSignature(), beneficiary, uint256(amount), currencyCt, currencyId));\n\n            // Transfer funds to the beneficiary\n            beneficiary.receiveTokensTo(destWallet, \"\", amount, currencyCt, currencyId, standard);\n        }\n    }\n\n    function sumAllBalancesOfWalletAndCurrency(address wallet, address currencyCt, uint256 currencyId)\n    private\n    view\n    returns (int256)\n    {\n        return walletMap[wallet].deposited.get(currencyCt, currencyId)\n        .add(walletMap[wallet].settled.get(currencyCt, currencyId))\n        .add(walletMap[wallet].staged.get(currencyCt, currencyId));\n    }\n\n    function zeroAllBalancesOfWalletAndCurrency(address wallet, address currencyCt, uint256 currencyId)\n    private\n    {\n        walletMap[wallet].deposited.set(0, currencyCt, currencyId);\n        walletMap[wallet].settled.set(0, currencyCt, currencyId);\n        walletMap[wallet].staged.set(0, currencyCt, currencyId);\n    }\n\n    function unlockBalancesPrivate(address wallet)\n    private\n    {\n        // Unlock and release\n        walletMap[wallet].locker = address(0);\n        walletMap[wallet].unlockTime = 0;\n\n        // Remove from the store of locked wallets\n        removeFromLockedWallets(wallet);\n    }\n\n    function addToLockedWallets(address wallet)\n    private\n    {\n        if (0 == lockedWalletIndexByWallet[wallet]) {\n            lockedWallets.push(wallet);\n            lockedWalletIndexByWallet[wallet] = lockedWallets.length;\n        }\n    }\n\n    function removeFromLockedWallets(address wallet)\n    private\n    {\n        if (0 != lockedWalletIndexByWallet[wallet]) {\n            if (lockedWalletIndexByWallet[wallet] < lockedWallets.length) {\n                lockedWalletIndexByWallet[lockedWallets[lockedWallets.length - 1]] = lockedWalletIndexByWallet[wallet];\n                lockedWallets[lockedWalletIndexByWallet[wallet]] = lockedWallets[lockedWallets.length - 1];\n            }\n            lockedWallets.length--;\n            lockedWalletIndexByWallet[wallet] = 0;\n        }\n    }\n\n    function addToSeizedWallets(address wallet)\n    private\n    {\n        if (!seizedByWallet[wallet]) {\n            seizedByWallet[wallet] = true;\n            seizedWallets.push(wallet);\n        }\n    }\n}\n",
  "sourcePath": "/Users/yons/development/hubii/striim-contracts/contracts/ClientFund.sol",
  "compiler": {
    "name": "solc",
    "version": "0.4.24+commit.e67f0147.Emscripten.clang"
  },
  "schemaVersion": "2.0.1",
  "updatedAt": "2018-11-21T03:39:16.223Z"
}