{
  "contractName": "ClientFund",
  "abi": [
    {
      "constant": true,
      "inputs": [
        {
          "name": "beneficiary",
          "type": "address"
        }
      ],
      "name": "isRegisteredBeneficiary",
      "outputs": [
        {
          "name": "",
          "type": "bool"
        }
      ],
      "payable": false,
      "stateMutability": "view",
      "type": "function"
    },
    {
      "constant": false,
      "inputs": [
        {
          "name": "beneficiary",
          "type": "address"
        }
      ],
      "name": "deregisterBeneficiary",
      "outputs": [
        {
          "name": "",
          "type": "bool"
        }
      ],
      "payable": false,
      "stateMutability": "nonpayable",
      "type": "function"
    },
    {
      "constant": true,
      "inputs": [
        {
          "name": "service",
          "type": "address"
        },
        {
          "name": "action",
          "type": "string"
        }
      ],
      "name": "isRegisteredServiceAction",
      "outputs": [
        {
          "name": "",
          "type": "bool"
        }
      ],
      "payable": false,
      "stateMutability": "view",
      "type": "function"
    },
    {
      "constant": true,
      "inputs": [],
      "name": "reserveFundAddToStagedAction",
      "outputs": [
        {
          "name": "",
          "type": "string"
        }
      ],
      "payable": false,
      "stateMutability": "view",
      "type": "function"
    },
    {
      "constant": true,
      "inputs": [],
      "name": "serviceActivationTimeout",
      "outputs": [
        {
          "name": "",
          "type": "uint256"
        }
      ],
      "payable": false,
      "stateMutability": "view",
      "type": "function"
    },
    {
      "constant": true,
      "inputs": [],
      "name": "owner",
      "outputs": [
        {
          "name": "",
          "type": "address"
        }
      ],
      "payable": false,
      "stateMutability": "view",
      "type": "function"
    },
    {
      "constant": false,
      "inputs": [],
      "name": "triggerDestroy",
      "outputs": [],
      "payable": false,
      "stateMutability": "nonpayable",
      "type": "function"
    },
    {
      "constant": true,
      "inputs": [],
      "name": "reserveFundGetFromDepositedAction",
      "outputs": [
        {
          "name": "",
          "type": "string"
        }
      ],
      "payable": false,
      "stateMutability": "view",
      "type": "function"
    },
    {
      "constant": false,
      "inputs": [
        {
          "name": "service",
          "type": "address"
        },
        {
          "name": "action",
          "type": "string"
        }
      ],
      "name": "deregisterServiceAction",
      "outputs": [],
      "payable": false,
      "stateMutability": "nonpayable",
      "type": "function"
    },
    {
      "constant": false,
      "inputs": [
        {
          "name": "newOwner",
          "type": "address"
        }
      ],
      "name": "changeOwner",
      "outputs": [],
      "payable": false,
      "stateMutability": "nonpayable",
      "type": "function"
    },
    {
      "constant": false,
      "inputs": [
        {
          "name": "service",
          "type": "address"
        },
        {
          "name": "action",
          "type": "string"
        }
      ],
      "name": "registerServiceAction",
      "outputs": [],
      "payable": false,
      "stateMutability": "nonpayable",
      "type": "function"
    },
    {
      "constant": false,
      "inputs": [
        {
          "name": "beneficiary",
          "type": "address"
        }
      ],
      "name": "registerBeneficiary",
      "outputs": [
        {
          "name": "",
          "type": "bool"
        }
      ],
      "payable": false,
      "stateMutability": "nonpayable",
      "type": "function"
    },
    {
      "inputs": [
        {
          "name": "_owner",
          "type": "address"
        }
      ],
      "payable": false,
      "stateMutability": "nonpayable",
      "type": "constructor"
    },
    {
      "payable": true,
      "stateMutability": "payable",
      "type": "fallback"
    },
    {
      "anonymous": false,
      "inputs": [
        {
          "indexed": false,
          "name": "from",
          "type": "address"
        },
        {
          "indexed": false,
          "name": "amount",
          "type": "int256"
        },
        {
          "indexed": false,
          "name": "token",
          "type": "address"
        }
      ],
      "name": "DepositEvent",
      "type": "event"
    },
    {
      "anonymous": false,
      "inputs": [
        {
          "indexed": false,
          "name": "from",
          "type": "address"
        },
        {
          "indexed": false,
          "name": "to",
          "type": "address"
        },
        {
          "indexed": false,
          "name": "amount",
          "type": "int256"
        },
        {
          "indexed": false,
          "name": "token",
          "type": "address"
        }
      ],
      "name": "TransferFromDepositedToSettledBalanceEvent",
      "type": "event"
    },
    {
      "anonymous": false,
      "inputs": [
        {
          "indexed": false,
          "name": "from",
          "type": "address"
        },
        {
          "indexed": false,
          "name": "to",
          "type": "address"
        },
        {
          "indexed": false,
          "name": "amount",
          "type": "int256"
        },
        {
          "indexed": false,
          "name": "token",
          "type": "address"
        }
      ],
      "name": "WithdrawFromDepositedBalanceEvent",
      "type": "event"
    },
    {
      "anonymous": false,
      "inputs": [
        {
          "indexed": false,
          "name": "to",
          "type": "address"
        },
        {
          "indexed": false,
          "name": "amount",
          "type": "int256"
        },
        {
          "indexed": false,
          "name": "token",
          "type": "address"
        }
      ],
      "name": "DepositToSettledBalance",
      "type": "event"
    },
    {
      "anonymous": false,
      "inputs": [
        {
          "indexed": false,
          "name": "from",
          "type": "address"
        },
        {
          "indexed": false,
          "name": "amount",
          "type": "int256"
        },
        {
          "indexed": false,
          "name": "token",
          "type": "address"
        }
      ],
      "name": "StageEvent",
      "type": "event"
    },
    {
      "anonymous": false,
      "inputs": [
        {
          "indexed": false,
          "name": "from",
          "type": "address"
        },
        {
          "indexed": false,
          "name": "amount",
          "type": "int256"
        },
        {
          "indexed": false,
          "name": "token",
          "type": "address"
        },
        {
          "indexed": false,
          "name": "beneficiary",
          "type": "address"
        }
      ],
      "name": "StageToEvent",
      "type": "event"
    },
    {
      "anonymous": false,
      "inputs": [
        {
          "indexed": false,
          "name": "from",
          "type": "address"
        },
        {
          "indexed": false,
          "name": "amount",
          "type": "int256"
        },
        {
          "indexed": false,
          "name": "token",
          "type": "address"
        }
      ],
      "name": "UnstageEvent",
      "type": "event"
    },
    {
      "anonymous": false,
      "inputs": [
        {
          "indexed": false,
          "name": "sourceWallet",
          "type": "address"
        },
        {
          "indexed": false,
          "name": "targetWallet",
          "type": "address"
        }
      ],
      "name": "SeizeDepositedAndSettledBalancesEvent",
      "type": "event"
    },
    {
      "anonymous": false,
      "inputs": [
        {
          "indexed": false,
          "name": "to",
          "type": "address"
        },
        {
          "indexed": false,
          "name": "amount",
          "type": "int256"
        },
        {
          "indexed": false,
          "name": "token",
          "type": "address"
        }
      ],
      "name": "WithdrawEvent",
      "type": "event"
    },
    {
      "anonymous": false,
      "inputs": [
        {
          "indexed": false,
          "name": "service",
          "type": "address"
        }
      ],
      "name": "RegisterServiceEvent",
      "type": "event"
    },
    {
      "anonymous": false,
      "inputs": [
        {
          "indexed": false,
          "name": "wallet",
          "type": "address"
        },
        {
          "indexed": false,
          "name": "service",
          "type": "address"
        }
      ],
      "name": "EnableRegisteredServiceEvent",
      "type": "event"
    },
    {
      "anonymous": false,
      "inputs": [
        {
          "indexed": false,
          "name": "wallet",
          "type": "address"
        },
        {
          "indexed": false,
          "name": "service",
          "type": "address"
        }
      ],
      "name": "DisableRegisteredServiceEvent",
      "type": "event"
    },
    {
      "anonymous": false,
      "inputs": [
        {
          "indexed": false,
          "name": "service",
          "type": "address"
        },
        {
          "indexed": false,
          "name": "action",
          "type": "string"
        }
      ],
      "name": "RegisterServiceActionEvent",
      "type": "event"
    },
    {
      "anonymous": false,
      "inputs": [
        {
          "indexed": false,
          "name": "service",
          "type": "address"
        },
        {
          "indexed": false,
          "name": "action",
          "type": "string"
        }
      ],
      "name": "DeregisterServiceActionEvent",
      "type": "event"
    },
    {
      "anonymous": false,
      "inputs": [
        {
          "indexed": false,
          "name": "beneficiary",
          "type": "address"
        }
      ],
      "name": "RegisterBeneficiaryEvent",
      "type": "event"
    },
    {
      "anonymous": false,
      "inputs": [
        {
          "indexed": false,
          "name": "beneficiary",
          "type": "address"
        }
      ],
      "name": "DeregisterBeneficiaryEvent",
      "type": "event"
    },
    {
      "anonymous": false,
      "inputs": [
        {
          "indexed": false,
          "name": "oldOwner",
          "type": "address"
        },
        {
          "indexed": false,
          "name": "newOwner",
          "type": "address"
        }
      ],
      "name": "ChangeOwnerEvent",
      "type": "event"
    },
    {
      "constant": false,
      "inputs": [
        {
          "name": "timeoutInSeconds",
          "type": "uint256"
        }
      ],
      "name": "setServiceActivationTimeout",
      "outputs": [],
      "payable": false,
      "stateMutability": "nonpayable",
      "type": "function"
    },
    {
      "constant": false,
      "inputs": [
        {
          "name": "wallet",
          "type": "address"
        }
      ],
      "name": "receiveEthers",
      "outputs": [],
      "payable": true,
      "stateMutability": "payable",
      "type": "function"
    },
    {
      "constant": false,
      "inputs": [
        {
          "name": "token",
          "type": "address"
        },
        {
          "name": "amount",
          "type": "int256"
        }
      ],
      "name": "depositTokens",
      "outputs": [],
      "payable": false,
      "stateMutability": "nonpayable",
      "type": "function"
    },
    {
      "constant": false,
      "inputs": [
        {
          "name": "wallet",
          "type": "address"
        },
        {
          "name": "amount",
          "type": "int256"
        },
        {
          "name": "token",
          "type": "address"
        }
      ],
      "name": "receiveTokens",
      "outputs": [],
      "payable": false,
      "stateMutability": "nonpayable",
      "type": "function"
    },
    {
      "constant": true,
      "inputs": [
        {
          "name": "wallet",
          "type": "address"
        },
        {
          "name": "index",
          "type": "uint256"
        }
      ],
      "name": "deposit",
      "outputs": [
        {
          "name": "amount",
          "type": "int256"
        },
        {
          "name": "timestamp",
          "type": "uint256"
        },
        {
          "name": "token",
          "type": "address"
        }
      ],
      "payable": false,
      "stateMutability": "view",
      "type": "function"
    },
    {
      "constant": true,
      "inputs": [
        {
          "name": "wallet",
          "type": "address"
        }
      ],
      "name": "depositCount",
      "outputs": [
        {
          "name": "",
          "type": "uint256"
        }
      ],
      "payable": false,
      "stateMutability": "view",
      "type": "function"
    },
    {
      "constant": true,
      "inputs": [
        {
          "name": "wallet",
          "type": "address"
        },
        {
          "name": "token",
          "type": "address"
        }
      ],
      "name": "depositedBalance",
      "outputs": [
        {
          "name": "",
          "type": "int256"
        }
      ],
      "payable": false,
      "stateMutability": "view",
      "type": "function"
    },
    {
      "constant": true,
      "inputs": [
        {
          "name": "wallet",
          "type": "address"
        },
        {
          "name": "token",
          "type": "address"
        }
      ],
      "name": "stagedBalance",
      "outputs": [
        {
          "name": "",
          "type": "int256"
        }
      ],
      "payable": false,
      "stateMutability": "view",
      "type": "function"
    },
    {
      "constant": true,
      "inputs": [
        {
          "name": "wallet",
          "type": "address"
        },
        {
          "name": "token",
          "type": "address"
        }
      ],
      "name": "settledBalance",
      "outputs": [
        {
          "name": "",
          "type": "int256"
        }
      ],
      "payable": false,
      "stateMutability": "view",
      "type": "function"
    },
    {
      "constant": false,
      "inputs": [
        {
          "name": "sourceWallet",
          "type": "address"
        },
        {
          "name": "destWallet",
          "type": "address"
        },
        {
          "name": "amount",
          "type": "int256"
        },
        {
          "name": "token",
          "type": "address"
        }
      ],
      "name": "transferFromDepositedToSettledBalance",
      "outputs": [],
      "payable": false,
      "stateMutability": "nonpayable",
      "type": "function"
    },
    {
      "constant": false,
      "inputs": [
        {
          "name": "sourceWallet",
          "type": "address"
        },
        {
          "name": "destWallet",
          "type": "address"
        },
        {
          "name": "amount",
          "type": "int256"
        },
        {
          "name": "token",
          "type": "address"
        }
      ],
      "name": "withdrawFromDepositedBalance",
      "outputs": [],
      "payable": false,
      "stateMutability": "nonpayable",
      "type": "function"
    },
    {
      "constant": false,
      "inputs": [
        {
          "name": "destWallet",
          "type": "address"
        }
      ],
      "name": "depositEthersToSettledBalance",
      "outputs": [],
      "payable": true,
      "stateMutability": "payable",
      "type": "function"
    },
    {
      "constant": false,
      "inputs": [
        {
          "name": "destWallet",
          "type": "address"
        },
        {
          "name": "token",
          "type": "address"
        },
        {
          "name": "amount",
          "type": "int256"
        }
      ],
      "name": "depositTokensToSettledBalance",
      "outputs": [],
      "payable": false,
      "stateMutability": "nonpayable",
      "type": "function"
    },
    {
      "constant": false,
      "inputs": [
        {
          "name": "amount",
          "type": "int256"
        },
        {
          "name": "token",
          "type": "address"
        }
      ],
      "name": "stage",
      "outputs": [],
      "payable": false,
      "stateMutability": "nonpayable",
      "type": "function"
    },
    {
      "constant": false,
      "inputs": [
        {
          "name": "amount",
          "type": "int256"
        },
        {
          "name": "token",
          "type": "address"
        },
        {
          "name": "beneficiary",
          "type": "address"
        }
      ],
      "name": "stageTo",
      "outputs": [],
      "payable": false,
      "stateMutability": "nonpayable",
      "type": "function"
    },
    {
      "constant": false,
      "inputs": [
        {
          "name": "amount",
          "type": "int256"
        },
        {
          "name": "token",
          "type": "address"
        }
      ],
      "name": "unstage",
      "outputs": [],
      "payable": false,
      "stateMutability": "nonpayable",
      "type": "function"
    },
    {
      "constant": false,
      "inputs": [
        {
          "name": "sourceWallet",
          "type": "address"
        },
        {
          "name": "targetWallet",
          "type": "address"
        }
      ],
      "name": "seizeDepositedAndSettledBalances",
      "outputs": [],
      "payable": false,
      "stateMutability": "nonpayable",
      "type": "function"
    },
    {
      "constant": false,
      "inputs": [
        {
          "name": "wallet",
          "type": "address"
        },
        {
          "name": "amount",
          "type": "int256"
        },
        {
          "name": "token",
          "type": "address"
        }
      ],
      "name": "reserveFundGetFromDeposited",
      "outputs": [],
      "payable": false,
      "stateMutability": "nonpayable",
      "type": "function"
    },
    {
      "constant": false,
      "inputs": [
        {
          "name": "wallet",
          "type": "address"
        },
        {
          "name": "amount",
          "type": "int256"
        },
        {
          "name": "token",
          "type": "address"
        }
      ],
      "name": "reserveFundAddToStaged",
      "outputs": [],
      "payable": true,
      "stateMutability": "payable",
      "type": "function"
    },
    {
      "constant": false,
      "inputs": [
        {
          "name": "amount",
          "type": "int256"
        }
      ],
      "name": "withdrawEthers",
      "outputs": [],
      "payable": false,
      "stateMutability": "nonpayable",
      "type": "function"
    },
    {
      "constant": false,
      "inputs": [
        {
          "name": "amount",
          "type": "int256"
        },
        {
          "name": "token",
          "type": "address"
        }
      ],
      "name": "withdrawTokens",
      "outputs": [],
      "payable": false,
      "stateMutability": "nonpayable",
      "type": "function"
    },
    {
      "constant": true,
      "inputs": [
        {
          "name": "wallet",
          "type": "address"
        },
        {
          "name": "index",
          "type": "uint256"
        }
      ],
      "name": "withdrawal",
      "outputs": [
        {
          "name": "amount",
          "type": "int256"
        },
        {
          "name": "timestamp",
          "type": "uint256"
        },
        {
          "name": "token",
          "type": "address"
        }
      ],
      "payable": false,
      "stateMutability": "view",
      "type": "function"
    },
    {
      "constant": true,
      "inputs": [
        {
          "name": "wallet",
          "type": "address"
        }
      ],
      "name": "withdrawalCount",
      "outputs": [
        {
          "name": "",
          "type": "uint256"
        }
      ],
      "payable": false,
      "stateMutability": "view",
      "type": "function"
    },
    {
      "constant": false,
      "inputs": [
        {
          "name": "service",
          "type": "address"
        }
      ],
      "name": "registerService",
      "outputs": [],
      "payable": false,
      "stateMutability": "nonpayable",
      "type": "function"
    },
    {
      "constant": false,
      "inputs": [
        {
          "name": "service",
          "type": "address"
        }
      ],
      "name": "enableRegisteredService",
      "outputs": [],
      "payable": false,
      "stateMutability": "nonpayable",
      "type": "function"
    },
    {
      "constant": false,
      "inputs": [
        {
          "name": "service",
          "type": "address"
        }
      ],
      "name": "disableRegisteredService",
      "outputs": [],
      "payable": false,
      "stateMutability": "nonpayable",
      "type": "function"
    }
  ],
  "bytecode": "0x60806040523480156200001157600080fd5b5060405160208062004347833981016040525180600160a060020a03811615156200003b57600080fd5b600160a060020a0381163014156200005257600080fd5b60008054600160a060020a03909216600160a060020a03199092169190911790555062093a806005556142bc806200008b6000396000f3006080604052600436106101be5763ffffffff60e060020a60003504166304fd313081146101c9578063059475f7146101fe57806306d7a09e1461023757806308fb23b5146102625780631c90dcdd146102865780631caf1d6d146102b75780631e7283d7146102d8578063205c678f1461033f5780632a5fa833146103c95780632d82ea1a146103e75780633b7bea6c14610408578063436daa6d1461041d57806347e7ef241461044e5780635a6b26ba14610499578063733d5f3a146104bd57806375c77245146104e75780637e15dd5c14610511578063818abc2214610529578063859dbc191461054d5780638a31cdf11461056e5780638da5cb5b1461059557806394dd293c146105c65780639624335a146105db578063a1b48dd0146105f0578063a33b4c7f14610617578063a6f9dae11461067e578063a77a5f001461069f578063aa5f2eab146106ca578063b3d8bcdc146106de578063b65b9e67146106ff578063c433fedc14610713578063c6613d581461077a578063cb038c8314610792578063cdd8b2b2146107b6578063cf1f7ddd146107d7578063e7c8e6ef146107fb578063f4443d9a14610822578063fdd9ec7d14610843575b6101c733610864565b005b3480156101d557600080fd5b506101ea600160a060020a03600435166109be565b604080519115158252519081900360200190f35b34801561020a57600080fd5b50610225600160a060020a03600435811690602435166109dc565b60408051918252519081900360200190f35b34801561024357600080fd5b506101c7600160a060020a036004358116906024359060443516610a57565b34801561026e57600080fd5b506101c7600435600160a060020a0360243516610d09565b34801561029257600080fd5b506101c7600160a060020a0360043581169060243581169060443590606435166112ec565b3480156102c357600080fd5b506101ea600160a060020a03600435166115a5565b3480156102e457600080fd5b5060408051602060046024803582810135601f81018590048502860185019096528585526101ea958335600160a060020a031695369560449491939091019190819084018382808284375094975061165b9650505050505050565b34801561034b57600080fd5b5061035461175f565b6040805160208082528351818301528351919283929083019185019080838360005b8381101561038e578181015183820152602001610376565b50505050905090810190601f1680156103bb5780820380516001836020036101000a031916815260200191505b509250505060405180910390f35b6101c7600160a060020a036004358116906024359060443516611784565b3480156103f357600080fd5b506101c7600160a060020a03600435166119c3565b34801561041457600080fd5b50610225611a90565b34801561042957600080fd5b506101c7600160a060020a036004358116906024358116906044359060643516611a96565b34801561045a57600080fd5b50610472600160a060020a0360043516602435611d69565b604080519384526020840192909252600160a060020a031682820152519081900360600190f35b3480156104a557600080fd5b50610472600160a060020a0360043516602435611e74565b3480156104c957600080fd5b506101c7600160a060020a0360043581169060243516604435611f52565b3480156104f357600080fd5b506101c7600435600160a060020a03602435811690604435166121c8565b34801561051d57600080fd5b506101c76004356128c5565b34801561053557600080fd5b506101c7600435600160a060020a03602435166128dd565b34801561055957600080fd5b506101c7600160a060020a0360043516612b35565b34801561057a57600080fd5b50610225600160a060020a0360043581169060243516612c05565b3480156105a157600080fd5b506105aa612c7a565b60408051600160a060020a039092168252519081900360200190f35b3480156105d257600080fd5b506101c7612c89565b3480156105e757600080fd5b50610354612caa565b3480156105fc57600080fd5b506101c7600160a060020a0360043581169060243516612ce4565b34801561062357600080fd5b5060408051602060046024803582810135601f81018590048502860185019096528585526101c7958335600160a060020a0316953695604494919390910191908190840183828082843750949750612fc99650505050505050565b34801561068a57600080fd5b506101c7600160a060020a03600435166131ce565b3480156106ab57600080fd5b506101c7600160a060020a036004358116906024359060443516613288565b6101c7600160a060020a0360043516610864565b3480156106ea57600080fd5b50610225600160a060020a03600435166135a9565b6101c7600160a060020a03600435166135dd565b34801561071f57600080fd5b5060408051602060046024803582810135601f81018590048502860185019096528585526101c7958335600160a060020a03169536956044949193909101919081908401838280828437509497506137169650505050505050565b34801561078657600080fd5b506101c76004356138dc565b34801561079e57600080fd5b506101c7600435600160a060020a0360243516613a95565b3480156107c257600080fd5b506101ea600160a060020a0360043516613dec565b3480156107e357600080fd5b506101c7600160a060020a0360043516602435613ee0565b34801561080757600080fd5b50610225600160a060020a0360043581169060243516613eeb565b34801561082e57600080fd5b50610225600160a060020a0360043516613f61565b34801561084f57600080fd5b506101c7600160a060020a0360043516613f92565b600073__SafeMathInt___________________________63802d10af346040518263ffffffff1660e060020a0281526004018082815260200191505060206040518083038186803b1580156108b857600080fd5b505af41580156108cc573d6000803e3d6000fd5b505050506040513d60208110156108e257600080fd5b5051600160a060020a038316600090815260046020526040902060020154909150610913908263ffffffff61406c16565b600160a060020a0383811660008181526004602090815260408083206002808201979097558151606080820184528982524282860190815282850187815284546001808201875595895287892094516003909102909401938455905193830193909355915197018054600160a060020a031916979096169690961790945583519283528201859052818301529051600080516020614271833981519152929181900390910190a15050565b600160a060020a031660009081526002602052604090205460ff1690565b6000600160a060020a03831615156109f357600080fd5b600160a060020a03821615610a3157600160a060020a0380841660009081526004602090815260408083209386168352600390930190522054610a4e565b600160a060020a0383166000908152600460205260409020600201545b90505b92915050565b6000600160a060020a0382161515610a6e57600080fd5b8273__SafeMathInt___________________________63a2ea1ca690916040518263ffffffff1660e060020a0281526004018082815260200191505060206040518083038186803b158015610ac257600080fd5b505af4158015610ad6573d6000803e3d6000fd5b505050506040513d6020811015610aec57600080fd5b50511515610af957600080fd5b506040805160e060020a6323b872dd028152600160a060020a03858116600483015230602483015260448201859052915183928316916323b872dd9160648083019260209291908290030181600087803b158015610b5657600080fd5b505af1158015610b6a573d6000803e3d6000fd5b505050506040513d6020811015610b8057600080fd5b50511515610b8d57600080fd5b600160a060020a0380851660009081526004602090815260408083209386168352600390930190522054610bc7908463ffffffff61406c16565b600160a060020a038581166000908152600460208181526040808420888616808652600380830185528387209890985593835281516060810183528a815242818501908152818401868152835460018082018655858a52878a20945191909b02909301928355905198820198909855965160029097018054600160a060020a0319169790961696909617909455908252600990930190925290205460ff161515610ccb57600160a060020a038085166000908152600460208181526040808420948716808552600986018352908420805460ff191660019081179091559282526008909401805492830181558352909120018054600160a060020a03191690911790555b60408051600160a060020a0380871682526020820186905284168183015290516000805160206142718339815191529181900360600190a150505050565b600080610d146140a4565b15610d1e57600080fd5b8373__SafeMathInt___________________________636b84d93190916040518263ffffffff1660e060020a0281526004018082815260200191505060206040518083038186803b158015610d7257600080fd5b505af4158015610d86573d6000803e3d6000fd5b505050506040513d6020811015610d9c57600080fd5b50511515610da957600080fd5b600160a060020a0383161515610fe057336000908152600460205260409020600681015460029091015473__SafeMathInt___________________________9163755875b2918791610e01919063ffffffff6140b516565b6040518363ffffffff1660e060020a028152600401808381526020018281526020019250505060206040518083038186803b158015610e3f57600080fd5b505af4158015610e53573d6000803e3d6000fd5b505050506040513d6020811015610e6957600080fd5b5051935060008413610e7a576112e6565b336000908152600460205260408120600601548593501315610f78573360009081526004602081815260409283902060060154835160e160020a633aac3ad90281529283018890526024830152915173__SafeMathInt___________________________9263755875b29260448082019391829003018186803b158015610f0057600080fd5b505af4158015610f14573d6000803e3d6000fd5b505050506040513d6020811015610f2a57600080fd5b505133600090815260046020526040902060060154909150610f52908263ffffffff6140ea16565b33600090815260046020526040902060060155610f75848263ffffffff6140ea16565b93505b33600090815260046020526040902060020154610f9b908563ffffffff61412616565b33600090815260046020819052604090912060028101929092550154610fc7908363ffffffff61406c16565b336000908152600460208190526040909120015561129d565b336000908152600460209081526040808320600160a060020a03871684526007810183528184205460039091019092529091205473__SafeMathInt___________________________9163755875b291879161103c91906140b5565b6040518363ffffffff1660e060020a028152600401808381526020018281526020019250505060206040518083038186803b15801561107a57600080fd5b505af415801561108e573d6000803e3d6000fd5b505050506040513d60208110156110a457600080fd5b50519350600084136110b5576112e6565b336000908152600460209081526040808320600160a060020a0387168452600701909152812054859350131561120057336000908152600460208181526040808420600160a060020a038816855260070182529283902054835160e160020a633aac3ad90281529283018890526024830152915173__SafeMathInt___________________________9263755875b29260448082019391829003018186803b15801561116057600080fd5b505af4158015611174573d6000803e3d6000fd5b505050506040513d602081101561118a57600080fd5b5051336000908152600460209081526040808320600160a060020a03881684526007019091529020549091506111c6908263ffffffff6140ea16565b336000908152600460209081526040808320600160a060020a03881684526007019091529020556111fd848263ffffffff6140ea16565b93505b336000908152600460209081526040808320600160a060020a0387168452600301909152902054611237908563ffffffff61412616565b336000908152600460209081526040808320600160a060020a038816845260038101835281842094909455600590930190522054611275908361406c565b336000908152600460209081526040808320600160a060020a03881684526005019091529020555b6040805133815260208101869052600160a060020a0385168183015290517fc0e336e2531a0c00becc8d2d54dc0abd75618c27e6390bcaf3b9d92ed2a431dd9181900360600190a15b50505050565b6112f46140a4565b156112fe57600080fd5b611308338561414d565b151561131357600080fd5b61131d338461414d565b151561132857600080fd5b600160a060020a038416151561133d57600080fd5b600160a060020a038316151561135257600080fd5b600160a060020a03848116908416141561136b57600080fd5b73__SafeMathInt___________________________63a2ea1ca6836040518263ffffffff1660e060020a0281526004018082815260200191505060206040518083038186803b1580156113bd57600080fd5b505af41580156113d1573d6000803e3d6000fd5b505050506040513d60208110156113e757600080fd5b505115156113f457600080fd5b600160a060020a038116151561148f57600160a060020a038416600090815260046020526040902060020154611430908363ffffffff61412616565b600160a060020a03808616600090815260046020819052604080832060020194909455918616815291909120015461146e908363ffffffff6140b516565b600160a060020a03841660009081526004602052604090206006015561154d565b600160a060020a03808516600090815260046020908152604080832093851683526003909301905220546114c9908363ffffffff61412616565b600160a060020a038086166000908152600460208181526040808420878616808652600390910183528185209690965593881683529081528282209382526007909301909252902054611522908363ffffffff6140b516565b600160a060020a03808516600090815260046020908152604080832093861683526007909301905220555b60408051600160a060020a03808716825280861660208301528183018590528316606082015290517f89269433623816b577a61dcc6ceaf6a06dee65560d0a5f01362827774900740a9181900360800190a150505050565b60006115af6140a4565b15156115ba57600080fd5b81600160a060020a03811615156115d057600080fd5b600160a060020a03831660009081526002602052604090205460ff1615156115fb5760009150611655565b600160a060020a038316600081815260026020908152604091829020805460ff19169055815192835290517f33f51cf787669db5b5aff6ba597298fd010748de93aaadef29aae876cef4a8c39281900390910190a1600191505b50919050565b60006003600084600160a060020a0316600160a060020a031681526020019081526020016000206000836040516020018082805190602001908083835b602083106116b75780518252601f199092019160209182019101611698565b6001836020036101000a0380198251168184511680821785525050505050509050019150506040516020818303038152906040526040518082805190602001908083835b6020831061171a5780518252601f1990920191602091820191016116fb565b51815160209384036101000a600019018019909216911617905260408051929094018290039091208652850195909552929092016000205460ff169695505050505050565b60408051808201909152601f81526000805160206141f1833981519152602082015281565b60408051808201909152601f81526000805160206141f1833981519152602082015260008054909190600160a060020a03163314806117c857506117c8338261165b565b15156117d357600080fd5b600160a060020a03851615156117e857600080fd5b8373__SafeMathInt___________________________636b84d93190916040518263ffffffff1660e060020a0281526004018082815260200191505060206040518083038186803b15801561183c57600080fd5b505af4158015611850573d6000803e3d6000fd5b505050506040513d602081101561186657600080fd5b5051151561187357600080fd5b600160a060020a03831615156118d057600160a060020a0385166000908152600460205260409020600601546118af908563ffffffff6140b516565b600160a060020a0386166000908152600460205260409020600601556119bc565b6040805160e060020a6323b872dd028152336004820152306024820152604481018690529051849350600160a060020a038416916323b872dd9160648083019260209291908290030181600087803b15801561192b57600080fd5b505af115801561193f573d6000803e3d6000fd5b505050506040513d602081101561195557600080fd5b5050600160a060020a0380861660009081526004602090815260408083209387168352600790930190522054611991908563ffffffff6140b516565b600160a060020a03808716600090815260046020908152604080832093881683526007909301905220555b5050505050565b6119cb6140a4565b156119d557600080fd5b80600160a060020a03811615156119eb57600080fd5b33600160a060020a0383161415611a0157600080fd5b600160a060020a0382166000908152600660205260409020541515611a2557600080fd5b600160a060020a03821660008181526007602090815260408083203380855290835292819020805460ff1916905580519283529082019290925281517f09a7da300c32cfd6e7add3c33559e2bf31c1a9ed097a2abd3d6604b93d3ce2ee929181900390910190a15050565b60055481565b6000611aa06140a4565b15611aaa57600080fd5b611ab4338661414d565b1515611abf57600080fd5b611ac9338561414d565b1515611ad457600080fd5b600160a060020a0385161515611ae957600080fd5b600160a060020a0384161515611afe57600080fd5b600160a060020a038581169085161415611b1757600080fd5b8273__SafeMathInt___________________________63a2ea1ca690916040518263ffffffff1660e060020a0281526004018082815260200191505060206040518083038186803b158015611b6b57600080fd5b505af4158015611b7f573d6000803e3d6000fd5b505050506040513d6020811015611b9557600080fd5b50511515611ba257600080fd5b600160a060020a0382161515611c3157600160a060020a038516600090815260046020526040902060020154611bde908463ffffffff61412616565b600160a060020a038087166000908152600460205260408082206002019390935591519086169185156108fc02918691818181858888f19350505050158015611c2b573d6000803e3d6000fd5b50611d10565b600160a060020a0380861660009081526004602090815260408083209386168352600390930190522054611c6b908463ffffffff61412616565b600160a060020a0380871660009081526004602081815260408084208886168086526003909101835281852096909655805160e060020a63a9059cbb028152948a169285019290925260248401889052905186955063a9059cbb93604480820194918390030190829087803b158015611ce357600080fd5b505af1158015611cf7573d6000803e3d6000fd5b505050506040513d6020811015611d0d57600080fd5b50505b60408051600160a060020a03808816825280871660208301528183018690528416606082015290517f2e628de4dc4bb14577d7fbd22f18e8d4eabe4651fc2059c70ca493545c8c27039181900360800190a15050505050565b6000806000611d766140a4565b1515611d8157600080fd5b600160a060020a0385166000908152600460205260409020548410611da557600080fd5b600160a060020a0385166000908152600460205260409020805485908110611dc957fe5b60009182526020808320600390920290910154600160a060020a03881683526004909152604090912080549194509085908110611e0257fe5b90600052602060002090600302016001015491506004600086600160a060020a0316600160a060020a0316815260200190815260200160002060000184815481101515611e4b57fe5b6000918252602090912060026003909202010154929591945050600160a060020a039091169150565b6000806000611e816140a4565b1515611e8c57600080fd5b600160a060020a0385166000908152600460205260409020600101548410611eb357600080fd5b600160a060020a0385166000908152600460205260409020600101805485908110611eda57fe5b60009182526020808320600390920290910154600160a060020a03881683526004909152604090912060010180549194509085908110611f1657fe5b600091825260208083206001600390930201820154600160a060020a0389168452600490915260409092200180549193509085908110611e4b57fe5b6000611f5c6140a4565b15611f6657600080fd5b611f70338561414d565b1515611f7b57600080fd5b600160a060020a0384161515611f9057600080fd5b8173__SafeMathInt___________________________63a2ea1ca690916040518263ffffffff1660e060020a0281526004018082815260200191505060206040518083038186803b158015611fe457600080fd5b505af4158015611ff8573d6000803e3d6000fd5b505050506040513d602081101561200e57600080fd5b5051151561201b57600080fd5b600160a060020a0380851660009081526004602090815260408083209387168352600790930190522054612055908363ffffffff61406c16565b600160a060020a0385811660009081526004602090815260408083209388168352600784018252808320949094556009909201909152205460ff1615156120f657600160a060020a038085166000908152600460208181526040808420948816808552600986018352908420805460ff191660019081179091559282526008909401805492830181558352909120018054600160a060020a03191690911790555b506040805160e060020a6323b872dd028152336004820152600160a060020a03858116602483015260448201849052915184928316916323b872dd9160648083019260209291908290030181600087803b15801561215357600080fd5b505af1158015612167573d6000803e3d6000fd5b505050506040513d602081101561217d57600080fd5b5051151561218a57600080fd5b60408051600160a060020a0380871682526020820185905285168183015290516000805160206142318339815191529181900360600190a150505050565b6000806000806121d66140a4565b156121e057600080fd5b8673__SafeMathInt___________________________636b84d93190916040518263ffffffff1660e060020a0281526004018082815260200191505060206040518083038186803b15801561223457600080fd5b505af4158015612248573d6000803e3d6000fd5b505050506040513d602081101561225e57600080fd5b5051151561226b57600080fd5b612274856109be565b151561227f57600080fd5b849150600160a060020a03861615156124f257336000908152600460205260409020600681015460029091015473__SafeMathInt___________________________9163755875b2918a916122da919063ffffffff6140b516565b6040518363ffffffff1660e060020a028152600401808381526020018281526020019250505060206040518083038186803b15801561231857600080fd5b505af415801561232c573d6000803e3d6000fd5b505050506040513d602081101561234257600080fd5b5051965060008713612353576128bc565b336000908152600460205260408120600601548895501315612451573360009081526004602081815260409283902060060154835160e160020a633aac3ad90281529283018b90526024830152915173__SafeMathInt___________________________9263755875b29260448082019391829003018186803b1580156123d957600080fd5b505af41580156123ed573d6000803e3d6000fd5b505050506040513d602081101561240357600080fd5b50513360009081526004602052604090206006015490935061242b908463ffffffff6140ea16565b3360009081526004602052604090206006015561244e878463ffffffff6140ea16565b96505b33600090815260046020526040902060020154612474908863ffffffff61412616565b33600081815260046020819052604080832060020194909455835160e060020a63aa5f2eab028152908101929092529151600160a060020a0385169263aa5f2eab928b926024808301939282900301818588803b1580156124d457600080fd5b505af11580156124e8573d6000803e3d6000fd5b505050505061286b565b336000908152600460209081526040808320600160a060020a038a1684526007810183528184205460039091019092529091205473__SafeMathInt___________________________9163755875b2918a9161254e91906140b5565b6040518363ffffffff1660e060020a028152600401808381526020018281526020019250505060206040518083038186803b15801561258c57600080fd5b505af41580156125a0573d6000803e3d6000fd5b505050506040513d60208110156125b657600080fd5b50519650600087136125c7576128bc565b336000908152600460209081526040808320600160a060020a038a168452600701909152812054889550131561271257336000908152600460208181526040808420600160a060020a038b16855260070182529283902054835160e160020a633aac3ad90281529283018b90526024830152915173__SafeMathInt___________________________9263755875b29260448082019391829003018186803b15801561267257600080fd5b505af4158015612686573d6000803e3d6000fd5b505050506040513d602081101561269c57600080fd5b5051336000908152600460209081526040808320600160a060020a038b1684526007019091529020549093506126d8908463ffffffff6140ea16565b336000908152600460209081526040808320600160a060020a038b16845260070190915290205561270f878463ffffffff6140ea16565b96505b336000908152600460209081526040808320600160a060020a038a168452600301909152902054612749908863ffffffff61412616565b336000908152600460208181526040808420600160a060020a038c81168087526003909201845282862096909655815160e060020a63095ea7b3028152958b1693860193909352602485018c9052518a9550919363095ea7b393604480830194928390030190829087803b1580156127c057600080fd5b505af11580156127d4573d6000803e3d6000fd5b505050506040513d60208110156127ea57600080fd5b505115156127f757600080fd5b6040805160e160020a63036bd04f02815233600482015260248101899052600160a060020a0388811660448301529151918416916306d7a09e9160648082019260009290919082900301818387803b15801561285257600080fd5b505af1158015612866573d6000803e3d6000fd5b505050505b6040805133815260208101899052600160a060020a03808916828401528716606082015290517fc395527ec6d7187414fd7511dca3a29ad0cb6001685887967e607b5090add5c79181900360800190a15b50505050505050565b6128cd6140a4565b15156128d857600080fd5b600555565b60006128e76140a4565b156128f157600080fd5b600160a060020a038216151561290657600080fd5b8273__SafeMathInt___________________________63a2ea1ca690916040518263ffffffff1660e060020a0281526004018082815260200191505060206040518083038186803b15801561295a57600080fd5b505af415801561296e573d6000803e3d6000fd5b505050506040513d602081101561298457600080fd5b5051151561299157600080fd5b336000908152600460209081526040808320600160a060020a03861684526005019091529020548313156129c457600080fd5b336000908152600460209081526040808320600160a060020a03861684526005019091529020546129fb908463ffffffff61412616565b336000818152600460208181526040808420600160a060020a038981168087526005830185528387209890985584845282516060810184528b8152428186019081528185018a8152600194850180548087018255908a52878a2093516003909102909301928355905193820193909355915160029092018054600160a060020a03191692909116919091179055805160e060020a63a9059cbb0281529283019490945260248201889052925186955063a9059cbb9360448084019491938390030190829087803b158015612ace57600080fd5b505af1158015612ae2573d6000803e3d6000fd5b505050506040513d6020811015612af857600080fd5b50506040805133815260208101859052600160a060020a0384168183015290516000805160206142118339815191529181900360600190a1505050565b612b3d6140a4565b15612b4757600080fd5b80600160a060020a0381161515612b5d57600080fd5b33600160a060020a0383161415612b7357600080fd5b600160a060020a0382166000908152600660205260409020541515612b9757600080fd5b600160a060020a03821660008181526007602090815260408083203380855290835292819020805460ff1916600117905580519283529082019290925281517fc1a150ff03b69a4427e67ec0bd386387c48960aaedcb788c4c2547d65267b7cf929181900390910190a15050565b6000600160a060020a0383161515612c1c57600080fd5b600160a060020a03821615612c5a57600160a060020a0380841660009081526004602090815260408083209386168352600790930190522054610a4e565b5050600160a060020a031660009081526004602052604090206006015490565b600054600160a060020a031681565b612c916140a4565b1515612c9c57600080fd5b600054600160a060020a0316ff5b60606040519081016040528060268152602001600080516020614251833981519152815260200160d160020a6530b1ba34b7b70281525081565b336000908152600660205260408120548190819081901515612d0557600080fd5b85600160a060020a0381161515612d1b57600080fd5b85600160a060020a0381161515612d3157600080fd5b600160a060020a03881660009081526004602052604090206006810154600290910154612d639163ffffffff6140b516565b95506000861215612d7057fe5b600160a060020a03808916600090815260046020819052604080832060028101849055600601839055928a1682529190200154612db3908763ffffffff61406c16565b600160a060020a03808916600090815260046020819052604080832090910193909355908a1681529081206008015490955093505b83851015612f7a57600160a060020a0388166000908152600460205260409020600801805486908110612e1757fe5b600091825260208083209190910154600160a060020a038b8116845260048352604080852091909216808552600782018452828520546003909201909352922054909450612e64916140b5565b95506000861215612e7157fe5b600160a060020a03888116600090815260046020818152604080842088861680865260038201845282862086905560079091018352818520859055948c16845291815281832093835260059093019092522054612ece908761406c565b600160a060020a0388811660009081526004602090815260408083209388168352600584018252808320949094556009909201909152205460ff161515612f6f57600160a060020a038088166000908152600460208181526040808420948816808552600986018352908420805460ff191660019081179091559282526008909401805492830181558352909120018054600160a060020a03191690911790555b600190940193612de8565b60408051600160a060020a03808b1682528916602082015281517f6688cbffb22f246356f22b23cfd2e4b7272230c403a85a09deb3372d922148e3929181900390910190a15050505050505050565b6000612fd36140a4565b1515612fde57600080fd5b600160a060020a0383161515612ff357600080fd5b600160a060020a03831630141561300957600080fd5b816040516020018082805190602001908083835b6020831061303c5780518252601f19909201916020918201910161301d565b6001836020036101000a0380198251168184511680821785525050505050509050019150506040516020818303038152906040526040518082805190602001908083835b6020831061309f5780518252601f199092019160209182019101613080565b51815160209384036101000a60001901801990921691161790526040805192909401829003909120600160a060020a038916600090815260038352848120828252909252929020549194505060ff16151591506130fd905057600080fd5b600160a060020a03831660008181526003602090815260408083208584528252808320805460ff19169055805193845283820181815286519185019190915285517feebefd451a21fa8c2ee52c17288fdf2295ba42012f68bf3019cfef7e5858b729948894889491939260608501928601918190849084905b8381101561318e578181015183820152602001613176565b50505050905090810190601f1680156131bb5780820380516001836020036101000a031916815260200191505b50935050505060405180910390a1505050565b60006131d86140a4565b15156131e357600080fd5b600160a060020a03821615156131f857600080fd5b600160a060020a03821630141561320e57600080fd5b600054600160a060020a03838116911614613284575060008054600160a060020a03838116600160a060020a0319831681179093556040805191909216808252602082019390935281517f1c3c3d32752a939db9ac720da757226033136f4b2c9878c337e09f5c85b108da929181900390910190a15b5050565b6040805160608101825260268152600080516020614251833981519152602082015260d160020a6530b1ba34b7b702918101919091526000805490918291600160a060020a03163314806132e157506132e1338261165b565b15156132ec57600080fd5b600160a060020a038616151561330157600080fd5b8473__SafeMathInt___________________________636b84d93190916040518263ffffffff1660e060020a0281526004018082815260200191505060206040518083038186803b15801561335557600080fd5b505af4158015613369573d6000803e3d6000fd5b505050506040513d602081101561337f57600080fd5b5051151561338c57600080fd5b339250600160a060020a038416151561344d57600160a060020a0386166000908152600460205260409020600201546133cb908663ffffffff61412616565b600160a060020a03808816600081815260046020819052604080832060020195909555845160e060020a63aa5f2eab0281529081019290925292519186169263aa5f2eab928992602480820193929182900301818588803b15801561342f57600080fd5b505af1158015613443573d6000803e3d6000fd5b50505050506135a1565b600160a060020a0380871660009081526004602090815260408083209388168352600390930190522054613487908663ffffffff61412616565b600160a060020a0380881660009081526004602081815260408084208a86168086526003909101835281852096909655805160e060020a63a9059cbb02815294891692850192909252602484018a9052905188965063a9059cbb93604480820194918390030190829087803b1580156134ff57600080fd5b505af1158015613513573d6000803e3d6000fd5b505050506040513d602081101561352957600080fd5b50506040805160e360020a630d0846c7028152600160a060020a03888116600483015260248201889052868116604483015291519185169163684236389160648082019260009290919082900301818387803b15801561358857600080fd5b505af115801561359c573d6000803e3d6000fd5b505050505b505050505050565b60006135b36140a4565b15156135be57600080fd5b50600160a060020a031660009081526004602052604090206001015490565b60006135e76140a4565b156135f157600080fd5b6135fb338361414d565b151561360657600080fd5b600160a060020a038216151561361b57600080fd5b73__SafeMathInt___________________________63802d10af346040518263ffffffff1660e060020a0281526004018082815260200191505060206040518083038186803b15801561366d57600080fd5b505af4158015613681573d6000803e3d6000fd5b505050506040513d602081101561369757600080fd5b5051600160a060020a0383166000908152600460205260409020600601549091506136c8908263ffffffff61406c16565b600160a060020a038316600081815260046020908152604080832060060194909455835192835282018490528183015290516000805160206142318339815191529181900360600190a15050565b60006137206140a4565b151561372b57600080fd5b600160a060020a038316151561374057600080fd5b600160a060020a03831630141561375657600080fd5b816040516020018082805190602001908083835b602083106137895780518252601f19909201916020918201910161376a565b6001836020036101000a0380198251168184511680821785525050505050509050019150506040516020818303038152906040526040518082805190602001908083835b602083106137ec5780518252601f1990920191602091820191016137cd565b51815160209384036101000a60001901801990921691161790526040805192909401829003909120600160a060020a038916600090815260038352848120828252909252929020549194505060ff16159150613849905057600080fd5b600160a060020a03831660008181526003602090815260408083208584528252808320805460ff19166001179055805193845283820181815286519185019190915285517f2cb50c3fbbeeb6cd42ee7850e778c668f52b251b05282096dab51c69b078d7e6948894889491939260608501928601918190849084908381101561318e578181015183820152602001613176565b6138e46140a4565b156138ee57600080fd5b8073__SafeMathInt___________________________63a2ea1ca690916040518263ffffffff1660e060020a0281526004018082815260200191505060206040518083038186803b15801561394257600080fd5b505af4158015613956573d6000803e3d6000fd5b505050506040513d602081101561396c57600080fd5b5051151561397957600080fd5b336000908152600460208190526040909120015481131561399957600080fd5b33600090815260046020819052604090912001546139bd908263ffffffff61412616565b33600081815260046020818152604080842092830195909555845160608101865286815242818301908152818701858152600194850180548087018255908752938620925160039094029092019283555192820192909255905160029091018054600160a060020a031916600160a060020a03909216919091179055915190916108fc841502918491818181858888f19350505050158015613a63573d6000803e3d6000fd5b50604080513381526020810183905260008183015290516000805160206142118339815191529181900360600190a150565b613a9d6140a4565b15613aa757600080fd5b8173__SafeMathInt___________________________636b84d93190916040518263ffffffff1660e060020a0281526004018082815260200191505060206040518083038186803b158015613afb57600080fd5b505af4158015613b0f573d6000803e3d6000fd5b505050506040513d6020811015613b2557600080fd5b50511515613b3257600080fd5b600160a060020a0381161515613c4e5733600090815260046020818152604092839020820154835160e160020a633aac3ad90281529283018690526024830152915173__SafeMathInt___________________________9263755875b29260448082019391829003018186803b158015613bab57600080fd5b505af4158015613bbf573d6000803e3d6000fd5b505050506040513d6020811015613bd557600080fd5b50519150811515613be557613284565b3360009081526004602081905260409091200154613c09908363ffffffff61412616565b3360009081526004602081905260409091209081019190915560020154613c36908363ffffffff61406c16565b33600090815260046020526040902060020155613da0565b336000908152600460208181526040808420600160a060020a038616855260050182529283902054835160e160020a633aac3ad90281529283018690526024830152915173__SafeMathInt___________________________9263755875b29260448082019391829003018186803b158015613cc957600080fd5b505af4158015613cdd573d6000803e3d6000fd5b505050506040513d6020811015613cf357600080fd5b50519150811515613d0357613284565b336000908152600460209081526040808320600160a060020a0385168452600501909152902054613d3a908363ffffffff61412616565b336000908152600460209081526040808320600160a060020a038616845260058101835281842094909455600390930190522054613d78908361406c565b336000908152600460209081526040808320600160a060020a03861684526003019091529020555b6040805133815260208101849052600160a060020a0383168183015290517f719b47aa9cbb63ef0592ad50f9a982d57a4fb8e2ee698e696fb775245422325f9181900360600190a15050565b6000613df66140a4565b1515613e0157600080fd5b81600160a060020a0381161515613e1757600080fd5b600160a060020a03831660009081526002602052604090205460ff1615613e415760009150611655565b6001805480820182557fb10e2d527612073b26eecdfd717e6a320cf44b4afac2b0732d9fcbe2b7fa0cf6018054600160a060020a031916600160a060020a038616908117909155600081815260026020908152604091829020805460ff19169094179093558051918252517fdd62ff6d9c23793871e7d4796bde6c5dfb2bf8bcbd4186411cee3eb9f6189521929181900390910190a150600192915050565b613284338284610a57565b6000600160a060020a0383161515613f0257600080fd5b600160a060020a03821615613f4057600160a060020a0380841660009081526004602090815260408083209386168352600590930190522054610a4e565b5050600160a060020a03166000908152600460208190526040909120015490565b6000613f6b6140a4565b1515613f7657600080fd5b50600160a060020a031660009081526004602052604090205490565b613f9a6140a4565b1515613fa557600080fd5b80600160a060020a0381161515613fbb57600080fd5b81600160a060020a038116301415613fd257600080fd5b600054600160a060020a0384811691161415613fed57600080fd5b600160a060020a0383166000908152600660205260409020541561401057600080fd5b600554600160a060020a038416600081815260066020908152604091829020429094019093558051918252517fb619d545cb511bd5f02907a1eac4f4cb8dace7b1846852fb0bf5e553937481c1929181900390910190a1505050565b60008060008412158015614081575060008312155b151561408c57600080fd5b508282018381121561409d57600080fd5b9392505050565b600054600160a060020a0316331490565b60008282018183128015906140ca5750838112155b806140df57506000831280156140df57508381125b151561409d57600080fd5b60008082121580156140fe57508282840313155b806141155750600082128015614115575082828403135b151561412057600080fd5b50900390565b6000808312158015614139575060008212155b801561411557508282131561412057600080fd5b600081600160a060020a031683600160a060020a0316141561417157506000610a51565b600160a060020a038316600090815260066020526040902054151561419857506000610a51565b600160a060020a0383166000908152600660205260409020544210156141c057506000610a51565b50600160a060020a03918216600090815260076020908152604080832093909416825291909152205460ff1615905600726573657276655f66756e5f6164645f746f5f73746167655f616374696f6e004e7aef60767f348ff3def93afb852331ca0d07e4f04caa9e412081e7002689797de651e4eddc50a4af8cbab6bd21bc2f50ce7eacd32ffa41b8d46342b3af09ef726573657276655f66756e645f6765745f66726f6d5f6465706f73697465645ff79e66a9f018d841e6690d66a935ef25989e4e25c20849808b07412b3f5acd53a165627a7a7230582096232d9f2f535ee9dcf68683d561ebbf3f7000f6c383c20da8b3ac83efac06e30029",
  "source": "/*\n * Hubii Striim\n *\n * Compliant with the Hubii Striim specification v0.12.\n *\n * Copyright (C) 2017-2018 Hubii AS\n */\n\npragma solidity ^0.4.24;\n\nimport {SafeMathInt} from \"./SafeMathInt.sol\";\nimport {Ownable} from \"./Ownable.sol\";\nimport {ERC20} from \"./ERC20.sol\";\nimport {Beneficiary} from \"./Beneficiary.sol\";\nimport {Benefactor} from \"./Benefactor.sol\";\nimport {ReserveFund} from \"./ReserveFund.sol\";\nimport {Servable} from \"./Servable.sol\";\nimport {SelfDestructible} from \"./SelfDestructible.sol\";\n\n/**\n@title Client fund\n@notice Where clients crypto is deposited into, staged and withdrawn from.\n*/\ncontract ClientFund is Ownable, Beneficiary, Benefactor, Servable, SelfDestructible {\n    using SafeMathInt for int256;\n\n    //\n    // Constants\n    // -----------------------------------------------------------------------------------------------------------------\n    string constant public reserveFundGetFromDepositedAction = \"reserve_fund_get_from_deposited_action\";\n    string constant public reserveFundAddToStagedAction = \"reserve_fun_add_to_stage_action\";\n\n    //\n    // Structures\n    // -----------------------------------------------------------------------------------------------------------------\n    struct DepositInfo {\n        int256 amount;\n        uint256 timestamp;\n        address token;      //0 for ethers\n    }\n\n    struct WithdrawalInfo {\n        int256 amount;\n        uint256 timestamp;\n        address token;      //0 for ethers\n    }\n\n    struct WalletInfo {\n        DepositInfo[] deposits;\n        WithdrawalInfo[] withdrawals;\n\n        // Deposited balance of ethers and tokens.\n        int256 depositedEtherBalance;\n        mapping(address => int256) depositedTokenBalance;\n\n        // Staged balance of ethers and tokens.\n        int256 stagedEtherBalance;\n        mapping(address => int256) stagedTokenBalance;\n\n        // Settled balance of ethers and tokens.\n        int256 settledEtherBalance;\n        mapping(address => int256) settledTokenBalance;\n\n        address[] inUseTokenList;\n        mapping(address => bool) inUseTokenMap;\n    }\n\n    //\n    // Variables\n    // -----------------------------------------------------------------------------------------------------------------\n    mapping(address => WalletInfo) private walletInfoMap;\n\n    uint256 public serviceActivationTimeout;\n    mapping(address => uint256) private registeredServicesMap;\n    mapping(address => mapping(address => bool)) private disabledServicesMap;\n\n    //\n    // Events\n    // -----------------------------------------------------------------------------------------------------------------\n    event DepositEvent(address from, int256 amount, address token); //token==0 for ethers\n    event TransferFromDepositedToSettledBalanceEvent(address from, address to, int256 amount, address token); //token==0 for ethers\n    event WithdrawFromDepositedBalanceEvent(address from, address to, int256 amount, address token); //token==0 for ethers\n    event DepositToSettledBalance(address to, int256 amount, address token); //token==0 for ethers\n    event StageEvent(address from, int256 amount, address token); //token==0 for ethers\n    event StageToEvent(address from, int256 amount, address token, address beneficiary); //token==0 for ethers\n    event UnstageEvent(address from, int256 amount, address token); //token==0 for ethers\n    event SeizeDepositedAndSettledBalancesEvent(address sourceWallet, address targetWallet);\n    event WithdrawEvent(address to, int256 amount, address token);  //token==0 for ethers\n    event RegisterServiceEvent(address service);\n    event EnableRegisteredServiceEvent(address wallet, address service);\n    event DisableRegisteredServiceEvent(address wallet, address service);\n\n    //\n    // Constructor\n    // -----------------------------------------------------------------------------------------------------------------\n    constructor(address _owner) Ownable(_owner) Beneficiary() Benefactor() public {\n        serviceActivationTimeout = 1 weeks;\n    }\n\n    //\n    // Functions\n    // -----------------------------------------------------------------------------------------------------------------\n    function setServiceActivationTimeout(uint256 timeoutInSeconds) public onlyOwner {\n        serviceActivationTimeout = timeoutInSeconds;\n    }\n\n    //\n    // Deposit functions\n    // -----------------------------------------------------------------------------------------------------------------\n    function() public payable {\n        receiveEthers(msg.sender);\n    }\n\n    function receiveEthers(address wallet) public payable {\n        int256 amount = SafeMathInt.toNonZeroInt256(msg.value);\n\n        //add to per-wallet deposited balance\n        walletInfoMap[wallet].depositedEtherBalance = walletInfoMap[wallet].depositedEtherBalance.add_nn(amount);\n        walletInfoMap[wallet].deposits.push(DepositInfo(amount, block.timestamp, address(0)));\n\n        //emit event\n        emit DepositEvent(wallet, amount, address(0));\n    }\n\n    function depositTokens(address token, int256 amount) public {\n        receiveTokens(msg.sender, amount, token);\n    }\n\n    //NOTE: 'wallet' must call ERC20.approve first\n    function receiveTokens(address wallet, int256 amount, address token) public {\n\n        require(token != address(0));\n        require(amount.isNonZeroPositiveInt256());\n\n        //try to execute token transfer\n        ERC20 erc20 = ERC20(token);\n        require(erc20.transferFrom(wallet, this, uint256(amount)));\n\n        //add to per-wallet deposited balance\n        walletInfoMap[wallet].depositedTokenBalance[token] = walletInfoMap[wallet].depositedTokenBalance[token].add_nn(amount);\n        walletInfoMap[wallet].deposits.push(DepositInfo(amount, block.timestamp, token));\n\n        //add token to in-use list\n        if (!walletInfoMap[wallet].inUseTokenMap[token]) {\n            walletInfoMap[wallet].inUseTokenMap[token] = true;\n            walletInfoMap[wallet].inUseTokenList.push(token);\n        }\n\n        //emit event\n        emit DepositEvent(wallet, amount, token);\n    }\n\n    function deposit(address wallet, uint index) public view onlyOwner returns (int256 amount, uint256 timestamp, address token) {\n        require(index < walletInfoMap[wallet].deposits.length);\n\n        amount = walletInfoMap[wallet].deposits[index].amount;\n        timestamp = walletInfoMap[wallet].deposits[index].timestamp;\n        token = walletInfoMap[wallet].deposits[index].token;\n    }\n\n    function depositCount(address wallet) public view onlyOwner returns (uint256) {\n        return walletInfoMap[wallet].deposits.length;\n    }\n\n    //\n    // Balance functions\n    // -----------------------------------------------------------------------------------------------------------------\n    function depositedBalance(address wallet, address token) public view returns (int256) {\n        require(wallet != address(0));\n\n        return token == address(0) ? walletInfoMap[wallet].depositedEtherBalance : walletInfoMap[wallet].depositedTokenBalance[token];\n    }\n\n    function stagedBalance(address wallet, address token) public view returns (int256) {\n        require(wallet != address(0));\n\n        return token == address(0) ? walletInfoMap[wallet].stagedEtherBalance : walletInfoMap[wallet].stagedTokenBalance[token];\n    }\n\n    function settledBalance(address wallet, address token) public view returns (int256) {\n        require(wallet != address(0));\n\n        return token == address(0) ? walletInfoMap[wallet].settledEtherBalance : walletInfoMap[wallet].settledTokenBalance[token];\n    }\n\n    //\n    // Transfers functions\n    // -----------------------------------------------------------------------------------------------------------------\n    function transferFromDepositedToSettledBalance(address sourceWallet, address destWallet, int256 amount, address token) public notOwner {\n        require(isAcceptedServiceForWallet(msg.sender, sourceWallet));\n        require(isAcceptedServiceForWallet(msg.sender, destWallet));\n        require(sourceWallet != address(0));\n        require(destWallet != address(0));\n        require(sourceWallet != destWallet);\n        require(SafeMathInt.isNonZeroPositiveInt256(amount));\n\n        if (token == address(0)) {\n            //move from deposited balance to settled (sub_nn will check for sufficient balance)\n            walletInfoMap[sourceWallet].depositedEtherBalance = walletInfoMap[sourceWallet].depositedEtherBalance.sub_nn(amount);\n            walletInfoMap[destWallet].settledEtherBalance = walletInfoMap[destWallet].stagedEtherBalance.add(amount);\n        } else {\n            //move from deposited balance to settled (sub_nn will check for sufficient balance)\n            walletInfoMap[sourceWallet].depositedTokenBalance[token] = walletInfoMap[sourceWallet].depositedTokenBalance[token].sub_nn(amount);\n            walletInfoMap[destWallet].settledTokenBalance[token] = walletInfoMap[destWallet].settledTokenBalance[token].add(amount);\n        }\n\n        //emit event\n        emit TransferFromDepositedToSettledBalanceEvent(sourceWallet, destWallet, amount, token);\n    }\n\n    function withdrawFromDepositedBalance(address sourceWallet, address destWallet, int256 amount, address token) public notOwner {\n        require(isAcceptedServiceForWallet(msg.sender, sourceWallet));\n        require(isAcceptedServiceForWallet(msg.sender, destWallet));\n        require(sourceWallet != address(0));\n        require(destWallet != address(0));\n        require(sourceWallet != destWallet);\n        require(amount.isNonZeroPositiveInt256());\n\n        if (token == address(0)) {\n            //(sub_nn will check for sufficient balance)\n            walletInfoMap[sourceWallet].depositedEtherBalance = walletInfoMap[sourceWallet].depositedEtherBalance.sub_nn(amount);\n\n            //execute transfer\n            destWallet.transfer(uint256(amount));\n        } else {\n            //(sub_nn will check for sufficient balance)\n            walletInfoMap[sourceWallet].depositedTokenBalance[token] = walletInfoMap[sourceWallet].depositedTokenBalance[token].sub_nn(amount);\n\n            //execute transfer\n            ERC20 erc20 = ERC20(token);\n            erc20.transfer(destWallet, uint256(amount));\n        }\n\n        //emit event\n        emit WithdrawFromDepositedBalanceEvent(sourceWallet, destWallet, amount, token);\n    }\n\n    function depositEthersToSettledBalance(address destWallet) public payable notOwner {\n        int256 amount;\n\n        require(isAcceptedServiceForWallet(msg.sender, destWallet));\n        require(destWallet != address(0));\n        amount = SafeMathInt.toNonZeroInt256(msg.value);\n\n        //add to per-wallet staged balance\n        walletInfoMap[destWallet].settledEtherBalance = walletInfoMap[destWallet].settledEtherBalance.add_nn(amount);\n\n        //emit event\n        emit DepositToSettledBalance(destWallet, amount, address(0));\n    }\n\n    //NOTE: msg.sender must call ERC20.approve first\n    function depositTokensToSettledBalance(address destWallet, address token, int256 amount) public notOwner {\n        require(isAcceptedServiceForWallet(msg.sender, destWallet));\n        require(destWallet != address(0));\n        require(amount.isNonZeroPositiveInt256());\n\n        //add to per-wallet settled balance\n        walletInfoMap[destWallet].settledTokenBalance[token] = walletInfoMap[destWallet].settledTokenBalance[token].add_nn(amount);\n\n        //add token to in-use list\n        if (!walletInfoMap[destWallet].inUseTokenMap[token]) {\n            walletInfoMap[destWallet].inUseTokenMap[token] = true;\n            walletInfoMap[destWallet].inUseTokenList.push(token);\n        }\n\n        //try to execute token transfer\n        ERC20 erc20 = ERC20(token);\n        require(erc20.transferFrom(msg.sender, destWallet, uint256(amount)));\n\n        //emit event\n        emit DepositToSettledBalance(destWallet, amount, token);\n    }\n\n    function stage(int256 amount, address token) public notOwner {\n        int256 amount_copy;\n        int256 to_move;\n\n        require(amount.isPositiveInt256());\n\n        if (token == address(0)) {\n            //clamp amount to move\n            amount = amount.clampMax(walletInfoMap[msg.sender].depositedEtherBalance.add(walletInfoMap[msg.sender].settledEtherBalance));\n            if (amount <= 0)\n                return;\n\n            amount_copy = amount;\n\n            //move from settled balance to staged, if balance greater than zero\n            if (walletInfoMap[msg.sender].settledEtherBalance > 0) {\n                to_move = amount.clampMax(walletInfoMap[msg.sender].settledEtherBalance);\n\n                walletInfoMap[msg.sender].settledEtherBalance = walletInfoMap[msg.sender].settledEtherBalance.sub(to_move);\n                amount = amount.sub(to_move);\n            }\n\n            //move (remaining) from deposited balance to staged\n            walletInfoMap[msg.sender].depositedEtherBalance = walletInfoMap[msg.sender].depositedEtherBalance.sub_nn(amount);\n\n            //add to staged balance\n            walletInfoMap[msg.sender].stagedEtherBalance = walletInfoMap[msg.sender].stagedEtherBalance.add_nn(amount_copy);\n        } else {\n            //clamp amount to move\n            amount = amount.clampMax(walletInfoMap[msg.sender].depositedTokenBalance[token].add(walletInfoMap[msg.sender].settledTokenBalance[token]));\n            if (amount <= 0)\n                return;\n\n            amount_copy = amount;\n\n            //move from settled balance to staged, if balance greater than zero\n            if (walletInfoMap[msg.sender].settledTokenBalance[token] > 0) {\n                to_move = amount.clampMax(walletInfoMap[msg.sender].settledTokenBalance[token]);\n\n                walletInfoMap[msg.sender].settledTokenBalance[token] = walletInfoMap[msg.sender].settledTokenBalance[token].sub(to_move);\n                amount = amount.sub(to_move);\n            }\n\n            //move (remaining) from deposited balance to staged\n            walletInfoMap[msg.sender].depositedTokenBalance[token] = walletInfoMap[msg.sender].depositedTokenBalance[token].sub_nn(amount);\n\n            //add to staged balance\n            walletInfoMap[msg.sender].stagedTokenBalance[token] = walletInfoMap[msg.sender].stagedTokenBalance[token].add_nn(amount_copy);\n        }\n\n        //emit event\n        emit StageEvent(msg.sender, amount, token);\n    }\n\n    function stageTo(int256 amount, address token, address beneficiary) public notOwner {\n        int256 amount_copy;\n        int256 to_move;\n        Beneficiary beneficiary_sc;\n\n        require(amount.isPositiveInt256());\n        require(isRegisteredBeneficiary(beneficiary));\n\n        beneficiary_sc = Beneficiary(beneficiary);\n\n        if (token == address(0)) {\n            //clamp amount to move\n            amount = amount.clampMax(walletInfoMap[msg.sender].depositedEtherBalance.add(walletInfoMap[msg.sender].settledEtherBalance));\n            if (amount <= 0)\n                return;\n\n            amount_copy = amount;\n\n            //move from settled balance to staged, if balance greater than zero\n            if (walletInfoMap[msg.sender].settledEtherBalance > 0) {\n                to_move = amount.clampMax(walletInfoMap[msg.sender].settledEtherBalance);\n\n                walletInfoMap[msg.sender].settledEtherBalance = walletInfoMap[msg.sender].settledEtherBalance.sub(to_move);\n                amount = amount.sub(to_move);\n            }\n\n            //move (remaining) from deposited balance\n            walletInfoMap[msg.sender].depositedEtherBalance = walletInfoMap[msg.sender].depositedEtherBalance.sub_nn(amount);\n\n            //transfer funds to the beneficiary\n            beneficiary_sc.receiveEthers.value(uint256(amount))(msg.sender);\n        } else {\n\n            //clamp amount to move\n            amount = amount.clampMax(walletInfoMap[msg.sender].depositedTokenBalance[token].add(walletInfoMap[msg.sender].settledTokenBalance[token]));\n            if (amount <= 0)\n                return;\n\n            amount_copy = amount;\n\n            //move from settled balance to staged, if balance greater than zero\n            if (walletInfoMap[msg.sender].settledTokenBalance[token] > 0) {\n                to_move = amount.clampMax(walletInfoMap[msg.sender].settledTokenBalance[token]);\n\n                walletInfoMap[msg.sender].settledTokenBalance[token] = walletInfoMap[msg.sender].settledTokenBalance[token].sub(to_move);\n                amount = amount.sub(to_move);\n            }\n\n            //move (remaining) from deposited balance to staged\n            walletInfoMap[msg.sender].depositedTokenBalance[token] = walletInfoMap[msg.sender].depositedTokenBalance[token].sub_nn(amount);\n\n            //first approve token transfer\n            ERC20 erc20 = ERC20(token);\n            require(erc20.approve(beneficiary, uint256(amount)));\n\n            //transfer funds to the beneficiary\n            beneficiary_sc.receiveTokens(msg.sender, amount, token);\n        }\n\n        //emit event\n        emit StageToEvent(msg.sender, amount, token, beneficiary);\n    }\n\n    function unstage(int256 amount, address token) public notOwner {\n        require(amount.isPositiveInt256());\n\n        if (token == address(0)) {\n            //clamp amount to move\n            amount = amount.clampMax(walletInfoMap[msg.sender].stagedEtherBalance);\n            if (amount == 0)\n                return;\n\n            //move from staged balance to deposited\n            walletInfoMap[msg.sender].stagedEtherBalance = walletInfoMap[msg.sender].stagedEtherBalance.sub_nn(amount);\n            walletInfoMap[msg.sender].depositedEtherBalance = walletInfoMap[msg.sender].depositedEtherBalance.add_nn(amount);\n        } else {\n            //clamp amount to move\n            amount = amount.clampMax(walletInfoMap[msg.sender].stagedTokenBalance[token]);\n            if (amount == 0)\n                return;\n\n            //move between balances\n            walletInfoMap[msg.sender].stagedTokenBalance[token] = walletInfoMap[msg.sender].stagedTokenBalance[token].sub_nn(amount);\n            walletInfoMap[msg.sender].depositedTokenBalance[token] = walletInfoMap[msg.sender].depositedTokenBalance[token].add_nn(amount);\n        }\n\n        //emit event\n        emit UnstageEvent(msg.sender, amount, token);\n    }\n\n    function seizeDepositedAndSettledBalances(address sourceWallet, address targetWallet) public onlyRegisteredService notNullAddress(sourceWallet) notNullAddress(targetWallet) {\n        int256 amount;\n        uint256 i;\n        uint256 len;\n\n        //seize ethers\n        amount = walletInfoMap[sourceWallet].depositedEtherBalance.add(walletInfoMap[sourceWallet].settledEtherBalance);\n        assert(amount >= 0);\n\n        walletInfoMap[sourceWallet].depositedEtherBalance = 0;\n        walletInfoMap[sourceWallet].settledEtherBalance = 0;\n        //add to staged balance\n        walletInfoMap[targetWallet].stagedEtherBalance = walletInfoMap[targetWallet].stagedEtherBalance.add_nn(amount);\n\n        //seize tokens\n        len = walletInfoMap[sourceWallet].inUseTokenList.length;\n        for (i = 0; i < len; i++) {\n            address token = walletInfoMap[sourceWallet].inUseTokenList[i];\n\n            amount = walletInfoMap[sourceWallet].depositedTokenBalance[token].add(walletInfoMap[sourceWallet].settledTokenBalance[token]);\n            assert(amount >= 0);\n\n            walletInfoMap[sourceWallet].depositedTokenBalance[token] = 0;\n            walletInfoMap[sourceWallet].settledTokenBalance[token] = 0;\n\n            //add to staged balance\n            walletInfoMap[targetWallet].stagedTokenBalance[token] = walletInfoMap[targetWallet].stagedTokenBalance[token].add_nn(amount);\n\n            //add token to in-use list\n            if (!walletInfoMap[targetWallet].inUseTokenMap[token]) {\n                walletInfoMap[targetWallet].inUseTokenMap[token] = true;\n                walletInfoMap[targetWallet].inUseTokenList.push(token);\n            }\n        }\n\n        //emit event\n        emit SeizeDepositedAndSettledBalancesEvent(sourceWallet, targetWallet);\n    }\n\n    //\n    // Reserve funds functions\n    // -----------------------------------------------------------------------------------------------------------------\n    function reserveFundGetFromDeposited(address wallet, int256 amount, address token) public onlyOwnerOrServiceAction(reserveFundGetFromDepositedAction) {\n        require(wallet != address(0));\n        require(amount.isPositiveInt256());\n\n        ReserveFund reserveFund = ReserveFund(msg.sender);\n\n        if (token == address(0)) {\n            walletInfoMap[wallet].depositedEtherBalance = walletInfoMap[wallet].depositedEtherBalance.sub_nn(amount);\n\n            reserveFund.receiveEthers.value(uint256(amount))(wallet);\n        } else {\n            walletInfoMap[wallet].depositedTokenBalance[token] = walletInfoMap[wallet].depositedTokenBalance[token].sub_nn(amount);\n\n            ERC20 erc20 = ERC20(token);\n            erc20.transfer(reserveFund, uint256(amount));\n\n            reserveFund.registerReceivedTokens(wallet, amount, token);\n        }\n    }\n\n    function reserveFundAddToStaged(address wallet, int256 amount, address token) public payable onlyOwnerOrServiceAction(reserveFundAddToStagedAction) {\n        require(wallet != address(0));\n        require(amount.isPositiveInt256());\n\n        if (token == address(0)) {\n            walletInfoMap[wallet].settledEtherBalance = walletInfoMap[wallet].settledEtherBalance.add(amount);\n        } else {\n            ERC20 erc20 = ERC20(token);\n            erc20.transferFrom(msg.sender, this, uint256(amount));\n\n            walletInfoMap[wallet].settledTokenBalance[token] = walletInfoMap[wallet].settledTokenBalance[token].add(amount);\n        }\n    }\n\n    //\n    // Withdrawal functions\n    // -----------------------------------------------------------------------------------------------------------------\n    function withdrawEthers(int256 amount) public notOwner {\n        require(amount.isNonZeroPositiveInt256());\n\n        //check for sufficient balance\n        require(amount <= walletInfoMap[msg.sender].stagedEtherBalance);\n\n        //subtract to per-wallet staged balance\n        walletInfoMap[msg.sender].stagedEtherBalance = walletInfoMap[msg.sender].stagedEtherBalance.sub_nn(amount);\n        walletInfoMap[msg.sender].withdrawals.push(WithdrawalInfo(amount, block.timestamp, address(0)));\n\n        //execute transfer\n        msg.sender.transfer(uint256(amount));\n\n        //emit event\n        emit WithdrawEvent(msg.sender, amount, address(0));\n    }\n\n    function withdrawTokens(int256 amount, address token) public notOwner {\n        require(token != address(0));\n        require(amount.isNonZeroPositiveInt256());\n\n        //check for sufficient balance\n        require(amount <= walletInfoMap[msg.sender].stagedTokenBalance[token]);\n\n        //subtract to per-wallet staged balance\n        walletInfoMap[msg.sender].stagedTokenBalance[token] = walletInfoMap[msg.sender].stagedTokenBalance[token].sub_nn(amount);\n        walletInfoMap[msg.sender].withdrawals.push(WithdrawalInfo(amount, block.timestamp, token));\n\n        //execute transfer\n        ERC20 erc20 = ERC20(token);\n        erc20.transfer(msg.sender, uint256(amount));\n\n        //emit event\n        emit WithdrawEvent(msg.sender, amount, token);\n    }\n\n    function withdrawal(address wallet, uint index) public view onlyOwner returns (int256 amount, uint256 timestamp, address token) {\n        require(index < walletInfoMap[wallet].withdrawals.length);\n\n        amount = walletInfoMap[wallet].withdrawals[index].amount;\n        timestamp = walletInfoMap[wallet].withdrawals[index].timestamp;\n        token = walletInfoMap[wallet].withdrawals[index].token;\n    }\n\n    function withdrawalCount(address wallet) public view onlyOwner returns (uint256) {\n        return walletInfoMap[wallet].withdrawals.length;\n    }\n\n    //\n    // Service functions\n    // -----------------------------------------------------------------------------------------------------------------\n    function registerService(address service) public onlyOwner notNullAddress(service) notMySelfAddress(service) {\n        require(service != owner);\n\n        //ensure service is not already registered\n        require(registeredServicesMap[service] == 0);\n\n        //register and set activation time\n        registeredServicesMap[service] = block.timestamp + serviceActivationTimeout;\n\n        //emit event\n        emit RegisterServiceEvent(service);\n    }\n\n    function enableRegisteredService(address service) public notOwner notNullAddress(service) {\n        require(msg.sender != service);\n\n        //ensure service is registered\n        require(registeredServicesMap[service] != 0);\n\n        //enable service for given wallet\n        disabledServicesMap[service][msg.sender] = false;\n\n        //emit event\n        emit EnableRegisteredServiceEvent(msg.sender, service);\n    }\n\n    function disableRegisteredService(address service) public notOwner notNullAddress(service) {\n        require(msg.sender != service);\n\n        //ensure service is registered\n        require(registeredServicesMap[service] != 0);\n\n        //disable service for given wallet\n        disabledServicesMap[service][msg.sender] = true;\n\n        //emit event\n        emit DisableRegisteredServiceEvent(msg.sender, service);\n    }\n\n    //\n    // Private methods\n    // -----------------------------------------------------------------------------------------------------------------\n\n    function isWalletServiceDisabled(address wallet, address service) private view returns (bool) {\n        return disabledServicesMap[service][wallet];\n    }\n\n    function isAcceptedServiceForWallet(address service, address wallet) private view returns (bool) {\n        if (service == wallet)\n            return false;\n        if (registeredServicesMap[service] == 0)\n            return false;\n        if (block.timestamp < registeredServicesMap[service])\n            return false;\n        return !disabledServicesMap[service][wallet];\n    }\n\n    //\n    // Modifiers\n    // -----------------------------------------------------------------------------------------------------------------\n    modifier notNullAddress(address _address) {\n        require(_address != address(0));\n        _;\n    }\n\n    modifier onlyRegisteredService() {\n        require(registeredServicesMap[msg.sender] != 0);\n        _;\n    }\n\n    modifier notMySelfAddress(address _address) {\n        require(_address != address(this));\n        _;\n    }\n}\n",
  "sourcePath": "/opt/buildagent/work/fbd328d2ef535808/contracts/ClientFund.sol",
  "compiler": {
    "name": "solc",
    "version": "0.4.24+commit.e67f0147.Emscripten.clang"
  },
  "schemaVersion": "2.0.0",
  "updatedAt": "2018-06-22T13:10:14.823Z"
}