{
  "contractName": "ClientFund",
  "abi": [
    {
      "constant": false,
      "inputs": [
        {
          "name": "service",
          "type": "address"
        }
      ],
      "name": "authorizeRegisteredService",
      "outputs": [],
      "payable": false,
      "stateMutability": "nonpayable",
      "type": "function"
    },
    {
      "constant": true,
      "inputs": [
        {
          "name": "beneficiary",
          "type": "address"
        }
      ],
      "name": "isRegisteredBeneficiary",
      "outputs": [
        {
          "name": "",
          "type": "bool"
        }
      ],
      "payable": false,
      "stateMutability": "view",
      "type": "function"
    },
    {
      "constant": false,
      "inputs": [
        {
          "name": "newOperator",
          "type": "address"
        }
      ],
      "name": "changeOperator",
      "outputs": [],
      "payable": false,
      "stateMutability": "nonpayable",
      "type": "function"
    },
    {
      "constant": true,
      "inputs": [
        {
          "name": "service",
          "type": "address"
        }
      ],
      "name": "isRegisteredActiveService",
      "outputs": [
        {
          "name": "",
          "type": "bool"
        }
      ],
      "payable": false,
      "stateMutability": "view",
      "type": "function"
    },
    {
      "constant": false,
      "inputs": [
        {
          "name": "beneficiary",
          "type": "address"
        }
      ],
      "name": "deregisterBeneficiary",
      "outputs": [
        {
          "name": "",
          "type": "bool"
        }
      ],
      "payable": false,
      "stateMutability": "nonpayable",
      "type": "function"
    },
    {
      "constant": false,
      "inputs": [
        {
          "name": "service",
          "type": "address"
        },
        {
          "name": "action",
          "type": "string"
        }
      ],
      "name": "enableServiceAction",
      "outputs": [],
      "payable": false,
      "stateMutability": "nonpayable",
      "type": "function"
    },
    {
      "constant": true,
      "inputs": [
        {
          "name": "service",
          "type": "address"
        }
      ],
      "name": "isRegisteredService",
      "outputs": [
        {
          "name": "",
          "type": "bool"
        }
      ],
      "payable": false,
      "stateMutability": "view",
      "type": "function"
    },
    {
      "constant": false,
      "inputs": [
        {
          "name": "service",
          "type": "address"
        },
        {
          "name": "action",
          "type": "string"
        }
      ],
      "name": "disableServiceAction",
      "outputs": [],
      "payable": false,
      "stateMutability": "nonpayable",
      "type": "function"
    },
    {
      "constant": true,
      "inputs": [],
      "name": "serviceActivationTimeout",
      "outputs": [
        {
          "name": "",
          "type": "uint256"
        }
      ],
      "payable": false,
      "stateMutability": "view",
      "type": "function"
    },
    {
      "constant": true,
      "inputs": [],
      "name": "destructor",
      "outputs": [
        {
          "name": "",
          "type": "address"
        }
      ],
      "payable": false,
      "stateMutability": "view",
      "type": "function"
    },
    {
      "constant": false,
      "inputs": [
        {
          "name": "service",
          "type": "address"
        }
      ],
      "name": "deregisterService",
      "outputs": [],
      "payable": false,
      "stateMutability": "nonpayable",
      "type": "function"
    },
    {
      "constant": true,
      "inputs": [
        {
          "name": "service",
          "type": "address"
        },
        {
          "name": "wallet",
          "type": "address"
        }
      ],
      "name": "isAuthorizedServiceForWallet",
      "outputs": [
        {
          "name": "",
          "type": "bool"
        }
      ],
      "payable": false,
      "stateMutability": "view",
      "type": "function"
    },
    {
      "constant": true,
      "inputs": [],
      "name": "operator",
      "outputs": [
        {
          "name": "",
          "type": "address"
        }
      ],
      "payable": false,
      "stateMutability": "view",
      "type": "function"
    },
    {
      "constant": true,
      "inputs": [
        {
          "name": "service",
          "type": "address"
        },
        {
          "name": "action",
          "type": "string"
        }
      ],
      "name": "isEnabledServiceAction",
      "outputs": [
        {
          "name": "",
          "type": "bool"
        }
      ],
      "payable": false,
      "stateMutability": "view",
      "type": "function"
    },
    {
      "constant": false,
      "inputs": [
        {
          "name": "service",
          "type": "address"
        },
        {
          "name": "action",
          "type": "string"
        }
      ],
      "name": "authorizeRegisteredServiceAction",
      "outputs": [],
      "payable": false,
      "stateMutability": "nonpayable",
      "type": "function"
    },
    {
      "constant": false,
      "inputs": [
        {
          "name": "timeoutInSeconds",
          "type": "uint256"
        }
      ],
      "name": "setServiceActivationTimeout",
      "outputs": [],
      "payable": false,
      "stateMutability": "nonpayable",
      "type": "function"
    },
    {
      "constant": false,
      "inputs": [
        {
          "name": "service",
          "type": "address"
        },
        {
          "name": "action",
          "type": "string"
        }
      ],
      "name": "unauthorizeRegisteredServiceAction",
      "outputs": [],
      "payable": false,
      "stateMutability": "nonpayable",
      "type": "function"
    },
    {
      "constant": false,
      "inputs": [
        {
          "name": "service",
          "type": "address"
        }
      ],
      "name": "registerServiceDeferred",
      "outputs": [],
      "payable": false,
      "stateMutability": "nonpayable",
      "type": "function"
    },
    {
      "constant": false,
      "inputs": [],
      "name": "triggerDestroy",
      "outputs": [],
      "payable": false,
      "stateMutability": "nonpayable",
      "type": "function"
    },
    {
      "constant": false,
      "inputs": [
        {
          "name": "service",
          "type": "address"
        }
      ],
      "name": "unauthorizeRegisteredService",
      "outputs": [],
      "payable": false,
      "stateMutability": "nonpayable",
      "type": "function"
    },
    {
      "constant": true,
      "inputs": [],
      "name": "transferControllerManager",
      "outputs": [
        {
          "name": "",
          "type": "address"
        }
      ],
      "payable": false,
      "stateMutability": "view",
      "type": "function"
    },
    {
      "constant": false,
      "inputs": [
        {
          "name": "newAddress",
          "type": "address"
        }
      ],
      "name": "changeTransferControllerManager",
      "outputs": [],
      "payable": false,
      "stateMutability": "nonpayable",
      "type": "function"
    },
    {
      "constant": false,
      "inputs": [
        {
          "name": "beneficiary",
          "type": "address"
        }
      ],
      "name": "registerBeneficiary",
      "outputs": [
        {
          "name": "",
          "type": "bool"
        }
      ],
      "payable": false,
      "stateMutability": "nonpayable",
      "type": "function"
    },
    {
      "constant": true,
      "inputs": [],
      "name": "deployer",
      "outputs": [
        {
          "name": "",
          "type": "address"
        }
      ],
      "payable": false,
      "stateMutability": "view",
      "type": "function"
    },
    {
      "constant": false,
      "inputs": [
        {
          "name": "newDeployer",
          "type": "address"
        }
      ],
      "name": "changeDeployer",
      "outputs": [],
      "payable": false,
      "stateMutability": "nonpayable",
      "type": "function"
    },
    {
      "constant": true,
      "inputs": [
        {
          "name": "service",
          "type": "address"
        },
        {
          "name": "action",
          "type": "string"
        },
        {
          "name": "wallet",
          "type": "address"
        }
      ],
      "name": "isAuthorizedServiceActionForWallet",
      "outputs": [
        {
          "name": "",
          "type": "bool"
        }
      ],
      "payable": false,
      "stateMutability": "view",
      "type": "function"
    },
    {
      "constant": false,
      "inputs": [
        {
          "name": "service",
          "type": "address"
        }
      ],
      "name": "registerService",
      "outputs": [],
      "payable": false,
      "stateMutability": "nonpayable",
      "type": "function"
    },
    {
      "inputs": [
        {
          "name": "owner",
          "type": "address"
        }
      ],
      "payable": false,
      "stateMutability": "nonpayable",
      "type": "constructor"
    },
    {
      "payable": true,
      "stateMutability": "payable",
      "type": "fallback"
    },
    {
      "anonymous": false,
      "inputs": [
        {
          "indexed": false,
          "name": "wallet",
          "type": "address"
        },
        {
          "indexed": false,
          "name": "amount",
          "type": "int256"
        },
        {
          "indexed": false,
          "name": "currencyCt",
          "type": "address"
        },
        {
          "indexed": false,
          "name": "currencyId",
          "type": "uint256"
        },
        {
          "indexed": false,
          "name": "standard",
          "type": "string"
        }
      ],
      "name": "DepositEvent",
      "type": "event"
    },
    {
      "anonymous": false,
      "inputs": [
        {
          "indexed": false,
          "name": "wallet",
          "type": "address"
        },
        {
          "indexed": false,
          "name": "amount",
          "type": "int256"
        },
        {
          "indexed": false,
          "name": "currencyCt",
          "type": "address"
        },
        {
          "indexed": false,
          "name": "currencyId",
          "type": "uint256"
        },
        {
          "indexed": false,
          "name": "standard",
          "type": "string"
        }
      ],
      "name": "WithdrawEvent",
      "type": "event"
    },
    {
      "anonymous": false,
      "inputs": [
        {
          "indexed": false,
          "name": "wallet",
          "type": "address"
        },
        {
          "indexed": false,
          "name": "amount",
          "type": "int256"
        },
        {
          "indexed": false,
          "name": "currencyCt",
          "type": "address"
        },
        {
          "indexed": false,
          "name": "currencyId",
          "type": "uint256"
        }
      ],
      "name": "StageEvent",
      "type": "event"
    },
    {
      "anonymous": false,
      "inputs": [
        {
          "indexed": false,
          "name": "wallet",
          "type": "address"
        },
        {
          "indexed": false,
          "name": "amount",
          "type": "int256"
        },
        {
          "indexed": false,
          "name": "currencyCt",
          "type": "address"
        },
        {
          "indexed": false,
          "name": "currencyId",
          "type": "uint256"
        }
      ],
      "name": "UnstageEvent",
      "type": "event"
    },
    {
      "anonymous": false,
      "inputs": [
        {
          "indexed": false,
          "name": "wallet",
          "type": "address"
        },
        {
          "indexed": false,
          "name": "amount",
          "type": "int256"
        },
        {
          "indexed": false,
          "name": "currencyCt",
          "type": "address"
        },
        {
          "indexed": false,
          "name": "currencyId",
          "type": "uint256"
        }
      ],
      "name": "UpdateSettledBalanceEvent",
      "type": "event"
    },
    {
      "anonymous": false,
      "inputs": [
        {
          "indexed": false,
          "name": "sourceWallet",
          "type": "address"
        },
        {
          "indexed": false,
          "name": "beneficiary",
          "type": "address"
        },
        {
          "indexed": false,
          "name": "amount",
          "type": "int256"
        },
        {
          "indexed": false,
          "name": "currencyCt",
          "type": "address"
        },
        {
          "indexed": false,
          "name": "currencyId",
          "type": "uint256"
        }
      ],
      "name": "StageToBeneficiaryEvent",
      "type": "event"
    },
    {
      "anonymous": false,
      "inputs": [
        {
          "indexed": false,
          "name": "sourceWallet",
          "type": "address"
        },
        {
          "indexed": false,
          "name": "beneficiary",
          "type": "address"
        },
        {
          "indexed": false,
          "name": "amount",
          "type": "int256"
        },
        {
          "indexed": false,
          "name": "currencyCt",
          "type": "address"
        },
        {
          "indexed": false,
          "name": "currencyId",
          "type": "uint256"
        }
      ],
      "name": "StageToBeneficiaryUntargetedEvent",
      "type": "event"
    },
    {
      "anonymous": false,
      "inputs": [
        {
          "indexed": false,
          "name": "sourceWallet",
          "type": "address"
        },
        {
          "indexed": false,
          "name": "targetWallet",
          "type": "address"
        }
      ],
      "name": "SeizeAllBalancesEvent",
      "type": "event"
    },
    {
      "anonymous": false,
      "inputs": [
        {
          "indexed": false,
          "name": "oldTransferControllerManager",
          "type": "address"
        },
        {
          "indexed": false,
          "name": "newTransferControllerManager",
          "type": "address"
        }
      ],
      "name": "ChangeTransferControllerManagerEvent",
      "type": "event"
    },
    {
      "anonymous": false,
      "inputs": [
        {
          "indexed": false,
          "name": "wallet",
          "type": "address"
        },
        {
          "indexed": false,
          "name": "service",
          "type": "address"
        }
      ],
      "name": "AuthorizeRegisteredServiceEvent",
      "type": "event"
    },
    {
      "anonymous": false,
      "inputs": [
        {
          "indexed": false,
          "name": "wallet",
          "type": "address"
        },
        {
          "indexed": false,
          "name": "service",
          "type": "address"
        },
        {
          "indexed": false,
          "name": "action",
          "type": "string"
        }
      ],
      "name": "AuthorizeRegisteredServiceActionEvent",
      "type": "event"
    },
    {
      "anonymous": false,
      "inputs": [
        {
          "indexed": false,
          "name": "wallet",
          "type": "address"
        },
        {
          "indexed": false,
          "name": "service",
          "type": "address"
        }
      ],
      "name": "UnauthorizeRegisteredServiceEvent",
      "type": "event"
    },
    {
      "anonymous": false,
      "inputs": [
        {
          "indexed": false,
          "name": "wallet",
          "type": "address"
        },
        {
          "indexed": false,
          "name": "service",
          "type": "address"
        },
        {
          "indexed": false,
          "name": "action",
          "type": "string"
        }
      ],
      "name": "UnauthorizeRegisteredServiceActionEvent",
      "type": "event"
    },
    {
      "anonymous": false,
      "inputs": [
        {
          "indexed": false,
          "name": "timeoutInSeconds",
          "type": "uint256"
        }
      ],
      "name": "ServiceActivationTimeoutEvent",
      "type": "event"
    },
    {
      "anonymous": false,
      "inputs": [
        {
          "indexed": false,
          "name": "service",
          "type": "address"
        }
      ],
      "name": "RegisterServiceEvent",
      "type": "event"
    },
    {
      "anonymous": false,
      "inputs": [
        {
          "indexed": false,
          "name": "service",
          "type": "address"
        },
        {
          "indexed": false,
          "name": "timeout",
          "type": "uint256"
        }
      ],
      "name": "RegisterServiceDeferredEvent",
      "type": "event"
    },
    {
      "anonymous": false,
      "inputs": [
        {
          "indexed": false,
          "name": "service",
          "type": "address"
        }
      ],
      "name": "DeregisterServiceEvent",
      "type": "event"
    },
    {
      "anonymous": false,
      "inputs": [
        {
          "indexed": false,
          "name": "service",
          "type": "address"
        },
        {
          "indexed": false,
          "name": "action",
          "type": "string"
        }
      ],
      "name": "EnableServiceActionEvent",
      "type": "event"
    },
    {
      "anonymous": false,
      "inputs": [
        {
          "indexed": false,
          "name": "service",
          "type": "address"
        },
        {
          "indexed": false,
          "name": "action",
          "type": "string"
        }
      ],
      "name": "DisableServiceActionEvent",
      "type": "event"
    },
    {
      "anonymous": false,
      "inputs": [
        {
          "indexed": false,
          "name": "beneficiary",
          "type": "address"
        }
      ],
      "name": "RegisterBeneficiaryEvent",
      "type": "event"
    },
    {
      "anonymous": false,
      "inputs": [
        {
          "indexed": false,
          "name": "beneficiary",
          "type": "address"
        }
      ],
      "name": "DeregisterBeneficiaryEvent",
      "type": "event"
    },
    {
      "anonymous": false,
      "inputs": [
        {
          "indexed": false,
          "name": "oldDeployer",
          "type": "address"
        },
        {
          "indexed": false,
          "name": "newDeployer",
          "type": "address"
        }
      ],
      "name": "ChangeDeployerEvent",
      "type": "event"
    },
    {
      "anonymous": false,
      "inputs": [
        {
          "indexed": false,
          "name": "oldOperator",
          "type": "address"
        },
        {
          "indexed": false,
          "name": "newOperator",
          "type": "address"
        }
      ],
      "name": "ChangeOperatorEvent",
      "type": "event"
    },
    {
      "constant": false,
      "inputs": [
        {
          "name": "wallet",
          "type": "address"
        }
      ],
      "name": "depositEthersTo",
      "outputs": [],
      "payable": true,
      "stateMutability": "payable",
      "type": "function"
    },
    {
      "constant": false,
      "inputs": [
        {
          "name": "amount",
          "type": "int256"
        },
        {
          "name": "currencyCt",
          "type": "address"
        },
        {
          "name": "currencyId",
          "type": "uint256"
        },
        {
          "name": "standard",
          "type": "string"
        }
      ],
      "name": "depositTokens",
      "outputs": [],
      "payable": false,
      "stateMutability": "nonpayable",
      "type": "function"
    },
    {
      "constant": false,
      "inputs": [
        {
          "name": "wallet",
          "type": "address"
        },
        {
          "name": "amount",
          "type": "int256"
        },
        {
          "name": "currencyCt",
          "type": "address"
        },
        {
          "name": "currencyId",
          "type": "uint256"
        },
        {
          "name": "standard",
          "type": "string"
        }
      ],
      "name": "depositTokensTo",
      "outputs": [],
      "payable": false,
      "stateMutability": "nonpayable",
      "type": "function"
    },
    {
      "constant": true,
      "inputs": [
        {
          "name": "wallet",
          "type": "address"
        },
        {
          "name": "index",
          "type": "uint256"
        }
      ],
      "name": "deposit",
      "outputs": [
        {
          "name": "amount",
          "type": "int256"
        },
        {
          "name": "timestamp",
          "type": "uint256"
        },
        {
          "name": "currencyCt",
          "type": "address"
        },
        {
          "name": "currencyId",
          "type": "uint256"
        }
      ],
      "payable": false,
      "stateMutability": "view",
      "type": "function"
    },
    {
      "constant": true,
      "inputs": [
        {
          "name": "wallet",
          "type": "address"
        }
      ],
      "name": "depositCount",
      "outputs": [
        {
          "name": "",
          "type": "uint256"
        }
      ],
      "payable": false,
      "stateMutability": "view",
      "type": "function"
    },
    {
      "constant": true,
      "inputs": [
        {
          "name": "wallet",
          "type": "address"
        },
        {
          "name": "currencyCt",
          "type": "address"
        },
        {
          "name": "currencyId",
          "type": "uint256"
        }
      ],
      "name": "depositedBalance",
      "outputs": [
        {
          "name": "",
          "type": "int256"
        }
      ],
      "payable": false,
      "stateMutability": "view",
      "type": "function"
    },
    {
      "constant": true,
      "inputs": [
        {
          "name": "wallet",
          "type": "address"
        },
        {
          "name": "currencyCt",
          "type": "address"
        },
        {
          "name": "currencyId",
          "type": "uint256"
        }
      ],
      "name": "settledBalance",
      "outputs": [
        {
          "name": "",
          "type": "int256"
        }
      ],
      "payable": false,
      "stateMutability": "view",
      "type": "function"
    },
    {
      "constant": true,
      "inputs": [
        {
          "name": "wallet",
          "type": "address"
        },
        {
          "name": "currencyCt",
          "type": "address"
        },
        {
          "name": "currencyId",
          "type": "uint256"
        }
      ],
      "name": "stagedBalance",
      "outputs": [
        {
          "name": "",
          "type": "int256"
        }
      ],
      "payable": false,
      "stateMutability": "view",
      "type": "function"
    },
    {
      "constant": false,
      "inputs": [
        {
          "name": "wallet",
          "type": "address"
        },
        {
          "name": "amount",
          "type": "int256"
        },
        {
          "name": "currencyCt",
          "type": "address"
        },
        {
          "name": "currencyId",
          "type": "uint256"
        }
      ],
      "name": "updateSettledBalance",
      "outputs": [],
      "payable": false,
      "stateMutability": "nonpayable",
      "type": "function"
    },
    {
      "constant": false,
      "inputs": [
        {
          "name": "wallet",
          "type": "address"
        },
        {
          "name": "amount",
          "type": "int256"
        },
        {
          "name": "currencyCt",
          "type": "address"
        },
        {
          "name": "currencyId",
          "type": "uint256"
        }
      ],
      "name": "stage",
      "outputs": [],
      "payable": false,
      "stateMutability": "nonpayable",
      "type": "function"
    },
    {
      "constant": false,
      "inputs": [
        {
          "name": "amount",
          "type": "int256"
        },
        {
          "name": "currencyCt",
          "type": "address"
        },
        {
          "name": "currencyId",
          "type": "uint256"
        }
      ],
      "name": "unstage",
      "outputs": [],
      "payable": false,
      "stateMutability": "nonpayable",
      "type": "function"
    },
    {
      "constant": false,
      "inputs": [
        {
          "name": "beneficiary",
          "type": "address"
        },
        {
          "name": "amount",
          "type": "int256"
        },
        {
          "name": "currencyCt",
          "type": "address"
        },
        {
          "name": "currencyId",
          "type": "uint256"
        }
      ],
      "name": "stageToBeneficiary",
      "outputs": [],
      "payable": false,
      "stateMutability": "nonpayable",
      "type": "function"
    },
    {
      "constant": false,
      "inputs": [
        {
          "name": "sourceWallet",
          "type": "address"
        },
        {
          "name": "beneficiary",
          "type": "address"
        },
        {
          "name": "amount",
          "type": "int256"
        },
        {
          "name": "currencyCt",
          "type": "address"
        },
        {
          "name": "currencyId",
          "type": "uint256"
        }
      ],
      "name": "stageToBeneficiaryUntargeted",
      "outputs": [],
      "payable": false,
      "stateMutability": "nonpayable",
      "type": "function"
    },
    {
      "constant": false,
      "inputs": [
        {
          "name": "sourceWallet",
          "type": "address"
        },
        {
          "name": "targetWallet",
          "type": "address"
        }
      ],
      "name": "seizeAllBalances",
      "outputs": [],
      "payable": false,
      "stateMutability": "nonpayable",
      "type": "function"
    },
    {
      "constant": false,
      "inputs": [
        {
          "name": "amount",
          "type": "int256"
        },
        {
          "name": "currencyCt",
          "type": "address"
        },
        {
          "name": "currencyId",
          "type": "uint256"
        },
        {
          "name": "standard",
          "type": "string"
        }
      ],
      "name": "withdraw",
      "outputs": [],
      "payable": false,
      "stateMutability": "nonpayable",
      "type": "function"
    },
    {
      "constant": true,
      "inputs": [
        {
          "name": "wallet",
          "type": "address"
        },
        {
          "name": "index",
          "type": "uint256"
        }
      ],
      "name": "withdrawal",
      "outputs": [
        {
          "name": "amount",
          "type": "int256"
        },
        {
          "name": "timestamp",
          "type": "uint256"
        },
        {
          "name": "token",
          "type": "address"
        },
        {
          "name": "id",
          "type": "uint256"
        }
      ],
      "payable": false,
      "stateMutability": "view",
      "type": "function"
    },
    {
      "constant": true,
      "inputs": [
        {
          "name": "wallet",
          "type": "address"
        }
      ],
      "name": "withdrawalCount",
      "outputs": [
        {
          "name": "",
          "type": "uint256"
        }
      ],
      "payable": false,
      "stateMutability": "view",
      "type": "function"
    }
  ],
  "bytecode": "0x60806040523480156200001157600080fd5b506040516020806200434a8339810180604052620000339190810190620000b0565b8080600160a060020a03811615156200004b57600080fd5b600160a060020a0381163014156200006257600080fd5b5060008054600160a060020a03909216600160a060020a03199283168117909155600180549092161790555062093a80600555620000e5565b6000620000a98251620000d9565b9392505050565b600060208284031215620000c357600080fd5b6000620000d184846200009b565b949350505050565b600160a060020a031690565b61425580620000f56000396000f3006080604052600436106102005763ffffffff60e060020a60003504166301f3241f811461020b57806304fd31301461022b57806306394c9b146102615780630bf378b7146102815780630f200f9b146102ae57806312e94dda146102ce57806317ba3f90146102ee5780631caf1d6d1461030e5780632b5672e31461032e5780632b91e0a91461034e57806332bdcb821461036e5780633b58c501146103815780633b7bea6c146103a15780633ed5d71c146103b6578063406b20f8146103d65780634476d23b146103f657806347e7ef24146104185780634f383b5e1461044857806350b08c021461046857806356b2986b14610488578063570ca735146104a85780635a6b26ba146104bd5780635df1b0a3146104dd57806362ac7621146104fd5780636a1724a01461051d57806376788ffa1461053d5780637e15dd5c1461055d5780637f2900681461057d5780638a2f30cc1461059d5780638e38a4b6146105bd5780638e8cef12146105dd57806394dd293c146105fd578063a3e5175d14610612578063af30b31214610632578063affc0fa014610654578063b3d8bcdc14610674578063c5e07d3a14610694578063cd49737d146106b4578063cdd8b2b2146106d4578063d5f39488146106f4578063defdfae614610709578063f4443d9a14610729578063f45321d614610749578063fdd9ec7d14610769575b61020933610789565b005b34801561021757600080fd5b50610209610226366004613994565b61092d565b34801561023757600080fd5b5061024b610246366004613994565b610a04565b6040516102589190614057565b60405180910390f35b34801561026d57600080fd5b5061020961027c366004613994565b610a20565b34801561028d57600080fd5b506102a161029c3660046139ec565b610ad8565b604051610258919061408e565b3480156102ba57600080fd5b506102096102c9366004613d38565b610b24565b3480156102da57600080fd5b506102a16102e93660046139ec565b610e69565b3480156102fa57600080fd5b5061024b610309366004613994565b610ead565b34801561031a57600080fd5b5061024b610329366004613994565b610ee5565b34801561033a57600080fd5b50610209610349366004613b8e565b6110d2565b34801561035a57600080fd5b5061024b610369366004613994565b611202565b61020961037c366004613994565b610789565b34801561038d57600080fd5b5061020961039c366004613b8e565b611220565b3480156103ad57600080fd5b506102a1611302565b3480156103c257600080fd5b506102096103d1366004613d38565b611308565b3480156103e257600080fd5b506102096103f1366004613a39565b61131b565b34801561040257600080fd5b5061040b6113c7565b6040516102589190613e6f565b34801561042457600080fd5b50610438610433366004613c2f565b6113d7565b60405161025894939291906140aa565b34801561045457600080fd5b50610209610463366004613b0f565b611418565b34801561047457600080fd5b50610209610483366004613994565b6116b7565b34801561049457600080fd5b5061024b6104a33660046139b2565b61176d565b3480156104b457600080fd5b5061040b6117d3565b3480156104c957600080fd5b506104386104d8366004613c2f565b6117e2565b3480156104e957600080fd5b5061024b6104f8366004613b8e565b611813565b34801561050957600080fd5b50610209610518366004613b8e565b611864565b34801561052957600080fd5b50610209610538366004613d17565b611a25565b34801561054957600080fd5b50610209610558366004613c9b565b611be6565b34801561056957600080fd5b50610209610578366004613dc2565b611c3d565b34801561058957600080fd5b506102096105983660046139b2565b611c90565b3480156105a957600080fd5b506102096105b8366004613b8e565b611f99565b3480156105c957600080fd5b506102a16105d83660046139ec565b6120bd565b3480156105e957600080fd5b506102096105f8366004613994565b612101565b34801561060957600080fd5b5061020961217f565b34801561061e57600080fd5b5061020961062d366004613994565b6121ae565b34801561063e57600080fd5b50610647612335565b6040516102589190614065565b34801561066057600080fd5b5061020961066f366004613aae565b612344565b34801561068057600080fd5b506102a161068f366004613994565b6124b9565b3480156106a057600080fd5b506102096106af366004613cbd565b6124dd565b3480156106c057600080fd5b506102096106cf366004613aae565b612575565b3480156106e057600080fd5b5061024b6106ef366004613994565b6128cc565b34801561070057600080fd5b5061040b6129bb565b34801561071557600080fd5b50610209610724366004613994565b6129ca565b34801561073557600080fd5b506102a1610744366004613994565b612a74565b34801561075557600080fd5b5061024b610764366004613bd5565b612a98565b34801561077557600080fd5b50610209610784366004613994565b612b16565b60405160e060020a63802d10af02815260009073__SafeMathInt___________________________9063802d10af906107c690349060040161408e565b60206040518083038186803b1580156107de57600080fd5b505af41580156107f2573d6000803e3d6000fd5b505050506040513d601f19601f820116820180604052506108169190810190613cf9565b600160a060020a0383166000908152600b60205260408120919250610844919083908063ffffffff612b8f16565b600160a060020a0382166000908152600b602052604081206108749160039091019083908063ffffffff612c0716565b600160a060020a0382166000908152600b6020526040808220905160e260020a630ea18e7f02815273__InUseCurrencyLib______________________92633a8639fc926108cd926005909101919081906004016140d6565b60006040518083038186803b1580156108e557600080fd5b505af41580156108f9573d6000803e3d6000fd5b505050506000805160206141fc83398151915282826000806040516109219493929190613f1a565b60405180910390a15050565b610935612c7e565b1561093f57600080fd5b80600160a060020a038116151561095557600080fd5b600160a060020a03811630141561096b57600080fd5b33600160a060020a038316141561098157600080fd5b600160a060020a03821660009081526004602052604090205460ff1615156109a857600080fd5b600160a060020a038216600090815260066020908152604080832033808552925291829020805460ff1916905590517f7406a64e4e8c04b2a11d4cb484eb07cd5762012eafc449900b8d92de008ff27f91610921918590613e7d565b600160a060020a03166000908152600360205260408120541190565b6000610a2a612c8f565b1515610a3557600080fd5b81600160a060020a0381161515610a4b57600080fd5b600160a060020a038116301415610a6157600080fd5b600154600160a060020a03848116911614610ad35760018054600160a060020a03858116600160a060020a0319831617909255604051911692507f5bd9a4a09f08f75952905b16ac91d6821c47d52c3a968e583e6854b42757c58090610aca9084908690613e7d565b60405180910390a15b505050565b600083600160a060020a0381161515610af057600080fd5b600160a060020a0385166000908152600b60205260409020610b1990858563ffffffff612ca016565b91505b509392505050565b60405160e160020a6351750e5302815260009073__SafeMathInt___________________________9063a2ea1ca690610b6190889060040161408e565b60206040518083038186803b158015610b7957600080fd5b505af4158015610b8d573d6000803e3d6000fd5b505050506040513d601f19601f82011682018060405250610bb19190810190613c5f565b1515610bbc57600080fd5b336000908152600b6020526040902073__SafeMathInt___________________________9063755875b2908790610bfd90600101888863ffffffff612ca016565b6040518363ffffffff1660e060020a028152600401610c1d92919061409c565b60206040518083038186803b158015610c3557600080fd5b505af4158015610c49573d6000803e3d6000fd5b505050506040513d601f19601f82011682018060405250610c6d9190810190613cf9565b945060008513610c7c57610e62565b336000908152600b60205260409020610ca09060010186868663ffffffff612ce616565b336000908152600b60205260409020610cc49060030186868663ffffffff612d3316565b600160a060020a038416158015610cd9575082155b15610d1157604051339086156108fc029087906000818181858888f19350505050158015610d0b573d6000803e3d6000fd5b50610e22565b610d1b8483612dad565b905080600160a060020a031681600160a060020a0316633c229c266040518163ffffffff1660e060020a028152600401602060405180830381600087803b158015610d6557600080fd5b505af1158015610d79573d6000803e3d6000fd5b505050506040513d601f19601f82011682018060405250610d9d9190810190613c7d565b6040805160e060020a9283900463ffffffff8116909302815230600482015233602482015260448101899052600160a060020a038816606482015260848101879052905160a48083019260009291908290030181865af4925050501515610e225760405160e560020a62461bcd028152600401610e19906140b8565b60405180910390fd5b7f8e0adde15ffb742f47e7888277a26cea416253fcb63186dc4949fe493e92b77c3386868686604051610e59959493929190613f95565b60405180910390a15b5050505050565b600083600160a060020a0381161515610e8157600080fd5b600160a060020a0385166000908152600b60205260409020610b1990600101858563ffffffff612ca016565b6000610eb882611202565b8015610edf5750600160a060020a0382166000908152600460205260409020600101544210155b92915050565b600080610ef0612c7e565b1515610efb57600080fd5b82600160a060020a0381161515610f1157600080fd5b600160a060020a0384166000908152600360205260409020541515610f3957600092506110cb565b600160a060020a03841660009081526003602052604090205460025460001991820193500182101561103757600280546000198101908110610f7757fe5b60009182526020909120015460028054600160a060020a039092169184908110610f9d57fe5b9060005260206000200160006101000a815481600160a060020a030219169083600160a060020a031602179055508160010160036000600285815481101515610fe257fe5b6000918252602080832090910154600160a060020a0316835282019290925260400190205560028054600019810190811061101957fe5b60009182526020909120018054600160a060020a031916905561105f565b600280548390811061104557fe5b60009182526020909120018054600160a060020a03191690555b6002805490611072906000198301613840565b50600160a060020a03841660009081526003602052604080822091909155517f33f51cf787669db5b5aff6ba597298fd010748de93aaadef29aae876cef4a8c3906110be908690613e6f565b60405180910390a1600192505b5050919050565b60006110dc612c7e565b15156110e757600080fd5b82600160a060020a03811615156110fd57600080fd5b600160a060020a03811630141561111357600080fd5b600160a060020a03841660009081526004602052604090205460ff16151561113a57600080fd5b61114383612e50565b600160a060020a038516600090815260046020908152604080832084845260020190915290205490925060ff161561117a57600080fd5b600160a060020a0384166000908152600460208181526040808420868552600281018352818520805460ff19166001908117909155938352600301805493840181558452922001839055517fec1b982d69bfc1a6fd8becf191d9a633486c822d3bdedd52303ca81fa6357501906111f4908690869061401c565b60405180910390a150505050565b600160a060020a031660009081526004602052604090205460ff1690565b600061122a612c7e565b151561123557600080fd5b82600160a060020a038116151561124b57600080fd5b600160a060020a03811630141561126157600080fd5b61126a83612e50565b600160a060020a038516600090815260046020908152604080832084845260020190915290205490925060ff1615156112a257600080fd5b600160a060020a038416600090815260046020908152604080832085845260020190915290819020805460ff19169055517f92f4af6130f47c92f3899e06611c8c6ef191fb81207ad2675d134af619d2fe7d906111f4908690869061401c565b60055481565b6113153385858585611418565b50505050565b61132433610ead565b151561132f57600080fd5b84600160a060020a038116151561134557600080fd5b84600160a060020a038116151561135b57600080fd5b611365338861176d565b151561137057600080fd5b61137f87600088888888612f1a565b7fcafb6d2bcd37cdc22f38a042f78c8908da4fa4dc8f773a9aaab77d5a5455575d87878787876040516113b6959493929190613ece565b60405180910390a150505050505050565b600054600160a060020a03165b90565b600160a060020a0382166000908152600b60205260408120819081908190611408906003018663ffffffff6131f616565b9299919850965090945092505050565b60405160e160020a6351750e5302815260009073__SafeMathInt___________________________9063a2ea1ca69061145590889060040161408e565b60206040518083038186803b15801561146d57600080fd5b505af4158015611481573d6000803e3d6000fd5b505050506040513d601f19601f820116820180604052506114a59190810190613c5f565b15156114b057600080fd5b6114ba8483612dad565b905080600160a060020a031681600160a060020a031663ad502f576040518163ffffffff1660e060020a028152600401602060405180830381600087803b15801561150457600080fd5b505af1158015611518573d6000803e3d6000fd5b505050506040513d601f19601f8201168201806040525061153c9190810190613c7d565b6040805160e060020a9283900463ffffffff8116909302815233600482015230602482015260448101899052600160a060020a038816606482015260848101879052905160a48083019260009291908290030181865af49250505015156115a257600080fd5b600160a060020a0386166000908152600b602052604090206115cc9086868663ffffffff612b8f16565b600160a060020a0386166000908152600b602052604090206115f99060030186868663ffffffff612c0716565b600160a060020a0386166000908152600b602052604090819020905160e260020a630ea18e7f02815273__InUseCurrencyLib______________________91633a8639fc916116529160050190889088906004016140fe565b60006040518083038186803b15801561166a57600080fd5b505af415801561167e573d6000803e3d6000fd5b505050506000805160206141fc83398151915286868686866040516116a7959493929190613f95565b60405180910390a1505050505050565b6116bf612c7e565b15156116ca57600080fd5b80600160a060020a03811615156116e057600080fd5b600160a060020a0381163014156116f657600080fd5b600160a060020a03821660009081526004602052604090205460ff16151561171d57600080fd5b600160a060020a03821660009081526004602052604090819020805460ff19169055517f777645c5437dfbf962f57a281ead25f3d513f2f8e938685bbfc1738e81c9880e90610921908490613e6f565b600081600160a060020a031683600160a060020a0316141561179157506000610edf565b61179a83610ead565b80156117cc5750600160a060020a0380841660009081526006602090815260408083209386168352929052205460ff16155b9392505050565b600154600160a060020a031681565b600160a060020a0382166000908152600b60205260408120819081908190611408906003018663ffffffff6132b016565b60008061181f83612e50565b905061182a84610ead565b801561185c5750600160a060020a038416600090815260046020908152604080832084845260020190915290205460ff165b949350505050565b600061186e613355565b1561187857600080fd5b82600160a060020a038116151561188e57600080fd5b600160a060020a0381163014156118a457600080fd5b33600160a060020a03851614156118ba57600080fd5b6118c383612e50565b600160a060020a03851660009081526004602052604090205490925060ff1680156119145750600160a060020a038416600090815260046020908152604080832085845260020190915290205460ff165b151561191f57600080fd5b600160a060020a038416600081815260066020908152604080832033808552908352818420805460ff19908116600117909155858552600784528285208886528452828520828652845282852080549091169055938352600882528083208684528252808320938352929052205460ff1615156119f257600160a060020a0384166000818152600860209081526040808320868452825280832033808552908352818420805460ff1916600190811790915594845260098352818420908452825282208054938401815582529020018290555b7fc007803323f3ca89cb3f8af1a12f354dc108e9dd4988c312b3f7a878914987ce3385856040516111f493929190613e98565b611a2d612c7e565b15611a3757600080fd5b60405160e160020a6351750e5302815273__SafeMathInt___________________________9063a2ea1ca690611a7190869060040161408e565b60206040518083038186803b158015611a8957600080fd5b505af4158015611a9d573d6000803e3d6000fd5b505050506040513d601f19601f82011682018060405250611ac19190810190613c5f565b1515611acc57600080fd5b336000908152600b6020526040902073__SafeMathInt___________________________9063755875b2908590611b0d90600101868663ffffffff612ca016565b6040518363ffffffff1660e060020a028152600401611b2d92919061409c565b60206040518083038186803b158015611b4557600080fd5b505af4158015611b59573d6000803e3d6000fd5b505050506040513d601f19601f82011682018060405250611b7d9190810190613cf9565b9250821515611b8b57610ad3565b336000908152600b60205260409020611bb190600181019085858563ffffffff61337216565b7f013970fdfcc3b9ba3657604311c39270a2b090a94528cfdfd09abaddc6e8fb5233848484604051610aca9493929190613f60565b611bee612c7e565b15611bf857600080fd5b611c06333386868686612f1a565b7f3af3c9096da62c6c3938986d75a1b72363a1f1da79365987a822d9d8b1c7b14433858585856040516111f4959493929190613ece565b611c45612c7e565b1515611c5057600080fd5b60058190556040517f4f1d324a1cbffc352fb64f1d73d95e4b200d92f99ef39bf2d7f5b41f946909d690611c8590839061408e565b60405180910390a150565b6000806000611c9d613864565b611ca633610ead565b1515611cb157600080fd5b85600160a060020a0381161515611cc757600080fd5b85600160a060020a0381161515611cdd57600080fd5b611ce7338961176d565b1515611cf257600080fd5b600160a060020a0388166000908152600b602052604090819020905160e160020a6369c86ceb02815273__InUseCurrencyLib______________________9163d390d9d691611d4791600501906004016140c8565b60206040518083038186803b158015611d5f57600080fd5b505af4158015611d73573d6000803e3d6000fd5b505050506040513d601f19601f82011682018060405250611d979190810190613cf9565b9550600093505b85841015611f5657600160a060020a0388166000908152600b602052604090819020905160e460020a630b8ee39b02815273__InUseCurrencyLib______________________9163b8ee39b091611dfd91600501908890600401614126565b604080518083038186803b158015611e1457600080fd5b505af4158015611e28573d6000803e3d6000fd5b505050506040513d601f19601f82011682018060405250611e4c9190810190613da4565b9250611e61888460000151856020015161338a565b94506000851215611e6e57fe5b611e818884600001518560200151613413565b8251602080850151600160a060020a038a166000908152600b9092526040909120611eba9260019091019188919063ffffffff612b8f16565b600160a060020a0387166000908152600b6020908152604091829020855191860151925160e260020a630ea18e7f02815273__InUseCurrencyLib______________________93633a8639fc93611f1a93600501929091906004016140fe565b60006040518083038186803b158015611f3257600080fd5b505af4158015611f46573d6000803e3d6000fd5b505060019095019450611d9e9050565b7fb452fad80b33c7d612bdb3269370f36bd4a4bfb4c7fe6f2d64d7937204b51fe58888604051611f87929190613e7d565b60405180910390a15050505050505050565b6000611fa3613355565b15611fad57600080fd5b82600160a060020a0381161515611fc357600080fd5b600160a060020a038116301415611fd957600080fd5b33600160a060020a0385161415611fef57600080fd5b611ff883612e50565b600160a060020a03851660009081526004602052604090205490925060ff1680156120495750600160a060020a038416600090815260046020908152604080832085845260020190915290205460ff165b151561205457600080fd5b600160a060020a0384166000908152600760209081526040808320858452825280832033808552925291829020805460ff1916600117905590517f6fa0cdb0b5c22004ccfcaee11eed450e0184dda8edd417ae2410f0a883fdb740916111f49187908790613e98565b600083600160a060020a03811615156120d557600080fd5b600160a060020a0385166000908152600b60205260409020610b1990600201858563ffffffff612ca016565b612109612c7e565b151561211457600080fd5b80600160a060020a038116151561212a57600080fd5b600160a060020a03811630141561214057600080fd5b61214c8260055461349a565b7f7f3a8349917003ed377f6e9ae1608b92edd893903f8983bd274b1f8373dd3b118260055460405161092192919061403c565b6121876113c7565b600160a060020a0316331461219b57600080fd5b6121a36113c7565b600160a060020a0316ff5b60006121b8612c7e565b156121c257600080fd5b81600160a060020a03811615156121d857600080fd5b600160a060020a0381163014156121ee57600080fd5b33600160a060020a038416141561220457600080fd5b600160a060020a03831660009081526004602052604090205460ff16151561222b57600080fd5b600160a060020a03831660009081526006602090815260408083203384529091528120805460ff1916600117905591505b600160a060020a038316600090815260096020908152604080832033845290915290205482101561230457600160a060020a038316600090815260076020908152604080832060098352818420338552909252822080546001939190869081106122c257fe5b600091825260208083209190910154835282810193909352604091820181203382529092529020805460ff19169115159190911790556001919091019061225c565b7fe25d4094f2181ddef4410dcc1539a7488abd881a90c56078314b9f70affc5f7e3384604051610aca929190613e7d565b600a54600160a060020a031681565b600061234f33610ead565b151561235a57600080fd5b84600160a060020a038116151561237057600080fd5b61237a338761176d565b151561238557600080fd5b60405160e060020a636b84d93102815273__SafeMathInt___________________________90636b84d931906123bf90889060040161408e565b60206040518083038186803b1580156123d757600080fd5b505af41580156123eb573d6000803e3d6000fd5b505050506040513d601f19601f8201168201806040525061240f9190810190613c5f565b151561241a57600080fd5b600160a060020a0386166000908152600b602052604090206124549061244790868663ffffffff612ca016565b869063ffffffff6134ec16565b600160a060020a0387166000908152600b602052604090209092506124849060020183868663ffffffff61352816565b7f6ded3dfe9bc210e5b60b695bac6bd623844003b866c14264d44e91b8352a4fad868686866040516116a79493929190613f60565b600160a060020a0381166000908152600b60205260408120610edf9060030161356a565b60006124e7612c7e565b15156124f257600080fd5b81600160a060020a038116151561250857600080fd5b600a548390600160a060020a039081169082168114610e6257600a8054600160a060020a03878116600160a060020a0319831617909255604051911694507fbe6ec9788bd1e132647569c388954227d7eabe035533f580e43398e08969dfb990610e599086908890614073565b61257e33610ead565b151561258957600080fd5b612593338561176d565b151561259e57600080fd5b60405160e160020a6351750e5302815273__SafeMathInt___________________________9063a2ea1ca6906125d890869060040161408e565b60206040518083038186803b1580156125f057600080fd5b505af4158015612604573d6000803e3d6000fd5b505050506040513d601f19601f820116820180604052506126289190810190613c5f565b151561263357600080fd5b600160a060020a0384166000908152600b6020526040902073__SafeMathInt___________________________9063755875b29085906126b69061268190600201878763ffffffff612ca016565b600160a060020a0389166000908152600b602052604090206126aa90888863ffffffff612ca016565b9063ffffffff61357116565b6040518363ffffffff1660e060020a0281526004016126d692919061409c565b60206040518083038186803b1580156126ee57600080fd5b505af4158015612702573d6000803e3d6000fd5b505050506040513d601f19601f820116820180604052506127269190810190613cf9565b92506000831361273557611315565b600160a060020a0384166000908152600b602052604090206127d790849061276790600201858563ffffffff612ca016565b136127ae57600160a060020a0385166000908152600b602052604090206127a99061279c90600201858563ffffffff612ca016565b859063ffffffff6134ec16565b6127b1565b60005b600160a060020a0386166000908152600b6020526040902090848463ffffffff612ce616565b600160a060020a0384166000908152600b6020526040902061286a90849061280990600201858563ffffffff612ca016565b1361283f57600160a060020a0385166000908152600b6020526040902061283a90600201848463ffffffff612ca016565b612841565b835b600160a060020a0386166000908152600b6020526040902060020190848463ffffffff6135a616565b600160a060020a0384166000908152600b602052604090206128979060010184848463ffffffff612b8f16565b7f573abd56f40c687bfaaabb8d68c68c84cc343b51fe661ff2080e2a6977b3c2b4848484846040516111f49493929190613f60565b60006128d6612c7e565b15156128e157600080fd5b81600160a060020a03811615156128f757600080fd5b600160a060020a038316600090815260036020526040812054111561291f57600091506129b5565b600280546001810182557f405787fa12a823e0f2b7631cc41b3ba8828b3321ca811111fa75cd3aa3bb5ace018054600160a060020a031916600160a060020a03861690811790915590546000918252600360205260409182902055517fdd62ff6d9c23793871e7d4796bde6c5dfb2bf8bcbd4186411cee3eb9f6189521906129a8908590613e6f565b60405180910390a1600191505b50919050565b600054600160a060020a031681565b60006129d4612c7e565b15156129df57600080fd5b81600160a060020a03811615156129f557600080fd5b600160a060020a038116301415612a0b57600080fd5b600054600160a060020a03848116911614610ad35760008054600160a060020a03858116600160a060020a0319831617909255604051911692507fb52724aafc8bad3645fa843e328aaaa28d0bd8ed399cd62843de657b0caf75c790610aca9084908690613e7d565b600160a060020a0381166000908152600b60205260408120610edf906003016135f3565b60008082600160a060020a031685600160a060020a03161415612abe5760009150610b1c565b612ac784612e50565b9050612ad38585611813565b8015610b195750600160a060020a03808616600090815260076020908152604080832085845282528083209387168352929052205460ff16159150509392505050565b612b1e612c7e565b1515612b2957600080fd5b80600160a060020a0381161515612b3f57600080fd5b600160a060020a038116301415612b5557600080fd5b612b6082600061349a565b7fb619d545cb511bd5f02907a1eac4f4cb8dace7b1846852fb0bf5e553937481c1826040516109219190613e6f565b600160a060020a0382161515612baa578015612baa57600080fd5b600160a060020a038216600090815260208581526040808320848452909152902054612bdc908463ffffffff6135f716565b600160a060020a03909216600090815260209485526040808220928252919094529092209190915550565b60408051608081018252938452426020808601918252600160a060020a03948516928601928352606086019384528654600180820189556000988952919097209551600490970290950195865551938501939093559151600284018054600160a060020a0319169190921617905551600390910155565b600054600160a060020a0316331490565b600154600160a060020a0316331490565b6000600160a060020a0383161515612cbd578115612cbd57600080fd5b50600160a060020a03919091166000908152602092835260408082209282529190925290205490565b600160a060020a0382161515612d01578015612d0157600080fd5b600160a060020a038216600090815260208581526040808320848452909152902054612bdc908463ffffffff61362816565b60408051608081018252938452426020808601918252600160a060020a039485169286019283526060860193845260019687018054808901825560009182529190209551600490910290950194855551948401949094559251600283018054600160a060020a031916919092161790559051600390910155565b600a54600090600160a060020a03161515612dc757600080fd5b600a54604051600160e860020a61e3490203198152600160a060020a039091169063ff1cb70090612dfe908690869060040161401c565b602060405180830381600087803b158015612e1857600080fd5b505af1158015612e2c573d6000803e3d6000fd5b505050506040513d601f19601f820116820180604052506117cc9190810190613cdb565b6000816040516020018082805190602001908083835b60208310612e855780518252601f199092019160209182019101612e66565b6001836020036101000a0380198251168184511680821785525050505050509050019150506040516020818303038152906040526040518082805190602001908083835b60208310612ee85780518252601f199092019160209182019101612ec9565b5181516020939093036101000a6000190180199091169216919091179052604051920182900390912095945050505050565b60405160e160020a6351750e5302815273__SafeMathInt___________________________9063a2ea1ca690612f5490869060040161408e565b60206040518083038186803b158015612f6c57600080fd5b505af4158015612f80573d6000803e3d6000fd5b505050506040513d601f19601f82011682018060405250612fa49190810190613c5f565b1515612faf57600080fd5b612fb884610a04565b1515612fc357600080fd5b600160a060020a0386166000908152600b6020526040902073__SafeMathInt___________________________9063755875b290859061303a9061301190600201878763ffffffff612ca016565b600160a060020a038b166000908152600b602052604090206126aa90888863ffffffff612ca016565b6040518363ffffffff1660e060020a02815260040161305a92919061409c565b60206040518083038186803b15801561307257600080fd5b505af4158015613086573d6000803e3d6000fd5b505050506040513d601f19601f820116820180604052506130aa9190810190613cf9565b9250600083136130b9576131ee565b600160a060020a0386166000908152600b6020526040902061314e9084906130eb90600201858563ffffffff612ca016565b1361312557600160a060020a0387166000908152600b602052604090206131209061279c90600201858563ffffffff612ca016565b613128565b60005b600160a060020a0388166000908152600b6020526040902090848463ffffffff612ce616565b600160a060020a0386166000908152600b602052604090206131e190849061318090600201858563ffffffff612ca016565b136131b657600160a060020a0387166000908152600b602052604090206131b190600201848463ffffffff612ca016565b6131b8565b835b600160a060020a0388166000908152600b6020526040902060020190848463ffffffff6135a616565b6131ee858585858561364f565b505050505050565b8154600090819081908190851061320c57600080fd5b855486908690811061321a57fe5b9060005260206000209060040201600001549350856000018581548110151561323f57fe5b9060005260206000209060040201600101549250856000018581548110151561326457fe5b60009182526020909120600260049092020101548654600160a060020a03909116925086908690811061329357fe5b906000526020600020906004020160030154905092959194509250565b600182015460009081908190819085106132c957600080fd5b600186018054869081106132d957fe5b906000526020600020906004020160000154935085600101858154811015156132fe57fe5b9060005260206000209060040201600101549250856001018581548110151561332357fe5b6000918252602090912060026004909202010154600187018054600160a060020a039092169350908690811061329357fe5b600061335f612c7e565b8061336d575061336d612c8f565b905090565b61337e85848484612ce6565b610e6284848484612b8f565b600160a060020a0383166000908152600b6020526040812061185c906133ba90600101858563ffffffff612ca016565b600160a060020a0386166000908152600b602052604090206126aa906133ea90600201878763ffffffff612ca016565b600160a060020a0388166000908152600b602052604090206126aa90888863ffffffff612ca016565b600160a060020a0383166000908152600b6020526040812061343c91848463ffffffff61352816565b600160a060020a0383166000908152600b6020526040812061346b91600290910190848463ffffffff61352816565b600160a060020a0383166000908152600b60205260408120610ad391600190910190848463ffffffff61352816565b600160a060020a03821660009081526004602052604090205460ff1615156134e857600160a060020a0382166000908152600460205260409020805460ff1916600190811782554283019101555b5050565b600080821215801561350057508282840313155b806135175750600082128015613517575082828403135b151561352257600080fd5b50900390565b600160a060020a038216151561354357801561354357600080fd5b600160a060020a039091166000908152602093845260408082209282529190935290912055565b6001015490565b60008282018183128015906135865750838112155b8061359b575060008312801561359b57508381125b15156117cc57600080fd5b600160a060020a03821615156135c15780156135c157600080fd5b600160a060020a038216600090815260208581526040808320848452909152902054612bdc908463ffffffff6134ec16565b5490565b6000806000841215801561360c575060008312155b151561361757600080fd5b50828201838112156117cc57600080fd5b600080831215801561363b575060008212155b801561351757508282131561352257600080fd5b6000600160a060020a038316158015613666575081155b156136d35760405160e160020a63195ee5c1028152600160a060020a038616906332bdcb8290869061369c908a90600401613e6f565b6000604051808303818588803b1580156136b557600080fd5b505af11580156136c9573d6000803e3d6000fd5b50505050506131ee565b6136ed836020604051908101604052806000815250612dad565b905080600160a060020a031681600160a060020a0316631711a8946040518163ffffffff1660e060020a028152600401602060405180830381600087803b15801561373757600080fd5b505af115801561374b573d6000803e3d6000fd5b505050506040513d601f19601f8201168201806040525061376f9190810190613c7d565b6040805160e060020a9283900463ffffffff81169093028152600160a060020a038981166004830152602482018990528716604482015260648101869052905160848083019260009291908290030181865af49250505015156137d157600080fd5b60405160e160020a63279c1daf028152600160a060020a03861690634f383b5e90613806908990889088908890600401613fe7565b600060405180830381600087803b15801561382057600080fd5b505af1158015613834573d6000803e3d6000fd5b50505050505050505050565b815481835581811115610ad357600083815260209020610ad391810190830161387b565b604080518082019091526000808252602082015290565b6113d491905b808211156138955760008155600101613881565b5090565b60006117cc8235614185565b60006117cc8251614185565b60006117cc8251614191565b60006117cc8251614196565b60006117cc82356141a3565b60006117cc82516141a3565b60006117cc82356113d4565b60006117cc82516113d4565b6000601f8201831361390a57600080fd5b813561391d6139188261415a565b614134565b9150808252602083016020830185838301111561393957600080fd5b6139448382846141b9565b50505092915050565b60006040828403121561395f57600080fd5b6139696040614134565b9050600061397784846138a5565b8252506020613988848483016138ed565b60208301525092915050565b6000602082840312156139a657600080fd5b600061185c8484613899565b600080604083850312156139c557600080fd5b60006139d18585613899565b92505060206139e285828601613899565b9150509250929050565b600080600060608486031215613a0157600080fd5b6000613a0d8686613899565b9350506020613a1e86828701613899565b9250506040613a2f868287016138e1565b9150509250925092565b600080600080600060a08688031215613a5157600080fd5b6000613a5d8888613899565b9550506020613a6e888289016138c9565b9450506040613a7f888289016138e1565b9350506060613a9088828901613899565b9250506080613aa1888289016138e1565b9150509295509295909350565b60008060008060808587031215613ac457600080fd5b6000613ad08787613899565b9450506020613ae1878288016138e1565b9350506040613af287828801613899565b9250506060613b03878288016138e1565b91505092959194509250565b600080600080600060a08688031215613b2757600080fd5b6000613b338888613899565b9550506020613b44888289016138e1565b9450506040613b5588828901613899565b9350506060613b66888289016138e1565b92505060808601356001604060020a03811115613b8257600080fd5b613aa1888289016138f9565b60008060408385031215613ba157600080fd5b6000613bad8585613899565b92505060208301356001604060020a03811115613bc957600080fd5b6139e2858286016138f9565b600080600060608486031215613bea57600080fd5b6000613bf68686613899565b93505060208401356001604060020a03811115613c1257600080fd5b613c1e868287016138f9565b9250506040613a2f86828701613899565b60008060408385031215613c4257600080fd5b6000613c4e8585613899565b92505060206139e2858286016138e1565b600060208284031215613c7157600080fd5b600061185c84846138b1565b600060208284031215613c8f57600080fd5b600061185c84846138bd565b60008060008060808587031215613cb157600080fd5b6000613ad087876138c9565b600060208284031215613ccf57600080fd5b600061185c84846138c9565b600060208284031215613ced57600080fd5b600061185c84846138d5565b600060208284031215613d0b57600080fd5b600061185c84846138ed565b600080600060608486031215613d2c57600080fd5b6000613a0d86866138e1565b60008060008060808587031215613d4e57600080fd5b6000613d5a87876138e1565b9450506020613d6b87828801613899565b9350506040613d7c878288016138e1565b92505060608501356001604060020a03811115613d9857600080fd5b613b03878288016138f9565b600060408284031215613db657600080fd5b600061185c848461394d565b600060208284031215613dd457600080fd5b600061185c84846138e1565b613de981614185565b82525050565b613de981614191565b613de9816141a3565b613de9816113d4565b613de9816141ae565b6000613e1e82614181565b808452613e328160208601602086016141c5565b613e3b816141f1565b9093016020019392505050565b6003815260e960020a623ab33302602082015260400190565b6000815260200190565b9052565b60208101610edf8284613de0565b60408101613e8b8285613de0565b6117cc6020830184613de0565b60608101613ea68286613de0565b613eb36020830185613de0565b8181036040830152613ec58184613e13565b95945050505050565b60a08101613edc8288613de0565b613ee96020830187613df8565b613ef66040830186613e01565b613f036060830185613de0565b613f106080830184613e01565b9695505050505050565b60a08101613f288287613de0565b613f356020830186613e01565b613f426040830185613de0565b613f4f6060830184613e0a565b8181036080830152613f1081613e61565b60808101613f6e8287613de0565b613f7b6020830186613e01565b613f886040830185613de0565b613ec56060830184613e01565b60a08101613fa38288613de0565b613fb06020830187613e01565b613fbd6040830186613de0565b613fca6060830185613e01565b8181036080830152613fdc8184613e13565b979650505050505050565b60a08101613ff58287613de0565b6140026020830186613e01565b61400f6040830185613de0565b613f4f6060830184613e01565b6040810161402a8285613de0565b818103602083015261185c8184613e13565b6040810161404a8285613de0565b6117cc6020830184613e01565b60208101610edf8284613def565b60208101610edf8284613df8565b604081016140818285613df8565b6117cc6020830184613df8565b60208101610edf8284613e01565b6040810161404a8285613e01565b60808101613f6e8287613e01565b60208082528101610edf81613e48565b60208101610edf8284613e6b565b606081016140e48286613e6b565b6140f16020830185613de0565b61185c6040830184613e0a565b6060810161410c8286613e6b565b6141196020830185613de0565b61185c6040830184613e01565b6040810161404a8285613e6b565b6040518181016001604060020a038111828210171561415257600080fd5b604052919050565b60006001604060020a0382111561417057600080fd5b506020601f91909101601f19160190565b5190565b600160a060020a031690565b151590565b600160e060020a03191690565b6000610edf82614185565b6000610edf826113d4565b82818337506000910152565b60005b838110156141e05781810151838201526020016141c8565b838111156113155750506000910152565b601f01601f191690560040c19386897d9f44522a1850572060386c64b5f66cce986dd9115a1bb102dcfaa265627a7a72305820b232d35e0117b0cbd5e747208c31a4e0adfb0e2c30128950be67bcdb08b62cfe6c6578706572696d656e74616cf50037",
  "source": "/*\n * Hubii Nahmii\n *\n * Compliant with the Hubii Nahmii specification v0.12.\n *\n * Copyright (C) 2017-2018 Hubii AS\n */\n\npragma solidity ^0.4.24;\npragma experimental ABIEncoderV2;\n\nimport {SafeMathInt} from \"./SafeMathInt.sol\";\nimport {Beneficiary} from \"./Beneficiary.sol\";\nimport {Benefactor} from \"./Benefactor.sol\";\nimport {AuthorizableServable} from \"./AuthorizableServable.sol\";\nimport {Ownable} from \"./Ownable.sol\";\nimport {TransferControllerManageable} from \"./TransferControllerManageable.sol\";\nimport {TransferController} from \"./TransferController.sol\";\nimport {BalanceLib} from \"./BalanceLib.sol\";\nimport {TxHistoryLib} from \"./TxHistoryLib.sol\";\nimport {InUseCurrencyLib} from \"./InUseCurrencyLib.sol\";\nimport {MonetaryTypes} from \"./MonetaryTypes.sol\";\n\n/**\n@title Client fund\n@notice Where clients crypto is deposited into, staged and withdrawn from.\n*/\ncontract ClientFund is Ownable, Beneficiary, Benefactor, AuthorizableServable, TransferControllerManageable {\n    using BalanceLib for BalanceLib.Balance;\n    using TxHistoryLib for TxHistoryLib.TxHistory;\n    using InUseCurrencyLib for InUseCurrencyLib.InUseCurrency;\n    using SafeMathInt for int256;\n\n    //\n    // Structures\n    // -----------------------------------------------------------------------------------------------------------------\n    struct Wallet {\n        BalanceLib.Balance deposited;\n        BalanceLib.Balance staged;\n        BalanceLib.Balance settled;\n\n        TxHistoryLib.TxHistory txHistory;\n\n        InUseCurrencyLib.InUseCurrency inUseCurrencies;\n    }\n\n    //\n    // Variables\n    // -----------------------------------------------------------------------------------------------------------------\n    mapping(address => Wallet) private walletMap;\n\n    mapping(address => uint256) private registeredServicesMap;\n    mapping(address => mapping(address => bool)) private disabledServicesMap;\n\n    //\n    // Events\n    // -----------------------------------------------------------------------------------------------------------------\n    event DepositEvent(address wallet, int256 amount, address currencyCt, uint256 currencyId, string standard);\n    event WithdrawEvent(address wallet, int256 amount, address currencyCt, uint256 currencyId, string standard);\n    event StageEvent(address wallet, int256 amount, address currencyCt, uint256 currencyId);\n    event UnstageEvent(address wallet, int256 amount, address currencyCt, uint256 currencyId);\n    event UpdateSettledBalanceEvent(address wallet, int256 amount, address currencyCt, uint256 currencyId);\n    event StageToBeneficiaryEvent(address sourceWallet, address beneficiary, int256 amount, address currencyCt,\n        uint256 currencyId);\n    event StageToBeneficiaryUntargetedEvent(address sourceWallet, address beneficiary, int256 amount,\n        address currencyCt, uint256 currencyId);\n    event SeizeAllBalancesEvent(address sourceWallet, address targetWallet);\n\n    //\n    // Constructor\n    // -----------------------------------------------------------------------------------------------------------------\n    constructor(address owner) Ownable(owner) Beneficiary() Benefactor() public {\n        serviceActivationTimeout = 1 weeks;\n    }\n\n    //\n    // Functions\n    // -----------------------------------------------------------------------------------------------------------------\n    /// @notice Fallback function that deposits ethers to msg.sender's deposited balance\n    function() public payable {\n        depositEthersTo(msg.sender);\n    }\n\n    /// @notice Deposit ethers to the given wallet's deposited balance\n    /// @param wallet The address of the concerned wallet\n    function depositEthersTo(address wallet) public payable {\n        int256 amount = SafeMathInt.toNonZeroInt256(msg.value);\n\n        // Add to per-wallet deposited balance\n        walletMap[wallet].deposited.add(amount, address(0), 0);\n        walletMap[wallet].txHistory.addDeposit(amount, address(0), 0);\n\n        // Add currency to in-use list\n        walletMap[wallet].inUseCurrencies.addItem(address(0), 0);\n\n        // Emit event\n        emit DepositEvent(wallet, amount, address(0), 0, \"\");\n    }\n\n    /// @notice Deposit token to msg.sender's deposited balance\n    /// @dev The wallet must approve of this ClientFund's transfer prior to calling this function\n    /// @param amount The amount to deposit\n    /// @param currencyCt The address of the concerned currency contract (address(0) == ETH)\n    /// @param currencyId The ID of the concerned currency (0 for ETH and ERC20)\n    /// @param standard The standard of token (\"ERC20\", \"ERC721\")\n    function depositTokens(int256 amount, address currencyCt, uint256 currencyId, string standard)\n    public\n    {\n        depositTokensTo(msg.sender, amount, currencyCt, currencyId, standard);\n    }\n\n    /// @notice Deposit token to the given wallet's deposited balance\n    /// @dev The wallet must approve of this ClientFund's transfer prior to calling this function\n    /// @param wallet The address of the concerned wallet\n    /// @param amount The amount to deposit\n    /// @param currencyCt The address of the concerned currency contract (address(0) == ETH)\n    /// @param currencyId The ID of the concerned currency (0 for ETH and ERC20)\n    /// @param standard The standard of the token (\"ERC20\", \"ERC721\")\n    function depositTokensTo(address wallet, int256 amount, address currencyCt, uint256 currencyId, string standard)\n    public\n    {\n        require(amount.isNonZeroPositiveInt256());\n\n        // Execute transfer\n        TransferController controller = getTransferController(currencyCt, standard);\n        require(address(controller).delegatecall(controller.getReceiveSignature(), msg.sender, this, uint256(amount), currencyCt, currencyId));\n\n        // Add to per-wallet deposited balance\n        walletMap[wallet].deposited.add(amount, currencyCt, currencyId);\n        walletMap[wallet].txHistory.addDeposit(amount, currencyCt, currencyId);\n\n        // Add currency to in-use list\n        walletMap[wallet].inUseCurrencies.addItem(currencyCt, currencyId);\n\n        // Emit event\n        emit DepositEvent(wallet, amount, currencyCt, currencyId, standard);\n    }\n\n    /// @notice Get metadata of the given wallet's deposit at the given index\n    /// @param wallet The address of the concerned wallet\n    /// @param index The index of wallet's deposit\n    /// @return The deposit metadata\n    function deposit(address wallet, uint index)\n    public\n    view\n    returns (int256 amount, uint256 timestamp, address currencyCt, uint256 currencyId)\n    {\n        return walletMap[wallet].txHistory.deposit(index);\n    }\n\n    /// @notice Get the count of the given wallet's deposits\n    /// @param wallet The address of the concerned wallet\n    /// @return The count of the concerned wallet's deposits\n    function depositCount(address wallet) public view returns (uint256) {\n        return walletMap[wallet].txHistory.depositCount();\n    }\n\n    /// @notice Get deposited balance of the given wallet and currency\n    /// @param wallet The address of the concerned wallet\n    /// @param currencyCt The address of the concerned currency contract (address(0) == ETH)\n    /// @param currencyId The ID of the concerned currency (0 for ETH and ERC20)\n    /// @return The deposited balance of the concerned wallet and currency\n    function depositedBalance(address wallet, address currencyCt, uint256 currencyId)\n    public\n    view\n    notNullAddress(wallet)\n    returns (int256)\n    {\n        return walletMap[wallet].deposited.get(currencyCt, currencyId);\n    }\n\n    /// @notice Get settled balance of the given wallet and currency\n    /// @param wallet The address of the concerned wallet\n    /// @param currencyCt The address of the concerned currency contract (address(0) == ETH)\n    /// @param currencyId The ID of the concerned currency (0 for ETH and ERC20)\n    /// @return The settled balance of the concerned wallet and currency\n    function settledBalance(address wallet, address currencyCt, uint256 currencyId)\n    public\n    view\n    notNullAddress(wallet)\n    returns (int256)\n    {\n        return walletMap[wallet].settled.get(currencyCt, currencyId);\n    }\n\n    /// @notice Get staged balance of the given wallet and currency\n    /// @param wallet The address of the concerned wallet\n    /// @param currencyCt The address of the concerned currency contract (address(0) == ETH)\n    /// @param currencyId The ID of the concerned currency (0 for ETH and ERC20)\n    /// @return The staged balance of the concerned wallet and currency\n    function stagedBalance(address wallet, address currencyCt, uint256 currencyId)\n    public\n    view\n    notNullAddress(wallet)\n    returns (int256)\n    {\n        return walletMap[wallet].staged.get(currencyCt, currencyId);\n    }\n\n    /// @notice Update the settled balance by the difference between provided amount and deposited on-chain balance\n    /// @param wallet The address of the concerned wallet\n    /// @param amount The off-chain balance amount\n    /// @param currencyCt The address of the concerned currency contract (address(0) == ETH)\n    /// @param currencyId The ID of the concerned currency (0 for ETH and ERC20)\n    function updateSettledBalance(address wallet, int256 amount, address currencyCt, uint256 currencyId)\n    public\n    onlyRegisteredActiveService\n    notNullAddress(wallet)\n    {\n        require(isAuthorizedServiceForWallet(msg.sender, wallet));\n        require(amount.isPositiveInt256());\n\n        int256 settledBalanceAmount = amount.sub(walletMap[wallet].deposited.get(currencyCt, currencyId));\n        walletMap[wallet].settled.set(settledBalanceAmount, currencyCt, currencyId);\n\n        // Emit event\n        emit UpdateSettledBalanceEvent(wallet, amount, currencyCt, currencyId);\n    }\n\n    /// @notice Stage the amount for subsequent withdrawal\n    /// @param wallet The address of the concerned wallet\n    /// @param amount The concerned amount\n    /// @param currencyCt The address of the concerned currency contract (address(0) == ETH)\n    /// @param currencyId The ID of the concerned currency (0 for ETH and ERC20)\n    function stage(address wallet, int256 amount, address currencyCt, uint256 currencyId)\n    public\n    onlyRegisteredActiveService\n    {\n        require(isAuthorizedServiceForWallet(msg.sender, wallet));\n        require(amount.isNonZeroPositiveInt256());\n\n        // Clamp amount to stage\n        amount = amount.clampMax(walletMap[wallet].deposited.get(currencyCt, currencyId).add(walletMap[wallet].settled.get(currencyCt, currencyId)));\n        if (amount <= 0)\n            return;\n\n        walletMap[wallet].deposited.sub(walletMap[wallet].settled.get(currencyCt, currencyId) > amount ? 0 : amount.sub(walletMap[wallet].settled.get(currencyCt, currencyId)), currencyCt, currencyId);\n        walletMap[wallet].settled.sub_allow_neg(walletMap[wallet].settled.get(currencyCt, currencyId) > amount ? amount : walletMap[wallet].settled.get(currencyCt, currencyId), currencyCt, currencyId);\n        walletMap[wallet].staged.add(amount, currencyCt, currencyId);\n\n        // Emit event\n        emit StageEvent(wallet, amount, currencyCt, currencyId);\n    }\n\n    /// @notice Unstage a staged amount\n    /// @param amount The concerned balance amount\n    /// @param currencyCt The address of the concerned currency contract (address(0) == ETH)\n    /// @param currencyId The ID of the concerned currency (0 for ETH and ERC20)\n    function unstage(int256 amount, address currencyCt, uint256 currencyId) public notDeployer {\n        require(amount.isNonZeroPositiveInt256());\n\n        // Clamp amount to move\n        amount = amount.clampMax(walletMap[msg.sender].staged.get(currencyCt, currencyId));\n        if (amount == 0)\n            return;\n\n        // Move from staged balance to deposited\n        walletMap[msg.sender].staged.transfer(walletMap[msg.sender].deposited, amount, currencyCt, currencyId);\n\n        // Emit event\n        emit UnstageEvent(msg.sender, amount, currencyCt, currencyId);\n    }\n\n    /// @notice Stage the amount from msg.sender to the given beneficiary and targeted to msg.sender \n    /// @param beneficiary The (address of) concerned beneficiary contract\n    /// @param amount The concerned amount\n    /// @param currencyCt The address of the concerned currency contract (address(0) == ETH)\n    /// @param currencyId The ID of the concerned currency (0 for ETH and ERC20)\n    function stageToBeneficiary(Beneficiary beneficiary, int256 amount, address currencyCt, uint256 currencyId) public notDeployer {\n        stageToBeneficiaryPrivate(msg.sender, msg.sender, beneficiary, amount, currencyCt, currencyId);\n\n        // Emit event\n        emit StageToBeneficiaryEvent(msg.sender, beneficiary, amount, currencyCt, currencyId);\n    }\n\n    /// @notice Stage the amount from the given source wallet to the given beneficiary without target wallet\n    /// @param sourceWallet The address of concerned source wallet\n    /// @param beneficiary The (address of) concerned beneficiary contract\n    /// @param amount The concerned amount\n    /// @param currencyCt The address of the concerned currency contract (address(0) == ETH)\n    /// @param currencyId The ID of the concerned currency (0 for ETH and ERC20)\n    function stageToBeneficiaryUntargeted(address sourceWallet, Beneficiary beneficiary, int256 amount, address currencyCt, uint256 currencyId) public\n    onlyRegisteredActiveService\n    notNullAddress(sourceWallet)\n    notNullAddress(beneficiary)\n    {\n        require(isAuthorizedServiceForWallet(msg.sender, sourceWallet));\n\n        stageToBeneficiaryPrivate(sourceWallet, address(0), beneficiary, amount, currencyCt, currencyId);\n\n        // Emit event\n        emit StageToBeneficiaryUntargetedEvent(sourceWallet, beneficiary, amount, currencyCt, currencyId);\n    }\n\n    /// @notice Transfer all balances of the given source wallet to the given target wallet\n    /// @param sourceWallet The address of concerned source wallet\n    /// @param targetWallet The address of concerned target wallet\n    function seizeAllBalances(address sourceWallet, address targetWallet) public\n    onlyRegisteredActiveService\n    notNullAddress(sourceWallet)\n    notNullAddress(targetWallet)\n    {\n        require(isAuthorizedServiceForWallet(msg.sender, sourceWallet));\n\n        // Seize all balances\n        uint256 len = walletMap[sourceWallet].inUseCurrencies.getLength();\n        int256 amount;\n        for (uint256 i = 0; i < len; i++) {\n            MonetaryTypes.Currency memory currency = walletMap[sourceWallet].inUseCurrencies.getAt(i);\n\n            amount = sumAllBalancesOfWalletAndCurrency(sourceWallet, currency.ct, currency.id);\n            assert(amount >= 0);\n\n            zeroAllBalancesOfWalletAndCurrency(sourceWallet, currency.ct, currency.id);\n\n            // Add to staged balance\n            walletMap[targetWallet].staged.add(amount, currency.ct, currency.id);\n\n            // Add currencyCt to in-use list\n            walletMap[targetWallet].inUseCurrencies.addItem(currency.ct, currency.id);\n        }\n\n        // Emit event\n        emit SeizeAllBalancesEvent(sourceWallet, targetWallet);\n    }\n\n    /// @notice Withdraw the given amount from staged balance\n    /// @param amount The concerned amount\n    /// @param currencyCt The address of the concerned currency contract (address(0) == ETH)\n    /// @param currencyId The ID of the concerned currency (0 for ETH and ERC20)\n    /// @param standard The standard of token (\"ERC20\", \"ERC721\")\n    function withdraw(int256 amount, address currencyCt, uint256 currencyId, string standard) public {\n        require(amount.isNonZeroPositiveInt256());\n\n        amount = amount.clampMax(walletMap[msg.sender].staged.get(currencyCt, currencyId));\n        if (amount <= 0)\n            return;\n\n        // Subtract to per-wallet staged balance\n        walletMap[msg.sender].staged.sub(amount, currencyCt, currencyId);\n        walletMap[msg.sender].txHistory.addWithdrawal(amount, currencyCt, currencyId);\n\n        // Execute transfer\n        if (currencyCt == address(0) && currencyId == 0)\n            msg.sender.transfer(uint256(amount));\n\n        else {\n            TransferController controller = getTransferController(currencyCt, standard);\n            require(address(controller).delegatecall(controller.getSendSignature(), this, msg.sender, uint256(amount), currencyCt, currencyId), \"uff\");\n        }\n\n        // Emit event\n        emit WithdrawEvent(msg.sender, amount, currencyCt, currencyId, standard);\n    }\n\n    /// @notice Get metadata of the given wallet's withdrawal at the given index\n    /// @param wallet The address of the concerned wallet\n    /// @param index The index of wallet's deposit\n    /// @return The withdrawal metadata\n    function withdrawal(address wallet, uint index) public view returns (int256 amount, uint256 timestamp, address token, uint256 id) {\n        return walletMap[wallet].txHistory.withdrawal(index);\n    }\n\n    /// @notice Get the count of the given wallet's withdrawals\n    /// @param wallet The address of the concerned wallet\n    /// @return The count of the concerned wallet's withdrawals\n    function withdrawalCount(address wallet) public view returns (uint256) {\n        return walletMap[wallet].txHistory.withdrawalCount();\n    }\n\n    //\n    // Private functions\n    // -----------------------------------------------------------------------------------------------------------------\n    function stageToBeneficiaryPrivate(address sourceWallet, address destWallet, Beneficiary beneficiary,\n        int256 amount, address currencyCt, uint256 currencyId)\n    private\n    {\n        require(amount.isNonZeroPositiveInt256());\n        require(isRegisteredBeneficiary(beneficiary));\n\n        //clamp amount to stage\n        amount = amount.clampMax(walletMap[sourceWallet].deposited.get(currencyCt, currencyId)\n            .add(walletMap[sourceWallet].settled.get(currencyCt, currencyId)));\n        if (amount <= 0)\n            return;\n\n        walletMap[sourceWallet].deposited.sub(walletMap[sourceWallet].settled.get(currencyCt, currencyId) > amount ? 0 : amount.sub(walletMap[sourceWallet].settled.get(currencyCt, currencyId)), currencyCt, currencyId);\n        walletMap[sourceWallet].settled.sub_allow_neg(walletMap[sourceWallet].settled.get(currencyCt, currencyId) > amount ? amount : walletMap[sourceWallet].settled.get(currencyCt, currencyId), currencyCt, currencyId);\n\n        transferToBeneficiaryPrivate(destWallet, beneficiary, amount, currencyCt, currencyId);\n    }\n\n    // TODO Update this function with 'standard' parameter as in deposits and withdrawals\n    function transferToBeneficiaryPrivate(address destWallet, Beneficiary beneficiary,\n        int256 amount, address currencyCt, uint256 currencyId)\n    private {\n        // Transfer funds to the beneficiary\n        if (currencyCt == address(0) && currencyId == 0)\n            beneficiary.depositEthersTo.value(uint256(amount))(destWallet);\n\n        else {\n            //execute transfer\n            TransferController controller = getTransferController(currencyCt, \"\");\n            require(address(controller).delegatecall(controller.getApproveSignature(), beneficiary, uint256(amount), currencyCt, currencyId));\n\n            //transfer funds to the beneficiary\n            beneficiary.depositTokensTo(destWallet, amount, currencyCt, currencyId, \"\");\n        }\n    }\n\n    function sumAllBalancesOfWalletAndCurrency(address wallet, address currencyCt, uint256 currencyId)\n    private\n    view\n    returns (int256)\n    {\n        return walletMap[wallet].deposited.get(currencyCt, currencyId)\n        .add(walletMap[wallet].settled.get(currencyCt, currencyId))\n        .add(walletMap[wallet].staged.get(currencyCt, currencyId));\n    }\n\n    function zeroAllBalancesOfWalletAndCurrency(address wallet, address currencyCt, uint256 currencyId) private {\n        walletMap[wallet].deposited.set(0, currencyCt, currencyId);\n        walletMap[wallet].settled.set(0, currencyCt, currencyId);\n        walletMap[wallet].staged.set(0, currencyCt, currencyId);\n    }\n}\n",
  "sourcePath": "/Users/jon/Code/hubii/nahmii-contracts/contracts/ClientFund.sol",
  "compiler": {
    "name": "solc",
    "version": "0.4.24+commit.e67f0147.Emscripten.clang"
  },
  "schemaVersion": "2.0.0",
  "updatedAt": "2018-10-22T07:23:38.571Z"
}