{
  "contractName": "ClientFund",
  "abi": [
    {
      "constant": false,
      "inputs": [
        {
          "name": "service",
          "type": "address"
        }
      ],
      "name": "authorizeRegisteredService",
      "outputs": [],
      "payable": false,
      "stateMutability": "nonpayable",
      "type": "function"
    },
    {
      "constant": true,
      "inputs": [
        {
          "name": "beneficiary",
          "type": "address"
        }
      ],
      "name": "isRegisteredBeneficiary",
      "outputs": [
        {
          "name": "",
          "type": "bool"
        }
      ],
      "payable": false,
      "stateMutability": "view",
      "type": "function"
    },
    {
      "constant": false,
      "inputs": [
        {
          "name": "newOperator",
          "type": "address"
        }
      ],
      "name": "changeOperator",
      "outputs": [],
      "payable": false,
      "stateMutability": "nonpayable",
      "type": "function"
    },
    {
      "constant": true,
      "inputs": [
        {
          "name": "service",
          "type": "address"
        },
        {
          "name": "action",
          "type": "string"
        },
        {
          "name": "wallet",
          "type": "address"
        }
      ],
      "name": "isAuthorizedRegisteredServiceAction",
      "outputs": [
        {
          "name": "",
          "type": "bool"
        }
      ],
      "payable": false,
      "stateMutability": "view",
      "type": "function"
    },
    {
      "constant": true,
      "inputs": [
        {
          "name": "",
          "type": "address"
        },
        {
          "name": "",
          "type": "bytes32"
        },
        {
          "name": "",
          "type": "address"
        }
      ],
      "name": "serviceActionWalletUnauthorizedMap",
      "outputs": [
        {
          "name": "",
          "type": "bool"
        }
      ],
      "payable": false,
      "stateMutability": "view",
      "type": "function"
    },
    {
      "constant": true,
      "inputs": [
        {
          "name": "service",
          "type": "address"
        }
      ],
      "name": "isRegisteredActiveService",
      "outputs": [
        {
          "name": "",
          "type": "bool"
        }
      ],
      "payable": false,
      "stateMutability": "view",
      "type": "function"
    },
    {
      "constant": true,
      "inputs": [
        {
          "name": "",
          "type": "address"
        }
      ],
      "name": "initialServiceAuthorizedMap",
      "outputs": [
        {
          "name": "",
          "type": "bool"
        }
      ],
      "payable": false,
      "stateMutability": "view",
      "type": "function"
    },
    {
      "constant": false,
      "inputs": [
        {
          "name": "beneficiary",
          "type": "address"
        }
      ],
      "name": "deregisterBeneficiary",
      "outputs": [
        {
          "name": "",
          "type": "bool"
        }
      ],
      "payable": false,
      "stateMutability": "nonpayable",
      "type": "function"
    },
    {
      "constant": false,
      "inputs": [
        {
          "name": "service",
          "type": "address"
        },
        {
          "name": "action",
          "type": "string"
        }
      ],
      "name": "enableServiceAction",
      "outputs": [],
      "payable": false,
      "stateMutability": "nonpayable",
      "type": "function"
    },
    {
      "constant": true,
      "inputs": [
        {
          "name": "service",
          "type": "address"
        }
      ],
      "name": "isRegisteredService",
      "outputs": [
        {
          "name": "",
          "type": "bool"
        }
      ],
      "payable": false,
      "stateMutability": "view",
      "type": "function"
    },
    {
      "constant": false,
      "inputs": [
        {
          "name": "service",
          "type": "address"
        }
      ],
      "name": "authorizeInitiallyRegisteredService",
      "outputs": [],
      "payable": false,
      "stateMutability": "nonpayable",
      "type": "function"
    },
    {
      "constant": false,
      "inputs": [
        {
          "name": "service",
          "type": "address"
        },
        {
          "name": "action",
          "type": "string"
        }
      ],
      "name": "disableServiceAction",
      "outputs": [],
      "payable": false,
      "stateMutability": "nonpayable",
      "type": "function"
    },
    {
      "constant": true,
      "inputs": [],
      "name": "serviceActivationTimeout",
      "outputs": [
        {
          "name": "",
          "type": "uint256"
        }
      ],
      "payable": false,
      "stateMutability": "view",
      "type": "function"
    },
    {
      "constant": true,
      "inputs": [],
      "name": "destructor",
      "outputs": [
        {
          "name": "",
          "type": "address"
        }
      ],
      "payable": false,
      "stateMutability": "view",
      "type": "function"
    },
    {
      "constant": false,
      "inputs": [
        {
          "name": "service",
          "type": "address"
        }
      ],
      "name": "deregisterService",
      "outputs": [],
      "payable": false,
      "stateMutability": "nonpayable",
      "type": "function"
    },
    {
      "constant": true,
      "inputs": [],
      "name": "operator",
      "outputs": [
        {
          "name": "",
          "type": "address"
        }
      ],
      "payable": false,
      "stateMutability": "view",
      "type": "function"
    },
    {
      "constant": true,
      "inputs": [
        {
          "name": "service",
          "type": "address"
        },
        {
          "name": "wallet",
          "type": "address"
        }
      ],
      "name": "isAuthorizedRegisteredService",
      "outputs": [
        {
          "name": "",
          "type": "bool"
        }
      ],
      "payable": false,
      "stateMutability": "view",
      "type": "function"
    },
    {
      "constant": true,
      "inputs": [
        {
          "name": "service",
          "type": "address"
        },
        {
          "name": "action",
          "type": "string"
        }
      ],
      "name": "isEnabledServiceAction",
      "outputs": [
        {
          "name": "",
          "type": "bool"
        }
      ],
      "payable": false,
      "stateMutability": "view",
      "type": "function"
    },
    {
      "constant": false,
      "inputs": [
        {
          "name": "service",
          "type": "address"
        },
        {
          "name": "action",
          "type": "string"
        }
      ],
      "name": "authorizeRegisteredServiceAction",
      "outputs": [],
      "payable": false,
      "stateMutability": "nonpayable",
      "type": "function"
    },
    {
      "constant": true,
      "inputs": [
        {
          "name": "",
          "type": "address"
        },
        {
          "name": "",
          "type": "address"
        }
      ],
      "name": "initialServiceWalletUnauthorizedMap",
      "outputs": [
        {
          "name": "",
          "type": "bool"
        }
      ],
      "payable": false,
      "stateMutability": "view",
      "type": "function"
    },
    {
      "constant": true,
      "inputs": [
        {
          "name": "",
          "type": "address"
        },
        {
          "name": "",
          "type": "bytes32"
        },
        {
          "name": "",
          "type": "address"
        }
      ],
      "name": "serviceActionWalletTouchedMap",
      "outputs": [
        {
          "name": "",
          "type": "bool"
        }
      ],
      "payable": false,
      "stateMutability": "view",
      "type": "function"
    },
    {
      "constant": false,
      "inputs": [
        {
          "name": "timeoutInSeconds",
          "type": "uint256"
        }
      ],
      "name": "setServiceActivationTimeout",
      "outputs": [],
      "payable": false,
      "stateMutability": "nonpayable",
      "type": "function"
    },
    {
      "constant": true,
      "inputs": [],
      "name": "initialServiceAuthorizationDisabled",
      "outputs": [
        {
          "name": "",
          "type": "bool"
        }
      ],
      "payable": false,
      "stateMutability": "view",
      "type": "function"
    },
    {
      "constant": false,
      "inputs": [
        {
          "name": "service",
          "type": "address"
        },
        {
          "name": "action",
          "type": "string"
        }
      ],
      "name": "unauthorizeRegisteredServiceAction",
      "outputs": [],
      "payable": false,
      "stateMutability": "nonpayable",
      "type": "function"
    },
    {
      "constant": false,
      "inputs": [
        {
          "name": "service",
          "type": "address"
        }
      ],
      "name": "registerServiceDeferred",
      "outputs": [],
      "payable": false,
      "stateMutability": "nonpayable",
      "type": "function"
    },
    {
      "constant": false,
      "inputs": [],
      "name": "triggerDestroy",
      "outputs": [],
      "payable": false,
      "stateMutability": "nonpayable",
      "type": "function"
    },
    {
      "constant": false,
      "inputs": [
        {
          "name": "service",
          "type": "address"
        }
      ],
      "name": "unauthorizeRegisteredService",
      "outputs": [],
      "payable": false,
      "stateMutability": "nonpayable",
      "type": "function"
    },
    {
      "constant": true,
      "inputs": [
        {
          "name": "",
          "type": "address"
        },
        {
          "name": "",
          "type": "address"
        }
      ],
      "name": "serviceWalletUnauthorizedMap",
      "outputs": [
        {
          "name": "",
          "type": "bool"
        }
      ],
      "payable": false,
      "stateMutability": "view",
      "type": "function"
    },
    {
      "constant": true,
      "inputs": [],
      "name": "transferControllerManager",
      "outputs": [
        {
          "name": "",
          "type": "address"
        }
      ],
      "payable": false,
      "stateMutability": "view",
      "type": "function"
    },
    {
      "constant": false,
      "inputs": [
        {
          "name": "newAddress",
          "type": "address"
        }
      ],
      "name": "changeTransferControllerManager",
      "outputs": [],
      "payable": false,
      "stateMutability": "nonpayable",
      "type": "function"
    },
    {
      "constant": false,
      "inputs": [
        {
          "name": "beneficiary",
          "type": "address"
        }
      ],
      "name": "registerBeneficiary",
      "outputs": [
        {
          "name": "",
          "type": "bool"
        }
      ],
      "payable": false,
      "stateMutability": "nonpayable",
      "type": "function"
    },
    {
      "constant": true,
      "inputs": [],
      "name": "deployer",
      "outputs": [
        {
          "name": "",
          "type": "address"
        }
      ],
      "payable": false,
      "stateMutability": "view",
      "type": "function"
    },
    {
      "constant": false,
      "inputs": [
        {
          "name": "newDeployer",
          "type": "address"
        }
      ],
      "name": "changeDeployer",
      "outputs": [],
      "payable": false,
      "stateMutability": "nonpayable",
      "type": "function"
    },
    {
      "constant": false,
      "inputs": [],
      "name": "disableInitialServiceAuthorization",
      "outputs": [],
      "payable": false,
      "stateMutability": "nonpayable",
      "type": "function"
    },
    {
      "constant": true,
      "inputs": [
        {
          "name": "",
          "type": "address"
        },
        {
          "name": "",
          "type": "address"
        },
        {
          "name": "",
          "type": "uint256"
        }
      ],
      "name": "serviceWalletActionList",
      "outputs": [
        {
          "name": "",
          "type": "bytes32"
        }
      ],
      "payable": false,
      "stateMutability": "view",
      "type": "function"
    },
    {
      "constant": false,
      "inputs": [
        {
          "name": "service",
          "type": "address"
        }
      ],
      "name": "registerService",
      "outputs": [],
      "payable": false,
      "stateMutability": "nonpayable",
      "type": "function"
    },
    {
      "inputs": [
        {
          "name": "owner",
          "type": "address"
        }
      ],
      "payable": false,
      "stateMutability": "nonpayable",
      "type": "constructor"
    },
    {
      "payable": true,
      "stateMutability": "payable",
      "type": "fallback"
    },
    {
      "anonymous": false,
      "inputs": [
        {
          "indexed": false,
          "name": "wallet",
          "type": "address"
        },
        {
          "indexed": false,
          "name": "amount",
          "type": "int256"
        },
        {
          "indexed": false,
          "name": "currencyCt",
          "type": "address"
        },
        {
          "indexed": false,
          "name": "currencyId",
          "type": "uint256"
        },
        {
          "indexed": false,
          "name": "standard",
          "type": "string"
        }
      ],
      "name": "DepositEvent",
      "type": "event"
    },
    {
      "anonymous": false,
      "inputs": [
        {
          "indexed": false,
          "name": "wallet",
          "type": "address"
        },
        {
          "indexed": false,
          "name": "amount",
          "type": "int256"
        },
        {
          "indexed": false,
          "name": "currencyCt",
          "type": "address"
        },
        {
          "indexed": false,
          "name": "currencyId",
          "type": "uint256"
        },
        {
          "indexed": false,
          "name": "standard",
          "type": "string"
        }
      ],
      "name": "WithdrawEvent",
      "type": "event"
    },
    {
      "anonymous": false,
      "inputs": [
        {
          "indexed": false,
          "name": "wallet",
          "type": "address"
        },
        {
          "indexed": false,
          "name": "amount",
          "type": "int256"
        },
        {
          "indexed": false,
          "name": "currencyCt",
          "type": "address"
        },
        {
          "indexed": false,
          "name": "currencyId",
          "type": "uint256"
        }
      ],
      "name": "StageEvent",
      "type": "event"
    },
    {
      "anonymous": false,
      "inputs": [
        {
          "indexed": false,
          "name": "wallet",
          "type": "address"
        },
        {
          "indexed": false,
          "name": "amount",
          "type": "int256"
        },
        {
          "indexed": false,
          "name": "currencyCt",
          "type": "address"
        },
        {
          "indexed": false,
          "name": "currencyId",
          "type": "uint256"
        }
      ],
      "name": "UnstageEvent",
      "type": "event"
    },
    {
      "anonymous": false,
      "inputs": [
        {
          "indexed": false,
          "name": "wallet",
          "type": "address"
        },
        {
          "indexed": false,
          "name": "amount",
          "type": "int256"
        },
        {
          "indexed": false,
          "name": "currencyCt",
          "type": "address"
        },
        {
          "indexed": false,
          "name": "currencyId",
          "type": "uint256"
        }
      ],
      "name": "UpdateSettledBalanceEvent",
      "type": "event"
    },
    {
      "anonymous": false,
      "inputs": [
        {
          "indexed": false,
          "name": "sourceWallet",
          "type": "address"
        },
        {
          "indexed": false,
          "name": "beneficiary",
          "type": "address"
        },
        {
          "indexed": false,
          "name": "amount",
          "type": "int256"
        },
        {
          "indexed": false,
          "name": "currencyCt",
          "type": "address"
        },
        {
          "indexed": false,
          "name": "currencyId",
          "type": "uint256"
        }
      ],
      "name": "StageToBeneficiaryEvent",
      "type": "event"
    },
    {
      "anonymous": false,
      "inputs": [
        {
          "indexed": false,
          "name": "sourceWallet",
          "type": "address"
        },
        {
          "indexed": false,
          "name": "beneficiary",
          "type": "address"
        },
        {
          "indexed": false,
          "name": "amount",
          "type": "int256"
        },
        {
          "indexed": false,
          "name": "currencyCt",
          "type": "address"
        },
        {
          "indexed": false,
          "name": "currencyId",
          "type": "uint256"
        }
      ],
      "name": "StageToBeneficiaryUntargetedEvent",
      "type": "event"
    },
    {
      "anonymous": false,
      "inputs": [
        {
          "indexed": false,
          "name": "sourceWallet",
          "type": "address"
        },
        {
          "indexed": false,
          "name": "targetWallet",
          "type": "address"
        }
      ],
      "name": "SeizeAllBalancesEvent",
      "type": "event"
    },
    {
      "anonymous": false,
      "inputs": [
        {
          "indexed": false,
          "name": "oldTransferControllerManager",
          "type": "address"
        },
        {
          "indexed": false,
          "name": "newTransferControllerManager",
          "type": "address"
        }
      ],
      "name": "ChangeTransferControllerManagerEvent",
      "type": "event"
    },
    {
      "anonymous": false,
      "inputs": [
        {
          "indexed": false,
          "name": "wallet",
          "type": "address"
        },
        {
          "indexed": false,
          "name": "service",
          "type": "address"
        }
      ],
      "name": "AuthorizeInitiallyRegisteredServiceEvent",
      "type": "event"
    },
    {
      "anonymous": false,
      "inputs": [
        {
          "indexed": false,
          "name": "wallet",
          "type": "address"
        },
        {
          "indexed": false,
          "name": "service",
          "type": "address"
        }
      ],
      "name": "AuthorizeRegisteredServiceEvent",
      "type": "event"
    },
    {
      "anonymous": false,
      "inputs": [
        {
          "indexed": false,
          "name": "wallet",
          "type": "address"
        },
        {
          "indexed": false,
          "name": "service",
          "type": "address"
        },
        {
          "indexed": false,
          "name": "action",
          "type": "string"
        }
      ],
      "name": "AuthorizeRegisteredServiceActionEvent",
      "type": "event"
    },
    {
      "anonymous": false,
      "inputs": [
        {
          "indexed": false,
          "name": "wallet",
          "type": "address"
        },
        {
          "indexed": false,
          "name": "service",
          "type": "address"
        }
      ],
      "name": "UnauthorizeRegisteredServiceEvent",
      "type": "event"
    },
    {
      "anonymous": false,
      "inputs": [
        {
          "indexed": false,
          "name": "wallet",
          "type": "address"
        },
        {
          "indexed": false,
          "name": "service",
          "type": "address"
        },
        {
          "indexed": false,
          "name": "action",
          "type": "string"
        }
      ],
      "name": "UnauthorizeRegisteredServiceActionEvent",
      "type": "event"
    },
    {
      "anonymous": false,
      "inputs": [
        {
          "indexed": false,
          "name": "timeoutInSeconds",
          "type": "uint256"
        }
      ],
      "name": "ServiceActivationTimeoutEvent",
      "type": "event"
    },
    {
      "anonymous": false,
      "inputs": [
        {
          "indexed": false,
          "name": "service",
          "type": "address"
        }
      ],
      "name": "RegisterServiceEvent",
      "type": "event"
    },
    {
      "anonymous": false,
      "inputs": [
        {
          "indexed": false,
          "name": "service",
          "type": "address"
        },
        {
          "indexed": false,
          "name": "timeout",
          "type": "uint256"
        }
      ],
      "name": "RegisterServiceDeferredEvent",
      "type": "event"
    },
    {
      "anonymous": false,
      "inputs": [
        {
          "indexed": false,
          "name": "service",
          "type": "address"
        }
      ],
      "name": "DeregisterServiceEvent",
      "type": "event"
    },
    {
      "anonymous": false,
      "inputs": [
        {
          "indexed": false,
          "name": "service",
          "type": "address"
        },
        {
          "indexed": false,
          "name": "action",
          "type": "string"
        }
      ],
      "name": "EnableServiceActionEvent",
      "type": "event"
    },
    {
      "anonymous": false,
      "inputs": [
        {
          "indexed": false,
          "name": "service",
          "type": "address"
        },
        {
          "indexed": false,
          "name": "action",
          "type": "string"
        }
      ],
      "name": "DisableServiceActionEvent",
      "type": "event"
    },
    {
      "anonymous": false,
      "inputs": [
        {
          "indexed": false,
          "name": "beneficiary",
          "type": "address"
        }
      ],
      "name": "RegisterBeneficiaryEvent",
      "type": "event"
    },
    {
      "anonymous": false,
      "inputs": [
        {
          "indexed": false,
          "name": "beneficiary",
          "type": "address"
        }
      ],
      "name": "DeregisterBeneficiaryEvent",
      "type": "event"
    },
    {
      "anonymous": false,
      "inputs": [
        {
          "indexed": false,
          "name": "oldDeployer",
          "type": "address"
        },
        {
          "indexed": false,
          "name": "newDeployer",
          "type": "address"
        }
      ],
      "name": "ChangeDeployerEvent",
      "type": "event"
    },
    {
      "anonymous": false,
      "inputs": [
        {
          "indexed": false,
          "name": "oldOperator",
          "type": "address"
        },
        {
          "indexed": false,
          "name": "newOperator",
          "type": "address"
        }
      ],
      "name": "ChangeOperatorEvent",
      "type": "event"
    },
    {
      "constant": false,
      "inputs": [
        {
          "name": "wallet",
          "type": "address"
        }
      ],
      "name": "depositEthersTo",
      "outputs": [],
      "payable": true,
      "stateMutability": "payable",
      "type": "function"
    },
    {
      "constant": false,
      "inputs": [
        {
          "name": "amount",
          "type": "int256"
        },
        {
          "name": "currencyCt",
          "type": "address"
        },
        {
          "name": "currencyId",
          "type": "uint256"
        },
        {
          "name": "standard",
          "type": "string"
        }
      ],
      "name": "depositTokens",
      "outputs": [],
      "payable": false,
      "stateMutability": "nonpayable",
      "type": "function"
    },
    {
      "constant": false,
      "inputs": [
        {
          "name": "wallet",
          "type": "address"
        },
        {
          "name": "amount",
          "type": "int256"
        },
        {
          "name": "currencyCt",
          "type": "address"
        },
        {
          "name": "currencyId",
          "type": "uint256"
        },
        {
          "name": "standard",
          "type": "string"
        }
      ],
      "name": "depositTokensTo",
      "outputs": [],
      "payable": false,
      "stateMutability": "nonpayable",
      "type": "function"
    },
    {
      "constant": true,
      "inputs": [
        {
          "name": "wallet",
          "type": "address"
        },
        {
          "name": "index",
          "type": "uint256"
        }
      ],
      "name": "deposit",
      "outputs": [
        {
          "name": "amount",
          "type": "int256"
        },
        {
          "name": "blockNumber",
          "type": "uint256"
        },
        {
          "name": "currencyCt",
          "type": "address"
        },
        {
          "name": "currencyId",
          "type": "uint256"
        }
      ],
      "payable": false,
      "stateMutability": "view",
      "type": "function"
    },
    {
      "constant": true,
      "inputs": [
        {
          "name": "wallet",
          "type": "address"
        }
      ],
      "name": "depositsCount",
      "outputs": [
        {
          "name": "",
          "type": "uint256"
        }
      ],
      "payable": false,
      "stateMutability": "view",
      "type": "function"
    },
    {
      "constant": true,
      "inputs": [
        {
          "name": "wallet",
          "type": "address"
        },
        {
          "name": "currencyCt",
          "type": "address"
        },
        {
          "name": "currencyId",
          "type": "uint256"
        },
        {
          "name": "index",
          "type": "uint256"
        }
      ],
      "name": "depositOfCurrency",
      "outputs": [
        {
          "name": "amount",
          "type": "int256"
        },
        {
          "name": "blockNumber",
          "type": "uint256"
        }
      ],
      "payable": false,
      "stateMutability": "view",
      "type": "function"
    },
    {
      "constant": true,
      "inputs": [
        {
          "name": "wallet",
          "type": "address"
        },
        {
          "name": "currencyCt",
          "type": "address"
        },
        {
          "name": "currencyId",
          "type": "uint256"
        }
      ],
      "name": "depositsOfCurrencyCount",
      "outputs": [
        {
          "name": "",
          "type": "uint256"
        }
      ],
      "payable": false,
      "stateMutability": "view",
      "type": "function"
    },
    {
      "constant": true,
      "inputs": [
        {
          "name": "wallet",
          "type": "address"
        },
        {
          "name": "currencyCt",
          "type": "address"
        },
        {
          "name": "currencyId",
          "type": "uint256"
        }
      ],
      "name": "depositedBalance",
      "outputs": [
        {
          "name": "",
          "type": "int256"
        }
      ],
      "payable": false,
      "stateMutability": "view",
      "type": "function"
    },
    {
      "constant": true,
      "inputs": [
        {
          "name": "wallet",
          "type": "address"
        },
        {
          "name": "currencyCt",
          "type": "address"
        },
        {
          "name": "currencyId",
          "type": "uint256"
        }
      ],
      "name": "settledBalance",
      "outputs": [
        {
          "name": "",
          "type": "int256"
        }
      ],
      "payable": false,
      "stateMutability": "view",
      "type": "function"
    },
    {
      "constant": true,
      "inputs": [
        {
          "name": "wallet",
          "type": "address"
        },
        {
          "name": "currencyCt",
          "type": "address"
        },
        {
          "name": "currencyId",
          "type": "uint256"
        }
      ],
      "name": "stagedBalance",
      "outputs": [
        {
          "name": "",
          "type": "int256"
        }
      ],
      "payable": false,
      "stateMutability": "view",
      "type": "function"
    },
    {
      "constant": true,
      "inputs": [
        {
          "name": "wallet",
          "type": "address"
        },
        {
          "name": "currencyCt",
          "type": "address"
        },
        {
          "name": "currencyId",
          "type": "uint256"
        }
      ],
      "name": "activeBalance",
      "outputs": [
        {
          "name": "",
          "type": "int256"
        }
      ],
      "payable": false,
      "stateMutability": "view",
      "type": "function"
    },
    {
      "constant": true,
      "inputs": [
        {
          "name": "wallet",
          "type": "address"
        },
        {
          "name": "currencyCt",
          "type": "address"
        },
        {
          "name": "currencyId",
          "type": "uint256"
        },
        {
          "name": "index",
          "type": "uint256"
        }
      ],
      "name": "activeBalanceLogEntry",
      "outputs": [
        {
          "name": "amount",
          "type": "int256"
        },
        {
          "name": "blockNumber",
          "type": "uint256"
        }
      ],
      "payable": false,
      "stateMutability": "view",
      "type": "function"
    },
    {
      "constant": true,
      "inputs": [
        {
          "name": "wallet",
          "type": "address"
        },
        {
          "name": "currencyCt",
          "type": "address"
        },
        {
          "name": "currencyId",
          "type": "uint256"
        }
      ],
      "name": "activeBalanceLogEntriesCount",
      "outputs": [
        {
          "name": "",
          "type": "uint256"
        }
      ],
      "payable": false,
      "stateMutability": "view",
      "type": "function"
    },
    {
      "constant": false,
      "inputs": [
        {
          "name": "wallet",
          "type": "address"
        },
        {
          "name": "amount",
          "type": "int256"
        },
        {
          "name": "currencyCt",
          "type": "address"
        },
        {
          "name": "currencyId",
          "type": "uint256"
        }
      ],
      "name": "updateSettledBalance",
      "outputs": [],
      "payable": false,
      "stateMutability": "nonpayable",
      "type": "function"
    },
    {
      "constant": false,
      "inputs": [
        {
          "name": "wallet",
          "type": "address"
        },
        {
          "name": "amount",
          "type": "int256"
        },
        {
          "name": "currencyCt",
          "type": "address"
        },
        {
          "name": "currencyId",
          "type": "uint256"
        }
      ],
      "name": "stage",
      "outputs": [],
      "payable": false,
      "stateMutability": "nonpayable",
      "type": "function"
    },
    {
      "constant": false,
      "inputs": [
        {
          "name": "amount",
          "type": "int256"
        },
        {
          "name": "currencyCt",
          "type": "address"
        },
        {
          "name": "currencyId",
          "type": "uint256"
        }
      ],
      "name": "unstage",
      "outputs": [],
      "payable": false,
      "stateMutability": "nonpayable",
      "type": "function"
    },
    {
      "constant": false,
      "inputs": [
        {
          "name": "beneficiary",
          "type": "address"
        },
        {
          "name": "amount",
          "type": "int256"
        },
        {
          "name": "currencyCt",
          "type": "address"
        },
        {
          "name": "currencyId",
          "type": "uint256"
        }
      ],
      "name": "stageToBeneficiary",
      "outputs": [],
      "payable": false,
      "stateMutability": "nonpayable",
      "type": "function"
    },
    {
      "constant": false,
      "inputs": [
        {
          "name": "sourceWallet",
          "type": "address"
        },
        {
          "name": "beneficiary",
          "type": "address"
        },
        {
          "name": "amount",
          "type": "int256"
        },
        {
          "name": "currencyCt",
          "type": "address"
        },
        {
          "name": "currencyId",
          "type": "uint256"
        }
      ],
      "name": "stageToBeneficiaryUntargeted",
      "outputs": [],
      "payable": false,
      "stateMutability": "nonpayable",
      "type": "function"
    },
    {
      "constant": false,
      "inputs": [
        {
          "name": "sourceWallet",
          "type": "address"
        },
        {
          "name": "targetWallet",
          "type": "address"
        }
      ],
      "name": "seizeAllBalances",
      "outputs": [],
      "payable": false,
      "stateMutability": "nonpayable",
      "type": "function"
    },
    {
      "constant": false,
      "inputs": [
        {
          "name": "amount",
          "type": "int256"
        },
        {
          "name": "currencyCt",
          "type": "address"
        },
        {
          "name": "currencyId",
          "type": "uint256"
        },
        {
          "name": "standard",
          "type": "string"
        }
      ],
      "name": "withdraw",
      "outputs": [],
      "payable": false,
      "stateMutability": "nonpayable",
      "type": "function"
    },
    {
      "constant": true,
      "inputs": [
        {
          "name": "wallet",
          "type": "address"
        },
        {
          "name": "index",
          "type": "uint256"
        }
      ],
      "name": "withdrawal",
      "outputs": [
        {
          "name": "amount",
          "type": "int256"
        },
        {
          "name": "blockNumber",
          "type": "uint256"
        },
        {
          "name": "currencyCt",
          "type": "address"
        },
        {
          "name": "currencyId",
          "type": "uint256"
        }
      ],
      "payable": false,
      "stateMutability": "view",
      "type": "function"
    },
    {
      "constant": true,
      "inputs": [
        {
          "name": "wallet",
          "type": "address"
        }
      ],
      "name": "withdrawalsCount",
      "outputs": [
        {
          "name": "",
          "type": "uint256"
        }
      ],
      "payable": false,
      "stateMutability": "view",
      "type": "function"
    },
    {
      "constant": true,
      "inputs": [
        {
          "name": "wallet",
          "type": "address"
        },
        {
          "name": "currencyCt",
          "type": "address"
        },
        {
          "name": "currencyId",
          "type": "uint256"
        },
        {
          "name": "index",
          "type": "uint256"
        }
      ],
      "name": "withdrawalOfCurrency",
      "outputs": [
        {
          "name": "amount",
          "type": "int256"
        },
        {
          "name": "blockNumber",
          "type": "uint256"
        }
      ],
      "payable": false,
      "stateMutability": "view",
      "type": "function"
    },
    {
      "constant": true,
      "inputs": [
        {
          "name": "wallet",
          "type": "address"
        },
        {
          "name": "currencyCt",
          "type": "address"
        },
        {
          "name": "currencyId",
          "type": "uint256"
        }
      ],
      "name": "withdrawalsOfCurrencyCount",
      "outputs": [
        {
          "name": "",
          "type": "uint256"
        }
      ],
      "payable": false,
      "stateMutability": "view",
      "type": "function"
    }
  ],
  "bytecode": "0x60806040523480156200001157600080fd5b50604051602080620050b68339810180604052620000339190810190620000b0565b8080600160a060020a03811615156200004b57600080fd5b600160a060020a0381163014156200006257600080fd5b5060008054600160a060020a03909216600160a060020a03199283168117909155600180549092161790555062093a80600555620000e5565b6000620000a98251620000d9565b9392505050565b600060208284031215620000c357600080fd5b6000620000d184846200009b565b949350505050565b600160a060020a031690565b614fc180620000f56000396000f3006080604052600436106102b05763ffffffff60e060020a60003504166301f3241f81146102bb57806304fd3130146102db57806306394c9b146103115780630bf378b7146103315780630c5d24fa1461035e5780630f200f9b1461037e57806312e94dda1461039e57806313ee3043146103be57806317ba3f90146103de57806319507d8a146103fe5780631caf1d6d1461041e5780632b5672e31461043e5780632b91e0a91461045e5780632b91eddb1461047e57806332bdcb821461049e578063396d404c146104b15780633b58c501146104d15780633b7bea6c146104f15780633ed5d71c14610506578063406b20f8146105265780634476d23b1461054657806347e7ef24146105685780634cbfa114146105985780634f383b5e146105c657806350b08c02146105e6578063536b797814610606578063570ca7351461062657806357925b531461063b5780635a6b26ba1461065b5780635df1b0a31461067b578063624c28d41461069b57806362ac7621146106bb57806362f1e6b3146106db578063677ec9d6146106fb5780636a1724a01461071b57806372b7ba631461073b57806376788ffa1461075b5780637687810c1461077b5780637e15dd5c1461079b5780637f290068146107bb5780637f584f51146107db5780638a2f30cc146107f05780638e38a4b6146108105780638e8cef121461083057806394dd293c146108505780639f82dc3114610865578063a3e5175d14610885578063aa33c30d146108a5578063af30b312146108c5578063affc0fa0146108e7578063c5e07d3a14610907578063cd49737d14610927578063cdd8b2b214610947578063d5f3948814610967578063defdfae61461097c578063e167d4f61461099c578063e3d3e9fc146109b1578063e56715e0146109d1578063fc47987c146109f1578063fdd9ec7d14610a11575b6102b933610a31565b005b3480156102c757600080fd5b506102b96102d63660046146b3565b610c68565b3480156102e757600080fd5b506102fb6102f63660046146b3565b610d65565b6040516103089190614dd3565b60405180910390f35b34801561031d57600080fd5b506102b961032c3660046146b3565b610d81565b34801561033d57600080fd5b5061035161034c36600461470b565b610e39565b6040516103089190614de1565b34801561036a57600080fd5b506102fb61037936600461497b565b610e85565b34801561038a57600080fd5b506102b9610399366004614acd565b610f16565b3480156103aa57600080fd5b506103516103b936600461470b565b61123c565b3480156103ca57600080fd5b506102fb6103d93660046147b9565b611280565b3480156103ea57600080fd5b506102fb6103f93660046146b3565b6112a6565b34801561040a57600080fd5b506102fb6104193660046146b3565b6112de565b34801561042a57600080fd5b506102fb6104393660046146b3565b6112f3565b34801561044a57600080fd5b506102b9610459366004614934565b6114e0565b34801561046a57600080fd5b506102fb6104793660046146b3565b611610565b34801561048a57600080fd5b506102b96104993660046146b3565b61162e565b6102b96104ac3660046146b3565b610a31565b3480156104bd57600080fd5b506103516104cc36600461470b565b61170f565b3480156104dd57600080fd5b506102b96104ec366004614934565b611753565b3480156104fd57600080fd5b50610351611835565b34801561051257600080fd5b506102b9610521366004614acd565b61183b565b34801561053257600080fd5b506102b96105413660046147fc565b61184e565b34801561055257600080fd5b5061055b6118e6565b6040516103089190614beb565b34801561057457600080fd5b506105886105833660046149c4565b6118f6565b6040516103089493929190614e26565b3480156105a457600080fd5b506105b86105b3366004614758565b611937565b604051610308929190614e18565b3480156105d257600080fd5b506102b96105e13660046148b5565b611973565b3480156105f257600080fd5b506102b96106013660046146b3565b611c98565b34801561061257600080fd5b5061035161062136600461470b565b611d4e565b34801561063257600080fd5b5061055b611d84565b34801561064757600080fd5b506102fb6106563660046146d1565b611d93565b34801561066757600080fd5b506105886106763660046149c4565b611e0a565b34801561068757600080fd5b506102fb610696366004614934565b611e3b565b3480156106a757600080fd5b506103516106b636600461470b565b611e8c565b3480156106c757600080fd5b506102b96106d6366004614934565b611eb8565b3480156106e757600080fd5b506102fb6106f63660046146d1565b61209f565b34801561070757600080fd5b506102fb6107163660046147b9565b6120bf565b34801561072757600080fd5b506102b9610736366004614aac565b6120e5565b34801561074757600080fd5b506105b8610756366004614758565b612311565b34801561076757600080fd5b506102b9610776366004614a30565b612340565b34801561078757600080fd5b506103516107963660046146b3565b612397565b3480156107a757600080fd5b506102b96107b6366004614b57565b6123bb565b3480156107c757600080fd5b506102b96107d63660046146d1565b61240e565b3480156107e757600080fd5b506102fb612703565b3480156107fc57600080fd5b506102b961080b366004614934565b61270c565b34801561081c57600080fd5b5061035161082b36600461470b565b612856565b34801561083c57600080fd5b506102b961084b3660046146b3565b61289a565b34801561085c57600080fd5b506102b9612918565b34801561087157600080fd5b506105b8610880366004614758565b612947565b34801561089157600080fd5b506102b96108a03660046146b3565b61299b565b3480156108b157600080fd5b506102fb6108c03660046146d1565b612b76565b3480156108d157600080fd5b506108da612b96565b6040516103089190614def565b3480156108f357600080fd5b506102b9610902366004614871565b612ba5565b34801561091357600080fd5b506102b9610922366004614a52565b612d1a565b34801561093357600080fd5b506102b9610942366004614871565b612db2565b34801561095357600080fd5b506102fb6109623660046146b3565b61315a565b34801561097357600080fd5b5061055b613249565b34801561098857600080fd5b506102b96109973660046146b3565b613258565b3480156109a857600080fd5b506102b9613302565b3480156109bd57600080fd5b506103516109cc36600461470b565b613324565b3480156109dd57600080fd5b506103516109ec36600461470b565b613361565b3480156109fd57600080fd5b50610351610a0c3660046146b3565b6133d2565b348015610a1d57600080fd5b506102b9610a2c3660046146b3565b6133f6565b60405160e060020a63802d10af02815260009073__SafeMathIntLib________________________9063802d10af90610a6e903490600401614de1565b60206040518083038186803b158015610a8657600080fd5b505af4158015610a9a573d6000803e3d6000fd5b505050506040513d601f19601f82011682018060405250610abe9190810190614a8e565b600160a060020a0383166000908152600e60205260408120919250610aec919083908063ffffffff61346f16565b600160a060020a0382166000908152600e60205260408120610b1c9160049091019083908063ffffffff6134e716565b600160a060020a0382166000908152600e60205260408120610baf91610b8691610b52916002909101908063ffffffff6135b416565b600160a060020a0385166000908152600e60205260408120610b7a918063ffffffff6135b416565b9063ffffffff6135fa16565b600160a060020a0384166000908152600e6020526040812060030191908063ffffffff61362f16565b600160a060020a0382166000908152600e6020526040808220905160e260020a630ea18e7f02815273__InUseCurrencyLib______________________92633a8639fc92610c0892600890910191908190600401614e42565b60006040518083038186803b158015610c2057600080fd5b505af4158015610c34573d6000803e3d6000fd5b50505050600080516020614f688339815191528282600080604051610c5c9493929190614c96565b60405180910390a15050565b610c706136a2565b15610c7a57600080fd5b80600160a060020a0381161515610c9057600080fd5b600160a060020a038116301415610ca657600080fd5b33600160a060020a0383161415610cbc57600080fd5b600160a060020a03821660009081526004602052604090205460ff161515610ce357600080fd5b600160a060020a03821660009081526007602052604090205460ff1615610d0957600080fd5b600160a060020a038216600090815260096020908152604080832033808552925291829020805460ff1916905590517f7406a64e4e8c04b2a11d4cb484eb07cd5762012eafc449900b8d92de008ff27f91610c5c918590614bf9565b600160a060020a03166000908152600360205260408120541190565b6000610d8b6136b3565b1515610d9657600080fd5b81600160a060020a0381161515610dac57600080fd5b600160a060020a038116301415610dc257600080fd5b600154600160a060020a03848116911614610e345760018054600160a060020a03858116600160a060020a0319831617909255604051911692507f5bd9a4a09f08f75952905b16ac91d6821c47d52c3a968e583e6854b42757c58090610e2b9084908690614bf9565b60405180910390a15b505050565b600083600160a060020a0381161515610e5157600080fd5b600160a060020a0385166000908152600e60205260409020610e7a90858563ffffffff6135b416565b91505b509392505050565b60008082600160a060020a031685600160a060020a03161415610eab5760009150610e7d565b610eb4846136c4565b9050610ec08585611e3b565b8015610ed35750610ed1858461378e565b155b8015610e7a5750600160a060020a038086166000908152600a6020908152604080832085845282528083209387168352929052205460ff16159150509392505050565b60405160e160020a6351750e5302815260009073__SafeMathIntLib________________________9063a2ea1ca690610f53908890600401614de1565b60206040518083038186803b158015610f6b57600080fd5b505af4158015610f7f573d6000803e3d6000fd5b505050506040513d601f19601f82011682018060405250610fa391908101906149f4565b1515610fae57600080fd5b336000908152600e6020526040902073__SafeMathIntLib________________________9063755875b2908790610fef90600101888863ffffffff6135b416565b6040518363ffffffff1660e060020a02815260040161100f929190614e18565b60206040518083038186803b15801561102757600080fd5b505af415801561103b573d6000803e3d6000fd5b505050506040513d601f19601f8201168201806040525061105f9190810190614a8e565b94506000851361106e57611235565b336000908152600e602052604090206110929060010186868663ffffffff6137e416565b336000908152600e602052604090206110b69060040186868663ffffffff61383116565b600160a060020a0384161580156110cb575082155b1561110357604051339086156108fc029087906000818181858888f193505050501580156110fd573d6000803e3d6000fd5b506111f5565b61110d8483613902565b905080600160a060020a031681600160a060020a0316637228941f6040518163ffffffff1660e060020a028152600401602060405180830381600087803b15801561115757600080fd5b505af115801561116b573d6000803e3d6000fd5b505050506040513d601f19601f8201168201806040525061118f9190810190614a12565b6040805160e060020a9283900463ffffffff8116909302815230600482015233602482015260448101899052600160a060020a038816606482015260848101879052905160a48083019260009291908290030181865af49250505015156111f557600080fd5b7f8e0adde15ffb742f47e7888277a26cea416253fcb63186dc4949fe493e92b77c338686868660405161122c959493929190614d11565b60405180910390a15b5050505050565b600083600160a060020a038116151561125457600080fd5b600160a060020a0385166000908152600e60205260409020610e7a90600101858563ffffffff6135b416565b600a60209081526000938452604080852082529284528284209052825290205460ff1681565b60006112b182611610565b80156112d85750600160a060020a0382166000908152600460205260409020600101544210155b92915050565b60076020526000908152604090205460ff1681565b6000806112fe6136a2565b151561130957600080fd5b82600160a060020a038116151561131f57600080fd5b600160a060020a038416600090815260036020526040902054151561134757600092506114d9565b600160a060020a0384166000908152600360205260409020546002546000199182019350018210156114455760028054600019810190811061138557fe5b60009182526020909120015460028054600160a060020a0390921691849081106113ab57fe5b9060005260206000200160006101000a815481600160a060020a030219169083600160a060020a0316021790555081600101600360006002858154811015156113f057fe5b6000918252602080832090910154600160a060020a0316835282019290925260400190205560028054600019810190811061142757fe5b60009182526020909120018054600160a060020a031916905561146d565b600280548390811061145357fe5b60009182526020909120018054600160a060020a03191690555b600280549061148090600019830161452d565b50600160a060020a03841660009081526003602052604080822091909155517f33f51cf787669db5b5aff6ba597298fd010748de93aaadef29aae876cef4a8c3906114cc908690614beb565b60405180910390a1600192505b5050919050565b60006114ea6136a2565b15156114f557600080fd5b82600160a060020a038116151561150b57600080fd5b600160a060020a03811630141561152157600080fd5b600160a060020a03841660009081526004602052604090205460ff16151561154857600080fd5b611551836136c4565b600160a060020a038516600090815260046020908152604080832084845260020190915290205490925060ff161561158857600080fd5b600160a060020a0384166000908152600460208181526040808420868552600281018352818520805460ff19166001908117909155938352600301805493840181558452922001839055517fec1b982d69bfc1a6fd8becf191d9a633486c822d3bdedd52303ca81fa6357501906116029086908690614d98565b60405180910390a150505050565b600160a060020a031660009081526004602052604090205460ff1690565b6116366136a2565b151561164157600080fd5b80600160a060020a038116151561165757600080fd5b600160a060020a03811630141561166d57600080fd5b60065460ff161561167d57600080fd5b33600160a060020a038316141561169357600080fd5b600160a060020a03821660009081526004602052604090205460ff1615156116ba57600080fd5b600160a060020a03821660009081526007602052604090819020805460ff19166001179055517fd3a57acd07c4600b81930f29e6e9ccfa05db83a482e185e0c733c16e80603e3690610c5c9033908590614bf9565b600083600160a060020a038116151561172757600080fd5b600160a060020a0385166000908152600e60205260409020610e7a90600301858563ffffffff6135b416565b600061175d6136a2565b151561176857600080fd5b82600160a060020a038116151561177e57600080fd5b600160a060020a03811630141561179457600080fd5b61179d836136c4565b600160a060020a038516600090815260046020908152604080832084845260020190915290205490925060ff1615156117d557600080fd5b600160a060020a038416600090815260046020908152604080832085845260020190915290819020805460ff19169055517f92f4af6130f47c92f3899e06611c8c6ef191fb81207ad2675d134af619d2fe7d906116029086908690614d98565b60055481565b6118483385858585611973565b50505050565b84600160a060020a038116151561186457600080fd5b84600160a060020a038116151561187a57600080fd5b6118843388611d93565b151561188f57600080fd5b61189e876000888888886139a5565b7fcafb6d2bcd37cdc22f38a042f78c8908da4fa4dc8f773a9aaab77d5a5455575d87878787876040516118d5959493929190614c4a565b60405180910390a150505050505050565b600054600160a060020a03165b90565b600160a060020a0382166000908152600e60205260408120819081908190611927906004018663ffffffff613c8116565b9299919850965090945092505050565b600160a060020a0384166000908152600e6020526040812081906119669060040186868663ffffffff613d3b16565b9150915094509492505050565b60405160e160020a6351750e5302815260009073__SafeMathIntLib________________________9063a2ea1ca6906119b0908890600401614de1565b60206040518083038186803b1580156119c857600080fd5b505af41580156119dc573d6000803e3d6000fd5b505050506040513d601f19601f82011682018060405250611a0091908101906149f4565b1515611a0b57600080fd5b611a158483613902565b905080600160a060020a031681600160a060020a031663ad502f576040518163ffffffff1660e060020a028152600401602060405180830381600087803b158015611a5f57600080fd5b505af1158015611a73573d6000803e3d6000fd5b505050506040513d601f19601f82011682018060405250611a979190810190614a12565b6040805160e060020a9283900463ffffffff8116909302815233600482015230602482015260448101899052600160a060020a038816606482015260848101879052905160a48083019260009291908290030181865af4925050501515611afd57600080fd5b600160a060020a0386166000908152600e60205260409020611b279086868663ffffffff61346f16565b600160a060020a0386166000908152600e60205260409020611b549060040186868663ffffffff6134e716565b600160a060020a0386166000908152600e60205260409020611bda90611bb190611b8890600201878763ffffffff6135b416565b600160a060020a0389166000908152600e60205260409020610b7a90888863ffffffff6135b416565b600160a060020a0388166000908152600e6020526040902060030190868663ffffffff61362f16565b600160a060020a0386166000908152600e602052604090819020905160e260020a630ea18e7f02815273__InUseCurrencyLib______________________91633a8639fc91611c33916008019088908890600401614e6a565b60006040518083038186803b158015611c4b57600080fd5b505af4158015611c5f573d6000803e3d6000fd5b50505050600080516020614f688339815191528686868686604051611c88959493929190614d11565b60405180910390a1505050505050565b611ca06136a2565b1515611cab57600080fd5b80600160a060020a0381161515611cc157600080fd5b600160a060020a038116301415611cd757600080fd5b600160a060020a03821660009081526004602052604090205460ff161515611cfe57600080fd5b600160a060020a03821660009081526004602052604090819020805460ff19169055517f777645c5437dfbf962f57a281ead25f3d513f2f8e938685bbfc1738e81c9880e90610c5c908490614beb565b600160a060020a0383166000908152600e60205260408120611d7a90600401848463ffffffff613dfe16565b90505b9392505050565b600154600160a060020a031681565b600081600160a060020a031683600160a060020a03161415611db7575060006112d8565b611dc0836112a6565b8015611dd35750611dd1838361378e565b155b8015611d7d575050600160a060020a03918216600090815260096020908152604080832093909416825291909152205460ff161590565b600160a060020a0382166000908152600e60205260408120819081908190611927906004018663ffffffff613e2b16565b600080611e47836136c4565b9050611e52846112a6565b8015611e845750600160a060020a038416600090815260046020908152604080832084845260020190915290205460ff165b949350505050565b600160a060020a0383166000908152600e60205260408120611d7a90600401848463ffffffff613ed016565b6000611ec2613efd565b15611ecc57600080fd5b82600160a060020a0381161515611ee257600080fd5b600160a060020a038116301415611ef857600080fd5b33600160a060020a0385161415611f0e57600080fd5b611f17836136c4565b600160a060020a03851660009081526004602052604090205490925060ff168015611f685750600160a060020a038416600090815260046020908152604080832085845260020190915290205460ff165b1515611f7357600080fd5b600160a060020a03841660009081526007602052604090205460ff1615611f9957600080fd5b600160a060020a038416600081815260096020908152604080832033808552908352818420805460ff19908116600117909155858552600a84528285208886528452828520828652845282852080549091169055938352600b82528083208684528252808320938352929052205460ff16151561206c57600160a060020a0384166000818152600b60209081526040808320868452825280832033808552908352818420805460ff19166001908117909155948452600c8352818420908452825282208054938401815582529020018290555b7fc007803323f3ca89cb3f8af1a12f354dc108e9dd4988c312b3f7a878914987ce33858560405161160293929190614c14565b600860209081526000928352604080842090915290825290205460ff1681565b600b60209081526000938452604080852082529284528284209052825290205460ff1681565b6120ed6136a2565b156120f757600080fd5b60405160e160020a6351750e5302815273__SafeMathIntLib________________________9063a2ea1ca690612131908690600401614de1565b60206040518083038186803b15801561214957600080fd5b505af415801561215d573d6000803e3d6000fd5b505050506040513d601f19601f8201168201806040525061218191908101906149f4565b151561218c57600080fd5b336000908152600e6020526040902073__SafeMathIntLib________________________9063755875b29085906121cd90600101868663ffffffff6135b416565b6040518363ffffffff1660e060020a0281526004016121ed929190614e18565b60206040518083038186803b15801561220557600080fd5b505af4158015612219573d6000803e3d6000fd5b505050506040513d601f19601f8201168201806040525061223d9190810190614a8e565b925082151561224b57610e34565b336000908152600e6020526040902061227190600181019085858563ffffffff613f1a16565b336000908152600e602052604090206122dc906122bc9061229c90600201858563ffffffff6135b416565b336000908152600e60205260409020610b7a90868663ffffffff6135b416565b336000908152600e6020526040902060030190848463ffffffff61362f16565b7f013970fdfcc3b9ba3657604311c39270a2b090a94528cfdfd09abaddc6e8fb5233848484604051610e2b9493929190614cdc565b600160a060020a0384166000908152600e6020526040812081906119669060040186868663ffffffff613f3216565b6123486136a2565b1561235257600080fd5b6123603333868686866139a5565b7f3af3c9096da62c6c3938986d75a1b72363a1f1da79365987a822d9d8b1c7b1443385858585604051611602959493929190614c4a565b600160a060020a0381166000908152600e602052604081206112d890600401613fd8565b6123c36136a2565b15156123ce57600080fd5b60058190556040517f4f1d324a1cbffc352fb64f1d73d95e4b200d92f99ef39bf2d7f5b41f946909d690612403908390614de1565b60405180910390a150565b600080600061241b614551565b85600160a060020a038116151561243157600080fd5b85600160a060020a038116151561244757600080fd5b6124513389611d93565b151561245c57600080fd5b600160a060020a0388166000908152600e602052604090819020905160e160020a6369c86ceb02815273__InUseCurrencyLib______________________9163d390d9d6916124b19160080190600401614e34565b60206040518083038186803b1580156124c957600080fd5b505af41580156124dd573d6000803e3d6000fd5b505050506040513d601f19601f820116820180604052506125019190810190614a8e565b9550600093505b858410156126c057600160a060020a0388166000908152600e602052604090819020905160e460020a630b8ee39b02815273__InUseCurrencyLib______________________9163b8ee39b09161256791600801908890600401614e92565b604080518083038186803b15801561257e57600080fd5b505af4158015612592573d6000803e3d6000fd5b505050506040513d601f19601f820116820180604052506125b69190810190614b39565b92506125cb8884600001518560200151613fdc565b945060008512156125d857fe5b6125eb8884600001518560200151614065565b8251602080850151600160a060020a038a166000908152600e90925260409091206126249260019091019188919063ffffffff61346f16565b600160a060020a0387166000908152600e6020908152604091829020855191860151925160e260020a630ea18e7f02815273__InUseCurrencyLib______________________93633a8639fc936126849360080192909190600401614e6a565b60006040518083038186803b15801561269c57600080fd5b505af41580156126b0573d6000803e3d6000fd5b5050600190950194506125089050565b7fb452fad80b33c7d612bdb3269370f36bd4a4bfb4c7fe6f2d64d7937204b51fe588886040516126f1929190614bf9565b60405180910390a15050505050505050565b60065460ff1681565b6000612716613efd565b1561272057600080fd5b82600160a060020a038116151561273657600080fd5b600160a060020a03811630141561274c57600080fd5b33600160a060020a038516141561276257600080fd5b61276b836136c4565b600160a060020a03851660009081526004602052604090205490925060ff1680156127bc5750600160a060020a038416600090815260046020908152604080832085845260020190915290205460ff165b15156127c757600080fd5b600160a060020a03841660009081526007602052604090205460ff16156127ed57600080fd5b600160a060020a0384166000908152600a60209081526040808320858452825280832033808552925291829020805460ff1916600117905590517f6fa0cdb0b5c22004ccfcaee11eed450e0184dda8edd417ae2410f0a883fdb740916116029187908790614c14565b600083600160a060020a038116151561286e57600080fd5b600160a060020a0385166000908152600e60205260409020610e7a90600201858563ffffffff6135b416565b6128a26136a2565b15156128ad57600080fd5b80600160a060020a03811615156128c357600080fd5b600160a060020a0381163014156128d957600080fd5b6128e5826005546140ec565b7f7f3a8349917003ed377f6e9ae1608b92edd893903f8983bd274b1f8373dd3b1182600554604051610c5c929190614db8565b6129206118e6565b600160a060020a0316331461293457600080fd5b61293c6118e6565b600160a060020a0316ff5b60008085600160a060020a038116151561296057600080fd5b600160a060020a0387166000908152600e6020526040902061298d9060030187878763ffffffff61413e16565b925092505094509492505050565b60006129a56136a2565b156129af57600080fd5b81600160a060020a03811615156129c557600080fd5b600160a060020a0381163014156129db57600080fd5b33600160a060020a03841614156129f157600080fd5b600160a060020a03831660009081526004602052604090205460ff161515612a1857600080fd5b600160a060020a03831660009081526007602052604090205460ff1615612a6c57600160a060020a03831660009081526008602090815260408083203384529091529020805460ff19166001179055612b45565b600160a060020a03831660009081526009602090815260408083203384529091528120805460ff1916600117905591505b600160a060020a0383166000908152600c60209081526040808320338452909152902054821015612b4557600160a060020a0383166000908152600a60209081526040808320600c835281842033855290925282208054600193919086908110612b0357fe5b600091825260208083209190910154835282810193909352604091820181203382529092529020805460ff191691151591909117905560019190910190612a9d565b7fe25d4094f2181ddef4410dcc1539a7488abd881a90c56078314b9f70affc5f7e3384604051610e2b929190614bf9565b600960209081526000928352604080842090915290825290205460ff1681565b600d54600160a060020a031681565b6000612bb0336112a6565b1515612bbb57600080fd5b84600160a060020a0381161515612bd157600080fd5b612bdb3387611d93565b1515612be657600080fd5b60405160e060020a636b84d93102815273__SafeMathIntLib________________________90636b84d93190612c20908890600401614de1565b60206040518083038186803b158015612c3857600080fd5b505af4158015612c4c573d6000803e3d6000fd5b505050506040513d601f19601f82011682018060405250612c7091908101906149f4565b1515612c7b57600080fd5b600160a060020a0386166000908152600e60205260409020612cb590612ca890868663ffffffff6135b416565b869063ffffffff61421216565b600160a060020a0387166000908152600e60205260409020909250612ce59060020183868663ffffffff61424e16565b7f6ded3dfe9bc210e5b60b695bac6bd623844003b866c14264d44e91b8352a4fad86868686604051611c889493929190614cdc565b6000612d246136a2565b1515612d2f57600080fd5b81600160a060020a0381161515612d4557600080fd5b600d548390600160a060020a03908116908216811461123557600d8054600160a060020a03878116600160a060020a0319831617909255604051911694507fbe6ec9788bd1e132647569c388954227d7eabe035533f580e43398e08969dfb99061122c9086908890614dfd565b612dbb336112a6565b1515612dc657600080fd5b612dd03385611d93565b1515612ddb57600080fd5b60405160e160020a6351750e5302815273__SafeMathIntLib________________________9063a2ea1ca690612e15908690600401614de1565b60206040518083038186803b158015612e2d57600080fd5b505af4158015612e41573d6000803e3d6000fd5b505050506040513d601f19601f82011682018060405250612e6591908101906149f4565b1515612e7057600080fd5b600160a060020a0384166000908152600e6020526040902073__SafeMathIntLib________________________9063755875b2908590612ebe90611b8890600201878763ffffffff6135b416565b6040518363ffffffff1660e060020a028152600401612ede929190614e18565b60206040518083038186803b158015612ef657600080fd5b505af4158015612f0a573d6000803e3d6000fd5b505050506040513d601f19601f82011682018060405250612f2e9190810190614a8e565b925060008313612f3d57611848565b600160a060020a0384166000908152600e60205260409020612fdf908490612f6f90600201858563ffffffff6135b416565b13612fb657600160a060020a0385166000908152600e60205260409020612fb190612fa490600201858563ffffffff6135b416565b859063ffffffff61421216565b612fb9565b60005b600160a060020a0386166000908152600e6020526040902090848463ffffffff6137e416565b600160a060020a0384166000908152600e6020526040902061307290849061301190600201858563ffffffff6135b416565b1361304757600160a060020a0385166000908152600e6020526040902061304290600201848463ffffffff6135b416565b613049565b835b600160a060020a0386166000908152600e6020526040902060020190848463ffffffff61429016565b600160a060020a0384166000908152600e6020526040902061309f9060010184848463ffffffff61346f16565b600160a060020a0384166000908152600e60205260409020613125906130fc906130d390600201858563ffffffff6135b416565b600160a060020a0387166000908152600e60205260409020610b7a90868663ffffffff6135b416565b600160a060020a0386166000908152600e6020526040902060030190848463ffffffff61362f16565b7f573abd56f40c687bfaaabb8d68c68c84cc343b51fe661ff2080e2a6977b3c2b4848484846040516116029493929190614cdc565b60006131646136a2565b151561316f57600080fd5b81600160a060020a038116151561318557600080fd5b600160a060020a03831660009081526003602052604081205411156131ad5760009150613243565b600280546001810182557f405787fa12a823e0f2b7631cc41b3ba8828b3321ca811111fa75cd3aa3bb5ace018054600160a060020a031916600160a060020a03861690811790915590546000918252600360205260409182902055517fdd62ff6d9c23793871e7d4796bde6c5dfb2bf8bcbd4186411cee3eb9f618952190613236908590614beb565b60405180910390a1600191505b50919050565b600054600160a060020a031681565b60006132626136a2565b151561326d57600080fd5b81600160a060020a038116151561328357600080fd5b600160a060020a03811630141561329957600080fd5b600054600160a060020a03848116911614610e345760008054600160a060020a03858116600160a060020a0319831617909255604051911692507fb52724aafc8bad3645fa843e328aaaa28d0bd8ed399cd62843de657b0caf75c790610e2b9084908690614bf9565b61330a6136a2565b151561331557600080fd5b6006805460ff19166001179055565b600c6020528260005260406000206020528160005260406000208181548110151561334b57fe5b9060005260206000200160009250925050505481565b600083600160a060020a038116151561337957600080fd5b600160a060020a0385166000908152600e60205260409020610e7a906133a990600101868663ffffffff6135b416565b600160a060020a0387166000908152600e60205260409020610b7a90878763ffffffff6135b416565b600160a060020a0381166000908152600e602052604081206112d8906004016142dd565b6133fe6136a2565b151561340957600080fd5b80600160a060020a038116151561341f57600080fd5b600160a060020a03811630141561343557600080fd5b6134408260006140ec565b7fb619d545cb511bd5f02907a1eac4f4cb8dace7b1846852fb0bf5e553937481c182604051610c5c9190614beb565b600160a060020a038216151561348a57801561348a57600080fd5b600160a060020a0382166000908152602085815260408083208484529091529020546134bc908463ffffffff6142e416565b600160a060020a03909216600090815260209485526040808220928252919094529092209190915550565b6134ef614568565b5060408051608081018252938452436020808601918252600160a060020a0394851686840181815260608801868152895460018181018c5560008c81528681208c516004948502909101908155885181840155855160028083018054928f16600160a060020a031993841617905586516003938401559783529d830188528982209a8252998752978820805480830182559089529590972099519402909801928355925193820193909355905191810180549290941691909516179091559051910155565b6000600160a060020a03831615156135d15781156135d157600080fd5b50600160a060020a03919091166000908152602092835260408082209282529190925290205490565b600082820181831280159061360f5750838112155b80613624575060008312801561362457508381125b1515611d7d57600080fd5b600160a060020a038216151561364a57801561364a57600080fd5b600160a060020a03909116600090815260209384526040808220928252918452818120825180840190935292825243828501908152835460018181018655948352949091209151600290940290910192835551910155565b600054600160a060020a0316331490565b600154600160a060020a0316331490565b6000816040516020018082805190602001908083835b602083106136f95780518252601f1990920191602091820191016136da565b6001836020036101000a0380198251168184511680821785525050505050509050019150506040516020818303038152906040526040518082805190602001908083835b6020831061375c5780518252601f19909201916020918201910161373d565b5181516020939093036101000a6000190180199091169216919091179052604051920182900390912095945050505050565b600160a060020a03821660009081526007602052604081205460ff166137b5576000611d7d565b50600160a060020a03918216600090815260086020908152604080832093909416825291909152205460ff1690565b600160a060020a03821615156137ff5780156137ff57600080fd5b600160a060020a0382166000908152602085815260408083208484529091529020546134bc908463ffffffff61431516565b613839614568565b5060408051608081018252938452436020808601918252600160a060020a03948516868401818152606088018681526002808b0180546001818101835560009283528783208d51600493840290910190815589518183015586518186018054918f16600160a060020a031992831617905586516003928301559784529d8e0188528983209a83529987529781208054808b018255908252959020995194909602909801928355925194820194909455905191810180549290941691909216179091559051910155565b600d54600090600160a060020a0316151561391c57600080fd5b600d54604051600160e860020a61e3490203198152600160a060020a039091169063ff1cb700906139539086908690600401614d98565b602060405180830381600087803b15801561396d57600080fd5b505af1158015613981573d6000803e3d6000fd5b505050506040513d601f19601f82011682018060405250611d7d9190810190614a70565b60405160e160020a6351750e5302815273__SafeMathIntLib________________________9063a2ea1ca6906139df908690600401614de1565b60206040518083038186803b1580156139f757600080fd5b505af4158015613a0b573d6000803e3d6000fd5b505050506040513d601f19601f82011682018060405250613a2f91908101906149f4565b1515613a3a57600080fd5b613a4384610d65565b1515613a4e57600080fd5b600160a060020a0386166000908152600e6020526040902073__SafeMathIntLib________________________9063755875b2908590613ac590613a9c90600201878763ffffffff6135b416565b600160a060020a038b166000908152600e60205260409020610b7a90888863ffffffff6135b416565b6040518363ffffffff1660e060020a028152600401613ae5929190614e18565b60206040518083038186803b158015613afd57600080fd5b505af4158015613b11573d6000803e3d6000fd5b505050506040513d601f19601f82011682018060405250613b359190810190614a8e565b925060008313613b4457613c79565b600160a060020a0386166000908152600e60205260409020613bd9908490613b7690600201858563ffffffff6135b416565b13613bb057600160a060020a0387166000908152600e60205260409020613bab90612fa490600201858563ffffffff6135b416565b613bb3565b60005b600160a060020a0388166000908152600e6020526040902090848463ffffffff6137e416565b600160a060020a0386166000908152600e60205260409020613c6c908490613c0b90600201858563ffffffff6135b416565b13613c4157600160a060020a0387166000908152600e60205260409020613c3c90600201848463ffffffff6135b416565b613c43565b835b600160a060020a0388166000908152600e6020526040902060020190848463ffffffff61429016565b613c79858585858561433c565b505050505050565b81546000908190819081908510613c9757600080fd5b8554869086908110613ca557fe5b90600052602060002090600402016000015493508560000185815481101515613cca57fe5b90600052602060002090600402016001015492508560000185815481101515613cef57fe5b60009182526020909120600260049092020101548654600160a060020a039091169250869086908110613d1e57fe5b906000526020600020906004020160030154905092959194509250565b600160a060020a0383166000908152600385016020908152604080832085845290915281205481908310613d6e57600080fd5b600160a060020a038516600090815260038701602090815260408083208784529091529020805484908110613d9f57fe5b60009182526020808320600490920290910154600160a060020a03881683526003890182526040808420888552909252912080549193509084908110613de157fe5b906000526020600020906004020160010154905094509492505050565b600160a060020a038216600090815260038401602090815260408083208484529091529020549392505050565b60028201546000908190819081908510613e4457600080fd5b60028601805486908110613e5457fe5b90600052602060002090600402016000015493508560020185815481101515613e7957fe5b90600052602060002090600402016001015492508560020185815481101515613e9e57fe5b6000918252602090912060026004909202018101549087018054600160a060020a0390921693509086908110613d1e57fe5b600160a060020a038216600090815260018401602090815260408083208484529091529020549392505050565b6000613f076136a2565b80613f155750613f156136b3565b905090565b613f26858484846137e4565b6112358484848461346f565b600160a060020a0383166000908152600185016020908152604080832085845290915281205481908310613f6557600080fd5b600160a060020a038516600090815260018701602090815260408083208784529091529020805484908110613f9657fe5b60009182526020808320600490920290910154600160a060020a03881683526001890182526040808420888552909252912080549193509084908110613de157fe5b5490565b600160a060020a0383166000908152600e60205260408120611d7a9061400c90600101858563ffffffff6135b416565b600160a060020a0386166000908152600e60205260409020610b7a9061403c90600201878763ffffffff6135b416565b600160a060020a0388166000908152600e60205260409020610b7a90888863ffffffff6135b416565b600160a060020a0383166000908152600e6020526040812061408e91848463ffffffff61424e16565b600160a060020a0383166000908152600e602052604081206140bd91600290910190848463ffffffff61424e16565b600160a060020a0383166000908152600e60205260408120610e3491600190910190848463ffffffff61424e16565b600160a060020a03821660009081526004602052604090205460ff16151561413a57600160a060020a0382166000908152600460205260409020805460ff1916600190811782554283019101555b5050565b600080600160a060020a038516151561415c57831561415c57600080fd5b600160a060020a038516600090815260208781526040808320878452909152902054831061418957600080fd5b600160a060020a03851660009081526020878152604080832087845290915290208054849081106141b657fe5b60009182526020808320600290920290910154600160a060020a038816835288825260408084208885529092529120805491935090849081106141f557fe5b906000526020600020906002020160010154905094509492505050565b600080821215801561422657508282840313155b8061423d575060008212801561423d575082828403135b151561424857600080fd5b50900390565b600160a060020a038216151561426957801561426957600080fd5b600160a060020a039091166000908152602093845260408082209282529190935290912055565b600160a060020a03821615156142ab5780156142ab57600080fd5b600160a060020a0382166000908152602085815260408083208484529091529020546134bc908463ffffffff61421216565b6002015490565b600080600084121580156142f9575060008312155b151561430457600080fd5b5082820183811215611d7d57600080fd5b6000808312158015614328575060008212155b801561423d57508282131561424857600080fd5b6000600160a060020a038316158015614353575081155b156143c05760405160e160020a63195ee5c1028152600160a060020a038616906332bdcb82908690614389908a90600401614beb565b6000604051808303818588803b1580156143a257600080fd5b505af11580156143b6573d6000803e3d6000fd5b5050505050613c79565b6143da836020604051908101604052806000815250613902565b905080600160a060020a031681600160a060020a0316631711a8946040518163ffffffff1660e060020a028152600401602060405180830381600087803b15801561442457600080fd5b505af1158015614438573d6000803e3d6000fd5b505050506040513d601f19601f8201168201806040525061445c9190810190614a12565b6040805160e060020a9283900463ffffffff81169093028152600160a060020a038981166004830152602482018990528716604482015260648101869052905160848083019260009291908290030181865af49250505015156144be57600080fd5b60405160e160020a63279c1daf028152600160a060020a03861690634f383b5e906144f3908990889088908890600401614d63565b600060405180830381600087803b15801561450d57600080fd5b505af1158015614521573d6000803e3d6000fd5b50505050505050505050565b815481835581811115610e3457600083815260209020610e3491810190830161459a565b604080518082019091526000808252602082015290565b60806040519081016040528060008152602001600081526020016000600160a060020a03168152602001600081525090565b6118f391905b808211156145b457600081556001016145a0565b5090565b6000611d7d8235614ef1565b6000611d7d8251614ef1565b6000611d7d8251614efd565b6000611d7d82356118f3565b6000611d7d8251614f02565b6000611d7d8235614f0f565b6000611d7d8251614f0f565b6000611d7d82516118f3565b6000601f8201831361462957600080fd5b813561463c61463782614ec6565b614ea0565b9150808252602083016020830185838301111561465857600080fd5b614663838284614f25565b50505092915050565b60006040828403121561467e57600080fd5b6146886040614ea0565b9050600061469684846145c4565b82525060206146a78484830161460c565b60208301525092915050565b6000602082840312156146c557600080fd5b6000611e8484846145b8565b600080604083850312156146e457600080fd5b60006146f085856145b8565b9250506020614701858286016145b8565b9150509250929050565b60008060006060848603121561472057600080fd5b600061472c86866145b8565b935050602061473d868287016145b8565b925050604061474e868287016145dc565b9150509250925092565b6000806000806080858703121561476e57600080fd5b600061477a87876145b8565b945050602061478b878288016145b8565b935050604061479c878288016145dc565b92505060606147ad878288016145dc565b91505092959194509250565b6000806000606084860312156147ce57600080fd5b60006147da86866145b8565b93505060206147eb868287016145dc565b925050604061474e868287016145b8565b600080600080600060a0868803121561481457600080fd5b600061482088886145b8565b9550506020614831888289016145f4565b9450506040614842888289016145dc565b9350506060614853888289016145b8565b9250506080614864888289016145dc565b9150509295509295909350565b6000806000806080858703121561488757600080fd5b600061489387876145b8565b94505060206148a4878288016145dc565b935050604061479c878288016145b8565b600080600080600060a086880312156148cd57600080fd5b60006148d988886145b8565b95505060206148ea888289016145dc565b94505060406148fb888289016145b8565b935050606061490c888289016145dc565b92505060808601356001604060020a0381111561492857600080fd5b61486488828901614618565b6000806040838503121561494757600080fd5b600061495385856145b8565b92505060208301356001604060020a0381111561496f57600080fd5b61470185828601614618565b60008060006060848603121561499057600080fd5b600061499c86866145b8565b93505060208401356001604060020a038111156149b857600080fd5b6147eb86828701614618565b600080604083850312156149d757600080fd5b60006149e385856145b8565b9250506020614701858286016145dc565b600060208284031215614a0657600080fd5b6000611e8484846145d0565b600060208284031215614a2457600080fd5b6000611e8484846145e8565b60008060008060808587031215614a4657600080fd5b600061489387876145f4565b600060208284031215614a6457600080fd5b6000611e8484846145f4565b600060208284031215614a8257600080fd5b6000611e848484614600565b600060208284031215614aa057600080fd5b6000611e84848461460c565b600080600060608486031215614ac157600080fd5b600061472c86866145dc565b60008060008060808587031215614ae357600080fd5b6000614aef87876145dc565b9450506020614b00878288016145b8565b9350506040614b11878288016145dc565b92505060608501356001604060020a03811115614b2d57600080fd5b6147ad87828801614618565b600060408284031215614b4b57600080fd5b6000611e84848461466c565b600060208284031215614b6957600080fd5b6000611e8484846145dc565b614b7e81614ef1565b82525050565b614b7e81614efd565b614b7e816118f3565b614b7e81614f0f565b614b7e81614f1a565b6000614bb382614eed565b808452614bc7816020860160208601614f31565b614bd081614f5d565b9093016020019392505050565b6000815260200190565b9052565b602081016112d88284614b75565b60408101614c078285614b75565b611d7d6020830184614b75565b60608101614c228286614b75565b614c2f6020830185614b75565b8181036040830152614c418184614ba8565b95945050505050565b60a08101614c588288614b75565b614c656020830187614b96565b614c726040830186614b8d565b614c7f6060830185614b75565b614c8c6080830184614b8d565b9695505050505050565b60a08101614ca48287614b75565b614cb16020830186614b8d565b614cbe6040830185614b75565b614ccb6060830184614b9f565b8181036080830152614c8c81614bdd565b60808101614cea8287614b75565b614cf76020830186614b8d565b614d046040830185614b75565b614c416060830184614b8d565b60a08101614d1f8288614b75565b614d2c6020830187614b8d565b614d396040830186614b75565b614d466060830185614b8d565b8181036080830152614d588184614ba8565b979650505050505050565b60a08101614d718287614b75565b614d7e6020830186614b8d565b614d8b6040830185614b75565b614ccb6060830184614b8d565b60408101614da68285614b75565b8181036020830152611d7a8184614ba8565b60408101614dc68285614b75565b611d7d6020830184614b8d565b602081016112d88284614b84565b602081016112d88284614b8d565b602081016112d88284614b96565b60408101614e0b8285614b96565b611d7d6020830184614b96565b60408101614dc68285614b8d565b60808101614cea8287614b8d565b602081016112d88284614be7565b60608101614e508286614be7565b614e5d6020830185614b75565b611e846040830184614b9f565b60608101614e788286614be7565b614e856020830185614b75565b611e846040830184614b8d565b60408101614dc68285614be7565b6040518181016001604060020a0381118282101715614ebe57600080fd5b604052919050565b60006001604060020a03821115614edc57600080fd5b506020601f91909101601f19160190565b5190565b600160a060020a031690565b151590565b600160e060020a03191690565b60006112d882614ef1565b60006112d8826118f3565b82818337506000910152565b60005b83811015614f4c578181015183820152602001614f34565b838111156118485750506000910152565b601f01601f191690560040c19386897d9f44522a1850572060386c64b5f66cce986dd9115a1bb102dcfaa265627a7a7230582013261b29d1adda667ef3f7a63f1c3521eb368784917ae2fddd6a4b6c257ce9b26c6578706572696d656e74616cf50037",
  "source": "/*\n * Hubii Nahmii\n *\n * Compliant with the Hubii Nahmii specification v0.12.\n *\n * Copyright (C) 2017-2018 Hubii AS\n */\n\npragma solidity ^0.4.24;\npragma experimental ABIEncoderV2;\n\nimport {SafeMathIntLib} from \"./SafeMathIntLib.sol\";\nimport {Beneficiary} from \"./Beneficiary.sol\";\nimport {Benefactor} from \"./Benefactor.sol\";\nimport {AuthorizableServable} from \"./AuthorizableServable.sol\";\nimport {Ownable} from \"./Ownable.sol\";\nimport {TransferControllerManageable} from \"./TransferControllerManageable.sol\";\nimport {TransferController} from \"./TransferController.sol\";\nimport {BalanceLib} from \"./BalanceLib.sol\";\nimport {BalanceLogLib} from \"./BalanceLogLib.sol\";\nimport {TxHistoryLib} from \"./TxHistoryLib.sol\";\nimport {InUseCurrencyLib} from \"./InUseCurrencyLib.sol\";\nimport {MonetaryTypesLib} from \"./MonetaryTypesLib.sol\";\n\n/**\n@title Client fund\n@notice Where clients crypto is deposited into, staged and withdrawn from.\n*/\ncontract ClientFund is Ownable, Beneficiary, Benefactor, AuthorizableServable, TransferControllerManageable {\n    using BalanceLib for BalanceLib.Balance;\n    using BalanceLogLib for BalanceLogLib.BalanceLog;\n    using TxHistoryLib for TxHistoryLib.TxHistory;\n    using InUseCurrencyLib for InUseCurrencyLib.InUseCurrency;\n    using SafeMathIntLib for int256;\n\n    //\n    // Structures\n    // -----------------------------------------------------------------------------------------------------------------\n    struct Wallet {\n        BalanceLib.Balance deposited;\n        BalanceLib.Balance staged;\n        BalanceLib.Balance settled;\n        BalanceLogLib.BalanceLog active;\n\n        TxHistoryLib.TxHistory txHistory;\n\n        InUseCurrencyLib.InUseCurrency inUseCurrencies;\n    }\n\n    //\n    // Variables\n    // -----------------------------------------------------------------------------------------------------------------\n    mapping(address => Wallet) private walletMap;\n\n    mapping(address => uint256) private registeredServicesMap;\n    mapping(address => mapping(address => bool)) private disabledServicesMap;\n\n    //\n    // Events\n    // -----------------------------------------------------------------------------------------------------------------\n    event DepositEvent(address wallet, int256 amount, address currencyCt, uint256 currencyId, string standard);\n    event WithdrawEvent(address wallet, int256 amount, address currencyCt, uint256 currencyId, string standard);\n    event StageEvent(address wallet, int256 amount, address currencyCt, uint256 currencyId);\n    event UnstageEvent(address wallet, int256 amount, address currencyCt, uint256 currencyId);\n    event UpdateSettledBalanceEvent(address wallet, int256 amount, address currencyCt, uint256 currencyId);\n    event StageToBeneficiaryEvent(address sourceWallet, address beneficiary, int256 amount, address currencyCt,\n        uint256 currencyId);\n    event StageToBeneficiaryUntargetedEvent(address sourceWallet, address beneficiary, int256 amount,\n        address currencyCt, uint256 currencyId);\n    event SeizeAllBalancesEvent(address sourceWallet, address targetWallet);\n\n    //\n    // Constructor\n    // -----------------------------------------------------------------------------------------------------------------\n    constructor(address owner) Ownable(owner) Beneficiary() Benefactor()\n    public\n    {\n        serviceActivationTimeout = 1 weeks;\n    }\n\n    //\n    // Functions\n    // -----------------------------------------------------------------------------------------------------------------\n    /// @notice Fallback function that deposits ethers to msg.sender's deposited balance\n    function()\n    public\n    payable\n    {\n        depositEthersTo(msg.sender);\n    }\n\n    /// @notice Deposit ethers to the given wallet's deposited balance\n    /// @param wallet The address of the concerned wallet\n    function depositEthersTo(address wallet)\n    public\n    payable\n    {\n        int256 amount = SafeMathIntLib.toNonZeroInt256(msg.value);\n\n        // Add to per-wallet deposited balance\n        walletMap[wallet].deposited.add(amount, address(0), 0);\n        walletMap[wallet].txHistory.addDeposit(amount, address(0), 0);\n\n        // Add active balance log entry\n        walletMap[wallet].active.add(\n            walletMap[wallet].deposited.get(address(0), 0)\n            .add(walletMap[wallet].settled.get(address(0), 0)),\n            address(0), 0);\n\n        // Add currency to in-use list\n        walletMap[wallet].inUseCurrencies.addItem(address(0), 0);\n\n        // Emit event\n        emit DepositEvent(wallet, amount, address(0), 0, \"\");\n    }\n\n    /// @notice Deposit token to msg.sender's deposited balance\n    /// @dev The wallet must approve of this ClientFund's transfer prior to calling this function\n    /// @param amount The amount to deposit\n    /// @param currencyCt The address of the concerned currency contract (address(0) == ETH)\n    /// @param currencyId The ID of the concerned currency (0 for ETH and ERC20)\n    /// @param standard The standard of token (\"ERC20\", \"ERC721\")\n    function depositTokens(int256 amount, address currencyCt, uint256 currencyId, string standard)\n    public\n    {\n        depositTokensTo(msg.sender, amount, currencyCt, currencyId, standard);\n    }\n\n    /// @notice Deposit token to the given wallet's deposited balance\n    /// @dev The wallet must approve of this ClientFund's transfer prior to calling this function\n    /// @param wallet The address of the concerned wallet\n    /// @param amount The amount to deposit\n    /// @param currencyCt The address of the concerned currency contract (address(0) == ETH)\n    /// @param currencyId The ID of the concerned currency (0 for ETH and ERC20)\n    /// @param standard The standard of the token (\"ERC20\", \"ERC721\")\n    function depositTokensTo(address wallet, int256 amount, address currencyCt, uint256 currencyId, string standard)\n    public\n    {\n        require(amount.isNonZeroPositiveInt256());\n\n        // Execute transfer\n        TransferController controller = getTransferController(currencyCt, standard);\n        require(address(controller).delegatecall(controller.getReceiveSignature(), msg.sender, this, uint256(amount), currencyCt, currencyId));\n\n        // Add to per-wallet deposited balance\n        walletMap[wallet].deposited.add(amount, currencyCt, currencyId);\n        walletMap[wallet].txHistory.addDeposit(amount, currencyCt, currencyId);\n\n        // Add active balance log entry\n        walletMap[wallet].active.add(\n            walletMap[wallet].deposited.get(currencyCt, currencyId)\n            .add(walletMap[wallet].settled.get(currencyCt, currencyId)),\n            currencyCt, currencyId);\n\n        // Add currency to in-use list\n        walletMap[wallet].inUseCurrencies.addItem(currencyCt, currencyId);\n\n        // Emit event\n        emit DepositEvent(wallet, amount, currencyCt, currencyId, standard);\n    }\n\n    /// @notice Get metadata of the given wallet's deposit at the given index\n    /// @param wallet The address of the concerned wallet\n    /// @param index The index of wallet's deposit\n    /// @return The deposit metadata\n    function deposit(address wallet, uint256 index)\n    public\n    view\n    returns (int256 amount, uint256 blockNumber, address currencyCt, uint256 currencyId)\n    {\n        return walletMap[wallet].txHistory.deposit(index);\n    }\n\n    /// @notice Get the count of the given wallet's deposits\n    /// @param wallet The address of the concerned wallet\n    /// @return The count of the concerned wallet's deposits\n    function depositsCount(address wallet) public view returns (uint256) {\n        return walletMap[wallet].txHistory.depositsCount();\n    }\n\n    /// @notice Get metadata of the given wallet's deposit in the given currency at the given index\n    /// @param wallet The address of the concerned wallet\n    /// @param currencyCt The address of the concerned currency contract (address(0) == ETH)\n    /// @param currencyId The ID of the concerned currency (0 for ETH and ERC20)\n    /// @param index The index of wallet's deposit in the given currency\n    /// @return The deposit metadata\n    function depositOfCurrency(address wallet, address currencyCt, uint256 currencyId, uint256 index)\n    public\n    view\n    returns (int256 amount, uint256 blockNumber)\n    {\n        return walletMap[wallet].txHistory.currencyDeposit(currencyCt, currencyId, index);\n    }\n\n    /// @notice Get the count of the given wallet's deposits in the given currency\n    /// @param wallet The address of the concerned wallet\n    /// @param currencyCt The address of the concerned currency contract (address(0) == ETH)\n    /// @param currencyId The ID of the concerned currency (0 for ETH and ERC20)\n    /// @return The count of the concerned wallet's deposits in the given currency\n    function depositsOfCurrencyCount(address wallet, address currencyCt, uint256 currencyId)\n    public\n    view\n    returns (uint256)\n    {\n        return walletMap[wallet].txHistory.currencyDepositsCount(currencyCt, currencyId);\n    }\n\n    /// @notice Get deposited balance of the given wallet and currency\n    /// @param wallet The address of the concerned wallet\n    /// @param currencyCt The address of the concerned currency contract (address(0) == ETH)\n    /// @param currencyId The ID of the concerned currency (0 for ETH and ERC20)\n    /// @return The deposited balance of the concerned wallet and currency\n    function depositedBalance(address wallet, address currencyCt, uint256 currencyId)\n    public\n    view\n    notNullAddress(wallet)\n    returns (int256)\n    {\n        return walletMap[wallet].deposited.get(currencyCt, currencyId);\n    }\n\n    /// @notice Get settled balance of the given wallet and currency\n    /// @param wallet The address of the concerned wallet\n    /// @param currencyCt The address of the concerned currency contract (address(0) == ETH)\n    /// @param currencyId The ID of the concerned currency (0 for ETH and ERC20)\n    /// @return The settled balance of the concerned wallet and currency\n    function settledBalance(address wallet, address currencyCt, uint256 currencyId)\n    public\n    view\n    notNullAddress(wallet)\n    returns (int256)\n    {\n        return walletMap[wallet].settled.get(currencyCt, currencyId);\n    }\n\n    /// @notice Get staged balance of the given wallet and currency\n    /// @param wallet The address of the concerned wallet\n    /// @param currencyCt The address of the concerned currency contract (address(0) == ETH)\n    /// @param currencyId The ID of the concerned currency (0 for ETH and ERC20)\n    /// @return The staged balance of the concerned wallet and currency\n    function stagedBalance(address wallet, address currencyCt, uint256 currencyId)\n    public\n    view\n    notNullAddress(wallet)\n    returns (int256)\n    {\n        return walletMap[wallet].staged.get(currencyCt, currencyId);\n    }\n\n    /// @notice Get active balance (sum of deposited and settled balances) of the given wallet and currency\n    /// @param wallet The address of the concerned wallet\n    /// @param currencyCt The address of the concerned currency contract (address(0) == ETH)\n    /// @param currencyId The ID of the concerned currency (0 for ETH and ERC20)\n    /// @return The active balance of the concerned wallet and currency\n    function activeBalance(address wallet, address currencyCt, uint256 currencyId)\n    public\n    view\n    notNullAddress(wallet)\n    returns (int256)\n    {\n        return walletMap[wallet].deposited.get(currencyCt, currencyId).add(\n            walletMap[wallet].staged.get(currencyCt, currencyId)\n        );\n    }\n\n    /// @notice Get active balance log entry of the given wallet and currency at the given index\n    /// @param wallet The address of the concerned wallet\n    /// @param currencyCt The address of the concerned currency contract (address(0) == ETH)\n    /// @param currencyId The ID of the concerned currency (0 for ETH and ERC20)\n    /// @param index The index of wallet's active balance log entry in the given currency\n    /// @return The active balance log entry of the concerned wallet and currency\n    function activeBalanceLogEntry(address wallet, address currencyCt, uint256 currencyId, uint256 index)\n    public\n    view\n    notNullAddress(wallet)\n    returns (int256 amount, uint256 blockNumber)\n    {\n        return walletMap[wallet].active.get(currencyCt, currencyId, index);\n    }\n\n    /// @notice Get the count of entries of the given wallet's active balance log in the given currency\n    /// @param wallet The address of the concerned wallet\n    /// @param currencyCt The address of the concerned currency contract (address(0) == ETH)\n    /// @param currencyId The ID of the concerned currency (0 for ETH and ERC20)\n    /// @return The count of the concerned wallet's active balance log entries in the given currency\n    function activeBalanceLogEntriesCount(address wallet, address currencyCt, uint256 currencyId)\n    public\n    view\n    notNullAddress(wallet)\n    returns (uint256)\n    {\n        return walletMap[wallet].active.count(currencyCt, currencyId);\n    }\n\n    /// @notice Update the settled balance by the difference between provided amount and deposited on-chain balance\n    /// @param wallet The address of the concerned wallet\n    /// @param amount The off-chain balance amount\n    /// @param currencyCt The address of the concerned currency contract (address(0) == ETH)\n    /// @param currencyId The ID of the concerned currency (0 for ETH and ERC20)\n    function updateSettledBalance(address wallet, int256 amount, address currencyCt, uint256 currencyId)\n    public\n    onlyRegisteredActiveService\n    notNullAddress(wallet)\n    {\n        require(isAuthorizedRegisteredService(msg.sender, wallet));\n        require(amount.isPositiveInt256());\n\n        int256 settledBalanceAmount = amount.sub(walletMap[wallet].deposited.get(currencyCt, currencyId));\n        walletMap[wallet].settled.set(settledBalanceAmount, currencyCt, currencyId);\n\n        // Emit event\n        emit UpdateSettledBalanceEvent(wallet, amount, currencyCt, currencyId);\n    }\n\n    /// @notice Stage the amount for subsequent withdrawal\n    /// @param wallet The address of the concerned wallet\n    /// @param amount The concerned amount\n    /// @param currencyCt The address of the concerned currency contract (address(0) == ETH)\n    /// @param currencyId The ID of the concerned currency (0 for ETH and ERC20)\n    function stage(address wallet, int256 amount, address currencyCt, uint256 currencyId)\n    public\n    onlyRegisteredActiveService\n    {\n        require(isAuthorizedRegisteredService(msg.sender, wallet));\n        require(amount.isNonZeroPositiveInt256());\n\n        // Clamp amount to stage\n        amount = amount.clampMax(walletMap[wallet].deposited.get(currencyCt, currencyId).add(walletMap[wallet].settled.get(currencyCt, currencyId)));\n        if (amount <= 0)\n            return;\n\n        // Subtract from settled, possibly also from deposited and add to staged\n        walletMap[wallet].deposited.sub(\n            walletMap[wallet].settled.get(currencyCt, currencyId) > amount ?\n            0 :\n            amount.sub(walletMap[wallet].settled.get(currencyCt, currencyId)),\n            currencyCt, currencyId\n        );\n        walletMap[wallet].settled.sub_allow_neg(\n            walletMap[wallet].settled.get(currencyCt, currencyId) > amount ?\n            amount :\n            walletMap[wallet].settled.get(currencyCt, currencyId),\n            currencyCt, currencyId\n        );\n        walletMap[wallet].staged.add(amount, currencyCt, currencyId);\n\n        // Add active balance log entry\n        walletMap[wallet].active.add(\n            walletMap[wallet].deposited.get(currencyCt, currencyId)\n            .add(walletMap[wallet].settled.get(currencyCt, currencyId)),\n            currencyCt, currencyId);\n\n        // Emit event\n        emit StageEvent(wallet, amount, currencyCt, currencyId);\n    }\n\n    /// @notice Unstage a staged amount\n    /// @param amount The concerned balance amount\n    /// @param currencyCt The address of the concerned currency contract (address(0) == ETH)\n    /// @param currencyId The ID of the concerned currency (0 for ETH and ERC20)\n    function unstage(int256 amount, address currencyCt, uint256 currencyId)\n    public\n    notDeployer\n    {\n        require(amount.isNonZeroPositiveInt256());\n\n        // Clamp amount to move\n        amount = amount.clampMax(walletMap[msg.sender].staged.get(currencyCt, currencyId));\n        if (amount == 0)\n            return;\n\n        // Move from staged balance to deposited\n        walletMap[msg.sender].staged.transfer(walletMap[msg.sender].deposited, amount, currencyCt, currencyId);\n\n        // Add active balance log entry\n        walletMap[msg.sender].active.add(\n            walletMap[msg.sender].deposited.get(currencyCt, currencyId)\n            .add(walletMap[msg.sender].settled.get(currencyCt, currencyId)),\n            currencyCt, currencyId);\n\n        // Emit event\n        emit UnstageEvent(msg.sender, amount, currencyCt, currencyId);\n    }\n\n    /// @notice Stage the amount from msg.sender to the given beneficiary and targeted to msg.sender \n    /// @param beneficiary The (address of) concerned beneficiary contract\n    /// @param amount The concerned amount\n    /// @param currencyCt The address of the concerned currency contract (address(0) == ETH)\n    /// @param currencyId The ID of the concerned currency (0 for ETH and ERC20)\n    function stageToBeneficiary(Beneficiary beneficiary, int256 amount, address currencyCt, uint256 currencyId)\n    public\n    notDeployer\n    {\n        stageToBeneficiaryPrivate(msg.sender, msg.sender, beneficiary, amount, currencyCt, currencyId);\n\n        // Emit event\n        emit StageToBeneficiaryEvent(msg.sender, beneficiary, amount, currencyCt, currencyId);\n    }\n\n    /// @notice Stage the amount from the given source wallet to the given beneficiary without target wallet\n    /// @param sourceWallet The address of concerned source wallet\n    /// @param beneficiary The (address of) concerned beneficiary contract\n    /// @param amount The concerned amount\n    /// @param currencyCt The address of the concerned currency contract (address(0) == ETH)\n    /// @param currencyId The ID of the concerned currency (0 for ETH and ERC20)\n    function stageToBeneficiaryUntargeted(address sourceWallet, Beneficiary beneficiary, int256 amount, address currencyCt, uint256 currencyId)\n    public\n    notNullAddress(sourceWallet)\n    notNullAddress(beneficiary)\n    {\n        require(isAuthorizedRegisteredService(msg.sender, sourceWallet));\n\n        stageToBeneficiaryPrivate(sourceWallet, address(0), beneficiary, amount, currencyCt, currencyId);\n\n        // Emit event\n        emit StageToBeneficiaryUntargetedEvent(sourceWallet, beneficiary, amount, currencyCt, currencyId);\n    }\n\n    /// @notice Transfer all balances of the given source wallet to the given target wallet\n    /// @param sourceWallet The address of concerned source wallet\n    /// @param targetWallet The address of concerned target wallet\n    function seizeAllBalances(address sourceWallet, address targetWallet) public\n    notNullAddress(sourceWallet)\n    notNullAddress(targetWallet)\n    {\n        require(isAuthorizedRegisteredService(msg.sender, sourceWallet));\n\n        // Seize all balances\n        uint256 len = walletMap[sourceWallet].inUseCurrencies.getLength();\n        int256 amount;\n        for (uint256 i = 0; i < len; i++) {\n            MonetaryTypesLib.Currency memory currency = walletMap[sourceWallet].inUseCurrencies.getAt(i);\n\n            amount = sumAllBalancesOfWalletAndCurrency(sourceWallet, currency.ct, currency.id);\n            assert(amount >= 0);\n\n            zeroAllBalancesOfWalletAndCurrency(sourceWallet, currency.ct, currency.id);\n\n            // Add to staged balance\n            walletMap[targetWallet].staged.add(amount, currency.ct, currency.id);\n\n            // Add currencyCt to in-use list\n            walletMap[targetWallet].inUseCurrencies.addItem(currency.ct, currency.id);\n        }\n\n        // Emit event\n        emit SeizeAllBalancesEvent(sourceWallet, targetWallet);\n    }\n\n    /// @notice Withdraw the given amount from staged balance\n    /// @param amount The concerned amount\n    /// @param currencyCt The address of the concerned currency contract (address(0) == ETH)\n    /// @param currencyId The ID of the concerned currency (0 for ETH and ERC20)\n    /// @param standard The standard of token (\"ERC20\", \"ERC721\")\n    function withdraw(int256 amount, address currencyCt, uint256 currencyId, string standard)\n    public\n    {\n        require(amount.isNonZeroPositiveInt256());\n\n        amount = amount.clampMax(walletMap[msg.sender].staged.get(currencyCt, currencyId));\n        if (amount <= 0)\n            return;\n\n        // Subtract to per-wallet staged balance\n        walletMap[msg.sender].staged.sub(amount, currencyCt, currencyId);\n        walletMap[msg.sender].txHistory.addWithdrawal(amount, currencyCt, currencyId);\n\n        // Execute transfer\n        if (currencyCt == address(0) && currencyId == 0)\n            msg.sender.transfer(uint256(amount));\n\n        else {\n            TransferController controller = getTransferController(currencyCt, standard);\n            require(address(controller).delegatecall(controller.getDispatchSignature(), this, msg.sender, uint256(amount), currencyCt, currencyId));\n        }\n\n        // Emit event\n        emit WithdrawEvent(msg.sender, amount, currencyCt, currencyId, standard);\n    }\n\n    /// @notice Get metadata of the given wallet's withdrawal at the given index\n    /// @param wallet The address of the concerned wallet\n    /// @param index The index of wallet's withdrawal\n    /// @return The withdrawal metadata\n    function withdrawal(address wallet, uint256 index)\n    public\n    view\n    returns (int256 amount, uint256 blockNumber, address currencyCt, uint256 currencyId)\n    {\n        return walletMap[wallet].txHistory.withdrawal(index);\n    }\n\n    /// @notice Get the count of the given wallet's withdrawals\n    /// @param wallet The address of the concerned wallet\n    /// @return The count of the concerned wallet's withdrawals\n    function withdrawalsCount(address wallet)\n    public\n    view\n    returns (uint256)\n    {\n        return walletMap[wallet].txHistory.withdrawalsCount();\n    }\n\n    /// @notice Get metadata of the given wallet's withdrawal in the given currency at the given index\n    /// @param wallet The address of the concerned wallet\n    /// @param currencyCt The address of the concerned currency contract (address(0) == ETH)\n    /// @param currencyId The ID of the concerned currency (0 for ETH and ERC20)\n    /// @param index The index of wallet's withdrawal in the given currency\n    /// @return The withdrawal metadata\n    function withdrawalOfCurrency(address wallet, address currencyCt, uint256 currencyId, uint256 index)\n    public\n    view\n    returns (int256 amount, uint256 blockNumber)\n    {\n        return walletMap[wallet].txHistory.currencyWithdrawal(currencyCt, currencyId, index);\n    }\n\n    /// @notice Get the count of the given wallet's withdrawals in the given currency\n    /// @param wallet The address of the concerned wallet\n    /// @param currencyCt The address of the concerned currency contract (address(0) == ETH)\n    /// @param currencyId The ID of the concerned currency (0 for ETH and ERC20)\n    /// @return The count of the concerned wallet's withdrawals in the given currency\n    function withdrawalsOfCurrencyCount(address wallet, address currencyCt, uint256 currencyId)\n    public\n    view\n    returns (uint256)\n    {\n        return walletMap[wallet].txHistory.currencyWithdrawalsCount(currencyCt, currencyId);\n    }\n\n    //\n    // Private functions\n    // -----------------------------------------------------------------------------------------------------------------\n    function stageToBeneficiaryPrivate(address sourceWallet, address destWallet, Beneficiary beneficiary,\n        int256 amount, address currencyCt, uint256 currencyId)\n    private\n    {\n        require(amount.isNonZeroPositiveInt256());\n        require(isRegisteredBeneficiary(beneficiary));\n\n        //clamp amount to stage\n        amount = amount.clampMax(walletMap[sourceWallet].deposited.get(currencyCt, currencyId)\n            .add(walletMap[sourceWallet].settled.get(currencyCt, currencyId)));\n        if (amount <= 0)\n            return;\n\n        walletMap[sourceWallet].deposited.sub(\n            walletMap[sourceWallet].settled.get(currencyCt, currencyId) > amount ?\n            0 :\n            amount.sub(walletMap[sourceWallet].settled.get(currencyCt, currencyId)),\n            currencyCt, currencyId\n        );\n        walletMap[sourceWallet].settled.sub_allow_neg(\n            walletMap[sourceWallet].settled.get(currencyCt, currencyId) > amount ?\n            amount :\n            walletMap[sourceWallet].settled.get(currencyCt, currencyId),\n            currencyCt, currencyId);\n\n        transferToBeneficiaryPrivate(destWallet, beneficiary, amount, currencyCt, currencyId);\n    }\n\n    // TODO Update this function with 'standard' parameter as in deposits and withdrawals\n    function transferToBeneficiaryPrivate(address destWallet, Beneficiary beneficiary,\n        int256 amount, address currencyCt, uint256 currencyId)\n    private {\n        // Transfer funds to the beneficiary\n        if (currencyCt == address(0) && currencyId == 0)\n            beneficiary.depositEthersTo.value(uint256(amount))(destWallet);\n\n        else {\n            //execute transfer\n            TransferController controller = getTransferController(currencyCt, \"\");\n            require(address(controller).delegatecall(controller.getApproveSignature(), beneficiary, uint256(amount), currencyCt, currencyId));\n\n            //transfer funds to the beneficiary\n            beneficiary.depositTokensTo(destWallet, amount, currencyCt, currencyId, \"\");\n        }\n    }\n\n    function sumAllBalancesOfWalletAndCurrency(address wallet, address currencyCt, uint256 currencyId)\n    private\n    view\n    returns (int256)\n    {\n        return walletMap[wallet].deposited.get(currencyCt, currencyId)\n        .add(walletMap[wallet].settled.get(currencyCt, currencyId))\n        .add(walletMap[wallet].staged.get(currencyCt, currencyId));\n    }\n\n    function zeroAllBalancesOfWalletAndCurrency(address wallet, address currencyCt, uint256 currencyId)\n    private\n    {\n        walletMap[wallet].deposited.set(0, currencyCt, currencyId);\n        walletMap[wallet].settled.set(0, currencyCt, currencyId);\n        walletMap[wallet].staged.set(0, currencyCt, currencyId);\n    }\n}\n",
  "sourcePath": "/opt/buildagent/work/855e104608380c36/contracts/ClientFund.sol",
  "compiler": {
    "name": "solc",
    "version": "0.4.24+commit.e67f0147.Emscripten.clang"
  },
  "schemaVersion": "2.0.0",
  "updatedAt": "2018-11-02T11:41:26.025Z"
}