{
  "contractName": "DriipSettlementChallenge",
  "abi": [
    {
      "constant": false,
      "inputs": [
        {
          "name": "newOperator",
          "type": "address"
        }
      ],
      "name": "changeOperator",
      "outputs": [],
      "payable": false,
      "stateMutability": "nonpayable",
      "type": "function"
    },
    {
      "constant": true,
      "inputs": [
        {
          "name": "",
          "type": "uint256"
        }
      ],
      "name": "challengeCandidatePayments",
      "outputs": [
        {
          "name": "nonce",
          "type": "uint256"
        },
        {
          "name": "amount",
          "type": "int256"
        },
        {
          "components": [
            {
              "name": "ct",
              "type": "address"
            },
            {
              "name": "id",
              "type": "uint256"
            }
          ],
          "name": "currency",
          "type": "tuple"
        },
        {
          "components": [
            {
              "name": "nonce",
              "type": "uint256"
            },
            {
              "name": "wallet",
              "type": "address"
            },
            {
              "components": [
                {
                  "name": "current",
                  "type": "int256"
                },
                {
                  "name": "previous",
                  "type": "int256"
                }
              ],
              "name": "balances",
              "type": "tuple"
            },
            {
              "components": [
                {
                  "components": [
                    {
                      "name": "amount",
                      "type": "int256"
                    },
                    {
                      "components": [
                        {
                          "name": "ct",
                          "type": "address"
                        },
                        {
                          "name": "id",
                          "type": "uint256"
                        }
                      ],
                      "name": "currency",
                      "type": "tuple"
                    }
                  ],
                  "name": "single",
                  "type": "tuple"
                },
                {
                  "components": [
                    {
                      "name": "amount",
                      "type": "int256"
                    },
                    {
                      "components": [
                        {
                          "name": "ct",
                          "type": "address"
                        },
                        {
                          "name": "id",
                          "type": "uint256"
                        }
                      ],
                      "name": "currency",
                      "type": "tuple"
                    }
                  ],
                  "name": "total",
                  "type": "tuple[]"
                }
              ],
              "name": "fees",
              "type": "tuple"
            }
          ],
          "name": "sender",
          "type": "tuple"
        },
        {
          "components": [
            {
              "name": "nonce",
              "type": "uint256"
            },
            {
              "name": "wallet",
              "type": "address"
            },
            {
              "components": [
                {
                  "name": "current",
                  "type": "int256"
                },
                {
                  "name": "previous",
                  "type": "int256"
                }
              ],
              "name": "balances",
              "type": "tuple"
            },
            {
              "components": [
                {
                  "components": [
                    {
                      "name": "amount",
                      "type": "int256"
                    },
                    {
                      "components": [
                        {
                          "name": "ct",
                          "type": "address"
                        },
                        {
                          "name": "id",
                          "type": "uint256"
                        }
                      ],
                      "name": "currency",
                      "type": "tuple"
                    }
                  ],
                  "name": "total",
                  "type": "tuple[]"
                }
              ],
              "name": "fees",
              "type": "tuple"
            }
          ],
          "name": "recipient",
          "type": "tuple"
        },
        {
          "components": [
            {
              "name": "single",
              "type": "int256"
            },
            {
              "name": "total",
              "type": "int256"
            }
          ],
          "name": "transfers",
          "type": "tuple"
        },
        {
          "components": [
            {
              "components": [
                {
                  "name": "hash",
                  "type": "bytes32"
                },
                {
                  "components": [
                    {
                      "name": "r",
                      "type": "bytes32"
                    },
                    {
                      "name": "s",
                      "type": "bytes32"
                    },
                    {
                      "name": "v",
                      "type": "uint8"
                    }
                  ],
                  "name": "signature",
                  "type": "tuple"
                }
              ],
              "name": "wallet",
              "type": "tuple"
            },
            {
              "components": [
                {
                  "name": "hash",
                  "type": "bytes32"
                },
                {
                  "components": [
                    {
                      "name": "r",
                      "type": "bytes32"
                    },
                    {
                      "name": "s",
                      "type": "bytes32"
                    },
                    {
                      "name": "v",
                      "type": "uint8"
                    }
                  ],
                  "name": "signature",
                  "type": "tuple"
                }
              ],
              "name": "operator",
              "type": "tuple"
            }
          ],
          "name": "seals",
          "type": "tuple"
        },
        {
          "name": "blockNumber",
          "type": "uint256"
        },
        {
          "name": "operatorId",
          "type": "uint256"
        }
      ],
      "payable": false,
      "stateMutability": "view",
      "type": "function"
    },
    {
      "constant": true,
      "inputs": [
        {
          "name": "",
          "type": "address"
        },
        {
          "name": "",
          "type": "uint256"
        }
      ],
      "name": "walletChallengedPaymentsMap",
      "outputs": [
        {
          "name": "nonce",
          "type": "uint256"
        },
        {
          "name": "amount",
          "type": "int256"
        },
        {
          "components": [
            {
              "name": "ct",
              "type": "address"
            },
            {
              "name": "id",
              "type": "uint256"
            }
          ],
          "name": "currency",
          "type": "tuple"
        },
        {
          "components": [
            {
              "name": "nonce",
              "type": "uint256"
            },
            {
              "name": "wallet",
              "type": "address"
            },
            {
              "components": [
                {
                  "name": "current",
                  "type": "int256"
                },
                {
                  "name": "previous",
                  "type": "int256"
                }
              ],
              "name": "balances",
              "type": "tuple"
            },
            {
              "components": [
                {
                  "components": [
                    {
                      "name": "amount",
                      "type": "int256"
                    },
                    {
                      "components": [
                        {
                          "name": "ct",
                          "type": "address"
                        },
                        {
                          "name": "id",
                          "type": "uint256"
                        }
                      ],
                      "name": "currency",
                      "type": "tuple"
                    }
                  ],
                  "name": "single",
                  "type": "tuple"
                },
                {
                  "components": [
                    {
                      "name": "amount",
                      "type": "int256"
                    },
                    {
                      "components": [
                        {
                          "name": "ct",
                          "type": "address"
                        },
                        {
                          "name": "id",
                          "type": "uint256"
                        }
                      ],
                      "name": "currency",
                      "type": "tuple"
                    }
                  ],
                  "name": "total",
                  "type": "tuple[]"
                }
              ],
              "name": "fees",
              "type": "tuple"
            }
          ],
          "name": "sender",
          "type": "tuple"
        },
        {
          "components": [
            {
              "name": "nonce",
              "type": "uint256"
            },
            {
              "name": "wallet",
              "type": "address"
            },
            {
              "components": [
                {
                  "name": "current",
                  "type": "int256"
                },
                {
                  "name": "previous",
                  "type": "int256"
                }
              ],
              "name": "balances",
              "type": "tuple"
            },
            {
              "components": [
                {
                  "components": [
                    {
                      "name": "amount",
                      "type": "int256"
                    },
                    {
                      "components": [
                        {
                          "name": "ct",
                          "type": "address"
                        },
                        {
                          "name": "id",
                          "type": "uint256"
                        }
                      ],
                      "name": "currency",
                      "type": "tuple"
                    }
                  ],
                  "name": "total",
                  "type": "tuple[]"
                }
              ],
              "name": "fees",
              "type": "tuple"
            }
          ],
          "name": "recipient",
          "type": "tuple"
        },
        {
          "components": [
            {
              "name": "single",
              "type": "int256"
            },
            {
              "name": "total",
              "type": "int256"
            }
          ],
          "name": "transfers",
          "type": "tuple"
        },
        {
          "components": [
            {
              "components": [
                {
                  "name": "hash",
                  "type": "bytes32"
                },
                {
                  "components": [
                    {
                      "name": "r",
                      "type": "bytes32"
                    },
                    {
                      "name": "s",
                      "type": "bytes32"
                    },
                    {
                      "name": "v",
                      "type": "uint8"
                    }
                  ],
                  "name": "signature",
                  "type": "tuple"
                }
              ],
              "name": "wallet",
              "type": "tuple"
            },
            {
              "components": [
                {
                  "name": "hash",
                  "type": "bytes32"
                },
                {
                  "components": [
                    {
                      "name": "r",
                      "type": "bytes32"
                    },
                    {
                      "name": "s",
                      "type": "bytes32"
                    },
                    {
                      "name": "v",
                      "type": "uint8"
                    }
                  ],
                  "name": "signature",
                  "type": "tuple"
                }
              ],
              "name": "operator",
              "type": "tuple"
            }
          ],
          "name": "seals",
          "type": "tuple"
        },
        {
          "name": "blockNumber",
          "type": "uint256"
        },
        {
          "name": "operatorId",
          "type": "uint256"
        }
      ],
      "payable": false,
      "stateMutability": "view",
      "type": "function"
    },
    {
      "constant": true,
      "inputs": [
        {
          "name": "",
          "type": "address"
        }
      ],
      "name": "walletProposalMap",
      "outputs": [
        {
          "name": "nonce",
          "type": "uint256"
        },
        {
          "name": "blockNumber",
          "type": "uint256"
        },
        {
          "name": "timeout",
          "type": "uint256"
        },
        {
          "name": "status",
          "type": "uint8"
        },
        {
          "name": "driipType",
          "type": "uint8"
        },
        {
          "name": "driipIndex",
          "type": "uint256"
        },
        {
          "name": "candidateType",
          "type": "uint8"
        },
        {
          "name": "candidateIndex",
          "type": "uint256"
        },
        {
          "name": "challenger",
          "type": "address"
        }
      ],
      "payable": false,
      "stateMutability": "view",
      "type": "function"
    },
    {
      "constant": true,
      "inputs": [],
      "name": "validator",
      "outputs": [
        {
          "name": "",
          "type": "address"
        }
      ],
      "payable": false,
      "stateMutability": "view",
      "type": "function"
    },
    {
      "constant": true,
      "inputs": [],
      "name": "destructor",
      "outputs": [
        {
          "name": "",
          "type": "address"
        }
      ],
      "payable": false,
      "stateMutability": "view",
      "type": "function"
    },
    {
      "constant": true,
      "inputs": [],
      "name": "operator",
      "outputs": [
        {
          "name": "",
          "type": "address"
        }
      ],
      "payable": false,
      "stateMutability": "view",
      "type": "function"
    },
    {
      "constant": true,
      "inputs": [],
      "name": "configuration",
      "outputs": [
        {
          "name": "",
          "type": "address"
        }
      ],
      "payable": false,
      "stateMutability": "view",
      "type": "function"
    },
    {
      "constant": false,
      "inputs": [
        {
          "name": "newConfiguration",
          "type": "address"
        }
      ],
      "name": "changeConfiguration",
      "outputs": [],
      "payable": false,
      "stateMutability": "nonpayable",
      "type": "function"
    },
    {
      "constant": false,
      "inputs": [],
      "name": "triggerDestroy",
      "outputs": [],
      "payable": false,
      "stateMutability": "nonpayable",
      "type": "function"
    },
    {
      "constant": true,
      "inputs": [
        {
          "name": "",
          "type": "uint256"
        }
      ],
      "name": "challengeCandidateTrades",
      "outputs": [
        {
          "name": "nonce",
          "type": "uint256"
        },
        {
          "name": "amount",
          "type": "int256"
        },
        {
          "components": [
            {
              "components": [
                {
                  "name": "ct",
                  "type": "address"
                },
                {
                  "name": "id",
                  "type": "uint256"
                }
              ],
              "name": "intended",
              "type": "tuple"
            },
            {
              "components": [
                {
                  "name": "ct",
                  "type": "address"
                },
                {
                  "name": "id",
                  "type": "uint256"
                }
              ],
              "name": "conjugate",
              "type": "tuple"
            }
          ],
          "name": "currencies",
          "type": "tuple"
        },
        {
          "name": "rate",
          "type": "int256"
        },
        {
          "components": [
            {
              "name": "nonce",
              "type": "uint256"
            },
            {
              "name": "wallet",
              "type": "address"
            },
            {
              "name": "rollingVolume",
              "type": "uint256"
            },
            {
              "name": "liquidityRole",
              "type": "uint8"
            },
            {
              "components": [
                {
                  "name": "amount",
                  "type": "int256"
                },
                {
                  "components": [
                    {
                      "name": "wallet",
                      "type": "bytes32"
                    },
                    {
                      "name": "operator",
                      "type": "bytes32"
                    }
                  ],
                  "name": "hashes",
                  "type": "tuple"
                },
                {
                  "components": [
                    {
                      "name": "current",
                      "type": "int256"
                    },
                    {
                      "name": "previous",
                      "type": "int256"
                    }
                  ],
                  "name": "residuals",
                  "type": "tuple"
                }
              ],
              "name": "order",
              "type": "tuple"
            },
            {
              "components": [
                {
                  "components": [
                    {
                      "name": "current",
                      "type": "int256"
                    },
                    {
                      "name": "previous",
                      "type": "int256"
                    }
                  ],
                  "name": "intended",
                  "type": "tuple"
                },
                {
                  "components": [
                    {
                      "name": "current",
                      "type": "int256"
                    },
                    {
                      "name": "previous",
                      "type": "int256"
                    }
                  ],
                  "name": "conjugate",
                  "type": "tuple"
                }
              ],
              "name": "balances",
              "type": "tuple"
            },
            {
              "components": [
                {
                  "components": [
                    {
                      "name": "amount",
                      "type": "int256"
                    },
                    {
                      "components": [
                        {
                          "name": "ct",
                          "type": "address"
                        },
                        {
                          "name": "id",
                          "type": "uint256"
                        }
                      ],
                      "name": "currency",
                      "type": "tuple"
                    }
                  ],
                  "name": "single",
                  "type": "tuple"
                },
                {
                  "components": [
                    {
                      "name": "amount",
                      "type": "int256"
                    },
                    {
                      "components": [
                        {
                          "name": "ct",
                          "type": "address"
                        },
                        {
                          "name": "id",
                          "type": "uint256"
                        }
                      ],
                      "name": "currency",
                      "type": "tuple"
                    }
                  ],
                  "name": "total",
                  "type": "tuple[]"
                }
              ],
              "name": "fees",
              "type": "tuple"
            }
          ],
          "name": "buyer",
          "type": "tuple"
        },
        {
          "components": [
            {
              "name": "nonce",
              "type": "uint256"
            },
            {
              "name": "wallet",
              "type": "address"
            },
            {
              "name": "rollingVolume",
              "type": "uint256"
            },
            {
              "name": "liquidityRole",
              "type": "uint8"
            },
            {
              "components": [
                {
                  "name": "amount",
                  "type": "int256"
                },
                {
                  "components": [
                    {
                      "name": "wallet",
                      "type": "bytes32"
                    },
                    {
                      "name": "operator",
                      "type": "bytes32"
                    }
                  ],
                  "name": "hashes",
                  "type": "tuple"
                },
                {
                  "components": [
                    {
                      "name": "current",
                      "type": "int256"
                    },
                    {
                      "name": "previous",
                      "type": "int256"
                    }
                  ],
                  "name": "residuals",
                  "type": "tuple"
                }
              ],
              "name": "order",
              "type": "tuple"
            },
            {
              "components": [
                {
                  "components": [
                    {
                      "name": "current",
                      "type": "int256"
                    },
                    {
                      "name": "previous",
                      "type": "int256"
                    }
                  ],
                  "name": "intended",
                  "type": "tuple"
                },
                {
                  "components": [
                    {
                      "name": "current",
                      "type": "int256"
                    },
                    {
                      "name": "previous",
                      "type": "int256"
                    }
                  ],
                  "name": "conjugate",
                  "type": "tuple"
                }
              ],
              "name": "balances",
              "type": "tuple"
            },
            {
              "components": [
                {
                  "components": [
                    {
                      "name": "amount",
                      "type": "int256"
                    },
                    {
                      "components": [
                        {
                          "name": "ct",
                          "type": "address"
                        },
                        {
                          "name": "id",
                          "type": "uint256"
                        }
                      ],
                      "name": "currency",
                      "type": "tuple"
                    }
                  ],
                  "name": "single",
                  "type": "tuple"
                },
                {
                  "components": [
                    {
                      "name": "amount",
                      "type": "int256"
                    },
                    {
                      "components": [
                        {
                          "name": "ct",
                          "type": "address"
                        },
                        {
                          "name": "id",
                          "type": "uint256"
                        }
                      ],
                      "name": "currency",
                      "type": "tuple"
                    }
                  ],
                  "name": "total",
                  "type": "tuple[]"
                }
              ],
              "name": "fees",
              "type": "tuple"
            }
          ],
          "name": "seller",
          "type": "tuple"
        },
        {
          "components": [
            {
              "components": [
                {
                  "name": "single",
                  "type": "int256"
                },
                {
                  "name": "total",
                  "type": "int256"
                }
              ],
              "name": "intended",
              "type": "tuple"
            },
            {
              "components": [
                {
                  "name": "single",
                  "type": "int256"
                },
                {
                  "name": "total",
                  "type": "int256"
                }
              ],
              "name": "conjugate",
              "type": "tuple"
            }
          ],
          "name": "transfers",
          "type": "tuple"
        },
        {
          "components": [
            {
              "name": "hash",
              "type": "bytes32"
            },
            {
              "components": [
                {
                  "name": "r",
                  "type": "bytes32"
                },
                {
                  "name": "s",
                  "type": "bytes32"
                },
                {
                  "name": "v",
                  "type": "uint8"
                }
              ],
              "name": "signature",
              "type": "tuple"
            }
          ],
          "name": "seal",
          "type": "tuple"
        },
        {
          "name": "blockNumber",
          "type": "uint256"
        },
        {
          "name": "operatorId",
          "type": "uint256"
        }
      ],
      "payable": false,
      "stateMutability": "view",
      "type": "function"
    },
    {
      "constant": true,
      "inputs": [],
      "name": "driipSettlementDispute",
      "outputs": [
        {
          "name": "",
          "type": "address"
        }
      ],
      "payable": false,
      "stateMutability": "view",
      "type": "function"
    },
    {
      "constant": true,
      "inputs": [],
      "name": "deployer",
      "outputs": [
        {
          "name": "",
          "type": "address"
        }
      ],
      "payable": false,
      "stateMutability": "view",
      "type": "function"
    },
    {
      "constant": false,
      "inputs": [
        {
          "name": "newDeployer",
          "type": "address"
        }
      ],
      "name": "changeDeployer",
      "outputs": [],
      "payable": false,
      "stateMutability": "nonpayable",
      "type": "function"
    },
    {
      "constant": true,
      "inputs": [
        {
          "name": "",
          "type": "uint256"
        }
      ],
      "name": "challengeCandidateOrders",
      "outputs": [
        {
          "name": "nonce",
          "type": "uint256"
        },
        {
          "name": "wallet",
          "type": "address"
        },
        {
          "components": [
            {
              "name": "intention",
              "type": "uint8"
            },
            {
              "name": "amount",
              "type": "int256"
            },
            {
              "components": [
                {
                  "components": [
                    {
                      "name": "ct",
                      "type": "address"
                    },
                    {
                      "name": "id",
                      "type": "uint256"
                    }
                  ],
                  "name": "intended",
                  "type": "tuple"
                },
                {
                  "components": [
                    {
                      "name": "ct",
                      "type": "address"
                    },
                    {
                      "name": "id",
                      "type": "uint256"
                    }
                  ],
                  "name": "conjugate",
                  "type": "tuple"
                }
              ],
              "name": "currencies",
              "type": "tuple"
            },
            {
              "name": "rate",
              "type": "int256"
            },
            {
              "components": [
                {
                  "name": "current",
                  "type": "int256"
                },
                {
                  "name": "previous",
                  "type": "int256"
                }
              ],
              "name": "residuals",
              "type": "tuple"
            }
          ],
          "name": "placement",
          "type": "tuple"
        },
        {
          "components": [
            {
              "components": [
                {
                  "name": "hash",
                  "type": "bytes32"
                },
                {
                  "components": [
                    {
                      "name": "r",
                      "type": "bytes32"
                    },
                    {
                      "name": "s",
                      "type": "bytes32"
                    },
                    {
                      "name": "v",
                      "type": "uint8"
                    }
                  ],
                  "name": "signature",
                  "type": "tuple"
                }
              ],
              "name": "wallet",
              "type": "tuple"
            },
            {
              "components": [
                {
                  "name": "hash",
                  "type": "bytes32"
                },
                {
                  "components": [
                    {
                      "name": "r",
                      "type": "bytes32"
                    },
                    {
                      "name": "s",
                      "type": "bytes32"
                    },
                    {
                      "name": "v",
                      "type": "uint8"
                    }
                  ],
                  "name": "signature",
                  "type": "tuple"
                }
              ],
              "name": "operator",
              "type": "tuple"
            }
          ],
          "name": "seals",
          "type": "tuple"
        },
        {
          "name": "blockNumber",
          "type": "uint256"
        },
        {
          "name": "operatorId",
          "type": "uint256"
        }
      ],
      "payable": false,
      "stateMutability": "view",
      "type": "function"
    },
    {
      "constant": false,
      "inputs": [
        {
          "name": "newAddress",
          "type": "address"
        }
      ],
      "name": "changeValidator",
      "outputs": [],
      "payable": false,
      "stateMutability": "nonpayable",
      "type": "function"
    },
    {
      "constant": true,
      "inputs": [
        {
          "name": "",
          "type": "address"
        },
        {
          "name": "",
          "type": "uint256"
        }
      ],
      "name": "walletChallengedTradesMap",
      "outputs": [
        {
          "name": "nonce",
          "type": "uint256"
        },
        {
          "name": "amount",
          "type": "int256"
        },
        {
          "components": [
            {
              "components": [
                {
                  "name": "ct",
                  "type": "address"
                },
                {
                  "name": "id",
                  "type": "uint256"
                }
              ],
              "name": "intended",
              "type": "tuple"
            },
            {
              "components": [
                {
                  "name": "ct",
                  "type": "address"
                },
                {
                  "name": "id",
                  "type": "uint256"
                }
              ],
              "name": "conjugate",
              "type": "tuple"
            }
          ],
          "name": "currencies",
          "type": "tuple"
        },
        {
          "name": "rate",
          "type": "int256"
        },
        {
          "components": [
            {
              "name": "nonce",
              "type": "uint256"
            },
            {
              "name": "wallet",
              "type": "address"
            },
            {
              "name": "rollingVolume",
              "type": "uint256"
            },
            {
              "name": "liquidityRole",
              "type": "uint8"
            },
            {
              "components": [
                {
                  "name": "amount",
                  "type": "int256"
                },
                {
                  "components": [
                    {
                      "name": "wallet",
                      "type": "bytes32"
                    },
                    {
                      "name": "operator",
                      "type": "bytes32"
                    }
                  ],
                  "name": "hashes",
                  "type": "tuple"
                },
                {
                  "components": [
                    {
                      "name": "current",
                      "type": "int256"
                    },
                    {
                      "name": "previous",
                      "type": "int256"
                    }
                  ],
                  "name": "residuals",
                  "type": "tuple"
                }
              ],
              "name": "order",
              "type": "tuple"
            },
            {
              "components": [
                {
                  "components": [
                    {
                      "name": "current",
                      "type": "int256"
                    },
                    {
                      "name": "previous",
                      "type": "int256"
                    }
                  ],
                  "name": "intended",
                  "type": "tuple"
                },
                {
                  "components": [
                    {
                      "name": "current",
                      "type": "int256"
                    },
                    {
                      "name": "previous",
                      "type": "int256"
                    }
                  ],
                  "name": "conjugate",
                  "type": "tuple"
                }
              ],
              "name": "balances",
              "type": "tuple"
            },
            {
              "components": [
                {
                  "components": [
                    {
                      "name": "amount",
                      "type": "int256"
                    },
                    {
                      "components": [
                        {
                          "name": "ct",
                          "type": "address"
                        },
                        {
                          "name": "id",
                          "type": "uint256"
                        }
                      ],
                      "name": "currency",
                      "type": "tuple"
                    }
                  ],
                  "name": "single",
                  "type": "tuple"
                },
                {
                  "components": [
                    {
                      "name": "amount",
                      "type": "int256"
                    },
                    {
                      "components": [
                        {
                          "name": "ct",
                          "type": "address"
                        },
                        {
                          "name": "id",
                          "type": "uint256"
                        }
                      ],
                      "name": "currency",
                      "type": "tuple"
                    }
                  ],
                  "name": "total",
                  "type": "tuple[]"
                }
              ],
              "name": "fees",
              "type": "tuple"
            }
          ],
          "name": "buyer",
          "type": "tuple"
        },
        {
          "components": [
            {
              "name": "nonce",
              "type": "uint256"
            },
            {
              "name": "wallet",
              "type": "address"
            },
            {
              "name": "rollingVolume",
              "type": "uint256"
            },
            {
              "name": "liquidityRole",
              "type": "uint8"
            },
            {
              "components": [
                {
                  "name": "amount",
                  "type": "int256"
                },
                {
                  "components": [
                    {
                      "name": "wallet",
                      "type": "bytes32"
                    },
                    {
                      "name": "operator",
                      "type": "bytes32"
                    }
                  ],
                  "name": "hashes",
                  "type": "tuple"
                },
                {
                  "components": [
                    {
                      "name": "current",
                      "type": "int256"
                    },
                    {
                      "name": "previous",
                      "type": "int256"
                    }
                  ],
                  "name": "residuals",
                  "type": "tuple"
                }
              ],
              "name": "order",
              "type": "tuple"
            },
            {
              "components": [
                {
                  "components": [
                    {
                      "name": "current",
                      "type": "int256"
                    },
                    {
                      "name": "previous",
                      "type": "int256"
                    }
                  ],
                  "name": "intended",
                  "type": "tuple"
                },
                {
                  "components": [
                    {
                      "name": "current",
                      "type": "int256"
                    },
                    {
                      "name": "previous",
                      "type": "int256"
                    }
                  ],
                  "name": "conjugate",
                  "type": "tuple"
                }
              ],
              "name": "balances",
              "type": "tuple"
            },
            {
              "components": [
                {
                  "components": [
                    {
                      "name": "amount",
                      "type": "int256"
                    },
                    {
                      "components": [
                        {
                          "name": "ct",
                          "type": "address"
                        },
                        {
                          "name": "id",
                          "type": "uint256"
                        }
                      ],
                      "name": "currency",
                      "type": "tuple"
                    }
                  ],
                  "name": "single",
                  "type": "tuple"
                },
                {
                  "components": [
                    {
                      "name": "amount",
                      "type": "int256"
                    },
                    {
                      "components": [
                        {
                          "name": "ct",
                          "type": "address"
                        },
                        {
                          "name": "id",
                          "type": "uint256"
                        }
                      ],
                      "name": "currency",
                      "type": "tuple"
                    }
                  ],
                  "name": "total",
                  "type": "tuple[]"
                }
              ],
              "name": "fees",
              "type": "tuple"
            }
          ],
          "name": "seller",
          "type": "tuple"
        },
        {
          "components": [
            {
              "components": [
                {
                  "name": "single",
                  "type": "int256"
                },
                {
                  "name": "total",
                  "type": "int256"
                }
              ],
              "name": "intended",
              "type": "tuple"
            },
            {
              "components": [
                {
                  "name": "single",
                  "type": "int256"
                },
                {
                  "name": "total",
                  "type": "int256"
                }
              ],
              "name": "conjugate",
              "type": "tuple"
            }
          ],
          "name": "transfers",
          "type": "tuple"
        },
        {
          "components": [
            {
              "name": "hash",
              "type": "bytes32"
            },
            {
              "components": [
                {
                  "name": "r",
                  "type": "bytes32"
                },
                {
                  "name": "s",
                  "type": "bytes32"
                },
                {
                  "name": "v",
                  "type": "uint8"
                }
              ],
              "name": "signature",
              "type": "tuple"
            }
          ],
          "name": "seal",
          "type": "tuple"
        },
        {
          "name": "blockNumber",
          "type": "uint256"
        },
        {
          "name": "operatorId",
          "type": "uint256"
        }
      ],
      "payable": false,
      "stateMutability": "view",
      "type": "function"
    },
    {
      "inputs": [
        {
          "name": "owner",
          "type": "address"
        }
      ],
      "payable": false,
      "stateMutability": "nonpayable",
      "type": "constructor"
    },
    {
      "anonymous": false,
      "inputs": [
        {
          "indexed": false,
          "name": "oldDriipSettlementDispute",
          "type": "address"
        },
        {
          "indexed": false,
          "name": "newDriipSettlementDispute",
          "type": "address"
        }
      ],
      "name": "ChangeDriipSettlementDisputeEvent",
      "type": "event"
    },
    {
      "anonymous": false,
      "inputs": [
        {
          "indexed": false,
          "name": "wallet",
          "type": "address"
        },
        {
          "components": [
            {
              "name": "nonce",
              "type": "uint256"
            },
            {
              "name": "amount",
              "type": "int256"
            },
            {
              "components": [
                {
                  "components": [
                    {
                      "name": "ct",
                      "type": "address"
                    },
                    {
                      "name": "id",
                      "type": "uint256"
                    }
                  ],
                  "name": "intended",
                  "type": "tuple"
                },
                {
                  "components": [
                    {
                      "name": "ct",
                      "type": "address"
                    },
                    {
                      "name": "id",
                      "type": "uint256"
                    }
                  ],
                  "name": "conjugate",
                  "type": "tuple"
                }
              ],
              "name": "currencies",
              "type": "tuple"
            },
            {
              "name": "rate",
              "type": "int256"
            },
            {
              "components": [
                {
                  "name": "nonce",
                  "type": "uint256"
                },
                {
                  "name": "wallet",
                  "type": "address"
                },
                {
                  "name": "rollingVolume",
                  "type": "uint256"
                },
                {
                  "name": "liquidityRole",
                  "type": "uint8"
                },
                {
                  "components": [
                    {
                      "name": "amount",
                      "type": "int256"
                    },
                    {
                      "components": [
                        {
                          "name": "wallet",
                          "type": "bytes32"
                        },
                        {
                          "name": "operator",
                          "type": "bytes32"
                        }
                      ],
                      "name": "hashes",
                      "type": "tuple"
                    },
                    {
                      "components": [
                        {
                          "name": "current",
                          "type": "int256"
                        },
                        {
                          "name": "previous",
                          "type": "int256"
                        }
                      ],
                      "name": "residuals",
                      "type": "tuple"
                    }
                  ],
                  "name": "order",
                  "type": "tuple"
                },
                {
                  "components": [
                    {
                      "components": [
                        {
                          "name": "current",
                          "type": "int256"
                        },
                        {
                          "name": "previous",
                          "type": "int256"
                        }
                      ],
                      "name": "intended",
                      "type": "tuple"
                    },
                    {
                      "components": [
                        {
                          "name": "current",
                          "type": "int256"
                        },
                        {
                          "name": "previous",
                          "type": "int256"
                        }
                      ],
                      "name": "conjugate",
                      "type": "tuple"
                    }
                  ],
                  "name": "balances",
                  "type": "tuple"
                },
                {
                  "components": [
                    {
                      "components": [
                        {
                          "name": "amount",
                          "type": "int256"
                        },
                        {
                          "components": [
                            {
                              "name": "ct",
                              "type": "address"
                            },
                            {
                              "name": "id",
                              "type": "uint256"
                            }
                          ],
                          "name": "currency",
                          "type": "tuple"
                        }
                      ],
                      "name": "single",
                      "type": "tuple"
                    },
                    {
                      "components": [
                        {
                          "name": "amount",
                          "type": "int256"
                        },
                        {
                          "components": [
                            {
                              "name": "ct",
                              "type": "address"
                            },
                            {
                              "name": "id",
                              "type": "uint256"
                            }
                          ],
                          "name": "currency",
                          "type": "tuple"
                        }
                      ],
                      "name": "total",
                      "type": "tuple[]"
                    }
                  ],
                  "name": "fees",
                  "type": "tuple"
                }
              ],
              "name": "buyer",
              "type": "tuple"
            },
            {
              "components": [
                {
                  "name": "nonce",
                  "type": "uint256"
                },
                {
                  "name": "wallet",
                  "type": "address"
                },
                {
                  "name": "rollingVolume",
                  "type": "uint256"
                },
                {
                  "name": "liquidityRole",
                  "type": "uint8"
                },
                {
                  "components": [
                    {
                      "name": "amount",
                      "type": "int256"
                    },
                    {
                      "components": [
                        {
                          "name": "wallet",
                          "type": "bytes32"
                        },
                        {
                          "name": "operator",
                          "type": "bytes32"
                        }
                      ],
                      "name": "hashes",
                      "type": "tuple"
                    },
                    {
                      "components": [
                        {
                          "name": "current",
                          "type": "int256"
                        },
                        {
                          "name": "previous",
                          "type": "int256"
                        }
                      ],
                      "name": "residuals",
                      "type": "tuple"
                    }
                  ],
                  "name": "order",
                  "type": "tuple"
                },
                {
                  "components": [
                    {
                      "components": [
                        {
                          "name": "current",
                          "type": "int256"
                        },
                        {
                          "name": "previous",
                          "type": "int256"
                        }
                      ],
                      "name": "intended",
                      "type": "tuple"
                    },
                    {
                      "components": [
                        {
                          "name": "current",
                          "type": "int256"
                        },
                        {
                          "name": "previous",
                          "type": "int256"
                        }
                      ],
                      "name": "conjugate",
                      "type": "tuple"
                    }
                  ],
                  "name": "balances",
                  "type": "tuple"
                },
                {
                  "components": [
                    {
                      "components": [
                        {
                          "name": "amount",
                          "type": "int256"
                        },
                        {
                          "components": [
                            {
                              "name": "ct",
                              "type": "address"
                            },
                            {
                              "name": "id",
                              "type": "uint256"
                            }
                          ],
                          "name": "currency",
                          "type": "tuple"
                        }
                      ],
                      "name": "single",
                      "type": "tuple"
                    },
                    {
                      "components": [
                        {
                          "name": "amount",
                          "type": "int256"
                        },
                        {
                          "components": [
                            {
                              "name": "ct",
                              "type": "address"
                            },
                            {
                              "name": "id",
                              "type": "uint256"
                            }
                          ],
                          "name": "currency",
                          "type": "tuple"
                        }
                      ],
                      "name": "total",
                      "type": "tuple[]"
                    }
                  ],
                  "name": "fees",
                  "type": "tuple"
                }
              ],
              "name": "seller",
              "type": "tuple"
            },
            {
              "components": [
                {
                  "components": [
                    {
                      "name": "single",
                      "type": "int256"
                    },
                    {
                      "name": "total",
                      "type": "int256"
                    }
                  ],
                  "name": "intended",
                  "type": "tuple"
                },
                {
                  "components": [
                    {
                      "name": "single",
                      "type": "int256"
                    },
                    {
                      "name": "total",
                      "type": "int256"
                    }
                  ],
                  "name": "conjugate",
                  "type": "tuple"
                }
              ],
              "name": "transfers",
              "type": "tuple"
            },
            {
              "components": [
                {
                  "name": "hash",
                  "type": "bytes32"
                },
                {
                  "components": [
                    {
                      "name": "r",
                      "type": "bytes32"
                    },
                    {
                      "name": "s",
                      "type": "bytes32"
                    },
                    {
                      "name": "v",
                      "type": "uint8"
                    }
                  ],
                  "name": "signature",
                  "type": "tuple"
                }
              ],
              "name": "seal",
              "type": "tuple"
            },
            {
              "name": "blockNumber",
              "type": "uint256"
            },
            {
              "name": "operatorId",
              "type": "uint256"
            }
          ],
          "indexed": false,
          "name": "trade",
          "type": "tuple"
        },
        {
          "indexed": false,
          "name": "intendedStageAmount",
          "type": "int256"
        },
        {
          "indexed": false,
          "name": "conjugateStageAmount",
          "type": "int256"
        }
      ],
      "name": "StartChallengeFromTradeEvent",
      "type": "event"
    },
    {
      "anonymous": false,
      "inputs": [
        {
          "indexed": false,
          "name": "proxy",
          "type": "address"
        },
        {
          "indexed": false,
          "name": "wallet",
          "type": "address"
        },
        {
          "components": [
            {
              "name": "nonce",
              "type": "uint256"
            },
            {
              "name": "amount",
              "type": "int256"
            },
            {
              "components": [
                {
                  "components": [
                    {
                      "name": "ct",
                      "type": "address"
                    },
                    {
                      "name": "id",
                      "type": "uint256"
                    }
                  ],
                  "name": "intended",
                  "type": "tuple"
                },
                {
                  "components": [
                    {
                      "name": "ct",
                      "type": "address"
                    },
                    {
                      "name": "id",
                      "type": "uint256"
                    }
                  ],
                  "name": "conjugate",
                  "type": "tuple"
                }
              ],
              "name": "currencies",
              "type": "tuple"
            },
            {
              "name": "rate",
              "type": "int256"
            },
            {
              "components": [
                {
                  "name": "nonce",
                  "type": "uint256"
                },
                {
                  "name": "wallet",
                  "type": "address"
                },
                {
                  "name": "rollingVolume",
                  "type": "uint256"
                },
                {
                  "name": "liquidityRole",
                  "type": "uint8"
                },
                {
                  "components": [
                    {
                      "name": "amount",
                      "type": "int256"
                    },
                    {
                      "components": [
                        {
                          "name": "wallet",
                          "type": "bytes32"
                        },
                        {
                          "name": "operator",
                          "type": "bytes32"
                        }
                      ],
                      "name": "hashes",
                      "type": "tuple"
                    },
                    {
                      "components": [
                        {
                          "name": "current",
                          "type": "int256"
                        },
                        {
                          "name": "previous",
                          "type": "int256"
                        }
                      ],
                      "name": "residuals",
                      "type": "tuple"
                    }
                  ],
                  "name": "order",
                  "type": "tuple"
                },
                {
                  "components": [
                    {
                      "components": [
                        {
                          "name": "current",
                          "type": "int256"
                        },
                        {
                          "name": "previous",
                          "type": "int256"
                        }
                      ],
                      "name": "intended",
                      "type": "tuple"
                    },
                    {
                      "components": [
                        {
                          "name": "current",
                          "type": "int256"
                        },
                        {
                          "name": "previous",
                          "type": "int256"
                        }
                      ],
                      "name": "conjugate",
                      "type": "tuple"
                    }
                  ],
                  "name": "balances",
                  "type": "tuple"
                },
                {
                  "components": [
                    {
                      "components": [
                        {
                          "name": "amount",
                          "type": "int256"
                        },
                        {
                          "components": [
                            {
                              "name": "ct",
                              "type": "address"
                            },
                            {
                              "name": "id",
                              "type": "uint256"
                            }
                          ],
                          "name": "currency",
                          "type": "tuple"
                        }
                      ],
                      "name": "single",
                      "type": "tuple"
                    },
                    {
                      "components": [
                        {
                          "name": "amount",
                          "type": "int256"
                        },
                        {
                          "components": [
                            {
                              "name": "ct",
                              "type": "address"
                            },
                            {
                              "name": "id",
                              "type": "uint256"
                            }
                          ],
                          "name": "currency",
                          "type": "tuple"
                        }
                      ],
                      "name": "total",
                      "type": "tuple[]"
                    }
                  ],
                  "name": "fees",
                  "type": "tuple"
                }
              ],
              "name": "buyer",
              "type": "tuple"
            },
            {
              "components": [
                {
                  "name": "nonce",
                  "type": "uint256"
                },
                {
                  "name": "wallet",
                  "type": "address"
                },
                {
                  "name": "rollingVolume",
                  "type": "uint256"
                },
                {
                  "name": "liquidityRole",
                  "type": "uint8"
                },
                {
                  "components": [
                    {
                      "name": "amount",
                      "type": "int256"
                    },
                    {
                      "components": [
                        {
                          "name": "wallet",
                          "type": "bytes32"
                        },
                        {
                          "name": "operator",
                          "type": "bytes32"
                        }
                      ],
                      "name": "hashes",
                      "type": "tuple"
                    },
                    {
                      "components": [
                        {
                          "name": "current",
                          "type": "int256"
                        },
                        {
                          "name": "previous",
                          "type": "int256"
                        }
                      ],
                      "name": "residuals",
                      "type": "tuple"
                    }
                  ],
                  "name": "order",
                  "type": "tuple"
                },
                {
                  "components": [
                    {
                      "components": [
                        {
                          "name": "current",
                          "type": "int256"
                        },
                        {
                          "name": "previous",
                          "type": "int256"
                        }
                      ],
                      "name": "intended",
                      "type": "tuple"
                    },
                    {
                      "components": [
                        {
                          "name": "current",
                          "type": "int256"
                        },
                        {
                          "name": "previous",
                          "type": "int256"
                        }
                      ],
                      "name": "conjugate",
                      "type": "tuple"
                    }
                  ],
                  "name": "balances",
                  "type": "tuple"
                },
                {
                  "components": [
                    {
                      "components": [
                        {
                          "name": "amount",
                          "type": "int256"
                        },
                        {
                          "components": [
                            {
                              "name": "ct",
                              "type": "address"
                            },
                            {
                              "name": "id",
                              "type": "uint256"
                            }
                          ],
                          "name": "currency",
                          "type": "tuple"
                        }
                      ],
                      "name": "single",
                      "type": "tuple"
                    },
                    {
                      "components": [
                        {
                          "name": "amount",
                          "type": "int256"
                        },
                        {
                          "components": [
                            {
                              "name": "ct",
                              "type": "address"
                            },
                            {
                              "name": "id",
                              "type": "uint256"
                            }
                          ],
                          "name": "currency",
                          "type": "tuple"
                        }
                      ],
                      "name": "total",
                      "type": "tuple[]"
                    }
                  ],
                  "name": "fees",
                  "type": "tuple"
                }
              ],
              "name": "seller",
              "type": "tuple"
            },
            {
              "components": [
                {
                  "components": [
                    {
                      "name": "single",
                      "type": "int256"
                    },
                    {
                      "name": "total",
                      "type": "int256"
                    }
                  ],
                  "name": "intended",
                  "type": "tuple"
                },
                {
                  "components": [
                    {
                      "name": "single",
                      "type": "int256"
                    },
                    {
                      "name": "total",
                      "type": "int256"
                    }
                  ],
                  "name": "conjugate",
                  "type": "tuple"
                }
              ],
              "name": "transfers",
              "type": "tuple"
            },
            {
              "components": [
                {
                  "name": "hash",
                  "type": "bytes32"
                },
                {
                  "components": [
                    {
                      "name": "r",
                      "type": "bytes32"
                    },
                    {
                      "name": "s",
                      "type": "bytes32"
                    },
                    {
                      "name": "v",
                      "type": "uint8"
                    }
                  ],
                  "name": "signature",
                  "type": "tuple"
                }
              ],
              "name": "seal",
              "type": "tuple"
            },
            {
              "name": "blockNumber",
              "type": "uint256"
            },
            {
              "name": "operatorId",
              "type": "uint256"
            }
          ],
          "indexed": false,
          "name": "trade",
          "type": "tuple"
        },
        {
          "indexed": false,
          "name": "intendedStageAmount",
          "type": "int256"
        },
        {
          "indexed": false,
          "name": "conjugateStageAmount",
          "type": "int256"
        }
      ],
      "name": "StartChallengeFromTradeByProxyEvent",
      "type": "event"
    },
    {
      "anonymous": false,
      "inputs": [
        {
          "indexed": false,
          "name": "wallet",
          "type": "address"
        },
        {
          "components": [
            {
              "name": "nonce",
              "type": "uint256"
            },
            {
              "name": "amount",
              "type": "int256"
            },
            {
              "components": [
                {
                  "name": "ct",
                  "type": "address"
                },
                {
                  "name": "id",
                  "type": "uint256"
                }
              ],
              "name": "currency",
              "type": "tuple"
            },
            {
              "components": [
                {
                  "name": "nonce",
                  "type": "uint256"
                },
                {
                  "name": "wallet",
                  "type": "address"
                },
                {
                  "components": [
                    {
                      "name": "current",
                      "type": "int256"
                    },
                    {
                      "name": "previous",
                      "type": "int256"
                    }
                  ],
                  "name": "balances",
                  "type": "tuple"
                },
                {
                  "components": [
                    {
                      "components": [
                        {
                          "name": "amount",
                          "type": "int256"
                        },
                        {
                          "components": [
                            {
                              "name": "ct",
                              "type": "address"
                            },
                            {
                              "name": "id",
                              "type": "uint256"
                            }
                          ],
                          "name": "currency",
                          "type": "tuple"
                        }
                      ],
                      "name": "single",
                      "type": "tuple"
                    },
                    {
                      "components": [
                        {
                          "name": "amount",
                          "type": "int256"
                        },
                        {
                          "components": [
                            {
                              "name": "ct",
                              "type": "address"
                            },
                            {
                              "name": "id",
                              "type": "uint256"
                            }
                          ],
                          "name": "currency",
                          "type": "tuple"
                        }
                      ],
                      "name": "total",
                      "type": "tuple[]"
                    }
                  ],
                  "name": "fees",
                  "type": "tuple"
                }
              ],
              "name": "sender",
              "type": "tuple"
            },
            {
              "components": [
                {
                  "name": "nonce",
                  "type": "uint256"
                },
                {
                  "name": "wallet",
                  "type": "address"
                },
                {
                  "components": [
                    {
                      "name": "current",
                      "type": "int256"
                    },
                    {
                      "name": "previous",
                      "type": "int256"
                    }
                  ],
                  "name": "balances",
                  "type": "tuple"
                },
                {
                  "components": [
                    {
                      "components": [
                        {
                          "name": "amount",
                          "type": "int256"
                        },
                        {
                          "components": [
                            {
                              "name": "ct",
                              "type": "address"
                            },
                            {
                              "name": "id",
                              "type": "uint256"
                            }
                          ],
                          "name": "currency",
                          "type": "tuple"
                        }
                      ],
                      "name": "total",
                      "type": "tuple[]"
                    }
                  ],
                  "name": "fees",
                  "type": "tuple"
                }
              ],
              "name": "recipient",
              "type": "tuple"
            },
            {
              "components": [
                {
                  "name": "single",
                  "type": "int256"
                },
                {
                  "name": "total",
                  "type": "int256"
                }
              ],
              "name": "transfers",
              "type": "tuple"
            },
            {
              "components": [
                {
                  "components": [
                    {
                      "name": "hash",
                      "type": "bytes32"
                    },
                    {
                      "components": [
                        {
                          "name": "r",
                          "type": "bytes32"
                        },
                        {
                          "name": "s",
                          "type": "bytes32"
                        },
                        {
                          "name": "v",
                          "type": "uint8"
                        }
                      ],
                      "name": "signature",
                      "type": "tuple"
                    }
                  ],
                  "name": "wallet",
                  "type": "tuple"
                },
                {
                  "components": [
                    {
                      "name": "hash",
                      "type": "bytes32"
                    },
                    {
                      "components": [
                        {
                          "name": "r",
                          "type": "bytes32"
                        },
                        {
                          "name": "s",
                          "type": "bytes32"
                        },
                        {
                          "name": "v",
                          "type": "uint8"
                        }
                      ],
                      "name": "signature",
                      "type": "tuple"
                    }
                  ],
                  "name": "operator",
                  "type": "tuple"
                }
              ],
              "name": "seals",
              "type": "tuple"
            },
            {
              "name": "blockNumber",
              "type": "uint256"
            },
            {
              "name": "operatorId",
              "type": "uint256"
            }
          ],
          "indexed": false,
          "name": "payment",
          "type": "tuple"
        },
        {
          "indexed": false,
          "name": "stageAmount",
          "type": "int256"
        }
      ],
      "name": "StartChallengeFromPaymentEvent",
      "type": "event"
    },
    {
      "anonymous": false,
      "inputs": [
        {
          "indexed": false,
          "name": "proxy",
          "type": "address"
        },
        {
          "indexed": false,
          "name": "wallet",
          "type": "address"
        },
        {
          "components": [
            {
              "name": "nonce",
              "type": "uint256"
            },
            {
              "name": "amount",
              "type": "int256"
            },
            {
              "components": [
                {
                  "name": "ct",
                  "type": "address"
                },
                {
                  "name": "id",
                  "type": "uint256"
                }
              ],
              "name": "currency",
              "type": "tuple"
            },
            {
              "components": [
                {
                  "name": "nonce",
                  "type": "uint256"
                },
                {
                  "name": "wallet",
                  "type": "address"
                },
                {
                  "components": [
                    {
                      "name": "current",
                      "type": "int256"
                    },
                    {
                      "name": "previous",
                      "type": "int256"
                    }
                  ],
                  "name": "balances",
                  "type": "tuple"
                },
                {
                  "components": [
                    {
                      "components": [
                        {
                          "name": "amount",
                          "type": "int256"
                        },
                        {
                          "components": [
                            {
                              "name": "ct",
                              "type": "address"
                            },
                            {
                              "name": "id",
                              "type": "uint256"
                            }
                          ],
                          "name": "currency",
                          "type": "tuple"
                        }
                      ],
                      "name": "single",
                      "type": "tuple"
                    },
                    {
                      "components": [
                        {
                          "name": "amount",
                          "type": "int256"
                        },
                        {
                          "components": [
                            {
                              "name": "ct",
                              "type": "address"
                            },
                            {
                              "name": "id",
                              "type": "uint256"
                            }
                          ],
                          "name": "currency",
                          "type": "tuple"
                        }
                      ],
                      "name": "total",
                      "type": "tuple[]"
                    }
                  ],
                  "name": "fees",
                  "type": "tuple"
                }
              ],
              "name": "sender",
              "type": "tuple"
            },
            {
              "components": [
                {
                  "name": "nonce",
                  "type": "uint256"
                },
                {
                  "name": "wallet",
                  "type": "address"
                },
                {
                  "components": [
                    {
                      "name": "current",
                      "type": "int256"
                    },
                    {
                      "name": "previous",
                      "type": "int256"
                    }
                  ],
                  "name": "balances",
                  "type": "tuple"
                },
                {
                  "components": [
                    {
                      "components": [
                        {
                          "name": "amount",
                          "type": "int256"
                        },
                        {
                          "components": [
                            {
                              "name": "ct",
                              "type": "address"
                            },
                            {
                              "name": "id",
                              "type": "uint256"
                            }
                          ],
                          "name": "currency",
                          "type": "tuple"
                        }
                      ],
                      "name": "total",
                      "type": "tuple[]"
                    }
                  ],
                  "name": "fees",
                  "type": "tuple"
                }
              ],
              "name": "recipient",
              "type": "tuple"
            },
            {
              "components": [
                {
                  "name": "single",
                  "type": "int256"
                },
                {
                  "name": "total",
                  "type": "int256"
                }
              ],
              "name": "transfers",
              "type": "tuple"
            },
            {
              "components": [
                {
                  "components": [
                    {
                      "name": "hash",
                      "type": "bytes32"
                    },
                    {
                      "components": [
                        {
                          "name": "r",
                          "type": "bytes32"
                        },
                        {
                          "name": "s",
                          "type": "bytes32"
                        },
                        {
                          "name": "v",
                          "type": "uint8"
                        }
                      ],
                      "name": "signature",
                      "type": "tuple"
                    }
                  ],
                  "name": "wallet",
                  "type": "tuple"
                },
                {
                  "components": [
                    {
                      "name": "hash",
                      "type": "bytes32"
                    },
                    {
                      "components": [
                        {
                          "name": "r",
                          "type": "bytes32"
                        },
                        {
                          "name": "s",
                          "type": "bytes32"
                        },
                        {
                          "name": "v",
                          "type": "uint8"
                        }
                      ],
                      "name": "signature",
                      "type": "tuple"
                    }
                  ],
                  "name": "operator",
                  "type": "tuple"
                }
              ],
              "name": "seals",
              "type": "tuple"
            },
            {
              "name": "blockNumber",
              "type": "uint256"
            },
            {
              "name": "operatorId",
              "type": "uint256"
            }
          ],
          "indexed": false,
          "name": "payment",
          "type": "tuple"
        },
        {
          "indexed": false,
          "name": "stageAmount",
          "type": "int256"
        }
      ],
      "name": "StartChallengeFromPaymentByProxyEvent",
      "type": "event"
    },
    {
      "anonymous": false,
      "inputs": [
        {
          "indexed": false,
          "name": "oldAddress",
          "type": "address"
        },
        {
          "indexed": false,
          "name": "newAddress",
          "type": "address"
        }
      ],
      "name": "ChangeValidatorEvent",
      "type": "event"
    },
    {
      "anonymous": false,
      "inputs": [
        {
          "indexed": false,
          "name": "oldConfiguration",
          "type": "address"
        },
        {
          "indexed": false,
          "name": "newConfiguration",
          "type": "address"
        }
      ],
      "name": "ChangeConfigurationEvent",
      "type": "event"
    },
    {
      "anonymous": false,
      "inputs": [
        {
          "indexed": false,
          "name": "oldDeployer",
          "type": "address"
        },
        {
          "indexed": false,
          "name": "newDeployer",
          "type": "address"
        }
      ],
      "name": "ChangeDeployerEvent",
      "type": "event"
    },
    {
      "anonymous": false,
      "inputs": [
        {
          "indexed": false,
          "name": "oldOperator",
          "type": "address"
        },
        {
          "indexed": false,
          "name": "newOperator",
          "type": "address"
        }
      ],
      "name": "ChangeOperatorEvent",
      "type": "event"
    },
    {
      "constant": false,
      "inputs": [
        {
          "name": "newDriipSettlementDispute",
          "type": "address"
        }
      ],
      "name": "changeDriipSettlementDispute",
      "outputs": [],
      "payable": false,
      "stateMutability": "nonpayable",
      "type": "function"
    },
    {
      "constant": true,
      "inputs": [
        {
          "name": "wallet",
          "type": "address"
        }
      ],
      "name": "walletChallengedTradesCount",
      "outputs": [
        {
          "name": "",
          "type": "uint256"
        }
      ],
      "payable": false,
      "stateMutability": "view",
      "type": "function"
    },
    {
      "constant": true,
      "inputs": [
        {
          "name": "wallet",
          "type": "address"
        }
      ],
      "name": "walletChallengedPaymentsCount",
      "outputs": [
        {
          "name": "",
          "type": "uint256"
        }
      ],
      "payable": false,
      "stateMutability": "view",
      "type": "function"
    },
    {
      "constant": false,
      "inputs": [
        {
          "components": [
            {
              "name": "nonce",
              "type": "uint256"
            },
            {
              "name": "amount",
              "type": "int256"
            },
            {
              "components": [
                {
                  "components": [
                    {
                      "name": "ct",
                      "type": "address"
                    },
                    {
                      "name": "id",
                      "type": "uint256"
                    }
                  ],
                  "name": "intended",
                  "type": "tuple"
                },
                {
                  "components": [
                    {
                      "name": "ct",
                      "type": "address"
                    },
                    {
                      "name": "id",
                      "type": "uint256"
                    }
                  ],
                  "name": "conjugate",
                  "type": "tuple"
                }
              ],
              "name": "currencies",
              "type": "tuple"
            },
            {
              "name": "rate",
              "type": "int256"
            },
            {
              "components": [
                {
                  "name": "nonce",
                  "type": "uint256"
                },
                {
                  "name": "wallet",
                  "type": "address"
                },
                {
                  "name": "rollingVolume",
                  "type": "uint256"
                },
                {
                  "name": "liquidityRole",
                  "type": "uint8"
                },
                {
                  "components": [
                    {
                      "name": "amount",
                      "type": "int256"
                    },
                    {
                      "components": [
                        {
                          "name": "wallet",
                          "type": "bytes32"
                        },
                        {
                          "name": "operator",
                          "type": "bytes32"
                        }
                      ],
                      "name": "hashes",
                      "type": "tuple"
                    },
                    {
                      "components": [
                        {
                          "name": "current",
                          "type": "int256"
                        },
                        {
                          "name": "previous",
                          "type": "int256"
                        }
                      ],
                      "name": "residuals",
                      "type": "tuple"
                    }
                  ],
                  "name": "order",
                  "type": "tuple"
                },
                {
                  "components": [
                    {
                      "components": [
                        {
                          "name": "current",
                          "type": "int256"
                        },
                        {
                          "name": "previous",
                          "type": "int256"
                        }
                      ],
                      "name": "intended",
                      "type": "tuple"
                    },
                    {
                      "components": [
                        {
                          "name": "current",
                          "type": "int256"
                        },
                        {
                          "name": "previous",
                          "type": "int256"
                        }
                      ],
                      "name": "conjugate",
                      "type": "tuple"
                    }
                  ],
                  "name": "balances",
                  "type": "tuple"
                },
                {
                  "components": [
                    {
                      "components": [
                        {
                          "name": "amount",
                          "type": "int256"
                        },
                        {
                          "components": [
                            {
                              "name": "ct",
                              "type": "address"
                            },
                            {
                              "name": "id",
                              "type": "uint256"
                            }
                          ],
                          "name": "currency",
                          "type": "tuple"
                        }
                      ],
                      "name": "single",
                      "type": "tuple"
                    },
                    {
                      "components": [
                        {
                          "name": "amount",
                          "type": "int256"
                        },
                        {
                          "components": [
                            {
                              "name": "ct",
                              "type": "address"
                            },
                            {
                              "name": "id",
                              "type": "uint256"
                            }
                          ],
                          "name": "currency",
                          "type": "tuple"
                        }
                      ],
                      "name": "total",
                      "type": "tuple[]"
                    }
                  ],
                  "name": "fees",
                  "type": "tuple"
                }
              ],
              "name": "buyer",
              "type": "tuple"
            },
            {
              "components": [
                {
                  "name": "nonce",
                  "type": "uint256"
                },
                {
                  "name": "wallet",
                  "type": "address"
                },
                {
                  "name": "rollingVolume",
                  "type": "uint256"
                },
                {
                  "name": "liquidityRole",
                  "type": "uint8"
                },
                {
                  "components": [
                    {
                      "name": "amount",
                      "type": "int256"
                    },
                    {
                      "components": [
                        {
                          "name": "wallet",
                          "type": "bytes32"
                        },
                        {
                          "name": "operator",
                          "type": "bytes32"
                        }
                      ],
                      "name": "hashes",
                      "type": "tuple"
                    },
                    {
                      "components": [
                        {
                          "name": "current",
                          "type": "int256"
                        },
                        {
                          "name": "previous",
                          "type": "int256"
                        }
                      ],
                      "name": "residuals",
                      "type": "tuple"
                    }
                  ],
                  "name": "order",
                  "type": "tuple"
                },
                {
                  "components": [
                    {
                      "components": [
                        {
                          "name": "current",
                          "type": "int256"
                        },
                        {
                          "name": "previous",
                          "type": "int256"
                        }
                      ],
                      "name": "intended",
                      "type": "tuple"
                    },
                    {
                      "components": [
                        {
                          "name": "current",
                          "type": "int256"
                        },
                        {
                          "name": "previous",
                          "type": "int256"
                        }
                      ],
                      "name": "conjugate",
                      "type": "tuple"
                    }
                  ],
                  "name": "balances",
                  "type": "tuple"
                },
                {
                  "components": [
                    {
                      "components": [
                        {
                          "name": "amount",
                          "type": "int256"
                        },
                        {
                          "components": [
                            {
                              "name": "ct",
                              "type": "address"
                            },
                            {
                              "name": "id",
                              "type": "uint256"
                            }
                          ],
                          "name": "currency",
                          "type": "tuple"
                        }
                      ],
                      "name": "single",
                      "type": "tuple"
                    },
                    {
                      "components": [
                        {
                          "name": "amount",
                          "type": "int256"
                        },
                        {
                          "components": [
                            {
                              "name": "ct",
                              "type": "address"
                            },
                            {
                              "name": "id",
                              "type": "uint256"
                            }
                          ],
                          "name": "currency",
                          "type": "tuple"
                        }
                      ],
                      "name": "total",
                      "type": "tuple[]"
                    }
                  ],
                  "name": "fees",
                  "type": "tuple"
                }
              ],
              "name": "seller",
              "type": "tuple"
            },
            {
              "components": [
                {
                  "components": [
                    {
                      "name": "single",
                      "type": "int256"
                    },
                    {
                      "name": "total",
                      "type": "int256"
                    }
                  ],
                  "name": "intended",
                  "type": "tuple"
                },
                {
                  "components": [
                    {
                      "name": "single",
                      "type": "int256"
                    },
                    {
                      "name": "total",
                      "type": "int256"
                    }
                  ],
                  "name": "conjugate",
                  "type": "tuple"
                }
              ],
              "name": "transfers",
              "type": "tuple"
            },
            {
              "components": [
                {
                  "name": "hash",
                  "type": "bytes32"
                },
                {
                  "components": [
                    {
                      "name": "r",
                      "type": "bytes32"
                    },
                    {
                      "name": "s",
                      "type": "bytes32"
                    },
                    {
                      "name": "v",
                      "type": "uint8"
                    }
                  ],
                  "name": "signature",
                  "type": "tuple"
                }
              ],
              "name": "seal",
              "type": "tuple"
            },
            {
              "name": "blockNumber",
              "type": "uint256"
            },
            {
              "name": "operatorId",
              "type": "uint256"
            }
          ],
          "name": "trade",
          "type": "tuple"
        },
        {
          "name": "intendedStageAmount",
          "type": "int256"
        },
        {
          "name": "conjugateStageAmount",
          "type": "int256"
        }
      ],
      "name": "startChallengeFromTrade",
      "outputs": [],
      "payable": false,
      "stateMutability": "nonpayable",
      "type": "function"
    },
    {
      "constant": false,
      "inputs": [
        {
          "name": "wallet",
          "type": "address"
        },
        {
          "components": [
            {
              "name": "nonce",
              "type": "uint256"
            },
            {
              "name": "amount",
              "type": "int256"
            },
            {
              "components": [
                {
                  "components": [
                    {
                      "name": "ct",
                      "type": "address"
                    },
                    {
                      "name": "id",
                      "type": "uint256"
                    }
                  ],
                  "name": "intended",
                  "type": "tuple"
                },
                {
                  "components": [
                    {
                      "name": "ct",
                      "type": "address"
                    },
                    {
                      "name": "id",
                      "type": "uint256"
                    }
                  ],
                  "name": "conjugate",
                  "type": "tuple"
                }
              ],
              "name": "currencies",
              "type": "tuple"
            },
            {
              "name": "rate",
              "type": "int256"
            },
            {
              "components": [
                {
                  "name": "nonce",
                  "type": "uint256"
                },
                {
                  "name": "wallet",
                  "type": "address"
                },
                {
                  "name": "rollingVolume",
                  "type": "uint256"
                },
                {
                  "name": "liquidityRole",
                  "type": "uint8"
                },
                {
                  "components": [
                    {
                      "name": "amount",
                      "type": "int256"
                    },
                    {
                      "components": [
                        {
                          "name": "wallet",
                          "type": "bytes32"
                        },
                        {
                          "name": "operator",
                          "type": "bytes32"
                        }
                      ],
                      "name": "hashes",
                      "type": "tuple"
                    },
                    {
                      "components": [
                        {
                          "name": "current",
                          "type": "int256"
                        },
                        {
                          "name": "previous",
                          "type": "int256"
                        }
                      ],
                      "name": "residuals",
                      "type": "tuple"
                    }
                  ],
                  "name": "order",
                  "type": "tuple"
                },
                {
                  "components": [
                    {
                      "components": [
                        {
                          "name": "current",
                          "type": "int256"
                        },
                        {
                          "name": "previous",
                          "type": "int256"
                        }
                      ],
                      "name": "intended",
                      "type": "tuple"
                    },
                    {
                      "components": [
                        {
                          "name": "current",
                          "type": "int256"
                        },
                        {
                          "name": "previous",
                          "type": "int256"
                        }
                      ],
                      "name": "conjugate",
                      "type": "tuple"
                    }
                  ],
                  "name": "balances",
                  "type": "tuple"
                },
                {
                  "components": [
                    {
                      "components": [
                        {
                          "name": "amount",
                          "type": "int256"
                        },
                        {
                          "components": [
                            {
                              "name": "ct",
                              "type": "address"
                            },
                            {
                              "name": "id",
                              "type": "uint256"
                            }
                          ],
                          "name": "currency",
                          "type": "tuple"
                        }
                      ],
                      "name": "single",
                      "type": "tuple"
                    },
                    {
                      "components": [
                        {
                          "name": "amount",
                          "type": "int256"
                        },
                        {
                          "components": [
                            {
                              "name": "ct",
                              "type": "address"
                            },
                            {
                              "name": "id",
                              "type": "uint256"
                            }
                          ],
                          "name": "currency",
                          "type": "tuple"
                        }
                      ],
                      "name": "total",
                      "type": "tuple[]"
                    }
                  ],
                  "name": "fees",
                  "type": "tuple"
                }
              ],
              "name": "buyer",
              "type": "tuple"
            },
            {
              "components": [
                {
                  "name": "nonce",
                  "type": "uint256"
                },
                {
                  "name": "wallet",
                  "type": "address"
                },
                {
                  "name": "rollingVolume",
                  "type": "uint256"
                },
                {
                  "name": "liquidityRole",
                  "type": "uint8"
                },
                {
                  "components": [
                    {
                      "name": "amount",
                      "type": "int256"
                    },
                    {
                      "components": [
                        {
                          "name": "wallet",
                          "type": "bytes32"
                        },
                        {
                          "name": "operator",
                          "type": "bytes32"
                        }
                      ],
                      "name": "hashes",
                      "type": "tuple"
                    },
                    {
                      "components": [
                        {
                          "name": "current",
                          "type": "int256"
                        },
                        {
                          "name": "previous",
                          "type": "int256"
                        }
                      ],
                      "name": "residuals",
                      "type": "tuple"
                    }
                  ],
                  "name": "order",
                  "type": "tuple"
                },
                {
                  "components": [
                    {
                      "components": [
                        {
                          "name": "current",
                          "type": "int256"
                        },
                        {
                          "name": "previous",
                          "type": "int256"
                        }
                      ],
                      "name": "intended",
                      "type": "tuple"
                    },
                    {
                      "components": [
                        {
                          "name": "current",
                          "type": "int256"
                        },
                        {
                          "name": "previous",
                          "type": "int256"
                        }
                      ],
                      "name": "conjugate",
                      "type": "tuple"
                    }
                  ],
                  "name": "balances",
                  "type": "tuple"
                },
                {
                  "components": [
                    {
                      "components": [
                        {
                          "name": "amount",
                          "type": "int256"
                        },
                        {
                          "components": [
                            {
                              "name": "ct",
                              "type": "address"
                            },
                            {
                              "name": "id",
                              "type": "uint256"
                            }
                          ],
                          "name": "currency",
                          "type": "tuple"
                        }
                      ],
                      "name": "single",
                      "type": "tuple"
                    },
                    {
                      "components": [
                        {
                          "name": "amount",
                          "type": "int256"
                        },
                        {
                          "components": [
                            {
                              "name": "ct",
                              "type": "address"
                            },
                            {
                              "name": "id",
                              "type": "uint256"
                            }
                          ],
                          "name": "currency",
                          "type": "tuple"
                        }
                      ],
                      "name": "total",
                      "type": "tuple[]"
                    }
                  ],
                  "name": "fees",
                  "type": "tuple"
                }
              ],
              "name": "seller",
              "type": "tuple"
            },
            {
              "components": [
                {
                  "components": [
                    {
                      "name": "single",
                      "type": "int256"
                    },
                    {
                      "name": "total",
                      "type": "int256"
                    }
                  ],
                  "name": "intended",
                  "type": "tuple"
                },
                {
                  "components": [
                    {
                      "name": "single",
                      "type": "int256"
                    },
                    {
                      "name": "total",
                      "type": "int256"
                    }
                  ],
                  "name": "conjugate",
                  "type": "tuple"
                }
              ],
              "name": "transfers",
              "type": "tuple"
            },
            {
              "components": [
                {
                  "name": "hash",
                  "type": "bytes32"
                },
                {
                  "components": [
                    {
                      "name": "r",
                      "type": "bytes32"
                    },
                    {
                      "name": "s",
                      "type": "bytes32"
                    },
                    {
                      "name": "v",
                      "type": "uint8"
                    }
                  ],
                  "name": "signature",
                  "type": "tuple"
                }
              ],
              "name": "seal",
              "type": "tuple"
            },
            {
              "name": "blockNumber",
              "type": "uint256"
            },
            {
              "name": "operatorId",
              "type": "uint256"
            }
          ],
          "name": "trade",
          "type": "tuple"
        },
        {
          "name": "intendedStageAmount",
          "type": "int256"
        },
        {
          "name": "conjugateStageAmount",
          "type": "int256"
        }
      ],
      "name": "startChallengeFromTradeByProxy",
      "outputs": [],
      "payable": false,
      "stateMutability": "nonpayable",
      "type": "function"
    },
    {
      "constant": false,
      "inputs": [
        {
          "components": [
            {
              "name": "nonce",
              "type": "uint256"
            },
            {
              "name": "amount",
              "type": "int256"
            },
            {
              "components": [
                {
                  "name": "ct",
                  "type": "address"
                },
                {
                  "name": "id",
                  "type": "uint256"
                }
              ],
              "name": "currency",
              "type": "tuple"
            },
            {
              "components": [
                {
                  "name": "nonce",
                  "type": "uint256"
                },
                {
                  "name": "wallet",
                  "type": "address"
                },
                {
                  "components": [
                    {
                      "name": "current",
                      "type": "int256"
                    },
                    {
                      "name": "previous",
                      "type": "int256"
                    }
                  ],
                  "name": "balances",
                  "type": "tuple"
                },
                {
                  "components": [
                    {
                      "components": [
                        {
                          "name": "amount",
                          "type": "int256"
                        },
                        {
                          "components": [
                            {
                              "name": "ct",
                              "type": "address"
                            },
                            {
                              "name": "id",
                              "type": "uint256"
                            }
                          ],
                          "name": "currency",
                          "type": "tuple"
                        }
                      ],
                      "name": "single",
                      "type": "tuple"
                    },
                    {
                      "components": [
                        {
                          "name": "amount",
                          "type": "int256"
                        },
                        {
                          "components": [
                            {
                              "name": "ct",
                              "type": "address"
                            },
                            {
                              "name": "id",
                              "type": "uint256"
                            }
                          ],
                          "name": "currency",
                          "type": "tuple"
                        }
                      ],
                      "name": "total",
                      "type": "tuple[]"
                    }
                  ],
                  "name": "fees",
                  "type": "tuple"
                }
              ],
              "name": "sender",
              "type": "tuple"
            },
            {
              "components": [
                {
                  "name": "nonce",
                  "type": "uint256"
                },
                {
                  "name": "wallet",
                  "type": "address"
                },
                {
                  "components": [
                    {
                      "name": "current",
                      "type": "int256"
                    },
                    {
                      "name": "previous",
                      "type": "int256"
                    }
                  ],
                  "name": "balances",
                  "type": "tuple"
                },
                {
                  "components": [
                    {
                      "components": [
                        {
                          "name": "amount",
                          "type": "int256"
                        },
                        {
                          "components": [
                            {
                              "name": "ct",
                              "type": "address"
                            },
                            {
                              "name": "id",
                              "type": "uint256"
                            }
                          ],
                          "name": "currency",
                          "type": "tuple"
                        }
                      ],
                      "name": "total",
                      "type": "tuple[]"
                    }
                  ],
                  "name": "fees",
                  "type": "tuple"
                }
              ],
              "name": "recipient",
              "type": "tuple"
            },
            {
              "components": [
                {
                  "name": "single",
                  "type": "int256"
                },
                {
                  "name": "total",
                  "type": "int256"
                }
              ],
              "name": "transfers",
              "type": "tuple"
            },
            {
              "components": [
                {
                  "components": [
                    {
                      "name": "hash",
                      "type": "bytes32"
                    },
                    {
                      "components": [
                        {
                          "name": "r",
                          "type": "bytes32"
                        },
                        {
                          "name": "s",
                          "type": "bytes32"
                        },
                        {
                          "name": "v",
                          "type": "uint8"
                        }
                      ],
                      "name": "signature",
                      "type": "tuple"
                    }
                  ],
                  "name": "wallet",
                  "type": "tuple"
                },
                {
                  "components": [
                    {
                      "name": "hash",
                      "type": "bytes32"
                    },
                    {
                      "components": [
                        {
                          "name": "r",
                          "type": "bytes32"
                        },
                        {
                          "name": "s",
                          "type": "bytes32"
                        },
                        {
                          "name": "v",
                          "type": "uint8"
                        }
                      ],
                      "name": "signature",
                      "type": "tuple"
                    }
                  ],
                  "name": "operator",
                  "type": "tuple"
                }
              ],
              "name": "seals",
              "type": "tuple"
            },
            {
              "name": "blockNumber",
              "type": "uint256"
            },
            {
              "name": "operatorId",
              "type": "uint256"
            }
          ],
          "name": "payment",
          "type": "tuple"
        },
        {
          "name": "stageAmount",
          "type": "int256"
        }
      ],
      "name": "startChallengeFromPayment",
      "outputs": [],
      "payable": false,
      "stateMutability": "nonpayable",
      "type": "function"
    },
    {
      "constant": false,
      "inputs": [
        {
          "name": "wallet",
          "type": "address"
        },
        {
          "components": [
            {
              "name": "nonce",
              "type": "uint256"
            },
            {
              "name": "amount",
              "type": "int256"
            },
            {
              "components": [
                {
                  "name": "ct",
                  "type": "address"
                },
                {
                  "name": "id",
                  "type": "uint256"
                }
              ],
              "name": "currency",
              "type": "tuple"
            },
            {
              "components": [
                {
                  "name": "nonce",
                  "type": "uint256"
                },
                {
                  "name": "wallet",
                  "type": "address"
                },
                {
                  "components": [
                    {
                      "name": "current",
                      "type": "int256"
                    },
                    {
                      "name": "previous",
                      "type": "int256"
                    }
                  ],
                  "name": "balances",
                  "type": "tuple"
                },
                {
                  "components": [
                    {
                      "components": [
                        {
                          "name": "amount",
                          "type": "int256"
                        },
                        {
                          "components": [
                            {
                              "name": "ct",
                              "type": "address"
                            },
                            {
                              "name": "id",
                              "type": "uint256"
                            }
                          ],
                          "name": "currency",
                          "type": "tuple"
                        }
                      ],
                      "name": "single",
                      "type": "tuple"
                    },
                    {
                      "components": [
                        {
                          "name": "amount",
                          "type": "int256"
                        },
                        {
                          "components": [
                            {
                              "name": "ct",
                              "type": "address"
                            },
                            {
                              "name": "id",
                              "type": "uint256"
                            }
                          ],
                          "name": "currency",
                          "type": "tuple"
                        }
                      ],
                      "name": "total",
                      "type": "tuple[]"
                    }
                  ],
                  "name": "fees",
                  "type": "tuple"
                }
              ],
              "name": "sender",
              "type": "tuple"
            },
            {
              "components": [
                {
                  "name": "nonce",
                  "type": "uint256"
                },
                {
                  "name": "wallet",
                  "type": "address"
                },
                {
                  "components": [
                    {
                      "name": "current",
                      "type": "int256"
                    },
                    {
                      "name": "previous",
                      "type": "int256"
                    }
                  ],
                  "name": "balances",
                  "type": "tuple"
                },
                {
                  "components": [
                    {
                      "components": [
                        {
                          "name": "amount",
                          "type": "int256"
                        },
                        {
                          "components": [
                            {
                              "name": "ct",
                              "type": "address"
                            },
                            {
                              "name": "id",
                              "type": "uint256"
                            }
                          ],
                          "name": "currency",
                          "type": "tuple"
                        }
                      ],
                      "name": "total",
                      "type": "tuple[]"
                    }
                  ],
                  "name": "fees",
                  "type": "tuple"
                }
              ],
              "name": "recipient",
              "type": "tuple"
            },
            {
              "components": [
                {
                  "name": "single",
                  "type": "int256"
                },
                {
                  "name": "total",
                  "type": "int256"
                }
              ],
              "name": "transfers",
              "type": "tuple"
            },
            {
              "components": [
                {
                  "components": [
                    {
                      "name": "hash",
                      "type": "bytes32"
                    },
                    {
                      "components": [
                        {
                          "name": "r",
                          "type": "bytes32"
                        },
                        {
                          "name": "s",
                          "type": "bytes32"
                        },
                        {
                          "name": "v",
                          "type": "uint8"
                        }
                      ],
                      "name": "signature",
                      "type": "tuple"
                    }
                  ],
                  "name": "wallet",
                  "type": "tuple"
                },
                {
                  "components": [
                    {
                      "name": "hash",
                      "type": "bytes32"
                    },
                    {
                      "components": [
                        {
                          "name": "r",
                          "type": "bytes32"
                        },
                        {
                          "name": "s",
                          "type": "bytes32"
                        },
                        {
                          "name": "v",
                          "type": "uint8"
                        }
                      ],
                      "name": "signature",
                      "type": "tuple"
                    }
                  ],
                  "name": "operator",
                  "type": "tuple"
                }
              ],
              "name": "seals",
              "type": "tuple"
            },
            {
              "name": "blockNumber",
              "type": "uint256"
            },
            {
              "name": "operatorId",
              "type": "uint256"
            }
          ],
          "name": "payment",
          "type": "tuple"
        },
        {
          "name": "stageAmount",
          "type": "int256"
        }
      ],
      "name": "startChallengeFromPaymentByProxy",
      "outputs": [],
      "payable": false,
      "stateMutability": "nonpayable",
      "type": "function"
    },
    {
      "constant": true,
      "inputs": [
        {
          "name": "wallet",
          "type": "address"
        }
      ],
      "name": "challengePhase",
      "outputs": [
        {
          "name": "",
          "type": "uint8"
        }
      ],
      "payable": false,
      "stateMutability": "view",
      "type": "function"
    },
    {
      "constant": true,
      "inputs": [
        {
          "name": "wallet",
          "type": "address"
        }
      ],
      "name": "proposalNonce",
      "outputs": [
        {
          "name": "",
          "type": "uint256"
        }
      ],
      "payable": false,
      "stateMutability": "view",
      "type": "function"
    },
    {
      "constant": true,
      "inputs": [
        {
          "name": "wallet",
          "type": "address"
        }
      ],
      "name": "proposalBlockNumber",
      "outputs": [
        {
          "name": "",
          "type": "uint256"
        }
      ],
      "payable": false,
      "stateMutability": "view",
      "type": "function"
    },
    {
      "constant": true,
      "inputs": [
        {
          "name": "wallet",
          "type": "address"
        }
      ],
      "name": "proposalTimeout",
      "outputs": [
        {
          "name": "",
          "type": "uint256"
        }
      ],
      "payable": false,
      "stateMutability": "view",
      "type": "function"
    },
    {
      "constant": true,
      "inputs": [
        {
          "name": "wallet",
          "type": "address"
        }
      ],
      "name": "proposalStatus",
      "outputs": [
        {
          "name": "",
          "type": "uint8"
        }
      ],
      "payable": false,
      "stateMutability": "view",
      "type": "function"
    },
    {
      "constant": true,
      "inputs": [
        {
          "name": "wallet",
          "type": "address"
        }
      ],
      "name": "proposalCurrencyCount",
      "outputs": [
        {
          "name": "",
          "type": "uint256"
        }
      ],
      "payable": false,
      "stateMutability": "view",
      "type": "function"
    },
    {
      "constant": true,
      "inputs": [
        {
          "name": "wallet",
          "type": "address"
        },
        {
          "name": "index",
          "type": "uint256"
        }
      ],
      "name": "proposalCurrency",
      "outputs": [
        {
          "components": [
            {
              "name": "ct",
              "type": "address"
            },
            {
              "name": "id",
              "type": "uint256"
            }
          ],
          "name": "",
          "type": "tuple"
        }
      ],
      "payable": false,
      "stateMutability": "view",
      "type": "function"
    },
    {
      "constant": true,
      "inputs": [
        {
          "name": "wallet",
          "type": "address"
        },
        {
          "components": [
            {
              "name": "ct",
              "type": "address"
            },
            {
              "name": "id",
              "type": "uint256"
            }
          ],
          "name": "currency",
          "type": "tuple"
        }
      ],
      "name": "proposalStageAmount",
      "outputs": [
        {
          "name": "",
          "type": "int256"
        }
      ],
      "payable": false,
      "stateMutability": "view",
      "type": "function"
    },
    {
      "constant": true,
      "inputs": [
        {
          "name": "wallet",
          "type": "address"
        },
        {
          "components": [
            {
              "name": "ct",
              "type": "address"
            },
            {
              "name": "id",
              "type": "uint256"
            }
          ],
          "name": "currency",
          "type": "tuple"
        }
      ],
      "name": "proposalTargetBalanceAmount",
      "outputs": [
        {
          "name": "",
          "type": "int256"
        }
      ],
      "payable": false,
      "stateMutability": "view",
      "type": "function"
    },
    {
      "constant": true,
      "inputs": [
        {
          "name": "wallet",
          "type": "address"
        }
      ],
      "name": "proposalDriipType",
      "outputs": [
        {
          "name": "",
          "type": "uint8"
        }
      ],
      "payable": false,
      "stateMutability": "view",
      "type": "function"
    },
    {
      "constant": true,
      "inputs": [
        {
          "name": "wallet",
          "type": "address"
        }
      ],
      "name": "proposalDriipIndex",
      "outputs": [
        {
          "name": "",
          "type": "uint256"
        }
      ],
      "payable": false,
      "stateMutability": "view",
      "type": "function"
    },
    {
      "constant": true,
      "inputs": [
        {
          "name": "wallet",
          "type": "address"
        }
      ],
      "name": "proposalCandidateType",
      "outputs": [
        {
          "name": "",
          "type": "uint8"
        }
      ],
      "payable": false,
      "stateMutability": "view",
      "type": "function"
    },
    {
      "constant": true,
      "inputs": [
        {
          "name": "wallet",
          "type": "address"
        }
      ],
      "name": "proposalCandidateIndex",
      "outputs": [
        {
          "name": "",
          "type": "uint256"
        }
      ],
      "payable": false,
      "stateMutability": "view",
      "type": "function"
    },
    {
      "constant": true,
      "inputs": [
        {
          "name": "wallet",
          "type": "address"
        }
      ],
      "name": "proposalChallenger",
      "outputs": [
        {
          "name": "",
          "type": "address"
        }
      ],
      "payable": false,
      "stateMutability": "view",
      "type": "function"
    },
    {
      "constant": false,
      "inputs": [
        {
          "name": "wallet",
          "type": "address"
        },
        {
          "name": "timeout",
          "type": "uint256"
        }
      ],
      "name": "setProposalTimeout",
      "outputs": [],
      "payable": false,
      "stateMutability": "nonpayable",
      "type": "function"
    },
    {
      "constant": false,
      "inputs": [
        {
          "name": "wallet",
          "type": "address"
        },
        {
          "name": "status",
          "type": "uint8"
        }
      ],
      "name": "setProposalStatus",
      "outputs": [],
      "payable": false,
      "stateMutability": "nonpayable",
      "type": "function"
    },
    {
      "constant": false,
      "inputs": [
        {
          "name": "wallet",
          "type": "address"
        },
        {
          "name": "candidateType",
          "type": "uint8"
        }
      ],
      "name": "setProposalCandidateType",
      "outputs": [],
      "payable": false,
      "stateMutability": "nonpayable",
      "type": "function"
    },
    {
      "constant": false,
      "inputs": [
        {
          "name": "wallet",
          "type": "address"
        },
        {
          "name": "candidateIndex",
          "type": "uint256"
        }
      ],
      "name": "setProposalCandidateIndex",
      "outputs": [],
      "payable": false,
      "stateMutability": "nonpayable",
      "type": "function"
    },
    {
      "constant": false,
      "inputs": [
        {
          "name": "wallet",
          "type": "address"
        },
        {
          "name": "challenger",
          "type": "address"
        }
      ],
      "name": "setProposalChallenger",
      "outputs": [],
      "payable": false,
      "stateMutability": "nonpayable",
      "type": "function"
    },
    {
      "constant": false,
      "inputs": [
        {
          "components": [
            {
              "name": "nonce",
              "type": "uint256"
            },
            {
              "name": "wallet",
              "type": "address"
            },
            {
              "components": [
                {
                  "name": "intention",
                  "type": "uint8"
                },
                {
                  "name": "amount",
                  "type": "int256"
                },
                {
                  "components": [
                    {
                      "components": [
                        {
                          "name": "ct",
                          "type": "address"
                        },
                        {
                          "name": "id",
                          "type": "uint256"
                        }
                      ],
                      "name": "intended",
                      "type": "tuple"
                    },
                    {
                      "components": [
                        {
                          "name": "ct",
                          "type": "address"
                        },
                        {
                          "name": "id",
                          "type": "uint256"
                        }
                      ],
                      "name": "conjugate",
                      "type": "tuple"
                    }
                  ],
                  "name": "currencies",
                  "type": "tuple"
                },
                {
                  "name": "rate",
                  "type": "int256"
                },
                {
                  "components": [
                    {
                      "name": "current",
                      "type": "int256"
                    },
                    {
                      "name": "previous",
                      "type": "int256"
                    }
                  ],
                  "name": "residuals",
                  "type": "tuple"
                }
              ],
              "name": "placement",
              "type": "tuple"
            },
            {
              "components": [
                {
                  "components": [
                    {
                      "name": "hash",
                      "type": "bytes32"
                    },
                    {
                      "components": [
                        {
                          "name": "r",
                          "type": "bytes32"
                        },
                        {
                          "name": "s",
                          "type": "bytes32"
                        },
                        {
                          "name": "v",
                          "type": "uint8"
                        }
                      ],
                      "name": "signature",
                      "type": "tuple"
                    }
                  ],
                  "name": "wallet",
                  "type": "tuple"
                },
                {
                  "components": [
                    {
                      "name": "hash",
                      "type": "bytes32"
                    },
                    {
                      "components": [
                        {
                          "name": "r",
                          "type": "bytes32"
                        },
                        {
                          "name": "s",
                          "type": "bytes32"
                        },
                        {
                          "name": "v",
                          "type": "uint8"
                        }
                      ],
                      "name": "signature",
                      "type": "tuple"
                    }
                  ],
                  "name": "operator",
                  "type": "tuple"
                }
              ],
              "name": "seals",
              "type": "tuple"
            },
            {
              "name": "blockNumber",
              "type": "uint256"
            },
            {
              "name": "operatorId",
              "type": "uint256"
            }
          ],
          "name": "order",
          "type": "tuple"
        }
      ],
      "name": "challengeByOrder",
      "outputs": [],
      "payable": false,
      "stateMutability": "nonpayable",
      "type": "function"
    },
    {
      "constant": false,
      "inputs": [
        {
          "components": [
            {
              "name": "nonce",
              "type": "uint256"
            },
            {
              "name": "wallet",
              "type": "address"
            },
            {
              "components": [
                {
                  "name": "intention",
                  "type": "uint8"
                },
                {
                  "name": "amount",
                  "type": "int256"
                },
                {
                  "components": [
                    {
                      "components": [
                        {
                          "name": "ct",
                          "type": "address"
                        },
                        {
                          "name": "id",
                          "type": "uint256"
                        }
                      ],
                      "name": "intended",
                      "type": "tuple"
                    },
                    {
                      "components": [
                        {
                          "name": "ct",
                          "type": "address"
                        },
                        {
                          "name": "id",
                          "type": "uint256"
                        }
                      ],
                      "name": "conjugate",
                      "type": "tuple"
                    }
                  ],
                  "name": "currencies",
                  "type": "tuple"
                },
                {
                  "name": "rate",
                  "type": "int256"
                },
                {
                  "components": [
                    {
                      "name": "current",
                      "type": "int256"
                    },
                    {
                      "name": "previous",
                      "type": "int256"
                    }
                  ],
                  "name": "residuals",
                  "type": "tuple"
                }
              ],
              "name": "placement",
              "type": "tuple"
            },
            {
              "components": [
                {
                  "components": [
                    {
                      "name": "hash",
                      "type": "bytes32"
                    },
                    {
                      "components": [
                        {
                          "name": "r",
                          "type": "bytes32"
                        },
                        {
                          "name": "s",
                          "type": "bytes32"
                        },
                        {
                          "name": "v",
                          "type": "uint8"
                        }
                      ],
                      "name": "signature",
                      "type": "tuple"
                    }
                  ],
                  "name": "wallet",
                  "type": "tuple"
                },
                {
                  "components": [
                    {
                      "name": "hash",
                      "type": "bytes32"
                    },
                    {
                      "components": [
                        {
                          "name": "r",
                          "type": "bytes32"
                        },
                        {
                          "name": "s",
                          "type": "bytes32"
                        },
                        {
                          "name": "v",
                          "type": "uint8"
                        }
                      ],
                      "name": "signature",
                      "type": "tuple"
                    }
                  ],
                  "name": "operator",
                  "type": "tuple"
                }
              ],
              "name": "seals",
              "type": "tuple"
            },
            {
              "name": "blockNumber",
              "type": "uint256"
            },
            {
              "name": "operatorId",
              "type": "uint256"
            }
          ],
          "name": "order",
          "type": "tuple"
        },
        {
          "components": [
            {
              "name": "nonce",
              "type": "uint256"
            },
            {
              "name": "amount",
              "type": "int256"
            },
            {
              "components": [
                {
                  "components": [
                    {
                      "name": "ct",
                      "type": "address"
                    },
                    {
                      "name": "id",
                      "type": "uint256"
                    }
                  ],
                  "name": "intended",
                  "type": "tuple"
                },
                {
                  "components": [
                    {
                      "name": "ct",
                      "type": "address"
                    },
                    {
                      "name": "id",
                      "type": "uint256"
                    }
                  ],
                  "name": "conjugate",
                  "type": "tuple"
                }
              ],
              "name": "currencies",
              "type": "tuple"
            },
            {
              "name": "rate",
              "type": "int256"
            },
            {
              "components": [
                {
                  "name": "nonce",
                  "type": "uint256"
                },
                {
                  "name": "wallet",
                  "type": "address"
                },
                {
                  "name": "rollingVolume",
                  "type": "uint256"
                },
                {
                  "name": "liquidityRole",
                  "type": "uint8"
                },
                {
                  "components": [
                    {
                      "name": "amount",
                      "type": "int256"
                    },
                    {
                      "components": [
                        {
                          "name": "wallet",
                          "type": "bytes32"
                        },
                        {
                          "name": "operator",
                          "type": "bytes32"
                        }
                      ],
                      "name": "hashes",
                      "type": "tuple"
                    },
                    {
                      "components": [
                        {
                          "name": "current",
                          "type": "int256"
                        },
                        {
                          "name": "previous",
                          "type": "int256"
                        }
                      ],
                      "name": "residuals",
                      "type": "tuple"
                    }
                  ],
                  "name": "order",
                  "type": "tuple"
                },
                {
                  "components": [
                    {
                      "components": [
                        {
                          "name": "current",
                          "type": "int256"
                        },
                        {
                          "name": "previous",
                          "type": "int256"
                        }
                      ],
                      "name": "intended",
                      "type": "tuple"
                    },
                    {
                      "components": [
                        {
                          "name": "current",
                          "type": "int256"
                        },
                        {
                          "name": "previous",
                          "type": "int256"
                        }
                      ],
                      "name": "conjugate",
                      "type": "tuple"
                    }
                  ],
                  "name": "balances",
                  "type": "tuple"
                },
                {
                  "components": [
                    {
                      "components": [
                        {
                          "name": "amount",
                          "type": "int256"
                        },
                        {
                          "components": [
                            {
                              "name": "ct",
                              "type": "address"
                            },
                            {
                              "name": "id",
                              "type": "uint256"
                            }
                          ],
                          "name": "currency",
                          "type": "tuple"
                        }
                      ],
                      "name": "single",
                      "type": "tuple"
                    },
                    {
                      "components": [
                        {
                          "name": "amount",
                          "type": "int256"
                        },
                        {
                          "components": [
                            {
                              "name": "ct",
                              "type": "address"
                            },
                            {
                              "name": "id",
                              "type": "uint256"
                            }
                          ],
                          "name": "currency",
                          "type": "tuple"
                        }
                      ],
                      "name": "total",
                      "type": "tuple[]"
                    }
                  ],
                  "name": "fees",
                  "type": "tuple"
                }
              ],
              "name": "buyer",
              "type": "tuple"
            },
            {
              "components": [
                {
                  "name": "nonce",
                  "type": "uint256"
                },
                {
                  "name": "wallet",
                  "type": "address"
                },
                {
                  "name": "rollingVolume",
                  "type": "uint256"
                },
                {
                  "name": "liquidityRole",
                  "type": "uint8"
                },
                {
                  "components": [
                    {
                      "name": "amount",
                      "type": "int256"
                    },
                    {
                      "components": [
                        {
                          "name": "wallet",
                          "type": "bytes32"
                        },
                        {
                          "name": "operator",
                          "type": "bytes32"
                        }
                      ],
                      "name": "hashes",
                      "type": "tuple"
                    },
                    {
                      "components": [
                        {
                          "name": "current",
                          "type": "int256"
                        },
                        {
                          "name": "previous",
                          "type": "int256"
                        }
                      ],
                      "name": "residuals",
                      "type": "tuple"
                    }
                  ],
                  "name": "order",
                  "type": "tuple"
                },
                {
                  "components": [
                    {
                      "components": [
                        {
                          "name": "current",
                          "type": "int256"
                        },
                        {
                          "name": "previous",
                          "type": "int256"
                        }
                      ],
                      "name": "intended",
                      "type": "tuple"
                    },
                    {
                      "components": [
                        {
                          "name": "current",
                          "type": "int256"
                        },
                        {
                          "name": "previous",
                          "type": "int256"
                        }
                      ],
                      "name": "conjugate",
                      "type": "tuple"
                    }
                  ],
                  "name": "balances",
                  "type": "tuple"
                },
                {
                  "components": [
                    {
                      "components": [
                        {
                          "name": "amount",
                          "type": "int256"
                        },
                        {
                          "components": [
                            {
                              "name": "ct",
                              "type": "address"
                            },
                            {
                              "name": "id",
                              "type": "uint256"
                            }
                          ],
                          "name": "currency",
                          "type": "tuple"
                        }
                      ],
                      "name": "single",
                      "type": "tuple"
                    },
                    {
                      "components": [
                        {
                          "name": "amount",
                          "type": "int256"
                        },
                        {
                          "components": [
                            {
                              "name": "ct",
                              "type": "address"
                            },
                            {
                              "name": "id",
                              "type": "uint256"
                            }
                          ],
                          "name": "currency",
                          "type": "tuple"
                        }
                      ],
                      "name": "total",
                      "type": "tuple[]"
                    }
                  ],
                  "name": "fees",
                  "type": "tuple"
                }
              ],
              "name": "seller",
              "type": "tuple"
            },
            {
              "components": [
                {
                  "components": [
                    {
                      "name": "single",
                      "type": "int256"
                    },
                    {
                      "name": "total",
                      "type": "int256"
                    }
                  ],
                  "name": "intended",
                  "type": "tuple"
                },
                {
                  "components": [
                    {
                      "name": "single",
                      "type": "int256"
                    },
                    {
                      "name": "total",
                      "type": "int256"
                    }
                  ],
                  "name": "conjugate",
                  "type": "tuple"
                }
              ],
              "name": "transfers",
              "type": "tuple"
            },
            {
              "components": [
                {
                  "name": "hash",
                  "type": "bytes32"
                },
                {
                  "components": [
                    {
                      "name": "r",
                      "type": "bytes32"
                    },
                    {
                      "name": "s",
                      "type": "bytes32"
                    },
                    {
                      "name": "v",
                      "type": "uint8"
                    }
                  ],
                  "name": "signature",
                  "type": "tuple"
                }
              ],
              "name": "seal",
              "type": "tuple"
            },
            {
              "name": "blockNumber",
              "type": "uint256"
            },
            {
              "name": "operatorId",
              "type": "uint256"
            }
          ],
          "name": "trade",
          "type": "tuple"
        }
      ],
      "name": "unchallengeOrderCandidateByTrade",
      "outputs": [],
      "payable": false,
      "stateMutability": "nonpayable",
      "type": "function"
    },
    {
      "constant": false,
      "inputs": [
        {
          "name": "wallet",
          "type": "address"
        },
        {
          "components": [
            {
              "name": "nonce",
              "type": "uint256"
            },
            {
              "name": "amount",
              "type": "int256"
            },
            {
              "components": [
                {
                  "components": [
                    {
                      "name": "ct",
                      "type": "address"
                    },
                    {
                      "name": "id",
                      "type": "uint256"
                    }
                  ],
                  "name": "intended",
                  "type": "tuple"
                },
                {
                  "components": [
                    {
                      "name": "ct",
                      "type": "address"
                    },
                    {
                      "name": "id",
                      "type": "uint256"
                    }
                  ],
                  "name": "conjugate",
                  "type": "tuple"
                }
              ],
              "name": "currencies",
              "type": "tuple"
            },
            {
              "name": "rate",
              "type": "int256"
            },
            {
              "components": [
                {
                  "name": "nonce",
                  "type": "uint256"
                },
                {
                  "name": "wallet",
                  "type": "address"
                },
                {
                  "name": "rollingVolume",
                  "type": "uint256"
                },
                {
                  "name": "liquidityRole",
                  "type": "uint8"
                },
                {
                  "components": [
                    {
                      "name": "amount",
                      "type": "int256"
                    },
                    {
                      "components": [
                        {
                          "name": "wallet",
                          "type": "bytes32"
                        },
                        {
                          "name": "operator",
                          "type": "bytes32"
                        }
                      ],
                      "name": "hashes",
                      "type": "tuple"
                    },
                    {
                      "components": [
                        {
                          "name": "current",
                          "type": "int256"
                        },
                        {
                          "name": "previous",
                          "type": "int256"
                        }
                      ],
                      "name": "residuals",
                      "type": "tuple"
                    }
                  ],
                  "name": "order",
                  "type": "tuple"
                },
                {
                  "components": [
                    {
                      "components": [
                        {
                          "name": "current",
                          "type": "int256"
                        },
                        {
                          "name": "previous",
                          "type": "int256"
                        }
                      ],
                      "name": "intended",
                      "type": "tuple"
                    },
                    {
                      "components": [
                        {
                          "name": "current",
                          "type": "int256"
                        },
                        {
                          "name": "previous",
                          "type": "int256"
                        }
                      ],
                      "name": "conjugate",
                      "type": "tuple"
                    }
                  ],
                  "name": "balances",
                  "type": "tuple"
                },
                {
                  "components": [
                    {
                      "components": [
                        {
                          "name": "amount",
                          "type": "int256"
                        },
                        {
                          "components": [
                            {
                              "name": "ct",
                              "type": "address"
                            },
                            {
                              "name": "id",
                              "type": "uint256"
                            }
                          ],
                          "name": "currency",
                          "type": "tuple"
                        }
                      ],
                      "name": "single",
                      "type": "tuple"
                    },
                    {
                      "components": [
                        {
                          "name": "amount",
                          "type": "int256"
                        },
                        {
                          "components": [
                            {
                              "name": "ct",
                              "type": "address"
                            },
                            {
                              "name": "id",
                              "type": "uint256"
                            }
                          ],
                          "name": "currency",
                          "type": "tuple"
                        }
                      ],
                      "name": "total",
                      "type": "tuple[]"
                    }
                  ],
                  "name": "fees",
                  "type": "tuple"
                }
              ],
              "name": "buyer",
              "type": "tuple"
            },
            {
              "components": [
                {
                  "name": "nonce",
                  "type": "uint256"
                },
                {
                  "name": "wallet",
                  "type": "address"
                },
                {
                  "name": "rollingVolume",
                  "type": "uint256"
                },
                {
                  "name": "liquidityRole",
                  "type": "uint8"
                },
                {
                  "components": [
                    {
                      "name": "amount",
                      "type": "int256"
                    },
                    {
                      "components": [
                        {
                          "name": "wallet",
                          "type": "bytes32"
                        },
                        {
                          "name": "operator",
                          "type": "bytes32"
                        }
                      ],
                      "name": "hashes",
                      "type": "tuple"
                    },
                    {
                      "components": [
                        {
                          "name": "current",
                          "type": "int256"
                        },
                        {
                          "name": "previous",
                          "type": "int256"
                        }
                      ],
                      "name": "residuals",
                      "type": "tuple"
                    }
                  ],
                  "name": "order",
                  "type": "tuple"
                },
                {
                  "components": [
                    {
                      "components": [
                        {
                          "name": "current",
                          "type": "int256"
                        },
                        {
                          "name": "previous",
                          "type": "int256"
                        }
                      ],
                      "name": "intended",
                      "type": "tuple"
                    },
                    {
                      "components": [
                        {
                          "name": "current",
                          "type": "int256"
                        },
                        {
                          "name": "previous",
                          "type": "int256"
                        }
                      ],
                      "name": "conjugate",
                      "type": "tuple"
                    }
                  ],
                  "name": "balances",
                  "type": "tuple"
                },
                {
                  "components": [
                    {
                      "components": [
                        {
                          "name": "amount",
                          "type": "int256"
                        },
                        {
                          "components": [
                            {
                              "name": "ct",
                              "type": "address"
                            },
                            {
                              "name": "id",
                              "type": "uint256"
                            }
                          ],
                          "name": "currency",
                          "type": "tuple"
                        }
                      ],
                      "name": "single",
                      "type": "tuple"
                    },
                    {
                      "components": [
                        {
                          "name": "amount",
                          "type": "int256"
                        },
                        {
                          "components": [
                            {
                              "name": "ct",
                              "type": "address"
                            },
                            {
                              "name": "id",
                              "type": "uint256"
                            }
                          ],
                          "name": "currency",
                          "type": "tuple"
                        }
                      ],
                      "name": "total",
                      "type": "tuple[]"
                    }
                  ],
                  "name": "fees",
                  "type": "tuple"
                }
              ],
              "name": "seller",
              "type": "tuple"
            },
            {
              "components": [
                {
                  "components": [
                    {
                      "name": "single",
                      "type": "int256"
                    },
                    {
                      "name": "total",
                      "type": "int256"
                    }
                  ],
                  "name": "intended",
                  "type": "tuple"
                },
                {
                  "components": [
                    {
                      "name": "single",
                      "type": "int256"
                    },
                    {
                      "name": "total",
                      "type": "int256"
                    }
                  ],
                  "name": "conjugate",
                  "type": "tuple"
                }
              ],
              "name": "transfers",
              "type": "tuple"
            },
            {
              "components": [
                {
                  "name": "hash",
                  "type": "bytes32"
                },
                {
                  "components": [
                    {
                      "name": "r",
                      "type": "bytes32"
                    },
                    {
                      "name": "s",
                      "type": "bytes32"
                    },
                    {
                      "name": "v",
                      "type": "uint8"
                    }
                  ],
                  "name": "signature",
                  "type": "tuple"
                }
              ],
              "name": "seal",
              "type": "tuple"
            },
            {
              "name": "blockNumber",
              "type": "uint256"
            },
            {
              "name": "operatorId",
              "type": "uint256"
            }
          ],
          "name": "trade",
          "type": "tuple"
        }
      ],
      "name": "challengeByTrade",
      "outputs": [],
      "payable": false,
      "stateMutability": "nonpayable",
      "type": "function"
    },
    {
      "constant": false,
      "inputs": [
        {
          "components": [
            {
              "name": "nonce",
              "type": "uint256"
            },
            {
              "name": "amount",
              "type": "int256"
            },
            {
              "components": [
                {
                  "name": "ct",
                  "type": "address"
                },
                {
                  "name": "id",
                  "type": "uint256"
                }
              ],
              "name": "currency",
              "type": "tuple"
            },
            {
              "components": [
                {
                  "name": "nonce",
                  "type": "uint256"
                },
                {
                  "name": "wallet",
                  "type": "address"
                },
                {
                  "components": [
                    {
                      "name": "current",
                      "type": "int256"
                    },
                    {
                      "name": "previous",
                      "type": "int256"
                    }
                  ],
                  "name": "balances",
                  "type": "tuple"
                },
                {
                  "components": [
                    {
                      "components": [
                        {
                          "name": "amount",
                          "type": "int256"
                        },
                        {
                          "components": [
                            {
                              "name": "ct",
                              "type": "address"
                            },
                            {
                              "name": "id",
                              "type": "uint256"
                            }
                          ],
                          "name": "currency",
                          "type": "tuple"
                        }
                      ],
                      "name": "single",
                      "type": "tuple"
                    },
                    {
                      "components": [
                        {
                          "name": "amount",
                          "type": "int256"
                        },
                        {
                          "components": [
                            {
                              "name": "ct",
                              "type": "address"
                            },
                            {
                              "name": "id",
                              "type": "uint256"
                            }
                          ],
                          "name": "currency",
                          "type": "tuple"
                        }
                      ],
                      "name": "total",
                      "type": "tuple[]"
                    }
                  ],
                  "name": "fees",
                  "type": "tuple"
                }
              ],
              "name": "sender",
              "type": "tuple"
            },
            {
              "components": [
                {
                  "name": "nonce",
                  "type": "uint256"
                },
                {
                  "name": "wallet",
                  "type": "address"
                },
                {
                  "components": [
                    {
                      "name": "current",
                      "type": "int256"
                    },
                    {
                      "name": "previous",
                      "type": "int256"
                    }
                  ],
                  "name": "balances",
                  "type": "tuple"
                },
                {
                  "components": [
                    {
                      "components": [
                        {
                          "name": "amount",
                          "type": "int256"
                        },
                        {
                          "components": [
                            {
                              "name": "ct",
                              "type": "address"
                            },
                            {
                              "name": "id",
                              "type": "uint256"
                            }
                          ],
                          "name": "currency",
                          "type": "tuple"
                        }
                      ],
                      "name": "total",
                      "type": "tuple[]"
                    }
                  ],
                  "name": "fees",
                  "type": "tuple"
                }
              ],
              "name": "recipient",
              "type": "tuple"
            },
            {
              "components": [
                {
                  "name": "single",
                  "type": "int256"
                },
                {
                  "name": "total",
                  "type": "int256"
                }
              ],
              "name": "transfers",
              "type": "tuple"
            },
            {
              "components": [
                {
                  "components": [
                    {
                      "name": "hash",
                      "type": "bytes32"
                    },
                    {
                      "components": [
                        {
                          "name": "r",
                          "type": "bytes32"
                        },
                        {
                          "name": "s",
                          "type": "bytes32"
                        },
                        {
                          "name": "v",
                          "type": "uint8"
                        }
                      ],
                      "name": "signature",
                      "type": "tuple"
                    }
                  ],
                  "name": "wallet",
                  "type": "tuple"
                },
                {
                  "components": [
                    {
                      "name": "hash",
                      "type": "bytes32"
                    },
                    {
                      "components": [
                        {
                          "name": "r",
                          "type": "bytes32"
                        },
                        {
                          "name": "s",
                          "type": "bytes32"
                        },
                        {
                          "name": "v",
                          "type": "uint8"
                        }
                      ],
                      "name": "signature",
                      "type": "tuple"
                    }
                  ],
                  "name": "operator",
                  "type": "tuple"
                }
              ],
              "name": "seals",
              "type": "tuple"
            },
            {
              "name": "blockNumber",
              "type": "uint256"
            },
            {
              "name": "operatorId",
              "type": "uint256"
            }
          ],
          "name": "payment",
          "type": "tuple"
        }
      ],
      "name": "challengeByPayment",
      "outputs": [],
      "payable": false,
      "stateMutability": "nonpayable",
      "type": "function"
    },
    {
      "constant": false,
      "inputs": [
        {
          "components": [
            {
              "name": "nonce",
              "type": "uint256"
            },
            {
              "name": "wallet",
              "type": "address"
            },
            {
              "components": [
                {
                  "name": "intention",
                  "type": "uint8"
                },
                {
                  "name": "amount",
                  "type": "int256"
                },
                {
                  "components": [
                    {
                      "components": [
                        {
                          "name": "ct",
                          "type": "address"
                        },
                        {
                          "name": "id",
                          "type": "uint256"
                        }
                      ],
                      "name": "intended",
                      "type": "tuple"
                    },
                    {
                      "components": [
                        {
                          "name": "ct",
                          "type": "address"
                        },
                        {
                          "name": "id",
                          "type": "uint256"
                        }
                      ],
                      "name": "conjugate",
                      "type": "tuple"
                    }
                  ],
                  "name": "currencies",
                  "type": "tuple"
                },
                {
                  "name": "rate",
                  "type": "int256"
                },
                {
                  "components": [
                    {
                      "name": "current",
                      "type": "int256"
                    },
                    {
                      "name": "previous",
                      "type": "int256"
                    }
                  ],
                  "name": "residuals",
                  "type": "tuple"
                }
              ],
              "name": "placement",
              "type": "tuple"
            },
            {
              "components": [
                {
                  "components": [
                    {
                      "name": "hash",
                      "type": "bytes32"
                    },
                    {
                      "components": [
                        {
                          "name": "r",
                          "type": "bytes32"
                        },
                        {
                          "name": "s",
                          "type": "bytes32"
                        },
                        {
                          "name": "v",
                          "type": "uint8"
                        }
                      ],
                      "name": "signature",
                      "type": "tuple"
                    }
                  ],
                  "name": "wallet",
                  "type": "tuple"
                },
                {
                  "components": [
                    {
                      "name": "hash",
                      "type": "bytes32"
                    },
                    {
                      "components": [
                        {
                          "name": "r",
                          "type": "bytes32"
                        },
                        {
                          "name": "s",
                          "type": "bytes32"
                        },
                        {
                          "name": "v",
                          "type": "uint8"
                        }
                      ],
                      "name": "signature",
                      "type": "tuple"
                    }
                  ],
                  "name": "operator",
                  "type": "tuple"
                }
              ],
              "name": "seals",
              "type": "tuple"
            },
            {
              "name": "blockNumber",
              "type": "uint256"
            },
            {
              "name": "operatorId",
              "type": "uint256"
            }
          ],
          "name": "order",
          "type": "tuple"
        }
      ],
      "name": "pushChallengeCandidateOrder",
      "outputs": [],
      "payable": false,
      "stateMutability": "nonpayable",
      "type": "function"
    },
    {
      "constant": true,
      "inputs": [],
      "name": "challengeCandidateOrdersCount",
      "outputs": [
        {
          "name": "",
          "type": "uint256"
        }
      ],
      "payable": false,
      "stateMutability": "view",
      "type": "function"
    },
    {
      "constant": true,
      "inputs": [
        {
          "name": "index",
          "type": "uint256"
        }
      ],
      "name": "challengeCandidateOrder",
      "outputs": [
        {
          "components": [
            {
              "name": "nonce",
              "type": "uint256"
            },
            {
              "name": "wallet",
              "type": "address"
            },
            {
              "components": [
                {
                  "name": "intention",
                  "type": "uint8"
                },
                {
                  "name": "amount",
                  "type": "int256"
                },
                {
                  "components": [
                    {
                      "components": [
                        {
                          "name": "ct",
                          "type": "address"
                        },
                        {
                          "name": "id",
                          "type": "uint256"
                        }
                      ],
                      "name": "intended",
                      "type": "tuple"
                    },
                    {
                      "components": [
                        {
                          "name": "ct",
                          "type": "address"
                        },
                        {
                          "name": "id",
                          "type": "uint256"
                        }
                      ],
                      "name": "conjugate",
                      "type": "tuple"
                    }
                  ],
                  "name": "currencies",
                  "type": "tuple"
                },
                {
                  "name": "rate",
                  "type": "int256"
                },
                {
                  "components": [
                    {
                      "name": "current",
                      "type": "int256"
                    },
                    {
                      "name": "previous",
                      "type": "int256"
                    }
                  ],
                  "name": "residuals",
                  "type": "tuple"
                }
              ],
              "name": "placement",
              "type": "tuple"
            },
            {
              "components": [
                {
                  "components": [
                    {
                      "name": "hash",
                      "type": "bytes32"
                    },
                    {
                      "components": [
                        {
                          "name": "r",
                          "type": "bytes32"
                        },
                        {
                          "name": "s",
                          "type": "bytes32"
                        },
                        {
                          "name": "v",
                          "type": "uint8"
                        }
                      ],
                      "name": "signature",
                      "type": "tuple"
                    }
                  ],
                  "name": "wallet",
                  "type": "tuple"
                },
                {
                  "components": [
                    {
                      "name": "hash",
                      "type": "bytes32"
                    },
                    {
                      "components": [
                        {
                          "name": "r",
                          "type": "bytes32"
                        },
                        {
                          "name": "s",
                          "type": "bytes32"
                        },
                        {
                          "name": "v",
                          "type": "uint8"
                        }
                      ],
                      "name": "signature",
                      "type": "tuple"
                    }
                  ],
                  "name": "operator",
                  "type": "tuple"
                }
              ],
              "name": "seals",
              "type": "tuple"
            },
            {
              "name": "blockNumber",
              "type": "uint256"
            },
            {
              "name": "operatorId",
              "type": "uint256"
            }
          ],
          "name": "",
          "type": "tuple"
        }
      ],
      "payable": false,
      "stateMutability": "view",
      "type": "function"
    },
    {
      "constant": true,
      "inputs": [],
      "name": "challengeCandidateTradesCount",
      "outputs": [
        {
          "name": "",
          "type": "uint256"
        }
      ],
      "payable": false,
      "stateMutability": "view",
      "type": "function"
    },
    {
      "constant": false,
      "inputs": [
        {
          "components": [
            {
              "name": "nonce",
              "type": "uint256"
            },
            {
              "name": "amount",
              "type": "int256"
            },
            {
              "components": [
                {
                  "components": [
                    {
                      "name": "ct",
                      "type": "address"
                    },
                    {
                      "name": "id",
                      "type": "uint256"
                    }
                  ],
                  "name": "intended",
                  "type": "tuple"
                },
                {
                  "components": [
                    {
                      "name": "ct",
                      "type": "address"
                    },
                    {
                      "name": "id",
                      "type": "uint256"
                    }
                  ],
                  "name": "conjugate",
                  "type": "tuple"
                }
              ],
              "name": "currencies",
              "type": "tuple"
            },
            {
              "name": "rate",
              "type": "int256"
            },
            {
              "components": [
                {
                  "name": "nonce",
                  "type": "uint256"
                },
                {
                  "name": "wallet",
                  "type": "address"
                },
                {
                  "name": "rollingVolume",
                  "type": "uint256"
                },
                {
                  "name": "liquidityRole",
                  "type": "uint8"
                },
                {
                  "components": [
                    {
                      "name": "amount",
                      "type": "int256"
                    },
                    {
                      "components": [
                        {
                          "name": "wallet",
                          "type": "bytes32"
                        },
                        {
                          "name": "operator",
                          "type": "bytes32"
                        }
                      ],
                      "name": "hashes",
                      "type": "tuple"
                    },
                    {
                      "components": [
                        {
                          "name": "current",
                          "type": "int256"
                        },
                        {
                          "name": "previous",
                          "type": "int256"
                        }
                      ],
                      "name": "residuals",
                      "type": "tuple"
                    }
                  ],
                  "name": "order",
                  "type": "tuple"
                },
                {
                  "components": [
                    {
                      "components": [
                        {
                          "name": "current",
                          "type": "int256"
                        },
                        {
                          "name": "previous",
                          "type": "int256"
                        }
                      ],
                      "name": "intended",
                      "type": "tuple"
                    },
                    {
                      "components": [
                        {
                          "name": "current",
                          "type": "int256"
                        },
                        {
                          "name": "previous",
                          "type": "int256"
                        }
                      ],
                      "name": "conjugate",
                      "type": "tuple"
                    }
                  ],
                  "name": "balances",
                  "type": "tuple"
                },
                {
                  "components": [
                    {
                      "components": [
                        {
                          "name": "amount",
                          "type": "int256"
                        },
                        {
                          "components": [
                            {
                              "name": "ct",
                              "type": "address"
                            },
                            {
                              "name": "id",
                              "type": "uint256"
                            }
                          ],
                          "name": "currency",
                          "type": "tuple"
                        }
                      ],
                      "name": "single",
                      "type": "tuple"
                    },
                    {
                      "components": [
                        {
                          "name": "amount",
                          "type": "int256"
                        },
                        {
                          "components": [
                            {
                              "name": "ct",
                              "type": "address"
                            },
                            {
                              "name": "id",
                              "type": "uint256"
                            }
                          ],
                          "name": "currency",
                          "type": "tuple"
                        }
                      ],
                      "name": "total",
                      "type": "tuple[]"
                    }
                  ],
                  "name": "fees",
                  "type": "tuple"
                }
              ],
              "name": "buyer",
              "type": "tuple"
            },
            {
              "components": [
                {
                  "name": "nonce",
                  "type": "uint256"
                },
                {
                  "name": "wallet",
                  "type": "address"
                },
                {
                  "name": "rollingVolume",
                  "type": "uint256"
                },
                {
                  "name": "liquidityRole",
                  "type": "uint8"
                },
                {
                  "components": [
                    {
                      "name": "amount",
                      "type": "int256"
                    },
                    {
                      "components": [
                        {
                          "name": "wallet",
                          "type": "bytes32"
                        },
                        {
                          "name": "operator",
                          "type": "bytes32"
                        }
                      ],
                      "name": "hashes",
                      "type": "tuple"
                    },
                    {
                      "components": [
                        {
                          "name": "current",
                          "type": "int256"
                        },
                        {
                          "name": "previous",
                          "type": "int256"
                        }
                      ],
                      "name": "residuals",
                      "type": "tuple"
                    }
                  ],
                  "name": "order",
                  "type": "tuple"
                },
                {
                  "components": [
                    {
                      "components": [
                        {
                          "name": "current",
                          "type": "int256"
                        },
                        {
                          "name": "previous",
                          "type": "int256"
                        }
                      ],
                      "name": "intended",
                      "type": "tuple"
                    },
                    {
                      "components": [
                        {
                          "name": "current",
                          "type": "int256"
                        },
                        {
                          "name": "previous",
                          "type": "int256"
                        }
                      ],
                      "name": "conjugate",
                      "type": "tuple"
                    }
                  ],
                  "name": "balances",
                  "type": "tuple"
                },
                {
                  "components": [
                    {
                      "components": [
                        {
                          "name": "amount",
                          "type": "int256"
                        },
                        {
                          "components": [
                            {
                              "name": "ct",
                              "type": "address"
                            },
                            {
                              "name": "id",
                              "type": "uint256"
                            }
                          ],
                          "name": "currency",
                          "type": "tuple"
                        }
                      ],
                      "name": "single",
                      "type": "tuple"
                    },
                    {
                      "components": [
                        {
                          "name": "amount",
                          "type": "int256"
                        },
                        {
                          "components": [
                            {
                              "name": "ct",
                              "type": "address"
                            },
                            {
                              "name": "id",
                              "type": "uint256"
                            }
                          ],
                          "name": "currency",
                          "type": "tuple"
                        }
                      ],
                      "name": "total",
                      "type": "tuple[]"
                    }
                  ],
                  "name": "fees",
                  "type": "tuple"
                }
              ],
              "name": "seller",
              "type": "tuple"
            },
            {
              "components": [
                {
                  "components": [
                    {
                      "name": "single",
                      "type": "int256"
                    },
                    {
                      "name": "total",
                      "type": "int256"
                    }
                  ],
                  "name": "intended",
                  "type": "tuple"
                },
                {
                  "components": [
                    {
                      "name": "single",
                      "type": "int256"
                    },
                    {
                      "name": "total",
                      "type": "int256"
                    }
                  ],
                  "name": "conjugate",
                  "type": "tuple"
                }
              ],
              "name": "transfers",
              "type": "tuple"
            },
            {
              "components": [
                {
                  "name": "hash",
                  "type": "bytes32"
                },
                {
                  "components": [
                    {
                      "name": "r",
                      "type": "bytes32"
                    },
                    {
                      "name": "s",
                      "type": "bytes32"
                    },
                    {
                      "name": "v",
                      "type": "uint8"
                    }
                  ],
                  "name": "signature",
                  "type": "tuple"
                }
              ],
              "name": "seal",
              "type": "tuple"
            },
            {
              "name": "blockNumber",
              "type": "uint256"
            },
            {
              "name": "operatorId",
              "type": "uint256"
            }
          ],
          "name": "trade",
          "type": "tuple"
        }
      ],
      "name": "pushChallengeCandidateTrade",
      "outputs": [],
      "payable": false,
      "stateMutability": "nonpayable",
      "type": "function"
    },
    {
      "constant": true,
      "inputs": [],
      "name": "challengeCandidatePaymentsCount",
      "outputs": [
        {
          "name": "",
          "type": "uint256"
        }
      ],
      "payable": false,
      "stateMutability": "view",
      "type": "function"
    },
    {
      "constant": false,
      "inputs": [
        {
          "components": [
            {
              "name": "nonce",
              "type": "uint256"
            },
            {
              "name": "amount",
              "type": "int256"
            },
            {
              "components": [
                {
                  "name": "ct",
                  "type": "address"
                },
                {
                  "name": "id",
                  "type": "uint256"
                }
              ],
              "name": "currency",
              "type": "tuple"
            },
            {
              "components": [
                {
                  "name": "nonce",
                  "type": "uint256"
                },
                {
                  "name": "wallet",
                  "type": "address"
                },
                {
                  "components": [
                    {
                      "name": "current",
                      "type": "int256"
                    },
                    {
                      "name": "previous",
                      "type": "int256"
                    }
                  ],
                  "name": "balances",
                  "type": "tuple"
                },
                {
                  "components": [
                    {
                      "components": [
                        {
                          "name": "amount",
                          "type": "int256"
                        },
                        {
                          "components": [
                            {
                              "name": "ct",
                              "type": "address"
                            },
                            {
                              "name": "id",
                              "type": "uint256"
                            }
                          ],
                          "name": "currency",
                          "type": "tuple"
                        }
                      ],
                      "name": "single",
                      "type": "tuple"
                    },
                    {
                      "components": [
                        {
                          "name": "amount",
                          "type": "int256"
                        },
                        {
                          "components": [
                            {
                              "name": "ct",
                              "type": "address"
                            },
                            {
                              "name": "id",
                              "type": "uint256"
                            }
                          ],
                          "name": "currency",
                          "type": "tuple"
                        }
                      ],
                      "name": "total",
                      "type": "tuple[]"
                    }
                  ],
                  "name": "fees",
                  "type": "tuple"
                }
              ],
              "name": "sender",
              "type": "tuple"
            },
            {
              "components": [
                {
                  "name": "nonce",
                  "type": "uint256"
                },
                {
                  "name": "wallet",
                  "type": "address"
                },
                {
                  "components": [
                    {
                      "name": "current",
                      "type": "int256"
                    },
                    {
                      "name": "previous",
                      "type": "int256"
                    }
                  ],
                  "name": "balances",
                  "type": "tuple"
                },
                {
                  "components": [
                    {
                      "components": [
                        {
                          "name": "amount",
                          "type": "int256"
                        },
                        {
                          "components": [
                            {
                              "name": "ct",
                              "type": "address"
                            },
                            {
                              "name": "id",
                              "type": "uint256"
                            }
                          ],
                          "name": "currency",
                          "type": "tuple"
                        }
                      ],
                      "name": "total",
                      "type": "tuple[]"
                    }
                  ],
                  "name": "fees",
                  "type": "tuple"
                }
              ],
              "name": "recipient",
              "type": "tuple"
            },
            {
              "components": [
                {
                  "name": "single",
                  "type": "int256"
                },
                {
                  "name": "total",
                  "type": "int256"
                }
              ],
              "name": "transfers",
              "type": "tuple"
            },
            {
              "components": [
                {
                  "components": [
                    {
                      "name": "hash",
                      "type": "bytes32"
                    },
                    {
                      "components": [
                        {
                          "name": "r",
                          "type": "bytes32"
                        },
                        {
                          "name": "s",
                          "type": "bytes32"
                        },
                        {
                          "name": "v",
                          "type": "uint8"
                        }
                      ],
                      "name": "signature",
                      "type": "tuple"
                    }
                  ],
                  "name": "wallet",
                  "type": "tuple"
                },
                {
                  "components": [
                    {
                      "name": "hash",
                      "type": "bytes32"
                    },
                    {
                      "components": [
                        {
                          "name": "r",
                          "type": "bytes32"
                        },
                        {
                          "name": "s",
                          "type": "bytes32"
                        },
                        {
                          "name": "v",
                          "type": "uint8"
                        }
                      ],
                      "name": "signature",
                      "type": "tuple"
                    }
                  ],
                  "name": "operator",
                  "type": "tuple"
                }
              ],
              "name": "seals",
              "type": "tuple"
            },
            {
              "name": "blockNumber",
              "type": "uint256"
            },
            {
              "name": "operatorId",
              "type": "uint256"
            }
          ],
          "name": "payment",
          "type": "tuple"
        }
      ],
      "name": "pushChallengeCandidatePayment",
      "outputs": [],
      "payable": false,
      "stateMutability": "nonpayable",
      "type": "function"
    }
  ],
  "bytecode": "0x60806040523480156200001157600080fd5b50604051602080620055708339810180604052620000339190810190620000a9565b8080600160a060020a03811615156200004b57600080fd5b600160a060020a0381163014156200006257600080fd5b5060008054600160a060020a03909216600160a060020a031992831681179091556001805490921617905550620000de565b6000620000a28251620000d2565b9392505050565b600060208284031215620000bc57600080fd5b6000620000ca848462000094565b949350505050565b600160a060020a031690565b61548280620000ee6000396000f30060806040526004361061026e5763ffffffff60e060020a60003504166303607fba811461027357806306394c9b146102955780630ad31b87146102b55780630befbfdc146102f35780631110f49a14610320578063152932301461034057806317da53081461036d5780631df481ac1461038d578063237ee8c5146103ad5780632d0ec326146103cd5780633330c24114610402578063346960fd146104225780633a5381b5146104375780634476d23b1461045957806345a4820f1461047b57806349a3db631461049b57806353fc6a55146104bb5780635439d3e1146104db578063570ca735146105085780635a42274a1461051d5780635e9fc80e1461053d578063600e461e1461055d57806360d894e01461057d5780636c70bee91461059d5780636f0ca698146105b257806373c53e20146105df57806377b9e8451461060c5780637bbb593b1461062c5780637e5150f41461064c5780638be5041a1461066c57806394dd293c1461068c5780639735b948146106a15780639b6a2492146106c1578063a85e613e146106e1578063afa83cfd146106f6578063b009464a14610716578063b7f999db14610736578063b8bbf8ab14610756578063bfd353511461076b578063c098b4031461078b578063c213a4bd146107ab578063c46fcd75146107d8578063c70bc6e7146107f8578063c9dae98b14610818578063cb0f433b1461084e578063ce7e7ff214610863578063d25d3cc314610883578063d271d2ec146108a3578063d5f39488146108c3578063defdfae6146108d8578063e0a04405146108f8578063e14e882814610918578063f6abfc761461094a578063f7ef67891461096a575b600080fd5b34801561027f57600080fd5b5061029361028e3660046147a0565b61098a565b005b3480156102a157600080fd5b506102936102b0366004614502565b610a8c565b3480156102c157600080fd5b506102d56102d03660046148c2565b610b44565b6040516102ea999897969594939291906151b0565b60405180910390f35b3480156102ff57600080fd5b5061031361030e366004614502565b610e29565b6040516102ea9190615085565b34801561032c57600080fd5b5061029361033b366004614781565b610e48565b34801561034c57600080fd5b5061036061035b366004614715565b610f47565b6040516102ea9190615093565b34801561037957600080fd5b50610293610388366004614715565b610fd9565b34801561039957600080fd5b506102936103a8366004614592565b61100f565b3480156103b957600080fd5b506102d56103c8366004614715565b611061565b3480156103d957600080fd5b506103ed6103e8366004614502565b6111ba565b6040516102ea999897969594939291906152ec565b34801561040e57600080fd5b5061029361041d366004614528565b611216565b34801561042e57600080fd5b5061031361125e565b34801561044357600080fd5b5061044c611265565b6040516102ea9190615032565b34801561046557600080fd5b5061046e611274565b6040516102ea9190614ee0565b34801561048757600080fd5b50610293610496366004614811565b611283565b3480156104a757600080fd5b506102936104b6366004614656565b6112cd565b3480156104c757600080fd5b506102936104d63660046145f2565b611399565b3480156104e757600080fd5b506104fb6104f6366004614502565b6113ec565b6040516102ea9190615069565b34801561051457600080fd5b5061046e61140d565b34801561052957600080fd5b50610313610538366004614502565b61141c565b34801561054957600080fd5b50610293610558366004614763565b611437565b34801561056957600080fd5b506103136105783660046145c2565b6114bb565b34801561058957600080fd5b50610313610598366004614502565b611509565b3480156105a957600080fd5b5061044c611527565b3480156105be57600080fd5b506105d26105cd366004614502565b611536565b6040516102ea919061505b565b3480156105eb57600080fd5b506105ff6105fa3660046148c2565b611557565b6040516102ea91906150a1565b34801561061857600080fd5b50610313610627366004614502565b61170a565b34801561063857600080fd5b5061029361064736600461487a565b611725565b34801561065857600080fd5b50610293610667366004614763565b611766565b34801561067857600080fd5b50610293610687366004614562565b61180d565b34801561069857600080fd5b50610293611856565b3480156106ad57600080fd5b506102936106bc3660046147dd565b611885565b3480156106cd57600080fd5b506102936106dc3660046147dd565b61194f565b3480156106ed57600080fd5b50610313611974565b34801561070257600080fd5b50610293610711366004614846565b61197a565b34801561072257600080fd5b5061029361073136600461469d565b61199c565b34801561074257600080fd5b5061046e610751366004614502565b611a00565b34801561076257600080fd5b50610313611a21565b34801561077757600080fd5b50610293610786366004614781565b611a27565b34801561079757600080fd5b506103136107a6366004614502565b611c12565b3480156107b757600080fd5b506107cb6107c6366004614502565b611c30565b6040516102ea9190615077565b3480156107e457600080fd5b506103136107f33660046145c2565b611c51565b34801561080457600080fd5b50610313610813366004614502565b611c89565b34801561082457600080fd5b506108386108333660046148c2565b611ca7565b6040516102ea9a99989796959493929190615246565b34801561085a57600080fd5b5061044c612138565b34801561086f57600080fd5b5061029361087e366004614715565b612147565b34801561088f57600080fd5b5061031361089e366004614502565b61217d565b3480156108af57600080fd5b506103136108be366004614502565b61219b565b3480156108cf57600080fd5b5061046e6121b9565b3480156108e457600080fd5b506102936108f3366004614502565b6121c8565b34801561090457600080fd5b506104fb610913366004614502565b612272565b34801561092457600080fd5b506109386109333660046148c2565b6122c8565b6040516102ea96959493929190615152565b34801561095657600080fd5b50610293610965366004614763565b612451565b34801561097657600080fd5b50610838610985366004614715565b6124e9565b600260009054906101000a9004600160a060020a0316600160a060020a031663f71e860f6040518163ffffffff1660e060020a028152600401602060405180830381600087803b1580156109dd57600080fd5b505af11580156109f1573d6000803e3d6000fd5b505050506040513d601f19601f82011682018060405250610a159190810190614745565b1515610a2057600080fd5b6004805460405160e260020a631005cd99028152600160a060020a0390911691634017366491610a5691869186913391016150cd565b600060405180830381600087803b158015610a7057600080fd5b505af1158015610a84573d6000803e3d6000fd5b505050505050565b6000610a966125bf565b1515610aa157600080fd5b81600160a060020a0381161515610ab757600080fd5b600160a060020a038116301415610acd57600080fd5b600154600160a060020a03848116911614610b3f5760018054600160a060020a03858116600160a060020a0319831617909255604051911692507f5bd9a4a09f08f75952905b16ac91d6821c47d52c3a968e583e6854b42757c58090610b369084908690614eee565b60405180910390a15b505050565b600a805482908110610b5257fe5b60009182526020808320601d909202909101805460018201546040805180820182526002850154600160a060020a039081168252600386015482880152825160808181018552600488018054835260058901548416838b01528551808701875260068a0154815260078a0154818c015283870152855191820186526008890180548388019081528751808901895260098c01549096168652600a8b0154868d01526060848101969096528352600b8a0180548851818e0281018e01909952808952999d50979b959a939891979489019692959094868501949092919084015b82821015610c8f57600084815260209081902060408051808201825260038602909201805483528151808301909252600180820154600160a060020a0316835260029091015482850152828401919091529083529092019101610c31565b5050509152505090525060408051608081018252600c840180548252600d850154600160a060020a031660208084019190915283518085018552600e8701548152600f87015481830152838501528351601087018054808402830187018752928201838152969796949593946060870194929391928492849160009085015b82821015610d6c57600084815260209081902060408051808201825260038602909201805483528151808301909252600180820154600160a060020a0316835260029091015482850152828401919091529083529092019101610d0e565b505050915250509052506040805180820182526011840154815260128401546020808301919091528251608081018452601386015481850190815284516060818101875260148901548252601589015482860152601689015460ff908116838901528185019290925291835285518087018752601789015481528651928301875260188901548352601989015483860152601a890154909116958201959095528483015290810192909252601b840154601c909401549293909289565b600160a060020a0381166000908152600660205260409020545b919050565b600260009054906101000a9004600160a060020a0316600160a060020a031663f71e860f6040518163ffffffff1660e060020a028152600401602060405180830381600087803b158015610e9b57600080fd5b505af1158015610eaf573d6000803e3d6000fd5b505050506040513d601f19601f82011682018060405250610ed39190810190614745565b1515610ede57600080fd5b6004805460405160e060020a638eed8359028152600160a060020a0390911691638eed835991610f129185913391016150b0565b600060405180830381600087803b158015610f2c57600080fd5b505af1158015610f40573d6000803e3d6000fd5b5050505050565b610f4f6136db565b600160a060020a0383166000908152600560205260409020600401548210610f7657600080fd5b600160a060020a0383166000908152600560205260409020600401805483908110610f9d57fe5b6000918252602091829020604080518082019091526002909202018054600160a060020a03168252600101549181019190915290505b92915050565b600454600160a060020a03163314610ff057600080fd5b600160a060020a03909116600090815260056020526040902060020155565b600454600160a060020a0316331461102657600080fd5b600160a060020a0382166000908152600560205260409020600301805482919060ff1916600183600281111561105857fe5b02179055505050565b60076020528160005260406000208181548110151561107c57fe5b60009182526020808320601d909202909101805460018201546040805180820182526002850154600160a060020a039081168252600386015482880152825160808181018552600488018054835260058901548416838b01528551808701875260068a0154815260078a0154818c015283870152855191820186526008890180548388019081528751808901895260098c01549096168652600a8b0154868d01526060848101969096528352600b8a0180548851818e0281018e01909952808952999e50979c50949a989992989097938901969195868401949093909190840182821015610c8f57600084815260209081902060408051808201825260038602909201805483528151808301909252600180820154600160a060020a0316835260029091015482850152828401919091529083529092019101610c31565b60056020526000908152604090208054600182015460028301546003840154600785015460088601546009870154600a880154600b9098015496979596949560ff948516959385169492939290911691600160a060020a031689565b600454600160a060020a0316331461122d57600080fd5b600160a060020a039182166000908152600560205260409020600b018054600160a060020a03191691909216179055565b600a545b90565b600354600160a060020a031681565b600054600160a060020a031690565b61128e3383836125d0565b7faeec8be693fb2ea4c9874374b741131fdc2ef4b4c84092c9aac52c4ea76fd67b3383836040516112c193929190614f98565b60405180910390a15050565b600260009054906101000a9004600160a060020a0316600160a060020a031663f71e860f6040518163ffffffff1660e060020a028152600401602060405180830381600087803b15801561132057600080fd5b505af1158015611334573d6000803e3d6000fd5b505050506040513d601f19601f820116820180604052506113589190810190614745565b151561136357600080fd5b6004805460405160e060020a631114b317028152600160a060020a0390911691631114b31791610a569186918691339101614fc7565b6113a1612aea565b15156113ac57600080fd5b6113b78383836125d0565b7f0bbd10250d09c9271bdd433d1c15e19cea23483a742b7682765036bd008bf45733848484604051610b369493929190614f09565b600160a060020a031660009081526005602052604090206007015460ff1690565b600154600160a060020a031681565b600160a060020a031660009081526007602052604090205490565b6000611441612aea565b151561144c57600080fd5b81600160a060020a038116151561146257600080fd5b60048054600160a060020a03858116600160a060020a03198316179283905560405191811694507f04563f0d44edd645440800b242cac22e503be4cd1ef70d9f4bf72591b3916d5392610b369286929190911690615040565b6000806114c88484612afb565b600160a060020a038516600090815260056020819052604090912001805491925090829081106114f457fe5b906000526020600020015491505b5092915050565b600160a060020a03166000908152600560205260409020600a015490565b600254600160a060020a031681565b600160a060020a031660009081526005602052604090206009015460ff1690565b61155f6136f2565b600880548390811061156d57fe5b60009182526020918290206040805160c081018252601590930290910180548352600180820154600160a060020a031694840194909452815160a081018352600282018054949592949386019391929091839160ff909116908111156115cf57fe5b60018111156115da57fe5b8152600182015460208083019190915260408051608080820183526002860154600160a060020a039081168385019081526003880154606080860191909152908452845180860186526004890154909216825260058801548287015283860191909152838601929092526006860154828601528251808401845260078701548152600890960154868501529384019490945293855283519182018452600b86015482850190815284518085018652600c8801548152600d88015481840152600e88015460ff908116828801528486019190915290835284518086018652600f88015481528551808601875260108901548152601189015481850152601289015490921682870152808301919091528282015284015260138401549183019190915260149092015491015292915050565b600160a060020a031660009081526005602052604090205490565b61173133848484612bcb565b7f96b5a429b363cdf5d57b3010cdb934530acce9a2ba1ea18d7f13ae862a30cbea33848484604051610b369493929190614ff6565b6000611770612aea565b151561177b57600080fd5b81600160a060020a038116151561179157600080fd5b6002548390600160a060020a039081169082168114610f405760028054600160a060020a03878116600160a060020a0319831617909255604051911694507f6b81929a162238bb990384b771e24fd599c4ca9ddd6efb0444fdc2a10756b8f0906117fe9086908890615040565b60405180910390a15050505050565b600454600160a060020a0316331461182457600080fd5b600160a060020a0382166000908152600560205260409020600901805482919060ff1916600183600381111561105857fe5b61185e611274565b600160a060020a0316331461187257600080fd5b61187a611274565b600160a060020a0316ff5b600260009054906101000a9004600160a060020a0316600160a060020a031663f71e860f6040518163ffffffff1660e060020a028152600401602060405180830381600087803b1580156118d857600080fd5b505af11580156118ec573d6000803e3d6000fd5b505050506040513d601f19601f820116820180604052506119109190810190614745565b151561191b57600080fd5b6004805460405160e060020a63726eec89028152600160a060020a039091169163726eec8991610f12918591339101615110565b600454600160a060020a0316331461196657600080fd5b61197181600a6131e0565b50565b60085490565b600454600160a060020a0316331461199157600080fd5b611971816009613312565b6119a4612aea565b15156119af57600080fd5b6119bb84848484612bcb565b7f4a96e7b40bace43fec03c12703d02a85ea246da47255df319b0c4b1de379281133858585856040516119f2959493929190614f45565b60405180910390a150505050565b600160a060020a039081166000908152600560205260409020600b01541690565b60095490565b600454600160a060020a03163314611a3e57600080fd5b600880546001818101808455600093909352835160159092027ff3f7a9fe364faab93b216da50a3214154f22a0a2b415b23a84c8169e8b636ee3810192835560208501517ff3f7a9fe364faab93b216da50a3214154f22a0a2b415b23a84c8169e8b636ee482018054600160a060020a03909216600160a060020a0319909216919091179055604085015180517ff3f7a9fe364faab93b216da50a3214154f22a0a2b415b23a84c8169e8b636ee5909201805487959492939192839160ff1916908381811115611b0a57fe5b0217905550602082810151600183015560408084015180518051600286018054600160a060020a0319908116600160a060020a0393841617909155918501516003870155918401518051600487018054909316931692909217905582015160058401556060808501516006850155608094850151805160078601558301516008909401939093559185015180518051600b8701558201518051600c87015580830151600d870155830151600e8601805460ff1990811660ff93841617909155918301518051600f8801558301518051601088015592830151601187015591909201516012850180549093169116179055820151601382015560a0909101516014909101555050565b600160a060020a031660009081526005602052604090206008015490565b600160a060020a031660009081526005602052604090206003015460ff1690565b600080611c5e8484612afb565b600160a060020a0385166000908152600560205260409020600601805491925090829081106114f457fe5b600160a060020a031660009081526005602052604090206004015490565b6009805482908110611cb557fe5b60009182526020918290206033909102018054600180830154604080516080810182526002860154600160a060020a039081168284019081526003880154606080850191909152908352835180850185526004890154831681526005890154818b0152838a01526006880154845160e08101865260078a018054825260088b01549094169a81019a909a526009890154948a0194909452600a8801549699509397919692959294919390929084019160ff90911690811115611d7357fe5b6001811115611d7e57fe5b81526040805160608181018352600485015482528251808401845260058601548152600686015460208281019190915283810191909152835180850185526007870154815260088701548183015283850152808501929092528251608080820185526009870154828601908152600a88015483850152825284518086018652600b8801548152600c88015481860152828501528486019190915283519081018452600d8601805482860190815285518087018752600e890154600160a060020a03168152600f89015481870152838501528252601087018054865181870281018701909752808752939096019591949093858101939192919060009084015b82821015611edb57600084815260209081902060408051808201825260038602909201805483528151808301909252600180820154600160a060020a0316835260029091015482850152828401919091529083529092019101611e7d565b505050915250509052506040805160e08101825260188401805482526019850154600160a060020a03166020830152601a85015492820192909252601b840154929392909190606083019060ff166001811115611f3457fe5b6001811115611f3f57fe5b81526040805160608181018352600485015482528251808401845260058601548152600686015460208281019190915283810191909152835180850185526007870154815260088701548183015283850152808501929092528251608080820185526009870154828601908152600a88015483850152825284518086018652600b8801548152600c88015481860152828501528486019190915283519081018452600d8601805482860190815285518087018752600e890154600160a060020a03168152600f89015481870152838501528252601087018054865181870281018701909752808752939096019591949093858101939192919060009084015b8282101561209c57600084815260209081902060408051808201825260038602909201805483528151808301909252600180820154600160a060020a031683526002909101548285015282840191909152908352909201910161203e565b50505091525050905250604080516080810182526029840154818301908152602a85015460608084019190915290825282518084018452602b8601548152602c8601546020828101919091528084019190915283518085018552602d870154815284519283018552602e8701548352602f87015483830152603087015460ff16948301949094528301526031840154603290940154929390928a565b600454600160a060020a031681565b600454600160a060020a0316331461215e57600080fd5b600160a060020a039091166000908152600560205260409020600a0155565b600160a060020a031660009081526005602052604090206002015490565b600160a060020a031660009081526005602052604090206001015490565b600054600160a060020a031681565b60006121d2612aea565b15156121dd57600080fd5b81600160a060020a03811615156121f357600080fd5b600160a060020a03811630141561220957600080fd5b600054600160a060020a03848116911614610b3f5760008054600160a060020a03858116600160a060020a0319831617909255604051911692507fb52724aafc8bad3645fa843e328aaaa28d0bd8ed399cd62843de657b0caf75c790610b369084908690614eee565b600160a060020a038116600090815260056020526040812054811080156122b35750600160a060020a03821660009081526005602052604090206002015442105b156122c057506000610e43565b506001610e43565b60088054829081106122d657fe5b6000918252602090912060159091020180546001808301546040805160a08101909152600285018054949650600160a060020a0390921694939092839160ff169081111561232057fe5b600181111561232b57fe5b8152600182015460208083019190915260408051608080820183526002860154600160a060020a039081168385019081526003880154606080860191909152908452845180860186526004890154909216825260058801548287015283860191909152838601929092526006860154828601528251808401845260078701548152600890960154868501529384019490945280519283018152600b86015483820190815281518086018352600c8801548152600d88015481850152600e88015460ff908116828501528587019190915290845281518083018352600f880154815282519586018352601088015486526011880154868501526012880154909116918501919091528082019390935281019190915260138301546014909301549192909186565b600061245b612aea565b151561246657600080fd5b81600160a060020a038116151561247c57600080fd5b6003548390600160a060020a039081169082168114610f405760038054600160a060020a03878116600160a060020a0319831617909255604051911694507f365b4d2117252a14b5db6a7e816ea961da4692b5690490d22d29c4f65346f600906117fe9086908890615040565b60066020528160005260406000208181548110151561250457fe5b60009182526020918290206033909102018054600180830154604080516080810182526002860154600160a060020a039081168284019081526003880154606080850191909152908352835180850185526004890154831681526005890154818b0152838a01526006880154845160e08101865260078a018054825260088b01549094169a81019a909a526009890154948a0194909452600a880154969a5093985090969195949193909284019160ff1690811115611d7357fe5b600154600160a060020a0316331490565b600354600090600160a060020a031615156125ea57600080fd5b600254600160a060020a0316151561260157600080fd5b60035460405160e060020a6333dab6bd0281528491600160a060020a0316906333dab6bd906126349084906004016150ff565b602060405180830381600087803b15801561264e57600080fd5b505af1158015612662573d6000803e3d6000fd5b505050506040513d601f19601f820116820180604052506126869190810190614745565b151561269157600080fd5b60405160e060020a636b84d93102815273__SafeMathIntLib________________________90636b84d931906126cb908690600401615085565b60206040518083038186803b1580156126e357600080fd5b505af41580156126f7573d6000803e3d6000fd5b505050506040513d601f19601f8201168201806040525061271b9190810190614745565b151561272657600080fd5b60035460405160e160020a6358ac3dd7028152600160a060020a039091169063b1587bae9061275b9087908990600401615110565b602060405180830381600087803b15801561277557600080fd5b505af1158015612789573d6000803e3d6000fd5b505050506040513d601f19601f820116820180604052506127ad9190810190614745565b15156127b857600080fd5b6127c185612272565b60018111156127cc57fe5b6001146127d857600080fd5b60035460405160e060020a63cc0e89cb028152600160a060020a039091169063cc0e89cb9061280d9087908990600401615110565b602060405180830381600087803b15801561282757600080fd5b505af115801561283b573d6000803e3d6000fd5b505050506040513d601f19601f8201168201806040525061285f9190810190614745565b612872576080840151604001515161287d565b606084015160400151515b91508282121561288c57600080fd5b600160a060020a03851660009081526007602052604090206128af9085906131e0565b8351600160a060020a03808716600090815260056020908152604080832094855560e0890151600190950194909455600254845160e060020a63fbdfd8e7028152945161296395919094169363fbdfd8e793600480840194938390030190829087803b15801561291e57600080fd5b505af1158015612932573d6000803e3d6000fd5b505050506040513d601f19601f8201168201806040525061295691908101906148e0565b429063ffffffff61345216565b600160a060020a0386166000908152600560205260408120600281019290925560038201805460ff19166001179055906129a09060040182613733565b50600160a060020a038581166000818152600560208181526040808420908a01516004820180546001808201835591875284872083516002909202018054600160a060020a03191691909916178855920151959091019490945591815291612a0991018261375f565b50600160a060020a0385166000818152600560208181526040832091820180546001810182559084529083200186905591815290612a4a906006018261375f565b50600160a060020a0385166000908152600560205260409020600601612a76838563ffffffff61346816565b8154600180820184556000938452602080852090920192909255600160a060020a03881683526005815260408084206007908101805460ff19168517905590915290912054612ac4916134a4565b600160a060020a0390951660009081526005602052604090206008019490945550505050565b600054600160a060020a0316331490565b6000805b600160a060020a03841660009081526005602052604090206004015481101561026e578251600160a060020a038581166000908152600560205260409020600401805491909216919083908110612b5257fe5b6000918252602090912060029091020154600160a060020a0316148015612bb65750602080840151600160a060020a038616600090815260059092526040909120600401805483908110612ba257fe5b906000526020600020906002020160010154145b15612bc357809150611502565b600101612aff565b6003546000908190600160a060020a03161515612be757600080fd5b600254600160a060020a03161515612bfe57600080fd5b60035460405160e160020a6324d40aef0281528691600160a060020a0316906349a815de90612c31908490600401615130565b602060405180830381600087803b158015612c4b57600080fd5b505af1158015612c5f573d6000803e3d6000fd5b505050506040513d601f19601f82011682018060405250612c839190810190614745565b1515612c8e57600080fd5b60405160e060020a636b84d93102815273__SafeMathIntLib________________________90636b84d93190612cc8908890600401615085565b60206040518083038186803b158015612ce057600080fd5b505af4158015612cf4573d6000803e3d6000fd5b505050506040513d601f19601f82011682018060405250612d189190810190614745565b1515612d2357600080fd5b60405160e060020a636b84d93102815273__SafeMathIntLib________________________90636b84d93190612d5d908790600401615085565b60206040518083038186803b158015612d7557600080fd5b505af4158015612d89573d6000803e3d6000fd5b505050506040513d601f19601f82011682018060405250612dad9190810190614745565b1515612db857600080fd5b60035460405160e060020a63a06d2eb7028152600160a060020a039091169063a06d2eb790612ded9089908b90600401615141565b602060405180830381600087803b158015612e0757600080fd5b505af1158015612e1b573d6000803e3d6000fd5b505050506040513d601f19601f82011682018060405250612e3f9190810190614745565b1515612e4a57600080fd5b612e5387612272565b6001811115612e5e57fe5b600114612e6a57600080fd5b60035460405160e160020a63442bc8d1028152600160a060020a039091169063885791a290612e9f9089908b90600401615141565b602060405180830381600087803b158015612eb957600080fd5b505af1158015612ecd573d6000803e3d6000fd5b505050506040513d601f19601f82011682018060405250612ef19190810190614745565b612f0c5760a080870151015180515160209091015151612f20565b608086015160a00151805151602090910151515b909350915084831215612f3257600080fd5b83821215612f3f57600080fd5b600160a060020a0387166000908152600660205260409020612f62908790613312565b8551600160a060020a0380891660009081526005602090815260408083209485556101008b0151600190950194909455600254845160e060020a63fbdfd8e70281529451612fd295919094169363fbdfd8e793600480840194938390030190829087803b15801561291e57600080fd5b600160a060020a0388166000908152600560205260408120600281019290925560038201805460ff191660011790559061300f9060040182613733565b50600160a060020a038088166000818152600560208181526040808420908c01805151600483018054600181810183558289528689208451600293840282018054918e16600160a060020a031992831617815595890151958301959095558a8a52945187015183548083018555938a52805193909202909401805492909a1691909216178855909201519590910194909455918152916130b091018261375f565b50600160a060020a038716600081815260056020818152604083209182018054600181810183558286529285209081018b905581549283019091550187905591815290613100906006018261375f565b50600160a060020a038716600090815260056020526040902060060161312c848763ffffffff61346816565b81546001810183556000928352602080842090910191909155600160a060020a0389168252600590526040902060060161316c838663ffffffff61346816565b8154600180820184556000938452602080852090920192909255600160a060020a038a168352600581526040808420600701805460ff191690556006909152909120546131b8916134a4565b600160a060020a03909716600090815260056020526040902060080196909655505050505050565b80546000906001016131f28382613783565b5081548290600019810190811061320557fe5b60009182526020918290208551601d929092020190815584820151600182015560408501518051600283018054600160a060020a031916600160a060020a03909216919091179055909101516003820155606084015190915061326c9060048301906134b0565b61327d81600c018460800151613505565b60a083015180516011830155602090810151601283015560c08401518051805160138501558201518051601485015580830151601585015560409081015160168501805460ff92831660ff1991821617909155928401518051601787015584015180516018870155938401516019860155920151601a8401805491909316911617905560e090920151601b9092019190915550565b805460009060010161332483826137af565b5081548290600019810190811061333757fe5b6000918252602091829020855160339290920201908155848201516001820155604085015180518051600284018054600160a060020a0319908116600160a060020a039384161790915591850151600385015591840151805160048501805490931693169290921790559091015160058201556060840151600682015560808401519091506133ca906007830190613557565b6133db816018018460a00151613557565b60c0830151805180516029840155602090810151602a840155908101518051602b840155810151602c83015560e08401518051602d8401558101518051602e84015590810151602f8301556040015160308201805460ff191660ff9092169190911790556101009092015160319092019190915550565b60008282018381101561346157fe5b9392505050565b600080821215801561347c57508282840313155b806134935750600082128015613493575082828403135b151561349e57600080fd5b50900390565b60008282111561349e57fe5b80518255602080820151600184018054600160a060020a031916600160a060020a0390921691909117905560408201518051600285015501516003830155606081015161350190600484019061361d565b5050565b80518255602080820151600184018054600160a060020a031916600160a060020a0390921691909117905560408201518051600285015501516003830155606081015151613501906004840190613661565b80518255602081015160018084018054600160a060020a031916600160a060020a03909316929092179091556040820151600284015560608201516003840180549192909160ff19169083818111156135ac57fe5b021790555060808101518051600484015560208082015180516005860155810151600685015560409091015180516007850155810151600884015560a0820151805180516009860155820151600a8501558101518051600b8501550151600c83015560c081015161350190600d8401905b8051805183556020908101518051600185018054600160a060020a031916600160a060020a0390921691909117905581015160028401558101516135019060038401905b60005b8151811015610b3f5782828281518110151561367c57fe5b60209081029190910181015182546001808201855560009485529383902082516003909202019081559082015180518285018054600160a060020a031916600160a060020a039092169190911790559091015160029091015501613664565b604080518082019091526000808252602082015290565b604080516102a081018252600080825260208201529081016137126137db565b815260200161371f613814565b815260200160008152602001600081525090565b815481835581811115610b3f57600202816002028360005260206000209182019101610b3f9190613836565b815481835581811115610b3f57600083815260209020610b3f918101908301613865565b815481835581811115610b3f57601d0281601d028360005260206000209182019101610b3f919061387f565b815481835581811115610b3f57603302816033028360005260206000209182019101610b3f91906139ad565b6040805161012081018252600080825260208201529081016137fb613b84565b81526020016000815260200161380f6136db565b905290565b61010060405190810160405280613829613ba5565b815260200161380f613ba5565b61126291905b80821115613861578054600160a060020a03191681556000600182015560020161383c565b5090565b61126291905b80821115613861576000815560010161386b565b61126291905b8082111561386157600080825560018201819055600282018054600160a060020a0319908116909155600383018290556004830182815560058401805483169055600684018390556007840183905560088401838155600985018054909316909255600a8401839055908290816138ff600b870182613bc0565b50506000600c8501818155600d86018054600160a060020a0319169055600e8601829055600f860182905592509050601084018161393d8282613bc0565b50506000601185018190556012850181905560138501819055601485018190556015850181905560168501805460ff19908116909155601786018290556018860182905560198601829055601a860180549091169055601b8501819055601c8501555050601d9091019050613885565b61126291905b8082111561386157600080825560018201819055600282018054600160a060020a031990811690915560038301829055600483018054821690556005830182905560068301829055600783018281556008840180548316905560098401839055600a8401805460ff19169055600b8401839055600c8401839055600d8401839055600e8401839055600f840183905560108401839055601184018390556012840183905560138401839055601484018381556015850180549093169092556016840183905590829081613a896017870182613bc0565b5050600060188501818155601986018054600160a060020a0319908116909155601a8701839055601b8701805460ff19169055601c8701839055601d8701839055601e8701839055601f87018390556020870183905560218701839055602287018390556023870183905560248701839055602587018381556026880180549092169091556027870183905590935090915081613b296028870182613bc0565b5050600060298501819055602a8501819055602b8501819055602c8501819055602d8501819055602e8501819055602f850181905560308501805460ff191690556031850181905560328501555050603390910190506139b3565b608060405190810160405280613b986136db565b815260200161380f6136db565b6040805160808101909152600081526020810161380f613be1565b50805460008255600302906000526020600020908101906119719190613c01565b604080516060810182526000808252602082018190529181019190915290565b61126291905b80821115613861576000808255600182018054600160a060020a03191690556002820155600301613c07565b600061346182356153b4565b6000601f82018313613c5057600080fd5b8135613c63613c5e8261538a565b615364565b91508181835260208401935060208101905083856060840282011115613c8857600080fd5b60005b83811015613cb65781613c9e8882613d79565b84525060209092019160609190910190600101613c8b565b5050505092915050565b600061346182516153ea565b60006134618235611262565b600061346182356153ef565b600061346182356153fa565b60006134618235615409565b60006134618235615418565b600060408284031215613d1a57600080fd5b613d246040615364565b90506000613d328484613c33565b8252506020613d4384848301613ccc565b60208301525092915050565b600060408284031215613d6157600080fd5b613d6b6040615364565b90506000613d328484613ccc565b600060608284031215613d8b57600080fd5b613d956040615364565b90506000613da38484613ccc565b8252506020613d4384848301613d08565b600060808284031215613dc657600080fd5b613dd06040615364565b90506000613dde8484613d08565b8252506040613d4384848301613d08565b600060808284031215613e0157600080fd5b613e0b6040615364565b90506000613e198484613d4f565b8252506040613d4384848301613d4f565b60006101208284031215613e3d57600080fd5b613e4760a0615364565b90506000613e558484613cf0565b8252506020613e6684848301613ccc565b6020830152506040613e7a84828501613db4565b60408301525060c0613e8e84828501613ccc565b60608301525060e0613ea284828501613d4f565b60808301525092915050565b60006102a08284031215613ec157600080fd5b613ecb60c0615364565b90506000613ed98484613ccc565b8252506020613eea84848301613c33565b6020830152506040613efe84828501613e2a565b604083015250610160613f13848285016144ae565b606083015250610260613f2884828501613ccc565b608083015250610280613f3d84828501613ccc565b60a08301525092915050565b600060a08284031215613f5b57600080fd5b613f656080615364565b90506000613f738484613ccc565b8252506020613f8484848301613c33565b6020830152506040613f9884828501613d4f565b60408301525060808201356001604060020a03811115613fb757600080fd5b613fc384828501614233565b60608301525092915050565b600060a08284031215613fe157600080fd5b613feb6080615364565b90506000613ff98484613ccc565b825250602061400a84848301613c33565b602083015250604061401e84828501613d4f565b60408301525060808201356001604060020a0381111561403d57600080fd5b613fc3848285016141e1565b6000610240828403121561405c57600080fd5b614067610120615364565b905060006140758484613ccc565b825250602061408684848301613ccc565b602083015250604061409a84828501613d08565b60408301525060808201356001604060020a038111156140b957600080fd5b6140c584828501613fcf565b60608301525060a08201356001604060020a038111156140e457600080fd5b6140f084828501613f49565b60808301525060c061410484828501613d4f565b60a083015250610100614119848285016144ae565b60c08301525061020061412e84828501613ccc565b60e08301525061022061414384828501613ccc565b6101008301525092915050565b60006080828403121561416257600080fd5b61416c6040615364565b9050600061417a8484613ccc565b8252506020613d438484830160006060828403121561419857600080fd5b6141a26060615364565b905060006141b08484613ccc565b82525060206141c184848301613ccc565b60208301525060406141d5848285016144f6565b60408301525092915050565b6000608082840312156141f357600080fd5b6141fd6040615364565b9050600061420b8484613d79565b82525060608201356001604060020a0381111561422757600080fd5b613d4384828501613c3f565b60006020828403121561424557600080fd5b61424f6020615364565b905081356001604060020a0381111561426757600080fd5b61427384828501613c3f565b82525092915050565b600060a0828403121561428e57600080fd5b6142986060615364565b905060006142a68484613ccc565b82525060206142b784848301613d4f565b60208301525060606141d584828501613d4f565b60006101c082840312156142de57600080fd5b6142e860e0615364565b905060006142f68484613ccc565b825250602061430784848301613c33565b602083015250604061431b84828501613ccc565b604083015250606061432f84828501613cf0565b60608301525060806143438482850161427c565b60808301525061012061435884828501613def565b60a0830152506101a08201356001604060020a0381111561437857600080fd5b614384848285016141e1565b60c08301525092915050565b600061026082840312156143a357600080fd5b6143ae610140615364565b905060006143bc8484613ccc565b82525060206143cd84848301613ccc565b60208301525060406143e184828501613db4565b60408301525060c06143f584828501613ccc565b60608301525060e08201356001604060020a0381111561441457600080fd5b614420848285016142cb565b6080830152506101008201356001604060020a0381111561444057600080fd5b61444c848285016142cb565b60a08301525061012061446184828501613def565b60c0830152506101a061447684828501614150565b60e08301525061022061448b84828501613ccc565b610100830152506102406144a184828501613ccc565b6101208301525092915050565b600061010082840312156144c157600080fd5b6144cb6040615364565b905060006144d98484614150565b8252506080613d4384848301614150565b60006134618251611262565b600061346182356153e4565b60006020828403121561451457600080fd5b60006145208484613c33565b949350505050565b6000806040838503121561453b57600080fd5b60006145478585613c33565b925050602061455885828601613c33565b9150509250929050565b6000806040838503121561457557600080fd5b60006145818585613c33565b925050602061455885828601613ce4565b600080604083850312156145a557600080fd5b60006145b18585613c33565b925050602061455885828601613cfc565b600080606083850312156145d557600080fd5b60006145e18585613c33565b925050602061455885828601613d08565b60008060006060848603121561460757600080fd5b60006146138686613c33565b93505060208401356001604060020a0381111561462f57600080fd5b61463b86828701614049565b925050604061464c86828701613ccc565b9150509250925092565b6000806040838503121561466957600080fd5b60006146758585613c33565b92505060208301356001604060020a0381111561469157600080fd5b61455885828601614390565b600080600080608085870312156146b357600080fd5b60006146bf8787613c33565b94505060208501356001604060020a038111156146db57600080fd5b6146e787828801614390565b93505060406146f887828801613ccc565b925050606061470987828801613ccc565b91505092959194509250565b6000806040838503121561472857600080fd5b60006147348585613c33565b925050602061455885828601613ccc565b60006020828403121561475757600080fd5b60006145208484613cc0565b60006020828403121561477557600080fd5b60006145208484613cd8565b60006102a0828403121561479457600080fd5b60006145208484613eae565b6000806102c083850312156147b457600080fd5b60006147c08585613eae565b9250506102a08301356001604060020a0381111561469157600080fd5b6000602082840312156147ef57600080fd5b81356001604060020a0381111561480557600080fd5b61452084828501614049565b6000806040838503121561482457600080fd5b82356001604060020a0381111561483a57600080fd5b61473485828601614049565b60006020828403121561485857600080fd5b81356001604060020a0381111561486e57600080fd5b61452084828501614390565b60008060006060848603121561488f57600080fd5b83356001604060020a038111156148a557600080fd5b6148b186828701614390565b935050602061463b86828701613ccc565b6000602082840312156148d457600080fd5b60006145208484613ccc565b6000602082840312156148f257600080fd5b600061452084846144ea565b614907816153b4565b82525050565b6000614918826153b0565b80845260208401935061492a836153aa565b60005b8281101561495a576149408683516149cc565b614949826153aa565b60609690960195915060010161492d565b5093949350505050565b61490781611262565b614907816153ef565b61490781615427565b61490781615432565b6149078161543d565b805160408301906149a284826148fe565b5060208201516149b56020850182614964565b50505050565b805160408301906149a28482614964565b805160608301906149dd8482614964565b5060208201516149b56020850182614991565b80516080830190614a018482614991565b5060208201516149b56040850182614991565b80516080830190614a2584826149bb565b5060208201516149b560408501826149bb565b8051610120830190614a4a848261497f565b506020820151614a5d6020850182614964565b506040820151614a7060408501826149f0565b506060820151614a8360c0850182614964565b5060808201516149b560e08501826149bb565b80516102a0830190614aa88482614964565b506020820151614abb60208501826148fe565b506040820151614ace6040850182614a38565b506060820151614ae2610160850182614eb2565b506080820151614af6610260850182614964565b5060a08201516149b5610280850182614964565b805160009060a0840190614b1e8582614964565b506020830151614b3160208601826148fe565b506040830151614b4460408601826149bb565b5060608301518482036080860152614b5c8282614d00565b95945050505050565b805160009060a0840190614b798582614964565b506020830151614b8c60208601826148fe565b506040830151614b9f60408601826149bb565b5060608301518482036080860152614b5c8282614cd4565b8051600090610240840190614bcc8582614964565b506020830151614bdf6020860182614964565b506040830151614bf26040860182614991565b5060608301518482036080860152614c0a8282614b65565b915050608083015184820360a0860152614c248282614b0a565b91505060a0830151614c3960c08601826149bb565b5060c0830151614c4d610100860182614eb2565b5060e0830151614c61610200860182614964565b50610100830151614c76610220860182614964565b509392505050565b80516080830190614c8f8482614964565b5060208201516149b5602085018280516060830190614cae8482614964565b506020820151614cc16020850182614964565b5060408201516149b56040850182614ed7565b80516000906080840190614ce885826149cc565b5060208301518482036060860152614b5c828261490d565b8051602080845260009190840190614b5c828261490d565b805160a0830190614d298482614964565b506020820151614d3c60208501826149bb565b5060408201516149b560608501826149bb565b80516000906101c0840190614d648582614964565b506020830151614d7760208601826148fe565b506040830151614d8a6040860182614964565b506060830151614d9d606086018261497f565b506080830151614db06080860182614d18565b5060a0830151614dc4610120860182614a14565b5060c08301518482036101a0860152614b5c8282614cd4565b8051600090610260840190614df28582614964565b506020830151614e056020860182614964565b506040830151614e1860408601826149f0565b506060830151614e2b60c0860182614964565b50608083015184820360e0860152614e438282614d4f565b91505060a0830151848203610100860152614e5e8282614d4f565b91505060c0830151614e74610120860182614a14565b5060e0830151614e886101a0860182614c7e565b50610100830151614e9d610220860182614964565b50610120830151614c76610240860182614964565b8051610100830190614ec48482614c7e565b5060208201516149b56080850182614c7e565b614907816153e4565b60208101610fd382846148fe565b60408101614efc82856148fe565b61346160208301846148fe565b60808101614f1782876148fe565b614f2460208301866148fe565b8181036040830152614f368185614bb7565b9050614b5c6060830184614964565b60a08101614f5382886148fe565b614f6060208301876148fe565b8181036040830152614f728186614ddd565b9050614f816060830185614964565b614f8e6080830184614964565b9695505050505050565b60608101614fa682866148fe565b8181036020830152614fb88185614bb7565b90506145206040830184614964565b60608101614fd582866148fe565b8181036020830152614fe78185614ddd565b905061452060408301846148fe565b6080810161500482876148fe565b81810360208301526150168186614ddd565b90506150256040830185614964565b614b5c6060830184614964565b60208101610fd3828461496d565b6040810161504e828561496d565b613461602083018461496d565b60208101610fd38284614976565b60208101610fd3828461497f565b60208101610fd38284614988565b60208101610fd38284614964565b60408101610fd38284614991565b6102a08101610fd38284614a96565b6102c081016150bf8285614a96565b6134616102a08301846148fe565b6102e081016150dc8286614a96565b8181036102a08301526150ef8185614ddd565b90506145206102c08301846148fe565b602080825281016134618184614bb7565b604080825281016151218185614bb7565b905061346160208301846148fe565b602080825281016134618184614ddd565b604080825281016151218185614ddd565b6102a081016151618289614964565b61516e60208301886148fe565b61517b6040830187614a38565b615189610160830186614eb2565b615197610260830185614964565b6151a5610280830184614964565b979650505050505050565b61024081016151bf828c614964565b6151cc602083018b614964565b6151d9604083018a614991565b81810360808301526151eb8189614b65565b905081810360a08301526151ff8188614b0a565b905061520e60c08301876149bb565b61521c610100830186614eb2565b61522a610200830185614964565b615238610220830184614964565b9a9950505050505050505050565b6102608101615255828d614964565b615262602083018c614964565b61526f604083018b6149f0565b61527c60c083018a614964565b81810360e083015261528e8189614d4f565b90508181036101008301526152a38188614d4f565b90506152b3610120830187614a14565b6152c16101a0830186614c7e565b6152cf610220830185614964565b6152dd610240830184614964565b9b9a5050505050505050505050565b61012081016152fb828c614964565b615308602083018b614964565b615315604083018a614964565b6153226060830189614988565b61532f608083018861497f565b61533c60a0830187614964565b61534960c0830186614976565b61535660e0830185614964565b6152386101008301846148fe565b6040518181016001604060020a038111828210171561538257600080fd5b604052919050565b60006001604060020a038211156153a057600080fd5b5060209081020190565b60200190565b5190565b600160a060020a031690565b60006004821061386157fe5b60006002821061386157fe5b60006003821061386157fe5b60ff1690565b151590565b6000610fd3826153b4565b60006004821061386157600080fd5b60006002821061386157600080fd5b60006003821061386157600080fd5b6000610fd3826153c0565b6000610fd3826153cc565b6000610fd3826153d85600a265627a7a72305820e4746915d86319c933cbbbf76a4033db83490311a745c740c307d338c10926cc6c6578706572696d656e74616cf50037",
  "source": "/*\n * Hubii Nahmii\n *\n * Compliant with the Hubii Nahmii specification v0.12.\n *\n * Copyright (C) 2017-2018 Hubii AS\n */\n\npragma solidity ^0.4.24;\npragma experimental ABIEncoderV2;\n\nimport {Ownable} from \"./Ownable.sol\";\nimport {Challenge} from \"./Challenge.sol\";\nimport {DriipStorable} from \"./DriipStorable.sol\";\nimport {Validatable} from \"./Validatable.sol\";\nimport {SafeMathIntLib} from \"./SafeMathIntLib.sol\";\nimport {SafeMathUintLib} from \"./SafeMathUintLib.sol\";\nimport {DriipSettlementDispute} from \"./DriipSettlementDispute.sol\";\nimport {MonetaryTypesLib} from \"./MonetaryTypesLib.sol\";\nimport {NahmiiTypesLib} from \"./NahmiiTypesLib.sol\";\nimport {SettlementTypesLib} from \"./SettlementTypesLib.sol\";\n\n/**\n@title DriipSettlementChallenge\n@notice Where driip settlements are started and challenged\n*/\ncontract DriipSettlementChallenge is Ownable, Challenge, DriipStorable, Validatable {\n    using SafeMathIntLib for int256;\n    using SafeMathUintLib for uint256;\n\n    //\n    // Variables\n    // -----------------------------------------------------------------------------------------------------------------\n    DriipSettlementDispute public driipSettlementDispute;\n\n    mapping(address => SettlementTypesLib.Proposal) public walletProposalMap;\n\n    mapping(address => NahmiiTypesLib.Trade[]) public walletChallengedTradesMap;\n    mapping(address => NahmiiTypesLib.Payment[]) public walletChallengedPaymentsMap;\n\n    NahmiiTypesLib.Order[] public challengeCandidateOrders;\n    NahmiiTypesLib.Trade[] public challengeCandidateTrades;\n    NahmiiTypesLib.Payment[] public challengeCandidatePayments;\n\n    //\n    // Events\n    // -----------------------------------------------------------------------------------------------------------------\n    event ChangeDriipSettlementDisputeEvent(DriipSettlementDispute oldDriipSettlementDispute,\n        DriipSettlementDispute newDriipSettlementDispute);\n    event StartChallengeFromTradeEvent(address wallet, NahmiiTypesLib.Trade trade, int256 intendedStageAmount,\n        int256 conjugateStageAmount);\n    event StartChallengeFromTradeByProxyEvent(address proxy, address wallet, NahmiiTypesLib.Trade trade,\n        int256 intendedStageAmount, int256 conjugateStageAmount);\n    event StartChallengeFromPaymentEvent(address wallet, NahmiiTypesLib.Payment payment,\n        int256 stageAmount);\n    event StartChallengeFromPaymentByProxyEvent(address proxy, address wallet, NahmiiTypesLib.Payment payment,\n        int256 stageAmount);\n\n    //\n    // Constructor\n    // -----------------------------------------------------------------------------------------------------------------\n    constructor(address owner) Ownable(owner) public {\n    }\n\n    //\n    // Functions\n    // -----------------------------------------------------------------------------------------------------------------\n    /// @notice Change the settlement dispute contract\n    /// @param newDriipSettlementDispute The (address of) DriipSettlementDispute contract instance\n    function changeDriipSettlementDispute(DriipSettlementDispute newDriipSettlementDispute)\n    public\n    onlyDeployer\n    notNullAddress(newDriipSettlementDispute)\n    {\n        DriipSettlementDispute oldDriipSettlementDispute = driipSettlementDispute;\n        driipSettlementDispute = newDriipSettlementDispute;\n        emit ChangeDriipSettlementDisputeEvent(oldDriipSettlementDispute, driipSettlementDispute);\n    }\n\n    /// @notice Get the number of current and past settlement challenges from trade for given wallet\n    /// @param wallet The wallet for which to return count\n    /// @return The count of settlement challenges from trade\n    function walletChallengedTradesCount(address wallet)\n    public\n    view\n    returns (uint256)\n    {\n        return walletChallengedTradesMap[wallet].length;\n    }\n\n    /// @notice Get the number of current and past settlement challenges from payment for given wallet\n    /// @param wallet The wallet for which to return count\n    /// @return The count of settlement challenges from payment\n    function walletChallengedPaymentsCount(address wallet)\n    public\n    view\n    returns (uint256)\n    {\n        return walletChallengedPaymentsMap[wallet].length;\n    }\n\n    /// @notice Start settlement challenge on trade\n    /// @param trade The challenged trade\n    /// @param intendedStageAmount Amount of intended currency to be staged\n    /// @param conjugateStageAmount Amount of conjugate currency to be staged\n    function startChallengeFromTrade(NahmiiTypesLib.Trade trade, int256 intendedStageAmount,\n        int256 conjugateStageAmount)\n    public\n    {\n        // Start challenge\n        startChallengeFromTradePrivate(msg.sender, trade, intendedStageAmount, conjugateStageAmount);\n\n        // Emit event\n        emit StartChallengeFromTradeEvent(msg.sender, trade, intendedStageAmount, conjugateStageAmount);\n    }\n\n    /// @notice Start settlement challenge on trade by proxy\n    /// @param wallet The concerned party\n    /// @param trade The challenged trade\n    /// @param intendedStageAmount Amount of intended currency to be staged\n    /// @param conjugateStageAmount Amount of conjugate currency to be staged\n    function startChallengeFromTradeByProxy(address wallet, NahmiiTypesLib.Trade trade, int256 intendedStageAmount,\n        int256 conjugateStageAmount)\n    public\n    onlyDeployer\n    {\n        // Start challenge for wallet\n        startChallengeFromTradePrivate(wallet, trade, intendedStageAmount, conjugateStageAmount);\n\n        // Emit event\n        emit StartChallengeFromTradeByProxyEvent(msg.sender, wallet, trade, intendedStageAmount, conjugateStageAmount);\n    }\n\n    /// @notice Start settlement challenge on payment\n    /// @param payment The challenged payment\n    /// @param stageAmount Amount of payment currency to be staged\n    function startChallengeFromPayment(NahmiiTypesLib.Payment payment, int256 stageAmount)\n    public\n    {\n        // Start challenge for wallet\n        startChallengeFromPaymentPrivate(msg.sender, payment, stageAmount);\n\n        // Emit event\n        emit StartChallengeFromPaymentEvent(msg.sender, payment, stageAmount);\n    }\n\n    /// @notice Start settlement challenge on payment\n    /// @param wallet The concerned party\n    /// @param payment The challenged payment\n    /// @param stageAmount Amount of payment currency to be staged\n    function startChallengeFromPaymentByProxy(address wallet, NahmiiTypesLib.Payment payment, int256 stageAmount)\n    public\n    onlyDeployer\n    {\n        // Start challenge for wallet\n        startChallengeFromPaymentPrivate(wallet, payment, stageAmount);\n\n        // Emit event\n        emit StartChallengeFromPaymentByProxyEvent(msg.sender, wallet, payment, stageAmount);\n    }\n\n    /// @notice Get settlement challenge phase of given wallet\n    /// @param wallet The concerned wallet\n    /// @return The challenge phase and nonce\n    function challengePhase(address wallet)\n    public\n    view\n    returns (NahmiiTypesLib.ChallengePhase)\n    {\n        if (0 < walletProposalMap[wallet].nonce && block.timestamp < walletProposalMap[wallet].timeout)\n            return NahmiiTypesLib.ChallengePhase.Dispute;\n        else\n            return NahmiiTypesLib.ChallengePhase.Closed;\n    }\n\n    /// @notice Get the challenge nonce of the given wallet\n    /// @param wallet The concerned wallet\n    /// @return The challenge nonce\n    function proposalNonce(address wallet)\n    public\n    view\n    returns (uint256)\n    {\n        return walletProposalMap[wallet].nonce;\n    }\n\n    /// @notice Get the settlement proposal block number of the given wallet\n    /// @param wallet The concerned wallet\n    /// @return The settlement proposal block number\n    function proposalBlockNumber(address wallet)\n    public\n    view\n    returns (uint256)\n    {\n        return walletProposalMap[wallet].blockNumber;\n    }\n\n    /// @notice Get the settlement proposal timeout of the given wallet\n    /// @param wallet The concerned wallet\n    /// @return The settlement proposal timeout\n    function proposalTimeout(address wallet)\n    public\n    view\n    returns (uint256)\n    {\n        return walletProposalMap[wallet].timeout;\n    }\n\n    /// @notice Get the challenge status of the given wallet\n    /// @param wallet The concerned wallet\n    /// @return The challenge status\n    function proposalStatus(address wallet)\n    public\n    view\n    returns (SettlementTypesLib.ProposalStatus)\n    {\n        return walletProposalMap[wallet].status;\n    }\n\n    /// @notice Get the settlement proposal currency count of the given wallet\n    /// @param wallet The concerned wallet\n    /// @return The settlement proposal currency count\n    function proposalCurrencyCount(address wallet)\n    public\n    view\n    returns (uint256)\n    {\n        return walletProposalMap[wallet].currencies.length;\n    }\n\n    /// @notice Get the settlement proposal currency of the given wallet at the given index\n    /// @param wallet The concerned wallet\n    /// @param index The index of the concerned currency\n    /// @return The settlement proposal currency\n    function proposalCurrency(address wallet, uint256 index)\n    public\n    view\n    returns (MonetaryTypesLib.Currency)\n    {\n        require(index < walletProposalMap[wallet].currencies.length);\n        return walletProposalMap[wallet].currencies[index];\n    }\n\n    /// @notice Get the settlement proposal stage amount of the given wallet and currency\n    /// @param wallet The concerned wallet\n    /// @param currency The concerned currency\n    /// @return The settlement proposal stage amount\n    function proposalStageAmount(address wallet, MonetaryTypesLib.Currency currency)\n    public\n    view\n    returns (int256)\n    {\n        uint256 index = proposalCurrencyIndex(wallet, currency);\n        return walletProposalMap[wallet].stageAmounts[index];\n    }\n\n    /// @notice Get the settlement proposal target balance amount of the given wallet and currency\n    /// @param wallet The concerned wallet\n    /// @param currency The concerned currency\n    /// @return The settlement proposal target balance amount\n    function proposalTargetBalanceAmount(address wallet, MonetaryTypesLib.Currency currency)\n    public\n    view\n    returns (int256)\n    {\n        uint256 index = proposalCurrencyIndex(wallet, currency);\n        return walletProposalMap[wallet].targetBalanceAmounts[index];\n    }\n\n    /// @notice Get the driip type of the given wallet's settlement proposal\n    /// @param wallet The concerned wallet\n    /// @return The driip type of the settlement proposal\n    function proposalDriipType(address wallet)\n    public\n    view\n    returns (NahmiiTypesLib.DriipType)\n    {\n        return walletProposalMap[wallet].driipType;\n    }\n\n    /// @notice Get the driip index of the given wallet's settlement proposal\n    /// @param wallet The concerned wallet\n    /// @return The driip index of the settlement proposal\n    function proposalDriipIndex(address wallet)\n    public\n    view\n    returns (uint256)\n    {\n        return walletProposalMap[wallet].driipIndex;\n    }\n\n    /// @notice Get the candidate type of the given wallet's settlement proposal\n    /// @param wallet The concerned wallet\n    /// @return The candidate type of the settlement proposal\n    function proposalCandidateType(address wallet)\n    public\n    view\n    returns (SettlementTypesLib.CandidateType)\n    {\n        return walletProposalMap[wallet].candidateType;\n    }\n\n    /// @notice Get the candidate index of the given wallet's settlement proposal\n    /// @param wallet The concerned wallet\n    /// @return The candidate index of the settlement proposal\n    function proposalCandidateIndex(address wallet)\n    public\n    view\n    returns (uint256)\n    {\n        return walletProposalMap[wallet].candidateIndex;\n    }\n\n    /// @notice Get the challenger of the given wallet's settlement proposal\n    /// @param wallet The concerned wallet\n    /// @return The challenger of the settlement proposal\n    function proposalChallenger(address wallet)\n    public\n    view\n    returns (address)\n    {\n        return walletProposalMap[wallet].challenger;\n    }\n\n    /// @notice Set settlement proposal status property of the given wallet\n    /// @dev This function can only be called by this contract's dispute instance\n    /// @param wallet The concerned wallet\n    /// @param timeout The timeout value\n    function setProposalTimeout(address wallet, uint256 timeout)\n    public\n    onlyDriipSettlementDispute\n    {\n        walletProposalMap[wallet].timeout = timeout;\n    }\n\n    /// @notice Set settlement proposal status property of the given wallet\n    /// @dev This function can only be called by this contract's dispute instance\n    /// @param wallet The concerned wallet\n    /// @param status The status value\n    function setProposalStatus(address wallet, SettlementTypesLib.ProposalStatus status)\n    public\n    onlyDriipSettlementDispute\n    {\n        walletProposalMap[wallet].status = status;\n    }\n\n    /// @notice Set settlement proposal candidate type property of the given wallet\n    /// @dev This function can only be called by this contract's dispute instance\n    /// @param wallet The concerned wallet\n    /// @param candidateType The candidate type value\n    function setProposalCandidateType(address wallet, SettlementTypesLib.CandidateType candidateType)\n    public\n    onlyDriipSettlementDispute\n    {\n        walletProposalMap[wallet].candidateType = candidateType;\n    }\n\n    /// @notice Set settlement proposal candidate index property of the given wallet\n    /// @dev This function can only be called by this contract's dispute instance\n    /// @param wallet The concerned wallet\n    /// @param candidateIndex The candidate index value\n    function setProposalCandidateIndex(address wallet, uint256 candidateIndex)\n    public\n    onlyDriipSettlementDispute\n    {\n        walletProposalMap[wallet].candidateIndex = candidateIndex;\n    }\n\n    /// @notice Set settlement proposal challenger property of the given wallet\n    /// @dev This function can only be called by this contract's dispute instance\n    /// @param wallet The concerned wallet\n    /// @param challenger The challenger value\n    function setProposalChallenger(address wallet, address challenger)\n    public\n    onlyDriipSettlementDispute\n    {\n        walletProposalMap[wallet].challenger = challenger;\n    }\n\n    /// @notice Challenge the settlement by providing order candidate\n    /// @param order The order candidate that challenges the challenged driip\n    function challengeByOrder(NahmiiTypesLib.Order order)\n    public\n    onlyOperationalModeNormal\n    {\n        driipSettlementDispute.challengeByOrder(order, msg.sender);\n    }\n\n    /// @notice Unchallenge settlement by providing trade that shows that challenge order candidate has been filled\n    /// @param order The order candidate that challenged driip\n    /// @param trade The trade in which order has been filled\n    function unchallengeOrderCandidateByTrade(NahmiiTypesLib.Order order, NahmiiTypesLib.Trade trade)\n    public\n    onlyOperationalModeNormal\n    {\n        driipSettlementDispute.unchallengeOrderCandidateByTrade(order, trade, msg.sender);\n    }\n\n    /// @notice Challenge the settlement by providing trade candidate\n    /// @param wallet The wallet whose settlement is being challenged\n    /// @param trade The trade candidate that challenges the challenged driip\n    function challengeByTrade(address wallet, NahmiiTypesLib.Trade trade)\n    public\n    onlyOperationalModeNormal\n    {\n        driipSettlementDispute.challengeByTrade(wallet, trade, msg.sender);\n    }\n\n    /// @notice Challenge the settlement by providing payment candidate\n    /// @param payment The payment candidate that challenges the challenged driip\n    function challengeByPayment(NahmiiTypesLib.Payment payment)\n    public\n    onlyOperationalModeNormal\n    {\n        driipSettlementDispute.challengeByPayment(payment, msg.sender);\n    }\n\n    /// @notice Push to store the given challenge candidate order\n    /// @dev This function can only be called by this contract's dispute instance\n    /// @param order The challenge candidate order to push\n    function pushChallengeCandidateOrder(NahmiiTypesLib.Order order)\n    public\n    onlyDriipSettlementDispute\n    {\n        challengeCandidateOrders.push(order);\n    }\n\n    /// @notice Get the count of challenge candidate orders\n    /// @return The count of challenge candidate orders\n    function challengeCandidateOrdersCount()\n    public\n    view\n    returns (uint256)\n    {\n        return challengeCandidateOrders.length;\n    }\n\n    /// @notice Get the challenge candidate order at the given index\n    /// @param index The index of challenge order candidate\n    /// @return The challenge candidate order\n    function challengeCandidateOrder(uint256 index)\n    public\n    view\n    returns (NahmiiTypesLib.Order)\n    {\n        return challengeCandidateOrders[index];\n    }\n\n    /// @notice Get the count of challenge candidate trades\n    /// @return The count of challenge candidate trades\n    function challengeCandidateTradesCount()\n    public\n    view\n    returns (uint256)\n    {\n        return challengeCandidateTrades.length;\n    }\n\n    /// @notice Push to store the given challenge candidate trade\n    /// @dev This function can only be called by this contract's dispute instance\n    /// @param trade The challenge candidate trade to push\n    function pushChallengeCandidateTrade(NahmiiTypesLib.Trade trade)\n    public\n    onlyDriipSettlementDispute\n    {\n        pushMemoryTradeToStorageArray(trade, challengeCandidateTrades);\n    }\n\n    /// @notice Get the count of challenge candidate payments\n    /// @return The count of challenge candidate payments\n    function challengeCandidatePaymentsCount()\n    public\n    view\n    returns (uint256)\n    {\n        return challengeCandidatePayments.length;\n    }\n\n    /// @notice Push to store the given challenge candidate payment\n    /// @dev This function can only be called by this contract's dispute instance\n    /// @param payment The challenge candidate payment to push\n    function pushChallengeCandidatePayment(NahmiiTypesLib.Payment payment)\n    public\n    onlyDriipSettlementDispute\n    {\n        pushMemoryPaymentToStorageArray(payment, challengeCandidatePayments);\n    }\n\n    function startChallengeFromTradePrivate(address wallet, NahmiiTypesLib.Trade trade, int256 intendedStageAmount,\n        int256 conjugateStageAmount)\n    private\n    validatorInitialized\n    configurationInitialized\n    onlySealedTrade(trade)\n    {\n        require(intendedStageAmount.isPositiveInt256());\n        require(conjugateStageAmount.isPositiveInt256());\n\n        require(validator.isTradeParty(trade, wallet));\n\n        // Require that wallet has no overlap with ongoing challenge\n        require(NahmiiTypesLib.ChallengePhase.Closed == challengePhase(wallet));\n\n        (int256 intendedBalanceAmount, int256 conjugateBalanceAmount) =\n        (validator.isTradeBuyer(trade, wallet) ?\n        (trade.buyer.balances.intended.current, trade.buyer.balances.conjugate.current) :\n        (trade.seller.balances.intended.current, trade.seller.balances.conjugate.current));\n\n        require(intendedBalanceAmount >= intendedStageAmount);\n        require(conjugateBalanceAmount >= conjugateStageAmount);\n\n        pushMemoryTradeToStorageArray(trade, walletChallengedTradesMap[wallet]);\n\n        walletProposalMap[wallet].nonce = trade.nonce;\n        walletProposalMap[wallet].blockNumber = trade.blockNumber;\n        walletProposalMap[wallet].timeout = block.timestamp.add(configuration.settlementChallengeTimeout());\n        walletProposalMap[wallet].status = SettlementTypesLib.ProposalStatus.Qualified;\n        walletProposalMap[wallet].currencies.length = 0;\n        walletProposalMap[wallet].currencies.push(trade.currencies.intended);\n        walletProposalMap[wallet].currencies.push(trade.currencies.conjugate);\n        walletProposalMap[wallet].stageAmounts.length = 0;\n        walletProposalMap[wallet].stageAmounts.push(intendedStageAmount);\n        walletProposalMap[wallet].stageAmounts.push(conjugateStageAmount);\n        walletProposalMap[wallet].targetBalanceAmounts.length = 0;\n        walletProposalMap[wallet].targetBalanceAmounts.push(intendedBalanceAmount.sub(intendedStageAmount));\n        walletProposalMap[wallet].targetBalanceAmounts.push(conjugateBalanceAmount.sub(conjugateStageAmount));\n        //        walletProposalMap[wallet].driipOperatorHash = trade.seal.hash;\n        walletProposalMap[wallet].driipType = NahmiiTypesLib.DriipType.Trade;\n        walletProposalMap[wallet].driipIndex = walletChallengedTradesMap[wallet].length.sub(1);\n    }\n\n    function startChallengeFromPaymentPrivate(address wallet, NahmiiTypesLib.Payment payment, int256 stageAmount)\n    private\n    validatorInitialized\n    configurationInitialized\n    onlySealedPayment(payment)\n    {\n        require(stageAmount.isPositiveInt256());\n\n        require(validator.isPaymentParty(payment, wallet));\n\n        // Require that wallet has no overlap with ongoing challenge\n        require(NahmiiTypesLib.ChallengePhase.Closed == challengePhase(wallet));\n\n        int256 balanceAmount = (validator.isPaymentSender(payment, wallet) ?\n        payment.sender.balances.current :\n        payment.recipient.balances.current);\n\n        require(balanceAmount >= stageAmount);\n\n        pushMemoryPaymentToStorageArray(payment, walletChallengedPaymentsMap[wallet]);\n\n        walletProposalMap[wallet].nonce = payment.nonce;\n        walletProposalMap[wallet].blockNumber = payment.blockNumber;\n        walletProposalMap[wallet].timeout = block.timestamp.add(configuration.settlementChallengeTimeout());\n        walletProposalMap[wallet].status = SettlementTypesLib.ProposalStatus.Qualified;\n        walletProposalMap[wallet].currencies.length = 0;\n        walletProposalMap[wallet].currencies.push(payment.currency);\n        walletProposalMap[wallet].stageAmounts.length = 0;\n        walletProposalMap[wallet].stageAmounts.push(stageAmount);\n        walletProposalMap[wallet].targetBalanceAmounts.length = 0;\n        walletProposalMap[wallet].targetBalanceAmounts.push(balanceAmount.sub(stageAmount));\n        //        walletProposalMap[wallet].driipOperatorHash = payment.seals.operator.hash;\n        walletProposalMap[wallet].driipType = NahmiiTypesLib.DriipType.Payment;\n        walletProposalMap[wallet].driipIndex = walletChallengedPaymentsMap[wallet].length.sub(1);\n    }\n\n    function proposalCurrencyIndex(address wallet, MonetaryTypesLib.Currency currency)\n    private\n    view\n    returns (uint256)\n    {\n        for (uint256 i = 0; i < walletProposalMap[wallet].currencies.length; i++) {\n            if (\n                walletProposalMap[wallet].currencies[i].ct == currency.ct &&\n                walletProposalMap[wallet].currencies[i].id == currency.id\n            )\n                return i;\n        }\n        require(false);\n    }\n\n    //\n    // Modifiers\n    // -----------------------------------------------------------------------------------------------------------------\n    modifier onlyDriipSettlementDispute() {\n        require(msg.sender == address(driipSettlementDispute));\n        _;\n    }\n}\n",
  "sourcePath": "/Users/kata/dev/hubii/striim-contracts/contracts/DriipSettlementChallenge.sol",
  "compiler": {
    "name": "solc",
    "version": "0.4.24+commit.e67f0147.Emscripten.clang"
  },
  "schemaVersion": "2.0.1",
  "updatedAt": "2018-11-03T02:16:30.643Z"
}