{
  "contractName": "DriipSettlementChallenge",
  "abi": [
    {
      "constant": true,
      "inputs": [
        {
          "name": "",
          "type": "uint256"
        }
      ],
      "name": "proposals",
      "outputs": [
        {
          "name": "wallet",
          "type": "address"
        },
        {
          "name": "nonce",
          "type": "uint256"
        },
        {
          "name": "blockNumber",
          "type": "uint256"
        },
        {
          "name": "expirationTime",
          "type": "uint256"
        },
        {
          "name": "status",
          "type": "uint8"
        },
        {
          "name": "currencyCt",
          "type": "address"
        },
        {
          "name": "currencyId",
          "type": "uint256"
        },
        {
          "name": "stageAmount",
          "type": "int256"
        },
        {
          "name": "targetBalanceAmount",
          "type": "int256"
        },
        {
          "name": "driipHash",
          "type": "bytes32"
        },
        {
          "name": "driipType",
          "type": "uint8"
        },
        {
          "name": "balanceReward",
          "type": "bool"
        }
      ],
      "payable": false,
      "stateMutability": "view",
      "type": "function"
    },
    {
      "constant": false,
      "inputs": [
        {
          "name": "newValidator",
          "type": "address"
        }
      ],
      "name": "setValidator",
      "outputs": [],
      "payable": false,
      "stateMutability": "nonpayable",
      "type": "function"
    },
    {
      "constant": true,
      "inputs": [
        {
          "name": "",
          "type": "uint256"
        }
      ],
      "name": "challengePaymentHashes",
      "outputs": [
        {
          "name": "",
          "type": "bytes32"
        }
      ],
      "payable": false,
      "stateMutability": "view",
      "type": "function"
    },
    {
      "constant": false,
      "inputs": [],
      "name": "triggerSelfDestruction",
      "outputs": [],
      "payable": false,
      "stateMutability": "nonpayable",
      "type": "function"
    },
    {
      "constant": true,
      "inputs": [
        {
          "name": "",
          "type": "uint256"
        }
      ],
      "name": "challengeTradeHashes",
      "outputs": [
        {
          "name": "",
          "type": "bytes32"
        }
      ],
      "payable": false,
      "stateMutability": "view",
      "type": "function"
    },
    {
      "constant": true,
      "inputs": [],
      "name": "selfDestructionDisabled",
      "outputs": [
        {
          "name": "",
          "type": "bool"
        }
      ],
      "payable": false,
      "stateMutability": "view",
      "type": "function"
    },
    {
      "constant": true,
      "inputs": [],
      "name": "validator",
      "outputs": [
        {
          "name": "",
          "type": "address"
        }
      ],
      "payable": false,
      "stateMutability": "view",
      "type": "function"
    },
    {
      "constant": true,
      "inputs": [],
      "name": "destructor",
      "outputs": [
        {
          "name": "",
          "type": "address"
        }
      ],
      "payable": false,
      "stateMutability": "view",
      "type": "function"
    },
    {
      "constant": true,
      "inputs": [
        {
          "name": "",
          "type": "address"
        },
        {
          "name": "",
          "type": "uint256"
        }
      ],
      "name": "challengeTradeHashIndicesByWallet",
      "outputs": [
        {
          "name": "",
          "type": "uint256"
        }
      ],
      "payable": false,
      "stateMutability": "view",
      "type": "function"
    },
    {
      "constant": true,
      "inputs": [],
      "name": "operator",
      "outputs": [
        {
          "name": "",
          "type": "address"
        }
      ],
      "payable": false,
      "stateMutability": "view",
      "type": "function"
    },
    {
      "constant": false,
      "inputs": [
        {
          "name": "newConfiguration",
          "type": "address"
        }
      ],
      "name": "setConfiguration",
      "outputs": [],
      "payable": false,
      "stateMutability": "nonpayable",
      "type": "function"
    },
    {
      "constant": true,
      "inputs": [
        {
          "name": "",
          "type": "uint256"
        }
      ],
      "name": "candidateHashes",
      "outputs": [
        {
          "name": "",
          "type": "bytes32"
        }
      ],
      "payable": false,
      "stateMutability": "view",
      "type": "function"
    },
    {
      "constant": true,
      "inputs": [
        {
          "name": "",
          "type": "address"
        },
        {
          "name": "",
          "type": "address"
        },
        {
          "name": "",
          "type": "uint256"
        }
      ],
      "name": "proposalIndexByWalletCurrency",
      "outputs": [
        {
          "name": "",
          "type": "uint256"
        }
      ],
      "payable": false,
      "stateMutability": "view",
      "type": "function"
    },
    {
      "constant": true,
      "inputs": [],
      "name": "configuration",
      "outputs": [
        {
          "name": "",
          "type": "address"
        }
      ],
      "payable": false,
      "stateMutability": "view",
      "type": "function"
    },
    {
      "constant": false,
      "inputs": [],
      "name": "disableSelfDestruction",
      "outputs": [],
      "payable": false,
      "stateMutability": "nonpayable",
      "type": "function"
    },
    {
      "constant": true,
      "inputs": [
        {
          "name": "",
          "type": "uint256"
        }
      ],
      "name": "challengeWallets",
      "outputs": [
        {
          "name": "",
          "type": "address"
        }
      ],
      "payable": false,
      "stateMutability": "view",
      "type": "function"
    },
    {
      "constant": true,
      "inputs": [
        {
          "name": "",
          "type": "address"
        },
        {
          "name": "",
          "type": "uint256"
        }
      ],
      "name": "proposalIndicesByWallet",
      "outputs": [
        {
          "name": "",
          "type": "uint256"
        }
      ],
      "payable": false,
      "stateMutability": "view",
      "type": "function"
    },
    {
      "constant": false,
      "inputs": [
        {
          "name": "newDeployer",
          "type": "address"
        }
      ],
      "name": "setDeployer",
      "outputs": [],
      "payable": false,
      "stateMutability": "nonpayable",
      "type": "function"
    },
    {
      "constant": false,
      "inputs": [
        {
          "name": "newOperator",
          "type": "address"
        }
      ],
      "name": "setOperator",
      "outputs": [],
      "payable": false,
      "stateMutability": "nonpayable",
      "type": "function"
    },
    {
      "constant": true,
      "inputs": [
        {
          "name": "",
          "type": "address"
        },
        {
          "name": "",
          "type": "address"
        },
        {
          "name": "",
          "type": "uint256"
        }
      ],
      "name": "disqualificationIndexByWalletCurrency",
      "outputs": [
        {
          "name": "",
          "type": "uint256"
        }
      ],
      "payable": false,
      "stateMutability": "view",
      "type": "function"
    },
    {
      "constant": true,
      "inputs": [
        {
          "name": "",
          "type": "uint256"
        }
      ],
      "name": "lockedWallets",
      "outputs": [
        {
          "name": "",
          "type": "address"
        }
      ],
      "payable": false,
      "stateMutability": "view",
      "type": "function"
    },
    {
      "constant": true,
      "inputs": [],
      "name": "driipSettlementDispute",
      "outputs": [
        {
          "name": "",
          "type": "address"
        }
      ],
      "payable": false,
      "stateMutability": "view",
      "type": "function"
    },
    {
      "constant": true,
      "inputs": [],
      "name": "deployer",
      "outputs": [
        {
          "name": "",
          "type": "address"
        }
      ],
      "payable": false,
      "stateMutability": "view",
      "type": "function"
    },
    {
      "constant": true,
      "inputs": [
        {
          "name": "",
          "type": "address"
        },
        {
          "name": "",
          "type": "uint256"
        }
      ],
      "name": "challengePaymentHashIndicesByWallet",
      "outputs": [
        {
          "name": "",
          "type": "uint256"
        }
      ],
      "payable": false,
      "stateMutability": "view",
      "type": "function"
    },
    {
      "constant": true,
      "inputs": [
        {
          "name": "",
          "type": "uint256"
        }
      ],
      "name": "disqualifications",
      "outputs": [
        {
          "name": "wallet",
          "type": "address"
        },
        {
          "name": "nonce",
          "type": "uint256"
        },
        {
          "name": "currencyCt",
          "type": "address"
        },
        {
          "name": "currencyId",
          "type": "uint256"
        },
        {
          "name": "candidateHash",
          "type": "bytes32"
        },
        {
          "name": "candidateType",
          "type": "uint8"
        },
        {
          "name": "challenger",
          "type": "address"
        }
      ],
      "payable": false,
      "stateMutability": "view",
      "type": "function"
    },
    {
      "constant": true,
      "inputs": [
        {
          "name": "",
          "type": "address"
        }
      ],
      "name": "lockedByWallet",
      "outputs": [
        {
          "name": "",
          "type": "bool"
        }
      ],
      "payable": false,
      "stateMutability": "view",
      "type": "function"
    },
    {
      "constant": true,
      "inputs": [
        {
          "name": "",
          "type": "address"
        }
      ],
      "name": "unlockTimeByWallet",
      "outputs": [
        {
          "name": "",
          "type": "uint256"
        }
      ],
      "payable": false,
      "stateMutability": "view",
      "type": "function"
    },
    {
      "inputs": [
        {
          "name": "deployer",
          "type": "address"
        }
      ],
      "payable": false,
      "stateMutability": "nonpayable",
      "type": "constructor"
    },
    {
      "anonymous": false,
      "inputs": [
        {
          "indexed": false,
          "name": "oldDriipSettlementDispute",
          "type": "address"
        },
        {
          "indexed": false,
          "name": "newDriipSettlementDispute",
          "type": "address"
        }
      ],
      "name": "SetDriipSettlementDisputeEvent",
      "type": "event"
    },
    {
      "anonymous": false,
      "inputs": [
        {
          "indexed": false,
          "name": "wallet",
          "type": "address"
        },
        {
          "indexed": false,
          "name": "tradeHash",
          "type": "bytes32"
        },
        {
          "indexed": false,
          "name": "intendedStageAmount",
          "type": "int256"
        },
        {
          "indexed": false,
          "name": "conjugateStageAmount",
          "type": "int256"
        }
      ],
      "name": "StartChallengeFromTradeEvent",
      "type": "event"
    },
    {
      "anonymous": false,
      "inputs": [
        {
          "indexed": false,
          "name": "proxy",
          "type": "address"
        },
        {
          "indexed": false,
          "name": "wallet",
          "type": "address"
        },
        {
          "indexed": false,
          "name": "tradeHash",
          "type": "bytes32"
        },
        {
          "indexed": false,
          "name": "intendedStageAmount",
          "type": "int256"
        },
        {
          "indexed": false,
          "name": "conjugateStageAmount",
          "type": "int256"
        }
      ],
      "name": "StartChallengeFromTradeByProxyEvent",
      "type": "event"
    },
    {
      "anonymous": false,
      "inputs": [
        {
          "indexed": false,
          "name": "wallet",
          "type": "address"
        },
        {
          "indexed": false,
          "name": "paymentHash",
          "type": "bytes32"
        },
        {
          "indexed": false,
          "name": "stageAmount",
          "type": "int256"
        }
      ],
      "name": "StartChallengeFromPaymentEvent",
      "type": "event"
    },
    {
      "anonymous": false,
      "inputs": [
        {
          "indexed": false,
          "name": "proxy",
          "type": "address"
        },
        {
          "indexed": false,
          "name": "wallet",
          "type": "address"
        },
        {
          "indexed": false,
          "name": "paymentHash",
          "type": "bytes32"
        },
        {
          "indexed": false,
          "name": "stageAmount",
          "type": "int256"
        }
      ],
      "name": "StartChallengeFromPaymentByProxyEvent",
      "type": "event"
    },
    {
      "anonymous": false,
      "inputs": [
        {
          "indexed": false,
          "name": "oldValidator",
          "type": "address"
        },
        {
          "indexed": false,
          "name": "newValidator",
          "type": "address"
        }
      ],
      "name": "SetValidatorEvent",
      "type": "event"
    },
    {
      "anonymous": false,
      "inputs": [
        {
          "indexed": false,
          "name": "oldConfiguration",
          "type": "address"
        },
        {
          "indexed": false,
          "name": "newConfiguration",
          "type": "address"
        }
      ],
      "name": "SetConfigurationEvent",
      "type": "event"
    },
    {
      "anonymous": false,
      "inputs": [
        {
          "indexed": false,
          "name": "oldDeployer",
          "type": "address"
        },
        {
          "indexed": false,
          "name": "newDeployer",
          "type": "address"
        }
      ],
      "name": "SetDeployerEvent",
      "type": "event"
    },
    {
      "anonymous": false,
      "inputs": [
        {
          "indexed": false,
          "name": "oldOperator",
          "type": "address"
        },
        {
          "indexed": false,
          "name": "newOperator",
          "type": "address"
        }
      ],
      "name": "SetOperatorEvent",
      "type": "event"
    },
    {
      "anonymous": false,
      "inputs": [
        {
          "indexed": false,
          "name": "wallet",
          "type": "address"
        }
      ],
      "name": "SelfDestructionDisabledEvent",
      "type": "event"
    },
    {
      "anonymous": false,
      "inputs": [
        {
          "indexed": false,
          "name": "wallet",
          "type": "address"
        }
      ],
      "name": "TriggerSelfDestructionEvent",
      "type": "event"
    },
    {
      "constant": false,
      "inputs": [
        {
          "name": "newDriipSettlementDispute",
          "type": "address"
        }
      ],
      "name": "setDriipSettlementDispute",
      "outputs": [],
      "payable": false,
      "stateMutability": "nonpayable",
      "type": "function"
    },
    {
      "constant": true,
      "inputs": [],
      "name": "challengeWalletsCount",
      "outputs": [
        {
          "name": "",
          "type": "uint256"
        }
      ],
      "payable": false,
      "stateMutability": "view",
      "type": "function"
    },
    {
      "constant": true,
      "inputs": [],
      "name": "lockedWalletsCount",
      "outputs": [
        {
          "name": "",
          "type": "uint256"
        }
      ],
      "payable": false,
      "stateMutability": "view",
      "type": "function"
    },
    {
      "constant": true,
      "inputs": [],
      "name": "proposalsCount",
      "outputs": [
        {
          "name": "",
          "type": "uint256"
        }
      ],
      "payable": false,
      "stateMutability": "view",
      "type": "function"
    },
    {
      "constant": true,
      "inputs": [],
      "name": "disqualificationsCount",
      "outputs": [
        {
          "name": "",
          "type": "uint256"
        }
      ],
      "payable": false,
      "stateMutability": "view",
      "type": "function"
    },
    {
      "constant": true,
      "inputs": [],
      "name": "challengeTradeHashesCount",
      "outputs": [
        {
          "name": "",
          "type": "uint256"
        }
      ],
      "payable": false,
      "stateMutability": "view",
      "type": "function"
    },
    {
      "constant": true,
      "inputs": [],
      "name": "challengePaymentHashesCount",
      "outputs": [
        {
          "name": "",
          "type": "uint256"
        }
      ],
      "payable": false,
      "stateMutability": "view",
      "type": "function"
    },
    {
      "constant": true,
      "inputs": [
        {
          "name": "wallet",
          "type": "address"
        }
      ],
      "name": "walletChallengeTradeHashIndicesCount",
      "outputs": [
        {
          "name": "",
          "type": "uint256"
        }
      ],
      "payable": false,
      "stateMutability": "view",
      "type": "function"
    },
    {
      "constant": true,
      "inputs": [
        {
          "name": "wallet",
          "type": "address"
        }
      ],
      "name": "walletChallengePaymentHashIndicesCount",
      "outputs": [
        {
          "name": "",
          "type": "uint256"
        }
      ],
      "payable": false,
      "stateMutability": "view",
      "type": "function"
    },
    {
      "constant": false,
      "inputs": [
        {
          "components": [
            {
              "name": "nonce",
              "type": "uint256"
            },
            {
              "name": "amount",
              "type": "int256"
            },
            {
              "components": [
                {
                  "components": [
                    {
                      "name": "ct",
                      "type": "address"
                    },
                    {
                      "name": "id",
                      "type": "uint256"
                    }
                  ],
                  "name": "intended",
                  "type": "tuple"
                },
                {
                  "components": [
                    {
                      "name": "ct",
                      "type": "address"
                    },
                    {
                      "name": "id",
                      "type": "uint256"
                    }
                  ],
                  "name": "conjugate",
                  "type": "tuple"
                }
              ],
              "name": "currencies",
              "type": "tuple"
            },
            {
              "name": "rate",
              "type": "int256"
            },
            {
              "components": [
                {
                  "name": "nonce",
                  "type": "uint256"
                },
                {
                  "name": "wallet",
                  "type": "address"
                },
                {
                  "name": "rollingVolume",
                  "type": "uint256"
                },
                {
                  "name": "liquidityRole",
                  "type": "uint8"
                },
                {
                  "components": [
                    {
                      "name": "amount",
                      "type": "int256"
                    },
                    {
                      "components": [
                        {
                          "name": "wallet",
                          "type": "bytes32"
                        },
                        {
                          "name": "operator",
                          "type": "bytes32"
                        }
                      ],
                      "name": "hashes",
                      "type": "tuple"
                    },
                    {
                      "components": [
                        {
                          "name": "current",
                          "type": "int256"
                        },
                        {
                          "name": "previous",
                          "type": "int256"
                        }
                      ],
                      "name": "residuals",
                      "type": "tuple"
                    }
                  ],
                  "name": "order",
                  "type": "tuple"
                },
                {
                  "components": [
                    {
                      "components": [
                        {
                          "name": "current",
                          "type": "int256"
                        },
                        {
                          "name": "previous",
                          "type": "int256"
                        }
                      ],
                      "name": "intended",
                      "type": "tuple"
                    },
                    {
                      "components": [
                        {
                          "name": "current",
                          "type": "int256"
                        },
                        {
                          "name": "previous",
                          "type": "int256"
                        }
                      ],
                      "name": "conjugate",
                      "type": "tuple"
                    }
                  ],
                  "name": "balances",
                  "type": "tuple"
                },
                {
                  "components": [
                    {
                      "components": [
                        {
                          "name": "amount",
                          "type": "int256"
                        },
                        {
                          "components": [
                            {
                              "name": "ct",
                              "type": "address"
                            },
                            {
                              "name": "id",
                              "type": "uint256"
                            }
                          ],
                          "name": "currency",
                          "type": "tuple"
                        }
                      ],
                      "name": "single",
                      "type": "tuple"
                    },
                    {
                      "components": [
                        {
                          "name": "originId",
                          "type": "uint256"
                        },
                        {
                          "components": [
                            {
                              "name": "amount",
                              "type": "int256"
                            },
                            {
                              "components": [
                                {
                                  "name": "ct",
                                  "type": "address"
                                },
                                {
                                  "name": "id",
                                  "type": "uint256"
                                }
                              ],
                              "name": "currency",
                              "type": "tuple"
                            }
                          ],
                          "name": "figure",
                          "type": "tuple"
                        }
                      ],
                      "name": "total",
                      "type": "tuple[]"
                    }
                  ],
                  "name": "fees",
                  "type": "tuple"
                }
              ],
              "name": "buyer",
              "type": "tuple"
            },
            {
              "components": [
                {
                  "name": "nonce",
                  "type": "uint256"
                },
                {
                  "name": "wallet",
                  "type": "address"
                },
                {
                  "name": "rollingVolume",
                  "type": "uint256"
                },
                {
                  "name": "liquidityRole",
                  "type": "uint8"
                },
                {
                  "components": [
                    {
                      "name": "amount",
                      "type": "int256"
                    },
                    {
                      "components": [
                        {
                          "name": "wallet",
                          "type": "bytes32"
                        },
                        {
                          "name": "operator",
                          "type": "bytes32"
                        }
                      ],
                      "name": "hashes",
                      "type": "tuple"
                    },
                    {
                      "components": [
                        {
                          "name": "current",
                          "type": "int256"
                        },
                        {
                          "name": "previous",
                          "type": "int256"
                        }
                      ],
                      "name": "residuals",
                      "type": "tuple"
                    }
                  ],
                  "name": "order",
                  "type": "tuple"
                },
                {
                  "components": [
                    {
                      "components": [
                        {
                          "name": "current",
                          "type": "int256"
                        },
                        {
                          "name": "previous",
                          "type": "int256"
                        }
                      ],
                      "name": "intended",
                      "type": "tuple"
                    },
                    {
                      "components": [
                        {
                          "name": "current",
                          "type": "int256"
                        },
                        {
                          "name": "previous",
                          "type": "int256"
                        }
                      ],
                      "name": "conjugate",
                      "type": "tuple"
                    }
                  ],
                  "name": "balances",
                  "type": "tuple"
                },
                {
                  "components": [
                    {
                      "components": [
                        {
                          "name": "amount",
                          "type": "int256"
                        },
                        {
                          "components": [
                            {
                              "name": "ct",
                              "type": "address"
                            },
                            {
                              "name": "id",
                              "type": "uint256"
                            }
                          ],
                          "name": "currency",
                          "type": "tuple"
                        }
                      ],
                      "name": "single",
                      "type": "tuple"
                    },
                    {
                      "components": [
                        {
                          "name": "originId",
                          "type": "uint256"
                        },
                        {
                          "components": [
                            {
                              "name": "amount",
                              "type": "int256"
                            },
                            {
                              "components": [
                                {
                                  "name": "ct",
                                  "type": "address"
                                },
                                {
                                  "name": "id",
                                  "type": "uint256"
                                }
                              ],
                              "name": "currency",
                              "type": "tuple"
                            }
                          ],
                          "name": "figure",
                          "type": "tuple"
                        }
                      ],
                      "name": "total",
                      "type": "tuple[]"
                    }
                  ],
                  "name": "fees",
                  "type": "tuple"
                }
              ],
              "name": "seller",
              "type": "tuple"
            },
            {
              "components": [
                {
                  "components": [
                    {
                      "name": "single",
                      "type": "int256"
                    },
                    {
                      "name": "total",
                      "type": "int256"
                    }
                  ],
                  "name": "intended",
                  "type": "tuple"
                },
                {
                  "components": [
                    {
                      "name": "single",
                      "type": "int256"
                    },
                    {
                      "name": "total",
                      "type": "int256"
                    }
                  ],
                  "name": "conjugate",
                  "type": "tuple"
                }
              ],
              "name": "transfers",
              "type": "tuple"
            },
            {
              "components": [
                {
                  "name": "hash",
                  "type": "bytes32"
                },
                {
                  "components": [
                    {
                      "name": "r",
                      "type": "bytes32"
                    },
                    {
                      "name": "s",
                      "type": "bytes32"
                    },
                    {
                      "name": "v",
                      "type": "uint8"
                    }
                  ],
                  "name": "signature",
                  "type": "tuple"
                }
              ],
              "name": "seal",
              "type": "tuple"
            },
            {
              "name": "blockNumber",
              "type": "uint256"
            },
            {
              "name": "operatorId",
              "type": "uint256"
            }
          ],
          "name": "trade",
          "type": "tuple"
        },
        {
          "name": "intendedStageAmount",
          "type": "int256"
        },
        {
          "name": "conjugateStageAmount",
          "type": "int256"
        }
      ],
      "name": "startChallengeFromTrade",
      "outputs": [],
      "payable": false,
      "stateMutability": "nonpayable",
      "type": "function"
    },
    {
      "constant": false,
      "inputs": [
        {
          "name": "wallet",
          "type": "address"
        },
        {
          "components": [
            {
              "name": "nonce",
              "type": "uint256"
            },
            {
              "name": "amount",
              "type": "int256"
            },
            {
              "components": [
                {
                  "components": [
                    {
                      "name": "ct",
                      "type": "address"
                    },
                    {
                      "name": "id",
                      "type": "uint256"
                    }
                  ],
                  "name": "intended",
                  "type": "tuple"
                },
                {
                  "components": [
                    {
                      "name": "ct",
                      "type": "address"
                    },
                    {
                      "name": "id",
                      "type": "uint256"
                    }
                  ],
                  "name": "conjugate",
                  "type": "tuple"
                }
              ],
              "name": "currencies",
              "type": "tuple"
            },
            {
              "name": "rate",
              "type": "int256"
            },
            {
              "components": [
                {
                  "name": "nonce",
                  "type": "uint256"
                },
                {
                  "name": "wallet",
                  "type": "address"
                },
                {
                  "name": "rollingVolume",
                  "type": "uint256"
                },
                {
                  "name": "liquidityRole",
                  "type": "uint8"
                },
                {
                  "components": [
                    {
                      "name": "amount",
                      "type": "int256"
                    },
                    {
                      "components": [
                        {
                          "name": "wallet",
                          "type": "bytes32"
                        },
                        {
                          "name": "operator",
                          "type": "bytes32"
                        }
                      ],
                      "name": "hashes",
                      "type": "tuple"
                    },
                    {
                      "components": [
                        {
                          "name": "current",
                          "type": "int256"
                        },
                        {
                          "name": "previous",
                          "type": "int256"
                        }
                      ],
                      "name": "residuals",
                      "type": "tuple"
                    }
                  ],
                  "name": "order",
                  "type": "tuple"
                },
                {
                  "components": [
                    {
                      "components": [
                        {
                          "name": "current",
                          "type": "int256"
                        },
                        {
                          "name": "previous",
                          "type": "int256"
                        }
                      ],
                      "name": "intended",
                      "type": "tuple"
                    },
                    {
                      "components": [
                        {
                          "name": "current",
                          "type": "int256"
                        },
                        {
                          "name": "previous",
                          "type": "int256"
                        }
                      ],
                      "name": "conjugate",
                      "type": "tuple"
                    }
                  ],
                  "name": "balances",
                  "type": "tuple"
                },
                {
                  "components": [
                    {
                      "components": [
                        {
                          "name": "amount",
                          "type": "int256"
                        },
                        {
                          "components": [
                            {
                              "name": "ct",
                              "type": "address"
                            },
                            {
                              "name": "id",
                              "type": "uint256"
                            }
                          ],
                          "name": "currency",
                          "type": "tuple"
                        }
                      ],
                      "name": "single",
                      "type": "tuple"
                    },
                    {
                      "components": [
                        {
                          "name": "originId",
                          "type": "uint256"
                        },
                        {
                          "components": [
                            {
                              "name": "amount",
                              "type": "int256"
                            },
                            {
                              "components": [
                                {
                                  "name": "ct",
                                  "type": "address"
                                },
                                {
                                  "name": "id",
                                  "type": "uint256"
                                }
                              ],
                              "name": "currency",
                              "type": "tuple"
                            }
                          ],
                          "name": "figure",
                          "type": "tuple"
                        }
                      ],
                      "name": "total",
                      "type": "tuple[]"
                    }
                  ],
                  "name": "fees",
                  "type": "tuple"
                }
              ],
              "name": "buyer",
              "type": "tuple"
            },
            {
              "components": [
                {
                  "name": "nonce",
                  "type": "uint256"
                },
                {
                  "name": "wallet",
                  "type": "address"
                },
                {
                  "name": "rollingVolume",
                  "type": "uint256"
                },
                {
                  "name": "liquidityRole",
                  "type": "uint8"
                },
                {
                  "components": [
                    {
                      "name": "amount",
                      "type": "int256"
                    },
                    {
                      "components": [
                        {
                          "name": "wallet",
                          "type": "bytes32"
                        },
                        {
                          "name": "operator",
                          "type": "bytes32"
                        }
                      ],
                      "name": "hashes",
                      "type": "tuple"
                    },
                    {
                      "components": [
                        {
                          "name": "current",
                          "type": "int256"
                        },
                        {
                          "name": "previous",
                          "type": "int256"
                        }
                      ],
                      "name": "residuals",
                      "type": "tuple"
                    }
                  ],
                  "name": "order",
                  "type": "tuple"
                },
                {
                  "components": [
                    {
                      "components": [
                        {
                          "name": "current",
                          "type": "int256"
                        },
                        {
                          "name": "previous",
                          "type": "int256"
                        }
                      ],
                      "name": "intended",
                      "type": "tuple"
                    },
                    {
                      "components": [
                        {
                          "name": "current",
                          "type": "int256"
                        },
                        {
                          "name": "previous",
                          "type": "int256"
                        }
                      ],
                      "name": "conjugate",
                      "type": "tuple"
                    }
                  ],
                  "name": "balances",
                  "type": "tuple"
                },
                {
                  "components": [
                    {
                      "components": [
                        {
                          "name": "amount",
                          "type": "int256"
                        },
                        {
                          "components": [
                            {
                              "name": "ct",
                              "type": "address"
                            },
                            {
                              "name": "id",
                              "type": "uint256"
                            }
                          ],
                          "name": "currency",
                          "type": "tuple"
                        }
                      ],
                      "name": "single",
                      "type": "tuple"
                    },
                    {
                      "components": [
                        {
                          "name": "originId",
                          "type": "uint256"
                        },
                        {
                          "components": [
                            {
                              "name": "amount",
                              "type": "int256"
                            },
                            {
                              "components": [
                                {
                                  "name": "ct",
                                  "type": "address"
                                },
                                {
                                  "name": "id",
                                  "type": "uint256"
                                }
                              ],
                              "name": "currency",
                              "type": "tuple"
                            }
                          ],
                          "name": "figure",
                          "type": "tuple"
                        }
                      ],
                      "name": "total",
                      "type": "tuple[]"
                    }
                  ],
                  "name": "fees",
                  "type": "tuple"
                }
              ],
              "name": "seller",
              "type": "tuple"
            },
            {
              "components": [
                {
                  "components": [
                    {
                      "name": "single",
                      "type": "int256"
                    },
                    {
                      "name": "total",
                      "type": "int256"
                    }
                  ],
                  "name": "intended",
                  "type": "tuple"
                },
                {
                  "components": [
                    {
                      "name": "single",
                      "type": "int256"
                    },
                    {
                      "name": "total",
                      "type": "int256"
                    }
                  ],
                  "name": "conjugate",
                  "type": "tuple"
                }
              ],
              "name": "transfers",
              "type": "tuple"
            },
            {
              "components": [
                {
                  "name": "hash",
                  "type": "bytes32"
                },
                {
                  "components": [
                    {
                      "name": "r",
                      "type": "bytes32"
                    },
                    {
                      "name": "s",
                      "type": "bytes32"
                    },
                    {
                      "name": "v",
                      "type": "uint8"
                    }
                  ],
                  "name": "signature",
                  "type": "tuple"
                }
              ],
              "name": "seal",
              "type": "tuple"
            },
            {
              "name": "blockNumber",
              "type": "uint256"
            },
            {
              "name": "operatorId",
              "type": "uint256"
            }
          ],
          "name": "trade",
          "type": "tuple"
        },
        {
          "name": "intendedStageAmount",
          "type": "int256"
        },
        {
          "name": "conjugateStageAmount",
          "type": "int256"
        }
      ],
      "name": "startChallengeFromTradeByProxy",
      "outputs": [],
      "payable": false,
      "stateMutability": "nonpayable",
      "type": "function"
    },
    {
      "constant": false,
      "inputs": [
        {
          "components": [
            {
              "name": "nonce",
              "type": "uint256"
            },
            {
              "name": "amount",
              "type": "int256"
            },
            {
              "components": [
                {
                  "name": "ct",
                  "type": "address"
                },
                {
                  "name": "id",
                  "type": "uint256"
                }
              ],
              "name": "currency",
              "type": "tuple"
            },
            {
              "components": [
                {
                  "name": "nonce",
                  "type": "uint256"
                },
                {
                  "name": "wallet",
                  "type": "address"
                },
                {
                  "components": [
                    {
                      "name": "current",
                      "type": "int256"
                    },
                    {
                      "name": "previous",
                      "type": "int256"
                    }
                  ],
                  "name": "balances",
                  "type": "tuple"
                },
                {
                  "components": [
                    {
                      "components": [
                        {
                          "name": "amount",
                          "type": "int256"
                        },
                        {
                          "components": [
                            {
                              "name": "ct",
                              "type": "address"
                            },
                            {
                              "name": "id",
                              "type": "uint256"
                            }
                          ],
                          "name": "currency",
                          "type": "tuple"
                        }
                      ],
                      "name": "single",
                      "type": "tuple"
                    },
                    {
                      "components": [
                        {
                          "name": "originId",
                          "type": "uint256"
                        },
                        {
                          "components": [
                            {
                              "name": "amount",
                              "type": "int256"
                            },
                            {
                              "components": [
                                {
                                  "name": "ct",
                                  "type": "address"
                                },
                                {
                                  "name": "id",
                                  "type": "uint256"
                                }
                              ],
                              "name": "currency",
                              "type": "tuple"
                            }
                          ],
                          "name": "figure",
                          "type": "tuple"
                        }
                      ],
                      "name": "total",
                      "type": "tuple[]"
                    }
                  ],
                  "name": "fees",
                  "type": "tuple"
                }
              ],
              "name": "sender",
              "type": "tuple"
            },
            {
              "components": [
                {
                  "name": "nonce",
                  "type": "uint256"
                },
                {
                  "name": "wallet",
                  "type": "address"
                },
                {
                  "components": [
                    {
                      "name": "current",
                      "type": "int256"
                    },
                    {
                      "name": "previous",
                      "type": "int256"
                    }
                  ],
                  "name": "balances",
                  "type": "tuple"
                },
                {
                  "components": [
                    {
                      "components": [
                        {
                          "name": "originId",
                          "type": "uint256"
                        },
                        {
                          "components": [
                            {
                              "name": "amount",
                              "type": "int256"
                            },
                            {
                              "components": [
                                {
                                  "name": "ct",
                                  "type": "address"
                                },
                                {
                                  "name": "id",
                                  "type": "uint256"
                                }
                              ],
                              "name": "currency",
                              "type": "tuple"
                            }
                          ],
                          "name": "figure",
                          "type": "tuple"
                        }
                      ],
                      "name": "total",
                      "type": "tuple[]"
                    }
                  ],
                  "name": "fees",
                  "type": "tuple"
                }
              ],
              "name": "recipient",
              "type": "tuple"
            },
            {
              "components": [
                {
                  "name": "single",
                  "type": "int256"
                },
                {
                  "name": "total",
                  "type": "int256"
                }
              ],
              "name": "transfers",
              "type": "tuple"
            },
            {
              "components": [
                {
                  "components": [
                    {
                      "name": "hash",
                      "type": "bytes32"
                    },
                    {
                      "components": [
                        {
                          "name": "r",
                          "type": "bytes32"
                        },
                        {
                          "name": "s",
                          "type": "bytes32"
                        },
                        {
                          "name": "v",
                          "type": "uint8"
                        }
                      ],
                      "name": "signature",
                      "type": "tuple"
                    }
                  ],
                  "name": "wallet",
                  "type": "tuple"
                },
                {
                  "components": [
                    {
                      "name": "hash",
                      "type": "bytes32"
                    },
                    {
                      "components": [
                        {
                          "name": "r",
                          "type": "bytes32"
                        },
                        {
                          "name": "s",
                          "type": "bytes32"
                        },
                        {
                          "name": "v",
                          "type": "uint8"
                        }
                      ],
                      "name": "signature",
                      "type": "tuple"
                    }
                  ],
                  "name": "operator",
                  "type": "tuple"
                }
              ],
              "name": "seals",
              "type": "tuple"
            },
            {
              "name": "blockNumber",
              "type": "uint256"
            },
            {
              "name": "operatorId",
              "type": "uint256"
            }
          ],
          "name": "payment",
          "type": "tuple"
        },
        {
          "name": "stageAmount",
          "type": "int256"
        }
      ],
      "name": "startChallengeFromPayment",
      "outputs": [],
      "payable": false,
      "stateMutability": "nonpayable",
      "type": "function"
    },
    {
      "constant": false,
      "inputs": [
        {
          "name": "wallet",
          "type": "address"
        },
        {
          "components": [
            {
              "name": "nonce",
              "type": "uint256"
            },
            {
              "name": "amount",
              "type": "int256"
            },
            {
              "components": [
                {
                  "name": "ct",
                  "type": "address"
                },
                {
                  "name": "id",
                  "type": "uint256"
                }
              ],
              "name": "currency",
              "type": "tuple"
            },
            {
              "components": [
                {
                  "name": "nonce",
                  "type": "uint256"
                },
                {
                  "name": "wallet",
                  "type": "address"
                },
                {
                  "components": [
                    {
                      "name": "current",
                      "type": "int256"
                    },
                    {
                      "name": "previous",
                      "type": "int256"
                    }
                  ],
                  "name": "balances",
                  "type": "tuple"
                },
                {
                  "components": [
                    {
                      "components": [
                        {
                          "name": "amount",
                          "type": "int256"
                        },
                        {
                          "components": [
                            {
                              "name": "ct",
                              "type": "address"
                            },
                            {
                              "name": "id",
                              "type": "uint256"
                            }
                          ],
                          "name": "currency",
                          "type": "tuple"
                        }
                      ],
                      "name": "single",
                      "type": "tuple"
                    },
                    {
                      "components": [
                        {
                          "name": "originId",
                          "type": "uint256"
                        },
                        {
                          "components": [
                            {
                              "name": "amount",
                              "type": "int256"
                            },
                            {
                              "components": [
                                {
                                  "name": "ct",
                                  "type": "address"
                                },
                                {
                                  "name": "id",
                                  "type": "uint256"
                                }
                              ],
                              "name": "currency",
                              "type": "tuple"
                            }
                          ],
                          "name": "figure",
                          "type": "tuple"
                        }
                      ],
                      "name": "total",
                      "type": "tuple[]"
                    }
                  ],
                  "name": "fees",
                  "type": "tuple"
                }
              ],
              "name": "sender",
              "type": "tuple"
            },
            {
              "components": [
                {
                  "name": "nonce",
                  "type": "uint256"
                },
                {
                  "name": "wallet",
                  "type": "address"
                },
                {
                  "components": [
                    {
                      "name": "current",
                      "type": "int256"
                    },
                    {
                      "name": "previous",
                      "type": "int256"
                    }
                  ],
                  "name": "balances",
                  "type": "tuple"
                },
                {
                  "components": [
                    {
                      "components": [
                        {
                          "name": "originId",
                          "type": "uint256"
                        },
                        {
                          "components": [
                            {
                              "name": "amount",
                              "type": "int256"
                            },
                            {
                              "components": [
                                {
                                  "name": "ct",
                                  "type": "address"
                                },
                                {
                                  "name": "id",
                                  "type": "uint256"
                                }
                              ],
                              "name": "currency",
                              "type": "tuple"
                            }
                          ],
                          "name": "figure",
                          "type": "tuple"
                        }
                      ],
                      "name": "total",
                      "type": "tuple[]"
                    }
                  ],
                  "name": "fees",
                  "type": "tuple"
                }
              ],
              "name": "recipient",
              "type": "tuple"
            },
            {
              "components": [
                {
                  "name": "single",
                  "type": "int256"
                },
                {
                  "name": "total",
                  "type": "int256"
                }
              ],
              "name": "transfers",
              "type": "tuple"
            },
            {
              "components": [
                {
                  "components": [
                    {
                      "name": "hash",
                      "type": "bytes32"
                    },
                    {
                      "components": [
                        {
                          "name": "r",
                          "type": "bytes32"
                        },
                        {
                          "name": "s",
                          "type": "bytes32"
                        },
                        {
                          "name": "v",
                          "type": "uint8"
                        }
                      ],
                      "name": "signature",
                      "type": "tuple"
                    }
                  ],
                  "name": "wallet",
                  "type": "tuple"
                },
                {
                  "components": [
                    {
                      "name": "hash",
                      "type": "bytes32"
                    },
                    {
                      "components": [
                        {
                          "name": "r",
                          "type": "bytes32"
                        },
                        {
                          "name": "s",
                          "type": "bytes32"
                        },
                        {
                          "name": "v",
                          "type": "uint8"
                        }
                      ],
                      "name": "signature",
                      "type": "tuple"
                    }
                  ],
                  "name": "operator",
                  "type": "tuple"
                }
              ],
              "name": "seals",
              "type": "tuple"
            },
            {
              "name": "blockNumber",
              "type": "uint256"
            },
            {
              "name": "operatorId",
              "type": "uint256"
            }
          ],
          "name": "payment",
          "type": "tuple"
        },
        {
          "name": "stageAmount",
          "type": "int256"
        }
      ],
      "name": "startChallengeFromPaymentByProxy",
      "outputs": [],
      "payable": false,
      "stateMutability": "nonpayable",
      "type": "function"
    },
    {
      "constant": true,
      "inputs": [
        {
          "name": "wallet",
          "type": "address"
        },
        {
          "name": "currencyCt",
          "type": "address"
        },
        {
          "name": "currencyId",
          "type": "uint256"
        }
      ],
      "name": "hasProposalExpired",
      "outputs": [
        {
          "name": "",
          "type": "bool"
        }
      ],
      "payable": false,
      "stateMutability": "view",
      "type": "function"
    },
    {
      "constant": true,
      "inputs": [
        {
          "name": "wallet",
          "type": "address"
        },
        {
          "name": "currencyCt",
          "type": "address"
        },
        {
          "name": "currencyId",
          "type": "uint256"
        }
      ],
      "name": "proposalNonce",
      "outputs": [
        {
          "name": "",
          "type": "uint256"
        }
      ],
      "payable": false,
      "stateMutability": "view",
      "type": "function"
    },
    {
      "constant": true,
      "inputs": [
        {
          "name": "wallet",
          "type": "address"
        },
        {
          "name": "currencyCt",
          "type": "address"
        },
        {
          "name": "currencyId",
          "type": "uint256"
        }
      ],
      "name": "proposalBlockNumber",
      "outputs": [
        {
          "name": "",
          "type": "uint256"
        }
      ],
      "payable": false,
      "stateMutability": "view",
      "type": "function"
    },
    {
      "constant": true,
      "inputs": [
        {
          "name": "wallet",
          "type": "address"
        },
        {
          "name": "currencyCt",
          "type": "address"
        },
        {
          "name": "currencyId",
          "type": "uint256"
        }
      ],
      "name": "proposalExpirationTime",
      "outputs": [
        {
          "name": "",
          "type": "uint256"
        }
      ],
      "payable": false,
      "stateMutability": "view",
      "type": "function"
    },
    {
      "constant": true,
      "inputs": [
        {
          "name": "wallet",
          "type": "address"
        },
        {
          "name": "currencyCt",
          "type": "address"
        },
        {
          "name": "currencyId",
          "type": "uint256"
        }
      ],
      "name": "proposalStatus",
      "outputs": [
        {
          "name": "",
          "type": "uint8"
        }
      ],
      "payable": false,
      "stateMutability": "view",
      "type": "function"
    },
    {
      "constant": true,
      "inputs": [
        {
          "name": "wallet",
          "type": "address"
        },
        {
          "name": "currencyCt",
          "type": "address"
        },
        {
          "name": "currencyId",
          "type": "uint256"
        }
      ],
      "name": "proposalStageAmount",
      "outputs": [
        {
          "name": "",
          "type": "int256"
        }
      ],
      "payable": false,
      "stateMutability": "view",
      "type": "function"
    },
    {
      "constant": true,
      "inputs": [
        {
          "name": "wallet",
          "type": "address"
        },
        {
          "name": "currencyCt",
          "type": "address"
        },
        {
          "name": "currencyId",
          "type": "uint256"
        }
      ],
      "name": "proposalTargetBalanceAmount",
      "outputs": [
        {
          "name": "",
          "type": "int256"
        }
      ],
      "payable": false,
      "stateMutability": "view",
      "type": "function"
    },
    {
      "constant": true,
      "inputs": [
        {
          "name": "wallet",
          "type": "address"
        },
        {
          "name": "currencyCt",
          "type": "address"
        },
        {
          "name": "currencyId",
          "type": "uint256"
        }
      ],
      "name": "proposalDriipHash",
      "outputs": [
        {
          "name": "",
          "type": "bytes32"
        }
      ],
      "payable": false,
      "stateMutability": "view",
      "type": "function"
    },
    {
      "constant": true,
      "inputs": [
        {
          "name": "wallet",
          "type": "address"
        },
        {
          "name": "currencyCt",
          "type": "address"
        },
        {
          "name": "currencyId",
          "type": "uint256"
        }
      ],
      "name": "proposalDriipType",
      "outputs": [
        {
          "name": "",
          "type": "uint8"
        }
      ],
      "payable": false,
      "stateMutability": "view",
      "type": "function"
    },
    {
      "constant": true,
      "inputs": [
        {
          "name": "wallet",
          "type": "address"
        },
        {
          "name": "currencyCt",
          "type": "address"
        },
        {
          "name": "currencyId",
          "type": "uint256"
        }
      ],
      "name": "proposalBalanceReward",
      "outputs": [
        {
          "name": "",
          "type": "bool"
        }
      ],
      "payable": false,
      "stateMutability": "view",
      "type": "function"
    },
    {
      "constant": true,
      "inputs": [
        {
          "name": "wallet",
          "type": "address"
        },
        {
          "name": "currencyCt",
          "type": "address"
        },
        {
          "name": "currencyId",
          "type": "uint256"
        }
      ],
      "name": "disqualificationCandidateType",
      "outputs": [
        {
          "name": "",
          "type": "uint8"
        }
      ],
      "payable": false,
      "stateMutability": "view",
      "type": "function"
    },
    {
      "constant": true,
      "inputs": [
        {
          "name": "wallet",
          "type": "address"
        },
        {
          "name": "currencyCt",
          "type": "address"
        },
        {
          "name": "currencyId",
          "type": "uint256"
        }
      ],
      "name": "disqualificationCandidateHash",
      "outputs": [
        {
          "name": "",
          "type": "bytes32"
        }
      ],
      "payable": false,
      "stateMutability": "view",
      "type": "function"
    },
    {
      "constant": true,
      "inputs": [
        {
          "name": "wallet",
          "type": "address"
        },
        {
          "name": "currencyCt",
          "type": "address"
        },
        {
          "name": "currencyId",
          "type": "uint256"
        }
      ],
      "name": "disqualificationChallenger",
      "outputs": [
        {
          "name": "",
          "type": "address"
        }
      ],
      "payable": false,
      "stateMutability": "view",
      "type": "function"
    },
    {
      "constant": false,
      "inputs": [
        {
          "name": "wallet",
          "type": "address"
        },
        {
          "name": "currencyCt",
          "type": "address"
        },
        {
          "name": "currencyId",
          "type": "uint256"
        },
        {
          "name": "expirationTime",
          "type": "uint256"
        }
      ],
      "name": "setProposalExpirationTime",
      "outputs": [],
      "payable": false,
      "stateMutability": "nonpayable",
      "type": "function"
    },
    {
      "constant": false,
      "inputs": [
        {
          "name": "wallet",
          "type": "address"
        },
        {
          "name": "currencyCt",
          "type": "address"
        },
        {
          "name": "currencyId",
          "type": "uint256"
        },
        {
          "name": "status",
          "type": "uint8"
        }
      ],
      "name": "setProposalStatus",
      "outputs": [],
      "payable": false,
      "stateMutability": "nonpayable",
      "type": "function"
    },
    {
      "constant": false,
      "inputs": [
        {
          "components": [
            {
              "name": "nonce",
              "type": "uint256"
            },
            {
              "name": "wallet",
              "type": "address"
            },
            {
              "components": [
                {
                  "name": "intention",
                  "type": "uint8"
                },
                {
                  "name": "amount",
                  "type": "int256"
                },
                {
                  "components": [
                    {
                      "components": [
                        {
                          "name": "ct",
                          "type": "address"
                        },
                        {
                          "name": "id",
                          "type": "uint256"
                        }
                      ],
                      "name": "intended",
                      "type": "tuple"
                    },
                    {
                      "components": [
                        {
                          "name": "ct",
                          "type": "address"
                        },
                        {
                          "name": "id",
                          "type": "uint256"
                        }
                      ],
                      "name": "conjugate",
                      "type": "tuple"
                    }
                  ],
                  "name": "currencies",
                  "type": "tuple"
                },
                {
                  "name": "rate",
                  "type": "int256"
                },
                {
                  "components": [
                    {
                      "name": "current",
                      "type": "int256"
                    },
                    {
                      "name": "previous",
                      "type": "int256"
                    }
                  ],
                  "name": "residuals",
                  "type": "tuple"
                }
              ],
              "name": "placement",
              "type": "tuple"
            },
            {
              "components": [
                {
                  "components": [
                    {
                      "name": "hash",
                      "type": "bytes32"
                    },
                    {
                      "components": [
                        {
                          "name": "r",
                          "type": "bytes32"
                        },
                        {
                          "name": "s",
                          "type": "bytes32"
                        },
                        {
                          "name": "v",
                          "type": "uint8"
                        }
                      ],
                      "name": "signature",
                      "type": "tuple"
                    }
                  ],
                  "name": "wallet",
                  "type": "tuple"
                },
                {
                  "components": [
                    {
                      "name": "hash",
                      "type": "bytes32"
                    },
                    {
                      "components": [
                        {
                          "name": "r",
                          "type": "bytes32"
                        },
                        {
                          "name": "s",
                          "type": "bytes32"
                        },
                        {
                          "name": "v",
                          "type": "uint8"
                        }
                      ],
                      "name": "signature",
                      "type": "tuple"
                    }
                  ],
                  "name": "operator",
                  "type": "tuple"
                }
              ],
              "name": "seals",
              "type": "tuple"
            },
            {
              "name": "blockNumber",
              "type": "uint256"
            },
            {
              "name": "operatorId",
              "type": "uint256"
            }
          ],
          "name": "order",
          "type": "tuple"
        }
      ],
      "name": "challengeByOrder",
      "outputs": [],
      "payable": false,
      "stateMutability": "nonpayable",
      "type": "function"
    },
    {
      "constant": false,
      "inputs": [
        {
          "components": [
            {
              "name": "nonce",
              "type": "uint256"
            },
            {
              "name": "wallet",
              "type": "address"
            },
            {
              "components": [
                {
                  "name": "intention",
                  "type": "uint8"
                },
                {
                  "name": "amount",
                  "type": "int256"
                },
                {
                  "components": [
                    {
                      "components": [
                        {
                          "name": "ct",
                          "type": "address"
                        },
                        {
                          "name": "id",
                          "type": "uint256"
                        }
                      ],
                      "name": "intended",
                      "type": "tuple"
                    },
                    {
                      "components": [
                        {
                          "name": "ct",
                          "type": "address"
                        },
                        {
                          "name": "id",
                          "type": "uint256"
                        }
                      ],
                      "name": "conjugate",
                      "type": "tuple"
                    }
                  ],
                  "name": "currencies",
                  "type": "tuple"
                },
                {
                  "name": "rate",
                  "type": "int256"
                },
                {
                  "components": [
                    {
                      "name": "current",
                      "type": "int256"
                    },
                    {
                      "name": "previous",
                      "type": "int256"
                    }
                  ],
                  "name": "residuals",
                  "type": "tuple"
                }
              ],
              "name": "placement",
              "type": "tuple"
            },
            {
              "components": [
                {
                  "components": [
                    {
                      "name": "hash",
                      "type": "bytes32"
                    },
                    {
                      "components": [
                        {
                          "name": "r",
                          "type": "bytes32"
                        },
                        {
                          "name": "s",
                          "type": "bytes32"
                        },
                        {
                          "name": "v",
                          "type": "uint8"
                        }
                      ],
                      "name": "signature",
                      "type": "tuple"
                    }
                  ],
                  "name": "wallet",
                  "type": "tuple"
                },
                {
                  "components": [
                    {
                      "name": "hash",
                      "type": "bytes32"
                    },
                    {
                      "components": [
                        {
                          "name": "r",
                          "type": "bytes32"
                        },
                        {
                          "name": "s",
                          "type": "bytes32"
                        },
                        {
                          "name": "v",
                          "type": "uint8"
                        }
                      ],
                      "name": "signature",
                      "type": "tuple"
                    }
                  ],
                  "name": "operator",
                  "type": "tuple"
                }
              ],
              "name": "seals",
              "type": "tuple"
            },
            {
              "name": "blockNumber",
              "type": "uint256"
            },
            {
              "name": "operatorId",
              "type": "uint256"
            }
          ],
          "name": "order",
          "type": "tuple"
        },
        {
          "components": [
            {
              "name": "nonce",
              "type": "uint256"
            },
            {
              "name": "amount",
              "type": "int256"
            },
            {
              "components": [
                {
                  "components": [
                    {
                      "name": "ct",
                      "type": "address"
                    },
                    {
                      "name": "id",
                      "type": "uint256"
                    }
                  ],
                  "name": "intended",
                  "type": "tuple"
                },
                {
                  "components": [
                    {
                      "name": "ct",
                      "type": "address"
                    },
                    {
                      "name": "id",
                      "type": "uint256"
                    }
                  ],
                  "name": "conjugate",
                  "type": "tuple"
                }
              ],
              "name": "currencies",
              "type": "tuple"
            },
            {
              "name": "rate",
              "type": "int256"
            },
            {
              "components": [
                {
                  "name": "nonce",
                  "type": "uint256"
                },
                {
                  "name": "wallet",
                  "type": "address"
                },
                {
                  "name": "rollingVolume",
                  "type": "uint256"
                },
                {
                  "name": "liquidityRole",
                  "type": "uint8"
                },
                {
                  "components": [
                    {
                      "name": "amount",
                      "type": "int256"
                    },
                    {
                      "components": [
                        {
                          "name": "wallet",
                          "type": "bytes32"
                        },
                        {
                          "name": "operator",
                          "type": "bytes32"
                        }
                      ],
                      "name": "hashes",
                      "type": "tuple"
                    },
                    {
                      "components": [
                        {
                          "name": "current",
                          "type": "int256"
                        },
                        {
                          "name": "previous",
                          "type": "int256"
                        }
                      ],
                      "name": "residuals",
                      "type": "tuple"
                    }
                  ],
                  "name": "order",
                  "type": "tuple"
                },
                {
                  "components": [
                    {
                      "components": [
                        {
                          "name": "current",
                          "type": "int256"
                        },
                        {
                          "name": "previous",
                          "type": "int256"
                        }
                      ],
                      "name": "intended",
                      "type": "tuple"
                    },
                    {
                      "components": [
                        {
                          "name": "current",
                          "type": "int256"
                        },
                        {
                          "name": "previous",
                          "type": "int256"
                        }
                      ],
                      "name": "conjugate",
                      "type": "tuple"
                    }
                  ],
                  "name": "balances",
                  "type": "tuple"
                },
                {
                  "components": [
                    {
                      "components": [
                        {
                          "name": "amount",
                          "type": "int256"
                        },
                        {
                          "components": [
                            {
                              "name": "ct",
                              "type": "address"
                            },
                            {
                              "name": "id",
                              "type": "uint256"
                            }
                          ],
                          "name": "currency",
                          "type": "tuple"
                        }
                      ],
                      "name": "single",
                      "type": "tuple"
                    },
                    {
                      "components": [
                        {
                          "name": "originId",
                          "type": "uint256"
                        },
                        {
                          "components": [
                            {
                              "name": "amount",
                              "type": "int256"
                            },
                            {
                              "components": [
                                {
                                  "name": "ct",
                                  "type": "address"
                                },
                                {
                                  "name": "id",
                                  "type": "uint256"
                                }
                              ],
                              "name": "currency",
                              "type": "tuple"
                            }
                          ],
                          "name": "figure",
                          "type": "tuple"
                        }
                      ],
                      "name": "total",
                      "type": "tuple[]"
                    }
                  ],
                  "name": "fees",
                  "type": "tuple"
                }
              ],
              "name": "buyer",
              "type": "tuple"
            },
            {
              "components": [
                {
                  "name": "nonce",
                  "type": "uint256"
                },
                {
                  "name": "wallet",
                  "type": "address"
                },
                {
                  "name": "rollingVolume",
                  "type": "uint256"
                },
                {
                  "name": "liquidityRole",
                  "type": "uint8"
                },
                {
                  "components": [
                    {
                      "name": "amount",
                      "type": "int256"
                    },
                    {
                      "components": [
                        {
                          "name": "wallet",
                          "type": "bytes32"
                        },
                        {
                          "name": "operator",
                          "type": "bytes32"
                        }
                      ],
                      "name": "hashes",
                      "type": "tuple"
                    },
                    {
                      "components": [
                        {
                          "name": "current",
                          "type": "int256"
                        },
                        {
                          "name": "previous",
                          "type": "int256"
                        }
                      ],
                      "name": "residuals",
                      "type": "tuple"
                    }
                  ],
                  "name": "order",
                  "type": "tuple"
                },
                {
                  "components": [
                    {
                      "components": [
                        {
                          "name": "current",
                          "type": "int256"
                        },
                        {
                          "name": "previous",
                          "type": "int256"
                        }
                      ],
                      "name": "intended",
                      "type": "tuple"
                    },
                    {
                      "components": [
                        {
                          "name": "current",
                          "type": "int256"
                        },
                        {
                          "name": "previous",
                          "type": "int256"
                        }
                      ],
                      "name": "conjugate",
                      "type": "tuple"
                    }
                  ],
                  "name": "balances",
                  "type": "tuple"
                },
                {
                  "components": [
                    {
                      "components": [
                        {
                          "name": "amount",
                          "type": "int256"
                        },
                        {
                          "components": [
                            {
                              "name": "ct",
                              "type": "address"
                            },
                            {
                              "name": "id",
                              "type": "uint256"
                            }
                          ],
                          "name": "currency",
                          "type": "tuple"
                        }
                      ],
                      "name": "single",
                      "type": "tuple"
                    },
                    {
                      "components": [
                        {
                          "name": "originId",
                          "type": "uint256"
                        },
                        {
                          "components": [
                            {
                              "name": "amount",
                              "type": "int256"
                            },
                            {
                              "components": [
                                {
                                  "name": "ct",
                                  "type": "address"
                                },
                                {
                                  "name": "id",
                                  "type": "uint256"
                                }
                              ],
                              "name": "currency",
                              "type": "tuple"
                            }
                          ],
                          "name": "figure",
                          "type": "tuple"
                        }
                      ],
                      "name": "total",
                      "type": "tuple[]"
                    }
                  ],
                  "name": "fees",
                  "type": "tuple"
                }
              ],
              "name": "seller",
              "type": "tuple"
            },
            {
              "components": [
                {
                  "components": [
                    {
                      "name": "single",
                      "type": "int256"
                    },
                    {
                      "name": "total",
                      "type": "int256"
                    }
                  ],
                  "name": "intended",
                  "type": "tuple"
                },
                {
                  "components": [
                    {
                      "name": "single",
                      "type": "int256"
                    },
                    {
                      "name": "total",
                      "type": "int256"
                    }
                  ],
                  "name": "conjugate",
                  "type": "tuple"
                }
              ],
              "name": "transfers",
              "type": "tuple"
            },
            {
              "components": [
                {
                  "name": "hash",
                  "type": "bytes32"
                },
                {
                  "components": [
                    {
                      "name": "r",
                      "type": "bytes32"
                    },
                    {
                      "name": "s",
                      "type": "bytes32"
                    },
                    {
                      "name": "v",
                      "type": "uint8"
                    }
                  ],
                  "name": "signature",
                  "type": "tuple"
                }
              ],
              "name": "seal",
              "type": "tuple"
            },
            {
              "name": "blockNumber",
              "type": "uint256"
            },
            {
              "name": "operatorId",
              "type": "uint256"
            }
          ],
          "name": "trade",
          "type": "tuple"
        }
      ],
      "name": "unchallengeOrderCandidateByTrade",
      "outputs": [],
      "payable": false,
      "stateMutability": "nonpayable",
      "type": "function"
    },
    {
      "constant": false,
      "inputs": [
        {
          "name": "wallet",
          "type": "address"
        },
        {
          "components": [
            {
              "name": "nonce",
              "type": "uint256"
            },
            {
              "name": "amount",
              "type": "int256"
            },
            {
              "components": [
                {
                  "components": [
                    {
                      "name": "ct",
                      "type": "address"
                    },
                    {
                      "name": "id",
                      "type": "uint256"
                    }
                  ],
                  "name": "intended",
                  "type": "tuple"
                },
                {
                  "components": [
                    {
                      "name": "ct",
                      "type": "address"
                    },
                    {
                      "name": "id",
                      "type": "uint256"
                    }
                  ],
                  "name": "conjugate",
                  "type": "tuple"
                }
              ],
              "name": "currencies",
              "type": "tuple"
            },
            {
              "name": "rate",
              "type": "int256"
            },
            {
              "components": [
                {
                  "name": "nonce",
                  "type": "uint256"
                },
                {
                  "name": "wallet",
                  "type": "address"
                },
                {
                  "name": "rollingVolume",
                  "type": "uint256"
                },
                {
                  "name": "liquidityRole",
                  "type": "uint8"
                },
                {
                  "components": [
                    {
                      "name": "amount",
                      "type": "int256"
                    },
                    {
                      "components": [
                        {
                          "name": "wallet",
                          "type": "bytes32"
                        },
                        {
                          "name": "operator",
                          "type": "bytes32"
                        }
                      ],
                      "name": "hashes",
                      "type": "tuple"
                    },
                    {
                      "components": [
                        {
                          "name": "current",
                          "type": "int256"
                        },
                        {
                          "name": "previous",
                          "type": "int256"
                        }
                      ],
                      "name": "residuals",
                      "type": "tuple"
                    }
                  ],
                  "name": "order",
                  "type": "tuple"
                },
                {
                  "components": [
                    {
                      "components": [
                        {
                          "name": "current",
                          "type": "int256"
                        },
                        {
                          "name": "previous",
                          "type": "int256"
                        }
                      ],
                      "name": "intended",
                      "type": "tuple"
                    },
                    {
                      "components": [
                        {
                          "name": "current",
                          "type": "int256"
                        },
                        {
                          "name": "previous",
                          "type": "int256"
                        }
                      ],
                      "name": "conjugate",
                      "type": "tuple"
                    }
                  ],
                  "name": "balances",
                  "type": "tuple"
                },
                {
                  "components": [
                    {
                      "components": [
                        {
                          "name": "amount",
                          "type": "int256"
                        },
                        {
                          "components": [
                            {
                              "name": "ct",
                              "type": "address"
                            },
                            {
                              "name": "id",
                              "type": "uint256"
                            }
                          ],
                          "name": "currency",
                          "type": "tuple"
                        }
                      ],
                      "name": "single",
                      "type": "tuple"
                    },
                    {
                      "components": [
                        {
                          "name": "originId",
                          "type": "uint256"
                        },
                        {
                          "components": [
                            {
                              "name": "amount",
                              "type": "int256"
                            },
                            {
                              "components": [
                                {
                                  "name": "ct",
                                  "type": "address"
                                },
                                {
                                  "name": "id",
                                  "type": "uint256"
                                }
                              ],
                              "name": "currency",
                              "type": "tuple"
                            }
                          ],
                          "name": "figure",
                          "type": "tuple"
                        }
                      ],
                      "name": "total",
                      "type": "tuple[]"
                    }
                  ],
                  "name": "fees",
                  "type": "tuple"
                }
              ],
              "name": "buyer",
              "type": "tuple"
            },
            {
              "components": [
                {
                  "name": "nonce",
                  "type": "uint256"
                },
                {
                  "name": "wallet",
                  "type": "address"
                },
                {
                  "name": "rollingVolume",
                  "type": "uint256"
                },
                {
                  "name": "liquidityRole",
                  "type": "uint8"
                },
                {
                  "components": [
                    {
                      "name": "amount",
                      "type": "int256"
                    },
                    {
                      "components": [
                        {
                          "name": "wallet",
                          "type": "bytes32"
                        },
                        {
                          "name": "operator",
                          "type": "bytes32"
                        }
                      ],
                      "name": "hashes",
                      "type": "tuple"
                    },
                    {
                      "components": [
                        {
                          "name": "current",
                          "type": "int256"
                        },
                        {
                          "name": "previous",
                          "type": "int256"
                        }
                      ],
                      "name": "residuals",
                      "type": "tuple"
                    }
                  ],
                  "name": "order",
                  "type": "tuple"
                },
                {
                  "components": [
                    {
                      "components": [
                        {
                          "name": "current",
                          "type": "int256"
                        },
                        {
                          "name": "previous",
                          "type": "int256"
                        }
                      ],
                      "name": "intended",
                      "type": "tuple"
                    },
                    {
                      "components": [
                        {
                          "name": "current",
                          "type": "int256"
                        },
                        {
                          "name": "previous",
                          "type": "int256"
                        }
                      ],
                      "name": "conjugate",
                      "type": "tuple"
                    }
                  ],
                  "name": "balances",
                  "type": "tuple"
                },
                {
                  "components": [
                    {
                      "components": [
                        {
                          "name": "amount",
                          "type": "int256"
                        },
                        {
                          "components": [
                            {
                              "name": "ct",
                              "type": "address"
                            },
                            {
                              "name": "id",
                              "type": "uint256"
                            }
                          ],
                          "name": "currency",
                          "type": "tuple"
                        }
                      ],
                      "name": "single",
                      "type": "tuple"
                    },
                    {
                      "components": [
                        {
                          "name": "originId",
                          "type": "uint256"
                        },
                        {
                          "components": [
                            {
                              "name": "amount",
                              "type": "int256"
                            },
                            {
                              "components": [
                                {
                                  "name": "ct",
                                  "type": "address"
                                },
                                {
                                  "name": "id",
                                  "type": "uint256"
                                }
                              ],
                              "name": "currency",
                              "type": "tuple"
                            }
                          ],
                          "name": "figure",
                          "type": "tuple"
                        }
                      ],
                      "name": "total",
                      "type": "tuple[]"
                    }
                  ],
                  "name": "fees",
                  "type": "tuple"
                }
              ],
              "name": "seller",
              "type": "tuple"
            },
            {
              "components": [
                {
                  "components": [
                    {
                      "name": "single",
                      "type": "int256"
                    },
                    {
                      "name": "total",
                      "type": "int256"
                    }
                  ],
                  "name": "intended",
                  "type": "tuple"
                },
                {
                  "components": [
                    {
                      "name": "single",
                      "type": "int256"
                    },
                    {
                      "name": "total",
                      "type": "int256"
                    }
                  ],
                  "name": "conjugate",
                  "type": "tuple"
                }
              ],
              "name": "transfers",
              "type": "tuple"
            },
            {
              "components": [
                {
                  "name": "hash",
                  "type": "bytes32"
                },
                {
                  "components": [
                    {
                      "name": "r",
                      "type": "bytes32"
                    },
                    {
                      "name": "s",
                      "type": "bytes32"
                    },
                    {
                      "name": "v",
                      "type": "uint8"
                    }
                  ],
                  "name": "signature",
                  "type": "tuple"
                }
              ],
              "name": "seal",
              "type": "tuple"
            },
            {
              "name": "blockNumber",
              "type": "uint256"
            },
            {
              "name": "operatorId",
              "type": "uint256"
            }
          ],
          "name": "trade",
          "type": "tuple"
        }
      ],
      "name": "challengeByTrade",
      "outputs": [],
      "payable": false,
      "stateMutability": "nonpayable",
      "type": "function"
    },
    {
      "constant": false,
      "inputs": [
        {
          "name": "wallet",
          "type": "address"
        },
        {
          "components": [
            {
              "name": "nonce",
              "type": "uint256"
            },
            {
              "name": "amount",
              "type": "int256"
            },
            {
              "components": [
                {
                  "name": "ct",
                  "type": "address"
                },
                {
                  "name": "id",
                  "type": "uint256"
                }
              ],
              "name": "currency",
              "type": "tuple"
            },
            {
              "components": [
                {
                  "name": "nonce",
                  "type": "uint256"
                },
                {
                  "name": "wallet",
                  "type": "address"
                },
                {
                  "components": [
                    {
                      "name": "current",
                      "type": "int256"
                    },
                    {
                      "name": "previous",
                      "type": "int256"
                    }
                  ],
                  "name": "balances",
                  "type": "tuple"
                },
                {
                  "components": [
                    {
                      "components": [
                        {
                          "name": "amount",
                          "type": "int256"
                        },
                        {
                          "components": [
                            {
                              "name": "ct",
                              "type": "address"
                            },
                            {
                              "name": "id",
                              "type": "uint256"
                            }
                          ],
                          "name": "currency",
                          "type": "tuple"
                        }
                      ],
                      "name": "single",
                      "type": "tuple"
                    },
                    {
                      "components": [
                        {
                          "name": "originId",
                          "type": "uint256"
                        },
                        {
                          "components": [
                            {
                              "name": "amount",
                              "type": "int256"
                            },
                            {
                              "components": [
                                {
                                  "name": "ct",
                                  "type": "address"
                                },
                                {
                                  "name": "id",
                                  "type": "uint256"
                                }
                              ],
                              "name": "currency",
                              "type": "tuple"
                            }
                          ],
                          "name": "figure",
                          "type": "tuple"
                        }
                      ],
                      "name": "total",
                      "type": "tuple[]"
                    }
                  ],
                  "name": "fees",
                  "type": "tuple"
                }
              ],
              "name": "sender",
              "type": "tuple"
            },
            {
              "components": [
                {
                  "name": "nonce",
                  "type": "uint256"
                },
                {
                  "name": "wallet",
                  "type": "address"
                },
                {
                  "components": [
                    {
                      "name": "current",
                      "type": "int256"
                    },
                    {
                      "name": "previous",
                      "type": "int256"
                    }
                  ],
                  "name": "balances",
                  "type": "tuple"
                },
                {
                  "components": [
                    {
                      "components": [
                        {
                          "name": "originId",
                          "type": "uint256"
                        },
                        {
                          "components": [
                            {
                              "name": "amount",
                              "type": "int256"
                            },
                            {
                              "components": [
                                {
                                  "name": "ct",
                                  "type": "address"
                                },
                                {
                                  "name": "id",
                                  "type": "uint256"
                                }
                              ],
                              "name": "currency",
                              "type": "tuple"
                            }
                          ],
                          "name": "figure",
                          "type": "tuple"
                        }
                      ],
                      "name": "total",
                      "type": "tuple[]"
                    }
                  ],
                  "name": "fees",
                  "type": "tuple"
                }
              ],
              "name": "recipient",
              "type": "tuple"
            },
            {
              "components": [
                {
                  "name": "single",
                  "type": "int256"
                },
                {
                  "name": "total",
                  "type": "int256"
                }
              ],
              "name": "transfers",
              "type": "tuple"
            },
            {
              "components": [
                {
                  "components": [
                    {
                      "name": "hash",
                      "type": "bytes32"
                    },
                    {
                      "components": [
                        {
                          "name": "r",
                          "type": "bytes32"
                        },
                        {
                          "name": "s",
                          "type": "bytes32"
                        },
                        {
                          "name": "v",
                          "type": "uint8"
                        }
                      ],
                      "name": "signature",
                      "type": "tuple"
                    }
                  ],
                  "name": "wallet",
                  "type": "tuple"
                },
                {
                  "components": [
                    {
                      "name": "hash",
                      "type": "bytes32"
                    },
                    {
                      "components": [
                        {
                          "name": "r",
                          "type": "bytes32"
                        },
                        {
                          "name": "s",
                          "type": "bytes32"
                        },
                        {
                          "name": "v",
                          "type": "uint8"
                        }
                      ],
                      "name": "signature",
                      "type": "tuple"
                    }
                  ],
                  "name": "operator",
                  "type": "tuple"
                }
              ],
              "name": "seals",
              "type": "tuple"
            },
            {
              "name": "blockNumber",
              "type": "uint256"
            },
            {
              "name": "operatorId",
              "type": "uint256"
            }
          ],
          "name": "payment",
          "type": "tuple"
        }
      ],
      "name": "challengeByPayment",
      "outputs": [],
      "payable": false,
      "stateMutability": "nonpayable",
      "type": "function"
    },
    {
      "constant": true,
      "inputs": [],
      "name": "candidateHashesCount",
      "outputs": [
        {
          "name": "",
          "type": "uint256"
        }
      ],
      "payable": false,
      "stateMutability": "view",
      "type": "function"
    },
    {
      "constant": false,
      "inputs": [
        {
          "name": "wallet",
          "type": "address"
        }
      ],
      "name": "lockWallet",
      "outputs": [],
      "payable": false,
      "stateMutability": "nonpayable",
      "type": "function"
    },
    {
      "constant": true,
      "inputs": [
        {
          "name": "wallet",
          "type": "address"
        }
      ],
      "name": "isLockedWallet",
      "outputs": [
        {
          "name": "",
          "type": "bool"
        }
      ],
      "payable": false,
      "stateMutability": "view",
      "type": "function"
    },
    {
      "constant": false,
      "inputs": [
        {
          "name": "wallet",
          "type": "address"
        },
        {
          "name": "currencyCt",
          "type": "address"
        },
        {
          "name": "currencyId",
          "type": "uint256"
        },
        {
          "name": "candidateHash",
          "type": "bytes32"
        },
        {
          "name": "candidateType",
          "type": "uint8"
        },
        {
          "name": "challenger",
          "type": "address"
        }
      ],
      "name": "addDisqualification",
      "outputs": [],
      "payable": false,
      "stateMutability": "nonpayable",
      "type": "function"
    },
    {
      "constant": false,
      "inputs": [
        {
          "name": "wallet",
          "type": "address"
        },
        {
          "name": "currencyCt",
          "type": "address"
        },
        {
          "name": "currencyId",
          "type": "uint256"
        }
      ],
      "name": "removeDisqualification",
      "outputs": [],
      "payable": false,
      "stateMutability": "nonpayable",
      "type": "function"
    }
  ],
  "bytecode": "0x60806040523480156200001157600080fd5b5060405160208062004d998339810180604052620000339190810190620000b6565b8080600160a060020a03811615156200004b57600080fd5b600160a060020a0381163014156200006257600080fd5b506000805461010060a860020a031916610100600160a060020a039390931692830217905560018054600160a060020a031916909117905550620000eb565b6000620000af8251620000df565b9392505050565b600060208284031215620000c957600080fd5b6000620000d78484620000a1565b949350505050565b600160a060020a031690565b614c9e80620000fb6000396000f3006080604052600436106102dc5763ffffffff60e060020a600035041663013cf08b81146102e15780630712abb014610322578063077f9e0c1461034f5780630a9f46ad1461037c5780630fc842a11461039e57806310b01314146103cb5780631110f49a146103ed5780631327d3d81461040d578063169879291461042d578063176983a81461044d5780631a9caa021461046d5780631e4e550a146104825780632738a112146104a2578063278f25c2146104b7578063282c7b92146104d75780632d3aae3f146104ec5780632f013a001461050c578063311a937f146105215780633a5381b5146105415780633bebdcb5146105635780633c8be0f01461058357806342cb4587146105985780634476d23b146105b857806349c56d49146105cd5780635252358d146105ed57806352b1cd0c1461060d578063570ca7351461062d578063627f09c31461064257806363376c4a1461066257806366a6f36d146106825780636c70bee9146106a25780636d66a9ea146106b75780636e8e5600146106d757806370327ea1146106f75780637235b68b1461070c57806376cfd4f11461072c57806385ea5e021461074c57806390363c6f1461076c57806393dfe6251461078c57806396214735146107b9578063a4fc7859146107d9578063ac71d988146107f9578063ada072fb14610819578063afd742eb1461082e578063b13fd3711461084e578063b3ab15fb1461086e578063ba42ff311461088e578063bb327040146108ae578063be0a6e6b146108ce578063c41570bd146108ee578063cb0f433b1461090e578063cd5c4f5714610923578063cd808d9414610943578063cdbf941914610963578063d5f3948814610983578063d8ac023e14610998578063dd270200146109b8578063e74c81a2146109eb578063e769f40d14610a0b578063ebea2e5614610a2b578063ed8a829d14610a40578063f26a861e14610a60578063fb1a825e14610a75578063fca5192b14610a95575b600080fd5b3480156102ed57600080fd5b506103016102fc366004614219565b610ab5565b6040516103199c9b9a999897969594939291906149f0565b60405180910390f35b34801561032e57600080fd5b5061034261033d366004613e1f565b610b36565b6040516103199190614af6565b34801561035b57600080fd5b5061036f61036a366004613df9565b610ba4565b6040516103199190614aa3565b34801561038857600080fd5b50610391610bc1565b6040516103199190614ab1565b3480156103aa57600080fd5b506103be6103b9366004613e1f565b610bc8565b604051610319919061484c565b3480156103d757600080fd5b506103eb6103e6366004613e1f565b610c41565b005b3480156103f957600080fd5b506103eb610408366004614140565b610e65565b34801561041957600080fd5b506103eb610428366004614122565b610f64565b34801561043957600080fd5b50610391610448366004613e1f565b61100b565b34801561045957600080fd5b50610391610468366004613e1f565b611075565b34801561047957600080fd5b506103916110df565b34801561048e57600080fd5b5061039161049d366004614219565b6110e5565b3480156104ae57600080fd5b506103eb611104565b3480156104c357600080fd5b506103916104d2366004614219565b61116a565b3480156104e357600080fd5b50610391611178565b3480156104f857600080fd5b506103eb610507366004613ffa565b61117e565b34801561051857600080fd5b5061036f6111e9565b34801561052d57600080fd5b506103eb61053c36600461419c565b6111f2565b34801561054d57600080fd5b5061055661125b565b6040516103199190614abf565b34801561056f57600080fd5b5061036f61057e366004613e1f565b61126a565b34801561058f57600080fd5b50610391611301565b3480156105a457600080fd5b506103916105b3366004613e1f565b611307565b3480156105c457600080fd5b506103be611371565b3480156105d957600080fd5b506103eb6105e8366004614043565b611385565b3480156105f957600080fd5b5061036f610608366004613e1f565b611487565b34801561061957600080fd5b506103916106283660046140d4565b6114fa565b34801561063957600080fd5b506103be61152a565b34801561064e57600080fd5b506103eb61065d366004614122565b611539565b34801561066e57600080fd5b5061039161067d366004614219565b6115d1565b34801561068e57600080fd5b5061039161069d366004613e1f565b6115df565b3480156106ae57600080fd5b50610556611602565b3480156106c357600080fd5b506103916106d2366004613df9565b611611565b3480156106e357600080fd5b506103eb6106f2366004614122565b61162c565b34801561070357600080fd5b506103eb6116b0565b34801561071857600080fd5b506103eb61072736600461408a565b611713565b34801561073857600080fd5b506103be610747366004614219565b61177e565b34801561075857600080fd5b506103eb610767366004613ef3565b6117a6565b34801561077857600080fd5b506103916107873660046140d4565b611840565b34801561079857600080fd5b506107ac6107a7366004613e1f565b61185b565b6040516103199190614ae8565b3480156107c557600080fd5b506103eb6107d4366004613df9565b6118c9565b3480156107e557600080fd5b506103eb6107f4366004613f54565b611987565b34801561080557600080fd5b50610391610814366004613e1f565b611a0b565b34801561082557600080fd5b50610391611a75565b34801561083a57600080fd5b506103eb6108493660046141d1565b611a7b565b34801561085a57600080fd5b506103eb610869366004613e6c565b611ad7565b34801561087a57600080fd5b506103eb610889366004613df9565b611d52565b34801561089a57600080fd5b506103916108a9366004613e1f565b611dfc565b3480156108ba57600080fd5b506103916108c9366004613df9565b611e1f565b3480156108da57600080fd5b506103eb6108e936600461415f565b611e3a565b3480156108fa57600080fd5b506103be610909366004614219565b611f05565b34801561091a57600080fd5b50610556611f13565b34801561092f57600080fd5b5061034261093e366004613e1f565b611f22565b34801561094f57600080fd5b506103eb61095e366004613df9565b611f90565b34801561096f57600080fd5b5061039161097e366004613e1f565b6120d6565b34801561098f57600080fd5b506103be612140565b3480156109a457600080fd5b506103916109b33660046140d4565b612154565b3480156109c457600080fd5b506109d86109d3366004614219565b61216f565b6040516103199796959493929190614988565b3480156109f757600080fd5b5061036f610a06366004613df9565b6121cd565b348015610a1757600080fd5b50610391610a26366004613df9565b6121e2565b348015610a3757600080fd5b506103916121f4565b348015610a4c57600080fd5b506103eb610a5b366004613fa9565b6121fa565b348015610a6c57600080fd5b506103916122c6565b348015610a8157600080fd5b50610391610a90366004613e1f565b6122cc565b348015610aa157600080fd5b50610391610ab0366004613e1f565b612336565b600a805482908110610ac357fe5b60009182526020909120600a90910201805460018201546002830154600384015460048501546005860154600687015460078801546008890154600990990154600160a060020a039889169a5096989597949660ff8086169761010096879004909716969495939492938282169204168c565b600160a060020a038084166000908152600b602090815260408083209386168352928152828220848352905290812054801515610b7257600080fd5b600a80546000198301908110610b8457fe5b60009182526020909120600a909102016004015460ff1695945050505050565b600160a060020a0316600090815260096020526040902054421090565b600a545b90565b600160a060020a038084166000908152600e602090815260408083209386168352928152828220848352905290812054801515610c0457600080fd5b600d80546000198301908110610c1657fe5b60009182526020909120600690910201600501546101009004600160a060020a031695945050505050565b600454600090600160a060020a03163314610c5b57600080fd5b50600160a060020a038084166000908152600e602090815260408083209386168352928152828220848352905290812054908111610c9857600080fd5b600d54811015610e1d57600d80546000198101908110610cb457fe5b9060005260206000209060060201600d60018303815481101515610cd457fe5b6000918252602090912082546006909202018054600160a060020a0319908116600160a060020a03938416178255600180850154818401556002808601549084018054909316941693909317905560038084015481830155600480850154908301556005808501549083018054939460ff90921693909260ff1990911691908490811115610d5e57fe5b02179055506005918201549101805461010060a860020a03191661010092839004600160a060020a0390811690930217905584166000908152600e60205260408120600d8054849391906000198501908110610db657fe5b6000918252602080832060026006909302019190910154600160a060020a031683528201929092526040018120600d80549192916000198601908110610df857fe5b9060005260206000209060060201600301548152602001908152602001600020819055505b600d805490610e309060001983016133d2565b5050600160a060020a039283166000908152600e60209081526040808320949095168252928352838120918152915290812055565b600260009054906101000a9004600160a060020a0316600160a060020a031663f71e860f6040518163ffffffff1660e060020a028152600401602060405180830381600087803b158015610eb857600080fd5b505af1158015610ecc573d6000803e3d6000fd5b505050506040513d601f19601f82011682018060405250610ef09190810190614104565b1515610efb57600080fd5b6004805460405160e060020a638eed8359028152600160a060020a0390911691638eed835991610f2f918591339101614b04565b600060405180830381600087803b158015610f4957600080fd5b505af1158015610f5d573d6000803e3d6000fd5b5050505050565b6000610f6e6123a0565b1515610f7957600080fd5b81600160a060020a0381161515610f8f57600080fd5b6003548390600160a060020a039081169082168114610f5d5760038054600160a060020a03878116600160a060020a0319831617909255604051911694507f1882af944a16549c3d4f60e3cd26f158b0c7aac3222cf32971fc21375ce05f6090610ffc9086908890614acd565b60405180910390a15050505050565b600160a060020a038084166000908152600b60209081526040808320938616835292815282822084835290529081205480151561104757600080fd5b600a8054600019830190811061105957fe5b90600052602060002090600a0201600701549150509392505050565b600160a060020a038084166000908152600b6020908152604080832093861683529281528282208483529052908120548015156110b157600080fd5b600a805460001983019081106110c357fe5b90600052602060002090600a0201600801549150509392505050565b60055490565b60118054829081106110f357fe5b600091825260209091200154905081565b3361110d611371565b600160a060020a03161461112057600080fd5b60005460ff161561113057600080fd5b7f787a5d936e74f4b564b9153575886059829c78cd9927b1be5e0d976b317ef7363360405161115f919061484c565b60405180910390a133ff5b600f8054829081106110f357fe5b600d5490565b6111866123b6565b151561119157600080fd5b61119e83838360006123c7565b60c082015160200151516040517f6d94b3aed7642f72cda497a37ad55b99c7d30002cbb67b058b558b2a92a4623d916111dc91339187918690614875565b60405180910390a1505050565b60005460ff1681565b6111fb33610ba4565b1561120557600080fd5b61121233838360016123c7565b60c082015160200151516040517f557f56c08862b8255911d43ddbdd429111241d48fd17bf432d41a6ae58ade7d39161124f9133919085906148f6565b60405180910390a15050565b600354600160a060020a031681565b600160a060020a038084166000908152600b6020908152604080832093861683529281528282208483529052908120548015806112ca5750600a805460001983019081106112b457fe5b90600052602060002090600a0201600101546000145b806112f85750600a805460001983019081106112e257fe5b90600052602060002090600a0201600301544210155b95945050505050565b60115490565b600160a060020a038084166000908152600b60209081526040808320938616835292815282822084835290529081205480151561134357600080fd5b600a8054600019830190811061135557fe5b90600052602060002090600a0201600601549150509392505050565b6000546101009004600160a060020a031690565b600260009054906101000a9004600160a060020a0316600160a060020a031663f71e860f6040518163ffffffff1660e060020a028152600401602060405180830381600087803b1580156113d857600080fd5b505af11580156113ec573d6000803e3d6000fd5b505050506040513d601f19601f820116820180604052506114109190810190614104565b151561141b57600080fd5b6004805460405160e060020a6392272607028152600160a060020a03909116916392272607916114519186918691339101614968565b600060405180830381600087803b15801561146b57600080fd5b505af115801561147f573d6000803e3d6000fd5b505050505050565b600160a060020a038084166000908152600b6020908152604080832093861683529281528282208483529052908120548015156114c357600080fd5b600a805460001983019081106114d557fe5b60009182526020909120600a9091020160090154610100900460ff1695945050505050565b60106020528160005260406000208181548110151561151557fe5b90600052602060002001600091509150505481565b600154600160a060020a031681565b60006115436123a0565b151561154e57600080fd5b81600160a060020a038116151561156457600080fd5b6002548390600160a060020a039081169082168114610f5d5760028054600160a060020a03878116600160a060020a0319831617909255604051911694507f634f61bf00e14adedce330c80c2823e16e184f189ebe853e1ddecc4a268477ff90610ffc9086908890614acd565b60138054829081106110f357fe5b600b60209081526000938452604080852082529284528284209052825290205481565b600254600160a060020a031681565b600160a060020a031660009081526012602052604090205490565b60006116366123a0565b151561164157600080fd5b81600160a060020a038116151561165757600080fd5b60048054600160a060020a03858116600160a060020a03198316179283905560405191811694507f9873fbb7f672f15a890bdae14e1c20df26d321d27306ea9151bf80ce80266d3b926111dc9286929190911690614acd565b336116b9611371565b600160a060020a0316146116cc57600080fd5b6000805460ff191660011790556040517fd5a2a04a775c741c2ca0dc46ea7ce4835190e1aaf1ca018def0e82568ec336169061170990339061484c565b60405180910390a1565b61171b6123b6565b151561172657600080fd5b611734848484846000612625565b60e0830151516040517f0a6b525565da0cbced0dcf4a83758b063ce5e7238f632cab9b5cf4d30108e1c2916117709133918891879087906148aa565b60405180910390a150505050565b600580548290811061178c57fe5b600091825260209091200154600160a060020a0316905081565b600454600090600160a060020a031633146117c057600080fd5b50600160a060020a038085166000908152600b602090815260408083209387168352928152828220858352905220548015156117fb57600080fd5b81600a6001830381548110151561180e57fe5b600091825260209091206004600a9092020101805460ff19166001838181111561183457fe5b02179055505050505050565b600c6020528160005260406000208181548110151561151557fe5b600160a060020a038084166000908152600e60209081526040808320938616835292815282822084835290529081205480151561189757600080fd5b600d805460001983019081106118a957fe5b600091825260209091206006909102016005015460ff1695945050505050565b60006118d36123a0565b15156118de57600080fd5b81600160a060020a03811615156118f457600080fd5b600160a060020a03811630141561190a57600080fd5b600054600160a060020a0384811661010090920416146119825760008054600160a060020a0385811661010090810261010060a860020a0319841617909355604051929091041692507f977e5fa58e458501775e0008d275006294c5249e3c08d1d0e3a9f3acad14f6e4906111dc908490869061485a565b505050565b600454600090600160a060020a031633146119a157600080fd5b50600160a060020a038085166000908152600b602090815260408083209387168352928152828220858352905220548015156119dc57600080fd5b81600a600183038154811015156119ef57fe5b90600052602060002090600a0201600301819055505050505050565b600160a060020a038084166000908152600e602090815260408083209386168352928152828220848352905290812054801515611a4757600080fd5b600d80546000198301908110611a5957fe5b9060005260206000209060060201600401549150509392505050565b60135490565b611a8433610ba4565b15611a8e57600080fd5b611a9c338484846001612625565b60e0830151516040517f92fbfde4e67a0839d154cd36041dfd04992a08a0b09dfbf28e53ab646474bd29916111dc913391908690869061491e565b600454600090600160a060020a03163314611af157600080fd5b50600160a060020a038087166000908152600b60209081526040808320938916835292815282822087835290522054801515611b2c57600080fd5b600d805490611b3e90600183016133d2565b50600d80548891906000198101908110611b5457fe5b600091825260209091206006909102018054600160a060020a031916600160a060020a0392909216919091179055600a80546000198301908110611b9457fe5b600091825260209091206001600a909202010154600d80546000198101908110611bba57fe5b6000918252602090912060016006909202010155600d80548791906000198101908110611be357fe5b600091825260209091206006909102016002018054600160a060020a031916600160a060020a0392909216919091179055600d80548691906000198101908110611c2957fe5b6000918252602090912060036006909202010155600d80548591906000198101908110611c5257fe5b6000918252602090912060046006909202010155600d80548491906000198101908110611c7b57fe5b60009182526020909120600560069092020101805460ff19166001836003811115611ca257fe5b0217905550600d80548391906000198101908110611cbc57fe5b60009182526020808320600692909202909101600501805461010060a860020a031916610100600160a060020a0395861602179055600d549983168252600e8152604080832099909316825297885281812096815295909652505050918120929092556013805460018101825592527f66de8ffda797e3de9c05e8fc57b3bf0ec28a930d40b0d285d93c06501cf6a09090910155565b6000611d5c6123b6565b1515611d6757600080fd5b81600160a060020a0381161515611d7d57600080fd5b600160a060020a038116301415611d9357600080fd5b600154600160a060020a038481169116146119825760018054600160a060020a03858116600160a060020a0319831617909255604051911692507f9f611b789425d0d5b90b920f1b2852907dd865c80074a30b1629aaa041d1812c906111dc908490869061485a565b600e60209081526000938452604080852082529284528284209052825290205481565b600160a060020a031660009081526010602052604090205490565b600260009054906101000a9004600160a060020a0316600160a060020a031663f71e860f6040518163ffffffff1660e060020a028152600401602060405180830381600087803b158015611e8d57600080fd5b505af1158015611ea1573d6000803e3d6000fd5b505050506040513d601f19601f82011682018060405250611ec59190810190614104565b1515611ed057600080fd5b6004805460405160e360020a62c11527028152600160a060020a0390911691630608a938916114519186918691339101614b21565b600780548290811061178c57fe5b600454600160a060020a031681565b600160a060020a038084166000908152600b602090815260408083209386168352928152828220848352905290812054801515611f5e57600080fd5b600a80546000198301908110611f7057fe5b60009182526020909120600a909102016009015460ff1695945050505050565b600454600160a060020a03163314611fa757600080fd5b600160a060020a038116600090815260096020526040902054151561202a576007805460018082019092557fa66cc928b5edb82af9bd49922954155ab7b0942694bea4ce44661d9a8736c688018054600160a060020a031916600160a060020a0384169081179091556000908152600860205260409020805460ff191690911790555b6002546040805160e160020a6314f51fd502815290516120ba92600160a060020a0316916329ea3faa9160048083019260209291908290030181600087803b15801561207557600080fd5b505af1158015612089573d6000803e3d6000fd5b505050506040513d601f19601f820116820180604052506120ad9190810190614237565b429063ffffffff6128b316565b600160a060020a03909116600090815260096020526040902055565b600160a060020a038084166000908152600b60209081526040808320938616835292815282822084835290529081205480151561211257600080fd5b600a8054600019830190811061212457fe5b90600052602060002090600a0201600101549150509392505050565b6000546101009004600160a060020a031681565b60126020528160005260406000208181548110151561151557fe5b600d80548290811061217d57fe5b6000918252602090912060069091020180546001820154600283015460038401546004850154600590950154600160a060020a039485169650929491841693909260ff8116916101009091041687565b60086020526000908152604090205460ff1681565b60096020526000908152604090205481565b600f5490565b600260009054906101000a9004600160a060020a0316600160a060020a031663f71e860f6040518163ffffffff1660e060020a028152600401602060405180830381600087803b15801561224d57600080fd5b505af1158015612261573d6000803e3d6000fd5b505050506040513d601f19601f820116820180604052506122859190810190614104565b151561229057600080fd5b6004805460405160e260020a631a49a0cb028152600160a060020a0390911691636926832c916114519186918691339101614939565b60075490565b600160a060020a038084166000908152600b60209081526040808320938616835292815282822084835290529081205480151561230857600080fd5b600a8054600019830190811061231a57fe5b90600052602060002090600a0201600301549150509392505050565b600160a060020a038084166000908152600b60209081526040808320938616835292815282822084835290529081205480151561237257600080fd5b600a8054600019830190811061238457fe5b90600052602060002090600a0201600201549150509392505050565b6000546101009004600160a060020a0316331490565b600154600160a060020a0316331490565b60035460405160e060020a63a865476b0281528491600160a060020a03169063a865476b906123fa908490600401614b53565b602060405180830381600087803b15801561241457600080fd5b505af1158015612428573d6000803e3d6000fd5b505050506040513d601f19601f8201168201806040525061244c9190810190614104565b151561245757600080fd5b600260009054906101000a9004600160a060020a0316600160a060020a031663b6bf41766040518163ffffffff1660e060020a028152600401602060405180830381600087803b1580156124aa57600080fd5b505af11580156124be573d6000803e3d6000fd5b505050506040513d601f19601f820116820180604052506124e29190810190614237565b4310156124ee57600080fd5b60035460405160e160020a635f1132b7028152600160a060020a039091169063be22656e906125239087908990600401614b64565b602060405180830381600087803b15801561253d57600080fd5b505af1158015612551573d6000803e3d6000fd5b505050506040513d601f19601f820116820180604052506125759190810190614104565b151561258057600080fd5b6040840151805160209091015161259891879161126a565b15156125a357600080fd5b6125af858585856128c9565b6125b885612d83565b50505060c001516020908101515160118054600181810183557f31ecc21a745e3968a04e9570e4425bc18fa8019c68028196b546d1669c200c6890910192909255600160a060020a0390931660009081526012835260408120935484549283018555938152919091200155565b60035460405160e160020a637211c8c70281528591600160a060020a03169063e423918e90612658908490600401614b84565b602060405180830381600087803b15801561267257600080fd5b505af1158015612686573d6000803e3d6000fd5b505050506040513d601f19601f820116820180604052506126aa9190810190614104565b15156126b557600080fd5b600260009054906101000a9004600160a060020a0316600160a060020a031663b6bf41766040518163ffffffff1660e060020a028152600401602060405180830381600087803b15801561270857600080fd5b505af115801561271c573d6000803e3d6000fd5b505050506040513d601f19601f820116820180604052506127409190810190614237565b43101561274c57600080fd5b60035460405160e160020a6303e149c3028152600160a060020a03909116906307c29386906127819088908a90600401614b95565b602060405180830381600087803b15801561279b57600080fd5b505af11580156127af573d6000803e3d6000fd5b505050506040513d601f19601f820116820180604052506127d39190810190614104565b15156127de57600080fd5b60408501515180516020909101516127f791889161126a565b151561280257600080fd5b6040850151602090810151805191015161281d91889161126a565b151561282857600080fd5b61283486868685612e0e565b61284086868585612ed0565b61284986612d83565b5050505060e0015151600f8054600180820183557f8d1108e10bcb7c27dddfc02ed9d693a074039d026cf4ea4240b40f7d581ac80290910192909255600160a060020a03929092166000908152601060209081526040822093548454938401855593825290200155565b6000828201838110156128c257fe5b9392505050565b60405160e060020a636b84d93102815260009073__SafeMathIntLib________________________90636b84d93190612906908690600401614ab1565b60206040518083038186803b15801561291e57600080fd5b505af4158015612932573d6000803e3d6000fd5b505050506040513d601f19601f820116820180604052506129569190810190614104565b151561296157600080fd5b60035460405160e060020a63ef04ec95028152600160a060020a039091169063ef04ec95906129969087908990600401614b64565b602060405180830381600087803b1580156129b057600080fd5b505af11580156129c4573d6000803e3d6000fd5b505050506040513d601f19601f820116820180604052506129e89190810190614104565b6129fb5760808401516040015151612a06565b606084015160400151515b905082811215612a1557600080fd5b600a805490612a2790600183016133fe565b50600a80548691906000198101908110612a3d57fe5b60009182526020909120600a918202018054600160a060020a031916600160a060020a039390931692909217909155845181549091906000198101908110612a8157fe5b90600052602060002090600a0201600101819055508360e00151600a6001600a8054905003815481101515612ab257fe5b90600052602060002090600a020160020181905550612b1d600260009054906101000a9004600160a060020a0316600160a060020a031663fbdfd8e76040518163ffffffff1660e060020a028152600401602060405180830381600087803b15801561207557600080fd5b600a80546000198101908110612b2f57fe5b90600052602060002090600a0201600301819055506000600a6001600a8054905003815481101515612b5d57fe5b600091825260209091206004600a9092020101805460ff191660018381811115612b8357fe5b0217905550604084015151600a80546000198101908110612ba057fe5b90600052602060002090600a020160040160016101000a815481600160a060020a030219169083600160a060020a03160217905550836040015160200151600a6001600a8054905003815481101515612bf557fe5b90600052602060002090600a02016005018190555082600a6001600a8054905003815481101515612c2257fe5b600091825260209091206006600a909202010155612c46818463ffffffff612f9516565b600a80546000198101908110612c5857fe5b90600052602060002090600a0201600701819055508360c001516020015160000151600a6001600a8054905003815481101515612c9157fe5b60009182526020909120600a91820201600801919091558054600191906000198101908110612cbc57fe5b600091825260209091206009600a9092020101805460ff191660018381811115612ce257fe5b0217905550600a80548391906000198101908110612cfc57fe5b60009182526020808320600a92830201600901805461ff001916610100951515959095029490941790935554600160a060020a03978816808352600b84526040808420988101805151909a16845297845287832098518401518352978352868220819055968152600c82529485208054600181018255908652942090930193909355505050565b600160a060020a03811660009081526006602052604090205460ff161515612e0b57600160a060020a0381166000818152600660205260408120805460ff191660019081179091556005805491820181559091527f036b6384b5eca791c62761152d0c79bb0604c104a5fb6f4eb0703f3154bb3db0018054600160a060020a03191690911790555b50565b60035460405160e060020a63059057d7028152612eca91869186918691600160a060020a039091169063059057d790612e4d9085908790600401614b95565b602060405180830381600087803b158015612e6757600080fd5b505af1158015612e7b573d6000803e3d6000fd5b505050506040513d601f19601f82011682018060405250612e9f9190810190614104565b612eb25760a08088015101515151612ebe565b608087015160a0015151515b60408801515186612fd6565b50505050565b60035460405160e060020a63059057d7028152612eca91869186918691600160a060020a039091169063059057d790612f0f9085908790600401614b95565b602060405180830381600087803b158015612f2957600080fd5b505af1158015612f3d573d6000803e3d6000fd5b505050506040513d601f19601f82011682018060405250612f619190810190614104565b612f775760a08088015101516020015151612f86565b608087015160a0015160200151515b87604001516020015186612fd6565b6000808212158015612fa957508282840313155b80612fc05750600082128015612fc0575082828403135b1515612fcb57600080fd5b508082035b92915050565b60405160e060020a636b84d93102815273__SafeMathIntLib________________________90636b84d93190613010908790600401614ab1565b60206040518083038186803b15801561302857600080fd5b505af415801561303c573d6000803e3d6000fd5b505050506040513d601f19601f820116820180604052506130609190810190614104565b151561306b57600080fd5b8383121561307857600080fd5b600a80549061308a90600183016133fe565b50600a805487919060001981019081106130a057fe5b60009182526020909120600a918202018054600160a060020a031916600160a060020a0393909316929092179091558551815490919060001981019081106130e457fe5b90600052602060002090600a020160010181905550846101000151600a6001600a805490500381548110151561311657fe5b90600052602060002090600a020160020181905550613181600260009054906101000a9004600160a060020a0316600160a060020a031663fbdfd8e76040518163ffffffff1660e060020a028152600401602060405180830381600087803b15801561207557600080fd5b600a8054600019810190811061319357fe5b90600052602060002090600a0201600301819055506000600a6001600a80549050038154811015156131c157fe5b600091825260209091206004600a9092020101805460ff1916600183818111156131e757fe5b02179055508151600a8054600019810190811061320057fe5b90600052602060002090600a020160040160016101000a815481600160a060020a030219169083600160a060020a031602179055508160200151600a6001600a805490500381548110151561325157fe5b90600052602060002090600a02016005018190555083600a6001600a805490500381548110151561327e57fe5b600091825260209091206006600a9092020101556132a2838563ffffffff612f9516565b600a805460001981019081106132b457fe5b90600052602060002090600a0201600701819055508460e0015160000151600a6001600a80549050038154811015156132e957fe5b600091825260208220600a91820201600801929092558154909190600019810190811061331257fe5b600091825260209091206009600a9092020101805460ff19166001838181111561333857fe5b0217905550600a8054829190600019810190811061335257fe5b60009182526020808320600a92830201600901805461ff001916610100951515959095029490941790935554600160a060020a03988916808352600b845260408084208751909b168452998452898320958401518352948352888220819055938152600c8252968720805460018101825590885296209095015550505050565b81548183558181111561198257600602816006028360005260206000209182019101611982919061342a565b81548183558181111561198257600a0281600a0283600052602060002091820191016119829190613487565b610bc591905b80821115613483578054600160a060020a03199081168255600060018301819055600283018054909216909155600382018190556004820155600581018054600160a860020a0319169055600601613430565b5090565b610bc591905b80821115613483578054600160a060020a03191681556000600182018190556002820181905560038201819055600482018054600160a860020a0319169055600582018190556006820181905560078201819055600882015560098101805461ffff19169055600a0161348d565b60006128c28235614bf6565b6000601f8201831361351857600080fd5b813561352b61352682614bcc565b614ba6565b9150818183526020840193506020810190508385608084028201111561355057600080fd5b60005b8381101561357e57816135668882613805565b84525060209092019160809190910190600101613553565b5050505092915050565b60006128c28251614c02565b60006128c28235610bc5565b60006128c28235614c25565b60006128c28235614c30565b60006128c28235614c3f565b6000604082840312156135d657600080fd5b6135e06040614ba6565b905060006135ee84846134fb565b82525060206135ff84848301613594565b60208301525092915050565b60006040828403121561361d57600080fd5b6136276040614ba6565b905060006135ee8484613594565b60006060828403121561364757600080fd5b6136516040614ba6565b9050600061365f8484613594565b82525060206135ff848483016135c4565b60006080828403121561368257600080fd5b61368c6040614ba6565b9050600061369a84846135c4565b82525060406135ff848483016135c4565b6000608082840312156136bd57600080fd5b6136c76040614ba6565b905060006136d5848461360b565b82525060406135ff8484830161360b565b600061012082840312156136f957600080fd5b61370360a0614ba6565b9050600061371184846135b8565b825250602061372284848301613594565b602083015250604061373684828501613670565b60408301525060c061374a84828501613594565b60608301525060e061375e8482850161360b565b60808301525092915050565b60006102a0828403121561377d57600080fd5b61378760c0614ba6565b905060006137958484613594565b82525060206137a6848483016134fb565b60208301525060406137ba848285016136e6565b6040830152506101606137cf84828501613da5565b6060830152506102606137e484828501613594565b6080830152506102806137f984828501613594565b60a08301525092915050565b60006080828403121561381757600080fd5b6138216040614ba6565b9050600061382f8484613594565b82525060206135ff84848301613635565b600060a0828403121561385257600080fd5b61385c6080614ba6565b9050600061386a8484613594565b825250602061387b848483016134fb565b602083015250604061388f8482850161360b565b60408301525060808201356001604060020a038111156138ae57600080fd5b6138ba84828501613b2a565b60608301525092915050565b600060a082840312156138d857600080fd5b6138e26080614ba6565b905060006138f08484613594565b8252506020613901848483016134fb565b60208301525060406139158482850161360b565b60408301525060808201356001604060020a0381111561393457600080fd5b6138ba84828501613ad8565b6000610240828403121561395357600080fd5b61395e610120614ba6565b9050600061396c8484613594565b825250602061397d84848301613594565b6020830152506040613991848285016135c4565b60408301525060808201356001604060020a038111156139b057600080fd5b6139bc848285016138c6565b60608301525060a08201356001604060020a038111156139db57600080fd5b6139e784828501613840565b60808301525060c06139fb8482850161360b565b60a083015250610100613a1084828501613da5565b60c083015250610200613a2584828501613594565b60e083015250610220613a3a84828501613594565b6101008301525092915050565b600060808284031215613a5957600080fd5b613a636040614ba6565b90506000613a718484613594565b82525060206135ff84848301600060608284031215613a8f57600080fd5b613a996060614ba6565b90506000613aa78484613594565b8252506020613ab884848301613594565b6020830152506040613acc84828501613ded565b60408301525092915050565b600060808284031215613aea57600080fd5b613af46040614ba6565b90506000613b028484613635565b82525060608201356001604060020a03811115613b1e57600080fd5b6135ff84828501613507565b600060208284031215613b3c57600080fd5b613b466020614ba6565b905081356001604060020a03811115613b5e57600080fd5b613b6a84828501613507565b82525092915050565b600060a08284031215613b8557600080fd5b613b8f6060614ba6565b90506000613b9d8484613594565b8252506020613bae8484830161360b565b6020830152506060613acc8482850161360b565b60006101c08284031215613bd557600080fd5b613bdf60e0614ba6565b90506000613bed8484613594565b8252506020613bfe848483016134fb565b6020830152506040613c1284828501613594565b6040830152506060613c26848285016135b8565b6060830152506080613c3a84828501613b73565b608083015250610120613c4f848285016136ab565b60a0830152506101a08201356001604060020a03811115613c6f57600080fd5b613c7b84828501613ad8565b60c08301525092915050565b60006102608284031215613c9a57600080fd5b613ca5610140614ba6565b90506000613cb38484613594565b8252506020613cc484848301613594565b6020830152506040613cd884828501613670565b60408301525060c0613cec84828501613594565b60608301525060e08201356001604060020a03811115613d0b57600080fd5b613d1784828501613bc2565b6080830152506101008201356001604060020a03811115613d3757600080fd5b613d4384828501613bc2565b60a083015250610120613d58848285016136ab565b60c0830152506101a0613d6d84828501613a47565b60e083015250610220613d8284828501613594565b61010083015250610240613d9884828501613594565b6101208301525092915050565b60006101008284031215613db857600080fd5b613dc26040614ba6565b90506000613dd08484613a47565b82525060806135ff84848301613a47565b60006128c28251610bc5565b60006128c28235614c1f565b600060208284031215613e0b57600080fd5b6000613e1784846134fb565b949350505050565b600080600060608486031215613e3457600080fd5b6000613e4086866134fb565b9350506020613e51868287016134fb565b9250506040613e6286828701613594565b9150509250925092565b60008060008060008060c08789031215613e8557600080fd5b6000613e9189896134fb565b9650506020613ea289828a016134fb565b9550506040613eb389828a01613594565b9450506060613ec489828a01613594565b9350506080613ed589828a016135ac565b92505060a0613ee689828a016134fb565b9150509295509295509295565b60008060008060808587031215613f0957600080fd5b6000613f1587876134fb565b9450506020613f26878288016134fb565b9350506040613f3787828801613594565b9250506060613f48878288016135b8565b91505092959194509250565b60008060008060808587031215613f6a57600080fd5b6000613f7687876134fb565b9450506020613f87878288016134fb565b9350506040613f9887828801613594565b9250506060613f4887828801613594565b60008060408385031215613fbc57600080fd5b6000613fc885856134fb565b92505060208301356001604060020a03811115613fe457600080fd5b613ff085828601613940565b9150509250929050565b60008060006060848603121561400f57600080fd5b600061401b86866134fb565b93505060208401356001604060020a0381111561403757600080fd5b613e5186828701613940565b6000806040838503121561405657600080fd5b600061406285856134fb565b92505060208301356001604060020a0381111561407e57600080fd5b613ff085828601613c87565b600080600080608085870312156140a057600080fd5b60006140ac87876134fb565b94505060208501356001604060020a038111156140c857600080fd5b613f8787828801613c87565b600080604083850312156140e757600080fd5b60006140f385856134fb565b9250506020613ff085828601613594565b60006020828403121561411657600080fd5b6000613e178484613588565b60006020828403121561413457600080fd5b6000613e1784846135a0565b60006102a0828403121561415357600080fd5b6000613e17848461376a565b6000806102c0838503121561417357600080fd5b600061417f858561376a565b9250506102a08301356001604060020a0381111561407e57600080fd5b600080604083850312156141af57600080fd5b82356001604060020a038111156141c557600080fd5b6140f385828601613940565b6000806000606084860312156141e657600080fd5b83356001604060020a038111156141fc57600080fd5b61420886828701613c87565b9350506020613e5186828701613594565b60006020828403121561422b57600080fd5b6000613e178484613594565b60006020828403121561424957600080fd5b6000613e178484613de1565b61425e81614bf6565b82525050565b600061426f82614bf2565b80845260208401935061428183614bec565b60005b828110156142b15761429786835161445b565b6142a082614bec565b608096909601959150600101614284565b5093949350505050565b61425e81614c02565b61425e81610bc5565b61425e81614c25565b61425e81614c4e565b61425e81614c59565b805160408301906142f98482614255565b506020820151612eca60208501826142c4565b805160408301906142f984826142c4565b8051606083019061432e84826142c4565b506020820151612eca60208501826142e8565b8051608083019061435284826142e8565b506020820151612eca60408501826142e8565b80516080830190614376848261430c565b506020820151612eca604085018261430c565b805161012083019061439b84826142df565b5060208201516143ae60208501826142c4565b5060408201516143c16040850182614341565b5060608201516143d460c08501826142c4565b506080820151612eca60e085018261430c565b80516102a08301906143f984826142c4565b50602082015161440c6020850182614255565b50604082015161441f6040850182614389565b50606082015161443361016085018261481e565b5060808201516144476102608501826142c4565b5060a0820151612eca6102808501826142c4565b8051608083019061446c84826142c4565b506020820151612eca602085018261431d565b805160009060a084019061449385826142c4565b5060208301516144a66020860182614255565b5060408301516144b9604086018261430c565b50606083015184820360808601526112f8828261466c565b805160009060a08401906144e585826142c4565b5060208301516144f86020860182614255565b50604083015161450b604086018261430c565b50606083015184820360808601526112f88282614640565b805160009061024084019061453885826142c4565b50602083015161454b60208601826142c4565b50604083015161455e60408601826142e8565b506060830151848203608086015261457682826144d1565b915050608083015184820360a0860152614590828261447f565b91505060a08301516145a560c086018261430c565b5060c08301516145b961010086018261481e565b5060e08301516145cd6102008601826142c4565b506101008301516145e26102208601826142c4565b509392505050565b805160808301906145fb84826142c4565b506020820151612eca60208501828051606083019061461a84826142c4565b50602082015161462d60208501826142c4565b506040820151612eca6040850182614843565b80516000906080840190614654858261431d565b50602083015184820360608601526112f88282614264565b80516020808452600091908401906112f88282614264565b805160a083019061469584826142c4565b5060208201516146a8602085018261430c565b506040820151612eca606085018261430c565b80516000906101c08401906146d085826142c4565b5060208301516146e36020860182614255565b5060408301516146f660408601826142c4565b50606083015161470960608601826142df565b50608083015161471c6080860182614684565b5060a0830151614730610120860182614365565b5060c08301518482036101a08601526112f88282614640565b805160009061026084019061475e85826142c4565b50602083015161477160208601826142c4565b5060408301516147846040860182614341565b50606083015161479760c08601826142c4565b50608083015184820360e08601526147af82826146bb565b91505060a08301518482036101008601526147ca82826146bb565b91505060c08301516147e0610120860182614365565b5060e08301516147f46101a08601826145ea565b506101008301516148096102208601826142c4565b506101208301516145e26102408601826142c4565b805161010083019061483084826145ea565b506020820151612eca60808501826145ea565b61425e81614c1f565b60208101612fd08284614255565b604081016148688285614255565b6128c26020830184614255565b608081016148838287614255565b6148906020830186614255565b61489d60408301856142c4565b6112f860608301846142c4565b60a081016148b88288614255565b6148c56020830187614255565b6148d260408301866142c4565b6148df60608301856142c4565b6148ec60808301846142c4565b9695505050505050565b606081016149048286614255565b61491160208301856142c4565b613e1760408301846142c4565b6080810161492c8287614255565b61489060208301866142c4565b606081016149478286614255565b81810360208301526149598185614523565b9050613e176040830184614255565b606081016149768286614255565b81810360208301526149598185614749565b60e08101614996828a614255565b6149a360208301896142c4565b6149b06040830188614255565b6149bd60608301876142c4565b6149ca60808301866142c4565b6149d760a08301856142d6565b6149e460c0830184614255565b98975050505050505050565b61018081016149ff828f614255565b614a0c602083018e6142c4565b614a19604083018d6142c4565b614a26606083018c6142c4565b614a33608083018b6142df565b614a4060a083018a614255565b614a4d60c08301896142c4565b614a5a60e08301886142c4565b614a686101008301876142c4565b614a766101208301866142c4565b614a846101408301856142df565b614a926101608301846142bb565b9d9c50505050505050505050505050565b60208101612fd082846142bb565b60208101612fd082846142c4565b60208101612fd082846142cd565b60408101614adb82856142cd565b6128c260208301846142cd565b60208101612fd082846142d6565b60208101612fd082846142df565b6102c08101614b1382856143e7565b6128c26102a0830184614255565b6102e08101614b3082866143e7565b8181036102a0830152614b438185614749565b9050613e176102c0830184614255565b602080825281016128c28184614523565b60408082528101614b758185614523565b90506128c26020830184614255565b602080825281016128c28184614749565b60408082528101614b758185614749565b6040518181016001604060020a0381118282101715614bc457600080fd5b604052919050565b60006001604060020a03821115614be257600080fd5b5060209081020190565b60200190565b5190565b600160a060020a031690565b151590565b60006004821061348357fe5b60006002821061348357fe5b60ff1690565b6000612fd082614bf6565b60006004821061348357600080fd5b60006002821061348357600080fd5b6000612fd082614c07565b6000612fd082614c135600a265627a7a723058205fa1b447b017d8f83696deae5965200c83c9e3a42777fafb649a5c8e8364e6206c6578706572696d656e74616cf50037",
  "source": "/*\n * Hubii Nahmii\n *\n * Compliant with the Hubii Nahmii specification v0.12.\n *\n * Copyright (C) 2017-2018 Hubii AS\n */\n\npragma solidity ^0.4.25;\npragma experimental ABIEncoderV2;\n\nimport {Ownable} from \"./Ownable.sol\";\nimport {Challenge} from \"./Challenge.sol\";\nimport {Validatable} from \"./Validatable.sol\";\nimport {SafeMathIntLib} from \"./SafeMathIntLib.sol\";\nimport {SafeMathUintLib} from \"./SafeMathUintLib.sol\";\nimport {DriipSettlementDispute} from \"./DriipSettlementDispute.sol\";\nimport {MonetaryTypesLib} from \"./MonetaryTypesLib.sol\";\nimport {NahmiiTypesLib} from \"./NahmiiTypesLib.sol\";\nimport {SettlementTypesLib} from \"./SettlementTypesLib.sol\";\n\n/**\n@title DriipSettlementChallenge\n@notice Where driip settlements are started and challenged\n*/\ncontract DriipSettlementChallenge is Ownable, Challenge, Validatable {\n    using SafeMathIntLib for int256;\n    using SafeMathUintLib for uint256;\n\n    //\n    // Variables\n    // -----------------------------------------------------------------------------------------------------------------\n    DriipSettlementDispute public driipSettlementDispute;\n\n    address[] public challengeWallets;\n    mapping(address => bool) challengeByWallets;\n\n    address[] public lockedWallets;\n    mapping(address => bool) public lockedByWallet;\n    mapping(address => uint) public unlockTimeByWallet;\n\n    SettlementTypesLib.Proposal[] public proposals;\n    mapping(address => mapping(address => mapping(uint256 => uint256))) public proposalIndexByWalletCurrency;\n    mapping(address => uint256[]) public proposalIndicesByWallet;\n\n    SettlementTypesLib.Disqualification[] public disqualifications;\n    mapping(address => mapping(address => mapping(uint256 => uint256))) public disqualificationIndexByWalletCurrency;\n\n    bytes32[] public challengeTradeHashes;\n    mapping(address => uint256[]) public challengeTradeHashIndicesByWallet;\n\n    bytes32[] public challengePaymentHashes;\n    mapping(address => uint256[]) public challengePaymentHashIndicesByWallet;\n\n    bytes32[] public candidateHashes;\n\n    //\n    // Events\n    // -----------------------------------------------------------------------------------------------------------------\n    event SetDriipSettlementDisputeEvent(DriipSettlementDispute oldDriipSettlementDispute,\n        DriipSettlementDispute newDriipSettlementDispute);\n    event StartChallengeFromTradeEvent(address wallet, bytes32 tradeHash,\n        int256 intendedStageAmount, int256 conjugateStageAmount);\n    event StartChallengeFromTradeByProxyEvent(address proxy, address wallet, bytes32 tradeHash,\n        int256 intendedStageAmount, int256 conjugateStageAmount);\n    event StartChallengeFromPaymentEvent(address wallet, bytes32 paymentHash, int256 stageAmount);\n    event StartChallengeFromPaymentByProxyEvent(address proxy, address wallet, bytes32 paymentHash,\n        int256 stageAmount);\n\n    //\n    // Constructor\n    // -----------------------------------------------------------------------------------------------------------------\n    constructor(address deployer) Ownable(deployer) public {\n    }\n\n    //\n    // Functions\n    // -----------------------------------------------------------------------------------------------------------------\n    /// @notice Set the settlement dispute contract\n    /// @param newDriipSettlementDispute The (address of) DriipSettlementDispute contract instance\n    function setDriipSettlementDispute(DriipSettlementDispute newDriipSettlementDispute)\n    public\n    onlyDeployer\n    notNullAddress(newDriipSettlementDispute)\n    {\n        DriipSettlementDispute oldDriipSettlementDispute = driipSettlementDispute;\n        driipSettlementDispute = newDriipSettlementDispute;\n        emit SetDriipSettlementDisputeEvent(oldDriipSettlementDispute, driipSettlementDispute);\n    }\n\n    /// @notice Get the number of challenge wallets, i.e. wallets that have started driip settlement challenge\n    /// @return The number of challenge wallets\n    function challengeWalletsCount()\n    public\n    view\n    returns (uint256)\n    {\n        return challengeWallets.length;\n    }\n\n    /// @notice Get the number of locked wallets, i.e. wallets whose driip settlement challenge has disqualified\n    /// @return The number of locked wallets\n    function lockedWalletsCount()\n    public\n    view\n    returns (uint256)\n    {\n        return lockedWallets.length;\n    }\n\n    /// @notice Get the number of proposals\n    /// @return The number of proposals\n    function proposalsCount()\n    public\n    view\n    returns (uint256)\n    {\n        return proposals.length;\n    }\n\n    /// @notice Get the number of challenges\n    /// @return The number of challenges\n    function disqualificationsCount()\n    public\n    view\n    returns (uint256)\n    {\n        return disqualifications.length;\n    }\n\n    /// @notice Get the number of challenged trade hashes\n    /// @return The count of challenged trade hashes\n    function challengeTradeHashesCount()\n    public\n    view\n    returns (uint256)\n    {\n        return challengeTradeHashes.length;\n    }\n\n    /// @notice Get the number of challenged payment hashes\n    /// @return The count of challenged payment hashes\n    function challengePaymentHashesCount()\n    public\n    view\n    returns (uint256)\n    {\n        return challengePaymentHashes.length;\n    }\n\n    /// @notice Get the number of current and past settlement challenges from trade for given wallet\n    /// @param wallet The wallet for which to return count\n    /// @return The count of settlement challenges from trade\n    function walletChallengeTradeHashIndicesCount(address wallet)\n    public\n    view\n    returns (uint256)\n    {\n        return challengeTradeHashIndicesByWallet[wallet].length;\n    }\n\n    /// @notice Get the number of current and past settlement challenges from payment for given wallet\n    /// @param wallet The wallet for which to return count\n    /// @return The count of settlement challenges from payment\n    function walletChallengePaymentHashIndicesCount(address wallet)\n    public\n    view\n    returns (uint256)\n    {\n        return challengePaymentHashIndicesByWallet[wallet].length;\n    }\n\n    /// @notice Start settlement challenge on trade\n    /// @param trade The challenged trade\n    /// @param intendedStageAmount Amount of intended currency to be staged\n    /// @param conjugateStageAmount Amount of conjugate currency to be staged\n    function startChallengeFromTrade(NahmiiTypesLib.Trade trade, int256 intendedStageAmount,\n        int256 conjugateStageAmount)\n    public\n    {\n        // Require that wallet is not temporarily disqualified\n        require(!isLockedWallet(msg.sender));\n\n        // Start challenge\n        _startChallengeFromTrade(msg.sender, trade, intendedStageAmount, conjugateStageAmount, true);\n\n        // Emit event\n        emit StartChallengeFromTradeEvent(msg.sender, trade.seal.hash, intendedStageAmount, conjugateStageAmount);\n    }\n\n    /// @notice Start settlement challenge on trade by proxy\n    /// @param wallet The concerned party\n    /// @param trade The challenged trade\n    /// @param intendedStageAmount Amount of intended currency to be staged\n    /// @param conjugateStageAmount Amount of conjugate currency to be staged\n    function startChallengeFromTradeByProxy(address wallet, NahmiiTypesLib.Trade trade, int256 intendedStageAmount,\n        int256 conjugateStageAmount)\n    public\n    onlyOperator\n    {\n        // Start challenge for wallet\n        _startChallengeFromTrade(wallet, trade, intendedStageAmount, conjugateStageAmount, false);\n\n        // Emit event\n        emit StartChallengeFromTradeByProxyEvent(msg.sender, wallet, trade.seal.hash, intendedStageAmount, conjugateStageAmount);\n    }\n\n    /// @notice Start settlement challenge on payment\n    /// @param payment The challenged payment\n    /// @param stageAmount Amount of payment currency to be staged\n    function startChallengeFromPayment(NahmiiTypesLib.Payment payment, int256 stageAmount)\n    public\n    {\n        // Require that wallet is not temporarily disqualified\n        require(!isLockedWallet(msg.sender));\n\n        // Start challenge for wallet\n        _startChallengeFromPayment(msg.sender, payment, stageAmount, true);\n\n        // Emit event\n        emit StartChallengeFromPaymentEvent(msg.sender, payment.seals.operator.hash, stageAmount);\n    }\n\n    /// @notice Start settlement challenge on payment\n    /// @param wallet The concerned party\n    /// @param payment The challenged payment\n    /// @param stageAmount Amount of payment currency to be staged\n    function startChallengeFromPaymentByProxy(address wallet, NahmiiTypesLib.Payment payment, int256 stageAmount)\n    public\n    onlyOperator\n    {\n        // Start challenge for wallet\n        _startChallengeFromPayment(wallet, payment, stageAmount, false);\n\n        // Emit event\n        emit StartChallengeFromPaymentByProxyEvent(msg.sender, wallet, payment.seals.operator.hash, stageAmount);\n    }\n\n    /// @notice Gauge whether the proposal for the given wallet and currency has expired\n    /// @param wallet The address of the concerned wallet\n    /// @param currencyCt The address of the concerned currency contract (address(0) == ETH)\n    /// @param currencyId The ID of the concerned currency (0 for ETH and ERC20)\n    /// @return true if proposal has expired, else false\n    function hasProposalExpired(address wallet, address currencyCt, uint256 currencyId)\n    public\n    view\n    returns (bool)\n    {\n        // 1-based index\n        uint256 index = proposalIndexByWalletCurrency[wallet][currencyCt][currencyId];\n        return (\n        0 == index ||\n        0 == proposals[index - 1].nonce ||\n        block.timestamp >= proposals[index - 1].expirationTime\n        );\n    }\n\n    /// @notice Get the challenge nonce of the given wallet\n    /// @param wallet The address of the concerned wallet\n    /// @param currencyCt The address of the concerned currency contract (address(0) == ETH)\n    /// @param currencyId The ID of the concerned currency (0 for ETH and ERC20)\n    /// @return The challenge nonce\n    function proposalNonce(address wallet, address currencyCt, uint256 currencyId)\n    public\n    view\n    returns (uint256)\n    {\n        uint256 index = proposalIndexByWalletCurrency[wallet][currencyCt][currencyId];\n        require(0 != index);\n        return proposals[index - 1].nonce;\n    }\n\n    /// @notice Get the settlement proposal block number of the given wallet\n    /// @param wallet The address of the concerned wallet\n    /// @param currencyCt The address of the concerned currency contract (address(0) == ETH)\n    /// @param currencyId The ID of the concerned currency (0 for ETH and ERC20)\n    /// @return The settlement proposal block number\n    function proposalBlockNumber(address wallet, address currencyCt, uint256 currencyId)\n    public\n    view\n    returns (uint256)\n    {\n        uint256 index = proposalIndexByWalletCurrency[wallet][currencyCt][currencyId];\n        require(0 != index);\n        return proposals[index - 1].blockNumber;\n    }\n\n    /// @notice Get the settlement proposal end time of the given wallet\n    /// @param wallet The address of the concerned wallet\n    /// @param currencyCt The address of the concerned currency contract (address(0) == ETH)\n    /// @param currencyId The ID of the concerned currency (0 for ETH and ERC20)\n    /// @return The settlement proposal end time\n    function proposalExpirationTime(address wallet, address currencyCt, uint256 currencyId)\n    public\n    view\n    returns (uint256)\n    {\n        uint256 index = proposalIndexByWalletCurrency[wallet][currencyCt][currencyId];\n        require(0 != index);\n        return proposals[index - 1].expirationTime;\n    }\n\n    /// @notice Get the challenge status of the given wallet\n    /// @param wallet The address of the concerned wallet\n    /// @param currencyCt The address of the concerned currency contract (address(0) == ETH)\n    /// @param currencyId The ID of the concerned currency (0 for ETH and ERC20)\n    /// @return The challenge status\n    function proposalStatus(address wallet, address currencyCt, uint256 currencyId)\n    public\n    view\n    returns (SettlementTypesLib.Status)\n    {\n        uint256 index = proposalIndexByWalletCurrency[wallet][currencyCt][currencyId];\n        require(0 != index);\n        return proposals[index - 1].status;\n    }\n\n    /// @notice Get the settlement proposal stage amount of the given wallet and currency\n    /// @param wallet The address of the concerned wallet\n    /// @param currencyCt The address of the concerned currency contract (address(0) == ETH)\n    /// @param currencyId The ID of the concerned currency (0 for ETH and ERC20)\n    /// @return The settlement proposal stage amount\n    function proposalStageAmount(address wallet, address currencyCt, uint256 currencyId)\n    public\n    view\n    returns (int256)\n    {\n        uint256 index = proposalIndexByWalletCurrency[wallet][currencyCt][currencyId];\n        require(0 != index);\n        return proposals[index - 1].stageAmount;\n    }\n\n    /// @notice Get the settlement proposal target balance amount of the given wallet and currency\n    /// @param wallet The address of the concerned wallet\n    /// @param currencyCt The address of the concerned currency contract (address(0) == ETH)\n    /// @param currencyId The ID of the concerned currency (0 for ETH and ERC20)\n    /// @return The settlement proposal target balance amount\n    function proposalTargetBalanceAmount(address wallet, address currencyCt, uint256 currencyId)\n    public\n    view\n    returns (int256)\n    {\n        uint256 index = proposalIndexByWalletCurrency[wallet][currencyCt][currencyId];\n        require(0 != index);\n        return proposals[index - 1].targetBalanceAmount;\n    }\n\n    /// @notice Get the settlement proposal driip hash of the given wallet and currency\n    /// @param wallet The address of the concerned wallet\n    /// @param currencyCt The address of the concerned currency contract (address(0) == ETH)\n    /// @param currencyId The ID of the concerned currency (0 for ETH and ERC20)\n    /// @return The settlement proposal driip hash\n    function proposalDriipHash(address wallet, address currencyCt, uint256 currencyId)\n    public\n    view\n    returns (bytes32)\n    {\n        uint256 index = proposalIndexByWalletCurrency[wallet][currencyCt][currencyId];\n        require(0 != index);\n        return proposals[index - 1].driipHash;\n    }\n\n    /// @notice Get the settlement proposal driip type of the given wallet and currency\n    /// @param wallet The address of the concerned wallet\n    /// @param currencyCt The address of the concerned currency contract (address(0) == ETH)\n    /// @param currencyId The ID of the concerned currency (0 for ETH and ERC20)\n    /// @return The settlement proposal driip type\n    function proposalDriipType(address wallet, address currencyCt, uint256 currencyId)\n    public\n    view\n    returns (NahmiiTypesLib.DriipType)\n    {\n        uint256 index = proposalIndexByWalletCurrency[wallet][currencyCt][currencyId];\n        require(0 != index);\n        return proposals[index - 1].driipType;\n    }\n\n    /// @notice Get the balance reward of the given wallet's settlement proposal\n    /// @param wallet The address of the concerned wallet\n    /// @param currencyCt The address of the concerned currency contract (address(0) == ETH)\n    /// @param currencyId The ID of the concerned currency (0 for ETH and ERC20)\n    /// @return The balance reward of the settlement proposal\n    function proposalBalanceReward(address wallet, address currencyCt, uint256 currencyId)\n    public\n    view\n    returns (bool)\n    {\n        uint256 index = proposalIndexByWalletCurrency[wallet][currencyCt][currencyId];\n        require(0 != index);\n        return proposals[index - 1].balanceReward;\n    }\n\n    /// @notice Get the disqualification candidate type of the given wallet and currency\n    /// @param wallet The address of the concerned wallet\n    /// @param currencyCt The address of the concerned currency contract (address(0) == ETH)\n    /// @param currencyId The ID of the concerned currency (0 for ETH and ERC20)\n    /// @return The candidate type of the settlement disqualification\n    function disqualificationCandidateType(address wallet, address currencyCt, uint256 currencyId)\n    public\n    view\n    returns (SettlementTypesLib.CandidateType)\n    {\n        uint256 index = disqualificationIndexByWalletCurrency[wallet][currencyCt][currencyId];\n        require(0 != index);\n        return disqualifications[index - 1].candidateType;\n    }\n\n    /// @notice Get the disqualification candidate hash of the given wallet and currency\n    /// @param wallet The address of the concerned wallet\n    /// @param currencyCt The address of the concerned currency contract (address(0) == ETH)\n    /// @param currencyId The ID of the concerned currency (0 for ETH and ERC20)\n    /// @return The candidate hash of the settlement disqualification\n    function disqualificationCandidateHash(address wallet, address currencyCt, uint256 currencyId)\n    public\n    view\n    returns (bytes32)\n    {\n        uint256 index = disqualificationIndexByWalletCurrency[wallet][currencyCt][currencyId];\n        require(0 != index);\n        return disqualifications[index - 1].candidateHash;\n    }\n\n    /// @notice Get the disqualification challenger of the given wallet and currency\n    /// @param wallet The address of the concerned wallet\n    /// @param currencyCt The address of the concerned currency contract (address(0) == ETH)\n    /// @param currencyId The ID of the concerned currency (0 for ETH and ERC20)\n    /// @return The challenger of the settlement disqualification\n    function disqualificationChallenger(address wallet, address currencyCt, uint256 currencyId)\n    public\n    view\n    returns (address)\n    {\n        uint256 index = disqualificationIndexByWalletCurrency[wallet][currencyCt][currencyId];\n        require(0 != index);\n        return disqualifications[index - 1].challenger;\n    }\n\n    /// @notice Set settlement proposal end time property of the given wallet\n    /// @dev This function can only be called by this contract's dispute instance\n    /// @param wallet The address of the concerned wallet\n    /// @param expirationTime The end time value\n    function setProposalExpirationTime(address wallet, address currencyCt, uint256 currencyId,\n        uint256 expirationTime)\n    public\n    onlyDriipSettlementDispute\n    {\n        uint256 index = proposalIndexByWalletCurrency[wallet][currencyCt][currencyId];\n        require(0 != index);\n        proposals[index - 1].expirationTime = expirationTime;\n    }\n\n    /// @notice Set settlement proposal status property of the given wallet\n    /// @dev This function can only be called by this contract's dispute instance\n    /// @param wallet The address of the concerned wallet\n    /// @param status The status value\n    function setProposalStatus(address wallet, address currencyCt, uint256 currencyId,\n        SettlementTypesLib.Status status)\n    public\n    onlyDriipSettlementDispute\n    {\n        uint256 index = proposalIndexByWalletCurrency[wallet][currencyCt][currencyId];\n        require(0 != index);\n        proposals[index - 1].status = status;\n    }\n\n    /// @notice Challenge the settlement by providing order candidate\n    /// @param order The order candidate that challenges the challenged driip\n    function challengeByOrder(NahmiiTypesLib.Order order)\n    public\n    onlyOperationalModeNormal\n    {\n        driipSettlementDispute.challengeByOrder(order, msg.sender);\n    }\n\n    /// @notice Unchallenge settlement by providing trade that shows that challenge order candidate has been filled\n    /// @param order The order candidate that challenged driip\n    /// @param trade The trade in which order has been filled\n    function unchallengeOrderCandidateByTrade(NahmiiTypesLib.Order order, NahmiiTypesLib.Trade trade)\n    public\n    onlyOperationalModeNormal\n    {\n        driipSettlementDispute.unchallengeOrderCandidateByTrade(order, trade, msg.sender);\n    }\n\n    /// @notice Challenge the settlement by providing trade candidate\n    /// @param wallet The wallet whose settlement is being challenged\n    /// @param trade The trade candidate that challenges the challenged driip\n    function challengeByTrade(address wallet, NahmiiTypesLib.Trade trade)\n    public\n    onlyOperationalModeNormal\n    {\n        driipSettlementDispute.challengeByTrade(wallet, trade, msg.sender);\n    }\n\n    /// @notice Challenge the settlement by providing payment candidate\n    /// @param wallet The wallet whose settlement is being challenged\n    /// @param payment The payment candidate that challenges the challenged driip\n    function challengeByPayment(address wallet, NahmiiTypesLib.Payment payment)\n    public\n    onlyOperationalModeNormal\n    {\n        driipSettlementDispute.challengeByPayment(wallet, payment, msg.sender);\n    }\n\n    /// @notice Get the count of challenge candidate hashes\n    /// @return The count of challenge candidate order hashes\n    function candidateHashesCount()\n    public\n    view\n    returns (uint256)\n    {\n        return candidateHashes.length;\n    }\n\n    /// @notice Disqualify the given wallet\n    /// @dev This function can only be called by this contract's dispute instance\n    /// @param wallet The address of the concerned wallet\n    function lockWallet(address wallet)\n    public\n    onlyDriipSettlementDispute\n    {\n        if (0 == unlockTimeByWallet[wallet]) {\n            lockedWallets.push(wallet);\n            lockedByWallet[wallet] = true;\n        }\n\n        unlockTimeByWallet[wallet] = block.timestamp.add(configuration.walletLockTimeout());\n    }\n\n    /// @notice Gauge whether the wallet is (temporarily) locked\n    /// @param wallet The address of the concerned wallet\n    /// @return true if wallet is locked, else false\n    function isLockedWallet(address wallet)\n    public\n    view\n    returns (bool)\n    {\n        return block.timestamp < unlockTimeByWallet[wallet];\n    }\n\n    /// @notice Add a disqualification instance\n    /// @param wallet The address of the concerned wallet\n    /// @param currencyCt The address of the concerned currency contract (address(0) == ETH)\n    /// @param currencyId The ID of the concerned currency (0 for ETH and ERC20)\n    /// @param candidateHash The candidate hash\n    /// @param candidateType The candidate type\n    /// @param challenger The concerned challenger\n    function addDisqualification(address wallet, address currencyCt, uint256 currencyId, bytes32 candidateHash,\n        SettlementTypesLib.CandidateType candidateType, address challenger)\n    public\n    onlyDriipSettlementDispute\n    {\n        // Get the proposal index\n        uint256 index = proposalIndexByWalletCurrency[wallet][currencyCt][currencyId];\n        require(0 != index);\n\n        // Create disqualification\n        disqualifications.length++;\n\n        // Populate disqualification\n        disqualifications[disqualifications.length - 1].wallet = wallet;\n        disqualifications[disqualifications.length - 1].nonce = proposals[index - 1].nonce;\n        disqualifications[disqualifications.length - 1].currencyCt = currencyCt;\n        disqualifications[disqualifications.length - 1].currencyId = currencyId;\n        disqualifications[disqualifications.length - 1].candidateHash = candidateHash;\n        disqualifications[disqualifications.length - 1].candidateType = candidateType;\n        disqualifications[disqualifications.length - 1].challenger = challenger;\n\n        // Store disqualification index\n        disqualificationIndexByWalletCurrency[wallet][currencyCt][currencyId] = disqualifications.length;\n\n        // Store candidate hash\n        candidateHashes.push(candidateHash);\n    }\n\n    /// @notice Remove a disqualification instance\n    /// @param wallet The address of the concerned wallet\n    /// @param currencyCt The address of the concerned currency contract (address(0) == ETH)\n    /// @param currencyId The ID of the concerned currency (0 for ETH and ERC20)\n    function removeDisqualification(address wallet, address currencyCt, uint256 currencyId)\n    public\n    onlyDriipSettlementDispute\n    {\n        // Get the proposal index\n        uint256 index = disqualificationIndexByWalletCurrency[wallet][currencyCt][currencyId];\n        require(0 < index);\n\n        if (index < disqualifications.length) {\n            disqualifications[index - 1] = disqualifications[disqualifications.length - 1];\n            disqualificationIndexByWalletCurrency[wallet][disqualifications[index - 1].currencyCt][disqualifications[index - 1].currencyId] = index;\n        }\n        disqualifications.length--;\n\n        delete disqualificationIndexByWalletCurrency[wallet][currencyCt][currencyId];\n    }\n\n    //\n    // Private functions\n    // -----------------------------------------------------------------------------------------------------------------\n    function _startChallengeFromTrade(address wallet, NahmiiTypesLib.Trade trade,\n        int256 intendedStageAmount, int256 conjugateStageAmount, bool balanceReward)\n    private\n    onlySealedTrade(trade)\n    {\n        // Require that current block number is beyond the earliest settlement challenge block number\n        require(block.number >= configuration.earliestSettlementBlockNumber());\n\n        // Require that given wallet is a trade party\n        require(validator.isTradeParty(trade, wallet));\n\n        // Require that wallet has no overlap with active proposals\n        require(hasProposalExpired(\n                wallet, trade.currencies.intended.ct, trade.currencies.intended.id\n            ));\n        require(hasProposalExpired(\n                wallet, trade.currencies.conjugate.ct, trade.currencies.conjugate.id\n            ));\n\n        // Create proposals\n        addIntendedProposalFromTrade(wallet, trade, intendedStageAmount, balanceReward);\n        addConjugateProposalFromTrade(wallet, trade, conjugateStageAmount, balanceReward);\n\n        // Add wallet to store of challenge wallets\n        addToChallengeWallets(wallet);\n\n        // Store driip hashes\n        challengeTradeHashes.push(trade.seal.hash);\n        challengeTradeHashIndicesByWallet[wallet].push(challengeTradeHashes.length);\n    }\n\n    function _startChallengeFromPayment(address wallet, NahmiiTypesLib.Payment payment,\n        int256 stageAmount, bool balanceReward)\n    private\n    onlySealedPayment(payment)\n    {\n        // Require that current block number is beyond the earliest settlement challenge block number\n        require(block.number >= configuration.earliestSettlementBlockNumber());\n\n        // Require that given wallet is a payment party\n        require(validator.isPaymentParty(payment, wallet));\n\n        // Require that wallet has no overlap with active proposal\n        require(hasProposalExpired(\n                wallet, payment.currency.ct, payment.currency.id\n            ));\n\n        // Create proposal\n        addProposalFromPayment(wallet, payment, stageAmount, balanceReward);\n\n        // Add wallet to store of challenge wallets\n        addToChallengeWallets(wallet);\n\n        // Store driip hashes\n        challengePaymentHashes.push(payment.seals.operator.hash);\n        challengePaymentHashIndicesByWallet[wallet].push(challengePaymentHashes.length);\n    }\n\n    function addIntendedProposalFromTrade(address wallet, NahmiiTypesLib.Trade trade, int256 stageAmount, bool balanceReward)\n    private\n    {\n        addProposalFromTrade(\n            wallet, trade, stageAmount,\n            validator.isTradeBuyer(trade, wallet) ? trade.buyer.balances.intended.current : trade.seller.balances.intended.current,\n            trade.currencies.intended, balanceReward\n        );\n    }\n\n    function addConjugateProposalFromTrade(address wallet, NahmiiTypesLib.Trade trade, int256 stageAmount, bool balanceReward)\n    private\n    {\n        addProposalFromTrade(\n            wallet, trade, stageAmount,\n            validator.isTradeBuyer(trade, wallet) ? trade.buyer.balances.conjugate.current : trade.seller.balances.conjugate.current,\n            trade.currencies.conjugate, balanceReward\n        );\n    }\n\n    function addProposalFromTrade(address wallet, NahmiiTypesLib.Trade trade, int256 stageAmount, int256 balanceAmount, MonetaryTypesLib.Currency currency, bool balanceReward)\n    private\n    {\n        // Require that stage amount is positive\n        require(stageAmount.isPositiveInt256());\n\n        // Require that balance amount is not less than stage amount\n        require(balanceAmount >= stageAmount);\n\n        // Create proposal\n        proposals.length++;\n\n        // Populate proposal\n        proposals[proposals.length - 1].wallet = wallet;\n        proposals[proposals.length - 1].nonce = trade.nonce;\n        proposals[proposals.length - 1].blockNumber = trade.blockNumber;\n        proposals[proposals.length - 1].expirationTime = block.timestamp.add(configuration.settlementChallengeTimeout());\n        proposals[proposals.length - 1].status = SettlementTypesLib.Status.Qualified;\n        proposals[proposals.length - 1].currencyCt = currency.ct;\n        proposals[proposals.length - 1].currencyId = currency.id;\n        proposals[proposals.length - 1].stageAmount = stageAmount;\n        proposals[proposals.length - 1].targetBalanceAmount = balanceAmount.sub(stageAmount);\n        proposals[proposals.length - 1].driipHash = trade.seal.hash;\n        proposals[proposals.length - 1].driipType = NahmiiTypesLib.DriipType.Trade;\n        proposals[proposals.length - 1].balanceReward = balanceReward;\n\n        // Store proposal index\n        proposalIndexByWalletCurrency[wallet][currency.ct][currency.id] = proposals.length;\n        proposalIndicesByWallet[wallet].push(proposals.length);\n    }\n\n    function addProposalFromPayment(address wallet, NahmiiTypesLib.Payment payment, int256 stageAmount, bool balanceReward)\n    private\n    {\n        // Require that stage amount is positive\n        require(stageAmount.isPositiveInt256());\n\n        // Deduce the concerned balance amount\n        int256 balanceAmount = (\n        validator.isPaymentSender(payment, wallet) ?\n        payment.sender.balances.current :\n        payment.recipient.balances.current\n        );\n\n        // Require that balance amount is not less than stage amount\n        require(balanceAmount >= stageAmount);\n\n        // Create proposal\n        proposals.length++;\n\n        // Populate proposal\n        proposals[proposals.length - 1].wallet = wallet;\n        proposals[proposals.length - 1].nonce = payment.nonce;\n        proposals[proposals.length - 1].blockNumber = payment.blockNumber;\n        proposals[proposals.length - 1].expirationTime = block.timestamp.add(configuration.settlementChallengeTimeout());\n        proposals[proposals.length - 1].status = SettlementTypesLib.Status.Qualified;\n        proposals[proposals.length - 1].currencyCt = payment.currency.ct;\n        proposals[proposals.length - 1].currencyId = payment.currency.id;\n        proposals[proposals.length - 1].stageAmount = stageAmount;\n        proposals[proposals.length - 1].targetBalanceAmount = balanceAmount.sub(stageAmount);\n        proposals[proposals.length - 1].driipHash = payment.seals.operator.hash;\n        proposals[proposals.length - 1].driipType = NahmiiTypesLib.DriipType.Payment;\n        proposals[proposals.length - 1].balanceReward = balanceReward;\n\n        // Store proposal index\n        proposalIndexByWalletCurrency[wallet][payment.currency.ct][payment.currency.id] = proposals.length;\n        proposalIndicesByWallet[wallet].push(proposals.length);\n    }\n\n    function addToChallengeWallets(address wallet)\n    private\n    {\n        if (!challengeByWallets[wallet]) {\n            challengeByWallets[wallet] = true;\n            challengeWallets.push(wallet);\n        }\n    }\n\n    //\n    // Modifiers\n    // -----------------------------------------------------------------------------------------------------------------\n    modifier onlyDriipSettlementDispute() {\n        require(msg.sender == address(driipSettlementDispute));\n        _;\n    }\n}\n",
  "sourcePath": "/Users/yons/development/hubii/striim-contracts/contracts/DriipSettlementChallenge.sol",
  "compiler": {
    "name": "solc",
    "version": "0.4.25+commit.59dbf8f1.Emscripten.clang"
  },
  "schemaVersion": "2.0.1",
  "updatedAt": "2018-12-07T03:24:54.445Z"
}