{
  "contractName": "DriipSettlementChallenge",
  "abi": [
    {
      "constant": true,
      "inputs": [
        {
          "name": "",
          "type": "uint256"
        }
      ],
      "name": "proposals",
      "outputs": [
        {
          "name": "wallet",
          "type": "address"
        },
        {
          "name": "nonce",
          "type": "uint256"
        },
        {
          "name": "blockNumber",
          "type": "uint256"
        },
        {
          "name": "expirationTime",
          "type": "uint256"
        },
        {
          "name": "status",
          "type": "uint8"
        },
        {
          "name": "currencyCt",
          "type": "address"
        },
        {
          "name": "currencyId",
          "type": "uint256"
        },
        {
          "name": "stageAmount",
          "type": "int256"
        },
        {
          "name": "targetBalanceAmount",
          "type": "int256"
        },
        {
          "name": "driipHash",
          "type": "bytes32"
        },
        {
          "name": "driipType",
          "type": "uint8"
        },
        {
          "name": "balanceReward",
          "type": "bool"
        }
      ],
      "payable": false,
      "stateMutability": "view",
      "type": "function"
    },
    {
      "constant": false,
      "inputs": [
        {
          "name": "newAddress",
          "type": "address"
        }
      ],
      "name": "setValidator",
      "outputs": [],
      "payable": false,
      "stateMutability": "nonpayable",
      "type": "function"
    },
    {
      "constant": true,
      "inputs": [
        {
          "name": "",
          "type": "uint256"
        }
      ],
      "name": "challengePaymentHashes",
      "outputs": [
        {
          "name": "",
          "type": "bytes32"
        }
      ],
      "payable": false,
      "stateMutability": "view",
      "type": "function"
    },
    {
      "constant": true,
      "inputs": [
        {
          "name": "",
          "type": "uint256"
        }
      ],
      "name": "challengeTradeHashes",
      "outputs": [
        {
          "name": "",
          "type": "bytes32"
        }
      ],
      "payable": false,
      "stateMutability": "view",
      "type": "function"
    },
    {
      "constant": true,
      "inputs": [],
      "name": "validator",
      "outputs": [
        {
          "name": "",
          "type": "address"
        }
      ],
      "payable": false,
      "stateMutability": "view",
      "type": "function"
    },
    {
      "constant": true,
      "inputs": [],
      "name": "destructor",
      "outputs": [
        {
          "name": "",
          "type": "address"
        }
      ],
      "payable": false,
      "stateMutability": "view",
      "type": "function"
    },
    {
      "constant": true,
      "inputs": [
        {
          "name": "",
          "type": "address"
        },
        {
          "name": "",
          "type": "uint256"
        }
      ],
      "name": "challengeTradeHashIndicesByWallet",
      "outputs": [
        {
          "name": "",
          "type": "uint256"
        }
      ],
      "payable": false,
      "stateMutability": "view",
      "type": "function"
    },
    {
      "constant": true,
      "inputs": [],
      "name": "operator",
      "outputs": [
        {
          "name": "",
          "type": "address"
        }
      ],
      "payable": false,
      "stateMutability": "view",
      "type": "function"
    },
    {
      "constant": false,
      "inputs": [
        {
          "name": "newConfiguration",
          "type": "address"
        }
      ],
      "name": "setConfiguration",
      "outputs": [],
      "payable": false,
      "stateMutability": "nonpayable",
      "type": "function"
    },
    {
      "constant": true,
      "inputs": [
        {
          "name": "",
          "type": "uint256"
        }
      ],
      "name": "candidateHashes",
      "outputs": [
        {
          "name": "",
          "type": "bytes32"
        }
      ],
      "payable": false,
      "stateMutability": "view",
      "type": "function"
    },
    {
      "constant": true,
      "inputs": [
        {
          "name": "",
          "type": "address"
        },
        {
          "name": "",
          "type": "address"
        },
        {
          "name": "",
          "type": "uint256"
        }
      ],
      "name": "proposalIndexByWalletCurrency",
      "outputs": [
        {
          "name": "",
          "type": "uint256"
        }
      ],
      "payable": false,
      "stateMutability": "view",
      "type": "function"
    },
    {
      "constant": true,
      "inputs": [],
      "name": "configuration",
      "outputs": [
        {
          "name": "",
          "type": "address"
        }
      ],
      "payable": false,
      "stateMutability": "view",
      "type": "function"
    },
    {
      "constant": true,
      "inputs": [
        {
          "name": "",
          "type": "uint256"
        }
      ],
      "name": "challengeWallets",
      "outputs": [
        {
          "name": "",
          "type": "address"
        }
      ],
      "payable": false,
      "stateMutability": "view",
      "type": "function"
    },
    {
      "constant": true,
      "inputs": [
        {
          "name": "",
          "type": "address"
        },
        {
          "name": "",
          "type": "uint256"
        }
      ],
      "name": "proposalIndicesByWallet",
      "outputs": [
        {
          "name": "",
          "type": "uint256"
        }
      ],
      "payable": false,
      "stateMutability": "view",
      "type": "function"
    },
    {
      "constant": false,
      "inputs": [],
      "name": "triggerDestroy",
      "outputs": [],
      "payable": false,
      "stateMutability": "nonpayable",
      "type": "function"
    },
    {
      "constant": false,
      "inputs": [
        {
          "name": "newDeployer",
          "type": "address"
        }
      ],
      "name": "setDeployer",
      "outputs": [],
      "payable": false,
      "stateMutability": "nonpayable",
      "type": "function"
    },
    {
      "constant": false,
      "inputs": [
        {
          "name": "newOperator",
          "type": "address"
        }
      ],
      "name": "setOperator",
      "outputs": [],
      "payable": false,
      "stateMutability": "nonpayable",
      "type": "function"
    },
    {
      "constant": true,
      "inputs": [
        {
          "name": "",
          "type": "address"
        },
        {
          "name": "",
          "type": "address"
        },
        {
          "name": "",
          "type": "uint256"
        }
      ],
      "name": "disqualificationIndexByWalletCurrency",
      "outputs": [
        {
          "name": "",
          "type": "uint256"
        }
      ],
      "payable": false,
      "stateMutability": "view",
      "type": "function"
    },
    {
      "constant": true,
      "inputs": [
        {
          "name": "",
          "type": "uint256"
        }
      ],
      "name": "lockedWallets",
      "outputs": [
        {
          "name": "",
          "type": "address"
        }
      ],
      "payable": false,
      "stateMutability": "view",
      "type": "function"
    },
    {
      "constant": true,
      "inputs": [],
      "name": "driipSettlementDispute",
      "outputs": [
        {
          "name": "",
          "type": "address"
        }
      ],
      "payable": false,
      "stateMutability": "view",
      "type": "function"
    },
    {
      "constant": true,
      "inputs": [],
      "name": "deployer",
      "outputs": [
        {
          "name": "",
          "type": "address"
        }
      ],
      "payable": false,
      "stateMutability": "view",
      "type": "function"
    },
    {
      "constant": true,
      "inputs": [
        {
          "name": "",
          "type": "address"
        },
        {
          "name": "",
          "type": "uint256"
        }
      ],
      "name": "challengePaymentHashIndicesByWallet",
      "outputs": [
        {
          "name": "",
          "type": "uint256"
        }
      ],
      "payable": false,
      "stateMutability": "view",
      "type": "function"
    },
    {
      "constant": true,
      "inputs": [
        {
          "name": "",
          "type": "uint256"
        }
      ],
      "name": "disqualifications",
      "outputs": [
        {
          "name": "wallet",
          "type": "address"
        },
        {
          "name": "nonce",
          "type": "uint256"
        },
        {
          "name": "currencyCt",
          "type": "address"
        },
        {
          "name": "currencyId",
          "type": "uint256"
        },
        {
          "name": "candidateHash",
          "type": "bytes32"
        },
        {
          "name": "candidateType",
          "type": "uint8"
        },
        {
          "name": "challenger",
          "type": "address"
        }
      ],
      "payable": false,
      "stateMutability": "view",
      "type": "function"
    },
    {
      "constant": true,
      "inputs": [
        {
          "name": "",
          "type": "address"
        }
      ],
      "name": "lockedByWallet",
      "outputs": [
        {
          "name": "",
          "type": "bool"
        }
      ],
      "payable": false,
      "stateMutability": "view",
      "type": "function"
    },
    {
      "constant": true,
      "inputs": [
        {
          "name": "",
          "type": "address"
        }
      ],
      "name": "unlockTimeByWallet",
      "outputs": [
        {
          "name": "",
          "type": "uint256"
        }
      ],
      "payable": false,
      "stateMutability": "view",
      "type": "function"
    },
    {
      "inputs": [
        {
          "name": "deployer",
          "type": "address"
        }
      ],
      "payable": false,
      "stateMutability": "nonpayable",
      "type": "constructor"
    },
    {
      "anonymous": false,
      "inputs": [
        {
          "indexed": false,
          "name": "oldDriipSettlementDispute",
          "type": "address"
        },
        {
          "indexed": false,
          "name": "newDriipSettlementDispute",
          "type": "address"
        }
      ],
      "name": "SetDriipSettlementDisputeEvent",
      "type": "event"
    },
    {
      "anonymous": false,
      "inputs": [
        {
          "indexed": false,
          "name": "wallet",
          "type": "address"
        },
        {
          "indexed": false,
          "name": "tradeHash",
          "type": "bytes32"
        },
        {
          "indexed": false,
          "name": "intendedStageAmount",
          "type": "int256"
        },
        {
          "indexed": false,
          "name": "conjugateStageAmount",
          "type": "int256"
        }
      ],
      "name": "StartChallengeFromTradeEvent",
      "type": "event"
    },
    {
      "anonymous": false,
      "inputs": [
        {
          "indexed": false,
          "name": "proxy",
          "type": "address"
        },
        {
          "indexed": false,
          "name": "wallet",
          "type": "address"
        },
        {
          "indexed": false,
          "name": "tradeHash",
          "type": "bytes32"
        },
        {
          "indexed": false,
          "name": "intendedStageAmount",
          "type": "int256"
        },
        {
          "indexed": false,
          "name": "conjugateStageAmount",
          "type": "int256"
        }
      ],
      "name": "StartChallengeFromTradeByProxyEvent",
      "type": "event"
    },
    {
      "anonymous": false,
      "inputs": [
        {
          "indexed": false,
          "name": "wallet",
          "type": "address"
        },
        {
          "indexed": false,
          "name": "paymentHash",
          "type": "bytes32"
        },
        {
          "indexed": false,
          "name": "stageAmount",
          "type": "int256"
        }
      ],
      "name": "StartChallengeFromPaymentEvent",
      "type": "event"
    },
    {
      "anonymous": false,
      "inputs": [
        {
          "indexed": false,
          "name": "proxy",
          "type": "address"
        },
        {
          "indexed": false,
          "name": "wallet",
          "type": "address"
        },
        {
          "indexed": false,
          "name": "paymentHash",
          "type": "bytes32"
        },
        {
          "indexed": false,
          "name": "stageAmount",
          "type": "int256"
        }
      ],
      "name": "StartChallengeFromPaymentByProxyEvent",
      "type": "event"
    },
    {
      "anonymous": false,
      "inputs": [
        {
          "indexed": false,
          "name": "oldAddress",
          "type": "address"
        },
        {
          "indexed": false,
          "name": "newAddress",
          "type": "address"
        }
      ],
      "name": "SetValidatorEvent",
      "type": "event"
    },
    {
      "anonymous": false,
      "inputs": [
        {
          "indexed": false,
          "name": "oldConfiguration",
          "type": "address"
        },
        {
          "indexed": false,
          "name": "newConfiguration",
          "type": "address"
        }
      ],
      "name": "SetConfigurationEvent",
      "type": "event"
    },
    {
      "anonymous": false,
      "inputs": [
        {
          "indexed": false,
          "name": "oldDeployer",
          "type": "address"
        },
        {
          "indexed": false,
          "name": "newDeployer",
          "type": "address"
        }
      ],
      "name": "SetDeployerEvent",
      "type": "event"
    },
    {
      "anonymous": false,
      "inputs": [
        {
          "indexed": false,
          "name": "oldOperator",
          "type": "address"
        },
        {
          "indexed": false,
          "name": "newOperator",
          "type": "address"
        }
      ],
      "name": "SetOperatorEvent",
      "type": "event"
    },
    {
      "constant": false,
      "inputs": [
        {
          "name": "newDriipSettlementDispute",
          "type": "address"
        }
      ],
      "name": "setDriipSettlementDispute",
      "outputs": [],
      "payable": false,
      "stateMutability": "nonpayable",
      "type": "function"
    },
    {
      "constant": true,
      "inputs": [],
      "name": "challengeWalletsCount",
      "outputs": [
        {
          "name": "",
          "type": "uint256"
        }
      ],
      "payable": false,
      "stateMutability": "view",
      "type": "function"
    },
    {
      "constant": true,
      "inputs": [],
      "name": "lockedWalletsCount",
      "outputs": [
        {
          "name": "",
          "type": "uint256"
        }
      ],
      "payable": false,
      "stateMutability": "view",
      "type": "function"
    },
    {
      "constant": true,
      "inputs": [],
      "name": "proposalsCount",
      "outputs": [
        {
          "name": "",
          "type": "uint256"
        }
      ],
      "payable": false,
      "stateMutability": "view",
      "type": "function"
    },
    {
      "constant": true,
      "inputs": [],
      "name": "disqualificationsCount",
      "outputs": [
        {
          "name": "",
          "type": "uint256"
        }
      ],
      "payable": false,
      "stateMutability": "view",
      "type": "function"
    },
    {
      "constant": true,
      "inputs": [],
      "name": "challengeTradeHashesCount",
      "outputs": [
        {
          "name": "",
          "type": "uint256"
        }
      ],
      "payable": false,
      "stateMutability": "view",
      "type": "function"
    },
    {
      "constant": true,
      "inputs": [],
      "name": "challengePaymentHashesCount",
      "outputs": [
        {
          "name": "",
          "type": "uint256"
        }
      ],
      "payable": false,
      "stateMutability": "view",
      "type": "function"
    },
    {
      "constant": true,
      "inputs": [
        {
          "name": "wallet",
          "type": "address"
        }
      ],
      "name": "walletChallengeTradeHashIndicesCount",
      "outputs": [
        {
          "name": "",
          "type": "uint256"
        }
      ],
      "payable": false,
      "stateMutability": "view",
      "type": "function"
    },
    {
      "constant": true,
      "inputs": [
        {
          "name": "wallet",
          "type": "address"
        }
      ],
      "name": "walletChallengePaymentHashIndicesCount",
      "outputs": [
        {
          "name": "",
          "type": "uint256"
        }
      ],
      "payable": false,
      "stateMutability": "view",
      "type": "function"
    },
    {
      "constant": false,
      "inputs": [
        {
          "components": [
            {
              "name": "nonce",
              "type": "uint256"
            },
            {
              "name": "amount",
              "type": "int256"
            },
            {
              "components": [
                {
                  "components": [
                    {
                      "name": "ct",
                      "type": "address"
                    },
                    {
                      "name": "id",
                      "type": "uint256"
                    }
                  ],
                  "name": "intended",
                  "type": "tuple"
                },
                {
                  "components": [
                    {
                      "name": "ct",
                      "type": "address"
                    },
                    {
                      "name": "id",
                      "type": "uint256"
                    }
                  ],
                  "name": "conjugate",
                  "type": "tuple"
                }
              ],
              "name": "currencies",
              "type": "tuple"
            },
            {
              "name": "rate",
              "type": "int256"
            },
            {
              "components": [
                {
                  "name": "nonce",
                  "type": "uint256"
                },
                {
                  "name": "wallet",
                  "type": "address"
                },
                {
                  "name": "rollingVolume",
                  "type": "uint256"
                },
                {
                  "name": "liquidityRole",
                  "type": "uint8"
                },
                {
                  "components": [
                    {
                      "name": "amount",
                      "type": "int256"
                    },
                    {
                      "components": [
                        {
                          "name": "wallet",
                          "type": "bytes32"
                        },
                        {
                          "name": "operator",
                          "type": "bytes32"
                        }
                      ],
                      "name": "hashes",
                      "type": "tuple"
                    },
                    {
                      "components": [
                        {
                          "name": "current",
                          "type": "int256"
                        },
                        {
                          "name": "previous",
                          "type": "int256"
                        }
                      ],
                      "name": "residuals",
                      "type": "tuple"
                    }
                  ],
                  "name": "order",
                  "type": "tuple"
                },
                {
                  "components": [
                    {
                      "components": [
                        {
                          "name": "current",
                          "type": "int256"
                        },
                        {
                          "name": "previous",
                          "type": "int256"
                        }
                      ],
                      "name": "intended",
                      "type": "tuple"
                    },
                    {
                      "components": [
                        {
                          "name": "current",
                          "type": "int256"
                        },
                        {
                          "name": "previous",
                          "type": "int256"
                        }
                      ],
                      "name": "conjugate",
                      "type": "tuple"
                    }
                  ],
                  "name": "balances",
                  "type": "tuple"
                },
                {
                  "components": [
                    {
                      "components": [
                        {
                          "name": "amount",
                          "type": "int256"
                        },
                        {
                          "components": [
                            {
                              "name": "ct",
                              "type": "address"
                            },
                            {
                              "name": "id",
                              "type": "uint256"
                            }
                          ],
                          "name": "currency",
                          "type": "tuple"
                        }
                      ],
                      "name": "single",
                      "type": "tuple"
                    },
                    {
                      "components": [
                        {
                          "name": "amount",
                          "type": "int256"
                        },
                        {
                          "components": [
                            {
                              "name": "ct",
                              "type": "address"
                            },
                            {
                              "name": "id",
                              "type": "uint256"
                            }
                          ],
                          "name": "currency",
                          "type": "tuple"
                        }
                      ],
                      "name": "total",
                      "type": "tuple[]"
                    }
                  ],
                  "name": "fees",
                  "type": "tuple"
                }
              ],
              "name": "buyer",
              "type": "tuple"
            },
            {
              "components": [
                {
                  "name": "nonce",
                  "type": "uint256"
                },
                {
                  "name": "wallet",
                  "type": "address"
                },
                {
                  "name": "rollingVolume",
                  "type": "uint256"
                },
                {
                  "name": "liquidityRole",
                  "type": "uint8"
                },
                {
                  "components": [
                    {
                      "name": "amount",
                      "type": "int256"
                    },
                    {
                      "components": [
                        {
                          "name": "wallet",
                          "type": "bytes32"
                        },
                        {
                          "name": "operator",
                          "type": "bytes32"
                        }
                      ],
                      "name": "hashes",
                      "type": "tuple"
                    },
                    {
                      "components": [
                        {
                          "name": "current",
                          "type": "int256"
                        },
                        {
                          "name": "previous",
                          "type": "int256"
                        }
                      ],
                      "name": "residuals",
                      "type": "tuple"
                    }
                  ],
                  "name": "order",
                  "type": "tuple"
                },
                {
                  "components": [
                    {
                      "components": [
                        {
                          "name": "current",
                          "type": "int256"
                        },
                        {
                          "name": "previous",
                          "type": "int256"
                        }
                      ],
                      "name": "intended",
                      "type": "tuple"
                    },
                    {
                      "components": [
                        {
                          "name": "current",
                          "type": "int256"
                        },
                        {
                          "name": "previous",
                          "type": "int256"
                        }
                      ],
                      "name": "conjugate",
                      "type": "tuple"
                    }
                  ],
                  "name": "balances",
                  "type": "tuple"
                },
                {
                  "components": [
                    {
                      "components": [
                        {
                          "name": "amount",
                          "type": "int256"
                        },
                        {
                          "components": [
                            {
                              "name": "ct",
                              "type": "address"
                            },
                            {
                              "name": "id",
                              "type": "uint256"
                            }
                          ],
                          "name": "currency",
                          "type": "tuple"
                        }
                      ],
                      "name": "single",
                      "type": "tuple"
                    },
                    {
                      "components": [
                        {
                          "name": "amount",
                          "type": "int256"
                        },
                        {
                          "components": [
                            {
                              "name": "ct",
                              "type": "address"
                            },
                            {
                              "name": "id",
                              "type": "uint256"
                            }
                          ],
                          "name": "currency",
                          "type": "tuple"
                        }
                      ],
                      "name": "total",
                      "type": "tuple[]"
                    }
                  ],
                  "name": "fees",
                  "type": "tuple"
                }
              ],
              "name": "seller",
              "type": "tuple"
            },
            {
              "components": [
                {
                  "components": [
                    {
                      "name": "single",
                      "type": "int256"
                    },
                    {
                      "name": "total",
                      "type": "int256"
                    }
                  ],
                  "name": "intended",
                  "type": "tuple"
                },
                {
                  "components": [
                    {
                      "name": "single",
                      "type": "int256"
                    },
                    {
                      "name": "total",
                      "type": "int256"
                    }
                  ],
                  "name": "conjugate",
                  "type": "tuple"
                }
              ],
              "name": "transfers",
              "type": "tuple"
            },
            {
              "components": [
                {
                  "name": "hash",
                  "type": "bytes32"
                },
                {
                  "components": [
                    {
                      "name": "r",
                      "type": "bytes32"
                    },
                    {
                      "name": "s",
                      "type": "bytes32"
                    },
                    {
                      "name": "v",
                      "type": "uint8"
                    }
                  ],
                  "name": "signature",
                  "type": "tuple"
                }
              ],
              "name": "seal",
              "type": "tuple"
            },
            {
              "name": "blockNumber",
              "type": "uint256"
            },
            {
              "name": "operatorId",
              "type": "uint256"
            }
          ],
          "name": "trade",
          "type": "tuple"
        },
        {
          "name": "intendedStageAmount",
          "type": "int256"
        },
        {
          "name": "conjugateStageAmount",
          "type": "int256"
        }
      ],
      "name": "startChallengeFromTrade",
      "outputs": [],
      "payable": false,
      "stateMutability": "nonpayable",
      "type": "function"
    },
    {
      "constant": false,
      "inputs": [
        {
          "name": "wallet",
          "type": "address"
        },
        {
          "components": [
            {
              "name": "nonce",
              "type": "uint256"
            },
            {
              "name": "amount",
              "type": "int256"
            },
            {
              "components": [
                {
                  "components": [
                    {
                      "name": "ct",
                      "type": "address"
                    },
                    {
                      "name": "id",
                      "type": "uint256"
                    }
                  ],
                  "name": "intended",
                  "type": "tuple"
                },
                {
                  "components": [
                    {
                      "name": "ct",
                      "type": "address"
                    },
                    {
                      "name": "id",
                      "type": "uint256"
                    }
                  ],
                  "name": "conjugate",
                  "type": "tuple"
                }
              ],
              "name": "currencies",
              "type": "tuple"
            },
            {
              "name": "rate",
              "type": "int256"
            },
            {
              "components": [
                {
                  "name": "nonce",
                  "type": "uint256"
                },
                {
                  "name": "wallet",
                  "type": "address"
                },
                {
                  "name": "rollingVolume",
                  "type": "uint256"
                },
                {
                  "name": "liquidityRole",
                  "type": "uint8"
                },
                {
                  "components": [
                    {
                      "name": "amount",
                      "type": "int256"
                    },
                    {
                      "components": [
                        {
                          "name": "wallet",
                          "type": "bytes32"
                        },
                        {
                          "name": "operator",
                          "type": "bytes32"
                        }
                      ],
                      "name": "hashes",
                      "type": "tuple"
                    },
                    {
                      "components": [
                        {
                          "name": "current",
                          "type": "int256"
                        },
                        {
                          "name": "previous",
                          "type": "int256"
                        }
                      ],
                      "name": "residuals",
                      "type": "tuple"
                    }
                  ],
                  "name": "order",
                  "type": "tuple"
                },
                {
                  "components": [
                    {
                      "components": [
                        {
                          "name": "current",
                          "type": "int256"
                        },
                        {
                          "name": "previous",
                          "type": "int256"
                        }
                      ],
                      "name": "intended",
                      "type": "tuple"
                    },
                    {
                      "components": [
                        {
                          "name": "current",
                          "type": "int256"
                        },
                        {
                          "name": "previous",
                          "type": "int256"
                        }
                      ],
                      "name": "conjugate",
                      "type": "tuple"
                    }
                  ],
                  "name": "balances",
                  "type": "tuple"
                },
                {
                  "components": [
                    {
                      "components": [
                        {
                          "name": "amount",
                          "type": "int256"
                        },
                        {
                          "components": [
                            {
                              "name": "ct",
                              "type": "address"
                            },
                            {
                              "name": "id",
                              "type": "uint256"
                            }
                          ],
                          "name": "currency",
                          "type": "tuple"
                        }
                      ],
                      "name": "single",
                      "type": "tuple"
                    },
                    {
                      "components": [
                        {
                          "name": "amount",
                          "type": "int256"
                        },
                        {
                          "components": [
                            {
                              "name": "ct",
                              "type": "address"
                            },
                            {
                              "name": "id",
                              "type": "uint256"
                            }
                          ],
                          "name": "currency",
                          "type": "tuple"
                        }
                      ],
                      "name": "total",
                      "type": "tuple[]"
                    }
                  ],
                  "name": "fees",
                  "type": "tuple"
                }
              ],
              "name": "buyer",
              "type": "tuple"
            },
            {
              "components": [
                {
                  "name": "nonce",
                  "type": "uint256"
                },
                {
                  "name": "wallet",
                  "type": "address"
                },
                {
                  "name": "rollingVolume",
                  "type": "uint256"
                },
                {
                  "name": "liquidityRole",
                  "type": "uint8"
                },
                {
                  "components": [
                    {
                      "name": "amount",
                      "type": "int256"
                    },
                    {
                      "components": [
                        {
                          "name": "wallet",
                          "type": "bytes32"
                        },
                        {
                          "name": "operator",
                          "type": "bytes32"
                        }
                      ],
                      "name": "hashes",
                      "type": "tuple"
                    },
                    {
                      "components": [
                        {
                          "name": "current",
                          "type": "int256"
                        },
                        {
                          "name": "previous",
                          "type": "int256"
                        }
                      ],
                      "name": "residuals",
                      "type": "tuple"
                    }
                  ],
                  "name": "order",
                  "type": "tuple"
                },
                {
                  "components": [
                    {
                      "components": [
                        {
                          "name": "current",
                          "type": "int256"
                        },
                        {
                          "name": "previous",
                          "type": "int256"
                        }
                      ],
                      "name": "intended",
                      "type": "tuple"
                    },
                    {
                      "components": [
                        {
                          "name": "current",
                          "type": "int256"
                        },
                        {
                          "name": "previous",
                          "type": "int256"
                        }
                      ],
                      "name": "conjugate",
                      "type": "tuple"
                    }
                  ],
                  "name": "balances",
                  "type": "tuple"
                },
                {
                  "components": [
                    {
                      "components": [
                        {
                          "name": "amount",
                          "type": "int256"
                        },
                        {
                          "components": [
                            {
                              "name": "ct",
                              "type": "address"
                            },
                            {
                              "name": "id",
                              "type": "uint256"
                            }
                          ],
                          "name": "currency",
                          "type": "tuple"
                        }
                      ],
                      "name": "single",
                      "type": "tuple"
                    },
                    {
                      "components": [
                        {
                          "name": "amount",
                          "type": "int256"
                        },
                        {
                          "components": [
                            {
                              "name": "ct",
                              "type": "address"
                            },
                            {
                              "name": "id",
                              "type": "uint256"
                            }
                          ],
                          "name": "currency",
                          "type": "tuple"
                        }
                      ],
                      "name": "total",
                      "type": "tuple[]"
                    }
                  ],
                  "name": "fees",
                  "type": "tuple"
                }
              ],
              "name": "seller",
              "type": "tuple"
            },
            {
              "components": [
                {
                  "components": [
                    {
                      "name": "single",
                      "type": "int256"
                    },
                    {
                      "name": "total",
                      "type": "int256"
                    }
                  ],
                  "name": "intended",
                  "type": "tuple"
                },
                {
                  "components": [
                    {
                      "name": "single",
                      "type": "int256"
                    },
                    {
                      "name": "total",
                      "type": "int256"
                    }
                  ],
                  "name": "conjugate",
                  "type": "tuple"
                }
              ],
              "name": "transfers",
              "type": "tuple"
            },
            {
              "components": [
                {
                  "name": "hash",
                  "type": "bytes32"
                },
                {
                  "components": [
                    {
                      "name": "r",
                      "type": "bytes32"
                    },
                    {
                      "name": "s",
                      "type": "bytes32"
                    },
                    {
                      "name": "v",
                      "type": "uint8"
                    }
                  ],
                  "name": "signature",
                  "type": "tuple"
                }
              ],
              "name": "seal",
              "type": "tuple"
            },
            {
              "name": "blockNumber",
              "type": "uint256"
            },
            {
              "name": "operatorId",
              "type": "uint256"
            }
          ],
          "name": "trade",
          "type": "tuple"
        },
        {
          "name": "intendedStageAmount",
          "type": "int256"
        },
        {
          "name": "conjugateStageAmount",
          "type": "int256"
        }
      ],
      "name": "startChallengeFromTradeByProxy",
      "outputs": [],
      "payable": false,
      "stateMutability": "nonpayable",
      "type": "function"
    },
    {
      "constant": false,
      "inputs": [
        {
          "components": [
            {
              "name": "nonce",
              "type": "uint256"
            },
            {
              "name": "amount",
              "type": "int256"
            },
            {
              "components": [
                {
                  "name": "ct",
                  "type": "address"
                },
                {
                  "name": "id",
                  "type": "uint256"
                }
              ],
              "name": "currency",
              "type": "tuple"
            },
            {
              "components": [
                {
                  "name": "nonce",
                  "type": "uint256"
                },
                {
                  "name": "wallet",
                  "type": "address"
                },
                {
                  "components": [
                    {
                      "name": "current",
                      "type": "int256"
                    },
                    {
                      "name": "previous",
                      "type": "int256"
                    }
                  ],
                  "name": "balances",
                  "type": "tuple"
                },
                {
                  "components": [
                    {
                      "components": [
                        {
                          "name": "amount",
                          "type": "int256"
                        },
                        {
                          "components": [
                            {
                              "name": "ct",
                              "type": "address"
                            },
                            {
                              "name": "id",
                              "type": "uint256"
                            }
                          ],
                          "name": "currency",
                          "type": "tuple"
                        }
                      ],
                      "name": "single",
                      "type": "tuple"
                    },
                    {
                      "components": [
                        {
                          "name": "amount",
                          "type": "int256"
                        },
                        {
                          "components": [
                            {
                              "name": "ct",
                              "type": "address"
                            },
                            {
                              "name": "id",
                              "type": "uint256"
                            }
                          ],
                          "name": "currency",
                          "type": "tuple"
                        }
                      ],
                      "name": "total",
                      "type": "tuple[]"
                    }
                  ],
                  "name": "fees",
                  "type": "tuple"
                }
              ],
              "name": "sender",
              "type": "tuple"
            },
            {
              "components": [
                {
                  "name": "nonce",
                  "type": "uint256"
                },
                {
                  "name": "wallet",
                  "type": "address"
                },
                {
                  "components": [
                    {
                      "name": "current",
                      "type": "int256"
                    },
                    {
                      "name": "previous",
                      "type": "int256"
                    }
                  ],
                  "name": "balances",
                  "type": "tuple"
                },
                {
                  "components": [
                    {
                      "components": [
                        {
                          "name": "amount",
                          "type": "int256"
                        },
                        {
                          "components": [
                            {
                              "name": "ct",
                              "type": "address"
                            },
                            {
                              "name": "id",
                              "type": "uint256"
                            }
                          ],
                          "name": "currency",
                          "type": "tuple"
                        }
                      ],
                      "name": "total",
                      "type": "tuple[]"
                    }
                  ],
                  "name": "fees",
                  "type": "tuple"
                }
              ],
              "name": "recipient",
              "type": "tuple"
            },
            {
              "components": [
                {
                  "name": "single",
                  "type": "int256"
                },
                {
                  "name": "total",
                  "type": "int256"
                }
              ],
              "name": "transfers",
              "type": "tuple"
            },
            {
              "components": [
                {
                  "components": [
                    {
                      "name": "hash",
                      "type": "bytes32"
                    },
                    {
                      "components": [
                        {
                          "name": "r",
                          "type": "bytes32"
                        },
                        {
                          "name": "s",
                          "type": "bytes32"
                        },
                        {
                          "name": "v",
                          "type": "uint8"
                        }
                      ],
                      "name": "signature",
                      "type": "tuple"
                    }
                  ],
                  "name": "wallet",
                  "type": "tuple"
                },
                {
                  "components": [
                    {
                      "name": "hash",
                      "type": "bytes32"
                    },
                    {
                      "components": [
                        {
                          "name": "r",
                          "type": "bytes32"
                        },
                        {
                          "name": "s",
                          "type": "bytes32"
                        },
                        {
                          "name": "v",
                          "type": "uint8"
                        }
                      ],
                      "name": "signature",
                      "type": "tuple"
                    }
                  ],
                  "name": "operator",
                  "type": "tuple"
                }
              ],
              "name": "seals",
              "type": "tuple"
            },
            {
              "name": "blockNumber",
              "type": "uint256"
            },
            {
              "name": "operatorId",
              "type": "uint256"
            }
          ],
          "name": "payment",
          "type": "tuple"
        },
        {
          "name": "stageAmount",
          "type": "int256"
        }
      ],
      "name": "startChallengeFromPayment",
      "outputs": [],
      "payable": false,
      "stateMutability": "nonpayable",
      "type": "function"
    },
    {
      "constant": false,
      "inputs": [
        {
          "name": "wallet",
          "type": "address"
        },
        {
          "components": [
            {
              "name": "nonce",
              "type": "uint256"
            },
            {
              "name": "amount",
              "type": "int256"
            },
            {
              "components": [
                {
                  "name": "ct",
                  "type": "address"
                },
                {
                  "name": "id",
                  "type": "uint256"
                }
              ],
              "name": "currency",
              "type": "tuple"
            },
            {
              "components": [
                {
                  "name": "nonce",
                  "type": "uint256"
                },
                {
                  "name": "wallet",
                  "type": "address"
                },
                {
                  "components": [
                    {
                      "name": "current",
                      "type": "int256"
                    },
                    {
                      "name": "previous",
                      "type": "int256"
                    }
                  ],
                  "name": "balances",
                  "type": "tuple"
                },
                {
                  "components": [
                    {
                      "components": [
                        {
                          "name": "amount",
                          "type": "int256"
                        },
                        {
                          "components": [
                            {
                              "name": "ct",
                              "type": "address"
                            },
                            {
                              "name": "id",
                              "type": "uint256"
                            }
                          ],
                          "name": "currency",
                          "type": "tuple"
                        }
                      ],
                      "name": "single",
                      "type": "tuple"
                    },
                    {
                      "components": [
                        {
                          "name": "amount",
                          "type": "int256"
                        },
                        {
                          "components": [
                            {
                              "name": "ct",
                              "type": "address"
                            },
                            {
                              "name": "id",
                              "type": "uint256"
                            }
                          ],
                          "name": "currency",
                          "type": "tuple"
                        }
                      ],
                      "name": "total",
                      "type": "tuple[]"
                    }
                  ],
                  "name": "fees",
                  "type": "tuple"
                }
              ],
              "name": "sender",
              "type": "tuple"
            },
            {
              "components": [
                {
                  "name": "nonce",
                  "type": "uint256"
                },
                {
                  "name": "wallet",
                  "type": "address"
                },
                {
                  "components": [
                    {
                      "name": "current",
                      "type": "int256"
                    },
                    {
                      "name": "previous",
                      "type": "int256"
                    }
                  ],
                  "name": "balances",
                  "type": "tuple"
                },
                {
                  "components": [
                    {
                      "components": [
                        {
                          "name": "amount",
                          "type": "int256"
                        },
                        {
                          "components": [
                            {
                              "name": "ct",
                              "type": "address"
                            },
                            {
                              "name": "id",
                              "type": "uint256"
                            }
                          ],
                          "name": "currency",
                          "type": "tuple"
                        }
                      ],
                      "name": "total",
                      "type": "tuple[]"
                    }
                  ],
                  "name": "fees",
                  "type": "tuple"
                }
              ],
              "name": "recipient",
              "type": "tuple"
            },
            {
              "components": [
                {
                  "name": "single",
                  "type": "int256"
                },
                {
                  "name": "total",
                  "type": "int256"
                }
              ],
              "name": "transfers",
              "type": "tuple"
            },
            {
              "components": [
                {
                  "components": [
                    {
                      "name": "hash",
                      "type": "bytes32"
                    },
                    {
                      "components": [
                        {
                          "name": "r",
                          "type": "bytes32"
                        },
                        {
                          "name": "s",
                          "type": "bytes32"
                        },
                        {
                          "name": "v",
                          "type": "uint8"
                        }
                      ],
                      "name": "signature",
                      "type": "tuple"
                    }
                  ],
                  "name": "wallet",
                  "type": "tuple"
                },
                {
                  "components": [
                    {
                      "name": "hash",
                      "type": "bytes32"
                    },
                    {
                      "components": [
                        {
                          "name": "r",
                          "type": "bytes32"
                        },
                        {
                          "name": "s",
                          "type": "bytes32"
                        },
                        {
                          "name": "v",
                          "type": "uint8"
                        }
                      ],
                      "name": "signature",
                      "type": "tuple"
                    }
                  ],
                  "name": "operator",
                  "type": "tuple"
                }
              ],
              "name": "seals",
              "type": "tuple"
            },
            {
              "name": "blockNumber",
              "type": "uint256"
            },
            {
              "name": "operatorId",
              "type": "uint256"
            }
          ],
          "name": "payment",
          "type": "tuple"
        },
        {
          "name": "stageAmount",
          "type": "int256"
        }
      ],
      "name": "startChallengeFromPaymentByProxy",
      "outputs": [],
      "payable": false,
      "stateMutability": "nonpayable",
      "type": "function"
    },
    {
      "constant": true,
      "inputs": [
        {
          "name": "wallet",
          "type": "address"
        },
        {
          "name": "currencyCt",
          "type": "address"
        },
        {
          "name": "currencyId",
          "type": "uint256"
        }
      ],
      "name": "hasProposalExpired",
      "outputs": [
        {
          "name": "",
          "type": "bool"
        }
      ],
      "payable": false,
      "stateMutability": "view",
      "type": "function"
    },
    {
      "constant": true,
      "inputs": [
        {
          "name": "wallet",
          "type": "address"
        },
        {
          "name": "currencyCt",
          "type": "address"
        },
        {
          "name": "currencyId",
          "type": "uint256"
        }
      ],
      "name": "proposalNonce",
      "outputs": [
        {
          "name": "",
          "type": "uint256"
        }
      ],
      "payable": false,
      "stateMutability": "view",
      "type": "function"
    },
    {
      "constant": true,
      "inputs": [
        {
          "name": "wallet",
          "type": "address"
        },
        {
          "name": "currencyCt",
          "type": "address"
        },
        {
          "name": "currencyId",
          "type": "uint256"
        }
      ],
      "name": "proposalBlockNumber",
      "outputs": [
        {
          "name": "",
          "type": "uint256"
        }
      ],
      "payable": false,
      "stateMutability": "view",
      "type": "function"
    },
    {
      "constant": true,
      "inputs": [
        {
          "name": "wallet",
          "type": "address"
        },
        {
          "name": "currencyCt",
          "type": "address"
        },
        {
          "name": "currencyId",
          "type": "uint256"
        }
      ],
      "name": "proposalExpirationTime",
      "outputs": [
        {
          "name": "",
          "type": "uint256"
        }
      ],
      "payable": false,
      "stateMutability": "view",
      "type": "function"
    },
    {
      "constant": true,
      "inputs": [
        {
          "name": "wallet",
          "type": "address"
        },
        {
          "name": "currencyCt",
          "type": "address"
        },
        {
          "name": "currencyId",
          "type": "uint256"
        }
      ],
      "name": "proposalStatus",
      "outputs": [
        {
          "name": "",
          "type": "uint8"
        }
      ],
      "payable": false,
      "stateMutability": "view",
      "type": "function"
    },
    {
      "constant": true,
      "inputs": [
        {
          "name": "wallet",
          "type": "address"
        },
        {
          "name": "currencyCt",
          "type": "address"
        },
        {
          "name": "currencyId",
          "type": "uint256"
        }
      ],
      "name": "proposalStageAmount",
      "outputs": [
        {
          "name": "",
          "type": "int256"
        }
      ],
      "payable": false,
      "stateMutability": "view",
      "type": "function"
    },
    {
      "constant": true,
      "inputs": [
        {
          "name": "wallet",
          "type": "address"
        },
        {
          "name": "currencyCt",
          "type": "address"
        },
        {
          "name": "currencyId",
          "type": "uint256"
        }
      ],
      "name": "proposalTargetBalanceAmount",
      "outputs": [
        {
          "name": "",
          "type": "int256"
        }
      ],
      "payable": false,
      "stateMutability": "view",
      "type": "function"
    },
    {
      "constant": true,
      "inputs": [
        {
          "name": "wallet",
          "type": "address"
        },
        {
          "name": "currencyCt",
          "type": "address"
        },
        {
          "name": "currencyId",
          "type": "uint256"
        }
      ],
      "name": "proposalDriipHash",
      "outputs": [
        {
          "name": "",
          "type": "bytes32"
        }
      ],
      "payable": false,
      "stateMutability": "view",
      "type": "function"
    },
    {
      "constant": true,
      "inputs": [
        {
          "name": "wallet",
          "type": "address"
        },
        {
          "name": "currencyCt",
          "type": "address"
        },
        {
          "name": "currencyId",
          "type": "uint256"
        }
      ],
      "name": "proposalDriipType",
      "outputs": [
        {
          "name": "",
          "type": "uint8"
        }
      ],
      "payable": false,
      "stateMutability": "view",
      "type": "function"
    },
    {
      "constant": true,
      "inputs": [
        {
          "name": "wallet",
          "type": "address"
        },
        {
          "name": "currencyCt",
          "type": "address"
        },
        {
          "name": "currencyId",
          "type": "uint256"
        }
      ],
      "name": "proposalBalanceReward",
      "outputs": [
        {
          "name": "",
          "type": "bool"
        }
      ],
      "payable": false,
      "stateMutability": "view",
      "type": "function"
    },
    {
      "constant": true,
      "inputs": [
        {
          "name": "wallet",
          "type": "address"
        },
        {
          "name": "currencyCt",
          "type": "address"
        },
        {
          "name": "currencyId",
          "type": "uint256"
        }
      ],
      "name": "disqualificationCandidateType",
      "outputs": [
        {
          "name": "",
          "type": "uint8"
        }
      ],
      "payable": false,
      "stateMutability": "view",
      "type": "function"
    },
    {
      "constant": true,
      "inputs": [
        {
          "name": "wallet",
          "type": "address"
        },
        {
          "name": "currencyCt",
          "type": "address"
        },
        {
          "name": "currencyId",
          "type": "uint256"
        }
      ],
      "name": "disqualificationCandidateHash",
      "outputs": [
        {
          "name": "",
          "type": "bytes32"
        }
      ],
      "payable": false,
      "stateMutability": "view",
      "type": "function"
    },
    {
      "constant": true,
      "inputs": [
        {
          "name": "wallet",
          "type": "address"
        },
        {
          "name": "currencyCt",
          "type": "address"
        },
        {
          "name": "currencyId",
          "type": "uint256"
        }
      ],
      "name": "disqualificationChallenger",
      "outputs": [
        {
          "name": "",
          "type": "address"
        }
      ],
      "payable": false,
      "stateMutability": "view",
      "type": "function"
    },
    {
      "constant": false,
      "inputs": [
        {
          "name": "wallet",
          "type": "address"
        },
        {
          "name": "currencyCt",
          "type": "address"
        },
        {
          "name": "currencyId",
          "type": "uint256"
        },
        {
          "name": "expirationTime",
          "type": "uint256"
        }
      ],
      "name": "setProposalExpirationTime",
      "outputs": [],
      "payable": false,
      "stateMutability": "nonpayable",
      "type": "function"
    },
    {
      "constant": false,
      "inputs": [
        {
          "name": "wallet",
          "type": "address"
        },
        {
          "name": "currencyCt",
          "type": "address"
        },
        {
          "name": "currencyId",
          "type": "uint256"
        },
        {
          "name": "status",
          "type": "uint8"
        }
      ],
      "name": "setProposalStatus",
      "outputs": [],
      "payable": false,
      "stateMutability": "nonpayable",
      "type": "function"
    },
    {
      "constant": false,
      "inputs": [
        {
          "components": [
            {
              "name": "nonce",
              "type": "uint256"
            },
            {
              "name": "wallet",
              "type": "address"
            },
            {
              "components": [
                {
                  "name": "intention",
                  "type": "uint8"
                },
                {
                  "name": "amount",
                  "type": "int256"
                },
                {
                  "components": [
                    {
                      "components": [
                        {
                          "name": "ct",
                          "type": "address"
                        },
                        {
                          "name": "id",
                          "type": "uint256"
                        }
                      ],
                      "name": "intended",
                      "type": "tuple"
                    },
                    {
                      "components": [
                        {
                          "name": "ct",
                          "type": "address"
                        },
                        {
                          "name": "id",
                          "type": "uint256"
                        }
                      ],
                      "name": "conjugate",
                      "type": "tuple"
                    }
                  ],
                  "name": "currencies",
                  "type": "tuple"
                },
                {
                  "name": "rate",
                  "type": "int256"
                },
                {
                  "components": [
                    {
                      "name": "current",
                      "type": "int256"
                    },
                    {
                      "name": "previous",
                      "type": "int256"
                    }
                  ],
                  "name": "residuals",
                  "type": "tuple"
                }
              ],
              "name": "placement",
              "type": "tuple"
            },
            {
              "components": [
                {
                  "components": [
                    {
                      "name": "hash",
                      "type": "bytes32"
                    },
                    {
                      "components": [
                        {
                          "name": "r",
                          "type": "bytes32"
                        },
                        {
                          "name": "s",
                          "type": "bytes32"
                        },
                        {
                          "name": "v",
                          "type": "uint8"
                        }
                      ],
                      "name": "signature",
                      "type": "tuple"
                    }
                  ],
                  "name": "wallet",
                  "type": "tuple"
                },
                {
                  "components": [
                    {
                      "name": "hash",
                      "type": "bytes32"
                    },
                    {
                      "components": [
                        {
                          "name": "r",
                          "type": "bytes32"
                        },
                        {
                          "name": "s",
                          "type": "bytes32"
                        },
                        {
                          "name": "v",
                          "type": "uint8"
                        }
                      ],
                      "name": "signature",
                      "type": "tuple"
                    }
                  ],
                  "name": "operator",
                  "type": "tuple"
                }
              ],
              "name": "seals",
              "type": "tuple"
            },
            {
              "name": "blockNumber",
              "type": "uint256"
            },
            {
              "name": "operatorId",
              "type": "uint256"
            }
          ],
          "name": "order",
          "type": "tuple"
        }
      ],
      "name": "challengeByOrder",
      "outputs": [],
      "payable": false,
      "stateMutability": "nonpayable",
      "type": "function"
    },
    {
      "constant": false,
      "inputs": [
        {
          "components": [
            {
              "name": "nonce",
              "type": "uint256"
            },
            {
              "name": "wallet",
              "type": "address"
            },
            {
              "components": [
                {
                  "name": "intention",
                  "type": "uint8"
                },
                {
                  "name": "amount",
                  "type": "int256"
                },
                {
                  "components": [
                    {
                      "components": [
                        {
                          "name": "ct",
                          "type": "address"
                        },
                        {
                          "name": "id",
                          "type": "uint256"
                        }
                      ],
                      "name": "intended",
                      "type": "tuple"
                    },
                    {
                      "components": [
                        {
                          "name": "ct",
                          "type": "address"
                        },
                        {
                          "name": "id",
                          "type": "uint256"
                        }
                      ],
                      "name": "conjugate",
                      "type": "tuple"
                    }
                  ],
                  "name": "currencies",
                  "type": "tuple"
                },
                {
                  "name": "rate",
                  "type": "int256"
                },
                {
                  "components": [
                    {
                      "name": "current",
                      "type": "int256"
                    },
                    {
                      "name": "previous",
                      "type": "int256"
                    }
                  ],
                  "name": "residuals",
                  "type": "tuple"
                }
              ],
              "name": "placement",
              "type": "tuple"
            },
            {
              "components": [
                {
                  "components": [
                    {
                      "name": "hash",
                      "type": "bytes32"
                    },
                    {
                      "components": [
                        {
                          "name": "r",
                          "type": "bytes32"
                        },
                        {
                          "name": "s",
                          "type": "bytes32"
                        },
                        {
                          "name": "v",
                          "type": "uint8"
                        }
                      ],
                      "name": "signature",
                      "type": "tuple"
                    }
                  ],
                  "name": "wallet",
                  "type": "tuple"
                },
                {
                  "components": [
                    {
                      "name": "hash",
                      "type": "bytes32"
                    },
                    {
                      "components": [
                        {
                          "name": "r",
                          "type": "bytes32"
                        },
                        {
                          "name": "s",
                          "type": "bytes32"
                        },
                        {
                          "name": "v",
                          "type": "uint8"
                        }
                      ],
                      "name": "signature",
                      "type": "tuple"
                    }
                  ],
                  "name": "operator",
                  "type": "tuple"
                }
              ],
              "name": "seals",
              "type": "tuple"
            },
            {
              "name": "blockNumber",
              "type": "uint256"
            },
            {
              "name": "operatorId",
              "type": "uint256"
            }
          ],
          "name": "order",
          "type": "tuple"
        },
        {
          "components": [
            {
              "name": "nonce",
              "type": "uint256"
            },
            {
              "name": "amount",
              "type": "int256"
            },
            {
              "components": [
                {
                  "components": [
                    {
                      "name": "ct",
                      "type": "address"
                    },
                    {
                      "name": "id",
                      "type": "uint256"
                    }
                  ],
                  "name": "intended",
                  "type": "tuple"
                },
                {
                  "components": [
                    {
                      "name": "ct",
                      "type": "address"
                    },
                    {
                      "name": "id",
                      "type": "uint256"
                    }
                  ],
                  "name": "conjugate",
                  "type": "tuple"
                }
              ],
              "name": "currencies",
              "type": "tuple"
            },
            {
              "name": "rate",
              "type": "int256"
            },
            {
              "components": [
                {
                  "name": "nonce",
                  "type": "uint256"
                },
                {
                  "name": "wallet",
                  "type": "address"
                },
                {
                  "name": "rollingVolume",
                  "type": "uint256"
                },
                {
                  "name": "liquidityRole",
                  "type": "uint8"
                },
                {
                  "components": [
                    {
                      "name": "amount",
                      "type": "int256"
                    },
                    {
                      "components": [
                        {
                          "name": "wallet",
                          "type": "bytes32"
                        },
                        {
                          "name": "operator",
                          "type": "bytes32"
                        }
                      ],
                      "name": "hashes",
                      "type": "tuple"
                    },
                    {
                      "components": [
                        {
                          "name": "current",
                          "type": "int256"
                        },
                        {
                          "name": "previous",
                          "type": "int256"
                        }
                      ],
                      "name": "residuals",
                      "type": "tuple"
                    }
                  ],
                  "name": "order",
                  "type": "tuple"
                },
                {
                  "components": [
                    {
                      "components": [
                        {
                          "name": "current",
                          "type": "int256"
                        },
                        {
                          "name": "previous",
                          "type": "int256"
                        }
                      ],
                      "name": "intended",
                      "type": "tuple"
                    },
                    {
                      "components": [
                        {
                          "name": "current",
                          "type": "int256"
                        },
                        {
                          "name": "previous",
                          "type": "int256"
                        }
                      ],
                      "name": "conjugate",
                      "type": "tuple"
                    }
                  ],
                  "name": "balances",
                  "type": "tuple"
                },
                {
                  "components": [
                    {
                      "components": [
                        {
                          "name": "amount",
                          "type": "int256"
                        },
                        {
                          "components": [
                            {
                              "name": "ct",
                              "type": "address"
                            },
                            {
                              "name": "id",
                              "type": "uint256"
                            }
                          ],
                          "name": "currency",
                          "type": "tuple"
                        }
                      ],
                      "name": "single",
                      "type": "tuple"
                    },
                    {
                      "components": [
                        {
                          "name": "amount",
                          "type": "int256"
                        },
                        {
                          "components": [
                            {
                              "name": "ct",
                              "type": "address"
                            },
                            {
                              "name": "id",
                              "type": "uint256"
                            }
                          ],
                          "name": "currency",
                          "type": "tuple"
                        }
                      ],
                      "name": "total",
                      "type": "tuple[]"
                    }
                  ],
                  "name": "fees",
                  "type": "tuple"
                }
              ],
              "name": "buyer",
              "type": "tuple"
            },
            {
              "components": [
                {
                  "name": "nonce",
                  "type": "uint256"
                },
                {
                  "name": "wallet",
                  "type": "address"
                },
                {
                  "name": "rollingVolume",
                  "type": "uint256"
                },
                {
                  "name": "liquidityRole",
                  "type": "uint8"
                },
                {
                  "components": [
                    {
                      "name": "amount",
                      "type": "int256"
                    },
                    {
                      "components": [
                        {
                          "name": "wallet",
                          "type": "bytes32"
                        },
                        {
                          "name": "operator",
                          "type": "bytes32"
                        }
                      ],
                      "name": "hashes",
                      "type": "tuple"
                    },
                    {
                      "components": [
                        {
                          "name": "current",
                          "type": "int256"
                        },
                        {
                          "name": "previous",
                          "type": "int256"
                        }
                      ],
                      "name": "residuals",
                      "type": "tuple"
                    }
                  ],
                  "name": "order",
                  "type": "tuple"
                },
                {
                  "components": [
                    {
                      "components": [
                        {
                          "name": "current",
                          "type": "int256"
                        },
                        {
                          "name": "previous",
                          "type": "int256"
                        }
                      ],
                      "name": "intended",
                      "type": "tuple"
                    },
                    {
                      "components": [
                        {
                          "name": "current",
                          "type": "int256"
                        },
                        {
                          "name": "previous",
                          "type": "int256"
                        }
                      ],
                      "name": "conjugate",
                      "type": "tuple"
                    }
                  ],
                  "name": "balances",
                  "type": "tuple"
                },
                {
                  "components": [
                    {
                      "components": [
                        {
                          "name": "amount",
                          "type": "int256"
                        },
                        {
                          "components": [
                            {
                              "name": "ct",
                              "type": "address"
                            },
                            {
                              "name": "id",
                              "type": "uint256"
                            }
                          ],
                          "name": "currency",
                          "type": "tuple"
                        }
                      ],
                      "name": "single",
                      "type": "tuple"
                    },
                    {
                      "components": [
                        {
                          "name": "amount",
                          "type": "int256"
                        },
                        {
                          "components": [
                            {
                              "name": "ct",
                              "type": "address"
                            },
                            {
                              "name": "id",
                              "type": "uint256"
                            }
                          ],
                          "name": "currency",
                          "type": "tuple"
                        }
                      ],
                      "name": "total",
                      "type": "tuple[]"
                    }
                  ],
                  "name": "fees",
                  "type": "tuple"
                }
              ],
              "name": "seller",
              "type": "tuple"
            },
            {
              "components": [
                {
                  "components": [
                    {
                      "name": "single",
                      "type": "int256"
                    },
                    {
                      "name": "total",
                      "type": "int256"
                    }
                  ],
                  "name": "intended",
                  "type": "tuple"
                },
                {
                  "components": [
                    {
                      "name": "single",
                      "type": "int256"
                    },
                    {
                      "name": "total",
                      "type": "int256"
                    }
                  ],
                  "name": "conjugate",
                  "type": "tuple"
                }
              ],
              "name": "transfers",
              "type": "tuple"
            },
            {
              "components": [
                {
                  "name": "hash",
                  "type": "bytes32"
                },
                {
                  "components": [
                    {
                      "name": "r",
                      "type": "bytes32"
                    },
                    {
                      "name": "s",
                      "type": "bytes32"
                    },
                    {
                      "name": "v",
                      "type": "uint8"
                    }
                  ],
                  "name": "signature",
                  "type": "tuple"
                }
              ],
              "name": "seal",
              "type": "tuple"
            },
            {
              "name": "blockNumber",
              "type": "uint256"
            },
            {
              "name": "operatorId",
              "type": "uint256"
            }
          ],
          "name": "trade",
          "type": "tuple"
        }
      ],
      "name": "unchallengeOrderCandidateByTrade",
      "outputs": [],
      "payable": false,
      "stateMutability": "nonpayable",
      "type": "function"
    },
    {
      "constant": false,
      "inputs": [
        {
          "name": "wallet",
          "type": "address"
        },
        {
          "components": [
            {
              "name": "nonce",
              "type": "uint256"
            },
            {
              "name": "amount",
              "type": "int256"
            },
            {
              "components": [
                {
                  "components": [
                    {
                      "name": "ct",
                      "type": "address"
                    },
                    {
                      "name": "id",
                      "type": "uint256"
                    }
                  ],
                  "name": "intended",
                  "type": "tuple"
                },
                {
                  "components": [
                    {
                      "name": "ct",
                      "type": "address"
                    },
                    {
                      "name": "id",
                      "type": "uint256"
                    }
                  ],
                  "name": "conjugate",
                  "type": "tuple"
                }
              ],
              "name": "currencies",
              "type": "tuple"
            },
            {
              "name": "rate",
              "type": "int256"
            },
            {
              "components": [
                {
                  "name": "nonce",
                  "type": "uint256"
                },
                {
                  "name": "wallet",
                  "type": "address"
                },
                {
                  "name": "rollingVolume",
                  "type": "uint256"
                },
                {
                  "name": "liquidityRole",
                  "type": "uint8"
                },
                {
                  "components": [
                    {
                      "name": "amount",
                      "type": "int256"
                    },
                    {
                      "components": [
                        {
                          "name": "wallet",
                          "type": "bytes32"
                        },
                        {
                          "name": "operator",
                          "type": "bytes32"
                        }
                      ],
                      "name": "hashes",
                      "type": "tuple"
                    },
                    {
                      "components": [
                        {
                          "name": "current",
                          "type": "int256"
                        },
                        {
                          "name": "previous",
                          "type": "int256"
                        }
                      ],
                      "name": "residuals",
                      "type": "tuple"
                    }
                  ],
                  "name": "order",
                  "type": "tuple"
                },
                {
                  "components": [
                    {
                      "components": [
                        {
                          "name": "current",
                          "type": "int256"
                        },
                        {
                          "name": "previous",
                          "type": "int256"
                        }
                      ],
                      "name": "intended",
                      "type": "tuple"
                    },
                    {
                      "components": [
                        {
                          "name": "current",
                          "type": "int256"
                        },
                        {
                          "name": "previous",
                          "type": "int256"
                        }
                      ],
                      "name": "conjugate",
                      "type": "tuple"
                    }
                  ],
                  "name": "balances",
                  "type": "tuple"
                },
                {
                  "components": [
                    {
                      "components": [
                        {
                          "name": "amount",
                          "type": "int256"
                        },
                        {
                          "components": [
                            {
                              "name": "ct",
                              "type": "address"
                            },
                            {
                              "name": "id",
                              "type": "uint256"
                            }
                          ],
                          "name": "currency",
                          "type": "tuple"
                        }
                      ],
                      "name": "single",
                      "type": "tuple"
                    },
                    {
                      "components": [
                        {
                          "name": "amount",
                          "type": "int256"
                        },
                        {
                          "components": [
                            {
                              "name": "ct",
                              "type": "address"
                            },
                            {
                              "name": "id",
                              "type": "uint256"
                            }
                          ],
                          "name": "currency",
                          "type": "tuple"
                        }
                      ],
                      "name": "total",
                      "type": "tuple[]"
                    }
                  ],
                  "name": "fees",
                  "type": "tuple"
                }
              ],
              "name": "buyer",
              "type": "tuple"
            },
            {
              "components": [
                {
                  "name": "nonce",
                  "type": "uint256"
                },
                {
                  "name": "wallet",
                  "type": "address"
                },
                {
                  "name": "rollingVolume",
                  "type": "uint256"
                },
                {
                  "name": "liquidityRole",
                  "type": "uint8"
                },
                {
                  "components": [
                    {
                      "name": "amount",
                      "type": "int256"
                    },
                    {
                      "components": [
                        {
                          "name": "wallet",
                          "type": "bytes32"
                        },
                        {
                          "name": "operator",
                          "type": "bytes32"
                        }
                      ],
                      "name": "hashes",
                      "type": "tuple"
                    },
                    {
                      "components": [
                        {
                          "name": "current",
                          "type": "int256"
                        },
                        {
                          "name": "previous",
                          "type": "int256"
                        }
                      ],
                      "name": "residuals",
                      "type": "tuple"
                    }
                  ],
                  "name": "order",
                  "type": "tuple"
                },
                {
                  "components": [
                    {
                      "components": [
                        {
                          "name": "current",
                          "type": "int256"
                        },
                        {
                          "name": "previous",
                          "type": "int256"
                        }
                      ],
                      "name": "intended",
                      "type": "tuple"
                    },
                    {
                      "components": [
                        {
                          "name": "current",
                          "type": "int256"
                        },
                        {
                          "name": "previous",
                          "type": "int256"
                        }
                      ],
                      "name": "conjugate",
                      "type": "tuple"
                    }
                  ],
                  "name": "balances",
                  "type": "tuple"
                },
                {
                  "components": [
                    {
                      "components": [
                        {
                          "name": "amount",
                          "type": "int256"
                        },
                        {
                          "components": [
                            {
                              "name": "ct",
                              "type": "address"
                            },
                            {
                              "name": "id",
                              "type": "uint256"
                            }
                          ],
                          "name": "currency",
                          "type": "tuple"
                        }
                      ],
                      "name": "single",
                      "type": "tuple"
                    },
                    {
                      "components": [
                        {
                          "name": "amount",
                          "type": "int256"
                        },
                        {
                          "components": [
                            {
                              "name": "ct",
                              "type": "address"
                            },
                            {
                              "name": "id",
                              "type": "uint256"
                            }
                          ],
                          "name": "currency",
                          "type": "tuple"
                        }
                      ],
                      "name": "total",
                      "type": "tuple[]"
                    }
                  ],
                  "name": "fees",
                  "type": "tuple"
                }
              ],
              "name": "seller",
              "type": "tuple"
            },
            {
              "components": [
                {
                  "components": [
                    {
                      "name": "single",
                      "type": "int256"
                    },
                    {
                      "name": "total",
                      "type": "int256"
                    }
                  ],
                  "name": "intended",
                  "type": "tuple"
                },
                {
                  "components": [
                    {
                      "name": "single",
                      "type": "int256"
                    },
                    {
                      "name": "total",
                      "type": "int256"
                    }
                  ],
                  "name": "conjugate",
                  "type": "tuple"
                }
              ],
              "name": "transfers",
              "type": "tuple"
            },
            {
              "components": [
                {
                  "name": "hash",
                  "type": "bytes32"
                },
                {
                  "components": [
                    {
                      "name": "r",
                      "type": "bytes32"
                    },
                    {
                      "name": "s",
                      "type": "bytes32"
                    },
                    {
                      "name": "v",
                      "type": "uint8"
                    }
                  ],
                  "name": "signature",
                  "type": "tuple"
                }
              ],
              "name": "seal",
              "type": "tuple"
            },
            {
              "name": "blockNumber",
              "type": "uint256"
            },
            {
              "name": "operatorId",
              "type": "uint256"
            }
          ],
          "name": "trade",
          "type": "tuple"
        }
      ],
      "name": "challengeByTrade",
      "outputs": [],
      "payable": false,
      "stateMutability": "nonpayable",
      "type": "function"
    },
    {
      "constant": false,
      "inputs": [
        {
          "name": "wallet",
          "type": "address"
        },
        {
          "components": [
            {
              "name": "nonce",
              "type": "uint256"
            },
            {
              "name": "amount",
              "type": "int256"
            },
            {
              "components": [
                {
                  "name": "ct",
                  "type": "address"
                },
                {
                  "name": "id",
                  "type": "uint256"
                }
              ],
              "name": "currency",
              "type": "tuple"
            },
            {
              "components": [
                {
                  "name": "nonce",
                  "type": "uint256"
                },
                {
                  "name": "wallet",
                  "type": "address"
                },
                {
                  "components": [
                    {
                      "name": "current",
                      "type": "int256"
                    },
                    {
                      "name": "previous",
                      "type": "int256"
                    }
                  ],
                  "name": "balances",
                  "type": "tuple"
                },
                {
                  "components": [
                    {
                      "components": [
                        {
                          "name": "amount",
                          "type": "int256"
                        },
                        {
                          "components": [
                            {
                              "name": "ct",
                              "type": "address"
                            },
                            {
                              "name": "id",
                              "type": "uint256"
                            }
                          ],
                          "name": "currency",
                          "type": "tuple"
                        }
                      ],
                      "name": "single",
                      "type": "tuple"
                    },
                    {
                      "components": [
                        {
                          "name": "amount",
                          "type": "int256"
                        },
                        {
                          "components": [
                            {
                              "name": "ct",
                              "type": "address"
                            },
                            {
                              "name": "id",
                              "type": "uint256"
                            }
                          ],
                          "name": "currency",
                          "type": "tuple"
                        }
                      ],
                      "name": "total",
                      "type": "tuple[]"
                    }
                  ],
                  "name": "fees",
                  "type": "tuple"
                }
              ],
              "name": "sender",
              "type": "tuple"
            },
            {
              "components": [
                {
                  "name": "nonce",
                  "type": "uint256"
                },
                {
                  "name": "wallet",
                  "type": "address"
                },
                {
                  "components": [
                    {
                      "name": "current",
                      "type": "int256"
                    },
                    {
                      "name": "previous",
                      "type": "int256"
                    }
                  ],
                  "name": "balances",
                  "type": "tuple"
                },
                {
                  "components": [
                    {
                      "components": [
                        {
                          "name": "amount",
                          "type": "int256"
                        },
                        {
                          "components": [
                            {
                              "name": "ct",
                              "type": "address"
                            },
                            {
                              "name": "id",
                              "type": "uint256"
                            }
                          ],
                          "name": "currency",
                          "type": "tuple"
                        }
                      ],
                      "name": "total",
                      "type": "tuple[]"
                    }
                  ],
                  "name": "fees",
                  "type": "tuple"
                }
              ],
              "name": "recipient",
              "type": "tuple"
            },
            {
              "components": [
                {
                  "name": "single",
                  "type": "int256"
                },
                {
                  "name": "total",
                  "type": "int256"
                }
              ],
              "name": "transfers",
              "type": "tuple"
            },
            {
              "components": [
                {
                  "components": [
                    {
                      "name": "hash",
                      "type": "bytes32"
                    },
                    {
                      "components": [
                        {
                          "name": "r",
                          "type": "bytes32"
                        },
                        {
                          "name": "s",
                          "type": "bytes32"
                        },
                        {
                          "name": "v",
                          "type": "uint8"
                        }
                      ],
                      "name": "signature",
                      "type": "tuple"
                    }
                  ],
                  "name": "wallet",
                  "type": "tuple"
                },
                {
                  "components": [
                    {
                      "name": "hash",
                      "type": "bytes32"
                    },
                    {
                      "components": [
                        {
                          "name": "r",
                          "type": "bytes32"
                        },
                        {
                          "name": "s",
                          "type": "bytes32"
                        },
                        {
                          "name": "v",
                          "type": "uint8"
                        }
                      ],
                      "name": "signature",
                      "type": "tuple"
                    }
                  ],
                  "name": "operator",
                  "type": "tuple"
                }
              ],
              "name": "seals",
              "type": "tuple"
            },
            {
              "name": "blockNumber",
              "type": "uint256"
            },
            {
              "name": "operatorId",
              "type": "uint256"
            }
          ],
          "name": "payment",
          "type": "tuple"
        }
      ],
      "name": "challengeByPayment",
      "outputs": [],
      "payable": false,
      "stateMutability": "nonpayable",
      "type": "function"
    },
    {
      "constant": true,
      "inputs": [],
      "name": "candidateHashesCount",
      "outputs": [
        {
          "name": "",
          "type": "uint256"
        }
      ],
      "payable": false,
      "stateMutability": "view",
      "type": "function"
    },
    {
      "constant": false,
      "inputs": [
        {
          "name": "wallet",
          "type": "address"
        }
      ],
      "name": "lockWallet",
      "outputs": [],
      "payable": false,
      "stateMutability": "nonpayable",
      "type": "function"
    },
    {
      "constant": true,
      "inputs": [
        {
          "name": "wallet",
          "type": "address"
        }
      ],
      "name": "isLockedWallet",
      "outputs": [
        {
          "name": "",
          "type": "bool"
        }
      ],
      "payable": false,
      "stateMutability": "view",
      "type": "function"
    },
    {
      "constant": false,
      "inputs": [
        {
          "name": "wallet",
          "type": "address"
        },
        {
          "name": "currencyCt",
          "type": "address"
        },
        {
          "name": "currencyId",
          "type": "uint256"
        },
        {
          "name": "candidateHash",
          "type": "bytes32"
        },
        {
          "name": "candidateType",
          "type": "uint8"
        },
        {
          "name": "challenger",
          "type": "address"
        }
      ],
      "name": "addDisqualification",
      "outputs": [],
      "payable": false,
      "stateMutability": "nonpayable",
      "type": "function"
    },
    {
      "constant": false,
      "inputs": [
        {
          "name": "wallet",
          "type": "address"
        },
        {
          "name": "currencyCt",
          "type": "address"
        },
        {
          "name": "currencyId",
          "type": "uint256"
        }
      ],
      "name": "removeDisqualification",
      "outputs": [],
      "payable": false,
      "stateMutability": "nonpayable",
      "type": "function"
    }
  ],
  "bytecode": "0x60806040523480156200001157600080fd5b5060405160208062004c2d8339810180604052620000339190810190620000a9565b8080600160a060020a03811615156200004b57600080fd5b600160a060020a0381163014156200006257600080fd5b5060008054600160a060020a03909216600160a060020a031992831681179091556001805490921617905550620000de565b6000620000a28251620000d2565b9392505050565b600060208284031215620000bc57600080fd5b6000620000ca848462000094565b949350505050565b600160a060020a031690565b614b3f80620000ee6000396000f3006080604052600436106102c65763ffffffff60e060020a600035041663013cf08b81146102cb57806303607fba1461030c5780630712abb01461032e578063077f9e0c1461035b5780630a9f46ad146103885780630fc842a1146103aa57806310b01314146103d75780631110f49a146103f75780631327d3d8146104175780631698792914610437578063176983a8146104575780631a9caa02146104775780631e4e550a1461048c578063278f25c2146104ac578063282c7b92146104cc5780633a5381b5146104e15780633bebdcb5146105035780633c8be0f01461052357806342cb4587146105385780634476d23b1461055857806345a4820f1461056d57806349a3db631461058d5780635252358d146105ad57806352b1cd0c146105cd57806353fc6a55146105ed578063570ca7351461060d578063627f09c31461062257806363376c4a14610642578063657c9b801461066257806366a6f36d146106825780636c70bee9146106a25780636d66a9ea146106b75780636e8e5600146106d757806376cfd4f1146106f75780637bbb593b1461071757806385ea5e021461073757806390363c6f1461075757806393dfe6251461077757806394dd293c146107a457806396214735146107b9578063a4fc7859146107d9578063ac71d988146107f9578063ada072fb14610819578063b009464a1461082e578063b13fd3711461084e578063b3ab15fb1461086e578063ba42ff311461088e578063bb327040146108ae578063c41570bd146108ce578063cb0f433b146108ee578063cd5c4f5714610903578063cd808d9414610923578063cdbf941914610943578063d5f3948814610963578063d8ac023e14610978578063dd27020014610998578063e74c81a2146109cb578063e769f40d146109eb578063ebea2e5614610a0b578063f26a861e14610a20578063fb1a825e14610a35578063fca5192b14610a55575b600080fd5b3480156102d757600080fd5b506102eb6102e63660046140de565b610a75565b6040516103039c9b9a99989796959493929190614891565b60405180910390f35b34801561031857600080fd5b5061032c610327366004614024565b610af6565b005b34801561033a57600080fd5b5061034e610349366004613ce4565b610bf8565b6040516103039190614997565b34801561036757600080fd5b5061037b610376366004613cbe565b610c66565b6040516103039190614944565b34801561039457600080fd5b5061039d610c83565b6040516103039190614952565b3480156103b657600080fd5b506103ca6103c5366004613ce4565b610c8a565b60405161030391906146ed565b3480156103e357600080fd5b5061032c6103f2366004613ce4565b610d03565b34801561040357600080fd5b5061032c610412366004614005565b610f27565b34801561042357600080fd5b5061032c610432366004613fe7565b611026565b34801561044357600080fd5b5061039d610452366004613ce4565b6110cd565b34801561046357600080fd5b5061039d610472366004613ce4565b611137565b34801561048357600080fd5b5061039d6111a1565b34801561049857600080fd5b5061039d6104a73660046140de565b6111a7565b3480156104b857600080fd5b5061039d6104c73660046140de565b6111c6565b3480156104d857600080fd5b5061039d6111d4565b3480156104ed57600080fd5b506104f66111da565b6040516103039190614960565b34801561050f57600080fd5b5061037b61051e366004613ce4565b6111e9565b34801561052f57600080fd5b5061039d611280565b34801561054457600080fd5b5061039d610553366004613ce4565b611286565b34801561056457600080fd5b506103ca6112f0565b34801561057957600080fd5b5061032c610588366004614061565b6112ff565b34801561059957600080fd5b5061032c6105a8366004613f08565b611368565b3480156105b957600080fd5b5061037b6105c8366004613ce4565b611434565b3480156105d957600080fd5b5061039d6105e8366004613f99565b6114a7565b3480156105f957600080fd5b5061032c610608366004613ebf565b6114d7565b34801561061957600080fd5b506103ca611542565b34801561062e57600080fd5b5061032c61063d366004613fe7565b611551565b34801561064e57600080fd5b5061039d61065d3660046140de565b6115e9565b34801561066e57600080fd5b5061032c61067d366004613e6e565b6115f7565b34801561068e57600080fd5b5061039d61069d366004613ce4565b6116c3565b3480156106ae57600080fd5b506104f66116e6565b3480156106c357600080fd5b5061039d6106d2366004613cbe565b6116f5565b3480156106e357600080fd5b5061032c6106f2366004613fe7565b611710565b34801561070357600080fd5b506103ca6107123660046140de565b611794565b34801561072357600080fd5b5061032c610732366004614096565b6117bc565b34801561074357600080fd5b5061032c610752366004613db8565b611818565b34801561076357600080fd5b5061039d610772366004613f99565b6118b2565b34801561078357600080fd5b50610797610792366004613ce4565b6118cd565b6040516103039190614989565b3480156107b057600080fd5b5061032c61193b565b3480156107c557600080fd5b5061032c6107d4366004613cbe565b61196a565b3480156107e557600080fd5b5061032c6107f4366004613e19565b611a19565b34801561080557600080fd5b5061039d610814366004613ce4565b611a9d565b34801561082557600080fd5b5061039d611b07565b34801561083a57600080fd5b5061032c610849366004613f4f565b611b0d565b34801561085a57600080fd5b5061032c610869366004613d31565b611b78565b34801561087a57600080fd5b5061032c610889366004613cbe565b611df3565b34801561089a57600080fd5b5061039d6108a9366004613ce4565b611e9d565b3480156108ba57600080fd5b5061039d6108c9366004613cbe565b611ec0565b3480156108da57600080fd5b506103ca6108e93660046140de565b611edb565b3480156108fa57600080fd5b506104f6611ee9565b34801561090f57600080fd5b5061034e61091e366004613ce4565b611ef8565b34801561092f57600080fd5b5061032c61093e366004613cbe565b611f66565b34801561094f57600080fd5b5061039d61095e366004613ce4565b6120ac565b34801561096f57600080fd5b506103ca612116565b34801561098457600080fd5b5061039d610993366004613f99565b612125565b3480156109a457600080fd5b506109b86109b33660046140de565b612140565b6040516103039796959493929190614829565b3480156109d757600080fd5b5061037b6109e6366004613cbe565b61219e565b3480156109f757600080fd5b5061039d610a06366004613cbe565b6121b3565b348015610a1757600080fd5b5061039d6121c5565b348015610a2c57600080fd5b5061039d6121cb565b348015610a4157600080fd5b5061039d610a50366004613ce4565b6121d1565b348015610a6157600080fd5b5061039d610a70366004613ce4565b61223b565b600a805482908110610a8357fe5b60009182526020909120600a90910201805460018201546002830154600384015460048501546005860154600687015460078801546008890154600990990154600160a060020a039889169a5096989597949660ff8086169761010096879004909716969495939492938282169204168c565b600260009054906101000a9004600160a060020a0316600160a060020a031663f71e860f6040518163ffffffff1660e060020a028152600401602060405180830381600087803b158015610b4957600080fd5b505af1158015610b5d573d6000803e3d6000fd5b505050506040513d601f19601f82011682018060405250610b819190810190613fc9565b1515610b8c57600080fd5b6004805460405160e260020a631005cd99028152600160a060020a0390911691634017366491610bc291869186913391016149c2565b600060405180830381600087803b158015610bdc57600080fd5b505af1158015610bf0573d6000803e3d6000fd5b505050505050565b600160a060020a038084166000908152600b602090815260408083209386168352928152828220848352905290812054801515610c3457600080fd5b600a80546000198301908110610c4657fe5b60009182526020909120600a909102016004015460ff1695945050505050565b600160a060020a0316600090815260096020526040902054421090565b600a545b90565b600160a060020a038084166000908152600e602090815260408083209386168352928152828220848352905290812054801515610cc657600080fd5b600d80546000198301908110610cd857fe5b60009182526020909120600690910201600501546101009004600160a060020a031695945050505050565b600454600090600160a060020a03163314610d1d57600080fd5b50600160a060020a038084166000908152600e602090815260408083209386168352928152828220848352905290812054908111610d5a57600080fd5b600d54811015610edf57600d80546000198101908110610d7657fe5b9060005260206000209060060201600d60018303815481101515610d9657fe5b6000918252602090912082546006909202018054600160a060020a0319908116600160a060020a03938416178255600180850154818401556002808601549084018054909316941693909317905560038084015481830155600480850154908301556005808501549083018054939460ff90921693909260ff1990911691908490811115610e2057fe5b02179055506005918201549101805461010060a860020a03191661010092839004600160a060020a0390811690930217905584166000908152600e60205260408120600d8054849391906000198501908110610e7857fe5b6000918252602080832060026006909302019190910154600160a060020a031683528201929092526040018120600d80549192916000198601908110610eba57fe5b9060005260206000209060060201600301548152602001908152602001600020819055505b600d805490610ef29060001983016132d2565b5050600160a060020a039283166000908152600e60209081526040808320949095168252928352838120918152915290812055565b600260009054906101000a9004600160a060020a0316600160a060020a031663f71e860f6040518163ffffffff1660e060020a028152600401602060405180830381600087803b158015610f7a57600080fd5b505af1158015610f8e573d6000803e3d6000fd5b505050506040513d601f19601f82011682018060405250610fb29190810190613fc9565b1515610fbd57600080fd5b6004805460405160e060020a638eed8359028152600160a060020a0390911691638eed835991610ff19185913391016149a5565b600060405180830381600087803b15801561100b57600080fd5b505af115801561101f573d6000803e3d6000fd5b5050505050565b60006110306122a5565b151561103b57600080fd5b81600160a060020a038116151561105157600080fd5b6003548390600160a060020a03908116908216811461101f5760038054600160a060020a03878116600160a060020a0319831617909255604051911694507f1882af944a16549c3d4f60e3cd26f158b0c7aac3222cf32971fc21375ce05f60906110be908690889061496e565b60405180910390a15050505050565b600160a060020a038084166000908152600b60209081526040808320938616835292815282822084835290529081205480151561110957600080fd5b600a8054600019830190811061111b57fe5b90600052602060002090600a0201600701549150509392505050565b600160a060020a038084166000908152600b60209081526040808320938616835292815282822084835290529081205480151561117357600080fd5b600a8054600019830190811061118557fe5b90600052602060002090600a0201600801549150509392505050565b60055490565b60118054829081106111b557fe5b600091825260209091200154905081565b600f8054829081106111b557fe5b600d5490565b600354600160a060020a031681565b600160a060020a038084166000908152600b6020908152604080832093861683529281528282208483529052908120548015806112495750600a8054600019830190811061123357fe5b90600052602060002090600a0201600101546000145b806112775750600a8054600019830190811061126157fe5b90600052602060002090600a0201600301544210155b95945050505050565b60115490565b600160a060020a038084166000908152600b6020908152604080832093861683529281528282208483529052908120548015156112c257600080fd5b600a805460001983019081106112d457fe5b90600052602060002090600a0201600601549150509392505050565b600054600160a060020a031690565b61130833610c66565b1561131257600080fd5b61131f33838360016122b6565b60c082015160200151516040517f557f56c08862b8255911d43ddbdd429111241d48fd17bf432d41a6ae58ade7d39161135c913391908590614797565b60405180910390a15050565b600260009054906101000a9004600160a060020a0316600160a060020a031663f71e860f6040518163ffffffff1660e060020a028152600401602060405180830381600087803b1580156113bb57600080fd5b505af11580156113cf573d6000803e3d6000fd5b505050506040513d601f19601f820116820180604052506113f39190810190613fc9565b15156113fe57600080fd5b6004805460405160e060020a631114b317028152600160a060020a0390911691631114b31791610bc29186918691339101614809565b600160a060020a038084166000908152600b60209081526040808320938616835292815282822084835290529081205480151561147057600080fd5b600a8054600019830190811061148257fe5b60009182526020909120600a9091020160090154610100900460ff1695945050505050565b6010602052816000526040600020818154811015156114c257fe5b90600052602060002001600091509150505481565b6114df6122a5565b15156114ea57600080fd5b6114f783838360006122b6565b60c082015160200151516040517f6d94b3aed7642f72cda497a37ad55b99c7d30002cbb67b058b558b2a92a4623d9161153591339187918690614716565b60405180910390a1505050565b600154600160a060020a031681565b600061155b6122a5565b151561156657600080fd5b81600160a060020a038116151561157c57600080fd5b6002548390600160a060020a03908116908216811461101f5760028054600160a060020a03878116600160a060020a0319831617909255604051911694507f634f61bf00e14adedce330c80c2823e16e184f189ebe853e1ddecc4a268477ff906110be908690889061496e565b60138054829081106111b557fe5b600260009054906101000a9004600160a060020a0316600160a060020a031663f71e860f6040518163ffffffff1660e060020a028152600401602060405180830381600087803b15801561164a57600080fd5b505af115801561165e573d6000803e3d6000fd5b505050506040513d601f19601f820116820180604052506116829190810190613fc9565b151561168d57600080fd5b6004805460405160e260020a631fc1229d028152600160a060020a0390911691637f048a7491610bc291869186913391016147da565b600b60209081526000938452604080852082529284528284209052825290205481565b600254600160a060020a031681565b600160a060020a031660009081526012602052604090205490565b600061171a6122a5565b151561172557600080fd5b81600160a060020a038116151561173b57600080fd5b60048054600160a060020a03858116600160a060020a03198316179283905560405191811694507f9873fbb7f672f15a890bdae14e1c20df26d321d27306ea9151bf80ce80266d3b92611535928692919091169061496e565b60058054829081106117a257fe5b600091825260209091200154600160a060020a0316905081565b6117c533610c66565b156117cf57600080fd5b6117dd338484846001612514565b60e0830151516040517f92fbfde4e67a0839d154cd36041dfd04992a08a0b09dfbf28e53ab646474bd299161153591339190869086906147bf565b600454600090600160a060020a0316331461183257600080fd5b50600160a060020a038085166000908152600b6020908152604080832093871683529281528282208583529052205480151561186d57600080fd5b81600a6001830381548110151561188057fe5b600091825260209091206004600a9092020101805460ff1916600183818111156118a657fe5b02179055505050505050565b600c602052816000526040600020818154811015156114c257fe5b600160a060020a038084166000908152600e60209081526040808320938616835292815282822084835290529081205480151561190957600080fd5b600d8054600019830190811061191b57fe5b600091825260209091206006909102016005015460ff1695945050505050565b6119436112f0565b600160a060020a0316331461195757600080fd5b61195f6112f0565b600160a060020a0316ff5b60006119746122a5565b151561197f57600080fd5b81600160a060020a038116151561199557600080fd5b600160a060020a0381163014156119ab57600080fd5b600054600160a060020a03848116911614611a145760008054600160a060020a03858116600160a060020a0319831617909255604051911692507f977e5fa58e458501775e0008d275006294c5249e3c08d1d0e3a9f3acad14f6e49061153590849086906146fb565b505050565b600454600090600160a060020a03163314611a3357600080fd5b50600160a060020a038085166000908152600b60209081526040808320938716835292815282822085835290522054801515611a6e57600080fd5b81600a60018303815481101515611a8157fe5b90600052602060002090600a0201600301819055505050505050565b600160a060020a038084166000908152600e602090815260408083209386168352928152828220848352905290812054801515611ad957600080fd5b600d80546000198301908110611aeb57fe5b9060005260206000209060060201600401549150509392505050565b60135490565b611b156122a5565b1515611b2057600080fd5b611b2e848484846000612514565b60e0830151516040517f0a6b525565da0cbced0dcf4a83758b063ce5e7238f632cab9b5cf4d30108e1c291611b6a91339188918790879061474b565b60405180910390a150505050565b600454600090600160a060020a03163314611b9257600080fd5b50600160a060020a038087166000908152600b60209081526040808320938916835292815282822087835290522054801515611bcd57600080fd5b600d805490611bdf90600183016132d2565b50600d80548891906000198101908110611bf557fe5b600091825260209091206006909102018054600160a060020a031916600160a060020a0392909216919091179055600a80546000198301908110611c3557fe5b600091825260209091206001600a909202010154600d80546000198101908110611c5b57fe5b6000918252602090912060016006909202010155600d80548791906000198101908110611c8457fe5b600091825260209091206006909102016002018054600160a060020a031916600160a060020a0392909216919091179055600d80548691906000198101908110611cca57fe5b6000918252602090912060036006909202010155600d80548591906000198101908110611cf357fe5b6000918252602090912060046006909202010155600d80548491906000198101908110611d1c57fe5b60009182526020909120600560069092020101805460ff19166001836003811115611d4357fe5b0217905550600d80548391906000198101908110611d5d57fe5b60009182526020808320600692909202909101600501805461010060a860020a031916610100600160a060020a0395861602179055600d549983168252600e8152604080832099909316825297885281812096815295909652505050918120929092556013805460018101825592527f66de8ffda797e3de9c05e8fc57b3bf0ec28a930d40b0d285d93c06501cf6a09090910155565b6000611dfd6127a2565b1515611e0857600080fd5b81600160a060020a0381161515611e1e57600080fd5b600160a060020a038116301415611e3457600080fd5b600154600160a060020a03848116911614611a145760018054600160a060020a03858116600160a060020a0319831617909255604051911692507f9f611b789425d0d5b90b920f1b2852907dd865c80074a30b1629aaa041d1812c9061153590849086906146fb565b600e60209081526000938452604080852082529284528284209052825290205481565b600160a060020a031660009081526010602052604090205490565b60078054829081106117a257fe5b600454600160a060020a031681565b600160a060020a038084166000908152600b602090815260408083209386168352928152828220848352905290812054801515611f3457600080fd5b600a80546000198301908110611f4657fe5b60009182526020909120600a909102016009015460ff1695945050505050565b600454600160a060020a03163314611f7d57600080fd5b600160a060020a0381166000908152600960205260409020541515612000576007805460018082019092557fa66cc928b5edb82af9bd49922954155ab7b0942694bea4ce44661d9a8736c688018054600160a060020a031916600160a060020a0384169081179091556000908152600860205260409020805460ff191690911790555b6002546040805160e160020a6314f51fd5028152905161209092600160a060020a0316916329ea3faa9160048083019260209291908290030181600087803b15801561204b57600080fd5b505af115801561205f573d6000803e3d6000fd5b505050506040513d601f19601f8201168201806040525061208391908101906140fc565b429063ffffffff6127b316565b600160a060020a03909116600090815260096020526040902055565b600160a060020a038084166000908152600b6020908152604080832093861683529281528282208483529052908120548015156120e857600080fd5b600a805460001983019081106120fa57fe5b90600052602060002090600a0201600101549150509392505050565b600054600160a060020a031681565b6012602052816000526040600020818154811015156114c257fe5b600d80548290811061214e57fe5b6000918252602090912060069091020180546001820154600283015460038401546004850154600590950154600160a060020a039485169650929491841693909260ff8116916101009091041687565b60086020526000908152604090205460ff1681565b60096020526000908152604090205481565b600f5490565b60075490565b600160a060020a038084166000908152600b60209081526040808320938616835292815282822084835290529081205480151561220d57600080fd5b600a8054600019830190811061221f57fe5b90600052602060002090600a0201600301549150509392505050565b600160a060020a038084166000908152600b60209081526040808320938616835292815282822084835290529081205480151561227757600080fd5b600a8054600019830190811061228957fe5b90600052602060002090600a0201600201549150509392505050565b600054600160a060020a0316331490565b60035460405160e060020a6333dab6bd0281528491600160a060020a0316906333dab6bd906122e99084906004016149f4565b602060405180830381600087803b15801561230357600080fd5b505af1158015612317573d6000803e3d6000fd5b505050506040513d601f19601f8201168201806040525061233b9190810190613fc9565b151561234657600080fd5b600260009054906101000a9004600160a060020a0316600160a060020a031663b6bf41766040518163ffffffff1660e060020a028152600401602060405180830381600087803b15801561239957600080fd5b505af11580156123ad573d6000803e3d6000fd5b505050506040513d601f19601f820116820180604052506123d191908101906140fc565b4310156123dd57600080fd5b60035460405160e160020a6358ac3dd7028152600160a060020a039091169063b1587bae906124129087908990600401614a05565b602060405180830381600087803b15801561242c57600080fd5b505af1158015612440573d6000803e3d6000fd5b505050506040513d601f19601f820116820180604052506124649190810190613fc9565b151561246f57600080fd5b604084015180516020909101516124879187916111e9565b151561249257600080fd5b61249e858585856127c9565b6124a785612c83565b50505060c001516020908101515160118054600181810183557f31ecc21a745e3968a04e9570e4425bc18fa8019c68028196b546d1669c200c6890910192909255600160a060020a0390931660009081526012835260408120935484549283018555938152919091200155565b60035460405160e160020a6324d40aef0281528591600160a060020a0316906349a815de90612547908490600401614a25565b602060405180830381600087803b15801561256157600080fd5b505af1158015612575573d6000803e3d6000fd5b505050506040513d601f19601f820116820180604052506125999190810190613fc9565b15156125a457600080fd5b600260009054906101000a9004600160a060020a0316600160a060020a031663b6bf41766040518163ffffffff1660e060020a028152600401602060405180830381600087803b1580156125f757600080fd5b505af115801561260b573d6000803e3d6000fd5b505050506040513d601f19601f8201168201806040525061262f91908101906140fc565b43101561263b57600080fd5b60035460405160e060020a63a06d2eb7028152600160a060020a039091169063a06d2eb7906126709088908a90600401614a36565b602060405180830381600087803b15801561268a57600080fd5b505af115801561269e573d6000803e3d6000fd5b505050506040513d601f19601f820116820180604052506126c29190810190613fc9565b15156126cd57600080fd5b60408501515180516020909101516126e69188916111e9565b15156126f157600080fd5b6040850151602090810151805191015161270c9188916111e9565b151561271757600080fd5b61272386868685612d0e565b61272f86868585612dd0565b61273886612c83565b5050505060e0015151600f8054600180820183557f8d1108e10bcb7c27dddfc02ed9d693a074039d026cf4ea4240b40f7d581ac80290910192909255600160a060020a03929092166000908152601060209081526040822093548454938401855593825290200155565b600154600160a060020a0316331490565b6000828201838110156127c257fe5b9392505050565b60405160e060020a636b84d93102815260009073__SafeMathIntLib________________________90636b84d93190612806908690600401614952565b60206040518083038186803b15801561281e57600080fd5b505af4158015612832573d6000803e3d6000fd5b505050506040513d601f19601f820116820180604052506128569190810190613fc9565b151561286157600080fd5b60035460405160e060020a63cc0e89cb028152600160a060020a039091169063cc0e89cb906128969087908990600401614a05565b602060405180830381600087803b1580156128b057600080fd5b505af11580156128c4573d6000803e3d6000fd5b505050506040513d601f19601f820116820180604052506128e89190810190613fc9565b6128fb5760808401516040015151612906565b606084015160400151515b90508281121561291557600080fd5b600a80549061292790600183016132fe565b50600a8054869190600019810190811061293d57fe5b60009182526020909120600a918202018054600160a060020a031916600160a060020a03939093169290921790915584518154909190600019810190811061298157fe5b90600052602060002090600a0201600101819055508360e00151600a6001600a80549050038154811015156129b257fe5b90600052602060002090600a020160020181905550612a1d600260009054906101000a9004600160a060020a0316600160a060020a031663fbdfd8e76040518163ffffffff1660e060020a028152600401602060405180830381600087803b15801561204b57600080fd5b600a80546000198101908110612a2f57fe5b90600052602060002090600a0201600301819055506000600a6001600a8054905003815481101515612a5d57fe5b600091825260209091206004600a9092020101805460ff191660018381811115612a8357fe5b0217905550604084015151600a80546000198101908110612aa057fe5b90600052602060002090600a020160040160016101000a815481600160a060020a030219169083600160a060020a03160217905550836040015160200151600a6001600a8054905003815481101515612af557fe5b90600052602060002090600a02016005018190555082600a6001600a8054905003815481101515612b2257fe5b600091825260209091206006600a909202010155612b46818463ffffffff612e9516565b600a80546000198101908110612b5857fe5b90600052602060002090600a0201600701819055508360c001516020015160000151600a6001600a8054905003815481101515612b9157fe5b60009182526020909120600a91820201600801919091558054600191906000198101908110612bbc57fe5b600091825260209091206009600a9092020101805460ff191660018381811115612be257fe5b0217905550600a80548391906000198101908110612bfc57fe5b60009182526020808320600a92830201600901805461ff001916610100951515959095029490941790935554600160a060020a03978816808352600b84526040808420988101805151909a16845297845287832098518401518352978352868220819055968152600c82529485208054600181018255908652942090930193909355505050565b600160a060020a03811660009081526006602052604090205460ff161515612d0b57600160a060020a0381166000818152600660205260408120805460ff191660019081179091556005805491820181559091527f036b6384b5eca791c62761152d0c79bb0604c104a5fb6f4eb0703f3154bb3db0018054600160a060020a03191690911790555b50565b60035460405160e160020a63442bc8d1028152612dca91869186918691600160a060020a039091169063885791a290612d4d9085908790600401614a36565b602060405180830381600087803b158015612d6757600080fd5b505af1158015612d7b573d6000803e3d6000fd5b505050506040513d601f19601f82011682018060405250612d9f9190810190613fc9565b612db25760a08088015101515151612dbe565b608087015160a0015151515b60408801515186612ed6565b50505050565b60035460405160e160020a63442bc8d1028152612dca91869186918691600160a060020a039091169063885791a290612e0f9085908790600401614a36565b602060405180830381600087803b158015612e2957600080fd5b505af1158015612e3d573d6000803e3d6000fd5b505050506040513d601f19601f82011682018060405250612e619190810190613fc9565b612e775760a08088015101516020015151612e86565b608087015160a0015160200151515b87604001516020015186612ed6565b6000808212158015612ea957508282840313155b80612ec05750600082128015612ec0575082828403135b1515612ecb57600080fd5b508082035b92915050565b60405160e060020a636b84d93102815273__SafeMathIntLib________________________90636b84d93190612f10908790600401614952565b60206040518083038186803b158015612f2857600080fd5b505af4158015612f3c573d6000803e3d6000fd5b505050506040513d601f19601f82011682018060405250612f609190810190613fc9565b1515612f6b57600080fd5b83831215612f7857600080fd5b600a805490612f8a90600183016132fe565b50600a80548791906000198101908110612fa057fe5b60009182526020909120600a918202018054600160a060020a031916600160a060020a039390931692909217909155855181549091906000198101908110612fe457fe5b90600052602060002090600a020160010181905550846101000151600a6001600a805490500381548110151561301657fe5b90600052602060002090600a020160020181905550613081600260009054906101000a9004600160a060020a0316600160a060020a031663fbdfd8e76040518163ffffffff1660e060020a028152600401602060405180830381600087803b15801561204b57600080fd5b600a8054600019810190811061309357fe5b90600052602060002090600a0201600301819055506000600a6001600a80549050038154811015156130c157fe5b600091825260209091206004600a9092020101805460ff1916600183818111156130e757fe5b02179055508151600a8054600019810190811061310057fe5b90600052602060002090600a020160040160016101000a815481600160a060020a030219169083600160a060020a031602179055508160200151600a6001600a805490500381548110151561315157fe5b90600052602060002090600a02016005018190555083600a6001600a805490500381548110151561317e57fe5b600091825260209091206006600a9092020101556131a2838563ffffffff612e9516565b600a805460001981019081106131b457fe5b90600052602060002090600a0201600701819055508460e0015160000151600a6001600a80549050038154811015156131e957fe5b600091825260208220600a91820201600801929092558154909190600019810190811061321257fe5b600091825260209091206009600a9092020101805460ff19166001838181111561323857fe5b0217905550600a8054829190600019810190811061325257fe5b60009182526020808320600a92830201600901805461ff001916610100951515959095029490941790935554600160a060020a03988916808352600b845260408084208751909b168452998452898320958401518352948352888220819055938152600c8252968720805460018101825590885296209095015550505050565b815481835581811115611a1457600602816006028360005260206000209182019101611a14919061332a565b815481835581811115611a1457600a0281600a028360005260206000209182019101611a149190613387565b610c8791905b80821115613383578054600160a060020a03199081168255600060018301819055600283018054909216909155600382018190556004820155600581018054600160a860020a0319169055600601613330565b5090565b610c8791905b80821115613383578054600160a060020a03191681556000600182018190556002820181905560038201819055600482018054600160a860020a0319169055600582018190556006820181905560078201819055600882015560098101805461ffff19169055600a0161338d565b60006127c28235614a97565b6000601f8201831361341857600080fd5b813561342b61342682614a6d565b614a47565b9150818183526020840193506020810190508385606084028201111561345057600080fd5b60005b8381101561347e57816134668882613535565b84525060209092019160609190910190600101613453565b5050505092915050565b60006127c28251614aa3565b60006127c28235610c87565b60006127c28235614ac6565b60006127c28235614ad1565b60006127c28235614ae0565b6000604082840312156134d657600080fd5b6134e06040614a47565b905060006134ee84846133fb565b82525060206134ff84848301613494565b60208301525092915050565b60006040828403121561351d57600080fd5b6135276040614a47565b905060006134ee8484613494565b60006060828403121561354757600080fd5b6135516040614a47565b9050600061355f8484613494565b82525060206134ff848483016134c4565b60006080828403121561358257600080fd5b61358c6040614a47565b9050600061359a84846134c4565b82525060406134ff848483016134c4565b6000608082840312156135bd57600080fd5b6135c76040614a47565b905060006135d5848461350b565b82525060406134ff8484830161350b565b600061012082840312156135f957600080fd5b61360360a0614a47565b9050600061361184846134b8565b825250602061362284848301613494565b602083015250604061363684828501613570565b60408301525060c061364a84828501613494565b60608301525060e061365e8482850161350b565b60808301525092915050565b60006102a0828403121561367d57600080fd5b61368760c0614a47565b905060006136958484613494565b82525060206136a6848483016133fb565b60208301525060406136ba848285016135e6565b6040830152506101606136cf84828501613c6a565b6060830152506102606136e484828501613494565b6080830152506102806136f984828501613494565b60a08301525092915050565b600060a0828403121561371757600080fd5b6137216080614a47565b9050600061372f8484613494565b8252506020613740848483016133fb565b60208301525060406137548482850161350b565b60408301525060808201356001604060020a0381111561377357600080fd5b61377f848285016139ef565b60608301525092915050565b600060a0828403121561379d57600080fd5b6137a76080614a47565b905060006137b58484613494565b82525060206137c6848483016133fb565b60208301525060406137da8482850161350b565b60408301525060808201356001604060020a038111156137f957600080fd5b61377f8482850161399d565b6000610240828403121561381857600080fd5b613823610120614a47565b905060006138318484613494565b825250602061384284848301613494565b6020830152506040613856848285016134c4565b60408301525060808201356001604060020a0381111561387557600080fd5b6138818482850161378b565b60608301525060a08201356001604060020a038111156138a057600080fd5b6138ac84828501613705565b60808301525060c06138c08482850161350b565b60a0830152506101006138d584828501613c6a565b60c0830152506102006138ea84828501613494565b60e0830152506102206138ff84828501613494565b6101008301525092915050565b60006080828403121561391e57600080fd5b6139286040614a47565b905060006139368484613494565b82525060206134ff8484830160006060828403121561395457600080fd5b61395e6060614a47565b9050600061396c8484613494565b825250602061397d84848301613494565b602083015250604061399184828501613cb2565b60408301525092915050565b6000608082840312156139af57600080fd5b6139b96040614a47565b905060006139c78484613535565b82525060608201356001604060020a038111156139e357600080fd5b6134ff84828501613407565b600060208284031215613a0157600080fd5b613a0b6020614a47565b905081356001604060020a03811115613a2357600080fd5b613a2f84828501613407565b82525092915050565b600060a08284031215613a4a57600080fd5b613a546060614a47565b90506000613a628484613494565b8252506020613a738484830161350b565b60208301525060606139918482850161350b565b60006101c08284031215613a9a57600080fd5b613aa460e0614a47565b90506000613ab28484613494565b8252506020613ac3848483016133fb565b6020830152506040613ad784828501613494565b6040830152506060613aeb848285016134b8565b6060830152506080613aff84828501613a38565b608083015250610120613b14848285016135ab565b60a0830152506101a08201356001604060020a03811115613b3457600080fd5b613b408482850161399d565b60c08301525092915050565b60006102608284031215613b5f57600080fd5b613b6a610140614a47565b90506000613b788484613494565b8252506020613b8984848301613494565b6020830152506040613b9d84828501613570565b60408301525060c0613bb184828501613494565b60608301525060e08201356001604060020a03811115613bd057600080fd5b613bdc84828501613a87565b6080830152506101008201356001604060020a03811115613bfc57600080fd5b613c0884828501613a87565b60a083015250610120613c1d848285016135ab565b60c0830152506101a0613c328482850161390c565b60e083015250610220613c4784828501613494565b61010083015250610240613c5d84828501613494565b6101208301525092915050565b60006101008284031215613c7d57600080fd5b613c876040614a47565b90506000613c95848461390c565b82525060806134ff8484830161390c565b60006127c28251610c87565b60006127c28235614ac0565b600060208284031215613cd057600080fd5b6000613cdc84846133fb565b949350505050565b600080600060608486031215613cf957600080fd5b6000613d0586866133fb565b9350506020613d16868287016133fb565b9250506040613d2786828701613494565b9150509250925092565b60008060008060008060c08789031215613d4a57600080fd5b6000613d5689896133fb565b9650506020613d6789828a016133fb565b9550506040613d7889828a01613494565b9450506060613d8989828a01613494565b9350506080613d9a89828a016134ac565b92505060a0613dab89828a016133fb565b9150509295509295509295565b60008060008060808587031215613dce57600080fd5b6000613dda87876133fb565b9450506020613deb878288016133fb565b9350506040613dfc87828801613494565b9250506060613e0d878288016134b8565b91505092959194509250565b60008060008060808587031215613e2f57600080fd5b6000613e3b87876133fb565b9450506020613e4c878288016133fb565b9350506040613e5d87828801613494565b9250506060613e0d87828801613494565b60008060408385031215613e8157600080fd5b6000613e8d85856133fb565b92505060208301356001604060020a03811115613ea957600080fd5b613eb585828601613805565b9150509250929050565b600080600060608486031215613ed457600080fd5b6000613ee086866133fb565b93505060208401356001604060020a03811115613efc57600080fd5b613d1686828701613805565b60008060408385031215613f1b57600080fd5b6000613f2785856133fb565b92505060208301356001604060020a03811115613f4357600080fd5b613eb585828601613b4c565b60008060008060808587031215613f6557600080fd5b6000613f7187876133fb565b94505060208501356001604060020a03811115613f8d57600080fd5b613e4c87828801613b4c565b60008060408385031215613fac57600080fd5b6000613fb885856133fb565b9250506020613eb585828601613494565b600060208284031215613fdb57600080fd5b6000613cdc8484613488565b600060208284031215613ff957600080fd5b6000613cdc84846134a0565b60006102a0828403121561401857600080fd5b6000613cdc848461366a565b6000806102c0838503121561403857600080fd5b6000614044858561366a565b9250506102a08301356001604060020a03811115613f4357600080fd5b6000806040838503121561407457600080fd5b82356001604060020a0381111561408a57600080fd5b613fb885828601613805565b6000806000606084860312156140ab57600080fd5b83356001604060020a038111156140c157600080fd5b6140cd86828701613b4c565b9350506020613d1686828701613494565b6000602082840312156140f057600080fd5b6000613cdc8484613494565b60006020828403121561410e57600080fd5b6000613cdc8484613ca6565b61412381614a97565b82525050565b600061413482614a93565b80845260208401935061414683614a8d565b60005b828110156141765761415c8683516141e2565b61416582614a8d565b606096909601959150600101614149565b5093949350505050565b61412381614aa3565b61412381610c87565b61412381614ac6565b61412381614aef565b61412381614afa565b805160408301906141be848261411a565b506020820151612dca6020850182614189565b805160408301906141be8482614189565b805160608301906141f38482614189565b506020820151612dca60208501826141ad565b8051608083019061421784826141ad565b506020820151612dca60408501826141ad565b8051608083019061423b84826141d1565b506020820151612dca60408501826141d1565b805161012083019061426084826141a4565b5060208201516142736020850182614189565b5060408201516142866040850182614206565b50606082015161429960c0850182614189565b506080820151612dca60e08501826141d1565b80516102a08301906142be8482614189565b5060208201516142d1602085018261411a565b5060408201516142e4604085018261424e565b5060608201516142f86101608501826146bf565b50608082015161430c610260850182614189565b5060a0820151612dca610280850182614189565b805160009060a08401906143348582614189565b506020830151614347602086018261411a565b50604083015161435a60408601826141d1565b5060608301518482036080860152611277828261450d565b805160009060a08401906143868582614189565b506020830151614399602086018261411a565b5060408301516143ac60408601826141d1565b506060830151848203608086015261127782826144e1565b80516000906102408401906143d98582614189565b5060208301516143ec6020860182614189565b5060408301516143ff60408601826141ad565b50606083015184820360808601526144178282614372565b915050608083015184820360a08601526144318282614320565b91505060a083015161444660c08601826141d1565b5060c083015161445a6101008601826146bf565b5060e083015161446e610200860182614189565b50610100830151614483610220860182614189565b509392505050565b8051608083019061449c8482614189565b506020820151612dca6020850182805160608301906144bb8482614189565b5060208201516144ce6020850182614189565b506040820151612dca60408501826146e4565b805160009060808401906144f585826141e2565b50602083015184820360608601526112778282614129565b80516020808452600091908401906112778282614129565b805160a08301906145368482614189565b50602082015161454960208501826141d1565b506040820151612dca60608501826141d1565b80516000906101c08401906145718582614189565b506020830151614584602086018261411a565b5060408301516145976040860182614189565b5060608301516145aa60608601826141a4565b5060808301516145bd6080860182614525565b5060a08301516145d161012086018261422a565b5060c08301518482036101a086015261127782826144e1565b80516000906102608401906145ff8582614189565b5060208301516146126020860182614189565b5060408301516146256040860182614206565b50606083015161463860c0860182614189565b50608083015184820360e0860152614650828261455c565b91505060a083015184820361010086015261466b828261455c565b91505060c083015161468161012086018261422a565b5060e08301516146956101a086018261448b565b506101008301516146aa610220860182614189565b50610120830151614483610240860182614189565b80516101008301906146d1848261448b565b506020820151612dca608085018261448b565b61412381614ac0565b60208101612ed0828461411a565b60408101614709828561411a565b6127c2602083018461411a565b60808101614724828761411a565b614731602083018661411a565b61473e6040830185614189565b6112776060830184614189565b60a08101614759828861411a565b614766602083018761411a565b6147736040830186614189565b6147806060830185614189565b61478d6080830184614189565b9695505050505050565b606081016147a5828661411a565b6147b26020830185614189565b613cdc6040830184614189565b608081016147cd828761411a565b6147316020830186614189565b606081016147e8828661411a565b81810360208301526147fa81856143c4565b9050613cdc604083018461411a565b60608101614817828661411a565b81810360208301526147fa81856145ea565b60e08101614837828a61411a565b6148446020830189614189565b614851604083018861411a565b61485e6060830187614189565b61486b6080830186614189565b61487860a083018561419b565b61488560c083018461411a565b98975050505050505050565b61018081016148a0828f61411a565b6148ad602083018e614189565b6148ba604083018d614189565b6148c7606083018c614189565b6148d4608083018b6141a4565b6148e160a083018a61411a565b6148ee60c0830189614189565b6148fb60e0830188614189565b614909610100830187614189565b614917610120830186614189565b6149256101408301856141a4565b614933610160830184614180565b9d9c50505050505050505050505050565b60208101612ed08284614180565b60208101612ed08284614189565b60208101612ed08284614192565b6040810161497c8285614192565b6127c26020830184614192565b60208101612ed0828461419b565b60208101612ed082846141a4565b6102c081016149b482856142ac565b6127c26102a083018461411a565b6102e081016149d182866142ac565b8181036102a08301526149e481856145ea565b9050613cdc6102c083018461411a565b602080825281016127c281846143c4565b60408082528101614a1681856143c4565b90506127c2602083018461411a565b602080825281016127c281846145ea565b60408082528101614a1681856145ea565b6040518181016001604060020a0381118282101715614a6557600080fd5b604052919050565b60006001604060020a03821115614a8357600080fd5b5060209081020190565b60200190565b5190565b600160a060020a031690565b151590565b60006004821061338357fe5b60006002821061338357fe5b60ff1690565b6000612ed082614a97565b60006004821061338357600080fd5b60006002821061338357600080fd5b6000612ed082614aa8565b6000612ed082614ab45600a265627a7a72305820652a5b876935b8f2585ee8ca233b4a6b842444925d4103a72721684412bf77a86c6578706572696d656e74616cf50037",
  "source": "/*\n * Hubii Nahmii\n *\n * Compliant with the Hubii Nahmii specification v0.12.\n *\n * Copyright (C) 2017-2018 Hubii AS\n */\n\npragma solidity ^0.4.24;\npragma experimental ABIEncoderV2;\n\nimport {Ownable} from \"./Ownable.sol\";\nimport {Challenge} from \"./Challenge.sol\";\nimport {Validatable} from \"./Validatable.sol\";\nimport {SafeMathIntLib} from \"./SafeMathIntLib.sol\";\nimport {SafeMathUintLib} from \"./SafeMathUintLib.sol\";\nimport {DriipSettlementDispute} from \"./DriipSettlementDispute.sol\";\nimport {MonetaryTypesLib} from \"./MonetaryTypesLib.sol\";\nimport {NahmiiTypesLib} from \"./NahmiiTypesLib.sol\";\nimport {SettlementTypesLib} from \"./SettlementTypesLib.sol\";\n\n/**\n@title DriipSettlementChallenge\n@notice Where driip settlements are started and challenged\n*/\ncontract DriipSettlementChallenge is Ownable, Challenge, Validatable {\n    using SafeMathIntLib for int256;\n    using SafeMathUintLib for uint256;\n\n    //\n    // Variables\n    // -----------------------------------------------------------------------------------------------------------------\n    DriipSettlementDispute public driipSettlementDispute;\n\n    address[] public challengeWallets;\n    mapping(address => bool) challengeByWallets;\n\n    address[] public lockedWallets;\n    mapping(address => bool) public lockedByWallet;\n    mapping(address => uint) public unlockTimeByWallet;\n\n    SettlementTypesLib.Proposal[] public proposals;\n    mapping(address => mapping(address => mapping(uint256 => uint256))) public proposalIndexByWalletCurrency;\n    mapping(address => uint256[]) public proposalIndicesByWallet;\n\n    SettlementTypesLib.Disqualification[] public disqualifications;\n    mapping(address => mapping(address => mapping(uint256 => uint256))) public disqualificationIndexByWalletCurrency;\n\n    bytes32[] public challengeTradeHashes;\n    mapping(address => uint256[]) public challengeTradeHashIndicesByWallet;\n\n    bytes32[] public challengePaymentHashes;\n    mapping(address => uint256[]) public challengePaymentHashIndicesByWallet;\n\n    bytes32[] public candidateHashes;\n\n    //\n    // Events\n    // -----------------------------------------------------------------------------------------------------------------\n    event SetDriipSettlementDisputeEvent(DriipSettlementDispute oldDriipSettlementDispute,\n        DriipSettlementDispute newDriipSettlementDispute);\n    event StartChallengeFromTradeEvent(address wallet, bytes32 tradeHash,\n        int256 intendedStageAmount, int256 conjugateStageAmount);\n    event StartChallengeFromTradeByProxyEvent(address proxy, address wallet, bytes32 tradeHash,\n        int256 intendedStageAmount, int256 conjugateStageAmount);\n    event StartChallengeFromPaymentEvent(address wallet, bytes32 paymentHash, int256 stageAmount);\n    event StartChallengeFromPaymentByProxyEvent(address proxy, address wallet, bytes32 paymentHash,\n        int256 stageAmount);\n\n    //\n    // Constructor\n    // -----------------------------------------------------------------------------------------------------------------\n    constructor(address deployer) Ownable(deployer) public {\n    }\n\n    //\n    // Functions\n    // -----------------------------------------------------------------------------------------------------------------\n    /// @notice Set the settlement dispute contract\n    /// @param newDriipSettlementDispute The (address of) DriipSettlementDispute contract instance\n    function setDriipSettlementDispute(DriipSettlementDispute newDriipSettlementDispute)\n    public\n    onlyDeployer\n    notNullAddress(newDriipSettlementDispute)\n    {\n        DriipSettlementDispute oldDriipSettlementDispute = driipSettlementDispute;\n        driipSettlementDispute = newDriipSettlementDispute;\n        emit SetDriipSettlementDisputeEvent(oldDriipSettlementDispute, driipSettlementDispute);\n    }\n\n    /// @notice Get the number of challenge wallets, i.e. wallets that have started driip settlement challenge\n    /// @return The number of challenge wallets\n    function challengeWalletsCount()\n    public\n    view\n    returns (uint256)\n    {\n        return challengeWallets.length;\n    }\n\n    /// @notice Get the number of locked wallets, i.e. wallets whose driip settlement challenge has disqualified\n    /// @return The number of locked wallets\n    function lockedWalletsCount()\n    public\n    view\n    returns (uint256)\n    {\n        return lockedWallets.length;\n    }\n\n    /// @notice Get the number of proposals\n    /// @return The number of proposals\n    function proposalsCount()\n    public\n    view\n    returns (uint256)\n    {\n        return proposals.length;\n    }\n\n    /// @notice Get the number of challenges\n    /// @return The number of challenges\n    function disqualificationsCount()\n    public\n    view\n    returns (uint256)\n    {\n        return disqualifications.length;\n    }\n\n    /// @notice Get the number of challenged trade hashes\n    /// @return The count of challenged trade hashes\n    function challengeTradeHashesCount()\n    public\n    view\n    returns (uint256)\n    {\n        return challengeTradeHashes.length;\n    }\n\n    /// @notice Get the number of challenged payment hashes\n    /// @return The count of challenged payment hashes\n    function challengePaymentHashesCount()\n    public\n    view\n    returns (uint256)\n    {\n        return challengePaymentHashes.length;\n    }\n\n    /// @notice Get the number of current and past settlement challenges from trade for given wallet\n    /// @param wallet The wallet for which to return count\n    /// @return The count of settlement challenges from trade\n    function walletChallengeTradeHashIndicesCount(address wallet)\n    public\n    view\n    returns (uint256)\n    {\n        return challengeTradeHashIndicesByWallet[wallet].length;\n    }\n\n    /// @notice Get the number of current and past settlement challenges from payment for given wallet\n    /// @param wallet The wallet for which to return count\n    /// @return The count of settlement challenges from payment\n    function walletChallengePaymentHashIndicesCount(address wallet)\n    public\n    view\n    returns (uint256)\n    {\n        return challengePaymentHashIndicesByWallet[wallet].length;\n    }\n\n    /// @notice Start settlement challenge on trade\n    /// @param trade The challenged trade\n    /// @param intendedStageAmount Amount of intended currency to be staged\n    /// @param conjugateStageAmount Amount of conjugate currency to be staged\n    function startChallengeFromTrade(NahmiiTypesLib.Trade trade, int256 intendedStageAmount,\n        int256 conjugateStageAmount)\n    public\n    {\n        // Require that wallet is not temporarily disqualified\n        require(!isLockedWallet(msg.sender));\n\n        // Start challenge\n        startChallengeFromTradePrivate(msg.sender, trade, intendedStageAmount, conjugateStageAmount, true);\n\n        // Emit event\n        emit StartChallengeFromTradeEvent(msg.sender, trade.seal.hash, intendedStageAmount, conjugateStageAmount);\n    }\n\n    /// @notice Start settlement challenge on trade by proxy\n    /// @param wallet The concerned party\n    /// @param trade The challenged trade\n    /// @param intendedStageAmount Amount of intended currency to be staged\n    /// @param conjugateStageAmount Amount of conjugate currency to be staged\n    function startChallengeFromTradeByProxy(address wallet, NahmiiTypesLib.Trade trade, int256 intendedStageAmount,\n        int256 conjugateStageAmount)\n    public\n    onlyDeployer\n    {\n        // Start challenge for wallet\n        startChallengeFromTradePrivate(wallet, trade, intendedStageAmount, conjugateStageAmount, false);\n\n        // Emit event\n        emit StartChallengeFromTradeByProxyEvent(msg.sender, wallet, trade.seal.hash, intendedStageAmount, conjugateStageAmount);\n    }\n\n    /// @notice Start settlement challenge on payment\n    /// @param payment The challenged payment\n    /// @param stageAmount Amount of payment currency to be staged\n    function startChallengeFromPayment(NahmiiTypesLib.Payment payment, int256 stageAmount)\n    public\n    {\n        // Require that wallet is not temporarily disqualified\n        require(!isLockedWallet(msg.sender));\n\n        // Start challenge for wallet\n        startChallengeFromPaymentPrivate(msg.sender, payment, stageAmount, true);\n\n        // Emit event\n        emit StartChallengeFromPaymentEvent(msg.sender, payment.seals.operator.hash, stageAmount);\n    }\n\n    /// @notice Start settlement challenge on payment\n    /// @param wallet The concerned party\n    /// @param payment The challenged payment\n    /// @param stageAmount Amount of payment currency to be staged\n    function startChallengeFromPaymentByProxy(address wallet, NahmiiTypesLib.Payment payment, int256 stageAmount)\n    public\n    onlyDeployer\n    {\n        // Start challenge for wallet\n        startChallengeFromPaymentPrivate(wallet, payment, stageAmount, false);\n\n        // Emit event\n        emit StartChallengeFromPaymentByProxyEvent(msg.sender, wallet, payment.seals.operator.hash, stageAmount);\n    }\n\n    /// @notice Gauge whether the proposal for the given wallet and currency has expired\n    /// @param wallet The concerned wallet\n    /// @param currencyCt The address of the concerned currency contract (address(0) == ETH)\n    /// @param currencyId The ID of the concerned currency (0 for ETH and ERC20)\n    /// @return true if proposal has expired, else false\n    function hasProposalExpired(address wallet, address currencyCt, uint256 currencyId)\n    public\n    view\n    returns (bool)\n    {\n        // 1-based index\n        uint256 index = proposalIndexByWalletCurrency[wallet][currencyCt][currencyId];\n        return (\n        0 == index ||\n        0 == proposals[index - 1].nonce ||\n        block.timestamp >= proposals[index - 1].expirationTime\n        );\n    }\n\n    /// @notice Get the challenge nonce of the given wallet\n    /// @param wallet The concerned wallet\n    /// @param currencyCt The address of the concerned currency contract (address(0) == ETH)\n    /// @param currencyId The ID of the concerned currency (0 for ETH and ERC20)\n    /// @return The challenge nonce\n    function proposalNonce(address wallet, address currencyCt, uint256 currencyId)\n    public\n    view\n    returns (uint256)\n    {\n        uint256 index = proposalIndexByWalletCurrency[wallet][currencyCt][currencyId];\n        require(0 != index);\n        return proposals[index - 1].nonce;\n    }\n\n    /// @notice Get the settlement proposal block number of the given wallet\n    /// @param wallet The concerned wallet\n    /// @param currencyCt The address of the concerned currency contract (address(0) == ETH)\n    /// @param currencyId The ID of the concerned currency (0 for ETH and ERC20)\n    /// @return The settlement proposal block number\n    function proposalBlockNumber(address wallet, address currencyCt, uint256 currencyId)\n    public\n    view\n    returns (uint256)\n    {\n        uint256 index = proposalIndexByWalletCurrency[wallet][currencyCt][currencyId];\n        require(0 != index);\n        return proposals[index - 1].blockNumber;\n    }\n\n    /// @notice Get the settlement proposal end time of the given wallet\n    /// @param wallet The concerned wallet\n    /// @param currencyCt The address of the concerned currency contract (address(0) == ETH)\n    /// @param currencyId The ID of the concerned currency (0 for ETH and ERC20)\n    /// @return The settlement proposal end time\n    function proposalExpirationTime(address wallet, address currencyCt, uint256 currencyId)\n    public\n    view\n    returns (uint256)\n    {\n        uint256 index = proposalIndexByWalletCurrency[wallet][currencyCt][currencyId];\n        require(0 != index);\n        return proposals[index - 1].expirationTime;\n    }\n\n    /// @notice Get the challenge status of the given wallet\n    /// @param wallet The concerned wallet\n    /// @param currencyCt The address of the concerned currency contract (address(0) == ETH)\n    /// @param currencyId The ID of the concerned currency (0 for ETH and ERC20)\n    /// @return The challenge status\n    function proposalStatus(address wallet, address currencyCt, uint256 currencyId)\n    public\n    view\n    returns (SettlementTypesLib.Status)\n    {\n        uint256 index = proposalIndexByWalletCurrency[wallet][currencyCt][currencyId];\n        require(0 != index);\n        return proposals[index - 1].status;\n    }\n\n    /// @notice Get the settlement proposal stage amount of the given wallet and currency\n    /// @param wallet The concerned wallet\n    /// @param currencyCt The address of the concerned currency contract (address(0) == ETH)\n    /// @param currencyId The ID of the concerned currency (0 for ETH and ERC20)\n    /// @return The settlement proposal stage amount\n    function proposalStageAmount(address wallet, address currencyCt, uint256 currencyId)\n    public\n    view\n    returns (int256)\n    {\n        uint256 index = proposalIndexByWalletCurrency[wallet][currencyCt][currencyId];\n        require(0 != index);\n        return proposals[index - 1].stageAmount;\n    }\n\n    /// @notice Get the settlement proposal target balance amount of the given wallet and currency\n    /// @param wallet The concerned wallet\n    /// @param currencyCt The address of the concerned currency contract (address(0) == ETH)\n    /// @param currencyId The ID of the concerned currency (0 for ETH and ERC20)\n    /// @return The settlement proposal target balance amount\n    function proposalTargetBalanceAmount(address wallet, address currencyCt, uint256 currencyId)\n    public\n    view\n    returns (int256)\n    {\n        uint256 index = proposalIndexByWalletCurrency[wallet][currencyCt][currencyId];\n        require(0 != index);\n        return proposals[index - 1].targetBalanceAmount;\n    }\n\n    /// @notice Get the settlement proposal driip hash of the given wallet and currency\n    /// @param wallet The concerned wallet\n    /// @param currencyCt The address of the concerned currency contract (address(0) == ETH)\n    /// @param currencyId The ID of the concerned currency (0 for ETH and ERC20)\n    /// @return The settlement proposal driip hash\n    function proposalDriipHash(address wallet, address currencyCt, uint256 currencyId)\n    public\n    view\n    returns (bytes32)\n    {\n        uint256 index = proposalIndexByWalletCurrency[wallet][currencyCt][currencyId];\n        require(0 != index);\n        return proposals[index - 1].driipHash;\n    }\n\n    /// @notice Get the settlement proposal driip type of the given wallet and currency\n    /// @param wallet The concerned wallet\n    /// @param currencyCt The address of the concerned currency contract (address(0) == ETH)\n    /// @param currencyId The ID of the concerned currency (0 for ETH and ERC20)\n    /// @return The settlement proposal driip type\n    function proposalDriipType(address wallet, address currencyCt, uint256 currencyId)\n    public\n    view\n    returns (NahmiiTypesLib.DriipType)\n    {\n        uint256 index = proposalIndexByWalletCurrency[wallet][currencyCt][currencyId];\n        require(0 != index);\n        return proposals[index - 1].driipType;\n    }\n\n    /// @notice Get the balance reward of the given wallet's settlement proposal\n    /// @param wallet The concerned wallet\n    /// @param currencyCt The address of the concerned currency contract (address(0) == ETH)\n    /// @param currencyId The ID of the concerned currency (0 for ETH and ERC20)\n    /// @return The balance reward of the settlement proposal\n    function proposalBalanceReward(address wallet, address currencyCt, uint256 currencyId)\n    public\n    view\n    returns (bool)\n    {\n        uint256 index = proposalIndexByWalletCurrency[wallet][currencyCt][currencyId];\n        require(0 != index);\n        return proposals[index - 1].balanceReward;\n    }\n\n    /// @notice Get the disqualification candidate type of the given wallet and currency\n    /// @param wallet The concerned wallet\n    /// @param currencyCt The address of the concerned currency contract (address(0) == ETH)\n    /// @param currencyId The ID of the concerned currency (0 for ETH and ERC20)\n    /// @return The candidate type of the settlement disqualification\n    function disqualificationCandidateType(address wallet, address currencyCt, uint256 currencyId)\n    public\n    view\n    returns (SettlementTypesLib.CandidateType)\n    {\n        uint256 index = disqualificationIndexByWalletCurrency[wallet][currencyCt][currencyId];\n        require(0 != index);\n        return disqualifications[index - 1].candidateType;\n    }\n\n    /// @notice Get the disqualification candidate hash of the given wallet and currency\n    /// @param wallet The concerned wallet\n    /// @param currencyCt The address of the concerned currency contract (address(0) == ETH)\n    /// @param currencyId The ID of the concerned currency (0 for ETH and ERC20)\n    /// @return The candidate hash of the settlement disqualification\n    function disqualificationCandidateHash(address wallet, address currencyCt, uint256 currencyId)\n    public\n    view\n    returns (bytes32)\n    {\n        uint256 index = disqualificationIndexByWalletCurrency[wallet][currencyCt][currencyId];\n        require(0 != index);\n        return disqualifications[index - 1].candidateHash;\n    }\n\n    /// @notice Get the disqualification challenger of the given wallet and currency\n    /// @param wallet The concerned wallet\n    /// @param currencyCt The address of the concerned currency contract (address(0) == ETH)\n    /// @param currencyId The ID of the concerned currency (0 for ETH and ERC20)\n    /// @return The challenger of the settlement disqualification\n    function disqualificationChallenger(address wallet, address currencyCt, uint256 currencyId)\n    public\n    view\n    returns (address)\n    {\n        uint256 index = disqualificationIndexByWalletCurrency[wallet][currencyCt][currencyId];\n        require(0 != index);\n        return disqualifications[index - 1].challenger;\n    }\n\n    /// @notice Set settlement proposal end time property of the given wallet\n    /// @dev This function can only be called by this contract's dispute instance\n    /// @param wallet The concerned wallet\n    /// @param expirationTime The end time value\n    function setProposalExpirationTime(address wallet, address currencyCt, uint256 currencyId,\n        uint256 expirationTime)\n    public\n    onlyDriipSettlementDispute\n    {\n        uint256 index = proposalIndexByWalletCurrency[wallet][currencyCt][currencyId];\n        require(0 != index);\n        proposals[index - 1].expirationTime = expirationTime;\n    }\n\n    /// @notice Set settlement proposal status property of the given wallet\n    /// @dev This function can only be called by this contract's dispute instance\n    /// @param wallet The concerned wallet\n    /// @param status The status value\n    function setProposalStatus(address wallet, address currencyCt, uint256 currencyId,\n        SettlementTypesLib.Status status)\n    public\n    onlyDriipSettlementDispute\n    {\n        uint256 index = proposalIndexByWalletCurrency[wallet][currencyCt][currencyId];\n        require(0 != index);\n        proposals[index - 1].status = status;\n    }\n\n    /// @notice Challenge the settlement by providing order candidate\n    /// @param order The order candidate that challenges the challenged driip\n    function challengeByOrder(NahmiiTypesLib.Order order)\n    public\n    onlyOperationalModeNormal\n    {\n        driipSettlementDispute.challengeByOrder(order, msg.sender);\n    }\n\n    /// @notice Unchallenge settlement by providing trade that shows that challenge order candidate has been filled\n    /// @param order The order candidate that challenged driip\n    /// @param trade The trade in which order has been filled\n    function unchallengeOrderCandidateByTrade(NahmiiTypesLib.Order order, NahmiiTypesLib.Trade trade)\n    public\n    onlyOperationalModeNormal\n    {\n        driipSettlementDispute.unchallengeOrderCandidateByTrade(order, trade, msg.sender);\n    }\n\n    /// @notice Challenge the settlement by providing trade candidate\n    /// @param wallet The wallet whose settlement is being challenged\n    /// @param trade The trade candidate that challenges the challenged driip\n    function challengeByTrade(address wallet, NahmiiTypesLib.Trade trade)\n    public\n    onlyOperationalModeNormal\n    {\n        driipSettlementDispute.challengeByTrade(wallet, trade, msg.sender);\n    }\n\n    /// @notice Challenge the settlement by providing payment candidate\n    /// @param wallet The wallet whose settlement is being challenged\n    /// @param payment The payment candidate that challenges the challenged driip\n    function challengeByPayment(address wallet, NahmiiTypesLib.Payment payment)\n    public\n    onlyOperationalModeNormal\n    {\n        driipSettlementDispute.challengeByPayment(wallet, payment, msg.sender);\n    }\n\n    /// @notice Get the count of challenge candidate hashes\n    /// @return The count of challenge candidate order hashes\n    function candidateHashesCount()\n    public\n    view\n    returns (uint256)\n    {\n        return candidateHashes.length;\n    }\n\n    /// @notice Disqualify the given wallet\n    /// @dev This function can only be called by this contract's dispute instance\n    /// @param wallet The concerned wallet\n    function lockWallet(address wallet)\n    public\n    onlyDriipSettlementDispute\n    {\n        if (0 == unlockTimeByWallet[wallet]) {\n            lockedWallets.push(wallet);\n            lockedByWallet[wallet] = true;\n        }\n\n        unlockTimeByWallet[wallet] = block.timestamp.add(configuration.walletLockTimeout());\n    }\n\n    /// @notice Gauge whether the wallet is (temporarily) locked\n    /// @param wallet The concerned wallet\n    /// @return true if wallet is locked, else false\n    function isLockedWallet(address wallet)\n    public\n    view\n    returns (bool)\n    {\n        return block.timestamp < unlockTimeByWallet[wallet];\n    }\n\n    /// @notice Add a disqualification instance\n    /// @param wallet The concerned wallet\n    /// @param currencyCt The address of the concerned currency contract (address(0) == ETH)\n    /// @param currencyId The ID of the concerned currency (0 for ETH and ERC20)\n    /// @param candidateHash The candidate hash\n    /// @param candidateType The candidate type\n    /// @param challenger The concerned challenger\n    function addDisqualification(address wallet, address currencyCt, uint256 currencyId, bytes32 candidateHash,\n        SettlementTypesLib.CandidateType candidateType, address challenger)\n    public\n    onlyDriipSettlementDispute\n    {\n        // Get the proposal index\n        uint256 index = proposalIndexByWalletCurrency[wallet][currencyCt][currencyId];\n        require(0 != index);\n\n        // Create disqualification\n        disqualifications.length++;\n\n        // Populate disqualification\n        disqualifications[disqualifications.length - 1].wallet = wallet;\n        disqualifications[disqualifications.length - 1].nonce = proposals[index - 1].nonce;\n        disqualifications[disqualifications.length - 1].currencyCt = currencyCt;\n        disqualifications[disqualifications.length - 1].currencyId = currencyId;\n        disqualifications[disqualifications.length - 1].candidateHash = candidateHash;\n        disqualifications[disqualifications.length - 1].candidateType = candidateType;\n        disqualifications[disqualifications.length - 1].challenger = challenger;\n\n        // Store disqualification index\n        disqualificationIndexByWalletCurrency[wallet][currencyCt][currencyId] = disqualifications.length;\n\n        // Store candidate hash\n        candidateHashes.push(candidateHash);\n    }\n\n    /// @notice Remove a disqualification instance\n    /// @param wallet The concerned wallet\n    /// @param currencyCt The address of the concerned currency contract (address(0) == ETH)\n    /// @param currencyId The ID of the concerned currency (0 for ETH and ERC20)\n    function removeDisqualification(address wallet, address currencyCt, uint256 currencyId)\n    public\n    onlyDriipSettlementDispute\n    {\n        // Get the proposal index\n        uint256 index = disqualificationIndexByWalletCurrency[wallet][currencyCt][currencyId];\n        require(0 < index);\n\n        if (index < disqualifications.length) {\n            disqualifications[index - 1] = disqualifications[disqualifications.length - 1];\n            disqualificationIndexByWalletCurrency[wallet][disqualifications[index - 1].currencyCt][disqualifications[index - 1].currencyId] = index;\n        }\n        disqualifications.length--;\n\n        delete disqualificationIndexByWalletCurrency[wallet][currencyCt][currencyId];\n    }\n\n    //\n    // Private functions\n    // -----------------------------------------------------------------------------------------------------------------\n    function startChallengeFromTradePrivate(address wallet, NahmiiTypesLib.Trade trade,\n        int256 intendedStageAmount, int256 conjugateStageAmount, bool balanceReward)\n    private\n    onlySealedTrade(trade)\n    {\n        // Require that current block number is beyond the earliest settlement challenge block number\n        require(block.number >= configuration.earliestSettlementBlockNumber());\n\n        // Require that given wallet is a trade party\n        require(validator.isTradeParty(trade, wallet));\n\n        // Require that wallet has no overlap with active proposals\n        require(hasProposalExpired(\n                wallet, trade.currencies.intended.ct, trade.currencies.intended.id\n            ));\n        require(hasProposalExpired(\n                wallet, trade.currencies.conjugate.ct, trade.currencies.conjugate.id\n            ));\n\n        // Create proposals\n        addIntendedProposalFromTrade(wallet, trade, intendedStageAmount, balanceReward);\n        addConjugateProposalFromTrade(wallet, trade, conjugateStageAmount, balanceReward);\n\n        // Add wallet to store of challenge wallets\n        addToChallengeWallets(wallet);\n\n        // Store driip hashes\n        challengeTradeHashes.push(trade.seal.hash);\n        challengeTradeHashIndicesByWallet[wallet].push(challengeTradeHashes.length);\n    }\n\n    function startChallengeFromPaymentPrivate(address wallet, NahmiiTypesLib.Payment payment,\n        int256 stageAmount, bool balanceReward)\n    private\n    onlySealedPayment(payment)\n    {\n        // Require that current block number is beyond the earliest settlement challenge block number\n        require(block.number >= configuration.earliestSettlementBlockNumber());\n\n        // Require that given wallet is a payment party\n        require(validator.isPaymentParty(payment, wallet));\n\n        // Require that wallet has no overlap with active proposal\n        require(hasProposalExpired(\n                wallet, payment.currency.ct, payment.currency.id\n            ));\n\n        // Create proposal\n        addProposalFromPayment(wallet, payment, stageAmount, balanceReward);\n\n        // Add wallet to store of challenge wallets\n        addToChallengeWallets(wallet);\n\n        // Store driip hashes\n        challengePaymentHashes.push(payment.seals.operator.hash);\n        challengePaymentHashIndicesByWallet[wallet].push(challengePaymentHashes.length);\n    }\n\n    function addIntendedProposalFromTrade(address wallet, NahmiiTypesLib.Trade trade, int256 stageAmount, bool balanceReward)\n    private\n    {\n        addProposalFromTrade(\n            wallet, trade, stageAmount,\n            validator.isTradeBuyer(trade, wallet) ? trade.buyer.balances.intended.current : trade.seller.balances.intended.current,\n            trade.currencies.intended, balanceReward\n        );\n    }\n\n    function addConjugateProposalFromTrade(address wallet, NahmiiTypesLib.Trade trade, int256 stageAmount, bool balanceReward)\n    private\n    {\n        addProposalFromTrade(\n            wallet, trade, stageAmount,\n            validator.isTradeBuyer(trade, wallet) ? trade.buyer.balances.conjugate.current : trade.seller.balances.conjugate.current,\n            trade.currencies.conjugate, balanceReward\n        );\n    }\n\n    function addProposalFromTrade(address wallet, NahmiiTypesLib.Trade trade, int256 stageAmount, int256 balanceAmount, MonetaryTypesLib.Currency currency, bool balanceReward)\n    private\n    {\n        // Require that stage amount is positive\n        require(stageAmount.isPositiveInt256());\n\n        // Require that balance amount is not less than stage amount\n        require(balanceAmount >= stageAmount);\n\n        // Create proposal\n        proposals.length++;\n\n        // Populate proposal\n        proposals[proposals.length - 1].wallet = wallet;\n        proposals[proposals.length - 1].nonce = trade.nonce;\n        proposals[proposals.length - 1].blockNumber = trade.blockNumber;\n        proposals[proposals.length - 1].expirationTime = block.timestamp.add(configuration.settlementChallengeTimeout());\n        proposals[proposals.length - 1].status = SettlementTypesLib.Status.Qualified;\n        proposals[proposals.length - 1].currencyCt = currency.ct;\n        proposals[proposals.length - 1].currencyId = currency.id;\n        proposals[proposals.length - 1].stageAmount = stageAmount;\n        proposals[proposals.length - 1].targetBalanceAmount = balanceAmount.sub(stageAmount);\n        proposals[proposals.length - 1].driipHash = trade.seal.hash;\n        proposals[proposals.length - 1].driipType = NahmiiTypesLib.DriipType.Trade;\n        proposals[proposals.length - 1].balanceReward = balanceReward;\n\n        // Store proposal index\n        proposalIndexByWalletCurrency[wallet][currency.ct][currency.id] = proposals.length;\n        proposalIndicesByWallet[wallet].push(proposals.length);\n    }\n\n    function addProposalFromPayment(address wallet, NahmiiTypesLib.Payment payment, int256 stageAmount, bool balanceReward)\n    private\n    {\n        // Require that stage amount is positive\n        require(stageAmount.isPositiveInt256());\n\n        // Deduce the concerned balance amount\n        int256 balanceAmount = (\n        validator.isPaymentSender(payment, wallet) ?\n        payment.sender.balances.current :\n        payment.recipient.balances.current\n        );\n\n        // Require that balance amount is not less than stage amount\n        require(balanceAmount >= stageAmount);\n\n        // Create proposal\n        proposals.length++;\n\n        // Populate proposal\n        proposals[proposals.length - 1].wallet = wallet;\n        proposals[proposals.length - 1].nonce = payment.nonce;\n        proposals[proposals.length - 1].blockNumber = payment.blockNumber;\n        proposals[proposals.length - 1].expirationTime = block.timestamp.add(configuration.settlementChallengeTimeout());\n        proposals[proposals.length - 1].status = SettlementTypesLib.Status.Qualified;\n        proposals[proposals.length - 1].currencyCt = payment.currency.ct;\n        proposals[proposals.length - 1].currencyId = payment.currency.id;\n        proposals[proposals.length - 1].stageAmount = stageAmount;\n        proposals[proposals.length - 1].targetBalanceAmount = balanceAmount.sub(stageAmount);\n        proposals[proposals.length - 1].driipHash = payment.seals.operator.hash;\n        proposals[proposals.length - 1].driipType = NahmiiTypesLib.DriipType.Payment;\n        proposals[proposals.length - 1].balanceReward = balanceReward;\n\n        // Store proposal index\n        proposalIndexByWalletCurrency[wallet][payment.currency.ct][payment.currency.id] = proposals.length;\n        proposalIndicesByWallet[wallet].push(proposals.length);\n    }\n\n    function addToChallengeWallets(address wallet)\n    private\n    {\n        if (!challengeByWallets[wallet]) {\n            challengeByWallets[wallet] = true;\n            challengeWallets.push(wallet);\n        }\n    }\n\n    //\n    // Modifiers\n    // -----------------------------------------------------------------------------------------------------------------\n    modifier onlyDriipSettlementDispute() {\n        require(msg.sender == address(driipSettlementDispute));\n        _;\n    }\n}\n",
  "sourcePath": "/Users/yons/development/hubii/striim-contracts/contracts/DriipSettlementChallenge.sol",
  "compiler": {
    "name": "solc",
    "version": "0.4.24+commit.e67f0147.Emscripten.clang"
  },
  "schemaVersion": "2.0.1",
  "updatedAt": "2018-11-21T03:39:16.259Z"
}