{
  "contractName": "DriipSettlement",
  "abi": [
    {
      "constant": false,
      "inputs": [
        {
          "name": "newFraudChallenge",
          "type": "address"
        }
      ],
      "name": "setFraudChallenge",
      "outputs": [],
      "payable": false,
      "stateMutability": "nonpayable",
      "type": "function"
    },
    {
      "constant": true,
      "inputs": [
        {
          "name": "",
          "type": "uint256"
        }
      ],
      "name": "settlements",
      "outputs": [
        {
          "name": "nonce",
          "type": "uint256"
        },
        {
          "name": "driipType",
          "type": "uint8"
        },
        {
          "components": [
            {
              "name": "nonce",
              "type": "uint256"
            },
            {
              "name": "wallet",
              "type": "address"
            },
            {
              "name": "done",
              "type": "bool"
            }
          ],
          "name": "origin",
          "type": "tuple"
        },
        {
          "components": [
            {
              "name": "nonce",
              "type": "uint256"
            },
            {
              "name": "wallet",
              "type": "address"
            },
            {
              "name": "done",
              "type": "bool"
            }
          ],
          "name": "target",
          "type": "tuple"
        }
      ],
      "payable": false,
      "stateMutability": "view",
      "type": "function"
    },
    {
      "constant": false,
      "inputs": [
        {
          "name": "newAddress",
          "type": "address"
        }
      ],
      "name": "setValidator",
      "outputs": [],
      "payable": false,
      "stateMutability": "nonpayable",
      "type": "function"
    },
    {
      "constant": false,
      "inputs": [],
      "name": "disableUpdateOfCommunityVote",
      "outputs": [],
      "payable": false,
      "stateMutability": "nonpayable",
      "type": "function"
    },
    {
      "constant": true,
      "inputs": [],
      "name": "validator",
      "outputs": [
        {
          "name": "",
          "type": "address"
        }
      ],
      "payable": false,
      "stateMutability": "view",
      "type": "function"
    },
    {
      "constant": true,
      "inputs": [],
      "name": "fraudChallenge",
      "outputs": [
        {
          "name": "",
          "type": "address"
        }
      ],
      "payable": false,
      "stateMutability": "view",
      "type": "function"
    },
    {
      "constant": true,
      "inputs": [],
      "name": "destructor",
      "outputs": [
        {
          "name": "",
          "type": "address"
        }
      ],
      "payable": false,
      "stateMutability": "view",
      "type": "function"
    },
    {
      "constant": true,
      "inputs": [],
      "name": "operator",
      "outputs": [
        {
          "name": "",
          "type": "address"
        }
      ],
      "payable": false,
      "stateMutability": "view",
      "type": "function"
    },
    {
      "constant": false,
      "inputs": [
        {
          "name": "newConfiguration",
          "type": "address"
        }
      ],
      "name": "setConfiguration",
      "outputs": [],
      "payable": false,
      "stateMutability": "nonpayable",
      "type": "function"
    },
    {
      "constant": true,
      "inputs": [],
      "name": "configuration",
      "outputs": [
        {
          "name": "",
          "type": "address"
        }
      ],
      "payable": false,
      "stateMutability": "view",
      "type": "function"
    },
    {
      "constant": true,
      "inputs": [],
      "name": "maxDriipNonce",
      "outputs": [
        {
          "name": "",
          "type": "uint256"
        }
      ],
      "payable": false,
      "stateMutability": "view",
      "type": "function"
    },
    {
      "constant": true,
      "inputs": [
        {
          "name": "",
          "type": "address"
        },
        {
          "name": "",
          "type": "uint256"
        }
      ],
      "name": "walletSettlementIndices",
      "outputs": [
        {
          "name": "",
          "type": "uint256"
        }
      ],
      "payable": false,
      "stateMutability": "view",
      "type": "function"
    },
    {
      "constant": false,
      "inputs": [],
      "name": "triggerDestroy",
      "outputs": [],
      "payable": false,
      "stateMutability": "nonpayable",
      "type": "function"
    },
    {
      "constant": false,
      "inputs": [
        {
          "name": "newDeployer",
          "type": "address"
        }
      ],
      "name": "setDeployer",
      "outputs": [],
      "payable": false,
      "stateMutability": "nonpayable",
      "type": "function"
    },
    {
      "constant": true,
      "inputs": [
        {
          "name": "",
          "type": "uint256"
        }
      ],
      "name": "nonceSettlementIndex",
      "outputs": [
        {
          "name": "",
          "type": "uint256"
        }
      ],
      "payable": false,
      "stateMutability": "view",
      "type": "function"
    },
    {
      "constant": true,
      "inputs": [
        {
          "name": "",
          "type": "address"
        },
        {
          "name": "",
          "type": "address"
        },
        {
          "name": "",
          "type": "uint256"
        }
      ],
      "name": "walletCurrencyFeeNonce",
      "outputs": [
        {
          "name": "",
          "type": "uint256"
        }
      ],
      "payable": false,
      "stateMutability": "view",
      "type": "function"
    },
    {
      "constant": true,
      "inputs": [],
      "name": "paymentsRevenueFund",
      "outputs": [
        {
          "name": "",
          "type": "address"
        }
      ],
      "payable": false,
      "stateMutability": "view",
      "type": "function"
    },
    {
      "constant": false,
      "inputs": [
        {
          "name": "newOperator",
          "type": "address"
        }
      ],
      "name": "setOperator",
      "outputs": [],
      "payable": false,
      "stateMutability": "nonpayable",
      "type": "function"
    },
    {
      "constant": false,
      "inputs": [
        {
          "name": "newAddress",
          "type": "address"
        }
      ],
      "name": "setClientFund",
      "outputs": [],
      "payable": false,
      "stateMutability": "nonpayable",
      "type": "function"
    },
    {
      "constant": true,
      "inputs": [],
      "name": "communityVote",
      "outputs": [
        {
          "name": "",
          "type": "address"
        }
      ],
      "payable": false,
      "stateMutability": "view",
      "type": "function"
    },
    {
      "constant": true,
      "inputs": [],
      "name": "tradesRevenueFund",
      "outputs": [
        {
          "name": "",
          "type": "address"
        }
      ],
      "payable": false,
      "stateMutability": "view",
      "type": "function"
    },
    {
      "constant": true,
      "inputs": [],
      "name": "communityVoteUpdateDisabled",
      "outputs": [
        {
          "name": "",
          "type": "bool"
        }
      ],
      "payable": false,
      "stateMutability": "view",
      "type": "function"
    },
    {
      "constant": true,
      "inputs": [],
      "name": "deployer",
      "outputs": [
        {
          "name": "",
          "type": "address"
        }
      ],
      "payable": false,
      "stateMutability": "view",
      "type": "function"
    },
    {
      "constant": true,
      "inputs": [
        {
          "name": "",
          "type": "address"
        },
        {
          "name": "",
          "type": "uint256"
        }
      ],
      "name": "walletNonceSettlementIndex",
      "outputs": [
        {
          "name": "",
          "type": "uint256"
        }
      ],
      "payable": false,
      "stateMutability": "view",
      "type": "function"
    },
    {
      "constant": true,
      "inputs": [
        {
          "name": "",
          "type": "address"
        },
        {
          "name": "",
          "type": "address"
        },
        {
          "name": "",
          "type": "uint256"
        }
      ],
      "name": "walletCurrencyMaxDriipNonce",
      "outputs": [
        {
          "name": "",
          "type": "uint256"
        }
      ],
      "payable": false,
      "stateMutability": "view",
      "type": "function"
    },
    {
      "constant": true,
      "inputs": [
        {
          "name": "",
          "type": "address"
        },
        {
          "name": "",
          "type": "address"
        },
        {
          "name": "",
          "type": "uint256"
        }
      ],
      "name": "walletCurrencyFeeCharged",
      "outputs": [
        {
          "name": "",
          "type": "int256"
        }
      ],
      "payable": false,
      "stateMutability": "view",
      "type": "function"
    },
    {
      "constant": true,
      "inputs": [],
      "name": "clientFund",
      "outputs": [
        {
          "name": "",
          "type": "address"
        }
      ],
      "payable": false,
      "stateMutability": "view",
      "type": "function"
    },
    {
      "constant": false,
      "inputs": [
        {
          "name": "newCommunityVote",
          "type": "address"
        }
      ],
      "name": "setCommunityVote",
      "outputs": [],
      "payable": false,
      "stateMutability": "nonpayable",
      "type": "function"
    },
    {
      "constant": true,
      "inputs": [],
      "name": "driipSettlementChallenge",
      "outputs": [
        {
          "name": "",
          "type": "address"
        }
      ],
      "payable": false,
      "stateMutability": "view",
      "type": "function"
    },
    {
      "inputs": [
        {
          "name": "deployer",
          "type": "address"
        }
      ],
      "payable": false,
      "stateMutability": "nonpayable",
      "type": "constructor"
    },
    {
      "anonymous": false,
      "inputs": [
        {
          "indexed": false,
          "name": "wallet",
          "type": "address"
        },
        {
          "components": [
            {
              "name": "nonce",
              "type": "uint256"
            },
            {
              "name": "amount",
              "type": "int256"
            },
            {
              "components": [
                {
                  "components": [
                    {
                      "name": "ct",
                      "type": "address"
                    },
                    {
                      "name": "id",
                      "type": "uint256"
                    }
                  ],
                  "name": "intended",
                  "type": "tuple"
                },
                {
                  "components": [
                    {
                      "name": "ct",
                      "type": "address"
                    },
                    {
                      "name": "id",
                      "type": "uint256"
                    }
                  ],
                  "name": "conjugate",
                  "type": "tuple"
                }
              ],
              "name": "currencies",
              "type": "tuple"
            },
            {
              "name": "rate",
              "type": "int256"
            },
            {
              "components": [
                {
                  "name": "nonce",
                  "type": "uint256"
                },
                {
                  "name": "wallet",
                  "type": "address"
                },
                {
                  "name": "rollingVolume",
                  "type": "uint256"
                },
                {
                  "name": "liquidityRole",
                  "type": "uint8"
                },
                {
                  "components": [
                    {
                      "name": "amount",
                      "type": "int256"
                    },
                    {
                      "components": [
                        {
                          "name": "wallet",
                          "type": "bytes32"
                        },
                        {
                          "name": "operator",
                          "type": "bytes32"
                        }
                      ],
                      "name": "hashes",
                      "type": "tuple"
                    },
                    {
                      "components": [
                        {
                          "name": "current",
                          "type": "int256"
                        },
                        {
                          "name": "previous",
                          "type": "int256"
                        }
                      ],
                      "name": "residuals",
                      "type": "tuple"
                    }
                  ],
                  "name": "order",
                  "type": "tuple"
                },
                {
                  "components": [
                    {
                      "components": [
                        {
                          "name": "current",
                          "type": "int256"
                        },
                        {
                          "name": "previous",
                          "type": "int256"
                        }
                      ],
                      "name": "intended",
                      "type": "tuple"
                    },
                    {
                      "components": [
                        {
                          "name": "current",
                          "type": "int256"
                        },
                        {
                          "name": "previous",
                          "type": "int256"
                        }
                      ],
                      "name": "conjugate",
                      "type": "tuple"
                    }
                  ],
                  "name": "balances",
                  "type": "tuple"
                },
                {
                  "components": [
                    {
                      "components": [
                        {
                          "name": "amount",
                          "type": "int256"
                        },
                        {
                          "components": [
                            {
                              "name": "ct",
                              "type": "address"
                            },
                            {
                              "name": "id",
                              "type": "uint256"
                            }
                          ],
                          "name": "currency",
                          "type": "tuple"
                        }
                      ],
                      "name": "single",
                      "type": "tuple"
                    },
                    {
                      "components": [
                        {
                          "name": "amount",
                          "type": "int256"
                        },
                        {
                          "components": [
                            {
                              "name": "ct",
                              "type": "address"
                            },
                            {
                              "name": "id",
                              "type": "uint256"
                            }
                          ],
                          "name": "currency",
                          "type": "tuple"
                        }
                      ],
                      "name": "total",
                      "type": "tuple[]"
                    }
                  ],
                  "name": "fees",
                  "type": "tuple"
                }
              ],
              "name": "buyer",
              "type": "tuple"
            },
            {
              "components": [
                {
                  "name": "nonce",
                  "type": "uint256"
                },
                {
                  "name": "wallet",
                  "type": "address"
                },
                {
                  "name": "rollingVolume",
                  "type": "uint256"
                },
                {
                  "name": "liquidityRole",
                  "type": "uint8"
                },
                {
                  "components": [
                    {
                      "name": "amount",
                      "type": "int256"
                    },
                    {
                      "components": [
                        {
                          "name": "wallet",
                          "type": "bytes32"
                        },
                        {
                          "name": "operator",
                          "type": "bytes32"
                        }
                      ],
                      "name": "hashes",
                      "type": "tuple"
                    },
                    {
                      "components": [
                        {
                          "name": "current",
                          "type": "int256"
                        },
                        {
                          "name": "previous",
                          "type": "int256"
                        }
                      ],
                      "name": "residuals",
                      "type": "tuple"
                    }
                  ],
                  "name": "order",
                  "type": "tuple"
                },
                {
                  "components": [
                    {
                      "components": [
                        {
                          "name": "current",
                          "type": "int256"
                        },
                        {
                          "name": "previous",
                          "type": "int256"
                        }
                      ],
                      "name": "intended",
                      "type": "tuple"
                    },
                    {
                      "components": [
                        {
                          "name": "current",
                          "type": "int256"
                        },
                        {
                          "name": "previous",
                          "type": "int256"
                        }
                      ],
                      "name": "conjugate",
                      "type": "tuple"
                    }
                  ],
                  "name": "balances",
                  "type": "tuple"
                },
                {
                  "components": [
                    {
                      "components": [
                        {
                          "name": "amount",
                          "type": "int256"
                        },
                        {
                          "components": [
                            {
                              "name": "ct",
                              "type": "address"
                            },
                            {
                              "name": "id",
                              "type": "uint256"
                            }
                          ],
                          "name": "currency",
                          "type": "tuple"
                        }
                      ],
                      "name": "single",
                      "type": "tuple"
                    },
                    {
                      "components": [
                        {
                          "name": "amount",
                          "type": "int256"
                        },
                        {
                          "components": [
                            {
                              "name": "ct",
                              "type": "address"
                            },
                            {
                              "name": "id",
                              "type": "uint256"
                            }
                          ],
                          "name": "currency",
                          "type": "tuple"
                        }
                      ],
                      "name": "total",
                      "type": "tuple[]"
                    }
                  ],
                  "name": "fees",
                  "type": "tuple"
                }
              ],
              "name": "seller",
              "type": "tuple"
            },
            {
              "components": [
                {
                  "components": [
                    {
                      "name": "single",
                      "type": "int256"
                    },
                    {
                      "name": "total",
                      "type": "int256"
                    }
                  ],
                  "name": "intended",
                  "type": "tuple"
                },
                {
                  "components": [
                    {
                      "name": "single",
                      "type": "int256"
                    },
                    {
                      "name": "total",
                      "type": "int256"
                    }
                  ],
                  "name": "conjugate",
                  "type": "tuple"
                }
              ],
              "name": "transfers",
              "type": "tuple"
            },
            {
              "components": [
                {
                  "name": "hash",
                  "type": "bytes32"
                },
                {
                  "components": [
                    {
                      "name": "r",
                      "type": "bytes32"
                    },
                    {
                      "name": "s",
                      "type": "bytes32"
                    },
                    {
                      "name": "v",
                      "type": "uint8"
                    }
                  ],
                  "name": "signature",
                  "type": "tuple"
                }
              ],
              "name": "seal",
              "type": "tuple"
            },
            {
              "name": "blockNumber",
              "type": "uint256"
            },
            {
              "name": "operatorId",
              "type": "uint256"
            }
          ],
          "indexed": false,
          "name": "trade",
          "type": "tuple"
        }
      ],
      "name": "SettleTradeEvent",
      "type": "event"
    },
    {
      "anonymous": false,
      "inputs": [
        {
          "indexed": false,
          "name": "proxy",
          "type": "address"
        },
        {
          "indexed": false,
          "name": "wallet",
          "type": "address"
        },
        {
          "components": [
            {
              "name": "nonce",
              "type": "uint256"
            },
            {
              "name": "amount",
              "type": "int256"
            },
            {
              "components": [
                {
                  "components": [
                    {
                      "name": "ct",
                      "type": "address"
                    },
                    {
                      "name": "id",
                      "type": "uint256"
                    }
                  ],
                  "name": "intended",
                  "type": "tuple"
                },
                {
                  "components": [
                    {
                      "name": "ct",
                      "type": "address"
                    },
                    {
                      "name": "id",
                      "type": "uint256"
                    }
                  ],
                  "name": "conjugate",
                  "type": "tuple"
                }
              ],
              "name": "currencies",
              "type": "tuple"
            },
            {
              "name": "rate",
              "type": "int256"
            },
            {
              "components": [
                {
                  "name": "nonce",
                  "type": "uint256"
                },
                {
                  "name": "wallet",
                  "type": "address"
                },
                {
                  "name": "rollingVolume",
                  "type": "uint256"
                },
                {
                  "name": "liquidityRole",
                  "type": "uint8"
                },
                {
                  "components": [
                    {
                      "name": "amount",
                      "type": "int256"
                    },
                    {
                      "components": [
                        {
                          "name": "wallet",
                          "type": "bytes32"
                        },
                        {
                          "name": "operator",
                          "type": "bytes32"
                        }
                      ],
                      "name": "hashes",
                      "type": "tuple"
                    },
                    {
                      "components": [
                        {
                          "name": "current",
                          "type": "int256"
                        },
                        {
                          "name": "previous",
                          "type": "int256"
                        }
                      ],
                      "name": "residuals",
                      "type": "tuple"
                    }
                  ],
                  "name": "order",
                  "type": "tuple"
                },
                {
                  "components": [
                    {
                      "components": [
                        {
                          "name": "current",
                          "type": "int256"
                        },
                        {
                          "name": "previous",
                          "type": "int256"
                        }
                      ],
                      "name": "intended",
                      "type": "tuple"
                    },
                    {
                      "components": [
                        {
                          "name": "current",
                          "type": "int256"
                        },
                        {
                          "name": "previous",
                          "type": "int256"
                        }
                      ],
                      "name": "conjugate",
                      "type": "tuple"
                    }
                  ],
                  "name": "balances",
                  "type": "tuple"
                },
                {
                  "components": [
                    {
                      "components": [
                        {
                          "name": "amount",
                          "type": "int256"
                        },
                        {
                          "components": [
                            {
                              "name": "ct",
                              "type": "address"
                            },
                            {
                              "name": "id",
                              "type": "uint256"
                            }
                          ],
                          "name": "currency",
                          "type": "tuple"
                        }
                      ],
                      "name": "single",
                      "type": "tuple"
                    },
                    {
                      "components": [
                        {
                          "name": "amount",
                          "type": "int256"
                        },
                        {
                          "components": [
                            {
                              "name": "ct",
                              "type": "address"
                            },
                            {
                              "name": "id",
                              "type": "uint256"
                            }
                          ],
                          "name": "currency",
                          "type": "tuple"
                        }
                      ],
                      "name": "total",
                      "type": "tuple[]"
                    }
                  ],
                  "name": "fees",
                  "type": "tuple"
                }
              ],
              "name": "buyer",
              "type": "tuple"
            },
            {
              "components": [
                {
                  "name": "nonce",
                  "type": "uint256"
                },
                {
                  "name": "wallet",
                  "type": "address"
                },
                {
                  "name": "rollingVolume",
                  "type": "uint256"
                },
                {
                  "name": "liquidityRole",
                  "type": "uint8"
                },
                {
                  "components": [
                    {
                      "name": "amount",
                      "type": "int256"
                    },
                    {
                      "components": [
                        {
                          "name": "wallet",
                          "type": "bytes32"
                        },
                        {
                          "name": "operator",
                          "type": "bytes32"
                        }
                      ],
                      "name": "hashes",
                      "type": "tuple"
                    },
                    {
                      "components": [
                        {
                          "name": "current",
                          "type": "int256"
                        },
                        {
                          "name": "previous",
                          "type": "int256"
                        }
                      ],
                      "name": "residuals",
                      "type": "tuple"
                    }
                  ],
                  "name": "order",
                  "type": "tuple"
                },
                {
                  "components": [
                    {
                      "components": [
                        {
                          "name": "current",
                          "type": "int256"
                        },
                        {
                          "name": "previous",
                          "type": "int256"
                        }
                      ],
                      "name": "intended",
                      "type": "tuple"
                    },
                    {
                      "components": [
                        {
                          "name": "current",
                          "type": "int256"
                        },
                        {
                          "name": "previous",
                          "type": "int256"
                        }
                      ],
                      "name": "conjugate",
                      "type": "tuple"
                    }
                  ],
                  "name": "balances",
                  "type": "tuple"
                },
                {
                  "components": [
                    {
                      "components": [
                        {
                          "name": "amount",
                          "type": "int256"
                        },
                        {
                          "components": [
                            {
                              "name": "ct",
                              "type": "address"
                            },
                            {
                              "name": "id",
                              "type": "uint256"
                            }
                          ],
                          "name": "currency",
                          "type": "tuple"
                        }
                      ],
                      "name": "single",
                      "type": "tuple"
                    },
                    {
                      "components": [
                        {
                          "name": "amount",
                          "type": "int256"
                        },
                        {
                          "components": [
                            {
                              "name": "ct",
                              "type": "address"
                            },
                            {
                              "name": "id",
                              "type": "uint256"
                            }
                          ],
                          "name": "currency",
                          "type": "tuple"
                        }
                      ],
                      "name": "total",
                      "type": "tuple[]"
                    }
                  ],
                  "name": "fees",
                  "type": "tuple"
                }
              ],
              "name": "seller",
              "type": "tuple"
            },
            {
              "components": [
                {
                  "components": [
                    {
                      "name": "single",
                      "type": "int256"
                    },
                    {
                      "name": "total",
                      "type": "int256"
                    }
                  ],
                  "name": "intended",
                  "type": "tuple"
                },
                {
                  "components": [
                    {
                      "name": "single",
                      "type": "int256"
                    },
                    {
                      "name": "total",
                      "type": "int256"
                    }
                  ],
                  "name": "conjugate",
                  "type": "tuple"
                }
              ],
              "name": "transfers",
              "type": "tuple"
            },
            {
              "components": [
                {
                  "name": "hash",
                  "type": "bytes32"
                },
                {
                  "components": [
                    {
                      "name": "r",
                      "type": "bytes32"
                    },
                    {
                      "name": "s",
                      "type": "bytes32"
                    },
                    {
                      "name": "v",
                      "type": "uint8"
                    }
                  ],
                  "name": "signature",
                  "type": "tuple"
                }
              ],
              "name": "seal",
              "type": "tuple"
            },
            {
              "name": "blockNumber",
              "type": "uint256"
            },
            {
              "name": "operatorId",
              "type": "uint256"
            }
          ],
          "indexed": false,
          "name": "trade",
          "type": "tuple"
        }
      ],
      "name": "SettleTradeByProxyEvent",
      "type": "event"
    },
    {
      "anonymous": false,
      "inputs": [
        {
          "indexed": false,
          "name": "wallet",
          "type": "address"
        },
        {
          "components": [
            {
              "name": "nonce",
              "type": "uint256"
            },
            {
              "name": "amount",
              "type": "int256"
            },
            {
              "components": [
                {
                  "name": "ct",
                  "type": "address"
                },
                {
                  "name": "id",
                  "type": "uint256"
                }
              ],
              "name": "currency",
              "type": "tuple"
            },
            {
              "components": [
                {
                  "name": "nonce",
                  "type": "uint256"
                },
                {
                  "name": "wallet",
                  "type": "address"
                },
                {
                  "components": [
                    {
                      "name": "current",
                      "type": "int256"
                    },
                    {
                      "name": "previous",
                      "type": "int256"
                    }
                  ],
                  "name": "balances",
                  "type": "tuple"
                },
                {
                  "components": [
                    {
                      "components": [
                        {
                          "name": "amount",
                          "type": "int256"
                        },
                        {
                          "components": [
                            {
                              "name": "ct",
                              "type": "address"
                            },
                            {
                              "name": "id",
                              "type": "uint256"
                            }
                          ],
                          "name": "currency",
                          "type": "tuple"
                        }
                      ],
                      "name": "single",
                      "type": "tuple"
                    },
                    {
                      "components": [
                        {
                          "name": "amount",
                          "type": "int256"
                        },
                        {
                          "components": [
                            {
                              "name": "ct",
                              "type": "address"
                            },
                            {
                              "name": "id",
                              "type": "uint256"
                            }
                          ],
                          "name": "currency",
                          "type": "tuple"
                        }
                      ],
                      "name": "total",
                      "type": "tuple[]"
                    }
                  ],
                  "name": "fees",
                  "type": "tuple"
                }
              ],
              "name": "sender",
              "type": "tuple"
            },
            {
              "components": [
                {
                  "name": "nonce",
                  "type": "uint256"
                },
                {
                  "name": "wallet",
                  "type": "address"
                },
                {
                  "components": [
                    {
                      "name": "current",
                      "type": "int256"
                    },
                    {
                      "name": "previous",
                      "type": "int256"
                    }
                  ],
                  "name": "balances",
                  "type": "tuple"
                },
                {
                  "components": [
                    {
                      "components": [
                        {
                          "name": "amount",
                          "type": "int256"
                        },
                        {
                          "components": [
                            {
                              "name": "ct",
                              "type": "address"
                            },
                            {
                              "name": "id",
                              "type": "uint256"
                            }
                          ],
                          "name": "currency",
                          "type": "tuple"
                        }
                      ],
                      "name": "total",
                      "type": "tuple[]"
                    }
                  ],
                  "name": "fees",
                  "type": "tuple"
                }
              ],
              "name": "recipient",
              "type": "tuple"
            },
            {
              "components": [
                {
                  "name": "single",
                  "type": "int256"
                },
                {
                  "name": "total",
                  "type": "int256"
                }
              ],
              "name": "transfers",
              "type": "tuple"
            },
            {
              "components": [
                {
                  "components": [
                    {
                      "name": "hash",
                      "type": "bytes32"
                    },
                    {
                      "components": [
                        {
                          "name": "r",
                          "type": "bytes32"
                        },
                        {
                          "name": "s",
                          "type": "bytes32"
                        },
                        {
                          "name": "v",
                          "type": "uint8"
                        }
                      ],
                      "name": "signature",
                      "type": "tuple"
                    }
                  ],
                  "name": "wallet",
                  "type": "tuple"
                },
                {
                  "components": [
                    {
                      "name": "hash",
                      "type": "bytes32"
                    },
                    {
                      "components": [
                        {
                          "name": "r",
                          "type": "bytes32"
                        },
                        {
                          "name": "s",
                          "type": "bytes32"
                        },
                        {
                          "name": "v",
                          "type": "uint8"
                        }
                      ],
                      "name": "signature",
                      "type": "tuple"
                    }
                  ],
                  "name": "operator",
                  "type": "tuple"
                }
              ],
              "name": "seals",
              "type": "tuple"
            },
            {
              "name": "blockNumber",
              "type": "uint256"
            },
            {
              "name": "operatorId",
              "type": "uint256"
            }
          ],
          "indexed": false,
          "name": "payment",
          "type": "tuple"
        }
      ],
      "name": "SettlePaymentEvent",
      "type": "event"
    },
    {
      "anonymous": false,
      "inputs": [
        {
          "indexed": false,
          "name": "proxy",
          "type": "address"
        },
        {
          "indexed": false,
          "name": "wallet",
          "type": "address"
        },
        {
          "components": [
            {
              "name": "nonce",
              "type": "uint256"
            },
            {
              "name": "amount",
              "type": "int256"
            },
            {
              "components": [
                {
                  "name": "ct",
                  "type": "address"
                },
                {
                  "name": "id",
                  "type": "uint256"
                }
              ],
              "name": "currency",
              "type": "tuple"
            },
            {
              "components": [
                {
                  "name": "nonce",
                  "type": "uint256"
                },
                {
                  "name": "wallet",
                  "type": "address"
                },
                {
                  "components": [
                    {
                      "name": "current",
                      "type": "int256"
                    },
                    {
                      "name": "previous",
                      "type": "int256"
                    }
                  ],
                  "name": "balances",
                  "type": "tuple"
                },
                {
                  "components": [
                    {
                      "components": [
                        {
                          "name": "amount",
                          "type": "int256"
                        },
                        {
                          "components": [
                            {
                              "name": "ct",
                              "type": "address"
                            },
                            {
                              "name": "id",
                              "type": "uint256"
                            }
                          ],
                          "name": "currency",
                          "type": "tuple"
                        }
                      ],
                      "name": "single",
                      "type": "tuple"
                    },
                    {
                      "components": [
                        {
                          "name": "amount",
                          "type": "int256"
                        },
                        {
                          "components": [
                            {
                              "name": "ct",
                              "type": "address"
                            },
                            {
                              "name": "id",
                              "type": "uint256"
                            }
                          ],
                          "name": "currency",
                          "type": "tuple"
                        }
                      ],
                      "name": "total",
                      "type": "tuple[]"
                    }
                  ],
                  "name": "fees",
                  "type": "tuple"
                }
              ],
              "name": "sender",
              "type": "tuple"
            },
            {
              "components": [
                {
                  "name": "nonce",
                  "type": "uint256"
                },
                {
                  "name": "wallet",
                  "type": "address"
                },
                {
                  "components": [
                    {
                      "name": "current",
                      "type": "int256"
                    },
                    {
                      "name": "previous",
                      "type": "int256"
                    }
                  ],
                  "name": "balances",
                  "type": "tuple"
                },
                {
                  "components": [
                    {
                      "components": [
                        {
                          "name": "amount",
                          "type": "int256"
                        },
                        {
                          "components": [
                            {
                              "name": "ct",
                              "type": "address"
                            },
                            {
                              "name": "id",
                              "type": "uint256"
                            }
                          ],
                          "name": "currency",
                          "type": "tuple"
                        }
                      ],
                      "name": "total",
                      "type": "tuple[]"
                    }
                  ],
                  "name": "fees",
                  "type": "tuple"
                }
              ],
              "name": "recipient",
              "type": "tuple"
            },
            {
              "components": [
                {
                  "name": "single",
                  "type": "int256"
                },
                {
                  "name": "total",
                  "type": "int256"
                }
              ],
              "name": "transfers",
              "type": "tuple"
            },
            {
              "components": [
                {
                  "components": [
                    {
                      "name": "hash",
                      "type": "bytes32"
                    },
                    {
                      "components": [
                        {
                          "name": "r",
                          "type": "bytes32"
                        },
                        {
                          "name": "s",
                          "type": "bytes32"
                        },
                        {
                          "name": "v",
                          "type": "uint8"
                        }
                      ],
                      "name": "signature",
                      "type": "tuple"
                    }
                  ],
                  "name": "wallet",
                  "type": "tuple"
                },
                {
                  "components": [
                    {
                      "name": "hash",
                      "type": "bytes32"
                    },
                    {
                      "components": [
                        {
                          "name": "r",
                          "type": "bytes32"
                        },
                        {
                          "name": "s",
                          "type": "bytes32"
                        },
                        {
                          "name": "v",
                          "type": "uint8"
                        }
                      ],
                      "name": "signature",
                      "type": "tuple"
                    }
                  ],
                  "name": "operator",
                  "type": "tuple"
                }
              ],
              "name": "seals",
              "type": "tuple"
            },
            {
              "name": "blockNumber",
              "type": "uint256"
            },
            {
              "name": "operatorId",
              "type": "uint256"
            }
          ],
          "indexed": false,
          "name": "payment",
          "type": "tuple"
        }
      ],
      "name": "SettlePaymentByProxyEvent",
      "type": "event"
    },
    {
      "anonymous": false,
      "inputs": [
        {
          "indexed": false,
          "name": "oldDriipSettlementChallenge",
          "type": "address"
        },
        {
          "indexed": false,
          "name": "newDriipSettlementChallenge",
          "type": "address"
        }
      ],
      "name": "SetDriipSettlementChallengeEvent",
      "type": "event"
    },
    {
      "anonymous": false,
      "inputs": [
        {
          "indexed": false,
          "name": "oldRevenueFund",
          "type": "address"
        },
        {
          "indexed": false,
          "name": "newRevenueFund",
          "type": "address"
        }
      ],
      "name": "SetTradesRevenueFundEvent",
      "type": "event"
    },
    {
      "anonymous": false,
      "inputs": [
        {
          "indexed": false,
          "name": "oldRevenueFund",
          "type": "address"
        },
        {
          "indexed": false,
          "name": "newRevenueFund",
          "type": "address"
        }
      ],
      "name": "SetPaymentsRevenueFundEvent",
      "type": "event"
    },
    {
      "anonymous": false,
      "inputs": [
        {
          "indexed": false,
          "name": "wallet",
          "type": "address"
        },
        {
          "indexed": false,
          "name": "deltaAmount",
          "type": "int256"
        },
        {
          "indexed": false,
          "name": "cumulativeAmount",
          "type": "int256"
        },
        {
          "indexed": false,
          "name": "currencyCt",
          "type": "address"
        },
        {
          "indexed": false,
          "name": "currencyId",
          "type": "uint256"
        }
      ],
      "name": "StageTotalFeeEvent",
      "type": "event"
    },
    {
      "anonymous": false,
      "inputs": [
        {
          "indexed": false,
          "name": "oldFraudChallenge",
          "type": "address"
        },
        {
          "indexed": false,
          "name": "newFraudChallenge",
          "type": "address"
        }
      ],
      "name": "SetFraudChallengeEvent",
      "type": "event"
    },
    {
      "anonymous": false,
      "inputs": [
        {
          "indexed": false,
          "name": "oldCommunityVote",
          "type": "address"
        },
        {
          "indexed": false,
          "name": "newCommunityVote",
          "type": "address"
        }
      ],
      "name": "SetCommunityVoteEvent",
      "type": "event"
    },
    {
      "anonymous": false,
      "inputs": [
        {
          "indexed": false,
          "name": "oldAddress",
          "type": "address"
        },
        {
          "indexed": false,
          "name": "newAddress",
          "type": "address"
        }
      ],
      "name": "SetClientFundEvent",
      "type": "event"
    },
    {
      "anonymous": false,
      "inputs": [
        {
          "indexed": false,
          "name": "oldAddress",
          "type": "address"
        },
        {
          "indexed": false,
          "name": "newAddress",
          "type": "address"
        }
      ],
      "name": "SetValidatorEvent",
      "type": "event"
    },
    {
      "anonymous": false,
      "inputs": [
        {
          "indexed": false,
          "name": "oldConfiguration",
          "type": "address"
        },
        {
          "indexed": false,
          "name": "newConfiguration",
          "type": "address"
        }
      ],
      "name": "SetConfigurationEvent",
      "type": "event"
    },
    {
      "anonymous": false,
      "inputs": [
        {
          "indexed": false,
          "name": "oldDeployer",
          "type": "address"
        },
        {
          "indexed": false,
          "name": "newDeployer",
          "type": "address"
        }
      ],
      "name": "SetDeployerEvent",
      "type": "event"
    },
    {
      "anonymous": false,
      "inputs": [
        {
          "indexed": false,
          "name": "oldOperator",
          "type": "address"
        },
        {
          "indexed": false,
          "name": "newOperator",
          "type": "address"
        }
      ],
      "name": "SetOperatorEvent",
      "type": "event"
    },
    {
      "constant": false,
      "inputs": [
        {
          "name": "newDriipSettlementChallenge",
          "type": "address"
        }
      ],
      "name": "setDriipSettlementChallenge",
      "outputs": [],
      "payable": false,
      "stateMutability": "nonpayable",
      "type": "function"
    },
    {
      "constant": false,
      "inputs": [
        {
          "name": "newTradesRevenueFund",
          "type": "address"
        }
      ],
      "name": "setTradesRevenueFund",
      "outputs": [],
      "payable": false,
      "stateMutability": "nonpayable",
      "type": "function"
    },
    {
      "constant": false,
      "inputs": [
        {
          "name": "newPaymentsRevenueFund",
          "type": "address"
        }
      ],
      "name": "setPaymentsRevenueFund",
      "outputs": [],
      "payable": false,
      "stateMutability": "nonpayable",
      "type": "function"
    },
    {
      "constant": true,
      "inputs": [],
      "name": "settlementsCount",
      "outputs": [
        {
          "name": "",
          "type": "uint256"
        }
      ],
      "payable": false,
      "stateMutability": "view",
      "type": "function"
    },
    {
      "constant": true,
      "inputs": [
        {
          "name": "nonce",
          "type": "uint256"
        }
      ],
      "name": "hasSettlementByNonce",
      "outputs": [
        {
          "name": "",
          "type": "bool"
        }
      ],
      "payable": false,
      "stateMutability": "view",
      "type": "function"
    },
    {
      "constant": true,
      "inputs": [
        {
          "name": "nonce",
          "type": "uint256"
        }
      ],
      "name": "settlementByNonce",
      "outputs": [
        {
          "components": [
            {
              "name": "nonce",
              "type": "uint256"
            },
            {
              "name": "driipType",
              "type": "uint8"
            },
            {
              "components": [
                {
                  "name": "nonce",
                  "type": "uint256"
                },
                {
                  "name": "wallet",
                  "type": "address"
                },
                {
                  "name": "done",
                  "type": "bool"
                }
              ],
              "name": "origin",
              "type": "tuple"
            },
            {
              "components": [
                {
                  "name": "nonce",
                  "type": "uint256"
                },
                {
                  "name": "wallet",
                  "type": "address"
                },
                {
                  "name": "done",
                  "type": "bool"
                }
              ],
              "name": "target",
              "type": "tuple"
            }
          ],
          "name": "",
          "type": "tuple"
        }
      ],
      "payable": false,
      "stateMutability": "view",
      "type": "function"
    },
    {
      "constant": true,
      "inputs": [
        {
          "name": "wallet",
          "type": "address"
        }
      ],
      "name": "settlementsCountByWallet",
      "outputs": [
        {
          "name": "",
          "type": "uint256"
        }
      ],
      "payable": false,
      "stateMutability": "view",
      "type": "function"
    },
    {
      "constant": true,
      "inputs": [
        {
          "name": "wallet",
          "type": "address"
        },
        {
          "name": "index",
          "type": "uint256"
        }
      ],
      "name": "settlementByWalletAndIndex",
      "outputs": [
        {
          "components": [
            {
              "name": "nonce",
              "type": "uint256"
            },
            {
              "name": "driipType",
              "type": "uint8"
            },
            {
              "components": [
                {
                  "name": "nonce",
                  "type": "uint256"
                },
                {
                  "name": "wallet",
                  "type": "address"
                },
                {
                  "name": "done",
                  "type": "bool"
                }
              ],
              "name": "origin",
              "type": "tuple"
            },
            {
              "components": [
                {
                  "name": "nonce",
                  "type": "uint256"
                },
                {
                  "name": "wallet",
                  "type": "address"
                },
                {
                  "name": "done",
                  "type": "bool"
                }
              ],
              "name": "target",
              "type": "tuple"
            }
          ],
          "name": "",
          "type": "tuple"
        }
      ],
      "payable": false,
      "stateMutability": "view",
      "type": "function"
    },
    {
      "constant": true,
      "inputs": [
        {
          "name": "wallet",
          "type": "address"
        },
        {
          "name": "nonce",
          "type": "uint256"
        }
      ],
      "name": "settlementByWalletAndNonce",
      "outputs": [
        {
          "components": [
            {
              "name": "nonce",
              "type": "uint256"
            },
            {
              "name": "driipType",
              "type": "uint8"
            },
            {
              "components": [
                {
                  "name": "nonce",
                  "type": "uint256"
                },
                {
                  "name": "wallet",
                  "type": "address"
                },
                {
                  "name": "done",
                  "type": "bool"
                }
              ],
              "name": "origin",
              "type": "tuple"
            },
            {
              "components": [
                {
                  "name": "nonce",
                  "type": "uint256"
                },
                {
                  "name": "wallet",
                  "type": "address"
                },
                {
                  "name": "done",
                  "type": "bool"
                }
              ],
              "name": "target",
              "type": "tuple"
            }
          ],
          "name": "",
          "type": "tuple"
        }
      ],
      "payable": false,
      "stateMutability": "view",
      "type": "function"
    },
    {
      "constant": false,
      "inputs": [],
      "name": "updateMaxDriipNonce",
      "outputs": [],
      "payable": false,
      "stateMutability": "nonpayable",
      "type": "function"
    },
    {
      "constant": false,
      "inputs": [
        {
          "components": [
            {
              "name": "nonce",
              "type": "uint256"
            },
            {
              "name": "amount",
              "type": "int256"
            },
            {
              "components": [
                {
                  "components": [
                    {
                      "name": "ct",
                      "type": "address"
                    },
                    {
                      "name": "id",
                      "type": "uint256"
                    }
                  ],
                  "name": "intended",
                  "type": "tuple"
                },
                {
                  "components": [
                    {
                      "name": "ct",
                      "type": "address"
                    },
                    {
                      "name": "id",
                      "type": "uint256"
                    }
                  ],
                  "name": "conjugate",
                  "type": "tuple"
                }
              ],
              "name": "currencies",
              "type": "tuple"
            },
            {
              "name": "rate",
              "type": "int256"
            },
            {
              "components": [
                {
                  "name": "nonce",
                  "type": "uint256"
                },
                {
                  "name": "wallet",
                  "type": "address"
                },
                {
                  "name": "rollingVolume",
                  "type": "uint256"
                },
                {
                  "name": "liquidityRole",
                  "type": "uint8"
                },
                {
                  "components": [
                    {
                      "name": "amount",
                      "type": "int256"
                    },
                    {
                      "components": [
                        {
                          "name": "wallet",
                          "type": "bytes32"
                        },
                        {
                          "name": "operator",
                          "type": "bytes32"
                        }
                      ],
                      "name": "hashes",
                      "type": "tuple"
                    },
                    {
                      "components": [
                        {
                          "name": "current",
                          "type": "int256"
                        },
                        {
                          "name": "previous",
                          "type": "int256"
                        }
                      ],
                      "name": "residuals",
                      "type": "tuple"
                    }
                  ],
                  "name": "order",
                  "type": "tuple"
                },
                {
                  "components": [
                    {
                      "components": [
                        {
                          "name": "current",
                          "type": "int256"
                        },
                        {
                          "name": "previous",
                          "type": "int256"
                        }
                      ],
                      "name": "intended",
                      "type": "tuple"
                    },
                    {
                      "components": [
                        {
                          "name": "current",
                          "type": "int256"
                        },
                        {
                          "name": "previous",
                          "type": "int256"
                        }
                      ],
                      "name": "conjugate",
                      "type": "tuple"
                    }
                  ],
                  "name": "balances",
                  "type": "tuple"
                },
                {
                  "components": [
                    {
                      "components": [
                        {
                          "name": "amount",
                          "type": "int256"
                        },
                        {
                          "components": [
                            {
                              "name": "ct",
                              "type": "address"
                            },
                            {
                              "name": "id",
                              "type": "uint256"
                            }
                          ],
                          "name": "currency",
                          "type": "tuple"
                        }
                      ],
                      "name": "single",
                      "type": "tuple"
                    },
                    {
                      "components": [
                        {
                          "name": "amount",
                          "type": "int256"
                        },
                        {
                          "components": [
                            {
                              "name": "ct",
                              "type": "address"
                            },
                            {
                              "name": "id",
                              "type": "uint256"
                            }
                          ],
                          "name": "currency",
                          "type": "tuple"
                        }
                      ],
                      "name": "total",
                      "type": "tuple[]"
                    }
                  ],
                  "name": "fees",
                  "type": "tuple"
                }
              ],
              "name": "buyer",
              "type": "tuple"
            },
            {
              "components": [
                {
                  "name": "nonce",
                  "type": "uint256"
                },
                {
                  "name": "wallet",
                  "type": "address"
                },
                {
                  "name": "rollingVolume",
                  "type": "uint256"
                },
                {
                  "name": "liquidityRole",
                  "type": "uint8"
                },
                {
                  "components": [
                    {
                      "name": "amount",
                      "type": "int256"
                    },
                    {
                      "components": [
                        {
                          "name": "wallet",
                          "type": "bytes32"
                        },
                        {
                          "name": "operator",
                          "type": "bytes32"
                        }
                      ],
                      "name": "hashes",
                      "type": "tuple"
                    },
                    {
                      "components": [
                        {
                          "name": "current",
                          "type": "int256"
                        },
                        {
                          "name": "previous",
                          "type": "int256"
                        }
                      ],
                      "name": "residuals",
                      "type": "tuple"
                    }
                  ],
                  "name": "order",
                  "type": "tuple"
                },
                {
                  "components": [
                    {
                      "components": [
                        {
                          "name": "current",
                          "type": "int256"
                        },
                        {
                          "name": "previous",
                          "type": "int256"
                        }
                      ],
                      "name": "intended",
                      "type": "tuple"
                    },
                    {
                      "components": [
                        {
                          "name": "current",
                          "type": "int256"
                        },
                        {
                          "name": "previous",
                          "type": "int256"
                        }
                      ],
                      "name": "conjugate",
                      "type": "tuple"
                    }
                  ],
                  "name": "balances",
                  "type": "tuple"
                },
                {
                  "components": [
                    {
                      "components": [
                        {
                          "name": "amount",
                          "type": "int256"
                        },
                        {
                          "components": [
                            {
                              "name": "ct",
                              "type": "address"
                            },
                            {
                              "name": "id",
                              "type": "uint256"
                            }
                          ],
                          "name": "currency",
                          "type": "tuple"
                        }
                      ],
                      "name": "single",
                      "type": "tuple"
                    },
                    {
                      "components": [
                        {
                          "name": "amount",
                          "type": "int256"
                        },
                        {
                          "components": [
                            {
                              "name": "ct",
                              "type": "address"
                            },
                            {
                              "name": "id",
                              "type": "uint256"
                            }
                          ],
                          "name": "currency",
                          "type": "tuple"
                        }
                      ],
                      "name": "total",
                      "type": "tuple[]"
                    }
                  ],
                  "name": "fees",
                  "type": "tuple"
                }
              ],
              "name": "seller",
              "type": "tuple"
            },
            {
              "components": [
                {
                  "components": [
                    {
                      "name": "single",
                      "type": "int256"
                    },
                    {
                      "name": "total",
                      "type": "int256"
                    }
                  ],
                  "name": "intended",
                  "type": "tuple"
                },
                {
                  "components": [
                    {
                      "name": "single",
                      "type": "int256"
                    },
                    {
                      "name": "total",
                      "type": "int256"
                    }
                  ],
                  "name": "conjugate",
                  "type": "tuple"
                }
              ],
              "name": "transfers",
              "type": "tuple"
            },
            {
              "components": [
                {
                  "name": "hash",
                  "type": "bytes32"
                },
                {
                  "components": [
                    {
                      "name": "r",
                      "type": "bytes32"
                    },
                    {
                      "name": "s",
                      "type": "bytes32"
                    },
                    {
                      "name": "v",
                      "type": "uint8"
                    }
                  ],
                  "name": "signature",
                  "type": "tuple"
                }
              ],
              "name": "seal",
              "type": "tuple"
            },
            {
              "name": "blockNumber",
              "type": "uint256"
            },
            {
              "name": "operatorId",
              "type": "uint256"
            }
          ],
          "name": "trade",
          "type": "tuple"
        }
      ],
      "name": "settleTrade",
      "outputs": [],
      "payable": false,
      "stateMutability": "nonpayable",
      "type": "function"
    },
    {
      "constant": false,
      "inputs": [
        {
          "name": "wallet",
          "type": "address"
        },
        {
          "components": [
            {
              "name": "nonce",
              "type": "uint256"
            },
            {
              "name": "amount",
              "type": "int256"
            },
            {
              "components": [
                {
                  "components": [
                    {
                      "name": "ct",
                      "type": "address"
                    },
                    {
                      "name": "id",
                      "type": "uint256"
                    }
                  ],
                  "name": "intended",
                  "type": "tuple"
                },
                {
                  "components": [
                    {
                      "name": "ct",
                      "type": "address"
                    },
                    {
                      "name": "id",
                      "type": "uint256"
                    }
                  ],
                  "name": "conjugate",
                  "type": "tuple"
                }
              ],
              "name": "currencies",
              "type": "tuple"
            },
            {
              "name": "rate",
              "type": "int256"
            },
            {
              "components": [
                {
                  "name": "nonce",
                  "type": "uint256"
                },
                {
                  "name": "wallet",
                  "type": "address"
                },
                {
                  "name": "rollingVolume",
                  "type": "uint256"
                },
                {
                  "name": "liquidityRole",
                  "type": "uint8"
                },
                {
                  "components": [
                    {
                      "name": "amount",
                      "type": "int256"
                    },
                    {
                      "components": [
                        {
                          "name": "wallet",
                          "type": "bytes32"
                        },
                        {
                          "name": "operator",
                          "type": "bytes32"
                        }
                      ],
                      "name": "hashes",
                      "type": "tuple"
                    },
                    {
                      "components": [
                        {
                          "name": "current",
                          "type": "int256"
                        },
                        {
                          "name": "previous",
                          "type": "int256"
                        }
                      ],
                      "name": "residuals",
                      "type": "tuple"
                    }
                  ],
                  "name": "order",
                  "type": "tuple"
                },
                {
                  "components": [
                    {
                      "components": [
                        {
                          "name": "current",
                          "type": "int256"
                        },
                        {
                          "name": "previous",
                          "type": "int256"
                        }
                      ],
                      "name": "intended",
                      "type": "tuple"
                    },
                    {
                      "components": [
                        {
                          "name": "current",
                          "type": "int256"
                        },
                        {
                          "name": "previous",
                          "type": "int256"
                        }
                      ],
                      "name": "conjugate",
                      "type": "tuple"
                    }
                  ],
                  "name": "balances",
                  "type": "tuple"
                },
                {
                  "components": [
                    {
                      "components": [
                        {
                          "name": "amount",
                          "type": "int256"
                        },
                        {
                          "components": [
                            {
                              "name": "ct",
                              "type": "address"
                            },
                            {
                              "name": "id",
                              "type": "uint256"
                            }
                          ],
                          "name": "currency",
                          "type": "tuple"
                        }
                      ],
                      "name": "single",
                      "type": "tuple"
                    },
                    {
                      "components": [
                        {
                          "name": "amount",
                          "type": "int256"
                        },
                        {
                          "components": [
                            {
                              "name": "ct",
                              "type": "address"
                            },
                            {
                              "name": "id",
                              "type": "uint256"
                            }
                          ],
                          "name": "currency",
                          "type": "tuple"
                        }
                      ],
                      "name": "total",
                      "type": "tuple[]"
                    }
                  ],
                  "name": "fees",
                  "type": "tuple"
                }
              ],
              "name": "buyer",
              "type": "tuple"
            },
            {
              "components": [
                {
                  "name": "nonce",
                  "type": "uint256"
                },
                {
                  "name": "wallet",
                  "type": "address"
                },
                {
                  "name": "rollingVolume",
                  "type": "uint256"
                },
                {
                  "name": "liquidityRole",
                  "type": "uint8"
                },
                {
                  "components": [
                    {
                      "name": "amount",
                      "type": "int256"
                    },
                    {
                      "components": [
                        {
                          "name": "wallet",
                          "type": "bytes32"
                        },
                        {
                          "name": "operator",
                          "type": "bytes32"
                        }
                      ],
                      "name": "hashes",
                      "type": "tuple"
                    },
                    {
                      "components": [
                        {
                          "name": "current",
                          "type": "int256"
                        },
                        {
                          "name": "previous",
                          "type": "int256"
                        }
                      ],
                      "name": "residuals",
                      "type": "tuple"
                    }
                  ],
                  "name": "order",
                  "type": "tuple"
                },
                {
                  "components": [
                    {
                      "components": [
                        {
                          "name": "current",
                          "type": "int256"
                        },
                        {
                          "name": "previous",
                          "type": "int256"
                        }
                      ],
                      "name": "intended",
                      "type": "tuple"
                    },
                    {
                      "components": [
                        {
                          "name": "current",
                          "type": "int256"
                        },
                        {
                          "name": "previous",
                          "type": "int256"
                        }
                      ],
                      "name": "conjugate",
                      "type": "tuple"
                    }
                  ],
                  "name": "balances",
                  "type": "tuple"
                },
                {
                  "components": [
                    {
                      "components": [
                        {
                          "name": "amount",
                          "type": "int256"
                        },
                        {
                          "components": [
                            {
                              "name": "ct",
                              "type": "address"
                            },
                            {
                              "name": "id",
                              "type": "uint256"
                            }
                          ],
                          "name": "currency",
                          "type": "tuple"
                        }
                      ],
                      "name": "single",
                      "type": "tuple"
                    },
                    {
                      "components": [
                        {
                          "name": "amount",
                          "type": "int256"
                        },
                        {
                          "components": [
                            {
                              "name": "ct",
                              "type": "address"
                            },
                            {
                              "name": "id",
                              "type": "uint256"
                            }
                          ],
                          "name": "currency",
                          "type": "tuple"
                        }
                      ],
                      "name": "total",
                      "type": "tuple[]"
                    }
                  ],
                  "name": "fees",
                  "type": "tuple"
                }
              ],
              "name": "seller",
              "type": "tuple"
            },
            {
              "components": [
                {
                  "components": [
                    {
                      "name": "single",
                      "type": "int256"
                    },
                    {
                      "name": "total",
                      "type": "int256"
                    }
                  ],
                  "name": "intended",
                  "type": "tuple"
                },
                {
                  "components": [
                    {
                      "name": "single",
                      "type": "int256"
                    },
                    {
                      "name": "total",
                      "type": "int256"
                    }
                  ],
                  "name": "conjugate",
                  "type": "tuple"
                }
              ],
              "name": "transfers",
              "type": "tuple"
            },
            {
              "components": [
                {
                  "name": "hash",
                  "type": "bytes32"
                },
                {
                  "components": [
                    {
                      "name": "r",
                      "type": "bytes32"
                    },
                    {
                      "name": "s",
                      "type": "bytes32"
                    },
                    {
                      "name": "v",
                      "type": "uint8"
                    }
                  ],
                  "name": "signature",
                  "type": "tuple"
                }
              ],
              "name": "seal",
              "type": "tuple"
            },
            {
              "name": "blockNumber",
              "type": "uint256"
            },
            {
              "name": "operatorId",
              "type": "uint256"
            }
          ],
          "name": "trade",
          "type": "tuple"
        }
      ],
      "name": "settleTradeByProxy",
      "outputs": [],
      "payable": false,
      "stateMutability": "nonpayable",
      "type": "function"
    },
    {
      "constant": false,
      "inputs": [
        {
          "components": [
            {
              "name": "nonce",
              "type": "uint256"
            },
            {
              "name": "amount",
              "type": "int256"
            },
            {
              "components": [
                {
                  "name": "ct",
                  "type": "address"
                },
                {
                  "name": "id",
                  "type": "uint256"
                }
              ],
              "name": "currency",
              "type": "tuple"
            },
            {
              "components": [
                {
                  "name": "nonce",
                  "type": "uint256"
                },
                {
                  "name": "wallet",
                  "type": "address"
                },
                {
                  "components": [
                    {
                      "name": "current",
                      "type": "int256"
                    },
                    {
                      "name": "previous",
                      "type": "int256"
                    }
                  ],
                  "name": "balances",
                  "type": "tuple"
                },
                {
                  "components": [
                    {
                      "components": [
                        {
                          "name": "amount",
                          "type": "int256"
                        },
                        {
                          "components": [
                            {
                              "name": "ct",
                              "type": "address"
                            },
                            {
                              "name": "id",
                              "type": "uint256"
                            }
                          ],
                          "name": "currency",
                          "type": "tuple"
                        }
                      ],
                      "name": "single",
                      "type": "tuple"
                    },
                    {
                      "components": [
                        {
                          "name": "amount",
                          "type": "int256"
                        },
                        {
                          "components": [
                            {
                              "name": "ct",
                              "type": "address"
                            },
                            {
                              "name": "id",
                              "type": "uint256"
                            }
                          ],
                          "name": "currency",
                          "type": "tuple"
                        }
                      ],
                      "name": "total",
                      "type": "tuple[]"
                    }
                  ],
                  "name": "fees",
                  "type": "tuple"
                }
              ],
              "name": "sender",
              "type": "tuple"
            },
            {
              "components": [
                {
                  "name": "nonce",
                  "type": "uint256"
                },
                {
                  "name": "wallet",
                  "type": "address"
                },
                {
                  "components": [
                    {
                      "name": "current",
                      "type": "int256"
                    },
                    {
                      "name": "previous",
                      "type": "int256"
                    }
                  ],
                  "name": "balances",
                  "type": "tuple"
                },
                {
                  "components": [
                    {
                      "components": [
                        {
                          "name": "amount",
                          "type": "int256"
                        },
                        {
                          "components": [
                            {
                              "name": "ct",
                              "type": "address"
                            },
                            {
                              "name": "id",
                              "type": "uint256"
                            }
                          ],
                          "name": "currency",
                          "type": "tuple"
                        }
                      ],
                      "name": "total",
                      "type": "tuple[]"
                    }
                  ],
                  "name": "fees",
                  "type": "tuple"
                }
              ],
              "name": "recipient",
              "type": "tuple"
            },
            {
              "components": [
                {
                  "name": "single",
                  "type": "int256"
                },
                {
                  "name": "total",
                  "type": "int256"
                }
              ],
              "name": "transfers",
              "type": "tuple"
            },
            {
              "components": [
                {
                  "components": [
                    {
                      "name": "hash",
                      "type": "bytes32"
                    },
                    {
                      "components": [
                        {
                          "name": "r",
                          "type": "bytes32"
                        },
                        {
                          "name": "s",
                          "type": "bytes32"
                        },
                        {
                          "name": "v",
                          "type": "uint8"
                        }
                      ],
                      "name": "signature",
                      "type": "tuple"
                    }
                  ],
                  "name": "wallet",
                  "type": "tuple"
                },
                {
                  "components": [
                    {
                      "name": "hash",
                      "type": "bytes32"
                    },
                    {
                      "components": [
                        {
                          "name": "r",
                          "type": "bytes32"
                        },
                        {
                          "name": "s",
                          "type": "bytes32"
                        },
                        {
                          "name": "v",
                          "type": "uint8"
                        }
                      ],
                      "name": "signature",
                      "type": "tuple"
                    }
                  ],
                  "name": "operator",
                  "type": "tuple"
                }
              ],
              "name": "seals",
              "type": "tuple"
            },
            {
              "name": "blockNumber",
              "type": "uint256"
            },
            {
              "name": "operatorId",
              "type": "uint256"
            }
          ],
          "name": "payment",
          "type": "tuple"
        }
      ],
      "name": "settlePayment",
      "outputs": [],
      "payable": false,
      "stateMutability": "nonpayable",
      "type": "function"
    },
    {
      "constant": false,
      "inputs": [
        {
          "name": "wallet",
          "type": "address"
        },
        {
          "components": [
            {
              "name": "nonce",
              "type": "uint256"
            },
            {
              "name": "amount",
              "type": "int256"
            },
            {
              "components": [
                {
                  "name": "ct",
                  "type": "address"
                },
                {
                  "name": "id",
                  "type": "uint256"
                }
              ],
              "name": "currency",
              "type": "tuple"
            },
            {
              "components": [
                {
                  "name": "nonce",
                  "type": "uint256"
                },
                {
                  "name": "wallet",
                  "type": "address"
                },
                {
                  "components": [
                    {
                      "name": "current",
                      "type": "int256"
                    },
                    {
                      "name": "previous",
                      "type": "int256"
                    }
                  ],
                  "name": "balances",
                  "type": "tuple"
                },
                {
                  "components": [
                    {
                      "components": [
                        {
                          "name": "amount",
                          "type": "int256"
                        },
                        {
                          "components": [
                            {
                              "name": "ct",
                              "type": "address"
                            },
                            {
                              "name": "id",
                              "type": "uint256"
                            }
                          ],
                          "name": "currency",
                          "type": "tuple"
                        }
                      ],
                      "name": "single",
                      "type": "tuple"
                    },
                    {
                      "components": [
                        {
                          "name": "amount",
                          "type": "int256"
                        },
                        {
                          "components": [
                            {
                              "name": "ct",
                              "type": "address"
                            },
                            {
                              "name": "id",
                              "type": "uint256"
                            }
                          ],
                          "name": "currency",
                          "type": "tuple"
                        }
                      ],
                      "name": "total",
                      "type": "tuple[]"
                    }
                  ],
                  "name": "fees",
                  "type": "tuple"
                }
              ],
              "name": "sender",
              "type": "tuple"
            },
            {
              "components": [
                {
                  "name": "nonce",
                  "type": "uint256"
                },
                {
                  "name": "wallet",
                  "type": "address"
                },
                {
                  "components": [
                    {
                      "name": "current",
                      "type": "int256"
                    },
                    {
                      "name": "previous",
                      "type": "int256"
                    }
                  ],
                  "name": "balances",
                  "type": "tuple"
                },
                {
                  "components": [
                    {
                      "components": [
                        {
                          "name": "amount",
                          "type": "int256"
                        },
                        {
                          "components": [
                            {
                              "name": "ct",
                              "type": "address"
                            },
                            {
                              "name": "id",
                              "type": "uint256"
                            }
                          ],
                          "name": "currency",
                          "type": "tuple"
                        }
                      ],
                      "name": "total",
                      "type": "tuple[]"
                    }
                  ],
                  "name": "fees",
                  "type": "tuple"
                }
              ],
              "name": "recipient",
              "type": "tuple"
            },
            {
              "components": [
                {
                  "name": "single",
                  "type": "int256"
                },
                {
                  "name": "total",
                  "type": "int256"
                }
              ],
              "name": "transfers",
              "type": "tuple"
            },
            {
              "components": [
                {
                  "components": [
                    {
                      "name": "hash",
                      "type": "bytes32"
                    },
                    {
                      "components": [
                        {
                          "name": "r",
                          "type": "bytes32"
                        },
                        {
                          "name": "s",
                          "type": "bytes32"
                        },
                        {
                          "name": "v",
                          "type": "uint8"
                        }
                      ],
                      "name": "signature",
                      "type": "tuple"
                    }
                  ],
                  "name": "wallet",
                  "type": "tuple"
                },
                {
                  "components": [
                    {
                      "name": "hash",
                      "type": "bytes32"
                    },
                    {
                      "components": [
                        {
                          "name": "r",
                          "type": "bytes32"
                        },
                        {
                          "name": "s",
                          "type": "bytes32"
                        },
                        {
                          "name": "v",
                          "type": "uint8"
                        }
                      ],
                      "name": "signature",
                      "type": "tuple"
                    }
                  ],
                  "name": "operator",
                  "type": "tuple"
                }
              ],
              "name": "seals",
              "type": "tuple"
            },
            {
              "name": "blockNumber",
              "type": "uint256"
            },
            {
              "name": "operatorId",
              "type": "uint256"
            }
          ],
          "name": "payment",
          "type": "tuple"
        }
      ],
      "name": "settlePaymentByProxy",
      "outputs": [],
      "payable": false,
      "stateMutability": "nonpayable",
      "type": "function"
    }
  ],
  "bytecode": "0x60806040523480156200001157600080fd5b506040516020806200490b8339810180604052620000339190810190620000a9565b8080600160a060020a03811615156200004b57600080fd5b600160a060020a0381163014156200006257600080fd5b5060008054600160a060020a03909216600160a060020a031992831681179091556001805490921617905550620000de565b6000620000a28251620000d2565b9392505050565b600060208284031215620000bc57600080fd5b6000620000ca848462000094565b949350505050565b600160a060020a031690565b61481d80620000ee6000396000f3006080604052600436106101f45763ffffffff60e060020a60003504166244380a81146101f957806301370d061461021b57806308df7dc81461023b5780631327d3d81461027457806323a3e7a2146102945780632a261473146102b45780632b74d249146102d45780633a5381b5146102e95780633bd7857f1461030b5780634476d23b14610320578063570ca73514610342578063627f09c3146103575780636c70bee914610377578063829f4a701461038c578063897d36aa146103b95780638c6913bc146103db57806392f7bd7b146103f057806394dd293c1461041057806396214735146104255780639d4f7ebb14610445578063a08eda5414610465578063a3d2231a14610492578063a68ecb4a146104b2578063b3ab15fb146104c7578063b71ded2f146104e7578063bf24e7d014610507578063c0ffe1b41461051c578063c2050a681461053c578063c81dd95a14610551578063cdacab2514610566578063d2f089361461057b578063d5f394881461059b578063d66c5291146105b0578063da1f06b9146105d0578063dda73378146105f0578063de4cc1b814610610578063e754476f14610630578063e86ab8f614610645578063ed20b10614610665578063f345fb4414610685578063f3bfc0a5146106a5578063f6d4c0ef146106c5578063ffa0343c146106da575b600080fd5b34801561020557600080fd5b50610219610214366004613e3d565b6106fa565b005b34801561022757600080fd5b50610219610236366004613e3d565b61078b565b34801561024757600080fd5b5061025b610256366004613eff565b610833565b60405161026b949392919061470e565b60405180910390f35b34801561028057600080fd5b5061021961028f366004613e3d565b6108ca565b3480156102a057600080fd5b506102196102af366004613d57565b610962565b3480156102c057600080fd5b506102196102cf366004613e3d565b6109be565b3480156102e057600080fd5b50610219610a42565b3480156102f557600080fd5b506102fe610a6d565b60405161026b9190614683565b34801561031757600080fd5b506102fe610a7c565b34801561032c57600080fd5b50610335610a8b565b60405161026b91906144b5565b34801561034e57600080fd5b50610335610a9a565b34801561036357600080fd5b50610219610372366004613e3d565b610aa9565b34801561038357600080fd5b506102fe610b41565b34801561039857600080fd5b506103ac6103a7366004613eff565b610b50565b60405161026b9190614621565b3480156103c557600080fd5b506103ce610b63565b60405161026b919061462f565b3480156103e757600080fd5b506103ce610b69565b3480156103fc57600080fd5b506103ce61040b366004613def565b610b6f565b34801561041c57600080fd5b50610219610b9f565b34801561043157600080fd5b50610219610440366004613cec565b610bce565b34801561045157600080fd5b506103ce610460366004613eff565b610c7d565b34801561047157600080fd5b50610485610480366004613eff565b610c8f565b60405161026b91906146dd565b34801561049e57600080fd5b506103ce6104ad366004613d0a565b610d92565b3480156104be57600080fd5b506102fe610db5565b3480156104d357600080fd5b506102196104e2366004613cec565b610dc4565b3480156104f357600080fd5b50610219610502366004613e3d565b610e6e565b34801561051357600080fd5b506102fe610f06565b34801561052857600080fd5b50610485610537366004613def565b610f15565b34801561054857600080fd5b506102fe61104a565b34801561055d57600080fd5b506103ac611059565b34801561057257600080fd5b50610219611069565b34801561058757600080fd5b50610485610596366004613def565b6110fe565b3480156105a757600080fd5b5061033561116b565b3480156105bc57600080fd5b506103ce6105cb366004613def565b61117a565b3480156105dc57600080fd5b506103ce6105eb366004613d0a565b611197565b3480156105fc57600080fd5b506103ce61060b366004613d0a565b6111ba565b34801561061c57600080fd5b5061021961062b366004613da8565b6111dd565b34801561063c57600080fd5b506102fe61122d565b34801561065157600080fd5b50610219610660366004613e3d565b61123c565b34801561067157600080fd5b50610219610680366004613e97565b6112eb565b34801561069157600080fd5b506103ce6106a0366004613cec565b611331565b3480156106b157600080fd5b506102196106c0366004613ecb565b61134c565b3480156106d157600080fd5b506102fe611387565b3480156106e657600080fd5b506102196106f5366004613e3d565b611396565b600061070461141a565b151561070f57600080fd5b81600160a060020a038116151561072557600080fd5b600a8054600160a060020a03858116600160a060020a03198316179283905560405191811694507f932adbf18b602b4c231659d4b3f7cc3bc5c6278b6eb84294543576750fa856869261077e9286929190911690614691565b60405180910390a1505050565b600061079561141a565b15156107a057600080fd5b81600160a060020a03811615156107b657600080fd5b6006548390600160a060020a03908116908216811461082c5760068054600160a060020a03878116600160a060020a0319831617909255604051911694507f07998fa7be97abe2427246ae4688298c89d6196bbffdf0997b9495a8d27bc673906108239086908890614691565b60405180910390a15b5050505050565b600b80548290811061084157fe5b6000918252602091829020600690910201805460018201546040805160608181018352600286015482526003860154600160a060020a03808216848a015260a060020a9182900460ff9081161515858701528551938401865260048901548452600590980154908116988301989098529096048516151591860191909152919450919091169184565b60006108d461141a565b15156108df57600080fd5b81600160a060020a03811615156108f557600080fd5b6003548390600160a060020a03908116908216811461082c5760038054600160a060020a03878116600160a060020a0319831617909255604051911694507f1882af944a16549c3d4f60e3cd26f158b0c7aac3222cf32971fc21375ce05f60906108239086908890614691565b61096a61141a565b151561097557600080fd5b61097f828261142b565b7fca26cc4b048b5ed84e5b6154e981d1077b3c58d0c91eb8767f3cb7029cfa4ef33383836040516109b2939291906144de565b60405180910390a15050565b60006109c861141a565b15156109d357600080fd5b81600160a060020a03811615156109e957600080fd5b60098054600160a060020a03858116600160a060020a03198316179283905560405191811694507f74772b09ce5e44691e96408036457cb7dc339db427ef6803bab8c690f5139bb59261077e9286929190911690614691565b610a4a61141a565b1515610a5557600080fd5b6005805460a060020a60ff02191660a060020a179055565b600354600160a060020a031681565b600654600160a060020a031681565b600054600160a060020a031690565b600154600160a060020a031681565b6000610ab361141a565b1515610abe57600080fd5b81600160a060020a0381161515610ad457600080fd5b6002548390600160a060020a03908116908216811461082c5760028054600160a060020a03878116600160a060020a0319831617909255604051911694507f634f61bf00e14adedce330c80c2823e16e184f189ebe853e1ddecc4a268477ff906108239086908890614691565b600254600160a060020a031681565b6000908152600c60205260408120541190565b60075481565b600b5490565b600d60205281600052604060002081815481101515610b8a57fe5b90600052602060002001600091509150505481565b610ba7610a8b565b600160a060020a03163314610bbb57600080fd5b610bc3610a8b565b600160a060020a0316ff5b6000610bd861141a565b1515610be357600080fd5b81600160a060020a0381161515610bf957600080fd5b600160a060020a038116301415610c0f57600080fd5b600054600160a060020a03848116911614610c785760008054600160a060020a03858116600160a060020a0319831617909255604051911692507f977e5fa58e458501775e0008d275006294c5249e3c08d1d0e3a9f3acad14f6e49061077e90849086906144c3565b505050565b600c6020526000908152604090205481565b610c9761340b565b610ca082610b50565b1515610cab57600080fd5b6000828152600c6020526040902054600b8054909160001901908110610ccd57fe5b906000526020600020906006020160806040519081016040529081600082015481526020016001820160009054906101000a900460ff166001811115610d0f57fe5b6001811115610d1a57fe5b81526040805160608181018352600285015482526003850154600160a060020a0380821660208581019190915260ff60a060020a938490048116151586880152818801959095528551938401865260048801548452600590970154908116968301969096529094041615158382015201529050919050565b601060209081526000938452604080852082529284528284209052825290205481565b600a54600160a060020a031681565b6000610dce611e1e565b1515610dd957600080fd5b81600160a060020a0381161515610def57600080fd5b600160a060020a038116301415610e0557600080fd5b600154600160a060020a03848116911614610c785760018054600160a060020a03858116600160a060020a0319831617909255604051911692507f9f611b789425d0d5b90b920f1b2852907dd865c80074a30b1629aaa041d1812c9061077e90849086906144c3565b6000610e7861141a565b1515610e8357600080fd5b81600160a060020a0381161515610e9957600080fd5b6004548390600160a060020a03908116908216811461082c5760048054600160a060020a03878116600160a060020a0319831617909255604051911694507f4d96d2a04c886b313bd1e28be6324ed4c8867b3203e512756722f8be0195e16d906108239086908890614691565b600554600160a060020a031681565b610f1d61340b565b600160a060020a0383166000908152600d60205260409020548210610f4157600080fd5b600160a060020a0383166000908152600d602052604090208054600b9160019185908110610f6b57fe5b906000526020600020015403815481101515610f8357fe5b906000526020600020906006020160806040519081016040529081600082015481526020016001820160009054906101000a900460ff166001811115610fc557fe5b6001811115610fd057fe5b81526040805160608181018352600285015482526003850154600160a060020a0380821660208581019190915260ff60a060020a9384900481161515868801528188019590955285519384018652600488015484526005909701549081169683019690965290940416151583820152015290505b92915050565b600954600160a060020a031681565b60055460a060020a900460ff1681565b6005546040805160e460020a6301f344070281529051600092600160a060020a031691631f34407091600480830192602092919082900301818787803b1580156110b257600080fd5b505af11580156110c6573d6000803e3d6000fd5b505050506040513d601f19601f820116820180604052506110ea9190810190613e79565b905060008111156110fb5760078190555b50565b61110661340b565b600160a060020a0383166000908152600e602090815260408083208584529091528120541161113457600080fd5b600160a060020a0383166000908152600e60209081526040808320858452909152902054600b8054909160001901908110610f8357fe5b600054600160a060020a031681565b600e60209081526000928352604080842090915290825290205481565b600f60209081526000938452604080852082529284528284209052825290205481565b601160209081526000938452604080852082529284528284209052825290205481565b6111e561141a565b15156111f057600080fd5b6111fa8282611e2f565b7f64251575d8f7e6733901c43959f828102d272341981621e71fe34b9c6ab3852f3383836040516109b29392919061450b565b600454600160a060020a031681565b600061124661141a565b151561125157600080fd5b81600160a060020a038116151561126757600080fd5b6005548390600160a060020a03908116908216811461082c5760055460a060020a900460ff161561129757600080fd5b60058054600160a060020a03878116600160a060020a0319831617909255604051911694507f624c4d4225a45f5bf8a9755adba1ef9be3464a9970b05a371fb6cca0c0caf204906108239086908890614691565b6112f5338261142b565b7ffc374d0e82f51a97545b300b0463adf2a02b6dbc7ebb1c21f07572f78a8c02ca33826040516113269291906145e1565b60405180910390a150565b600160a060020a03166000908152600d602052604090205490565b6113563382611e2f565b7f29186f94489f134416da8c9c3f0f510a6fb0f36171c64cf13dac67d4d2593f9d3382604051611326929190614601565b600854600160a060020a031681565b60006113a061141a565b15156113ab57600080fd5b81600160a060020a03811615156113c157600080fd5b60088054600160a060020a03858116600160a060020a03198316179283905560405191811694507f8a1a005b12d6687dbf2f09170ad28a9b5c8e8b2e1a9617db4529e643bf3873999261077e9286929190911690614691565b600054600160a060020a0316331490565b60035460405160e060020a6333dab6bd028152600091829160609183918691600160a060020a0316906333dab6bd906114689084906004016146ac565b602060405180830381600087803b15801561148257600080fd5b505af1158015611496573d6000803e3d6000fd5b505050506040513d601f19601f820116820180604052506114ba9190810190613e1f565b15156114c557600080fd5b60065460c0870151602001515160405160e360020a6310c7a6c1028152600160a060020a039092169163863d3608916115009160040161462f565b602060405180830381600087803b15801561151a57600080fd5b505af115801561152e573d6000803e3d6000fd5b505050506040513d601f19601f820116820180604052506115529190810190613e1f565b1561155c57600080fd5b60035460405160e160020a6358ac3dd7028152600160a060020a039091169063b1587bae906115919089908b906004016146bd565b602060405180830381600087803b1580156115ab57600080fd5b505af11580156115bf573d6000803e3d6000fd5b505050506040513d601f19601f820116820180604052506115e39190810190613e1f565b15156115ee57600080fd5b60055460405160e060020a639243c9db028152600160a060020a0390911690639243c9db90611621908a906004016144b5565b602060405180830381600087803b15801561163b57600080fd5b505af115801561164f573d6000803e3d6000fd5b505050506040513d601f19601f820116820180604052506116739190810190613e1f565b1561167d57600080fd5b60085460405160e260020a6301dfe783028152600160a060020a039091169063077f9e0c906116b0908a906004016144b5565b602060405180830381600087803b1580156116ca57600080fd5b505af11580156116de573d6000803e3d6000fd5b505050506040513d601f19601f820116820180604052506117029190810190613e1f565b1561170c57600080fd5b6008546040808801518051602090910151915160e060020a633bebdcb5028152600160a060020a0390931692633bebdcb59261174f928c92909190600401614538565b602060405180830381600087803b15801561176957600080fd5b505af115801561177d573d6000803e3d6000fd5b505050506040513d601f19601f820116820180604052506117a19190810190613e1f565b15156117ac57600080fd5b6008546040808801518051602090910151915160e460020a62712abb028152600160a060020a0390931692630712abb0926117ee928c92909190600401614538565b602060405180830381600087803b15801561180857600080fd5b505af115801561181c573d6000803e3d6000fd5b505050506040513d601f19601f820116820180604052506118409190810190613e5b565b600181111561184b57fe5b1561185557600080fd5b6008546040808801518051602090910151915160e060020a63cdbf9419028152600160a060020a039093169263cdbf941992611898928c92909190600401614538565b602060405180830381600087803b1580156118b257600080fd5b505af11580156118c6573d6000803e3d6000fd5b505050506040513d601f19601f820116820180604052506118ea9190810190613e79565b8651146118f657600080fd5b600260009054906101000a9004600160a060020a0316600160a060020a031663f71e860f6040518163ffffffff1660e060020a028152600401602060405180830381600087803b15801561194957600080fd5b505af115801561195d573d6000803e3d6000fd5b505050506040513d601f19601f820116820180604052506119819190810190613e1f565b8015611a135750600560009054906101000a9004600160a060020a0316600160a060020a031663994e20766040518163ffffffff1660e060020a028152600401602060405180830381600087803b1580156119db57600080fd5b505af11580156119ef573d6000803e3d6000fd5b505050506040513d601f19601f82011682018060405250611a139190810190613e1f565b80611a2057506007548651105b1515611a2b57600080fd5b8551611a3690610b50565b611a675785516060870151805160209182015160808a01518051930151611a6294936001939291612c0d565b611a74565b8551611a74906001612e37565b9450611a808688612e9f565b9350836001811115611a8e57fe5b158015611aa75750600385015460a060020a900460ff16155b80611ad45750836001811115611ab957fe5b6001148015611ad45750600585015460a060020a900460ff16155b1515611adf57600080fd5b836001811115611aeb57fe5b1515611b0e5760038501805460a060020a60ff02191660a060020a179055611b27565b60058501805460a060020a60ff02191660a060020a1790555b60035460405160e160020a6358ac3dd7028152600160a060020a039091169063b1587bae90611b5c9089908b906004016146bd565b602060405180830381600087803b158015611b7657600080fd5b505af1158015611b8a573d6000803e3d6000fd5b505050506040513d601f19601f82011682018060405250611bae9190810190613e1f565b15611bd2576060808701519081015160200151604090910151519093509150611bea565b60808601516060810151516040909101515190935091505b8551600160a060020a038089166000908152600f60209081526040808320818c01805151909516845282528083209351820151835292905220541015611dd7578551600160a060020a038089166000908152600f60209081526040808320818c018051518616855290835281842081518401518552835292819020949094556004805492518051920151945160e560020a63057fe07d028152929093169363affc0fa093611ca0938d9389939092909101614560565b600060405180830381600087803b158015611cba57600080fd5b505af1158015611cce573d6000803e3d6000fd5b5050600480546008546040808c01518051602090910151915160e060020a6342cb4587028152600160a060020a03948516975063cd49737d96508e9593909416936342cb458793611d2493879392909101614538565b602060405180830381600087803b158015611d3e57600080fd5b505af1158015611d52573d6000803e3d6000fd5b505050506040513d601f19601f82011682018060405250611d769190810190613e79565b6040808b01518051602090910151915160e060020a63ffffffff8716028152611da494939290600401614560565b600060405180830381600087803b158015611dbe57600080fd5b505af1158015611dd2573d6000803e3d6000fd5b505050505b600a54600160a060020a031615611e0457600a548651611e049189918691600160a060020a031690612ed3565b60075486511115611e155785516007555b50505050505050565b600154600160a060020a0316331490565b600080611e3a61343d565b60035460405160e160020a6324d40aef0281528591600160a060020a0316906349a815de90611e6d9084906004016146ec565b602060405180830381600087803b158015611e8757600080fd5b505af1158015611e9b573d6000803e3d6000fd5b505050506040513d601f19601f82011682018060405250611ebf9190810190613e1f565b1515611eca57600080fd5b60065460e08601515160405160e160020a6352c894d1028152600160a060020a039092169163a59129a291611f019160040161462f565b602060405180830381600087803b158015611f1b57600080fd5b505af1158015611f2f573d6000803e3d6000fd5b505050506040513d601f19601f82011682018060405250611f539190810190613e1f565b15611f5d57600080fd5b60035460405160e060020a63a06d2eb7028152600160a060020a039091169063a06d2eb790611f929088908a906004016146fd565b602060405180830381600087803b158015611fac57600080fd5b505af1158015611fc0573d6000803e3d6000fd5b505050506040513d601f19601f82011682018060405250611fe49190810190613e1f565b1515611fef57600080fd5b60055460405160e060020a639243c9db028152600160a060020a0390911690639243c9db906120229089906004016144b5565b602060405180830381600087803b15801561203c57600080fd5b505af1158015612050573d6000803e3d6000fd5b505050506040513d601f19601f820116820180604052506120749190810190613e1f565b1561207e57600080fd5b60085460405160e260020a6301dfe783028152600160a060020a039091169063077f9e0c906120b19089906004016144b5565b602060405180830381600087803b1580156120cb57600080fd5b505af11580156120df573d6000803e3d6000fd5b505050506040513d601f19601f820116820180604052506121039190810190613e1f565b1561210d57600080fd5b600854604080870151518051602090910151915160e060020a633bebdcb5028152600160a060020a0390931692633bebdcb592612151928b92909190600401614538565b602060405180830381600087803b15801561216b57600080fd5b505af115801561217f573d6000803e3d6000fd5b505050506040513d601f19601f820116820180604052506121a39190810190613e1f565b15156121ae57600080fd5b6008546040808701516020908101518051910151915160e060020a633bebdcb5028152600160a060020a0390931692633bebdcb5926121f4928b92909190600401614538565b602060405180830381600087803b15801561220e57600080fd5b505af1158015612222573d6000803e3d6000fd5b505050506040513d601f19601f820116820180604052506122469190810190613e1f565b151561225157600080fd5b600854604080870151518051602090910151915160e460020a62712abb028152600160a060020a0390931692630712abb092612294928b92909190600401614538565b602060405180830381600087803b1580156122ae57600080fd5b505af11580156122c2573d6000803e3d6000fd5b505050506040513d601f19601f820116820180604052506122e69190810190613e5b565b60018111156122f157fe5b156122fb57600080fd5b6008546040808701516020908101518051910151915160e460020a62712abb028152600160a060020a0390931692630712abb092612340928b92909190600401614538565b602060405180830381600087803b15801561235a57600080fd5b505af115801561236e573d6000803e3d6000fd5b505050506040513d601f19601f820116820180604052506123929190810190613e5b565b600181111561239d57fe5b156123a757600080fd5b600854604080870151518051602090910151915160e060020a63cdbf9419028152600160a060020a039093169263cdbf9419926123eb928b92909190600401614538565b602060405180830381600087803b15801561240557600080fd5b505af1158015612419573d6000803e3d6000fd5b505050506040513d601f19601f8201168201806040525061243d9190810190613e79565b85511461244957600080fd5b6008546040808701516020908101518051910151915160e060020a63cdbf9419028152600160a060020a039093169263cdbf94199261248f928b92909190600401614538565b602060405180830381600087803b1580156124a957600080fd5b505af11580156124bd573d6000803e3d6000fd5b505050506040513d601f19601f820116820180604052506124e19190810190613e79565b8551146124ed57600080fd5b600260009054906101000a9004600160a060020a0316600160a060020a031663f71e860f6040518163ffffffff1660e060020a028152600401602060405180830381600087803b15801561254057600080fd5b505af1158015612554573d6000803e3d6000fd5b505050506040513d601f19601f820116820180604052506125789190810190613e1f565b801561260a5750600560009054906101000a9004600160a060020a0316600160a060020a031663994e20766040518163ffffffff1660e060020a028152600401602060405180830381600087803b1580156125d257600080fd5b505af11580156125e6573d6000803e3d6000fd5b505050506040513d601f19601f8201168201806040525061260a9190810190613e1f565b8061261757506007548551105b151561262257600080fd5b845161262d90610b50565b61265e57845160a086015180516020918201516080890151805193015161265994936000939291612c0d565b61266b565b845161266b906000612e37565b935061267785876133e1565b925082600181111561268557fe5b15801561269e5750600384015460a060020a900460ff16155b806126cb57508260018111156126b057fe5b60011480156126cb5750600584015460a060020a900460ff16155b15156126d657600080fd5b8260018111156126e257fe5b15156127055760038401805460a060020a60ff02191660a060020a17905561271e565b60058401805460a060020a60ff02191660a060020a1790555b60035460405160e160020a63442bc8d1028152600160a060020a039091169063885791a2906127539088908a906004016146fd565b602060405180830381600087803b15801561276d57600080fd5b505af1158015612781573d6000803e3d6000fd5b505050506040513d601f19601f820116820180604052506127a59190810190613e1f565b6127b3578460a001516127b9565b84608001515b8551600160a060020a038089166000908152600f60209081526040808320818c0180515151909516845282528083209351518201518352929052205491935011156129b4578451600160a060020a038088166000908152600f60209081526040808320818b0180515151861685529083528184208151518401518552835292819020949094556004805460a088015151519351518051930151955160e560020a63057fe07d02815294169463affc0fa09461287b948d94909390929101614560565b600060405180830381600087803b15801561289557600080fd5b505af11580156128a9573d6000803e3d6000fd5b5050600480546008546040808b0151518051602090910151915160e060020a6342cb4587028152600160a060020a03948516975063cd49737d96508d9593909416936342cb45879361290093879392909101614538565b602060405180830381600087803b15801561291a57600080fd5b505af115801561292e573d6000803e3d6000fd5b505050506040513d601f19601f820116820180604052506129529190810190613e79565b6040808a0151518051602090910151915160e060020a63ffffffff871602815261298194939290600401614560565b600060405180830381600087803b15801561299b57600080fd5b505af11580156129af573d6000803e3d6000fd5b505050505b8451600160a060020a038088166000908152600f60209081526040808320818b01805184015151909516845282528083209351820151820151835292905220541015612bbc578451600160a060020a038088166000908152600f60209081526040808320818b018051840151518616855290835281842081518401518401518552835292819020949094556004805460a08801518301515193518301518051930151955160e560020a63057fe07d02815294169463affc0fa094612a7f948d94909390929101614560565b600060405180830381600087803b158015612a9957600080fd5b505af1158015612aad573d6000803e3d6000fd5b5050600480546008546040808b01516020908101518051910151915160e060020a6342cb4587028152600160a060020a03948516975063cd49737d96508d9593909416936342cb458793612b0693879392909101614538565b602060405180830381600087803b158015612b2057600080fd5b505af1158015612b34573d6000803e3d6000fd5b505050506040513d601f19601f82011682018060405250612b589190810190613e79565b6040808a01516020908101518051910151915160e060020a63ffffffff8716028152612b8994939290600401614560565b600060405180830381600087803b158015612ba357600080fd5b505af1158015612bb7573d6000803e3d6000fd5b505050505b600954600160a060020a031615612bf45760c0820151602001516009548651612bf49289929091600160a060020a0390911690612ed3565b60075485511115612c055784516007555b505050505050565b6000612c1761340b565b878152600060208201886001811115612c2c57fe5b90816001811115612c3957fe5b9052506040805160608082018352898252600160a060020a03898116602080850191909152600084860181905287860194909452845180840186528a81529189168282015293810183905290850152600b805460018082018084559290935285517f0175b7a638427703f0dbe7bb9bbf987a2551717b34e79f33b5b1008d1fa01db96006909202918201908155938601517f0175b7a638427703f0dbe7bb9bbf987a2551717b34e79f33b5b1008d1fa01dba909101805492948794909360ff1916908381811115612d0657fe5b02179055506040828101518051600284015560208082015160038501805493850151600160a060020a0319948516600160a060020a039384161760a060020a60ff021990811660a060020a92151583021790925560609097015180516004880155808401516005909701805491870151919095169683169690961716941515909502939093179055600b805460008f8152600c85528381208290558c8616808252600d865284822080546001818101835591845287842001849055968c168083528583208054988901815583528683209097018390558152600e8086528482208f835286528482208390559581529484528285208b8652909352922081905581549093509091506000198301908110612e1b57fe5b9060005260206000209060060201925050509695505050505050565b6000828152600c6020526040812054600b80548391906000198401908110612e5b57fe5b6000918252602090912060016006909202018181015490925060ff1690811115612e8157fe5b846001811115612e8d57fe5b14612e9757600080fd5b949350505050565b6000826060015160200151600160a060020a031682600160a060020a031614612ec9576001612ecc565b60005b9392505050565b60005b835181101561082c57600160a060020a03851660009081526010602052604081208551849290879085908110612f0857fe5b906020019060200201516020015160000151600160a060020a0316600160a060020a0316815260200190815260200160002060008684815181101515612f4a57fe5b90602001906020020151602001516020015181526020019081526020016000205410156133d957600160a060020a03851660009081526010602052604081208551849290879085908110612f9a57fe5b906020019060200201516020015160000151600160a060020a0316600160a060020a0316815260200190815260200160002060008684815181101515612fdc57fe5b906020019060200201516020015160200151815260200190815260200160002081905550600460009054906101000a9004600160a060020a0316600160a060020a031663242e628d846011600089600160a060020a0316600160a060020a031681526020019081526020016000206000888681518110151561305a57fe5b906020019060200201516020015160000151600160a060020a0316600160a060020a031681526020019081526020016000206000888681518110151561309c57fe5b90602001906020020151602001516020015181526020019081526020016000205487858151811015156130cb57fe5b90602001906020020151600001510387858151811015156130e857fe5b6020908102909101810151015151885189908790811061310457fe5b9060200190602002015160200151602001516040518563ffffffff1660e060020a028152600401613138949392919061463d565b600060405180830381600087803b15801561315257600080fd5b505af1158015613166573d6000803e3d6000fd5b50505050838181518110151561317857fe5b602090810290910181015151600160a060020a03871660009081526011909252604082208651919290918790859081106131ae57fe5b906020019060200201516020015160000151600160a060020a0316600160a060020a03168152602001908152602001600020600086848151811015156131f057fe5b9060200190602002015160200151602001518152602001908152602001600020819055507fcf95bd1434d3d81d57df8ff645c6a99767697fe055159ee32cc344f356e37f0e856011600088600160a060020a0316600160a060020a031681526020019081526020016000206000878581518110151561326b57fe5b906020019060200201516020015160000151600160a060020a0316600160a060020a03168152602001908152602001600020600087858151811015156132ad57fe5b90602001906020020151602001516020015181526020019081526020016000205486848151811015156132dc57fe5b9060200190602002015160000151036011600089600160a060020a0316600160a060020a031681526020019081526020016000206000888681518110151561332057fe5b906020019060200201516020015160000151600160a060020a0316600160a060020a031681526020019081526020016000206000888681518110151561336257fe5b906020019060200201516020015160200151815260200190815260200160002054878581518110151561339157fe5b602090810290910181015101515188518990879081106133ad57fe5b9060200190602002015160200151602001516040516133d0959493929190614595565b60405180910390a15b600101612ed6565b60008260a0015160200151600160a060020a031682600160a060020a031614612ec9576001612ecc565b60408051610100810182526000808252602082015290810161342b613487565b8152602001613438613487565b905290565b6040805161022081018252600080825260208201819052918101829052906060820190815260200161346d6134a7565b815260200161347a6134cf565b81526020016134386134e3565b604080516060810182526000808252602082018190529181019190915290565b60a060405190810160405280600081526020016134c2613504565b8152602001613438613504565b6080604051908101604052806134c2613504565b6080604051908101604052806134f761351b565b8152602001606081525090565b604080518082019091526000808252602082015290565b60606040519081016040528060008152602001613438604080518082019091526000808252602082015290565b6000612ecc8235614794565b6000601f8201831361356557600080fd5b81356135786135738261476a565b614744565b9150818183526020840193506020810190508385606084028201111561359d57600080fd5b60005b838110156135cb57816135b3888261368e565b845250602090920191606091909101906001016135a0565b5050505092915050565b6000612ecc82516147a0565b6000612ecc82356147a5565b6000612ecc82356147be565b6000612ecc82356147c9565b6000612ecc82516147c9565b6000612ecc82516147a5565b60006040828403121561362f57600080fd5b6136396040614744565b905060006136478484613548565b8252506020613658848483016135e1565b60208301525092915050565b60006040828403121561367657600080fd5b6136806040614744565b9050600061364784846135e1565b6000606082840312156136a057600080fd5b6136aa6040614744565b905060006136b884846135e1565b82525060206136588484830161361d565b6000608082840312156136db57600080fd5b6136e56040614744565b905060006136f3848461361d565b82525060406136588484830161361d565b60006080828403121561371657600080fd5b6137206040614744565b9050600061372e8484613664565b825250604061365884848301613664565b600060a0828403121561375157600080fd5b61375b6080614744565b9050600061376984846135e1565b825250602061377a84848301613548565b602083015250604061378e84828501613664565b60408301525060808201356001604060020a038111156137ad57600080fd5b6137b984828501613a29565b60608301525092915050565b600060a082840312156137d757600080fd5b6137e16080614744565b905060006137ef84846135e1565b825250602061380084848301613548565b602083015250604061381484828501613664565b60408301525060808201356001604060020a0381111561383357600080fd5b6137b9848285016139d7565b6000610240828403121561385257600080fd5b61385d610120614744565b9050600061386b84846135e1565b825250602061387c848483016135e1565b60208301525060406138908482850161361d565b60408301525060808201356001604060020a038111156138af57600080fd5b6138bb848285016137c5565b60608301525060a08201356001604060020a038111156138da57600080fd5b6138e68482850161373f565b60808301525060c06138fa84828501613664565b60a08301525061010061390f84828501613ca4565b60c083015250610200613924848285016135e1565b60e083015250610220613939848285016135e1565b6101008301525092915050565b60006080828403121561395857600080fd5b6139626040614744565b9050600061397084846135e1565b82525060206136588484830160006060828403121561398e57600080fd5b6139986060614744565b905060006139a684846135e1565b82525060206139b7848483016135e1565b60208301525060406139cb84828501613ce0565b60408301525092915050565b6000608082840312156139e957600080fd5b6139f36040614744565b90506000613a01848461368e565b82525060608201356001604060020a03811115613a1d57600080fd5b61365884828501613554565b600060208284031215613a3b57600080fd5b613a456020614744565b905081356001604060020a03811115613a5d57600080fd5b613a6984828501613554565b82525092915050565b600060a08284031215613a8457600080fd5b613a8e6060614744565b90506000613a9c84846135e1565b8252506020613aad84848301613664565b60208301525060606139cb84828501613664565b60006101c08284031215613ad457600080fd5b613ade60e0614744565b90506000613aec84846135e1565b8252506020613afd84848301613548565b6020830152506040613b11848285016135e1565b6040830152506060613b25848285016135f9565b6060830152506080613b3984828501613a72565b608083015250610120613b4e84828501613704565b60a0830152506101a08201356001604060020a03811115613b6e57600080fd5b613b7a848285016139d7565b60c08301525092915050565b60006102608284031215613b9957600080fd5b613ba4610140614744565b90506000613bb284846135e1565b8252506020613bc3848483016135e1565b6020830152506040613bd7848285016136c9565b60408301525060c0613beb848285016135e1565b60608301525060e08201356001604060020a03811115613c0a57600080fd5b613c1684828501613ac1565b6080830152506101008201356001604060020a03811115613c3657600080fd5b613c4284828501613ac1565b60a083015250610120613c5784828501613704565b60c0830152506101a0613c6c84828501613946565b60e083015250610220613c81848285016135e1565b61010083015250610240613c97848285016135e1565b6101208301525092915050565b60006101008284031215613cb757600080fd5b613cc16040614744565b90506000613ccf8484613946565b825250608061365884848301613946565b6000612ecc82356147b8565b600060208284031215613cfe57600080fd5b6000612e978484613548565b600080600060608486031215613d1f57600080fd5b6000613d2b8686613548565b9350506020613d3c86828701613548565b9250506040613d4d868287016135e1565b9150509250925092565b60008060408385031215613d6a57600080fd5b6000613d768585613548565b92505060208301356001604060020a03811115613d9257600080fd5b613d9e8582860161383f565b9150509250929050565b60008060408385031215613dbb57600080fd5b6000613dc78585613548565b92505060208301356001604060020a03811115613de357600080fd5b613d9e85828601613b86565b60008060408385031215613e0257600080fd5b6000613e0e8585613548565b9250506020613d9e858286016135e1565b600060208284031215613e3157600080fd5b6000612e9784846135d5565b600060208284031215613e4f57600080fd5b6000612e9784846135ed565b600060208284031215613e6d57600080fd5b6000612e978484613605565b600060208284031215613e8b57600080fd5b6000612e978484613611565b600060208284031215613ea957600080fd5b81356001604060020a03811115613ebf57600080fd5b612e978482850161383f565b600060208284031215613edd57600080fd5b81356001604060020a03811115613ef357600080fd5b612e9784828501613b86565b600060208284031215613f1157600080fd5b6000612e9784846135e1565b613f2681614794565b82525050565b6000613f3782614790565b808452602084019350613f498361478a565b60005b82811015613f7957613f5f868351613fec565b613f688261478a565b606096909601959150600101613f4c565b5093949350505050565b613f26816147a0565b613f26816147a5565b613f26816147be565b613f26816147d8565b6000815260200190565b80516040830190613fc28482613f1d565b506020820151613fd56020850182613f8c565b50505050565b80516040830190613fc28482613f8c565b80516060830190613ffd8482613f8c565b506020820151613fd56020850182613fb1565b805160808301906140218482613fb1565b506020820151613fd56040850182613fb1565b805160808301906140458482613fdb565b506020820151613fd56040850182613fdb565b805160009060a084019061406c8582613f8c565b50602083015161407f6020860182613f1d565b5060408301516140926040860182613fdb565b50606083015184820360808601526140aa82826142d5565b95945050505050565b805160009060a08401906140c78582613f8c565b5060208301516140da6020860182613f1d565b5060408301516140ed6040860182613fdb565b50606083015184820360808601526140aa82826142a9565b805160009061024084019061411a8582613f8c565b50602083015161412d6020860182613f8c565b5060408301516141406040860182613fb1565b506060830151848203608086015261415882826140b3565b915050608083015184820360a08601526141728282614058565b91505060a083015161418760c0860182613fdb565b5060c083015161419b610100860182614487565b5060e08301516141af610200860182613f8c565b506101008301516141c4610220860182613f8c565b509392505050565b805160808301906141dd8482613f8c565b506020820151613fd56020850182614272565b805160608301906142018482613f8c565b5060208201516142146020850182613f1d565b506040820151613fd56040850182613f83565b80516101008301906142398482613f8c565b50602082015161424c6020850182613f9e565b50604082015161425f60408501826141f0565b506060820151613fd560a08501826141f0565b805160608301906142838482613f8c565b5060208201516142966020850182613f8c565b506040820151613fd560408501826144ac565b805160009060808401906142bd8582613fec565b50602083015184820360608601526140aa8282613f2c565b80516020808452600091908401906140aa8282613f2c565b805160a08301906142fe8482613f8c565b5060208201516143116020850182613fdb565b506040820151613fd56060850182613fdb565b80516000906101c08401906143398582613f8c565b50602083015161434c6020860182613f1d565b50604083015161435f6040860182613f8c565b5060608301516143726060860182613f9e565b50608083015161438560808601826142ed565b5060a0830151614399610120860182614034565b5060c08301518482036101a08601526140aa82826142a9565b80516000906102608401906143c78582613f8c565b5060208301516143da6020860182613f8c565b5060408301516143ed6040860182614010565b50606083015161440060c0860182613f8c565b50608083015184820360e08601526144188282614324565b91505060a08301518482036101008601526144338282614324565b91505060c0830151614449610120860182614034565b5060e083015161445d6101a08601826141cc565b50610100830151614472610220860182613f8c565b506101208301516141c4610240860182613f8c565b805161010083019061449984826141cc565b506020820151613fd560808501826141cc565b613f26816147b8565b602081016110448284613f1d565b604081016144d18285613f1d565b612ecc6020830184613f1d565b606081016144ec8286613f1d565b6144f96020830185613f1d565b81810360408301526140aa8184614105565b606081016145198286613f1d565b6145266020830185613f1d565b81810360408301526140aa81846143b2565b606081016145468286613f1d565b6145536020830185613f1d565b612e976040830184613f8c565b6080810161456e8287613f1d565b61457b6020830186613f8c565b6145886040830185613f1d565b6140aa6060830184613f8c565b60a081016145a38288613f1d565b6145b06020830187613f8c565b6145bd6040830186613f8c565b6145ca6060830185613f1d565b6145d76080830184613f8c565b9695505050505050565b604081016145ef8285613f1d565b8181036020830152612e978184614105565b6040810161460f8285613f1d565b8181036020830152612e9781846143b2565b602081016110448284613f83565b602081016110448284613f8c565b60a0810161464b8287613f95565b6146586020830186613f8c565b6146656040830185613f1d565b6146726060830184613f8c565b81810360808301526145d781613fa7565b602081016110448284613f95565b6040810161469f8285613f95565b612ecc6020830184613f95565b60208082528101612ecc8184614105565b604080825281016146ce8185614105565b9050612ecc6020830184613f1d565b61010081016110448284614227565b60208082528101612ecc81846143b2565b604080825281016146ce81856143b2565b610100810161471d8287613f8c565b61472a6020830186613f9e565b61473760408301856141f0565b6140aa60a08301846141f0565b6040518181016001604060020a038111828210171561476257600080fd5b604052919050565b60006001604060020a0382111561478057600080fd5b5060209081020190565b60200190565b5190565b600160a060020a031690565b151590565b90565b6000600282106147b457fe5b5090565b60ff1690565b600061104482614794565b6000600282106147b457600080fd5b6000611044826147a85600a265627a7a7230582058db0975baa84e70cd2b244e058a5169d6d34d5e3589c5e885e07cbb8991c8a56c6578706572696d656e74616cf50037",
  "source": "/*\n * Hubii Nahmii\n *\n * Compliant with the Hubii Nahmii specification v0.12.\n *\n * Copyright (C) 2017-2018 Hubii AS\n */\n\npragma solidity ^0.4.24;\npragma experimental ABIEncoderV2;\n\nimport {Ownable} from \"./Ownable.sol\";\nimport {Configurable} from \"./Configurable.sol\";\nimport {Validatable} from \"./Validatable.sol\";\nimport {ClientFundable} from \"./ClientFundable.sol\";\nimport {CommunityVotable} from \"./CommunityVotable.sol\";\nimport {FraudChallengable} from \"./FraudChallengable.sol\";\nimport {RevenueFund} from \"./RevenueFund.sol\";\nimport {DriipSettlementChallenge} from \"./DriipSettlementChallenge.sol\";\nimport {Beneficiary} from \"./Beneficiary.sol\";\nimport {SafeMathIntLib} from \"./SafeMathIntLib.sol\";\nimport {SafeMathUintLib} from \"./SafeMathUintLib.sol\";\nimport {MonetaryTypesLib} from \"./MonetaryTypesLib.sol\";\nimport {NahmiiTypesLib} from \"./NahmiiTypesLib.sol\";\nimport {SettlementTypesLib} from \"./SettlementTypesLib.sol\";\n\n/**\n@title DriipSettlement\n@notice Where driip settlements are finalized\n*/\ncontract DriipSettlement is Ownable, Configurable, Validatable, ClientFundable, CommunityVotable, FraudChallengable {\n    using SafeMathIntLib for int256;\n    using SafeMathUintLib for uint256;\n\n    //\n    // Variables\n    // -----------------------------------------------------------------------------------------------------------------\n    uint256 public maxDriipNonce;\n\n    DriipSettlementChallenge public driipSettlementChallenge;\n    RevenueFund public tradesRevenueFund;\n    RevenueFund public paymentsRevenueFund;\n\n    SettlementTypesLib.Settlement[] public settlements;\n    mapping(uint256 => uint256) public nonceSettlementIndex;\n    mapping(address => uint256[]) public walletSettlementIndices;\n    mapping(address => mapping(uint256 => uint256)) public walletNonceSettlementIndex;\n    mapping(address => mapping(address => mapping(uint256 => uint256))) public walletCurrencyMaxDriipNonce;\n\n    mapping(address => mapping(address => mapping(uint256 => uint256))) public walletCurrencyFeeNonce;\n    mapping(address => mapping(address => mapping(uint256 => int256))) public walletCurrencyFeeCharged;\n\n    //\n    // Events\n    // -----------------------------------------------------------------------------------------------------------------\n    event SettleTradeEvent(address wallet, NahmiiTypesLib.Trade trade);\n    event SettleTradeByProxyEvent(address proxy, address wallet, NahmiiTypesLib.Trade trade);\n    event SettlePaymentEvent(address wallet, NahmiiTypesLib.Payment payment);\n    event SettlePaymentByProxyEvent(address proxy, address wallet, NahmiiTypesLib.Payment payment);\n    event SetDriipSettlementChallengeEvent(DriipSettlementChallenge oldDriipSettlementChallenge,\n        DriipSettlementChallenge newDriipSettlementChallenge);\n    event SetTradesRevenueFundEvent(RevenueFund oldRevenueFund, RevenueFund newRevenueFund);\n    event SetPaymentsRevenueFundEvent(RevenueFund oldRevenueFund, RevenueFund newRevenueFund);\n    event StageTotalFeeEvent(address wallet, int256 deltaAmount, int256 cumulativeAmount,\n        address currencyCt, uint256 currencyId);\n\n    //\n    // Constructor\n    // -----------------------------------------------------------------------------------------------------------------\n    constructor(address deployer) Ownable(deployer) public {\n    }\n\n    //\n    // Functions\n    // -----------------------------------------------------------------------------------------------------------------\n    /// @notice Set the driip settlement challenge contract\n    /// @param newDriipSettlementChallenge The (address of) DriipSettlementChallenge contract instance\n    function setDriipSettlementChallenge(DriipSettlementChallenge newDriipSettlementChallenge) public\n    onlyDeployer\n    notNullAddress(newDriipSettlementChallenge)\n    {\n        DriipSettlementChallenge oldDriipSettlementChallenge = driipSettlementChallenge;\n        driipSettlementChallenge = newDriipSettlementChallenge;\n        emit SetDriipSettlementChallengeEvent(oldDriipSettlementChallenge, driipSettlementChallenge);\n    }\n\n    /// @notice Set the trades revenue fund contract\n    /// @param newTradesRevenueFund The (address of) trades RevenueFund contract instance\n    function setTradesRevenueFund(RevenueFund newTradesRevenueFund) public\n    onlyDeployer\n    notNullAddress(newTradesRevenueFund)\n    {\n        RevenueFund oldTradesRevenueFund = tradesRevenueFund;\n        tradesRevenueFund = newTradesRevenueFund;\n        emit SetTradesRevenueFundEvent(oldTradesRevenueFund, tradesRevenueFund);\n    }\n\n    /// @notice Set the payments revenue fund contract\n    /// @param newPaymentsRevenueFund The (address of) payments RevenueFund contract instance\n    function setPaymentsRevenueFund(RevenueFund newPaymentsRevenueFund) public\n    onlyDeployer\n    notNullAddress(newPaymentsRevenueFund)\n    {\n        RevenueFund oldPaymentsRevenueFund = paymentsRevenueFund;\n        paymentsRevenueFund = newPaymentsRevenueFund;\n        emit SetPaymentsRevenueFundEvent(oldPaymentsRevenueFund, paymentsRevenueFund);\n    }\n\n    /// @notice Get the count of settlements\n    function settlementsCount() public view returns (uint256) {\n        return settlements.length;\n    }\n\n    /// @notice Return boolean indicating whether there is already a settlement for the given (global) nonce\n    /// @param nonce The nonce for which to check for settlement\n    /// @return true if there exists a settlement for the provided nonce, false otherwise\n    function hasSettlementByNonce(uint256 nonce) public view returns (bool) {\n        return 0 < nonceSettlementIndex[nonce];\n    }\n\n    /// @notice Get the settlement for the given (global) nonce\n    /// @param nonce The nonce of the settlement\n    /// @return settlement of the provided nonce\n    function settlementByNonce(uint256 nonce) public view returns (SettlementTypesLib.Settlement) {\n        require(hasSettlementByNonce(nonce));\n        return settlements[nonceSettlementIndex[nonce] - 1];\n    }\n\n    /// @notice Get the count of settlements for given wallet\n    /// @param wallet The address for which to return settlement count\n    /// @return count of settlements for the provided wallet\n    function settlementsCountByWallet(address wallet) public view returns (uint256) {\n        return walletSettlementIndices[wallet].length;\n    }\n\n    /// @notice Get settlement of given wallet and index\n    /// @param wallet The address for which to return settlement\n    /// @param index The wallet's settlement index\n    /// @return settlement for the provided wallet and index\n    function settlementByWalletAndIndex(address wallet, uint256 index) public view returns (SettlementTypesLib.Settlement) {\n        require(walletSettlementIndices[wallet].length > index);\n        return settlements[walletSettlementIndices[wallet][index] - 1];\n    }\n\n    /// @notice Get settlement of given wallet and (wallet) nonce\n    /// @param wallet The address for which to return settlement\n    /// @param nonce The wallet's nonce\n    /// @return settlement for the provided wallet and index\n    function settlementByWalletAndNonce(address wallet, uint256 nonce) public view returns (SettlementTypesLib.Settlement) {\n        require(0 < walletNonceSettlementIndex[wallet][nonce]);\n        return settlements[walletNonceSettlementIndex[wallet][nonce] - 1];\n    }\n\n    /// @notice Update the max driip nonce property from CommunityVote contract\n    function updateMaxDriipNonce() public {\n        uint256 _maxDriipNonce = communityVote.getMaxDriipNonce();\n        if (_maxDriipNonce > 0) {\n            maxDriipNonce = _maxDriipNonce;\n        }\n    }\n\n    /// @notice Settle driip that is a trade\n    /// @param trade The trade to be settled\n    function settleTrade(NahmiiTypesLib.Trade trade)\n    public\n    {\n        // Settle trade\n        settleTradePrivate(msg.sender, trade);\n\n        // Emit event\n        emit SettleTradeEvent(msg.sender, trade);\n    }\n\n    /// @notice Settle driip that is a trade\n    /// @param wallet The wallet whose side of the trade is to be settled\n    /// @param trade The trade to be settled\n    function settleTradeByProxy(address wallet, NahmiiTypesLib.Trade trade)\n    public\n    onlyDeployer\n    {\n        // Settle trade for wallet\n        settleTradePrivate(wallet, trade);\n\n        // Emit event\n        emit SettleTradeByProxyEvent(msg.sender, wallet, trade);\n    }\n\n    /// @notice Settle driip that is a payment\n    /// @param payment The payment to be settled\n    function settlePayment(NahmiiTypesLib.Payment payment)\n    public\n    {\n        // Settle payment\n        settlePaymentPrivate(msg.sender, payment);\n\n        // Emit event\n        emit SettlePaymentEvent(msg.sender, payment);\n    }\n\n    /// @notice Settle driip that is a payment\n    /// @param wallet The wallet whose side of the payment is to be settled\n    /// @param payment The payment to be settled\n    function settlePaymentByProxy(address wallet, NahmiiTypesLib.Payment payment)\n    public\n    onlyDeployer\n    {\n        // Settle payment for wallet\n        settlePaymentPrivate(wallet, payment);\n\n        // Emit event\n        emit SettlePaymentByProxyEvent(msg.sender, wallet, payment);\n    }\n\n    function settleTradePrivate(address wallet, NahmiiTypesLib.Trade trade)\n    private\n    onlySealedTrade(trade)\n    {\n        require(!fraudChallenge.isFraudulentTradeHash(trade.seal.hash));\n        require(validator.isTradeParty(trade, wallet));\n        require(!communityVote.isDoubleSpenderWallet(wallet));\n\n        // Require that wallet is not locked\n        require(!driipSettlementChallenge.isLockedWallet(wallet));\n\n        // Require that proposal has expired\n        require(driipSettlementChallenge.hasProposalExpired(wallet, trade.currencies.intended.ct, trade.currencies.intended.id));\n        require(driipSettlementChallenge.hasProposalExpired(wallet, trade.currencies.conjugate.ct, trade.currencies.conjugate.id));\n\n        // Require that driip settlement challenge proposals qualified\n        require(SettlementTypesLib.Status.Qualified == driipSettlementChallenge.proposalStatus(\n            wallet, trade.currencies.intended.ct, trade.currencies.intended.id\n        ));\n        require(SettlementTypesLib.Status.Qualified == driipSettlementChallenge.proposalStatus(\n            wallet, trade.currencies.conjugate.ct, trade.currencies.conjugate.id\n        ));\n\n        // Require that the wallet's current driip settlement challenge is wrt this trade\n        require(trade.nonce == driipSettlementChallenge.proposalNonce(wallet, trade.currencies.intended.ct, trade.currencies.intended.id));\n        require(trade.nonce == driipSettlementChallenge.proposalNonce(wallet, trade.currencies.conjugate.ct, trade.currencies.conjugate.id));\n\n        // Require that operational mode is normal and data is available, or that nonce is\n        // smaller than max null nonce\n        require((configuration.isOperationalModeNormal() && communityVote.isDataAvailable())\n            || (trade.nonce < maxDriipNonce));\n\n        // Get settlement, or create one if no such settlement exists for the trade nonce\n        SettlementTypesLib.Settlement storage settlement = hasSettlementByNonce(trade.nonce) ?\n        getSettlement(\n            trade.nonce, NahmiiTypesLib.DriipType.Trade\n        ) :\n        createSettlement(\n            trade.nonce, NahmiiTypesLib.DriipType.Trade, trade.seller.nonce,\n            trade.seller.wallet, trade.buyer.nonce, trade.buyer.wallet\n        );\n\n        // Get settlement role\n        SettlementTypesLib.SettlementRole settlementRole = getSettlementRoleFromTrade(trade, wallet);\n\n        // If exists settlement of nonce then require that wallet has not already settled\n        require(\n            (SettlementTypesLib.SettlementRole.Origin == settlementRole && !settlement.origin.done) ||\n            (SettlementTypesLib.SettlementRole.Target == settlementRole && !settlement.target.done)\n        );\n\n        // Set address of origin or target to prevent the same settlement from being resettled by this wallet\n        if (SettlementTypesLib.SettlementRole.Origin == settlementRole)\n            settlement.origin.done = true;\n        else\n            settlement.target.done = true;\n\n        NahmiiTypesLib.TradeParty memory party = validator.isTradeBuyer(trade, wallet) ? trade.buyer : trade.seller;\n\n        // If wallet has previously settled balance of the intended currency with higher driip nonce, then don't\n        // settle its balance again\n        if (walletCurrencyMaxDriipNonce[wallet][trade.currencies.intended.ct][trade.currencies.intended.id] < trade.nonce) {\n            // Update settled nonce of wallet and currency\n            walletCurrencyMaxDriipNonce[wallet][trade.currencies.intended.ct][trade.currencies.intended.id] = trade.nonce;\n\n            // Update settled balance\n            clientFund.updateSettledBalance(\n                wallet, party.balances.intended.current, trade.currencies.intended.ct, trade.currencies.intended.id\n            );\n\n            // Stage (stage function assures positive amount only)\n            clientFund.stage(\n                wallet,\n                driipSettlementChallenge.proposalStageAmount(wallet, trade.currencies.intended.ct, trade.currencies.intended.id),\n                trade.currencies.intended.ct,\n                trade.currencies.intended.id\n            );\n        }\n\n        // If wallet has previously settled balance of the conjugate currency with higher driip nonce, then don't\n        // settle its balance again\n        if (walletCurrencyMaxDriipNonce[wallet][trade.currencies.conjugate.ct][trade.currencies.conjugate.id] < trade.nonce) {\n            // Update settled nonce of wallet and currency\n            walletCurrencyMaxDriipNonce[wallet][trade.currencies.conjugate.ct][trade.currencies.conjugate.id] = trade.nonce;\n\n            // Update settled balance\n            clientFund.updateSettledBalance(\n                wallet, party.balances.conjugate.current, trade.currencies.conjugate.ct, trade.currencies.conjugate.id\n            );\n\n            // Stage (stage function assures positive amount only)\n            clientFund.stage(\n                wallet,\n                driipSettlementChallenge.proposalStageAmount(wallet, trade.currencies.conjugate.ct, trade.currencies.conjugate.id),\n                trade.currencies.conjugate.ct,\n                trade.currencies.conjugate.id\n            );\n        }\n\n        // Stage fees to revenue fund\n        if (address(0) != address(tradesRevenueFund))\n            stageFees(wallet, party.fees.total, tradesRevenueFund, trade.nonce);\n\n        // If payment nonce is beyond max driip nonce then update max driip nonce\n        if (trade.nonce > maxDriipNonce)\n            maxDriipNonce = trade.nonce;\n    }\n\n    function settlePaymentPrivate(address wallet, NahmiiTypesLib.Payment payment)\n    private\n    onlySealedPayment(payment)\n    {\n        require(!fraudChallenge.isFraudulentPaymentHash(payment.seals.operator.hash));\n        require(validator.isPaymentParty(payment, wallet));\n        require(!communityVote.isDoubleSpenderWallet(wallet));\n\n        // Require that wallet is not locked\n        require(!driipSettlementChallenge.isLockedWallet(wallet));\n\n        // Require that proposal has expired\n        require(driipSettlementChallenge.hasProposalExpired(wallet, payment.currency.ct, payment.currency.id));\n\n        // Require that driip settlement challenge proposal qualified\n        require(SettlementTypesLib.Status.Qualified == driipSettlementChallenge.proposalStatus(\n            wallet, payment.currency.ct, payment.currency.id\n        ));\n\n        // Require that the wallet's current driip settlement challenge is wrt this payment\n        require(payment.nonce == driipSettlementChallenge.proposalNonce(wallet, payment.currency.ct, payment.currency.id));\n\n        // Require that operational mode is normal and data is available, or that nonce is\n        // smaller than max null nonce\n        require((configuration.isOperationalModeNormal() && communityVote.isDataAvailable())\n            || (payment.nonce < maxDriipNonce));\n\n        // Get settlement, or create one if no such settlement exists for the trade nonce\n        SettlementTypesLib.Settlement storage settlement = hasSettlementByNonce(payment.nonce) ?\n        getSettlement(payment.nonce, NahmiiTypesLib.DriipType.Payment) :\n        createSettlement(payment.nonce, NahmiiTypesLib.DriipType.Payment,\n            payment.sender.nonce, payment.sender.wallet, payment.recipient.nonce, payment.recipient.wallet);\n\n        // Get settlement role\n        SettlementTypesLib.SettlementRole settlementRole = getSettlementRoleFromPayment(payment, wallet);\n\n        // If exists settlement of nonce then require that wallet has not already settled\n        require(\n            (SettlementTypesLib.SettlementRole.Origin == settlementRole && !settlement.origin.done) ||\n            (SettlementTypesLib.SettlementRole.Target == settlementRole && !settlement.target.done)\n        );\n\n        // Set address of origin or target to prevent the same settlement from being resettled by this wallet\n        if (SettlementTypesLib.SettlementRole.Origin == settlementRole)\n            settlement.origin.done = true;\n        else\n            settlement.target.done = true;\n\n        MonetaryTypesLib.Figure[] memory totalFees;\n        int256 currentBalance;\n        if (validator.isPaymentParty(payment, wallet)) {\n            totalFees = payment.sender.fees.total;\n            currentBalance = payment.sender.balances.current;\n        } else {\n            totalFees = payment.recipient.fees.total;\n            currentBalance = payment.recipient.balances.current;\n        }\n\n        // If wallet has previously settled balance of the concerned currency with higher driip nonce, then don't\n        // settle balance again\n        if (walletCurrencyMaxDriipNonce[wallet][payment.currency.ct][payment.currency.id] < payment.nonce) {\n            // Update settled nonce of wallet and currency\n            walletCurrencyMaxDriipNonce[wallet][payment.currency.ct][payment.currency.id] = payment.nonce;\n\n            // Update settled balance\n            clientFund.updateSettledBalance(wallet, currentBalance, payment.currency.ct, payment.currency.id);\n\n            // Stage (stage function assures positive amount only)\n            clientFund.stage(\n                wallet, driipSettlementChallenge.proposalStageAmount(wallet, payment.currency.ct, payment.currency.id),\n                payment.currency.ct, payment.currency.id\n            );\n        }\n\n        // Stage fees to revenue fund\n        if (address(0) != address(paymentsRevenueFund))\n            stageFees(wallet, totalFees, paymentsRevenueFund, payment.nonce);\n\n        // If payment nonce is beyond max driip nonce then update max driip nonce\n        if (payment.nonce > maxDriipNonce)\n            maxDriipNonce = payment.nonce;\n    }\n\n    function getSettlementRoleFromTrade(NahmiiTypesLib.Trade trade, address wallet)\n    private\n    pure\n    returns (SettlementTypesLib.SettlementRole)\n    {\n        return (wallet == trade.seller.wallet ?\n        SettlementTypesLib.SettlementRole.Origin :\n        SettlementTypesLib.SettlementRole.Target);\n    }\n\n    function getSettlementRoleFromPayment(NahmiiTypesLib.Payment payment, address wallet)\n    private\n    pure\n    returns (SettlementTypesLib.SettlementRole)\n    {\n        return (wallet == payment.sender.wallet ?\n        SettlementTypesLib.SettlementRole.Origin :\n        SettlementTypesLib.SettlementRole.Target);\n    }\n\n    function getSettlement(uint256 nonce, NahmiiTypesLib.DriipType driipType)\n    private\n    view\n    returns (SettlementTypesLib.Settlement storage)\n    {\n        uint256 index = nonceSettlementIndex[nonce];\n        SettlementTypesLib.Settlement storage settlement = settlements[index - 1];\n        require(driipType == settlement.driipType);\n        return settlement;\n    }\n\n    function createSettlement(uint256 nonce, NahmiiTypesLib.DriipType driipType,\n        uint256 originNonce, address originWallet, uint256 targetNonce, address targetWallet)\n    private\n    returns (SettlementTypesLib.Settlement storage)\n    {\n        SettlementTypesLib.Settlement memory settlement;\n        settlement.nonce = nonce;\n        settlement.driipType = driipType;\n        settlement.origin = SettlementTypesLib.SettlementParty(originNonce, originWallet, false);\n        settlement.target = SettlementTypesLib.SettlementParty(targetNonce, targetWallet, false);\n\n        settlements.push(settlement);\n\n        // Index is 1 based\n        uint256 index = settlements.length;\n        nonceSettlementIndex[nonce] = index;\n        walletSettlementIndices[originWallet].push(index);\n        walletSettlementIndices[targetWallet].push(index);\n        walletNonceSettlementIndex[originWallet][originNonce] = index;\n        walletNonceSettlementIndex[targetWallet][targetNonce] = index;\n\n        return settlements[index - 1];\n    }\n\n    function stageFees(address wallet, MonetaryTypesLib.Figure[] fees,\n        Beneficiary beneficiary, uint256 nonce)\n    private\n    {\n        // For each fee figure...\n        for (uint256 i = 0; i < fees.length; i++) {\n            // If wallet has previously settled fee of the concerned currency with higher driip nonce then don't settle again\n            if (walletCurrencyFeeNonce[wallet][fees[i].currency.ct][fees[i].currency.id] < nonce) {\n                walletCurrencyFeeNonce[wallet][fees[i].currency.ct][fees[i].currency.id] = nonce;\n\n                // Stage delta of fee to beneficiary\n                clientFund.transferToBeneficiary(\n                    beneficiary, fees[i].amount - walletCurrencyFeeCharged[wallet][fees[i].currency.ct][fees[i].currency.id],\n                    fees[i].currency.ct, fees[i].currency.id, \"\"\n                );\n\n                // Update fee charged\n                walletCurrencyFeeCharged[wallet][fees[i].currency.ct][fees[i].currency.id] = fees[i].amount;\n\n                // Emit event\n                emit StageTotalFeeEvent(wallet,\n                    fees[i].amount - walletCurrencyFeeCharged[wallet][fees[i].currency.ct][fees[i].currency.id],\n                    walletCurrencyFeeCharged[wallet][fees[i].currency.ct][fees[i].currency.id],\n                    fees[i].currency.ct, fees[i].currency.id);\n            }\n        }\n    }\n}",
  "sourcePath": "/Users/yons/development/hubii/striim-contracts/contracts/DriipSettlement.sol",
  "compiler": {
    "name": "solc",
    "version": "0.4.24+commit.e67f0147.Emscripten.clang"
  },
  "schemaVersion": "2.0.1",
  "updatedAt": "2018-11-21T03:39:16.178Z"
}