{
    "contractName": "DriipSettlementChallenge",
    "abi": [
        {
            "constant": false,
            "inputs": [
                {
                    "name": "newOperator",
                    "type": "address"
                }
            ],
            "name": "changeOperator",
            "outputs": [],
            "payable": false,
            "stateMutability": "nonpayable",
            "type": "function"
        },
        {
            "constant": true,
            "inputs": [
                {
                    "name": "",
                    "type": "uint256"
                }
            ],
            "name": "challengeCandidatePayments",
            "outputs": [
                {
                    "name": "nonce",
                    "type": "uint256"
                },
                {
                    "name": "amount",
                    "type": "int256"
                },
                {
                    "components": [
                        {
                            "name": "ct",
                            "type": "address"
                        },
                        {
                            "name": "id",
                            "type": "uint256"
                        }
                    ],
                    "name": "currency",
                    "type": "tuple"
                },
                {
                    "components": [
                        {
                            "name": "nonce",
                            "type": "uint256"
                        },
                        {
                            "name": "wallet",
                            "type": "address"
                        },
                        {
                            "components": [
                                {
                                    "name": "current",
                                    "type": "int256"
                                },
                                {
                                    "name": "previous",
                                    "type": "int256"
                                }
                            ],
                            "name": "balances",
                            "type": "tuple"
                        },
                        {
                            "components": [
                                {
                                    "components": [
                                        {
                                            "name": "amount",
                                            "type": "int256"
                                        },
                                        {
                                            "components": [
                                                {
                                                    "name": "ct",
                                                    "type": "address"
                                                },
                                                {
                                                    "name": "id",
                                                    "type": "uint256"
                                                }
                                            ],
                                            "name": "currency",
                                            "type": "tuple"
                                        }
                                    ],
                                    "name": "single",
                                    "type": "tuple"
                                },
                                {
                                    "components": [
                                        {
                                            "name": "amount",
                                            "type": "int256"
                                        },
                                        {
                                            "components": [
                                                {
                                                    "name": "ct",
                                                    "type": "address"
                                                },
                                                {
                                                    "name": "id",
                                                    "type": "uint256"
                                                }
                                            ],
                                            "name": "currency",
                                            "type": "tuple"
                                        }
                                    ],
                                    "name": "total",
                                    "type": "tuple[]"
                                }
                            ],
                            "name": "fees",
                            "type": "tuple"
                        }
                    ],
                    "name": "sender",
                    "type": "tuple"
                },
                {
                    "components": [
                        {
                            "name": "nonce",
                            "type": "uint256"
                        },
                        {
                            "name": "wallet",
                            "type": "address"
                        },
                        {
                            "components": [
                                {
                                    "name": "current",
                                    "type": "int256"
                                },
                                {
                                    "name": "previous",
                                    "type": "int256"
                                }
                            ],
                            "name": "balances",
                            "type": "tuple"
                        },
                        {
                            "components": [
                                {
                                    "components": [
                                        {
                                            "name": "amount",
                                            "type": "int256"
                                        },
                                        {
                                            "components": [
                                                {
                                                    "name": "ct",
                                                    "type": "address"
                                                },
                                                {
                                                    "name": "id",
                                                    "type": "uint256"
                                                }
                                            ],
                                            "name": "currency",
                                            "type": "tuple"
                                        }
                                    ],
                                    "name": "total",
                                    "type": "tuple[]"
                                }
                            ],
                            "name": "fees",
                            "type": "tuple"
                        }
                    ],
                    "name": "recipient",
                    "type": "tuple"
                },
                {
                    "components": [
                        {
                            "name": "single",
                            "type": "int256"
                        },
                        {
                            "name": "total",
                            "type": "int256"
                        }
                    ],
                    "name": "transfers",
                    "type": "tuple"
                },
                {
                    "components": [
                        {
                            "components": [
                                {
                                    "name": "hash",
                                    "type": "bytes32"
                                },
                                {
                                    "components": [
                                        {
                                            "name": "r",
                                            "type": "bytes32"
                                        },
                                        {
                                            "name": "s",
                                            "type": "bytes32"
                                        },
                                        {
                                            "name": "v",
                                            "type": "uint8"
                                        }
                                    ],
                                    "name": "signature",
                                    "type": "tuple"
                                }
                            ],
                            "name": "wallet",
                            "type": "tuple"
                        },
                        {
                            "components": [
                                {
                                    "name": "hash",
                                    "type": "bytes32"
                                },
                                {
                                    "components": [
                                        {
                                            "name": "r",
                                            "type": "bytes32"
                                        },
                                        {
                                            "name": "s",
                                            "type": "bytes32"
                                        },
                                        {
                                            "name": "v",
                                            "type": "uint8"
                                        }
                                    ],
                                    "name": "signature",
                                    "type": "tuple"
                                }
                            ],
                            "name": "exchange",
                            "type": "tuple"
                        }
                    ],
                    "name": "seals",
                    "type": "tuple"
                },
                {
                    "name": "blockNumber",
                    "type": "uint256"
                }
            ],
            "payable": false,
            "stateMutability": "view",
            "type": "function"
        },
        {
            "constant": true,
            "inputs": [
                {
                    "name": "",
                    "type": "address"
                }
            ],
            "name": "walletChallengeMap",
            "outputs": [
                {
                    "name": "nonce",
                    "type": "uint256"
                },
                {
                    "name": "timeout",
                    "type": "uint256"
                },
                {
                    "name": "status",
                    "type": "uint8"
                },
                {
                    "name": "driipType",
                    "type": "uint8"
                },
                {
                    "name": "driipIndex",
                    "type": "uint256"
                },
                {
                    "components": [
                        {
                            "name": "amount",
                            "type": "int256"
                        },
                        {
                            "components": [
                                {
                                    "name": "ct",
                                    "type": "address"
                                },
                                {
                                    "name": "id",
                                    "type": "uint256"
                                }
                            ],
                            "name": "currency",
                            "type": "tuple"
                        }
                    ],
                    "name": "intendedStage",
                    "type": "tuple"
                },
                {
                    "components": [
                        {
                            "name": "amount",
                            "type": "int256"
                        },
                        {
                            "components": [
                                {
                                    "name": "ct",
                                    "type": "address"
                                },
                                {
                                    "name": "id",
                                    "type": "uint256"
                                }
                            ],
                            "name": "currency",
                            "type": "tuple"
                        }
                    ],
                    "name": "conjugateStage",
                    "type": "tuple"
                },
                {
                    "components": [
                        {
                            "components": [
                                {
                                    "name": "amount",
                                    "type": "int256"
                                },
                                {
                                    "components": [
                                        {
                                            "name": "ct",
                                            "type": "address"
                                        },
                                        {
                                            "name": "id",
                                            "type": "uint256"
                                        }
                                    ],
                                    "name": "currency",
                                    "type": "tuple"
                                }
                            ],
                            "name": "figure",
                            "type": "tuple"
                        },
                        {
                            "name": "set",
                            "type": "bool"
                        }
                    ],
                    "name": "intendedTargetBalance",
                    "type": "tuple"
                },
                {
                    "components": [
                        {
                            "components": [
                                {
                                    "name": "amount",
                                    "type": "int256"
                                },
                                {
                                    "components": [
                                        {
                                            "name": "ct",
                                            "type": "address"
                                        },
                                        {
                                            "name": "id",
                                            "type": "uint256"
                                        }
                                    ],
                                    "name": "currency",
                                    "type": "tuple"
                                }
                            ],
                            "name": "figure",
                            "type": "tuple"
                        },
                        {
                            "name": "set",
                            "type": "bool"
                        }
                    ],
                    "name": "conjugateTargetBalance",
                    "type": "tuple"
                },
                {
                    "name": "candidateType",
                    "type": "uint8"
                },
                {
                    "name": "candidateIndex",
                    "type": "uint256"
                },
                {
                    "name": "challenger",
                    "type": "address"
                }
            ],
            "payable": false,
            "stateMutability": "view",
            "type": "function"
        },
        {
            "constant": true,
            "inputs": [
                {
                    "name": "",
                    "type": "address"
                },
                {
                    "name": "",
                    "type": "uint256"
                }
            ],
            "name": "walletChallengedPaymentsMap",
            "outputs": [
                {
                    "name": "nonce",
                    "type": "uint256"
                },
                {
                    "name": "amount",
                    "type": "int256"
                },
                {
                    "components": [
                        {
                            "name": "ct",
                            "type": "address"
                        },
                        {
                            "name": "id",
                            "type": "uint256"
                        }
                    ],
                    "name": "currency",
                    "type": "tuple"
                },
                {
                    "components": [
                        {
                            "name": "nonce",
                            "type": "uint256"
                        },
                        {
                            "name": "wallet",
                            "type": "address"
                        },
                        {
                            "components": [
                                {
                                    "name": "current",
                                    "type": "int256"
                                },
                                {
                                    "name": "previous",
                                    "type": "int256"
                                }
                            ],
                            "name": "balances",
                            "type": "tuple"
                        },
                        {
                            "components": [
                                {
                                    "components": [
                                        {
                                            "name": "amount",
                                            "type": "int256"
                                        },
                                        {
                                            "components": [
                                                {
                                                    "name": "ct",
                                                    "type": "address"
                                                },
                                                {
                                                    "name": "id",
                                                    "type": "uint256"
                                                }
                                            ],
                                            "name": "currency",
                                            "type": "tuple"
                                        }
                                    ],
                                    "name": "single",
                                    "type": "tuple"
                                },
                                {
                                    "components": [
                                        {
                                            "name": "amount",
                                            "type": "int256"
                                        },
                                        {
                                            "components": [
                                                {
                                                    "name": "ct",
                                                    "type": "address"
                                                },
                                                {
                                                    "name": "id",
                                                    "type": "uint256"
                                                }
                                            ],
                                            "name": "currency",
                                            "type": "tuple"
                                        }
                                    ],
                                    "name": "total",
                                    "type": "tuple[]"
                                }
                            ],
                            "name": "fees",
                            "type": "tuple"
                        }
                    ],
                    "name": "sender",
                    "type": "tuple"
                },
                {
                    "components": [
                        {
                            "name": "nonce",
                            "type": "uint256"
                        },
                        {
                            "name": "wallet",
                            "type": "address"
                        },
                        {
                            "components": [
                                {
                                    "name": "current",
                                    "type": "int256"
                                },
                                {
                                    "name": "previous",
                                    "type": "int256"
                                }
                            ],
                            "name": "balances",
                            "type": "tuple"
                        },
                        {
                            "components": [
                                {
                                    "components": [
                                        {
                                            "name": "amount",
                                            "type": "int256"
                                        },
                                        {
                                            "components": [
                                                {
                                                    "name": "ct",
                                                    "type": "address"
                                                },
                                                {
                                                    "name": "id",
                                                    "type": "uint256"
                                                }
                                            ],
                                            "name": "currency",
                                            "type": "tuple"
                                        }
                                    ],
                                    "name": "total",
                                    "type": "tuple[]"
                                }
                            ],
                            "name": "fees",
                            "type": "tuple"
                        }
                    ],
                    "name": "recipient",
                    "type": "tuple"
                },
                {
                    "components": [
                        {
                            "name": "single",
                            "type": "int256"
                        },
                        {
                            "name": "total",
                            "type": "int256"
                        }
                    ],
                    "name": "transfers",
                    "type": "tuple"
                },
                {
                    "components": [
                        {
                            "components": [
                                {
                                    "name": "hash",
                                    "type": "bytes32"
                                },
                                {
                                    "components": [
                                        {
                                            "name": "r",
                                            "type": "bytes32"
                                        },
                                        {
                                            "name": "s",
                                            "type": "bytes32"
                                        },
                                        {
                                            "name": "v",
                                            "type": "uint8"
                                        }
                                    ],
                                    "name": "signature",
                                    "type": "tuple"
                                }
                            ],
                            "name": "wallet",
                            "type": "tuple"
                        },
                        {
                            "components": [
                                {
                                    "name": "hash",
                                    "type": "bytes32"
                                },
                                {
                                    "components": [
                                        {
                                            "name": "r",
                                            "type": "bytes32"
                                        },
                                        {
                                            "name": "s",
                                            "type": "bytes32"
                                        },
                                        {
                                            "name": "v",
                                            "type": "uint8"
                                        }
                                    ],
                                    "name": "signature",
                                    "type": "tuple"
                                }
                            ],
                            "name": "exchange",
                            "type": "tuple"
                        }
                    ],
                    "name": "seals",
                    "type": "tuple"
                },
                {
                    "name": "blockNumber",
                    "type": "uint256"
                }
            ],
            "payable": false,
            "stateMutability": "view",
            "type": "function"
        },
        {
            "constant": true,
            "inputs": [],
            "name": "validator",
            "outputs": [
                {
                    "name": "",
                    "type": "address"
                }
            ],
            "payable": false,
            "stateMutability": "view",
            "type": "function"
        },
        {
            "constant": true,
            "inputs": [],
            "name": "destructor",
            "outputs": [
                {
                    "name": "",
                    "type": "address"
                }
            ],
            "payable": false,
            "stateMutability": "view",
            "type": "function"
        },
        {
            "constant": true,
            "inputs": [],
            "name": "operator",
            "outputs": [
                {
                    "name": "",
                    "type": "address"
                }
            ],
            "payable": false,
            "stateMutability": "view",
            "type": "function"
        },
        {
            "constant": true,
            "inputs": [],
            "name": "configuration",
            "outputs": [
                {
                    "name": "",
                    "type": "address"
                }
            ],
            "payable": false,
            "stateMutability": "view",
            "type": "function"
        },
        {
            "constant": false,
            "inputs": [
                {
                    "name": "newConfiguration",
                    "type": "address"
                }
            ],
            "name": "changeConfiguration",
            "outputs": [],
            "payable": false,
            "stateMutability": "nonpayable",
            "type": "function"
        },
        {
            "constant": false,
            "inputs": [],
            "name": "triggerDestroy",
            "outputs": [],
            "payable": false,
            "stateMutability": "nonpayable",
            "type": "function"
        },
        {
            "constant": true,
            "inputs": [
                {
                    "name": "",
                    "type": "uint256"
                }
            ],
            "name": "challengeCandidateTrades",
            "outputs": [
                {
                    "name": "nonce",
                    "type": "uint256"
                },
                {
                    "name": "amount",
                    "type": "int256"
                },
                {
                    "components": [
                        {
                            "components": [
                                {
                                    "name": "ct",
                                    "type": "address"
                                },
                                {
                                    "name": "id",
                                    "type": "uint256"
                                }
                            ],
                            "name": "intended",
                            "type": "tuple"
                        },
                        {
                            "components": [
                                {
                                    "name": "ct",
                                    "type": "address"
                                },
                                {
                                    "name": "id",
                                    "type": "uint256"
                                }
                            ],
                            "name": "conjugate",
                            "type": "tuple"
                        }
                    ],
                    "name": "currencies",
                    "type": "tuple"
                },
                {
                    "name": "rate",
                    "type": "int256"
                },
                {
                    "components": [
                        {
                            "name": "nonce",
                            "type": "uint256"
                        },
                        {
                            "name": "wallet",
                            "type": "address"
                        },
                        {
                            "name": "rollingVolume",
                            "type": "uint256"
                        },
                        {
                            "name": "liquidityRole",
                            "type": "uint8"
                        },
                        {
                            "components": [
                                {
                                    "name": "amount",
                                    "type": "int256"
                                },
                                {
                                    "components": [
                                        {
                                            "name": "wallet",
                                            "type": "bytes32"
                                        },
                                        {
                                            "name": "exchange",
                                            "type": "bytes32"
                                        }
                                    ],
                                    "name": "hashes",
                                    "type": "tuple"
                                },
                                {
                                    "components": [
                                        {
                                            "name": "current",
                                            "type": "int256"
                                        },
                                        {
                                            "name": "previous",
                                            "type": "int256"
                                        }
                                    ],
                                    "name": "residuals",
                                    "type": "tuple"
                                }
                            ],
                            "name": "order",
                            "type": "tuple"
                        },
                        {
                            "components": [
                                {
                                    "components": [
                                        {
                                            "name": "current",
                                            "type": "int256"
                                        },
                                        {
                                            "name": "previous",
                                            "type": "int256"
                                        }
                                    ],
                                    "name": "intended",
                                    "type": "tuple"
                                },
                                {
                                    "components": [
                                        {
                                            "name": "current",
                                            "type": "int256"
                                        },
                                        {
                                            "name": "previous",
                                            "type": "int256"
                                        }
                                    ],
                                    "name": "conjugate",
                                    "type": "tuple"
                                }
                            ],
                            "name": "balances",
                            "type": "tuple"
                        },
                        {
                            "components": [
                                {
                                    "components": [
                                        {
                                            "name": "amount",
                                            "type": "int256"
                                        },
                                        {
                                            "components": [
                                                {
                                                    "name": "ct",
                                                    "type": "address"
                                                },
                                                {
                                                    "name": "id",
                                                    "type": "uint256"
                                                }
                                            ],
                                            "name": "currency",
                                            "type": "tuple"
                                        }
                                    ],
                                    "name": "single",
                                    "type": "tuple"
                                },
                                {
                                    "components": [
                                        {
                                            "name": "amount",
                                            "type": "int256"
                                        },
                                        {
                                            "components": [
                                                {
                                                    "name": "ct",
                                                    "type": "address"
                                                },
                                                {
                                                    "name": "id",
                                                    "type": "uint256"
                                                }
                                            ],
                                            "name": "currency",
                                            "type": "tuple"
                                        }
                                    ],
                                    "name": "total",
                                    "type": "tuple[]"
                                }
                            ],
                            "name": "fees",
                            "type": "tuple"
                        }
                    ],
                    "name": "buyer",
                    "type": "tuple"
                },
                {
                    "components": [
                        {
                            "name": "nonce",
                            "type": "uint256"
                        },
                        {
                            "name": "wallet",
                            "type": "address"
                        },
                        {
                            "name": "rollingVolume",
                            "type": "uint256"
                        },
                        {
                            "name": "liquidityRole",
                            "type": "uint8"
                        },
                        {
                            "components": [
                                {
                                    "name": "amount",
                                    "type": "int256"
                                },
                                {
                                    "components": [
                                        {
                                            "name": "wallet",
                                            "type": "bytes32"
                                        },
                                        {
                                            "name": "exchange",
                                            "type": "bytes32"
                                        }
                                    ],
                                    "name": "hashes",
                                    "type": "tuple"
                                },
                                {
                                    "components": [
                                        {
                                            "name": "current",
                                            "type": "int256"
                                        },
                                        {
                                            "name": "previous",
                                            "type": "int256"
                                        }
                                    ],
                                    "name": "residuals",
                                    "type": "tuple"
                                }
                            ],
                            "name": "order",
                            "type": "tuple"
                        },
                        {
                            "components": [
                                {
                                    "components": [
                                        {
                                            "name": "current",
                                            "type": "int256"
                                        },
                                        {
                                            "name": "previous",
                                            "type": "int256"
                                        }
                                    ],
                                    "name": "intended",
                                    "type": "tuple"
                                },
                                {
                                    "components": [
                                        {
                                            "name": "current",
                                            "type": "int256"
                                        },
                                        {
                                            "name": "previous",
                                            "type": "int256"
                                        }
                                    ],
                                    "name": "conjugate",
                                    "type": "tuple"
                                }
                            ],
                            "name": "balances",
                            "type": "tuple"
                        },
                        {
                            "components": [
                                {
                                    "components": [
                                        {
                                            "name": "amount",
                                            "type": "int256"
                                        },
                                        {
                                            "components": [
                                                {
                                                    "name": "ct",
                                                    "type": "address"
                                                },
                                                {
                                                    "name": "id",
                                                    "type": "uint256"
                                                }
                                            ],
                                            "name": "currency",
                                            "type": "tuple"
                                        }
                                    ],
                                    "name": "single",
                                    "type": "tuple"
                                },
                                {
                                    "components": [
                                        {
                                            "name": "amount",
                                            "type": "int256"
                                        },
                                        {
                                            "components": [
                                                {
                                                    "name": "ct",
                                                    "type": "address"
                                                },
                                                {
                                                    "name": "id",
                                                    "type": "uint256"
                                                }
                                            ],
                                            "name": "currency",
                                            "type": "tuple"
                                        }
                                    ],
                                    "name": "total",
                                    "type": "tuple[]"
                                }
                            ],
                            "name": "fees",
                            "type": "tuple"
                        }
                    ],
                    "name": "seller",
                    "type": "tuple"
                },
                {
                    "components": [
                        {
                            "components": [
                                {
                                    "name": "single",
                                    "type": "int256"
                                },
                                {
                                    "name": "total",
                                    "type": "int256"
                                }
                            ],
                            "name": "intended",
                            "type": "tuple"
                        },
                        {
                            "components": [
                                {
                                    "name": "single",
                                    "type": "int256"
                                },
                                {
                                    "name": "total",
                                    "type": "int256"
                                }
                            ],
                            "name": "conjugate",
                            "type": "tuple"
                        }
                    ],
                    "name": "transfers",
                    "type": "tuple"
                },
                {
                    "components": [
                        {
                            "name": "hash",
                            "type": "bytes32"
                        },
                        {
                            "components": [
                                {
                                    "name": "r",
                                    "type": "bytes32"
                                },
                                {
                                    "name": "s",
                                    "type": "bytes32"
                                },
                                {
                                    "name": "v",
                                    "type": "uint8"
                                }
                            ],
                            "name": "signature",
                            "type": "tuple"
                        }
                    ],
                    "name": "seal",
                    "type": "tuple"
                },
                {
                    "name": "blockNumber",
                    "type": "uint256"
                }
            ],
            "payable": false,
            "stateMutability": "view",
            "type": "function"
        },
        {
            "constant": true,
            "inputs": [],
            "name": "driipSettlementDispute",
            "outputs": [
                {
                    "name": "",
                    "type": "address"
                }
            ],
            "payable": false,
            "stateMutability": "view",
            "type": "function"
        },
        {
            "constant": true,
            "inputs": [],
            "name": "deployer",
            "outputs": [
                {
                    "name": "",
                    "type": "address"
                }
            ],
            "payable": false,
            "stateMutability": "view",
            "type": "function"
        },
        {
            "constant": false,
            "inputs": [
                {
                    "name": "newDeployer",
                    "type": "address"
                }
            ],
            "name": "changeDeployer",
            "outputs": [],
            "payable": false,
            "stateMutability": "nonpayable",
            "type": "function"
        },
        {
            "constant": true,
            "inputs": [
                {
                    "name": "",
                    "type": "uint256"
                }
            ],
            "name": "challengeCandidateOrders",
            "outputs": [
                {
                    "name": "nonce",
                    "type": "uint256"
                },
                {
                    "name": "wallet",
                    "type": "address"
                },
                {
                    "components": [
                        {
                            "name": "intention",
                            "type": "uint8"
                        },
                        {
                            "name": "amount",
                            "type": "int256"
                        },
                        {
                            "components": [
                                {
                                    "components": [
                                        {
                                            "name": "ct",
                                            "type": "address"
                                        },
                                        {
                                            "name": "id",
                                            "type": "uint256"
                                        }
                                    ],
                                    "name": "intended",
                                    "type": "tuple"
                                },
                                {
                                    "components": [
                                        {
                                            "name": "ct",
                                            "type": "address"
                                        },
                                        {
                                            "name": "id",
                                            "type": "uint256"
                                        }
                                    ],
                                    "name": "conjugate",
                                    "type": "tuple"
                                }
                            ],
                            "name": "currencies",
                            "type": "tuple"
                        },
                        {
                            "name": "rate",
                            "type": "int256"
                        },
                        {
                            "components": [
                                {
                                    "name": "current",
                                    "type": "int256"
                                },
                                {
                                    "name": "previous",
                                    "type": "int256"
                                }
                            ],
                            "name": "residuals",
                            "type": "tuple"
                        }
                    ],
                    "name": "placement",
                    "type": "tuple"
                },
                {
                    "components": [
                        {
                            "components": [
                                {
                                    "name": "hash",
                                    "type": "bytes32"
                                },
                                {
                                    "components": [
                                        {
                                            "name": "r",
                                            "type": "bytes32"
                                        },
                                        {
                                            "name": "s",
                                            "type": "bytes32"
                                        },
                                        {
                                            "name": "v",
                                            "type": "uint8"
                                        }
                                    ],
                                    "name": "signature",
                                    "type": "tuple"
                                }
                            ],
                            "name": "wallet",
                            "type": "tuple"
                        },
                        {
                            "components": [
                                {
                                    "name": "hash",
                                    "type": "bytes32"
                                },
                                {
                                    "components": [
                                        {
                                            "name": "r",
                                            "type": "bytes32"
                                        },
                                        {
                                            "name": "s",
                                            "type": "bytes32"
                                        },
                                        {
                                            "name": "v",
                                            "type": "uint8"
                                        }
                                    ],
                                    "name": "signature",
                                    "type": "tuple"
                                }
                            ],
                            "name": "exchange",
                            "type": "tuple"
                        }
                    ],
                    "name": "seals",
                    "type": "tuple"
                },
                {
                    "name": "blockNumber",
                    "type": "uint256"
                }
            ],
            "payable": false,
            "stateMutability": "view",
            "type": "function"
        },
        {
            "constant": false,
            "inputs": [
                {
                    "name": "newAddress",
                    "type": "address"
                }
            ],
            "name": "changeValidator",
            "outputs": [],
            "payable": false,
            "stateMutability": "nonpayable",
            "type": "function"
        },
        {
            "constant": true,
            "inputs": [
                {
                    "name": "",
                    "type": "address"
                },
                {
                    "name": "",
                    "type": "uint256"
                }
            ],
            "name": "walletChallengedTradesMap",
            "outputs": [
                {
                    "name": "nonce",
                    "type": "uint256"
                },
                {
                    "name": "amount",
                    "type": "int256"
                },
                {
                    "components": [
                        {
                            "components": [
                                {
                                    "name": "ct",
                                    "type": "address"
                                },
                                {
                                    "name": "id",
                                    "type": "uint256"
                                }
                            ],
                            "name": "intended",
                            "type": "tuple"
                        },
                        {
                            "components": [
                                {
                                    "name": "ct",
                                    "type": "address"
                                },
                                {
                                    "name": "id",
                                    "type": "uint256"
                                }
                            ],
                            "name": "conjugate",
                            "type": "tuple"
                        }
                    ],
                    "name": "currencies",
                    "type": "tuple"
                },
                {
                    "name": "rate",
                    "type": "int256"
                },
                {
                    "components": [
                        {
                            "name": "nonce",
                            "type": "uint256"
                        },
                        {
                            "name": "wallet",
                            "type": "address"
                        },
                        {
                            "name": "rollingVolume",
                            "type": "uint256"
                        },
                        {
                            "name": "liquidityRole",
                            "type": "uint8"
                        },
                        {
                            "components": [
                                {
                                    "name": "amount",
                                    "type": "int256"
                                },
                                {
                                    "components": [
                                        {
                                            "name": "wallet",
                                            "type": "bytes32"
                                        },
                                        {
                                            "name": "exchange",
                                            "type": "bytes32"
                                        }
                                    ],
                                    "name": "hashes",
                                    "type": "tuple"
                                },
                                {
                                    "components": [
                                        {
                                            "name": "current",
                                            "type": "int256"
                                        },
                                        {
                                            "name": "previous",
                                            "type": "int256"
                                        }
                                    ],
                                    "name": "residuals",
                                    "type": "tuple"
                                }
                            ],
                            "name": "order",
                            "type": "tuple"
                        },
                        {
                            "components": [
                                {
                                    "components": [
                                        {
                                            "name": "current",
                                            "type": "int256"
                                        },
                                        {
                                            "name": "previous",
                                            "type": "int256"
                                        }
                                    ],
                                    "name": "intended",
                                    "type": "tuple"
                                },
                                {
                                    "components": [
                                        {
                                            "name": "current",
                                            "type": "int256"
                                        },
                                        {
                                            "name": "previous",
                                            "type": "int256"
                                        }
                                    ],
                                    "name": "conjugate",
                                    "type": "tuple"
                                }
                            ],
                            "name": "balances",
                            "type": "tuple"
                        },
                        {
                            "components": [
                                {
                                    "components": [
                                        {
                                            "name": "amount",
                                            "type": "int256"
                                        },
                                        {
                                            "components": [
                                                {
                                                    "name": "ct",
                                                    "type": "address"
                                                },
                                                {
                                                    "name": "id",
                                                    "type": "uint256"
                                                }
                                            ],
                                            "name": "currency",
                                            "type": "tuple"
                                        }
                                    ],
                                    "name": "single",
                                    "type": "tuple"
                                },
                                {
                                    "components": [
                                        {
                                            "name": "amount",
                                            "type": "int256"
                                        },
                                        {
                                            "components": [
                                                {
                                                    "name": "ct",
                                                    "type": "address"
                                                },
                                                {
                                                    "name": "id",
                                                    "type": "uint256"
                                                }
                                            ],
                                            "name": "currency",
                                            "type": "tuple"
                                        }
                                    ],
                                    "name": "total",
                                    "type": "tuple[]"
                                }
                            ],
                            "name": "fees",
                            "type": "tuple"
                        }
                    ],
                    "name": "buyer",
                    "type": "tuple"
                },
                {
                    "components": [
                        {
                            "name": "nonce",
                            "type": "uint256"
                        },
                        {
                            "name": "wallet",
                            "type": "address"
                        },
                        {
                            "name": "rollingVolume",
                            "type": "uint256"
                        },
                        {
                            "name": "liquidityRole",
                            "type": "uint8"
                        },
                        {
                            "components": [
                                {
                                    "name": "amount",
                                    "type": "int256"
                                },
                                {
                                    "components": [
                                        {
                                            "name": "wallet",
                                            "type": "bytes32"
                                        },
                                        {
                                            "name": "exchange",
                                            "type": "bytes32"
                                        }
                                    ],
                                    "name": "hashes",
                                    "type": "tuple"
                                },
                                {
                                    "components": [
                                        {
                                            "name": "current",
                                            "type": "int256"
                                        },
                                        {
                                            "name": "previous",
                                            "type": "int256"
                                        }
                                    ],
                                    "name": "residuals",
                                    "type": "tuple"
                                }
                            ],
                            "name": "order",
                            "type": "tuple"
                        },
                        {
                            "components": [
                                {
                                    "components": [
                                        {
                                            "name": "current",
                                            "type": "int256"
                                        },
                                        {
                                            "name": "previous",
                                            "type": "int256"
                                        }
                                    ],
                                    "name": "intended",
                                    "type": "tuple"
                                },
                                {
                                    "components": [
                                        {
                                            "name": "current",
                                            "type": "int256"
                                        },
                                        {
                                            "name": "previous",
                                            "type": "int256"
                                        }
                                    ],
                                    "name": "conjugate",
                                    "type": "tuple"
                                }
                            ],
                            "name": "balances",
                            "type": "tuple"
                        },
                        {
                            "components": [
                                {
                                    "components": [
                                        {
                                            "name": "amount",
                                            "type": "int256"
                                        },
                                        {
                                            "components": [
                                                {
                                                    "name": "ct",
                                                    "type": "address"
                                                },
                                                {
                                                    "name": "id",
                                                    "type": "uint256"
                                                }
                                            ],
                                            "name": "currency",
                                            "type": "tuple"
                                        }
                                    ],
                                    "name": "single",
                                    "type": "tuple"
                                },
                                {
                                    "components": [
                                        {
                                            "name": "amount",
                                            "type": "int256"
                                        },
                                        {
                                            "components": [
                                                {
                                                    "name": "ct",
                                                    "type": "address"
                                                },
                                                {
                                                    "name": "id",
                                                    "type": "uint256"
                                                }
                                            ],
                                            "name": "currency",
                                            "type": "tuple"
                                        }
                                    ],
                                    "name": "total",
                                    "type": "tuple[]"
                                }
                            ],
                            "name": "fees",
                            "type": "tuple"
                        }
                    ],
                    "name": "seller",
                    "type": "tuple"
                },
                {
                    "components": [
                        {
                            "components": [
                                {
                                    "name": "single",
                                    "type": "int256"
                                },
                                {
                                    "name": "total",
                                    "type": "int256"
                                }
                            ],
                            "name": "intended",
                            "type": "tuple"
                        },
                        {
                            "components": [
                                {
                                    "name": "single",
                                    "type": "int256"
                                },
                                {
                                    "name": "total",
                                    "type": "int256"
                                }
                            ],
                            "name": "conjugate",
                            "type": "tuple"
                        }
                    ],
                    "name": "transfers",
                    "type": "tuple"
                },
                {
                    "components": [
                        {
                            "name": "hash",
                            "type": "bytes32"
                        },
                        {
                            "components": [
                                {
                                    "name": "r",
                                    "type": "bytes32"
                                },
                                {
                                    "name": "s",
                                    "type": "bytes32"
                                },
                                {
                                    "name": "v",
                                    "type": "uint8"
                                }
                            ],
                            "name": "signature",
                            "type": "tuple"
                        }
                    ],
                    "name": "seal",
                    "type": "tuple"
                },
                {
                    "name": "blockNumber",
                    "type": "uint256"
                }
            ],
            "payable": false,
            "stateMutability": "view",
            "type": "function"
        },
        {
            "inputs": [
                {
                    "name": "owner",
                    "type": "address"
                }
            ],
            "payable": false,
            "stateMutability": "nonpayable",
            "type": "constructor"
        },
        {
            "anonymous": false,
            "inputs": [
                {
                    "indexed": false,
                    "name": "oldDriipSettlementDispute",
                    "type": "address"
                },
                {
                    "indexed": false,
                    "name": "newDriipSettlementDispute",
                    "type": "address"
                }
            ],
            "name": "ChangeDriipSettlementDisputeEvent",
            "type": "event"
        },
        {
            "anonymous": false,
            "inputs": [
                {
                    "components": [
                        {
                            "name": "nonce",
                            "type": "uint256"
                        },
                        {
                            "name": "amount",
                            "type": "int256"
                        },
                        {
                            "components": [
                                {
                                    "components": [
                                        {
                                            "name": "ct",
                                            "type": "address"
                                        },
                                        {
                                            "name": "id",
                                            "type": "uint256"
                                        }
                                    ],
                                    "name": "intended",
                                    "type": "tuple"
                                },
                                {
                                    "components": [
                                        {
                                            "name": "ct",
                                            "type": "address"
                                        },
                                        {
                                            "name": "id",
                                            "type": "uint256"
                                        }
                                    ],
                                    "name": "conjugate",
                                    "type": "tuple"
                                }
                            ],
                            "name": "currencies",
                            "type": "tuple"
                        },
                        {
                            "name": "rate",
                            "type": "int256"
                        },
                        {
                            "components": [
                                {
                                    "name": "nonce",
                                    "type": "uint256"
                                },
                                {
                                    "name": "wallet",
                                    "type": "address"
                                },
                                {
                                    "name": "rollingVolume",
                                    "type": "uint256"
                                },
                                {
                                    "name": "liquidityRole",
                                    "type": "uint8"
                                },
                                {
                                    "components": [
                                        {
                                            "name": "amount",
                                            "type": "int256"
                                        },
                                        {
                                            "components": [
                                                {
                                                    "name": "wallet",
                                                    "type": "bytes32"
                                                },
                                                {
                                                    "name": "exchange",
                                                    "type": "bytes32"
                                                }
                                            ],
                                            "name": "hashes",
                                            "type": "tuple"
                                        },
                                        {
                                            "components": [
                                                {
                                                    "name": "current",
                                                    "type": "int256"
                                                },
                                                {
                                                    "name": "previous",
                                                    "type": "int256"
                                                }
                                            ],
                                            "name": "residuals",
                                            "type": "tuple"
                                        }
                                    ],
                                    "name": "order",
                                    "type": "tuple"
                                },
                                {
                                    "components": [
                                        {
                                            "components": [
                                                {
                                                    "name": "current",
                                                    "type": "int256"
                                                },
                                                {
                                                    "name": "previous",
                                                    "type": "int256"
                                                }
                                            ],
                                            "name": "intended",
                                            "type": "tuple"
                                        },
                                        {
                                            "components": [
                                                {
                                                    "name": "current",
                                                    "type": "int256"
                                                },
                                                {
                                                    "name": "previous",
                                                    "type": "int256"
                                                }
                                            ],
                                            "name": "conjugate",
                                            "type": "tuple"
                                        }
                                    ],
                                    "name": "balances",
                                    "type": "tuple"
                                },
                                {
                                    "components": [
                                        {
                                            "components": [
                                                {
                                                    "name": "amount",
                                                    "type": "int256"
                                                },
                                                {
                                                    "components": [
                                                        {
                                                            "name": "ct",
                                                            "type": "address"
                                                        },
                                                        {
                                                            "name": "id",
                                                            "type": "uint256"
                                                        }
                                                    ],
                                                    "name": "currency",
                                                    "type": "tuple"
                                                }
                                            ],
                                            "name": "single",
                                            "type": "tuple"
                                        },
                                        {
                                            "components": [
                                                {
                                                    "name": "amount",
                                                    "type": "int256"
                                                },
                                                {
                                                    "components": [
                                                        {
                                                            "name": "ct",
                                                            "type": "address"
                                                        },
                                                        {
                                                            "name": "id",
                                                            "type": "uint256"
                                                        }
                                                    ],
                                                    "name": "currency",
                                                    "type": "tuple"
                                                }
                                            ],
                                            "name": "total",
                                            "type": "tuple[]"
                                        }
                                    ],
                                    "name": "fees",
                                    "type": "tuple"
                                }
                            ],
                            "name": "buyer",
                            "type": "tuple"
                        },
                        {
                            "components": [
                                {
                                    "name": "nonce",
                                    "type": "uint256"
                                },
                                {
                                    "name": "wallet",
                                    "type": "address"
                                },
                                {
                                    "name": "rollingVolume",
                                    "type": "uint256"
                                },
                                {
                                    "name": "liquidityRole",
                                    "type": "uint8"
                                },
                                {
                                    "components": [
                                        {
                                            "name": "amount",
                                            "type": "int256"
                                        },
                                        {
                                            "components": [
                                                {
                                                    "name": "wallet",
                                                    "type": "bytes32"
                                                },
                                                {
                                                    "name": "exchange",
                                                    "type": "bytes32"
                                                }
                                            ],
                                            "name": "hashes",
                                            "type": "tuple"
                                        },
                                        {
                                            "components": [
                                                {
                                                    "name": "current",
                                                    "type": "int256"
                                                },
                                                {
                                                    "name": "previous",
                                                    "type": "int256"
                                                }
                                            ],
                                            "name": "residuals",
                                            "type": "tuple"
                                        }
                                    ],
                                    "name": "order",
                                    "type": "tuple"
                                },
                                {
                                    "components": [
                                        {
                                            "components": [
                                                {
                                                    "name": "current",
                                                    "type": "int256"
                                                },
                                                {
                                                    "name": "previous",
                                                    "type": "int256"
                                                }
                                            ],
                                            "name": "intended",
                                            "type": "tuple"
                                        },
                                        {
                                            "components": [
                                                {
                                                    "name": "current",
                                                    "type": "int256"
                                                },
                                                {
                                                    "name": "previous",
                                                    "type": "int256"
                                                }
                                            ],
                                            "name": "conjugate",
                                            "type": "tuple"
                                        }
                                    ],
                                    "name": "balances",
                                    "type": "tuple"
                                },
                                {
                                    "components": [
                                        {
                                            "components": [
                                                {
                                                    "name": "amount",
                                                    "type": "int256"
                                                },
                                                {
                                                    "components": [
                                                        {
                                                            "name": "ct",
                                                            "type": "address"
                                                        },
                                                        {
                                                            "name": "id",
                                                            "type": "uint256"
                                                        }
                                                    ],
                                                    "name": "currency",
                                                    "type": "tuple"
                                                }
                                            ],
                                            "name": "single",
                                            "type": "tuple"
                                        },
                                        {
                                            "components": [
                                                {
                                                    "name": "amount",
                                                    "type": "int256"
                                                },
                                                {
                                                    "components": [
                                                        {
                                                            "name": "ct",
                                                            "type": "address"
                                                        },
                                                        {
                                                            "name": "id",
                                                            "type": "uint256"
                                                        }
                                                    ],
                                                    "name": "currency",
                                                    "type": "tuple"
                                                }
                                            ],
                                            "name": "total",
                                            "type": "tuple[]"
                                        }
                                    ],
                                    "name": "fees",
                                    "type": "tuple"
                                }
                            ],
                            "name": "seller",
                            "type": "tuple"
                        },
                        {
                            "components": [
                                {
                                    "components": [
                                        {
                                            "name": "single",
                                            "type": "int256"
                                        },
                                        {
                                            "name": "total",
                                            "type": "int256"
                                        }
                                    ],
                                    "name": "intended",
                                    "type": "tuple"
                                },
                                {
                                    "components": [
                                        {
                                            "name": "single",
                                            "type": "int256"
                                        },
                                        {
                                            "name": "total",
                                            "type": "int256"
                                        }
                                    ],
                                    "name": "conjugate",
                                    "type": "tuple"
                                }
                            ],
                            "name": "transfers",
                            "type": "tuple"
                        },
                        {
                            "components": [
                                {
                                    "name": "hash",
                                    "type": "bytes32"
                                },
                                {
                                    "components": [
                                        {
                                            "name": "r",
                                            "type": "bytes32"
                                        },
                                        {
                                            "name": "s",
                                            "type": "bytes32"
                                        },
                                        {
                                            "name": "v",
                                            "type": "uint8"
                                        }
                                    ],
                                    "name": "signature",
                                    "type": "tuple"
                                }
                            ],
                            "name": "seal",
                            "type": "tuple"
                        },
                        {
                            "name": "blockNumber",
                            "type": "uint256"
                        }
                    ],
                    "indexed": false,
                    "name": "trade",
                    "type": "tuple"
                },
                {
                    "indexed": false,
                    "name": "wallet",
                    "type": "address"
                }
            ],
            "name": "StartChallengeFromTradeEvent",
            "type": "event"
        },
        {
            "anonymous": false,
            "inputs": [
                {
                    "components": [
                        {
                            "name": "nonce",
                            "type": "uint256"
                        },
                        {
                            "name": "amount",
                            "type": "int256"
                        },
                        {
                            "components": [
                                {
                                    "name": "ct",
                                    "type": "address"
                                },
                                {
                                    "name": "id",
                                    "type": "uint256"
                                }
                            ],
                            "name": "currency",
                            "type": "tuple"
                        },
                        {
                            "components": [
                                {
                                    "name": "nonce",
                                    "type": "uint256"
                                },
                                {
                                    "name": "wallet",
                                    "type": "address"
                                },
                                {
                                    "components": [
                                        {
                                            "name": "current",
                                            "type": "int256"
                                        },
                                        {
                                            "name": "previous",
                                            "type": "int256"
                                        }
                                    ],
                                    "name": "balances",
                                    "type": "tuple"
                                },
                                {
                                    "components": [
                                        {
                                            "components": [
                                                {
                                                    "name": "amount",
                                                    "type": "int256"
                                                },
                                                {
                                                    "components": [
                                                        {
                                                            "name": "ct",
                                                            "type": "address"
                                                        },
                                                        {
                                                            "name": "id",
                                                            "type": "uint256"
                                                        }
                                                    ],
                                                    "name": "currency",
                                                    "type": "tuple"
                                                }
                                            ],
                                            "name": "single",
                                            "type": "tuple"
                                        },
                                        {
                                            "components": [
                                                {
                                                    "name": "amount",
                                                    "type": "int256"
                                                },
                                                {
                                                    "components": [
                                                        {
                                                            "name": "ct",
                                                            "type": "address"
                                                        },
                                                        {
                                                            "name": "id",
                                                            "type": "uint256"
                                                        }
                                                    ],
                                                    "name": "currency",
                                                    "type": "tuple"
                                                }
                                            ],
                                            "name": "total",
                                            "type": "tuple[]"
                                        }
                                    ],
                                    "name": "fees",
                                    "type": "tuple"
                                }
                            ],
                            "name": "sender",
                            "type": "tuple"
                        },
                        {
                            "components": [
                                {
                                    "name": "nonce",
                                    "type": "uint256"
                                },
                                {
                                    "name": "wallet",
                                    "type": "address"
                                },
                                {
                                    "components": [
                                        {
                                            "name": "current",
                                            "type": "int256"
                                        },
                                        {
                                            "name": "previous",
                                            "type": "int256"
                                        }
                                    ],
                                    "name": "balances",
                                    "type": "tuple"
                                },
                                {
                                    "components": [
                                        {
                                            "components": [
                                                {
                                                    "name": "amount",
                                                    "type": "int256"
                                                },
                                                {
                                                    "components": [
                                                        {
                                                            "name": "ct",
                                                            "type": "address"
                                                        },
                                                        {
                                                            "name": "id",
                                                            "type": "uint256"
                                                        }
                                                    ],
                                                    "name": "currency",
                                                    "type": "tuple"
                                                }
                                            ],
                                            "name": "total",
                                            "type": "tuple[]"
                                        }
                                    ],
                                    "name": "fees",
                                    "type": "tuple"
                                }
                            ],
                            "name": "recipient",
                            "type": "tuple"
                        },
                        {
                            "components": [
                                {
                                    "name": "single",
                                    "type": "int256"
                                },
                                {
                                    "name": "total",
                                    "type": "int256"
                                }
                            ],
                            "name": "transfers",
                            "type": "tuple"
                        },
                        {
                            "components": [
                                {
                                    "components": [
                                        {
                                            "name": "hash",
                                            "type": "bytes32"
                                        },
                                        {
                                            "components": [
                                                {
                                                    "name": "r",
                                                    "type": "bytes32"
                                                },
                                                {
                                                    "name": "s",
                                                    "type": "bytes32"
                                                },
                                                {
                                                    "name": "v",
                                                    "type": "uint8"
                                                }
                                            ],
                                            "name": "signature",
                                            "type": "tuple"
                                        }
                                    ],
                                    "name": "wallet",
                                    "type": "tuple"
                                },
                                {
                                    "components": [
                                        {
                                            "name": "hash",
                                            "type": "bytes32"
                                        },
                                        {
                                            "components": [
                                                {
                                                    "name": "r",
                                                    "type": "bytes32"
                                                },
                                                {
                                                    "name": "s",
                                                    "type": "bytes32"
                                                },
                                                {
                                                    "name": "v",
                                                    "type": "uint8"
                                                }
                                            ],
                                            "name": "signature",
                                            "type": "tuple"
                                        }
                                    ],
                                    "name": "exchange",
                                    "type": "tuple"
                                }
                            ],
                            "name": "seals",
                            "type": "tuple"
                        },
                        {
                            "name": "blockNumber",
                            "type": "uint256"
                        }
                    ],
                    "indexed": false,
                    "name": "payment",
                    "type": "tuple"
                },
                {
                    "indexed": false,
                    "name": "wallet",
                    "type": "address"
                }
            ],
            "name": "StartChallengeFromPaymentEvent",
            "type": "event"
        },
        {
            "anonymous": false,
            "inputs": [
                {
                    "indexed": false,
                    "name": "oldAddress",
                    "type": "address"
                },
                {
                    "indexed": false,
                    "name": "newAddress",
                    "type": "address"
                }
            ],
            "name": "ChangeValidatorEvent",
            "type": "event"
        },
        {
            "anonymous": false,
            "inputs": [
                {
                    "indexed": false,
                    "name": "oldConfiguration",
                    "type": "address"
                },
                {
                    "indexed": false,
                    "name": "newConfiguration",
                    "type": "address"
                }
            ],
            "name": "ChangeConfigurationEvent",
            "type": "event"
        },
        {
            "anonymous": false,
            "inputs": [
                {
                    "indexed": false,
                    "name": "oldDeployer",
                    "type": "address"
                },
                {
                    "indexed": false,
                    "name": "newDeployer",
                    "type": "address"
                }
            ],
            "name": "ChangeDeployerEvent",
            "type": "event"
        },
        {
            "anonymous": false,
            "inputs": [
                {
                    "indexed": false,
                    "name": "oldOperator",
                    "type": "address"
                },
                {
                    "indexed": false,
                    "name": "newOperator",
                    "type": "address"
                }
            ],
            "name": "ChangeOperatorEvent",
            "type": "event"
        },
        {
            "constant": false,
            "inputs": [
                {
                    "name": "newDriipSettlementDispute",
                    "type": "address"
                }
            ],
            "name": "changeDriipSettlementDispute",
            "outputs": [],
            "payable": false,
            "stateMutability": "nonpayable",
            "type": "function"
        },
        {
            "constant": true,
            "inputs": [
                {
                    "name": "wallet",
                    "type": "address"
                }
            ],
            "name": "walletChallengedTradesCount",
            "outputs": [
                {
                    "name": "",
                    "type": "uint256"
                }
            ],
            "payable": false,
            "stateMutability": "view",
            "type": "function"
        },
        {
            "constant": true,
            "inputs": [
                {
                    "name": "wallet",
                    "type": "address"
                }
            ],
            "name": "walletChallengedPaymentsCount",
            "outputs": [
                {
                    "name": "",
                    "type": "uint256"
                }
            ],
            "payable": false,
            "stateMutability": "view",
            "type": "function"
        },
        {
            "constant": true,
            "inputs": [],
            "name": "challengeCandidateOrdersCount",
            "outputs": [
                {
                    "name": "",
                    "type": "uint256"
                }
            ],
            "payable": false,
            "stateMutability": "view",
            "type": "function"
        },
        {
            "constant": true,
            "inputs": [
                {
                    "name": "index",
                    "type": "uint256"
                }
            ],
            "name": "getChallengeCandidateOrder",
            "outputs": [
                {
                    "components": [
                        {
                            "name": "nonce",
                            "type": "uint256"
                        },
                        {
                            "name": "wallet",
                            "type": "address"
                        },
                        {
                            "components": [
                                {
                                    "name": "intention",
                                    "type": "uint8"
                                },
                                {
                                    "name": "amount",
                                    "type": "int256"
                                },
                                {
                                    "components": [
                                        {
                                            "components": [
                                                {
                                                    "name": "ct",
                                                    "type": "address"
                                                },
                                                {
                                                    "name": "id",
                                                    "type": "uint256"
                                                }
                                            ],
                                            "name": "intended",
                                            "type": "tuple"
                                        },
                                        {
                                            "components": [
                                                {
                                                    "name": "ct",
                                                    "type": "address"
                                                },
                                                {
                                                    "name": "id",
                                                    "type": "uint256"
                                                }
                                            ],
                                            "name": "conjugate",
                                            "type": "tuple"
                                        }
                                    ],
                                    "name": "currencies",
                                    "type": "tuple"
                                },
                                {
                                    "name": "rate",
                                    "type": "int256"
                                },
                                {
                                    "components": [
                                        {
                                            "name": "current",
                                            "type": "int256"
                                        },
                                        {
                                            "name": "previous",
                                            "type": "int256"
                                        }
                                    ],
                                    "name": "residuals",
                                    "type": "tuple"
                                }
                            ],
                            "name": "placement",
                            "type": "tuple"
                        },
                        {
                            "components": [
                                {
                                    "components": [
                                        {
                                            "name": "hash",
                                            "type": "bytes32"
                                        },
                                        {
                                            "components": [
                                                {
                                                    "name": "r",
                                                    "type": "bytes32"
                                                },
                                                {
                                                    "name": "s",
                                                    "type": "bytes32"
                                                },
                                                {
                                                    "name": "v",
                                                    "type": "uint8"
                                                }
                                            ],
                                            "name": "signature",
                                            "type": "tuple"
                                        }
                                    ],
                                    "name": "wallet",
                                    "type": "tuple"
                                },
                                {
                                    "components": [
                                        {
                                            "name": "hash",
                                            "type": "bytes32"
                                        },
                                        {
                                            "components": [
                                                {
                                                    "name": "r",
                                                    "type": "bytes32"
                                                },
                                                {
                                                    "name": "s",
                                                    "type": "bytes32"
                                                },
                                                {
                                                    "name": "v",
                                                    "type": "uint8"
                                                }
                                            ],
                                            "name": "signature",
                                            "type": "tuple"
                                        }
                                    ],
                                    "name": "exchange",
                                    "type": "tuple"
                                }
                            ],
                            "name": "seals",
                            "type": "tuple"
                        },
                        {
                            "name": "blockNumber",
                            "type": "uint256"
                        }
                    ],
                    "name": "",
                    "type": "tuple"
                }
            ],
            "payable": false,
            "stateMutability": "view",
            "type": "function"
        },
        {
            "constant": true,
            "inputs": [],
            "name": "challengeCandidateTradesCount",
            "outputs": [
                {
                    "name": "",
                    "type": "uint256"
                }
            ],
            "payable": false,
            "stateMutability": "view",
            "type": "function"
        },
        {
            "constant": true,
            "inputs": [],
            "name": "challengeCandidatePaymentsCount",
            "outputs": [
                {
                    "name": "",
                    "type": "uint256"
                }
            ],
            "payable": false,
            "stateMutability": "view",
            "type": "function"
        },
        {
            "constant": false,
            "inputs": [
                {
                    "components": [
                        {
                            "name": "nonce",
                            "type": "uint256"
                        },
                        {
                            "name": "amount",
                            "type": "int256"
                        },
                        {
                            "components": [
                                {
                                    "components": [
                                        {
                                            "name": "ct",
                                            "type": "address"
                                        },
                                        {
                                            "name": "id",
                                            "type": "uint256"
                                        }
                                    ],
                                    "name": "intended",
                                    "type": "tuple"
                                },
                                {
                                    "components": [
                                        {
                                            "name": "ct",
                                            "type": "address"
                                        },
                                        {
                                            "name": "id",
                                            "type": "uint256"
                                        }
                                    ],
                                    "name": "conjugate",
                                    "type": "tuple"
                                }
                            ],
                            "name": "currencies",
                            "type": "tuple"
                        },
                        {
                            "name": "rate",
                            "type": "int256"
                        },
                        {
                            "components": [
                                {
                                    "name": "nonce",
                                    "type": "uint256"
                                },
                                {
                                    "name": "wallet",
                                    "type": "address"
                                },
                                {
                                    "name": "rollingVolume",
                                    "type": "uint256"
                                },
                                {
                                    "name": "liquidityRole",
                                    "type": "uint8"
                                },
                                {
                                    "components": [
                                        {
                                            "name": "amount",
                                            "type": "int256"
                                        },
                                        {
                                            "components": [
                                                {
                                                    "name": "wallet",
                                                    "type": "bytes32"
                                                },
                                                {
                                                    "name": "exchange",
                                                    "type": "bytes32"
                                                }
                                            ],
                                            "name": "hashes",
                                            "type": "tuple"
                                        },
                                        {
                                            "components": [
                                                {
                                                    "name": "current",
                                                    "type": "int256"
                                                },
                                                {
                                                    "name": "previous",
                                                    "type": "int256"
                                                }
                                            ],
                                            "name": "residuals",
                                            "type": "tuple"
                                        }
                                    ],
                                    "name": "order",
                                    "type": "tuple"
                                },
                                {
                                    "components": [
                                        {
                                            "components": [
                                                {
                                                    "name": "current",
                                                    "type": "int256"
                                                },
                                                {
                                                    "name": "previous",
                                                    "type": "int256"
                                                }
                                            ],
                                            "name": "intended",
                                            "type": "tuple"
                                        },
                                        {
                                            "components": [
                                                {
                                                    "name": "current",
                                                    "type": "int256"
                                                },
                                                {
                                                    "name": "previous",
                                                    "type": "int256"
                                                }
                                            ],
                                            "name": "conjugate",
                                            "type": "tuple"
                                        }
                                    ],
                                    "name": "balances",
                                    "type": "tuple"
                                },
                                {
                                    "components": [
                                        {
                                            "components": [
                                                {
                                                    "name": "amount",
                                                    "type": "int256"
                                                },
                                                {
                                                    "components": [
                                                        {
                                                            "name": "ct",
                                                            "type": "address"
                                                        },
                                                        {
                                                            "name": "id",
                                                            "type": "uint256"
                                                        }
                                                    ],
                                                    "name": "currency",
                                                    "type": "tuple"
                                                }
                                            ],
                                            "name": "single",
                                            "type": "tuple"
                                        },
                                        {
                                            "components": [
                                                {
                                                    "name": "amount",
                                                    "type": "int256"
                                                },
                                                {
                                                    "components": [
                                                        {
                                                            "name": "ct",
                                                            "type": "address"
                                                        },
                                                        {
                                                            "name": "id",
                                                            "type": "uint256"
                                                        }
                                                    ],
                                                    "name": "currency",
                                                    "type": "tuple"
                                                }
                                            ],
                                            "name": "total",
                                            "type": "tuple[]"
                                        }
                                    ],
                                    "name": "fees",
                                    "type": "tuple"
                                }
                            ],
                            "name": "buyer",
                            "type": "tuple"
                        },
                        {
                            "components": [
                                {
                                    "name": "nonce",
                                    "type": "uint256"
                                },
                                {
                                    "name": "wallet",
                                    "type": "address"
                                },
                                {
                                    "name": "rollingVolume",
                                    "type": "uint256"
                                },
                                {
                                    "name": "liquidityRole",
                                    "type": "uint8"
                                },
                                {
                                    "components": [
                                        {
                                            "name": "amount",
                                            "type": "int256"
                                        },
                                        {
                                            "components": [
                                                {
                                                    "name": "wallet",
                                                    "type": "bytes32"
                                                },
                                                {
                                                    "name": "exchange",
                                                    "type": "bytes32"
                                                }
                                            ],
                                            "name": "hashes",
                                            "type": "tuple"
                                        },
                                        {
                                            "components": [
                                                {
                                                    "name": "current",
                                                    "type": "int256"
                                                },
                                                {
                                                    "name": "previous",
                                                    "type": "int256"
                                                }
                                            ],
                                            "name": "residuals",
                                            "type": "tuple"
                                        }
                                    ],
                                    "name": "order",
                                    "type": "tuple"
                                },
                                {
                                    "components": [
                                        {
                                            "components": [
                                                {
                                                    "name": "current",
                                                    "type": "int256"
                                                },
                                                {
                                                    "name": "previous",
                                                    "type": "int256"
                                                }
                                            ],
                                            "name": "intended",
                                            "type": "tuple"
                                        },
                                        {
                                            "components": [
                                                {
                                                    "name": "current",
                                                    "type": "int256"
                                                },
                                                {
                                                    "name": "previous",
                                                    "type": "int256"
                                                }
                                            ],
                                            "name": "conjugate",
                                            "type": "tuple"
                                        }
                                    ],
                                    "name": "balances",
                                    "type": "tuple"
                                },
                                {
                                    "components": [
                                        {
                                            "components": [
                                                {
                                                    "name": "amount",
                                                    "type": "int256"
                                                },
                                                {
                                                    "components": [
                                                        {
                                                            "name": "ct",
                                                            "type": "address"
                                                        },
                                                        {
                                                            "name": "id",
                                                            "type": "uint256"
                                                        }
                                                    ],
                                                    "name": "currency",
                                                    "type": "tuple"
                                                }
                                            ],
                                            "name": "single",
                                            "type": "tuple"
                                        },
                                        {
                                            "components": [
                                                {
                                                    "name": "amount",
                                                    "type": "int256"
                                                },
                                                {
                                                    "components": [
                                                        {
                                                            "name": "ct",
                                                            "type": "address"
                                                        },
                                                        {
                                                            "name": "id",
                                                            "type": "uint256"
                                                        }
                                                    ],
                                                    "name": "currency",
                                                    "type": "tuple"
                                                }
                                            ],
                                            "name": "total",
                                            "type": "tuple[]"
                                        }
                                    ],
                                    "name": "fees",
                                    "type": "tuple"
                                }
                            ],
                            "name": "seller",
                            "type": "tuple"
                        },
                        {
                            "components": [
                                {
                                    "components": [
                                        {
                                            "name": "single",
                                            "type": "int256"
                                        },
                                        {
                                            "name": "total",
                                            "type": "int256"
                                        }
                                    ],
                                    "name": "intended",
                                    "type": "tuple"
                                },
                                {
                                    "components": [
                                        {
                                            "name": "single",
                                            "type": "int256"
                                        },
                                        {
                                            "name": "total",
                                            "type": "int256"
                                        }
                                    ],
                                    "name": "conjugate",
                                    "type": "tuple"
                                }
                            ],
                            "name": "transfers",
                            "type": "tuple"
                        },
                        {
                            "components": [
                                {
                                    "name": "hash",
                                    "type": "bytes32"
                                },
                                {
                                    "components": [
                                        {
                                            "name": "r",
                                            "type": "bytes32"
                                        },
                                        {
                                            "name": "s",
                                            "type": "bytes32"
                                        },
                                        {
                                            "name": "v",
                                            "type": "uint8"
                                        }
                                    ],
                                    "name": "signature",
                                    "type": "tuple"
                                }
                            ],
                            "name": "seal",
                            "type": "tuple"
                        },
                        {
                            "name": "blockNumber",
                            "type": "uint256"
                        }
                    ],
                    "name": "trade",
                    "type": "tuple"
                },
                {
                    "name": "wallet",
                    "type": "address"
                },
                {
                    "name": "intendedStageAmount",
                    "type": "int256"
                },
                {
                    "name": "conjugateStageAmount",
                    "type": "int256"
                }
            ],
            "name": "startChallengeFromTrade",
            "outputs": [],
            "payable": false,
            "stateMutability": "nonpayable",
            "type": "function"
        },
        {
            "constant": false,
            "inputs": [
                {
                    "components": [
                        {
                            "name": "nonce",
                            "type": "uint256"
                        },
                        {
                            "name": "amount",
                            "type": "int256"
                        },
                        {
                            "components": [
                                {
                                    "name": "ct",
                                    "type": "address"
                                },
                                {
                                    "name": "id",
                                    "type": "uint256"
                                }
                            ],
                            "name": "currency",
                            "type": "tuple"
                        },
                        {
                            "components": [
                                {
                                    "name": "nonce",
                                    "type": "uint256"
                                },
                                {
                                    "name": "wallet",
                                    "type": "address"
                                },
                                {
                                    "components": [
                                        {
                                            "name": "current",
                                            "type": "int256"
                                        },
                                        {
                                            "name": "previous",
                                            "type": "int256"
                                        }
                                    ],
                                    "name": "balances",
                                    "type": "tuple"
                                },
                                {
                                    "components": [
                                        {
                                            "components": [
                                                {
                                                    "name": "amount",
                                                    "type": "int256"
                                                },
                                                {
                                                    "components": [
                                                        {
                                                            "name": "ct",
                                                            "type": "address"
                                                        },
                                                        {
                                                            "name": "id",
                                                            "type": "uint256"
                                                        }
                                                    ],
                                                    "name": "currency",
                                                    "type": "tuple"
                                                }
                                            ],
                                            "name": "single",
                                            "type": "tuple"
                                        },
                                        {
                                            "components": [
                                                {
                                                    "name": "amount",
                                                    "type": "int256"
                                                },
                                                {
                                                    "components": [
                                                        {
                                                            "name": "ct",
                                                            "type": "address"
                                                        },
                                                        {
                                                            "name": "id",
                                                            "type": "uint256"
                                                        }
                                                    ],
                                                    "name": "currency",
                                                    "type": "tuple"
                                                }
                                            ],
                                            "name": "total",
                                            "type": "tuple[]"
                                        }
                                    ],
                                    "name": "fees",
                                    "type": "tuple"
                                }
                            ],
                            "name": "sender",
                            "type": "tuple"
                        },
                        {
                            "components": [
                                {
                                    "name": "nonce",
                                    "type": "uint256"
                                },
                                {
                                    "name": "wallet",
                                    "type": "address"
                                },
                                {
                                    "components": [
                                        {
                                            "name": "current",
                                            "type": "int256"
                                        },
                                        {
                                            "name": "previous",
                                            "type": "int256"
                                        }
                                    ],
                                    "name": "balances",
                                    "type": "tuple"
                                },
                                {
                                    "components": [
                                        {
                                            "components": [
                                                {
                                                    "name": "amount",
                                                    "type": "int256"
                                                },
                                                {
                                                    "components": [
                                                        {
                                                            "name": "ct",
                                                            "type": "address"
                                                        },
                                                        {
                                                            "name": "id",
                                                            "type": "uint256"
                                                        }
                                                    ],
                                                    "name": "currency",
                                                    "type": "tuple"
                                                }
                                            ],
                                            "name": "total",
                                            "type": "tuple[]"
                                        }
                                    ],
                                    "name": "fees",
                                    "type": "tuple"
                                }
                            ],
                            "name": "recipient",
                            "type": "tuple"
                        },
                        {
                            "components": [
                                {
                                    "name": "single",
                                    "type": "int256"
                                },
                                {
                                    "name": "total",
                                    "type": "int256"
                                }
                            ],
                            "name": "transfers",
                            "type": "tuple"
                        },
                        {
                            "components": [
                                {
                                    "components": [
                                        {
                                            "name": "hash",
                                            "type": "bytes32"
                                        },
                                        {
                                            "components": [
                                                {
                                                    "name": "r",
                                                    "type": "bytes32"
                                                },
                                                {
                                                    "name": "s",
                                                    "type": "bytes32"
                                                },
                                                {
                                                    "name": "v",
                                                    "type": "uint8"
                                                }
                                            ],
                                            "name": "signature",
                                            "type": "tuple"
                                        }
                                    ],
                                    "name": "wallet",
                                    "type": "tuple"
                                },
                                {
                                    "components": [
                                        {
                                            "name": "hash",
                                            "type": "bytes32"
                                        },
                                        {
                                            "components": [
                                                {
                                                    "name": "r",
                                                    "type": "bytes32"
                                                },
                                                {
                                                    "name": "s",
                                                    "type": "bytes32"
                                                },
                                                {
                                                    "name": "v",
                                                    "type": "uint8"
                                                }
                                            ],
                                            "name": "signature",
                                            "type": "tuple"
                                        }
                                    ],
                                    "name": "exchange",
                                    "type": "tuple"
                                }
                            ],
                            "name": "seals",
                            "type": "tuple"
                        },
                        {
                            "name": "blockNumber",
                            "type": "uint256"
                        }
                    ],
                    "name": "payment",
                    "type": "tuple"
                },
                {
                    "name": "wallet",
                    "type": "address"
                },
                {
                    "name": "stageAmount",
                    "type": "int256"
                }
            ],
            "name": "startChallengeFromPayment",
            "outputs": [],
            "payable": false,
            "stateMutability": "nonpayable",
            "type": "function"
        },
        {
            "constant": true,
            "inputs": [
                {
                    "name": "wallet",
                    "type": "address"
                }
            ],
            "name": "getPhase",
            "outputs": [
                {
                    "name": "",
                    "type": "uint256"
                },
                {
                    "name": "",
                    "type": "uint8"
                }
            ],
            "payable": false,
            "stateMutability": "view",
            "type": "function"
        },
        {
            "constant": true,
            "inputs": [
                {
                    "name": "wallet",
                    "type": "address"
                }
            ],
            "name": "getChallengeNonce",
            "outputs": [
                {
                    "name": "",
                    "type": "uint256"
                }
            ],
            "payable": false,
            "stateMutability": "view",
            "type": "function"
        },
        {
            "constant": true,
            "inputs": [
                {
                    "name": "wallet",
                    "type": "address"
                }
            ],
            "name": "getChallengeStatus",
            "outputs": [
                {
                    "name": "",
                    "type": "uint8"
                }
            ],
            "payable": false,
            "stateMutability": "view",
            "type": "function"
        },
        {
            "constant": true,
            "inputs": [
                {
                    "name": "wallet",
                    "type": "address"
                }
            ],
            "name": "getChallengeIntendedStage",
            "outputs": [
                {
                    "components": [
                        {
                            "name": "amount",
                            "type": "int256"
                        },
                        {
                            "components": [
                                {
                                    "name": "ct",
                                    "type": "address"
                                },
                                {
                                    "name": "id",
                                    "type": "uint256"
                                }
                            ],
                            "name": "currency",
                            "type": "tuple"
                        }
                    ],
                    "name": "",
                    "type": "tuple"
                }
            ],
            "payable": false,
            "stateMutability": "view",
            "type": "function"
        },
        {
            "constant": true,
            "inputs": [
                {
                    "name": "wallet",
                    "type": "address"
                }
            ],
            "name": "getChallengeConjugateStage",
            "outputs": [
                {
                    "components": [
                        {
                            "name": "amount",
                            "type": "int256"
                        },
                        {
                            "components": [
                                {
                                    "name": "ct",
                                    "type": "address"
                                },
                                {
                                    "name": "id",
                                    "type": "uint256"
                                }
                            ],
                            "name": "currency",
                            "type": "tuple"
                        }
                    ],
                    "name": "",
                    "type": "tuple"
                }
            ],
            "payable": false,
            "stateMutability": "view",
            "type": "function"
        },
        {
            "constant": true,
            "inputs": [
                {
                    "name": "wallet",
                    "type": "address"
                }
            ],
            "name": "getChallengeChallenger",
            "outputs": [
                {
                    "name": "",
                    "type": "address"
                }
            ],
            "payable": false,
            "stateMutability": "view",
            "type": "function"
        },
        {
            "constant": false,
            "inputs": [
                {
                    "components": [
                        {
                            "name": "nonce",
                            "type": "uint256"
                        },
                        {
                            "name": "wallet",
                            "type": "address"
                        },
                        {
                            "components": [
                                {
                                    "name": "intention",
                                    "type": "uint8"
                                },
                                {
                                    "name": "amount",
                                    "type": "int256"
                                },
                                {
                                    "components": [
                                        {
                                            "components": [
                                                {
                                                    "name": "ct",
                                                    "type": "address"
                                                },
                                                {
                                                    "name": "id",
                                                    "type": "uint256"
                                                }
                                            ],
                                            "name": "intended",
                                            "type": "tuple"
                                        },
                                        {
                                            "components": [
                                                {
                                                    "name": "ct",
                                                    "type": "address"
                                                },
                                                {
                                                    "name": "id",
                                                    "type": "uint256"
                                                }
                                            ],
                                            "name": "conjugate",
                                            "type": "tuple"
                                        }
                                    ],
                                    "name": "currencies",
                                    "type": "tuple"
                                },
                                {
                                    "name": "rate",
                                    "type": "int256"
                                },
                                {
                                    "components": [
                                        {
                                            "name": "current",
                                            "type": "int256"
                                        },
                                        {
                                            "name": "previous",
                                            "type": "int256"
                                        }
                                    ],
                                    "name": "residuals",
                                    "type": "tuple"
                                }
                            ],
                            "name": "placement",
                            "type": "tuple"
                        },
                        {
                            "components": [
                                {
                                    "components": [
                                        {
                                            "name": "hash",
                                            "type": "bytes32"
                                        },
                                        {
                                            "components": [
                                                {
                                                    "name": "r",
                                                    "type": "bytes32"
                                                },
                                                {
                                                    "name": "s",
                                                    "type": "bytes32"
                                                },
                                                {
                                                    "name": "v",
                                                    "type": "uint8"
                                                }
                                            ],
                                            "name": "signature",
                                            "type": "tuple"
                                        }
                                    ],
                                    "name": "wallet",
                                    "type": "tuple"
                                },
                                {
                                    "components": [
                                        {
                                            "name": "hash",
                                            "type": "bytes32"
                                        },
                                        {
                                            "components": [
                                                {
                                                    "name": "r",
                                                    "type": "bytes32"
                                                },
                                                {
                                                    "name": "s",
                                                    "type": "bytes32"
                                                },
                                                {
                                                    "name": "v",
                                                    "type": "uint8"
                                                }
                                            ],
                                            "name": "signature",
                                            "type": "tuple"
                                        }
                                    ],
                                    "name": "exchange",
                                    "type": "tuple"
                                }
                            ],
                            "name": "seals",
                            "type": "tuple"
                        },
                        {
                            "name": "blockNumber",
                            "type": "uint256"
                        }
                    ],
                    "name": "order",
                    "type": "tuple"
                }
            ],
            "name": "challengeByOrder",
            "outputs": [],
            "payable": false,
            "stateMutability": "nonpayable",
            "type": "function"
        },
        {
            "constant": false,
            "inputs": [
                {
                    "components": [
                        {
                            "name": "nonce",
                            "type": "uint256"
                        },
                        {
                            "name": "wallet",
                            "type": "address"
                        },
                        {
                            "components": [
                                {
                                    "name": "intention",
                                    "type": "uint8"
                                },
                                {
                                    "name": "amount",
                                    "type": "int256"
                                },
                                {
                                    "components": [
                                        {
                                            "components": [
                                                {
                                                    "name": "ct",
                                                    "type": "address"
                                                },
                                                {
                                                    "name": "id",
                                                    "type": "uint256"
                                                }
                                            ],
                                            "name": "intended",
                                            "type": "tuple"
                                        },
                                        {
                                            "components": [
                                                {
                                                    "name": "ct",
                                                    "type": "address"
                                                },
                                                {
                                                    "name": "id",
                                                    "type": "uint256"
                                                }
                                            ],
                                            "name": "conjugate",
                                            "type": "tuple"
                                        }
                                    ],
                                    "name": "currencies",
                                    "type": "tuple"
                                },
                                {
                                    "name": "rate",
                                    "type": "int256"
                                },
                                {
                                    "components": [
                                        {
                                            "name": "current",
                                            "type": "int256"
                                        },
                                        {
                                            "name": "previous",
                                            "type": "int256"
                                        }
                                    ],
                                    "name": "residuals",
                                    "type": "tuple"
                                }
                            ],
                            "name": "placement",
                            "type": "tuple"
                        },
                        {
                            "components": [
                                {
                                    "components": [
                                        {
                                            "name": "hash",
                                            "type": "bytes32"
                                        },
                                        {
                                            "components": [
                                                {
                                                    "name": "r",
                                                    "type": "bytes32"
                                                },
                                                {
                                                    "name": "s",
                                                    "type": "bytes32"
                                                },
                                                {
                                                    "name": "v",
                                                    "type": "uint8"
                                                }
                                            ],
                                            "name": "signature",
                                            "type": "tuple"
                                        }
                                    ],
                                    "name": "wallet",
                                    "type": "tuple"
                                },
                                {
                                    "components": [
                                        {
                                            "name": "hash",
                                            "type": "bytes32"
                                        },
                                        {
                                            "components": [
                                                {
                                                    "name": "r",
                                                    "type": "bytes32"
                                                },
                                                {
                                                    "name": "s",
                                                    "type": "bytes32"
                                                },
                                                {
                                                    "name": "v",
                                                    "type": "uint8"
                                                }
                                            ],
                                            "name": "signature",
                                            "type": "tuple"
                                        }
                                    ],
                                    "name": "exchange",
                                    "type": "tuple"
                                }
                            ],
                            "name": "seals",
                            "type": "tuple"
                        },
                        {
                            "name": "blockNumber",
                            "type": "uint256"
                        }
                    ],
                    "name": "order",
                    "type": "tuple"
                },
                {
                    "components": [
                        {
                            "name": "nonce",
                            "type": "uint256"
                        },
                        {
                            "name": "amount",
                            "type": "int256"
                        },
                        {
                            "components": [
                                {
                                    "components": [
                                        {
                                            "name": "ct",
                                            "type": "address"
                                        },
                                        {
                                            "name": "id",
                                            "type": "uint256"
                                        }
                                    ],
                                    "name": "intended",
                                    "type": "tuple"
                                },
                                {
                                    "components": [
                                        {
                                            "name": "ct",
                                            "type": "address"
                                        },
                                        {
                                            "name": "id",
                                            "type": "uint256"
                                        }
                                    ],
                                    "name": "conjugate",
                                    "type": "tuple"
                                }
                            ],
                            "name": "currencies",
                            "type": "tuple"
                        },
                        {
                            "name": "rate",
                            "type": "int256"
                        },
                        {
                            "components": [
                                {
                                    "name": "nonce",
                                    "type": "uint256"
                                },
                                {
                                    "name": "wallet",
                                    "type": "address"
                                },
                                {
                                    "name": "rollingVolume",
                                    "type": "uint256"
                                },
                                {
                                    "name": "liquidityRole",
                                    "type": "uint8"
                                },
                                {
                                    "components": [
                                        {
                                            "name": "amount",
                                            "type": "int256"
                                        },
                                        {
                                            "components": [
                                                {
                                                    "name": "wallet",
                                                    "type": "bytes32"
                                                },
                                                {
                                                    "name": "exchange",
                                                    "type": "bytes32"
                                                }
                                            ],
                                            "name": "hashes",
                                            "type": "tuple"
                                        },
                                        {
                                            "components": [
                                                {
                                                    "name": "current",
                                                    "type": "int256"
                                                },
                                                {
                                                    "name": "previous",
                                                    "type": "int256"
                                                }
                                            ],
                                            "name": "residuals",
                                            "type": "tuple"
                                        }
                                    ],
                                    "name": "order",
                                    "type": "tuple"
                                },
                                {
                                    "components": [
                                        {
                                            "components": [
                                                {
                                                    "name": "current",
                                                    "type": "int256"
                                                },
                                                {
                                                    "name": "previous",
                                                    "type": "int256"
                                                }
                                            ],
                                            "name": "intended",
                                            "type": "tuple"
                                        },
                                        {
                                            "components": [
                                                {
                                                    "name": "current",
                                                    "type": "int256"
                                                },
                                                {
                                                    "name": "previous",
                                                    "type": "int256"
                                                }
                                            ],
                                            "name": "conjugate",
                                            "type": "tuple"
                                        }
                                    ],
                                    "name": "balances",
                                    "type": "tuple"
                                },
                                {
                                    "components": [
                                        {
                                            "components": [
                                                {
                                                    "name": "amount",
                                                    "type": "int256"
                                                },
                                                {
                                                    "components": [
                                                        {
                                                            "name": "ct",
                                                            "type": "address"
                                                        },
                                                        {
                                                            "name": "id",
                                                            "type": "uint256"
                                                        }
                                                    ],
                                                    "name": "currency",
                                                    "type": "tuple"
                                                }
                                            ],
                                            "name": "single",
                                            "type": "tuple"
                                        },
                                        {
                                            "components": [
                                                {
                                                    "name": "amount",
                                                    "type": "int256"
                                                },
                                                {
                                                    "components": [
                                                        {
                                                            "name": "ct",
                                                            "type": "address"
                                                        },
                                                        {
                                                            "name": "id",
                                                            "type": "uint256"
                                                        }
                                                    ],
                                                    "name": "currency",
                                                    "type": "tuple"
                                                }
                                            ],
                                            "name": "total",
                                            "type": "tuple[]"
                                        }
                                    ],
                                    "name": "fees",
                                    "type": "tuple"
                                }
                            ],
                            "name": "buyer",
                            "type": "tuple"
                        },
                        {
                            "components": [
                                {
                                    "name": "nonce",
                                    "type": "uint256"
                                },
                                {
                                    "name": "wallet",
                                    "type": "address"
                                },
                                {
                                    "name": "rollingVolume",
                                    "type": "uint256"
                                },
                                {
                                    "name": "liquidityRole",
                                    "type": "uint8"
                                },
                                {
                                    "components": [
                                        {
                                            "name": "amount",
                                            "type": "int256"
                                        },
                                        {
                                            "components": [
                                                {
                                                    "name": "wallet",
                                                    "type": "bytes32"
                                                },
                                                {
                                                    "name": "exchange",
                                                    "type": "bytes32"
                                                }
                                            ],
                                            "name": "hashes",
                                            "type": "tuple"
                                        },
                                        {
                                            "components": [
                                                {
                                                    "name": "current",
                                                    "type": "int256"
                                                },
                                                {
                                                    "name": "previous",
                                                    "type": "int256"
                                                }
                                            ],
                                            "name": "residuals",
                                            "type": "tuple"
                                        }
                                    ],
                                    "name": "order",
                                    "type": "tuple"
                                },
                                {
                                    "components": [
                                        {
                                            "components": [
                                                {
                                                    "name": "current",
                                                    "type": "int256"
                                                },
                                                {
                                                    "name": "previous",
                                                    "type": "int256"
                                                }
                                            ],
                                            "name": "intended",
                                            "type": "tuple"
                                        },
                                        {
                                            "components": [
                                                {
                                                    "name": "current",
                                                    "type": "int256"
                                                },
                                                {
                                                    "name": "previous",
                                                    "type": "int256"
                                                }
                                            ],
                                            "name": "conjugate",
                                            "type": "tuple"
                                        }
                                    ],
                                    "name": "balances",
                                    "type": "tuple"
                                },
                                {
                                    "components": [
                                        {
                                            "components": [
                                                {
                                                    "name": "amount",
                                                    "type": "int256"
                                                },
                                                {
                                                    "components": [
                                                        {
                                                            "name": "ct",
                                                            "type": "address"
                                                        },
                                                        {
                                                            "name": "id",
                                                            "type": "uint256"
                                                        }
                                                    ],
                                                    "name": "currency",
                                                    "type": "tuple"
                                                }
                                            ],
                                            "name": "single",
                                            "type": "tuple"
                                        },
                                        {
                                            "components": [
                                                {
                                                    "name": "amount",
                                                    "type": "int256"
                                                },
                                                {
                                                    "components": [
                                                        {
                                                            "name": "ct",
                                                            "type": "address"
                                                        },
                                                        {
                                                            "name": "id",
                                                            "type": "uint256"
                                                        }
                                                    ],
                                                    "name": "currency",
                                                    "type": "tuple"
                                                }
                                            ],
                                            "name": "total",
                                            "type": "tuple[]"
                                        }
                                    ],
                                    "name": "fees",
                                    "type": "tuple"
                                }
                            ],
                            "name": "seller",
                            "type": "tuple"
                        },
                        {
                            "components": [
                                {
                                    "components": [
                                        {
                                            "name": "single",
                                            "type": "int256"
                                        },
                                        {
                                            "name": "total",
                                            "type": "int256"
                                        }
                                    ],
                                    "name": "intended",
                                    "type": "tuple"
                                },
                                {
                                    "components": [
                                        {
                                            "name": "single",
                                            "type": "int256"
                                        },
                                        {
                                            "name": "total",
                                            "type": "int256"
                                        }
                                    ],
                                    "name": "conjugate",
                                    "type": "tuple"
                                }
                            ],
                            "name": "transfers",
                            "type": "tuple"
                        },
                        {
                            "components": [
                                {
                                    "name": "hash",
                                    "type": "bytes32"
                                },
                                {
                                    "components": [
                                        {
                                            "name": "r",
                                            "type": "bytes32"
                                        },
                                        {
                                            "name": "s",
                                            "type": "bytes32"
                                        },
                                        {
                                            "name": "v",
                                            "type": "uint8"
                                        }
                                    ],
                                    "name": "signature",
                                    "type": "tuple"
                                }
                            ],
                            "name": "seal",
                            "type": "tuple"
                        },
                        {
                            "name": "blockNumber",
                            "type": "uint256"
                        }
                    ],
                    "name": "trade",
                    "type": "tuple"
                }
            ],
            "name": "unchallengeOrderCandidateByTrade",
            "outputs": [],
            "payable": false,
            "stateMutability": "nonpayable",
            "type": "function"
        },
        {
            "constant": false,
            "inputs": [
                {
                    "components": [
                        {
                            "name": "nonce",
                            "type": "uint256"
                        },
                        {
                            "name": "amount",
                            "type": "int256"
                        },
                        {
                            "components": [
                                {
                                    "components": [
                                        {
                                            "name": "ct",
                                            "type": "address"
                                        },
                                        {
                                            "name": "id",
                                            "type": "uint256"
                                        }
                                    ],
                                    "name": "intended",
                                    "type": "tuple"
                                },
                                {
                                    "components": [
                                        {
                                            "name": "ct",
                                            "type": "address"
                                        },
                                        {
                                            "name": "id",
                                            "type": "uint256"
                                        }
                                    ],
                                    "name": "conjugate",
                                    "type": "tuple"
                                }
                            ],
                            "name": "currencies",
                            "type": "tuple"
                        },
                        {
                            "name": "rate",
                            "type": "int256"
                        },
                        {
                            "components": [
                                {
                                    "name": "nonce",
                                    "type": "uint256"
                                },
                                {
                                    "name": "wallet",
                                    "type": "address"
                                },
                                {
                                    "name": "rollingVolume",
                                    "type": "uint256"
                                },
                                {
                                    "name": "liquidityRole",
                                    "type": "uint8"
                                },
                                {
                                    "components": [
                                        {
                                            "name": "amount",
                                            "type": "int256"
                                        },
                                        {
                                            "components": [
                                                {
                                                    "name": "wallet",
                                                    "type": "bytes32"
                                                },
                                                {
                                                    "name": "exchange",
                                                    "type": "bytes32"
                                                }
                                            ],
                                            "name": "hashes",
                                            "type": "tuple"
                                        },
                                        {
                                            "components": [
                                                {
                                                    "name": "current",
                                                    "type": "int256"
                                                },
                                                {
                                                    "name": "previous",
                                                    "type": "int256"
                                                }
                                            ],
                                            "name": "residuals",
                                            "type": "tuple"
                                        }
                                    ],
                                    "name": "order",
                                    "type": "tuple"
                                },
                                {
                                    "components": [
                                        {
                                            "components": [
                                                {
                                                    "name": "current",
                                                    "type": "int256"
                                                },
                                                {
                                                    "name": "previous",
                                                    "type": "int256"
                                                }
                                            ],
                                            "name": "intended",
                                            "type": "tuple"
                                        },
                                        {
                                            "components": [
                                                {
                                                    "name": "current",
                                                    "type": "int256"
                                                },
                                                {
                                                    "name": "previous",
                                                    "type": "int256"
                                                }
                                            ],
                                            "name": "conjugate",
                                            "type": "tuple"
                                        }
                                    ],
                                    "name": "balances",
                                    "type": "tuple"
                                },
                                {
                                    "components": [
                                        {
                                            "components": [
                                                {
                                                    "name": "amount",
                                                    "type": "int256"
                                                },
                                                {
                                                    "components": [
                                                        {
                                                            "name": "ct",
                                                            "type": "address"
                                                        },
                                                        {
                                                            "name": "id",
                                                            "type": "uint256"
                                                        }
                                                    ],
                                                    "name": "currency",
                                                    "type": "tuple"
                                                }
                                            ],
                                            "name": "single",
                                            "type": "tuple"
                                        },
                                        {
                                            "components": [
                                                {
                                                    "name": "amount",
                                                    "type": "int256"
                                                },
                                                {
                                                    "components": [
                                                        {
                                                            "name": "ct",
                                                            "type": "address"
                                                        },
                                                        {
                                                            "name": "id",
                                                            "type": "uint256"
                                                        }
                                                    ],
                                                    "name": "currency",
                                                    "type": "tuple"
                                                }
                                            ],
                                            "name": "total",
                                            "type": "tuple[]"
                                        }
                                    ],
                                    "name": "fees",
                                    "type": "tuple"
                                }
                            ],
                            "name": "buyer",
                            "type": "tuple"
                        },
                        {
                            "components": [
                                {
                                    "name": "nonce",
                                    "type": "uint256"
                                },
                                {
                                    "name": "wallet",
                                    "type": "address"
                                },
                                {
                                    "name": "rollingVolume",
                                    "type": "uint256"
                                },
                                {
                                    "name": "liquidityRole",
                                    "type": "uint8"
                                },
                                {
                                    "components": [
                                        {
                                            "name": "amount",
                                            "type": "int256"
                                        },
                                        {
                                            "components": [
                                                {
                                                    "name": "wallet",
                                                    "type": "bytes32"
                                                },
                                                {
                                                    "name": "exchange",
                                                    "type": "bytes32"
                                                }
                                            ],
                                            "name": "hashes",
                                            "type": "tuple"
                                        },
                                        {
                                            "components": [
                                                {
                                                    "name": "current",
                                                    "type": "int256"
                                                },
                                                {
                                                    "name": "previous",
                                                    "type": "int256"
                                                }
                                            ],
                                            "name": "residuals",
                                            "type": "tuple"
                                        }
                                    ],
                                    "name": "order",
                                    "type": "tuple"
                                },
                                {
                                    "components": [
                                        {
                                            "components": [
                                                {
                                                    "name": "current",
                                                    "type": "int256"
                                                },
                                                {
                                                    "name": "previous",
                                                    "type": "int256"
                                                }
                                            ],
                                            "name": "intended",
                                            "type": "tuple"
                                        },
                                        {
                                            "components": [
                                                {
                                                    "name": "current",
                                                    "type": "int256"
                                                },
                                                {
                                                    "name": "previous",
                                                    "type": "int256"
                                                }
                                            ],
                                            "name": "conjugate",
                                            "type": "tuple"
                                        }
                                    ],
                                    "name": "balances",
                                    "type": "tuple"
                                },
                                {
                                    "components": [
                                        {
                                            "components": [
                                                {
                                                    "name": "amount",
                                                    "type": "int256"
                                                },
                                                {
                                                    "components": [
                                                        {
                                                            "name": "ct",
                                                            "type": "address"
                                                        },
                                                        {
                                                            "name": "id",
                                                            "type": "uint256"
                                                        }
                                                    ],
                                                    "name": "currency",
                                                    "type": "tuple"
                                                }
                                            ],
                                            "name": "single",
                                            "type": "tuple"
                                        },
                                        {
                                            "components": [
                                                {
                                                    "name": "amount",
                                                    "type": "int256"
                                                },
                                                {
                                                    "components": [
                                                        {
                                                            "name": "ct",
                                                            "type": "address"
                                                        },
                                                        {
                                                            "name": "id",
                                                            "type": "uint256"
                                                        }
                                                    ],
                                                    "name": "currency",
                                                    "type": "tuple"
                                                }
                                            ],
                                            "name": "total",
                                            "type": "tuple[]"
                                        }
                                    ],
                                    "name": "fees",
                                    "type": "tuple"
                                }
                            ],
                            "name": "seller",
                            "type": "tuple"
                        },
                        {
                            "components": [
                                {
                                    "components": [
                                        {
                                            "name": "single",
                                            "type": "int256"
                                        },
                                        {
                                            "name": "total",
                                            "type": "int256"
                                        }
                                    ],
                                    "name": "intended",
                                    "type": "tuple"
                                },
                                {
                                    "components": [
                                        {
                                            "name": "single",
                                            "type": "int256"
                                        },
                                        {
                                            "name": "total",
                                            "type": "int256"
                                        }
                                    ],
                                    "name": "conjugate",
                                    "type": "tuple"
                                }
                            ],
                            "name": "transfers",
                            "type": "tuple"
                        },
                        {
                            "components": [
                                {
                                    "name": "hash",
                                    "type": "bytes32"
                                },
                                {
                                    "components": [
                                        {
                                            "name": "r",
                                            "type": "bytes32"
                                        },
                                        {
                                            "name": "s",
                                            "type": "bytes32"
                                        },
                                        {
                                            "name": "v",
                                            "type": "uint8"
                                        }
                                    ],
                                    "name": "signature",
                                    "type": "tuple"
                                }
                            ],
                            "name": "seal",
                            "type": "tuple"
                        },
                        {
                            "name": "blockNumber",
                            "type": "uint256"
                        }
                    ],
                    "name": "trade",
                    "type": "tuple"
                },
                {
                    "name": "wallet",
                    "type": "address"
                }
            ],
            "name": "challengeByTrade",
            "outputs": [],
            "payable": false,
            "stateMutability": "nonpayable",
            "type": "function"
        },
        {
            "constant": false,
            "inputs": [
                {
                    "components": [
                        {
                            "name": "nonce",
                            "type": "uint256"
                        },
                        {
                            "name": "amount",
                            "type": "int256"
                        },
                        {
                            "components": [
                                {
                                    "name": "ct",
                                    "type": "address"
                                },
                                {
                                    "name": "id",
                                    "type": "uint256"
                                }
                            ],
                            "name": "currency",
                            "type": "tuple"
                        },
                        {
                            "components": [
                                {
                                    "name": "nonce",
                                    "type": "uint256"
                                },
                                {
                                    "name": "wallet",
                                    "type": "address"
                                },
                                {
                                    "components": [
                                        {
                                            "name": "current",
                                            "type": "int256"
                                        },
                                        {
                                            "name": "previous",
                                            "type": "int256"
                                        }
                                    ],
                                    "name": "balances",
                                    "type": "tuple"
                                },
                                {
                                    "components": [
                                        {
                                            "components": [
                                                {
                                                    "name": "amount",
                                                    "type": "int256"
                                                },
                                                {
                                                    "components": [
                                                        {
                                                            "name": "ct",
                                                            "type": "address"
                                                        },
                                                        {
                                                            "name": "id",
                                                            "type": "uint256"
                                                        }
                                                    ],
                                                    "name": "currency",
                                                    "type": "tuple"
                                                }
                                            ],
                                            "name": "single",
                                            "type": "tuple"
                                        },
                                        {
                                            "components": [
                                                {
                                                    "name": "amount",
                                                    "type": "int256"
                                                },
                                                {
                                                    "components": [
                                                        {
                                                            "name": "ct",
                                                            "type": "address"
                                                        },
                                                        {
                                                            "name": "id",
                                                            "type": "uint256"
                                                        }
                                                    ],
                                                    "name": "currency",
                                                    "type": "tuple"
                                                }
                                            ],
                                            "name": "total",
                                            "type": "tuple[]"
                                        }
                                    ],
                                    "name": "fees",
                                    "type": "tuple"
                                }
                            ],
                            "name": "sender",
                            "type": "tuple"
                        },
                        {
                            "components": [
                                {
                                    "name": "nonce",
                                    "type": "uint256"
                                },
                                {
                                    "name": "wallet",
                                    "type": "address"
                                },
                                {
                                    "components": [
                                        {
                                            "name": "current",
                                            "type": "int256"
                                        },
                                        {
                                            "name": "previous",
                                            "type": "int256"
                                        }
                                    ],
                                    "name": "balances",
                                    "type": "tuple"
                                },
                                {
                                    "components": [
                                        {
                                            "components": [
                                                {
                                                    "name": "amount",
                                                    "type": "int256"
                                                },
                                                {
                                                    "components": [
                                                        {
                                                            "name": "ct",
                                                            "type": "address"
                                                        },
                                                        {
                                                            "name": "id",
                                                            "type": "uint256"
                                                        }
                                                    ],
                                                    "name": "currency",
                                                    "type": "tuple"
                                                }
                                            ],
                                            "name": "total",
                                            "type": "tuple[]"
                                        }
                                    ],
                                    "name": "fees",
                                    "type": "tuple"
                                }
                            ],
                            "name": "recipient",
                            "type": "tuple"
                        },
                        {
                            "components": [
                                {
                                    "name": "single",
                                    "type": "int256"
                                },
                                {
                                    "name": "total",
                                    "type": "int256"
                                }
                            ],
                            "name": "transfers",
                            "type": "tuple"
                        },
                        {
                            "components": [
                                {
                                    "components": [
                                        {
                                            "name": "hash",
                                            "type": "bytes32"
                                        },
                                        {
                                            "components": [
                                                {
                                                    "name": "r",
                                                    "type": "bytes32"
                                                },
                                                {
                                                    "name": "s",
                                                    "type": "bytes32"
                                                },
                                                {
                                                    "name": "v",
                                                    "type": "uint8"
                                                }
                                            ],
                                            "name": "signature",
                                            "type": "tuple"
                                        }
                                    ],
                                    "name": "wallet",
                                    "type": "tuple"
                                },
                                {
                                    "components": [
                                        {
                                            "name": "hash",
                                            "type": "bytes32"
                                        },
                                        {
                                            "components": [
                                                {
                                                    "name": "r",
                                                    "type": "bytes32"
                                                },
                                                {
                                                    "name": "s",
                                                    "type": "bytes32"
                                                },
                                                {
                                                    "name": "v",
                                                    "type": "uint8"
                                                }
                                            ],
                                            "name": "signature",
                                            "type": "tuple"
                                        }
                                    ],
                                    "name": "exchange",
                                    "type": "tuple"
                                }
                            ],
                            "name": "seals",
                            "type": "tuple"
                        },
                        {
                            "name": "blockNumber",
                            "type": "uint256"
                        }
                    ],
                    "name": "payment",
                    "type": "tuple"
                },
                {
                    "name": "wallet",
                    "type": "address"
                }
            ],
            "name": "challengeByPayment",
            "outputs": [],
            "payable": false,
            "stateMutability": "nonpayable",
            "type": "function"
        },
        {
            "constant": true,
            "inputs": [
                {
                    "name": "wallet",
                    "type": "address"
                }
            ],
            "name": "getWalletChallenge",
            "outputs": [
                {
                    "components": [
                        {
                            "name": "nonce",
                            "type": "uint256"
                        },
                        {
                            "name": "timeout",
                            "type": "uint256"
                        },
                        {
                            "name": "status",
                            "type": "uint8"
                        },
                        {
                            "name": "driipType",
                            "type": "uint8"
                        },
                        {
                            "name": "driipIndex",
                            "type": "uint256"
                        },
                        {
                            "components": [
                                {
                                    "name": "amount",
                                    "type": "int256"
                                },
                                {
                                    "components": [
                                        {
                                            "name": "ct",
                                            "type": "address"
                                        },
                                        {
                                            "name": "id",
                                            "type": "uint256"
                                        }
                                    ],
                                    "name": "currency",
                                    "type": "tuple"
                                }
                            ],
                            "name": "intendedStage",
                            "type": "tuple"
                        },
                        {
                            "components": [
                                {
                                    "name": "amount",
                                    "type": "int256"
                                },
                                {
                                    "components": [
                                        {
                                            "name": "ct",
                                            "type": "address"
                                        },
                                        {
                                            "name": "id",
                                            "type": "uint256"
                                        }
                                    ],
                                    "name": "currency",
                                    "type": "tuple"
                                }
                            ],
                            "name": "conjugateStage",
                            "type": "tuple"
                        },
                        {
                            "components": [
                                {
                                    "components": [
                                        {
                                            "name": "amount",
                                            "type": "int256"
                                        },
                                        {
                                            "components": [
                                                {
                                                    "name": "ct",
                                                    "type": "address"
                                                },
                                                {
                                                    "name": "id",
                                                    "type": "uint256"
                                                }
                                            ],
                                            "name": "currency",
                                            "type": "tuple"
                                        }
                                    ],
                                    "name": "figure",
                                    "type": "tuple"
                                },
                                {
                                    "name": "set",
                                    "type": "bool"
                                }
                            ],
                            "name": "intendedTargetBalance",
                            "type": "tuple"
                        },
                        {
                            "components": [
                                {
                                    "components": [
                                        {
                                            "name": "amount",
                                            "type": "int256"
                                        },
                                        {
                                            "components": [
                                                {
                                                    "name": "ct",
                                                    "type": "address"
                                                },
                                                {
                                                    "name": "id",
                                                    "type": "uint256"
                                                }
                                            ],
                                            "name": "currency",
                                            "type": "tuple"
                                        }
                                    ],
                                    "name": "figure",
                                    "type": "tuple"
                                },
                                {
                                    "name": "set",
                                    "type": "bool"
                                }
                            ],
                            "name": "conjugateTargetBalance",
                            "type": "tuple"
                        },
                        {
                            "name": "candidateType",
                            "type": "uint8"
                        },
                        {
                            "name": "candidateIndex",
                            "type": "uint256"
                        },
                        {
                            "name": "challenger",
                            "type": "address"
                        }
                    ],
                    "name": "",
                    "type": "tuple"
                }
            ],
            "payable": false,
            "stateMutability": "view",
            "type": "function"
        },
        {
            "constant": false,
            "inputs": [
                {
                    "name": "wallet",
                    "type": "address"
                },
                {
                    "components": [
                        {
                            "name": "nonce",
                            "type": "uint256"
                        },
                        {
                            "name": "timeout",
                            "type": "uint256"
                        },
                        {
                            "name": "status",
                            "type": "uint8"
                        },
                        {
                            "name": "driipType",
                            "type": "uint8"
                        },
                        {
                            "name": "driipIndex",
                            "type": "uint256"
                        },
                        {
                            "components": [
                                {
                                    "name": "amount",
                                    "type": "int256"
                                },
                                {
                                    "components": [
                                        {
                                            "name": "ct",
                                            "type": "address"
                                        },
                                        {
                                            "name": "id",
                                            "type": "uint256"
                                        }
                                    ],
                                    "name": "currency",
                                    "type": "tuple"
                                }
                            ],
                            "name": "intendedStage",
                            "type": "tuple"
                        },
                        {
                            "components": [
                                {
                                    "name": "amount",
                                    "type": "int256"
                                },
                                {
                                    "components": [
                                        {
                                            "name": "ct",
                                            "type": "address"
                                        },
                                        {
                                            "name": "id",
                                            "type": "uint256"
                                        }
                                    ],
                                    "name": "currency",
                                    "type": "tuple"
                                }
                            ],
                            "name": "conjugateStage",
                            "type": "tuple"
                        },
                        {
                            "components": [
                                {
                                    "components": [
                                        {
                                            "name": "amount",
                                            "type": "int256"
                                        },
                                        {
                                            "components": [
                                                {
                                                    "name": "ct",
                                                    "type": "address"
                                                },
                                                {
                                                    "name": "id",
                                                    "type": "uint256"
                                                }
                                            ],
                                            "name": "currency",
                                            "type": "tuple"
                                        }
                                    ],
                                    "name": "figure",
                                    "type": "tuple"
                                },
                                {
                                    "name": "set",
                                    "type": "bool"
                                }
                            ],
                            "name": "intendedTargetBalance",
                            "type": "tuple"
                        },
                        {
                            "components": [
                                {
                                    "components": [
                                        {
                                            "name": "amount",
                                            "type": "int256"
                                        },
                                        {
                                            "components": [
                                                {
                                                    "name": "ct",
                                                    "type": "address"
                                                },
                                                {
                                                    "name": "id",
                                                    "type": "uint256"
                                                }
                                            ],
                                            "name": "currency",
                                            "type": "tuple"
                                        }
                                    ],
                                    "name": "figure",
                                    "type": "tuple"
                                },
                                {
                                    "name": "set",
                                    "type": "bool"
                                }
                            ],
                            "name": "conjugateTargetBalance",
                            "type": "tuple"
                        },
                        {
                            "name": "candidateType",
                            "type": "uint8"
                        },
                        {
                            "name": "candidateIndex",
                            "type": "uint256"
                        },
                        {
                            "name": "challenger",
                            "type": "address"
                        }
                    ],
                    "name": "challenge",
                    "type": "tuple"
                }
            ],
            "name": "setWalletChallenge",
            "outputs": [],
            "payable": false,
            "stateMutability": "nonpayable",
            "type": "function"
        },
        {
            "constant": false,
            "inputs": [
                {
                    "name": "wallet",
                    "type": "address"
                }
            ],
            "name": "resetWalletChallenge",
            "outputs": [],
            "payable": false,
            "stateMutability": "nonpayable",
            "type": "function"
        },
        {
            "constant": false,
            "inputs": [
                {
                    "components": [
                        {
                            "name": "nonce",
                            "type": "uint256"
                        },
                        {
                            "name": "wallet",
                            "type": "address"
                        },
                        {
                            "components": [
                                {
                                    "name": "intention",
                                    "type": "uint8"
                                },
                                {
                                    "name": "amount",
                                    "type": "int256"
                                },
                                {
                                    "components": [
                                        {
                                            "components": [
                                                {
                                                    "name": "ct",
                                                    "type": "address"
                                                },
                                                {
                                                    "name": "id",
                                                    "type": "uint256"
                                                }
                                            ],
                                            "name": "intended",
                                            "type": "tuple"
                                        },
                                        {
                                            "components": [
                                                {
                                                    "name": "ct",
                                                    "type": "address"
                                                },
                                                {
                                                    "name": "id",
                                                    "type": "uint256"
                                                }
                                            ],
                                            "name": "conjugate",
                                            "type": "tuple"
                                        }
                                    ],
                                    "name": "currencies",
                                    "type": "tuple"
                                },
                                {
                                    "name": "rate",
                                    "type": "int256"
                                },
                                {
                                    "components": [
                                        {
                                            "name": "current",
                                            "type": "int256"
                                        },
                                        {
                                            "name": "previous",
                                            "type": "int256"
                                        }
                                    ],
                                    "name": "residuals",
                                    "type": "tuple"
                                }
                            ],
                            "name": "placement",
                            "type": "tuple"
                        },
                        {
                            "components": [
                                {
                                    "components": [
                                        {
                                            "name": "hash",
                                            "type": "bytes32"
                                        },
                                        {
                                            "components": [
                                                {
                                                    "name": "r",
                                                    "type": "bytes32"
                                                },
                                                {
                                                    "name": "s",
                                                    "type": "bytes32"
                                                },
                                                {
                                                    "name": "v",
                                                    "type": "uint8"
                                                }
                                            ],
                                            "name": "signature",
                                            "type": "tuple"
                                        }
                                    ],
                                    "name": "wallet",
                                    "type": "tuple"
                                },
                                {
                                    "components": [
                                        {
                                            "name": "hash",
                                            "type": "bytes32"
                                        },
                                        {
                                            "components": [
                                                {
                                                    "name": "r",
                                                    "type": "bytes32"
                                                },
                                                {
                                                    "name": "s",
                                                    "type": "bytes32"
                                                },
                                                {
                                                    "name": "v",
                                                    "type": "uint8"
                                                }
                                            ],
                                            "name": "signature",
                                            "type": "tuple"
                                        }
                                    ],
                                    "name": "exchange",
                                    "type": "tuple"
                                }
                            ],
                            "name": "seals",
                            "type": "tuple"
                        },
                        {
                            "name": "blockNumber",
                            "type": "uint256"
                        }
                    ],
                    "name": "order",
                    "type": "tuple"
                }
            ],
            "name": "pushChallengeCandidateOrder",
            "outputs": [],
            "payable": false,
            "stateMutability": "nonpayable",
            "type": "function"
        },
        {
            "constant": true,
            "inputs": [],
            "name": "getChallengeCandidateOrdersLength",
            "outputs": [
                {
                    "name": "",
                    "type": "uint256"
                }
            ],
            "payable": false,
            "stateMutability": "view",
            "type": "function"
        },
        {
            "constant": false,
            "inputs": [
                {
                    "components": [
                        {
                            "name": "nonce",
                            "type": "uint256"
                        },
                        {
                            "name": "amount",
                            "type": "int256"
                        },
                        {
                            "components": [
                                {
                                    "components": [
                                        {
                                            "name": "ct",
                                            "type": "address"
                                        },
                                        {
                                            "name": "id",
                                            "type": "uint256"
                                        }
                                    ],
                                    "name": "intended",
                                    "type": "tuple"
                                },
                                {
                                    "components": [
                                        {
                                            "name": "ct",
                                            "type": "address"
                                        },
                                        {
                                            "name": "id",
                                            "type": "uint256"
                                        }
                                    ],
                                    "name": "conjugate",
                                    "type": "tuple"
                                }
                            ],
                            "name": "currencies",
                            "type": "tuple"
                        },
                        {
                            "name": "rate",
                            "type": "int256"
                        },
                        {
                            "components": [
                                {
                                    "name": "nonce",
                                    "type": "uint256"
                                },
                                {
                                    "name": "wallet",
                                    "type": "address"
                                },
                                {
                                    "name": "rollingVolume",
                                    "type": "uint256"
                                },
                                {
                                    "name": "liquidityRole",
                                    "type": "uint8"
                                },
                                {
                                    "components": [
                                        {
                                            "name": "amount",
                                            "type": "int256"
                                        },
                                        {
                                            "components": [
                                                {
                                                    "name": "wallet",
                                                    "type": "bytes32"
                                                },
                                                {
                                                    "name": "exchange",
                                                    "type": "bytes32"
                                                }
                                            ],
                                            "name": "hashes",
                                            "type": "tuple"
                                        },
                                        {
                                            "components": [
                                                {
                                                    "name": "current",
                                                    "type": "int256"
                                                },
                                                {
                                                    "name": "previous",
                                                    "type": "int256"
                                                }
                                            ],
                                            "name": "residuals",
                                            "type": "tuple"
                                        }
                                    ],
                                    "name": "order",
                                    "type": "tuple"
                                },
                                {
                                    "components": [
                                        {
                                            "components": [
                                                {
                                                    "name": "current",
                                                    "type": "int256"
                                                },
                                                {
                                                    "name": "previous",
                                                    "type": "int256"
                                                }
                                            ],
                                            "name": "intended",
                                            "type": "tuple"
                                        },
                                        {
                                            "components": [
                                                {
                                                    "name": "current",
                                                    "type": "int256"
                                                },
                                                {
                                                    "name": "previous",
                                                    "type": "int256"
                                                }
                                            ],
                                            "name": "conjugate",
                                            "type": "tuple"
                                        }
                                    ],
                                    "name": "balances",
                                    "type": "tuple"
                                },
                                {
                                    "components": [
                                        {
                                            "components": [
                                                {
                                                    "name": "amount",
                                                    "type": "int256"
                                                },
                                                {
                                                    "components": [
                                                        {
                                                            "name": "ct",
                                                            "type": "address"
                                                        },
                                                        {
                                                            "name": "id",
                                                            "type": "uint256"
                                                        }
                                                    ],
                                                    "name": "currency",
                                                    "type": "tuple"
                                                }
                                            ],
                                            "name": "single",
                                            "type": "tuple"
                                        },
                                        {
                                            "components": [
                                                {
                                                    "name": "amount",
                                                    "type": "int256"
                                                },
                                                {
                                                    "components": [
                                                        {
                                                            "name": "ct",
                                                            "type": "address"
                                                        },
                                                        {
                                                            "name": "id",
                                                            "type": "uint256"
                                                        }
                                                    ],
                                                    "name": "currency",
                                                    "type": "tuple"
                                                }
                                            ],
                                            "name": "total",
                                            "type": "tuple[]"
                                        }
                                    ],
                                    "name": "fees",
                                    "type": "tuple"
                                }
                            ],
                            "name": "buyer",
                            "type": "tuple"
                        },
                        {
                            "components": [
                                {
                                    "name": "nonce",
                                    "type": "uint256"
                                },
                                {
                                    "name": "wallet",
                                    "type": "address"
                                },
                                {
                                    "name": "rollingVolume",
                                    "type": "uint256"
                                },
                                {
                                    "name": "liquidityRole",
                                    "type": "uint8"
                                },
                                {
                                    "components": [
                                        {
                                            "name": "amount",
                                            "type": "int256"
                                        },
                                        {
                                            "components": [
                                                {
                                                    "name": "wallet",
                                                    "type": "bytes32"
                                                },
                                                {
                                                    "name": "exchange",
                                                    "type": "bytes32"
                                                }
                                            ],
                                            "name": "hashes",
                                            "type": "tuple"
                                        },
                                        {
                                            "components": [
                                                {
                                                    "name": "current",
                                                    "type": "int256"
                                                },
                                                {
                                                    "name": "previous",
                                                    "type": "int256"
                                                }
                                            ],
                                            "name": "residuals",
                                            "type": "tuple"
                                        }
                                    ],
                                    "name": "order",
                                    "type": "tuple"
                                },
                                {
                                    "components": [
                                        {
                                            "components": [
                                                {
                                                    "name": "current",
                                                    "type": "int256"
                                                },
                                                {
                                                    "name": "previous",
                                                    "type": "int256"
                                                }
                                            ],
                                            "name": "intended",
                                            "type": "tuple"
                                        },
                                        {
                                            "components": [
                                                {
                                                    "name": "current",
                                                    "type": "int256"
                                                },
                                                {
                                                    "name": "previous",
                                                    "type": "int256"
                                                }
                                            ],
                                            "name": "conjugate",
                                            "type": "tuple"
                                        }
                                    ],
                                    "name": "balances",
                                    "type": "tuple"
                                },
                                {
                                    "components": [
                                        {
                                            "components": [
                                                {
                                                    "name": "amount",
                                                    "type": "int256"
                                                },
                                                {
                                                    "components": [
                                                        {
                                                            "name": "ct",
                                                            "type": "address"
                                                        },
                                                        {
                                                            "name": "id",
                                                            "type": "uint256"
                                                        }
                                                    ],
                                                    "name": "currency",
                                                    "type": "tuple"
                                                }
                                            ],
                                            "name": "single",
                                            "type": "tuple"
                                        },
                                        {
                                            "components": [
                                                {
                                                    "name": "amount",
                                                    "type": "int256"
                                                },
                                                {
                                                    "components": [
                                                        {
                                                            "name": "ct",
                                                            "type": "address"
                                                        },
                                                        {
                                                            "name": "id",
                                                            "type": "uint256"
                                                        }
                                                    ],
                                                    "name": "currency",
                                                    "type": "tuple"
                                                }
                                            ],
                                            "name": "total",
                                            "type": "tuple[]"
                                        }
                                    ],
                                    "name": "fees",
                                    "type": "tuple"
                                }
                            ],
                            "name": "seller",
                            "type": "tuple"
                        },
                        {
                            "components": [
                                {
                                    "components": [
                                        {
                                            "name": "single",
                                            "type": "int256"
                                        },
                                        {
                                            "name": "total",
                                            "type": "int256"
                                        }
                                    ],
                                    "name": "intended",
                                    "type": "tuple"
                                },
                                {
                                    "components": [
                                        {
                                            "name": "single",
                                            "type": "int256"
                                        },
                                        {
                                            "name": "total",
                                            "type": "int256"
                                        }
                                    ],
                                    "name": "conjugate",
                                    "type": "tuple"
                                }
                            ],
                            "name": "transfers",
                            "type": "tuple"
                        },
                        {
                            "components": [
                                {
                                    "name": "hash",
                                    "type": "bytes32"
                                },
                                {
                                    "components": [
                                        {
                                            "name": "r",
                                            "type": "bytes32"
                                        },
                                        {
                                            "name": "s",
                                            "type": "bytes32"
                                        },
                                        {
                                            "name": "v",
                                            "type": "uint8"
                                        }
                                    ],
                                    "name": "signature",
                                    "type": "tuple"
                                }
                            ],
                            "name": "seal",
                            "type": "tuple"
                        },
                        {
                            "name": "blockNumber",
                            "type": "uint256"
                        }
                    ],
                    "name": "trade",
                    "type": "tuple"
                }
            ],
            "name": "pushChallengeCandidateTrade",
            "outputs": [],
            "payable": false,
            "stateMutability": "nonpayable",
            "type": "function"
        },
        {
            "constant": true,
            "inputs": [],
            "name": "getChallengeCandidateTradesLength",
            "outputs": [
                {
                    "name": "",
                    "type": "uint256"
                }
            ],
            "payable": false,
            "stateMutability": "view",
            "type": "function"
        },
        {
            "constant": false,
            "inputs": [
                {
                    "components": [
                        {
                            "name": "nonce",
                            "type": "uint256"
                        },
                        {
                            "name": "amount",
                            "type": "int256"
                        },
                        {
                            "components": [
                                {
                                    "name": "ct",
                                    "type": "address"
                                },
                                {
                                    "name": "id",
                                    "type": "uint256"
                                }
                            ],
                            "name": "currency",
                            "type": "tuple"
                        },
                        {
                            "components": [
                                {
                                    "name": "nonce",
                                    "type": "uint256"
                                },
                                {
                                    "name": "wallet",
                                    "type": "address"
                                },
                                {
                                    "components": [
                                        {
                                            "name": "current",
                                            "type": "int256"
                                        },
                                        {
                                            "name": "previous",
                                            "type": "int256"
                                        }
                                    ],
                                    "name": "balances",
                                    "type": "tuple"
                                },
                                {
                                    "components": [
                                        {
                                            "components": [
                                                {
                                                    "name": "amount",
                                                    "type": "int256"
                                                },
                                                {
                                                    "components": [
                                                        {
                                                            "name": "ct",
                                                            "type": "address"
                                                        },
                                                        {
                                                            "name": "id",
                                                            "type": "uint256"
                                                        }
                                                    ],
                                                    "name": "currency",
                                                    "type": "tuple"
                                                }
                                            ],
                                            "name": "single",
                                            "type": "tuple"
                                        },
                                        {
                                            "components": [
                                                {
                                                    "name": "amount",
                                                    "type": "int256"
                                                },
                                                {
                                                    "components": [
                                                        {
                                                            "name": "ct",
                                                            "type": "address"
                                                        },
                                                        {
                                                            "name": "id",
                                                            "type": "uint256"
                                                        }
                                                    ],
                                                    "name": "currency",
                                                    "type": "tuple"
                                                }
                                            ],
                                            "name": "total",
                                            "type": "tuple[]"
                                        }
                                    ],
                                    "name": "fees",
                                    "type": "tuple"
                                }
                            ],
                            "name": "sender",
                            "type": "tuple"
                        },
                        {
                            "components": [
                                {
                                    "name": "nonce",
                                    "type": "uint256"
                                },
                                {
                                    "name": "wallet",
                                    "type": "address"
                                },
                                {
                                    "components": [
                                        {
                                            "name": "current",
                                            "type": "int256"
                                        },
                                        {
                                            "name": "previous",
                                            "type": "int256"
                                        }
                                    ],
                                    "name": "balances",
                                    "type": "tuple"
                                },
                                {
                                    "components": [
                                        {
                                            "components": [
                                                {
                                                    "name": "amount",
                                                    "type": "int256"
                                                },
                                                {
                                                    "components": [
                                                        {
                                                            "name": "ct",
                                                            "type": "address"
                                                        },
                                                        {
                                                            "name": "id",
                                                            "type": "uint256"
                                                        }
                                                    ],
                                                    "name": "currency",
                                                    "type": "tuple"
                                                }
                                            ],
                                            "name": "total",
                                            "type": "tuple[]"
                                        }
                                    ],
                                    "name": "fees",
                                    "type": "tuple"
                                }
                            ],
                            "name": "recipient",
                            "type": "tuple"
                        },
                        {
                            "components": [
                                {
                                    "name": "single",
                                    "type": "int256"
                                },
                                {
                                    "name": "total",
                                    "type": "int256"
                                }
                            ],
                            "name": "transfers",
                            "type": "tuple"
                        },
                        {
                            "components": [
                                {
                                    "components": [
                                        {
                                            "name": "hash",
                                            "type": "bytes32"
                                        },
                                        {
                                            "components": [
                                                {
                                                    "name": "r",
                                                    "type": "bytes32"
                                                },
                                                {
                                                    "name": "s",
                                                    "type": "bytes32"
                                                },
                                                {
                                                    "name": "v",
                                                    "type": "uint8"
                                                }
                                            ],
                                            "name": "signature",
                                            "type": "tuple"
                                        }
                                    ],
                                    "name": "wallet",
                                    "type": "tuple"
                                },
                                {
                                    "components": [
                                        {
                                            "name": "hash",
                                            "type": "bytes32"
                                        },
                                        {
                                            "components": [
                                                {
                                                    "name": "r",
                                                    "type": "bytes32"
                                                },
                                                {
                                                    "name": "s",
                                                    "type": "bytes32"
                                                },
                                                {
                                                    "name": "v",
                                                    "type": "uint8"
                                                }
                                            ],
                                            "name": "signature",
                                            "type": "tuple"
                                        }
                                    ],
                                    "name": "exchange",
                                    "type": "tuple"
                                }
                            ],
                            "name": "seals",
                            "type": "tuple"
                        },
                        {
                            "name": "blockNumber",
                            "type": "uint256"
                        }
                    ],
                    "name": "payment",
                    "type": "tuple"
                }
            ],
            "name": "pushChallengeCandidatePayment",
            "outputs": [],
            "payable": false,
            "stateMutability": "nonpayable",
            "type": "function"
        },
        {
            "constant": true,
            "inputs": [],
            "name": "getChallengeCandidatePaymentsLength",
            "outputs": [
                {
                    "name": "",
                    "type": "uint256"
                }
            ],
            "payable": false,
            "stateMutability": "view",
            "type": "function"
        }
    ],
    "bytecode": "0x60806040523480156200001157600080fd5b50604051602080620057698339810180604052620000339190810190620000a9565b8080600160a060020a03811615156200004b57600080fd5b600160a060020a0381163014156200006257600080fd5b5060008054600160a060020a03909216600160a060020a031992831681179091556001805490921617905550620000de565b6000620000a28251620000d2565b9392505050565b600060208284031215620000bc57600080fd5b6000620000ca848462000094565b949350505050565b600160a060020a031690565b61567b80620000ee6000396000f30060806040526004361061020b5763ffffffff60e060020a60003504166306394c9b81146102105780630ad31b87146102325780630befbfdc1461026f5780630f9ea2a01461029c578063131e4c28146102d457806315d2346f146102f45780631fccaac014610314578063237ee8c5146103345780632ce9f4ca146103545780632d9caea314610381578063346960fd146103965780633a5381b5146103ab5780634476d23b146103cd5780634dbf62cc146103ef578063511c82821461040f578063570ca7351461043c5780635a42274a146104515780635e9fc80e1461047157806362e2516c146104915780636c70bee9146104b15780636d628d18146104c6578063714b7457146104e65780637220ee5314610506578063737bf3d5146105265780637e5150f414610553578063904cfd601461057357806394dd293c146105a15780639eecdfd7146105b6578063a1f600ff146105d6578063a85e613e146105f6578063b8bbf8ab1461060b578063bc9a35d014610620578063c23eead114610635578063c54047a61461064a578063c8bc870a1461066a578063c9dae98b1461068a578063cb0f433b146106bf578063d21dee67146106d4578063d5f39488146106f4578063da81914914610709578063defdfae614610736578063e14e882814610756578063f6abfc7614610787578063f7ef6789146107a7578063ffa9d7c0146107c7575b600080fd5b34801561021c57600080fd5b5061023061022b3660046147b3565b6107e7565b005b34801561023e57600080fd5b5061025261024d366004614aa5565b61089f565b60405161026698979695949392919061538a565b60405180910390f35b34801561027b57600080fd5b5061028f61028a3660046147b3565b610b7e565b6040516102669190615206565b3480156102a857600080fd5b506102bc6102b73660046147b3565b610b99565b6040516102669c9b9a999897969594939291906154a8565b3480156102e057600080fd5b506102306102ef3660046148e8565b610e15565b34801561030057600080fd5b5061023061030f366004614962565b610e3a565b34801561032057600080fd5b5061023061032f3660046147b3565b611377565b34801561034057600080fd5b5061025261034f366004614814565b6113dd565b34801561036057600080fd5b5061037461036f3660046147b3565b611536565b60405161026691906151f8565b34801561038d57600080fd5b5061028f611557565b3480156103a257600080fd5b5061028f611579565b3480156103b757600080fd5b506103c061157f565b60405161026691906151cf565b3480156103d957600080fd5b506103e261158e565b604051610266919061519f565b3480156103fb57600080fd5b5061023061040a3660046149f9565b61159d565b34801561041b57600080fd5b5061042f61042a366004614aa5565b61169f565b6040516102669190615231565b34801561044857600080fd5b506103e2611846565b34801561045d57600080fd5b5061028f61046c3660046147b3565b611855565b34801561047d57600080fd5b5061023061048c366004614862565b611870565b34801561049d57600080fd5b506102306104ac3660046147d9565b6118f4565b3480156104bd57600080fd5b506103c0611aef565b3480156104d257600080fd5b506102306104e136600461489f565b611afe565b3480156104f257600080fd5b50610230610501366004614880565b611bca565b34801561051257600080fd5b5061028f6105213660046147b3565b611cc9565b34801561053257600080fd5b506105466105413660046147b3565b611ce4565b6040516102669190615223565b34801561055f57600080fd5b5061023061056e366004614862565b611d38565b34801561057f57600080fd5b5061059361058e3660046147b3565b611ddf565b60405161026692919061536f565b3480156105ad57600080fd5b50610230611e8a565b3480156105c257600080fd5b506105466105d13660046147b3565b611eb9565b3480156105e257600080fd5b506102306105f136600461491c565b611f0f565b34801561060257600080fd5b5061028f611fdb565b34801561061757600080fd5b5061028f611fe1565b34801561062c57600080fd5b5061028f611fe7565b34801561064157600080fd5b5061028f612008565b34801561065657600080fd5b506102306106653660046149c5565b612029565b34801561067657600080fd5b506103e26106853660046147b3565b61204b565b34801561069657600080fd5b506106aa6106a5366004614aa5565b61206c565b60405161026699989796959493929190615411565b3480156106cb57600080fd5b506103c06124f7565b3480156106e057600080fd5b506102306106ef366004614880565b612506565b34801561070057600080fd5b506103e26126e8565b34801561071557600080fd5b506107296107243660046147b3565b6126f7565b6040516102669190615214565b34801561074257600080fd5b506102306107513660046147b3565b612904565b34801561076257600080fd5b50610776610771366004614aa5565b6129ae565b604051610266959493929190615320565b34801561079357600080fd5b506102306107a2366004614862565b612b31565b3480156107b357600080fd5b506106aa6107c2366004614814565b612bc9565b3480156107d357600080fd5b506102306107e2366004614a2e565b612c9f565b60006107f16132e8565b15156107fc57600080fd5b81600160a060020a038116151561081257600080fd5b600160a060020a03811630141561082857600080fd5b600154600160a060020a0384811691161461089a5760018054600160a060020a03858116600160a060020a0319831617909255604051911692507f5bd9a4a09f08f75952905b16ac91d6821c47d52c3a968e583e6854b42757c5809061089190849086906151ad565b60405180910390a15b505050565b600a8054829081106108ad57fe5b60009182526020808320601c909202909101805460018201546040805180820182526002850154600160a060020a039081168252600386015482880152825160808181018552600488018054835260058901548416838b01528551808701875260068a0154815260078a0154818c015283870152855191820186526008890180548388019081528751808901895260098c01549096168652600a8b0154868d01526060848101969096528352600b8a0180548851818e0281018e01909952808952999d50979b959a939891979489019692959094868501949092919084015b828210156109ea57600084815260209081902060408051808201825260038602909201805483528151808301909252600180820154600160a060020a031683526002909101548285015282840191909152908352909201910161098c565b5050509152505090525060408051608081018252600c840180548252600d850154600160a060020a031660208084019190915283518085018552600e8701548152600f87015481830152838501528351601087018054808402830187018752928201838152969796949593946060870194929391928492849160009085015b82821015610ac757600084815260209081902060408051808201825260038602909201805483528151808301909252600180820154600160a060020a0316835260029091015482850152828401919091529083529092019101610a69565b505050915250509052506040805180820182526011840154815260128401546020808301919091528251608081018452601386015481850190815284516060818101875260148901548252601589015482860152601689015460ff908116838901528185019290925291835285518087018752601789015481528651928301875260188901548352601989015483860152601a890154909116958201959095528483015290810192909252601b9093015491929188565b600160a060020a031660009081526006602052604090205490565b60056020528060005260406000206000915090508060000154908060010154908060020160009054906101000a900460ff16908060020160019054906101000a900460ff16908060030154908060040160408051908101604052908160008201548152602001600182016040805190810160405290816000820160009054906101000a9004600160a060020a0316600160a060020a0316600160a060020a0316815260200160018201548152505081525050908060070160408051908101604052908160008201548152602001600182016040805190810160405290816000820160009054906101000a9004600160a060020a0316600160a060020a0316600160a060020a03168152602001600182015481525050815250509080600a016040805190810160405290816000820160408051908101604052908160008201548152602001600182016040805190810160405290816000820160009054906101000a9004600160a060020a0316600160a060020a0316600160a060020a031681526020016001820154815250508152505081526020016003820160009054906101000a900460ff1615151515815250509080600e016040805190810160405290816000820160408051908101604052908160008201548152602001600182016040805190810160405290816000820160009054906101000a9004600160a060020a0316600160a060020a0316600160a060020a031681526020016001820154815250508152505081526020016003820160009054906101000a900460ff161515151581525050908060120160009054906101000a900460ff16908060130154908060140160009054906101000a9004600160a060020a031690508c565b600454600160a060020a03163314610e2c57600080fd5b610e3781600a6132f9565b50565b6000610e4461386c565b600354600160a060020a03161515610e5b57600080fd5b60035460405160e160020a637709f0a90281528691600160a060020a03169063ee13e15290610e8e90849060040161528f565b602060405180830381600087803b158015610ea857600080fd5b505af1158015610ebc573d6000803e3d6000fd5b505050506040513d601f19601f82011682018060405250610ee09190810190614844565b1515610eeb57600080fd5b600254600160a060020a03161515610f0257600080fd5b60405160e060020a636b84d93102815273__SafeMathInt___________________________90636b84d93190610f3c908790600401615206565b60206040518083038186803b158015610f5457600080fd5b505af4158015610f68573d6000803e3d6000fd5b505050506040513d601f19601f82011682018060405250610f8c9190810190614844565b1515610f9757600080fd5b600054600160a060020a03163314610fad573394505b610fb561342b565b80610fc55750610fc5868661343c565b1515610fd057600080fd5b600160a060020a03851660009081526005602052604090205415806110105750600160a060020a0385166000908152600560205260409020600101544210155b151561101b57600080fd5b6110258686613488565b6110385760808601516040015151611043565b606086015160400151515b92508383121561105257600080fd5b600160a060020a03851660009081526007602052604090206110759087906132f9565b855182526002546040805160e960020a622eefc90281529051600160a060020a0390921691635ddf9200916004808201926020929091908290030181600087803b1580156110c257600080fd5b505af11580156110d6573d6000803e3d6000fd5b505050506040513d601f19601f820116820180604052506110fa9190810190614ac3565b42016020838101918252600160408086018281526060808801849052600160a060020a038b1660008181526007875284812054600019016080808c0191909152855180870187528d81528f87018051828b015260a08d0191909152865191820187528d8d0382880190815290519482019490945292835282870186905260e08a019290925281526005909452922085518155925183820155905160028084018054879594919260ff19909116919084908111156111b357fe5b0217905550606082015160028201805461ff0019166101008360018111156111d757fe5b0217905550608082015160038281019190915560a0830151805160048401556020908101518051600585018054600160a060020a0319908116600160a060020a039384161790915591830151600686015560c08601518051600787015583015180516008870180548516918416919091179055830151600986015560e086015180518051600a8801558401518051600b880180548616918516919091179055840151600c870155830151600d8601805460ff1990811692151592909217905561010087015180518051600e8901558501518051600f89018054909616941693909317909355908301516010860155910151601184018054831691151591909117905561012084015160128401805491939092919091169060019084908111156112fc57fe5b021790555061014082015160138201556101609091015160149091018054600160a060020a031916600160a060020a039092169190911790556040517f5de0e849029c21ae17b099c9f34539bb601340aa9238bc3e8f5ba6bbac82a5219061136790889088906152a0565b60405180910390a1505050505050565b600454600160a060020a0316331461138e57600080fd5b600160a060020a0316600090815260056020526040812060028101805460ff19908116600117909155601282018054909116905560138101919091556014018054600160a060020a0319169055565b6007602052816000526040600020818154811015156113f857fe5b60009182526020808320601c909202909101805460018201546040805180820182526002850154600160a060020a039081168252600386015482880152825160808181018552600488018054835260058901548416838b01528551808701875260068a0154815260078a0154818c015283870152855191820186526008890180548388019081528751808901895260098c01549096168652600a8b0154868d01526060848101969096528352600b8a0180548851818e0281018e01909952808952999e50979c50949a9899929890979389019691958684019490939091908401828210156109ea57600084815260209081902060408051808201825260038602909201805483528151808301909252600180820154600160a060020a031683526002909101548285015282840191909152908352909201910161098c565b600160a060020a031660009081526005602052604090206002015460ff1690565b600454600090600160a060020a0316331461157157600080fd5b50600a545b90565b600a5490565b600354600160a060020a031681565b600054600160a060020a031690565b600260009054906101000a9004600160a060020a0316600160a060020a031663f71e860f6040518163ffffffff1660e060020a028152600401602060405180830381600087803b1580156115f057600080fd5b505af1158015611604573d6000803e3d6000fd5b505050506040513d601f19601f820116820180604052506116289190810190614844565b151561163357600080fd5b6004805460405160e260020a6334a3446f028152600160a060020a039091169163d28d11bc91611669918691869133910161530f565b600060405180830381600087803b15801561168357600080fd5b505af1158015611697573d6000803e3d6000fd5b505050505050565b6116a76138e5565b60088054839081106116b557fe5b60009182526020918290206040805160a08181018352601490940290920180548352600180820154600160a060020a0316958401959095528151938401825260028101805493959194928601939091839160ff169081111561171357fe5b600181111561171e57fe5b8152600182015460208083019190915260408051608080820183526002860154600160a060020a039081168385019081526003880154606080860191909152908452845180860186526004890154909216825260058801548287015283860191909152838601929092526006860154828601528251808401845260078701548152600890960154868501529384019490945293855283519182018452600b86015482850190815284518085018652600c8801548152600d88015481840152600e88015460ff908116828801528486019190915290835284518086018652600f8801548152855194850186526010880154855260118801548584015260128801549091168486015280820193909352818101929092529083015260139092015491015292915050565b600154600160a060020a031681565b600160a060020a031660009081526007602052604090205490565b600061187a61342b565b151561188557600080fd5b81600160a060020a038116151561189b57600080fd5b60048054600160a060020a03858116600160a060020a03198316179283905560405191811694507f04563f0d44edd645440800b242cac22e503be4cd1ef70d9f4bf72591b3916d539261089192869291909116906151dd565b600454600160a060020a0316331461190b57600080fd5b806005600084600160a060020a0316600160a060020a03168152602001908152602001600020600082015181600001556020820151816001015560408201518160020160006101000a81548160ff0219169083600281111561196957fe5b0217905550606082015160028201805461ff00191661010083600181111561198d57fe5b0217905550608082015160038281019190915560a0830151805160048401556020908101518051600585018054600160a060020a0319908116600160a060020a039384161790915591830151600686015560c08601518051600787015583015180516008870180548516918416919091179055830151600986015560e086015180518051600a8801558401518051600b880180548616918516919091179055840151600c870155830151600d8601805460ff1990811692151592909217905561010087015180518051600e8901558501518051600f8901805490961694169390931790935590830151601086015591015160118401805483169115159190911790556101208401516012840180549193909291909116906001908490811115611ab257fe5b021790555061014082015160138201556101609091015160149091018054600160a060020a031916600160a060020a039092169190911790555050565b600254600160a060020a031681565b600260009054906101000a9004600160a060020a0316600160a060020a031663f71e860f6040518163ffffffff1660e060020a028152600401602060405180830381600087803b158015611b5157600080fd5b505af1158015611b65573d6000803e3d6000fd5b505050506040513d601f19601f82011682018060405250611b899190810190614844565b1515611b9457600080fd5b6004805460405160e160020a631039ff41028152600160a060020a0390911691632073fe8291611669918691869133910161525d565b600260009054906101000a9004600160a060020a0316600160a060020a031663f71e860f6040518163ffffffff1660e060020a028152600401602060405180830381600087803b158015611c1d57600080fd5b505af1158015611c31573d6000803e3d6000fd5b505050506040513d601f19601f82011682018060405250611c559190810190614844565b1515611c6057600080fd5b6004805460405160e160020a634ff9a185028152600160a060020a0390911691639ff3430a91611c94918591339101615240565b600060405180830381600087803b158015611cae57600080fd5b505af1158015611cc2573d6000803e3d6000fd5b5050505050565b600160a060020a031660009081526005602052604090205490565b611cec61391f565b50600160a060020a039081166000908152600560209081526040918290208251808401845260078201548152835180850190945260088201549094168352600901548282015282015290565b6000611d4261342b565b1515611d4d57600080fd5b81600160a060020a0381161515611d6357600080fd5b6002548390600160a060020a039081169082168114611cc25760028054600160a060020a03878116600160a060020a0319831617909255604051911694507f6b81929a162238bb990384b771e24fd599c4ca9ddd6efb0444fdc2a10756b8f090611dd090869088906151dd565b60405180910390a15050505050565b600080548190600160a060020a03163314611df8573392505b600160a060020a0383166000908152600560205260409020541515611e235750600090506001611e85565b600160a060020a038316600090815260056020526040902060010154421015611e67575050600160a060020a03811660009081526005602052604081205490611e85565b5050600160a060020a03811660009081526005602052604090205460015b915091565b611e9261158e565b600160a060020a03163314611ea657600080fd5b611eae61158e565b600160a060020a0316ff5b611ec161391f565b50600160a060020a0390811660009081526005602081815260409283902083518085018552600482015481528451808601909552928101549094168352600690930154828401529182015290565b600260009054906101000a9004600160a060020a0316600160a060020a031663f71e860f6040518163ffffffff1660e060020a028152600401602060405180830381600087803b158015611f6257600080fd5b505af1158015611f76573d6000803e3d6000fd5b505050506040513d601f19601f82011682018060405250611f9a9190810190614844565b1515611fa557600080fd5b6004805460405160e160020a634d6515df028152600160a060020a0390911691639aca2bbe9161166991869186913391016152c0565b60085490565b60095490565b600454600090600160a060020a0316331461200157600080fd5b5060085490565b600454600090600160a060020a0316331461202257600080fd5b5060095490565b600454600160a060020a0316331461204057600080fd5b610e378160096134a4565b600160a060020a039081166000908152600560205260409020601401541690565b600980548290811061207a57fe5b60009182526020918290206032909102018054600180830154604080516080810182526002860154600160a060020a039081168284019081526003880154606080850191909152908352835180850185526004890154831681526005890154818b0152838a01526006880154845160e08101865260078a018054825260088b01549094169a81019a909a526009890154948a0194909452600a8801549699509397919692959294919390929084019160ff9091169081111561213857fe5b600181111561214357fe5b81526040805160608181018352600485015482528251808401845260058601548152600686015460208281019190915283810191909152835180850185526007870154815260088701548183015283850152808501929092528251608080820185526009870154828601908152600a88015483850152825284518086018652600b8801548152600c88015481860152828501528486019190915283519081018452600d8601805482860190815285518087018752600e890154600160a060020a03168152600f89015481870152838501528252601087018054865181870281018701909752808752939096019591949093858101939192919060009084015b828210156122a057600084815260209081902060408051808201825260038602909201805483528151808301909252600180820154600160a060020a0316835260029091015482850152828401919091529083529092019101612242565b505050915250509052506040805160e08101825260188401805482526019850154600160a060020a03166020830152601a85015492820192909252601b840154929392909190606083019060ff1660018111156122f957fe5b600181111561230457fe5b81526040805160608181018352600485015482528251808401845260058601548152600686015460208281019190915283810191909152835180850185526007870154815260088701548183015283850152808501929092528251608080820185526009870154828601908152600a88015483850152825284518086018652600b8801548152600c88015481860152828501528486019190915283519081018452600d8601805482860190815285518087018752600e890154600160a060020a03168152600f89015481870152838501528252601087018054865181870281018701909752808752939096019591949093858101939192919060009084015b8282101561246157600084815260209081902060408051808201825260038602909201805483528151808301909252600180820154600160a060020a0316835260029091015482850152828401919091529083529092019101612403565b50505091525050905250604080516080810182526029840154818301908152602a85015460608084019190915290825282518084018452602b8601548152602c8601546020828101919091528084019190915283518085018552602d870154815284519283018552602e8701548352602f87015483830152603087015460ff169483019490945283015260319093015491929189565b600454600160a060020a031681565b600454600160a060020a0316331461251d57600080fd5b600880546001818101808455600093909352835160149092027ff3f7a9fe364faab93b216da50a3214154f22a0a2b415b23a84c8169e8b636ee3810192835560208501517ff3f7a9fe364faab93b216da50a3214154f22a0a2b415b23a84c8169e8b636ee482018054600160a060020a03909216600160a060020a0319909216919091179055604085015180517ff3f7a9fe364faab93b216da50a3214154f22a0a2b415b23a84c8169e8b636ee5909201805487959492939192839160ff19169083818111156125e957fe5b0217905550602082810151600183015560408084015180518051600286018054600160a060020a0319908116600160a060020a0393841617909155918501516003870155918401518051600487018054909316931692909217905582015160058401556060808501516006850155608094850151805160078601558301516008909401939093559185015180518051600b8701558201518051600c87015580830151600d870155830151600e8601805460ff1990811660ff93841617909155918301518051600f880155830151805160108801559283015160118701559190920151601285018054909316911617905591909101516013909101555050565b600054600160a060020a031681565b6126ff61386c565b600454600160a060020a0316331461271657600080fd5b600160a060020a03821660009081526005602090815260409182902082516101808101845281548152600182015492810192909252600280820154929391929184019160ff169081111561276657fe5b600281111561277157fe5b81526020016002820160019054906101000a900460ff16600181111561279357fe5b600181111561279e57fe5b815260038281015460208084019190915260408051808201825260048601548152815180830183526005870154600160a060020a039081168252600688015482860152828501919091528286019190915281518083018352600787015481528251808401845260088801548316815260098801548186015281850152606080870191909152825160808181018552600a89015482860190815285518087018752600b8b015486168152600c8b015481890152838501528252600d89015460ff9081161515838801528189019290925284519081018552600e8901548186019081528551808701909652600f8a01549094168552601089015485870152918201939093529081526011860154821615159281019290925260a0840191909152601284015460c09093019216908111156128d257fe5b60038111156128dd57fe5b815260138201546020820152601490910154600160a060020a031660409091015292915050565b600061290e61342b565b151561291957600080fd5b81600160a060020a038116151561292f57600080fd5b600160a060020a03811630141561294557600080fd5b600054600160a060020a0384811691161461089a5760008054600160a060020a03858116600160a060020a0319831617909255604051911692507fb52724aafc8bad3645fa843e328aaaa28d0bd8ed399cd62843de657b0caf75c79061089190849086906151ad565b60088054829081106129bc57fe5b6000918252602090912060149091020180546001808301546040805160a08101909152600285018054949650600160a060020a0390921694939092839160ff1690811115612a0657fe5b6001811115612a1157fe5b8152600182015460208083019190915260408051608080820183526002860154600160a060020a039081168385019081526003880154606080860191909152908452845180860186526004890154909216825260058801548287015283860191909152838601929092526006860154828601528251808401845260078701548152600890960154868501529384019490945280519283018152600b86015483820190815281518086018352600c8801548152600d88015481850152600e88015460ff908116828501528587019190915290845281518083018352600f880154815282519586018352601088015486526011880154868501526012880154909116918501919091528082019390935281019190915260139092015490919085565b6000612b3b61342b565b1515612b4657600080fd5b81600160a060020a0381161515612b5c57600080fd5b6003548390600160a060020a039081169082168114611cc25760038054600160a060020a03878116600160a060020a0319831617909255604051911694507f365b4d2117252a14b5db6a7e816ea961da4692b5690490d22d29c4f65346f60090611dd090869088906151dd565b600660205281600052604060002081815481101515612be457fe5b60009182526020918290206032909102018054600180830154604080516080810182526002860154600160a060020a039081168284019081526003880154606080850191909152908352835180850185526004890154831681526005890154818b0152838a01526006880154845160e08101865260078a018054825260088b01549094169a81019a909a526009890154948a0194909452600a880154969a5093985090969195949193909284019160ff169081111561213857fe5b600080612caa61386c565b600354600160a060020a03161515612cc157600080fd5b60035460405160e060020a630d86c7e30281528891600160a060020a031690630d86c7e390612cf49084906004016152ed565b602060405180830381600087803b158015612d0e57600080fd5b505af1158015612d22573d6000803e3d6000fd5b505050506040513d601f19601f82011682018060405250612d469190810190614844565b1515612d5157600080fd5b600254600160a060020a03161515612d6857600080fd5b60405160e060020a636b84d93102815273__SafeMathInt___________________________90636b84d93190612da2908990600401615206565b60206040518083038186803b158015612dba57600080fd5b505af4158015612dce573d6000803e3d6000fd5b505050506040513d601f19601f82011682018060405250612df29190810190614844565b1515612dfd57600080fd5b60405160e060020a636b84d93102815273__SafeMathInt___________________________90636b84d93190612e37908890600401615206565b60206040518083038186803b158015612e4f57600080fd5b505af4158015612e63573d6000803e3d6000fd5b505050506040513d601f19601f82011682018060405250612e879190810190614844565b1515612e9257600080fd5b600054600160a060020a03163314612ea8573396505b612eb061342b565b80612ec05750612ec088886135e4565b1515612ecb57600080fd5b600160a060020a0387166000908152600560205260409020541580612f0b5750600160a060020a0387166000908152600560205260409020600101544210155b1515612f1657600080fd5b612f208888613625565b612f3b5760a080890151015180515160209091015151612f4f565b608088015160a00151805151602090910151515b909450925085841215612f6157600080fd5b84831215612f6e57600080fd5b600160a060020a0387166000908152600660205260409020612f919089906134a4565b875182526002546040805160e960020a622eefc90281529051600160a060020a0390921691635ddf9200916004808201926020929091908290030181600087803b158015612fde57600080fd5b505af1158015612ff2573d6000803e3d6000fd5b505050506040513d601f19601f820116820180604052506130169190810190614ac3565b420160208301526001604083018190525060006060830181905250600160a060020a03871660008181526006602090815260408083205460001901608080880191909152815180830183528b81528d83018051518286015260a0890191909152825180840184528b815281518501518186015260c0890152825180830184528c8b03818501908152825151606083810191909152908252600182870181905260e08b0192909252845193840185528c8b03848601908152925186015190840152908252818401819052610100880191909152938352600582529182902085518155908501518184015590840151600280830180548795919260ff19919091169190849081111561312257fe5b0217905550606082015160028201805461ff00191661010083600181111561314657fe5b0217905550608082015160038281019190915560a0830151805160048401556020908101518051600585018054600160a060020a0319908116600160a060020a039384161790915591830151600686015560c08601518051600787015583015180516008870180548516918416919091179055830151600986015560e086015180518051600a8801558401518051600b880180548616918516919091179055840151600c870155830151600d8601805460ff1990811692151592909217905561010087015180518051600e8901558501518051600f890180549096169416939093179093559083015160108601559101516011840180548316911515919091179055610120840151601284018054919390929190911690600190849081111561326b57fe5b021790555061014082015160138201556101609091015160149091018054600160a060020a031916600160a060020a039092169190911790556040517ffe465e56083deedfd635599d9f66a0dd1c61be48d7453b2a5797f92d26f27ea3906132d6908a908a906152fe565b60405180910390a15050505050505050565b600154600160a060020a0316331490565b805460009060010161330b838261393f565b5081548290600019810190811061331e57fe5b60009182526020918290208551601c929092020190815584820151600182015560408501518051600283018054600160a060020a031916600160a060020a039092169190911790559091015160038201556060840151909150613385906004830190613641565b61339681600c018460800151613696565b60a083015180516011830155602090810151601283015560c08401518051805160138501558201518051601485015580830151601585015560409081015160168501805460ff92831660ff1991821617909155928401518051601787015584015180516018870155938401516019860155920151601a8401805491909316911617905560e090920151601b9092019190915550565b600054600160a060020a0316331490565b6000826060015160200151600160a060020a031682600160a060020a0316148061347f5750826080015160200151600160a060020a031682600160a060020a0316145b90505b92915050565b6060919091015160200151600160a060020a0390811691161490565b80546000906001016134b6838261396b565b508154829060001981019081106134c957fe5b6000918252602091829020855160329290920201908155848201516001820155604085015180518051600284018054600160a060020a0319908116600160a060020a0393841617909155918501516003850155918401518051600485018054909316931692909217905590910151600582015560608401516006820155608084015190915061355c9060078301906136e8565b61356d816018018460a001516136e8565b60c0830151805180516029840155602090810151602a840155908101518051602b840155810151602c83015560e08401518051602d8401558101518051602e84015590810151602f8301556040015160308201805460ff191660ff9092169190911790556101009092015160319092019190915550565b6000826080015160200151600160a060020a031682600160a060020a0316148061347f57505060a09091015160200151600160a060020a0391821691161490565b6080919091015160200151600160a060020a0390811691161490565b80518255602080820151600184018054600160a060020a031916600160a060020a039092169190911790556040820151805160028501550151600383015560608101516136929060048401906137ae565b5050565b80518255602080820151600184018054600160a060020a031916600160a060020a03909216919091179055604082015180516002850155015160038301556060810151516136929060048401906137f2565b80518255602081015160018084018054600160a060020a031916600160a060020a03909316929092179091556040820151600284015560608201516003840180549192909160ff191690838181111561373d57fe5b021790555060808101518051600484015560208082015180516005860155810151600685015560409091015180516007850155810151600884015560a0820151805180516009860155820151600a8501558101518051600b8501550151600c83015560c081015161369290600d8401905b8051805183556020908101518051600185018054600160a060020a031916600160a060020a0390921691909117905581015160028401558101516136929060038401905b60005b815181101561089a5782828281518110151561380d57fe5b60209081029190910181015182546001808201855560009485529383902082516003909202019081559082015180518285018054600160a060020a031916600160a060020a0390921691909117905590910151600290910155016137f5565b604080516102c0810182526000808252602082018190529091820190815260200160008152602001600081526020016138a361391f565b81526020016138b061391f565b81526020016138bd613997565b81526020016138ca613997565b81526020016000815260006020820181905260409091015290565b6040805161028081018252600080825260208201529081016139056139b8565b81526020016139126139ec565b8152602001600081525090565b6060604051908101604052806000815260200161393a613a0e565b905290565b81548183558181111561089a57601c0281601c02836000526020600020918201910161089a9190613a25565b81548183558181111561089a5760320281603202836000526020600020918201910161089a9190613b50565b6080604051908101604052806139ab61391f565b8152600060209091015290565b6040805161012081018252600080825260208201529081016139d8613d20565b81526020016000815260200161393a613a0e565b61010060405190810160405280613a01613d41565b815260200161393a613d41565b604080518082019091526000808252602082015290565b61157691905b80821115613b4c57600080825560018201819055600282018054600160a060020a0319908116909155600383018290556004830182815560058401805483169055600684018390556007840183905560088401838155600985018054909316909255600a840183905590829081613aa5600b870182613d5c565b50506000600c8501818155600d86018054600160a060020a0319169055600e8601829055600f8601829055925090506010840181613ae38282613d5c565b50506000601185018190556012850181905560138501819055601485018190556015850181905560168501805460ff19908116909155601786018290556018860182905560198601829055601a860180549091169055601b8501555050601c9091019050613a2b565b5090565b61157691905b80821115613b4c57600080825560018201819055600282018054600160a060020a031990811690915560038301829055600483018054821690556005830182905560068301829055600783018281556008840180548316905560098401839055600a8401805460ff19169055600b8401839055600c8401839055600d8401839055600e8401839055600f840183905560108401839055601184018390556012840183905560138401839055601484018381556015850180549093169092556016840183905590829081613c2c6017870182613d5c565b5050600060188501818155601986018054600160a060020a0319908116909155601a8701839055601b8701805460ff19169055601c8701839055601d8701839055601e8701839055601f87018390556020870183905560218701839055602287018390556023870183905560248701839055602587018381556026880180549092169091556027870183905590935090915081613ccc6028870182613d5c565b5050600060298501819055602a8501819055602b8501819055602c8501819055602d8501819055602e8501819055602f850181905560308501805460ff191690556031850155505060329091019050613b56565b608060405190810160405280613d34613a0e565b815260200161393a613a0e565b6040805160808101909152600081526020810161393a613d7d565b5080546000825560030290600052602060002090810190610e379190613d9d565b604080516060810182526000808252602082018190529181019190915290565b61157691905b80821115613b4c576000808255600182018054600160a060020a03191690556002820155600301613da3565b600061347f82356155ad565b6000601f82018313613dec57600080fd5b8135613dff613dfa82615583565b61555d565b91508181835260208401935060208101905083856060840282011115613e2457600080fd5b60005b83811015613e525781613e3a888261403c565b84525060209092019160609190910190600101613e27565b5050505092915050565b600061347f82356155b9565b600061347f82516155b9565b600061347f8235611576565b600061347f82356155e8565b600061347f82356155f3565b600061347f8235615602565b600061347f8235615611565b60006102c08284031215613ec357600080fd5b613ece61018061555d565b90506000613edc8484613e74565b8252506020613eed84848301613e74565b6020830152506040613f0184828501613e98565b6040830152506060613f1584828501613ea4565b6060830152506080613f2984828501613e74565b60808301525060a0613f3d8482850161403c565b60a083015250610100613f528482850161403c565b60c083015250610160613f67848285016140ed565b60e0830152506101e0613f7c848285016140ed565b61010083015250610260613f9284828501613e8c565b61012083015250610280613fa884828501613e74565b610140830152506102a0613fbe84828501613dcf565b6101608301525092915050565b600060408284031215613fdd57600080fd5b613fe7604061555d565b90506000613ff58484613dcf565b825250602061400684848301613e74565b60208301525092915050565b60006040828403121561402457600080fd5b61402e604061555d565b90506000613ff58484613e74565b60006060828403121561404e57600080fd5b614058604061555d565b905060006140668484613e74565b825250602061400684848301613fcb565b60006080828403121561408957600080fd5b614093604061555d565b905060006140a18484613fcb565b825250604061400684848301613fcb565b6000608082840312156140c457600080fd5b6140ce604061555d565b905060006140dc8484614012565b825250604061400684848301614012565b6000608082840312156140ff57600080fd5b614109604061555d565b90506000614117848461403c565b825250606061400684848301613e5c565b6000610120828403121561413b57600080fd5b61414560a061555d565b905060006141538484613ea4565b825250602061416484848301613e74565b602083015250604061417884828501614077565b60408301525060c061418c84828501613e74565b60608301525060e06141a084828501614012565b60808301525092915050565b600061028082840312156141bf57600080fd5b6141c960a061555d565b905060006141d78484613e74565b82525060206141e884848301613dcf565b60208301525060406141fc84828501614128565b6040830152506101606142118482850161475f565b6060830152506102606141a084828501613e74565b600060a0828403121561423857600080fd5b614242608061555d565b905060006142508484613e74565b825250602061426184848301613dcf565b602083015250604061427584828501614012565b60408301525060808201356001604060020a0381111561429457600080fd5b6142a0848285016144fa565b60608301525092915050565b600060a082840312156142be57600080fd5b6142c8608061555d565b905060006142d68484613e74565b82525060206142e784848301613dcf565b60208301525060406142fb84828501614012565b60408301525060808201356001604060020a0381111561431a57600080fd5b6142a0848285016144a8565b6000610220828403121561433957600080fd5b61434461010061555d565b905060006143528484613e74565b825250602061436384848301613e74565b602083015250604061437784828501613fcb565b60408301525060808201356001604060020a0381111561439657600080fd5b6143a2848285016142ac565b60608301525060a08201356001604060020a038111156143c157600080fd5b6143cd84828501614226565b60808301525060c06143e184828501614012565b60a0830152506101006143f68482850161475f565b60c08301525061020061440b84828501613e74565b60e08301525092915050565b60006080828403121561442957600080fd5b614433604061555d565b905060006144418484613e74565b82525060206140068484830160006060828403121561445f57600080fd5b614469606061555d565b905060006144778484613e74565b825250602061448884848301613e74565b602083015250604061449c848285016147a7565b60408301525092915050565b6000608082840312156144ba57600080fd5b6144c4604061555d565b905060006144d2848461403c565b82525060608201356001604060020a038111156144ee57600080fd5b61400684828501613ddb565b60006020828403121561450c57600080fd5b614516602061555d565b905081356001604060020a0381111561452e57600080fd5b61453a84828501613ddb565b82525092915050565b600060a0828403121561455557600080fd5b61455f606061555d565b9050600061456d8484613e74565b825250602061457e84848301614012565b602083015250606061449c84828501614012565b60006101c082840312156145a557600080fd5b6145af60e061555d565b905060006145bd8484613e74565b82525060206145ce84848301613dcf565b60208301525060406145e284828501613e74565b60408301525060606145f684828501613ea4565b606083015250608061460a84828501614543565b60808301525061012061461f848285016140b2565b60a0830152506101a08201356001604060020a0381111561463f57600080fd5b61464b848285016144a8565b60c08301525092915050565b6000610240828403121561466a57600080fd5b61467561012061555d565b905060006146838484613e74565b825250602061469484848301613e74565b60208301525060406146a884828501614077565b60408301525060c06146bc84828501613e74565b60608301525060e08201356001604060020a038111156146db57600080fd5b6146e784828501614592565b6080830152506101008201356001604060020a0381111561470757600080fd5b61471384828501614592565b60a083015250610120614728848285016140b2565b60c0830152506101a061473d84828501614417565b60e08301525061022061475284828501613e74565b6101008301525092915050565b6000610100828403121561477257600080fd5b61477c604061555d565b9050600061478a8484614417565b825250608061400684848301614417565b600061347f8251611576565b600061347f82356155e2565b6000602082840312156147c557600080fd5b60006147d18484613dcf565b949350505050565b6000806102e083850312156147ed57600080fd5b60006147f98585613dcf565b925050602061480a85828601613eb0565b9150509250929050565b6000806040838503121561482757600080fd5b60006148338585613dcf565b925050602061480a85828601613e74565b60006020828403121561485657600080fd5b60006147d18484613e68565b60006020828403121561487457600080fd5b60006147d18484613e80565b6000610280828403121561489357600080fd5b60006147d184846141ac565b6000806102a083850312156148b357600080fd5b60006148bf85856141ac565b9250506102808301356001604060020a038111156148dc57600080fd5b61480a85828601614657565b6000602082840312156148fa57600080fd5b81356001604060020a0381111561491057600080fd5b6147d184828501614326565b6000806040838503121561492f57600080fd5b82356001604060020a0381111561494557600080fd5b61495185828601614326565b925050602061480a85828601613dcf565b60008060006060848603121561497757600080fd5b83356001604060020a0381111561498d57600080fd5b61499986828701614326565b93505060206149aa86828701613dcf565b92505060406149bb86828701613e74565b9150509250925092565b6000602082840312156149d757600080fd5b81356001604060020a038111156149ed57600080fd5b6147d184828501614657565b60008060408385031215614a0c57600080fd5b82356001604060020a03811115614a2257600080fd5b61495185828601614657565b60008060008060808587031215614a4457600080fd5b84356001604060020a03811115614a5a57600080fd5b614a6687828801614657565b9450506020614a7787828801613dcf565b9350506040614a8887828801613e74565b9250506060614a9987828801613e74565b91505092959194509250565b600060208284031215614ab757600080fd5b60006147d18484613e74565b600060208284031215614ad557600080fd5b60006147d1848461479b565b614aea816155ad565b82525050565b6000614afb826155a9565b808452602084019350614b0d836155a3565b60005b82811015614b3d57614b23868351614ca5565b614b2c826155a3565b606096909601959150600101614b10565b5093949350505050565b614aea816155b9565b614aea81611576565b614aea816155e8565b614aea81615620565b614aea8161562b565b614aea81615636565b80516102c0830190614b8f8482614b50565b506020820151614ba26020850182614b50565b506040820151614bb56040850182614b74565b506060820151614bc86060850182614b6b565b506080820151614bdb6080850182614b50565b5060a0820151614bee60a0850182614ca5565b5060c0820151614c02610100850182614ca5565b5060e0820151614c16610160850182614d11565b50610100820151614c2b6101e0850182614d11565b50610120820151614c40610260850182614b62565b50610140820151614c55610280850182614b50565b50610160820151614c6a6102a0850182614ae1565b50505050565b80516040830190614c818482614ae1565b506020820151614c6a6020850182614b50565b80516040830190614c818482614b50565b80516060830190614cb68482614b50565b506020820151614c6a6020850182614c70565b80516080830190614cda8482614c70565b506020820151614c6a6040850182614c70565b80516080830190614cfe8482614c94565b506020820151614c6a6040850182614c94565b80516080830190614d228482614ca5565b506020820151614c6a6060850182614b47565b8051610120830190614d478482614b6b565b506020820151614d5a6020850182614b50565b506040820151614d6d6040850182614cc9565b506060820151614d8060c0850182614b50565b506080820151614c6a60e0850182614c94565b8051610280830190614da58482614b50565b506020820151614db86020850182614ae1565b506040820151614dcb6040850182614d35565b506060820151614ddf610160850182615171565b506080820151614c6a610260850182614b50565b805160009060a0840190614e078582614b50565b506020830151614e1a6020860182614ae1565b506040830151614e2d6040860182614c94565b5060608301518482036080860152614e458282614fd4565b95945050505050565b805160009060a0840190614e628582614b50565b506020830151614e756020860182614ae1565b506040830151614e886040860182614c94565b5060608301518482036080860152614e458282614fa8565b8051600090610220840190614eb58582614b50565b506020830151614ec86020860182614b50565b506040830151614edb6040860182614c70565b5060608301518482036080860152614ef38282614e4e565b915050608083015184820360a0860152614f0d8282614df3565b91505060a0830151614f2260c0860182614c94565b5060c0830151614f36610100860182615171565b5060e0830151614f4a610200860182614b50565b509392505050565b80516080830190614f638482614b50565b506020820151614c6a602085018280516060830190614f828482614b50565b506020820151614f956020850182614b50565b506040820151614c6a6040850182615196565b80516000906080840190614fbc8582614ca5565b5060208301518482036060860152614e458282614af0565b8051602080845260009190840190614e458282614af0565b805160a0830190614ffd8482614b50565b5060208201516150106020850182614c94565b506040820151614c6a6060850182614c94565b80516000906101c08401906150388582614b50565b50602083015161504b6020860182614ae1565b50604083015161505e6040860182614b50565b5060608301516150716060860182614b6b565b5060808301516150846080860182614fec565b5060a0830151615098610120860182614ced565b5060c08301518482036101a0860152614e458282614fa8565b80516000906102408401906150c68582614b50565b5060208301516150d96020860182614b50565b5060408301516150ec6040860182614cc9565b5060608301516150ff60c0860182614b50565b50608083015184820360e08601526151178282615023565b91505060a08301518482036101008601526151328282615023565b91505060c0830151615148610120860182614ced565b5060e083015161515c6101a0860182614f52565b50610100830151614f4a610220860182614b50565b80516101008301906151838482614f52565b506020820151614c6a6080850182614f52565b614aea816155e2565b602081016134828284614ae1565b604081016151bb8285614ae1565b6151c86020830184614ae1565b9392505050565b602081016134828284614b59565b604081016151eb8285614b59565b6151c86020830184614b59565b602081016134828284614b74565b602081016134828284614b50565b6102c081016134828284614b7d565b606081016134828284614ca5565b61028081016134828284614d93565b6102a0810161524f8285614d93565b6151c8610280830184614ae1565b6102c0810161526c8286614d93565b81810361028083015261527f81856150b1565b90506147d16102a0830184614ae1565b6020808252810161347f8184614ea0565b604080825281016152b18185614ea0565b90506151c86020830184614ae1565b606080825281016152d18186614ea0565b90506152e06020830185614ae1565b6147d16040830184614ae1565b6020808252810161347f81846150b1565b604080825281016152b181856150b1565b606080825281016152d181866150b1565b610280810161532f8288614b50565b61533c6020830187614ae1565b6153496040830186614d35565b615357610160830185615171565b615365610260830184614b50565b9695505050505050565b6040810161537d8285614b50565b6151c86020830184614b6b565b6102208101615399828b614b50565b6153a6602083018a614b50565b6153b36040830189614c70565b81810360808301526153c58188614e4e565b905081810360a08301526153d98187614df3565b90506153e860c0830186614c94565b6153f6610100830185615171565b615404610200830184614b50565b9998505050505050505050565b6102408101615420828c614b50565b61542d602083018b614b50565b61543a604083018a614cc9565b61544760c0830189614b50565b81810360e08301526154598188615023565b905081810361010083015261546e8187615023565b905061547e610120830186614ced565b61548c6101a0830185614f52565b61549a610220830184614b50565b9a9950505050505050505050565b6102c081016154b7828f614b50565b6154c4602083018e614b50565b6154d1604083018d614b74565b6154de606083018c614b6b565b6154eb608083018b614b50565b6154f860a083018a614ca5565b615506610100830189614ca5565b615514610160830188614d11565b6155226101e0830187614d11565b615530610260830186614b62565b61553e610280830185614b50565b61554c6102a0830184614ae1565b9d9c50505050505050505050505050565b6040518181016001604060020a038111828210171561557b57600080fd5b604052919050565b60006001604060020a0382111561559957600080fd5b5060209081020190565b60200190565b5190565b600160a060020a031690565b151590565b600060048210613b4c57fe5b600060028210613b4c57fe5b600060038210613b4c57fe5b60ff1690565b6000613482826155ad565b600060048210613b4c57600080fd5b600060038210613b4c57600080fd5b600060028210613b4c57600080fd5b6000613482826155be565b6000613482826155ca565b6000613482826155d65600a265627a7a72305820f9cdd2780ab82fac036fcb94aa0aeb48420e35c425b16cced5b86567aef4a0be6c6578706572696d656e74616cf50037",
    "source": "/*\n * Hubii Nahmii\n *\n * Compliant with the Hubii Nahmii specification v0.12.\n *\n * Copyright (C) 2017-2018 Hubii AS\n */\n\npragma solidity ^0.4.24;\npragma experimental ABIEncoderV2;\n\nimport {Ownable} from \"./Ownable.sol\";\nimport {Validatable} from \"./Validatable.sol\";\nimport {NahmiiChallenge} from \"./NahmiiChallenge.sol\";\nimport {SafeMathInt} from \"./SafeMathInt.sol\";\nimport {DriipSettlementDispute} from \"./DriipSettlementDispute.sol\";\nimport {MonetaryTypes} from \"./MonetaryTypes.sol\";\nimport {NahmiiTypes} from \"./NahmiiTypes.sol\";\nimport {DriipSettlementTypes} from \"./DriipSettlementTypes.sol\";\n\n/**\n@title DriipSettlementChallenge\n@notice Where driip settlements are challenged\n*/\ncontract DriipSettlementChallenge is Ownable, NahmiiChallenge, Validatable {\n    using SafeMathInt for int256;\n\n    //\n    // Variables\n    // -----------------------------------------------------------------------------------------------------------------\n    DriipSettlementDispute public driipSettlementDispute;\n\n    mapping(address => DriipSettlementTypes.Challenge) public walletChallengeMap;\n\n    mapping(address => NahmiiTypes.Trade[]) public walletChallengedTradesMap;\n    mapping(address => NahmiiTypes.Payment[]) public walletChallengedPaymentsMap;\n\n    NahmiiTypes.Order[] public challengeCandidateOrders;\n    NahmiiTypes.Trade[] public challengeCandidateTrades;\n    NahmiiTypes.Payment[] public challengeCandidatePayments;\n\n    //\n    // Events\n    // -----------------------------------------------------------------------------------------------------------------\n    event ChangeDriipSettlementDisputeEvent(DriipSettlementDispute oldDriipSettlementDispute, DriipSettlementDispute newDriipSettlementDispute);\n    event StartChallengeFromTradeEvent(NahmiiTypes.Trade trade, address wallet);\n    event StartChallengeFromPaymentEvent(NahmiiTypes.Payment payment, address wallet);\n\n    //\n    // Constructor\n    // -----------------------------------------------------------------------------------------------------------------\n    constructor(address owner) Ownable(owner) public {\n    }\n\n    //\n    // Functions\n    // -----------------------------------------------------------------------------------------------------------------\n    /// @notice Change the driip settlement challenger contract\n    /// @param newDriipSettlementDispute The (address of) DriipSettlementDispute contract instance\n    function changeDriipSettlementDispute(DriipSettlementDispute newDriipSettlementDispute) public\n    onlyDeployer\n    notNullAddress(newDriipSettlementDispute)\n    {\n        DriipSettlementDispute oldDriipSettlementDispute = driipSettlementDispute;\n        driipSettlementDispute = newDriipSettlementDispute;\n        emit ChangeDriipSettlementDisputeEvent(oldDriipSettlementDispute, driipSettlementDispute);\n    }\n\n    /// @notice Get the number of current and past driip settlement challenges from trade for given wallet\n    /// @param wallet The wallet for which to return count\n    function walletChallengedTradesCount(address wallet) public view returns (uint256) {\n        return walletChallengedTradesMap[wallet].length;\n    }\n\n    /// @notice Get the number of current and past driip settlement challenges from payment for given wallet\n    /// @param wallet The wallet for which to return count\n    function walletChallengedPaymentsCount(address wallet) public view returns (uint256) {\n        return walletChallengedPaymentsMap[wallet].length;\n    }\n\n    /// @notice Return the number of (challenge) candidate orders\n    function challengeCandidateOrdersCount() public view returns (uint256) {\n        return challengeCandidateOrders.length;\n    }\n\n    /// @notice Return the challenge candidate order at the given index\n    /// @dev This acts as a double of challengeCandidateOrders() which rather then returning NahmiiTypes.Order\n    /// returns (uint256, address, NahmiiTypes.OrderPlacement, NahmiiTypes.WalletExchangeSeal, uint256)\n    /// @param index The index of challenge order candidate\n    function getChallengeCandidateOrder(uint256 index) public view returns (NahmiiTypes.Order) {\n        return challengeCandidateOrders[index];\n    }\n\n    /// @notice Return the number of (challenge) candidate trades\n    function challengeCandidateTradesCount() public view returns (uint256) {\n        return challengeCandidateTrades.length;\n    }\n\n    /// @notice Return the number of (challenge) candidate payments\n    function challengeCandidatePaymentsCount() public view returns (uint256) {\n        return challengeCandidatePayments.length;\n    }\n\n    /// @notice Start driip settlement challenge on driip of trade type\n    /// @param trade The challenged driip\n    /// @param wallet The relevant driip party\n    /// @param intendedStageAmount Amount of intended currency to be staged\n    /// @param conjugateStageAmount Amount of conjugate currency to be staged\n    function startChallengeFromTrade(NahmiiTypes.Trade trade, address wallet, int256 intendedStageAmount, int256 conjugateStageAmount)\n    public\n    validatorInitialized\n    onlySealedTrade(trade)\n    {\n        require(configuration != address(0));\n        require(intendedStageAmount.isPositiveInt256());\n        require(conjugateStageAmount.isPositiveInt256());\n\n        if (msg.sender != deployer)\n            wallet = msg.sender;\n\n        require(isDeployer() || NahmiiTypes.isTradeParty(trade, wallet));\n\n        require(\n            0 == walletChallengeMap[wallet].nonce ||\n            block.timestamp >= walletChallengeMap[wallet].timeout\n        );\n\n        (int256 intendedBalanceAmount, int256 conjugateBalanceAmount) =\n        (NahmiiTypes.isTradeBuyer(trade, wallet) ?\n        (trade.buyer.balances.intended.current, trade.buyer.balances.conjugate.current) :\n        (trade.seller.balances.intended.current, trade.seller.balances.conjugate.current));\n\n        require(intendedBalanceAmount >= intendedStageAmount);\n        require(conjugateBalanceAmount >= conjugateStageAmount);\n\n        pushMemoryTradeToStorageArray(trade, walletChallengedTradesMap[wallet]);\n\n        DriipSettlementTypes.Challenge memory challenge;\n        challenge.nonce = trade.nonce;\n        challenge.timeout = block.timestamp + configuration.getDriipSettlementChallengeTimeout();\n        challenge.status = DriipSettlementTypes.ChallengeStatus.Qualified;\n        //        challenge.driipExchangeHash = trade.seal.hash;\n        challenge.driipType = NahmiiTypes.DriipType.Trade;\n        challenge.driipIndex = walletChallengedTradesMap[wallet].length - 1;\n        challenge.intendedStage = MonetaryTypes.Figure(intendedStageAmount, trade.currencies.intended);\n        challenge.conjugateStage = MonetaryTypes.Figure(conjugateStageAmount, trade.currencies.conjugate);\n        challenge.intendedTargetBalance = DriipSettlementTypes.OptionalFigure(MonetaryTypes.Figure(intendedBalanceAmount - intendedStageAmount, trade.currencies.intended), true);\n        challenge.conjugateTargetBalance = DriipSettlementTypes.OptionalFigure(MonetaryTypes.Figure(conjugateBalanceAmount - conjugateStageAmount, trade.currencies.conjugate), true);\n\n        walletChallengeMap[wallet] = challenge;\n\n        emit StartChallengeFromTradeEvent(trade, wallet);\n    }\n\n    /// @notice Start driip settlement challenge on driip of payment type\n    /// @param payment The challenged driip\n    /// @param wallet The relevant driip party\n    /// @param stageAmount Amount of payment currency to be staged\n    function startChallengeFromPayment(NahmiiTypes.Payment payment, address wallet, int256 stageAmount) public\n    validatorInitialized\n    onlySealedPayment(payment)\n    {\n        require(configuration != address(0));\n        require(stageAmount.isPositiveInt256());\n\n        if (msg.sender != deployer)\n            wallet = msg.sender;\n\n        require(isDeployer() || NahmiiTypes.isPaymentParty(payment, wallet));\n\n        require(\n            0 == walletChallengeMap[wallet].nonce || block.timestamp >= walletChallengeMap[wallet].timeout\n        );\n\n        int256 balanceAmount = (NahmiiTypes.isPaymentSender(payment, wallet) ?\n        payment.sender.balances.current :\n        payment.recipient.balances.current);\n\n        require(balanceAmount >= stageAmount);\n\n        pushMemoryPaymentToStorageArray(payment, walletChallengedPaymentsMap[wallet]);\n\n        DriipSettlementTypes.Challenge memory challenge;\n        challenge.nonce = payment.nonce;\n        challenge.timeout = block.timestamp + configuration.getDriipSettlementChallengeTimeout();\n        challenge.status = DriipSettlementTypes.ChallengeStatus.Qualified;\n        //        challenge.driipExchangeHash = payment.seals.exchange.hash;\n        challenge.driipType = NahmiiTypes.DriipType.Payment;\n        challenge.driipIndex = walletChallengedPaymentsMap[wallet].length - 1;\n        challenge.intendedStage = MonetaryTypes.Figure(stageAmount, payment.currency);\n        challenge.intendedTargetBalance = DriipSettlementTypes.OptionalFigure(MonetaryTypes.Figure(balanceAmount - stageAmount, payment.currency), true);\n\n        walletChallengeMap[wallet] = challenge;\n\n        emit StartChallengeFromPaymentEvent(payment, wallet);\n    }\n\n    /// @notice Get driip settlement challenge phase of given wallet\n    /// @param wallet The wallet whose challenge phase will be returned\n    function getPhase(address wallet) public view returns (uint, NahmiiTypes.ChallengePhase) {\n        if (msg.sender != deployer)\n            wallet = msg.sender;\n        if (0 == walletChallengeMap[wallet].nonce)\n            return (0, NahmiiTypes.ChallengePhase.Closed);\n        else if (block.timestamp < walletChallengeMap[wallet].timeout)\n            return (walletChallengeMap[wallet].nonce, NahmiiTypes.ChallengePhase.Dispute);\n        else\n            return (walletChallengeMap[wallet].nonce, NahmiiTypes.ChallengePhase.Closed);\n    }\n\n    function getChallengeNonce(address wallet) public view returns (uint256) {\n        return walletChallengeMap[wallet].nonce;\n    }\n\n    function getChallengeStatus(address wallet)\n    public\n    view\n    returns (DriipSettlementTypes.ChallengeStatus)\n    {\n        return walletChallengeMap[wallet].status;\n    }\n\n    function getChallengeIntendedStage(address wallet)\n    public\n    view\n    returns (MonetaryTypes.Figure)\n    {\n        return walletChallengeMap[wallet].intendedStage;\n    }\n\n    function getChallengeConjugateStage(address wallet)\n    public\n    view\n    returns (MonetaryTypes.Figure)\n    {\n        return walletChallengeMap[wallet].conjugateStage;\n    }\n\n    function getChallengeChallenger(address wallet)\n    public\n    view\n    returns (address)\n    {\n        return walletChallengeMap[wallet].challenger;\n    }\n\n    //\n    // Functions implemented in DriipSettlementDispute\n    // -----------------------------------------------------------------------------------------------------------------\n\n    /// @notice Challenge the driip settlement by providing order candidate\n    /// @param order The order candidate that challenges the challenged driip\n    function challengeByOrder(NahmiiTypes.Order order)\n    public\n    onlyOperationalModeNormal\n    {\n        driipSettlementDispute.challengeByOrder(order, msg.sender);\n    }\n\n    /// @notice Unchallenge driip settlement by providing trade that shows that challenge order candidate has been filled\n    /// @param order The order candidate that challenged driip\n    /// @param trade The trade in which order has been filled\n    function unchallengeOrderCandidateByTrade(NahmiiTypes.Order order, NahmiiTypes.Trade trade)\n    public\n    onlyOperationalModeNormal\n    {\n        driipSettlementDispute.unchallengeOrderCandidateByTrade(order, trade, msg.sender);\n    }\n\n    /// @notice Challenge the driip settlement by providing trade candidate\n    /// @param trade The trade candidate that challenges the challenged driip\n    /// @param wallet The wallet whose driip settlement is being challenged\n    function challengeByTrade(NahmiiTypes.Trade trade, address wallet)\n    public\n    onlyOperationalModeNormal\n    {\n        driipSettlementDispute.challengeByTrade(trade, wallet, msg.sender);\n    }\n\n    /// @notice Challenge the driip settlement by providing payment candidate\n    /// @param payment The payment candidate that challenges the challenged driip\n    /// @param wallet The wallet whose driip settlement is being challenged\n    function challengeByPayment(NahmiiTypes.Payment payment, address wallet)\n    public\n    onlyOperationalModeNormal\n    {\n        driipSettlementDispute.challengeByPayment(payment, wallet, msg.sender);\n    }\n\n    //\n    // Helpers for DriipSettlementDispute\n    // -----------------------------------------------------------------------------------------------------------------\n    function getWalletChallenge(address wallet) public view onlyDriipSettlementDispute returns (DriipSettlementTypes.Challenge) {\n        return walletChallengeMap[wallet];\n    }\n\n    function setWalletChallenge(address wallet, DriipSettlementTypes.Challenge challenge) public onlyDriipSettlementDispute {\n        walletChallengeMap[wallet] = challenge;\n    }\n\n    function resetWalletChallenge(address wallet) public onlyDriipSettlementDispute {\n        walletChallengeMap[wallet].status = DriipSettlementTypes.ChallengeStatus.Qualified;\n        walletChallengeMap[wallet].candidateType = DriipSettlementTypes.ChallengeCandidateType.None;\n        walletChallengeMap[wallet].candidateIndex = 0;\n        walletChallengeMap[wallet].challenger = address(0);\n    }\n\n    function pushChallengeCandidateOrder(NahmiiTypes.Order order) public onlyDriipSettlementDispute {\n        challengeCandidateOrders.push(order);\n    }\n\n    function getChallengeCandidateOrdersLength() public view onlyDriipSettlementDispute returns (uint256) {\n        return challengeCandidateOrders.length;\n    }\n\n    function pushChallengeCandidateTrade(NahmiiTypes.Trade trade) public onlyDriipSettlementDispute {\n        pushMemoryTradeToStorageArray(trade, challengeCandidateTrades);\n    }\n\n    function getChallengeCandidateTradesLength() public view onlyDriipSettlementDispute returns (uint256) {\n        return challengeCandidateTrades.length;\n    }\n\n    function pushChallengeCandidatePayment(NahmiiTypes.Payment payment) public onlyDriipSettlementDispute {\n        pushMemoryPaymentToStorageArray(payment, challengeCandidatePayments);\n    }\n\n    function getChallengeCandidatePaymentsLength() public view onlyDriipSettlementDispute returns (uint256) {\n        return challengeCandidatePayments.length;\n    }\n\n    //\n    // Modifiers\n    // -----------------------------------------------------------------------------------------------------------------\n    modifier onlyDriipSettlementDispute() {\n        require(msg.sender == address(driipSettlementDispute));\n        _;\n    }\n}\n",
    "sourcePath": "/Users/yons/development/hubii/contracts-demo/node_modules/nahmii-contracts/contracts/DriipSettlementChallenge.sol",
    "compiler": {
        "name": "solc",
        "version": "0.4.24+commit.e67f0147.Emscripten.clang"
    },
    "schemaVersion": "2.0.1",
    "updatedAt": "2018-10-25T02:32:20.250Z"
}