{
  "contractName": "DriipSettlementChallenge",
  "abi": [
    {
      "constant": false,
      "inputs": [
        {
          "name": "newOperator",
          "type": "address"
        }
      ],
      "name": "changeOperator",
      "outputs": [],
      "payable": false,
      "stateMutability": "nonpayable",
      "type": "function"
    },
    {
      "constant": true,
      "inputs": [
        {
          "name": "",
          "type": "uint256"
        }
      ],
      "name": "challengedTradeHashes",
      "outputs": [
        {
          "name": "",
          "type": "bytes32"
        }
      ],
      "payable": false,
      "stateMutability": "view",
      "type": "function"
    },
    {
      "constant": true,
      "inputs": [
        {
          "name": "",
          "type": "address"
        },
        {
          "name": "",
          "type": "uint256"
        }
      ],
      "name": "challengedTradeHashesByWallet",
      "outputs": [
        {
          "name": "",
          "type": "bytes32"
        }
      ],
      "payable": false,
      "stateMutability": "view",
      "type": "function"
    },
    {
      "constant": true,
      "inputs": [
        {
          "name": "",
          "type": "uint256"
        }
      ],
      "name": "challengeCandidateOrderHashes",
      "outputs": [
        {
          "name": "",
          "type": "bytes32"
        }
      ],
      "payable": false,
      "stateMutability": "view",
      "type": "function"
    },
    {
      "constant": true,
      "inputs": [],
      "name": "validator",
      "outputs": [
        {
          "name": "",
          "type": "address"
        }
      ],
      "payable": false,
      "stateMutability": "view",
      "type": "function"
    },
    {
      "constant": true,
      "inputs": [],
      "name": "destructor",
      "outputs": [
        {
          "name": "",
          "type": "address"
        }
      ],
      "payable": false,
      "stateMutability": "view",
      "type": "function"
    },
    {
      "constant": true,
      "inputs": [
        {
          "name": "",
          "type": "address"
        }
      ],
      "name": "proposalsByWallet",
      "outputs": [
        {
          "name": "nonce",
          "type": "uint256"
        },
        {
          "name": "blockNumber",
          "type": "uint256"
        },
        {
          "name": "timeout",
          "type": "uint256"
        },
        {
          "name": "status",
          "type": "uint8"
        },
        {
          "name": "driipType",
          "type": "uint8"
        },
        {
          "name": "driipIndex",
          "type": "uint256"
        },
        {
          "name": "balanceReward",
          "type": "bool"
        },
        {
          "name": "candidateType",
          "type": "uint8"
        },
        {
          "name": "candidateIndex",
          "type": "uint256"
        },
        {
          "name": "challenger",
          "type": "address"
        }
      ],
      "payable": false,
      "stateMutability": "view",
      "type": "function"
    },
    {
      "constant": true,
      "inputs": [],
      "name": "operator",
      "outputs": [
        {
          "name": "",
          "type": "address"
        }
      ],
      "payable": false,
      "stateMutability": "view",
      "type": "function"
    },
    {
      "constant": true,
      "inputs": [],
      "name": "configuration",
      "outputs": [
        {
          "name": "",
          "type": "address"
        }
      ],
      "payable": false,
      "stateMutability": "view",
      "type": "function"
    },
    {
      "constant": false,
      "inputs": [
        {
          "name": "newConfiguration",
          "type": "address"
        }
      ],
      "name": "changeConfiguration",
      "outputs": [],
      "payable": false,
      "stateMutability": "nonpayable",
      "type": "function"
    },
    {
      "constant": false,
      "inputs": [],
      "name": "triggerDestroy",
      "outputs": [],
      "payable": false,
      "stateMutability": "nonpayable",
      "type": "function"
    },
    {
      "constant": true,
      "inputs": [
        {
          "name": "",
          "type": "address"
        },
        {
          "name": "",
          "type": "uint256"
        }
      ],
      "name": "challengedPaymentHashesByWallet",
      "outputs": [
        {
          "name": "",
          "type": "bytes32"
        }
      ],
      "payable": false,
      "stateMutability": "view",
      "type": "function"
    },
    {
      "constant": true,
      "inputs": [
        {
          "name": "",
          "type": "uint256"
        }
      ],
      "name": "challengeCandidateTradeHashes",
      "outputs": [
        {
          "name": "",
          "type": "bytes32"
        }
      ],
      "payable": false,
      "stateMutability": "view",
      "type": "function"
    },
    {
      "constant": true,
      "inputs": [
        {
          "name": "",
          "type": "uint256"
        }
      ],
      "name": "challengeCandidatePaymentHashes",
      "outputs": [
        {
          "name": "",
          "type": "bytes32"
        }
      ],
      "payable": false,
      "stateMutability": "view",
      "type": "function"
    },
    {
      "constant": true,
      "inputs": [
        {
          "name": "",
          "type": "uint256"
        }
      ],
      "name": "challengedPaymentHashes",
      "outputs": [
        {
          "name": "",
          "type": "bytes32"
        }
      ],
      "payable": false,
      "stateMutability": "view",
      "type": "function"
    },
    {
      "constant": true,
      "inputs": [],
      "name": "driipSettlementDispute",
      "outputs": [
        {
          "name": "",
          "type": "address"
        }
      ],
      "payable": false,
      "stateMutability": "view",
      "type": "function"
    },
    {
      "constant": true,
      "inputs": [],
      "name": "deployer",
      "outputs": [
        {
          "name": "",
          "type": "address"
        }
      ],
      "payable": false,
      "stateMutability": "view",
      "type": "function"
    },
    {
      "constant": false,
      "inputs": [
        {
          "name": "newDeployer",
          "type": "address"
        }
      ],
      "name": "changeDeployer",
      "outputs": [],
      "payable": false,
      "stateMutability": "nonpayable",
      "type": "function"
    },
    {
      "constant": true,
      "inputs": [
        {
          "name": "",
          "type": "uint256"
        }
      ],
      "name": "challengedWallets",
      "outputs": [
        {
          "name": "",
          "type": "address"
        }
      ],
      "payable": false,
      "stateMutability": "view",
      "type": "function"
    },
    {
      "constant": false,
      "inputs": [
        {
          "name": "newAddress",
          "type": "address"
        }
      ],
      "name": "changeValidator",
      "outputs": [],
      "payable": false,
      "stateMutability": "nonpayable",
      "type": "function"
    },
    {
      "inputs": [
        {
          "name": "owner",
          "type": "address"
        }
      ],
      "payable": false,
      "stateMutability": "nonpayable",
      "type": "constructor"
    },
    {
      "anonymous": false,
      "inputs": [
        {
          "indexed": false,
          "name": "oldDriipSettlementDispute",
          "type": "address"
        },
        {
          "indexed": false,
          "name": "newDriipSettlementDispute",
          "type": "address"
        }
      ],
      "name": "ChangeDriipSettlementDisputeEvent",
      "type": "event"
    },
    {
      "anonymous": false,
      "inputs": [
        {
          "indexed": false,
          "name": "wallet",
          "type": "address"
        },
        {
          "indexed": false,
          "name": "tradeHash",
          "type": "bytes32"
        },
        {
          "indexed": false,
          "name": "intendedStageAmount",
          "type": "int256"
        },
        {
          "indexed": false,
          "name": "conjugateStageAmount",
          "type": "int256"
        }
      ],
      "name": "StartChallengeFromTradeEvent",
      "type": "event"
    },
    {
      "anonymous": false,
      "inputs": [
        {
          "indexed": false,
          "name": "proxy",
          "type": "address"
        },
        {
          "indexed": false,
          "name": "wallet",
          "type": "address"
        },
        {
          "indexed": false,
          "name": "tradeHash",
          "type": "bytes32"
        },
        {
          "indexed": false,
          "name": "intendedStageAmount",
          "type": "int256"
        },
        {
          "indexed": false,
          "name": "conjugateStageAmount",
          "type": "int256"
        }
      ],
      "name": "StartChallengeFromTradeByProxyEvent",
      "type": "event"
    },
    {
      "anonymous": false,
      "inputs": [
        {
          "indexed": false,
          "name": "wallet",
          "type": "address"
        },
        {
          "indexed": false,
          "name": "paymentHash",
          "type": "bytes32"
        },
        {
          "indexed": false,
          "name": "stageAmount",
          "type": "int256"
        }
      ],
      "name": "StartChallengeFromPaymentEvent",
      "type": "event"
    },
    {
      "anonymous": false,
      "inputs": [
        {
          "indexed": false,
          "name": "proxy",
          "type": "address"
        },
        {
          "indexed": false,
          "name": "wallet",
          "type": "address"
        },
        {
          "indexed": false,
          "name": "paymentHash",
          "type": "bytes32"
        },
        {
          "indexed": false,
          "name": "stageAmount",
          "type": "int256"
        }
      ],
      "name": "StartChallengeFromPaymentByProxyEvent",
      "type": "event"
    },
    {
      "anonymous": false,
      "inputs": [
        {
          "indexed": false,
          "name": "oldAddress",
          "type": "address"
        },
        {
          "indexed": false,
          "name": "newAddress",
          "type": "address"
        }
      ],
      "name": "ChangeValidatorEvent",
      "type": "event"
    },
    {
      "anonymous": false,
      "inputs": [
        {
          "indexed": false,
          "name": "oldConfiguration",
          "type": "address"
        },
        {
          "indexed": false,
          "name": "newConfiguration",
          "type": "address"
        }
      ],
      "name": "ChangeConfigurationEvent",
      "type": "event"
    },
    {
      "anonymous": false,
      "inputs": [
        {
          "indexed": false,
          "name": "oldDeployer",
          "type": "address"
        },
        {
          "indexed": false,
          "name": "newDeployer",
          "type": "address"
        }
      ],
      "name": "ChangeDeployerEvent",
      "type": "event"
    },
    {
      "anonymous": false,
      "inputs": [
        {
          "indexed": false,
          "name": "oldOperator",
          "type": "address"
        },
        {
          "indexed": false,
          "name": "newOperator",
          "type": "address"
        }
      ],
      "name": "ChangeOperatorEvent",
      "type": "event"
    },
    {
      "constant": false,
      "inputs": [
        {
          "name": "newDriipSettlementDispute",
          "type": "address"
        }
      ],
      "name": "changeDriipSettlementDispute",
      "outputs": [],
      "payable": false,
      "stateMutability": "nonpayable",
      "type": "function"
    },
    {
      "constant": true,
      "inputs": [],
      "name": "challengedWalletsCount",
      "outputs": [
        {
          "name": "",
          "type": "uint256"
        }
      ],
      "payable": false,
      "stateMutability": "view",
      "type": "function"
    },
    {
      "constant": true,
      "inputs": [],
      "name": "challengedTradeHashesCount",
      "outputs": [
        {
          "name": "",
          "type": "uint256"
        }
      ],
      "payable": false,
      "stateMutability": "view",
      "type": "function"
    },
    {
      "constant": true,
      "inputs": [],
      "name": "challengedPaymentHashesCount",
      "outputs": [
        {
          "name": "",
          "type": "uint256"
        }
      ],
      "payable": false,
      "stateMutability": "view",
      "type": "function"
    },
    {
      "constant": true,
      "inputs": [
        {
          "name": "wallet",
          "type": "address"
        }
      ],
      "name": "walletChallengedTradeHashesCount",
      "outputs": [
        {
          "name": "",
          "type": "uint256"
        }
      ],
      "payable": false,
      "stateMutability": "view",
      "type": "function"
    },
    {
      "constant": true,
      "inputs": [
        {
          "name": "wallet",
          "type": "address"
        }
      ],
      "name": "walletChallengedPaymentHashesCount",
      "outputs": [
        {
          "name": "",
          "type": "uint256"
        }
      ],
      "payable": false,
      "stateMutability": "view",
      "type": "function"
    },
    {
      "constant": false,
      "inputs": [
        {
          "components": [
            {
              "name": "nonce",
              "type": "uint256"
            },
            {
              "name": "amount",
              "type": "int256"
            },
            {
              "components": [
                {
                  "components": [
                    {
                      "name": "ct",
                      "type": "address"
                    },
                    {
                      "name": "id",
                      "type": "uint256"
                    }
                  ],
                  "name": "intended",
                  "type": "tuple"
                },
                {
                  "components": [
                    {
                      "name": "ct",
                      "type": "address"
                    },
                    {
                      "name": "id",
                      "type": "uint256"
                    }
                  ],
                  "name": "conjugate",
                  "type": "tuple"
                }
              ],
              "name": "currencies",
              "type": "tuple"
            },
            {
              "name": "rate",
              "type": "int256"
            },
            {
              "components": [
                {
                  "name": "nonce",
                  "type": "uint256"
                },
                {
                  "name": "wallet",
                  "type": "address"
                },
                {
                  "name": "rollingVolume",
                  "type": "uint256"
                },
                {
                  "name": "liquidityRole",
                  "type": "uint8"
                },
                {
                  "components": [
                    {
                      "name": "amount",
                      "type": "int256"
                    },
                    {
                      "components": [
                        {
                          "name": "wallet",
                          "type": "bytes32"
                        },
                        {
                          "name": "operator",
                          "type": "bytes32"
                        }
                      ],
                      "name": "hashes",
                      "type": "tuple"
                    },
                    {
                      "components": [
                        {
                          "name": "current",
                          "type": "int256"
                        },
                        {
                          "name": "previous",
                          "type": "int256"
                        }
                      ],
                      "name": "residuals",
                      "type": "tuple"
                    }
                  ],
                  "name": "order",
                  "type": "tuple"
                },
                {
                  "components": [
                    {
                      "components": [
                        {
                          "name": "current",
                          "type": "int256"
                        },
                        {
                          "name": "previous",
                          "type": "int256"
                        }
                      ],
                      "name": "intended",
                      "type": "tuple"
                    },
                    {
                      "components": [
                        {
                          "name": "current",
                          "type": "int256"
                        },
                        {
                          "name": "previous",
                          "type": "int256"
                        }
                      ],
                      "name": "conjugate",
                      "type": "tuple"
                    }
                  ],
                  "name": "balances",
                  "type": "tuple"
                },
                {
                  "components": [
                    {
                      "components": [
                        {
                          "name": "amount",
                          "type": "int256"
                        },
                        {
                          "components": [
                            {
                              "name": "ct",
                              "type": "address"
                            },
                            {
                              "name": "id",
                              "type": "uint256"
                            }
                          ],
                          "name": "currency",
                          "type": "tuple"
                        }
                      ],
                      "name": "single",
                      "type": "tuple"
                    },
                    {
                      "components": [
                        {
                          "name": "amount",
                          "type": "int256"
                        },
                        {
                          "components": [
                            {
                              "name": "ct",
                              "type": "address"
                            },
                            {
                              "name": "id",
                              "type": "uint256"
                            }
                          ],
                          "name": "currency",
                          "type": "tuple"
                        }
                      ],
                      "name": "total",
                      "type": "tuple[]"
                    }
                  ],
                  "name": "fees",
                  "type": "tuple"
                }
              ],
              "name": "buyer",
              "type": "tuple"
            },
            {
              "components": [
                {
                  "name": "nonce",
                  "type": "uint256"
                },
                {
                  "name": "wallet",
                  "type": "address"
                },
                {
                  "name": "rollingVolume",
                  "type": "uint256"
                },
                {
                  "name": "liquidityRole",
                  "type": "uint8"
                },
                {
                  "components": [
                    {
                      "name": "amount",
                      "type": "int256"
                    },
                    {
                      "components": [
                        {
                          "name": "wallet",
                          "type": "bytes32"
                        },
                        {
                          "name": "operator",
                          "type": "bytes32"
                        }
                      ],
                      "name": "hashes",
                      "type": "tuple"
                    },
                    {
                      "components": [
                        {
                          "name": "current",
                          "type": "int256"
                        },
                        {
                          "name": "previous",
                          "type": "int256"
                        }
                      ],
                      "name": "residuals",
                      "type": "tuple"
                    }
                  ],
                  "name": "order",
                  "type": "tuple"
                },
                {
                  "components": [
                    {
                      "components": [
                        {
                          "name": "current",
                          "type": "int256"
                        },
                        {
                          "name": "previous",
                          "type": "int256"
                        }
                      ],
                      "name": "intended",
                      "type": "tuple"
                    },
                    {
                      "components": [
                        {
                          "name": "current",
                          "type": "int256"
                        },
                        {
                          "name": "previous",
                          "type": "int256"
                        }
                      ],
                      "name": "conjugate",
                      "type": "tuple"
                    }
                  ],
                  "name": "balances",
                  "type": "tuple"
                },
                {
                  "components": [
                    {
                      "components": [
                        {
                          "name": "amount",
                          "type": "int256"
                        },
                        {
                          "components": [
                            {
                              "name": "ct",
                              "type": "address"
                            },
                            {
                              "name": "id",
                              "type": "uint256"
                            }
                          ],
                          "name": "currency",
                          "type": "tuple"
                        }
                      ],
                      "name": "single",
                      "type": "tuple"
                    },
                    {
                      "components": [
                        {
                          "name": "amount",
                          "type": "int256"
                        },
                        {
                          "components": [
                            {
                              "name": "ct",
                              "type": "address"
                            },
                            {
                              "name": "id",
                              "type": "uint256"
                            }
                          ],
                          "name": "currency",
                          "type": "tuple"
                        }
                      ],
                      "name": "total",
                      "type": "tuple[]"
                    }
                  ],
                  "name": "fees",
                  "type": "tuple"
                }
              ],
              "name": "seller",
              "type": "tuple"
            },
            {
              "components": [
                {
                  "components": [
                    {
                      "name": "single",
                      "type": "int256"
                    },
                    {
                      "name": "total",
                      "type": "int256"
                    }
                  ],
                  "name": "intended",
                  "type": "tuple"
                },
                {
                  "components": [
                    {
                      "name": "single",
                      "type": "int256"
                    },
                    {
                      "name": "total",
                      "type": "int256"
                    }
                  ],
                  "name": "conjugate",
                  "type": "tuple"
                }
              ],
              "name": "transfers",
              "type": "tuple"
            },
            {
              "components": [
                {
                  "name": "hash",
                  "type": "bytes32"
                },
                {
                  "components": [
                    {
                      "name": "r",
                      "type": "bytes32"
                    },
                    {
                      "name": "s",
                      "type": "bytes32"
                    },
                    {
                      "name": "v",
                      "type": "uint8"
                    }
                  ],
                  "name": "signature",
                  "type": "tuple"
                }
              ],
              "name": "seal",
              "type": "tuple"
            },
            {
              "name": "blockNumber",
              "type": "uint256"
            },
            {
              "name": "operatorId",
              "type": "uint256"
            }
          ],
          "name": "trade",
          "type": "tuple"
        },
        {
          "name": "intendedStageAmount",
          "type": "int256"
        },
        {
          "name": "conjugateStageAmount",
          "type": "int256"
        }
      ],
      "name": "startChallengeFromTrade",
      "outputs": [],
      "payable": false,
      "stateMutability": "nonpayable",
      "type": "function"
    },
    {
      "constant": false,
      "inputs": [
        {
          "name": "wallet",
          "type": "address"
        },
        {
          "components": [
            {
              "name": "nonce",
              "type": "uint256"
            },
            {
              "name": "amount",
              "type": "int256"
            },
            {
              "components": [
                {
                  "components": [
                    {
                      "name": "ct",
                      "type": "address"
                    },
                    {
                      "name": "id",
                      "type": "uint256"
                    }
                  ],
                  "name": "intended",
                  "type": "tuple"
                },
                {
                  "components": [
                    {
                      "name": "ct",
                      "type": "address"
                    },
                    {
                      "name": "id",
                      "type": "uint256"
                    }
                  ],
                  "name": "conjugate",
                  "type": "tuple"
                }
              ],
              "name": "currencies",
              "type": "tuple"
            },
            {
              "name": "rate",
              "type": "int256"
            },
            {
              "components": [
                {
                  "name": "nonce",
                  "type": "uint256"
                },
                {
                  "name": "wallet",
                  "type": "address"
                },
                {
                  "name": "rollingVolume",
                  "type": "uint256"
                },
                {
                  "name": "liquidityRole",
                  "type": "uint8"
                },
                {
                  "components": [
                    {
                      "name": "amount",
                      "type": "int256"
                    },
                    {
                      "components": [
                        {
                          "name": "wallet",
                          "type": "bytes32"
                        },
                        {
                          "name": "operator",
                          "type": "bytes32"
                        }
                      ],
                      "name": "hashes",
                      "type": "tuple"
                    },
                    {
                      "components": [
                        {
                          "name": "current",
                          "type": "int256"
                        },
                        {
                          "name": "previous",
                          "type": "int256"
                        }
                      ],
                      "name": "residuals",
                      "type": "tuple"
                    }
                  ],
                  "name": "order",
                  "type": "tuple"
                },
                {
                  "components": [
                    {
                      "components": [
                        {
                          "name": "current",
                          "type": "int256"
                        },
                        {
                          "name": "previous",
                          "type": "int256"
                        }
                      ],
                      "name": "intended",
                      "type": "tuple"
                    },
                    {
                      "components": [
                        {
                          "name": "current",
                          "type": "int256"
                        },
                        {
                          "name": "previous",
                          "type": "int256"
                        }
                      ],
                      "name": "conjugate",
                      "type": "tuple"
                    }
                  ],
                  "name": "balances",
                  "type": "tuple"
                },
                {
                  "components": [
                    {
                      "components": [
                        {
                          "name": "amount",
                          "type": "int256"
                        },
                        {
                          "components": [
                            {
                              "name": "ct",
                              "type": "address"
                            },
                            {
                              "name": "id",
                              "type": "uint256"
                            }
                          ],
                          "name": "currency",
                          "type": "tuple"
                        }
                      ],
                      "name": "single",
                      "type": "tuple"
                    },
                    {
                      "components": [
                        {
                          "name": "amount",
                          "type": "int256"
                        },
                        {
                          "components": [
                            {
                              "name": "ct",
                              "type": "address"
                            },
                            {
                              "name": "id",
                              "type": "uint256"
                            }
                          ],
                          "name": "currency",
                          "type": "tuple"
                        }
                      ],
                      "name": "total",
                      "type": "tuple[]"
                    }
                  ],
                  "name": "fees",
                  "type": "tuple"
                }
              ],
              "name": "buyer",
              "type": "tuple"
            },
            {
              "components": [
                {
                  "name": "nonce",
                  "type": "uint256"
                },
                {
                  "name": "wallet",
                  "type": "address"
                },
                {
                  "name": "rollingVolume",
                  "type": "uint256"
                },
                {
                  "name": "liquidityRole",
                  "type": "uint8"
                },
                {
                  "components": [
                    {
                      "name": "amount",
                      "type": "int256"
                    },
                    {
                      "components": [
                        {
                          "name": "wallet",
                          "type": "bytes32"
                        },
                        {
                          "name": "operator",
                          "type": "bytes32"
                        }
                      ],
                      "name": "hashes",
                      "type": "tuple"
                    },
                    {
                      "components": [
                        {
                          "name": "current",
                          "type": "int256"
                        },
                        {
                          "name": "previous",
                          "type": "int256"
                        }
                      ],
                      "name": "residuals",
                      "type": "tuple"
                    }
                  ],
                  "name": "order",
                  "type": "tuple"
                },
                {
                  "components": [
                    {
                      "components": [
                        {
                          "name": "current",
                          "type": "int256"
                        },
                        {
                          "name": "previous",
                          "type": "int256"
                        }
                      ],
                      "name": "intended",
                      "type": "tuple"
                    },
                    {
                      "components": [
                        {
                          "name": "current",
                          "type": "int256"
                        },
                        {
                          "name": "previous",
                          "type": "int256"
                        }
                      ],
                      "name": "conjugate",
                      "type": "tuple"
                    }
                  ],
                  "name": "balances",
                  "type": "tuple"
                },
                {
                  "components": [
                    {
                      "components": [
                        {
                          "name": "amount",
                          "type": "int256"
                        },
                        {
                          "components": [
                            {
                              "name": "ct",
                              "type": "address"
                            },
                            {
                              "name": "id",
                              "type": "uint256"
                            }
                          ],
                          "name": "currency",
                          "type": "tuple"
                        }
                      ],
                      "name": "single",
                      "type": "tuple"
                    },
                    {
                      "components": [
                        {
                          "name": "amount",
                          "type": "int256"
                        },
                        {
                          "components": [
                            {
                              "name": "ct",
                              "type": "address"
                            },
                            {
                              "name": "id",
                              "type": "uint256"
                            }
                          ],
                          "name": "currency",
                          "type": "tuple"
                        }
                      ],
                      "name": "total",
                      "type": "tuple[]"
                    }
                  ],
                  "name": "fees",
                  "type": "tuple"
                }
              ],
              "name": "seller",
              "type": "tuple"
            },
            {
              "components": [
                {
                  "components": [
                    {
                      "name": "single",
                      "type": "int256"
                    },
                    {
                      "name": "total",
                      "type": "int256"
                    }
                  ],
                  "name": "intended",
                  "type": "tuple"
                },
                {
                  "components": [
                    {
                      "name": "single",
                      "type": "int256"
                    },
                    {
                      "name": "total",
                      "type": "int256"
                    }
                  ],
                  "name": "conjugate",
                  "type": "tuple"
                }
              ],
              "name": "transfers",
              "type": "tuple"
            },
            {
              "components": [
                {
                  "name": "hash",
                  "type": "bytes32"
                },
                {
                  "components": [
                    {
                      "name": "r",
                      "type": "bytes32"
                    },
                    {
                      "name": "s",
                      "type": "bytes32"
                    },
                    {
                      "name": "v",
                      "type": "uint8"
                    }
                  ],
                  "name": "signature",
                  "type": "tuple"
                }
              ],
              "name": "seal",
              "type": "tuple"
            },
            {
              "name": "blockNumber",
              "type": "uint256"
            },
            {
              "name": "operatorId",
              "type": "uint256"
            }
          ],
          "name": "trade",
          "type": "tuple"
        },
        {
          "name": "intendedStageAmount",
          "type": "int256"
        },
        {
          "name": "conjugateStageAmount",
          "type": "int256"
        }
      ],
      "name": "startChallengeFromTradeByProxy",
      "outputs": [],
      "payable": false,
      "stateMutability": "nonpayable",
      "type": "function"
    },
    {
      "constant": false,
      "inputs": [
        {
          "components": [
            {
              "name": "nonce",
              "type": "uint256"
            },
            {
              "name": "amount",
              "type": "int256"
            },
            {
              "components": [
                {
                  "name": "ct",
                  "type": "address"
                },
                {
                  "name": "id",
                  "type": "uint256"
                }
              ],
              "name": "currency",
              "type": "tuple"
            },
            {
              "components": [
                {
                  "name": "nonce",
                  "type": "uint256"
                },
                {
                  "name": "wallet",
                  "type": "address"
                },
                {
                  "components": [
                    {
                      "name": "current",
                      "type": "int256"
                    },
                    {
                      "name": "previous",
                      "type": "int256"
                    }
                  ],
                  "name": "balances",
                  "type": "tuple"
                },
                {
                  "components": [
                    {
                      "components": [
                        {
                          "name": "amount",
                          "type": "int256"
                        },
                        {
                          "components": [
                            {
                              "name": "ct",
                              "type": "address"
                            },
                            {
                              "name": "id",
                              "type": "uint256"
                            }
                          ],
                          "name": "currency",
                          "type": "tuple"
                        }
                      ],
                      "name": "single",
                      "type": "tuple"
                    },
                    {
                      "components": [
                        {
                          "name": "amount",
                          "type": "int256"
                        },
                        {
                          "components": [
                            {
                              "name": "ct",
                              "type": "address"
                            },
                            {
                              "name": "id",
                              "type": "uint256"
                            }
                          ],
                          "name": "currency",
                          "type": "tuple"
                        }
                      ],
                      "name": "total",
                      "type": "tuple[]"
                    }
                  ],
                  "name": "fees",
                  "type": "tuple"
                }
              ],
              "name": "sender",
              "type": "tuple"
            },
            {
              "components": [
                {
                  "name": "nonce",
                  "type": "uint256"
                },
                {
                  "name": "wallet",
                  "type": "address"
                },
                {
                  "components": [
                    {
                      "name": "current",
                      "type": "int256"
                    },
                    {
                      "name": "previous",
                      "type": "int256"
                    }
                  ],
                  "name": "balances",
                  "type": "tuple"
                },
                {
                  "components": [
                    {
                      "components": [
                        {
                          "name": "amount",
                          "type": "int256"
                        },
                        {
                          "components": [
                            {
                              "name": "ct",
                              "type": "address"
                            },
                            {
                              "name": "id",
                              "type": "uint256"
                            }
                          ],
                          "name": "currency",
                          "type": "tuple"
                        }
                      ],
                      "name": "total",
                      "type": "tuple[]"
                    }
                  ],
                  "name": "fees",
                  "type": "tuple"
                }
              ],
              "name": "recipient",
              "type": "tuple"
            },
            {
              "components": [
                {
                  "name": "single",
                  "type": "int256"
                },
                {
                  "name": "total",
                  "type": "int256"
                }
              ],
              "name": "transfers",
              "type": "tuple"
            },
            {
              "components": [
                {
                  "components": [
                    {
                      "name": "hash",
                      "type": "bytes32"
                    },
                    {
                      "components": [
                        {
                          "name": "r",
                          "type": "bytes32"
                        },
                        {
                          "name": "s",
                          "type": "bytes32"
                        },
                        {
                          "name": "v",
                          "type": "uint8"
                        }
                      ],
                      "name": "signature",
                      "type": "tuple"
                    }
                  ],
                  "name": "wallet",
                  "type": "tuple"
                },
                {
                  "components": [
                    {
                      "name": "hash",
                      "type": "bytes32"
                    },
                    {
                      "components": [
                        {
                          "name": "r",
                          "type": "bytes32"
                        },
                        {
                          "name": "s",
                          "type": "bytes32"
                        },
                        {
                          "name": "v",
                          "type": "uint8"
                        }
                      ],
                      "name": "signature",
                      "type": "tuple"
                    }
                  ],
                  "name": "operator",
                  "type": "tuple"
                }
              ],
              "name": "seals",
              "type": "tuple"
            },
            {
              "name": "blockNumber",
              "type": "uint256"
            },
            {
              "name": "operatorId",
              "type": "uint256"
            }
          ],
          "name": "payment",
          "type": "tuple"
        },
        {
          "name": "stageAmount",
          "type": "int256"
        }
      ],
      "name": "startChallengeFromPayment",
      "outputs": [],
      "payable": false,
      "stateMutability": "nonpayable",
      "type": "function"
    },
    {
      "constant": false,
      "inputs": [
        {
          "name": "wallet",
          "type": "address"
        },
        {
          "components": [
            {
              "name": "nonce",
              "type": "uint256"
            },
            {
              "name": "amount",
              "type": "int256"
            },
            {
              "components": [
                {
                  "name": "ct",
                  "type": "address"
                },
                {
                  "name": "id",
                  "type": "uint256"
                }
              ],
              "name": "currency",
              "type": "tuple"
            },
            {
              "components": [
                {
                  "name": "nonce",
                  "type": "uint256"
                },
                {
                  "name": "wallet",
                  "type": "address"
                },
                {
                  "components": [
                    {
                      "name": "current",
                      "type": "int256"
                    },
                    {
                      "name": "previous",
                      "type": "int256"
                    }
                  ],
                  "name": "balances",
                  "type": "tuple"
                },
                {
                  "components": [
                    {
                      "components": [
                        {
                          "name": "amount",
                          "type": "int256"
                        },
                        {
                          "components": [
                            {
                              "name": "ct",
                              "type": "address"
                            },
                            {
                              "name": "id",
                              "type": "uint256"
                            }
                          ],
                          "name": "currency",
                          "type": "tuple"
                        }
                      ],
                      "name": "single",
                      "type": "tuple"
                    },
                    {
                      "components": [
                        {
                          "name": "amount",
                          "type": "int256"
                        },
                        {
                          "components": [
                            {
                              "name": "ct",
                              "type": "address"
                            },
                            {
                              "name": "id",
                              "type": "uint256"
                            }
                          ],
                          "name": "currency",
                          "type": "tuple"
                        }
                      ],
                      "name": "total",
                      "type": "tuple[]"
                    }
                  ],
                  "name": "fees",
                  "type": "tuple"
                }
              ],
              "name": "sender",
              "type": "tuple"
            },
            {
              "components": [
                {
                  "name": "nonce",
                  "type": "uint256"
                },
                {
                  "name": "wallet",
                  "type": "address"
                },
                {
                  "components": [
                    {
                      "name": "current",
                      "type": "int256"
                    },
                    {
                      "name": "previous",
                      "type": "int256"
                    }
                  ],
                  "name": "balances",
                  "type": "tuple"
                },
                {
                  "components": [
                    {
                      "components": [
                        {
                          "name": "amount",
                          "type": "int256"
                        },
                        {
                          "components": [
                            {
                              "name": "ct",
                              "type": "address"
                            },
                            {
                              "name": "id",
                              "type": "uint256"
                            }
                          ],
                          "name": "currency",
                          "type": "tuple"
                        }
                      ],
                      "name": "total",
                      "type": "tuple[]"
                    }
                  ],
                  "name": "fees",
                  "type": "tuple"
                }
              ],
              "name": "recipient",
              "type": "tuple"
            },
            {
              "components": [
                {
                  "name": "single",
                  "type": "int256"
                },
                {
                  "name": "total",
                  "type": "int256"
                }
              ],
              "name": "transfers",
              "type": "tuple"
            },
            {
              "components": [
                {
                  "components": [
                    {
                      "name": "hash",
                      "type": "bytes32"
                    },
                    {
                      "components": [
                        {
                          "name": "r",
                          "type": "bytes32"
                        },
                        {
                          "name": "s",
                          "type": "bytes32"
                        },
                        {
                          "name": "v",
                          "type": "uint8"
                        }
                      ],
                      "name": "signature",
                      "type": "tuple"
                    }
                  ],
                  "name": "wallet",
                  "type": "tuple"
                },
                {
                  "components": [
                    {
                      "name": "hash",
                      "type": "bytes32"
                    },
                    {
                      "components": [
                        {
                          "name": "r",
                          "type": "bytes32"
                        },
                        {
                          "name": "s",
                          "type": "bytes32"
                        },
                        {
                          "name": "v",
                          "type": "uint8"
                        }
                      ],
                      "name": "signature",
                      "type": "tuple"
                    }
                  ],
                  "name": "operator",
                  "type": "tuple"
                }
              ],
              "name": "seals",
              "type": "tuple"
            },
            {
              "name": "blockNumber",
              "type": "uint256"
            },
            {
              "name": "operatorId",
              "type": "uint256"
            }
          ],
          "name": "payment",
          "type": "tuple"
        },
        {
          "name": "stageAmount",
          "type": "int256"
        }
      ],
      "name": "startChallengeFromPaymentByProxy",
      "outputs": [],
      "payable": false,
      "stateMutability": "nonpayable",
      "type": "function"
    },
    {
      "constant": true,
      "inputs": [
        {
          "name": "wallet",
          "type": "address"
        }
      ],
      "name": "challengePhase",
      "outputs": [
        {
          "name": "",
          "type": "uint8"
        }
      ],
      "payable": false,
      "stateMutability": "view",
      "type": "function"
    },
    {
      "constant": true,
      "inputs": [
        {
          "name": "wallet",
          "type": "address"
        }
      ],
      "name": "proposalNonce",
      "outputs": [
        {
          "name": "",
          "type": "uint256"
        }
      ],
      "payable": false,
      "stateMutability": "view",
      "type": "function"
    },
    {
      "constant": true,
      "inputs": [
        {
          "name": "wallet",
          "type": "address"
        }
      ],
      "name": "proposalBlockNumber",
      "outputs": [
        {
          "name": "",
          "type": "uint256"
        }
      ],
      "payable": false,
      "stateMutability": "view",
      "type": "function"
    },
    {
      "constant": true,
      "inputs": [
        {
          "name": "wallet",
          "type": "address"
        }
      ],
      "name": "proposalTimeout",
      "outputs": [
        {
          "name": "",
          "type": "uint256"
        }
      ],
      "payable": false,
      "stateMutability": "view",
      "type": "function"
    },
    {
      "constant": true,
      "inputs": [
        {
          "name": "wallet",
          "type": "address"
        }
      ],
      "name": "proposalStatus",
      "outputs": [
        {
          "name": "",
          "type": "uint8"
        }
      ],
      "payable": false,
      "stateMutability": "view",
      "type": "function"
    },
    {
      "constant": true,
      "inputs": [
        {
          "name": "wallet",
          "type": "address"
        }
      ],
      "name": "proposalCurrencyCount",
      "outputs": [
        {
          "name": "",
          "type": "uint256"
        }
      ],
      "payable": false,
      "stateMutability": "view",
      "type": "function"
    },
    {
      "constant": true,
      "inputs": [
        {
          "name": "wallet",
          "type": "address"
        },
        {
          "name": "index",
          "type": "uint256"
        }
      ],
      "name": "proposalCurrency",
      "outputs": [
        {
          "components": [
            {
              "name": "ct",
              "type": "address"
            },
            {
              "name": "id",
              "type": "uint256"
            }
          ],
          "name": "",
          "type": "tuple"
        }
      ],
      "payable": false,
      "stateMutability": "view",
      "type": "function"
    },
    {
      "constant": true,
      "inputs": [
        {
          "name": "wallet",
          "type": "address"
        },
        {
          "components": [
            {
              "name": "ct",
              "type": "address"
            },
            {
              "name": "id",
              "type": "uint256"
            }
          ],
          "name": "currency",
          "type": "tuple"
        }
      ],
      "name": "proposalStageAmount",
      "outputs": [
        {
          "name": "",
          "type": "int256"
        }
      ],
      "payable": false,
      "stateMutability": "view",
      "type": "function"
    },
    {
      "constant": true,
      "inputs": [
        {
          "name": "wallet",
          "type": "address"
        },
        {
          "components": [
            {
              "name": "ct",
              "type": "address"
            },
            {
              "name": "id",
              "type": "uint256"
            }
          ],
          "name": "currency",
          "type": "tuple"
        }
      ],
      "name": "proposalTargetBalanceAmount",
      "outputs": [
        {
          "name": "",
          "type": "int256"
        }
      ],
      "payable": false,
      "stateMutability": "view",
      "type": "function"
    },
    {
      "constant": true,
      "inputs": [
        {
          "name": "wallet",
          "type": "address"
        }
      ],
      "name": "proposalDriipType",
      "outputs": [
        {
          "name": "",
          "type": "uint8"
        }
      ],
      "payable": false,
      "stateMutability": "view",
      "type": "function"
    },
    {
      "constant": true,
      "inputs": [
        {
          "name": "wallet",
          "type": "address"
        }
      ],
      "name": "proposalDriipIndex",
      "outputs": [
        {
          "name": "",
          "type": "uint256"
        }
      ],
      "payable": false,
      "stateMutability": "view",
      "type": "function"
    },
    {
      "constant": true,
      "inputs": [
        {
          "name": "wallet",
          "type": "address"
        }
      ],
      "name": "proposalCandidateType",
      "outputs": [
        {
          "name": "",
          "type": "uint8"
        }
      ],
      "payable": false,
      "stateMutability": "view",
      "type": "function"
    },
    {
      "constant": true,
      "inputs": [
        {
          "name": "wallet",
          "type": "address"
        }
      ],
      "name": "proposalCandidateIndex",
      "outputs": [
        {
          "name": "",
          "type": "uint256"
        }
      ],
      "payable": false,
      "stateMutability": "view",
      "type": "function"
    },
    {
      "constant": true,
      "inputs": [
        {
          "name": "wallet",
          "type": "address"
        }
      ],
      "name": "proposalChallenger",
      "outputs": [
        {
          "name": "",
          "type": "address"
        }
      ],
      "payable": false,
      "stateMutability": "view",
      "type": "function"
    },
    {
      "constant": true,
      "inputs": [
        {
          "name": "wallet",
          "type": "address"
        }
      ],
      "name": "proposalBalanceReward",
      "outputs": [
        {
          "name": "",
          "type": "bool"
        }
      ],
      "payable": false,
      "stateMutability": "view",
      "type": "function"
    },
    {
      "constant": false,
      "inputs": [
        {
          "name": "wallet",
          "type": "address"
        },
        {
          "name": "timeout",
          "type": "uint256"
        }
      ],
      "name": "setProposalTimeout",
      "outputs": [],
      "payable": false,
      "stateMutability": "nonpayable",
      "type": "function"
    },
    {
      "constant": false,
      "inputs": [
        {
          "name": "wallet",
          "type": "address"
        },
        {
          "name": "status",
          "type": "uint8"
        }
      ],
      "name": "setProposalStatus",
      "outputs": [],
      "payable": false,
      "stateMutability": "nonpayable",
      "type": "function"
    },
    {
      "constant": false,
      "inputs": [
        {
          "name": "wallet",
          "type": "address"
        },
        {
          "name": "candidateType",
          "type": "uint8"
        }
      ],
      "name": "setProposalCandidateType",
      "outputs": [],
      "payable": false,
      "stateMutability": "nonpayable",
      "type": "function"
    },
    {
      "constant": false,
      "inputs": [
        {
          "name": "wallet",
          "type": "address"
        },
        {
          "name": "candidateIndex",
          "type": "uint256"
        }
      ],
      "name": "setProposalCandidateIndex",
      "outputs": [],
      "payable": false,
      "stateMutability": "nonpayable",
      "type": "function"
    },
    {
      "constant": false,
      "inputs": [
        {
          "name": "wallet",
          "type": "address"
        },
        {
          "name": "challenger",
          "type": "address"
        }
      ],
      "name": "setProposalChallenger",
      "outputs": [],
      "payable": false,
      "stateMutability": "nonpayable",
      "type": "function"
    },
    {
      "constant": false,
      "inputs": [
        {
          "components": [
            {
              "name": "nonce",
              "type": "uint256"
            },
            {
              "name": "wallet",
              "type": "address"
            },
            {
              "components": [
                {
                  "name": "intention",
                  "type": "uint8"
                },
                {
                  "name": "amount",
                  "type": "int256"
                },
                {
                  "components": [
                    {
                      "components": [
                        {
                          "name": "ct",
                          "type": "address"
                        },
                        {
                          "name": "id",
                          "type": "uint256"
                        }
                      ],
                      "name": "intended",
                      "type": "tuple"
                    },
                    {
                      "components": [
                        {
                          "name": "ct",
                          "type": "address"
                        },
                        {
                          "name": "id",
                          "type": "uint256"
                        }
                      ],
                      "name": "conjugate",
                      "type": "tuple"
                    }
                  ],
                  "name": "currencies",
                  "type": "tuple"
                },
                {
                  "name": "rate",
                  "type": "int256"
                },
                {
                  "components": [
                    {
                      "name": "current",
                      "type": "int256"
                    },
                    {
                      "name": "previous",
                      "type": "int256"
                    }
                  ],
                  "name": "residuals",
                  "type": "tuple"
                }
              ],
              "name": "placement",
              "type": "tuple"
            },
            {
              "components": [
                {
                  "components": [
                    {
                      "name": "hash",
                      "type": "bytes32"
                    },
                    {
                      "components": [
                        {
                          "name": "r",
                          "type": "bytes32"
                        },
                        {
                          "name": "s",
                          "type": "bytes32"
                        },
                        {
                          "name": "v",
                          "type": "uint8"
                        }
                      ],
                      "name": "signature",
                      "type": "tuple"
                    }
                  ],
                  "name": "wallet",
                  "type": "tuple"
                },
                {
                  "components": [
                    {
                      "name": "hash",
                      "type": "bytes32"
                    },
                    {
                      "components": [
                        {
                          "name": "r",
                          "type": "bytes32"
                        },
                        {
                          "name": "s",
                          "type": "bytes32"
                        },
                        {
                          "name": "v",
                          "type": "uint8"
                        }
                      ],
                      "name": "signature",
                      "type": "tuple"
                    }
                  ],
                  "name": "operator",
                  "type": "tuple"
                }
              ],
              "name": "seals",
              "type": "tuple"
            },
            {
              "name": "blockNumber",
              "type": "uint256"
            },
            {
              "name": "operatorId",
              "type": "uint256"
            }
          ],
          "name": "order",
          "type": "tuple"
        }
      ],
      "name": "challengeByOrder",
      "outputs": [],
      "payable": false,
      "stateMutability": "nonpayable",
      "type": "function"
    },
    {
      "constant": false,
      "inputs": [
        {
          "components": [
            {
              "name": "nonce",
              "type": "uint256"
            },
            {
              "name": "wallet",
              "type": "address"
            },
            {
              "components": [
                {
                  "name": "intention",
                  "type": "uint8"
                },
                {
                  "name": "amount",
                  "type": "int256"
                },
                {
                  "components": [
                    {
                      "components": [
                        {
                          "name": "ct",
                          "type": "address"
                        },
                        {
                          "name": "id",
                          "type": "uint256"
                        }
                      ],
                      "name": "intended",
                      "type": "tuple"
                    },
                    {
                      "components": [
                        {
                          "name": "ct",
                          "type": "address"
                        },
                        {
                          "name": "id",
                          "type": "uint256"
                        }
                      ],
                      "name": "conjugate",
                      "type": "tuple"
                    }
                  ],
                  "name": "currencies",
                  "type": "tuple"
                },
                {
                  "name": "rate",
                  "type": "int256"
                },
                {
                  "components": [
                    {
                      "name": "current",
                      "type": "int256"
                    },
                    {
                      "name": "previous",
                      "type": "int256"
                    }
                  ],
                  "name": "residuals",
                  "type": "tuple"
                }
              ],
              "name": "placement",
              "type": "tuple"
            },
            {
              "components": [
                {
                  "components": [
                    {
                      "name": "hash",
                      "type": "bytes32"
                    },
                    {
                      "components": [
                        {
                          "name": "r",
                          "type": "bytes32"
                        },
                        {
                          "name": "s",
                          "type": "bytes32"
                        },
                        {
                          "name": "v",
                          "type": "uint8"
                        }
                      ],
                      "name": "signature",
                      "type": "tuple"
                    }
                  ],
                  "name": "wallet",
                  "type": "tuple"
                },
                {
                  "components": [
                    {
                      "name": "hash",
                      "type": "bytes32"
                    },
                    {
                      "components": [
                        {
                          "name": "r",
                          "type": "bytes32"
                        },
                        {
                          "name": "s",
                          "type": "bytes32"
                        },
                        {
                          "name": "v",
                          "type": "uint8"
                        }
                      ],
                      "name": "signature",
                      "type": "tuple"
                    }
                  ],
                  "name": "operator",
                  "type": "tuple"
                }
              ],
              "name": "seals",
              "type": "tuple"
            },
            {
              "name": "blockNumber",
              "type": "uint256"
            },
            {
              "name": "operatorId",
              "type": "uint256"
            }
          ],
          "name": "order",
          "type": "tuple"
        },
        {
          "components": [
            {
              "name": "nonce",
              "type": "uint256"
            },
            {
              "name": "amount",
              "type": "int256"
            },
            {
              "components": [
                {
                  "components": [
                    {
                      "name": "ct",
                      "type": "address"
                    },
                    {
                      "name": "id",
                      "type": "uint256"
                    }
                  ],
                  "name": "intended",
                  "type": "tuple"
                },
                {
                  "components": [
                    {
                      "name": "ct",
                      "type": "address"
                    },
                    {
                      "name": "id",
                      "type": "uint256"
                    }
                  ],
                  "name": "conjugate",
                  "type": "tuple"
                }
              ],
              "name": "currencies",
              "type": "tuple"
            },
            {
              "name": "rate",
              "type": "int256"
            },
            {
              "components": [
                {
                  "name": "nonce",
                  "type": "uint256"
                },
                {
                  "name": "wallet",
                  "type": "address"
                },
                {
                  "name": "rollingVolume",
                  "type": "uint256"
                },
                {
                  "name": "liquidityRole",
                  "type": "uint8"
                },
                {
                  "components": [
                    {
                      "name": "amount",
                      "type": "int256"
                    },
                    {
                      "components": [
                        {
                          "name": "wallet",
                          "type": "bytes32"
                        },
                        {
                          "name": "operator",
                          "type": "bytes32"
                        }
                      ],
                      "name": "hashes",
                      "type": "tuple"
                    },
                    {
                      "components": [
                        {
                          "name": "current",
                          "type": "int256"
                        },
                        {
                          "name": "previous",
                          "type": "int256"
                        }
                      ],
                      "name": "residuals",
                      "type": "tuple"
                    }
                  ],
                  "name": "order",
                  "type": "tuple"
                },
                {
                  "components": [
                    {
                      "components": [
                        {
                          "name": "current",
                          "type": "int256"
                        },
                        {
                          "name": "previous",
                          "type": "int256"
                        }
                      ],
                      "name": "intended",
                      "type": "tuple"
                    },
                    {
                      "components": [
                        {
                          "name": "current",
                          "type": "int256"
                        },
                        {
                          "name": "previous",
                          "type": "int256"
                        }
                      ],
                      "name": "conjugate",
                      "type": "tuple"
                    }
                  ],
                  "name": "balances",
                  "type": "tuple"
                },
                {
                  "components": [
                    {
                      "components": [
                        {
                          "name": "amount",
                          "type": "int256"
                        },
                        {
                          "components": [
                            {
                              "name": "ct",
                              "type": "address"
                            },
                            {
                              "name": "id",
                              "type": "uint256"
                            }
                          ],
                          "name": "currency",
                          "type": "tuple"
                        }
                      ],
                      "name": "single",
                      "type": "tuple"
                    },
                    {
                      "components": [
                        {
                          "name": "amount",
                          "type": "int256"
                        },
                        {
                          "components": [
                            {
                              "name": "ct",
                              "type": "address"
                            },
                            {
                              "name": "id",
                              "type": "uint256"
                            }
                          ],
                          "name": "currency",
                          "type": "tuple"
                        }
                      ],
                      "name": "total",
                      "type": "tuple[]"
                    }
                  ],
                  "name": "fees",
                  "type": "tuple"
                }
              ],
              "name": "buyer",
              "type": "tuple"
            },
            {
              "components": [
                {
                  "name": "nonce",
                  "type": "uint256"
                },
                {
                  "name": "wallet",
                  "type": "address"
                },
                {
                  "name": "rollingVolume",
                  "type": "uint256"
                },
                {
                  "name": "liquidityRole",
                  "type": "uint8"
                },
                {
                  "components": [
                    {
                      "name": "amount",
                      "type": "int256"
                    },
                    {
                      "components": [
                        {
                          "name": "wallet",
                          "type": "bytes32"
                        },
                        {
                          "name": "operator",
                          "type": "bytes32"
                        }
                      ],
                      "name": "hashes",
                      "type": "tuple"
                    },
                    {
                      "components": [
                        {
                          "name": "current",
                          "type": "int256"
                        },
                        {
                          "name": "previous",
                          "type": "int256"
                        }
                      ],
                      "name": "residuals",
                      "type": "tuple"
                    }
                  ],
                  "name": "order",
                  "type": "tuple"
                },
                {
                  "components": [
                    {
                      "components": [
                        {
                          "name": "current",
                          "type": "int256"
                        },
                        {
                          "name": "previous",
                          "type": "int256"
                        }
                      ],
                      "name": "intended",
                      "type": "tuple"
                    },
                    {
                      "components": [
                        {
                          "name": "current",
                          "type": "int256"
                        },
                        {
                          "name": "previous",
                          "type": "int256"
                        }
                      ],
                      "name": "conjugate",
                      "type": "tuple"
                    }
                  ],
                  "name": "balances",
                  "type": "tuple"
                },
                {
                  "components": [
                    {
                      "components": [
                        {
                          "name": "amount",
                          "type": "int256"
                        },
                        {
                          "components": [
                            {
                              "name": "ct",
                              "type": "address"
                            },
                            {
                              "name": "id",
                              "type": "uint256"
                            }
                          ],
                          "name": "currency",
                          "type": "tuple"
                        }
                      ],
                      "name": "single",
                      "type": "tuple"
                    },
                    {
                      "components": [
                        {
                          "name": "amount",
                          "type": "int256"
                        },
                        {
                          "components": [
                            {
                              "name": "ct",
                              "type": "address"
                            },
                            {
                              "name": "id",
                              "type": "uint256"
                            }
                          ],
                          "name": "currency",
                          "type": "tuple"
                        }
                      ],
                      "name": "total",
                      "type": "tuple[]"
                    }
                  ],
                  "name": "fees",
                  "type": "tuple"
                }
              ],
              "name": "seller",
              "type": "tuple"
            },
            {
              "components": [
                {
                  "components": [
                    {
                      "name": "single",
                      "type": "int256"
                    },
                    {
                      "name": "total",
                      "type": "int256"
                    }
                  ],
                  "name": "intended",
                  "type": "tuple"
                },
                {
                  "components": [
                    {
                      "name": "single",
                      "type": "int256"
                    },
                    {
                      "name": "total",
                      "type": "int256"
                    }
                  ],
                  "name": "conjugate",
                  "type": "tuple"
                }
              ],
              "name": "transfers",
              "type": "tuple"
            },
            {
              "components": [
                {
                  "name": "hash",
                  "type": "bytes32"
                },
                {
                  "components": [
                    {
                      "name": "r",
                      "type": "bytes32"
                    },
                    {
                      "name": "s",
                      "type": "bytes32"
                    },
                    {
                      "name": "v",
                      "type": "uint8"
                    }
                  ],
                  "name": "signature",
                  "type": "tuple"
                }
              ],
              "name": "seal",
              "type": "tuple"
            },
            {
              "name": "blockNumber",
              "type": "uint256"
            },
            {
              "name": "operatorId",
              "type": "uint256"
            }
          ],
          "name": "trade",
          "type": "tuple"
        }
      ],
      "name": "unchallengeOrderCandidateByTrade",
      "outputs": [],
      "payable": false,
      "stateMutability": "nonpayable",
      "type": "function"
    },
    {
      "constant": false,
      "inputs": [
        {
          "name": "wallet",
          "type": "address"
        },
        {
          "components": [
            {
              "name": "nonce",
              "type": "uint256"
            },
            {
              "name": "amount",
              "type": "int256"
            },
            {
              "components": [
                {
                  "components": [
                    {
                      "name": "ct",
                      "type": "address"
                    },
                    {
                      "name": "id",
                      "type": "uint256"
                    }
                  ],
                  "name": "intended",
                  "type": "tuple"
                },
                {
                  "components": [
                    {
                      "name": "ct",
                      "type": "address"
                    },
                    {
                      "name": "id",
                      "type": "uint256"
                    }
                  ],
                  "name": "conjugate",
                  "type": "tuple"
                }
              ],
              "name": "currencies",
              "type": "tuple"
            },
            {
              "name": "rate",
              "type": "int256"
            },
            {
              "components": [
                {
                  "name": "nonce",
                  "type": "uint256"
                },
                {
                  "name": "wallet",
                  "type": "address"
                },
                {
                  "name": "rollingVolume",
                  "type": "uint256"
                },
                {
                  "name": "liquidityRole",
                  "type": "uint8"
                },
                {
                  "components": [
                    {
                      "name": "amount",
                      "type": "int256"
                    },
                    {
                      "components": [
                        {
                          "name": "wallet",
                          "type": "bytes32"
                        },
                        {
                          "name": "operator",
                          "type": "bytes32"
                        }
                      ],
                      "name": "hashes",
                      "type": "tuple"
                    },
                    {
                      "components": [
                        {
                          "name": "current",
                          "type": "int256"
                        },
                        {
                          "name": "previous",
                          "type": "int256"
                        }
                      ],
                      "name": "residuals",
                      "type": "tuple"
                    }
                  ],
                  "name": "order",
                  "type": "tuple"
                },
                {
                  "components": [
                    {
                      "components": [
                        {
                          "name": "current",
                          "type": "int256"
                        },
                        {
                          "name": "previous",
                          "type": "int256"
                        }
                      ],
                      "name": "intended",
                      "type": "tuple"
                    },
                    {
                      "components": [
                        {
                          "name": "current",
                          "type": "int256"
                        },
                        {
                          "name": "previous",
                          "type": "int256"
                        }
                      ],
                      "name": "conjugate",
                      "type": "tuple"
                    }
                  ],
                  "name": "balances",
                  "type": "tuple"
                },
                {
                  "components": [
                    {
                      "components": [
                        {
                          "name": "amount",
                          "type": "int256"
                        },
                        {
                          "components": [
                            {
                              "name": "ct",
                              "type": "address"
                            },
                            {
                              "name": "id",
                              "type": "uint256"
                            }
                          ],
                          "name": "currency",
                          "type": "tuple"
                        }
                      ],
                      "name": "single",
                      "type": "tuple"
                    },
                    {
                      "components": [
                        {
                          "name": "amount",
                          "type": "int256"
                        },
                        {
                          "components": [
                            {
                              "name": "ct",
                              "type": "address"
                            },
                            {
                              "name": "id",
                              "type": "uint256"
                            }
                          ],
                          "name": "currency",
                          "type": "tuple"
                        }
                      ],
                      "name": "total",
                      "type": "tuple[]"
                    }
                  ],
                  "name": "fees",
                  "type": "tuple"
                }
              ],
              "name": "buyer",
              "type": "tuple"
            },
            {
              "components": [
                {
                  "name": "nonce",
                  "type": "uint256"
                },
                {
                  "name": "wallet",
                  "type": "address"
                },
                {
                  "name": "rollingVolume",
                  "type": "uint256"
                },
                {
                  "name": "liquidityRole",
                  "type": "uint8"
                },
                {
                  "components": [
                    {
                      "name": "amount",
                      "type": "int256"
                    },
                    {
                      "components": [
                        {
                          "name": "wallet",
                          "type": "bytes32"
                        },
                        {
                          "name": "operator",
                          "type": "bytes32"
                        }
                      ],
                      "name": "hashes",
                      "type": "tuple"
                    },
                    {
                      "components": [
                        {
                          "name": "current",
                          "type": "int256"
                        },
                        {
                          "name": "previous",
                          "type": "int256"
                        }
                      ],
                      "name": "residuals",
                      "type": "tuple"
                    }
                  ],
                  "name": "order",
                  "type": "tuple"
                },
                {
                  "components": [
                    {
                      "components": [
                        {
                          "name": "current",
                          "type": "int256"
                        },
                        {
                          "name": "previous",
                          "type": "int256"
                        }
                      ],
                      "name": "intended",
                      "type": "tuple"
                    },
                    {
                      "components": [
                        {
                          "name": "current",
                          "type": "int256"
                        },
                        {
                          "name": "previous",
                          "type": "int256"
                        }
                      ],
                      "name": "conjugate",
                      "type": "tuple"
                    }
                  ],
                  "name": "balances",
                  "type": "tuple"
                },
                {
                  "components": [
                    {
                      "components": [
                        {
                          "name": "amount",
                          "type": "int256"
                        },
                        {
                          "components": [
                            {
                              "name": "ct",
                              "type": "address"
                            },
                            {
                              "name": "id",
                              "type": "uint256"
                            }
                          ],
                          "name": "currency",
                          "type": "tuple"
                        }
                      ],
                      "name": "single",
                      "type": "tuple"
                    },
                    {
                      "components": [
                        {
                          "name": "amount",
                          "type": "int256"
                        },
                        {
                          "components": [
                            {
                              "name": "ct",
                              "type": "address"
                            },
                            {
                              "name": "id",
                              "type": "uint256"
                            }
                          ],
                          "name": "currency",
                          "type": "tuple"
                        }
                      ],
                      "name": "total",
                      "type": "tuple[]"
                    }
                  ],
                  "name": "fees",
                  "type": "tuple"
                }
              ],
              "name": "seller",
              "type": "tuple"
            },
            {
              "components": [
                {
                  "components": [
                    {
                      "name": "single",
                      "type": "int256"
                    },
                    {
                      "name": "total",
                      "type": "int256"
                    }
                  ],
                  "name": "intended",
                  "type": "tuple"
                },
                {
                  "components": [
                    {
                      "name": "single",
                      "type": "int256"
                    },
                    {
                      "name": "total",
                      "type": "int256"
                    }
                  ],
                  "name": "conjugate",
                  "type": "tuple"
                }
              ],
              "name": "transfers",
              "type": "tuple"
            },
            {
              "components": [
                {
                  "name": "hash",
                  "type": "bytes32"
                },
                {
                  "components": [
                    {
                      "name": "r",
                      "type": "bytes32"
                    },
                    {
                      "name": "s",
                      "type": "bytes32"
                    },
                    {
                      "name": "v",
                      "type": "uint8"
                    }
                  ],
                  "name": "signature",
                  "type": "tuple"
                }
              ],
              "name": "seal",
              "type": "tuple"
            },
            {
              "name": "blockNumber",
              "type": "uint256"
            },
            {
              "name": "operatorId",
              "type": "uint256"
            }
          ],
          "name": "trade",
          "type": "tuple"
        }
      ],
      "name": "challengeByTrade",
      "outputs": [],
      "payable": false,
      "stateMutability": "nonpayable",
      "type": "function"
    },
    {
      "constant": false,
      "inputs": [
        {
          "components": [
            {
              "name": "nonce",
              "type": "uint256"
            },
            {
              "name": "amount",
              "type": "int256"
            },
            {
              "components": [
                {
                  "name": "ct",
                  "type": "address"
                },
                {
                  "name": "id",
                  "type": "uint256"
                }
              ],
              "name": "currency",
              "type": "tuple"
            },
            {
              "components": [
                {
                  "name": "nonce",
                  "type": "uint256"
                },
                {
                  "name": "wallet",
                  "type": "address"
                },
                {
                  "components": [
                    {
                      "name": "current",
                      "type": "int256"
                    },
                    {
                      "name": "previous",
                      "type": "int256"
                    }
                  ],
                  "name": "balances",
                  "type": "tuple"
                },
                {
                  "components": [
                    {
                      "components": [
                        {
                          "name": "amount",
                          "type": "int256"
                        },
                        {
                          "components": [
                            {
                              "name": "ct",
                              "type": "address"
                            },
                            {
                              "name": "id",
                              "type": "uint256"
                            }
                          ],
                          "name": "currency",
                          "type": "tuple"
                        }
                      ],
                      "name": "single",
                      "type": "tuple"
                    },
                    {
                      "components": [
                        {
                          "name": "amount",
                          "type": "int256"
                        },
                        {
                          "components": [
                            {
                              "name": "ct",
                              "type": "address"
                            },
                            {
                              "name": "id",
                              "type": "uint256"
                            }
                          ],
                          "name": "currency",
                          "type": "tuple"
                        }
                      ],
                      "name": "total",
                      "type": "tuple[]"
                    }
                  ],
                  "name": "fees",
                  "type": "tuple"
                }
              ],
              "name": "sender",
              "type": "tuple"
            },
            {
              "components": [
                {
                  "name": "nonce",
                  "type": "uint256"
                },
                {
                  "name": "wallet",
                  "type": "address"
                },
                {
                  "components": [
                    {
                      "name": "current",
                      "type": "int256"
                    },
                    {
                      "name": "previous",
                      "type": "int256"
                    }
                  ],
                  "name": "balances",
                  "type": "tuple"
                },
                {
                  "components": [
                    {
                      "components": [
                        {
                          "name": "amount",
                          "type": "int256"
                        },
                        {
                          "components": [
                            {
                              "name": "ct",
                              "type": "address"
                            },
                            {
                              "name": "id",
                              "type": "uint256"
                            }
                          ],
                          "name": "currency",
                          "type": "tuple"
                        }
                      ],
                      "name": "total",
                      "type": "tuple[]"
                    }
                  ],
                  "name": "fees",
                  "type": "tuple"
                }
              ],
              "name": "recipient",
              "type": "tuple"
            },
            {
              "components": [
                {
                  "name": "single",
                  "type": "int256"
                },
                {
                  "name": "total",
                  "type": "int256"
                }
              ],
              "name": "transfers",
              "type": "tuple"
            },
            {
              "components": [
                {
                  "components": [
                    {
                      "name": "hash",
                      "type": "bytes32"
                    },
                    {
                      "components": [
                        {
                          "name": "r",
                          "type": "bytes32"
                        },
                        {
                          "name": "s",
                          "type": "bytes32"
                        },
                        {
                          "name": "v",
                          "type": "uint8"
                        }
                      ],
                      "name": "signature",
                      "type": "tuple"
                    }
                  ],
                  "name": "wallet",
                  "type": "tuple"
                },
                {
                  "components": [
                    {
                      "name": "hash",
                      "type": "bytes32"
                    },
                    {
                      "components": [
                        {
                          "name": "r",
                          "type": "bytes32"
                        },
                        {
                          "name": "s",
                          "type": "bytes32"
                        },
                        {
                          "name": "v",
                          "type": "uint8"
                        }
                      ],
                      "name": "signature",
                      "type": "tuple"
                    }
                  ],
                  "name": "operator",
                  "type": "tuple"
                }
              ],
              "name": "seals",
              "type": "tuple"
            },
            {
              "name": "blockNumber",
              "type": "uint256"
            },
            {
              "name": "operatorId",
              "type": "uint256"
            }
          ],
          "name": "payment",
          "type": "tuple"
        }
      ],
      "name": "challengeByPayment",
      "outputs": [],
      "payable": false,
      "stateMutability": "nonpayable",
      "type": "function"
    },
    {
      "constant": true,
      "inputs": [],
      "name": "challengeCandidateOrderHashesCount",
      "outputs": [
        {
          "name": "",
          "type": "uint256"
        }
      ],
      "payable": false,
      "stateMutability": "view",
      "type": "function"
    },
    {
      "constant": false,
      "inputs": [
        {
          "name": "hash",
          "type": "bytes32"
        }
      ],
      "name": "addChallengeCandidateOrderHash",
      "outputs": [],
      "payable": false,
      "stateMutability": "nonpayable",
      "type": "function"
    },
    {
      "constant": true,
      "inputs": [],
      "name": "challengeCandidateTradeHashesCount",
      "outputs": [
        {
          "name": "",
          "type": "uint256"
        }
      ],
      "payable": false,
      "stateMutability": "view",
      "type": "function"
    },
    {
      "constant": false,
      "inputs": [
        {
          "name": "hash",
          "type": "bytes32"
        }
      ],
      "name": "addChallengeCandidateTradeHash",
      "outputs": [],
      "payable": false,
      "stateMutability": "nonpayable",
      "type": "function"
    },
    {
      "constant": true,
      "inputs": [],
      "name": "challengeCandidatePaymentHashesCount",
      "outputs": [
        {
          "name": "",
          "type": "uint256"
        }
      ],
      "payable": false,
      "stateMutability": "view",
      "type": "function"
    },
    {
      "constant": false,
      "inputs": [
        {
          "name": "hash",
          "type": "bytes32"
        }
      ],
      "name": "addChallengeCandidatePaymentHash",
      "outputs": [],
      "payable": false,
      "stateMutability": "nonpayable",
      "type": "function"
    }
  ],
  "bytecode": "0x60806040523480156200001157600080fd5b5060405160208062003f758339810180604052620000339190810190620000a9565b8080600160a060020a03811615156200004b57600080fd5b600160a060020a0381163014156200006257600080fd5b5060008054600160a060020a03909216600160a060020a031992831681179091556001805490921617905550620000de565b6000620000a28251620000d2565b9392505050565b600060208284031215620000bc57600080fd5b6000620000ca848462000094565b949350505050565b600160a060020a031690565b613e8780620000ee6000396000f3006080604052600436106102b05763ffffffff60e060020a60003504166303607fba81146102b557806306394c9b146102d75780630c3e6d89146102f75780630de2d21c1461032d5780631110f49a14610342578063152932301461036257806317da53081461038f5780631df481ac146103af578063309a83d0146103cf5780633330c241146103ef57806339e8697e1461040f5780633a5381b51461042f5780634476d23b1461045157806345a4820f14610473578063498e29ed1461049357806349a3db63146104c957806353fc6a55146104e95780635439d3e114610509578063570ca735146105365780635e9fc80e1461054b578063600e461e1461056b57806360d894e01461058b5780636be11b01146105ab5780636c70bee9146105cb5780636f0ca698146105e057806377b9e8451461060d5780637bbb593b1461062d5780637bd3aeef1461064d5780637e5150f41461066d5780637f2ca51c1461068d5780638be5041a146106a257806394dd293c146106c25780639735b948146106d75780639a9bfc4d146106f75780639bf16d72146107175780639f98364514610737578063ad84466414610764578063af357a7414610784578063af55431e146107a4578063b009464a146107c4578063b4159ad2146107e4578063b7f999db14610804578063c098b40314610824578063c0a7297d14610844578063c213a4bd14610859578063c46fcd7514610886578063c70bc6e7146108a6578063cb0f433b146108c6578063ce7e7ff2146108db578063d25d3cc3146108fb578063d271d2ec1461091b578063d5f394881461093b578063d66f46e514610950578063defdfae614610965578063e0a0440514610985578063e0a7adbc146109a5578063e15de2e7146109ba578063e191bb38146109da578063ee8f514e146109ef578063f6abfc7614610a0f575b600080fd5b3480156102c157600080fd5b506102d56102d0366004613382565b610a2f565b005b3480156102e357600080fd5b506102d56102f23660046130c6565b610b31565b34801561030357600080fd5b50610317610312366004613327565b610be9565b6040516103249190613ba3565b60405180910390f35b34801561033957600080fd5b50610317610c08565b34801561034e57600080fd5b506102d561035d366004613363565b610c0f565b34801561036e57600080fd5b5061038261037d3660046132d9565b610d0e565b6040516103249190613c04565b34801561039b57600080fd5b506102d56103aa3660046132d9565b610da0565b3480156103bb57600080fd5b506102d56103ca366004613156565b610dd6565b3480156103db57600080fd5b506103176103ea3660046132d9565b610e28565b3480156103fb57600080fd5b506102d561040a3660046130ec565b610e58565b34801561041b57600080fd5b5061031761042a366004613327565b610ea0565b34801561043b57600080fd5b50610444610eae565b6040516103249190613bb1565b34801561045d57600080fd5b50610466610ebd565b6040516103249190613a79565b34801561047f57600080fd5b506102d561048e3660046133f3565b610ecc565b34801561049f57600080fd5b506104b36104ae3660046130c6565b610f22565b6040516103249a99989796959493929190613cb4565b3480156104d557600080fd5b506102d56104e436600461321a565b610f87565b3480156104f557600080fd5b506102d56105043660046131b6565b611053565b34801561051557600080fd5b506105296105243660046130c6565b6110b1565b6040516103249190613be8565b34801561054257600080fd5b506104666110d6565b34801561055757600080fd5b506102d5610566366004613345565b6110e5565b34801561057757600080fd5b50610317610586366004613186565b611169565b34801561059757600080fd5b506103176105a63660046130c6565b6111b6565b3480156105b757600080fd5b506102d56105c6366004613327565b6111d4565b3480156105d757600080fd5b50610444611220565b3480156105ec57600080fd5b506106006105fb3660046130c6565b61122f565b6040516103249190613bda565b34801561061957600080fd5b506103176106283660046130c6565b611255565b34801561063957600080fd5b506102d5610648366004613428565b611270565b34801561065957600080fd5b506103176106683660046130c6565b6112b9565b34801561067957600080fd5b506102d5610688366004613345565b6112d4565b34801561069957600080fd5b5061031761137b565b3480156106ae57600080fd5b506102d56106bd366004613126565b611381565b3480156106ce57600080fd5b506102d56113cc565b3480156106e357600080fd5b506102d56106f23660046133bf565b6113fb565b34801561070357600080fd5b506103176107123660046132d9565b6114c5565b34801561072357600080fd5b50610317610732366004613327565b6114e0565b34801561074357600080fd5b506107576107523660046130c6565b6114ee565b6040516103249190613b95565b34801561077057600080fd5b5061031761077f3660046130c6565b61150f565b34801561079057600080fd5b5061031761079f366004613327565b61152a565b3480156107b057600080fd5b506103176107bf366004613327565b611538565b3480156107d057600080fd5b506102d56107df366004613261565b611546565b3480156107f057600080fd5b506102d56107ff366004613327565b6115b1565b34801561081057600080fd5b5061046661081f3660046130c6565b6115fd565b34801561083057600080fd5b5061031761083f3660046130c6565b61161e565b34801561085057600080fd5b5061031761163c565b34801561086557600080fd5b506108796108743660046130c6565b611642565b6040516103249190613bf6565b34801561089257600080fd5b506103176108a1366004613186565b611663565b3480156108b257600080fd5b506103176108c13660046130c6565b61169c565b3480156108d257600080fd5b506104446116ba565b3480156108e757600080fd5b506102d56108f63660046132d9565b6116c9565b34801561090757600080fd5b506103176109163660046130c6565b6116ff565b34801561092757600080fd5b506103176109363660046130c6565b61171d565b34801561094757600080fd5b5061046661173b565b34801561095c57600080fd5b5061031761174a565b34801561097157600080fd5b506102d56109803660046130c6565b611750565b34801561099157600080fd5b506105296109a03660046130c6565b6117fa565b3480156109b157600080fd5b50610317611850565b3480156109c657600080fd5b506104666109d5366004613327565b611856565b3480156109e657600080fd5b5061031761187e565b3480156109fb57600080fd5b506102d5610a0a366004613327565b611884565b348015610a1b57600080fd5b506102d5610a2a366004613345565b6118d0565b600260009054906101000a9004600160a060020a0316600160a060020a031663f71e860f6040518163ffffffff1660e060020a028152600401602060405180830381600087803b158015610a8257600080fd5b505af1158015610a96573d6000803e3d6000fd5b505050506040513d601f19601f82011682018060405250610aba9190810190613309565b1515610ac557600080fd5b6004805460405160e260020a631005cd99028152600160a060020a0390911691634017366491610afb9186918691339101613c2f565b600060405180830381600087803b158015610b1557600080fd5b505af1158015610b29573d6000803e3d6000fd5b505050505050565b6000610b3b611968565b1515610b4657600080fd5b81600160a060020a0381161515610b5c57600080fd5b600160a060020a038116301415610b7257600080fd5b600154600160a060020a03848116911614610be45760018054600160a060020a03858116600160a060020a0319831617909255604051911692507f5bd9a4a09f08f75952905b16ac91d6821c47d52c3a968e583e6854b42757c58090610bdb9084908690613a87565b60405180910390a15b505050565b6007805482908110610bf757fe5b600091825260209091200154905081565b600b545b90565b600260009054906101000a9004600160a060020a0316600160a060020a031663f71e860f6040518163ffffffff1660e060020a028152600401602060405180830381600087803b158015610c6257600080fd5b505af1158015610c76573d6000803e3d6000fd5b505050506040513d601f19601f82011682018060405250610c9a9190810190613309565b1515610ca557600080fd5b6004805460405160e060020a638eed8359028152600160a060020a0390911691638eed835991610cd9918591339101613c12565b600060405180830381600087803b158015610cf357600080fd5b505af1158015610d07573d6000803e3d6000fd5b5050505050565b610d16612747565b600160a060020a0383166000908152600660205260409020600401548210610d3d57600080fd5b600160a060020a0383166000908152600660205260409020600401805483908110610d6457fe5b6000918252602091829020604080518082019091526002909202018054600160a060020a03168252600101549181019190915290505b92915050565b600454600160a060020a03163314610db757600080fd5b600160a060020a03909116600090815260066020526040902060020155565b600454600160a060020a03163314610ded57600080fd5b600160a060020a0382166000908152600660205260409020600301805482919060ff19166001836002811115610e1f57fe5b02179055505050565b600860205281600052604060002081815481101515610e4357fe5b90600052602060002001600091509150505481565b600454600160a060020a03163314610e6f57600080fd5b600160a060020a039182166000908152600660205260409020600b018054600160a060020a03191691909216179055565b600b805482908110610bf757fe5b600354600160a060020a031681565b600054600160a060020a031690565b610ed93383836001611979565b60c082015160200151516040517f557f56c08862b8255911d43ddbdd429111241d48fd17bf432d41a6ae58ade7d391610f16913391908590613b23565b60405180910390a15050565b60066020526000908152604090208054600182015460028301546003840154600785015460088601546009870154600a880154600b9098015496979596949560ff948516959385169492938284169361010090930490921691600160a060020a03168a565b600260009054906101000a9004600160a060020a0316600160a060020a031663f71e860f6040518163ffffffff1660e060020a028152600401602060405180830381600087803b158015610fda57600080fd5b505af1158015610fee573d6000803e3d6000fd5b505050506040513d601f19601f820116820180604052506110129190810190613309565b151561101d57600080fd5b6004805460405160e060020a631114b317028152600160a060020a0390911691631114b31791610afb9186918691339101613b66565b61105b611f42565b151561106657600080fd5b6110738383836000611979565b60c082015160200151516040517f6d94b3aed7642f72cda497a37ad55b99c7d30002cbb67b058b558b2a92a4623d91610bdb91339187918690613aa2565b600160a060020a03811660009081526006602052604090206007015460ff165b919050565b600154600160a060020a031681565b60006110ef611f42565b15156110fa57600080fd5b81600160a060020a038116151561111057600080fd5b60048054600160a060020a03858116600160a060020a03198316179283905560405191811694507f04563f0d44edd645440800b242cac22e503be4cd1ef70d9f4bf72591b3916d5392610bdb9286929190911690613bbf565b6000806111768484611f53565b600160a060020a0385166000908152600660205260409020600501805491925090829081106111a157fe5b906000526020600020015491505b5092915050565b600160a060020a03166000908152600660205260409020600a015490565b600454600160a060020a031633146111eb57600080fd5b600d80546001810182556000919091527fd7b6990105719101dabeb77144f2a3385c8033acd3af97e9423a695e81ad1eb50155565b600254600160a060020a031681565b600160a060020a0316600090815260066020526040902060090154610100900460ff1690565b600160a060020a031660009081526006602052604090205490565b61127e338484846001612023565b60e0830151516040517f92fbfde4e67a0839d154cd36041dfd04992a08a0b09dfbf28e53ab646474bd2991610bdb9133919086908690613b4b565b600160a060020a03166000908152600a602052604090205490565b60006112de611f42565b15156112e957600080fd5b81600160a060020a03811615156112ff57600080fd5b6002548390600160a060020a039081169082168114610d075760028054600160a060020a03878116600160a060020a0319831617909255604051911694507f6b81929a162238bb990384b771e24fd599c4ca9ddd6efb0444fdc2a10756b8f09061136c9086908890613bbf565b60405180910390a15050505050565b60095490565b600454600160a060020a0316331461139857600080fd5b600160a060020a0382166000908152600660205260409020600901805482919061ff001916610100836003811115610e1f57fe5b6113d4610ebd565b600160a060020a031633146113e857600080fd5b6113f0610ebd565b600160a060020a0316ff5b600260009054906101000a9004600160a060020a0316600160a060020a031663f71e860f6040518163ffffffff1660e060020a028152600401602060405180830381600087803b15801561144e57600080fd5b505af1158015611462573d6000803e3d6000fd5b505050506040513d601f19601f820116820180604052506114869190810190613309565b151561149157600080fd5b6004805460405160e060020a63726eec89028152600160a060020a039091169163726eec8991610cd9918591339101613c72565b600a60205281600052604060002081815481101515610e4357fe5b600c805482908110610bf757fe5b600160a060020a031660009081526006602052604090206009015460ff1690565b600160a060020a031660009081526008602052604090205490565b600d805482908110610bf757fe5b6009805482908110610bf757fe5b61154e611f42565b151561155957600080fd5b611567848484846000612023565b60e0830151516040517f0a6b525565da0cbced0dcf4a83758b063ce5e7238f632cab9b5cf4d30108e1c2916115a3913391889187908790613ad7565b60405180910390a150505050565b600454600160a060020a031633146115c857600080fd5b600b80546001810182556000919091527f0175b7a638427703f0dbe7bb9bbf987a2551717b34e79f33b5b1008d1fa01db90155565b600160a060020a039081166000908152600660205260409020600b01541690565b600160a060020a031660009081526006602052604090206008015490565b600d5490565b600160a060020a031660009081526006602052604090206003015460ff1690565b6000806116708484611f53565b600160a060020a038516600090815260066020819052604090912001805491925090829081106111a157fe5b600160a060020a031660009081526006602052604090206004015490565b600454600160a060020a031681565b600454600160a060020a031633146116e057600080fd5b600160a060020a039091166000908152600660205260409020600a0155565b600160a060020a031660009081526006602052604090206002015490565b600160a060020a031660009081526006602052604090206001015490565b600054600160a060020a031681565b600c5490565b600061175a611f42565b151561176557600080fd5b81600160a060020a038116151561177b57600080fd5b600160a060020a03811630141561179157600080fd5b600054600160a060020a03848116911614610be45760008054600160a060020a03858116600160a060020a0319831617909255604051911692507fb52724aafc8bad3645fa843e328aaaa28d0bd8ed399cd62843de657b0caf75c790610bdb9084908690613a87565b600160a060020a0381166000908152600660205260408120548110801561183b5750600160a060020a03821660009081526006602052604090206002015442105b15611848575060006110d1565b5060016110d1565b60075490565b600580548290811061186457fe5b600091825260209091200154600160a060020a0316905081565b60055490565b600454600160a060020a0316331461189b57600080fd5b600c80546001810182556000919091527fdf6966c971051c3d54ec59162606531493a51404a002842f56009d7e5cf4a8c70155565b60006118da611f42565b15156118e557600080fd5b81600160a060020a03811615156118fb57600080fd5b6003548390600160a060020a039081169082168114610d075760038054600160a060020a03878116600160a060020a0319831617909255604051911694507f365b4d2117252a14b5db6a7e816ea961da4692b5690490d22d29c4f65346f6009061136c9086908890613bbf565b600154600160a060020a0316331490565b600354600090600160a060020a0316151561199357600080fd5b600254600160a060020a031615156119aa57600080fd5b60035460405160e060020a6333dab6bd0281528591600160a060020a0316906333dab6bd906119dd908490600401613c61565b602060405180830381600087803b1580156119f757600080fd5b505af1158015611a0b573d6000803e3d6000fd5b505050506040513d601f19601f82011682018060405250611a2f9190810190613309565b1515611a3a57600080fd5b60405160e060020a636b84d93102815273__SafeMathIntLib________________________90636b84d93190611a74908790600401613ba3565b60206040518083038186803b158015611a8c57600080fd5b505af4158015611aa0573d6000803e3d6000fd5b505050506040513d601f19601f82011682018060405250611ac49190810190613309565b1515611acf57600080fd5b60035460405160e160020a6358ac3dd7028152600160a060020a039091169063b1587bae90611b049088908a90600401613c72565b602060405180830381600087803b158015611b1e57600080fd5b505af1158015611b32573d6000803e3d6000fd5b505050506040513d601f19601f82011682018060405250611b569190810190613309565b1515611b6157600080fd5b611b6a866117fa565b6001811115611b7557fe5b600114611b8157600080fd5b60035460405160e060020a63cc0e89cb028152600160a060020a039091169063cc0e89cb90611bb69088908a90600401613c72565b602060405180830381600087803b158015611bd057600080fd5b505af1158015611be4573d6000803e3d6000fd5b505050506040513d601f19601f82011682018060405250611c089190810190613309565b611c1b5760808501516040015151611c26565b606085015160400151515b915083821215611c3557600080fd5b600160a060020a0386166000908152600660205260409020541515611c8e5760058054600181018255600091909152600080516020613e2e833981519152018054600160a060020a031916600160a060020a0388161790555b60c085018051602090810151516009805460018181019092557f6e1540171b6c0c960b71a7020d9f60077f6af931a8bbf590da0223dacf75c7af0191909155600160a060020a03808a166000818152600a8552604080822096518601515187548087018955978352868320909701969096558a519181526006855285812091825560e08b01519190930155600254845160e060020a63fbdfd8e70281529451611d9f95919092169363fbdfd8e79360048084019492938390030190829087803b158015611d5a57600080fd5b505af1158015611d6e573d6000803e3d6000fd5b505050506040513d601f19601f82011682018060405250611d929190810190613470565b429063ffffffff6126e916565b600160a060020a0387166000908152600660205260408120600281019290925560038201805460ff1916600117905590611ddc906004018261275e565b50600160a060020a038681166000818152600660209081526040808320908a01516004820180546001808201835591865284862083516002909202018054600160a060020a03191691909816178755920151949091019390935590815290611e47906005018261278a565b50600160a060020a038616600081815260066020818152604083206005810180546001810182559085529184209091018890559282529091611e8a91018261278a565b50600160a060020a038616600090815260066020819052604090912001611eb7838663ffffffff6126ff16565b8154600180820184556000938452602080852090920192909255600160a060020a0389168352600681526040808420600701805460ff191684179055600a90915290912054611f059161273b565b600160a060020a03969096166000908152600660205260409020600881019690965550506009909301805460ff1916931515939093179092555050565b600054600160a060020a0316331490565b6000805b600160a060020a0384166000908152600660205260409020600401548110156102b0578251600160a060020a038581166000908152600660205260409020600401805491909216919083908110611faa57fe5b6000918252602090912060029091020154600160a060020a031614801561200e5750602080840151600160a060020a038616600090815260069092526040909120600401805483908110611ffa57fe5b906000526020600020906002020160010154145b1561201b578091506111af565b600101611f57565b6003546000908190600160a060020a0316151561203f57600080fd5b600254600160a060020a0316151561205657600080fd5b60035460405160e160020a6324d40aef0281528791600160a060020a0316906349a815de90612089908490600401613c92565b602060405180830381600087803b1580156120a357600080fd5b505af11580156120b7573d6000803e3d6000fd5b505050506040513d601f19601f820116820180604052506120db9190810190613309565b15156120e657600080fd5b60405160e060020a636b84d93102815273__SafeMathIntLib________________________90636b84d93190612120908990600401613ba3565b60206040518083038186803b15801561213857600080fd5b505af415801561214c573d6000803e3d6000fd5b505050506040513d601f19601f820116820180604052506121709190810190613309565b151561217b57600080fd5b60405160e060020a636b84d93102815273__SafeMathIntLib________________________90636b84d931906121b5908890600401613ba3565b60206040518083038186803b1580156121cd57600080fd5b505af41580156121e1573d6000803e3d6000fd5b505050506040513d601f19601f820116820180604052506122059190810190613309565b151561221057600080fd5b60035460405160e060020a63a06d2eb7028152600160a060020a039091169063a06d2eb790612245908a908c90600401613ca3565b602060405180830381600087803b15801561225f57600080fd5b505af1158015612273573d6000803e3d6000fd5b505050506040513d601f19601f820116820180604052506122979190810190613309565b15156122a257600080fd5b6122ab886117fa565b60018111156122b657fe5b6001146122c257600080fd5b60035460405160e160020a63442bc8d1028152600160a060020a039091169063885791a2906122f7908a908c90600401613ca3565b602060405180830381600087803b15801561231157600080fd5b505af1158015612325573d6000803e3d6000fd5b505050506040513d601f19601f820116820180604052506123499190810190613309565b6123645760a080880151015180515160209091015151612378565b608087015160a00151805151602090910151515b90935091508583121561238a57600080fd5b8482121561239757600080fd5b600160a060020a03881660009081526006602052604090205415156123f05760058054600181018255600091909152600080516020613e2e833981519152018054600160a060020a031916600160a060020a038a161790555b60e087018051516007805460018181019092557fa66cc928b5edb82af9bd49922954155ab7b0942694bea4ce44661d9a8736c6880191909155600160a060020a03808b16600081815260086020908152604080832096515187548088018955978452828420909701969096558c51928252600681528582209283556101008d01519290940191909155600254845160e060020a63fbdfd8e702815294516124bd95919093169363fbdfd8e79360048084019492939192918390030190829087803b158015611d5a57600080fd5b600160a060020a0389166000908152600660205260408120600281019290925560038201805460ff19166001179055906124fa906004018261275e565b50600160a060020a038089166000818152600660209081526040808320908c01805151600483018054600181810183558288528688208451600293840282018054918d16600160a060020a03199283161781559589015195830195909555898952945187015183548083018555938952805193909202909401805492909916919092161787559092015194909101939093559081529061259d906005018261278a565b50600160a060020a03881660008181526006602081815260408320600581018054600181810183558287529386209081018d905581549384019091559190910189905592825290916125f091018261278a565b50600160a060020a03881660009081526006602081905260409091200161261d848863ffffffff6126ff16565b81546001810183556000928352602080842090910191909155600160a060020a038a16825260069081905260409091200161265e838763ffffffff6126ff16565b8154600180820184556000938452602080852090920192909255600160a060020a038b168352600681526040808420600701805460ff191690556008909152909120546126aa9161273b565b600160a060020a0398909816600090815260066020526040902060088101989098555050506009909401805460ff191694151594909417909355505050565b6000828201838110156126f857fe5b9392505050565b600080821215801561271357508282840313155b8061272a575060008212801561272a575082828403135b151561273557600080fd5b50900390565b60008282111561273557fe5b604080518082019091526000808252602082015290565b815481835581811115610be457600202816002028360005260206000209182019101610be491906127ae565b815481835581811115610be457600083815260209020610be49181019083016127dd565b610c0c91905b808211156127d9578054600160a060020a0319168155600060018201556002016127b4565b5090565b610c0c91905b808211156127d957600081556001016127e3565b60006126f88235613d99565b6000601f8201831361281457600080fd5b813561282761282282613d6f565b613d49565b9150818183526020840193506020810190508385606084028201111561284c57600080fd5b60005b8381101561287a5781612862888261293d565b8452506020909201916060919091019060010161284f565b5050505092915050565b60006126f88251613da5565b60006126f88235610c0c565b60006126f88235613dd4565b60006126f88235613ddf565b60006126f88235613dee565b60006126f88235613dfd565b6000604082840312156128de57600080fd5b6128e86040613d49565b905060006128f684846127f7565b825250602061290784848301612890565b60208301525092915050565b60006040828403121561292557600080fd5b61292f6040613d49565b905060006128f68484612890565b60006060828403121561294f57600080fd5b6129596040613d49565b905060006129678484612890565b8252506020612907848483016128cc565b60006080828403121561298a57600080fd5b6129946040613d49565b905060006129a284846128cc565b8252506040612907848483016128cc565b6000608082840312156129c557600080fd5b6129cf6040613d49565b905060006129dd8484612913565b825250604061290784848301612913565b60006101208284031215612a0157600080fd5b612a0b60a0613d49565b90506000612a1984846128b4565b8252506020612a2a84848301612890565b6020830152506040612a3e84828501612978565b60408301525060c0612a5284828501612890565b60608301525060e0612a6684828501612913565b60808301525092915050565b60006102a08284031215612a8557600080fd5b612a8f60c0613d49565b90506000612a9d8484612890565b8252506020612aae848483016127f7565b6020830152506040612ac2848285016129ee565b604083015250610160612ad784828501613072565b606083015250610260612aec84828501612890565b608083015250610280612b0184828501612890565b60a08301525092915050565b600060a08284031215612b1f57600080fd5b612b296080613d49565b90506000612b378484612890565b8252506020612b48848483016127f7565b6020830152506040612b5c84828501612913565b60408301525060808201356001604060020a03811115612b7b57600080fd5b612b8784828501612df7565b60608301525092915050565b600060a08284031215612ba557600080fd5b612baf6080613d49565b90506000612bbd8484612890565b8252506020612bce848483016127f7565b6020830152506040612be284828501612913565b60408301525060808201356001604060020a03811115612c0157600080fd5b612b8784828501612da5565b60006102408284031215612c2057600080fd5b612c2b610120613d49565b90506000612c398484612890565b8252506020612c4a84848301612890565b6020830152506040612c5e848285016128cc565b60408301525060808201356001604060020a03811115612c7d57600080fd5b612c8984828501612b93565b60608301525060a08201356001604060020a03811115612ca857600080fd5b612cb484828501612b0d565b60808301525060c0612cc884828501612913565b60a083015250610100612cdd84828501613072565b60c083015250610200612cf284828501612890565b60e083015250610220612d0784828501612890565b6101008301525092915050565b600060808284031215612d2657600080fd5b612d306040613d49565b90506000612d3e8484612890565b825250602061290784848301600060608284031215612d5c57600080fd5b612d666060613d49565b90506000612d748484612890565b8252506020612d8584848301612890565b6020830152506040612d99848285016130ba565b60408301525092915050565b600060808284031215612db757600080fd5b612dc16040613d49565b90506000612dcf848461293d565b82525060608201356001604060020a03811115612deb57600080fd5b61290784828501612803565b600060208284031215612e0957600080fd5b612e136020613d49565b905081356001604060020a03811115612e2b57600080fd5b612e3784828501612803565b82525092915050565b600060a08284031215612e5257600080fd5b612e5c6060613d49565b90506000612e6a8484612890565b8252506020612e7b84848301612913565b6020830152506060612d9984828501612913565b60006101c08284031215612ea257600080fd5b612eac60e0613d49565b90506000612eba8484612890565b8252506020612ecb848483016127f7565b6020830152506040612edf84828501612890565b6040830152506060612ef3848285016128b4565b6060830152506080612f0784828501612e40565b608083015250610120612f1c848285016129b3565b60a0830152506101a08201356001604060020a03811115612f3c57600080fd5b612f4884828501612da5565b60c08301525092915050565b60006102608284031215612f6757600080fd5b612f72610140613d49565b90506000612f808484612890565b8252506020612f9184848301612890565b6020830152506040612fa584828501612978565b60408301525060c0612fb984828501612890565b60608301525060e08201356001604060020a03811115612fd857600080fd5b612fe484828501612e8f565b6080830152506101008201356001604060020a0381111561300457600080fd5b61301084828501612e8f565b60a083015250610120613025848285016129b3565b60c0830152506101a061303a84828501612d14565b60e08301525061022061304f84828501612890565b6101008301525061024061306584828501612890565b6101208301525092915050565b6000610100828403121561308557600080fd5b61308f6040613d49565b9050600061309d8484612d14565b825250608061290784848301612d14565b60006126f88251610c0c565b60006126f88235613dce565b6000602082840312156130d857600080fd5b60006130e484846127f7565b949350505050565b600080604083850312156130ff57600080fd5b600061310b85856127f7565b925050602061311c858286016127f7565b9150509250929050565b6000806040838503121561313957600080fd5b600061314585856127f7565b925050602061311c858286016128a8565b6000806040838503121561316957600080fd5b600061317585856127f7565b925050602061311c858286016128c0565b6000806060838503121561319957600080fd5b60006131a585856127f7565b925050602061311c858286016128cc565b6000806000606084860312156131cb57600080fd5b60006131d786866127f7565b93505060208401356001604060020a038111156131f357600080fd5b6131ff86828701612c0d565b925050604061321086828701612890565b9150509250925092565b6000806040838503121561322d57600080fd5b600061323985856127f7565b92505060208301356001604060020a0381111561325557600080fd5b61311c85828601612f54565b6000806000806080858703121561327757600080fd5b600061328387876127f7565b94505060208501356001604060020a0381111561329f57600080fd5b6132ab87828801612f54565b93505060406132bc87828801612890565b92505060606132cd87828801612890565b91505092959194509250565b600080604083850312156132ec57600080fd5b60006132f885856127f7565b925050602061311c85828601612890565b60006020828403121561331b57600080fd5b60006130e48484612884565b60006020828403121561333957600080fd5b60006130e48484612890565b60006020828403121561335757600080fd5b60006130e4848461289c565b60006102a0828403121561337657600080fd5b60006130e48484612a72565b6000806102c0838503121561339657600080fd5b60006133a28585612a72565b9250506102a08301356001604060020a0381111561325557600080fd5b6000602082840312156133d157600080fd5b81356001604060020a038111156133e757600080fd5b6130e484828501612c0d565b6000806040838503121561340657600080fd5b82356001604060020a0381111561341c57600080fd5b6132f885828601612c0d565b60008060006060848603121561343d57600080fd5b83356001604060020a0381111561345357600080fd5b61345f86828701612f54565b93505060206131ff86828701612890565b60006020828403121561348257600080fd5b60006130e484846130ae565b61349781613d99565b82525050565b60006134a882613d95565b8084526020840193506134ba83613d8f565b60005b828110156134ea576134d0868351613565565b6134d982613d8f565b6060969096019591506001016134bd565b5093949350505050565b61349781613da5565b61349781610c0c565b61349781613dd4565b61349781613e0c565b61349781613e17565b61349781613e22565b8051604083019061353b848261348e565b50602082015161354e60208501826134fd565b50505050565b8051604083019061353b84826134fd565b8051606083019061357684826134fd565b50602082015161354e602085018261352a565b8051608083019061359a848261352a565b50602082015161354e604085018261352a565b805160808301906135be8482613554565b50602082015161354e6040850182613554565b80516101208301906135e38482613518565b5060208201516135f660208501826134fd565b5060408201516136096040850182613589565b50606082015161361c60c08501826134fd565b50608082015161354e60e0850182613554565b80516102a083019061364184826134fd565b506020820151613654602085018261348e565b50604082015161366760408501826135d1565b50606082015161367b610160850182613a4b565b50608082015161368f6102608501826134fd565b5060a082015161354e6102808501826134fd565b805160009060a08401906136b785826134fd565b5060208301516136ca602086018261348e565b5060408301516136dd6040860182613554565b50606083015184820360808601526136f58282613899565b95945050505050565b805160009060a084019061371285826134fd565b506020830151613725602086018261348e565b5060408301516137386040860182613554565b50606083015184820360808601526136f5828261386d565b805160009061024084019061376585826134fd565b50602083015161377860208601826134fd565b50604083015161378b604086018261352a565b50606083015184820360808601526137a382826136fe565b915050608083015184820360a08601526137bd82826136a3565b91505060a08301516137d260c0860182613554565b5060c08301516137e6610100860182613a4b565b5060e08301516137fa6102008601826134fd565b5061010083015161380f6102208601826134fd565b509392505050565b8051608083019061382884826134fd565b50602082015161354e60208501828051606083019061384784826134fd565b50602082015161385a60208501826134fd565b50604082015161354e6040850182613a70565b805160009060808401906138818582613565565b50602083015184820360608601526136f5828261349d565b80516020808452600091908401906136f5828261349d565b805160a08301906138c284826134fd565b5060208201516138d56020850182613554565b50604082015161354e6060850182613554565b80516000906101c08401906138fd85826134fd565b506020830151613910602086018261348e565b50604083015161392360408601826134fd565b5060608301516139366060860182613518565b50608083015161394960808601826138b1565b5060a083015161395d6101208601826135ad565b5060c08301518482036101a08601526136f5828261386d565b805160009061026084019061398b85826134fd565b50602083015161399e60208601826134fd565b5060408301516139b16040860182613589565b5060608301516139c460c08601826134fd565b50608083015184820360e08601526139dc82826138e8565b91505060a08301518482036101008601526139f782826138e8565b91505060c0830151613a0d6101208601826135ad565b5060e0830151613a216101a0860182613817565b50610100830151613a366102208601826134fd565b5061012083015161380f6102408601826134fd565b8051610100830190613a5d8482613817565b50602082015161354e6080850182613817565b61349781613dce565b60208101610d9a828461348e565b60408101613a95828561348e565b6126f8602083018461348e565b60808101613ab0828761348e565b613abd602083018661348e565b613aca60408301856134fd565b6136f560608301846134fd565b60a08101613ae5828861348e565b613af2602083018761348e565b613aff60408301866134fd565b613b0c60608301856134fd565b613b1960808301846134fd565b9695505050505050565b60608101613b31828661348e565b613b3e60208301856134fd565b6130e460408301846134fd565b60808101613b59828761348e565b613abd60208301866134fd565b60608101613b74828661348e565b8181036020830152613b868185613976565b90506130e4604083018461348e565b60208101610d9a82846134f4565b60208101610d9a82846134fd565b60208101610d9a8284613506565b60408101613bcd8285613506565b6126f86020830184613506565b60208101610d9a828461350f565b60208101610d9a8284613518565b60208101610d9a8284613521565b60408101610d9a828461352a565b6102c08101613c21828561362f565b6126f86102a083018461348e565b6102e08101613c3e828661362f565b8181036102a0830152613c518185613976565b90506130e46102c083018461348e565b602080825281016126f88184613750565b60408082528101613c838185613750565b90506126f8602083018461348e565b602080825281016126f88184613976565b60408082528101613c838185613976565b6101408101613cc3828d6134fd565b613cd0602083018c6134fd565b613cdd604083018b6134fd565b613cea606083018a613521565b613cf76080830189613518565b613d0460a08301886134fd565b613d1160c08301876134f4565b613d1e60e083018661350f565b613d2c6101008301856134fd565b613d3a61012083018461348e565b9b9a5050505050505050505050565b6040518181016001604060020a0381118282101715613d6757600080fd5b604052919050565b60006001604060020a03821115613d8557600080fd5b5060209081020190565b60200190565b5190565b600160a060020a031690565b151590565b6000600482106127d957fe5b6000600282106127d957fe5b6000600382106127d957fe5b60ff1690565b6000610d9a82613d99565b6000600482106127d957600080fd5b6000600282106127d957600080fd5b6000600382106127d957600080fd5b6000610d9a82613daa565b6000610d9a82613db6565b6000610d9a82613dc25600036b6384b5eca791c62761152d0c79bb0604c104a5fb6f4eb0703f3154bb3db0a265627a7a72305820def5b11396d317412a3c19d6c4ec43d6a08db7ca57e4c8cdfcb22781d80ae1036c6578706572696d656e74616cf50037",
  "source": "/*\n * Hubii Nahmii\n *\n * Compliant with the Hubii Nahmii specification v0.12.\n *\n * Copyright (C) 2017-2018 Hubii AS\n */\n\npragma solidity ^0.4.24;\npragma experimental ABIEncoderV2;\n\nimport {Ownable} from \"./Ownable.sol\";\nimport {Challenge} from \"./Challenge.sol\";\nimport {Validatable} from \"./Validatable.sol\";\nimport {SafeMathIntLib} from \"./SafeMathIntLib.sol\";\nimport {SafeMathUintLib} from \"./SafeMathUintLib.sol\";\nimport {DriipSettlementDispute} from \"./DriipSettlementDispute.sol\";\nimport {MonetaryTypesLib} from \"./MonetaryTypesLib.sol\";\nimport {NahmiiTypesLib} from \"./NahmiiTypesLib.sol\";\nimport {SettlementTypesLib} from \"./SettlementTypesLib.sol\";\n\n/**\n@title DriipSettlementChallenge\n@notice Where driip settlements are started and challenged\n*/\ncontract DriipSettlementChallenge is Ownable, Challenge, Validatable {\n    using SafeMathIntLib for int256;\n    using SafeMathUintLib for uint256;\n\n    //\n    // Variables\n    // -----------------------------------------------------------------------------------------------------------------\n    DriipSettlementDispute public driipSettlementDispute;\n\n    address[] public challengedWallets;\n\n    mapping(address => SettlementTypesLib.Proposal) public proposalsByWallet;\n\n    bytes32[] public challengedTradeHashes;\n    mapping(address => bytes32[]) public challengedTradeHashesByWallet;\n\n    bytes32[] public challengedPaymentHashes;\n    mapping(address => bytes32[]) public challengedPaymentHashesByWallet;\n\n    bytes32[] public challengeCandidateOrderHashes;\n    bytes32[] public challengeCandidateTradeHashes;\n    bytes32[] public challengeCandidatePaymentHashes;\n\n    //\n    // Events\n    // -----------------------------------------------------------------------------------------------------------------\n    event ChangeDriipSettlementDisputeEvent(DriipSettlementDispute oldDriipSettlementDispute,\n        DriipSettlementDispute newDriipSettlementDispute);\n    event StartChallengeFromTradeEvent(address wallet, bytes32 tradeHash,\n        int256 intendedStageAmount, int256 conjugateStageAmount);\n    event StartChallengeFromTradeByProxyEvent(address proxy, address wallet, bytes32 tradeHash,\n        int256 intendedStageAmount, int256 conjugateStageAmount);\n    event StartChallengeFromPaymentEvent(address wallet, bytes32 paymentHash, int256 stageAmount);\n    event StartChallengeFromPaymentByProxyEvent(address proxy, address wallet, bytes32 paymentHash,\n        int256 stageAmount);\n\n    //\n    // Constructor\n    // -----------------------------------------------------------------------------------------------------------------\n    constructor(address owner) Ownable(owner) public {\n    }\n\n    //\n    // Functions\n    // -----------------------------------------------------------------------------------------------------------------\n    /// @notice Change the settlement dispute contract\n    /// @param newDriipSettlementDispute The (address of) DriipSettlementDispute contract instance\n    function changeDriipSettlementDispute(DriipSettlementDispute newDriipSettlementDispute)\n    public\n    onlyDeployer\n    notNullAddress(newDriipSettlementDispute)\n    {\n        DriipSettlementDispute oldDriipSettlementDispute = driipSettlementDispute;\n        driipSettlementDispute = newDriipSettlementDispute;\n        emit ChangeDriipSettlementDisputeEvent(oldDriipSettlementDispute, driipSettlementDispute);\n    }\n\n    /// @notice Get the number of challenged wallets\n    /// @return The number of challenged wallets\n    function challengedWalletsCount()\n    public\n    view\n    returns (uint256)\n    {\n        return challengedWallets.length;\n    }\n\n    /// @notice Get the number of challenged trade hashes\n    /// @return The count of challenged trade hashes\n    function challengedTradeHashesCount()\n    public\n    view\n    returns (uint256)\n    {\n        return challengedTradeHashes.length;\n    }\n\n    /// @notice Get the number of challenged payment hashes\n    /// @return The count of challenged payment hashes\n    function challengedPaymentHashesCount()\n    public\n    view\n    returns (uint256)\n    {\n        return challengedPaymentHashes.length;\n    }\n\n    /// @notice Get the number of current and past settlement challenges from trade for given wallet\n    /// @param wallet The wallet for which to return count\n    /// @return The count of settlement challenges from trade\n    function walletChallengedTradeHashesCount(address wallet)\n    public\n    view\n    returns (uint256)\n    {\n        return challengedTradeHashesByWallet[wallet].length;\n    }\n\n    /// @notice Get the number of current and past settlement challenges from payment for given wallet\n    /// @param wallet The wallet for which to return count\n    /// @return The count of settlement challenges from payment\n    function walletChallengedPaymentHashesCount(address wallet)\n    public\n    view\n    returns (uint256)\n    {\n        return challengedPaymentHashesByWallet[wallet].length;\n    }\n\n    /// @notice Start settlement challenge on trade\n    /// @param trade The challenged trade\n    /// @param intendedStageAmount Amount of intended currency to be staged\n    /// @param conjugateStageAmount Amount of conjugate currency to be staged\n    function startChallengeFromTrade(NahmiiTypesLib.Trade trade, int256 intendedStageAmount,\n        int256 conjugateStageAmount)\n    public\n    {\n        // Start challenge\n        startChallengeFromTradePrivate(msg.sender, trade, intendedStageAmount, conjugateStageAmount, true);\n\n        // Emit event\n        emit StartChallengeFromTradeEvent(msg.sender, trade.seal.hash, intendedStageAmount, conjugateStageAmount);\n    }\n\n    /// @notice Start settlement challenge on trade by proxy\n    /// @param wallet The concerned party\n    /// @param trade The challenged trade\n    /// @param intendedStageAmount Amount of intended currency to be staged\n    /// @param conjugateStageAmount Amount of conjugate currency to be staged\n    function startChallengeFromTradeByProxy(address wallet, NahmiiTypesLib.Trade trade, int256 intendedStageAmount,\n        int256 conjugateStageAmount)\n    public\n    onlyDeployer\n    {\n        // Start challenge for wallet\n        startChallengeFromTradePrivate(wallet, trade, intendedStageAmount, conjugateStageAmount, false);\n\n        // Emit event\n        emit StartChallengeFromTradeByProxyEvent(msg.sender, wallet, trade.seal.hash, intendedStageAmount, conjugateStageAmount);\n    }\n\n    /// @notice Start settlement challenge on payment\n    /// @param payment The challenged payment\n    /// @param stageAmount Amount of payment currency to be staged\n    function startChallengeFromPayment(NahmiiTypesLib.Payment payment, int256 stageAmount)\n    public\n    {\n        // Start challenge for wallet\n        startChallengeFromPaymentPrivate(msg.sender, payment, stageAmount, true);\n\n        // Emit event\n        emit StartChallengeFromPaymentEvent(msg.sender, payment.seals.operator.hash, stageAmount);\n    }\n\n    /// @notice Start settlement challenge on payment\n    /// @param wallet The concerned party\n    /// @param payment The challenged payment\n    /// @param stageAmount Amount of payment currency to be staged\n    function startChallengeFromPaymentByProxy(address wallet, NahmiiTypesLib.Payment payment, int256 stageAmount)\n    public\n    onlyDeployer\n    {\n        // Start challenge for wallet\n        startChallengeFromPaymentPrivate(wallet, payment, stageAmount, false);\n\n        // Emit event\n        emit StartChallengeFromPaymentByProxyEvent(msg.sender, wallet, payment.seals.operator.hash, stageAmount);\n    }\n\n    /// @notice Get settlement challenge phase of given wallet\n    /// @param wallet The concerned wallet\n    /// @return The challenge phase and nonce\n    function challengePhase(address wallet)\n    public\n    view\n    returns (NahmiiTypesLib.ChallengePhase)\n    {\n        if (0 < proposalsByWallet[wallet].nonce && block.timestamp < proposalsByWallet[wallet].timeout)\n            return NahmiiTypesLib.ChallengePhase.Dispute;\n        else\n            return NahmiiTypesLib.ChallengePhase.Closed;\n    }\n\n    /// @notice Get the challenge nonce of the given wallet\n    /// @param wallet The concerned wallet\n    /// @return The challenge nonce\n    function proposalNonce(address wallet)\n    public\n    view\n    returns (uint256)\n    {\n        return proposalsByWallet[wallet].nonce;\n    }\n\n    /// @notice Get the settlement proposal block number of the given wallet\n    /// @param wallet The concerned wallet\n    /// @return The settlement proposal block number\n    function proposalBlockNumber(address wallet)\n    public\n    view\n    returns (uint256)\n    {\n        return proposalsByWallet[wallet].blockNumber;\n    }\n\n    /// @notice Get the settlement proposal timeout of the given wallet\n    /// @param wallet The concerned wallet\n    /// @return The settlement proposal timeout\n    function proposalTimeout(address wallet)\n    public\n    view\n    returns (uint256)\n    {\n        return proposalsByWallet[wallet].timeout;\n    }\n\n    /// @notice Get the challenge status of the given wallet\n    /// @param wallet The concerned wallet\n    /// @return The challenge status\n    function proposalStatus(address wallet)\n    public\n    view\n    returns (SettlementTypesLib.ProposalStatus)\n    {\n        return proposalsByWallet[wallet].status;\n    }\n\n    /// @notice Get the settlement proposal currency count of the given wallet\n    /// @param wallet The concerned wallet\n    /// @return The settlement proposal currency count\n    function proposalCurrencyCount(address wallet)\n    public\n    view\n    returns (uint256)\n    {\n        return proposalsByWallet[wallet].currencies.length;\n    }\n\n    /// @notice Get the settlement proposal currency of the given wallet at the given index\n    /// @param wallet The concerned wallet\n    /// @param index The index of the concerned currency\n    /// @return The settlement proposal currency\n    function proposalCurrency(address wallet, uint256 index)\n    public\n    view\n    returns (MonetaryTypesLib.Currency)\n    {\n        require(index < proposalsByWallet[wallet].currencies.length);\n        return proposalsByWallet[wallet].currencies[index];\n    }\n\n    /// @notice Get the settlement proposal stage amount of the given wallet and currency\n    /// @param wallet The concerned wallet\n    /// @param currency The concerned currency\n    /// @return The settlement proposal stage amount\n    function proposalStageAmount(address wallet, MonetaryTypesLib.Currency currency)\n    public\n    view\n    returns (int256)\n    {\n        uint256 index = proposalCurrencyIndex(wallet, currency);\n        return proposalsByWallet[wallet].stageAmounts[index];\n    }\n\n    /// @notice Get the settlement proposal target balance amount of the given wallet and currency\n    /// @param wallet The concerned wallet\n    /// @param currency The concerned currency\n    /// @return The settlement proposal target balance amount\n    function proposalTargetBalanceAmount(address wallet, MonetaryTypesLib.Currency currency)\n    public\n    view\n    returns (int256)\n    {\n        uint256 index = proposalCurrencyIndex(wallet, currency);\n        return proposalsByWallet[wallet].targetBalanceAmounts[index];\n    }\n\n    /// @notice Get the driip type of the given wallet's settlement proposal\n    /// @param wallet The concerned wallet\n    /// @return The driip type of the settlement proposal\n    function proposalDriipType(address wallet)\n    public\n    view\n    returns (NahmiiTypesLib.DriipType)\n    {\n        return proposalsByWallet[wallet].driipType;\n    }\n\n    /// @notice Get the driip index of the given wallet's settlement proposal\n    /// @param wallet The concerned wallet\n    /// @return The driip index of the settlement proposal\n    function proposalDriipIndex(address wallet)\n    public\n    view\n    returns (uint256)\n    {\n        return proposalsByWallet[wallet].driipIndex;\n    }\n\n    /// @notice Get the candidate type of the given wallet's settlement proposal\n    /// @param wallet The concerned wallet\n    /// @return The candidate type of the settlement proposal\n    function proposalCandidateType(address wallet)\n    public\n    view\n    returns (SettlementTypesLib.CandidateType)\n    {\n        return proposalsByWallet[wallet].candidateType;\n    }\n\n    /// @notice Get the candidate index of the given wallet's settlement proposal\n    /// @param wallet The concerned wallet\n    /// @return The candidate index of the settlement proposal\n    function proposalCandidateIndex(address wallet)\n    public\n    view\n    returns (uint256)\n    {\n        return proposalsByWallet[wallet].candidateIndex;\n    }\n\n    /// @notice Get the challenger of the given wallet's settlement proposal\n    /// @param wallet The concerned wallet\n    /// @return The challenger of the settlement proposal\n    function proposalChallenger(address wallet)\n    public\n    view\n    returns (address)\n    {\n        return proposalsByWallet[wallet].challenger;\n    }\n\n    /// @notice Get the balance reward of the given wallet's settlement proposal\n    /// @param wallet The concerned wallet\n    /// @return The balance reward of the settlement proposal\n    function proposalBalanceReward(address wallet)\n    public\n    view\n    returns (bool)\n    {\n        return proposalsByWallet[wallet].balanceReward;\n    }\n\n    /// @notice Set settlement proposal status property of the given wallet\n    /// @dev This function can only be called by this contract's dispute instance\n    /// @param wallet The concerned wallet\n    /// @param timeout The timeout value\n    function setProposalTimeout(address wallet, uint256 timeout)\n    public\n    onlyDriipSettlementDispute\n    {\n        proposalsByWallet[wallet].timeout = timeout;\n    }\n\n    /// @notice Set settlement proposal status property of the given wallet\n    /// @dev This function can only be called by this contract's dispute instance\n    /// @param wallet The concerned wallet\n    /// @param status The status value\n    function setProposalStatus(address wallet, SettlementTypesLib.ProposalStatus status)\n    public\n    onlyDriipSettlementDispute\n    {\n        proposalsByWallet[wallet].status = status;\n    }\n\n    /// @notice Set settlement proposal candidate type property of the given wallet\n    /// @dev This function can only be called by this contract's dispute instance\n    /// @param wallet The concerned wallet\n    /// @param candidateType The candidate type value\n    function setProposalCandidateType(address wallet, SettlementTypesLib.CandidateType candidateType)\n    public\n    onlyDriipSettlementDispute\n    {\n        proposalsByWallet[wallet].candidateType = candidateType;\n    }\n\n    /// @notice Set settlement proposal candidate index property of the given wallet\n    /// @dev This function can only be called by this contract's dispute instance\n    /// @param wallet The concerned wallet\n    /// @param candidateIndex The candidate index value\n    function setProposalCandidateIndex(address wallet, uint256 candidateIndex)\n    public\n    onlyDriipSettlementDispute\n    {\n        proposalsByWallet[wallet].candidateIndex = candidateIndex;\n    }\n\n    /// @notice Set settlement proposal challenger property of the given wallet\n    /// @dev This function can only be called by this contract's dispute instance\n    /// @param wallet The concerned wallet\n    /// @param challenger The challenger value\n    function setProposalChallenger(address wallet, address challenger)\n    public\n    onlyDriipSettlementDispute\n    {\n        proposalsByWallet[wallet].challenger = challenger;\n    }\n\n    /// @notice Challenge the settlement by providing order candidate\n    /// @param order The order candidate that challenges the challenged driip\n    function challengeByOrder(NahmiiTypesLib.Order order)\n    public\n    onlyOperationalModeNormal\n    {\n        driipSettlementDispute.challengeByOrder(order, msg.sender);\n    }\n\n    /// @notice Unchallenge settlement by providing trade that shows that challenge order candidate has been filled\n    /// @param order The order candidate that challenged driip\n    /// @param trade The trade in which order has been filled\n    function unchallengeOrderCandidateByTrade(NahmiiTypesLib.Order order, NahmiiTypesLib.Trade trade)\n    public\n    onlyOperationalModeNormal\n    {\n        driipSettlementDispute.unchallengeOrderCandidateByTrade(order, trade, msg.sender);\n    }\n\n    /// @notice Challenge the settlement by providing trade candidate\n    /// @param wallet The wallet whose settlement is being challenged\n    /// @param trade The trade candidate that challenges the challenged driip\n    function challengeByTrade(address wallet, NahmiiTypesLib.Trade trade)\n    public\n    onlyOperationalModeNormal\n    {\n        driipSettlementDispute.challengeByTrade(wallet, trade, msg.sender);\n    }\n\n    /// @notice Challenge the settlement by providing payment candidate\n    /// @param payment The payment candidate that challenges the challenged driip\n    function challengeByPayment(NahmiiTypesLib.Payment payment)\n    public\n    onlyOperationalModeNormal\n    {\n        driipSettlementDispute.challengeByPayment(payment, msg.sender);\n    }\n\n    /// @notice Get the count of challenge candidate order hashes\n    /// @return The count of challenge candidate order hashes\n    function challengeCandidateOrderHashesCount()\n    public\n    view\n    returns (uint256)\n    {\n        return challengeCandidateOrderHashes.length;\n    }\n\n    /// @notice Add to store the given challenge candidate order hash\n    /// @dev This function can only be called by this contract's dispute instance\n    /// @param hash The challenge candidate order hash to push\n    function addChallengeCandidateOrderHash(bytes32 hash)\n    public\n    onlyDriipSettlementDispute\n    {\n        challengeCandidateOrderHashes.push(hash);\n    }\n\n    /// @notice Get the count of challenge candidate trade hashes\n    /// @return The count of challenge candidate trade hashes\n    function challengeCandidateTradeHashesCount()\n    public\n    view\n    returns (uint256)\n    {\n        return challengeCandidateTradeHashes.length;\n    }\n\n    /// @notice Add to store the given challenge candidate trade hash\n    /// @dev This function can only be called by this contract's dispute instance\n    /// @param hash The challenge candidate trade hash to push\n    function addChallengeCandidateTradeHash(bytes32 hash)\n    public\n    onlyDriipSettlementDispute\n    {\n        challengeCandidateTradeHashes.push(hash);\n    }\n\n    /// @notice Get the count of challenge candidate payment hashes\n    /// @return The count of challenge candidate payment hashes\n    function challengeCandidatePaymentHashesCount()\n    public\n    view\n    returns (uint256)\n    {\n        return challengeCandidatePaymentHashes.length;\n    }\n\n    /// @notice Add to store the given challenge candidate payment hash\n    /// @dev This function can only be called by this contract's dispute instance\n    /// @param hash The challenge candidate payment hash to push\n    function addChallengeCandidatePaymentHash(bytes32 hash)\n    public\n    onlyDriipSettlementDispute\n    {\n        challengeCandidatePaymentHashes.push(hash);\n    }\n\n    function startChallengeFromTradePrivate(address wallet, NahmiiTypesLib.Trade trade,\n        int256 intendedStageAmount, int256 conjugateStageAmount, bool balanceReward)\n    private\n    validatorInitialized\n    configurationInitialized\n    onlySealedTrade(trade)\n    {\n        require(intendedStageAmount.isPositiveInt256());\n        require(conjugateStageAmount.isPositiveInt256());\n\n        require(validator.isTradeParty(trade, wallet));\n\n        // Require that wallet has no overlap with ongoing challenge\n        require(NahmiiTypesLib.ChallengePhase.Closed == challengePhase(wallet));\n\n        (int256 intendedBalanceAmount, int256 conjugateBalanceAmount) =\n        (validator.isTradeBuyer(trade, wallet) ?\n        (trade.buyer.balances.intended.current, trade.buyer.balances.conjugate.current) :\n        (trade.seller.balances.intended.current, trade.seller.balances.conjugate.current));\n\n        require(intendedBalanceAmount >= intendedStageAmount);\n        require(conjugateBalanceAmount >= conjugateStageAmount);\n\n        if (0 == proposalsByWallet[wallet].nonce)\n            challengedWallets.push(wallet);\n\n        challengedTradeHashes.push(trade.seal.hash);\n        challengedTradeHashesByWallet[wallet].push(trade.seal.hash);\n\n        proposalsByWallet[wallet].nonce = trade.nonce;\n        proposalsByWallet[wallet].blockNumber = trade.blockNumber;\n        proposalsByWallet[wallet].timeout = block.timestamp.add(configuration.settlementChallengeTimeout());\n        proposalsByWallet[wallet].status = SettlementTypesLib.ProposalStatus.Qualified;\n        proposalsByWallet[wallet].currencies.length = 0;\n        proposalsByWallet[wallet].currencies.push(trade.currencies.intended);\n        proposalsByWallet[wallet].currencies.push(trade.currencies.conjugate);\n        proposalsByWallet[wallet].stageAmounts.length = 0;\n        proposalsByWallet[wallet].stageAmounts.push(intendedStageAmount);\n        proposalsByWallet[wallet].stageAmounts.push(conjugateStageAmount);\n        proposalsByWallet[wallet].targetBalanceAmounts.length = 0;\n        proposalsByWallet[wallet].targetBalanceAmounts.push(intendedBalanceAmount.sub(intendedStageAmount));\n        proposalsByWallet[wallet].targetBalanceAmounts.push(conjugateBalanceAmount.sub(conjugateStageAmount));\n        //        proposalsByWallet[wallet].driipOperatorHash = trade.seal.hash;\n        proposalsByWallet[wallet].driipType = NahmiiTypesLib.DriipType.Trade;\n        proposalsByWallet[wallet].driipIndex = challengedTradeHashesByWallet[wallet].length.sub(1);\n        proposalsByWallet[wallet].balanceReward = balanceReward;\n    }\n\n    function startChallengeFromPaymentPrivate(address wallet, NahmiiTypesLib.Payment payment,\n        int256 stageAmount, bool balanceReward)\n    private\n    validatorInitialized\n    configurationInitialized\n    onlySealedPayment(payment)\n    {\n        require(stageAmount.isPositiveInt256());\n\n        require(validator.isPaymentParty(payment, wallet));\n\n        // Require that wallet has no overlap with ongoing challenge\n        require(NahmiiTypesLib.ChallengePhase.Closed == challengePhase(wallet));\n\n        int256 balanceAmount = (validator.isPaymentSender(payment, wallet) ?\n        payment.sender.balances.current :\n        payment.recipient.balances.current);\n\n        require(balanceAmount >= stageAmount);\n\n        if (0 == proposalsByWallet[wallet].nonce)\n            challengedWallets.push(wallet);\n\n        challengedPaymentHashes.push(payment.seals.operator.hash);\n        challengedPaymentHashesByWallet[wallet].push(payment.seals.operator.hash);\n\n        proposalsByWallet[wallet].nonce = payment.nonce;\n        proposalsByWallet[wallet].blockNumber = payment.blockNumber;\n        proposalsByWallet[wallet].timeout = block.timestamp.add(configuration.settlementChallengeTimeout());\n        proposalsByWallet[wallet].status = SettlementTypesLib.ProposalStatus.Qualified;\n        proposalsByWallet[wallet].currencies.length = 0;\n        proposalsByWallet[wallet].currencies.push(payment.currency);\n        proposalsByWallet[wallet].stageAmounts.length = 0;\n        proposalsByWallet[wallet].stageAmounts.push(stageAmount);\n        proposalsByWallet[wallet].targetBalanceAmounts.length = 0;\n        proposalsByWallet[wallet].targetBalanceAmounts.push(balanceAmount.sub(stageAmount));\n        //        proposalsByWallet[wallet].driipOperatorHash = payment.seals.operator.hash;\n        proposalsByWallet[wallet].driipType = NahmiiTypesLib.DriipType.Payment;\n        proposalsByWallet[wallet].driipIndex = challengedPaymentHashesByWallet[wallet].length.sub(1);\n        proposalsByWallet[wallet].balanceReward = balanceReward;\n    }\n\n    function proposalCurrencyIndex(address wallet, MonetaryTypesLib.Currency currency)\n    private\n    view\n    returns (uint256)\n    {\n        for (uint256 i = 0; i < proposalsByWallet[wallet].currencies.length; i++) {\n            if (\n                proposalsByWallet[wallet].currencies[i].ct == currency.ct &&\n                proposalsByWallet[wallet].currencies[i].id == currency.id\n            )\n                return i;\n        }\n        require(false);\n    }\n\n    //\n    // Modifiers\n    // -----------------------------------------------------------------------------------------------------------------\n    modifier onlyDriipSettlementDispute() {\n        require(msg.sender == address(driipSettlementDispute));\n        _;\n    }\n}\n",
  "sourcePath": "/home/liam/hubii/nahmii-contracts/contracts/DriipSettlementChallenge.sol",
  "compiler": {
    "name": "solc",
    "version": "0.4.24+commit.e67f0147.Emscripten.clang"
  },
  "schemaVersion": "2.0.0",
  "updatedAt": "2018-11-13T07:16:38.816Z"
}