{
    "contractName": "DriipSettlement",
    "abi": [
        {
            "constant": false,
            "inputs": [
                {
                    "name": "newOperator",
                    "type": "address"
                }
            ],
            "name": "changeOperator",
            "outputs": [],
            "payable": false,
            "stateMutability": "nonpayable",
            "type": "function"
        },
        {
            "constant": true,
            "inputs": [
                {
                    "name": "",
                    "type": "uint256"
                }
            ],
            "name": "settlements",
            "outputs": [
                {
                    "name": "nonce",
                    "type": "uint256"
                },
                {
                    "name": "driipType",
                    "type": "uint8"
                },
                {
                    "components": [
                        {
                            "name": "nonce",
                            "type": "uint256"
                        },
                        {
                            "name": "wallet",
                            "type": "address"
                        },
                        {
                            "name": "done",
                            "type": "bool"
                        }
                    ],
                    "name": "origin",
                    "type": "tuple"
                },
                {
                    "components": [
                        {
                            "name": "nonce",
                            "type": "uint256"
                        },
                        {
                            "name": "wallet",
                            "type": "address"
                        },
                        {
                            "name": "done",
                            "type": "bool"
                        }
                    ],
                    "name": "target",
                    "type": "tuple"
                }
            ],
            "payable": false,
            "stateMutability": "view",
            "type": "function"
        },
        {
            "constant": false,
            "inputs": [],
            "name": "disableUpdateOfCommunityVote",
            "outputs": [],
            "payable": false,
            "stateMutability": "nonpayable",
            "type": "function"
        },
        {
            "constant": false,
            "inputs": [
                {
                    "name": "newAddress",
                    "type": "address"
                }
            ],
            "name": "changeClientFund",
            "outputs": [],
            "payable": false,
            "stateMutability": "nonpayable",
            "type": "function"
        },
        {
            "constant": true,
            "inputs": [],
            "name": "validator",
            "outputs": [
                {
                    "name": "",
                    "type": "address"
                }
            ],
            "payable": false,
            "stateMutability": "view",
            "type": "function"
        },
        {
            "constant": true,
            "inputs": [],
            "name": "fraudChallenge",
            "outputs": [
                {
                    "name": "",
                    "type": "address"
                }
            ],
            "payable": false,
            "stateMutability": "view",
            "type": "function"
        },
        {
            "constant": true,
            "inputs": [],
            "name": "destructor",
            "outputs": [
                {
                    "name": "",
                    "type": "address"
                }
            ],
            "payable": false,
            "stateMutability": "view",
            "type": "function"
        },
        {
            "constant": true,
            "inputs": [],
            "name": "operator",
            "outputs": [
                {
                    "name": "",
                    "type": "address"
                }
            ],
            "payable": false,
            "stateMutability": "view",
            "type": "function"
        },
        {
            "constant": true,
            "inputs": [],
            "name": "configuration",
            "outputs": [
                {
                    "name": "",
                    "type": "address"
                }
            ],
            "payable": false,
            "stateMutability": "view",
            "type": "function"
        },
        {
            "constant": true,
            "inputs": [
                {
                    "name": "",
                    "type": "address"
                }
            ],
            "name": "seizedWalletsMap",
            "outputs": [
                {
                    "name": "",
                    "type": "bool"
                }
            ],
            "payable": false,
            "stateMutability": "view",
            "type": "function"
        },
        {
            "constant": false,
            "inputs": [
                {
                    "name": "newConfiguration",
                    "type": "address"
                }
            ],
            "name": "changeConfiguration",
            "outputs": [],
            "payable": false,
            "stateMutability": "nonpayable",
            "type": "function"
        },
        {
            "constant": true,
            "inputs": [],
            "name": "maxDriipNonce",
            "outputs": [
                {
                    "name": "",
                    "type": "uint256"
                }
            ],
            "payable": false,
            "stateMutability": "view",
            "type": "function"
        },
        {
            "constant": true,
            "inputs": [
                {
                    "name": "",
                    "type": "address"
                },
                {
                    "name": "",
                    "type": "uint256"
                }
            ],
            "name": "walletSettlementIndices",
            "outputs": [
                {
                    "name": "",
                    "type": "uint256"
                }
            ],
            "payable": false,
            "stateMutability": "view",
            "type": "function"
        },
        {
            "constant": false,
            "inputs": [],
            "name": "triggerDestroy",
            "outputs": [],
            "payable": false,
            "stateMutability": "nonpayable",
            "type": "function"
        },
        {
            "constant": true,
            "inputs": [
                {
                    "name": "",
                    "type": "uint256"
                }
            ],
            "name": "nonceSettlementIndex",
            "outputs": [
                {
                    "name": "",
                    "type": "uint256"
                }
            ],
            "payable": false,
            "stateMutability": "view",
            "type": "function"
        },
        {
            "constant": true,
            "inputs": [
                {
                    "name": "",
                    "type": "address"
                },
                {
                    "name": "",
                    "type": "address"
                },
                {
                    "name": "",
                    "type": "uint256"
                }
            ],
            "name": "walletCurrencyFeeNonce",
            "outputs": [
                {
                    "name": "",
                    "type": "uint256"
                }
            ],
            "payable": false,
            "stateMutability": "view",
            "type": "function"
        },
        {
            "constant": true,
            "inputs": [],
            "name": "paymentsRevenueFund",
            "outputs": [
                {
                    "name": "",
                    "type": "address"
                }
            ],
            "payable": false,
            "stateMutability": "view",
            "type": "function"
        },
        {
            "constant": false,
            "inputs": [
                {
                    "name": "newCommunityVote",
                    "type": "address"
                }
            ],
            "name": "changeCommunityVote",
            "outputs": [],
            "payable": false,
            "stateMutability": "nonpayable",
            "type": "function"
        },
        {
            "constant": true,
            "inputs": [
                {
                    "name": "",
                    "type": "uint256"
                }
            ],
            "name": "seizedWallets",
            "outputs": [
                {
                    "name": "",
                    "type": "address"
                }
            ],
            "payable": false,
            "stateMutability": "view",
            "type": "function"
        },
        {
            "constant": true,
            "inputs": [],
            "name": "communityVote",
            "outputs": [
                {
                    "name": "",
                    "type": "address"
                }
            ],
            "payable": false,
            "stateMutability": "view",
            "type": "function"
        },
        {
            "constant": true,
            "inputs": [],
            "name": "tradesRevenueFund",
            "outputs": [
                {
                    "name": "",
                    "type": "address"
                }
            ],
            "payable": false,
            "stateMutability": "view",
            "type": "function"
        },
        {
            "constant": true,
            "inputs": [],
            "name": "communityVoteUpdateDisabled",
            "outputs": [
                {
                    "name": "",
                    "type": "bool"
                }
            ],
            "payable": false,
            "stateMutability": "view",
            "type": "function"
        },
        {
            "constant": true,
            "inputs": [],
            "name": "deployer",
            "outputs": [
                {
                    "name": "",
                    "type": "address"
                }
            ],
            "payable": false,
            "stateMutability": "view",
            "type": "function"
        },
        {
            "constant": true,
            "inputs": [
                {
                    "name": "",
                    "type": "address"
                },
                {
                    "name": "",
                    "type": "uint256"
                }
            ],
            "name": "walletNonceSettlementIndex",
            "outputs": [
                {
                    "name": "",
                    "type": "uint256"
                }
            ],
            "payable": false,
            "stateMutability": "view",
            "type": "function"
        },
        {
            "constant": true,
            "inputs": [
                {
                    "name": "",
                    "type": "address"
                },
                {
                    "name": "",
                    "type": "address"
                },
                {
                    "name": "",
                    "type": "uint256"
                }
            ],
            "name": "walletCurrencyMaxDriipNonce",
            "outputs": [
                {
                    "name": "",
                    "type": "uint256"
                }
            ],
            "payable": false,
            "stateMutability": "view",
            "type": "function"
        },
        {
            "constant": true,
            "inputs": [
                {
                    "name": "",
                    "type": "address"
                },
                {
                    "name": "",
                    "type": "address"
                },
                {
                    "name": "",
                    "type": "uint256"
                }
            ],
            "name": "walletCurrencyFeeCharged",
            "outputs": [
                {
                    "name": "",
                    "type": "int256"
                }
            ],
            "payable": false,
            "stateMutability": "view",
            "type": "function"
        },
        {
            "constant": false,
            "inputs": [
                {
                    "name": "newDeployer",
                    "type": "address"
                }
            ],
            "name": "changeDeployer",
            "outputs": [],
            "payable": false,
            "stateMutability": "nonpayable",
            "type": "function"
        },
        {
            "constant": true,
            "inputs": [],
            "name": "clientFund",
            "outputs": [
                {
                    "name": "",
                    "type": "address"
                }
            ],
            "payable": false,
            "stateMutability": "view",
            "type": "function"
        },
        {
            "constant": false,
            "inputs": [
                {
                    "name": "newFraudChallenge",
                    "type": "address"
                }
            ],
            "name": "changeFraudChallenge",
            "outputs": [],
            "payable": false,
            "stateMutability": "nonpayable",
            "type": "function"
        },
        {
            "constant": false,
            "inputs": [
                {
                    "name": "newAddress",
                    "type": "address"
                }
            ],
            "name": "changeValidator",
            "outputs": [],
            "payable": false,
            "stateMutability": "nonpayable",
            "type": "function"
        },
        {
            "constant": true,
            "inputs": [],
            "name": "driipSettlementChallenge",
            "outputs": [
                {
                    "name": "",
                    "type": "address"
                }
            ],
            "payable": false,
            "stateMutability": "view",
            "type": "function"
        },
        {
            "inputs": [
                {
                    "name": "deployer",
                    "type": "address"
                }
            ],
            "payable": false,
            "stateMutability": "nonpayable",
            "type": "constructor"
        },
        {
            "anonymous": false,
            "inputs": [
                {
                    "indexed": false,
                    "name": "wallet",
                    "type": "address"
                },
                {
                    "components": [
                        {
                            "name": "nonce",
                            "type": "uint256"
                        },
                        {
                            "name": "amount",
                            "type": "int256"
                        },
                        {
                            "components": [
                                {
                                    "components": [
                                        {
                                            "name": "ct",
                                            "type": "address"
                                        },
                                        {
                                            "name": "id",
                                            "type": "uint256"
                                        }
                                    ],
                                    "name": "intended",
                                    "type": "tuple"
                                },
                                {
                                    "components": [
                                        {
                                            "name": "ct",
                                            "type": "address"
                                        },
                                        {
                                            "name": "id",
                                            "type": "uint256"
                                        }
                                    ],
                                    "name": "conjugate",
                                    "type": "tuple"
                                }
                            ],
                            "name": "currencies",
                            "type": "tuple"
                        },
                        {
                            "name": "rate",
                            "type": "int256"
                        },
                        {
                            "components": [
                                {
                                    "name": "nonce",
                                    "type": "uint256"
                                },
                                {
                                    "name": "wallet",
                                    "type": "address"
                                },
                                {
                                    "name": "rollingVolume",
                                    "type": "uint256"
                                },
                                {
                                    "name": "liquidityRole",
                                    "type": "uint8"
                                },
                                {
                                    "components": [
                                        {
                                            "name": "amount",
                                            "type": "int256"
                                        },
                                        {
                                            "components": [
                                                {
                                                    "name": "wallet",
                                                    "type": "bytes32"
                                                },
                                                {
                                                    "name": "operator",
                                                    "type": "bytes32"
                                                }
                                            ],
                                            "name": "hashes",
                                            "type": "tuple"
                                        },
                                        {
                                            "components": [
                                                {
                                                    "name": "current",
                                                    "type": "int256"
                                                },
                                                {
                                                    "name": "previous",
                                                    "type": "int256"
                                                }
                                            ],
                                            "name": "residuals",
                                            "type": "tuple"
                                        }
                                    ],
                                    "name": "order",
                                    "type": "tuple"
                                },
                                {
                                    "components": [
                                        {
                                            "components": [
                                                {
                                                    "name": "current",
                                                    "type": "int256"
                                                },
                                                {
                                                    "name": "previous",
                                                    "type": "int256"
                                                }
                                            ],
                                            "name": "intended",
                                            "type": "tuple"
                                        },
                                        {
                                            "components": [
                                                {
                                                    "name": "current",
                                                    "type": "int256"
                                                },
                                                {
                                                    "name": "previous",
                                                    "type": "int256"
                                                }
                                            ],
                                            "name": "conjugate",
                                            "type": "tuple"
                                        }
                                    ],
                                    "name": "balances",
                                    "type": "tuple"
                                },
                                {
                                    "components": [
                                        {
                                            "components": [
                                                {
                                                    "name": "amount",
                                                    "type": "int256"
                                                },
                                                {
                                                    "components": [
                                                        {
                                                            "name": "ct",
                                                            "type": "address"
                                                        },
                                                        {
                                                            "name": "id",
                                                            "type": "uint256"
                                                        }
                                                    ],
                                                    "name": "currency",
                                                    "type": "tuple"
                                                }
                                            ],
                                            "name": "single",
                                            "type": "tuple"
                                        },
                                        {
                                            "components": [
                                                {
                                                    "name": "amount",
                                                    "type": "int256"
                                                },
                                                {
                                                    "components": [
                                                        {
                                                            "name": "ct",
                                                            "type": "address"
                                                        },
                                                        {
                                                            "name": "id",
                                                            "type": "uint256"
                                                        }
                                                    ],
                                                    "name": "currency",
                                                    "type": "tuple"
                                                }
                                            ],
                                            "name": "total",
                                            "type": "tuple[]"
                                        }
                                    ],
                                    "name": "fees",
                                    "type": "tuple"
                                }
                            ],
                            "name": "buyer",
                            "type": "tuple"
                        },
                        {
                            "components": [
                                {
                                    "name": "nonce",
                                    "type": "uint256"
                                },
                                {
                                    "name": "wallet",
                                    "type": "address"
                                },
                                {
                                    "name": "rollingVolume",
                                    "type": "uint256"
                                },
                                {
                                    "name": "liquidityRole",
                                    "type": "uint8"
                                },
                                {
                                    "components": [
                                        {
                                            "name": "amount",
                                            "type": "int256"
                                        },
                                        {
                                            "components": [
                                                {
                                                    "name": "wallet",
                                                    "type": "bytes32"
                                                },
                                                {
                                                    "name": "operator",
                                                    "type": "bytes32"
                                                }
                                            ],
                                            "name": "hashes",
                                            "type": "tuple"
                                        },
                                        {
                                            "components": [
                                                {
                                                    "name": "current",
                                                    "type": "int256"
                                                },
                                                {
                                                    "name": "previous",
                                                    "type": "int256"
                                                }
                                            ],
                                            "name": "residuals",
                                            "type": "tuple"
                                        }
                                    ],
                                    "name": "order",
                                    "type": "tuple"
                                },
                                {
                                    "components": [
                                        {
                                            "components": [
                                                {
                                                    "name": "current",
                                                    "type": "int256"
                                                },
                                                {
                                                    "name": "previous",
                                                    "type": "int256"
                                                }
                                            ],
                                            "name": "intended",
                                            "type": "tuple"
                                        },
                                        {
                                            "components": [
                                                {
                                                    "name": "current",
                                                    "type": "int256"
                                                },
                                                {
                                                    "name": "previous",
                                                    "type": "int256"
                                                }
                                            ],
                                            "name": "conjugate",
                                            "type": "tuple"
                                        }
                                    ],
                                    "name": "balances",
                                    "type": "tuple"
                                },
                                {
                                    "components": [
                                        {
                                            "components": [
                                                {
                                                    "name": "amount",
                                                    "type": "int256"
                                                },
                                                {
                                                    "components": [
                                                        {
                                                            "name": "ct",
                                                            "type": "address"
                                                        },
                                                        {
                                                            "name": "id",
                                                            "type": "uint256"
                                                        }
                                                    ],
                                                    "name": "currency",
                                                    "type": "tuple"
                                                }
                                            ],
                                            "name": "single",
                                            "type": "tuple"
                                        },
                                        {
                                            "components": [
                                                {
                                                    "name": "amount",
                                                    "type": "int256"
                                                },
                                                {
                                                    "components": [
                                                        {
                                                            "name": "ct",
                                                            "type": "address"
                                                        },
                                                        {
                                                            "name": "id",
                                                            "type": "uint256"
                                                        }
                                                    ],
                                                    "name": "currency",
                                                    "type": "tuple"
                                                }
                                            ],
                                            "name": "total",
                                            "type": "tuple[]"
                                        }
                                    ],
                                    "name": "fees",
                                    "type": "tuple"
                                }
                            ],
                            "name": "seller",
                            "type": "tuple"
                        },
                        {
                            "components": [
                                {
                                    "components": [
                                        {
                                            "name": "single",
                                            "type": "int256"
                                        },
                                        {
                                            "name": "total",
                                            "type": "int256"
                                        }
                                    ],
                                    "name": "intended",
                                    "type": "tuple"
                                },
                                {
                                    "components": [
                                        {
                                            "name": "single",
                                            "type": "int256"
                                        },
                                        {
                                            "name": "total",
                                            "type": "int256"
                                        }
                                    ],
                                    "name": "conjugate",
                                    "type": "tuple"
                                }
                            ],
                            "name": "transfers",
                            "type": "tuple"
                        },
                        {
                            "components": [
                                {
                                    "name": "hash",
                                    "type": "bytes32"
                                },
                                {
                                    "components": [
                                        {
                                            "name": "r",
                                            "type": "bytes32"
                                        },
                                        {
                                            "name": "s",
                                            "type": "bytes32"
                                        },
                                        {
                                            "name": "v",
                                            "type": "uint8"
                                        }
                                    ],
                                    "name": "signature",
                                    "type": "tuple"
                                }
                            ],
                            "name": "seal",
                            "type": "tuple"
                        },
                        {
                            "name": "blockNumber",
                            "type": "uint256"
                        },
                        {
                            "name": "operatorId",
                            "type": "uint256"
                        }
                    ],
                    "indexed": false,
                    "name": "trade",
                    "type": "tuple"
                },
                {
                    "indexed": false,
                    "name": "proposalStatus",
                    "type": "uint8"
                }
            ],
            "name": "SettleTradeEvent",
            "type": "event"
        },
        {
            "anonymous": false,
            "inputs": [
                {
                    "indexed": false,
                    "name": "proxy",
                    "type": "address"
                },
                {
                    "indexed": false,
                    "name": "wallet",
                    "type": "address"
                },
                {
                    "components": [
                        {
                            "name": "nonce",
                            "type": "uint256"
                        },
                        {
                            "name": "amount",
                            "type": "int256"
                        },
                        {
                            "components": [
                                {
                                    "components": [
                                        {
                                            "name": "ct",
                                            "type": "address"
                                        },
                                        {
                                            "name": "id",
                                            "type": "uint256"
                                        }
                                    ],
                                    "name": "intended",
                                    "type": "tuple"
                                },
                                {
                                    "components": [
                                        {
                                            "name": "ct",
                                            "type": "address"
                                        },
                                        {
                                            "name": "id",
                                            "type": "uint256"
                                        }
                                    ],
                                    "name": "conjugate",
                                    "type": "tuple"
                                }
                            ],
                            "name": "currencies",
                            "type": "tuple"
                        },
                        {
                            "name": "rate",
                            "type": "int256"
                        },
                        {
                            "components": [
                                {
                                    "name": "nonce",
                                    "type": "uint256"
                                },
                                {
                                    "name": "wallet",
                                    "type": "address"
                                },
                                {
                                    "name": "rollingVolume",
                                    "type": "uint256"
                                },
                                {
                                    "name": "liquidityRole",
                                    "type": "uint8"
                                },
                                {
                                    "components": [
                                        {
                                            "name": "amount",
                                            "type": "int256"
                                        },
                                        {
                                            "components": [
                                                {
                                                    "name": "wallet",
                                                    "type": "bytes32"
                                                },
                                                {
                                                    "name": "operator",
                                                    "type": "bytes32"
                                                }
                                            ],
                                            "name": "hashes",
                                            "type": "tuple"
                                        },
                                        {
                                            "components": [
                                                {
                                                    "name": "current",
                                                    "type": "int256"
                                                },
                                                {
                                                    "name": "previous",
                                                    "type": "int256"
                                                }
                                            ],
                                            "name": "residuals",
                                            "type": "tuple"
                                        }
                                    ],
                                    "name": "order",
                                    "type": "tuple"
                                },
                                {
                                    "components": [
                                        {
                                            "components": [
                                                {
                                                    "name": "current",
                                                    "type": "int256"
                                                },
                                                {
                                                    "name": "previous",
                                                    "type": "int256"
                                                }
                                            ],
                                            "name": "intended",
                                            "type": "tuple"
                                        },
                                        {
                                            "components": [
                                                {
                                                    "name": "current",
                                                    "type": "int256"
                                                },
                                                {
                                                    "name": "previous",
                                                    "type": "int256"
                                                }
                                            ],
                                            "name": "conjugate",
                                            "type": "tuple"
                                        }
                                    ],
                                    "name": "balances",
                                    "type": "tuple"
                                },
                                {
                                    "components": [
                                        {
                                            "components": [
                                                {
                                                    "name": "amount",
                                                    "type": "int256"
                                                },
                                                {
                                                    "components": [
                                                        {
                                                            "name": "ct",
                                                            "type": "address"
                                                        },
                                                        {
                                                            "name": "id",
                                                            "type": "uint256"
                                                        }
                                                    ],
                                                    "name": "currency",
                                                    "type": "tuple"
                                                }
                                            ],
                                            "name": "single",
                                            "type": "tuple"
                                        },
                                        {
                                            "components": [
                                                {
                                                    "name": "amount",
                                                    "type": "int256"
                                                },
                                                {
                                                    "components": [
                                                        {
                                                            "name": "ct",
                                                            "type": "address"
                                                        },
                                                        {
                                                            "name": "id",
                                                            "type": "uint256"
                                                        }
                                                    ],
                                                    "name": "currency",
                                                    "type": "tuple"
                                                }
                                            ],
                                            "name": "total",
                                            "type": "tuple[]"
                                        }
                                    ],
                                    "name": "fees",
                                    "type": "tuple"
                                }
                            ],
                            "name": "buyer",
                            "type": "tuple"
                        },
                        {
                            "components": [
                                {
                                    "name": "nonce",
                                    "type": "uint256"
                                },
                                {
                                    "name": "wallet",
                                    "type": "address"
                                },
                                {
                                    "name": "rollingVolume",
                                    "type": "uint256"
                                },
                                {
                                    "name": "liquidityRole",
                                    "type": "uint8"
                                },
                                {
                                    "components": [
                                        {
                                            "name": "amount",
                                            "type": "int256"
                                        },
                                        {
                                            "components": [
                                                {
                                                    "name": "wallet",
                                                    "type": "bytes32"
                                                },
                                                {
                                                    "name": "operator",
                                                    "type": "bytes32"
                                                }
                                            ],
                                            "name": "hashes",
                                            "type": "tuple"
                                        },
                                        {
                                            "components": [
                                                {
                                                    "name": "current",
                                                    "type": "int256"
                                                },
                                                {
                                                    "name": "previous",
                                                    "type": "int256"
                                                }
                                            ],
                                            "name": "residuals",
                                            "type": "tuple"
                                        }
                                    ],
                                    "name": "order",
                                    "type": "tuple"
                                },
                                {
                                    "components": [
                                        {
                                            "components": [
                                                {
                                                    "name": "current",
                                                    "type": "int256"
                                                },
                                                {
                                                    "name": "previous",
                                                    "type": "int256"
                                                }
                                            ],
                                            "name": "intended",
                                            "type": "tuple"
                                        },
                                        {
                                            "components": [
                                                {
                                                    "name": "current",
                                                    "type": "int256"
                                                },
                                                {
                                                    "name": "previous",
                                                    "type": "int256"
                                                }
                                            ],
                                            "name": "conjugate",
                                            "type": "tuple"
                                        }
                                    ],
                                    "name": "balances",
                                    "type": "tuple"
                                },
                                {
                                    "components": [
                                        {
                                            "components": [
                                                {
                                                    "name": "amount",
                                                    "type": "int256"
                                                },
                                                {
                                                    "components": [
                                                        {
                                                            "name": "ct",
                                                            "type": "address"
                                                        },
                                                        {
                                                            "name": "id",
                                                            "type": "uint256"
                                                        }
                                                    ],
                                                    "name": "currency",
                                                    "type": "tuple"
                                                }
                                            ],
                                            "name": "single",
                                            "type": "tuple"
                                        },
                                        {
                                            "components": [
                                                {
                                                    "name": "amount",
                                                    "type": "int256"
                                                },
                                                {
                                                    "components": [
                                                        {
                                                            "name": "ct",
                                                            "type": "address"
                                                        },
                                                        {
                                                            "name": "id",
                                                            "type": "uint256"
                                                        }
                                                    ],
                                                    "name": "currency",
                                                    "type": "tuple"
                                                }
                                            ],
                                            "name": "total",
                                            "type": "tuple[]"
                                        }
                                    ],
                                    "name": "fees",
                                    "type": "tuple"
                                }
                            ],
                            "name": "seller",
                            "type": "tuple"
                        },
                        {
                            "components": [
                                {
                                    "components": [
                                        {
                                            "name": "single",
                                            "type": "int256"
                                        },
                                        {
                                            "name": "total",
                                            "type": "int256"
                                        }
                                    ],
                                    "name": "intended",
                                    "type": "tuple"
                                },
                                {
                                    "components": [
                                        {
                                            "name": "single",
                                            "type": "int256"
                                        },
                                        {
                                            "name": "total",
                                            "type": "int256"
                                        }
                                    ],
                                    "name": "conjugate",
                                    "type": "tuple"
                                }
                            ],
                            "name": "transfers",
                            "type": "tuple"
                        },
                        {
                            "components": [
                                {
                                    "name": "hash",
                                    "type": "bytes32"
                                },
                                {
                                    "components": [
                                        {
                                            "name": "r",
                                            "type": "bytes32"
                                        },
                                        {
                                            "name": "s",
                                            "type": "bytes32"
                                        },
                                        {
                                            "name": "v",
                                            "type": "uint8"
                                        }
                                    ],
                                    "name": "signature",
                                    "type": "tuple"
                                }
                            ],
                            "name": "seal",
                            "type": "tuple"
                        },
                        {
                            "name": "blockNumber",
                            "type": "uint256"
                        },
                        {
                            "name": "operatorId",
                            "type": "uint256"
                        }
                    ],
                    "indexed": false,
                    "name": "trade",
                    "type": "tuple"
                },
                {
                    "indexed": false,
                    "name": "proposalStatus",
                    "type": "uint8"
                }
            ],
            "name": "SettleTradeByProxyEvent",
            "type": "event"
        },
        {
            "anonymous": false,
            "inputs": [
                {
                    "indexed": false,
                    "name": "wallet",
                    "type": "address"
                },
                {
                    "components": [
                        {
                            "name": "nonce",
                            "type": "uint256"
                        },
                        {
                            "name": "amount",
                            "type": "int256"
                        },
                        {
                            "components": [
                                {
                                    "name": "ct",
                                    "type": "address"
                                },
                                {
                                    "name": "id",
                                    "type": "uint256"
                                }
                            ],
                            "name": "currency",
                            "type": "tuple"
                        },
                        {
                            "components": [
                                {
                                    "name": "nonce",
                                    "type": "uint256"
                                },
                                {
                                    "name": "wallet",
                                    "type": "address"
                                },
                                {
                                    "components": [
                                        {
                                            "name": "current",
                                            "type": "int256"
                                        },
                                        {
                                            "name": "previous",
                                            "type": "int256"
                                        }
                                    ],
                                    "name": "balances",
                                    "type": "tuple"
                                },
                                {
                                    "components": [
                                        {
                                            "components": [
                                                {
                                                    "name": "amount",
                                                    "type": "int256"
                                                },
                                                {
                                                    "components": [
                                                        {
                                                            "name": "ct",
                                                            "type": "address"
                                                        },
                                                        {
                                                            "name": "id",
                                                            "type": "uint256"
                                                        }
                                                    ],
                                                    "name": "currency",
                                                    "type": "tuple"
                                                }
                                            ],
                                            "name": "single",
                                            "type": "tuple"
                                        },
                                        {
                                            "components": [
                                                {
                                                    "name": "amount",
                                                    "type": "int256"
                                                },
                                                {
                                                    "components": [
                                                        {
                                                            "name": "ct",
                                                            "type": "address"
                                                        },
                                                        {
                                                            "name": "id",
                                                            "type": "uint256"
                                                        }
                                                    ],
                                                    "name": "currency",
                                                    "type": "tuple"
                                                }
                                            ],
                                            "name": "total",
                                            "type": "tuple[]"
                                        }
                                    ],
                                    "name": "fees",
                                    "type": "tuple"
                                }
                            ],
                            "name": "sender",
                            "type": "tuple"
                        },
                        {
                            "components": [
                                {
                                    "name": "nonce",
                                    "type": "uint256"
                                },
                                {
                                    "name": "wallet",
                                    "type": "address"
                                },
                                {
                                    "components": [
                                        {
                                            "name": "current",
                                            "type": "int256"
                                        },
                                        {
                                            "name": "previous",
                                            "type": "int256"
                                        }
                                    ],
                                    "name": "balances",
                                    "type": "tuple"
                                },
                                {
                                    "components": [
                                        {
                                            "components": [
                                                {
                                                    "name": "amount",
                                                    "type": "int256"
                                                },
                                                {
                                                    "components": [
                                                        {
                                                            "name": "ct",
                                                            "type": "address"
                                                        },
                                                        {
                                                            "name": "id",
                                                            "type": "uint256"
                                                        }
                                                    ],
                                                    "name": "currency",
                                                    "type": "tuple"
                                                }
                                            ],
                                            "name": "total",
                                            "type": "tuple[]"
                                        }
                                    ],
                                    "name": "fees",
                                    "type": "tuple"
                                }
                            ],
                            "name": "recipient",
                            "type": "tuple"
                        },
                        {
                            "components": [
                                {
                                    "name": "single",
                                    "type": "int256"
                                },
                                {
                                    "name": "total",
                                    "type": "int256"
                                }
                            ],
                            "name": "transfers",
                            "type": "tuple"
                        },
                        {
                            "components": [
                                {
                                    "components": [
                                        {
                                            "name": "hash",
                                            "type": "bytes32"
                                        },
                                        {
                                            "components": [
                                                {
                                                    "name": "r",
                                                    "type": "bytes32"
                                                },
                                                {
                                                    "name": "s",
                                                    "type": "bytes32"
                                                },
                                                {
                                                    "name": "v",
                                                    "type": "uint8"
                                                }
                                            ],
                                            "name": "signature",
                                            "type": "tuple"
                                        }
                                    ],
                                    "name": "wallet",
                                    "type": "tuple"
                                },
                                {
                                    "components": [
                                        {
                                            "name": "hash",
                                            "type": "bytes32"
                                        },
                                        {
                                            "components": [
                                                {
                                                    "name": "r",
                                                    "type": "bytes32"
                                                },
                                                {
                                                    "name": "s",
                                                    "type": "bytes32"
                                                },
                                                {
                                                    "name": "v",
                                                    "type": "uint8"
                                                }
                                            ],
                                            "name": "signature",
                                            "type": "tuple"
                                        }
                                    ],
                                    "name": "operator",
                                    "type": "tuple"
                                }
                            ],
                            "name": "seals",
                            "type": "tuple"
                        },
                        {
                            "name": "blockNumber",
                            "type": "uint256"
                        },
                        {
                            "name": "operatorId",
                            "type": "uint256"
                        }
                    ],
                    "indexed": false,
                    "name": "payment",
                    "type": "tuple"
                },
                {
                    "indexed": false,
                    "name": "proposalStatus",
                    "type": "uint8"
                }
            ],
            "name": "SettlePaymentEvent",
            "type": "event"
        },
        {
            "anonymous": false,
            "inputs": [
                {
                    "indexed": false,
                    "name": "proxy",
                    "type": "address"
                },
                {
                    "indexed": false,
                    "name": "wallet",
                    "type": "address"
                },
                {
                    "components": [
                        {
                            "name": "nonce",
                            "type": "uint256"
                        },
                        {
                            "name": "amount",
                            "type": "int256"
                        },
                        {
                            "components": [
                                {
                                    "name": "ct",
                                    "type": "address"
                                },
                                {
                                    "name": "id",
                                    "type": "uint256"
                                }
                            ],
                            "name": "currency",
                            "type": "tuple"
                        },
                        {
                            "components": [
                                {
                                    "name": "nonce",
                                    "type": "uint256"
                                },
                                {
                                    "name": "wallet",
                                    "type": "address"
                                },
                                {
                                    "components": [
                                        {
                                            "name": "current",
                                            "type": "int256"
                                        },
                                        {
                                            "name": "previous",
                                            "type": "int256"
                                        }
                                    ],
                                    "name": "balances",
                                    "type": "tuple"
                                },
                                {
                                    "components": [
                                        {
                                            "components": [
                                                {
                                                    "name": "amount",
                                                    "type": "int256"
                                                },
                                                {
                                                    "components": [
                                                        {
                                                            "name": "ct",
                                                            "type": "address"
                                                        },
                                                        {
                                                            "name": "id",
                                                            "type": "uint256"
                                                        }
                                                    ],
                                                    "name": "currency",
                                                    "type": "tuple"
                                                }
                                            ],
                                            "name": "single",
                                            "type": "tuple"
                                        },
                                        {
                                            "components": [
                                                {
                                                    "name": "amount",
                                                    "type": "int256"
                                                },
                                                {
                                                    "components": [
                                                        {
                                                            "name": "ct",
                                                            "type": "address"
                                                        },
                                                        {
                                                            "name": "id",
                                                            "type": "uint256"
                                                        }
                                                    ],
                                                    "name": "currency",
                                                    "type": "tuple"
                                                }
                                            ],
                                            "name": "total",
                                            "type": "tuple[]"
                                        }
                                    ],
                                    "name": "fees",
                                    "type": "tuple"
                                }
                            ],
                            "name": "sender",
                            "type": "tuple"
                        },
                        {
                            "components": [
                                {
                                    "name": "nonce",
                                    "type": "uint256"
                                },
                                {
                                    "name": "wallet",
                                    "type": "address"
                                },
                                {
                                    "components": [
                                        {
                                            "name": "current",
                                            "type": "int256"
                                        },
                                        {
                                            "name": "previous",
                                            "type": "int256"
                                        }
                                    ],
                                    "name": "balances",
                                    "type": "tuple"
                                },
                                {
                                    "components": [
                                        {
                                            "components": [
                                                {
                                                    "name": "amount",
                                                    "type": "int256"
                                                },
                                                {
                                                    "components": [
                                                        {
                                                            "name": "ct",
                                                            "type": "address"
                                                        },
                                                        {
                                                            "name": "id",
                                                            "type": "uint256"
                                                        }
                                                    ],
                                                    "name": "currency",
                                                    "type": "tuple"
                                                }
                                            ],
                                            "name": "total",
                                            "type": "tuple[]"
                                        }
                                    ],
                                    "name": "fees",
                                    "type": "tuple"
                                }
                            ],
                            "name": "recipient",
                            "type": "tuple"
                        },
                        {
                            "components": [
                                {
                                    "name": "single",
                                    "type": "int256"
                                },
                                {
                                    "name": "total",
                                    "type": "int256"
                                }
                            ],
                            "name": "transfers",
                            "type": "tuple"
                        },
                        {
                            "components": [
                                {
                                    "components": [
                                        {
                                            "name": "hash",
                                            "type": "bytes32"
                                        },
                                        {
                                            "components": [
                                                {
                                                    "name": "r",
                                                    "type": "bytes32"
                                                },
                                                {
                                                    "name": "s",
                                                    "type": "bytes32"
                                                },
                                                {
                                                    "name": "v",
                                                    "type": "uint8"
                                                }
                                            ],
                                            "name": "signature",
                                            "type": "tuple"
                                        }
                                    ],
                                    "name": "wallet",
                                    "type": "tuple"
                                },
                                {
                                    "components": [
                                        {
                                            "name": "hash",
                                            "type": "bytes32"
                                        },
                                        {
                                            "components": [
                                                {
                                                    "name": "r",
                                                    "type": "bytes32"
                                                },
                                                {
                                                    "name": "s",
                                                    "type": "bytes32"
                                                },
                                                {
                                                    "name": "v",
                                                    "type": "uint8"
                                                }
                                            ],
                                            "name": "signature",
                                            "type": "tuple"
                                        }
                                    ],
                                    "name": "operator",
                                    "type": "tuple"
                                }
                            ],
                            "name": "seals",
                            "type": "tuple"
                        },
                        {
                            "name": "blockNumber",
                            "type": "uint256"
                        },
                        {
                            "name": "operatorId",
                            "type": "uint256"
                        }
                    ],
                    "indexed": false,
                    "name": "payment",
                    "type": "tuple"
                },
                {
                    "indexed": false,
                    "name": "proposalStatus",
                    "type": "uint8"
                }
            ],
            "name": "SettlePaymentByProxyEvent",
            "type": "event"
        },
        {
            "anonymous": false,
            "inputs": [
                {
                    "indexed": false,
                    "name": "oldDriipSettlementChallenge",
                    "type": "address"
                },
                {
                    "indexed": false,
                    "name": "newDriipSettlementChallenge",
                    "type": "address"
                }
            ],
            "name": "ChangeDriipSettlementChallengeEvent",
            "type": "event"
        },
        {
            "anonymous": false,
            "inputs": [
                {
                    "indexed": false,
                    "name": "oldRevenueFund",
                    "type": "address"
                },
                {
                    "indexed": false,
                    "name": "newRevenueFund",
                    "type": "address"
                }
            ],
            "name": "ChangeTradesRevenueFundEvent",
            "type": "event"
        },
        {
            "anonymous": false,
            "inputs": [
                {
                    "indexed": false,
                    "name": "oldRevenueFund",
                    "type": "address"
                },
                {
                    "indexed": false,
                    "name": "newRevenueFund",
                    "type": "address"
                }
            ],
            "name": "ChangePaymentsRevenueFundEvent",
            "type": "event"
        },
        {
            "anonymous": false,
            "inputs": [
                {
                    "indexed": false,
                    "name": "wallet",
                    "type": "address"
                },
                {
                    "indexed": false,
                    "name": "deltaAmount",
                    "type": "int256"
                },
                {
                    "indexed": false,
                    "name": "cumulativeAmount",
                    "type": "int256"
                },
                {
                    "indexed": false,
                    "name": "currencyCt",
                    "type": "address"
                },
                {
                    "indexed": false,
                    "name": "currencyId",
                    "type": "uint256"
                }
            ],
            "name": "StageTotalFeeEvent",
            "type": "event"
        },
        {
            "anonymous": false,
            "inputs": [
                {
                    "indexed": false,
                    "name": "oldFraudChallenge",
                    "type": "address"
                },
                {
                    "indexed": false,
                    "name": "newFraudChallenge",
                    "type": "address"
                }
            ],
            "name": "ChangeFraudChallengeEvent",
            "type": "event"
        },
        {
            "anonymous": false,
            "inputs": [
                {
                    "indexed": false,
                    "name": "oldCommunityVote",
                    "type": "address"
                },
                {
                    "indexed": false,
                    "name": "newCommunityVote",
                    "type": "address"
                }
            ],
            "name": "ChangeCommunityVoteEvent",
            "type": "event"
        },
        {
            "anonymous": false,
            "inputs": [
                {
                    "indexed": false,
                    "name": "oldAddress",
                    "type": "address"
                },
                {
                    "indexed": false,
                    "name": "newAddress",
                    "type": "address"
                }
            ],
            "name": "ChangeClientFundEvent",
            "type": "event"
        },
        {
            "anonymous": false,
            "inputs": [
                {
                    "indexed": false,
                    "name": "oldAddress",
                    "type": "address"
                },
                {
                    "indexed": false,
                    "name": "newAddress",
                    "type": "address"
                }
            ],
            "name": "ChangeValidatorEvent",
            "type": "event"
        },
        {
            "anonymous": false,
            "inputs": [
                {
                    "indexed": false,
                    "name": "oldConfiguration",
                    "type": "address"
                },
                {
                    "indexed": false,
                    "name": "newConfiguration",
                    "type": "address"
                }
            ],
            "name": "ChangeConfigurationEvent",
            "type": "event"
        },
        {
            "anonymous": false,
            "inputs": [
                {
                    "indexed": false,
                    "name": "oldDeployer",
                    "type": "address"
                },
                {
                    "indexed": false,
                    "name": "newDeployer",
                    "type": "address"
                }
            ],
            "name": "ChangeDeployerEvent",
            "type": "event"
        },
        {
            "anonymous": false,
            "inputs": [
                {
                    "indexed": false,
                    "name": "oldOperator",
                    "type": "address"
                },
                {
                    "indexed": false,
                    "name": "newOperator",
                    "type": "address"
                }
            ],
            "name": "ChangeOperatorEvent",
            "type": "event"
        },
        {
            "constant": false,
            "inputs": [
                {
                    "name": "newDriipSettlementChallenge",
                    "type": "address"
                }
            ],
            "name": "changeDriipSettlementChallenge",
            "outputs": [],
            "payable": false,
            "stateMutability": "nonpayable",
            "type": "function"
        },
        {
            "constant": false,
            "inputs": [
                {
                    "name": "newTradesRevenueFund",
                    "type": "address"
                }
            ],
            "name": "changeTradesRevenueFund",
            "outputs": [],
            "payable": false,
            "stateMutability": "nonpayable",
            "type": "function"
        },
        {
            "constant": false,
            "inputs": [
                {
                    "name": "newPaymentsRevenueFund",
                    "type": "address"
                }
            ],
            "name": "changePaymentsRevenueFund",
            "outputs": [],
            "payable": false,
            "stateMutability": "nonpayable",
            "type": "function"
        },
        {
            "constant": true,
            "inputs": [
                {
                    "name": "wallet",
                    "type": "address"
                }
            ],
            "name": "isSeizedWallet",
            "outputs": [
                {
                    "name": "",
                    "type": "bool"
                }
            ],
            "payable": false,
            "stateMutability": "view",
            "type": "function"
        },
        {
            "constant": true,
            "inputs": [],
            "name": "seizedWalletsCount",
            "outputs": [
                {
                    "name": "",
                    "type": "uint256"
                }
            ],
            "payable": false,
            "stateMutability": "view",
            "type": "function"
        },
        {
            "constant": true,
            "inputs": [],
            "name": "settlementsCount",
            "outputs": [
                {
                    "name": "",
                    "type": "uint256"
                }
            ],
            "payable": false,
            "stateMutability": "view",
            "type": "function"
        },
        {
            "constant": true,
            "inputs": [
                {
                    "name": "nonce",
                    "type": "uint256"
                }
            ],
            "name": "hasSettlementByNonce",
            "outputs": [
                {
                    "name": "",
                    "type": "bool"
                }
            ],
            "payable": false,
            "stateMutability": "view",
            "type": "function"
        },
        {
            "constant": true,
            "inputs": [
                {
                    "name": "nonce",
                    "type": "uint256"
                }
            ],
            "name": "settlementByNonce",
            "outputs": [
                {
                    "components": [
                        {
                            "name": "nonce",
                            "type": "uint256"
                        },
                        {
                            "name": "driipType",
                            "type": "uint8"
                        },
                        {
                            "components": [
                                {
                                    "name": "nonce",
                                    "type": "uint256"
                                },
                                {
                                    "name": "wallet",
                                    "type": "address"
                                },
                                {
                                    "name": "done",
                                    "type": "bool"
                                }
                            ],
                            "name": "origin",
                            "type": "tuple"
                        },
                        {
                            "components": [
                                {
                                    "name": "nonce",
                                    "type": "uint256"
                                },
                                {
                                    "name": "wallet",
                                    "type": "address"
                                },
                                {
                                    "name": "done",
                                    "type": "bool"
                                }
                            ],
                            "name": "target",
                            "type": "tuple"
                        }
                    ],
                    "name": "",
                    "type": "tuple"
                }
            ],
            "payable": false,
            "stateMutability": "view",
            "type": "function"
        },
        {
            "constant": true,
            "inputs": [
                {
                    "name": "wallet",
                    "type": "address"
                }
            ],
            "name": "settlementsCountByWallet",
            "outputs": [
                {
                    "name": "",
                    "type": "uint256"
                }
            ],
            "payable": false,
            "stateMutability": "view",
            "type": "function"
        },
        {
            "constant": true,
            "inputs": [
                {
                    "name": "wallet",
                    "type": "address"
                },
                {
                    "name": "index",
                    "type": "uint256"
                }
            ],
            "name": "settlementByWalletAndIndex",
            "outputs": [
                {
                    "components": [
                        {
                            "name": "nonce",
                            "type": "uint256"
                        },
                        {
                            "name": "driipType",
                            "type": "uint8"
                        },
                        {
                            "components": [
                                {
                                    "name": "nonce",
                                    "type": "uint256"
                                },
                                {
                                    "name": "wallet",
                                    "type": "address"
                                },
                                {
                                    "name": "done",
                                    "type": "bool"
                                }
                            ],
                            "name": "origin",
                            "type": "tuple"
                        },
                        {
                            "components": [
                                {
                                    "name": "nonce",
                                    "type": "uint256"
                                },
                                {
                                    "name": "wallet",
                                    "type": "address"
                                },
                                {
                                    "name": "done",
                                    "type": "bool"
                                }
                            ],
                            "name": "target",
                            "type": "tuple"
                        }
                    ],
                    "name": "",
                    "type": "tuple"
                }
            ],
            "payable": false,
            "stateMutability": "view",
            "type": "function"
        },
        {
            "constant": true,
            "inputs": [
                {
                    "name": "wallet",
                    "type": "address"
                },
                {
                    "name": "nonce",
                    "type": "uint256"
                }
            ],
            "name": "settlementByWalletAndNonce",
            "outputs": [
                {
                    "components": [
                        {
                            "name": "nonce",
                            "type": "uint256"
                        },
                        {
                            "name": "driipType",
                            "type": "uint8"
                        },
                        {
                            "components": [
                                {
                                    "name": "nonce",
                                    "type": "uint256"
                                },
                                {
                                    "name": "wallet",
                                    "type": "address"
                                },
                                {
                                    "name": "done",
                                    "type": "bool"
                                }
                            ],
                            "name": "origin",
                            "type": "tuple"
                        },
                        {
                            "components": [
                                {
                                    "name": "nonce",
                                    "type": "uint256"
                                },
                                {
                                    "name": "wallet",
                                    "type": "address"
                                },
                                {
                                    "name": "done",
                                    "type": "bool"
                                }
                            ],
                            "name": "target",
                            "type": "tuple"
                        }
                    ],
                    "name": "",
                    "type": "tuple"
                }
            ],
            "payable": false,
            "stateMutability": "view",
            "type": "function"
        },
        {
            "constant": false,
            "inputs": [],
            "name": "updateMaxDriipNonce",
            "outputs": [],
            "payable": false,
            "stateMutability": "nonpayable",
            "type": "function"
        },
        {
            "constant": false,
            "inputs": [
                {
                    "components": [
                        {
                            "name": "nonce",
                            "type": "uint256"
                        },
                        {
                            "name": "amount",
                            "type": "int256"
                        },
                        {
                            "components": [
                                {
                                    "components": [
                                        {
                                            "name": "ct",
                                            "type": "address"
                                        },
                                        {
                                            "name": "id",
                                            "type": "uint256"
                                        }
                                    ],
                                    "name": "intended",
                                    "type": "tuple"
                                },
                                {
                                    "components": [
                                        {
                                            "name": "ct",
                                            "type": "address"
                                        },
                                        {
                                            "name": "id",
                                            "type": "uint256"
                                        }
                                    ],
                                    "name": "conjugate",
                                    "type": "tuple"
                                }
                            ],
                            "name": "currencies",
                            "type": "tuple"
                        },
                        {
                            "name": "rate",
                            "type": "int256"
                        },
                        {
                            "components": [
                                {
                                    "name": "nonce",
                                    "type": "uint256"
                                },
                                {
                                    "name": "wallet",
                                    "type": "address"
                                },
                                {
                                    "name": "rollingVolume",
                                    "type": "uint256"
                                },
                                {
                                    "name": "liquidityRole",
                                    "type": "uint8"
                                },
                                {
                                    "components": [
                                        {
                                            "name": "amount",
                                            "type": "int256"
                                        },
                                        {
                                            "components": [
                                                {
                                                    "name": "wallet",
                                                    "type": "bytes32"
                                                },
                                                {
                                                    "name": "operator",
                                                    "type": "bytes32"
                                                }
                                            ],
                                            "name": "hashes",
                                            "type": "tuple"
                                        },
                                        {
                                            "components": [
                                                {
                                                    "name": "current",
                                                    "type": "int256"
                                                },
                                                {
                                                    "name": "previous",
                                                    "type": "int256"
                                                }
                                            ],
                                            "name": "residuals",
                                            "type": "tuple"
                                        }
                                    ],
                                    "name": "order",
                                    "type": "tuple"
                                },
                                {
                                    "components": [
                                        {
                                            "components": [
                                                {
                                                    "name": "current",
                                                    "type": "int256"
                                                },
                                                {
                                                    "name": "previous",
                                                    "type": "int256"
                                                }
                                            ],
                                            "name": "intended",
                                            "type": "tuple"
                                        },
                                        {
                                            "components": [
                                                {
                                                    "name": "current",
                                                    "type": "int256"
                                                },
                                                {
                                                    "name": "previous",
                                                    "type": "int256"
                                                }
                                            ],
                                            "name": "conjugate",
                                            "type": "tuple"
                                        }
                                    ],
                                    "name": "balances",
                                    "type": "tuple"
                                },
                                {
                                    "components": [
                                        {
                                            "components": [
                                                {
                                                    "name": "amount",
                                                    "type": "int256"
                                                },
                                                {
                                                    "components": [
                                                        {
                                                            "name": "ct",
                                                            "type": "address"
                                                        },
                                                        {
                                                            "name": "id",
                                                            "type": "uint256"
                                                        }
                                                    ],
                                                    "name": "currency",
                                                    "type": "tuple"
                                                }
                                            ],
                                            "name": "single",
                                            "type": "tuple"
                                        },
                                        {
                                            "components": [
                                                {
                                                    "name": "amount",
                                                    "type": "int256"
                                                },
                                                {
                                                    "components": [
                                                        {
                                                            "name": "ct",
                                                            "type": "address"
                                                        },
                                                        {
                                                            "name": "id",
                                                            "type": "uint256"
                                                        }
                                                    ],
                                                    "name": "currency",
                                                    "type": "tuple"
                                                }
                                            ],
                                            "name": "total",
                                            "type": "tuple[]"
                                        }
                                    ],
                                    "name": "fees",
                                    "type": "tuple"
                                }
                            ],
                            "name": "buyer",
                            "type": "tuple"
                        },
                        {
                            "components": [
                                {
                                    "name": "nonce",
                                    "type": "uint256"
                                },
                                {
                                    "name": "wallet",
                                    "type": "address"
                                },
                                {
                                    "name": "rollingVolume",
                                    "type": "uint256"
                                },
                                {
                                    "name": "liquidityRole",
                                    "type": "uint8"
                                },
                                {
                                    "components": [
                                        {
                                            "name": "amount",
                                            "type": "int256"
                                        },
                                        {
                                            "components": [
                                                {
                                                    "name": "wallet",
                                                    "type": "bytes32"
                                                },
                                                {
                                                    "name": "operator",
                                                    "type": "bytes32"
                                                }
                                            ],
                                            "name": "hashes",
                                            "type": "tuple"
                                        },
                                        {
                                            "components": [
                                                {
                                                    "name": "current",
                                                    "type": "int256"
                                                },
                                                {
                                                    "name": "previous",
                                                    "type": "int256"
                                                }
                                            ],
                                            "name": "residuals",
                                            "type": "tuple"
                                        }
                                    ],
                                    "name": "order",
                                    "type": "tuple"
                                },
                                {
                                    "components": [
                                        {
                                            "components": [
                                                {
                                                    "name": "current",
                                                    "type": "int256"
                                                },
                                                {
                                                    "name": "previous",
                                                    "type": "int256"
                                                }
                                            ],
                                            "name": "intended",
                                            "type": "tuple"
                                        },
                                        {
                                            "components": [
                                                {
                                                    "name": "current",
                                                    "type": "int256"
                                                },
                                                {
                                                    "name": "previous",
                                                    "type": "int256"
                                                }
                                            ],
                                            "name": "conjugate",
                                            "type": "tuple"
                                        }
                                    ],
                                    "name": "balances",
                                    "type": "tuple"
                                },
                                {
                                    "components": [
                                        {
                                            "components": [
                                                {
                                                    "name": "amount",
                                                    "type": "int256"
                                                },
                                                {
                                                    "components": [
                                                        {
                                                            "name": "ct",
                                                            "type": "address"
                                                        },
                                                        {
                                                            "name": "id",
                                                            "type": "uint256"
                                                        }
                                                    ],
                                                    "name": "currency",
                                                    "type": "tuple"
                                                }
                                            ],
                                            "name": "single",
                                            "type": "tuple"
                                        },
                                        {
                                            "components": [
                                                {
                                                    "name": "amount",
                                                    "type": "int256"
                                                },
                                                {
                                                    "components": [
                                                        {
                                                            "name": "ct",
                                                            "type": "address"
                                                        },
                                                        {
                                                            "name": "id",
                                                            "type": "uint256"
                                                        }
                                                    ],
                                                    "name": "currency",
                                                    "type": "tuple"
                                                }
                                            ],
                                            "name": "total",
                                            "type": "tuple[]"
                                        }
                                    ],
                                    "name": "fees",
                                    "type": "tuple"
                                }
                            ],
                            "name": "seller",
                            "type": "tuple"
                        },
                        {
                            "components": [
                                {
                                    "components": [
                                        {
                                            "name": "single",
                                            "type": "int256"
                                        },
                                        {
                                            "name": "total",
                                            "type": "int256"
                                        }
                                    ],
                                    "name": "intended",
                                    "type": "tuple"
                                },
                                {
                                    "components": [
                                        {
                                            "name": "single",
                                            "type": "int256"
                                        },
                                        {
                                            "name": "total",
                                            "type": "int256"
                                        }
                                    ],
                                    "name": "conjugate",
                                    "type": "tuple"
                                }
                            ],
                            "name": "transfers",
                            "type": "tuple"
                        },
                        {
                            "components": [
                                {
                                    "name": "hash",
                                    "type": "bytes32"
                                },
                                {
                                    "components": [
                                        {
                                            "name": "r",
                                            "type": "bytes32"
                                        },
                                        {
                                            "name": "s",
                                            "type": "bytes32"
                                        },
                                        {
                                            "name": "v",
                                            "type": "uint8"
                                        }
                                    ],
                                    "name": "signature",
                                    "type": "tuple"
                                }
                            ],
                            "name": "seal",
                            "type": "tuple"
                        },
                        {
                            "name": "blockNumber",
                            "type": "uint256"
                        },
                        {
                            "name": "operatorId",
                            "type": "uint256"
                        }
                    ],
                    "name": "trade",
                    "type": "tuple"
                }
            ],
            "name": "settleTrade",
            "outputs": [],
            "payable": false,
            "stateMutability": "nonpayable",
            "type": "function"
        },
        {
            "constant": false,
            "inputs": [
                {
                    "name": "wallet",
                    "type": "address"
                },
                {
                    "components": [
                        {
                            "name": "nonce",
                            "type": "uint256"
                        },
                        {
                            "name": "amount",
                            "type": "int256"
                        },
                        {
                            "components": [
                                {
                                    "components": [
                                        {
                                            "name": "ct",
                                            "type": "address"
                                        },
                                        {
                                            "name": "id",
                                            "type": "uint256"
                                        }
                                    ],
                                    "name": "intended",
                                    "type": "tuple"
                                },
                                {
                                    "components": [
                                        {
                                            "name": "ct",
                                            "type": "address"
                                        },
                                        {
                                            "name": "id",
                                            "type": "uint256"
                                        }
                                    ],
                                    "name": "conjugate",
                                    "type": "tuple"
                                }
                            ],
                            "name": "currencies",
                            "type": "tuple"
                        },
                        {
                            "name": "rate",
                            "type": "int256"
                        },
                        {
                            "components": [
                                {
                                    "name": "nonce",
                                    "type": "uint256"
                                },
                                {
                                    "name": "wallet",
                                    "type": "address"
                                },
                                {
                                    "name": "rollingVolume",
                                    "type": "uint256"
                                },
                                {
                                    "name": "liquidityRole",
                                    "type": "uint8"
                                },
                                {
                                    "components": [
                                        {
                                            "name": "amount",
                                            "type": "int256"
                                        },
                                        {
                                            "components": [
                                                {
                                                    "name": "wallet",
                                                    "type": "bytes32"
                                                },
                                                {
                                                    "name": "operator",
                                                    "type": "bytes32"
                                                }
                                            ],
                                            "name": "hashes",
                                            "type": "tuple"
                                        },
                                        {
                                            "components": [
                                                {
                                                    "name": "current",
                                                    "type": "int256"
                                                },
                                                {
                                                    "name": "previous",
                                                    "type": "int256"
                                                }
                                            ],
                                            "name": "residuals",
                                            "type": "tuple"
                                        }
                                    ],
                                    "name": "order",
                                    "type": "tuple"
                                },
                                {
                                    "components": [
                                        {
                                            "components": [
                                                {
                                                    "name": "current",
                                                    "type": "int256"
                                                },
                                                {
                                                    "name": "previous",
                                                    "type": "int256"
                                                }
                                            ],
                                            "name": "intended",
                                            "type": "tuple"
                                        },
                                        {
                                            "components": [
                                                {
                                                    "name": "current",
                                                    "type": "int256"
                                                },
                                                {
                                                    "name": "previous",
                                                    "type": "int256"
                                                }
                                            ],
                                            "name": "conjugate",
                                            "type": "tuple"
                                        }
                                    ],
                                    "name": "balances",
                                    "type": "tuple"
                                },
                                {
                                    "components": [
                                        {
                                            "components": [
                                                {
                                                    "name": "amount",
                                                    "type": "int256"
                                                },
                                                {
                                                    "components": [
                                                        {
                                                            "name": "ct",
                                                            "type": "address"
                                                        },
                                                        {
                                                            "name": "id",
                                                            "type": "uint256"
                                                        }
                                                    ],
                                                    "name": "currency",
                                                    "type": "tuple"
                                                }
                                            ],
                                            "name": "single",
                                            "type": "tuple"
                                        },
                                        {
                                            "components": [
                                                {
                                                    "name": "amount",
                                                    "type": "int256"
                                                },
                                                {
                                                    "components": [
                                                        {
                                                            "name": "ct",
                                                            "type": "address"
                                                        },
                                                        {
                                                            "name": "id",
                                                            "type": "uint256"
                                                        }
                                                    ],
                                                    "name": "currency",
                                                    "type": "tuple"
                                                }
                                            ],
                                            "name": "total",
                                            "type": "tuple[]"
                                        }
                                    ],
                                    "name": "fees",
                                    "type": "tuple"
                                }
                            ],
                            "name": "buyer",
                            "type": "tuple"
                        },
                        {
                            "components": [
                                {
                                    "name": "nonce",
                                    "type": "uint256"
                                },
                                {
                                    "name": "wallet",
                                    "type": "address"
                                },
                                {
                                    "name": "rollingVolume",
                                    "type": "uint256"
                                },
                                {
                                    "name": "liquidityRole",
                                    "type": "uint8"
                                },
                                {
                                    "components": [
                                        {
                                            "name": "amount",
                                            "type": "int256"
                                        },
                                        {
                                            "components": [
                                                {
                                                    "name": "wallet",
                                                    "type": "bytes32"
                                                },
                                                {
                                                    "name": "operator",
                                                    "type": "bytes32"
                                                }
                                            ],
                                            "name": "hashes",
                                            "type": "tuple"
                                        },
                                        {
                                            "components": [
                                                {
                                                    "name": "current",
                                                    "type": "int256"
                                                },
                                                {
                                                    "name": "previous",
                                                    "type": "int256"
                                                }
                                            ],
                                            "name": "residuals",
                                            "type": "tuple"
                                        }
                                    ],
                                    "name": "order",
                                    "type": "tuple"
                                },
                                {
                                    "components": [
                                        {
                                            "components": [
                                                {
                                                    "name": "current",
                                                    "type": "int256"
                                                },
                                                {
                                                    "name": "previous",
                                                    "type": "int256"
                                                }
                                            ],
                                            "name": "intended",
                                            "type": "tuple"
                                        },
                                        {
                                            "components": [
                                                {
                                                    "name": "current",
                                                    "type": "int256"
                                                },
                                                {
                                                    "name": "previous",
                                                    "type": "int256"
                                                }
                                            ],
                                            "name": "conjugate",
                                            "type": "tuple"
                                        }
                                    ],
                                    "name": "balances",
                                    "type": "tuple"
                                },
                                {
                                    "components": [
                                        {
                                            "components": [
                                                {
                                                    "name": "amount",
                                                    "type": "int256"
                                                },
                                                {
                                                    "components": [
                                                        {
                                                            "name": "ct",
                                                            "type": "address"
                                                        },
                                                        {
                                                            "name": "id",
                                                            "type": "uint256"
                                                        }
                                                    ],
                                                    "name": "currency",
                                                    "type": "tuple"
                                                }
                                            ],
                                            "name": "single",
                                            "type": "tuple"
                                        },
                                        {
                                            "components": [
                                                {
                                                    "name": "amount",
                                                    "type": "int256"
                                                },
                                                {
                                                    "components": [
                                                        {
                                                            "name": "ct",
                                                            "type": "address"
                                                        },
                                                        {
                                                            "name": "id",
                                                            "type": "uint256"
                                                        }
                                                    ],
                                                    "name": "currency",
                                                    "type": "tuple"
                                                }
                                            ],
                                            "name": "total",
                                            "type": "tuple[]"
                                        }
                                    ],
                                    "name": "fees",
                                    "type": "tuple"
                                }
                            ],
                            "name": "seller",
                            "type": "tuple"
                        },
                        {
                            "components": [
                                {
                                    "components": [
                                        {
                                            "name": "single",
                                            "type": "int256"
                                        },
                                        {
                                            "name": "total",
                                            "type": "int256"
                                        }
                                    ],
                                    "name": "intended",
                                    "type": "tuple"
                                },
                                {
                                    "components": [
                                        {
                                            "name": "single",
                                            "type": "int256"
                                        },
                                        {
                                            "name": "total",
                                            "type": "int256"
                                        }
                                    ],
                                    "name": "conjugate",
                                    "type": "tuple"
                                }
                            ],
                            "name": "transfers",
                            "type": "tuple"
                        },
                        {
                            "components": [
                                {
                                    "name": "hash",
                                    "type": "bytes32"
                                },
                                {
                                    "components": [
                                        {
                                            "name": "r",
                                            "type": "bytes32"
                                        },
                                        {
                                            "name": "s",
                                            "type": "bytes32"
                                        },
                                        {
                                            "name": "v",
                                            "type": "uint8"
                                        }
                                    ],
                                    "name": "signature",
                                    "type": "tuple"
                                }
                            ],
                            "name": "seal",
                            "type": "tuple"
                        },
                        {
                            "name": "blockNumber",
                            "type": "uint256"
                        },
                        {
                            "name": "operatorId",
                            "type": "uint256"
                        }
                    ],
                    "name": "trade",
                    "type": "tuple"
                }
            ],
            "name": "settleTradeByProxy",
            "outputs": [],
            "payable": false,
            "stateMutability": "nonpayable",
            "type": "function"
        },
        {
            "constant": false,
            "inputs": [
                {
                    "components": [
                        {
                            "name": "nonce",
                            "type": "uint256"
                        },
                        {
                            "name": "amount",
                            "type": "int256"
                        },
                        {
                            "components": [
                                {
                                    "name": "ct",
                                    "type": "address"
                                },
                                {
                                    "name": "id",
                                    "type": "uint256"
                                }
                            ],
                            "name": "currency",
                            "type": "tuple"
                        },
                        {
                            "components": [
                                {
                                    "name": "nonce",
                                    "type": "uint256"
                                },
                                {
                                    "name": "wallet",
                                    "type": "address"
                                },
                                {
                                    "components": [
                                        {
                                            "name": "current",
                                            "type": "int256"
                                        },
                                        {
                                            "name": "previous",
                                            "type": "int256"
                                        }
                                    ],
                                    "name": "balances",
                                    "type": "tuple"
                                },
                                {
                                    "components": [
                                        {
                                            "components": [
                                                {
                                                    "name": "amount",
                                                    "type": "int256"
                                                },
                                                {
                                                    "components": [
                                                        {
                                                            "name": "ct",
                                                            "type": "address"
                                                        },
                                                        {
                                                            "name": "id",
                                                            "type": "uint256"
                                                        }
                                                    ],
                                                    "name": "currency",
                                                    "type": "tuple"
                                                }
                                            ],
                                            "name": "single",
                                            "type": "tuple"
                                        },
                                        {
                                            "components": [
                                                {
                                                    "name": "amount",
                                                    "type": "int256"
                                                },
                                                {
                                                    "components": [
                                                        {
                                                            "name": "ct",
                                                            "type": "address"
                                                        },
                                                        {
                                                            "name": "id",
                                                            "type": "uint256"
                                                        }
                                                    ],
                                                    "name": "currency",
                                                    "type": "tuple"
                                                }
                                            ],
                                            "name": "total",
                                            "type": "tuple[]"
                                        }
                                    ],
                                    "name": "fees",
                                    "type": "tuple"
                                }
                            ],
                            "name": "sender",
                            "type": "tuple"
                        },
                        {
                            "components": [
                                {
                                    "name": "nonce",
                                    "type": "uint256"
                                },
                                {
                                    "name": "wallet",
                                    "type": "address"
                                },
                                {
                                    "components": [
                                        {
                                            "name": "current",
                                            "type": "int256"
                                        },
                                        {
                                            "name": "previous",
                                            "type": "int256"
                                        }
                                    ],
                                    "name": "balances",
                                    "type": "tuple"
                                },
                                {
                                    "components": [
                                        {
                                            "components": [
                                                {
                                                    "name": "amount",
                                                    "type": "int256"
                                                },
                                                {
                                                    "components": [
                                                        {
                                                            "name": "ct",
                                                            "type": "address"
                                                        },
                                                        {
                                                            "name": "id",
                                                            "type": "uint256"
                                                        }
                                                    ],
                                                    "name": "currency",
                                                    "type": "tuple"
                                                }
                                            ],
                                            "name": "total",
                                            "type": "tuple[]"
                                        }
                                    ],
                                    "name": "fees",
                                    "type": "tuple"
                                }
                            ],
                            "name": "recipient",
                            "type": "tuple"
                        },
                        {
                            "components": [
                                {
                                    "name": "single",
                                    "type": "int256"
                                },
                                {
                                    "name": "total",
                                    "type": "int256"
                                }
                            ],
                            "name": "transfers",
                            "type": "tuple"
                        },
                        {
                            "components": [
                                {
                                    "components": [
                                        {
                                            "name": "hash",
                                            "type": "bytes32"
                                        },
                                        {
                                            "components": [
                                                {
                                                    "name": "r",
                                                    "type": "bytes32"
                                                },
                                                {
                                                    "name": "s",
                                                    "type": "bytes32"
                                                },
                                                {
                                                    "name": "v",
                                                    "type": "uint8"
                                                }
                                            ],
                                            "name": "signature",
                                            "type": "tuple"
                                        }
                                    ],
                                    "name": "wallet",
                                    "type": "tuple"
                                },
                                {
                                    "components": [
                                        {
                                            "name": "hash",
                                            "type": "bytes32"
                                        },
                                        {
                                            "components": [
                                                {
                                                    "name": "r",
                                                    "type": "bytes32"
                                                },
                                                {
                                                    "name": "s",
                                                    "type": "bytes32"
                                                },
                                                {
                                                    "name": "v",
                                                    "type": "uint8"
                                                }
                                            ],
                                            "name": "signature",
                                            "type": "tuple"
                                        }
                                    ],
                                    "name": "operator",
                                    "type": "tuple"
                                }
                            ],
                            "name": "seals",
                            "type": "tuple"
                        },
                        {
                            "name": "blockNumber",
                            "type": "uint256"
                        },
                        {
                            "name": "operatorId",
                            "type": "uint256"
                        }
                    ],
                    "name": "payment",
                    "type": "tuple"
                }
            ],
            "name": "settlePayment",
            "outputs": [],
            "payable": false,
            "stateMutability": "nonpayable",
            "type": "function"
        },
        {
            "constant": false,
            "inputs": [
                {
                    "name": "wallet",
                    "type": "address"
                },
                {
                    "components": [
                        {
                            "name": "nonce",
                            "type": "uint256"
                        },
                        {
                            "name": "amount",
                            "type": "int256"
                        },
                        {
                            "components": [
                                {
                                    "name": "ct",
                                    "type": "address"
                                },
                                {
                                    "name": "id",
                                    "type": "uint256"
                                }
                            ],
                            "name": "currency",
                            "type": "tuple"
                        },
                        {
                            "components": [
                                {
                                    "name": "nonce",
                                    "type": "uint256"
                                },
                                {
                                    "name": "wallet",
                                    "type": "address"
                                },
                                {
                                    "components": [
                                        {
                                            "name": "current",
                                            "type": "int256"
                                        },
                                        {
                                            "name": "previous",
                                            "type": "int256"
                                        }
                                    ],
                                    "name": "balances",
                                    "type": "tuple"
                                },
                                {
                                    "components": [
                                        {
                                            "components": [
                                                {
                                                    "name": "amount",
                                                    "type": "int256"
                                                },
                                                {
                                                    "components": [
                                                        {
                                                            "name": "ct",
                                                            "type": "address"
                                                        },
                                                        {
                                                            "name": "id",
                                                            "type": "uint256"
                                                        }
                                                    ],
                                                    "name": "currency",
                                                    "type": "tuple"
                                                }
                                            ],
                                            "name": "single",
                                            "type": "tuple"
                                        },
                                        {
                                            "components": [
                                                {
                                                    "name": "amount",
                                                    "type": "int256"
                                                },
                                                {
                                                    "components": [
                                                        {
                                                            "name": "ct",
                                                            "type": "address"
                                                        },
                                                        {
                                                            "name": "id",
                                                            "type": "uint256"
                                                        }
                                                    ],
                                                    "name": "currency",
                                                    "type": "tuple"
                                                }
                                            ],
                                            "name": "total",
                                            "type": "tuple[]"
                                        }
                                    ],
                                    "name": "fees",
                                    "type": "tuple"
                                }
                            ],
                            "name": "sender",
                            "type": "tuple"
                        },
                        {
                            "components": [
                                {
                                    "name": "nonce",
                                    "type": "uint256"
                                },
                                {
                                    "name": "wallet",
                                    "type": "address"
                                },
                                {
                                    "components": [
                                        {
                                            "name": "current",
                                            "type": "int256"
                                        },
                                        {
                                            "name": "previous",
                                            "type": "int256"
                                        }
                                    ],
                                    "name": "balances",
                                    "type": "tuple"
                                },
                                {
                                    "components": [
                                        {
                                            "components": [
                                                {
                                                    "name": "amount",
                                                    "type": "int256"
                                                },
                                                {
                                                    "components": [
                                                        {
                                                            "name": "ct",
                                                            "type": "address"
                                                        },
                                                        {
                                                            "name": "id",
                                                            "type": "uint256"
                                                        }
                                                    ],
                                                    "name": "currency",
                                                    "type": "tuple"
                                                }
                                            ],
                                            "name": "total",
                                            "type": "tuple[]"
                                        }
                                    ],
                                    "name": "fees",
                                    "type": "tuple"
                                }
                            ],
                            "name": "recipient",
                            "type": "tuple"
                        },
                        {
                            "components": [
                                {
                                    "name": "single",
                                    "type": "int256"
                                },
                                {
                                    "name": "total",
                                    "type": "int256"
                                }
                            ],
                            "name": "transfers",
                            "type": "tuple"
                        },
                        {
                            "components": [
                                {
                                    "components": [
                                        {
                                            "name": "hash",
                                            "type": "bytes32"
                                        },
                                        {
                                            "components": [
                                                {
                                                    "name": "r",
                                                    "type": "bytes32"
                                                },
                                                {
                                                    "name": "s",
                                                    "type": "bytes32"
                                                },
                                                {
                                                    "name": "v",
                                                    "type": "uint8"
                                                }
                                            ],
                                            "name": "signature",
                                            "type": "tuple"
                                        }
                                    ],
                                    "name": "wallet",
                                    "type": "tuple"
                                },
                                {
                                    "components": [
                                        {
                                            "name": "hash",
                                            "type": "bytes32"
                                        },
                                        {
                                            "components": [
                                                {
                                                    "name": "r",
                                                    "type": "bytes32"
                                                },
                                                {
                                                    "name": "s",
                                                    "type": "bytes32"
                                                },
                                                {
                                                    "name": "v",
                                                    "type": "uint8"
                                                }
                                            ],
                                            "name": "signature",
                                            "type": "tuple"
                                        }
                                    ],
                                    "name": "operator",
                                    "type": "tuple"
                                }
                            ],
                            "name": "seals",
                            "type": "tuple"
                        },
                        {
                            "name": "blockNumber",
                            "type": "uint256"
                        },
                        {
                            "name": "operatorId",
                            "type": "uint256"
                        }
                    ],
                    "name": "payment",
                    "type": "tuple"
                }
            ],
            "name": "settlePaymentByProxy",
            "outputs": [],
            "payable": false,
            "stateMutability": "nonpayable",
            "type": "function"
        }
    ],
    "bytecode": "0x60806040523480156200001157600080fd5b5060405160208062004c608339810180604052620000339190810190620000a9565b8080600160a060020a03811615156200004b57600080fd5b600160a060020a0381163014156200006257600080fd5b5060008054600160a060020a03909216600160a060020a031992831681179091556001805490921617905550620000de565b6000620000a28251620000d2565b9392505050565b600060208284031215620000bc57600080fd5b6000620000ca848462000094565b949350505050565b600160a060020a031690565b614b7280620000ee6000396000f3006080604052600436106102215763ffffffff60e060020a60003504166306394c9b811461022657806308df7dc8146102485780632145cd201461028157806323a3e7a2146102a35780632b74d249146102c35780633663ac4e146102d85780633a5381b5146102f85780633bd7857f1461031a5780634476d23b1461032f578063570ca735146103515780636c70bee914610366578063758619a01461037b5780637892850e146103a85780637e5150f4146103c8578063829f4a70146103e8578063897d36aa146104085780638c6913bc1461041d57806392f7bd7b1461043257806394dd293c146104525780639d4f7ebb14610467578063a08eda5414610487578063a3d2231a146104b4578063a68ecb4a146104d4578063a9c190b9146104e9578063b8d766f414610509578063b9bb9cd914610529578063bf24e7d014610549578063c0ffe1b41461055e578063c2050a681461057e578063c81dd95a14610593578063cc0dad4a146105a8578063cdacab25146105c8578063d2f08936146105dd578063d5f39488146105fd578063d66c529114610612578063da1f06b914610632578063dda7337814610652578063de4cc1b814610672578063defdfae614610692578063e754476f146106b2578063ed20b106146106c7578063f345fb44146106e7578063f3bfc0a514610707578063f413522114610727578063f6abfc7614610747578063f6d4c0ef14610767578063f71ea7431461077c575b600080fd5b34801561023257600080fd5b50610246610241366004614018565b61079c565b005b34801561025457600080fd5b50610268610263366004614249565b610854565b6040516102789493929190614a3d565b60405180910390f35b34801561028d57600080fd5b506102966108eb565b60405161027891906149a4565b3480156102af57600080fd5b506102466102be3660046140a1565b6108f1565b3480156102cf57600080fd5b506102466109d7565b3480156102e457600080fd5b506102466102f3366004614187565b610a02565b34801561030457600080fd5b5061030d610aaa565b60405161027891906149b2565b34801561032657600080fd5b5061030d610ab9565b34801561033b57600080fd5b50610344610ac8565b60405161027891906147fe565b34801561035d57600080fd5b50610344610ad7565b34801561037257600080fd5b5061030d610ae6565b34801561038757600080fd5b5061039b610396366004614018565b610af5565b6040516102789190614996565b3480156103b457600080fd5b506102466103c3366004614187565b610b0a565b3480156103d457600080fd5b506102466103e3366004614187565b610b8e565b3480156103f457600080fd5b5061039b610403366004614249565b610c26565b34801561041457600080fd5b50610296610c39565b34801561042957600080fd5b50610296610c3f565b34801561043e57600080fd5b5061029661044d366004614139565b610c45565b34801561045e57600080fd5b50610246610c75565b34801561047357600080fd5b50610296610482366004614249565b610ca4565b34801561049357600080fd5b506104a76104a2366004614249565b610cb6565b6040516102789190614a0c565b3480156104c057600080fd5b506102966104cf366004614054565b610db9565b3480156104e057600080fd5b5061030d610ddc565b3480156104f557600080fd5b50610246610504366004614187565b610deb565b34801561051557600080fd5b50610246610524366004614187565b610e6f565b34801561053557600080fd5b50610344610544366004614249565b610f1e565b34801561055557600080fd5b5061030d610f46565b34801561056a57600080fd5b506104a7610579366004614139565b610f55565b34801561058a57600080fd5b5061030d61108a565b34801561059f57600080fd5b5061039b611099565b3480156105b457600080fd5b5061039b6105c3366004614018565b6110a9565b3480156105d457600080fd5b506102466110c7565b3480156105e957600080fd5b506104a76105f8366004614139565b61115c565b34801561060957600080fd5b506103446111c9565b34801561061e57600080fd5b5061029661062d366004614139565b6111d8565b34801561063e57600080fd5b5061029661064d366004614054565b6111f5565b34801561065e57600080fd5b5061029661066d366004614054565b611218565b34801561067e57600080fd5b5061024661068d3660046140f2565b61123b565b34801561069e57600080fd5b506102466106ad366004614018565b611315565b3480156106be57600080fd5b5061030d6113bf565b3480156106d357600080fd5b506102466106e23660046141e1565b6113ce565b3480156106f357600080fd5b50610296610702366004614018565b61149b565b34801561071357600080fd5b50610246610722366004614215565b6114b6565b34801561073357600080fd5b50610246610742366004614187565b611578565b34801561075357600080fd5b50610246610762366004614187565b611610565b34801561077357600080fd5b5061030d6116a8565b34801561078857600080fd5b50610246610797366004614187565b6116b7565b60006107a661173b565b15156107b157600080fd5b81600160a060020a03811615156107c757600080fd5b600160a060020a0381163014156107dd57600080fd5b600154600160a060020a0384811691161461084f5760018054600160a060020a03858116600160a060020a0319831617909255604051911692507f5bd9a4a09f08f75952905b16ac91d6821c47d52c3a968e583e6854b42757c58090610846908490869061480c565b60405180910390a15b505050565b600d80548290811061086257fe5b6000918252602091829020600690910201805460018201546040805160608181018352600286015482526003860154600160a060020a03808216848a015260a060020a9182900460ff9081161515858701528551938401865260048901548452600590980154908116988301989098529096048516151591860191909152919450919091169184565b60085490565b6108f961174c565b151561090457600080fd5b61090e828261175d565b600a5460405160e060020a63c213a4bd0281527fa27b1a62620a8780d1d6c812bded937a5a3be00abf7c7af00ac37cac9f9226cb91339185918591600160a060020a039091169063c213a4bd906109699085906004016147fe565b602060405180830381600087803b15801561098357600080fd5b505af1158015610997573d6000803e3d6000fd5b505050506040513d601f19601f820116820180604052506109bb91908101906141a5565b6040516109cb9493929190614827565b60405180910390a15050565b6109df61174c565b15156109ea57600080fd5b6005805460a060020a60ff02191660a060020a179055565b6000610a0c61174c565b1515610a1757600080fd5b81600160a060020a0381161515610a2d57600080fd5b6004548390600160a060020a039081169082168114610aa35760048054600160a060020a03878116600160a060020a0319831617909255604051911694507f5b5a357e72e61d8cb7664220f36cc3ca63075f61bdf48f20d6372ec3964fcbc990610a9a90869088906149c0565b60405180910390a15b5050505050565b600354600160a060020a031681565b600654600160a060020a031681565b600054600160a060020a031690565b600154600160a060020a031681565b600254600160a060020a031681565b60096020526000908152604090205460ff1681565b6000610b1461174c565b1515610b1f57600080fd5b81600160a060020a0381161515610b3557600080fd5b600c8054600160a060020a03858116600160a060020a03198316179283905560405191811694507ff5bdeaae5c5b63b5db4943fc0a44156f362b5aa7a70669c1a78c0e225e689e2e9261084692869291909116906149c0565b6000610b9861174c565b1515610ba357600080fd5b81600160a060020a0381161515610bb957600080fd5b6002548390600160a060020a039081169082168114610aa35760028054600160a060020a03878116600160a060020a0319831617909255604051911694507f6b81929a162238bb990384b771e24fd599c4ca9ddd6efb0444fdc2a10756b8f090610a9a90869088906149c0565b6000908152600e60205260408120541190565b60075481565b600d5490565b600f60205281600052604060002081815481101515610c6057fe5b90600052602060002001600091509150505481565b610c7d610ac8565b600160a060020a03163314610c9157600080fd5b610c99610ac8565b600160a060020a0316ff5b600e6020526000908152604090205481565b610cbe61372b565b610cc782610c26565b1515610cd257600080fd5b6000828152600e6020526040902054600d8054909160001901908110610cf457fe5b906000526020600020906006020160806040519081016040529081600082015481526020016001820160009054906101000a900460ff166001811115610d3657fe5b6001811115610d4157fe5b81526040805160608181018352600285015482526003850154600160a060020a0380821660208581019190915260ff60a060020a938490048116151586880152818801959095528551938401865260048801548452600590970154908116968301969096529094041615158382015201529050919050565b601260209081526000938452604080852082529284528284209052825290205481565b600c54600160a060020a031681565b6000610df561174c565b1515610e0057600080fd5b81600160a060020a0381161515610e1657600080fd5b600a8054600160a060020a03858116600160a060020a03198316179283905560405191811694507ff53b3eb0c8a48873ea32383e9d0dbc5d40fa71bbbeb7badd688c70d41df4619f9261084692869291909116906149c0565b6000610e7961174c565b1515610e8457600080fd5b81600160a060020a0381161515610e9a57600080fd5b6005548390600160a060020a039081169082168114610aa35760055460a060020a900460ff1615610eca57600080fd5b60058054600160a060020a03878116600160a060020a0319831617909255604051911694507fef29452bdf307a74e9693a79fbc93f4eaa536447297a8ed6b95881e4997e75d190610a9a90869088906149c0565b6008805482908110610f2c57fe5b600091825260209091200154600160a060020a0316905081565b600554600160a060020a031681565b610f5d61372b565b600160a060020a0383166000908152600f60205260409020548210610f8157600080fd5b600160a060020a0383166000908152600f602052604090208054600d9160019185908110610fab57fe5b906000526020600020015403815481101515610fc357fe5b906000526020600020906006020160806040519081016040529081600082015481526020016001820160009054906101000a900460ff16600181111561100557fe5b600181111561101057fe5b81526040805160608181018352600285015482526003850154600160a060020a0380821660208581019190915260ff60a060020a9384900481161515868801528188019590955285519384018652600488015484526005909701549081169683019690965290940416151583820152015290505b92915050565b600b54600160a060020a031681565b60055460a060020a900460ff1681565b600160a060020a031660009081526009602052604090205460ff1690565b6005546040805160e460020a6301f344070281529051600092600160a060020a031691631f34407091600480830192602092919082900301818787803b15801561111057600080fd5b505af1158015611124573d6000803e3d6000fd5b505050506040513d601f19601f8201168201806040525061114891908101906141c3565b905060008111156111595760078190555b50565b61116461372b565b600160a060020a03831660009081526010602090815260408083208584529091528120541161119257600080fd5b600160a060020a0383166000908152601060209081526040808320858452909152902054600d8054909160001901908110610fc357fe5b600054600160a060020a031681565b601060209081526000928352604080842090915290825290205481565b601160209081526000938452604080852082529284528284209052825290205481565b601360209081526000938452604080852082529284528284209052825290205481565b61124361174c565b151561124e57600080fd5b6112588282612209565b600a5460405160e060020a63c213a4bd0281527f4640c923a16896447c360caeec74dff7e6b649527c091d16e8179d278b43eb4991339185918591600160a060020a039091169063c213a4bd906112b39085906004016147fe565b602060405180830381600087803b1580156112cd57600080fd5b505af11580156112e1573d6000803e3d6000fd5b505050506040513d601f19601f8201168201806040525061130591908101906141a5565b6040516109cb9493929190614863565b600061131f61174c565b151561132a57600080fd5b81600160a060020a038116151561134057600080fd5b600160a060020a03811630141561135657600080fd5b600054600160a060020a0384811691161461084f5760008054600160a060020a03858116600160a060020a0319831617909255604051911692507fb52724aafc8bad3645fa843e328aaaa28d0bd8ed399cd62843de657b0caf75c790610846908490869061480c565b600454600160a060020a031681565b6113d8338261175d565b600a5460405160e060020a63c213a4bd0281527f7ab500d859348e3fe1e3344aade03502ad22d35b8275644d744c9b884fb7a7a19133918491600160a060020a03169063c213a4bd9061142f9085906004016147fe565b602060405180830381600087803b15801561144957600080fd5b505af115801561145d573d6000803e3d6000fd5b505050506040513d601f19601f8201168201806040525061148191908101906141a5565b60405161149093929190614947565b60405180910390a150565b600160a060020a03166000908152600f602052604090205490565b6114c03382612209565b600a5460405160e060020a63c213a4bd0281527fa1d337e73e31bd888ec9789df1ac3da514f5c4114457e074fdc7b5e9f6e702539133918491600160a060020a03169063c213a4bd906115179085906004016147fe565b602060405180830381600087803b15801561153157600080fd5b505af1158015611545573d6000803e3d6000fd5b505050506040513d601f19601f8201168201806040525061156991908101906141a5565b60405161149093929190614976565b600061158261174c565b151561158d57600080fd5b81600160a060020a03811615156115a357600080fd5b6006548390600160a060020a039081169082168114610aa35760068054600160a060020a03878116600160a060020a0319831617909255604051911694507f1220fa28adaf509387f461e93a747f57196ded6e2781ef819966b4ff71ce21f390610a9a90869088906149c0565b600061161a61174c565b151561162557600080fd5b81600160a060020a038116151561163b57600080fd5b6003548390600160a060020a039081169082168114610aa35760038054600160a060020a03878116600160a060020a0319831617909255604051911694507f365b4d2117252a14b5db6a7e816ea961da4692b5690490d22d29c4f65346f60090610a9a90869088906149c0565b600a54600160a060020a031681565b60006116c161174c565b15156116cc57600080fd5b81600160a060020a03811615156116e257600080fd5b600b8054600160a060020a03858116600160a060020a03198316179283905560405191811694507fa896ce1aa6ddc149db7d40b51f71c73a2e4c12549d4229af03bb6e43f0af1d0d9261084692869291909116906149c0565b600154600160a060020a0316331490565b600054600160a060020a0316331490565b60035460009081906060908290600160a060020a0316151561177e57600080fd5b600654600160a060020a0316151561179557600080fd5b600554600160a060020a031615156117ac57600080fd5b600254600160a060020a031615156117c357600080fd5b600454600160a060020a031615156117da57600080fd5b600a54600160a060020a031615156117f157600080fd5b60035460405160e060020a6333dab6bd0281528691600160a060020a0316906333dab6bd906118249084906004016149db565b602060405180830381600087803b15801561183e57600080fd5b505af1158015611852573d6000803e3d6000fd5b505050506040513d601f19601f820116820180604052506118769190810190614169565b151561188157600080fd5b60065460c0870151602001515160405160e060020a639d3e7ce1028152600160a060020a0390921691639d3e7ce1916118bc916004016149a4565b602060405180830381600087803b1580156118d657600080fd5b505af11580156118ea573d6000803e3d6000fd5b505050506040513d601f19601f8201168201806040525061190e9190810190614169565b1561191857600080fd5b60035460405160e160020a6358ac3dd7028152600160a060020a039091169063b1587bae9061194d9089908b906004016149ec565b602060405180830381600087803b15801561196757600080fd5b505af115801561197b573d6000803e3d6000fd5b505050506040513d601f19601f8201168201806040525061199f9190810190614169565b15156119aa57600080fd5b60055460405160e060020a639243c9db028152600160a060020a0390911690639243c9db906119dd908a906004016147fe565b602060405180830381600087803b1580156119f757600080fd5b505af1158015611a0b573d6000803e3d6000fd5b505050506040513d601f19601f82011682018060405250611a2f9190810190614169565b15611a3957600080fd5b8551600a5460405160e060020a6377b9e845028152600160a060020a03909116906377b9e84590611a6e908b906004016147fe565b602060405180830381600087803b158015611a8857600080fd5b505af1158015611a9c573d6000803e3d6000fd5b505050506040513d601f19601f82011682018060405250611ac091908101906141c3565b14611aca57600080fd5b600a5460405160e060020a63c213a4bd028152600191600160a060020a03169063c213a4bd90611afe908b906004016147fe565b602060405180830381600087803b158015611b1857600080fd5b505af1158015611b2c573d6000803e3d6000fd5b505050506040513d601f19601f82011682018060405250611b5091908101906141a5565b6002811115611b5b57fe5b141561207c57600260009054906101000a9004600160a060020a0316600160a060020a031663f71e860f6040518163ffffffff1660e060020a028152600401602060405180830381600087803b158015611bb457600080fd5b505af1158015611bc8573d6000803e3d6000fd5b505050506040513d601f19601f82011682018060405250611bec9190810190614169565b8015611c7e5750600560009054906101000a9004600160a060020a0316600160a060020a031663994e20766040518163ffffffff1660e060020a028152600401602060405180830381600087803b158015611c4657600080fd5b505af1158015611c5a573d6000803e3d6000fd5b505050506040513d601f19601f82011682018060405250611c7e9190810190614169565b80611c8b57506007548651105b1515611c9657600080fd5b8551611ca190610c26565b611cd25785516060870151805160209182015160808a01518051930151611ccd94936001939291612ea2565b611cdf565b8551611cdf9060016130cc565b9450611ceb8688613134565b9350836001811115611cf957fe5b158015611d125750600385015460a060020a900460ff16155b80611d3f5750836001811115611d2457fe5b6001148015611d3f5750600585015460a060020a900460ff16155b1515611d4a57600080fd5b836001811115611d5657fe5b1515611d795760038501805460a060020a60ff02191660a060020a179055611d92565b60058501805460a060020a60ff02191660a060020a1790555b60035460405160e160020a6358ac3dd7028152600160a060020a039091169063b1587bae90611dc79089908b906004016149ec565b602060405180830381600087803b158015611de157600080fd5b505af1158015611df5573d6000803e3d6000fd5b505050506040513d601f19601f82011682018060405250611e199190810190614169565b15611e3d576060808701519081015160200151604090910151519093509150611e55565b60808601516060810151516040909101515190935091505b8551600160a060020a038089166000908152601160209081526040808320818c01805151909516845282528083209351820151835292905220541015612039578551600160a060020a038089166000908152601160209081526040808320818c018051518616855290835281842081518401518552835292819020949094556004805492518051920151945160e560020a63057fe07d028152929093169363affc0fa093611f0b938d93899390929091016148dc565b600060405180830381600087803b158015611f2557600080fd5b505af1158015611f39573d6000803e3d6000fd5b505060048054600a546040808c0151905160e160020a633007230f028152600160a060020a03938416965063cd49737d95508d94929093169263600e461e92611f8692869290910161492c565b602060405180830381600087803b158015611fa057600080fd5b505af1158015611fb4573d6000803e3d6000fd5b505050506040513d601f19601f82011682018060405250611fd891908101906141c3565b6040808b01518051602090910151915160e060020a63ffffffff8716028152612006949392906004016148dc565b600060405180830381600087803b15801561202057600080fd5b505af1158015612034573d6000803e3d6000fd5b505050505b600c54600160a060020a03161561206657600c5486516120669189918691600160a060020a031690613168565b600754865111156120775785516007555b612200565b600a5460405160e060020a63c213a4bd028152600291600160a060020a03169063c213a4bd906120b0908b906004016147fe565b602060405180830381600087803b1580156120ca57600080fd5b505af11580156120de573d6000803e3d6000fd5b505050506040513d601f19601f8201168201806040525061210291908101906141a5565b600281111561210d57fe5b14156122005761211c87613678565b60048054600a5460405160e060020a63b7f999db028152600160a060020a0392831693637f290068938c93169163b7f999db9161215b918591016147fe565b602060405180830381600087803b15801561217557600080fd5b505af1158015612189573d6000803e3d6000fd5b505050506040513d601f19601f820116820180604052506121ad9190810190614036565b6040518363ffffffff1660e060020a0281526004016121cd92919061480c565b600060405180830381600087803b1580156121e757600080fd5b505af11580156121fb573d6000803e3d6000fd5b505050505b50505050505050565b60008061221461375d565b600354600160a060020a0316151561222b57600080fd5b600654600160a060020a0316151561224257600080fd5b600554600160a060020a0316151561225957600080fd5b600254600160a060020a0316151561227057600080fd5b600454600160a060020a0316151561228757600080fd5b600a54600160a060020a0316151561229e57600080fd5b60035460405160e160020a6324d40aef0281528591600160a060020a0316906349a815de906122d1908490600401614a1b565b602060405180830381600087803b1580156122eb57600080fd5b505af11580156122ff573d6000803e3d6000fd5b505050506040513d601f19601f820116820180604052506123239190810190614169565b151561232e57600080fd5b60065460e08601515160405160e160020a6352c894d1028152600160a060020a039092169163a59129a291612365916004016149a4565b602060405180830381600087803b15801561237f57600080fd5b505af1158015612393573d6000803e3d6000fd5b505050506040513d601f19601f820116820180604052506123b79190810190614169565b156123c157600080fd5b60035460405160e060020a63a06d2eb7028152600160a060020a039091169063a06d2eb7906123f69088908a90600401614a2c565b602060405180830381600087803b15801561241057600080fd5b505af1158015612424573d6000803e3d6000fd5b505050506040513d601f19601f820116820180604052506124489190810190614169565b151561245357600080fd5b60055460405160e060020a639243c9db028152600160a060020a0390911690639243c9db906124869089906004016147fe565b602060405180830381600087803b1580156124a057600080fd5b505af11580156124b4573d6000803e3d6000fd5b505050506040513d601f19601f820116820180604052506124d89190810190614169565b156124e257600080fd5b8451600a5460405160e060020a6377b9e845028152600160a060020a03909116906377b9e84590612517908a906004016147fe565b602060405180830381600087803b15801561253157600080fd5b505af1158015612545573d6000803e3d6000fd5b505050506040513d601f19601f8201168201806040525061256991908101906141c3565b1461257357600080fd5b600a5460405160e060020a63c213a4bd028152600191600160a060020a03169063c213a4bd906125a7908a906004016147fe565b602060405180830381600087803b1580156125c157600080fd5b505af11580156125d5573d6000803e3d6000fd5b505050506040513d601f19601f820116820180604052506125f991908101906141a5565b600281111561260457fe5b1415612d1657600260009054906101000a9004600160a060020a0316600160a060020a031663f71e860f6040518163ffffffff1660e060020a028152600401602060405180830381600087803b15801561265d57600080fd5b505af1158015612671573d6000803e3d6000fd5b505050506040513d601f19601f820116820180604052506126959190810190614169565b80156127275750600560009054906101000a9004600160a060020a0316600160a060020a031663994e20766040518163ffffffff1660e060020a028152600401602060405180830381600087803b1580156126ef57600080fd5b505af1158015612703573d6000803e3d6000fd5b505050506040513d601f19601f820116820180604052506127279190810190614169565b8061273457506007548551105b151561273f57600080fd5b845161274a90610c26565b61277b57845160a086015180516020918201516080890151805193015161277694936000939291612ea2565b612788565b84516127889060006130cc565b93506127948587613701565b92508260018111156127a257fe5b1580156127bb5750600384015460a060020a900460ff16155b806127e857508260018111156127cd57fe5b60011480156127e85750600584015460a060020a900460ff16155b15156127f357600080fd5b8260018111156127ff57fe5b15156128225760038401805460a060020a60ff02191660a060020a17905561283b565b60058401805460a060020a60ff02191660a060020a1790555b60035460405160e160020a63442bc8d1028152600160a060020a039091169063885791a2906128709088908a90600401614a2c565b602060405180830381600087803b15801561288a57600080fd5b505af115801561289e573d6000803e3d6000fd5b505050506040513d601f19601f820116820180604052506128c29190810190614169565b6128d0578460a001516128d6565b84608001515b8551600160a060020a038089166000908152601160209081526040808320818c018051515190951684528252808320935151820151835292905220549193501115612ac8578451600160a060020a038088166000908152601160209081526040808320818b0180515151861685529083528184208151518401518552835292819020949094556004805460a088015151519351518051930151955160e560020a63057fe07d02815294169463affc0fa094612998948d949093909291016148dc565b600060405180830381600087803b1580156129b257600080fd5b505af11580156129c6573d6000803e3d6000fd5b505060048054600a546040808b015151905160e160020a633007230f028152600160a060020a03938416965063cd49737d95508c94929093169263600e461e92612a1492869290910161492c565b602060405180830381600087803b158015612a2e57600080fd5b505af1158015612a42573d6000803e3d6000fd5b505050506040513d601f19601f82011682018060405250612a6691908101906141c3565b6040808a0151518051602090910151915160e060020a63ffffffff8716028152612a95949392906004016148dc565b600060405180830381600087803b158015612aaf57600080fd5b505af1158015612ac3573d6000803e3d6000fd5b505050505b8451600160a060020a038088166000908152601160209081526040808320818b01805184015151909516845282528083209351820151820151835292905220541015612cc8578451600160a060020a038088166000908152601160209081526040808320818b018051840151518616855290835281842081518401518401518552835292819020949094556004805460a08801518301515193518301518051930151955160e560020a63057fe07d02815294169463affc0fa094612b93948d949093909291016148dc565b600060405180830381600087803b158015612bad57600080fd5b505af1158015612bc1573d6000803e3d6000fd5b505060048054600a546040808b015160200151905160e160020a633007230f028152600160a060020a03938416965063cd49737d95508c94929093169263600e461e92612c1292869290910161492c565b602060405180830381600087803b158015612c2c57600080fd5b505af1158015612c40573d6000803e3d6000fd5b505050506040513d601f19601f82011682018060405250612c6491908101906141c3565b6040808a01516020908101518051910151915160e060020a63ffffffff8716028152612c95949392906004016148dc565b600060405180830381600087803b158015612caf57600080fd5b505af1158015612cc3573d6000803e3d6000fd5b505050505b600b54600160a060020a031615612d005760c082015160200151600b548651612d009289929091600160a060020a0390911690613168565b60075485511115612d115784516007555b612e9a565b600a5460405160e060020a63c213a4bd028152600291600160a060020a03169063c213a4bd90612d4a908a906004016147fe565b602060405180830381600087803b158015612d6457600080fd5b505af1158015612d78573d6000803e3d6000fd5b505050506040513d601f19601f82011682018060405250612d9c91908101906141a5565b6002811115612da757fe5b1415612e9a57612db686613678565b60048054600a5460405160e060020a63b7f999db028152600160a060020a0392831693637f290068938b93169163b7f999db91612df5918591016147fe565b602060405180830381600087803b158015612e0f57600080fd5b505af1158015612e23573d6000803e3d6000fd5b505050506040513d601f19601f82011682018060405250612e479190810190614036565b6040518363ffffffff1660e060020a028152600401612e6792919061480c565b600060405180830381600087803b158015612e8157600080fd5b505af1158015612e95573d6000803e3d6000fd5b505050505b505050505050565b6000612eac61372b565b878152600060208201886001811115612ec157fe5b90816001811115612ece57fe5b9052506040805160608082018352898252600160a060020a03898116602080850191909152600084860181905287860194909452845180840186528a81529189168282015293810183905290850152600d805460018082018084559290935285517fd7b6990105719101dabeb77144f2a3385c8033acd3af97e9423a695e81ad1eb56006909202918201908155938601517fd7b6990105719101dabeb77144f2a3385c8033acd3af97e9423a695e81ad1eb6909101805492948794909360ff1916908381811115612f9b57fe5b02179055506040828101518051600284015560208082015160038501805493850151600160a060020a0319948516600160a060020a039384161760a060020a60ff021990811660a060020a92151583021790925560609097015180516004880155808401516005909701805491870151919095169683169690961716941515909502939093179055600d805460008f8152600e85528381208290558c8616808252600f865284822080546001818101835591845287842001849055968c16808352858320805498890181558352868320909701839055815260108086528482208f835286528482208390559581529484528285208b86529093529220819055815490935090915060001983019081106130b057fe5b9060005260206000209060060201925050509695505050505050565b6000828152600e6020526040812054600d805483919060001984019081106130f057fe5b6000918252602090912060016006909202018181015490925060ff169081111561311657fe5b84600181111561312257fe5b1461312c57600080fd5b949350505050565b6000826060015160200151600160a060020a031682600160a060020a03161461315e576001613161565b60005b9392505050565b60005b8351811015610aa357600160a060020a0385166000908152601260205260408120855184929087908590811061319d57fe5b906020019060200201516020015160000151600160a060020a0316600160a060020a03168152602001908152602001600020600086848151811015156131df57fe5b906020019060200201516020015160200151815260200190815260200160002054101561367057600160a060020a0385166000908152601260205260408120855184929087908590811061322f57fe5b906020019060200201516020015160000151600160a060020a0316600160a060020a031681526020019081526020016000206000868481518110151561327157fe5b906020019060200201516020015160200151815260200190815260200160002081905550600460009054906101000a9004600160a060020a0316600160a060020a031663406b20f88685601360008a600160a060020a0316600160a060020a03168152602001908152602001600020600089878151811015156132f057fe5b906020019060200201516020015160000151600160a060020a0316600160a060020a031681526020019081526020016000206000898781518110151561333257fe5b906020019060200201516020015160200151815260200190815260200160002054888681518110151561336157fe5b906020019060200201516000015103888681518110151561337e57fe5b602090810290910181015101515189518a908890811061339a57fe5b9060200190602002015160200151602001516040518663ffffffff1660e060020a0281526004016133cf959493929190614890565b600060405180830381600087803b1580156133e957600080fd5b505af11580156133fd573d6000803e3d6000fd5b50505050838181518110151561340f57fe5b602090810290910181015151600160a060020a038716600090815260139092526040822086519192909187908590811061344557fe5b906020019060200201516020015160000151600160a060020a0316600160a060020a031681526020019081526020016000206000868481518110151561348757fe5b9060200190602002015160200151602001518152602001908152602001600020819055507fcf95bd1434d3d81d57df8ff645c6a99767697fe055159ee32cc344f356e37f0e856013600088600160a060020a0316600160a060020a031681526020019081526020016000206000878581518110151561350257fe5b906020019060200201516020015160000151600160a060020a0316600160a060020a031681526020019081526020016000206000878581518110151561354457fe5b906020019060200201516020015160200151815260200190815260200160002054868481518110151561357357fe5b9060200190602002015160000151036013600089600160a060020a0316600160a060020a03168152602001908152602001600020600088868151811015156135b757fe5b906020019060200201516020015160000151600160a060020a0316600160a060020a03168152602001908152602001600020600088868151811015156135f957fe5b906020019060200201516020015160200151815260200190815260200160002054878581518110151561362857fe5b6020908102909101810151015151885189908790811061364457fe5b906020019060200201516020015160200151604051613667959493929190614911565b60405180910390a15b60010161316b565b600160a060020a03811660009081526009602052604090205460ff161515611159576008805460018181019092557ff3f7a9fe364faab93b216da50a3214154f22a0a2b415b23a84c8169e8b636ee3018054600160a060020a038416600160a060020a031990911681179091556000908152600960205260409020805460ff1916909117905550565b60008260a0015160200151600160a060020a031682600160a060020a03161461315e576001613161565b60408051610100810182526000808252602082015290810161374b6137a7565b81526020016137586137a7565b905290565b6040805161022081018252600080825260208201819052918101829052906060820190815260200161378d6137c7565b815260200161379a6137ef565b8152602001613758613803565b604080516060810182526000808252602082018190529181019190915290565b60a060405190810160405280600081526020016137e2613824565b8152602001613758613824565b6080604051908101604052806137e2613824565b60806040519081016040528061381761383b565b8152602001606081525090565b604080518082019091526000808252602082015290565b60606040519081016040528060008152602001613758604080518082019091526000808252602082015290565b60006131618235614ac3565b60006131618251614ac3565b6000601f8201831361389157600080fd5b81356138a461389f82614a99565b614a73565b915081818352602084019350602081019050838560608402820111156138c957600080fd5b60005b838110156138f757816138df88826139ba565b845250602090920191606091909101906001016138cc565b5050505092915050565b60006131618251614acf565b60006131618235614ad4565b60006131618235614af9565b60006131618235614b04565b60006131618251614b13565b60006131618251614ad4565b60006040828403121561395b57600080fd5b6139656040614a73565b905060006139738484613868565b82525060206139848484830161390d565b60208301525092915050565b6000604082840312156139a257600080fd5b6139ac6040614a73565b90506000613973848461390d565b6000606082840312156139cc57600080fd5b6139d66040614a73565b905060006139e4848461390d565b825250602061398484848301613949565b600060808284031215613a0757600080fd5b613a116040614a73565b90506000613a1f8484613949565b825250604061398484848301613949565b600060808284031215613a4257600080fd5b613a4c6040614a73565b90506000613a5a8484613990565b825250604061398484848301613990565b600060a08284031215613a7d57600080fd5b613a876080614a73565b90506000613a95848461390d565b8252506020613aa684848301613868565b6020830152506040613aba84828501613990565b60408301525060808201356001604060020a03811115613ad957600080fd5b613ae584828501613d55565b60608301525092915050565b600060a08284031215613b0357600080fd5b613b0d6080614a73565b90506000613b1b848461390d565b8252506020613b2c84848301613868565b6020830152506040613b4084828501613990565b60408301525060808201356001604060020a03811115613b5f57600080fd5b613ae584828501613d03565b60006102408284031215613b7e57600080fd5b613b89610120614a73565b90506000613b97848461390d565b8252506020613ba88484830161390d565b6020830152506040613bbc84828501613949565b60408301525060808201356001604060020a03811115613bdb57600080fd5b613be784828501613af1565b60608301525060a08201356001604060020a03811115613c0657600080fd5b613c1284828501613a6b565b60808301525060c0613c2684828501613990565b60a083015250610100613c3b84828501613fd0565b60c083015250610200613c508482850161390d565b60e083015250610220613c658482850161390d565b6101008301525092915050565b600060808284031215613c8457600080fd5b613c8e6040614a73565b90506000613c9c848461390d565b825250602061398484848301600060608284031215613cba57600080fd5b613cc46060614a73565b90506000613cd2848461390d565b8252506020613ce38484830161390d565b6020830152506040613cf78482850161400c565b60408301525092915050565b600060808284031215613d1557600080fd5b613d1f6040614a73565b90506000613d2d84846139ba565b82525060608201356001604060020a03811115613d4957600080fd5b61398484828501613880565b600060208284031215613d6757600080fd5b613d716020614a73565b905081356001604060020a03811115613d8957600080fd5b613d9584828501613880565b82525092915050565b600060a08284031215613db057600080fd5b613dba6060614a73565b90506000613dc8848461390d565b8252506020613dd984848301613990565b6020830152506060613cf784828501613990565b60006101c08284031215613e0057600080fd5b613e0a60e0614a73565b90506000613e18848461390d565b8252506020613e2984848301613868565b6020830152506040613e3d8482850161390d565b6040830152506060613e5184828501613925565b6060830152506080613e6584828501613d9e565b608083015250610120613e7a84828501613a30565b60a0830152506101a08201356001604060020a03811115613e9a57600080fd5b613ea684828501613d03565b60c08301525092915050565b60006102608284031215613ec557600080fd5b613ed0610140614a73565b90506000613ede848461390d565b8252506020613eef8484830161390d565b6020830152506040613f03848285016139f5565b60408301525060c0613f178482850161390d565b60608301525060e08201356001604060020a03811115613f3657600080fd5b613f4284828501613ded565b6080830152506101008201356001604060020a03811115613f6257600080fd5b613f6e84828501613ded565b60a083015250610120613f8384828501613a30565b60c0830152506101a0613f9884828501613c72565b60e083015250610220613fad8482850161390d565b61010083015250610240613fc38482850161390d565b6101208301525092915050565b60006101008284031215613fe357600080fd5b613fed6040614a73565b90506000613ffb8484613c72565b825250608061398484848301613c72565b60006131618235614af3565b60006020828403121561402a57600080fd5b600061312c8484613868565b60006020828403121561404857600080fd5b600061312c8484613874565b60008060006060848603121561406957600080fd5b60006140758686613868565b935050602061408686828701613868565b92505060406140978682870161390d565b9150509250925092565b600080604083850312156140b457600080fd5b60006140c08585613868565b92505060208301356001604060020a038111156140dc57600080fd5b6140e885828601613b6b565b9150509250929050565b6000806040838503121561410557600080fd5b60006141118585613868565b92505060208301356001604060020a0381111561412d57600080fd5b6140e885828601613eb2565b6000806040838503121561414c57600080fd5b60006141588585613868565b92505060206140e88582860161390d565b60006020828403121561417b57600080fd5b600061312c8484613901565b60006020828403121561419957600080fd5b600061312c8484613919565b6000602082840312156141b757600080fd5b600061312c8484613931565b6000602082840312156141d557600080fd5b600061312c848461393d565b6000602082840312156141f357600080fd5b81356001604060020a0381111561420957600080fd5b61312c84828501613b6b565b60006020828403121561422757600080fd5b81356001604060020a0381111561423d57600080fd5b61312c84828501613eb2565b60006020828403121561425b57600080fd5b600061312c848461390d565b61427081614ac3565b82525050565b600061428182614abf565b80845260208401935061429383614ab9565b60005b828110156142c3576142a9868351614335565b6142b282614ab9565b606096909601959150600101614296565b5093949350505050565b61427081614acf565b61427081614ad4565b61427081614af9565b61427081614b22565b61427081614b2d565b8051604083019061430b8482614267565b50602082015161431e60208501826142d6565b50505050565b8051604083019061430b84826142d6565b8051606083019061434684826142d6565b50602082015161431e60208501826142fa565b8051608083019061436a84826142fa565b50602082015161431e60408501826142fa565b8051608083019061438e8482614324565b50602082015161431e6040850182614324565b805160009060a08401906143b585826142d6565b5060208301516143c86020860182614267565b5060408301516143db6040860182614324565b50606083015184820360808601526143f3828261461e565b95945050505050565b805160009060a084019061441085826142d6565b5060208301516144236020860182614267565b5060408301516144366040860182614324565b50606083015184820360808601526143f382826145f2565b805160009061024084019061446385826142d6565b50602083015161447660208601826142d6565b50604083015161448960408601826142fa565b50606083015184820360808601526144a182826143fc565b915050608083015184820360a08601526144bb82826143a1565b91505060a08301516144d060c0860182614324565b5060c08301516144e46101008601826147d0565b5060e08301516144f86102008601826142d6565b5061010083015161450d6102208601826142d6565b509392505050565b8051608083019061452684826142d6565b50602082015161431e60208501826145bb565b8051606083019061454a84826142d6565b50602082015161455d6020850182614267565b50604082015161431e60408501826142cd565b805161010083019061458284826142d6565b50602082015161459560208501826142e8565b5060408201516145a86040850182614539565b50606082015161431e60a0850182614539565b805160608301906145cc84826142d6565b5060208201516145df60208501826142d6565b50604082015161431e60408501826147f5565b805160009060808401906146068582614335565b50602083015184820360608601526143f38282614276565b80516020808452600091908401906143f38282614276565b805160a083019061464784826142d6565b50602082015161465a6020850182614324565b50604082015161431e6060850182614324565b80516000906101c084019061468285826142d6565b5060208301516146956020860182614267565b5060408301516146a860408601826142d6565b5060608301516146bb60608601826142e8565b5060808301516146ce6080860182614636565b5060a08301516146e261012086018261437d565b5060c08301518482036101a08601526143f382826145f2565b805160009061026084019061471085826142d6565b50602083015161472360208601826142d6565b5060408301516147366040860182614359565b50606083015161474960c08601826142d6565b50608083015184820360e0860152614761828261466d565b91505060a083015184820361010086015261477c828261466d565b91505060c083015161479261012086018261437d565b5060e08301516147a66101a0860182614515565b506101008301516147bb6102208601826142d6565b5061012083015161450d6102408601826142d6565b80516101008301906147e28482614515565b50602082015161431e6080850182614515565b61427081614af3565b602081016110848284614267565b6040810161481a8285614267565b6131616020830184614267565b608081016148358287614267565b6148426020830186614267565b8181036040830152614854818561444e565b90506143f360608301846142f1565b608081016148718287614267565b61487e6020830186614267565b818103604083015261485481856146fb565b60a0810161489e8288614267565b6148ab60208301876142df565b6148b860408301866142d6565b6148c56060830185614267565b6148d260808301846142d6565b9695505050505050565b608081016148ea8287614267565b6148f760208301866142d6565b6149046040830185614267565b6143f360608301846142d6565b60a0810161491f8288614267565b6148ab60208301876142d6565b6060810161493a8285614267565b61316160208301846142fa565b606081016149558286614267565b8181036020830152614967818561444e565b905061312c60408301846142f1565b606081016149848286614267565b818103602083015261496781856146fb565b6020810161108482846142cd565b6020810161108482846142d6565b6020810161108482846142df565b604081016149ce82856142df565b61316160208301846142df565b60208082528101613161818461444e565b604080825281016149fd818561444e565b90506131616020830184614267565b61010081016110848284614570565b6020808252810161316181846146fb565b604080825281016149fd81856146fb565b6101008101614a4c82876142d6565b614a5960208301866142e8565b614a666040830185614539565b6143f360a0830184614539565b6040518181016001604060020a0381118282101715614a9157600080fd5b604052919050565b60006001604060020a03821115614aaf57600080fd5b5060209081020190565b60200190565b5190565b600160a060020a031690565b151590565b90565b600060028210614ae357fe5b5090565b600060038210614ae357fe5b60ff1690565b600061108482614ac3565b600060028210614ae357600080fd5b600060038210614ae357600080fd5b600061108482614ad7565b600061108482614ae75600a265627a7a7230582084befb2a5f59e607edd37862584730893ed569335e7382f80b54a4145d9caa506c6578706572696d656e74616cf50037",
    "source": "/*\n * Hubii Nahmii\n *\n * Compliant with the Hubii Nahmii specification v0.12.\n *\n * Copyright (C) 2017-2018 Hubii AS\n */\n\npragma solidity ^0.4.24;\npragma experimental ABIEncoderV2;\n\nimport {Ownable} from \"./Ownable.sol\";\nimport {Configurable} from \"./Configurable.sol\";\nimport {Validatable} from \"./Validatable.sol\";\nimport {ClientFundable} from \"./ClientFundable.sol\";\nimport {CommunityVotable} from \"./CommunityVotable.sol\";\nimport {FraudChallengable} from \"./FraudChallengable.sol\";\nimport {RevenueFund} from \"./RevenueFund.sol\";\nimport {DriipSettlementChallenge} from \"./DriipSettlementChallenge.sol\";\nimport {Beneficiary} from \"./Beneficiary.sol\";\nimport {SafeMathIntLib} from \"./SafeMathIntLib.sol\";\nimport {SafeMathUintLib} from \"./SafeMathUintLib.sol\";\nimport {MonetaryTypesLib} from \"./MonetaryTypesLib.sol\";\nimport {NahmiiTypesLib} from \"./NahmiiTypesLib.sol\";\nimport {SettlementTypesLib} from \"./SettlementTypesLib.sol\";\n\n/**\n@title DriipSettlement\n@notice Where driip settlements are finalized\n*/\ncontract DriipSettlement is Ownable, Configurable, Validatable, ClientFundable, CommunityVotable, FraudChallengable {\n    using SafeMathIntLib for int256;\n    using SafeMathUintLib for uint256;\n\n    //\n    // Variables\n    // -----------------------------------------------------------------------------------------------------------------\n    uint256 public maxDriipNonce;\n\n    address[] public seizedWallets;\n    mapping(address => bool) public seizedWalletsMap;\n\n    DriipSettlementChallenge public driipSettlementChallenge;\n    RevenueFund public tradesRevenueFund;\n    RevenueFund public paymentsRevenueFund;\n\n    NahmiiTypesLib.Settlement[] public settlements;\n    mapping(uint256 => uint256) public nonceSettlementIndex;\n    mapping(address => uint256[]) public walletSettlementIndices;\n    mapping(address => mapping(uint256 => uint256)) public walletNonceSettlementIndex;\n    mapping(address => mapping(address => mapping(uint256 => uint256))) public walletCurrencyMaxDriipNonce;\n\n    mapping(address => mapping(address => mapping(uint256 => uint256))) public walletCurrencyFeeNonce;\n    mapping(address => mapping(address => mapping(uint256 => int256))) public walletCurrencyFeeCharged;\n\n    //\n    // Events\n    // -----------------------------------------------------------------------------------------------------------------\n    event SettleTradeEvent(address wallet, NahmiiTypesLib.Trade trade,\n        SettlementTypesLib.ProposalStatus proposalStatus);\n    event SettleTradeByProxyEvent(address proxy, address wallet, NahmiiTypesLib.Trade trade,\n        SettlementTypesLib.ProposalStatus proposalStatus);\n    event SettlePaymentEvent(address wallet, NahmiiTypesLib.Payment payment,\n        SettlementTypesLib.ProposalStatus proposalStatus);\n    event SettlePaymentByProxyEvent(address proxy, address wallet, NahmiiTypesLib.Payment payment,\n        SettlementTypesLib.ProposalStatus proposalStatus);\n    event ChangeDriipSettlementChallengeEvent(DriipSettlementChallenge oldDriipSettlementChallenge,\n        DriipSettlementChallenge newDriipSettlementChallenge);\n    event ChangeTradesRevenueFundEvent(RevenueFund oldRevenueFund, RevenueFund newRevenueFund);\n    event ChangePaymentsRevenueFundEvent(RevenueFund oldRevenueFund, RevenueFund newRevenueFund);\n    event StageTotalFeeEvent(address wallet, int256 deltaAmount, int256 cumulativeAmount, address currencyCt,\n        uint256 currencyId);\n\n    //\n    // Constructor\n    // -----------------------------------------------------------------------------------------------------------------\n    constructor(address deployer) Ownable(deployer) public {\n    }\n\n    //\n    // Functions\n    // -----------------------------------------------------------------------------------------------------------------\n    /// @notice Change the driip settlement challenge contract\n    /// @param newDriipSettlementChallenge The (address of) DriipSettlementChallenge contract instance\n    function changeDriipSettlementChallenge(DriipSettlementChallenge newDriipSettlementChallenge) public\n    onlyDeployer\n    notNullAddress(newDriipSettlementChallenge)\n    {\n        DriipSettlementChallenge oldDriipSettlementChallenge = driipSettlementChallenge;\n        driipSettlementChallenge = newDriipSettlementChallenge;\n        emit ChangeDriipSettlementChallengeEvent(oldDriipSettlementChallenge, driipSettlementChallenge);\n    }\n\n    /// @notice Change the trades revenue fund contract\n    /// @param newTradesRevenueFund The (address of) trades RevenueFund contract instance\n    function changeTradesRevenueFund(RevenueFund newTradesRevenueFund) public\n    onlyDeployer\n    notNullAddress(newTradesRevenueFund)\n    {\n        RevenueFund oldTradesRevenueFund = tradesRevenueFund;\n        tradesRevenueFund = newTradesRevenueFund;\n        emit ChangeTradesRevenueFundEvent(oldTradesRevenueFund, tradesRevenueFund);\n    }\n\n    /// @notice Change the payments revenue fund contract\n    /// @param newPaymentsRevenueFund The (address of) payments RevenueFund contract instance\n    function changePaymentsRevenueFund(RevenueFund newPaymentsRevenueFund) public\n    onlyDeployer\n    notNullAddress(newPaymentsRevenueFund)\n    {\n        RevenueFund oldPaymentsRevenueFund = paymentsRevenueFund;\n        paymentsRevenueFund = newPaymentsRevenueFund;\n        emit ChangePaymentsRevenueFundEvent(oldPaymentsRevenueFund, paymentsRevenueFund);\n    }\n\n    /// @notice Get the seized status of given wallet\n    /// @return true if wallet is seized, false otherwise\n    function isSeizedWallet(address wallet) public view returns (bool) {\n        return seizedWalletsMap[wallet];\n    }\n\n    /// @notice Get the number of wallets whose funds have be seized\n    /// @return Number of wallets\n    function seizedWalletsCount() public view returns (uint256) {\n        return seizedWallets.length;\n    }\n\n    /// @notice Get the count of settlements\n    function settlementsCount() public view returns (uint256) {\n        return settlements.length;\n    }\n\n    /// @notice Return boolean indicating whether there is already a settlement for the given (global) nonce\n    /// @param nonce The nonce for which to check for settlement\n    /// @return true if there exists a settlement for the provided nonce, false otherwise\n    function hasSettlementByNonce(uint256 nonce) public view returns (bool) {\n        return 0 < nonceSettlementIndex[nonce];\n    }\n\n    /// @notice Get the settlement for the given (global) nonce\n    /// @param nonce The nonce of the settlement\n    /// @return settlement of the provided nonce\n    function settlementByNonce(uint256 nonce) public view returns (NahmiiTypesLib.Settlement) {\n        require(hasSettlementByNonce(nonce));\n        return settlements[nonceSettlementIndex[nonce] - 1];\n    }\n\n    /// @notice Get the count of settlements for given wallet\n    /// @param wallet The address for which to return settlement count\n    /// @return count of settlements for the provided wallet\n    function settlementsCountByWallet(address wallet) public view returns (uint256) {\n        return walletSettlementIndices[wallet].length;\n    }\n\n    /// @notice Get settlement of given wallet and index\n    /// @param wallet The address for which to return settlement\n    /// @param index The wallet's settlement index\n    /// @return settlement for the provided wallet and index\n    function settlementByWalletAndIndex(address wallet, uint256 index) public view returns (NahmiiTypesLib.Settlement) {\n        require(walletSettlementIndices[wallet].length > index);\n        return settlements[walletSettlementIndices[wallet][index] - 1];\n    }\n\n    /// @notice Get settlement of given wallet and (wallet) nonce\n    /// @param wallet The address for which to return settlement\n    /// @param nonce The wallet's nonce\n    /// @return settlement for the provided wallet and index\n    function settlementByWalletAndNonce(address wallet, uint256 nonce) public view returns (NahmiiTypesLib.Settlement) {\n        require(0 < walletNonceSettlementIndex[wallet][nonce]);\n        return settlements[walletNonceSettlementIndex[wallet][nonce] - 1];\n    }\n\n    /// @notice Update the max driip nonce property from CommunityVote contract\n    function updateMaxDriipNonce() public {\n        uint256 _maxDriipNonce = communityVote.getMaxDriipNonce();\n        if (_maxDriipNonce > 0) {\n            maxDriipNonce = _maxDriipNonce;\n        }\n    }\n\n    /// @notice Settle driip that is a trade\n    /// @param trade The trade to be settled\n    function settleTrade(NahmiiTypesLib.Trade trade)\n    public\n    {\n        // Settle trade\n        settleTradePrivate(msg.sender, trade);\n\n        // Emit event\n        emit SettleTradeEvent(msg.sender, trade, driipSettlementChallenge.proposalStatus(msg.sender));\n    }\n\n    /// @notice Settle driip that is a trade\n    /// @param wallet The wallet whose side of the trade is to be settled\n    /// @param trade The trade to be settled\n    function settleTradeByProxy(address wallet, NahmiiTypesLib.Trade trade)\n    public\n    onlyDeployer\n    {\n        // Settle trade for wallet\n        settleTradePrivate(wallet, trade);\n\n        // Emit event\n        emit SettleTradeByProxyEvent(msg.sender, wallet, trade, driipSettlementChallenge.proposalStatus(wallet));\n    }\n\n    /// @notice Settle driip that is a payment\n    /// @param payment The payment to be settled\n    function settlePayment(NahmiiTypesLib.Payment payment)\n    public\n    {\n        // Settle payment\n        settlePaymentPrivate(msg.sender, payment);\n\n        // Emit event\n        emit SettlePaymentEvent(msg.sender, payment, driipSettlementChallenge.proposalStatus(msg.sender));\n    }\n\n    /// @notice Settle driip that is a payment\n    /// @param wallet The wallet whose side of the payment is to be settled\n    /// @param payment The payment to be settled\n    function settlePaymentByProxy(address wallet, NahmiiTypesLib.Payment payment)\n    public\n    onlyDeployer\n    {\n        // Settle payment for wallet\n        settlePaymentPrivate(wallet, payment);\n\n        // Emit event\n        emit SettlePaymentByProxyEvent(msg.sender, wallet, payment, driipSettlementChallenge.proposalStatus(wallet));\n    }\n\n    function settleTradePrivate(address wallet, NahmiiTypesLib.Trade trade)\n    private\n    validatorInitialized\n    fraudChallengeInitialized\n    communityVoteInitialized\n    configurationInitialized\n    clientFundInitialized\n    driipSettlementChallengeInitialized\n    onlySealedTrade(trade)\n    {\n        require(!fraudChallenge.isFraudulentTradeHash(trade.seal.hash));\n        require(validator.isTradeParty(trade, wallet));\n        require(!communityVote.isDoubleSpenderWallet(wallet));\n\n        // Require that the wallet's current driip settlement challenge is wrt this trade\n        require(driipSettlementChallenge.proposalNonce(wallet) == trade.nonce);\n\n        // The current driip settlement challenge qualified for settlement\n        if (driipSettlementChallenge.proposalStatus(wallet) == SettlementTypesLib.ProposalStatus.Qualified) {\n\n            require((configuration.isOperationalModeNormal() && communityVote.isDataAvailable())\n                || (trade.nonce < maxDriipNonce));\n\n            // Get settlement, or create one if no such settlement exists for the trade nonce\n            NahmiiTypesLib.Settlement storage settlement = hasSettlementByNonce(trade.nonce) ?\n            getSettlement(\n                trade.nonce, NahmiiTypesLib.DriipType.Trade\n            ) :\n            createSettlement(\n                trade.nonce, NahmiiTypesLib.DriipType.Trade, trade.seller.nonce,\n                trade.seller.wallet, trade.buyer.nonce, trade.buyer.wallet\n            );\n\n            // Get settlement role\n            SettlementTypesLib.SettlementRole settlementRole = getSettlementRoleFromTrade(trade, wallet);\n\n            // If exists settlement of nonce then require that wallet has not already settled\n            require(\n                (SettlementTypesLib.SettlementRole.Origin == settlementRole && !settlement.origin.done) ||\n                (SettlementTypesLib.SettlementRole.Target == settlementRole && !settlement.target.done)\n            );\n\n            // Set address of origin or target to prevent the same settlement from being resettled by this wallet\n            if (SettlementTypesLib.SettlementRole.Origin == settlementRole)\n                settlement.origin.done = true;\n            else\n                settlement.target.done = true;\n\n            NahmiiTypesLib.TradeParty memory party = validator.isTradeBuyer(trade, wallet) ? trade.buyer : trade.seller;\n\n            // If wallet has previously settled balance of the intended currency with higher driip nonce, then don't\n            // settle its balance again\n            if (walletCurrencyMaxDriipNonce[wallet][trade.currencies.intended.ct][trade.currencies.intended.id] < trade.nonce) {\n                // Update settled nonce of wallet and currency\n                walletCurrencyMaxDriipNonce[wallet][trade.currencies.intended.ct][trade.currencies.intended.id] = trade.nonce;\n\n                // Update settled balance\n                clientFund.updateSettledBalance(\n                    wallet, party.balances.intended.current, trade.currencies.intended.ct, trade.currencies.intended.id\n                );\n\n                // Stage (stage function assures positive amount only)\n                clientFund.stage(\n                    wallet,\n                    driipSettlementChallenge.proposalStageAmount(wallet, trade.currencies.intended),\n                    trade.currencies.intended.ct,\n                    trade.currencies.intended.id\n                );\n            }\n\n            // If wallet has previously settled balance of the conjugate currency with higher driip nonce, then don't\n            // settle its balance again\n            if (walletCurrencyMaxDriipNonce[wallet][trade.currencies.conjugate.ct][trade.currencies.conjugate.id] < trade.nonce) {\n                // Update settled nonce of wallet and currency\n                walletCurrencyMaxDriipNonce[wallet][trade.currencies.conjugate.ct][trade.currencies.conjugate.id] = trade.nonce;\n\n                // Update settled balance\n                clientFund.updateSettledBalance(\n                    wallet, party.balances.conjugate.current, trade.currencies.conjugate.ct, trade.currencies.conjugate.id\n                );\n\n                // Stage (stage function assures positive amount only)\n                clientFund.stage(\n                    wallet,\n                    driipSettlementChallenge.proposalStageAmount(wallet, trade.currencies.conjugate),\n                    trade.currencies.conjugate.ct,\n                    trade.currencies.conjugate.id\n                );\n            }\n\n            // Stage fees to revenue fund\n            if (address(tradesRevenueFund) != address(0))\n                stageFees(wallet, party.fees.total, tradesRevenueFund, trade.nonce);\n\n            // If payment nonce is beyond max driip nonce then update max driip nonce\n            if (trade.nonce > maxDriipNonce)\n                maxDriipNonce = trade.nonce;\n        }\n\n        // The current driip settlement challenge disqualified for settlement\n        else if (driipSettlementChallenge.proposalStatus(wallet) == SettlementTypesLib.ProposalStatus.Disqualified) {\n            // Add wallet to store of seized wallets\n            addToSeizedWallets(wallet);\n\n            // Slash wallet's funds\n            clientFund.seizeAllBalances(wallet, driipSettlementChallenge.proposalChallenger(wallet));\n        }\n    }\n\n    function settlePaymentPrivate(address wallet, NahmiiTypesLib.Payment payment)\n    private\n    validatorInitialized\n    fraudChallengeInitialized\n    communityVoteInitialized\n    configurationInitialized\n    clientFundInitialized\n    driipSettlementChallengeInitialized\n    onlySealedPayment(payment)\n    {\n        require(!fraudChallenge.isFraudulentPaymentOperatorHash(payment.seals.operator.hash));\n        require(validator.isPaymentParty(payment, wallet));\n        require(!communityVote.isDoubleSpenderWallet(wallet));\n\n        // Require that the wallet's current driip settlement challenge is wrt this payment\n        require(driipSettlementChallenge.proposalNonce(wallet) == payment.nonce);\n\n        // The current driip settlement challenge qualified for settlement\n        if (driipSettlementChallenge.proposalStatus(wallet) == SettlementTypesLib.ProposalStatus.Qualified) {\n\n            require((configuration.isOperationalModeNormal() && communityVote.isDataAvailable())\n                || (payment.nonce < maxDriipNonce));\n\n            // Get settlement, or create one if no such settlement exists for the trade nonce\n            NahmiiTypesLib.Settlement storage settlement = hasSettlementByNonce(payment.nonce) ?\n            getSettlement(payment.nonce, NahmiiTypesLib.DriipType.Payment) :\n            createSettlement(payment.nonce, NahmiiTypesLib.DriipType.Payment,\n                payment.sender.nonce, payment.sender.wallet, payment.recipient.nonce, payment.recipient.wallet);\n\n            // Get settlement role\n            SettlementTypesLib.SettlementRole settlementRole = getSettlementRoleFromPayment(payment, wallet);\n\n            // If exists settlement of nonce then require that wallet has not already settled\n            require(\n                (SettlementTypesLib.SettlementRole.Origin == settlementRole && !settlement.origin.done) ||\n                (SettlementTypesLib.SettlementRole.Target == settlementRole && !settlement.target.done)\n            );\n\n            // Set address of origin or target to prevent the same settlement from being resettled by this wallet\n            if (SettlementTypesLib.SettlementRole.Origin == settlementRole)\n                settlement.origin.done = true;\n            else\n                settlement.target.done = true;\n\n            MonetaryTypesLib.Figure[] memory totalFees;\n            int256 currentBalance;\n            if (validator.isPaymentParty(payment, wallet)) {\n                totalFees = payment.sender.fees.total;\n                currentBalance = payment.sender.balances.current;\n            } else {\n                totalFees = payment.recipient.fees.total;\n                currentBalance = payment.recipient.balances.current;\n            }\n\n            // If wallet has previously settled balance of the concerned currency with higher driip nonce, then don't\n            // settle balance again\n            if (walletCurrencyMaxDriipNonce[wallet][payment.currency.ct][payment.currency.id] < payment.nonce) {\n                // Update settled nonce of wallet and currency\n                walletCurrencyMaxDriipNonce[wallet][payment.currency.ct][payment.currency.id] = payment.nonce;\n\n                // Update settled balance\n                clientFund.updateSettledBalance(wallet, currentBalance, payment.currency.ct, payment.currency.id);\n\n                // Stage (stage function assures positive amount only)\n                clientFund.stage(\n                    wallet,\n                    driipSettlementChallenge.proposalStageAmount(wallet, payment.currency),\n                    payment.currency.ct,\n                    payment.currency.id\n                );\n            }\n\n            // Stage fees to revenue fund\n            if (address(paymentsRevenueFund) != address(0))\n                stageFees(wallet, totalFees, paymentsRevenueFund, payment.nonce);\n\n            // If payment nonce is beyond max driip nonce then update max driip nonce\n            if (payment.nonce > maxDriipNonce)\n                maxDriipNonce = payment.nonce;\n        }\n\n        // The current driip settlement challenge disqualified for settlement\n        else if (driipSettlementChallenge.proposalStatus(wallet) == SettlementTypesLib.ProposalStatus.Disqualified) {\n            // Add wallet to store of seized wallets\n            addToSeizedWallets(wallet);\n\n            // Slash wallet's funds\n            clientFund.seizeAllBalances(wallet, driipSettlementChallenge.proposalChallenger(wallet));\n        }\n    }\n\n    function getSettlementRoleFromTrade(NahmiiTypesLib.Trade trade, address wallet)\n    private\n    pure\n    returns (SettlementTypesLib.SettlementRole)\n    {\n        return (wallet == trade.seller.wallet ?\n        SettlementTypesLib.SettlementRole.Origin :\n        SettlementTypesLib.SettlementRole.Target);\n    }\n\n    function getSettlementRoleFromPayment(NahmiiTypesLib.Payment payment, address wallet)\n    private\n    pure\n    returns (SettlementTypesLib.SettlementRole)\n    {\n        return (wallet == payment.sender.wallet ?\n        SettlementTypesLib.SettlementRole.Origin :\n        SettlementTypesLib.SettlementRole.Target);\n    }\n\n    function getSettlement(uint256 nonce, NahmiiTypesLib.DriipType driipType)\n    private\n    view\n    returns (NahmiiTypesLib.Settlement storage)\n    {\n        uint256 index = nonceSettlementIndex[nonce];\n        NahmiiTypesLib.Settlement storage settlement = settlements[index - 1];\n        require(driipType == settlement.driipType);\n        return settlement;\n    }\n\n    function createSettlement(uint256 nonce, NahmiiTypesLib.DriipType driipType,\n        uint256 originNonce, address originWallet, uint256 targetNonce, address targetWallet)\n    private\n    returns (NahmiiTypesLib.Settlement storage)\n    {\n        NahmiiTypesLib.Settlement memory settlement;\n        settlement.nonce = nonce;\n        settlement.driipType = driipType;\n        settlement.origin = NahmiiTypesLib.SettlementParty(originNonce, originWallet, false);\n        settlement.target = NahmiiTypesLib.SettlementParty(targetNonce, targetWallet, false);\n\n        settlements.push(settlement);\n\n        // Index is 1 based\n        uint256 index = settlements.length;\n        nonceSettlementIndex[nonce] = index;\n        walletSettlementIndices[originWallet].push(index);\n        walletSettlementIndices[targetWallet].push(index);\n        walletNonceSettlementIndex[originWallet][originNonce] = index;\n        walletNonceSettlementIndex[targetWallet][targetNonce] = index;\n\n        return settlements[index - 1];\n    }\n\n    function addToSeizedWallets(address _address) private {\n        if (!seizedWalletsMap[_address]) {\n            seizedWallets.push(_address);\n            seizedWalletsMap[_address] = true;\n        }\n    }\n\n    function stageFees(address wallet, MonetaryTypesLib.Figure[] fees,\n        Beneficiary beneficiary, uint256 nonce)\n    private\n    {\n        // For each fee figure...\n        for (uint256 i = 0; i < fees.length; i++) {\n            // If wallet has previously settled fee of the concerned currency with higher driip nonce then don't settle again\n            if (walletCurrencyFeeNonce[wallet][fees[i].currency.ct][fees[i].currency.id] < nonce) {\n                walletCurrencyFeeNonce[wallet][fees[i].currency.ct][fees[i].currency.id] = nonce;\n\n                // Stage delta of fee to beneficiary\n                clientFund.stageToBeneficiaryUntargeted(\n                    wallet, beneficiary,\n                    fees[i].amount - walletCurrencyFeeCharged[wallet][fees[i].currency.ct][fees[i].currency.id],\n                    fees[i].currency.ct, fees[i].currency.id\n                );\n\n                // Update fee charged\n                walletCurrencyFeeCharged[wallet][fees[i].currency.ct][fees[i].currency.id] = fees[i].amount;\n\n                // Emit event\n                emit StageTotalFeeEvent(wallet,\n                    fees[i].amount - walletCurrencyFeeCharged[wallet][fees[i].currency.ct][fees[i].currency.id],\n                    walletCurrencyFeeCharged[wallet][fees[i].currency.ct][fees[i].currency.id],\n                    fees[i].currency.ct, fees[i].currency.id);\n            }\n        }\n    }\n\n    //\n    // Modifiers\n    // -----------------------------------------------------------------------------------------------------------------\n    modifier driipSettlementChallengeInitialized() {\n        require(driipSettlementChallenge != address(0));\n        _;\n    }\n}",
    "sourcePath": "/Users/kata/dev/hubii/striim-contracts/contracts/DriipSettlement.sol",
    "compiler": {
        "name": "solc",
        "version": "0.4.24+commit.e67f0147.Emscripten.clang"
    },
    "schemaVersion": "2.0.1",
    "updatedAt": "2018-11-03T02:16:30.127Z"
}