{
  "contractName": "DriipSettlement",
  "abi": [
    {
      "constant": false,
      "inputs": [
        {
          "name": "newFraudChallenge",
          "type": "address"
        }
      ],
      "name": "setFraudChallenge",
      "outputs": [],
      "payable": false,
      "stateMutability": "nonpayable",
      "type": "function"
    },
    {
      "constant": true,
      "inputs": [
        {
          "name": "",
          "type": "uint256"
        }
      ],
      "name": "settlements",
      "outputs": [
        {
          "name": "nonce",
          "type": "uint256"
        },
        {
          "name": "driipType",
          "type": "uint8"
        },
        {
          "components": [
            {
              "name": "nonce",
              "type": "uint256"
            },
            {
              "name": "wallet",
              "type": "address"
            },
            {
              "name": "done",
              "type": "bool"
            }
          ],
          "name": "origin",
          "type": "tuple"
        },
        {
          "components": [
            {
              "name": "nonce",
              "type": "uint256"
            },
            {
              "name": "wallet",
              "type": "address"
            },
            {
              "name": "done",
              "type": "bool"
            }
          ],
          "name": "target",
          "type": "tuple"
        }
      ],
      "payable": false,
      "stateMutability": "view",
      "type": "function"
    },
    {
      "constant": false,
      "inputs": [
        {
          "name": "newValidator",
          "type": "address"
        }
      ],
      "name": "setValidator",
      "outputs": [],
      "payable": false,
      "stateMutability": "nonpayable",
      "type": "function"
    },
    {
      "constant": false,
      "inputs": [],
      "name": "triggerSelfDestruction",
      "outputs": [],
      "payable": false,
      "stateMutability": "nonpayable",
      "type": "function"
    },
    {
      "constant": false,
      "inputs": [],
      "name": "disableUpdateOfCommunityVote",
      "outputs": [],
      "payable": false,
      "stateMutability": "nonpayable",
      "type": "function"
    },
    {
      "constant": true,
      "inputs": [],
      "name": "selfDestructionDisabled",
      "outputs": [
        {
          "name": "",
          "type": "bool"
        }
      ],
      "payable": false,
      "stateMutability": "view",
      "type": "function"
    },
    {
      "constant": true,
      "inputs": [],
      "name": "validator",
      "outputs": [
        {
          "name": "",
          "type": "address"
        }
      ],
      "payable": false,
      "stateMutability": "view",
      "type": "function"
    },
    {
      "constant": true,
      "inputs": [],
      "name": "fraudChallenge",
      "outputs": [
        {
          "name": "",
          "type": "address"
        }
      ],
      "payable": false,
      "stateMutability": "view",
      "type": "function"
    },
    {
      "constant": true,
      "inputs": [],
      "name": "destructor",
      "outputs": [
        {
          "name": "",
          "type": "address"
        }
      ],
      "payable": false,
      "stateMutability": "view",
      "type": "function"
    },
    {
      "constant": true,
      "inputs": [],
      "name": "operator",
      "outputs": [
        {
          "name": "",
          "type": "address"
        }
      ],
      "payable": false,
      "stateMutability": "view",
      "type": "function"
    },
    {
      "constant": false,
      "inputs": [
        {
          "name": "newConfiguration",
          "type": "address"
        }
      ],
      "name": "setConfiguration",
      "outputs": [],
      "payable": false,
      "stateMutability": "nonpayable",
      "type": "function"
    },
    {
      "constant": true,
      "inputs": [],
      "name": "configuration",
      "outputs": [
        {
          "name": "",
          "type": "address"
        }
      ],
      "payable": false,
      "stateMutability": "view",
      "type": "function"
    },
    {
      "constant": false,
      "inputs": [],
      "name": "disableSelfDestruction",
      "outputs": [],
      "payable": false,
      "stateMutability": "nonpayable",
      "type": "function"
    },
    {
      "constant": true,
      "inputs": [],
      "name": "maxDriipNonce",
      "outputs": [
        {
          "name": "",
          "type": "uint256"
        }
      ],
      "payable": false,
      "stateMutability": "view",
      "type": "function"
    },
    {
      "constant": true,
      "inputs": [
        {
          "name": "",
          "type": "address"
        },
        {
          "name": "",
          "type": "uint256"
        }
      ],
      "name": "walletSettlementIndices",
      "outputs": [
        {
          "name": "",
          "type": "uint256"
        }
      ],
      "payable": false,
      "stateMutability": "view",
      "type": "function"
    },
    {
      "constant": false,
      "inputs": [
        {
          "name": "newDeployer",
          "type": "address"
        }
      ],
      "name": "setDeployer",
      "outputs": [],
      "payable": false,
      "stateMutability": "nonpayable",
      "type": "function"
    },
    {
      "constant": true,
      "inputs": [
        {
          "name": "",
          "type": "uint256"
        }
      ],
      "name": "nonceSettlementIndex",
      "outputs": [
        {
          "name": "",
          "type": "uint256"
        }
      ],
      "payable": false,
      "stateMutability": "view",
      "type": "function"
    },
    {
      "constant": true,
      "inputs": [],
      "name": "paymentsRevenueFund",
      "outputs": [
        {
          "name": "",
          "type": "address"
        }
      ],
      "payable": false,
      "stateMutability": "view",
      "type": "function"
    },
    {
      "constant": false,
      "inputs": [
        {
          "name": "newOperator",
          "type": "address"
        }
      ],
      "name": "setOperator",
      "outputs": [],
      "payable": false,
      "stateMutability": "nonpayable",
      "type": "function"
    },
    {
      "constant": false,
      "inputs": [
        {
          "name": "newClientFund",
          "type": "address"
        }
      ],
      "name": "setClientFund",
      "outputs": [],
      "payable": false,
      "stateMutability": "nonpayable",
      "type": "function"
    },
    {
      "constant": true,
      "inputs": [],
      "name": "communityVote",
      "outputs": [
        {
          "name": "",
          "type": "address"
        }
      ],
      "payable": false,
      "stateMutability": "view",
      "type": "function"
    },
    {
      "constant": true,
      "inputs": [],
      "name": "tradesRevenueFund",
      "outputs": [
        {
          "name": "",
          "type": "address"
        }
      ],
      "payable": false,
      "stateMutability": "view",
      "type": "function"
    },
    {
      "constant": true,
      "inputs": [],
      "name": "communityVoteUpdateDisabled",
      "outputs": [
        {
          "name": "",
          "type": "bool"
        }
      ],
      "payable": false,
      "stateMutability": "view",
      "type": "function"
    },
    {
      "constant": true,
      "inputs": [],
      "name": "deployer",
      "outputs": [
        {
          "name": "",
          "type": "address"
        }
      ],
      "payable": false,
      "stateMutability": "view",
      "type": "function"
    },
    {
      "constant": true,
      "inputs": [
        {
          "name": "",
          "type": "address"
        },
        {
          "name": "",
          "type": "uint256"
        }
      ],
      "name": "walletNonceSettlementIndex",
      "outputs": [
        {
          "name": "",
          "type": "uint256"
        }
      ],
      "payable": false,
      "stateMutability": "view",
      "type": "function"
    },
    {
      "constant": true,
      "inputs": [
        {
          "name": "",
          "type": "address"
        },
        {
          "name": "",
          "type": "address"
        },
        {
          "name": "",
          "type": "address"
        },
        {
          "name": "",
          "type": "address"
        },
        {
          "name": "",
          "type": "uint256"
        }
      ],
      "name": "feeTotalsMap",
      "outputs": [
        {
          "name": "nonce",
          "type": "uint256"
        },
        {
          "name": "amount",
          "type": "int256"
        }
      ],
      "payable": false,
      "stateMutability": "view",
      "type": "function"
    },
    {
      "constant": true,
      "inputs": [
        {
          "name": "",
          "type": "address"
        },
        {
          "name": "",
          "type": "address"
        },
        {
          "name": "",
          "type": "uint256"
        }
      ],
      "name": "walletCurrencyMaxDriipNonce",
      "outputs": [
        {
          "name": "",
          "type": "uint256"
        }
      ],
      "payable": false,
      "stateMutability": "view",
      "type": "function"
    },
    {
      "constant": true,
      "inputs": [],
      "name": "clientFund",
      "outputs": [
        {
          "name": "",
          "type": "address"
        }
      ],
      "payable": false,
      "stateMutability": "view",
      "type": "function"
    },
    {
      "constant": false,
      "inputs": [
        {
          "name": "newCommunityVote",
          "type": "address"
        }
      ],
      "name": "setCommunityVote",
      "outputs": [],
      "payable": false,
      "stateMutability": "nonpayable",
      "type": "function"
    },
    {
      "constant": true,
      "inputs": [],
      "name": "partnerFund",
      "outputs": [
        {
          "name": "",
          "type": "address"
        }
      ],
      "payable": false,
      "stateMutability": "view",
      "type": "function"
    },
    {
      "constant": true,
      "inputs": [],
      "name": "driipSettlementChallenge",
      "outputs": [
        {
          "name": "",
          "type": "address"
        }
      ],
      "payable": false,
      "stateMutability": "view",
      "type": "function"
    },
    {
      "inputs": [
        {
          "name": "deployer",
          "type": "address"
        }
      ],
      "payable": false,
      "stateMutability": "nonpayable",
      "type": "constructor"
    },
    {
      "anonymous": false,
      "inputs": [
        {
          "indexed": false,
          "name": "wallet",
          "type": "address"
        },
        {
          "components": [
            {
              "name": "nonce",
              "type": "uint256"
            },
            {
              "name": "amount",
              "type": "int256"
            },
            {
              "components": [
                {
                  "components": [
                    {
                      "name": "ct",
                      "type": "address"
                    },
                    {
                      "name": "id",
                      "type": "uint256"
                    }
                  ],
                  "name": "intended",
                  "type": "tuple"
                },
                {
                  "components": [
                    {
                      "name": "ct",
                      "type": "address"
                    },
                    {
                      "name": "id",
                      "type": "uint256"
                    }
                  ],
                  "name": "conjugate",
                  "type": "tuple"
                }
              ],
              "name": "currencies",
              "type": "tuple"
            },
            {
              "name": "rate",
              "type": "int256"
            },
            {
              "components": [
                {
                  "name": "nonce",
                  "type": "uint256"
                },
                {
                  "name": "wallet",
                  "type": "address"
                },
                {
                  "name": "rollingVolume",
                  "type": "uint256"
                },
                {
                  "name": "liquidityRole",
                  "type": "uint8"
                },
                {
                  "components": [
                    {
                      "name": "amount",
                      "type": "int256"
                    },
                    {
                      "components": [
                        {
                          "name": "wallet",
                          "type": "bytes32"
                        },
                        {
                          "name": "operator",
                          "type": "bytes32"
                        }
                      ],
                      "name": "hashes",
                      "type": "tuple"
                    },
                    {
                      "components": [
                        {
                          "name": "current",
                          "type": "int256"
                        },
                        {
                          "name": "previous",
                          "type": "int256"
                        }
                      ],
                      "name": "residuals",
                      "type": "tuple"
                    }
                  ],
                  "name": "order",
                  "type": "tuple"
                },
                {
                  "components": [
                    {
                      "components": [
                        {
                          "name": "current",
                          "type": "int256"
                        },
                        {
                          "name": "previous",
                          "type": "int256"
                        }
                      ],
                      "name": "intended",
                      "type": "tuple"
                    },
                    {
                      "components": [
                        {
                          "name": "current",
                          "type": "int256"
                        },
                        {
                          "name": "previous",
                          "type": "int256"
                        }
                      ],
                      "name": "conjugate",
                      "type": "tuple"
                    }
                  ],
                  "name": "balances",
                  "type": "tuple"
                },
                {
                  "components": [
                    {
                      "components": [
                        {
                          "name": "amount",
                          "type": "int256"
                        },
                        {
                          "components": [
                            {
                              "name": "ct",
                              "type": "address"
                            },
                            {
                              "name": "id",
                              "type": "uint256"
                            }
                          ],
                          "name": "currency",
                          "type": "tuple"
                        }
                      ],
                      "name": "single",
                      "type": "tuple"
                    },
                    {
                      "components": [
                        {
                          "name": "originId",
                          "type": "uint256"
                        },
                        {
                          "components": [
                            {
                              "name": "amount",
                              "type": "int256"
                            },
                            {
                              "components": [
                                {
                                  "name": "ct",
                                  "type": "address"
                                },
                                {
                                  "name": "id",
                                  "type": "uint256"
                                }
                              ],
                              "name": "currency",
                              "type": "tuple"
                            }
                          ],
                          "name": "figure",
                          "type": "tuple"
                        }
                      ],
                      "name": "total",
                      "type": "tuple[]"
                    }
                  ],
                  "name": "fees",
                  "type": "tuple"
                }
              ],
              "name": "buyer",
              "type": "tuple"
            },
            {
              "components": [
                {
                  "name": "nonce",
                  "type": "uint256"
                },
                {
                  "name": "wallet",
                  "type": "address"
                },
                {
                  "name": "rollingVolume",
                  "type": "uint256"
                },
                {
                  "name": "liquidityRole",
                  "type": "uint8"
                },
                {
                  "components": [
                    {
                      "name": "amount",
                      "type": "int256"
                    },
                    {
                      "components": [
                        {
                          "name": "wallet",
                          "type": "bytes32"
                        },
                        {
                          "name": "operator",
                          "type": "bytes32"
                        }
                      ],
                      "name": "hashes",
                      "type": "tuple"
                    },
                    {
                      "components": [
                        {
                          "name": "current",
                          "type": "int256"
                        },
                        {
                          "name": "previous",
                          "type": "int256"
                        }
                      ],
                      "name": "residuals",
                      "type": "tuple"
                    }
                  ],
                  "name": "order",
                  "type": "tuple"
                },
                {
                  "components": [
                    {
                      "components": [
                        {
                          "name": "current",
                          "type": "int256"
                        },
                        {
                          "name": "previous",
                          "type": "int256"
                        }
                      ],
                      "name": "intended",
                      "type": "tuple"
                    },
                    {
                      "components": [
                        {
                          "name": "current",
                          "type": "int256"
                        },
                        {
                          "name": "previous",
                          "type": "int256"
                        }
                      ],
                      "name": "conjugate",
                      "type": "tuple"
                    }
                  ],
                  "name": "balances",
                  "type": "tuple"
                },
                {
                  "components": [
                    {
                      "components": [
                        {
                          "name": "amount",
                          "type": "int256"
                        },
                        {
                          "components": [
                            {
                              "name": "ct",
                              "type": "address"
                            },
                            {
                              "name": "id",
                              "type": "uint256"
                            }
                          ],
                          "name": "currency",
                          "type": "tuple"
                        }
                      ],
                      "name": "single",
                      "type": "tuple"
                    },
                    {
                      "components": [
                        {
                          "name": "originId",
                          "type": "uint256"
                        },
                        {
                          "components": [
                            {
                              "name": "amount",
                              "type": "int256"
                            },
                            {
                              "components": [
                                {
                                  "name": "ct",
                                  "type": "address"
                                },
                                {
                                  "name": "id",
                                  "type": "uint256"
                                }
                              ],
                              "name": "currency",
                              "type": "tuple"
                            }
                          ],
                          "name": "figure",
                          "type": "tuple"
                        }
                      ],
                      "name": "total",
                      "type": "tuple[]"
                    }
                  ],
                  "name": "fees",
                  "type": "tuple"
                }
              ],
              "name": "seller",
              "type": "tuple"
            },
            {
              "components": [
                {
                  "components": [
                    {
                      "name": "single",
                      "type": "int256"
                    },
                    {
                      "name": "total",
                      "type": "int256"
                    }
                  ],
                  "name": "intended",
                  "type": "tuple"
                },
                {
                  "components": [
                    {
                      "name": "single",
                      "type": "int256"
                    },
                    {
                      "name": "total",
                      "type": "int256"
                    }
                  ],
                  "name": "conjugate",
                  "type": "tuple"
                }
              ],
              "name": "transfers",
              "type": "tuple"
            },
            {
              "components": [
                {
                  "name": "hash",
                  "type": "bytes32"
                },
                {
                  "components": [
                    {
                      "name": "r",
                      "type": "bytes32"
                    },
                    {
                      "name": "s",
                      "type": "bytes32"
                    },
                    {
                      "name": "v",
                      "type": "uint8"
                    }
                  ],
                  "name": "signature",
                  "type": "tuple"
                }
              ],
              "name": "seal",
              "type": "tuple"
            },
            {
              "name": "blockNumber",
              "type": "uint256"
            },
            {
              "name": "operatorId",
              "type": "uint256"
            }
          ],
          "indexed": false,
          "name": "trade",
          "type": "tuple"
        }
      ],
      "name": "SettleTradeEvent",
      "type": "event"
    },
    {
      "anonymous": false,
      "inputs": [
        {
          "indexed": false,
          "name": "proxy",
          "type": "address"
        },
        {
          "indexed": false,
          "name": "wallet",
          "type": "address"
        },
        {
          "components": [
            {
              "name": "nonce",
              "type": "uint256"
            },
            {
              "name": "amount",
              "type": "int256"
            },
            {
              "components": [
                {
                  "components": [
                    {
                      "name": "ct",
                      "type": "address"
                    },
                    {
                      "name": "id",
                      "type": "uint256"
                    }
                  ],
                  "name": "intended",
                  "type": "tuple"
                },
                {
                  "components": [
                    {
                      "name": "ct",
                      "type": "address"
                    },
                    {
                      "name": "id",
                      "type": "uint256"
                    }
                  ],
                  "name": "conjugate",
                  "type": "tuple"
                }
              ],
              "name": "currencies",
              "type": "tuple"
            },
            {
              "name": "rate",
              "type": "int256"
            },
            {
              "components": [
                {
                  "name": "nonce",
                  "type": "uint256"
                },
                {
                  "name": "wallet",
                  "type": "address"
                },
                {
                  "name": "rollingVolume",
                  "type": "uint256"
                },
                {
                  "name": "liquidityRole",
                  "type": "uint8"
                },
                {
                  "components": [
                    {
                      "name": "amount",
                      "type": "int256"
                    },
                    {
                      "components": [
                        {
                          "name": "wallet",
                          "type": "bytes32"
                        },
                        {
                          "name": "operator",
                          "type": "bytes32"
                        }
                      ],
                      "name": "hashes",
                      "type": "tuple"
                    },
                    {
                      "components": [
                        {
                          "name": "current",
                          "type": "int256"
                        },
                        {
                          "name": "previous",
                          "type": "int256"
                        }
                      ],
                      "name": "residuals",
                      "type": "tuple"
                    }
                  ],
                  "name": "order",
                  "type": "tuple"
                },
                {
                  "components": [
                    {
                      "components": [
                        {
                          "name": "current",
                          "type": "int256"
                        },
                        {
                          "name": "previous",
                          "type": "int256"
                        }
                      ],
                      "name": "intended",
                      "type": "tuple"
                    },
                    {
                      "components": [
                        {
                          "name": "current",
                          "type": "int256"
                        },
                        {
                          "name": "previous",
                          "type": "int256"
                        }
                      ],
                      "name": "conjugate",
                      "type": "tuple"
                    }
                  ],
                  "name": "balances",
                  "type": "tuple"
                },
                {
                  "components": [
                    {
                      "components": [
                        {
                          "name": "amount",
                          "type": "int256"
                        },
                        {
                          "components": [
                            {
                              "name": "ct",
                              "type": "address"
                            },
                            {
                              "name": "id",
                              "type": "uint256"
                            }
                          ],
                          "name": "currency",
                          "type": "tuple"
                        }
                      ],
                      "name": "single",
                      "type": "tuple"
                    },
                    {
                      "components": [
                        {
                          "name": "originId",
                          "type": "uint256"
                        },
                        {
                          "components": [
                            {
                              "name": "amount",
                              "type": "int256"
                            },
                            {
                              "components": [
                                {
                                  "name": "ct",
                                  "type": "address"
                                },
                                {
                                  "name": "id",
                                  "type": "uint256"
                                }
                              ],
                              "name": "currency",
                              "type": "tuple"
                            }
                          ],
                          "name": "figure",
                          "type": "tuple"
                        }
                      ],
                      "name": "total",
                      "type": "tuple[]"
                    }
                  ],
                  "name": "fees",
                  "type": "tuple"
                }
              ],
              "name": "buyer",
              "type": "tuple"
            },
            {
              "components": [
                {
                  "name": "nonce",
                  "type": "uint256"
                },
                {
                  "name": "wallet",
                  "type": "address"
                },
                {
                  "name": "rollingVolume",
                  "type": "uint256"
                },
                {
                  "name": "liquidityRole",
                  "type": "uint8"
                },
                {
                  "components": [
                    {
                      "name": "amount",
                      "type": "int256"
                    },
                    {
                      "components": [
                        {
                          "name": "wallet",
                          "type": "bytes32"
                        },
                        {
                          "name": "operator",
                          "type": "bytes32"
                        }
                      ],
                      "name": "hashes",
                      "type": "tuple"
                    },
                    {
                      "components": [
                        {
                          "name": "current",
                          "type": "int256"
                        },
                        {
                          "name": "previous",
                          "type": "int256"
                        }
                      ],
                      "name": "residuals",
                      "type": "tuple"
                    }
                  ],
                  "name": "order",
                  "type": "tuple"
                },
                {
                  "components": [
                    {
                      "components": [
                        {
                          "name": "current",
                          "type": "int256"
                        },
                        {
                          "name": "previous",
                          "type": "int256"
                        }
                      ],
                      "name": "intended",
                      "type": "tuple"
                    },
                    {
                      "components": [
                        {
                          "name": "current",
                          "type": "int256"
                        },
                        {
                          "name": "previous",
                          "type": "int256"
                        }
                      ],
                      "name": "conjugate",
                      "type": "tuple"
                    }
                  ],
                  "name": "balances",
                  "type": "tuple"
                },
                {
                  "components": [
                    {
                      "components": [
                        {
                          "name": "amount",
                          "type": "int256"
                        },
                        {
                          "components": [
                            {
                              "name": "ct",
                              "type": "address"
                            },
                            {
                              "name": "id",
                              "type": "uint256"
                            }
                          ],
                          "name": "currency",
                          "type": "tuple"
                        }
                      ],
                      "name": "single",
                      "type": "tuple"
                    },
                    {
                      "components": [
                        {
                          "name": "originId",
                          "type": "uint256"
                        },
                        {
                          "components": [
                            {
                              "name": "amount",
                              "type": "int256"
                            },
                            {
                              "components": [
                                {
                                  "name": "ct",
                                  "type": "address"
                                },
                                {
                                  "name": "id",
                                  "type": "uint256"
                                }
                              ],
                              "name": "currency",
                              "type": "tuple"
                            }
                          ],
                          "name": "figure",
                          "type": "tuple"
                        }
                      ],
                      "name": "total",
                      "type": "tuple[]"
                    }
                  ],
                  "name": "fees",
                  "type": "tuple"
                }
              ],
              "name": "seller",
              "type": "tuple"
            },
            {
              "components": [
                {
                  "components": [
                    {
                      "name": "single",
                      "type": "int256"
                    },
                    {
                      "name": "total",
                      "type": "int256"
                    }
                  ],
                  "name": "intended",
                  "type": "tuple"
                },
                {
                  "components": [
                    {
                      "name": "single",
                      "type": "int256"
                    },
                    {
                      "name": "total",
                      "type": "int256"
                    }
                  ],
                  "name": "conjugate",
                  "type": "tuple"
                }
              ],
              "name": "transfers",
              "type": "tuple"
            },
            {
              "components": [
                {
                  "name": "hash",
                  "type": "bytes32"
                },
                {
                  "components": [
                    {
                      "name": "r",
                      "type": "bytes32"
                    },
                    {
                      "name": "s",
                      "type": "bytes32"
                    },
                    {
                      "name": "v",
                      "type": "uint8"
                    }
                  ],
                  "name": "signature",
                  "type": "tuple"
                }
              ],
              "name": "seal",
              "type": "tuple"
            },
            {
              "name": "blockNumber",
              "type": "uint256"
            },
            {
              "name": "operatorId",
              "type": "uint256"
            }
          ],
          "indexed": false,
          "name": "trade",
          "type": "tuple"
        }
      ],
      "name": "SettleTradeByProxyEvent",
      "type": "event"
    },
    {
      "anonymous": false,
      "inputs": [
        {
          "indexed": false,
          "name": "wallet",
          "type": "address"
        },
        {
          "components": [
            {
              "name": "nonce",
              "type": "uint256"
            },
            {
              "name": "amount",
              "type": "int256"
            },
            {
              "components": [
                {
                  "name": "ct",
                  "type": "address"
                },
                {
                  "name": "id",
                  "type": "uint256"
                }
              ],
              "name": "currency",
              "type": "tuple"
            },
            {
              "components": [
                {
                  "name": "nonce",
                  "type": "uint256"
                },
                {
                  "name": "wallet",
                  "type": "address"
                },
                {
                  "components": [
                    {
                      "name": "current",
                      "type": "int256"
                    },
                    {
                      "name": "previous",
                      "type": "int256"
                    }
                  ],
                  "name": "balances",
                  "type": "tuple"
                },
                {
                  "components": [
                    {
                      "components": [
                        {
                          "name": "amount",
                          "type": "int256"
                        },
                        {
                          "components": [
                            {
                              "name": "ct",
                              "type": "address"
                            },
                            {
                              "name": "id",
                              "type": "uint256"
                            }
                          ],
                          "name": "currency",
                          "type": "tuple"
                        }
                      ],
                      "name": "single",
                      "type": "tuple"
                    },
                    {
                      "components": [
                        {
                          "name": "originId",
                          "type": "uint256"
                        },
                        {
                          "components": [
                            {
                              "name": "amount",
                              "type": "int256"
                            },
                            {
                              "components": [
                                {
                                  "name": "ct",
                                  "type": "address"
                                },
                                {
                                  "name": "id",
                                  "type": "uint256"
                                }
                              ],
                              "name": "currency",
                              "type": "tuple"
                            }
                          ],
                          "name": "figure",
                          "type": "tuple"
                        }
                      ],
                      "name": "total",
                      "type": "tuple[]"
                    }
                  ],
                  "name": "fees",
                  "type": "tuple"
                }
              ],
              "name": "sender",
              "type": "tuple"
            },
            {
              "components": [
                {
                  "name": "nonce",
                  "type": "uint256"
                },
                {
                  "name": "wallet",
                  "type": "address"
                },
                {
                  "components": [
                    {
                      "name": "current",
                      "type": "int256"
                    },
                    {
                      "name": "previous",
                      "type": "int256"
                    }
                  ],
                  "name": "balances",
                  "type": "tuple"
                },
                {
                  "components": [
                    {
                      "components": [
                        {
                          "name": "originId",
                          "type": "uint256"
                        },
                        {
                          "components": [
                            {
                              "name": "amount",
                              "type": "int256"
                            },
                            {
                              "components": [
                                {
                                  "name": "ct",
                                  "type": "address"
                                },
                                {
                                  "name": "id",
                                  "type": "uint256"
                                }
                              ],
                              "name": "currency",
                              "type": "tuple"
                            }
                          ],
                          "name": "figure",
                          "type": "tuple"
                        }
                      ],
                      "name": "total",
                      "type": "tuple[]"
                    }
                  ],
                  "name": "fees",
                  "type": "tuple"
                }
              ],
              "name": "recipient",
              "type": "tuple"
            },
            {
              "components": [
                {
                  "name": "single",
                  "type": "int256"
                },
                {
                  "name": "total",
                  "type": "int256"
                }
              ],
              "name": "transfers",
              "type": "tuple"
            },
            {
              "components": [
                {
                  "components": [
                    {
                      "name": "hash",
                      "type": "bytes32"
                    },
                    {
                      "components": [
                        {
                          "name": "r",
                          "type": "bytes32"
                        },
                        {
                          "name": "s",
                          "type": "bytes32"
                        },
                        {
                          "name": "v",
                          "type": "uint8"
                        }
                      ],
                      "name": "signature",
                      "type": "tuple"
                    }
                  ],
                  "name": "wallet",
                  "type": "tuple"
                },
                {
                  "components": [
                    {
                      "name": "hash",
                      "type": "bytes32"
                    },
                    {
                      "components": [
                        {
                          "name": "r",
                          "type": "bytes32"
                        },
                        {
                          "name": "s",
                          "type": "bytes32"
                        },
                        {
                          "name": "v",
                          "type": "uint8"
                        }
                      ],
                      "name": "signature",
                      "type": "tuple"
                    }
                  ],
                  "name": "operator",
                  "type": "tuple"
                }
              ],
              "name": "seals",
              "type": "tuple"
            },
            {
              "name": "blockNumber",
              "type": "uint256"
            },
            {
              "name": "operatorId",
              "type": "uint256"
            }
          ],
          "indexed": false,
          "name": "payment",
          "type": "tuple"
        }
      ],
      "name": "SettlePaymentEvent",
      "type": "event"
    },
    {
      "anonymous": false,
      "inputs": [
        {
          "indexed": false,
          "name": "proxy",
          "type": "address"
        },
        {
          "indexed": false,
          "name": "wallet",
          "type": "address"
        },
        {
          "components": [
            {
              "name": "nonce",
              "type": "uint256"
            },
            {
              "name": "amount",
              "type": "int256"
            },
            {
              "components": [
                {
                  "name": "ct",
                  "type": "address"
                },
                {
                  "name": "id",
                  "type": "uint256"
                }
              ],
              "name": "currency",
              "type": "tuple"
            },
            {
              "components": [
                {
                  "name": "nonce",
                  "type": "uint256"
                },
                {
                  "name": "wallet",
                  "type": "address"
                },
                {
                  "components": [
                    {
                      "name": "current",
                      "type": "int256"
                    },
                    {
                      "name": "previous",
                      "type": "int256"
                    }
                  ],
                  "name": "balances",
                  "type": "tuple"
                },
                {
                  "components": [
                    {
                      "components": [
                        {
                          "name": "amount",
                          "type": "int256"
                        },
                        {
                          "components": [
                            {
                              "name": "ct",
                              "type": "address"
                            },
                            {
                              "name": "id",
                              "type": "uint256"
                            }
                          ],
                          "name": "currency",
                          "type": "tuple"
                        }
                      ],
                      "name": "single",
                      "type": "tuple"
                    },
                    {
                      "components": [
                        {
                          "name": "originId",
                          "type": "uint256"
                        },
                        {
                          "components": [
                            {
                              "name": "amount",
                              "type": "int256"
                            },
                            {
                              "components": [
                                {
                                  "name": "ct",
                                  "type": "address"
                                },
                                {
                                  "name": "id",
                                  "type": "uint256"
                                }
                              ],
                              "name": "currency",
                              "type": "tuple"
                            }
                          ],
                          "name": "figure",
                          "type": "tuple"
                        }
                      ],
                      "name": "total",
                      "type": "tuple[]"
                    }
                  ],
                  "name": "fees",
                  "type": "tuple"
                }
              ],
              "name": "sender",
              "type": "tuple"
            },
            {
              "components": [
                {
                  "name": "nonce",
                  "type": "uint256"
                },
                {
                  "name": "wallet",
                  "type": "address"
                },
                {
                  "components": [
                    {
                      "name": "current",
                      "type": "int256"
                    },
                    {
                      "name": "previous",
                      "type": "int256"
                    }
                  ],
                  "name": "balances",
                  "type": "tuple"
                },
                {
                  "components": [
                    {
                      "components": [
                        {
                          "name": "originId",
                          "type": "uint256"
                        },
                        {
                          "components": [
                            {
                              "name": "amount",
                              "type": "int256"
                            },
                            {
                              "components": [
                                {
                                  "name": "ct",
                                  "type": "address"
                                },
                                {
                                  "name": "id",
                                  "type": "uint256"
                                }
                              ],
                              "name": "currency",
                              "type": "tuple"
                            }
                          ],
                          "name": "figure",
                          "type": "tuple"
                        }
                      ],
                      "name": "total",
                      "type": "tuple[]"
                    }
                  ],
                  "name": "fees",
                  "type": "tuple"
                }
              ],
              "name": "recipient",
              "type": "tuple"
            },
            {
              "components": [
                {
                  "name": "single",
                  "type": "int256"
                },
                {
                  "name": "total",
                  "type": "int256"
                }
              ],
              "name": "transfers",
              "type": "tuple"
            },
            {
              "components": [
                {
                  "components": [
                    {
                      "name": "hash",
                      "type": "bytes32"
                    },
                    {
                      "components": [
                        {
                          "name": "r",
                          "type": "bytes32"
                        },
                        {
                          "name": "s",
                          "type": "bytes32"
                        },
                        {
                          "name": "v",
                          "type": "uint8"
                        }
                      ],
                      "name": "signature",
                      "type": "tuple"
                    }
                  ],
                  "name": "wallet",
                  "type": "tuple"
                },
                {
                  "components": [
                    {
                      "name": "hash",
                      "type": "bytes32"
                    },
                    {
                      "components": [
                        {
                          "name": "r",
                          "type": "bytes32"
                        },
                        {
                          "name": "s",
                          "type": "bytes32"
                        },
                        {
                          "name": "v",
                          "type": "uint8"
                        }
                      ],
                      "name": "signature",
                      "type": "tuple"
                    }
                  ],
                  "name": "operator",
                  "type": "tuple"
                }
              ],
              "name": "seals",
              "type": "tuple"
            },
            {
              "name": "blockNumber",
              "type": "uint256"
            },
            {
              "name": "operatorId",
              "type": "uint256"
            }
          ],
          "indexed": false,
          "name": "payment",
          "type": "tuple"
        }
      ],
      "name": "SettlePaymentByProxyEvent",
      "type": "event"
    },
    {
      "anonymous": false,
      "inputs": [
        {
          "indexed": false,
          "name": "oldDriipSettlementChallenge",
          "type": "address"
        },
        {
          "indexed": false,
          "name": "newDriipSettlementChallenge",
          "type": "address"
        }
      ],
      "name": "SetDriipSettlementChallengeEvent",
      "type": "event"
    },
    {
      "anonymous": false,
      "inputs": [
        {
          "indexed": false,
          "name": "oldRevenueFund",
          "type": "address"
        },
        {
          "indexed": false,
          "name": "newRevenueFund",
          "type": "address"
        }
      ],
      "name": "SetTradesRevenueFundEvent",
      "type": "event"
    },
    {
      "anonymous": false,
      "inputs": [
        {
          "indexed": false,
          "name": "oldRevenueFund",
          "type": "address"
        },
        {
          "indexed": false,
          "name": "newRevenueFund",
          "type": "address"
        }
      ],
      "name": "SetPaymentsRevenueFundEvent",
      "type": "event"
    },
    {
      "anonymous": false,
      "inputs": [
        {
          "indexed": false,
          "name": "oldPartnerFund",
          "type": "address"
        },
        {
          "indexed": false,
          "name": "newPartnerFund",
          "type": "address"
        }
      ],
      "name": "SetPartnerFundEvent",
      "type": "event"
    },
    {
      "anonymous": false,
      "inputs": [
        {
          "indexed": false,
          "name": "wallet",
          "type": "address"
        },
        {
          "indexed": false,
          "name": "deltaAmount",
          "type": "int256"
        },
        {
          "indexed": false,
          "name": "cumulativeAmount",
          "type": "int256"
        },
        {
          "indexed": false,
          "name": "currencyCt",
          "type": "address"
        },
        {
          "indexed": false,
          "name": "currencyId",
          "type": "uint256"
        }
      ],
      "name": "StageFeesEvent",
      "type": "event"
    },
    {
      "anonymous": false,
      "inputs": [
        {
          "indexed": false,
          "name": "oldFraudChallenge",
          "type": "address"
        },
        {
          "indexed": false,
          "name": "newFraudChallenge",
          "type": "address"
        }
      ],
      "name": "SetFraudChallengeEvent",
      "type": "event"
    },
    {
      "anonymous": false,
      "inputs": [
        {
          "indexed": false,
          "name": "oldCommunityVote",
          "type": "address"
        },
        {
          "indexed": false,
          "name": "newCommunityVote",
          "type": "address"
        }
      ],
      "name": "SetCommunityVoteEvent",
      "type": "event"
    },
    {
      "anonymous": false,
      "inputs": [
        {
          "indexed": false,
          "name": "oldClientFund",
          "type": "address"
        },
        {
          "indexed": false,
          "name": "newClientFund",
          "type": "address"
        }
      ],
      "name": "SetClientFundEvent",
      "type": "event"
    },
    {
      "anonymous": false,
      "inputs": [
        {
          "indexed": false,
          "name": "oldValidator",
          "type": "address"
        },
        {
          "indexed": false,
          "name": "newValidator",
          "type": "address"
        }
      ],
      "name": "SetValidatorEvent",
      "type": "event"
    },
    {
      "anonymous": false,
      "inputs": [
        {
          "indexed": false,
          "name": "oldConfiguration",
          "type": "address"
        },
        {
          "indexed": false,
          "name": "newConfiguration",
          "type": "address"
        }
      ],
      "name": "SetConfigurationEvent",
      "type": "event"
    },
    {
      "anonymous": false,
      "inputs": [
        {
          "indexed": false,
          "name": "oldDeployer",
          "type": "address"
        },
        {
          "indexed": false,
          "name": "newDeployer",
          "type": "address"
        }
      ],
      "name": "SetDeployerEvent",
      "type": "event"
    },
    {
      "anonymous": false,
      "inputs": [
        {
          "indexed": false,
          "name": "oldOperator",
          "type": "address"
        },
        {
          "indexed": false,
          "name": "newOperator",
          "type": "address"
        }
      ],
      "name": "SetOperatorEvent",
      "type": "event"
    },
    {
      "anonymous": false,
      "inputs": [
        {
          "indexed": false,
          "name": "wallet",
          "type": "address"
        }
      ],
      "name": "SelfDestructionDisabledEvent",
      "type": "event"
    },
    {
      "anonymous": false,
      "inputs": [
        {
          "indexed": false,
          "name": "wallet",
          "type": "address"
        }
      ],
      "name": "TriggerSelfDestructionEvent",
      "type": "event"
    },
    {
      "constant": false,
      "inputs": [
        {
          "name": "newDriipSettlementChallenge",
          "type": "address"
        }
      ],
      "name": "setDriipSettlementChallenge",
      "outputs": [],
      "payable": false,
      "stateMutability": "nonpayable",
      "type": "function"
    },
    {
      "constant": false,
      "inputs": [
        {
          "name": "newTradesRevenueFund",
          "type": "address"
        }
      ],
      "name": "setTradesRevenueFund",
      "outputs": [],
      "payable": false,
      "stateMutability": "nonpayable",
      "type": "function"
    },
    {
      "constant": false,
      "inputs": [
        {
          "name": "newPaymentsRevenueFund",
          "type": "address"
        }
      ],
      "name": "setPaymentsRevenueFund",
      "outputs": [],
      "payable": false,
      "stateMutability": "nonpayable",
      "type": "function"
    },
    {
      "constant": false,
      "inputs": [
        {
          "name": "newPartnerFund",
          "type": "address"
        }
      ],
      "name": "setPartnerFund",
      "outputs": [],
      "payable": false,
      "stateMutability": "nonpayable",
      "type": "function"
    },
    {
      "constant": true,
      "inputs": [],
      "name": "settlementsCount",
      "outputs": [
        {
          "name": "",
          "type": "uint256"
        }
      ],
      "payable": false,
      "stateMutability": "view",
      "type": "function"
    },
    {
      "constant": true,
      "inputs": [
        {
          "name": "nonce",
          "type": "uint256"
        }
      ],
      "name": "hasSettlementByNonce",
      "outputs": [
        {
          "name": "",
          "type": "bool"
        }
      ],
      "payable": false,
      "stateMutability": "view",
      "type": "function"
    },
    {
      "constant": true,
      "inputs": [
        {
          "name": "nonce",
          "type": "uint256"
        }
      ],
      "name": "settlementByNonce",
      "outputs": [
        {
          "components": [
            {
              "name": "nonce",
              "type": "uint256"
            },
            {
              "name": "driipType",
              "type": "uint8"
            },
            {
              "components": [
                {
                  "name": "nonce",
                  "type": "uint256"
                },
                {
                  "name": "wallet",
                  "type": "address"
                },
                {
                  "name": "done",
                  "type": "bool"
                }
              ],
              "name": "origin",
              "type": "tuple"
            },
            {
              "components": [
                {
                  "name": "nonce",
                  "type": "uint256"
                },
                {
                  "name": "wallet",
                  "type": "address"
                },
                {
                  "name": "done",
                  "type": "bool"
                }
              ],
              "name": "target",
              "type": "tuple"
            }
          ],
          "name": "",
          "type": "tuple"
        }
      ],
      "payable": false,
      "stateMutability": "view",
      "type": "function"
    },
    {
      "constant": true,
      "inputs": [
        {
          "name": "wallet",
          "type": "address"
        }
      ],
      "name": "settlementsCountByWallet",
      "outputs": [
        {
          "name": "",
          "type": "uint256"
        }
      ],
      "payable": false,
      "stateMutability": "view",
      "type": "function"
    },
    {
      "constant": true,
      "inputs": [
        {
          "name": "wallet",
          "type": "address"
        },
        {
          "name": "index",
          "type": "uint256"
        }
      ],
      "name": "settlementByWalletAndIndex",
      "outputs": [
        {
          "components": [
            {
              "name": "nonce",
              "type": "uint256"
            },
            {
              "name": "driipType",
              "type": "uint8"
            },
            {
              "components": [
                {
                  "name": "nonce",
                  "type": "uint256"
                },
                {
                  "name": "wallet",
                  "type": "address"
                },
                {
                  "name": "done",
                  "type": "bool"
                }
              ],
              "name": "origin",
              "type": "tuple"
            },
            {
              "components": [
                {
                  "name": "nonce",
                  "type": "uint256"
                },
                {
                  "name": "wallet",
                  "type": "address"
                },
                {
                  "name": "done",
                  "type": "bool"
                }
              ],
              "name": "target",
              "type": "tuple"
            }
          ],
          "name": "",
          "type": "tuple"
        }
      ],
      "payable": false,
      "stateMutability": "view",
      "type": "function"
    },
    {
      "constant": true,
      "inputs": [
        {
          "name": "wallet",
          "type": "address"
        },
        {
          "name": "nonce",
          "type": "uint256"
        }
      ],
      "name": "settlementByWalletAndNonce",
      "outputs": [
        {
          "components": [
            {
              "name": "nonce",
              "type": "uint256"
            },
            {
              "name": "driipType",
              "type": "uint8"
            },
            {
              "components": [
                {
                  "name": "nonce",
                  "type": "uint256"
                },
                {
                  "name": "wallet",
                  "type": "address"
                },
                {
                  "name": "done",
                  "type": "bool"
                }
              ],
              "name": "origin",
              "type": "tuple"
            },
            {
              "components": [
                {
                  "name": "nonce",
                  "type": "uint256"
                },
                {
                  "name": "wallet",
                  "type": "address"
                },
                {
                  "name": "done",
                  "type": "bool"
                }
              ],
              "name": "target",
              "type": "tuple"
            }
          ],
          "name": "",
          "type": "tuple"
        }
      ],
      "payable": false,
      "stateMutability": "view",
      "type": "function"
    },
    {
      "constant": false,
      "inputs": [],
      "name": "updateMaxDriipNonce",
      "outputs": [],
      "payable": false,
      "stateMutability": "nonpayable",
      "type": "function"
    },
    {
      "constant": false,
      "inputs": [
        {
          "components": [
            {
              "name": "nonce",
              "type": "uint256"
            },
            {
              "name": "amount",
              "type": "int256"
            },
            {
              "components": [
                {
                  "components": [
                    {
                      "name": "ct",
                      "type": "address"
                    },
                    {
                      "name": "id",
                      "type": "uint256"
                    }
                  ],
                  "name": "intended",
                  "type": "tuple"
                },
                {
                  "components": [
                    {
                      "name": "ct",
                      "type": "address"
                    },
                    {
                      "name": "id",
                      "type": "uint256"
                    }
                  ],
                  "name": "conjugate",
                  "type": "tuple"
                }
              ],
              "name": "currencies",
              "type": "tuple"
            },
            {
              "name": "rate",
              "type": "int256"
            },
            {
              "components": [
                {
                  "name": "nonce",
                  "type": "uint256"
                },
                {
                  "name": "wallet",
                  "type": "address"
                },
                {
                  "name": "rollingVolume",
                  "type": "uint256"
                },
                {
                  "name": "liquidityRole",
                  "type": "uint8"
                },
                {
                  "components": [
                    {
                      "name": "amount",
                      "type": "int256"
                    },
                    {
                      "components": [
                        {
                          "name": "wallet",
                          "type": "bytes32"
                        },
                        {
                          "name": "operator",
                          "type": "bytes32"
                        }
                      ],
                      "name": "hashes",
                      "type": "tuple"
                    },
                    {
                      "components": [
                        {
                          "name": "current",
                          "type": "int256"
                        },
                        {
                          "name": "previous",
                          "type": "int256"
                        }
                      ],
                      "name": "residuals",
                      "type": "tuple"
                    }
                  ],
                  "name": "order",
                  "type": "tuple"
                },
                {
                  "components": [
                    {
                      "components": [
                        {
                          "name": "current",
                          "type": "int256"
                        },
                        {
                          "name": "previous",
                          "type": "int256"
                        }
                      ],
                      "name": "intended",
                      "type": "tuple"
                    },
                    {
                      "components": [
                        {
                          "name": "current",
                          "type": "int256"
                        },
                        {
                          "name": "previous",
                          "type": "int256"
                        }
                      ],
                      "name": "conjugate",
                      "type": "tuple"
                    }
                  ],
                  "name": "balances",
                  "type": "tuple"
                },
                {
                  "components": [
                    {
                      "components": [
                        {
                          "name": "amount",
                          "type": "int256"
                        },
                        {
                          "components": [
                            {
                              "name": "ct",
                              "type": "address"
                            },
                            {
                              "name": "id",
                              "type": "uint256"
                            }
                          ],
                          "name": "currency",
                          "type": "tuple"
                        }
                      ],
                      "name": "single",
                      "type": "tuple"
                    },
                    {
                      "components": [
                        {
                          "name": "originId",
                          "type": "uint256"
                        },
                        {
                          "components": [
                            {
                              "name": "amount",
                              "type": "int256"
                            },
                            {
                              "components": [
                                {
                                  "name": "ct",
                                  "type": "address"
                                },
                                {
                                  "name": "id",
                                  "type": "uint256"
                                }
                              ],
                              "name": "currency",
                              "type": "tuple"
                            }
                          ],
                          "name": "figure",
                          "type": "tuple"
                        }
                      ],
                      "name": "total",
                      "type": "tuple[]"
                    }
                  ],
                  "name": "fees",
                  "type": "tuple"
                }
              ],
              "name": "buyer",
              "type": "tuple"
            },
            {
              "components": [
                {
                  "name": "nonce",
                  "type": "uint256"
                },
                {
                  "name": "wallet",
                  "type": "address"
                },
                {
                  "name": "rollingVolume",
                  "type": "uint256"
                },
                {
                  "name": "liquidityRole",
                  "type": "uint8"
                },
                {
                  "components": [
                    {
                      "name": "amount",
                      "type": "int256"
                    },
                    {
                      "components": [
                        {
                          "name": "wallet",
                          "type": "bytes32"
                        },
                        {
                          "name": "operator",
                          "type": "bytes32"
                        }
                      ],
                      "name": "hashes",
                      "type": "tuple"
                    },
                    {
                      "components": [
                        {
                          "name": "current",
                          "type": "int256"
                        },
                        {
                          "name": "previous",
                          "type": "int256"
                        }
                      ],
                      "name": "residuals",
                      "type": "tuple"
                    }
                  ],
                  "name": "order",
                  "type": "tuple"
                },
                {
                  "components": [
                    {
                      "components": [
                        {
                          "name": "current",
                          "type": "int256"
                        },
                        {
                          "name": "previous",
                          "type": "int256"
                        }
                      ],
                      "name": "intended",
                      "type": "tuple"
                    },
                    {
                      "components": [
                        {
                          "name": "current",
                          "type": "int256"
                        },
                        {
                          "name": "previous",
                          "type": "int256"
                        }
                      ],
                      "name": "conjugate",
                      "type": "tuple"
                    }
                  ],
                  "name": "balances",
                  "type": "tuple"
                },
                {
                  "components": [
                    {
                      "components": [
                        {
                          "name": "amount",
                          "type": "int256"
                        },
                        {
                          "components": [
                            {
                              "name": "ct",
                              "type": "address"
                            },
                            {
                              "name": "id",
                              "type": "uint256"
                            }
                          ],
                          "name": "currency",
                          "type": "tuple"
                        }
                      ],
                      "name": "single",
                      "type": "tuple"
                    },
                    {
                      "components": [
                        {
                          "name": "originId",
                          "type": "uint256"
                        },
                        {
                          "components": [
                            {
                              "name": "amount",
                              "type": "int256"
                            },
                            {
                              "components": [
                                {
                                  "name": "ct",
                                  "type": "address"
                                },
                                {
                                  "name": "id",
                                  "type": "uint256"
                                }
                              ],
                              "name": "currency",
                              "type": "tuple"
                            }
                          ],
                          "name": "figure",
                          "type": "tuple"
                        }
                      ],
                      "name": "total",
                      "type": "tuple[]"
                    }
                  ],
                  "name": "fees",
                  "type": "tuple"
                }
              ],
              "name": "seller",
              "type": "tuple"
            },
            {
              "components": [
                {
                  "components": [
                    {
                      "name": "single",
                      "type": "int256"
                    },
                    {
                      "name": "total",
                      "type": "int256"
                    }
                  ],
                  "name": "intended",
                  "type": "tuple"
                },
                {
                  "components": [
                    {
                      "name": "single",
                      "type": "int256"
                    },
                    {
                      "name": "total",
                      "type": "int256"
                    }
                  ],
                  "name": "conjugate",
                  "type": "tuple"
                }
              ],
              "name": "transfers",
              "type": "tuple"
            },
            {
              "components": [
                {
                  "name": "hash",
                  "type": "bytes32"
                },
                {
                  "components": [
                    {
                      "name": "r",
                      "type": "bytes32"
                    },
                    {
                      "name": "s",
                      "type": "bytes32"
                    },
                    {
                      "name": "v",
                      "type": "uint8"
                    }
                  ],
                  "name": "signature",
                  "type": "tuple"
                }
              ],
              "name": "seal",
              "type": "tuple"
            },
            {
              "name": "blockNumber",
              "type": "uint256"
            },
            {
              "name": "operatorId",
              "type": "uint256"
            }
          ],
          "name": "trade",
          "type": "tuple"
        }
      ],
      "name": "settleTrade",
      "outputs": [],
      "payable": false,
      "stateMutability": "nonpayable",
      "type": "function"
    },
    {
      "constant": false,
      "inputs": [
        {
          "name": "wallet",
          "type": "address"
        },
        {
          "components": [
            {
              "name": "nonce",
              "type": "uint256"
            },
            {
              "name": "amount",
              "type": "int256"
            },
            {
              "components": [
                {
                  "components": [
                    {
                      "name": "ct",
                      "type": "address"
                    },
                    {
                      "name": "id",
                      "type": "uint256"
                    }
                  ],
                  "name": "intended",
                  "type": "tuple"
                },
                {
                  "components": [
                    {
                      "name": "ct",
                      "type": "address"
                    },
                    {
                      "name": "id",
                      "type": "uint256"
                    }
                  ],
                  "name": "conjugate",
                  "type": "tuple"
                }
              ],
              "name": "currencies",
              "type": "tuple"
            },
            {
              "name": "rate",
              "type": "int256"
            },
            {
              "components": [
                {
                  "name": "nonce",
                  "type": "uint256"
                },
                {
                  "name": "wallet",
                  "type": "address"
                },
                {
                  "name": "rollingVolume",
                  "type": "uint256"
                },
                {
                  "name": "liquidityRole",
                  "type": "uint8"
                },
                {
                  "components": [
                    {
                      "name": "amount",
                      "type": "int256"
                    },
                    {
                      "components": [
                        {
                          "name": "wallet",
                          "type": "bytes32"
                        },
                        {
                          "name": "operator",
                          "type": "bytes32"
                        }
                      ],
                      "name": "hashes",
                      "type": "tuple"
                    },
                    {
                      "components": [
                        {
                          "name": "current",
                          "type": "int256"
                        },
                        {
                          "name": "previous",
                          "type": "int256"
                        }
                      ],
                      "name": "residuals",
                      "type": "tuple"
                    }
                  ],
                  "name": "order",
                  "type": "tuple"
                },
                {
                  "components": [
                    {
                      "components": [
                        {
                          "name": "current",
                          "type": "int256"
                        },
                        {
                          "name": "previous",
                          "type": "int256"
                        }
                      ],
                      "name": "intended",
                      "type": "tuple"
                    },
                    {
                      "components": [
                        {
                          "name": "current",
                          "type": "int256"
                        },
                        {
                          "name": "previous",
                          "type": "int256"
                        }
                      ],
                      "name": "conjugate",
                      "type": "tuple"
                    }
                  ],
                  "name": "balances",
                  "type": "tuple"
                },
                {
                  "components": [
                    {
                      "components": [
                        {
                          "name": "amount",
                          "type": "int256"
                        },
                        {
                          "components": [
                            {
                              "name": "ct",
                              "type": "address"
                            },
                            {
                              "name": "id",
                              "type": "uint256"
                            }
                          ],
                          "name": "currency",
                          "type": "tuple"
                        }
                      ],
                      "name": "single",
                      "type": "tuple"
                    },
                    {
                      "components": [
                        {
                          "name": "originId",
                          "type": "uint256"
                        },
                        {
                          "components": [
                            {
                              "name": "amount",
                              "type": "int256"
                            },
                            {
                              "components": [
                                {
                                  "name": "ct",
                                  "type": "address"
                                },
                                {
                                  "name": "id",
                                  "type": "uint256"
                                }
                              ],
                              "name": "currency",
                              "type": "tuple"
                            }
                          ],
                          "name": "figure",
                          "type": "tuple"
                        }
                      ],
                      "name": "total",
                      "type": "tuple[]"
                    }
                  ],
                  "name": "fees",
                  "type": "tuple"
                }
              ],
              "name": "buyer",
              "type": "tuple"
            },
            {
              "components": [
                {
                  "name": "nonce",
                  "type": "uint256"
                },
                {
                  "name": "wallet",
                  "type": "address"
                },
                {
                  "name": "rollingVolume",
                  "type": "uint256"
                },
                {
                  "name": "liquidityRole",
                  "type": "uint8"
                },
                {
                  "components": [
                    {
                      "name": "amount",
                      "type": "int256"
                    },
                    {
                      "components": [
                        {
                          "name": "wallet",
                          "type": "bytes32"
                        },
                        {
                          "name": "operator",
                          "type": "bytes32"
                        }
                      ],
                      "name": "hashes",
                      "type": "tuple"
                    },
                    {
                      "components": [
                        {
                          "name": "current",
                          "type": "int256"
                        },
                        {
                          "name": "previous",
                          "type": "int256"
                        }
                      ],
                      "name": "residuals",
                      "type": "tuple"
                    }
                  ],
                  "name": "order",
                  "type": "tuple"
                },
                {
                  "components": [
                    {
                      "components": [
                        {
                          "name": "current",
                          "type": "int256"
                        },
                        {
                          "name": "previous",
                          "type": "int256"
                        }
                      ],
                      "name": "intended",
                      "type": "tuple"
                    },
                    {
                      "components": [
                        {
                          "name": "current",
                          "type": "int256"
                        },
                        {
                          "name": "previous",
                          "type": "int256"
                        }
                      ],
                      "name": "conjugate",
                      "type": "tuple"
                    }
                  ],
                  "name": "balances",
                  "type": "tuple"
                },
                {
                  "components": [
                    {
                      "components": [
                        {
                          "name": "amount",
                          "type": "int256"
                        },
                        {
                          "components": [
                            {
                              "name": "ct",
                              "type": "address"
                            },
                            {
                              "name": "id",
                              "type": "uint256"
                            }
                          ],
                          "name": "currency",
                          "type": "tuple"
                        }
                      ],
                      "name": "single",
                      "type": "tuple"
                    },
                    {
                      "components": [
                        {
                          "name": "originId",
                          "type": "uint256"
                        },
                        {
                          "components": [
                            {
                              "name": "amount",
                              "type": "int256"
                            },
                            {
                              "components": [
                                {
                                  "name": "ct",
                                  "type": "address"
                                },
                                {
                                  "name": "id",
                                  "type": "uint256"
                                }
                              ],
                              "name": "currency",
                              "type": "tuple"
                            }
                          ],
                          "name": "figure",
                          "type": "tuple"
                        }
                      ],
                      "name": "total",
                      "type": "tuple[]"
                    }
                  ],
                  "name": "fees",
                  "type": "tuple"
                }
              ],
              "name": "seller",
              "type": "tuple"
            },
            {
              "components": [
                {
                  "components": [
                    {
                      "name": "single",
                      "type": "int256"
                    },
                    {
                      "name": "total",
                      "type": "int256"
                    }
                  ],
                  "name": "intended",
                  "type": "tuple"
                },
                {
                  "components": [
                    {
                      "name": "single",
                      "type": "int256"
                    },
                    {
                      "name": "total",
                      "type": "int256"
                    }
                  ],
                  "name": "conjugate",
                  "type": "tuple"
                }
              ],
              "name": "transfers",
              "type": "tuple"
            },
            {
              "components": [
                {
                  "name": "hash",
                  "type": "bytes32"
                },
                {
                  "components": [
                    {
                      "name": "r",
                      "type": "bytes32"
                    },
                    {
                      "name": "s",
                      "type": "bytes32"
                    },
                    {
                      "name": "v",
                      "type": "uint8"
                    }
                  ],
                  "name": "signature",
                  "type": "tuple"
                }
              ],
              "name": "seal",
              "type": "tuple"
            },
            {
              "name": "blockNumber",
              "type": "uint256"
            },
            {
              "name": "operatorId",
              "type": "uint256"
            }
          ],
          "name": "trade",
          "type": "tuple"
        }
      ],
      "name": "settleTradeByProxy",
      "outputs": [],
      "payable": false,
      "stateMutability": "nonpayable",
      "type": "function"
    },
    {
      "constant": false,
      "inputs": [
        {
          "components": [
            {
              "name": "nonce",
              "type": "uint256"
            },
            {
              "name": "amount",
              "type": "int256"
            },
            {
              "components": [
                {
                  "name": "ct",
                  "type": "address"
                },
                {
                  "name": "id",
                  "type": "uint256"
                }
              ],
              "name": "currency",
              "type": "tuple"
            },
            {
              "components": [
                {
                  "name": "nonce",
                  "type": "uint256"
                },
                {
                  "name": "wallet",
                  "type": "address"
                },
                {
                  "components": [
                    {
                      "name": "current",
                      "type": "int256"
                    },
                    {
                      "name": "previous",
                      "type": "int256"
                    }
                  ],
                  "name": "balances",
                  "type": "tuple"
                },
                {
                  "components": [
                    {
                      "components": [
                        {
                          "name": "amount",
                          "type": "int256"
                        },
                        {
                          "components": [
                            {
                              "name": "ct",
                              "type": "address"
                            },
                            {
                              "name": "id",
                              "type": "uint256"
                            }
                          ],
                          "name": "currency",
                          "type": "tuple"
                        }
                      ],
                      "name": "single",
                      "type": "tuple"
                    },
                    {
                      "components": [
                        {
                          "name": "originId",
                          "type": "uint256"
                        },
                        {
                          "components": [
                            {
                              "name": "amount",
                              "type": "int256"
                            },
                            {
                              "components": [
                                {
                                  "name": "ct",
                                  "type": "address"
                                },
                                {
                                  "name": "id",
                                  "type": "uint256"
                                }
                              ],
                              "name": "currency",
                              "type": "tuple"
                            }
                          ],
                          "name": "figure",
                          "type": "tuple"
                        }
                      ],
                      "name": "total",
                      "type": "tuple[]"
                    }
                  ],
                  "name": "fees",
                  "type": "tuple"
                }
              ],
              "name": "sender",
              "type": "tuple"
            },
            {
              "components": [
                {
                  "name": "nonce",
                  "type": "uint256"
                },
                {
                  "name": "wallet",
                  "type": "address"
                },
                {
                  "components": [
                    {
                      "name": "current",
                      "type": "int256"
                    },
                    {
                      "name": "previous",
                      "type": "int256"
                    }
                  ],
                  "name": "balances",
                  "type": "tuple"
                },
                {
                  "components": [
                    {
                      "components": [
                        {
                          "name": "originId",
                          "type": "uint256"
                        },
                        {
                          "components": [
                            {
                              "name": "amount",
                              "type": "int256"
                            },
                            {
                              "components": [
                                {
                                  "name": "ct",
                                  "type": "address"
                                },
                                {
                                  "name": "id",
                                  "type": "uint256"
                                }
                              ],
                              "name": "currency",
                              "type": "tuple"
                            }
                          ],
                          "name": "figure",
                          "type": "tuple"
                        }
                      ],
                      "name": "total",
                      "type": "tuple[]"
                    }
                  ],
                  "name": "fees",
                  "type": "tuple"
                }
              ],
              "name": "recipient",
              "type": "tuple"
            },
            {
              "components": [
                {
                  "name": "single",
                  "type": "int256"
                },
                {
                  "name": "total",
                  "type": "int256"
                }
              ],
              "name": "transfers",
              "type": "tuple"
            },
            {
              "components": [
                {
                  "components": [
                    {
                      "name": "hash",
                      "type": "bytes32"
                    },
                    {
                      "components": [
                        {
                          "name": "r",
                          "type": "bytes32"
                        },
                        {
                          "name": "s",
                          "type": "bytes32"
                        },
                        {
                          "name": "v",
                          "type": "uint8"
                        }
                      ],
                      "name": "signature",
                      "type": "tuple"
                    }
                  ],
                  "name": "wallet",
                  "type": "tuple"
                },
                {
                  "components": [
                    {
                      "name": "hash",
                      "type": "bytes32"
                    },
                    {
                      "components": [
                        {
                          "name": "r",
                          "type": "bytes32"
                        },
                        {
                          "name": "s",
                          "type": "bytes32"
                        },
                        {
                          "name": "v",
                          "type": "uint8"
                        }
                      ],
                      "name": "signature",
                      "type": "tuple"
                    }
                  ],
                  "name": "operator",
                  "type": "tuple"
                }
              ],
              "name": "seals",
              "type": "tuple"
            },
            {
              "name": "blockNumber",
              "type": "uint256"
            },
            {
              "name": "operatorId",
              "type": "uint256"
            }
          ],
          "name": "payment",
          "type": "tuple"
        }
      ],
      "name": "settlePayment",
      "outputs": [],
      "payable": false,
      "stateMutability": "nonpayable",
      "type": "function"
    },
    {
      "constant": false,
      "inputs": [
        {
          "name": "wallet",
          "type": "address"
        },
        {
          "components": [
            {
              "name": "nonce",
              "type": "uint256"
            },
            {
              "name": "amount",
              "type": "int256"
            },
            {
              "components": [
                {
                  "name": "ct",
                  "type": "address"
                },
                {
                  "name": "id",
                  "type": "uint256"
                }
              ],
              "name": "currency",
              "type": "tuple"
            },
            {
              "components": [
                {
                  "name": "nonce",
                  "type": "uint256"
                },
                {
                  "name": "wallet",
                  "type": "address"
                },
                {
                  "components": [
                    {
                      "name": "current",
                      "type": "int256"
                    },
                    {
                      "name": "previous",
                      "type": "int256"
                    }
                  ],
                  "name": "balances",
                  "type": "tuple"
                },
                {
                  "components": [
                    {
                      "components": [
                        {
                          "name": "amount",
                          "type": "int256"
                        },
                        {
                          "components": [
                            {
                              "name": "ct",
                              "type": "address"
                            },
                            {
                              "name": "id",
                              "type": "uint256"
                            }
                          ],
                          "name": "currency",
                          "type": "tuple"
                        }
                      ],
                      "name": "single",
                      "type": "tuple"
                    },
                    {
                      "components": [
                        {
                          "name": "originId",
                          "type": "uint256"
                        },
                        {
                          "components": [
                            {
                              "name": "amount",
                              "type": "int256"
                            },
                            {
                              "components": [
                                {
                                  "name": "ct",
                                  "type": "address"
                                },
                                {
                                  "name": "id",
                                  "type": "uint256"
                                }
                              ],
                              "name": "currency",
                              "type": "tuple"
                            }
                          ],
                          "name": "figure",
                          "type": "tuple"
                        }
                      ],
                      "name": "total",
                      "type": "tuple[]"
                    }
                  ],
                  "name": "fees",
                  "type": "tuple"
                }
              ],
              "name": "sender",
              "type": "tuple"
            },
            {
              "components": [
                {
                  "name": "nonce",
                  "type": "uint256"
                },
                {
                  "name": "wallet",
                  "type": "address"
                },
                {
                  "components": [
                    {
                      "name": "current",
                      "type": "int256"
                    },
                    {
                      "name": "previous",
                      "type": "int256"
                    }
                  ],
                  "name": "balances",
                  "type": "tuple"
                },
                {
                  "components": [
                    {
                      "components": [
                        {
                          "name": "originId",
                          "type": "uint256"
                        },
                        {
                          "components": [
                            {
                              "name": "amount",
                              "type": "int256"
                            },
                            {
                              "components": [
                                {
                                  "name": "ct",
                                  "type": "address"
                                },
                                {
                                  "name": "id",
                                  "type": "uint256"
                                }
                              ],
                              "name": "currency",
                              "type": "tuple"
                            }
                          ],
                          "name": "figure",
                          "type": "tuple"
                        }
                      ],
                      "name": "total",
                      "type": "tuple[]"
                    }
                  ],
                  "name": "fees",
                  "type": "tuple"
                }
              ],
              "name": "recipient",
              "type": "tuple"
            },
            {
              "components": [
                {
                  "name": "single",
                  "type": "int256"
                },
                {
                  "name": "total",
                  "type": "int256"
                }
              ],
              "name": "transfers",
              "type": "tuple"
            },
            {
              "components": [
                {
                  "components": [
                    {
                      "name": "hash",
                      "type": "bytes32"
                    },
                    {
                      "components": [
                        {
                          "name": "r",
                          "type": "bytes32"
                        },
                        {
                          "name": "s",
                          "type": "bytes32"
                        },
                        {
                          "name": "v",
                          "type": "uint8"
                        }
                      ],
                      "name": "signature",
                      "type": "tuple"
                    }
                  ],
                  "name": "wallet",
                  "type": "tuple"
                },
                {
                  "components": [
                    {
                      "name": "hash",
                      "type": "bytes32"
                    },
                    {
                      "components": [
                        {
                          "name": "r",
                          "type": "bytes32"
                        },
                        {
                          "name": "s",
                          "type": "bytes32"
                        },
                        {
                          "name": "v",
                          "type": "uint8"
                        }
                      ],
                      "name": "signature",
                      "type": "tuple"
                    }
                  ],
                  "name": "operator",
                  "type": "tuple"
                }
              ],
              "name": "seals",
              "type": "tuple"
            },
            {
              "name": "blockNumber",
              "type": "uint256"
            },
            {
              "name": "operatorId",
              "type": "uint256"
            }
          ],
          "name": "payment",
          "type": "tuple"
        }
      ],
      "name": "settlePaymentByProxy",
      "outputs": [],
      "payable": false,
      "stateMutability": "nonpayable",
      "type": "function"
    }
  ],
  "bytecode": "0x60806040523480156200001157600080fd5b50604051602080620049e48339810180604052620000339190810190620000b6565b8080600160a060020a03811615156200004b57600080fd5b600160a060020a0381163014156200006257600080fd5b506000805461010060a860020a031916610100600160a060020a039390931692830217905560018054600160a060020a031916909117905550620000eb565b6000620000af8251620000df565b9392505050565b600060208284031215620000c957600080fd5b6000620000d78484620000a1565b949350505050565b600160a060020a031690565b6148e980620000fb6000396000f3006080604052600436106102155763ffffffff60e060020a60003504166244380a811461021a57806301370d061461023c57806308df7dc81461025c5780631327d3d8146102955780632344a493146102b55780632738a112146102d55780632a261473146102ea5780632b74d2491461030a5780632f013a001461031f5780633a5381b5146103415780633bd7857f146103635780634476d23b14610378578063570ca7351461039a578063627f09c3146103af5780636c70bee9146103cf57806370327ea1146103e4578063829f4a70146103f9578063897d36aa146104195780638c6913bc1461043b5780638cf16a311461045057806392f7bd7b1461047057806396214735146104905780639d4f7ebb146104b0578063a08eda54146104d0578063a68ecb4a146104fd578063b3ab15fb14610512578063b71ded2f14610532578063bf24e7d014610552578063c0ffe1b414610567578063c2050a6814610587578063c81dd95a1461059c578063cdacab25146105b1578063d2f08936146105c6578063d5f39488146105e6578063d66c5291146105fb578063d77a5eb31461061b578063da1f06b914610649578063db30fd1014610669578063e71dcc3114610689578063e754476f146106a9578063e86ab8f6146106be578063f1aa7734146106de578063f345fb44146106f3578063f6d4c0ef14610713578063fe4e709614610728578063ffa0343c14610748575b600080fd5b34801561022657600080fd5b5061023a610235366004613e7d565b610768565b005b34801561024857600080fd5b5061023a610257366004613e7d565b6107f9565b34801561026857600080fd5b5061027c610277366004613f3f565b6108a1565b60405161028c94939291906147bf565b60405180910390f35b3480156102a157600080fd5b5061023a6102b0366004613e7d565b610938565b3480156102c157600080fd5b5061023a6102d0366004613ed7565b6109d0565b3480156102e157600080fd5b5061023a610a16565b3480156102f657600080fd5b5061023a610305366004613e7d565b610a7c565b34801561031657600080fd5b5061023a610b00565b34801561032b57600080fd5b50610334610b2b565b60405161028c9190614718565b34801561034d57600080fd5b50610356610b34565b60405161028c9190614734565b34801561036f57600080fd5b50610356610b43565b34801561038457600080fd5b5061038d610b52565b60405161028c9190614519565b3480156103a657600080fd5b5061038d610b66565b3480156103bb57600080fd5b5061023a6103ca366004613e7d565b610b75565b3480156103db57600080fd5b50610356610c0d565b3480156103f057600080fd5b5061023a610c1c565b34801561040557600080fd5b50610334610414366004613f3f565b610c7f565b34801561042557600080fd5b5061042e610c92565b60405161028c9190614726565b34801561044757600080fd5b5061042e610c98565b34801561045c57600080fd5b5061023a61046b366004613f0b565b610c9e565b34801561047c57600080fd5b5061042e61048b366004613e2f565b610cd9565b34801561049c57600080fd5b5061023a6104ab366004613cb7565b610d09565b3480156104bc57600080fd5b5061042e6104cb366004613f3f565b610dc7565b3480156104dc57600080fd5b506104f06104eb366004613f3f565b610dd9565b60405161028c919061478e565b34801561050957600080fd5b50610356610edc565b34801561051e57600080fd5b5061023a61052d366004613cb7565b610eeb565b34801561053e57600080fd5b5061023a61054d366004613e7d565b610f95565b34801561055e57600080fd5b5061035661102d565b34801561057357600080fd5b506104f0610582366004613e2f565b61103c565b34801561059357600080fd5b50610356611171565b3480156105a857600080fd5b50610334611180565b3480156105bd57600080fd5b5061023a611190565b3480156105d257600080fd5b506104f06105e1366004613e2f565b611225565b3480156105f257600080fd5b5061038d611292565b34801561060757600080fd5b5061042e610616366004613e2f565b6112a6565b34801561062757600080fd5b5061063b610636366004613cd5565b6112c3565b60405161028c9291906147f5565b34801561065557600080fd5b5061042e610664366004613d4a565b6112fe565b34801561067557600080fd5b5061023a610684366004613d97565b611321565b34801561069557600080fd5b5061023a6106a4366004613e7d565b61137d565b3480156106b557600080fd5b50610356611401565b3480156106ca57600080fd5b5061023a6106d9366004613e7d565b611410565b3480156106ea57600080fd5b506103566114bf565b3480156106ff57600080fd5b5061042e61070e366004613cb7565b6114ce565b34801561071f57600080fd5b506103566114e9565b34801561073457600080fd5b5061023a610743366004613de8565b6114f8565b34801561075457600080fd5b5061023a610763366004613e7d565b611548565b60006107726115cc565b151561077d57600080fd5b81600160a060020a038116151561079357600080fd5b600a8054600160a060020a03858116600160a060020a03198316179283905560405191811694507f932adbf18b602b4c231659d4b3f7cc3bc5c6278b6eb84294543576750fa85686926107ec9286929190911690614742565b60405180910390a1505050565b60006108036115cc565b151561080e57600080fd5b81600160a060020a038116151561082457600080fd5b6006548390600160a060020a03908116908216811461089a5760068054600160a060020a03878116600160a060020a0319831617909255604051911694507f07998fa7be97abe2427246ae4688298c89d6196bbffdf0997b9495a8d27bc673906108919086908890614742565b60405180910390a15b5050505050565b600c8054829081106108af57fe5b6000918252602091829020600690910201805460018201546040805160608181018352600286015482526003860154600160a060020a03808216848a015260a060020a9182900460ff9081161515858701528551938401865260048901548452600590980154908116988301989098529096048516151591860191909152919450919091169184565b60006109426115cc565b151561094d57600080fd5b81600160a060020a038116151561096357600080fd5b6003548390600160a060020a03908116908216811461089a5760038054600160a060020a03878116600160a060020a0319831617909255604051911694507f1882af944a16549c3d4f60e3cd26f158b0c7aac3222cf32971fc21375ce05f60906108919086908890614742565b6109da33826115e2565b7f79f20d50c1391dd0229ea2be00547bd25af2d7ee8e2dc956e3cb12a893c867133382604051610a0b9291906146d8565b60405180910390a150565b33610a1f610b52565b600160a060020a031614610a3257600080fd5b60005460ff1615610a4257600080fd5b7f787a5d936e74f4b564b9153575886059829c78cd9927b1be5e0d976b317ef73633604051610a719190614519565b60405180910390a133ff5b6000610a866115cc565b1515610a9157600080fd5b81600160a060020a0381161515610aa757600080fd5b60098054600160a060020a03858116600160a060020a03198316179283905560405191811694507f74772b09ce5e44691e96408036457cb7dc339db427ef6803bab8c690f5139bb5926107ec9286929190911690614742565b610b086115cc565b1515610b1357600080fd5b6005805460a060020a60ff02191660a060020a179055565b60005460ff1681565b600354600160a060020a031681565b600654600160a060020a031681565b6000546101009004600160a060020a031690565b600154600160a060020a031681565b6000610b7f6115cc565b1515610b8a57600080fd5b81600160a060020a0381161515610ba057600080fd5b6002548390600160a060020a03908116908216811461089a5760028054600160a060020a03878116600160a060020a0319831617909255604051911694507f634f61bf00e14adedce330c80c2823e16e184f189ebe853e1ddecc4a268477ff906108919086908890614742565b600254600160a060020a031681565b33610c25610b52565b600160a060020a031614610c3857600080fd5b6000805460ff191660011790556040517fd5a2a04a775c741c2ca0dc46ea7ce4835190e1aaf1ca018def0e82568ec3361690610c75903390614519565b60405180910390a1565b6000908152600d60205260408120541190565b60075481565b600c5490565b610ca83382611fd9565b7f657ab7ead09206283cbdeedb5264be5b351baa0c0f852fcfb6c6aa8182a64c573382604051610a0b9291906146f8565b600e60205281600052604060002081815481101515610cf457fe5b90600052602060002001600091509150505481565b6000610d136115cc565b1515610d1e57600080fd5b81600160a060020a0381161515610d3457600080fd5b600160a060020a038116301415610d4a57600080fd5b600054600160a060020a038481166101009092041614610dc25760008054600160a060020a0385811661010090810261010060a860020a0319841617909355604051929091041692507f977e5fa58e458501775e0008d275006294c5249e3c08d1d0e3a9f3acad14f6e4906107ec9084908690614527565b505050565b600d6020526000908152604090205481565b610de161339b565b610dea82610c7f565b1515610df557600080fd5b6000828152600d6020526040902054600c8054909160001901908110610e1757fe5b906000526020600020906006020160806040519081016040529081600082015481526020016001820160009054906101000a900460ff166001811115610e5957fe5b6001811115610e6457fe5b81526040805160608181018352600285015482526003850154600160a060020a0380821660208581019190915260ff60a060020a938490048116151586880152818801959095528551938401865260048801548452600590970154908116968301969096529094041615158382015201529050919050565b600a54600160a060020a031681565b6000610ef5612dcb565b1515610f0057600080fd5b81600160a060020a0381161515610f1657600080fd5b600160a060020a038116301415610f2c57600080fd5b600154600160a060020a03848116911614610dc25760018054600160a060020a03858116600160a060020a0319831617909255604051911692507f9f611b789425d0d5b90b920f1b2852907dd865c80074a30b1629aaa041d1812c906107ec9084908690614527565b6000610f9f6115cc565b1515610faa57600080fd5b81600160a060020a0381161515610fc057600080fd5b6004548390600160a060020a03908116908216811461089a5760048054600160a060020a03878116600160a060020a0319831617909255604051911694507f4d96d2a04c886b313bd1e28be6324ed4c8867b3203e512756722f8be0195e16d906108919086908890614742565b600554600160a060020a031681565b61104461339b565b600160a060020a0383166000908152600e6020526040902054821061106857600080fd5b600160a060020a0383166000908152600e602052604090208054600c916001918590811061109257fe5b9060005260206000200154038154811015156110aa57fe5b906000526020600020906006020160806040519081016040529081600082015481526020016001820160009054906101000a900460ff1660018111156110ec57fe5b60018111156110f757fe5b81526040805160608181018352600285015482526003850154600160a060020a0380821660208581019190915260ff60a060020a9384900481161515868801528188019590955285519384018652600488015484526005909701549081169683019690965290940416151583820152015290505b92915050565b600954600160a060020a031681565b60055460a060020a900460ff1681565b6005546040805160e460020a6301f344070281529051600092600160a060020a031691631f34407091600480830192602092919082900301818787803b1580156111d957600080fd5b505af11580156111ed573d6000803e3d6000fd5b505050506040513d601f19601f820116820180604052506112119190810190613eb9565b905060008111156112225760078190555b50565b61122d61339b565b600160a060020a0383166000908152600f602090815260408083208584529091528120541161125b57600080fd5b600160a060020a0383166000908152600f60209081526040808320858452909152902054600c80549091600019019081106110aa57fe5b6000546101009004600160a060020a031681565b600f60209081526000928352604080842090915290825290205481565b601160209081526000958652604080872082529486528486208152928552838520835290845282842090915282529020805460019091015482565b601060209081526000938452604080852082529284528284209052825290205481565b611329612dcb565b151561133457600080fd5b61133e82826115e2565b7f8af6c627a6990d6bfb23bf7a7c1d2200ce45a7f82927ee2710a70f2186481d2033838360405161137193929190614542565b60405180910390a15050565b60006113876115cc565b151561139257600080fd5b81600160a060020a03811615156113a857600080fd5b600b8054600160a060020a03858116600160a060020a03198316179283905560405191811694507f8b279c2b23bfeb78b16df477d9aca8834fa453d90eec75f2ab0c825a712c3d17926107ec9286929190911690614742565b600454600160a060020a031681565b600061141a6115cc565b151561142557600080fd5b81600160a060020a038116151561143b57600080fd5b6005548390600160a060020a03908116908216811461089a5760055460a060020a900460ff161561146b57600080fd5b60058054600160a060020a03878116600160a060020a0319831617909255604051911694507f624c4d4225a45f5bf8a9755adba1ef9be3464a9970b05a371fb6cca0c0caf204906108919086908890614742565b600b54600160a060020a031681565b600160a060020a03166000908152600e602052604090205490565b600854600160a060020a031681565b611500612dcb565b151561150b57600080fd5b6115158282611fd9565b7f5ddf2c9b4fff4cd73ea605875e6c0ac2282be29c511e97d607737a34084975073383836040516113719392919061456f565b60006115526115cc565b151561155d57600080fd5b81600160a060020a038116151561157357600080fd5b60088054600160a060020a03858116600160a060020a03198316179283905560405191811694507f8a1a005b12d6687dbf2f09170ad28a9b5c8e8b2e1a9617db4529e643bf387399926107ec9286929190911690614742565b6000546101009004600160a060020a0316331490565b60035460405160e060020a63a865476b028152600091829160609183918691600160a060020a03169063a865476b9061161f90849060040161475d565b602060405180830381600087803b15801561163957600080fd5b505af115801561164d573d6000803e3d6000fd5b505050506040513d601f19601f820116820180604052506116719190810190613e5f565b151561167c57600080fd5b60065460c0870151602001515160405160e360020a6310c7a6c1028152600160a060020a039092169163863d3608916116b791600401614726565b602060405180830381600087803b1580156116d157600080fd5b505af11580156116e5573d6000803e3d6000fd5b505050506040513d601f19601f820116820180604052506117099190810190613e5f565b1561171357600080fd5b60035460405160e160020a635f1132b7028152600160a060020a039091169063be22656e906117489089908b9060040161476e565b602060405180830381600087803b15801561176257600080fd5b505af1158015611776573d6000803e3d6000fd5b505050506040513d601f19601f8201168201806040525061179a9190810190613e5f565b15156117a557600080fd5b60055460405160e060020a639243c9db028152600160a060020a0390911690639243c9db906117d8908a90600401614519565b602060405180830381600087803b1580156117f257600080fd5b505af1158015611806573d6000803e3d6000fd5b505050506040513d601f19601f8201168201806040525061182a9190810190613e5f565b1561183457600080fd5b60085460405160e260020a6301dfe783028152600160a060020a039091169063077f9e0c90611867908a90600401614519565b602060405180830381600087803b15801561188157600080fd5b505af1158015611895573d6000803e3d6000fd5b505050506040513d601f19601f820116820180604052506118b99190810190613e5f565b156118c357600080fd5b6008546040808801518051602090910151915160e060020a633bebdcb5028152600160a060020a0390931692633bebdcb592611906928c9290919060040161459c565b602060405180830381600087803b15801561192057600080fd5b505af1158015611934573d6000803e3d6000fd5b505050506040513d601f19601f820116820180604052506119589190810190613e5f565b151561196357600080fd5b6008546040808801518051602090910151915160e460020a62712abb028152600160a060020a0390931692630712abb0926119a5928c9290919060040161459c565b602060405180830381600087803b1580156119bf57600080fd5b505af11580156119d3573d6000803e3d6000fd5b505050506040513d601f19601f820116820180604052506119f79190810190613e9b565b6001811115611a0257fe5b15611a0c57600080fd5b6008546040808801518051602090910151915160e060020a63cdbf9419028152600160a060020a039093169263cdbf941992611a4f928c9290919060040161459c565b602060405180830381600087803b158015611a6957600080fd5b505af1158015611a7d573d6000803e3d6000fd5b505050506040513d601f19601f82011682018060405250611aa19190810190613eb9565b865114611aad57600080fd5b600260009054906101000a9004600160a060020a0316600160a060020a031663f71e860f6040518163ffffffff1660e060020a028152600401602060405180830381600087803b158015611b0057600080fd5b505af1158015611b14573d6000803e3d6000fd5b505050506040513d601f19601f82011682018060405250611b389190810190613e5f565b8015611bca5750600560009054906101000a9004600160a060020a0316600160a060020a031663994e20766040518163ffffffff1660e060020a028152600401602060405180830381600087803b158015611b9257600080fd5b505af1158015611ba6573d6000803e3d6000fd5b505050506040513d601f19601f82011682018060405250611bca9190810190613e5f565b80611bd757506007548651105b1515611be257600080fd5b8551611bed90610c7f565b611c1e5785516060870151805160209182015160808a01518051930151611c1994936001939291612ddc565b611c2b565b8551611c2b906001613006565b9450611c37868861306e565b9350836001811115611c4557fe5b158015611c5e5750600385015460a060020a900460ff16155b80611c8b5750836001811115611c7057fe5b6001148015611c8b5750600585015460a060020a900460ff16155b1515611c9657600080fd5b836001811115611ca257fe5b1515611cc55760038501805460a060020a60ff02191660a060020a179055611cde565b60058501805460a060020a60ff02191660a060020a1790555b60035460405160e160020a635f1132b7028152600160a060020a039091169063be22656e90611d139089908b9060040161476e565b602060405180830381600087803b158015611d2d57600080fd5b505af1158015611d41573d6000803e3d6000fd5b505050506040513d601f19601f82011682018060405250611d659190810190613e5f565b15611d89576060808701519081015160200151604090910151519093509150611da1565b60808601516060810151516040909101515190935091505b8551600160a060020a038089166000908152601060209081526040808320818c01805151909516845282528083209351820151835292905220541015611f92578551600160a060020a038089166000908152601060209081526040808320818c01805151861685529083528184208151840151855283529281902094909455600480549251805192015160e08c0151955160e360020a6314364fc9028152939094169463a1b27e4894611e5b948e948a9490939101614657565b600060405180830381600087803b158015611e7557600080fd5b505af1158015611e89573d6000803e3d6000fd5b5050600480546008546040808c01518051602090910151915160e060020a6342cb4587028152600160a060020a03948516975063cd49737d96508e9593909416936342cb458793611edf9387939290910161459c565b602060405180830381600087803b158015611ef957600080fd5b505af1158015611f0d573d6000803e3d6000fd5b505050506040513d601f19601f82011682018060405250611f319190810190613eb9565b6040808b01518051602090910151915160e060020a63ffffffff8716028152611f5f94939290600401614622565b600060405180830381600087803b158015611f7957600080fd5b505af1158015611f8d573d6000803e3d6000fd5b505050505b600a54600160a060020a031615611fbf57600a548651611fbf9189918691600160a060020a0316906130a2565b60075486511115611fd05785516007555b50505050505050565b600080611fe46133cd565b60035460405160e160020a637211c8c70281528591600160a060020a03169063e423918e9061201790849060040161479d565b602060405180830381600087803b15801561203157600080fd5b505af1158015612045573d6000803e3d6000fd5b505050506040513d601f19601f820116820180604052506120699190810190613e5f565b151561207457600080fd5b60065460e08601515160405160e160020a6352c894d1028152600160a060020a039092169163a59129a2916120ab91600401614726565b602060405180830381600087803b1580156120c557600080fd5b505af11580156120d9573d6000803e3d6000fd5b505050506040513d601f19601f820116820180604052506120fd9190810190613e5f565b1561210757600080fd5b60035460405160e160020a6303e149c3028152600160a060020a03909116906307c293869061213c9088908a906004016147ae565b602060405180830381600087803b15801561215657600080fd5b505af115801561216a573d6000803e3d6000fd5b505050506040513d601f19601f8201168201806040525061218e9190810190613e5f565b151561219957600080fd5b60055460405160e060020a639243c9db028152600160a060020a0390911690639243c9db906121cc908990600401614519565b602060405180830381600087803b1580156121e657600080fd5b505af11580156121fa573d6000803e3d6000fd5b505050506040513d601f19601f8201168201806040525061221e9190810190613e5f565b1561222857600080fd5b60085460405160e260020a6301dfe783028152600160a060020a039091169063077f9e0c9061225b908990600401614519565b602060405180830381600087803b15801561227557600080fd5b505af1158015612289573d6000803e3d6000fd5b505050506040513d601f19601f820116820180604052506122ad9190810190613e5f565b156122b757600080fd5b600854604080870151518051602090910151915160e060020a633bebdcb5028152600160a060020a0390931692633bebdcb5926122fb928b9290919060040161459c565b602060405180830381600087803b15801561231557600080fd5b505af1158015612329573d6000803e3d6000fd5b505050506040513d601f19601f8201168201806040525061234d9190810190613e5f565b151561235857600080fd5b6008546040808701516020908101518051910151915160e060020a633bebdcb5028152600160a060020a0390931692633bebdcb59261239e928b9290919060040161459c565b602060405180830381600087803b1580156123b857600080fd5b505af11580156123cc573d6000803e3d6000fd5b505050506040513d601f19601f820116820180604052506123f09190810190613e5f565b15156123fb57600080fd5b600854604080870151518051602090910151915160e460020a62712abb028152600160a060020a0390931692630712abb09261243e928b9290919060040161459c565b602060405180830381600087803b15801561245857600080fd5b505af115801561246c573d6000803e3d6000fd5b505050506040513d601f19601f820116820180604052506124909190810190613e9b565b600181111561249b57fe5b156124a557600080fd5b6008546040808701516020908101518051910151915160e460020a62712abb028152600160a060020a0390931692630712abb0926124ea928b9290919060040161459c565b602060405180830381600087803b15801561250457600080fd5b505af1158015612518573d6000803e3d6000fd5b505050506040513d601f19601f8201168201806040525061253c9190810190613e9b565b600181111561254757fe5b1561255157600080fd5b600854604080870151518051602090910151915160e060020a63cdbf9419028152600160a060020a039093169263cdbf941992612595928b9290919060040161459c565b602060405180830381600087803b1580156125af57600080fd5b505af11580156125c3573d6000803e3d6000fd5b505050506040513d601f19601f820116820180604052506125e79190810190613eb9565b8551146125f357600080fd5b6008546040808701516020908101518051910151915160e060020a63cdbf9419028152600160a060020a039093169263cdbf941992612639928b9290919060040161459c565b602060405180830381600087803b15801561265357600080fd5b505af1158015612667573d6000803e3d6000fd5b505050506040513d601f19601f8201168201806040525061268b9190810190613eb9565b85511461269757600080fd5b600260009054906101000a9004600160a060020a0316600160a060020a031663f71e860f6040518163ffffffff1660e060020a028152600401602060405180830381600087803b1580156126ea57600080fd5b505af11580156126fe573d6000803e3d6000fd5b505050506040513d601f19601f820116820180604052506127229190810190613e5f565b80156127b45750600560009054906101000a9004600160a060020a0316600160a060020a031663994e20766040518163ffffffff1660e060020a028152600401602060405180830381600087803b15801561277c57600080fd5b505af1158015612790573d6000803e3d6000fd5b505050506040513d601f19601f820116820180604052506127b49190810190613e5f565b806127c157506007548551105b15156127cc57600080fd5b84516127d790610c7f565b61280857845160a086015180516020918201516080890151805193015161280394936000939291612ddc565b612815565b8451612815906000613006565b93506128218587613371565b925082600181111561282f57fe5b1580156128485750600384015460a060020a900460ff16155b80612875575082600181111561285a57fe5b60011480156128755750600584015460a060020a900460ff16155b151561288057600080fd5b82600181111561288c57fe5b15156128af5760038401805460a060020a60ff02191660a060020a1790556128c8565b60058401805460a060020a60ff02191660a060020a1790555b60035460405160e060020a63059057d7028152600160a060020a039091169063059057d7906128fd9088908a906004016147ae565b602060405180830381600087803b15801561291757600080fd5b505af115801561292b573d6000803e3d6000fd5b505050506040513d601f19601f8201168201806040525061294f9190810190613e5f565b61295d578460a00151612963565b84608001515b8551600160a060020a038089166000908152601060209081526040808320818c018051515190951684528252808320935151820151835292905220549193501115612b68578451600160a060020a038088166000908152601060209081526040808320818b0180515151861685529083528184208151518401518552835292819020949094556004805460a0880151515193515180519301516101008c0151965160e360020a6314364fc9028152919095169563a1b27e4895612a2f958e959094909391929101614657565b600060405180830381600087803b158015612a4957600080fd5b505af1158015612a5d573d6000803e3d6000fd5b5050600480546008546040808b0151518051602090910151915160e060020a6342cb4587028152600160a060020a03948516975063cd49737d96508d9593909416936342cb458793612ab49387939290910161459c565b602060405180830381600087803b158015612ace57600080fd5b505af1158015612ae2573d6000803e3d6000fd5b505050506040513d601f19601f82011682018060405250612b069190810190613eb9565b6040808a0151518051602090910151915160e060020a63ffffffff8716028152612b3594939290600401614622565b600060405180830381600087803b158015612b4f57600080fd5b505af1158015612b63573d6000803e3d6000fd5b505050505b8451600160a060020a038088166000908152601060209081526040808320818b01805184015151909516845282528083209351820151820151835292905220541015612d7a578451600160a060020a038088166000908152601060209081526040808320818b018051840151518616855290835281842081518401518401518552835292819020949094556004805460a088015183015151935183015180519301516101008c0151965160e360020a6314364fc9028152919095169563a1b27e4895612c3d958e959094909391929101614657565b600060405180830381600087803b158015612c5757600080fd5b505af1158015612c6b573d6000803e3d6000fd5b5050600480546008546040808b01516020908101518051910151915160e060020a6342cb4587028152600160a060020a03948516975063cd49737d96508d9593909416936342cb458793612cc49387939290910161459c565b602060405180830381600087803b158015612cde57600080fd5b505af1158015612cf2573d6000803e3d6000fd5b505050506040513d601f19601f82011682018060405250612d169190810190613eb9565b6040808a01516020908101518051910151915160e060020a63ffffffff8716028152612d4794939290600401614622565b600060405180830381600087803b158015612d6157600080fd5b505af1158015612d75573d6000803e3d6000fd5b505050505b600954600160a060020a031615612db25760c0820151602001516009548651612db29289929091600160a060020a03909116906130a2565b60075485511115612dc35784516007555b505050505050565b600154600160a060020a0316331490565b6000612de661339b565b878152600060208201886001811115612dfb57fe5b90816001811115612e0857fe5b9052506040805160608082018352898252600160a060020a03898116602080850191909152600084860181905287860194909452845180840186528a81529189168282015293810183905290850152600c805460018082018084559290935285517fdf6966c971051c3d54ec59162606531493a51404a002842f56009d7e5cf4a8c76006909202918201908155938601517fdf6966c971051c3d54ec59162606531493a51404a002842f56009d7e5cf4a8c8909101805492948794909360ff1916908381811115612ed557fe5b02179055506040828101518051600284015560208082015160038501805493850151600160a060020a0319948516600160a060020a039384161760a060020a60ff021990811660a060020a92151583021790925560609097015180516004880155808401516005909701805491870151919095169683169690961716941515909502939093179055600c805460008f8152600d85528381208290558c8616808252600e865284822080546001818101835591845287842001849055968c168083528583208054988901815583528683209097018390558152600f8086528482208f835286528482208390559581529484528285208b8652909352922081905581549093509091506000198301908110612fea57fe5b9060005260206000209060060201925050509695505050505050565b6000828152600d6020526040812054600c8054839190600019840190811061302a57fe5b6000918252602090912060016006909202018181015490925060ff169081111561305057fe5b84600181111561305c57fe5b1461306657600080fd5b949350505050565b6000826060015160200151600160a060020a031682600160a060020a03161461309857600161309b565b60005b9392505050565b6000808080805b87518510156133665787858151811015156130c057fe5b6020908102909101015151156130fd57600b548851600160a060020a03909116908990879081106130ed57fe5b6020908102909101015151613101565b8660005b600160a060020a03808c1660009081526011602090815260408083208487168452825280832093851683529290529081208b5193975091955090918a908890811061314857fe5b90602001906020020151602001516020015160000151600160a060020a0316600160a060020a031681526020019081526020016000206000898781518110151561318e57fe5b9060200190602002015160200151602001516020015181526020019081526020016000209150858260000154101561335b57858255600182015488518990879081106131d657fe5b90602001906020020151602001516000015103905087858151811015156131f957fe5b602090810290910181015101515160018301556004548851600160a060020a039091169063158a0342908590879085908d908b90811061323557fe5b60209081029091018101518101510151518d518e908c90811061325457fe5b906020019060200201516020015160200151602001516040518663ffffffff1660e060020a02815260040161328d9594939291906145c4565b600060405180830381600087803b1580156132a757600080fd5b505af11580156132bb573d6000803e3d6000fd5b505050507f64fcac3c2b1ccc98d3039b49f7668a97654165a070c78fa3163859e4d5d0978089828a888151811015156132f057fe5b60209081029091018101510151518b518c908a90811061330c57fe5b60209081029091018101518101510151518c518d908b90811061332b57fe5b906020019060200201516020015160200151602001516040516133529594939291906146a3565b60405180910390a15b6001909401936130a9565b505050505050505050565b60008260a0015160200151600160a060020a031682600160a060020a03161461309857600161309b565b6040805161010081018252600080825260208201529081016133bb613417565b81526020016133c8613417565b905290565b604080516102208101825260008082526020820181905291810182905290606082019081526020016133fd613437565b815260200161340a61345f565b81526020016133c8613473565b604080516060810182526000808252602082018190529181019190915290565b60a06040519081016040528060008152602001613452613494565b81526020016133c8613494565b608060405190810160405280613452613494565b6080604051908101604052806134876134ab565b8152602001606081525090565b604080518082019091526000808252602082015290565b606060405190810160405280600081526020016133c8604080518082019091526000808252602082015290565b600061309b8235614860565b6000601f820183136134f557600080fd5b813561350861350382614836565b614810565b9150818183526020840193506020810190508385608084028201111561352d57600080fd5b60005b8381101561355b578161354388826136cf565b84525060209092019160809190910190600101613530565b5050505092915050565b600061309b825161486c565b600061309b8235614871565b600061309b823561488a565b600061309b8235614895565b600061309b8251614895565b600061309b8251614871565b6000604082840312156135bf57600080fd5b6135c96040614810565b905060006135d784846134d8565b82525060206135e884848301613571565b60208301525092915050565b60006040828403121561360657600080fd5b6136106040614810565b905060006135d78484613571565b60006060828403121561363057600080fd5b61363a6040614810565b905060006136488484613571565b82525060206135e8848483016135ad565b60006080828403121561366b57600080fd5b6136756040614810565b9050600061368384846135ad565b82525060406135e8848483016135ad565b6000608082840312156136a657600080fd5b6136b06040614810565b905060006136be84846135f4565b82525060406135e8848483016135f4565b6000608082840312156136e157600080fd5b6136eb6040614810565b905060006136f98484613571565b82525060206135e88484830161361e565b600060a0828403121561371c57600080fd5b6137266080614810565b905060006137348484613571565b8252506020613745848483016134d8565b6020830152506040613759848285016135f4565b60408301525060808201356001604060020a0381111561377857600080fd5b613784848285016139f4565b60608301525092915050565b600060a082840312156137a257600080fd5b6137ac6080614810565b905060006137ba8484613571565b82525060206137cb848483016134d8565b60208301525060406137df848285016135f4565b60408301525060808201356001604060020a038111156137fe57600080fd5b613784848285016139a2565b6000610240828403121561381d57600080fd5b613828610120614810565b905060006138368484613571565b825250602061384784848301613571565b602083015250604061385b848285016135ad565b60408301525060808201356001604060020a0381111561387a57600080fd5b61388684828501613790565b60608301525060a08201356001604060020a038111156138a557600080fd5b6138b18482850161370a565b60808301525060c06138c5848285016135f4565b60a0830152506101006138da84828501613c6f565b60c0830152506102006138ef84828501613571565b60e08301525061022061390484828501613571565b6101008301525092915050565b60006080828403121561392357600080fd5b61392d6040614810565b9050600061393b8484613571565b82525060206135e88484830160006060828403121561395957600080fd5b6139636060614810565b905060006139718484613571565b825250602061398284848301613571565b602083015250604061399684828501613cab565b60408301525092915050565b6000608082840312156139b457600080fd5b6139be6040614810565b905060006139cc848461361e565b82525060608201356001604060020a038111156139e857600080fd5b6135e8848285016134e4565b600060208284031215613a0657600080fd5b613a106020614810565b905081356001604060020a03811115613a2857600080fd5b613a34848285016134e4565b82525092915050565b600060a08284031215613a4f57600080fd5b613a596060614810565b90506000613a678484613571565b8252506020613a78848483016135f4565b6020830152506060613996848285016135f4565b60006101c08284031215613a9f57600080fd5b613aa960e0614810565b90506000613ab78484613571565b8252506020613ac8848483016134d8565b6020830152506040613adc84828501613571565b6040830152506060613af084828501613589565b6060830152506080613b0484828501613a3d565b608083015250610120613b1984828501613694565b60a0830152506101a08201356001604060020a03811115613b3957600080fd5b613b45848285016139a2565b60c08301525092915050565b60006102608284031215613b6457600080fd5b613b6f610140614810565b90506000613b7d8484613571565b8252506020613b8e84848301613571565b6020830152506040613ba284828501613659565b60408301525060c0613bb684828501613571565b60608301525060e08201356001604060020a03811115613bd557600080fd5b613be184828501613a8c565b6080830152506101008201356001604060020a03811115613c0157600080fd5b613c0d84828501613a8c565b60a083015250610120613c2284828501613694565b60c0830152506101a0613c3784828501613911565b60e083015250610220613c4c84828501613571565b61010083015250610240613c6284828501613571565b6101208301525092915050565b60006101008284031215613c8257600080fd5b613c8c6040614810565b90506000613c9a8484613911565b82525060806135e884848301613911565b600061309b8235614884565b600060208284031215613cc957600080fd5b600061306684846134d8565b600080600080600060a08688031215613ced57600080fd5b6000613cf988886134d8565b9550506020613d0a888289016134d8565b9450506040613d1b888289016134d8565b9350506060613d2c888289016134d8565b9250506080613d3d88828901613571565b9150509295509295909350565b600080600060608486031215613d5f57600080fd5b6000613d6b86866134d8565b9350506020613d7c868287016134d8565b9250506040613d8d86828701613571565b9150509250925092565b60008060408385031215613daa57600080fd5b6000613db685856134d8565b92505060208301356001604060020a03811115613dd257600080fd5b613dde8582860161380a565b9150509250929050565b60008060408385031215613dfb57600080fd5b6000613e0785856134d8565b92505060208301356001604060020a03811115613e2357600080fd5b613dde85828601613b51565b60008060408385031215613e4257600080fd5b6000613e4e85856134d8565b9250506020613dde85828601613571565b600060208284031215613e7157600080fd5b60006130668484613565565b600060208284031215613e8f57600080fd5b6000613066848461357d565b600060208284031215613ead57600080fd5b60006130668484613595565b600060208284031215613ecb57600080fd5b600061306684846135a1565b600060208284031215613ee957600080fd5b81356001604060020a03811115613eff57600080fd5b6130668482850161380a565b600060208284031215613f1d57600080fd5b81356001604060020a03811115613f3357600080fd5b61306684828501613b51565b600060208284031215613f5157600080fd5b60006130668484613571565b613f6681614860565b82525050565b6000613f778261485c565b808452602084019350613f8983614856565b60005b82811015613fb957613f9f868351614098565b613fa882614856565b608096909601959150600101613f8c565b5093949350505050565b613f668161486c565b613f6681614871565b613f668161488a565b613f66816148a4565b6000815260200190565b805160408301906140028482613f5d565b5060208201516140156020850182613fcc565b50505050565b805160408301906140028482613fcc565b8051606083019061403d8482613fcc565b5060208201516140156020850182613ff1565b805160808301906140618482613ff1565b5060208201516140156040850182613ff1565b80516080830190614085848261401b565b506020820151614015604085018261401b565b805160808301906140a98482613fcc565b506020820151614015602085018261402c565b805160009060a08401906140d08582613fcc565b5060208301516140e36020860182613f5d565b5060408301516140f6604086018261401b565b506060830151848203608086015261410e8282614339565b95945050505050565b805160009060a084019061412b8582613fcc565b50602083015161413e6020860182613f5d565b506040830151614151604086018261401b565b506060830151848203608086015261410e828261430d565b805160009061024084019061417e8582613fcc565b5060208301516141916020860182613fcc565b5060408301516141a46040860182613ff1565b50606083015184820360808601526141bc8282614117565b915050608083015184820360a08601526141d682826140bc565b91505060a08301516141eb60c086018261401b565b5060c08301516141ff6101008601826144eb565b5060e0830151614213610200860182613fcc565b50610100830151614228610220860182613fcc565b509392505050565b805160808301906142418482613fcc565b50602082015161401560208501826142d6565b805160608301906142658482613fcc565b5060208201516142786020850182613f5d565b5060408201516140156040850182613fc3565b805161010083019061429d8482613fcc565b5060208201516142b06020850182613fde565b5060408201516142c36040850182614254565b50606082015161401560a0850182614254565b805160608301906142e78482613fcc565b5060208201516142fa6020850182613fcc565b5060408201516140156040850182614510565b80516000906080840190614321858261402c565b506020830151848203606086015261410e8282613f6c565b805160208084526000919084019061410e8282613f6c565b805160a08301906143628482613fcc565b506020820151614375602085018261401b565b506040820151614015606085018261401b565b80516000906101c084019061439d8582613fcc565b5060208301516143b06020860182613f5d565b5060408301516143c36040860182613fcc565b5060608301516143d66060860182613fde565b5060808301516143e96080860182614351565b5060a08301516143fd610120860182614074565b5060c08301518482036101a086015261410e828261430d565b805160009061026084019061442b8582613fcc565b50602083015161443e6020860182613fcc565b5060408301516144516040860182614050565b50606083015161446460c0860182613fcc565b50608083015184820360e086015261447c8282614388565b91505060a08301518482036101008601526144978282614388565b91505060c08301516144ad610120860182614074565b5060e08301516144c16101a0860182614230565b506101008301516144d6610220860182613fcc565b50610120830151614228610240860182613fcc565b80516101008301906144fd8482614230565b5060208201516140156080850182614230565b613f6681614884565b6020810161116b8284613f5d565b604081016145358285613f5d565b61309b6020830184613f5d565b606081016145508286613f5d565b61455d6020830185613f5d565b818103604083015261410e8184614169565b6060810161457d8286613f5d565b61458a6020830185613f5d565b818103604083015261410e8184614416565b606081016145aa8286613f5d565b6145b76020830185613f5d565b6130666040830184613fcc565b60c081016145d28288613f5d565b6145df6020830187613fd5565b6145ec6040830186613fcc565b6145f96060830185613f5d565b6146066080830184613fcc565b81810360a083015261461781613fe7565b979650505050505050565b608081016146308287613f5d565b61463d6020830186613fcc565b61464a6040830185613f5d565b61410e6060830184613fcc565b60a081016146658288613f5d565b6146726020830187613fcc565b61467f6040830186613f5d565b61468c6060830185613fcc565b6146996080830184613fcc565b9695505050505050565b60a081016146b18288613f5d565b6146be6020830187613fcc565b6146cb6040830186613fcc565b61468c6060830185613f5d565b604081016146e68285613f5d565b81810360208301526130668184614169565b604081016147068285613f5d565b81810360208301526130668184614416565b6020810161116b8284613fc3565b6020810161116b8284613fcc565b6020810161116b8284613fd5565b604081016147508285613fd5565b61309b6020830184613fd5565b6020808252810161309b8184614169565b6040808252810161477f8185614169565b905061309b6020830184613f5d565b610100810161116b828461428b565b6020808252810161309b8184614416565b6040808252810161477f8185614416565b61010081016147ce8287613fcc565b6147db6020830186613fde565b6147e86040830185614254565b61410e60a0830184614254565b604081016148038285613fcc565b61309b6020830184613fcc565b6040518181016001604060020a038111828210171561482e57600080fd5b604052919050565b60006001604060020a0382111561484c57600080fd5b5060209081020190565b60200190565b5190565b600160a060020a031690565b151590565b90565b60006002821061488057fe5b5090565b60ff1690565b600061116b82614860565b60006002821061488057600080fd5b600061116b826148745600a265627a7a723058208b769cc847350fbc614e277e8dbede58374dcdf5241bcb39a950dfbf21be83ff6c6578706572696d656e74616cf50037",
  "source": "/*\n * Hubii Nahmii\n *\n * Compliant with the Hubii Nahmii specification v0.12.\n *\n * Copyright (C) 2017-2018 Hubii AS\n */\n\npragma solidity ^0.4.25;\npragma experimental ABIEncoderV2;\n\nimport {Ownable} from \"./Ownable.sol\";\nimport {Configurable} from \"./Configurable.sol\";\nimport {Validatable} from \"./Validatable.sol\";\nimport {ClientFundable} from \"./ClientFundable.sol\";\nimport {CommunityVotable} from \"./CommunityVotable.sol\";\nimport {FraudChallengable} from \"./FraudChallengable.sol\";\nimport {RevenueFund} from \"./RevenueFund.sol\";\nimport {PartnerFund} from \"./PartnerFund.sol\";\nimport {DriipSettlementChallenge} from \"./DriipSettlementChallenge.sol\";\nimport {Beneficiary} from \"./Beneficiary.sol\";\nimport {SafeMathIntLib} from \"./SafeMathIntLib.sol\";\nimport {SafeMathUintLib} from \"./SafeMathUintLib.sol\";\nimport {MonetaryTypesLib} from \"./MonetaryTypesLib.sol\";\nimport {NahmiiTypesLib} from \"./NahmiiTypesLib.sol\";\nimport {SettlementTypesLib} from \"./SettlementTypesLib.sol\";\n\n/**\n@title DriipSettlement\n@notice Where driip settlements are finalized\n*/\ncontract DriipSettlement is Ownable, Configurable, Validatable, ClientFundable, CommunityVotable, FraudChallengable {\n    using SafeMathIntLib for int256;\n    using SafeMathUintLib for uint256;\n\n    //\n    // Structures\n    // -----------------------------------------------------------------------------------------------------------------\n    struct Total {\n        uint256 nonce;\n        int256 amount;\n    }\n\n    //\n    // Variables\n    // -----------------------------------------------------------------------------------------------------------------\n    uint256 public maxDriipNonce;\n\n    DriipSettlementChallenge public driipSettlementChallenge;\n    RevenueFund public tradesRevenueFund;\n    RevenueFund public paymentsRevenueFund;\n    PartnerFund public partnerFund;\n\n    SettlementTypesLib.Settlement[] public settlements;\n    mapping(uint256 => uint256) public nonceSettlementIndex;\n    mapping(address => uint256[]) public walletSettlementIndices;\n    mapping(address => mapping(uint256 => uint256)) public walletNonceSettlementIndex;\n    mapping(address => mapping(address => mapping(uint256 => uint256))) public walletCurrencyMaxDriipNonce;\n\n    mapping(address => mapping(address => mapping(address => mapping(address => mapping(uint256 => Total))))) public feeTotalsMap;\n\n    //\n    // Events\n    // -----------------------------------------------------------------------------------------------------------------\n    event SettleTradeEvent(address wallet, NahmiiTypesLib.Trade trade);\n    event SettleTradeByProxyEvent(address proxy, address wallet, NahmiiTypesLib.Trade trade);\n    event SettlePaymentEvent(address wallet, NahmiiTypesLib.Payment payment);\n    event SettlePaymentByProxyEvent(address proxy, address wallet, NahmiiTypesLib.Payment payment);\n    event SetDriipSettlementChallengeEvent(DriipSettlementChallenge oldDriipSettlementChallenge,\n        DriipSettlementChallenge newDriipSettlementChallenge);\n    event SetTradesRevenueFundEvent(RevenueFund oldRevenueFund, RevenueFund newRevenueFund);\n    event SetPaymentsRevenueFundEvent(RevenueFund oldRevenueFund, RevenueFund newRevenueFund);\n    event SetPartnerFundEvent(PartnerFund oldPartnerFund, PartnerFund newPartnerFund);\n    event StageFeesEvent(address wallet, int256 deltaAmount, int256 cumulativeAmount,\n        address currencyCt, uint256 currencyId);\n\n    //\n    // Constructor\n    // -----------------------------------------------------------------------------------------------------------------\n    constructor(address deployer) Ownable(deployer) public {\n    }\n\n    //\n    // Functions\n    // -----------------------------------------------------------------------------------------------------------------\n    /// @notice Set the driip settlement challenge contract\n    /// @param newDriipSettlementChallenge The (address of) DriipSettlementChallenge contract instance\n    function setDriipSettlementChallenge(DriipSettlementChallenge newDriipSettlementChallenge) public\n    onlyDeployer\n    notNullAddress(newDriipSettlementChallenge)\n    {\n        DriipSettlementChallenge oldDriipSettlementChallenge = driipSettlementChallenge;\n        driipSettlementChallenge = newDriipSettlementChallenge;\n        emit SetDriipSettlementChallengeEvent(oldDriipSettlementChallenge, driipSettlementChallenge);\n    }\n\n    /// @notice Set the trades revenue fund contract\n    /// @param newTradesRevenueFund The (address of) trades RevenueFund contract instance\n    function setTradesRevenueFund(RevenueFund newTradesRevenueFund) public\n    onlyDeployer\n    notNullAddress(newTradesRevenueFund)\n    {\n        RevenueFund oldTradesRevenueFund = tradesRevenueFund;\n        tradesRevenueFund = newTradesRevenueFund;\n        emit SetTradesRevenueFundEvent(oldTradesRevenueFund, tradesRevenueFund);\n    }\n\n    /// @notice Set the payments revenue fund contract\n    /// @param newPaymentsRevenueFund The (address of) payments RevenueFund contract instance\n    function setPaymentsRevenueFund(RevenueFund newPaymentsRevenueFund) public\n    onlyDeployer\n    notNullAddress(newPaymentsRevenueFund)\n    {\n        RevenueFund oldPaymentsRevenueFund = paymentsRevenueFund;\n        paymentsRevenueFund = newPaymentsRevenueFund;\n        emit SetPaymentsRevenueFundEvent(oldPaymentsRevenueFund, paymentsRevenueFund);\n    }\n\n    /// @notice Set the partner fund contract\n    /// @param newPartnerFund The (address of) partner contract instance\n    function setPartnerFund(PartnerFund newPartnerFund) public\n    onlyDeployer\n    notNullAddress(newPartnerFund)\n    {\n        PartnerFund oldPartnerFund = partnerFund;\n        partnerFund = newPartnerFund;\n        emit SetPartnerFundEvent(oldPartnerFund, partnerFund);\n    }\n\n    /// @notice Get the count of settlements\n    function settlementsCount() public view returns (uint256) {\n        return settlements.length;\n    }\n\n    /// @notice Return boolean indicating whether there is already a settlement for the given (global) nonce\n    /// @param nonce The nonce for which to check for settlement\n    /// @return true if there exists a settlement for the provided nonce, false otherwise\n    function hasSettlementByNonce(uint256 nonce) public view returns (bool) {\n        return 0 < nonceSettlementIndex[nonce];\n    }\n\n    /// @notice Get the settlement for the given (global) nonce\n    /// @param nonce The nonce of the settlement\n    /// @return settlement of the provided nonce\n    function settlementByNonce(uint256 nonce) public view returns (SettlementTypesLib.Settlement) {\n        require(hasSettlementByNonce(nonce));\n        return settlements[nonceSettlementIndex[nonce] - 1];\n    }\n\n    /// @notice Get the count of settlements for given wallet\n    /// @param wallet The address for which to return settlement count\n    /// @return count of settlements for the provided wallet\n    function settlementsCountByWallet(address wallet) public view returns (uint256) {\n        return walletSettlementIndices[wallet].length;\n    }\n\n    /// @notice Get settlement of given wallet and index\n    /// @param wallet The address for which to return settlement\n    /// @param index The wallet's settlement index\n    /// @return settlement for the provided wallet and index\n    function settlementByWalletAndIndex(address wallet, uint256 index) public view returns (SettlementTypesLib.Settlement) {\n        require(walletSettlementIndices[wallet].length > index);\n        return settlements[walletSettlementIndices[wallet][index] - 1];\n    }\n\n    /// @notice Get settlement of given wallet and (wallet) nonce\n    /// @param wallet The address for which to return settlement\n    /// @param nonce The wallet's nonce\n    /// @return settlement for the provided wallet and index\n    function settlementByWalletAndNonce(address wallet, uint256 nonce) public view returns (SettlementTypesLib.Settlement) {\n        require(0 < walletNonceSettlementIndex[wallet][nonce]);\n        return settlements[walletNonceSettlementIndex[wallet][nonce] - 1];\n    }\n\n    /// @notice Update the max driip nonce property from CommunityVote contract\n    function updateMaxDriipNonce() public {\n        uint256 _maxDriipNonce = communityVote.getMaxDriipNonce();\n        if (_maxDriipNonce > 0) {\n            maxDriipNonce = _maxDriipNonce;\n        }\n    }\n\n    /// @notice Settle driip that is a trade\n    /// @param trade The trade to be settled\n    function settleTrade(NahmiiTypesLib.Trade trade)\n    public\n    {\n        // Settle trade\n        _settleTrade(msg.sender, trade);\n\n        // Emit event\n        emit SettleTradeEvent(msg.sender, trade);\n    }\n\n    /// @notice Settle driip that is a trade\n    /// @param wallet The wallet whose side of the trade is to be settled\n    /// @param trade The trade to be settled\n    function settleTradeByProxy(address wallet, NahmiiTypesLib.Trade trade)\n    public\n    onlyOperator\n    {\n        // Settle trade for wallet\n        _settleTrade(wallet, trade);\n\n        // Emit event\n        emit SettleTradeByProxyEvent(msg.sender, wallet, trade);\n    }\n\n    /// @notice Settle driip that is a payment\n    /// @param payment The payment to be settled\n    function settlePayment(NahmiiTypesLib.Payment payment)\n    public\n    {\n        // Settle payment\n        _settlePayment(msg.sender, payment);\n\n        // Emit event\n        emit SettlePaymentEvent(msg.sender, payment);\n    }\n\n    /// @notice Settle driip that is a payment\n    /// @param wallet The wallet whose side of the payment is to be settled\n    /// @param payment The payment to be settled\n    function settlePaymentByProxy(address wallet, NahmiiTypesLib.Payment payment)\n    public\n    onlyOperator\n    {\n        // Settle payment for wallet\n        _settlePayment(wallet, payment);\n\n        // Emit event\n        emit SettlePaymentByProxyEvent(msg.sender, wallet, payment);\n    }\n\n    function _settleTrade(address wallet, NahmiiTypesLib.Trade trade)\n    private\n    onlySealedTrade(trade)\n    {\n        require(!fraudChallenge.isFraudulentTradeHash(trade.seal.hash));\n        require(validator.isTradeParty(trade, wallet));\n        require(!communityVote.isDoubleSpenderWallet(wallet));\n\n        // Require that wallet is not locked\n        require(!driipSettlementChallenge.isLockedWallet(wallet));\n\n        // Require that proposal has expired\n        require(driipSettlementChallenge.hasProposalExpired(wallet, trade.currencies.intended.ct, trade.currencies.intended.id));\n        require(driipSettlementChallenge.hasProposalExpired(wallet, trade.currencies.conjugate.ct, trade.currencies.conjugate.id));\n\n        // Require that driip settlement challenge proposals qualified\n        require(SettlementTypesLib.Status.Qualified == driipSettlementChallenge.proposalStatus(\n            wallet, trade.currencies.intended.ct, trade.currencies.intended.id\n        ));\n        require(SettlementTypesLib.Status.Qualified == driipSettlementChallenge.proposalStatus(\n            wallet, trade.currencies.conjugate.ct, trade.currencies.conjugate.id\n        ));\n\n        // Require that the wallet's current driip settlement challenge is wrt this trade\n        require(trade.nonce == driipSettlementChallenge.proposalNonce(wallet, trade.currencies.intended.ct, trade.currencies.intended.id));\n        require(trade.nonce == driipSettlementChallenge.proposalNonce(wallet, trade.currencies.conjugate.ct, trade.currencies.conjugate.id));\n\n        // Require that operational mode is normal and data is available, or that nonce is\n        // smaller than max null nonce\n        require((configuration.isOperationalModeNormal() && communityVote.isDataAvailable())\n            || (trade.nonce < maxDriipNonce));\n\n        // Get settlement, or create one if no such settlement exists for the trade nonce\n        SettlementTypesLib.Settlement storage settlement = hasSettlementByNonce(trade.nonce) ?\n        getSettlement(\n            trade.nonce, NahmiiTypesLib.DriipType.Trade\n        ) :\n        createSettlement(\n            trade.nonce, NahmiiTypesLib.DriipType.Trade, trade.seller.nonce,\n            trade.seller.wallet, trade.buyer.nonce, trade.buyer.wallet\n        );\n\n        // Get settlement role\n        SettlementTypesLib.SettlementRole settlementRole = getSettlementRoleFromTrade(trade, wallet);\n\n        // If exists settlement of nonce then require that wallet has not already settled\n        require(\n            (SettlementTypesLib.SettlementRole.Origin == settlementRole && !settlement.origin.done) ||\n            (SettlementTypesLib.SettlementRole.Target == settlementRole && !settlement.target.done)\n        );\n\n        // Set address of origin or target to prevent the same settlement from being resettled by this wallet\n        if (SettlementTypesLib.SettlementRole.Origin == settlementRole)\n            settlement.origin.done = true;\n        else\n            settlement.target.done = true;\n\n        NahmiiTypesLib.TradeParty memory party = validator.isTradeBuyer(trade, wallet) ? trade.buyer : trade.seller;\n\n        // If wallet has previously settled balance of the intended currency with higher driip nonce, then don't\n        // settle its balance again\n        if (walletCurrencyMaxDriipNonce[wallet][trade.currencies.intended.ct][trade.currencies.intended.id] < trade.nonce) {\n            // Update settled nonce of wallet and currency\n            walletCurrencyMaxDriipNonce[wallet][trade.currencies.intended.ct][trade.currencies.intended.id] = trade.nonce;\n\n            // Update settled balance\n            clientFund.updateSettledBalance(\n                wallet, party.balances.intended.current, trade.currencies.intended.ct, trade.currencies.intended.id, trade.blockNumber\n            );\n\n            // Stage (stage function assures positive amount only)\n            clientFund.stage(\n                wallet,\n                driipSettlementChallenge.proposalStageAmount(wallet, trade.currencies.intended.ct, trade.currencies.intended.id),\n                trade.currencies.intended.ct,\n                trade.currencies.intended.id\n            );\n        }\n\n        // If wallet has previously settled balance of the conjugate currency with higher driip nonce, then don't\n        // settle its balance again\n        if (walletCurrencyMaxDriipNonce[wallet][trade.currencies.conjugate.ct][trade.currencies.conjugate.id] < trade.nonce) {\n            // Update settled nonce of wallet and currency\n            walletCurrencyMaxDriipNonce[wallet][trade.currencies.conjugate.ct][trade.currencies.conjugate.id] = trade.nonce;\n\n            // Update settled balance\n            clientFund.updateSettledBalance(\n                wallet, party.balances.conjugate.current, trade.currencies.conjugate.ct, trade.currencies.conjugate.id, trade.blockNumber\n            );\n\n            // Stage (stage function assures positive amount only)\n            clientFund.stage(\n                wallet,\n                driipSettlementChallenge.proposalStageAmount(wallet, trade.currencies.conjugate.ct, trade.currencies.conjugate.id),\n                trade.currencies.conjugate.ct,\n                trade.currencies.conjugate.id\n            );\n        }\n\n        // Stage fees to revenue fund\n        if (address(0) != address(tradesRevenueFund))\n            stageFees(wallet, party.fees.total, tradesRevenueFund, trade.nonce);\n\n        // If payment nonce is beyond max driip nonce then update max driip nonce\n        if (trade.nonce > maxDriipNonce)\n            maxDriipNonce = trade.nonce;\n    }\n\n    function _settlePayment(address wallet, NahmiiTypesLib.Payment payment)\n    private\n    onlySealedPayment(payment)\n    {\n        require(!fraudChallenge.isFraudulentPaymentHash(payment.seals.operator.hash));\n        require(validator.isPaymentParty(payment, wallet));\n        require(!communityVote.isDoubleSpenderWallet(wallet));\n\n        // Require that wallet is not locked\n        require(!driipSettlementChallenge.isLockedWallet(wallet));\n\n        // Require that proposal has expired\n        require(driipSettlementChallenge.hasProposalExpired(wallet, payment.currency.ct, payment.currency.id));\n\n        // Require that driip settlement challenge proposal qualified\n        require(SettlementTypesLib.Status.Qualified == driipSettlementChallenge.proposalStatus(\n            wallet, payment.currency.ct, payment.currency.id\n        ));\n\n        // Require that the wallet's current driip settlement challenge is wrt this payment\n        require(payment.nonce == driipSettlementChallenge.proposalNonce(wallet, payment.currency.ct, payment.currency.id));\n\n        // Require that operational mode is normal and data is available, or that nonce is\n        // smaller than max null nonce\n        require((configuration.isOperationalModeNormal() && communityVote.isDataAvailable())\n            || (payment.nonce < maxDriipNonce));\n\n        // Get settlement, or create one if no such settlement exists for the trade nonce\n        SettlementTypesLib.Settlement storage settlement = hasSettlementByNonce(payment.nonce) ?\n        getSettlement(payment.nonce, NahmiiTypesLib.DriipType.Payment) :\n        createSettlement(payment.nonce, NahmiiTypesLib.DriipType.Payment,\n            payment.sender.nonce, payment.sender.wallet, payment.recipient.nonce, payment.recipient.wallet);\n\n        // Get settlement role\n        SettlementTypesLib.SettlementRole settlementRole = getSettlementRoleFromPayment(payment, wallet);\n\n        // If exists settlement of nonce then require that wallet has not already settled\n        require(\n            (SettlementTypesLib.SettlementRole.Origin == settlementRole && !settlement.origin.done) ||\n            (SettlementTypesLib.SettlementRole.Target == settlementRole && !settlement.target.done)\n        );\n\n        // Set address of origin or target to prevent the same settlement from being resettled by this wallet\n        if (SettlementTypesLib.SettlementRole.Origin == settlementRole)\n            settlement.origin.done = true;\n        else\n            settlement.target.done = true;\n\n        NahmiiTypesLib.OriginFigure[] memory totalFees;\n        int256 currentBalance;\n        if (validator.isPaymentParty(payment, wallet)) {\n            totalFees = payment.sender.fees.total;\n            currentBalance = payment.sender.balances.current;\n        } else {\n            totalFees = payment.recipient.fees.total;\n            currentBalance = payment.recipient.balances.current;\n        }\n\n        // If wallet has previously settled balance of the concerned currency with higher driip nonce, then don't\n        // settle balance again\n        if (walletCurrencyMaxDriipNonce[wallet][payment.currency.ct][payment.currency.id] < payment.nonce) {\n            // Update settled nonce of wallet and currency\n            walletCurrencyMaxDriipNonce[wallet][payment.currency.ct][payment.currency.id] = payment.nonce;\n\n            // Update settled balance\n            clientFund.updateSettledBalance(wallet, currentBalance, payment.currency.ct, payment.currency.id, payment.blockNumber);\n\n            // Stage (stage function assures positive amount only)\n            clientFund.stage(\n                wallet, driipSettlementChallenge.proposalStageAmount(wallet, payment.currency.ct, payment.currency.id),\n                payment.currency.ct, payment.currency.id\n            );\n        }\n\n        // Stage fees to revenue fund\n        if (address(0) != address(paymentsRevenueFund))\n            stageFees(wallet, totalFees, paymentsRevenueFund, payment.nonce);\n\n        // If payment nonce is beyond max driip nonce then update max driip nonce\n        if (payment.nonce > maxDriipNonce)\n            maxDriipNonce = payment.nonce;\n    }\n\n    function getSettlementRoleFromTrade(NahmiiTypesLib.Trade trade, address wallet)\n    private\n    pure\n    returns (SettlementTypesLib.SettlementRole)\n    {\n        return (wallet == trade.seller.wallet ?\n        SettlementTypesLib.SettlementRole.Origin :\n        SettlementTypesLib.SettlementRole.Target);\n    }\n\n    function getSettlementRoleFromPayment(NahmiiTypesLib.Payment payment, address wallet)\n    private\n    pure\n    returns (SettlementTypesLib.SettlementRole)\n    {\n        return (wallet == payment.sender.wallet ?\n        SettlementTypesLib.SettlementRole.Origin :\n        SettlementTypesLib.SettlementRole.Target);\n    }\n\n    function getSettlement(uint256 nonce, NahmiiTypesLib.DriipType driipType)\n    private\n    view\n    returns (SettlementTypesLib.Settlement storage)\n    {\n        uint256 index = nonceSettlementIndex[nonce];\n        SettlementTypesLib.Settlement storage settlement = settlements[index - 1];\n        require(driipType == settlement.driipType);\n        return settlement;\n    }\n\n    function createSettlement(uint256 nonce, NahmiiTypesLib.DriipType driipType,\n        uint256 originNonce, address originWallet, uint256 targetNonce, address targetWallet)\n    private\n    returns (SettlementTypesLib.Settlement storage)\n    {\n        SettlementTypesLib.Settlement memory settlement;\n        settlement.nonce = nonce;\n        settlement.driipType = driipType;\n        settlement.origin = SettlementTypesLib.SettlementParty(originNonce, originWallet, false);\n        settlement.target = SettlementTypesLib.SettlementParty(targetNonce, targetWallet, false);\n\n        settlements.push(settlement);\n\n        // Index is 1 based\n        uint256 index = settlements.length;\n        nonceSettlementIndex[nonce] = index;\n        walletSettlementIndices[originWallet].push(index);\n        walletSettlementIndices[targetWallet].push(index);\n        walletNonceSettlementIndex[originWallet][originNonce] = index;\n        walletNonceSettlementIndex[targetWallet][targetNonce] = index;\n\n        return settlements[index - 1];\n    }\n\n    function stageFees(address wallet, NahmiiTypesLib.OriginFigure[] fees,\n        Beneficiary protocolBeneficiary, uint256 nonce)\n    private\n    {\n        // For each origin figure...\n        for (uint256 i = 0; i < fees.length; i++) {\n            // Based on originId determine if this is protocol or partner fee, and if the latter define originId as destination in beneficiary\n            (Beneficiary beneficiary, address destination) =\n            (0 == fees[i].originId) ? (protocolBeneficiary, address(0)) : (partnerFund, address(fees[i].originId));\n\n            Total storage feeTotal = feeTotalsMap[wallet][address(beneficiary)][destination][fees[i].figure.currency.ct][fees[i].figure.currency.id];\n\n            // If wallet has previously settled fee of the concerned currency with higher driip nonce then don't settle again\n            if (feeTotal.nonce < nonce) {\n                feeTotal.nonce = nonce;\n\n                // Get the amount previously staged\n                int256 deltaAmount = fees[i].figure.amount - feeTotal.amount;\n\n                // Update the fee total amount\n                feeTotal.amount = fees[i].figure.amount;\n\n                // Transfer to beneficiary\n                clientFund.transferToBeneficiary(\n                    destination, beneficiary, deltaAmount, fees[i].figure.currency.ct, fees[i].figure.currency.id, \"\"\n                );\n\n                // Emit event\n                emit StageFeesEvent(\n                    wallet, deltaAmount, fees[i].figure.amount, fees[i].figure.currency.ct, fees[i].figure.currency.id\n                );\n            }\n        }\n    }\n}",
  "sourcePath": "/Users/yons/development/hubii/striim-contracts/contracts/DriipSettlement.sol",
  "compiler": {
    "name": "solc",
    "version": "0.4.25+commit.59dbf8f1.Emscripten.clang"
  },
  "schemaVersion": "2.0.1",
  "updatedAt": "2018-12-07T07:31:13.347Z"
}