{
    "contractName": "Exchange",
    "abi": [
        {
            "constant": false,
            "inputs": [
                {
                    "name": "newOperator",
                    "type": "address"
                }
            ],
            "name": "changeOperator",
            "outputs": [],
            "payable": false,
            "stateMutability": "nonpayable",
            "type": "function"
        },
        {
            "constant": true,
            "inputs": [
                {
                    "name": "",
                    "type": "uint256"
                }
            ],
            "name": "settlements",
            "outputs": [
                {
                    "name": "nonce",
                    "type": "uint256"
                },
                {
                    "name": "driipType",
                    "type": "uint8"
                },
                {
                    "components": [
                        {
                            "name": "nonce",
                            "type": "uint256"
                        },
                        {
                            "name": "wallet",
                            "type": "address"
                        },
                        {
                            "name": "done",
                            "type": "bool"
                        }
                    ],
                    "name": "origin",
                    "type": "tuple"
                },
                {
                    "components": [
                        {
                            "name": "nonce",
                            "type": "uint256"
                        },
                        {
                            "name": "wallet",
                            "type": "address"
                        },
                        {
                            "name": "done",
                            "type": "bool"
                        }
                    ],
                    "name": "target",
                    "type": "tuple"
                }
            ],
            "payable": false,
            "stateMutability": "view",
            "type": "function"
        },
        {
            "constant": false,
            "inputs": [],
            "name": "disableUpdateOfCommunityVote",
            "outputs": [],
            "payable": false,
            "stateMutability": "nonpayable",
            "type": "function"
        },
        {
            "constant": false,
            "inputs": [
                {
                    "name": "newAddress",
                    "type": "address"
                }
            ],
            "name": "changeClientFund",
            "outputs": [],
            "payable": false,
            "stateMutability": "nonpayable",
            "type": "function"
        },
        {
            "constant": true,
            "inputs": [],
            "name": "validator",
            "outputs": [
                {
                    "name": "",
                    "type": "address"
                }
            ],
            "payable": false,
            "stateMutability": "view",
            "type": "function"
        },
        {
            "constant": true,
            "inputs": [],
            "name": "fraudChallenge",
            "outputs": [
                {
                    "name": "",
                    "type": "address"
                }
            ],
            "payable": false,
            "stateMutability": "view",
            "type": "function"
        },
        {
            "constant": true,
            "inputs": [],
            "name": "destructor",
            "outputs": [
                {
                    "name": "",
                    "type": "address"
                }
            ],
            "payable": false,
            "stateMutability": "view",
            "type": "function"
        },
        {
            "constant": true,
            "inputs": [],
            "name": "operator",
            "outputs": [
                {
                    "name": "",
                    "type": "address"
                }
            ],
            "payable": false,
            "stateMutability": "view",
            "type": "function"
        },
        {
            "constant": true,
            "inputs": [],
            "name": "configuration",
            "outputs": [
                {
                    "name": "",
                    "type": "address"
                }
            ],
            "payable": false,
            "stateMutability": "view",
            "type": "function"
        },
        {
            "constant": true,
            "inputs": [
                {
                    "name": "",
                    "type": "address"
                }
            ],
            "name": "seizedWalletsMap",
            "outputs": [
                {
                    "name": "",
                    "type": "bool"
                }
            ],
            "payable": false,
            "stateMutability": "view",
            "type": "function"
        },
        {
            "constant": false,
            "inputs": [
                {
                    "name": "newConfiguration",
                    "type": "address"
                }
            ],
            "name": "changeConfiguration",
            "outputs": [],
            "payable": false,
            "stateMutability": "nonpayable",
            "type": "function"
        },
        {
            "constant": true,
            "inputs": [],
            "name": "maxDriipNonce",
            "outputs": [
                {
                    "name": "",
                    "type": "uint256"
                }
            ],
            "payable": false,
            "stateMutability": "view",
            "type": "function"
        },
        {
            "constant": true,
            "inputs": [
                {
                    "name": "",
                    "type": "address"
                },
                {
                    "name": "",
                    "type": "uint256"
                }
            ],
            "name": "walletSettlementIndices",
            "outputs": [
                {
                    "name": "",
                    "type": "uint256"
                }
            ],
            "payable": false,
            "stateMutability": "view",
            "type": "function"
        },
        {
            "constant": false,
            "inputs": [],
            "name": "triggerDestroy",
            "outputs": [],
            "payable": false,
            "stateMutability": "nonpayable",
            "type": "function"
        },
        {
            "constant": true,
            "inputs": [
                {
                    "name": "",
                    "type": "uint256"
                }
            ],
            "name": "nonceSettlementIndex",
            "outputs": [
                {
                    "name": "",
                    "type": "uint256"
                }
            ],
            "payable": false,
            "stateMutability": "view",
            "type": "function"
        },
        {
            "constant": true,
            "inputs": [
                {
                    "name": "",
                    "type": "address"
                },
                {
                    "name": "",
                    "type": "address"
                },
                {
                    "name": "",
                    "type": "uint256"
                }
            ],
            "name": "walletCurrencyFeeNonce",
            "outputs": [
                {
                    "name": "",
                    "type": "uint256"
                }
            ],
            "payable": false,
            "stateMutability": "view",
            "type": "function"
        },
        {
            "constant": true,
            "inputs": [],
            "name": "paymentsRevenueFund",
            "outputs": [
                {
                    "name": "",
                    "type": "address"
                }
            ],
            "payable": false,
            "stateMutability": "view",
            "type": "function"
        },
        {
            "constant": false,
            "inputs": [
                {
                    "name": "newAddress",
                    "type": "address"
                }
            ],
            "name": "changeCommunityVote",
            "outputs": [],
            "payable": false,
            "stateMutability": "nonpayable",
            "type": "function"
        },
        {
            "constant": true,
            "inputs": [
                {
                    "name": "",
                    "type": "uint256"
                }
            ],
            "name": "seizedWallets",
            "outputs": [
                {
                    "name": "",
                    "type": "address"
                }
            ],
            "payable": false,
            "stateMutability": "view",
            "type": "function"
        },
        {
            "constant": true,
            "inputs": [],
            "name": "communityVote",
            "outputs": [
                {
                    "name": "",
                    "type": "address"
                }
            ],
            "payable": false,
            "stateMutability": "view",
            "type": "function"
        },
        {
            "constant": true,
            "inputs": [],
            "name": "tradesRevenueFund",
            "outputs": [
                {
                    "name": "",
                    "type": "address"
                }
            ],
            "payable": false,
            "stateMutability": "view",
            "type": "function"
        },
        {
            "constant": true,
            "inputs": [],
            "name": "communityVoteUpdateDisabled",
            "outputs": [
                {
                    "name": "",
                    "type": "bool"
                }
            ],
            "payable": false,
            "stateMutability": "view",
            "type": "function"
        },
        {
            "constant": true,
            "inputs": [],
            "name": "deployer",
            "outputs": [
                {
                    "name": "",
                    "type": "address"
                }
            ],
            "payable": false,
            "stateMutability": "view",
            "type": "function"
        },
        {
            "constant": true,
            "inputs": [
                {
                    "name": "",
                    "type": "address"
                },
                {
                    "name": "",
                    "type": "uint256"
                }
            ],
            "name": "walletNonceSettlementIndex",
            "outputs": [
                {
                    "name": "",
                    "type": "uint256"
                }
            ],
            "payable": false,
            "stateMutability": "view",
            "type": "function"
        },
        {
            "constant": true,
            "inputs": [
                {
                    "name": "",
                    "type": "address"
                },
                {
                    "name": "",
                    "type": "address"
                },
                {
                    "name": "",
                    "type": "uint256"
                }
            ],
            "name": "walletCurrencyMaxDriipNonce",
            "outputs": [
                {
                    "name": "",
                    "type": "uint256"
                }
            ],
            "payable": false,
            "stateMutability": "view",
            "type": "function"
        },
        {
            "constant": true,
            "inputs": [
                {
                    "name": "",
                    "type": "address"
                },
                {
                    "name": "",
                    "type": "address"
                },
                {
                    "name": "",
                    "type": "uint256"
                }
            ],
            "name": "walletCurrencyFeeCharged",
            "outputs": [
                {
                    "name": "",
                    "type": "int256"
                }
            ],
            "payable": false,
            "stateMutability": "view",
            "type": "function"
        },
        {
            "constant": false,
            "inputs": [
                {
                    "name": "newDeployer",
                    "type": "address"
                }
            ],
            "name": "changeDeployer",
            "outputs": [],
            "payable": false,
            "stateMutability": "nonpayable",
            "type": "function"
        },
        {
            "constant": true,
            "inputs": [],
            "name": "clientFund",
            "outputs": [
                {
                    "name": "",
                    "type": "address"
                }
            ],
            "payable": false,
            "stateMutability": "view",
            "type": "function"
        },
        {
            "constant": false,
            "inputs": [
                {
                    "name": "newAddress",
                    "type": "address"
                }
            ],
            "name": "changeValidator",
            "outputs": [],
            "payable": false,
            "stateMutability": "nonpayable",
            "type": "function"
        },
        {
            "constant": true,
            "inputs": [],
            "name": "driipSettlementChallenge",
            "outputs": [
                {
                    "name": "",
                    "type": "address"
                }
            ],
            "payable": false,
            "stateMutability": "view",
            "type": "function"
        },
        {
            "inputs": [
                {
                    "name": "owner",
                    "type": "address"
                }
            ],
            "payable": false,
            "stateMutability": "nonpayable",
            "type": "constructor"
        },
        {
            "anonymous": false,
            "inputs": [
                {
                    "components": [
                        {
                            "name": "nonce",
                            "type": "uint256"
                        },
                        {
                            "name": "amount",
                            "type": "int256"
                        },
                        {
                            "components": [
                                {
                                    "components": [
                                        {
                                            "name": "ct",
                                            "type": "address"
                                        },
                                        {
                                            "name": "id",
                                            "type": "uint256"
                                        }
                                    ],
                                    "name": "intended",
                                    "type": "tuple"
                                },
                                {
                                    "components": [
                                        {
                                            "name": "ct",
                                            "type": "address"
                                        },
                                        {
                                            "name": "id",
                                            "type": "uint256"
                                        }
                                    ],
                                    "name": "conjugate",
                                    "type": "tuple"
                                }
                            ],
                            "name": "currencies",
                            "type": "tuple"
                        },
                        {
                            "name": "rate",
                            "type": "int256"
                        },
                        {
                            "components": [
                                {
                                    "name": "nonce",
                                    "type": "uint256"
                                },
                                {
                                    "name": "wallet",
                                    "type": "address"
                                },
                                {
                                    "name": "rollingVolume",
                                    "type": "uint256"
                                },
                                {
                                    "name": "liquidityRole",
                                    "type": "uint8"
                                },
                                {
                                    "components": [
                                        {
                                            "name": "amount",
                                            "type": "int256"
                                        },
                                        {
                                            "components": [
                                                {
                                                    "name": "wallet",
                                                    "type": "bytes32"
                                                },
                                                {
                                                    "name": "exchange",
                                                    "type": "bytes32"
                                                }
                                            ],
                                            "name": "hashes",
                                            "type": "tuple"
                                        },
                                        {
                                            "components": [
                                                {
                                                    "name": "current",
                                                    "type": "int256"
                                                },
                                                {
                                                    "name": "previous",
                                                    "type": "int256"
                                                }
                                            ],
                                            "name": "residuals",
                                            "type": "tuple"
                                        }
                                    ],
                                    "name": "order",
                                    "type": "tuple"
                                },
                                {
                                    "components": [
                                        {
                                            "components": [
                                                {
                                                    "name": "current",
                                                    "type": "int256"
                                                },
                                                {
                                                    "name": "previous",
                                                    "type": "int256"
                                                }
                                            ],
                                            "name": "intended",
                                            "type": "tuple"
                                        },
                                        {
                                            "components": [
                                                {
                                                    "name": "current",
                                                    "type": "int256"
                                                },
                                                {
                                                    "name": "previous",
                                                    "type": "int256"
                                                }
                                            ],
                                            "name": "conjugate",
                                            "type": "tuple"
                                        }
                                    ],
                                    "name": "balances",
                                    "type": "tuple"
                                },
                                {
                                    "components": [
                                        {
                                            "components": [
                                                {
                                                    "name": "amount",
                                                    "type": "int256"
                                                },
                                                {
                                                    "components": [
                                                        {
                                                            "name": "ct",
                                                            "type": "address"
                                                        },
                                                        {
                                                            "name": "id",
                                                            "type": "uint256"
                                                        }
                                                    ],
                                                    "name": "currency",
                                                    "type": "tuple"
                                                }
                                            ],
                                            "name": "single",
                                            "type": "tuple"
                                        },
                                        {
                                            "components": [
                                                {
                                                    "name": "amount",
                                                    "type": "int256"
                                                },
                                                {
                                                    "components": [
                                                        {
                                                            "name": "ct",
                                                            "type": "address"
                                                        },
                                                        {
                                                            "name": "id",
                                                            "type": "uint256"
                                                        }
                                                    ],
                                                    "name": "currency",
                                                    "type": "tuple"
                                                }
                                            ],
                                            "name": "total",
                                            "type": "tuple[]"
                                        }
                                    ],
                                    "name": "fees",
                                    "type": "tuple"
                                }
                            ],
                            "name": "buyer",
                            "type": "tuple"
                        },
                        {
                            "components": [
                                {
                                    "name": "nonce",
                                    "type": "uint256"
                                },
                                {
                                    "name": "wallet",
                                    "type": "address"
                                },
                                {
                                    "name": "rollingVolume",
                                    "type": "uint256"
                                },
                                {
                                    "name": "liquidityRole",
                                    "type": "uint8"
                                },
                                {
                                    "components": [
                                        {
                                            "name": "amount",
                                            "type": "int256"
                                        },
                                        {
                                            "components": [
                                                {
                                                    "name": "wallet",
                                                    "type": "bytes32"
                                                },
                                                {
                                                    "name": "exchange",
                                                    "type": "bytes32"
                                                }
                                            ],
                                            "name": "hashes",
                                            "type": "tuple"
                                        },
                                        {
                                            "components": [
                                                {
                                                    "name": "current",
                                                    "type": "int256"
                                                },
                                                {
                                                    "name": "previous",
                                                    "type": "int256"
                                                }
                                            ],
                                            "name": "residuals",
                                            "type": "tuple"
                                        }
                                    ],
                                    "name": "order",
                                    "type": "tuple"
                                },
                                {
                                    "components": [
                                        {
                                            "components": [
                                                {
                                                    "name": "current",
                                                    "type": "int256"
                                                },
                                                {
                                                    "name": "previous",
                                                    "type": "int256"
                                                }
                                            ],
                                            "name": "intended",
                                            "type": "tuple"
                                        },
                                        {
                                            "components": [
                                                {
                                                    "name": "current",
                                                    "type": "int256"
                                                },
                                                {
                                                    "name": "previous",
                                                    "type": "int256"
                                                }
                                            ],
                                            "name": "conjugate",
                                            "type": "tuple"
                                        }
                                    ],
                                    "name": "balances",
                                    "type": "tuple"
                                },
                                {
                                    "components": [
                                        {
                                            "components": [
                                                {
                                                    "name": "amount",
                                                    "type": "int256"
                                                },
                                                {
                                                    "components": [
                                                        {
                                                            "name": "ct",
                                                            "type": "address"
                                                        },
                                                        {
                                                            "name": "id",
                                                            "type": "uint256"
                                                        }
                                                    ],
                                                    "name": "currency",
                                                    "type": "tuple"
                                                }
                                            ],
                                            "name": "single",
                                            "type": "tuple"
                                        },
                                        {
                                            "components": [
                                                {
                                                    "name": "amount",
                                                    "type": "int256"
                                                },
                                                {
                                                    "components": [
                                                        {
                                                            "name": "ct",
                                                            "type": "address"
                                                        },
                                                        {
                                                            "name": "id",
                                                            "type": "uint256"
                                                        }
                                                    ],
                                                    "name": "currency",
                                                    "type": "tuple"
                                                }
                                            ],
                                            "name": "total",
                                            "type": "tuple[]"
                                        }
                                    ],
                                    "name": "fees",
                                    "type": "tuple"
                                }
                            ],
                            "name": "seller",
                            "type": "tuple"
                        },
                        {
                            "components": [
                                {
                                    "components": [
                                        {
                                            "name": "single",
                                            "type": "int256"
                                        },
                                        {
                                            "name": "total",
                                            "type": "int256"
                                        }
                                    ],
                                    "name": "intended",
                                    "type": "tuple"
                                },
                                {
                                    "components": [
                                        {
                                            "name": "single",
                                            "type": "int256"
                                        },
                                        {
                                            "name": "total",
                                            "type": "int256"
                                        }
                                    ],
                                    "name": "conjugate",
                                    "type": "tuple"
                                }
                            ],
                            "name": "transfers",
                            "type": "tuple"
                        },
                        {
                            "components": [
                                {
                                    "name": "hash",
                                    "type": "bytes32"
                                },
                                {
                                    "components": [
                                        {
                                            "name": "r",
                                            "type": "bytes32"
                                        },
                                        {
                                            "name": "s",
                                            "type": "bytes32"
                                        },
                                        {
                                            "name": "v",
                                            "type": "uint8"
                                        }
                                    ],
                                    "name": "signature",
                                    "type": "tuple"
                                }
                            ],
                            "name": "seal",
                            "type": "tuple"
                        },
                        {
                            "name": "blockNumber",
                            "type": "uint256"
                        }
                    ],
                    "indexed": false,
                    "name": "trade",
                    "type": "tuple"
                },
                {
                    "indexed": false,
                    "name": "wallet",
                    "type": "address"
                },
                {
                    "indexed": false,
                    "name": "challengeStatus",
                    "type": "uint8"
                }
            ],
            "name": "SettleDriipAsTradeEvent",
            "type": "event"
        },
        {
            "anonymous": false,
            "inputs": [
                {
                    "components": [
                        {
                            "name": "nonce",
                            "type": "uint256"
                        },
                        {
                            "name": "amount",
                            "type": "int256"
                        },
                        {
                            "components": [
                                {
                                    "name": "ct",
                                    "type": "address"
                                },
                                {
                                    "name": "id",
                                    "type": "uint256"
                                }
                            ],
                            "name": "currency",
                            "type": "tuple"
                        },
                        {
                            "components": [
                                {
                                    "name": "nonce",
                                    "type": "uint256"
                                },
                                {
                                    "name": "wallet",
                                    "type": "address"
                                },
                                {
                                    "components": [
                                        {
                                            "name": "current",
                                            "type": "int256"
                                        },
                                        {
                                            "name": "previous",
                                            "type": "int256"
                                        }
                                    ],
                                    "name": "balances",
                                    "type": "tuple"
                                },
                                {
                                    "components": [
                                        {
                                            "components": [
                                                {
                                                    "name": "amount",
                                                    "type": "int256"
                                                },
                                                {
                                                    "components": [
                                                        {
                                                            "name": "ct",
                                                            "type": "address"
                                                        },
                                                        {
                                                            "name": "id",
                                                            "type": "uint256"
                                                        }
                                                    ],
                                                    "name": "currency",
                                                    "type": "tuple"
                                                }
                                            ],
                                            "name": "single",
                                            "type": "tuple"
                                        },
                                        {
                                            "components": [
                                                {
                                                    "name": "amount",
                                                    "type": "int256"
                                                },
                                                {
                                                    "components": [
                                                        {
                                                            "name": "ct",
                                                            "type": "address"
                                                        },
                                                        {
                                                            "name": "id",
                                                            "type": "uint256"
                                                        }
                                                    ],
                                                    "name": "currency",
                                                    "type": "tuple"
                                                }
                                            ],
                                            "name": "total",
                                            "type": "tuple[]"
                                        }
                                    ],
                                    "name": "fees",
                                    "type": "tuple"
                                }
                            ],
                            "name": "sender",
                            "type": "tuple"
                        },
                        {
                            "components": [
                                {
                                    "name": "nonce",
                                    "type": "uint256"
                                },
                                {
                                    "name": "wallet",
                                    "type": "address"
                                },
                                {
                                    "components": [
                                        {
                                            "name": "current",
                                            "type": "int256"
                                        },
                                        {
                                            "name": "previous",
                                            "type": "int256"
                                        }
                                    ],
                                    "name": "balances",
                                    "type": "tuple"
                                },
                                {
                                    "components": [
                                        {
                                            "components": [
                                                {
                                                    "name": "amount",
                                                    "type": "int256"
                                                },
                                                {
                                                    "components": [
                                                        {
                                                            "name": "ct",
                                                            "type": "address"
                                                        },
                                                        {
                                                            "name": "id",
                                                            "type": "uint256"
                                                        }
                                                    ],
                                                    "name": "currency",
                                                    "type": "tuple"
                                                }
                                            ],
                                            "name": "total",
                                            "type": "tuple[]"
                                        }
                                    ],
                                    "name": "fees",
                                    "type": "tuple"
                                }
                            ],
                            "name": "recipient",
                            "type": "tuple"
                        },
                        {
                            "components": [
                                {
                                    "name": "single",
                                    "type": "int256"
                                },
                                {
                                    "name": "total",
                                    "type": "int256"
                                }
                            ],
                            "name": "transfers",
                            "type": "tuple"
                        },
                        {
                            "components": [
                                {
                                    "components": [
                                        {
                                            "name": "hash",
                                            "type": "bytes32"
                                        },
                                        {
                                            "components": [
                                                {
                                                    "name": "r",
                                                    "type": "bytes32"
                                                },
                                                {
                                                    "name": "s",
                                                    "type": "bytes32"
                                                },
                                                {
                                                    "name": "v",
                                                    "type": "uint8"
                                                }
                                            ],
                                            "name": "signature",
                                            "type": "tuple"
                                        }
                                    ],
                                    "name": "wallet",
                                    "type": "tuple"
                                },
                                {
                                    "components": [
                                        {
                                            "name": "hash",
                                            "type": "bytes32"
                                        },
                                        {
                                            "components": [
                                                {
                                                    "name": "r",
                                                    "type": "bytes32"
                                                },
                                                {
                                                    "name": "s",
                                                    "type": "bytes32"
                                                },
                                                {
                                                    "name": "v",
                                                    "type": "uint8"
                                                }
                                            ],
                                            "name": "signature",
                                            "type": "tuple"
                                        }
                                    ],
                                    "name": "exchange",
                                    "type": "tuple"
                                }
                            ],
                            "name": "seals",
                            "type": "tuple"
                        },
                        {
                            "name": "blockNumber",
                            "type": "uint256"
                        }
                    ],
                    "indexed": false,
                    "name": "payment",
                    "type": "tuple"
                },
                {
                    "indexed": false,
                    "name": "wallet",
                    "type": "address"
                },
                {
                    "indexed": false,
                    "name": "challengeStatus",
                    "type": "uint8"
                }
            ],
            "name": "SettleDriipAsPaymentEvent",
            "type": "event"
        },
        {
            "anonymous": false,
            "inputs": [
                {
                    "indexed": false,
                    "name": "oldFraudChallenge",
                    "type": "address"
                },
                {
                    "indexed": false,
                    "name": "newFraudChallenge",
                    "type": "address"
                }
            ],
            "name": "ChangeFraudChallengeEvent",
            "type": "event"
        },
        {
            "anonymous": false,
            "inputs": [
                {
                    "indexed": false,
                    "name": "oldDriipSettlementChallenge",
                    "type": "address"
                },
                {
                    "indexed": false,
                    "name": "newDriipSettlementChallenge",
                    "type": "address"
                }
            ],
            "name": "ChangeDriipSettlementChallengeEvent",
            "type": "event"
        },
        {
            "anonymous": false,
            "inputs": [
                {
                    "indexed": false,
                    "name": "oldRevenueFund",
                    "type": "address"
                },
                {
                    "indexed": false,
                    "name": "newRevenueFund",
                    "type": "address"
                }
            ],
            "name": "ChangeTradesRevenueFundEvent",
            "type": "event"
        },
        {
            "anonymous": false,
            "inputs": [
                {
                    "indexed": false,
                    "name": "oldRevenueFund",
                    "type": "address"
                },
                {
                    "indexed": false,
                    "name": "newRevenueFund",
                    "type": "address"
                }
            ],
            "name": "ChangePaymentsRevenueFundEvent",
            "type": "event"
        },
        {
            "anonymous": false,
            "inputs": [
                {
                    "indexed": false,
                    "name": "wallet",
                    "type": "address"
                },
                {
                    "indexed": false,
                    "name": "deltaAmount",
                    "type": "int256"
                },
                {
                    "indexed": false,
                    "name": "cumulativeAmount",
                    "type": "int256"
                },
                {
                    "indexed": false,
                    "name": "currencyCt",
                    "type": "address"
                },
                {
                    "indexed": false,
                    "name": "currencyId",
                    "type": "uint256"
                }
            ],
            "name": "StageTotalFeeEvent",
            "type": "event"
        },
        {
            "anonymous": false,
            "inputs": [
                {
                    "indexed": false,
                    "name": "oldAddress",
                    "type": "address"
                },
                {
                    "indexed": false,
                    "name": "newAddress",
                    "type": "address"
                }
            ],
            "name": "ChangeCommunityVoteEvent",
            "type": "event"
        },
        {
            "anonymous": false,
            "inputs": [
                {
                    "indexed": false,
                    "name": "oldAddress",
                    "type": "address"
                },
                {
                    "indexed": false,
                    "name": "newAddress",
                    "type": "address"
                }
            ],
            "name": "ChangeClientFundEvent",
            "type": "event"
        },
        {
            "anonymous": false,
            "inputs": [
                {
                    "indexed": false,
                    "name": "oldAddress",
                    "type": "address"
                },
                {
                    "indexed": false,
                    "name": "newAddress",
                    "type": "address"
                }
            ],
            "name": "ChangeValidatorEvent",
            "type": "event"
        },
        {
            "anonymous": false,
            "inputs": [
                {
                    "indexed": false,
                    "name": "oldConfiguration",
                    "type": "address"
                },
                {
                    "indexed": false,
                    "name": "newConfiguration",
                    "type": "address"
                }
            ],
            "name": "ChangeConfigurationEvent",
            "type": "event"
        },
        {
            "anonymous": false,
            "inputs": [
                {
                    "indexed": false,
                    "name": "oldDeployer",
                    "type": "address"
                },
                {
                    "indexed": false,
                    "name": "newDeployer",
                    "type": "address"
                }
            ],
            "name": "ChangeDeployerEvent",
            "type": "event"
        },
        {
            "anonymous": false,
            "inputs": [
                {
                    "indexed": false,
                    "name": "oldOperator",
                    "type": "address"
                },
                {
                    "indexed": false,
                    "name": "newOperator",
                    "type": "address"
                }
            ],
            "name": "ChangeOperatorEvent",
            "type": "event"
        },
        {
            "constant": false,
            "inputs": [
                {
                    "name": "newFraudChallenge",
                    "type": "address"
                }
            ],
            "name": "changeFraudChallenge",
            "outputs": [],
            "payable": false,
            "stateMutability": "nonpayable",
            "type": "function"
        },
        {
            "constant": false,
            "inputs": [
                {
                    "name": "newDriipSettlementChallenge",
                    "type": "address"
                }
            ],
            "name": "changeDriipSettlementChallenge",
            "outputs": [],
            "payable": false,
            "stateMutability": "nonpayable",
            "type": "function"
        },
        {
            "constant": false,
            "inputs": [
                {
                    "name": "newTradesRevenueFund",
                    "type": "address"
                }
            ],
            "name": "changeTradesRevenueFund",
            "outputs": [],
            "payable": false,
            "stateMutability": "nonpayable",
            "type": "function"
        },
        {
            "constant": false,
            "inputs": [
                {
                    "name": "newPaymentsRevenueFund",
                    "type": "address"
                }
            ],
            "name": "changePaymentsRevenueFund",
            "outputs": [],
            "payable": false,
            "stateMutability": "nonpayable",
            "type": "function"
        },
        {
            "constant": true,
            "inputs": [
                {
                    "name": "wallet",
                    "type": "address"
                }
            ],
            "name": "isSeizedWallet",
            "outputs": [
                {
                    "name": "",
                    "type": "bool"
                }
            ],
            "payable": false,
            "stateMutability": "view",
            "type": "function"
        },
        {
            "constant": true,
            "inputs": [],
            "name": "seizedWalletsCount",
            "outputs": [
                {
                    "name": "",
                    "type": "uint256"
                }
            ],
            "payable": false,
            "stateMutability": "view",
            "type": "function"
        },
        {
            "constant": true,
            "inputs": [],
            "name": "settlementsCount",
            "outputs": [
                {
                    "name": "",
                    "type": "uint256"
                }
            ],
            "payable": false,
            "stateMutability": "view",
            "type": "function"
        },
        {
            "constant": true,
            "inputs": [
                {
                    "name": "nonce",
                    "type": "uint256"
                }
            ],
            "name": "hasSettlementByNonce",
            "outputs": [
                {
                    "name": "",
                    "type": "bool"
                }
            ],
            "payable": false,
            "stateMutability": "view",
            "type": "function"
        },
        {
            "constant": true,
            "inputs": [
                {
                    "name": "nonce",
                    "type": "uint256"
                }
            ],
            "name": "settlementByNonce",
            "outputs": [
                {
                    "components": [
                        {
                            "name": "nonce",
                            "type": "uint256"
                        },
                        {
                            "name": "driipType",
                            "type": "uint8"
                        },
                        {
                            "components": [
                                {
                                    "name": "nonce",
                                    "type": "uint256"
                                },
                                {
                                    "name": "wallet",
                                    "type": "address"
                                },
                                {
                                    "name": "done",
                                    "type": "bool"
                                }
                            ],
                            "name": "origin",
                            "type": "tuple"
                        },
                        {
                            "components": [
                                {
                                    "name": "nonce",
                                    "type": "uint256"
                                },
                                {
                                    "name": "wallet",
                                    "type": "address"
                                },
                                {
                                    "name": "done",
                                    "type": "bool"
                                }
                            ],
                            "name": "target",
                            "type": "tuple"
                        }
                    ],
                    "name": "",
                    "type": "tuple"
                }
            ],
            "payable": false,
            "stateMutability": "view",
            "type": "function"
        },
        {
            "constant": true,
            "inputs": [
                {
                    "name": "wallet",
                    "type": "address"
                }
            ],
            "name": "settlementsCountByWallet",
            "outputs": [
                {
                    "name": "",
                    "type": "uint256"
                }
            ],
            "payable": false,
            "stateMutability": "view",
            "type": "function"
        },
        {
            "constant": true,
            "inputs": [
                {
                    "name": "wallet",
                    "type": "address"
                },
                {
                    "name": "index",
                    "type": "uint256"
                }
            ],
            "name": "settlementByWalletAndIndex",
            "outputs": [
                {
                    "components": [
                        {
                            "name": "nonce",
                            "type": "uint256"
                        },
                        {
                            "name": "driipType",
                            "type": "uint8"
                        },
                        {
                            "components": [
                                {
                                    "name": "nonce",
                                    "type": "uint256"
                                },
                                {
                                    "name": "wallet",
                                    "type": "address"
                                },
                                {
                                    "name": "done",
                                    "type": "bool"
                                }
                            ],
                            "name": "origin",
                            "type": "tuple"
                        },
                        {
                            "components": [
                                {
                                    "name": "nonce",
                                    "type": "uint256"
                                },
                                {
                                    "name": "wallet",
                                    "type": "address"
                                },
                                {
                                    "name": "done",
                                    "type": "bool"
                                }
                            ],
                            "name": "target",
                            "type": "tuple"
                        }
                    ],
                    "name": "",
                    "type": "tuple"
                }
            ],
            "payable": false,
            "stateMutability": "view",
            "type": "function"
        },
        {
            "constant": true,
            "inputs": [
                {
                    "name": "wallet",
                    "type": "address"
                },
                {
                    "name": "nonce",
                    "type": "uint256"
                }
            ],
            "name": "settlementByWalletAndNonce",
            "outputs": [
                {
                    "components": [
                        {
                            "name": "nonce",
                            "type": "uint256"
                        },
                        {
                            "name": "driipType",
                            "type": "uint8"
                        },
                        {
                            "components": [
                                {
                                    "name": "nonce",
                                    "type": "uint256"
                                },
                                {
                                    "name": "wallet",
                                    "type": "address"
                                },
                                {
                                    "name": "done",
                                    "type": "bool"
                                }
                            ],
                            "name": "origin",
                            "type": "tuple"
                        },
                        {
                            "components": [
                                {
                                    "name": "nonce",
                                    "type": "uint256"
                                },
                                {
                                    "name": "wallet",
                                    "type": "address"
                                },
                                {
                                    "name": "done",
                                    "type": "bool"
                                }
                            ],
                            "name": "target",
                            "type": "tuple"
                        }
                    ],
                    "name": "",
                    "type": "tuple"
                }
            ],
            "payable": false,
            "stateMutability": "view",
            "type": "function"
        },
        {
            "constant": false,
            "inputs": [],
            "name": "updateMaxDriipNonce",
            "outputs": [],
            "payable": false,
            "stateMutability": "nonpayable",
            "type": "function"
        },
        {
            "constant": false,
            "inputs": [
                {
                    "components": [
                        {
                            "name": "nonce",
                            "type": "uint256"
                        },
                        {
                            "name": "amount",
                            "type": "int256"
                        },
                        {
                            "components": [
                                {
                                    "components": [
                                        {
                                            "name": "ct",
                                            "type": "address"
                                        },
                                        {
                                            "name": "id",
                                            "type": "uint256"
                                        }
                                    ],
                                    "name": "intended",
                                    "type": "tuple"
                                },
                                {
                                    "components": [
                                        {
                                            "name": "ct",
                                            "type": "address"
                                        },
                                        {
                                            "name": "id",
                                            "type": "uint256"
                                        }
                                    ],
                                    "name": "conjugate",
                                    "type": "tuple"
                                }
                            ],
                            "name": "currencies",
                            "type": "tuple"
                        },
                        {
                            "name": "rate",
                            "type": "int256"
                        },
                        {
                            "components": [
                                {
                                    "name": "nonce",
                                    "type": "uint256"
                                },
                                {
                                    "name": "wallet",
                                    "type": "address"
                                },
                                {
                                    "name": "rollingVolume",
                                    "type": "uint256"
                                },
                                {
                                    "name": "liquidityRole",
                                    "type": "uint8"
                                },
                                {
                                    "components": [
                                        {
                                            "name": "amount",
                                            "type": "int256"
                                        },
                                        {
                                            "components": [
                                                {
                                                    "name": "wallet",
                                                    "type": "bytes32"
                                                },
                                                {
                                                    "name": "exchange",
                                                    "type": "bytes32"
                                                }
                                            ],
                                            "name": "hashes",
                                            "type": "tuple"
                                        },
                                        {
                                            "components": [
                                                {
                                                    "name": "current",
                                                    "type": "int256"
                                                },
                                                {
                                                    "name": "previous",
                                                    "type": "int256"
                                                }
                                            ],
                                            "name": "residuals",
                                            "type": "tuple"
                                        }
                                    ],
                                    "name": "order",
                                    "type": "tuple"
                                },
                                {
                                    "components": [
                                        {
                                            "components": [
                                                {
                                                    "name": "current",
                                                    "type": "int256"
                                                },
                                                {
                                                    "name": "previous",
                                                    "type": "int256"
                                                }
                                            ],
                                            "name": "intended",
                                            "type": "tuple"
                                        },
                                        {
                                            "components": [
                                                {
                                                    "name": "current",
                                                    "type": "int256"
                                                },
                                                {
                                                    "name": "previous",
                                                    "type": "int256"
                                                }
                                            ],
                                            "name": "conjugate",
                                            "type": "tuple"
                                        }
                                    ],
                                    "name": "balances",
                                    "type": "tuple"
                                },
                                {
                                    "components": [
                                        {
                                            "components": [
                                                {
                                                    "name": "amount",
                                                    "type": "int256"
                                                },
                                                {
                                                    "components": [
                                                        {
                                                            "name": "ct",
                                                            "type": "address"
                                                        },
                                                        {
                                                            "name": "id",
                                                            "type": "uint256"
                                                        }
                                                    ],
                                                    "name": "currency",
                                                    "type": "tuple"
                                                }
                                            ],
                                            "name": "single",
                                            "type": "tuple"
                                        },
                                        {
                                            "components": [
                                                {
                                                    "name": "amount",
                                                    "type": "int256"
                                                },
                                                {
                                                    "components": [
                                                        {
                                                            "name": "ct",
                                                            "type": "address"
                                                        },
                                                        {
                                                            "name": "id",
                                                            "type": "uint256"
                                                        }
                                                    ],
                                                    "name": "currency",
                                                    "type": "tuple"
                                                }
                                            ],
                                            "name": "total",
                                            "type": "tuple[]"
                                        }
                                    ],
                                    "name": "fees",
                                    "type": "tuple"
                                }
                            ],
                            "name": "buyer",
                            "type": "tuple"
                        },
                        {
                            "components": [
                                {
                                    "name": "nonce",
                                    "type": "uint256"
                                },
                                {
                                    "name": "wallet",
                                    "type": "address"
                                },
                                {
                                    "name": "rollingVolume",
                                    "type": "uint256"
                                },
                                {
                                    "name": "liquidityRole",
                                    "type": "uint8"
                                },
                                {
                                    "components": [
                                        {
                                            "name": "amount",
                                            "type": "int256"
                                        },
                                        {
                                            "components": [
                                                {
                                                    "name": "wallet",
                                                    "type": "bytes32"
                                                },
                                                {
                                                    "name": "exchange",
                                                    "type": "bytes32"
                                                }
                                            ],
                                            "name": "hashes",
                                            "type": "tuple"
                                        },
                                        {
                                            "components": [
                                                {
                                                    "name": "current",
                                                    "type": "int256"
                                                },
                                                {
                                                    "name": "previous",
                                                    "type": "int256"
                                                }
                                            ],
                                            "name": "residuals",
                                            "type": "tuple"
                                        }
                                    ],
                                    "name": "order",
                                    "type": "tuple"
                                },
                                {
                                    "components": [
                                        {
                                            "components": [
                                                {
                                                    "name": "current",
                                                    "type": "int256"
                                                },
                                                {
                                                    "name": "previous",
                                                    "type": "int256"
                                                }
                                            ],
                                            "name": "intended",
                                            "type": "tuple"
                                        },
                                        {
                                            "components": [
                                                {
                                                    "name": "current",
                                                    "type": "int256"
                                                },
                                                {
                                                    "name": "previous",
                                                    "type": "int256"
                                                }
                                            ],
                                            "name": "conjugate",
                                            "type": "tuple"
                                        }
                                    ],
                                    "name": "balances",
                                    "type": "tuple"
                                },
                                {
                                    "components": [
                                        {
                                            "components": [
                                                {
                                                    "name": "amount",
                                                    "type": "int256"
                                                },
                                                {
                                                    "components": [
                                                        {
                                                            "name": "ct",
                                                            "type": "address"
                                                        },
                                                        {
                                                            "name": "id",
                                                            "type": "uint256"
                                                        }
                                                    ],
                                                    "name": "currency",
                                                    "type": "tuple"
                                                }
                                            ],
                                            "name": "single",
                                            "type": "tuple"
                                        },
                                        {
                                            "components": [
                                                {
                                                    "name": "amount",
                                                    "type": "int256"
                                                },
                                                {
                                                    "components": [
                                                        {
                                                            "name": "ct",
                                                            "type": "address"
                                                        },
                                                        {
                                                            "name": "id",
                                                            "type": "uint256"
                                                        }
                                                    ],
                                                    "name": "currency",
                                                    "type": "tuple"
                                                }
                                            ],
                                            "name": "total",
                                            "type": "tuple[]"
                                        }
                                    ],
                                    "name": "fees",
                                    "type": "tuple"
                                }
                            ],
                            "name": "seller",
                            "type": "tuple"
                        },
                        {
                            "components": [
                                {
                                    "components": [
                                        {
                                            "name": "single",
                                            "type": "int256"
                                        },
                                        {
                                            "name": "total",
                                            "type": "int256"
                                        }
                                    ],
                                    "name": "intended",
                                    "type": "tuple"
                                },
                                {
                                    "components": [
                                        {
                                            "name": "single",
                                            "type": "int256"
                                        },
                                        {
                                            "name": "total",
                                            "type": "int256"
                                        }
                                    ],
                                    "name": "conjugate",
                                    "type": "tuple"
                                }
                            ],
                            "name": "transfers",
                            "type": "tuple"
                        },
                        {
                            "components": [
                                {
                                    "name": "hash",
                                    "type": "bytes32"
                                },
                                {
                                    "components": [
                                        {
                                            "name": "r",
                                            "type": "bytes32"
                                        },
                                        {
                                            "name": "s",
                                            "type": "bytes32"
                                        },
                                        {
                                            "name": "v",
                                            "type": "uint8"
                                        }
                                    ],
                                    "name": "signature",
                                    "type": "tuple"
                                }
                            ],
                            "name": "seal",
                            "type": "tuple"
                        },
                        {
                            "name": "blockNumber",
                            "type": "uint256"
                        }
                    ],
                    "name": "trade",
                    "type": "tuple"
                },
                {
                    "name": "wallet",
                    "type": "address"
                }
            ],
            "name": "settleDriipAsTrade",
            "outputs": [],
            "payable": false,
            "stateMutability": "nonpayable",
            "type": "function"
        },
        {
            "constant": false,
            "inputs": [
                {
                    "components": [
                        {
                            "name": "nonce",
                            "type": "uint256"
                        },
                        {
                            "name": "amount",
                            "type": "int256"
                        },
                        {
                            "components": [
                                {
                                    "name": "ct",
                                    "type": "address"
                                },
                                {
                                    "name": "id",
                                    "type": "uint256"
                                }
                            ],
                            "name": "currency",
                            "type": "tuple"
                        },
                        {
                            "components": [
                                {
                                    "name": "nonce",
                                    "type": "uint256"
                                },
                                {
                                    "name": "wallet",
                                    "type": "address"
                                },
                                {
                                    "components": [
                                        {
                                            "name": "current",
                                            "type": "int256"
                                        },
                                        {
                                            "name": "previous",
                                            "type": "int256"
                                        }
                                    ],
                                    "name": "balances",
                                    "type": "tuple"
                                },
                                {
                                    "components": [
                                        {
                                            "components": [
                                                {
                                                    "name": "amount",
                                                    "type": "int256"
                                                },
                                                {
                                                    "components": [
                                                        {
                                                            "name": "ct",
                                                            "type": "address"
                                                        },
                                                        {
                                                            "name": "id",
                                                            "type": "uint256"
                                                        }
                                                    ],
                                                    "name": "currency",
                                                    "type": "tuple"
                                                }
                                            ],
                                            "name": "single",
                                            "type": "tuple"
                                        },
                                        {
                                            "components": [
                                                {
                                                    "name": "amount",
                                                    "type": "int256"
                                                },
                                                {
                                                    "components": [
                                                        {
                                                            "name": "ct",
                                                            "type": "address"
                                                        },
                                                        {
                                                            "name": "id",
                                                            "type": "uint256"
                                                        }
                                                    ],
                                                    "name": "currency",
                                                    "type": "tuple"
                                                }
                                            ],
                                            "name": "total",
                                            "type": "tuple[]"
                                        }
                                    ],
                                    "name": "fees",
                                    "type": "tuple"
                                }
                            ],
                            "name": "sender",
                            "type": "tuple"
                        },
                        {
                            "components": [
                                {
                                    "name": "nonce",
                                    "type": "uint256"
                                },
                                {
                                    "name": "wallet",
                                    "type": "address"
                                },
                                {
                                    "components": [
                                        {
                                            "name": "current",
                                            "type": "int256"
                                        },
                                        {
                                            "name": "previous",
                                            "type": "int256"
                                        }
                                    ],
                                    "name": "balances",
                                    "type": "tuple"
                                },
                                {
                                    "components": [
                                        {
                                            "components": [
                                                {
                                                    "name": "amount",
                                                    "type": "int256"
                                                },
                                                {
                                                    "components": [
                                                        {
                                                            "name": "ct",
                                                            "type": "address"
                                                        },
                                                        {
                                                            "name": "id",
                                                            "type": "uint256"
                                                        }
                                                    ],
                                                    "name": "currency",
                                                    "type": "tuple"
                                                }
                                            ],
                                            "name": "total",
                                            "type": "tuple[]"
                                        }
                                    ],
                                    "name": "fees",
                                    "type": "tuple"
                                }
                            ],
                            "name": "recipient",
                            "type": "tuple"
                        },
                        {
                            "components": [
                                {
                                    "name": "single",
                                    "type": "int256"
                                },
                                {
                                    "name": "total",
                                    "type": "int256"
                                }
                            ],
                            "name": "transfers",
                            "type": "tuple"
                        },
                        {
                            "components": [
                                {
                                    "components": [
                                        {
                                            "name": "hash",
                                            "type": "bytes32"
                                        },
                                        {
                                            "components": [
                                                {
                                                    "name": "r",
                                                    "type": "bytes32"
                                                },
                                                {
                                                    "name": "s",
                                                    "type": "bytes32"
                                                },
                                                {
                                                    "name": "v",
                                                    "type": "uint8"
                                                }
                                            ],
                                            "name": "signature",
                                            "type": "tuple"
                                        }
                                    ],
                                    "name": "wallet",
                                    "type": "tuple"
                                },
                                {
                                    "components": [
                                        {
                                            "name": "hash",
                                            "type": "bytes32"
                                        },
                                        {
                                            "components": [
                                                {
                                                    "name": "r",
                                                    "type": "bytes32"
                                                },
                                                {
                                                    "name": "s",
                                                    "type": "bytes32"
                                                },
                                                {
                                                    "name": "v",
                                                    "type": "uint8"
                                                }
                                            ],
                                            "name": "signature",
                                            "type": "tuple"
                                        }
                                    ],
                                    "name": "exchange",
                                    "type": "tuple"
                                }
                            ],
                            "name": "seals",
                            "type": "tuple"
                        },
                        {
                            "name": "blockNumber",
                            "type": "uint256"
                        }
                    ],
                    "name": "payment",
                    "type": "tuple"
                },
                {
                    "name": "wallet",
                    "type": "address"
                }
            ],
            "name": "settleDriipAsPayment",
            "outputs": [],
            "payable": false,
            "stateMutability": "nonpayable",
            "type": "function"
        }
    ],
    "bytecode": "0x60806040523480156200001157600080fd5b50604051602080620049a08339810180604052620000339190810190620000a9565b8080600160a060020a03811615156200004b57600080fd5b600160a060020a0381163014156200006257600080fd5b5060008054600160a060020a03909216600160a060020a031992831681179091556001805490921617905550620000de565b6000620000a28251620000d2565b9392505050565b600060208284031215620000bc57600080fd5b6000620000ca848462000094565b949350505050565b600160a060020a031690565b6148b280620000ee6000396000f30060806040526004361061020b5763ffffffff60e060020a60003504166306394c9b811461021057806308df7dc8146102325780632145cd201461026b5780632b74d2491461028d578063331591bc146102a25780633663ac4e146102c25780633a5381b5146102e25780633bd7857f146103045780634476d23b14610319578063477de7cb1461033b578063570ca7351461035b5780636c70bee914610370578063758619a0146103855780637892850e146103b25780637e5150f4146103d2578063829f4a70146103f2578063897d36aa146104125780638c6913bc1461042757806392f7bd7b1461043c57806394dd293c1461045c5780639d4f7ebb14610471578063a08eda5414610491578063a3d2231a146104be578063a68ecb4a146104de578063a9c190b9146104f3578063b8d766f414610513578063b9bb9cd914610533578063bf24e7d014610553578063c0ffe1b414610568578063c2050a6814610588578063c81dd95a1461059d578063cc0dad4a146105b2578063cdacab25146105d2578063d2f08936146105e7578063d5f3948814610607578063d66c52911461061c578063da1f06b91461063c578063dda733781461065c578063defdfae61461067c578063e754476f1461069c578063f345fb44146106b1578063f4135221146106d1578063f6abfc76146106f1578063f6d4c0ef14610711578063f71ea74314610726575b600080fd5b34801561021c57600080fd5b5061023061022b366004613ea5565b610746565b005b34801561023e57600080fd5b5061025261024d36600461405b565b6107fe565b604051610262949392919061477d565b60405180910390f35b34801561027757600080fd5b50610280610895565b60405161026291906146d7565b34801561029957600080fd5b5061023061089b565b3480156102ae57600080fd5b506102306102bd366004613fe0565b6108c6565b3480156102ce57600080fd5b506102306102dd366004613f86565b6113d6565b3480156102ee57600080fd5b506102f761147e565b60405161026291906146e5565b34801561031057600080fd5b506102f761148d565b34801561032557600080fd5b5061032e61149c565b6040516102629190614604565b34801561034757600080fd5b50610230610356366004614026565b6114ab565b34801561036757600080fd5b5061032e61222c565b34801561037c57600080fd5b506102f761223b565b34801561039157600080fd5b506103a56103a0366004613ea5565b61224a565b60405161026291906146c9565b3480156103be57600080fd5b506102306103cd366004613f86565b61225f565b3480156103de57600080fd5b506102306103ed366004613f86565b6122e3565b3480156103fe57600080fd5b506103a561040d36600461405b565b61237b565b34801561041e57600080fd5b5061028061238e565b34801561043357600080fd5b50610280612394565b34801561044857600080fd5b50610280610457366004613f2e565b61239a565b34801561046857600080fd5b506102306123ca565b34801561047d57600080fd5b5061028061048c36600461405b565b6123f9565b34801561049d57600080fd5b506104b16104ac36600461405b565b61240b565b604051610262919061474c565b3480156104ca57600080fd5b506102806104d9366004613ee1565b61250e565b3480156104ea57600080fd5b506102f7612531565b3480156104ff57600080fd5b5061023061050e366004613f86565b612540565b34801561051f57600080fd5b5061023061052e366004613f86565b6125c4565b34801561053f57600080fd5b5061032e61054e36600461405b565b612673565b34801561055f57600080fd5b506102f761269b565b34801561057457600080fd5b506104b1610583366004613f2e565b6126aa565b34801561059457600080fd5b506102f76127df565b3480156105a957600080fd5b506103a56127ee565b3480156105be57600080fd5b506103a56105cd366004613ea5565b6127fe565b3480156105de57600080fd5b5061023061281c565b3480156105f357600080fd5b506104b1610602366004613f2e565b6128b1565b34801561061357600080fd5b5061032e61291e565b34801561062857600080fd5b50610280610637366004613f2e565b61292d565b34801561064857600080fd5b50610280610657366004613ee1565b61294a565b34801561066857600080fd5b50610280610677366004613ee1565b61296d565b34801561068857600080fd5b50610230610697366004613ea5565b612990565b3480156106a857600080fd5b506102f7612a3a565b3480156106bd57600080fd5b506102806106cc366004613ea5565b612a49565b3480156106dd57600080fd5b506102306106ec366004613f86565b612a64565b3480156106fd57600080fd5b5061023061070c366004613f86565b612ae8565b34801561071d57600080fd5b506102f7612b80565b34801561073257600080fd5b50610230610741366004613f86565b612b8f565b6000610750612c13565b151561075b57600080fd5b81600160a060020a038116151561077157600080fd5b600160a060020a03811630141561078757600080fd5b600154600160a060020a038481169116146107f95760018054600160a060020a03858116600160a060020a0319831617909255604051911692507f5bd9a4a09f08f75952905b16ac91d6821c47d52c3a968e583e6854b42757c580906107f09084908690614612565b60405180910390a15b505050565b600d80548290811061080c57fe5b6000918252602091829020600690910201805460018201546040805160608181018352600286015482526003860154600160a060020a03808216848a015260a060020a9182900460ff9081161515858701528551938401865260048901548452600590980154908116988301989098529096048516151591860191909152919450919091169184565b60075490565b6108a3612c24565b15156108ae57600080fd5b6005805460a060020a60ff02191660a060020a179055565b600080606060006108d5613580565b600354600160a060020a031615156108ec57600080fd5b60035460405160e160020a637709f0a90281528891600160a060020a03169063ee13e1529061091f90849060040161470e565b602060405180830381600087803b15801561093957600080fd5b505af115801561094d573d6000803e3d6000fd5b505050506040513d601f19601f820116820180604052506109719190810190613f68565b151561097c57600080fd5b600954600160a060020a0316151561099357600080fd5b600554600160a060020a031615156109aa57600080fd5b600a54600160a060020a031615156109c157600080fd5b600254600160a060020a031615156109d857600080fd5b600454600160a060020a031615156109ef57600080fd5b600054600160a060020a03163314610a05573396505b60095460c0890151602001515160405160e060020a639980dbbd028152600160a060020a0390921691639980dbbd91610a40916004016146d7565b602060405180830381600087803b158015610a5a57600080fd5b505af1158015610a6e573d6000803e3d6000fd5b505050506040513d601f19601f82011682018060405250610a929190810190613f68565b15610a9c57600080fd5b610aa68888612c35565b1515610ab157600080fd5b60055460405160e060020a639243c9db028152600160a060020a0390911690639243c9db90610ae4908a90600401614604565b602060405180830381600087803b158015610afe57600080fd5b505af1158015610b12573d6000803e3d6000fd5b505050506040513d601f19601f82011682018060405250610b369190810190613f68565b15610b4057600080fd5b8751600a5460405160e060020a637220ee53028152600160a060020a0390911690637220ee5390610b75908b90600401614604565b602060405180830381600087803b158015610b8f57600080fd5b505af1158015610ba3573d6000803e3d6000fd5b505050506040513d601f19601f82011682018060405250610bc79190810190614079565b14610bd157600080fd5b600a5460405160e160020a631674fa65028152600191600160a060020a031690632ce9f4ca90610c05908b90600401614604565b602060405180830381600087803b158015610c1f57600080fd5b505af1158015610c33573d6000803e3d6000fd5b505050506040513d601f19601f82011682018060405250610c579190810190613fa4565b6002811115610c6257fe5b141561118857600260009054906101000a9004600160a060020a0316600160a060020a031663f71e860f6040518163ffffffff1660e060020a028152600401602060405180830381600087803b158015610cbb57600080fd5b505af1158015610ccf573d6000803e3d6000fd5b505050506040513d601f19601f82011682018060405250610cf39190810190613f68565b8015610d855750600560009054906101000a9004600160a060020a0316600160a060020a031663994e20766040518163ffffffff1660e060020a028152600401602060405180830381600087803b158015610d4d57600080fd5b505af1158015610d61573d6000803e3d6000fd5b505050506040513d601f19601f82011682018060405250610d859190810190613f68565b80610d9257506006548851105b1515610d9d57600080fd5b8751610da89061237b565b610dd95787516060890151805160209182015160808c01518051930151610dd494936001939291612c7f565b610de6565b8751610de6906001612ea9565b9550610df28888612f11565b9450846001811115610e0057fe5b158015610e195750600386015460a060020a900460ff16155b80610e465750846001811115610e2b57fe5b6001148015610e465750600586015460a060020a900460ff16155b1515610e5157600080fd5b846001811115610e5d57fe5b1515610e805760038601805460a060020a60ff02191660a060020a179055610e99565b60058601805460a060020a60ff02191660a060020a1790555b610ea38888612f44565b15610ec7576060808901519081015160200151604090910151519094509250610edf565b60808801516060810151516040909101515190945092505b8751600160a060020a038089166000908152601160209081526040808320818e01805151909516845282528083209351820151835292905220541015611156578751600160a060020a038089166000908152601160209081526040808320818e018051518616855290835281842081518401518552835292819020949094556004805492518051920151945160e560020a63057fe07d028152929093169363affc0fa093610f95938d938a939092909101614679565b600060405180830381600087803b158015610faf57600080fd5b505af1158015610fc3573d6000803e3d6000fd5b5050600a5460405160e060020a639eecdfd7028152600160a060020a039091169250639eecdfd79150610ffa908a90600401614604565b606060405180830381600087803b15801561101457600080fd5b505af1158015611028573d6000803e3d6000fd5b505050506040513d601f19601f8201168201806040525061104c9190810190613fc2565b805160405160e160020a6351750e5302815291935073__SafeMathInt___________________________9163a2ea1ca691611089916004016146d7565b60206040518083038186803b1580156110a157600080fd5b505af41580156110b5573d6000803e3d6000fd5b505050506040513d601f19601f820116820180604052506110d99190810190613f68565b1561115657600480548351602080860151805191015160405160e060020a63cd49737d028152600160a060020a039094169463cd49737d94611123948e9490939092909101614679565b600060405180830381600087803b15801561113d57600080fd5b505af1158015611151573d6000803e3d6000fd5b505050505b600c5488516111729189918791600160a060020a031690612f60565b600654885111156111835787516006555b61130c565b600a5460405160e160020a631674fa65028152600291600160a060020a031690632ce9f4ca906111bc908b90600401614604565b602060405180830381600087803b1580156111d657600080fd5b505af11580156111ea573d6000803e3d6000fd5b505050506040513d601f19601f8201168201806040525061120e9190810190613fa4565b600281111561121957fe5b141561130c5761122887613470565b60048054600a5460405160e160020a63645e4385028152600160a060020a0392831693637f290068938c93169163c8bc870a9161126791859101614604565b602060405180830381600087803b15801561128157600080fd5b505af1158015611295573d6000803e3d6000fd5b505050506040513d601f19601f820116820180604052506112b99190810190613ec3565b6040518363ffffffff1660e060020a0281526004016112d9929190614612565b600060405180830381600087803b1580156112f357600080fd5b505af1158015611307573d6000803e3d6000fd5b505050505b600a5460405160e160020a631674fa650281527f05333e811d6c1c29821dde393f4dd308edf696d705ca0c394ed8f024562d6219918a918a91600160a060020a031690632ce9f4ca90611363908490600401614604565b602060405180830381600087803b15801561137d57600080fd5b505af1158015611391573d6000803e3d6000fd5b505050506040513d601f19601f820116820180604052506113b59190810190613fa4565b6040516113c49392919061471f565b60405180910390a15050505050505050565b60006113e0612c24565b15156113eb57600080fd5b81600160a060020a038116151561140157600080fd5b6004548390600160a060020a0390811690821681146114775760048054600160a060020a03878116600160a060020a0319831617909255604051911694507f5b5a357e72e61d8cb7664220f36cc3ca63075f61bdf48f20d6372ec3964fcbc99061146e90869088906146f3565b60405180910390a15b5050505050565b600354600160a060020a031681565b600954600160a060020a031681565b600054600160a060020a031690565b6000806114b66135a0565b6114be613580565b6114c6613580565b600354600160a060020a031615156114dd57600080fd5b60035460405160e060020a630d86c7e30281528891600160a060020a031690630d86c7e39061151090849060040161475b565b602060405180830381600087803b15801561152a57600080fd5b505af115801561153e573d6000803e3d6000fd5b505050506040513d601f19601f820116820180604052506115629190810190613f68565b151561156d57600080fd5b600954600160a060020a0316151561158457600080fd5b600554600160a060020a0316151561159b57600080fd5b600a54600160a060020a031615156115b257600080fd5b600254600160a060020a031615156115c957600080fd5b600454600160a060020a031615156115e057600080fd5b600054600160a060020a031633146115f6573396505b60095460e08901515160405160e160020a6352c894d1028152600160a060020a039092169163a59129a29161162d916004016146d7565b602060405180830381600087803b15801561164757600080fd5b505af115801561165b573d6000803e3d6000fd5b505050506040513d601f19601f8201168201806040525061167f9190810190613f68565b1561168957600080fd5b61169388886134f9565b151561169e57600080fd5b60055460405160e060020a639243c9db028152600160a060020a0390911690639243c9db906116d1908a90600401614604565b602060405180830381600087803b1580156116eb57600080fd5b505af11580156116ff573d6000803e3d6000fd5b505050506040513d601f19601f820116820180604052506117239190810190613f68565b1561172d57600080fd5b8751600a5460405160e060020a637220ee53028152600160a060020a0390911690637220ee5390611762908b90600401614604565b602060405180830381600087803b15801561177c57600080fd5b505af1158015611790573d6000803e3d6000fd5b505050506040513d601f19601f820116820180604052506117b49190810190614079565b146117be57600080fd5b600a5460405160e160020a631674fa65028152600191600160a060020a031690632ce9f4ca906117f2908b90600401614604565b602060405180830381600087803b15801561180c57600080fd5b505af1158015611820573d6000803e3d6000fd5b505050506040513d601f19601f820116820180604052506118449190810190613fa4565b600281111561184f57fe5b1415611ff057600260009054906101000a9004600160a060020a0316600160a060020a031663f71e860f6040518163ffffffff1660e060020a028152600401602060405180830381600087803b1580156118a857600080fd5b505af11580156118bc573d6000803e3d6000fd5b505050506040513d601f19601f820116820180604052506118e09190810190613f68565b80156119725750600560009054906101000a9004600160a060020a0316600160a060020a031663994e20766040518163ffffffff1660e060020a028152600401602060405180830381600087803b15801561193a57600080fd5b505af115801561194e573d6000803e3d6000fd5b505050506040513d601f19601f820116820180604052506119729190810190613f68565b8061197f57506006548851105b151561198a57600080fd5b87516119959061237b565b6119c657875160a0890151805160209182015160808c015180519301516119c194936000939291612c7f565b6119d3565b87516119d3906000612ea9565b95506119df888861353a565b94508460018111156119ed57fe5b158015611a065750600386015460a060020a900460ff16155b80611a335750846001811115611a1857fe5b6001148015611a335750600586015460a060020a900460ff16155b1515611a3e57600080fd5b846001811115611a4a57fe5b1515611a6d5760038601805460a060020a60ff02191660a060020a179055611a86565b60058601805460a060020a60ff02191660a060020a1790555b611a908888613564565b611a9e578760a00151611aa4565b87608001515b8851600160a060020a03808a166000908152601160209081526040808320818f018051515190951684528252808320935151820151835292905220549195501115611d27578751600160a060020a038089166000908152601160209081526040808320818e0180515151861685529083528184208151518401518552835292819020949094556004805460a08a015151519351518051930151955160e560020a63057fe07d02815294169463affc0fa094611b66948e94909390929101614679565b600060405180830381600087803b158015611b8057600080fd5b505af1158015611b94573d6000803e3d6000fd5b5050600a5460405160e060020a639eecdfd7028152600160a060020a039091169250639eecdfd79150611bcb908a90600401614604565b606060405180830381600087803b158015611be557600080fd5b505af1158015611bf9573d6000803e3d6000fd5b505050506040513d601f19601f82011682018060405250611c1d9190810190613fc2565b805160405160e160020a6351750e5302815291945073__SafeMathInt___________________________9163a2ea1ca691611c5a916004016146d7565b60206040518083038186803b158015611c7257600080fd5b505af4158015611c86573d6000803e3d6000fd5b505050506040513d601f19601f82011682018060405250611caa9190810190613f68565b15611d2757600480548451602080870151805191015160405160e060020a63cd49737d028152600160a060020a039094169463cd49737d94611cf4948e9490939092909101614679565b600060405180830381600087803b158015611d0e57600080fd5b505af1158015611d22573d6000803e3d6000fd5b505050505b8751600160a060020a038089166000908152601160209081526040808320818e01805184015151909516845282528083209351820151820151835292905220541015611fb3578751600160a060020a038089166000908152601160209081526040808320818e018051840151518616855290835281842081518401518401518552835292819020949094556004805460a08a01518301515193518301518051930151955160e560020a63057fe07d02815294169463affc0fa094611df2948e94909390929101614679565b600060405180830381600087803b158015611e0c57600080fd5b505af1158015611e20573d6000803e3d6000fd5b5050600a5460405160e060020a63737bf3d5028152600160a060020a03909116925063737bf3d59150611e57908a90600401614604565b606060405180830381600087803b158015611e7157600080fd5b505af1158015611e85573d6000803e3d6000fd5b505050506040513d601f19601f82011682018060405250611ea99190810190613fc2565b805160405160e160020a6351750e5302815291935073__SafeMathInt___________________________9163a2ea1ca691611ee6916004016146d7565b60206040518083038186803b158015611efe57600080fd5b505af4158015611f12573d6000803e3d6000fd5b505050506040513d601f19601f82011682018060405250611f369190810190613f68565b15611fb357600480548351602080860151805191015160405160e060020a63cd49737d028152600160a060020a039094169463cd49737d94611f80948e9490939092909101614679565b600060405180830381600087803b158015611f9a57600080fd5b505af1158015611fae573d6000803e3d6000fd5b505050505b60c084015160200151600b548951611fda928a929091600160a060020a0390911690612f60565b60065488511115611feb5787516006555b612174565b600a5460405160e160020a631674fa65028152600291600160a060020a031690632ce9f4ca90612024908b90600401614604565b602060405180830381600087803b15801561203e57600080fd5b505af1158015612052573d6000803e3d6000fd5b505050506040513d601f19601f820116820180604052506120769190810190613fa4565b600281111561208157fe5b14156121745761209087613470565b60048054600a5460405160e160020a63645e4385028152600160a060020a0392831693637f290068938c93169163c8bc870a916120cf91859101614604565b602060405180830381600087803b1580156120e957600080fd5b505af11580156120fd573d6000803e3d6000fd5b505050506040513d601f19601f820116820180604052506121219190810190613ec3565b6040518363ffffffff1660e060020a028152600401612141929190614612565b600060405180830381600087803b15801561215b57600080fd5b505af115801561216f573d6000803e3d6000fd5b505050505b600a5460405160e160020a631674fa650281527f2cd35b048d00c2359d20e90bbeadf63092a0dd3d82012be0c51396fadc8e4b3a918a918a91600160a060020a031690632ce9f4ca906121cb908490600401614604565b602060405180830381600087803b1580156121e557600080fd5b505af11580156121f9573d6000803e3d6000fd5b505050506040513d601f19601f8201168201806040525061221d9190810190613fa4565b6040516113c49392919061476c565b600154600160a060020a031681565b600254600160a060020a031681565b60086020526000908152604090205460ff1681565b6000612269612c24565b151561227457600080fd5b81600160a060020a038116151561228a57600080fd5b600c8054600160a060020a03858116600160a060020a03198316179283905560405191811694507ff5bdeaae5c5b63b5db4943fc0a44156f362b5aa7a70669c1a78c0e225e689e2e926107f092869291909116906146f3565b60006122ed612c24565b15156122f857600080fd5b81600160a060020a038116151561230e57600080fd5b6002548390600160a060020a0390811690821681146114775760028054600160a060020a03878116600160a060020a0319831617909255604051911694507f6b81929a162238bb990384b771e24fd599c4ca9ddd6efb0444fdc2a10756b8f09061146e90869088906146f3565b6000908152600e60205260408120541190565b60065481565b600d5490565b600f602052816000526040600020818154811015156123b557fe5b90600052602060002001600091509150505481565b6123d261149c565b600160a060020a031633146123e657600080fd5b6123ee61149c565b600160a060020a0316ff5b600e6020526000908152604090205481565b6124136135ea565b61241c8261237b565b151561242757600080fd5b6000828152600e6020526040902054600d805490916000190190811061244957fe5b906000526020600020906006020160806040519081016040529081600082015481526020016001820160009054906101000a900460ff16600181111561248b57fe5b600181111561249657fe5b81526040805160608181018352600285015482526003850154600160a060020a0380821660208581019190915260ff60a060020a938490048116151586880152818801959095528551938401865260048801548452600590970154908116968301969096529094041615158382015201529050919050565b601260209081526000938452604080852082529284528284209052825290205481565b600c54600160a060020a031681565b600061254a612c24565b151561255557600080fd5b81600160a060020a038116151561256b57600080fd5b600a8054600160a060020a03858116600160a060020a03198316179283905560405191811694507ff53b3eb0c8a48873ea32383e9d0dbc5d40fa71bbbeb7badd688c70d41df4619f926107f092869291909116906146f3565b60006125ce612c24565b15156125d957600080fd5b81600160a060020a03811615156125ef57600080fd5b6005548390600160a060020a0390811690821681146114775760055460a060020a900460ff161561261f57600080fd5b60058054600160a060020a03878116600160a060020a0319831617909255604051911694507fef29452bdf307a74e9693a79fbc93f4eaa536447297a8ed6b95881e4997e75d19061146e90869088906146f3565b600780548290811061268157fe5b600091825260209091200154600160a060020a0316905081565b600554600160a060020a031681565b6126b26135ea565b600160a060020a0383166000908152600f602052604090205482106126d657600080fd5b600160a060020a0383166000908152600f602052604090208054600d916001918590811061270057fe5b90600052602060002001540381548110151561271857fe5b906000526020600020906006020160806040519081016040529081600082015481526020016001820160009054906101000a900460ff16600181111561275a57fe5b600181111561276557fe5b81526040805160608181018352600285015482526003850154600160a060020a0380821660208581019190915260ff60a060020a9384900481161515868801528188019590955285519384018652600488015484526005909701549081169683019690965290940416151583820152015290505b92915050565b600b54600160a060020a031681565b60055460a060020a900460ff1681565b600160a060020a031660009081526008602052604090205460ff1690565b6005546040805160e460020a6301f344070281529051600092600160a060020a031691631f34407091600480830192602092919082900301818787803b15801561286557600080fd5b505af1158015612879573d6000803e3d6000fd5b505050506040513d601f19601f8201168201806040525061289d9190810190614079565b905060008111156128ae5760068190555b50565b6128b96135ea565b600160a060020a0383166000908152601060209081526040808320858452909152812054116128e757600080fd5b600160a060020a0383166000908152601060209081526040808320858452909152902054600d805490916000190190811061271857fe5b600054600160a060020a031681565b601060209081526000928352604080842090915290825290205481565b601160209081526000938452604080852082529284528284209052825290205481565b601360209081526000938452604080852082529284528284209052825290205481565b600061299a612c24565b15156129a557600080fd5b81600160a060020a03811615156129bb57600080fd5b600160a060020a0381163014156129d157600080fd5b600054600160a060020a038481169116146107f95760008054600160a060020a03858116600160a060020a0319831617909255604051911692507fb52724aafc8bad3645fa843e328aaaa28d0bd8ed399cd62843de657b0caf75c7906107f09084908690614612565b600454600160a060020a031681565b600160a060020a03166000908152600f602052604090205490565b6000612a6e612c24565b1515612a7957600080fd5b81600160a060020a0381161515612a8f57600080fd5b60098054600160a060020a03858116600160a060020a03198316179283905560405191811694507f1220fa28adaf509387f461e93a747f57196ded6e2781ef819966b4ff71ce21f3926107f092869291909116906146f3565b6000612af2612c24565b1515612afd57600080fd5b81600160a060020a0381161515612b1357600080fd5b6003548390600160a060020a0390811690821681146114775760038054600160a060020a03878116600160a060020a0319831617909255604051911694507f365b4d2117252a14b5db6a7e816ea961da4692b5690490d22d29c4f65346f6009061146e90869088906146f3565b600a54600160a060020a031681565b6000612b99612c24565b1515612ba457600080fd5b81600160a060020a0381161515612bba57600080fd5b600b8054600160a060020a03858116600160a060020a03198316179283905560405191811694507fa896ce1aa6ddc149db7d40b51f71c73a2e4c12549d4229af03bb6e43f0af1d0d926107f092869291909116906146f3565b600154600160a060020a0316331490565b600054600160a060020a0316331490565b6000826060015160200151600160a060020a031682600160a060020a03161480612c785750826080015160200151600160a060020a031682600160a060020a0316145b9392505050565b6000612c896135ea565b878152600060208201886001811115612c9e57fe5b90816001811115612cab57fe5b9052506040805160608082018352898252600160a060020a03898116602080850191909152600084860181905287860194909452845180840186528a81529189168282015293810183905290850152600d805460018082018084559290935285517fd7b6990105719101dabeb77144f2a3385c8033acd3af97e9423a695e81ad1eb56006909202918201908155938601517fd7b6990105719101dabeb77144f2a3385c8033acd3af97e9423a695e81ad1eb6909101805492948794909360ff1916908381811115612d7857fe5b02179055506040828101518051600284015560208082015160038501805493850151600160a060020a0319948516600160a060020a039384161760a060020a60ff021990811660a060020a92151583021790925560609097015180516004880155808401516005909701805491870151919095169683169690961716941515909502939093179055600d805460008f8152600e85528381208290558c8616808252600f865284822080546001818101835591845287842001849055968c16808352858320805498890181558352868320909701839055815260108086528482208f835286528482208390559581529484528285208b8652909352922081905581549093509091506000198301908110612e8d57fe5b9060005260206000209060060201925050509695505050505050565b6000828152600e6020526040812054600d80548391906000198401908110612ecd57fe5b6000918252602090912060016006909202018181015490925060ff1690811115612ef357fe5b846001811115612eff57fe5b14612f0957600080fd5b949350505050565b6000826060015160200151600160a060020a031682600160a060020a031614612f3b576001612c78565b50600092915050565b6060919091015160200151600160a060020a0390811691161490565b60005b835181101561147757600160a060020a03851660009081526012602052604081208551849290879085908110612f9557fe5b906020019060200201516020015160000151600160a060020a0316600160a060020a0316815260200190815260200160002060008684815181101515612fd757fe5b906020019060200201516020015160200151815260200190815260200160002054101561346857600160a060020a0385166000908152601260205260408120855184929087908590811061302757fe5b906020019060200201516020015160000151600160a060020a0316600160a060020a031681526020019081526020016000206000868481518110151561306957fe5b906020019060200201516020015160200151815260200190815260200160002081905550600460009054906101000a9004600160a060020a0316600160a060020a031663406b20f88685601360008a600160a060020a0316600160a060020a03168152602001908152602001600020600089878151811015156130e857fe5b906020019060200201516020015160000151600160a060020a0316600160a060020a031681526020019081526020016000206000898781518110151561312a57fe5b906020019060200201516020015160200151815260200190815260200160002054888681518110151561315957fe5b906020019060200201516000015103888681518110151561317657fe5b602090810290910181015101515189518a908890811061319257fe5b9060200190602002015160200151602001516040518663ffffffff1660e060020a0281526004016131c795949392919061462d565b600060405180830381600087803b1580156131e157600080fd5b505af11580156131f5573d6000803e3d6000fd5b50505050838181518110151561320757fe5b602090810290910181015151600160a060020a038716600090815260139092526040822086519192909187908590811061323d57fe5b906020019060200201516020015160000151600160a060020a0316600160a060020a031681526020019081526020016000206000868481518110151561327f57fe5b9060200190602002015160200151602001518152602001908152602001600020819055507fcf95bd1434d3d81d57df8ff645c6a99767697fe055159ee32cc344f356e37f0e856013600088600160a060020a0316600160a060020a03168152602001908152602001600020600087858151811015156132fa57fe5b906020019060200201516020015160000151600160a060020a0316600160a060020a031681526020019081526020016000206000878581518110151561333c57fe5b906020019060200201516020015160200151815260200190815260200160002054868481518110151561336b57fe5b9060200190602002015160000151036013600089600160a060020a0316600160a060020a03168152602001908152602001600020600088868151811015156133af57fe5b906020019060200201516020015160000151600160a060020a0316600160a060020a03168152602001908152602001600020600088868151811015156133f157fe5b906020019060200201516020015160200151815260200190815260200160002054878581518110151561342057fe5b6020908102909101810151015151885189908790811061343c57fe5b90602001906020020151602001516020015160405161345f9594939291906146ae565b60405180910390a15b600101612f63565b600160a060020a03811660009081526008602052604090205460ff1615156128ae576007805460018181019092557fa66cc928b5edb82af9bd49922954155ab7b0942694bea4ce44661d9a8736c688018054600160a060020a038416600160a060020a031990911681179091556000908152600860205260409020805460ff1916909117905550565b6000826080015160200151600160a060020a031682600160a060020a03161480612c7857505060a09091015160200151600160a060020a0391821691161490565b60008260a0015160200151600160a060020a031682600160a060020a031614612f3b576001612c78565b6080919091015160200151600160a060020a0390811691161490565b6060604051908101604052806000815260200161359b613617565b905290565b604080516102208101825260008082526020820181905291810182905290606082019081526020016135d061362e565b81526020016135dd613656565b815260200161359b61366a565b60408051610100810182526000808252602082015290810161360a61368b565b815260200161359b61368b565b604080518082019091526000808252602082015290565b60a06040519081016040528060008152602001613649613617565b815260200161359b613617565b608060405190810160405280613649613617565b60806040519081016040528061367e613580565b8152602001606081525090565b604080516060810182526000808252602082018190529181019190915290565b6000612c788235614803565b6000612c788251614803565b6000601f820183136136d457600080fd5b81356136e76136e2826147d9565b6147b3565b9150818183526020840193506020810190508385606084028201111561370c57600080fd5b60005b8381101561373a57816137228882613838565b8452506020909201916060919091019060010161370f565b5050505092915050565b6000612c78825161480f565b6000612c788235614814565b6000612c788235614839565b6000612c788251614844565b6000612c788235614853565b6000612c788251614814565b60006040828403121561379e57600080fd5b6137a860406147b3565b905060006137b684846136ab565b82525060206137c784848301613750565b60208301525092915050565b6000604082840312156137e557600080fd5b6137ef60406147b3565b905060006137fd84846136b7565b82525060206137c784848301613780565b60006040828403121561382057600080fd5b61382a60406147b3565b905060006137b68484613750565b60006060828403121561384a57600080fd5b61385460406147b3565b905060006138628484613750565b82525060206137c78484830161378c565b60006060828403121561388557600080fd5b61388f60406147b3565b9050600061389d8484613780565b82525060206137c7848483016137d3565b6000608082840312156138c057600080fd5b6138ca60406147b3565b905060006138d8848461378c565b82525060406137c78484830161378c565b6000608082840312156138fb57600080fd5b61390560406147b3565b90506000613913848461380e565b82525060406137c78484830161380e565b600060a0828403121561393657600080fd5b61394060806147b3565b9050600061394e8484613750565b825250602061395f848483016136ab565b60208301525060406139738482850161380e565b60408301525060808201356001604060020a0381111561399257600080fd5b61399e84828501613bf8565b60608301525092915050565b600060a082840312156139bc57600080fd5b6139c660806147b3565b905060006139d48484613750565b82525060206139e5848483016136ab565b60208301525060406139f98482850161380e565b60408301525060808201356001604060020a03811115613a1857600080fd5b61399e84828501613ba6565b60006102208284031215613a3757600080fd5b613a426101006147b3565b90506000613a508484613750565b8252506020613a6184848301613750565b6020830152506040613a758482850161378c565b60408301525060808201356001604060020a03811115613a9457600080fd5b613aa0848285016139aa565b60608301525060a08201356001604060020a03811115613abf57600080fd5b613acb84828501613924565b60808301525060c0613adf8482850161380e565b60a083015250610100613af484828501613e5d565b60c083015250610200613b0984828501613750565b60e08301525092915050565b600060808284031215613b2757600080fd5b613b3160406147b3565b90506000613b3f8484613750565b82525060206137c784848301600060608284031215613b5d57600080fd5b613b6760606147b3565b90506000613b758484613750565b8252506020613b8684848301613750565b6020830152506040613b9a84828501613e99565b60408301525092915050565b600060808284031215613bb857600080fd5b613bc260406147b3565b90506000613bd08484613838565b82525060608201356001604060020a03811115613bec57600080fd5b6137c7848285016136c3565b600060208284031215613c0a57600080fd5b613c1460206147b3565b905081356001604060020a03811115613c2c57600080fd5b613c38848285016136c3565b82525092915050565b600060a08284031215613c5357600080fd5b613c5d60606147b3565b90506000613c6b8484613750565b8252506020613c7c8484830161380e565b6020830152506060613b9a8482850161380e565b60006101c08284031215613ca357600080fd5b613cad60e06147b3565b90506000613cbb8484613750565b8252506020613ccc848483016136ab565b6020830152506040613ce084828501613750565b6040830152506060613cf484828501613774565b6060830152506080613d0884828501613c41565b608083015250610120613d1d848285016138e9565b60a0830152506101a08201356001604060020a03811115613d3d57600080fd5b613d4984828501613ba6565b60c08301525092915050565b60006102408284031215613d6857600080fd5b613d736101206147b3565b90506000613d818484613750565b8252506020613d9284848301613750565b6020830152506040613da6848285016138ae565b60408301525060c0613dba84828501613750565b60608301525060e08201356001604060020a03811115613dd957600080fd5b613de584828501613c90565b6080830152506101008201356001604060020a03811115613e0557600080fd5b613e1184828501613c90565b60a083015250610120613e26848285016138e9565b60c0830152506101a0613e3b84828501613b15565b60e083015250610220613e5084828501613750565b6101008301525092915050565b60006101008284031215613e7057600080fd5b613e7a60406147b3565b90506000613e888484613b15565b82525060806137c784848301613b15565b6000612c788235614833565b600060208284031215613eb757600080fd5b6000612f0984846136ab565b600060208284031215613ed557600080fd5b6000612f0984846136b7565b600080600060608486031215613ef657600080fd5b6000613f0286866136ab565b9350506020613f13868287016136ab565b9250506040613f2486828701613750565b9150509250925092565b60008060408385031215613f4157600080fd5b6000613f4d85856136ab565b9250506020613f5e85828601613750565b9150509250929050565b600060208284031215613f7a57600080fd5b6000612f098484613744565b600060208284031215613f9857600080fd5b6000612f09848461375c565b600060208284031215613fb657600080fd5b6000612f098484613768565b600060608284031215613fd457600080fd5b6000612f098484613873565b60008060408385031215613ff357600080fd5b82356001604060020a0381111561400957600080fd5b61401585828601613a24565b9250506020613f5e858286016136ab565b6000806040838503121561403957600080fd5b82356001604060020a0381111561404f57600080fd5b61401585828601613d55565b60006020828403121561406d57600080fd5b6000612f098484613750565b60006020828403121561408b57600080fd5b6000612f098484613780565b6140a081614803565b82525050565b60006140b1826147ff565b8084526020840193506140c3836147f9565b60005b828110156140f3576140d9868351614165565b6140e2826147f9565b6060969096019591506001016140c6565b5093949350505050565b6140a08161480f565b6140a081614814565b6140a081614839565b6140a081614862565b6140a08161486d565b8051604083019061413b8482614097565b50602082015161414e6020850182614106565b50505050565b8051604083019061413b8482614106565b805160608301906141768482614106565b50602082015161414e602085018261412a565b8051608083019061419a848261412a565b50602082015161414e604085018261412a565b805160808301906141be8482614154565b50602082015161414e6040850182614154565b805160009060a08401906141e58582614106565b5060208301516141f86020860182614097565b50604083015161420b6040860182614154565b50606083015184820360808601526142238282614439565b95945050505050565b805160009060a08401906142408582614106565b5060208301516142536020860182614097565b5060408301516142666040860182614154565b5060608301518482036080860152614223828261440d565b80516000906102208401906142938582614106565b5060208301516142a66020860182614106565b5060408301516142b9604086018261412a565b50606083015184820360808601526142d1828261422c565b915050608083015184820360a08601526142eb82826141d1565b91505060a083015161430060c0860182614154565b5060c08301516143146101008601826145d6565b5060e0830151614328610200860182614106565b509392505050565b805160808301906143418482614106565b50602082015161414e60208501826143d6565b805160608301906143658482614106565b5060208201516143786020850182614097565b50604082015161414e60408501826140fd565b805161010083019061439d8482614106565b5060208201516143b06020850182614121565b5060408201516143c36040850182614354565b50606082015161414e60a0850182614354565b805160608301906143e78482614106565b5060208201516143fa6020850182614106565b50604082015161414e60408501826145fb565b805160009060808401906144218582614165565b506020830151848203606086015261422382826140a6565b805160208084526000919084019061422382826140a6565b805160a08301906144628482614106565b5060208201516144756020850182614154565b50604082015161414e6060850182614154565b80516000906101c084019061449d8582614106565b5060208301516144b06020860182614097565b5060408301516144c36040860182614106565b5060608301516144d66060860182614121565b5060808301516144e96080860182614451565b5060a08301516144fd6101208601826141ad565b5060c08301518482036101a0860152614223828261440d565b805160009061024084019061452b8582614106565b50602083015161453e6020860182614106565b5060408301516145516040860182614189565b50606083015161456460c0860182614106565b50608083015184820360e086015261457c8282614488565b91505060a08301518482036101008601526145978282614488565b91505060c08301516145ad6101208601826141ad565b5060e08301516145c16101a0860182614330565b50610100830151614328610220860182614106565b80516101008301906145e88482614330565b50602082015161414e6080850182614330565b6140a081614833565b602081016127d98284614097565b604081016146208285614097565b612c786020830184614097565b60a0810161463b8288614097565b614648602083018761410f565b6146556040830186614106565b6146626060830185614097565b61466f6080830184614106565b9695505050505050565b608081016146878287614097565b6146946020830186614106565b6146a16040830185614097565b6142236060830184614106565b60a081016146bc8288614097565b6146486020830187614106565b602081016127d982846140fd565b602081016127d98284614106565b602081016127d9828461410f565b60408101614701828561410f565b612c78602083018461410f565b60208082528101612c78818461427e565b60608082528101614730818661427e565b905061473f6020830185614097565b612f096040830184614118565b61010081016127d9828461438b565b60208082528101612c788184614516565b606080825281016147308186614516565b610100810161478c8287614106565b6147996020830186614121565b6147a66040830185614354565b61422360a0830184614354565b6040518181016001604060020a03811182821017156147d157600080fd5b604052919050565b60006001604060020a038211156147ef57600080fd5b5060209081020190565b60200190565b5190565b600160a060020a031690565b151590565b90565b60006003821061482357fe5b5090565b60006002821061482357fe5b60ff1690565b60006127d982614803565b60006003821061482357600080fd5b60006002821061482357600080fd5b60006127d982614817565b60006127d9826148275600a265627a7a72305820b3999415fbad9516c466848fd6e13f3df6117b77be02f53ef0968e4615eb80d86c6578706572696d656e74616cf50037",
    "source": "/*\n * Hubii Nahmii\n *\n * Compliant with the Hubii Nahmii specification v0.12.\n *\n * Copyright (C) 2017-2018 Hubii AS\n */\n\npragma solidity ^0.4.24;\npragma experimental ABIEncoderV2;\n\nimport {Ownable} from \"./Ownable.sol\";\nimport {Configurable} from \"./Configurable.sol\";\nimport {Validatable} from \"./Validatable.sol\";\nimport {ClientFundable} from \"./ClientFundable.sol\";\nimport {CommunityVotable} from \"./CommunityVotable.sol\";\nimport {RevenueFund} from \"./RevenueFund.sol\";\nimport {DriipSettlementChallenge} from \"./DriipSettlementChallenge.sol\";\nimport {FraudChallenge} from \"./FraudChallenge.sol\";\nimport {Beneficiary} from \"./Beneficiary.sol\";\nimport {SafeMathInt} from \"./SafeMathInt.sol\";\nimport {SafeMathUint} from \"./SafeMathUint.sol\";\nimport {MonetaryTypes} from \"./MonetaryTypes.sol\";\nimport {NahmiiTypes} from \"./NahmiiTypes.sol\";\nimport {DriipSettlementTypes} from \"./DriipSettlementTypes.sol\";\n\n/**\n@title Exchange\n@notice The orchestrator of driip settlements\n*/\ncontract Exchange is Ownable, Configurable, Validatable, ClientFundable, CommunityVotable {\n    using SafeMathInt for int256;\n    using SafeMathUint for uint256;\n\n    //\n    // Variables\n    // -----------------------------------------------------------------------------------------------------------------\n    uint256 public maxDriipNonce;\n\n    address[] public seizedWallets;\n    mapping(address => bool) public seizedWalletsMap;\n\n    FraudChallenge public fraudChallenge;\n    DriipSettlementChallenge public driipSettlementChallenge;\n    RevenueFund public tradesRevenueFund;\n    RevenueFund public paymentsRevenueFund;\n\n    NahmiiTypes.Settlement[] public settlements;\n    mapping(uint256 => uint256) public nonceSettlementIndex;\n    mapping(address => uint256[]) public walletSettlementIndices;\n    mapping(address => mapping(uint256 => uint256)) public walletNonceSettlementIndex;\n    mapping(address => mapping(address => mapping(uint256 => uint256))) public walletCurrencyMaxDriipNonce;\n\n    mapping(address => mapping(address => mapping(uint256 => uint256))) public walletCurrencyFeeNonce;\n    mapping(address => mapping(address => mapping(uint256 => int256))) public walletCurrencyFeeCharged;\n\n    //\n    // Events\n    // -----------------------------------------------------------------------------------------------------------------\n    event SettleDriipAsTradeEvent(NahmiiTypes.Trade trade, address wallet,\n        DriipSettlementTypes.ChallengeStatus challengeStatus);\n    event SettleDriipAsPaymentEvent(NahmiiTypes.Payment payment, address wallet,\n        DriipSettlementTypes.ChallengeStatus challengeStatus);\n    event ChangeFraudChallengeEvent(FraudChallenge oldFraudChallenge, FraudChallenge newFraudChallenge);\n    event ChangeDriipSettlementChallengeEvent(DriipSettlementChallenge oldDriipSettlementChallenge,\n        DriipSettlementChallenge newDriipSettlementChallenge);\n    event ChangeTradesRevenueFundEvent(RevenueFund oldRevenueFund, RevenueFund newRevenueFund);\n    event ChangePaymentsRevenueFundEvent(RevenueFund oldRevenueFund, RevenueFund newRevenueFund);\n    event StageTotalFeeEvent(address wallet, int256 deltaAmount, int256 cumulativeAmount, address currencyCt,\n        uint256 currencyId);\n\n    //\n    // Constructor\n    // -----------------------------------------------------------------------------------------------------------------\n    constructor(address owner) Ownable(owner) public {\n    }\n\n    //\n    // Functions\n    // -----------------------------------------------------------------------------------------------------------------\n    /// @notice Change the fraud challenge contract\n    /// @param newFraudChallenge The (address of) FraudChallenge contract instance\n    function changeFraudChallenge(FraudChallenge newFraudChallenge) public\n    onlyDeployer\n    notNullAddress(newFraudChallenge)\n    {\n        FraudChallenge oldFraudChallenge = fraudChallenge;\n        fraudChallenge = newFraudChallenge;\n        emit ChangeFraudChallengeEvent(oldFraudChallenge, fraudChallenge);\n    }\n\n    /// @notice Change the driip settlement challenge contract\n    /// @param newDriipSettlementChallenge The (address of) DriipSettlementChallenge contract instance\n    function changeDriipSettlementChallenge(DriipSettlementChallenge newDriipSettlementChallenge) public\n    onlyDeployer\n    notNullAddress(newDriipSettlementChallenge)\n    {\n        DriipSettlementChallenge oldDriipSettlementChallenge = driipSettlementChallenge;\n        driipSettlementChallenge = newDriipSettlementChallenge;\n        emit ChangeDriipSettlementChallengeEvent(oldDriipSettlementChallenge, driipSettlementChallenge);\n    }\n\n    /// @notice Change the trades revenue fund contract\n    /// @param newTradesRevenueFund The (address of) trades RevenueFund contract instance\n    function changeTradesRevenueFund(RevenueFund newTradesRevenueFund) public\n    onlyDeployer\n    notNullAddress(newTradesRevenueFund)\n    {\n        RevenueFund oldTradesRevenueFund = tradesRevenueFund;\n        tradesRevenueFund = newTradesRevenueFund;\n        emit ChangeTradesRevenueFundEvent(oldTradesRevenueFund, tradesRevenueFund);\n    }\n\n    /// @notice Change the payments revenue fund contract\n    /// @param newPaymentsRevenueFund The (address of) payments RevenueFund contract instance\n    function changePaymentsRevenueFund(RevenueFund newPaymentsRevenueFund) public\n    onlyDeployer\n    notNullAddress(newPaymentsRevenueFund)\n    {\n        RevenueFund oldPaymentsRevenueFund = paymentsRevenueFund;\n        paymentsRevenueFund = newPaymentsRevenueFund;\n        emit ChangePaymentsRevenueFundEvent(oldPaymentsRevenueFund, paymentsRevenueFund);\n    }\n\n    /// @notice Get the seized status of given wallet\n    /// @return true if wallet is seized, false otherwise\n    function isSeizedWallet(address wallet) public view returns (bool) {\n        return seizedWalletsMap[wallet];\n    }\n\n    /// @notice Get the number of wallets whose funds have be seized\n    /// @return Number of wallets\n    function seizedWalletsCount() public view returns (uint256) {\n        return seizedWallets.length;\n    }\n\n    /// @notice Get the count of settlements\n    function settlementsCount() public view returns (uint256) {\n        return settlements.length;\n    }\n\n    /// @notice Return boolean indicating whether there is already a settlement for the given (global) nonce\n    /// @param nonce The nonce for which to check for settlement\n    /// @return true if there exists a settlement for the provided nonce, false otherwise\n    function hasSettlementByNonce(uint256 nonce) public view returns (bool) {\n        return 0 < nonceSettlementIndex[nonce];\n    }\n\n    /// @notice Get the settlement for the given (global) nonce\n    /// @param nonce The nonce of the settlement\n    /// @return settlement of the provided nonce\n    function settlementByNonce(uint256 nonce) public view returns (NahmiiTypes.Settlement) {\n        require(hasSettlementByNonce(nonce));\n        return settlements[nonceSettlementIndex[nonce] - 1];\n    }\n\n    /// @notice Get the count of settlements for given wallet\n    /// @param wallet The address for which to return settlement count\n    /// @return count of settlements for the provided wallet\n    function settlementsCountByWallet(address wallet) public view returns (uint256) {\n        return walletSettlementIndices[wallet].length;\n    }\n\n    /// @notice Get settlement of given wallet and index\n    /// @param wallet The address for which to return settlement\n    /// @param index The wallet's settlement index\n    /// @return settlement for the provided wallet and index\n    function settlementByWalletAndIndex(address wallet, uint256 index) public view returns (NahmiiTypes.Settlement) {\n        require(walletSettlementIndices[wallet].length > index);\n        return settlements[walletSettlementIndices[wallet][index] - 1];\n    }\n\n    /// @notice Get settlement of given wallet and (wallet) nonce\n    /// @param wallet The address for which to return settlement\n    /// @param nonce The wallet's nonce\n    /// @return settlement for the provided wallet and index\n    function settlementByWalletAndNonce(address wallet, uint256 nonce) public view returns (NahmiiTypes.Settlement) {\n        require(0 < walletNonceSettlementIndex[wallet][nonce]);\n        return settlements[walletNonceSettlementIndex[wallet][nonce] - 1];\n    }\n\n    /// @notice Update the max driip nonce property from CommunityVote contract\n    function updateMaxDriipNonce() public {\n        uint256 _maxDriipNonce = communityVote.getMaxDriipNonce();\n        if (_maxDriipNonce > 0) {\n            maxDriipNonce = _maxDriipNonce;\n        }\n    }\n\n    /// @notice Settle driip that is a trade\n    /// @param trade The trade to be settled\n    /// @param wallet The wallet whose side of the trade is to be settled\n    function settleDriipAsTrade(NahmiiTypes.Trade trade, address wallet)\n    public\n    validatorInitialized\n    onlySealedTrade(trade)\n    {\n        require(fraudChallenge != address(0));\n        require(communityVote != address(0));\n        require(driipSettlementChallenge != address(0));\n        require(configuration != address(0));\n        require(clientFund != address(0));\n\n        if (msg.sender != deployer)\n            wallet = msg.sender;\n\n        require(!fraudChallenge.isFraudulentTradeHash(trade.seal.hash));\n        require(NahmiiTypes.isTradeParty(trade, wallet));\n        require(!communityVote.isDoubleSpenderWallet(wallet));\n\n        // Require that the wallet's current driip settlement challenge is wrt this trade\n        require(driipSettlementChallenge.getChallengeNonce(wallet) == trade.nonce);\n\n        // The current driip settlement challenge qualified for settlement\n        if (driipSettlementChallenge.getChallengeStatus(wallet) == DriipSettlementTypes.ChallengeStatus.Qualified) {\n\n            require((configuration.isOperationalModeNormal() && communityVote.isDataAvailable())\n                || (trade.nonce < maxDriipNonce));\n\n            // Get settlement, or create one if no such settlement exists for the trade nonce\n            NahmiiTypes.Settlement storage settlement = hasSettlementByNonce(trade.nonce) ?\n            getSettlement(trade.nonce, NahmiiTypes.DriipType.Trade) :\n            createSettlement(trade.nonce, NahmiiTypes.DriipType.Trade,\n                trade.seller.nonce, trade.seller.wallet, trade.buyer.nonce, trade.buyer.wallet);\n\n            // Get settlement role\n            DriipSettlementTypes.SettlementRole settlementRole = getSettlementRoleFromTrade(trade, wallet);\n\n            // If exists settlement of nonce then require that wallet has not already settled\n            require(\n                (DriipSettlementTypes.SettlementRole.Origin == settlementRole && !settlement.origin.done) ||\n                (DriipSettlementTypes.SettlementRole.Target == settlementRole && !settlement.target.done)\n            );\n\n            // Set address of origin or target to prevent the same settlement from being resettled by this wallet\n            if (DriipSettlementTypes.SettlementRole.Origin == settlementRole)\n                settlement.origin.done = true;\n            else\n                settlement.target.done = true;\n\n            NahmiiTypes.TradeParty memory party = NahmiiTypes.isTradeBuyer(trade, wallet) ? trade.buyer : trade.seller;\n\n            // If wallet has previously settled balance of the intended currency with higher driip nonce, then don't\n            // settle its balance again\n            if (walletCurrencyMaxDriipNonce[wallet][trade.currencies.intended.ct][trade.currencies.intended.id] < trade.nonce) {\n                // Update settled nonce of wallet and currency\n                walletCurrencyMaxDriipNonce[wallet][trade.currencies.intended.ct][trade.currencies.intended.id] = trade.nonce;\n\n                // Update settled balance\n                clientFund.updateSettledBalance(wallet, party.balances.intended.current, trade.currencies.intended.ct, trade.currencies.intended.id);\n\n                // Stage\n                MonetaryTypes.Figure memory intendedStage = driipSettlementChallenge.getChallengeIntendedStage(wallet);\n                if (intendedStage.amount.isNonZeroPositiveInt256())\n                    clientFund.stage(wallet, intendedStage.amount, intendedStage.currency.ct, intendedStage.currency.id);\n            }\n\n            // If wallet has previously settled balance of the conjugate currency with higher driip nonce, then don't\n            // settle its balance again\n            if (walletCurrencyMaxDriipNonce[wallet][trade.currencies.conjugate.ct][trade.currencies.conjugate.id] < trade.nonce) {\n                // Update settled nonce of wallet and currency\n                walletCurrencyMaxDriipNonce[wallet][trade.currencies.conjugate.ct][trade.currencies.conjugate.id] = trade.nonce;\n\n                // Update settled balance\n                clientFund.updateSettledBalance(wallet, party.balances.conjugate.current, trade.currencies.conjugate.ct, trade.currencies.conjugate.id);\n\n                // Stage\n                MonetaryTypes.Figure memory conjugateStage = driipSettlementChallenge.getChallengeConjugateStage(wallet);\n                if (conjugateStage.amount.isNonZeroPositiveInt256())\n                    clientFund.stage(wallet, conjugateStage.amount, conjugateStage.currency.ct, conjugateStage.currency.id);\n            }\n\n            // Stage fees to revenue fund\n            stageFees(wallet, party.fees.total, tradesRevenueFund, trade.nonce);\n\n            // If payment nonce is beyond max driip nonce then update max driip nonce\n            if (trade.nonce > maxDriipNonce)\n                maxDriipNonce = trade.nonce;\n        }\n\n        // The current driip settlement challenge disqualified for settlement\n        else if (driipSettlementChallenge.getChallengeStatus(wallet) == DriipSettlementTypes.ChallengeStatus.Disqualified) {\n            // Add wallet to store of seized wallets\n            addToSeizedWallets(wallet);\n\n            // Slash wallet's funds\n            clientFund.seizeAllBalances(wallet, driipSettlementChallenge.getChallengeChallenger(wallet));\n        }\n\n        // Emit event\n        emit SettleDriipAsTradeEvent(trade, wallet, driipSettlementChallenge.getChallengeStatus(wallet));\n    }\n\n    /// @notice Settle driip that is a payment\n    /// @param payment The payment to be settled\n    /// @param wallet The wallet whose side of the payment is to be settled\n    function settleDriipAsPayment(NahmiiTypes.Payment payment, address wallet)\n    public\n    validatorInitialized\n    onlySealedPayment(payment)\n    {\n        require(fraudChallenge != address(0));\n        require(communityVote != address(0));\n        require(driipSettlementChallenge != address(0));\n        require(configuration != address(0));\n        require(clientFund != address(0));\n\n        if (msg.sender != deployer)\n            wallet = msg.sender;\n\n        require(!fraudChallenge.isFraudulentPaymentExchangeHash(payment.seals.exchange.hash));\n        require(NahmiiTypes.isPaymentParty(payment, wallet));\n        require(!communityVote.isDoubleSpenderWallet(wallet));\n\n        // Require that the wallet's current driip settlement challenge is wrt this payment\n        require(driipSettlementChallenge.getChallengeNonce(wallet) == payment.nonce);\n\n        // The current driip settlement challenge qualified for settlement\n        if (driipSettlementChallenge.getChallengeStatus(wallet) == DriipSettlementTypes.ChallengeStatus.Qualified) {\n\n            require((configuration.isOperationalModeNormal() && communityVote.isDataAvailable())\n                || (payment.nonce < maxDriipNonce));\n\n            // Get settlement, or create one if no such settlement exists for the trade nonce\n            NahmiiTypes.Settlement storage settlement = hasSettlementByNonce(payment.nonce) ?\n            getSettlement(payment.nonce, NahmiiTypes.DriipType.Payment) :\n            createSettlement(payment.nonce, NahmiiTypes.DriipType.Payment,\n                payment.sender.nonce, payment.sender.wallet, payment.recipient.nonce, payment.recipient.wallet);\n\n            // Get settlement role\n            DriipSettlementTypes.SettlementRole settlementRole = getSettlementRoleFromPayment(payment, wallet);\n\n            // If exists settlement of nonce then require that wallet has not already settled\n            require(\n                (DriipSettlementTypes.SettlementRole.Origin == settlementRole && !settlement.origin.done) ||\n                (DriipSettlementTypes.SettlementRole.Target == settlementRole && !settlement.target.done)\n            );\n\n            // Set address of origin or target to prevent the same settlement from being resettled by this wallet\n            if (DriipSettlementTypes.SettlementRole.Origin == settlementRole)\n                settlement.origin.done = true;\n            else\n                settlement.target.done = true;\n\n            MonetaryTypes.Figure[] memory totalFees;\n            int256 currentBalance;\n            if (NahmiiTypes.isPaymentSender(payment, wallet)) {\n                totalFees = payment.sender.fees.total;\n                currentBalance = payment.sender.balances.current;\n            } else {\n                totalFees = payment.recipient.fees.total;\n                currentBalance = payment.recipient.balances.current;\n            }\n\n            // If wallet has previously settled balance of the concerned currency with higher driip nonce, then don't\n            // settle balance again\n            if (walletCurrencyMaxDriipNonce[wallet][payment.currency.ct][payment.currency.id] < payment.nonce) {\n                // Update settled nonce of wallet and currency\n                walletCurrencyMaxDriipNonce[wallet][payment.currency.ct][payment.currency.id] = payment.nonce;\n\n                // Update settled balance\n                clientFund.updateSettledBalance(wallet, currentBalance, payment.currency.ct, payment.currency.id);\n\n                // Stage\n                MonetaryTypes.Figure memory intendedStage = driipSettlementChallenge.getChallengeIntendedStage(wallet);\n                if (intendedStage.amount.isNonZeroPositiveInt256())\n                    clientFund.stage(wallet, intendedStage.amount, intendedStage.currency.ct, intendedStage.currency.id);\n            }\n\n            // Stage fees to revenue fund\n            stageFees(wallet, totalFees, paymentsRevenueFund, payment.nonce);\n\n            // If payment nonce is beyond max driip nonce then update max driip nonce\n            if (payment.nonce > maxDriipNonce)\n                maxDriipNonce = payment.nonce;\n        }\n\n        // The current driip settlement challenge disqualified for settlement\n        else if (driipSettlementChallenge.getChallengeStatus(wallet) == DriipSettlementTypes.ChallengeStatus.Disqualified) {\n            // Add wallet to store of seized wallets\n            addToSeizedWallets(wallet);\n\n            // Slash wallet's funds\n            clientFund.seizeAllBalances(wallet, driipSettlementChallenge.getChallengeChallenger(wallet));\n        }\n\n        // Emit event\n        emit SettleDriipAsPaymentEvent(payment, wallet, driipSettlementChallenge.getChallengeStatus(wallet));\n    }\n\n    function getSettlementRoleFromTrade(NahmiiTypes.Trade trade, address wallet)\n    private\n    pure\n    returns (DriipSettlementTypes.SettlementRole)\n    {\n        return (wallet == trade.seller.wallet ?\n        DriipSettlementTypes.SettlementRole.Origin :\n        DriipSettlementTypes.SettlementRole.Target);\n    }\n\n    function getSettlementRoleFromPayment(NahmiiTypes.Payment payment, address wallet)\n    private\n    pure\n    returns (DriipSettlementTypes.SettlementRole)\n    {\n        return (wallet == payment.sender.wallet ?\n        DriipSettlementTypes.SettlementRole.Origin :\n        DriipSettlementTypes.SettlementRole.Target);\n    }\n\n    function getSettlement(uint256 nonce, NahmiiTypes.DriipType driipType)\n    private\n    view\n    returns (NahmiiTypes.Settlement storage)\n    {\n        uint256 index = nonceSettlementIndex[nonce];\n        NahmiiTypes.Settlement storage settlement = settlements[index - 1];\n        require(driipType == settlement.driipType);\n        return settlement;\n    }\n\n    function createSettlement(uint256 nonce, NahmiiTypes.DriipType driipType,\n        uint256 originNonce, address originWallet, uint256 targetNonce, address targetWallet)\n    private\n    returns (NahmiiTypes.Settlement storage)\n    {\n        NahmiiTypes.Settlement memory settlement;\n        settlement.nonce = nonce;\n        settlement.driipType = driipType;\n        settlement.origin = NahmiiTypes.SettlementParty(originNonce, originWallet, false);\n        settlement.target = NahmiiTypes.SettlementParty(targetNonce, targetWallet, false);\n\n        settlements.push(settlement);\n\n        // Index is 1 based\n        uint256 index = settlements.length;\n        nonceSettlementIndex[nonce] = index;\n        walletSettlementIndices[originWallet].push(index);\n        walletSettlementIndices[targetWallet].push(index);\n        walletNonceSettlementIndex[originWallet][originNonce] = index;\n        walletNonceSettlementIndex[targetWallet][targetNonce] = index;\n\n        return settlements[index - 1];\n    }\n\n    function addToSeizedWallets(address _address) private {\n        if (!seizedWalletsMap[_address]) {\n            seizedWallets.push(_address);\n            seizedWalletsMap[_address] = true;\n        }\n    }\n\n    function stageFees(address wallet, MonetaryTypes.Figure[] fees,\n        Beneficiary beneficiary, uint256 nonce)\n    private\n    {\n        // For each fee figure...\n        for (uint256 i = 0; i < fees.length; i++) {\n            // If wallet has previously settled fee of the concerned currency with higher driip nonce then don't settle again\n            if (walletCurrencyFeeNonce[wallet][fees[i].currency.ct][fees[i].currency.id] < nonce) {\n                walletCurrencyFeeNonce[wallet][fees[i].currency.ct][fees[i].currency.id] = nonce;\n\n                // Stage delta of fee to beneficiary\n                clientFund.stageToBeneficiaryUntargeted(wallet, beneficiary,\n                    fees[i].amount - walletCurrencyFeeCharged[wallet][fees[i].currency.ct][fees[i].currency.id],\n                    fees[i].currency.ct, fees[i].currency.id);\n\n                // Update fee charged\n                walletCurrencyFeeCharged[wallet][fees[i].currency.ct][fees[i].currency.id] = fees[i].amount;\n\n                // Emit event\n                emit StageTotalFeeEvent(wallet,\n                    fees[i].amount - walletCurrencyFeeCharged[wallet][fees[i].currency.ct][fees[i].currency.id],\n                    walletCurrencyFeeCharged[wallet][fees[i].currency.ct][fees[i].currency.id],\n                    fees[i].currency.ct, fees[i].currency.id);\n            }\n        }\n    }\n}",
    "sourcePath": "/Users/yons/development/hubii/omphalos-exchange-smart-contracts/contracts/Exchange.sol",
    "compiler": {
        "name": "solc",
        "version": "0.4.24+commit.e67f0147.Emscripten.clang"
    },
    "schemaVersion": "2.0.1",
    "updatedAt": "2018-10-28T02:07:25.171Z"
}