{
  "contractName": "NullSettlement",
  "abi": [
    {
      "constant": false,
      "inputs": [],
      "name": "triggerSelfDestruction",
      "outputs": [],
      "payable": false,
      "stateMutability": "nonpayable",
      "type": "function"
    },
    {
      "constant": false,
      "inputs": [],
      "name": "disableUpdateOfCommunityVote",
      "outputs": [],
      "payable": false,
      "stateMutability": "nonpayable",
      "type": "function"
    },
    {
      "constant": true,
      "inputs": [],
      "name": "selfDestructionDisabled",
      "outputs": [
        {
          "name": "",
          "type": "bool"
        }
      ],
      "payable": false,
      "stateMutability": "view",
      "type": "function"
    },
    {
      "constant": true,
      "inputs": [],
      "name": "destructor",
      "outputs": [
        {
          "name": "",
          "type": "address"
        }
      ],
      "payable": false,
      "stateMutability": "view",
      "type": "function"
    },
    {
      "constant": true,
      "inputs": [],
      "name": "operator",
      "outputs": [
        {
          "name": "",
          "type": "address"
        }
      ],
      "payable": false,
      "stateMutability": "view",
      "type": "function"
    },
    {
      "constant": true,
      "inputs": [],
      "name": "maxNullNonce",
      "outputs": [
        {
          "name": "",
          "type": "uint256"
        }
      ],
      "payable": false,
      "stateMutability": "view",
      "type": "function"
    },
    {
      "constant": false,
      "inputs": [
        {
          "name": "newConfiguration",
          "type": "address"
        }
      ],
      "name": "setConfiguration",
      "outputs": [],
      "payable": false,
      "stateMutability": "nonpayable",
      "type": "function"
    },
    {
      "constant": true,
      "inputs": [],
      "name": "configuration",
      "outputs": [
        {
          "name": "",
          "type": "address"
        }
      ],
      "payable": false,
      "stateMutability": "view",
      "type": "function"
    },
    {
      "constant": false,
      "inputs": [],
      "name": "disableSelfDestruction",
      "outputs": [],
      "payable": false,
      "stateMutability": "nonpayable",
      "type": "function"
    },
    {
      "constant": false,
      "inputs": [
        {
          "name": "newDeployer",
          "type": "address"
        }
      ],
      "name": "setDeployer",
      "outputs": [],
      "payable": false,
      "stateMutability": "nonpayable",
      "type": "function"
    },
    {
      "constant": true,
      "inputs": [],
      "name": "nullSettlementChallenge",
      "outputs": [
        {
          "name": "",
          "type": "address"
        }
      ],
      "payable": false,
      "stateMutability": "view",
      "type": "function"
    },
    {
      "constant": false,
      "inputs": [
        {
          "name": "newOperator",
          "type": "address"
        }
      ],
      "name": "setOperator",
      "outputs": [],
      "payable": false,
      "stateMutability": "nonpayable",
      "type": "function"
    },
    {
      "constant": false,
      "inputs": [
        {
          "name": "newClientFund",
          "type": "address"
        }
      ],
      "name": "setClientFund",
      "outputs": [],
      "payable": false,
      "stateMutability": "nonpayable",
      "type": "function"
    },
    {
      "constant": true,
      "inputs": [],
      "name": "communityVote",
      "outputs": [
        {
          "name": "",
          "type": "address"
        }
      ],
      "payable": false,
      "stateMutability": "view",
      "type": "function"
    },
    {
      "constant": true,
      "inputs": [
        {
          "name": "",
          "type": "address"
        },
        {
          "name": "",
          "type": "address"
        },
        {
          "name": "",
          "type": "uint256"
        }
      ],
      "name": "walletCurrencyMaxNullNonce",
      "outputs": [
        {
          "name": "",
          "type": "uint256"
        }
      ],
      "payable": false,
      "stateMutability": "view",
      "type": "function"
    },
    {
      "constant": true,
      "inputs": [],
      "name": "communityVoteUpdateDisabled",
      "outputs": [
        {
          "name": "",
          "type": "bool"
        }
      ],
      "payable": false,
      "stateMutability": "view",
      "type": "function"
    },
    {
      "constant": true,
      "inputs": [],
      "name": "deployer",
      "outputs": [
        {
          "name": "",
          "type": "address"
        }
      ],
      "payable": false,
      "stateMutability": "view",
      "type": "function"
    },
    {
      "constant": true,
      "inputs": [],
      "name": "clientFund",
      "outputs": [
        {
          "name": "",
          "type": "address"
        }
      ],
      "payable": false,
      "stateMutability": "view",
      "type": "function"
    },
    {
      "constant": false,
      "inputs": [
        {
          "name": "newCommunityVote",
          "type": "address"
        }
      ],
      "name": "setCommunityVote",
      "outputs": [],
      "payable": false,
      "stateMutability": "nonpayable",
      "type": "function"
    },
    {
      "inputs": [
        {
          "name": "deployer",
          "type": "address"
        }
      ],
      "payable": false,
      "stateMutability": "nonpayable",
      "type": "constructor"
    },
    {
      "anonymous": false,
      "inputs": [
        {
          "indexed": false,
          "name": "oldNullSettlementChallenge",
          "type": "address"
        },
        {
          "indexed": false,
          "name": "newNullSettlementChallenge",
          "type": "address"
        }
      ],
      "name": "SetNullSettlementChallengeEvent",
      "type": "event"
    },
    {
      "anonymous": false,
      "inputs": [
        {
          "indexed": false,
          "name": "wallet",
          "type": "address"
        },
        {
          "indexed": false,
          "name": "currencyCt",
          "type": "address"
        },
        {
          "indexed": false,
          "name": "currencyId",
          "type": "uint256"
        }
      ],
      "name": "SettleNullEvent",
      "type": "event"
    },
    {
      "anonymous": false,
      "inputs": [
        {
          "indexed": false,
          "name": "proxy",
          "type": "address"
        },
        {
          "indexed": false,
          "name": "wallet",
          "type": "address"
        },
        {
          "indexed": false,
          "name": "currencyCt",
          "type": "address"
        },
        {
          "indexed": false,
          "name": "currencyId",
          "type": "uint256"
        }
      ],
      "name": "SettleNullByProxyEvent",
      "type": "event"
    },
    {
      "anonymous": false,
      "inputs": [
        {
          "indexed": false,
          "name": "oldCommunityVote",
          "type": "address"
        },
        {
          "indexed": false,
          "name": "newCommunityVote",
          "type": "address"
        }
      ],
      "name": "SetCommunityVoteEvent",
      "type": "event"
    },
    {
      "anonymous": false,
      "inputs": [
        {
          "indexed": false,
          "name": "oldClientFund",
          "type": "address"
        },
        {
          "indexed": false,
          "name": "newClientFund",
          "type": "address"
        }
      ],
      "name": "SetClientFundEvent",
      "type": "event"
    },
    {
      "anonymous": false,
      "inputs": [
        {
          "indexed": false,
          "name": "oldConfiguration",
          "type": "address"
        },
        {
          "indexed": false,
          "name": "newConfiguration",
          "type": "address"
        }
      ],
      "name": "SetConfigurationEvent",
      "type": "event"
    },
    {
      "anonymous": false,
      "inputs": [
        {
          "indexed": false,
          "name": "oldDeployer",
          "type": "address"
        },
        {
          "indexed": false,
          "name": "newDeployer",
          "type": "address"
        }
      ],
      "name": "SetDeployerEvent",
      "type": "event"
    },
    {
      "anonymous": false,
      "inputs": [
        {
          "indexed": false,
          "name": "oldOperator",
          "type": "address"
        },
        {
          "indexed": false,
          "name": "newOperator",
          "type": "address"
        }
      ],
      "name": "SetOperatorEvent",
      "type": "event"
    },
    {
      "anonymous": false,
      "inputs": [
        {
          "indexed": false,
          "name": "wallet",
          "type": "address"
        }
      ],
      "name": "SelfDestructionDisabledEvent",
      "type": "event"
    },
    {
      "anonymous": false,
      "inputs": [
        {
          "indexed": false,
          "name": "wallet",
          "type": "address"
        }
      ],
      "name": "TriggerSelfDestructionEvent",
      "type": "event"
    },
    {
      "constant": false,
      "inputs": [
        {
          "name": "newNullSettlementChallenge",
          "type": "address"
        }
      ],
      "name": "setNullSettlementChallenge",
      "outputs": [],
      "payable": false,
      "stateMutability": "nonpayable",
      "type": "function"
    },
    {
      "constant": false,
      "inputs": [],
      "name": "updateMaxNullNonce",
      "outputs": [],
      "payable": false,
      "stateMutability": "nonpayable",
      "type": "function"
    },
    {
      "constant": false,
      "inputs": [
        {
          "name": "currencyCt",
          "type": "address"
        },
        {
          "name": "currencyId",
          "type": "uint256"
        }
      ],
      "name": "settleNull",
      "outputs": [],
      "payable": false,
      "stateMutability": "nonpayable",
      "type": "function"
    },
    {
      "constant": false,
      "inputs": [
        {
          "name": "wallet",
          "type": "address"
        },
        {
          "name": "currencyCt",
          "type": "address"
        },
        {
          "name": "currencyId",
          "type": "uint256"
        }
      ],
      "name": "settleNullByProxy",
      "outputs": [],
      "payable": false,
      "stateMutability": "nonpayable",
      "type": "function"
    }
  ],
  "bytecode": "0x608060405234801561001057600080fd5b50604051602080611284833981018060405261002f91908101906100ad565b8080600160a060020a038116151561004657600080fd5b600160a060020a03811630141561005c57600080fd5b506000805461010060a860020a031916610100600160a060020a039390931692830217905560018054600160a060020a0319169091179055506100df565b60006100a682516100d3565b9392505050565b6000602082840312156100bf57600080fd5b60006100cb848461009a565b949350505050565b600160a060020a031690565b611196806100ee6000396000f3006080604052600436106101195763ffffffff60e060020a60003504166306a49629811461011e5780631c8c3647146101355780632738a112146101555780632b74d2491461016a5780632f013a001461017f5780634476d23b146101aa578063570ca735146101cc57806362662367146101e1578063627f09c3146102035780636c70bee91461022357806370327ea114610245578063962147351461025a578063a48122591461027a578063b3ab15fb1461028f578063b71ded2f146102af578063bf24e7d0146102cf578063c0ed469a146102e4578063c56a98a714610304578063c81dd95a14610324578063cb672aaf14610339578063d5f3948814610359578063e754476f1461036e578063e86ab8f614610383575b600080fd5b34801561012a57600080fd5b506101336103a3565b005b34801561014157600080fd5b50610133610150366004610f72565b610444565b34801561016157600080fd5b506101336104d5565b34801561017657600080fd5b5061013361053b565b34801561018b57600080fd5b50610194610566565b6040516101a191906110e5565b60405180910390f35b3480156101b657600080fd5b506101bf61056f565b6040516101a19190611000565b3480156101d857600080fd5b506101bf610583565b3480156101ed57600080fd5b506101f6610592565b6040516101a1919061111c565b34801561020f57600080fd5b5061013361021e366004610f72565b610598565b34801561022f57600080fd5b50610238610640565b6040516101a191906110f3565b34801561025157600080fd5b5061013361064f565b34801561026657600080fd5b50610133610275366004610ea7565b6106b2565b34801561028657600080fd5b50610238610770565b34801561029b57600080fd5b506101336102aa366004610ea7565b61077f565b3480156102bb57600080fd5b506101336102ca366004610f72565b610829565b3480156102db57600080fd5b506102386108c1565b3480156102f057600080fd5b506101336102ff366004610f1a565b6108d0565b34801561031057600080fd5b506101f661031f366004610ecd565b61091a565b34801561033057600080fd5b5061019461093d565b34801561034557600080fd5b50610133610354366004610ecd565b61094d565b34801561036557600080fd5b506101bf6109a0565b34801561037a57600080fd5b506102386109b4565b34801561038f57600080fd5b5061013361039e366004610f72565b6109c3565b6000600460009054906101000a9004600160a060020a0316600160a060020a031663b5b9c7bf6040518163ffffffff1660e060020a028152600401602060405180830381600087803b1580156103f857600080fd5b505af115801561040c573d6000803e3d6000fd5b505050506040513d601f19601f820116820180604052506104309190810190610fae565b905060008111156104415760068190555b50565b600061044e610a72565b151561045957600080fd5b81600160a060020a038116151561046f57600080fd5b60058054600160a060020a03858116600160a060020a03198316179283905560405191811694507f471bc6479108ad1defa31d1004fbdfd77575b55eb8acd5ae73b48d4345542ca8926104c89286929190911690611101565b60405180910390a1505050565b336104de61056f565b600160a060020a0316146104f157600080fd5b60005460ff161561050157600080fd5b7f787a5d936e74f4b564b9153575886059829c78cd9927b1be5e0d976b317ef736336040516105309190611000565b60405180910390a133ff5b610543610a72565b151561054e57600080fd5b6004805460a060020a60ff02191660a060020a179055565b60005460ff1681565b6000546101009004600160a060020a031690565b600154600160a060020a031681565b60065481565b60006105a2610a72565b15156105ad57600080fd5b81600160a060020a03811615156105c357600080fd5b6002548390600160a060020a0390811690821681146106395760028054600160a060020a03878116600160a060020a0319831617909255604051911694507f634f61bf00e14adedce330c80c2823e16e184f189ebe853e1ddecc4a268477ff906106309086908890611101565b60405180910390a15b5050505050565b600254600160a060020a031681565b3361065861056f565b600160a060020a03161461066b57600080fd5b6000805460ff191660011790556040517fd5a2a04a775c741c2ca0dc46ea7ce4835190e1aaf1ca018def0e82568ec33616906106a8903390611000565b60405180910390a1565b60006106bc610a72565b15156106c757600080fd5b81600160a060020a03811615156106dd57600080fd5b600160a060020a0381163014156106f357600080fd5b600054600160a060020a03848116610100909204161461076b5760008054600160a060020a0385811661010090810261010060a860020a0319841617909355604051929091041692507f977e5fa58e458501775e0008d275006294c5249e3c08d1d0e3a9f3acad14f6e4906104c89084908690611014565b505050565b600554600160a060020a031681565b6000610789610a88565b151561079457600080fd5b81600160a060020a03811615156107aa57600080fd5b600160a060020a0381163014156107c057600080fd5b600154600160a060020a0384811691161461076b5760018054600160a060020a03858116600160a060020a0319831617909255604051911692507f9f611b789425d0d5b90b920f1b2852907dd865c80074a30b1629aaa041d1812c906104c89084908690611014565b6000610833610a72565b151561083e57600080fd5b81600160a060020a038116151561085457600080fd5b6003548390600160a060020a0390811690821681146106395760038054600160a060020a03878116600160a060020a0319831617909255604051911694507f4d96d2a04c886b313bd1e28be6324ed4c8867b3203e512756722f8be0195e16d906106309086908890611101565b600454600160a060020a031681565b6108db338383610a99565b7f6574166dc846aecab63a391ea731ee7c38e8135ea68ac3ae30841da74a85615b33838360405161090e9392919061106d565b60405180910390a15050565b600760209081526000938452604080852082529284528284209052825290205481565b60045460a060020a900460ff1681565b610955610a88565b151561096057600080fd5b61096b838383610a99565b7f47db2eb1eec2571e1eca0e41d75ddc29f72e4860f69e8b63ecbb73e70faf309a338484846040516104c8949392919061102f565b6000546101009004600160a060020a031681565b600354600160a060020a031681565b60006109cd610a72565b15156109d857600080fd5b81600160a060020a03811615156109ee57600080fd5b6004548390600160a060020a0390811690821681146106395760045460a060020a900460ff1615610a1e57600080fd5b60048054600160a060020a03878116600160a060020a0319831617909255604051911694507f624c4d4225a45f5bf8a9755adba1ef9be3464a9970b05a371fb6cca0c0caf204906106309086908890611101565b6000546101009004600160a060020a0316331490565b600154600160a060020a0316331490565b60055460405160e460020a62712abb0281526000918291600160a060020a0390911690630712abb090610ad49088908890889060040161106d565b602060405180830381600087803b158015610aee57600080fd5b505af1158015610b02573d6000803e3d6000fd5b505050506040513d601f19601f82011682018060405250610b269190810190610f90565b6001811115610b3157fe5b15610b3b57600080fd5b60055460405160e060020a63cdbf9419028152600160a060020a039091169063cdbf941990610b729088908890889060040161106d565b602060405180830381600087803b158015610b8c57600080fd5b505af1158015610ba0573d6000803e3d6000fd5b505050506040513d601f19601f82011682018060405250610bc49190810190610fae565b9150600260009054906101000a9004600160a060020a0316600160a060020a031663f71e860f6040518163ffffffff1660e060020a028152600401602060405180830381600087803b158015610c1957600080fd5b505af1158015610c2d573d6000803e3d6000fd5b505050506040513d601f19601f82011682018060405250610c519190810190610f54565b8015610cd75750600480546040805160e160020a634ca7103b0281529051600160a060020a039092169263994e20769282820192602092908290030181600087803b158015610c9f57600080fd5b505af1158015610cb3573d6000803e3d6000fd5b505050506040513d601f19601f82011682018060405250610cd79190810190610f54565b80610ce3575060065482105b1515610cee57600080fd5b600160a060020a0380861660009081526007602090815260408083209388168352928152828220868352905220548211610d2757600080fd5b600160a060020a0380861660009081526007602090815260408083208885168452825280832087845290915290819020849055600554905160e060020a6342cb45870281529116906342cb458790610d879088908890889060040161106d565b602060405180830381600087803b158015610da157600080fd5b505af1158015610db5573d6000803e3d6000fd5b505050506040513d601f19601f82011682018060405250610dd99190810190610fae565b60035460405160e060020a63ad468df9028152919250600160a060020a03169063ad468df990610e13908890859089908990600401611095565b600060405180830381600087803b158015610e2d57600080fd5b505af1158015610e41573d6000803e3d6000fd5b505050506006548211156106395750600655505050565b6000610e64823561112a565b9392505050565b6000610e648251611136565b6000610e64823561113e565b6000610e648251611149565b6000610e64825161113b565b6000610e64823561113b565b600060208284031215610eb957600080fd5b6000610ec58484610e58565b949350505050565b600080600060608486031215610ee257600080fd5b6000610eee8686610e58565b9350506020610eff86828701610e58565b9250506040610f1086828701610e9b565b9150509250925092565b60008060408385031215610f2d57600080fd5b6000610f398585610e58565b9250506020610f4a85828601610e9b565b9150509250929050565b600060208284031215610f6657600080fd5b6000610ec58484610e6b565b600060208284031215610f8457600080fd5b6000610ec58484610e77565b600060208284031215610fa257600080fd5b6000610ec58484610e83565b600060208284031215610fc057600080fd5b6000610ec58484610e8f565b610fd58161112a565b82525050565b610fd581611136565b610fd58161113e565b610fd58161113b565b6000815260200190565b6020810161100e8284610fcc565b92915050565b604081016110228285610fcc565b610e646020830184610fcc565b6080810161103d8287610fcc565b61104a6020830186610fcc565b6110576040830185610fcc565b6110646060830184610fed565b95945050505050565b6060810161107b8286610fcc565b6110886020830185610fcc565b610ec56040830184610fed565b60a081016110a38287610fcc565b6110b06020830186610fed565b6110bd6040830185610fcc565b6110ca6060830184610fed565b81810360808301526110db81610ff6565b9695505050505050565b6020810161100e8284610fdb565b6020810161100e8284610fe4565b6040810161110f8285610fe4565b610e646020830184610fe4565b6020810161100e8284610fed565b600160a060020a031690565b151590565b90565b600061100e8261112a565b60006002821061115857600080fd5b50905600a265627a7a72305820bc8d98be1d08ff86c3882f1f84e830530fd2807ab3b080142c970c6ade3e0a306c6578706572696d656e74616cf50037",
  "source": "/*\n * Hubii Nahmii\n *\n * Compliant with the Hubii Nahmii specification v0.12.\n *\n * Copyright (C) 2017-2018 Hubii AS\n */\n\npragma solidity ^0.4.25;\npragma experimental ABIEncoderV2;\n\nimport {Ownable} from \"./Ownable.sol\";\nimport {Configurable} from \"./Configurable.sol\";\nimport {ClientFundable} from \"./ClientFundable.sol\";\nimport {CommunityVotable} from \"./CommunityVotable.sol\";\nimport {RevenueFund} from \"./RevenueFund.sol\";\nimport {NullSettlementChallenge} from \"./NullSettlementChallenge.sol\";\nimport {Beneficiary} from \"./Beneficiary.sol\";\nimport {SafeMathIntLib} from \"./SafeMathIntLib.sol\";\nimport {SafeMathUintLib} from \"./SafeMathUintLib.sol\";\nimport {SettlementTypesLib} from \"./SettlementTypesLib.sol\";\n\n/**\n * @title NullSettlement\n * @notice Where null settlement are finalized\n */\ncontract NullSettlement is Ownable, Configurable, ClientFundable, CommunityVotable {\n    using SafeMathIntLib for int256;\n    using SafeMathUintLib for uint256;\n\n    //\n    // Variables\n    // -----------------------------------------------------------------------------------------------------------------\n    NullSettlementChallenge public nullSettlementChallenge;\n\n    uint256 public maxNullNonce;\n\n    mapping(address => mapping(address => mapping(uint256 => uint256))) public walletCurrencyMaxNullNonce;\n\n    //\n    // Events\n    // -----------------------------------------------------------------------------------------------------------------\n    event SetNullSettlementChallengeEvent(NullSettlementChallenge oldNullSettlementChallenge,\n        NullSettlementChallenge newNullSettlementChallenge);\n    event SettleNullEvent(address wallet, address currencyCt, uint256 currencyId);\n    event SettleNullByProxyEvent(address proxy, address wallet, address currencyCt,\n        uint256 currencyId);\n\n    //\n    // Constructor\n    // -----------------------------------------------------------------------------------------------------------------\n    constructor(address deployer) Ownable(deployer) public {\n    }\n\n    //\n    // Functions\n    // -----------------------------------------------------------------------------------------------------------------\n    /// @notice Set the null settlement challenge contract\n    /// @param newNullSettlementChallenge The (address of) NullSettlementChallenge contract instance\n    function setNullSettlementChallenge(NullSettlementChallenge newNullSettlementChallenge)\n    public\n    onlyDeployer\n    notNullAddress(newNullSettlementChallenge)\n    {\n        NullSettlementChallenge oldNullSettlementChallenge = nullSettlementChallenge;\n        nullSettlementChallenge = newNullSettlementChallenge;\n        emit SetNullSettlementChallengeEvent(oldNullSettlementChallenge, nullSettlementChallenge);\n    }\n\n    /// @notice Update the max null settlement nonce property from CommunityVote contract\n    function updateMaxNullNonce()\n    public\n    {\n        uint256 _maxNullNonce = communityVote.getMaxNullNonce();\n        if (_maxNullNonce > 0)\n            maxNullNonce = _maxNullNonce;\n    }\n\n    /// @notice Settle null\n    /// @param currencyCt The address of the concerned currency contract (address(0) == ETH)\n    /// @param currencyId The ID of the concerned currency (0 for ETH and ERC20)\n    function settleNull(address currencyCt, uint256 currencyId)\n    public\n    {\n        // Settle null\n        _settleNull(msg.sender, currencyCt, currencyId);\n\n        // Emit event\n        emit SettleNullEvent(msg.sender, currencyCt, currencyId);\n    }\n\n    /// @notice Settle null by proxy\n    /// @param wallet The address of the concerned wallet\n    /// @param currencyCt The address of the concerned currency contract (address(0) == ETH)\n    /// @param currencyId The ID of the concerned currency (0 for ETH and ERC20)\n    function settleNullByProxy(address wallet, address currencyCt, uint256 currencyId)\n    public\n    onlyOperator\n    {\n        // Settle null of wallet\n        _settleNull(wallet, currencyCt, currencyId);\n\n        // Emit event\n        emit SettleNullByProxyEvent(msg.sender, wallet, currencyCt, currencyId);\n    }\n\n    //\n    // Private functions\n    // -----------------------------------------------------------------------------------------------------------------\n    function _settleNull(address wallet, address currencyCt, uint256 currencyId)\n    private\n    {\n        // Require that driip settlement challenge qualified\n        require(SettlementTypesLib.Status.Qualified == nullSettlementChallenge.proposalStatus(\n            wallet, currencyCt, currencyId\n        ));\n\n        uint256 nonce = nullSettlementChallenge.proposalNonce(wallet, currencyCt, currencyId);\n\n        // Require that operational mode is normal and data is available, or that nonce is\n        // smaller than max null nonce\n        require((configuration.isOperationalModeNormal() && communityVote.isDataAvailable())\n            || (nonce < maxNullNonce));\n\n        // If wallet has previously settled balance of the concerned currency with higher\n        // null settlement nonce, then don't settle again\n        require(nonce > walletCurrencyMaxNullNonce[wallet][currencyCt][currencyId]);\n\n        // Update settled nonce of wallet and currency\n        walletCurrencyMaxNullNonce[wallet][currencyCt][currencyId] = nonce;\n\n        // Get proposal's stage amount\n        int256 stageAmount = nullSettlementChallenge.proposalStageAmount(\n            wallet, currencyCt, currencyId\n        );\n\n        // Stage the proposed amount\n        clientFund.stage(wallet, stageAmount, currencyCt, currencyId, \"\");\n\n        // If payment nonce is beyond max null settlement nonce then update max null nonce\n        if (nonce > maxNullNonce)\n            maxNullNonce = nonce;\n    }\n}",
  "sourcePath": "/opt/buildagent/work/855e104608380c36/contracts/NullSettlement.sol",
  "compiler": {
    "name": "solc",
    "version": "0.4.25+commit.59dbf8f1.Emscripten.clang"
  },
  "schemaVersion": "2.0.1",
  "updatedAt": "2018-12-21T12:49:50.268Z"
}