{
  "contractName": "NullSettlement",
  "abi": [
    {
      "constant": false,
      "inputs": [],
      "name": "disableUpdateOfCommunityVote",
      "outputs": [],
      "payable": false,
      "stateMutability": "nonpayable",
      "type": "function"
    },
    {
      "constant": true,
      "inputs": [],
      "name": "destructor",
      "outputs": [
        {
          "name": "",
          "type": "address"
        }
      ],
      "payable": false,
      "stateMutability": "view",
      "type": "function"
    },
    {
      "constant": true,
      "inputs": [],
      "name": "operator",
      "outputs": [
        {
          "name": "",
          "type": "address"
        }
      ],
      "payable": false,
      "stateMutability": "view",
      "type": "function"
    },
    {
      "constant": true,
      "inputs": [],
      "name": "maxNullNonce",
      "outputs": [
        {
          "name": "",
          "type": "uint256"
        }
      ],
      "payable": false,
      "stateMutability": "view",
      "type": "function"
    },
    {
      "constant": false,
      "inputs": [
        {
          "name": "newConfiguration",
          "type": "address"
        }
      ],
      "name": "setConfiguration",
      "outputs": [],
      "payable": false,
      "stateMutability": "nonpayable",
      "type": "function"
    },
    {
      "constant": true,
      "inputs": [],
      "name": "configuration",
      "outputs": [
        {
          "name": "",
          "type": "address"
        }
      ],
      "payable": false,
      "stateMutability": "view",
      "type": "function"
    },
    {
      "constant": false,
      "inputs": [],
      "name": "triggerDestroy",
      "outputs": [],
      "payable": false,
      "stateMutability": "nonpayable",
      "type": "function"
    },
    {
      "constant": false,
      "inputs": [
        {
          "name": "newDeployer",
          "type": "address"
        }
      ],
      "name": "setDeployer",
      "outputs": [],
      "payable": false,
      "stateMutability": "nonpayable",
      "type": "function"
    },
    {
      "constant": true,
      "inputs": [],
      "name": "nullSettlementChallenge",
      "outputs": [
        {
          "name": "",
          "type": "address"
        }
      ],
      "payable": false,
      "stateMutability": "view",
      "type": "function"
    },
    {
      "constant": false,
      "inputs": [
        {
          "name": "newOperator",
          "type": "address"
        }
      ],
      "name": "setOperator",
      "outputs": [],
      "payable": false,
      "stateMutability": "nonpayable",
      "type": "function"
    },
    {
      "constant": false,
      "inputs": [
        {
          "name": "newAddress",
          "type": "address"
        }
      ],
      "name": "setClientFund",
      "outputs": [],
      "payable": false,
      "stateMutability": "nonpayable",
      "type": "function"
    },
    {
      "constant": true,
      "inputs": [],
      "name": "communityVote",
      "outputs": [
        {
          "name": "",
          "type": "address"
        }
      ],
      "payable": false,
      "stateMutability": "view",
      "type": "function"
    },
    {
      "constant": true,
      "inputs": [
        {
          "name": "",
          "type": "address"
        },
        {
          "name": "",
          "type": "address"
        },
        {
          "name": "",
          "type": "uint256"
        }
      ],
      "name": "walletCurrencyMaxNullNonce",
      "outputs": [
        {
          "name": "",
          "type": "uint256"
        }
      ],
      "payable": false,
      "stateMutability": "view",
      "type": "function"
    },
    {
      "constant": true,
      "inputs": [],
      "name": "communityVoteUpdateDisabled",
      "outputs": [
        {
          "name": "",
          "type": "bool"
        }
      ],
      "payable": false,
      "stateMutability": "view",
      "type": "function"
    },
    {
      "constant": true,
      "inputs": [],
      "name": "deployer",
      "outputs": [
        {
          "name": "",
          "type": "address"
        }
      ],
      "payable": false,
      "stateMutability": "view",
      "type": "function"
    },
    {
      "constant": true,
      "inputs": [],
      "name": "clientFund",
      "outputs": [
        {
          "name": "",
          "type": "address"
        }
      ],
      "payable": false,
      "stateMutability": "view",
      "type": "function"
    },
    {
      "constant": false,
      "inputs": [
        {
          "name": "newCommunityVote",
          "type": "address"
        }
      ],
      "name": "setCommunityVote",
      "outputs": [],
      "payable": false,
      "stateMutability": "nonpayable",
      "type": "function"
    },
    {
      "inputs": [
        {
          "name": "deployer",
          "type": "address"
        }
      ],
      "payable": false,
      "stateMutability": "nonpayable",
      "type": "constructor"
    },
    {
      "anonymous": false,
      "inputs": [
        {
          "indexed": false,
          "name": "oldNullSettlementChallenge",
          "type": "address"
        },
        {
          "indexed": false,
          "name": "newNullSettlementChallenge",
          "type": "address"
        }
      ],
      "name": "SetNullSettlementChallengeEvent",
      "type": "event"
    },
    {
      "anonymous": false,
      "inputs": [
        {
          "indexed": false,
          "name": "wallet",
          "type": "address"
        },
        {
          "indexed": false,
          "name": "currencyCt",
          "type": "address"
        },
        {
          "indexed": false,
          "name": "currencyId",
          "type": "uint256"
        }
      ],
      "name": "SettleNullEvent",
      "type": "event"
    },
    {
      "anonymous": false,
      "inputs": [
        {
          "indexed": false,
          "name": "proxy",
          "type": "address"
        },
        {
          "indexed": false,
          "name": "wallet",
          "type": "address"
        },
        {
          "indexed": false,
          "name": "currencyCt",
          "type": "address"
        },
        {
          "indexed": false,
          "name": "currencyId",
          "type": "uint256"
        }
      ],
      "name": "SettleNullByProxyEvent",
      "type": "event"
    },
    {
      "anonymous": false,
      "inputs": [
        {
          "indexed": false,
          "name": "oldCommunityVote",
          "type": "address"
        },
        {
          "indexed": false,
          "name": "newCommunityVote",
          "type": "address"
        }
      ],
      "name": "SetCommunityVoteEvent",
      "type": "event"
    },
    {
      "anonymous": false,
      "inputs": [
        {
          "indexed": false,
          "name": "oldAddress",
          "type": "address"
        },
        {
          "indexed": false,
          "name": "newAddress",
          "type": "address"
        }
      ],
      "name": "SetClientFundEvent",
      "type": "event"
    },
    {
      "anonymous": false,
      "inputs": [
        {
          "indexed": false,
          "name": "oldConfiguration",
          "type": "address"
        },
        {
          "indexed": false,
          "name": "newConfiguration",
          "type": "address"
        }
      ],
      "name": "SetConfigurationEvent",
      "type": "event"
    },
    {
      "anonymous": false,
      "inputs": [
        {
          "indexed": false,
          "name": "oldDeployer",
          "type": "address"
        },
        {
          "indexed": false,
          "name": "newDeployer",
          "type": "address"
        }
      ],
      "name": "SetDeployerEvent",
      "type": "event"
    },
    {
      "anonymous": false,
      "inputs": [
        {
          "indexed": false,
          "name": "oldOperator",
          "type": "address"
        },
        {
          "indexed": false,
          "name": "newOperator",
          "type": "address"
        }
      ],
      "name": "SetOperatorEvent",
      "type": "event"
    },
    {
      "constant": false,
      "inputs": [
        {
          "name": "newNullSettlementChallenge",
          "type": "address"
        }
      ],
      "name": "setNullSettlementChallenge",
      "outputs": [],
      "payable": false,
      "stateMutability": "nonpayable",
      "type": "function"
    },
    {
      "constant": false,
      "inputs": [],
      "name": "updateMaxNullNonce",
      "outputs": [],
      "payable": false,
      "stateMutability": "nonpayable",
      "type": "function"
    },
    {
      "constant": false,
      "inputs": [
        {
          "name": "currencyCt",
          "type": "address"
        },
        {
          "name": "currencyId",
          "type": "uint256"
        }
      ],
      "name": "settleNull",
      "outputs": [],
      "payable": false,
      "stateMutability": "nonpayable",
      "type": "function"
    },
    {
      "constant": false,
      "inputs": [
        {
          "name": "wallet",
          "type": "address"
        },
        {
          "name": "currencyCt",
          "type": "address"
        },
        {
          "name": "currencyId",
          "type": "uint256"
        }
      ],
      "name": "settleNullByProxy",
      "outputs": [],
      "payable": false,
      "stateMutability": "nonpayable",
      "type": "function"
    }
  ],
  "bytecode": "0x608060405234801561001057600080fd5b50604051602080611231833981018060405261002f91908101906100a0565b8080600160a060020a038116151561004657600080fd5b600160a060020a03811630141561005c57600080fd5b5060008054600160a060020a03909216600160a060020a0319928316811790915560018054909216179055506100d2565b600061009982516100c6565b9392505050565b6000602082840312156100b257600080fd5b60006100be848461008d565b949350505050565b600160a060020a031690565b611150806100e16000396000f3006080604052600436106101035763ffffffff60e060020a60003504166306a4962981146101085780631c8c36471461011f5780632b74d2491461013f5780634476d23b14610154578063570ca7351461017f5780636266236714610194578063627f09c3146101b65780636c70bee9146101d657806394dd293c146101f8578063962147351461020d578063a48122591461022d578063b3ab15fb14610242578063b71ded2f14610262578063bf24e7d014610282578063c0ed469a14610297578063c56a98a7146102b7578063c81dd95a146102d7578063cb672aaf146102f9578063d5f3948814610319578063e754476f1461032e578063e86ab8f614610343575b600080fd5b34801561011457600080fd5b5061011d610363565b005b34801561012b57600080fd5b5061011d61013a366004610f6b565b610404565b34801561014b57600080fd5b5061011d610495565b34801561016057600080fd5b506101696104c0565b6040516101769190610fef565b60405180910390f35b34801561018b57600080fd5b506101696104cf565b3480156101a057600080fd5b506101a96104de565b60405161017691906110d6565b3480156101c257600080fd5b5061011d6101d1366004610f6b565b6104e4565b3480156101e257600080fd5b506101eb61058c565b60405161017691906110ad565b34801561020457600080fd5b5061011d61059b565b34801561021957600080fd5b5061011d610228366004610ea0565b6105ca565b34801561023957600080fd5b506101eb610679565b34801561024e57600080fd5b5061011d61025d366004610ea0565b610688565b34801561026e57600080fd5b5061011d61027d366004610f6b565b610732565b34801561028e57600080fd5b506101eb6107ca565b3480156102a357600080fd5b5061011d6102b2366004610f13565b6107d9565b3480156102c357600080fd5b506101a96102d2366004610ec6565b610823565b3480156102e357600080fd5b506102ec610846565b604051610176919061109f565b34801561030557600080fd5b5061011d610314366004610ec6565b610856565b34801561032557600080fd5b506101696108a9565b34801561033a57600080fd5b506101eb6108b8565b34801561034f57600080fd5b5061011d61035e366004610f6b565b6108c7565b6000600460009054906101000a9004600160a060020a0316600160a060020a031663b5b9c7bf6040518163ffffffff1660e060020a028152600401602060405180830381600087803b1580156103b857600080fd5b505af11580156103cc573d6000803e3d6000fd5b505050506040513d601f19601f820116820180604052506103f09190810190610fa7565b905060008111156104015760068190555b50565b600061040e610976565b151561041957600080fd5b81600160a060020a038116151561042f57600080fd5b60058054600160a060020a03858116600160a060020a03198316179283905560405191811694507f471bc6479108ad1defa31d1004fbdfd77575b55eb8acd5ae73b48d4345542ca89261048892869291909116906110bb565b60405180910390a1505050565b61049d610976565b15156104a857600080fd5b6004805460a060020a60ff02191660a060020a179055565b600054600160a060020a031690565b600154600160a060020a031681565b60065481565b60006104ee610976565b15156104f957600080fd5b81600160a060020a038116151561050f57600080fd5b6002548390600160a060020a0390811690821681146105855760028054600160a060020a03878116600160a060020a0319831617909255604051911694507f634f61bf00e14adedce330c80c2823e16e184f189ebe853e1ddecc4a268477ff9061057c90869088906110bb565b60405180910390a15b5050505050565b600254600160a060020a031681565b6105a36104c0565b600160a060020a031633146105b757600080fd5b6105bf6104c0565b600160a060020a0316ff5b60006105d4610976565b15156105df57600080fd5b81600160a060020a03811615156105f557600080fd5b600160a060020a03811630141561060b57600080fd5b600054600160a060020a038481169116146106745760008054600160a060020a03858116600160a060020a0319831617909255604051911692507f977e5fa58e458501775e0008d275006294c5249e3c08d1d0e3a9f3acad14f6e4906104889084908690611003565b505050565b600554600160a060020a031681565b6000610692610987565b151561069d57600080fd5b81600160a060020a03811615156106b357600080fd5b600160a060020a0381163014156106c957600080fd5b600154600160a060020a038481169116146106745760018054600160a060020a03858116600160a060020a0319831617909255604051911692507f9f611b789425d0d5b90b920f1b2852907dd865c80074a30b1629aaa041d1812c906104889084908690611003565b600061073c610976565b151561074757600080fd5b81600160a060020a038116151561075d57600080fd5b6003548390600160a060020a0390811690821681146105855760038054600160a060020a03878116600160a060020a0319831617909255604051911694507f4d96d2a04c886b313bd1e28be6324ed4c8867b3203e512756722f8be0195e16d9061057c90869088906110bb565b600454600160a060020a031681565b6107e4338383610998565b7f6574166dc846aecab63a391ea731ee7c38e8135ea68ac3ae30841da74a85615b3383836040516108179392919061105c565b60405180910390a15050565b600760209081526000938452604080852082529284528284209052825290205481565b60045460a060020a900460ff1681565b61085e610976565b151561086957600080fd5b610874838383610998565b7f47db2eb1eec2571e1eca0e41d75ddc29f72e4860f69e8b63ecbb73e70faf309a33848484604051610488949392919061101e565b600054600160a060020a031681565b600354600160a060020a031681565b60006108d1610976565b15156108dc57600080fd5b81600160a060020a03811615156108f257600080fd5b6004548390600160a060020a0390811690821681146105855760045460a060020a900460ff161561092257600080fd5b60048054600160a060020a03878116600160a060020a0319831617909255604051911694507f624c4d4225a45f5bf8a9755adba1ef9be3464a9970b05a371fb6cca0c0caf2049061057c90869088906110bb565b600054600160a060020a0316331490565b600154600160a060020a0316331490565b60055460405160e460020a62712abb02815260009182918291600160a060020a031690630712abb0906109d39089908990899060040161105c565b602060405180830381600087803b1580156109ed57600080fd5b505af1158015610a01573d6000803e3d6000fd5b505050506040513d601f19601f82011682018060405250610a259190810190610f89565b6001811115610a3057fe5b15610a3a57600080fd5b60055460405160e060020a63cdbf9419028152600160a060020a039091169063cdbf941990610a719089908990899060040161105c565b602060405180830381600087803b158015610a8b57600080fd5b505af1158015610a9f573d6000803e3d6000fd5b505050506040513d601f19601f82011682018060405250610ac39190810190610fa7565b9250600260009054906101000a9004600160a060020a0316600160a060020a031663f71e860f6040518163ffffffff1660e060020a028152600401602060405180830381600087803b158015610b1857600080fd5b505af1158015610b2c573d6000803e3d6000fd5b505050506040513d601f19601f82011682018060405250610b509190810190610f4d565b8015610bd65750600480546040805160e160020a634ca7103b0281529051600160a060020a039092169263994e20769282820192602092908290030181600087803b158015610b9e57600080fd5b505af1158015610bb2573d6000803e3d6000fd5b505050506040513d601f19601f82011682018060405250610bd69190810190610f4d565b80610be2575060065483105b1515610bed57600080fd5b600160a060020a0380871660009081526007602090815260408083209389168352928152828220878352905220548311610c2657600080fd5b600160a060020a0380871660009081526007602090815260408083208985168452825280832088845290915290819020859055600554905160e060020a6342cb45870281529116906342cb458790610c869089908990899060040161105c565b602060405180830381600087803b158015610ca057600080fd5b505af1158015610cb4573d6000803e3d6000fd5b505050506040513d601f19601f82011682018060405250610cd89190810190610fa7565b60055460405160e060020a6316987929028152919350600160a060020a031690631698792990610d109089908990899060040161105c565b602060405180830381600087803b158015610d2a57600080fd5b505af1158015610d3e573d6000803e3d6000fd5b505050506040513d601f19601f82011682018060405250610d629190810190610fa7565b60035460405160e560020a63057fe07d028152919250600160a060020a03169063affc0fa090610d9c90899085908a908a90600401611084565b600060405180830381600087803b158015610db657600080fd5b505af1158015610dca573d6000803e3d6000fd5b505060035460405160e060020a63cd49737d028152600160a060020a03909116925063cd49737d9150610e0790899086908a908a90600401611084565b600060405180830381600087803b158015610e2157600080fd5b505af1158015610e35573d6000803e3d6000fd5b50505050600654831115610e495760068390555b505050505050565b6000610e5d82356110e4565b9392505050565b6000610e5d82516110f0565b6000610e5d82356110f8565b6000610e5d8251611103565b6000610e5d82516110f5565b6000610e5d82356110f5565b600060208284031215610eb257600080fd5b6000610ebe8484610e51565b949350505050565b600080600060608486031215610edb57600080fd5b6000610ee78686610e51565b9350506020610ef886828701610e51565b9250506040610f0986828701610e94565b9150509250925092565b60008060408385031215610f2657600080fd5b6000610f328585610e51565b9250506020610f4385828601610e94565b9150509250929050565b600060208284031215610f5f57600080fd5b6000610ebe8484610e64565b600060208284031215610f7d57600080fd5b6000610ebe8484610e70565b600060208284031215610f9b57600080fd5b6000610ebe8484610e7c565b600060208284031215610fb957600080fd5b6000610ebe8484610e88565b610fce816110e4565b82525050565b610fce816110f0565b610fce816110f8565b610fce816110f5565b60208101610ffd8284610fc5565b92915050565b604081016110118285610fc5565b610e5d6020830184610fc5565b6080810161102c8287610fc5565b6110396020830186610fc5565b6110466040830185610fc5565b6110536060830184610fe6565b95945050505050565b6060810161106a8286610fc5565b6110776020830185610fc5565b610ebe6040830184610fe6565b608081016110928287610fc5565b6110396020830186610fe6565b60208101610ffd8284610fd4565b60208101610ffd8284610fdd565b604081016110c98285610fdd565b610e5d6020830184610fdd565b60208101610ffd8284610fe6565b600160a060020a031690565b151590565b90565b6000610ffd826110e4565b60006002821061111257600080fd5b50905600a265627a7a72305820b504f143d17e0b17a7a427257c22fa153998943926e5fcddfe0a74b730f7fe766c6578706572696d656e74616cf50037",
  "source": "/*\n * Hubii Nahmii\n *\n * Compliant with the Hubii Nahmii specification v0.12.\n *\n * Copyright (C) 2017-2018 Hubii AS\n */\n\npragma solidity ^0.4.24;\npragma experimental ABIEncoderV2;\n\nimport {Ownable} from \"./Ownable.sol\";\nimport {Configurable} from \"./Configurable.sol\";\nimport {ClientFundable} from \"./ClientFundable.sol\";\nimport {CommunityVotable} from \"./CommunityVotable.sol\";\nimport {RevenueFund} from \"./RevenueFund.sol\";\nimport {NullSettlementChallenge} from \"./NullSettlementChallenge.sol\";\nimport {Beneficiary} from \"./Beneficiary.sol\";\nimport {SafeMathIntLib} from \"./SafeMathIntLib.sol\";\nimport {SafeMathUintLib} from \"./SafeMathUintLib.sol\";\nimport {MonetaryTypesLib} from \"./MonetaryTypesLib.sol\";\nimport {NahmiiTypesLib} from \"./NahmiiTypesLib.sol\";\nimport {SettlementTypesLib} from \"./SettlementTypesLib.sol\";\n\n/**\n@title NullSettlement\n@notice Where null settlement are finalized\n*/\ncontract NullSettlement is Ownable, Configurable, ClientFundable, CommunityVotable {\n    using SafeMathIntLib for int256;\n    using SafeMathUintLib for uint256;\n\n    //\n    // Variables\n    // -----------------------------------------------------------------------------------------------------------------\n    NullSettlementChallenge public nullSettlementChallenge;\n\n    uint256 public maxNullNonce;\n\n    mapping(address => mapping(address => mapping(uint256 => uint256))) public walletCurrencyMaxNullNonce;\n\n    //\n    // Events\n    // -----------------------------------------------------------------------------------------------------------------\n    event SetNullSettlementChallengeEvent(NullSettlementChallenge oldNullSettlementChallenge,\n        NullSettlementChallenge newNullSettlementChallenge);\n    event SettleNullEvent(address wallet, address currencyCt, uint256 currencyId);\n    event SettleNullByProxyEvent(address proxy, address wallet, address currencyCt,\n        uint256 currencyId);\n\n    //\n    // Constructor\n    // -----------------------------------------------------------------------------------------------------------------\n    constructor(address deployer) Ownable(deployer) public {\n    }\n\n    //\n    // Functions\n    // -----------------------------------------------------------------------------------------------------------------\n    /// @notice Set the null settlement challenge contract\n    /// @param newNullSettlementChallenge The (address of) NullSettlementChallenge contract instance\n    function setNullSettlementChallenge(NullSettlementChallenge newNullSettlementChallenge)\n    public\n    onlyDeployer\n    notNullAddress(newNullSettlementChallenge)\n    {\n        NullSettlementChallenge oldNullSettlementChallenge = nullSettlementChallenge;\n        nullSettlementChallenge = newNullSettlementChallenge;\n        emit SetNullSettlementChallengeEvent(oldNullSettlementChallenge, nullSettlementChallenge);\n    }\n\n    /// @notice Update the max null settlement nonce property from CommunityVote contract\n    function updateMaxNullNonce()\n    public\n    {\n        uint256 _maxNullNonce = communityVote.getMaxNullNonce();\n        if (_maxNullNonce > 0)\n            maxNullNonce = _maxNullNonce;\n    }\n\n    /// @notice Settle null\n    /// @param currencyCt The address of the concerned currency contract (address(0) == ETH)\n    /// @param currencyId The ID of the concerned currency (0 for ETH and ERC20)\n    function settleNull(address currencyCt, uint256 currencyId)\n    public\n    {\n        // Settle null\n        settleNullPrivate(msg.sender, currencyCt, currencyId);\n\n        // Emit event\n        emit SettleNullEvent(msg.sender, currencyCt, currencyId);\n    }\n\n    /// @notice Settle null by proxy\n    /// @param wallet The concerned wallet\n    /// @param currencyCt The address of the concerned currency contract (address(0) == ETH)\n    /// @param currencyId The ID of the concerned currency (0 for ETH and ERC20)\n    function settleNullByProxy(address wallet, address currencyCt, uint256 currencyId)\n    public\n    onlyDeployer\n    {\n        // Settle null of wallet\n        settleNullPrivate(wallet, currencyCt, currencyId);\n\n        // Emit event\n        emit SettleNullByProxyEvent(msg.sender, wallet, currencyCt, currencyId);\n    }\n\n    function settleNullPrivate(address wallet, address currencyCt, uint256 currencyId)\n    private\n    {\n        // Require that driip settlement challenge qualified\n        require(SettlementTypesLib.Status.Qualified == nullSettlementChallenge.proposalStatus(\n            wallet, currencyCt, currencyId\n        ));\n\n        uint256 nonce = nullSettlementChallenge.proposalNonce(wallet, currencyCt, currencyId);\n\n        // Require that operational mode is normal and data is available, or that nonce is\n        // smaller than max null nonce\n        require((configuration.isOperationalModeNormal() && communityVote.isDataAvailable())\n            || (nonce < maxNullNonce));\n\n        // If wallet has previously settled balance of the concerned currency with higher\n        // null settlement nonce, then don't settle again\n        require(nonce > walletCurrencyMaxNullNonce[wallet][currencyCt][currencyId]);\n\n        // Update settled nonce of wallet and currency\n        walletCurrencyMaxNullNonce[wallet][currencyCt][currencyId] = nonce;\n\n        // Get proposal's stage amount and target balance amount.\n        int256 stageAmount = nullSettlementChallenge.proposalStageAmount(\n            wallet, currencyCt, currencyId\n        );\n        int256 targetBalanceAmount = nullSettlementChallenge.proposalTargetBalanceAmount(\n            wallet, currencyCt, currencyId\n        );\n\n        // Update settled balance\n        clientFund.updateSettledBalance(wallet, targetBalanceAmount, currencyCt, currencyId);\n\n        // Stage the proposed amount\n        clientFund.stage(wallet, stageAmount, currencyCt, currencyId);\n\n        // If payment nonce is beyond max null settlement nonce then update max null nonce\n        if (nonce > maxNullNonce)\n            maxNullNonce = nonce;\n    }\n}",
  "sourcePath": "/Users/jensivar/workspace/hubiinetwork/nahmii-contracts/contracts/NullSettlement.sol",
  "compiler": {
    "name": "solc",
    "version": "0.4.24+commit.e67f0147.Emscripten.clang"
  },
  "schemaVersion": "2.0.0",
  "updatedAt": "2018-11-20T14:10:39.841Z"
}