{
  "contractName": "NullSettlementChallenge",
  "abi": [
    {
      "constant": true,
      "inputs": [
        {
          "name": "",
          "type": "uint256"
        }
      ],
      "name": "proposals",
      "outputs": [
        {
          "name": "wallet",
          "type": "address"
        },
        {
          "name": "nonce",
          "type": "uint256"
        },
        {
          "name": "blockNumber",
          "type": "uint256"
        },
        {
          "name": "expirationTime",
          "type": "uint256"
        },
        {
          "name": "status",
          "type": "uint8"
        },
        {
          "name": "currencyCt",
          "type": "address"
        },
        {
          "name": "currencyId",
          "type": "uint256"
        },
        {
          "name": "stageAmount",
          "type": "int256"
        },
        {
          "name": "targetBalanceAmount",
          "type": "int256"
        },
        {
          "name": "driipHash",
          "type": "bytes32"
        },
        {
          "name": "driipType",
          "type": "uint8"
        },
        {
          "name": "balanceReward",
          "type": "bool"
        }
      ],
      "payable": false,
      "stateMutability": "view",
      "type": "function"
    },
    {
      "constant": true,
      "inputs": [],
      "name": "balanceTracker",
      "outputs": [
        {
          "name": "",
          "type": "address"
        }
      ],
      "payable": false,
      "stateMutability": "view",
      "type": "function"
    },
    {
      "constant": false,
      "inputs": [],
      "name": "triggerSelfDestruction",
      "outputs": [],
      "payable": false,
      "stateMutability": "nonpayable",
      "type": "function"
    },
    {
      "constant": true,
      "inputs": [],
      "name": "selfDestructionDisabled",
      "outputs": [
        {
          "name": "",
          "type": "bool"
        }
      ],
      "payable": false,
      "stateMutability": "view",
      "type": "function"
    },
    {
      "constant": true,
      "inputs": [],
      "name": "destructor",
      "outputs": [
        {
          "name": "",
          "type": "address"
        }
      ],
      "payable": false,
      "stateMutability": "view",
      "type": "function"
    },
    {
      "constant": true,
      "inputs": [],
      "name": "operator",
      "outputs": [
        {
          "name": "",
          "type": "address"
        }
      ],
      "payable": false,
      "stateMutability": "view",
      "type": "function"
    },
    {
      "constant": true,
      "inputs": [],
      "name": "nullSettlementDispute",
      "outputs": [
        {
          "name": "",
          "type": "address"
        }
      ],
      "payable": false,
      "stateMutability": "view",
      "type": "function"
    },
    {
      "constant": false,
      "inputs": [
        {
          "name": "newConfiguration",
          "type": "address"
        }
      ],
      "name": "setConfiguration",
      "outputs": [],
      "payable": false,
      "stateMutability": "nonpayable",
      "type": "function"
    },
    {
      "constant": true,
      "inputs": [
        {
          "name": "",
          "type": "uint256"
        }
      ],
      "name": "candidateHashes",
      "outputs": [
        {
          "name": "",
          "type": "bytes32"
        }
      ],
      "payable": false,
      "stateMutability": "view",
      "type": "function"
    },
    {
      "constant": true,
      "inputs": [
        {
          "name": "",
          "type": "address"
        },
        {
          "name": "",
          "type": "address"
        },
        {
          "name": "",
          "type": "uint256"
        }
      ],
      "name": "proposalIndexByWalletCurrency",
      "outputs": [
        {
          "name": "",
          "type": "uint256"
        }
      ],
      "payable": false,
      "stateMutability": "view",
      "type": "function"
    },
    {
      "constant": true,
      "inputs": [],
      "name": "configuration",
      "outputs": [
        {
          "name": "",
          "type": "address"
        }
      ],
      "payable": false,
      "stateMutability": "view",
      "type": "function"
    },
    {
      "constant": false,
      "inputs": [],
      "name": "disableSelfDestruction",
      "outputs": [],
      "payable": false,
      "stateMutability": "nonpayable",
      "type": "function"
    },
    {
      "constant": true,
      "inputs": [
        {
          "name": "",
          "type": "uint256"
        }
      ],
      "name": "challengeWallets",
      "outputs": [
        {
          "name": "",
          "type": "address"
        }
      ],
      "payable": false,
      "stateMutability": "view",
      "type": "function"
    },
    {
      "constant": false,
      "inputs": [
        {
          "name": "newBalanceTracker",
          "type": "address"
        },
        {
          "name": "freeze",
          "type": "bool"
        }
      ],
      "name": "setBalanceTracker",
      "outputs": [],
      "payable": false,
      "stateMutability": "nonpayable",
      "type": "function"
    },
    {
      "constant": true,
      "inputs": [
        {
          "name": "",
          "type": "address"
        },
        {
          "name": "",
          "type": "uint256"
        }
      ],
      "name": "proposalIndicesByWallet",
      "outputs": [
        {
          "name": "",
          "type": "uint256"
        }
      ],
      "payable": false,
      "stateMutability": "view",
      "type": "function"
    },
    {
      "constant": false,
      "inputs": [
        {
          "name": "newDeployer",
          "type": "address"
        }
      ],
      "name": "setDeployer",
      "outputs": [],
      "payable": false,
      "stateMutability": "nonpayable",
      "type": "function"
    },
    {
      "constant": true,
      "inputs": [],
      "name": "nonce",
      "outputs": [
        {
          "name": "",
          "type": "uint256"
        }
      ],
      "payable": false,
      "stateMutability": "view",
      "type": "function"
    },
    {
      "constant": false,
      "inputs": [
        {
          "name": "newOperator",
          "type": "address"
        }
      ],
      "name": "setOperator",
      "outputs": [],
      "payable": false,
      "stateMutability": "nonpayable",
      "type": "function"
    },
    {
      "constant": true,
      "inputs": [
        {
          "name": "",
          "type": "address"
        },
        {
          "name": "",
          "type": "address"
        },
        {
          "name": "",
          "type": "uint256"
        }
      ],
      "name": "disqualificationIndexByWalletCurrency",
      "outputs": [
        {
          "name": "",
          "type": "uint256"
        }
      ],
      "payable": false,
      "stateMutability": "view",
      "type": "function"
    },
    {
      "constant": true,
      "inputs": [
        {
          "name": "",
          "type": "uint256"
        }
      ],
      "name": "lockedWallets",
      "outputs": [
        {
          "name": "",
          "type": "address"
        }
      ],
      "payable": false,
      "stateMutability": "view",
      "type": "function"
    },
    {
      "constant": true,
      "inputs": [],
      "name": "deployer",
      "outputs": [
        {
          "name": "",
          "type": "address"
        }
      ],
      "payable": false,
      "stateMutability": "view",
      "type": "function"
    },
    {
      "constant": true,
      "inputs": [
        {
          "name": "",
          "type": "uint256"
        }
      ],
      "name": "disqualifications",
      "outputs": [
        {
          "name": "wallet",
          "type": "address"
        },
        {
          "name": "nonce",
          "type": "uint256"
        },
        {
          "name": "currencyCt",
          "type": "address"
        },
        {
          "name": "currencyId",
          "type": "uint256"
        },
        {
          "name": "candidateHash",
          "type": "bytes32"
        },
        {
          "name": "candidateType",
          "type": "uint8"
        },
        {
          "name": "challenger",
          "type": "address"
        }
      ],
      "payable": false,
      "stateMutability": "view",
      "type": "function"
    },
    {
      "constant": true,
      "inputs": [
        {
          "name": "",
          "type": "address"
        }
      ],
      "name": "lockedByWallet",
      "outputs": [
        {
          "name": "",
          "type": "bool"
        }
      ],
      "payable": false,
      "stateMutability": "view",
      "type": "function"
    },
    {
      "constant": true,
      "inputs": [
        {
          "name": "",
          "type": "address"
        }
      ],
      "name": "unlockTimeByWallet",
      "outputs": [
        {
          "name": "",
          "type": "uint256"
        }
      ],
      "payable": false,
      "stateMutability": "view",
      "type": "function"
    },
    {
      "inputs": [
        {
          "name": "deployer",
          "type": "address"
        }
      ],
      "payable": false,
      "stateMutability": "nonpayable",
      "type": "constructor"
    },
    {
      "anonymous": false,
      "inputs": [
        {
          "indexed": false,
          "name": "oldNullSettlementDispute",
          "type": "address"
        },
        {
          "indexed": false,
          "name": "newNullSettlementDispute",
          "type": "address"
        }
      ],
      "name": "SetNullSettlementDisputeEvent",
      "type": "event"
    },
    {
      "anonymous": false,
      "inputs": [
        {
          "indexed": false,
          "name": "wallet",
          "type": "address"
        },
        {
          "indexed": false,
          "name": "amount",
          "type": "int256"
        },
        {
          "indexed": false,
          "name": "stageCurrencyCt",
          "type": "address"
        },
        {
          "indexed": false,
          "name": "stageCurrencyId",
          "type": "uint256"
        }
      ],
      "name": "StartChallengeEvent",
      "type": "event"
    },
    {
      "anonymous": false,
      "inputs": [
        {
          "indexed": false,
          "name": "proxy",
          "type": "address"
        },
        {
          "indexed": false,
          "name": "wallet",
          "type": "address"
        },
        {
          "indexed": false,
          "name": "amount",
          "type": "int256"
        },
        {
          "indexed": false,
          "name": "stageCurrencyCt",
          "type": "address"
        },
        {
          "indexed": false,
          "name": "stageCurrencyId",
          "type": "uint256"
        }
      ],
      "name": "StartChallengeByProxyEvent",
      "type": "event"
    },
    {
      "anonymous": false,
      "inputs": [
        {
          "indexed": false,
          "name": "oldBalanceTracker",
          "type": "address"
        },
        {
          "indexed": false,
          "name": "newBalanceTracker",
          "type": "address"
        },
        {
          "indexed": false,
          "name": "freeze",
          "type": "bool"
        }
      ],
      "name": "SetBalanceTrackerEvent",
      "type": "event"
    },
    {
      "anonymous": false,
      "inputs": [
        {
          "indexed": false,
          "name": "oldConfiguration",
          "type": "address"
        },
        {
          "indexed": false,
          "name": "newConfiguration",
          "type": "address"
        }
      ],
      "name": "SetConfigurationEvent",
      "type": "event"
    },
    {
      "anonymous": false,
      "inputs": [
        {
          "indexed": false,
          "name": "oldDeployer",
          "type": "address"
        },
        {
          "indexed": false,
          "name": "newDeployer",
          "type": "address"
        }
      ],
      "name": "SetDeployerEvent",
      "type": "event"
    },
    {
      "anonymous": false,
      "inputs": [
        {
          "indexed": false,
          "name": "oldOperator",
          "type": "address"
        },
        {
          "indexed": false,
          "name": "newOperator",
          "type": "address"
        }
      ],
      "name": "SetOperatorEvent",
      "type": "event"
    },
    {
      "anonymous": false,
      "inputs": [
        {
          "indexed": false,
          "name": "wallet",
          "type": "address"
        }
      ],
      "name": "SelfDestructionDisabledEvent",
      "type": "event"
    },
    {
      "anonymous": false,
      "inputs": [
        {
          "indexed": false,
          "name": "wallet",
          "type": "address"
        }
      ],
      "name": "TriggerSelfDestructionEvent",
      "type": "event"
    },
    {
      "constant": false,
      "inputs": [
        {
          "name": "newNullSettlementDispute",
          "type": "address"
        }
      ],
      "name": "setNullSettlementDispute",
      "outputs": [],
      "payable": false,
      "stateMutability": "nonpayable",
      "type": "function"
    },
    {
      "constant": true,
      "inputs": [],
      "name": "challengeWalletsCount",
      "outputs": [
        {
          "name": "",
          "type": "uint256"
        }
      ],
      "payable": false,
      "stateMutability": "view",
      "type": "function"
    },
    {
      "constant": true,
      "inputs": [],
      "name": "lockedWalletsCount",
      "outputs": [
        {
          "name": "",
          "type": "uint256"
        }
      ],
      "payable": false,
      "stateMutability": "view",
      "type": "function"
    },
    {
      "constant": true,
      "inputs": [],
      "name": "proposalsCount",
      "outputs": [
        {
          "name": "",
          "type": "uint256"
        }
      ],
      "payable": false,
      "stateMutability": "view",
      "type": "function"
    },
    {
      "constant": true,
      "inputs": [],
      "name": "disqualificationsCount",
      "outputs": [
        {
          "name": "",
          "type": "uint256"
        }
      ],
      "payable": false,
      "stateMutability": "view",
      "type": "function"
    },
    {
      "constant": false,
      "inputs": [
        {
          "name": "amount",
          "type": "int256"
        },
        {
          "name": "currencyCt",
          "type": "address"
        },
        {
          "name": "currencyId",
          "type": "uint256"
        }
      ],
      "name": "startChallenge",
      "outputs": [],
      "payable": false,
      "stateMutability": "nonpayable",
      "type": "function"
    },
    {
      "constant": false,
      "inputs": [
        {
          "name": "wallet",
          "type": "address"
        },
        {
          "name": "amount",
          "type": "int256"
        },
        {
          "name": "currencyCt",
          "type": "address"
        },
        {
          "name": "currencyId",
          "type": "uint256"
        }
      ],
      "name": "startChallengeByProxy",
      "outputs": [],
      "payable": false,
      "stateMutability": "nonpayable",
      "type": "function"
    },
    {
      "constant": true,
      "inputs": [
        {
          "name": "wallet",
          "type": "address"
        },
        {
          "name": "currencyCt",
          "type": "address"
        },
        {
          "name": "currencyId",
          "type": "uint256"
        }
      ],
      "name": "hasProposalExpired",
      "outputs": [
        {
          "name": "",
          "type": "bool"
        }
      ],
      "payable": false,
      "stateMutability": "view",
      "type": "function"
    },
    {
      "constant": true,
      "inputs": [
        {
          "name": "wallet",
          "type": "address"
        },
        {
          "name": "currencyCt",
          "type": "address"
        },
        {
          "name": "currencyId",
          "type": "uint256"
        }
      ],
      "name": "proposalNonce",
      "outputs": [
        {
          "name": "",
          "type": "uint256"
        }
      ],
      "payable": false,
      "stateMutability": "view",
      "type": "function"
    },
    {
      "constant": true,
      "inputs": [
        {
          "name": "wallet",
          "type": "address"
        },
        {
          "name": "currencyCt",
          "type": "address"
        },
        {
          "name": "currencyId",
          "type": "uint256"
        }
      ],
      "name": "proposalBlockNumber",
      "outputs": [
        {
          "name": "",
          "type": "uint256"
        }
      ],
      "payable": false,
      "stateMutability": "view",
      "type": "function"
    },
    {
      "constant": true,
      "inputs": [
        {
          "name": "wallet",
          "type": "address"
        },
        {
          "name": "currencyCt",
          "type": "address"
        },
        {
          "name": "currencyId",
          "type": "uint256"
        }
      ],
      "name": "proposalExpirationTime",
      "outputs": [
        {
          "name": "",
          "type": "uint256"
        }
      ],
      "payable": false,
      "stateMutability": "view",
      "type": "function"
    },
    {
      "constant": true,
      "inputs": [
        {
          "name": "wallet",
          "type": "address"
        },
        {
          "name": "currencyCt",
          "type": "address"
        },
        {
          "name": "currencyId",
          "type": "uint256"
        }
      ],
      "name": "proposalStatus",
      "outputs": [
        {
          "name": "",
          "type": "uint8"
        }
      ],
      "payable": false,
      "stateMutability": "view",
      "type": "function"
    },
    {
      "constant": true,
      "inputs": [
        {
          "name": "wallet",
          "type": "address"
        },
        {
          "name": "currencyCt",
          "type": "address"
        },
        {
          "name": "currencyId",
          "type": "uint256"
        }
      ],
      "name": "proposalStageAmount",
      "outputs": [
        {
          "name": "",
          "type": "int256"
        }
      ],
      "payable": false,
      "stateMutability": "view",
      "type": "function"
    },
    {
      "constant": true,
      "inputs": [
        {
          "name": "wallet",
          "type": "address"
        },
        {
          "name": "currencyCt",
          "type": "address"
        },
        {
          "name": "currencyId",
          "type": "uint256"
        }
      ],
      "name": "proposalTargetBalanceAmount",
      "outputs": [
        {
          "name": "",
          "type": "int256"
        }
      ],
      "payable": false,
      "stateMutability": "view",
      "type": "function"
    },
    {
      "constant": true,
      "inputs": [
        {
          "name": "wallet",
          "type": "address"
        },
        {
          "name": "currencyCt",
          "type": "address"
        },
        {
          "name": "currencyId",
          "type": "uint256"
        }
      ],
      "name": "proposalBalanceReward",
      "outputs": [
        {
          "name": "",
          "type": "bool"
        }
      ],
      "payable": false,
      "stateMutability": "view",
      "type": "function"
    },
    {
      "constant": true,
      "inputs": [
        {
          "name": "wallet",
          "type": "address"
        },
        {
          "name": "currencyCt",
          "type": "address"
        },
        {
          "name": "currencyId",
          "type": "uint256"
        }
      ],
      "name": "disqualificationCandidateType",
      "outputs": [
        {
          "name": "",
          "type": "uint8"
        }
      ],
      "payable": false,
      "stateMutability": "view",
      "type": "function"
    },
    {
      "constant": true,
      "inputs": [
        {
          "name": "wallet",
          "type": "address"
        },
        {
          "name": "currencyCt",
          "type": "address"
        },
        {
          "name": "currencyId",
          "type": "uint256"
        }
      ],
      "name": "disqualificationCandidateHash",
      "outputs": [
        {
          "name": "",
          "type": "bytes32"
        }
      ],
      "payable": false,
      "stateMutability": "view",
      "type": "function"
    },
    {
      "constant": true,
      "inputs": [
        {
          "name": "wallet",
          "type": "address"
        },
        {
          "name": "currencyCt",
          "type": "address"
        },
        {
          "name": "currencyId",
          "type": "uint256"
        }
      ],
      "name": "disqualificationChallenger",
      "outputs": [
        {
          "name": "",
          "type": "address"
        }
      ],
      "payable": false,
      "stateMutability": "view",
      "type": "function"
    },
    {
      "constant": false,
      "inputs": [
        {
          "name": "wallet",
          "type": "address"
        },
        {
          "name": "currencyCt",
          "type": "address"
        },
        {
          "name": "currencyId",
          "type": "uint256"
        },
        {
          "name": "expirationTime",
          "type": "uint256"
        }
      ],
      "name": "setProposalExpirationTime",
      "outputs": [],
      "payable": false,
      "stateMutability": "nonpayable",
      "type": "function"
    },
    {
      "constant": false,
      "inputs": [
        {
          "name": "wallet",
          "type": "address"
        },
        {
          "name": "currencyCt",
          "type": "address"
        },
        {
          "name": "currencyId",
          "type": "uint256"
        },
        {
          "name": "status",
          "type": "uint8"
        }
      ],
      "name": "setProposalStatus",
      "outputs": [],
      "payable": false,
      "stateMutability": "nonpayable",
      "type": "function"
    },
    {
      "constant": false,
      "inputs": [
        {
          "components": [
            {
              "name": "nonce",
              "type": "uint256"
            },
            {
              "name": "wallet",
              "type": "address"
            },
            {
              "components": [
                {
                  "name": "intention",
                  "type": "uint8"
                },
                {
                  "name": "amount",
                  "type": "int256"
                },
                {
                  "components": [
                    {
                      "components": [
                        {
                          "name": "ct",
                          "type": "address"
                        },
                        {
                          "name": "id",
                          "type": "uint256"
                        }
                      ],
                      "name": "intended",
                      "type": "tuple"
                    },
                    {
                      "components": [
                        {
                          "name": "ct",
                          "type": "address"
                        },
                        {
                          "name": "id",
                          "type": "uint256"
                        }
                      ],
                      "name": "conjugate",
                      "type": "tuple"
                    }
                  ],
                  "name": "currencies",
                  "type": "tuple"
                },
                {
                  "name": "rate",
                  "type": "int256"
                },
                {
                  "components": [
                    {
                      "name": "current",
                      "type": "int256"
                    },
                    {
                      "name": "previous",
                      "type": "int256"
                    }
                  ],
                  "name": "residuals",
                  "type": "tuple"
                }
              ],
              "name": "placement",
              "type": "tuple"
            },
            {
              "components": [
                {
                  "components": [
                    {
                      "name": "hash",
                      "type": "bytes32"
                    },
                    {
                      "components": [
                        {
                          "name": "r",
                          "type": "bytes32"
                        },
                        {
                          "name": "s",
                          "type": "bytes32"
                        },
                        {
                          "name": "v",
                          "type": "uint8"
                        }
                      ],
                      "name": "signature",
                      "type": "tuple"
                    }
                  ],
                  "name": "wallet",
                  "type": "tuple"
                },
                {
                  "components": [
                    {
                      "name": "hash",
                      "type": "bytes32"
                    },
                    {
                      "components": [
                        {
                          "name": "r",
                          "type": "bytes32"
                        },
                        {
                          "name": "s",
                          "type": "bytes32"
                        },
                        {
                          "name": "v",
                          "type": "uint8"
                        }
                      ],
                      "name": "signature",
                      "type": "tuple"
                    }
                  ],
                  "name": "operator",
                  "type": "tuple"
                }
              ],
              "name": "seals",
              "type": "tuple"
            },
            {
              "name": "blockNumber",
              "type": "uint256"
            },
            {
              "name": "operatorId",
              "type": "uint256"
            }
          ],
          "name": "order",
          "type": "tuple"
        }
      ],
      "name": "challengeByOrder",
      "outputs": [],
      "payable": false,
      "stateMutability": "nonpayable",
      "type": "function"
    },
    {
      "constant": false,
      "inputs": [
        {
          "name": "wallet",
          "type": "address"
        },
        {
          "components": [
            {
              "name": "nonce",
              "type": "uint256"
            },
            {
              "name": "amount",
              "type": "int256"
            },
            {
              "components": [
                {
                  "components": [
                    {
                      "name": "ct",
                      "type": "address"
                    },
                    {
                      "name": "id",
                      "type": "uint256"
                    }
                  ],
                  "name": "intended",
                  "type": "tuple"
                },
                {
                  "components": [
                    {
                      "name": "ct",
                      "type": "address"
                    },
                    {
                      "name": "id",
                      "type": "uint256"
                    }
                  ],
                  "name": "conjugate",
                  "type": "tuple"
                }
              ],
              "name": "currencies",
              "type": "tuple"
            },
            {
              "name": "rate",
              "type": "int256"
            },
            {
              "components": [
                {
                  "name": "nonce",
                  "type": "uint256"
                },
                {
                  "name": "wallet",
                  "type": "address"
                },
                {
                  "name": "rollingVolume",
                  "type": "uint256"
                },
                {
                  "name": "liquidityRole",
                  "type": "uint8"
                },
                {
                  "components": [
                    {
                      "name": "amount",
                      "type": "int256"
                    },
                    {
                      "components": [
                        {
                          "name": "wallet",
                          "type": "bytes32"
                        },
                        {
                          "name": "operator",
                          "type": "bytes32"
                        }
                      ],
                      "name": "hashes",
                      "type": "tuple"
                    },
                    {
                      "components": [
                        {
                          "name": "current",
                          "type": "int256"
                        },
                        {
                          "name": "previous",
                          "type": "int256"
                        }
                      ],
                      "name": "residuals",
                      "type": "tuple"
                    }
                  ],
                  "name": "order",
                  "type": "tuple"
                },
                {
                  "components": [
                    {
                      "components": [
                        {
                          "name": "current",
                          "type": "int256"
                        },
                        {
                          "name": "previous",
                          "type": "int256"
                        }
                      ],
                      "name": "intended",
                      "type": "tuple"
                    },
                    {
                      "components": [
                        {
                          "name": "current",
                          "type": "int256"
                        },
                        {
                          "name": "previous",
                          "type": "int256"
                        }
                      ],
                      "name": "conjugate",
                      "type": "tuple"
                    }
                  ],
                  "name": "balances",
                  "type": "tuple"
                },
                {
                  "components": [
                    {
                      "components": [
                        {
                          "name": "amount",
                          "type": "int256"
                        },
                        {
                          "components": [
                            {
                              "name": "ct",
                              "type": "address"
                            },
                            {
                              "name": "id",
                              "type": "uint256"
                            }
                          ],
                          "name": "currency",
                          "type": "tuple"
                        }
                      ],
                      "name": "single",
                      "type": "tuple"
                    },
                    {
                      "components": [
                        {
                          "name": "originId",
                          "type": "uint256"
                        },
                        {
                          "components": [
                            {
                              "name": "amount",
                              "type": "int256"
                            },
                            {
                              "components": [
                                {
                                  "name": "ct",
                                  "type": "address"
                                },
                                {
                                  "name": "id",
                                  "type": "uint256"
                                }
                              ],
                              "name": "currency",
                              "type": "tuple"
                            }
                          ],
                          "name": "figure",
                          "type": "tuple"
                        }
                      ],
                      "name": "total",
                      "type": "tuple[]"
                    }
                  ],
                  "name": "fees",
                  "type": "tuple"
                }
              ],
              "name": "buyer",
              "type": "tuple"
            },
            {
              "components": [
                {
                  "name": "nonce",
                  "type": "uint256"
                },
                {
                  "name": "wallet",
                  "type": "address"
                },
                {
                  "name": "rollingVolume",
                  "type": "uint256"
                },
                {
                  "name": "liquidityRole",
                  "type": "uint8"
                },
                {
                  "components": [
                    {
                      "name": "amount",
                      "type": "int256"
                    },
                    {
                      "components": [
                        {
                          "name": "wallet",
                          "type": "bytes32"
                        },
                        {
                          "name": "operator",
                          "type": "bytes32"
                        }
                      ],
                      "name": "hashes",
                      "type": "tuple"
                    },
                    {
                      "components": [
                        {
                          "name": "current",
                          "type": "int256"
                        },
                        {
                          "name": "previous",
                          "type": "int256"
                        }
                      ],
                      "name": "residuals",
                      "type": "tuple"
                    }
                  ],
                  "name": "order",
                  "type": "tuple"
                },
                {
                  "components": [
                    {
                      "components": [
                        {
                          "name": "current",
                          "type": "int256"
                        },
                        {
                          "name": "previous",
                          "type": "int256"
                        }
                      ],
                      "name": "intended",
                      "type": "tuple"
                    },
                    {
                      "components": [
                        {
                          "name": "current",
                          "type": "int256"
                        },
                        {
                          "name": "previous",
                          "type": "int256"
                        }
                      ],
                      "name": "conjugate",
                      "type": "tuple"
                    }
                  ],
                  "name": "balances",
                  "type": "tuple"
                },
                {
                  "components": [
                    {
                      "components": [
                        {
                          "name": "amount",
                          "type": "int256"
                        },
                        {
                          "components": [
                            {
                              "name": "ct",
                              "type": "address"
                            },
                            {
                              "name": "id",
                              "type": "uint256"
                            }
                          ],
                          "name": "currency",
                          "type": "tuple"
                        }
                      ],
                      "name": "single",
                      "type": "tuple"
                    },
                    {
                      "components": [
                        {
                          "name": "originId",
                          "type": "uint256"
                        },
                        {
                          "components": [
                            {
                              "name": "amount",
                              "type": "int256"
                            },
                            {
                              "components": [
                                {
                                  "name": "ct",
                                  "type": "address"
                                },
                                {
                                  "name": "id",
                                  "type": "uint256"
                                }
                              ],
                              "name": "currency",
                              "type": "tuple"
                            }
                          ],
                          "name": "figure",
                          "type": "tuple"
                        }
                      ],
                      "name": "total",
                      "type": "tuple[]"
                    }
                  ],
                  "name": "fees",
                  "type": "tuple"
                }
              ],
              "name": "seller",
              "type": "tuple"
            },
            {
              "components": [
                {
                  "components": [
                    {
                      "name": "single",
                      "type": "int256"
                    },
                    {
                      "name": "total",
                      "type": "int256"
                    }
                  ],
                  "name": "intended",
                  "type": "tuple"
                },
                {
                  "components": [
                    {
                      "name": "single",
                      "type": "int256"
                    },
                    {
                      "name": "total",
                      "type": "int256"
                    }
                  ],
                  "name": "conjugate",
                  "type": "tuple"
                }
              ],
              "name": "transfers",
              "type": "tuple"
            },
            {
              "components": [
                {
                  "name": "hash",
                  "type": "bytes32"
                },
                {
                  "components": [
                    {
                      "name": "r",
                      "type": "bytes32"
                    },
                    {
                      "name": "s",
                      "type": "bytes32"
                    },
                    {
                      "name": "v",
                      "type": "uint8"
                    }
                  ],
                  "name": "signature",
                  "type": "tuple"
                }
              ],
              "name": "seal",
              "type": "tuple"
            },
            {
              "name": "blockNumber",
              "type": "uint256"
            },
            {
              "name": "operatorId",
              "type": "uint256"
            }
          ],
          "name": "trade",
          "type": "tuple"
        }
      ],
      "name": "challengeByTrade",
      "outputs": [],
      "payable": false,
      "stateMutability": "nonpayable",
      "type": "function"
    },
    {
      "constant": false,
      "inputs": [
        {
          "name": "wallet",
          "type": "address"
        },
        {
          "components": [
            {
              "name": "nonce",
              "type": "uint256"
            },
            {
              "name": "amount",
              "type": "int256"
            },
            {
              "components": [
                {
                  "name": "ct",
                  "type": "address"
                },
                {
                  "name": "id",
                  "type": "uint256"
                }
              ],
              "name": "currency",
              "type": "tuple"
            },
            {
              "components": [
                {
                  "name": "nonce",
                  "type": "uint256"
                },
                {
                  "name": "wallet",
                  "type": "address"
                },
                {
                  "components": [
                    {
                      "name": "current",
                      "type": "int256"
                    },
                    {
                      "name": "previous",
                      "type": "int256"
                    }
                  ],
                  "name": "balances",
                  "type": "tuple"
                },
                {
                  "components": [
                    {
                      "components": [
                        {
                          "name": "amount",
                          "type": "int256"
                        },
                        {
                          "components": [
                            {
                              "name": "ct",
                              "type": "address"
                            },
                            {
                              "name": "id",
                              "type": "uint256"
                            }
                          ],
                          "name": "currency",
                          "type": "tuple"
                        }
                      ],
                      "name": "single",
                      "type": "tuple"
                    },
                    {
                      "components": [
                        {
                          "name": "originId",
                          "type": "uint256"
                        },
                        {
                          "components": [
                            {
                              "name": "amount",
                              "type": "int256"
                            },
                            {
                              "components": [
                                {
                                  "name": "ct",
                                  "type": "address"
                                },
                                {
                                  "name": "id",
                                  "type": "uint256"
                                }
                              ],
                              "name": "currency",
                              "type": "tuple"
                            }
                          ],
                          "name": "figure",
                          "type": "tuple"
                        }
                      ],
                      "name": "total",
                      "type": "tuple[]"
                    }
                  ],
                  "name": "fees",
                  "type": "tuple"
                }
              ],
              "name": "sender",
              "type": "tuple"
            },
            {
              "components": [
                {
                  "name": "nonce",
                  "type": "uint256"
                },
                {
                  "name": "wallet",
                  "type": "address"
                },
                {
                  "components": [
                    {
                      "name": "current",
                      "type": "int256"
                    },
                    {
                      "name": "previous",
                      "type": "int256"
                    }
                  ],
                  "name": "balances",
                  "type": "tuple"
                },
                {
                  "components": [
                    {
                      "components": [
                        {
                          "name": "originId",
                          "type": "uint256"
                        },
                        {
                          "components": [
                            {
                              "name": "amount",
                              "type": "int256"
                            },
                            {
                              "components": [
                                {
                                  "name": "ct",
                                  "type": "address"
                                },
                                {
                                  "name": "id",
                                  "type": "uint256"
                                }
                              ],
                              "name": "currency",
                              "type": "tuple"
                            }
                          ],
                          "name": "figure",
                          "type": "tuple"
                        }
                      ],
                      "name": "total",
                      "type": "tuple[]"
                    }
                  ],
                  "name": "fees",
                  "type": "tuple"
                }
              ],
              "name": "recipient",
              "type": "tuple"
            },
            {
              "components": [
                {
                  "name": "single",
                  "type": "int256"
                },
                {
                  "name": "total",
                  "type": "int256"
                }
              ],
              "name": "transfers",
              "type": "tuple"
            },
            {
              "components": [
                {
                  "components": [
                    {
                      "name": "hash",
                      "type": "bytes32"
                    },
                    {
                      "components": [
                        {
                          "name": "r",
                          "type": "bytes32"
                        },
                        {
                          "name": "s",
                          "type": "bytes32"
                        },
                        {
                          "name": "v",
                          "type": "uint8"
                        }
                      ],
                      "name": "signature",
                      "type": "tuple"
                    }
                  ],
                  "name": "wallet",
                  "type": "tuple"
                },
                {
                  "components": [
                    {
                      "name": "hash",
                      "type": "bytes32"
                    },
                    {
                      "components": [
                        {
                          "name": "r",
                          "type": "bytes32"
                        },
                        {
                          "name": "s",
                          "type": "bytes32"
                        },
                        {
                          "name": "v",
                          "type": "uint8"
                        }
                      ],
                      "name": "signature",
                      "type": "tuple"
                    }
                  ],
                  "name": "operator",
                  "type": "tuple"
                }
              ],
              "name": "seals",
              "type": "tuple"
            },
            {
              "name": "blockNumber",
              "type": "uint256"
            },
            {
              "name": "operatorId",
              "type": "uint256"
            }
          ],
          "name": "payment",
          "type": "tuple"
        }
      ],
      "name": "challengeByPayment",
      "outputs": [],
      "payable": false,
      "stateMutability": "nonpayable",
      "type": "function"
    },
    {
      "constant": true,
      "inputs": [],
      "name": "candidateHashesCount",
      "outputs": [
        {
          "name": "",
          "type": "uint256"
        }
      ],
      "payable": false,
      "stateMutability": "view",
      "type": "function"
    },
    {
      "constant": false,
      "inputs": [
        {
          "name": "wallet",
          "type": "address"
        }
      ],
      "name": "lockWallet",
      "outputs": [],
      "payable": false,
      "stateMutability": "nonpayable",
      "type": "function"
    },
    {
      "constant": true,
      "inputs": [
        {
          "name": "wallet",
          "type": "address"
        }
      ],
      "name": "isLockedWallet",
      "outputs": [
        {
          "name": "",
          "type": "bool"
        }
      ],
      "payable": false,
      "stateMutability": "view",
      "type": "function"
    },
    {
      "constant": false,
      "inputs": [
        {
          "name": "wallet",
          "type": "address"
        },
        {
          "name": "currencyCt",
          "type": "address"
        },
        {
          "name": "currencyId",
          "type": "uint256"
        },
        {
          "name": "candidateHash",
          "type": "bytes32"
        },
        {
          "name": "candidateType",
          "type": "uint8"
        },
        {
          "name": "challenger",
          "type": "address"
        }
      ],
      "name": "addDisqualification",
      "outputs": [],
      "payable": false,
      "stateMutability": "nonpayable",
      "type": "function"
    }
  ],
  "bytecode": "0x60806040523480156200001157600080fd5b5060405160208062003f118339810180604052620000339190810190620000b6565b8080600160a060020a03811615156200004b57600080fd5b600160a060020a0381163014156200006257600080fd5b506000805461010060a860020a031916610100600160a060020a039390931692830217905560018054600160a060020a031916909117905550620000eb565b6000620000af8251620000df565b9392505050565b600060208284031215620000c957600080fd5b6000620000d78484620000a1565b949350505050565b600160a060020a031690565b613e1680620000fb6000396000f30060806040526004361061024d5763ffffffff60e060020a600035041663013cf08b81146102525780630712abb014610293578063077f9e0c146102c05780630a9f46ad146102ed5780630fc842a11461030f5780631110f49a1461033c578063169879291461035e578063191390921461037e5780631a9caa02146103a05780632738a112146103b5578063282c7b92146103ca5780632831207f146103df5780632f013a00146103ff5780633bebdcb51461041457806342cb4587146104345780634476d23b1461045457806349c56d49146104695780635252358d14610489578063570ca735146104a95780635ee35779146104be578063627f09c3146104d357806363376c4a146104f357806366a6f36d146105135780636c70bee91461053357806370327ea11461054857806376cfd4f11461055d57806379e8ab301461057d57806385ea5e021461059d57806390363c6f146105bd57806393dfe625146105dd578063962147351461060a578063a4fc78591461062a578063ac71d9881461064a578063ada072fb1461066a578063affed0e01461067f578063b13fd37114610694578063b3ab15fb146106b4578063ba42ff31146106d4578063c1c68165146106f4578063c41570bd14610714578063cd808d9414610734578063cdbf941914610754578063d5f3948814610774578063dd27020014610789578063e74c81a2146107bc578063e769f40d146107dc578063ed8a829d146107fc578063f26a861e1461081c578063f7b8761714610831578063fb1a825e14610851578063fca5192b14610871575b600080fd5b34801561025e57600080fd5b5061027261026d366004613449565b610891565b60405161028a9c9b9a99989796959493929190613bc5565b60405180910390f35b34801561029f57600080fd5b506102b36102ae3660046130b9565b610912565b60405161028a9190613cf3565b3480156102cc57600080fd5b506102e06102db366004613093565b610980565b60405161028a9190613c78565b3480156102f957600080fd5b5061030261099d565b60405161028a9190613c86565b34801561031b57600080fd5b5061032f61032a3660046130b9565b6109a4565b60405161028a9190613a64565b34801561034857600080fd5b5061035c61035736600461342a565b610a1d565b005b34801561036a57600080fd5b506103026103793660046130b9565b610b1c565b34801561038a57600080fd5b50610393610b86565b60405161028a9190613c94565b3480156103ac57600080fd5b50610302610b95565b3480156103c157600080fd5b5061035c610b9b565b3480156103d657600080fd5b50610302610c01565b3480156103eb57600080fd5b5061035c6103fa3660046133bb565b610c07565b34801561040b57600080fd5b506102e0610c98565b34801561042057600080fd5b506102e061042f3660046130b9565b610ca1565b34801561044057600080fd5b5061030261044f3660046130b9565b610d38565b34801561046057600080fd5b5061032f610da2565b34801561047557600080fd5b5061035c6104843660046132d8565b610db6565b34801561049557600080fd5b506102e06104a43660046130b9565b610eb8565b3480156104b557600080fd5b5061032f610f2b565b3480156104ca57600080fd5b50610393610f3a565b3480156104df57600080fd5b5061035c6104ee3660046133bb565b610f49565b3480156104ff57600080fd5b5061030261050e366004613449565b610ff0565b34801561051f57600080fd5b5061030261052e3660046130b9565b61100f565b34801561053f57600080fd5b50610393611032565b34801561055457600080fd5b5061035c611041565b34801561056957600080fd5b5061032f610578366004613449565b6110a4565b34801561058957600080fd5b5061035c61059836600461338b565b6110cc565b3480156105a957600080fd5b5061035c6105b836600461318d565b6111a4565b3480156105c957600080fd5b506103026105d836600461331f565b61123e565b3480156105e957600080fd5b506105fd6105f83660046130b9565b61126e565b60405161028a9190613ce5565b34801561061657600080fd5b5061035c610625366004613093565b6112dc565b34801561063657600080fd5b5061035c6106453660046131ee565b61139a565b34801561065657600080fd5b506103026106653660046130b9565b61141e565b34801561067657600080fd5b50610302611488565b34801561068b57600080fd5b5061030261148e565b3480156106a057600080fd5b5061035c6106af366004613106565b611494565b3480156106c057600080fd5b5061035c6106cf366004613093565b61170f565b3480156106e057600080fd5b506103026106ef3660046130b9565b6117b9565b34801561070057600080fd5b5061035c61070f3660046133d9565b6117dc565b34801561072057600080fd5b5061032f61072f366004613449565b611832565b34801561074057600080fd5b5061035c61074f366004613093565b611840565b34801561076057600080fd5b5061030261076f3660046130b9565b611986565b34801561078057600080fd5b5061032f6119f0565b34801561079557600080fd5b506107a96107a4366004613449565b611a04565b60405161028a9796959493929190613b5d565b3480156107c857600080fd5b506102e06107d7366004613093565b611a62565b3480156107e857600080fd5b506103026107f7366004613093565b611a77565b34801561080857600080fd5b5061035c610817366004613287565b611a89565b34801561082857600080fd5b50610302611b55565b34801561083d57600080fd5b5061035c61084c366004613243565b611b5b565b34801561085d57600080fd5b5061030261086c3660046130b9565b611bc1565b34801561087d57600080fd5b5061030261088c3660046130b9565b611c2b565b600b80548290811061089f57fe5b60009182526020909120600a90910201805460018201546002830154600384015460048501546005860154600687015460078801546008890154600990990154600160a060020a039889169a5096989597949660ff8086169761010096879004909716969495939492938282169204168c565b600160a060020a038084166000908152600c60209081526040808320938616835292815282822084835290529081205480151561094e57600080fd5b600b8054600019830190811061096057fe5b60009182526020909120600a909102016004015460ff1695945050505050565b600160a060020a03166000908152600a6020526040902054421090565b600b545b90565b600160a060020a038084166000908152600f6020908152604080832093861683529281528282208483529052908120548015156109e057600080fd5b600e805460001983019081106109f257fe5b60009182526020909120600690910201600501546101009004600160a060020a031695945050505050565b600260009054906101000a9004600160a060020a0316600160a060020a031663f71e860f6040518163ffffffff1660e060020a028152600401602060405180830381600087803b158015610a7057600080fd5b505af1158015610a84573d6000803e3d6000fd5b505050506040513d601f19601f82011682018060405250610aa8919081019061334f565b1515610ab357600080fd5b6004805460405160e060020a638eed8359028152600160a060020a0390911691638eed835991610ae7918591339101613d01565b600060405180830381600087803b158015610b0157600080fd5b505af1158015610b15573d6000803e3d6000fd5b5050505050565b600160a060020a038084166000908152600c602090815260408083209386168352928152828220848352905290812054801515610b5857600080fd5b600b80546000198301908110610b6a57fe5b90600052602060002090600a0201600701549150509392505050565b600354600160a060020a031681565b60065490565b33610ba4610da2565b600160a060020a031614610bb757600080fd5b60005460ff1615610bc757600080fd5b7f787a5d936e74f4b564b9153575886059829c78cd9927b1be5e0d976b317ef73633604051610bf69190613a64565b60405180910390a133ff5b600e5490565b6000610c11611c95565b1515610c1c57600080fd5b81600160a060020a0381161515610c3257600080fd5b60048054600160a060020a03858116600160a060020a03198316179283905560405191811694507f024f2a980aa7a47eb4d67ab19c6ee9ebabb88554ffe760c39dcb2c7f8f42859892610c8b9286929190911690613cca565b60405180910390a1505050565b60005460ff1681565b600160a060020a038084166000908152600c602090815260408083209386168352928152828220848352905290812054801580610d015750600b80546000198301908110610ceb57fe5b90600052602060002090600a0201600101546000145b80610d2f5750600b80546000198301908110610d1957fe5b90600052602060002090600a0201600301544210155b95945050505050565b600160a060020a038084166000908152600c602090815260408083209386168352928152828220848352905290812054801515610d7457600080fd5b600b80546000198301908110610d8657fe5b90600052602060002090600a0201600601549150509392505050565b6000546101009004600160a060020a031690565b600260009054906101000a9004600160a060020a0316600160a060020a031663f71e860f6040518163ffffffff1660e060020a028152600401602060405180830381600087803b158015610e0957600080fd5b505af1158015610e1d573d6000803e3d6000fd5b505050506040513d601f19601f82011682018060405250610e41919081019061334f565b1515610e4c57600080fd5b6004805460405160e060020a6392272607028152600160a060020a0390911691639227260791610e829186918691339101613b3d565b600060405180830381600087803b158015610e9c57600080fd5b505af1158015610eb0573d6000803e3d6000fd5b505050505050565b600160a060020a038084166000908152600c602090815260408083209386168352928152828220848352905290812054801515610ef457600080fd5b600b80546000198301908110610f0657fe5b60009182526020909120600a9091020160090154610100900460ff1695945050505050565b600154600160a060020a031681565b600454600160a060020a031681565b6000610f53611c95565b1515610f5e57600080fd5b81600160a060020a0381161515610f7457600080fd5b6002548390600160a060020a039081169082168114610b155760028054600160a060020a03878116600160a060020a0319831617909255604051911694507f634f61bf00e14adedce330c80c2823e16e184f189ebe853e1ddecc4a268477ff90610fe19086908890613cca565b60405180910390a15050505050565b6010805482908110610ffe57fe5b600091825260209091200154905081565b600c60209081526000938452604080852082529284528284209052825290205481565b600254600160a060020a031681565b3361104a610da2565b600160a060020a03161461105d57600080fd5b6000805460ff191660011790556040517fd5a2a04a775c741c2ca0dc46ea7ce4835190e1aaf1ca018def0e82568ec336169061109a903390613a64565b60405180910390a1565b60068054829081106110b257fe5b600091825260209091200154600160a060020a0316905081565b60006110d6611c95565b15156110e157600080fd5b82600160a060020a03811615156110f757600080fd5b6003548490600160a060020a039081169082168114610eb05760035460a060020a900460ff161561112757600080fd5b60038054600160a060020a03198116600160a060020a038981169190911760a060020a60ff02191660a060020a8915150217909255604051911694507fb1bc49ee19b815fea264a1ea289af017862b03971cd6d204139c9c1e11840ad09061119490869089908990613ca2565b60405180910390a1505050505050565b600454600090600160a060020a031633146111be57600080fd5b50600160a060020a038085166000908152600c602090815260408083209387168352928152828220858352905220548015156111f957600080fd5b81600b6001830381548110151561120c57fe5b600091825260209091206004600a9092020101805460ff19166001838181111561123257fe5b02179055505050505050565b600d6020528160005260406000208181548110151561125957fe5b90600052602060002001600091509150505481565b600160a060020a038084166000908152600f6020908152604080832093861683529281528282208483529052908120548015156112aa57600080fd5b600e805460001983019081106112bc57fe5b600091825260209091206006909102016005015460ff1695945050505050565b60006112e6611c95565b15156112f157600080fd5b81600160a060020a038116151561130757600080fd5b600160a060020a03811630141561131d57600080fd5b600054600160a060020a0384811661010090920416146113955760008054600160a060020a0385811661010090810261010060a860020a0319841617909355604051929091041692507f977e5fa58e458501775e0008d275006294c5249e3c08d1d0e3a9f3acad14f6e490610c8b9084908690613a72565b505050565b600454600090600160a060020a031633146113b457600080fd5b50600160a060020a038085166000908152600c602090815260408083209387168352928152828220858352905220548015156113ef57600080fd5b81600b6001830381548110151561140257fe5b90600052602060002090600a0201600301819055505050505050565b600160a060020a038084166000908152600f60209081526040808320938616835292815282822084835290529081205480151561145a57600080fd5b600e8054600019830190811061146c57fe5b9060005260206000209060060201600401549150509392505050565b60105490565b60055481565b600454600090600160a060020a031633146114ae57600080fd5b50600160a060020a038087166000908152600c602090815260408083209389168352928152828220878352905220548015156114e957600080fd5b600e8054906114fb9060018301612660565b50600e8054889190600019810190811061151157fe5b600091825260209091206006909102018054600160a060020a031916600160a060020a0392909216919091179055600b8054600019830190811061155157fe5b600091825260209091206001600a909202010154600e8054600019810190811061157757fe5b6000918252602090912060016006909202010155600e805487919060001981019081106115a057fe5b600091825260209091206006909102016002018054600160a060020a031916600160a060020a0392909216919091179055600e805486919060001981019081106115e657fe5b6000918252602090912060036006909202010155600e8054859190600019810190811061160f57fe5b6000918252602090912060046006909202010155600e8054849190600019810190811061163857fe5b60009182526020909120600560069092020101805460ff1916600183600381111561165f57fe5b0217905550600e8054839190600019810190811061167957fe5b60009182526020808320600692909202909101600501805461010060a860020a031916610100600160a060020a0395861602179055600e549983168252600f8152604080832099909316825297885281812096815295909652505050918120929092556010805460018101825592527f1b6847dc741a1b0cd08d278845f9d819d87b734759afb55fe2de5cb82a9ae67290910155565b6000611719611cab565b151561172457600080fd5b81600160a060020a038116151561173a57600080fd5b600160a060020a03811630141561175057600080fd5b600154600160a060020a038481169116146113955760018054600160a060020a03858116600160a060020a0319831617909255604051911692507f9f611b789425d0d5b90b920f1b2852907dd865c80074a30b1629aaa041d1812c90610c8b9084908690613a72565b600f60209081526000938452604080852082529284528284209052825290205481565b6117e533610980565b156117ef57600080fd5b6117fd338484846001611cbc565b7f3ea6a5f0533a257a4d3b7d514288450c5601dd58e5017bc15c7e32d6cf1ae03933848484604051610c8b9493929190613ad9565b60088054829081106110b257fe5b600454600160a060020a0316331461185757600080fd5b600160a060020a0381166000908152600a602052604090205415156118da576008805460018082019092557ff3f7a9fe364faab93b216da50a3214154f22a0a2b415b23a84c8169e8b636ee3018054600160a060020a031916600160a060020a0384169081179091556000908152600960205260409020805460ff191690911790555b6002546040805160e160020a6314f51fd5028152905161196a92600160a060020a0316916329ea3faa9160048083019260209291908290030181600087803b15801561192557600080fd5b505af1158015611939573d6000803e3d6000fd5b505050506040513d601f19601f8201168201806040525061195d919081019061336d565b429063ffffffff61217016565b600160a060020a039091166000908152600a6020526040902055565b600160a060020a038084166000908152600c6020908152604080832093861683529281528282208483529052908120548015156119c257600080fd5b600b805460001983019081106119d457fe5b90600052602060002090600a0201600101549150509392505050565b6000546101009004600160a060020a031681565b600e805482908110611a1257fe5b6000918252602090912060069091020180546001820154600283015460038401546004850154600590950154600160a060020a039485169650929491841693909260ff8116916101009091041687565b60096020526000908152604090205460ff1681565b600a6020526000908152604090205481565b600260009054906101000a9004600160a060020a0316600160a060020a031663f71e860f6040518163ffffffff1660e060020a028152600401602060405180830381600087803b158015611adc57600080fd5b505af1158015611af0573d6000803e3d6000fd5b505050506040513d601f19601f82011682018060405250611b14919081019061334f565b1515611b1f57600080fd5b6004805460405160e260020a631a49a0cb028152600160a060020a0390911691636926832c91610e829186918691339101613b0e565b60085490565b611b63611cab565b1515611b6e57600080fd5b611b7c848484846000611cbc565b7f5c2e5356cead72ecdf07d7e8b0d17de67df6aac7550613234585f8e5cf7c40763385858585604051611bb3959493929190613a8d565b60405180910390a150505050565b600160a060020a038084166000908152600c602090815260408083209386168352928152828220848352905290812054801515611bfd57600080fd5b600b80546000198301908110611c0f57fe5b90600052602060002090600a0201600301549150509392505050565b600160a060020a038084166000908152600c602090815260408083209386168352928152828220848352905290812054801515611c6757600080fd5b600b80546000198301908110611c7957fe5b90600052602060002090600a0201600201549150509392505050565b6000546101009004600160a060020a0316331490565b600154600160a060020a0316331490565b600080600260009054906101000a9004600160a060020a0316600160a060020a031663b6bf41766040518163ffffffff1660e060020a028152600401602060405180830381600087803b158015611d1257600080fd5b505af1158015611d26573d6000803e3d6000fd5b505050506040513d601f19601f82011682018060405250611d4a919081019061336d565b431015611d5657600080fd5b60405160e060020a636b84d93102815273__SafeMathIntLib________________________90636b84d93190611d90908990600401613c86565b60206040518083038186803b158015611da857600080fd5b505af4158015611dbc573d6000803e3d6000fd5b505050506040513d601f19601f82011682018060405250611de0919081019061334f565b1515611deb57600080fd5b611df6878686610ca1565b1515611e0157600080fd5b611e0c878686612186565b909250905085821215611e1e57600080fd5b600b805490611e30906001830161268c565b50600b80548891906000198101908110611e4657fe5b60009182526020909120600a909102018054600160a060020a031916600160a060020a03929092169190911790556005805460010190819055600b80546000198101908110611e9157fe5b600091825260209091206001600a909202010155600b80548291906000198101908110611eba57fe5b90600052602060002090600a020160020181905550611f25600260009054906101000a9004600160a060020a0316600160a060020a031663fbdfd8e76040518163ffffffff1660e060020a028152600401602060405180830381600087803b15801561192557600080fd5b600b80546000198101908110611f3757fe5b6000918252602082206003600a909202010191909155600b80546000198101908110611f5f57fe5b600091825260209091206004600a9092020101805460ff191660018381811115611f8557fe5b0217905550600b80548691906000198101908110611f9f57fe5b90600052602060002090600a020160040160016101000a815481600160a060020a030219169083600160a060020a0316021790555083600b6001600b8054905003815481101515611fec57fe5b600091825260209091206005600a909202010155600b8054879190600019810190811061201557fe5b600091825260209091206006600a909202010155612039828763ffffffff6125ea16565b600b8054600019810190811061204b57fe5b600091825260209091206007600a909202010155600b8054849190600019810190811061207457fe5b600091825260208083206009600a909302019190910180549315156101000261ff001990941693909317909255600b54600160a060020a03808b16808452600c85526040808520928b1685529185528184208985528552818420839055808452600d8552818420805460018101825590855285852001929092559082526007909252205460ff16151561216757600160a060020a0387166000818152600760205260408120805460ff191660019081179091556006805491820181559091527ff652222313e28459528d920b65115c16c04f3efc82aaedc97be59f3f377c0d3f018054600160a060020a03191690911790555b50505050505050565b60008282018381101561217f57fe5b9392505050565b6003546040805160e460020a630ded1131028152905160009283928392839283928392600160a060020a039092169163030fc209918c91849163ded1131091600480830192602092919082900301818a87803b1580156121e557600080fd5b505af11580156121f9573d6000803e3d6000fd5b505050506040513d601f19601f8201168201806040525061221d919081019061336d565b8b8b6040518563ffffffff1660e060020a0281526004016122419493929190613ad9565b602060405180830381600087803b15801561225b57600080fd5b505af115801561226f573d6000803e3d6000fd5b505050506040513d601f19601f82011682018060405250612293919081019061336d565b6000106122a2576000806123a2565b6003546040805160e460020a630ded11310281529051600160a060020a0390921691637aaa5e85918c91849163ded113109160048083019260209291908290030181600087803b1580156122f557600080fd5b505af1158015612309573d6000803e3d6000fd5b505050506040513d601f19601f8201168201806040525061232d919081019061336d565b8b8b6040518563ffffffff1660e060020a0281526004016123519493929190613ad9565b6040805180830381600087803b15801561236a57600080fd5b505af115801561237e573d6000803e3d6000fd5b505050506040513d601f19601f820116820180604052506123a291908101906133fa565b6003546040805160e260020a631194bb1d0281529051939750919550600160a060020a03169163030fc209918c918491634652ec749160048083019260209291908290030181600087803b1580156123f957600080fd5b505af115801561240d573d6000803e3d6000fd5b505050506040513d601f19601f82011682018060405250612431919081019061336d565b8b8b6040518563ffffffff1660e060020a0281526004016124559493929190613ad9565b602060405180830381600087803b15801561246f57600080fd5b505af1158015612483573d6000803e3d6000fd5b505050506040513d601f19601f820116820180604052506124a7919081019061336d565b6000106124b6576000806125b6565b6003546040805160e260020a631194bb1d0281529051600160a060020a0390921691637aaa5e85918c918491634652ec749160048083019260209291908290030181600087803b15801561250957600080fd5b505af115801561251d573d6000803e3d6000fd5b505050506040513d601f19601f82011682018060405250612541919081019061336d565b8b8b6040518563ffffffff1660e060020a0281526004016125659493929190613ad9565b6040805180830381600087803b15801561257e57600080fd5b505af1158015612592573d6000803e3d6000fd5b505050506040513d601f19601f820116820180604052506125b691908101906133fa565b90925090506125cb848363ffffffff61262b16565b95508083116125da57806125dc565b825b945050505050935093915050565b60008082121580156125fe57508282840313155b806126155750600082128015612615575082828403135b151561262057600080fd5b508082035b92915050565b60008282018183128015906126405750838112155b80612655575060008312801561265557508381125b151561217f57600080fd5b8154818355818111156113955760060281600602836000526020600020918201910161139591906126b8565b81548183558181111561139557600a0281600a0283600052602060002091820191016113959190612715565b6109a191905b80821115612711578054600160a060020a03199081168255600060018301819055600283018054909216909155600382018190556004820155600581018054600160a860020a03191690556006016126be565b5090565b6109a191905b80821115612711578054600160a060020a03191681556000600182018190556002820181905560038201819055600482018054600160a860020a0319169055600582018190556006820181905560078201819055600882015560098101805461ffff19169055600a0161271b565b600061217f8235613d6e565b6000601f820183136127a657600080fd5b81356127b96127b482613d44565b613d1e565b915081818352602084019350602081019050838560808402820111156127de57600080fd5b60005b8381101561280c57816127f48882612aab565b845250602090920191608091909101906001016127e1565b5050505092915050565b600061217f8235613d7a565b600061217f8251613d7a565b600061217f82356109a1565b600061217f82516109a1565b600061217f8235613d9d565b600061217f8235613da8565b600061217f8235613db7565b60006040828403121561287c57600080fd5b6128866040613d1e565b905060006128948484612789565b82525060206128a58484830161282e565b60208301525092915050565b6000604082840312156128c357600080fd5b6128cd6040613d1e565b90506000612894848461282e565b6000606082840312156128ed57600080fd5b6128f76040613d1e565b90506000612905848461282e565b82525060206128a58484830161286a565b60006080828403121561292857600080fd5b6129326040613d1e565b90506000612940848461286a565b82525060406128a58484830161286a565b60006080828403121561296357600080fd5b61296d6040613d1e565b9050600061297b84846128b1565b82525060406128a5848483016128b1565b6000610120828403121561299f57600080fd5b6129a960a0613d1e565b905060006129b7848461285e565b82525060206129c88484830161282e565b60208301525060406129dc84828501612916565b60408301525060c06129f08482850161282e565b60608301525060e0612a04848285016128b1565b60808301525092915050565b60006102a08284031215612a2357600080fd5b612a2d60c0613d1e565b90506000612a3b848461282e565b8252506020612a4c84848301612789565b6020830152506040612a608482850161298c565b604083015250610160612a758482850161304b565b606083015250610260612a8a8482850161282e565b608083015250610280612a9f8482850161282e565b60a08301525092915050565b600060808284031215612abd57600080fd5b612ac76040613d1e565b90506000612ad5848461282e565b82525060206128a5848483016128db565b600060a08284031215612af857600080fd5b612b026080613d1e565b90506000612b10848461282e565b8252506020612b2184848301612789565b6020830152506040612b35848285016128b1565b60408301525060808201356001604060020a03811115612b5457600080fd5b612b6084828501612dd0565b60608301525092915050565b600060a08284031215612b7e57600080fd5b612b886080613d1e565b90506000612b96848461282e565b8252506020612ba784848301612789565b6020830152506040612bbb848285016128b1565b60408301525060808201356001604060020a03811115612bda57600080fd5b612b6084828501612d7e565b60006102408284031215612bf957600080fd5b612c04610120613d1e565b90506000612c12848461282e565b8252506020612c238484830161282e565b6020830152506040612c378482850161286a565b60408301525060808201356001604060020a03811115612c5657600080fd5b612c6284828501612b6c565b60608301525060a08201356001604060020a03811115612c8157600080fd5b612c8d84828501612ae6565b60808301525060c0612ca1848285016128b1565b60a083015250610100612cb68482850161304b565b60c083015250610200612ccb8482850161282e565b60e083015250610220612ce08482850161282e565b6101008301525092915050565b600060808284031215612cff57600080fd5b612d096040613d1e565b90506000612d17848461282e565b82525060206128a584848301600060608284031215612d3557600080fd5b612d3f6060613d1e565b90506000612d4d848461282e565b8252506020612d5e8484830161282e565b6020830152506040612d7284828501613087565b60408301525092915050565b600060808284031215612d9057600080fd5b612d9a6040613d1e565b90506000612da884846128db565b82525060608201356001604060020a03811115612dc457600080fd5b6128a584828501612795565b600060208284031215612de257600080fd5b612dec6020613d1e565b905081356001604060020a03811115612e0457600080fd5b612e1084828501612795565b82525092915050565b600060a08284031215612e2b57600080fd5b612e356060613d1e565b90506000612e43848461282e565b8252506020612e54848483016128b1565b6020830152506060612d72848285016128b1565b60006101c08284031215612e7b57600080fd5b612e8560e0613d1e565b90506000612e93848461282e565b8252506020612ea484848301612789565b6020830152506040612eb88482850161282e565b6040830152506060612ecc8482850161285e565b6060830152506080612ee084828501612e19565b608083015250610120612ef584828501612951565b60a0830152506101a08201356001604060020a03811115612f1557600080fd5b612f2184828501612d7e565b60c08301525092915050565b60006102608284031215612f4057600080fd5b612f4b610140613d1e565b90506000612f59848461282e565b8252506020612f6a8484830161282e565b6020830152506040612f7e84828501612916565b60408301525060c0612f928482850161282e565b60608301525060e08201356001604060020a03811115612fb157600080fd5b612fbd84828501612e68565b6080830152506101008201356001604060020a03811115612fdd57600080fd5b612fe984828501612e68565b60a083015250610120612ffe84828501612951565b60c0830152506101a061301384828501612ced565b60e0830152506102206130288482850161282e565b6101008301525061024061303e8482850161282e565b6101208301525092915050565b6000610100828403121561305e57600080fd5b6130686040613d1e565b905060006130768484612ced565b82525060806128a584848301612ced565b600061217f8235613d97565b6000602082840312156130a557600080fd5b60006130b18484612789565b949350505050565b6000806000606084860312156130ce57600080fd5b60006130da8686612789565b93505060206130eb86828701612789565b92505060406130fc8682870161282e565b9150509250925092565b60008060008060008060c0878903121561311f57600080fd5b600061312b8989612789565b965050602061313c89828a01612789565b955050604061314d89828a0161282e565b945050606061315e89828a0161282e565b935050608061316f89828a01612852565b92505060a061318089828a01612789565b9150509295509295509295565b600080600080608085870312156131a357600080fd5b60006131af8787612789565b94505060206131c087828801612789565b93505060406131d18782880161282e565b92505060606131e28782880161285e565b91505092959194509250565b6000806000806080858703121561320457600080fd5b60006132108787612789565b945050602061322187828801612789565b93505060406132328782880161282e565b92505060606131e28782880161282e565b6000806000806080858703121561325957600080fd5b60006132658787612789565b94505060206132768782880161282e565b935050604061323287828801612789565b6000806040838503121561329a57600080fd5b60006132a68585612789565b92505060208301356001604060020a038111156132c257600080fd5b6132ce85828601612be6565b9150509250929050565b600080604083850312156132eb57600080fd5b60006132f78585612789565b92505060208301356001604060020a0381111561331357600080fd5b6132ce85828601612f2d565b6000806040838503121561333257600080fd5b600061333e8585612789565b92505060206132ce8582860161282e565b60006020828403121561336157600080fd5b60006130b18484612822565b60006020828403121561337f57600080fd5b60006130b1848461283a565b6000806040838503121561339e57600080fd5b60006133aa8585612846565b92505060206132ce85828601612816565b6000602082840312156133cd57600080fd5b60006130b18484612846565b6000806000606084860312156133ee57600080fd5b60006130da868661282e565b6000806040838503121561340d57600080fd5b6000613419858561283a565b92505060206132ce8582860161283a565b60006102a0828403121561343d57600080fd5b60006130b18484612a10565b60006020828403121561345b57600080fd5b60006130b1848461282e565b61347081613d6e565b82525050565b600061348182613d6a565b80845260208401935061349383613d64565b60005b828110156134c3576134a9868351613673565b6134b282613d64565b608096909601959150600101613496565b5093949350505050565b61347081613d7a565b613470816109a1565b61347081613d9d565b61347081613dc6565b61347081613dd1565b8051604083019061350b8482613467565b50602082015161351e60208501826134d6565b50505050565b8051604083019061350b84826134d6565b8051606083019061354684826134d6565b50602082015161351e60208501826134fa565b8051608083019061356a84826134fa565b50602082015161351e60408501826134fa565b8051608083019061358e8482613524565b50602082015161351e6040850182613524565b80516101208301906135b384826134f1565b5060208201516135c660208501826134d6565b5060408201516135d96040850182613559565b5060608201516135ec60c08501826134d6565b50608082015161351e60e0850182613524565b80516102a083019061361184826134d6565b5060208201516136246020850182613467565b50604082015161363760408501826135a1565b50606082015161364b610160850182613a36565b50608082015161365f6102608501826134d6565b5060a082015161351e6102808501826134d6565b8051608083019061368484826134d6565b50602082015161351e6020850182613535565b805160009060a08401906136ab85826134d6565b5060208301516136be6020860182613467565b5060408301516136d16040860182613524565b5060608301518482036080860152610d2f8282613884565b805160009060a08401906136fd85826134d6565b5060208301516137106020860182613467565b5060408301516137236040860182613524565b5060608301518482036080860152610d2f8282613858565b805160009061024084019061375085826134d6565b50602083015161376360208601826134d6565b50604083015161377660408601826134fa565b506060830151848203608086015261378e82826136e9565b915050608083015184820360a08601526137a88282613697565b91505060a08301516137bd60c0860182613524565b5060c08301516137d1610100860182613a36565b5060e08301516137e56102008601826134d6565b506101008301516137fa6102208601826134d6565b509392505050565b8051608083019061381384826134d6565b50602082015161351e60208501828051606083019061383284826134d6565b50602082015161384560208501826134d6565b50604082015161351e6040850182613a5b565b8051600090608084019061386c8582613535565b5060208301518482036060860152610d2f8282613476565b8051602080845260009190840190610d2f8282613476565b805160a08301906138ad84826134d6565b5060208201516138c06020850182613524565b50604082015161351e6060850182613524565b80516000906101c08401906138e885826134d6565b5060208301516138fb6020860182613467565b50604083015161390e60408601826134d6565b50606083015161392160608601826134f1565b506080830151613934608086018261389c565b5060a083015161394861012086018261357d565b5060c08301518482036101a0860152610d2f8282613858565b805160009061026084019061397685826134d6565b50602083015161398960208601826134d6565b50604083015161399c6040860182613559565b5060608301516139af60c08601826134d6565b50608083015184820360e08601526139c782826138d3565b91505060a08301518482036101008601526139e282826138d3565b91505060c08301516139f861012086018261357d565b5060e0830151613a0c6101a0860182613802565b50610100830151613a216102208601826134d6565b506101208301516137fa6102408601826134d6565b8051610100830190613a488482613802565b50602082015161351e6080850182613802565b61347081613d97565b602081016126258284613467565b60408101613a808285613467565b61217f6020830184613467565b60a08101613a9b8288613467565b613aa86020830187613467565b613ab560408301866134d6565b613ac26060830185613467565b613acf60808301846134d6565b9695505050505050565b60808101613ae78287613467565b613af460208301866134d6565b613b016040830185613467565b610d2f60608301846134d6565b60608101613b1c8286613467565b8181036020830152613b2e818561373b565b90506130b16040830184613467565b60608101613b4b8286613467565b8181036020830152613b2e8185613961565b60e08101613b6b828a613467565b613b7860208301896134d6565b613b856040830188613467565b613b9260608301876134d6565b613b9f60808301866134d6565b613bac60a08301856134e8565b613bb960c0830184613467565b98975050505050505050565b6101808101613bd4828f613467565b613be1602083018e6134d6565b613bee604083018d6134d6565b613bfb606083018c6134d6565b613c08608083018b6134f1565b613c1560a083018a613467565b613c2260c08301896134d6565b613c2f60e08301886134d6565b613c3d6101008301876134d6565b613c4b6101208301866134d6565b613c596101408301856134f1565b613c676101608301846134cd565b9d9c50505050505050505050505050565b6020810161262582846134cd565b6020810161262582846134d6565b6020810161262582846134df565b60608101613cb082866134df565b613cbd60208301856134df565b6130b160408301846134cd565b60408101613cd882856134df565b61217f60208301846134df565b6020810161262582846134e8565b6020810161262582846134f1565b6102c08101613d1082856135ff565b61217f6102a0830184613467565b6040518181016001604060020a0381118282101715613d3c57600080fd5b604052919050565b60006001604060020a03821115613d5a57600080fd5b5060209081020190565b60200190565b5190565b600160a060020a031690565b151590565b60006004821061271157fe5b60006002821061271157fe5b60ff1690565b600061262582613d6e565b60006004821061271157600080fd5b60006002821061271157600080fd5b600061262582613d7f565b600061262582613d8b5600a265627a7a72305820557fe5ff925383bc72830a29852d76897a341756a05b3dfbb0e0b256e2b022a36c6578706572696d656e74616cf50037",
  "source": "/*\n * Hubii Nahmii\n *\n * Compliant with the Hubii Nahmii specification v0.12.\n *\n * Copyright (C) 2017-2018 Hubii AS\n */\n\npragma solidity ^0.4.25;\npragma experimental ABIEncoderV2;\n\nimport {Ownable} from \"./Ownable.sol\";\nimport {Challenge} from \"./Challenge.sol\";\nimport {BalanceTrackable} from \"./BalanceTrackable.sol\";\nimport {SafeMathIntLib} from \"./SafeMathIntLib.sol\";\nimport {SafeMathUintLib} from \"./SafeMathUintLib.sol\";\nimport {NullSettlementDispute} from \"./NullSettlementDispute.sol\";\nimport {NahmiiTypesLib} from \"./NahmiiTypesLib.sol\";\nimport {SettlementTypesLib} from \"./SettlementTypesLib.sol\";\n\n/**\n@title NullSettlementChallenge\n@notice Where null settlements are started and challenged\n*/\ncontract NullSettlementChallenge is Ownable, Challenge, BalanceTrackable {\n    using SafeMathIntLib for int256;\n    using SafeMathUintLib for uint256;\n\n    //\n    // Variables\n    // -----------------------------------------------------------------------------------------------------------------\n    NullSettlementDispute public nullSettlementDispute;\n\n    uint256 public nonce;\n\n    address[] public challengeWallets;\n    mapping(address => bool) challengeByWallets;\n\n    address[] public lockedWallets;\n    mapping(address => bool) public lockedByWallet;\n    mapping(address => uint) public unlockTimeByWallet;\n\n    SettlementTypesLib.Proposal[] public proposals;\n    mapping(address => mapping(address => mapping(uint256 => uint256))) public proposalIndexByWalletCurrency;\n    mapping(address => uint256[]) public proposalIndicesByWallet;\n\n    SettlementTypesLib.Disqualification[] public disqualifications;\n    mapping(address => mapping(address => mapping(uint256 => uint256))) public disqualificationIndexByWalletCurrency;\n\n    bytes32[] public candidateHashes;\n\n    //\n    // Events\n    // -----------------------------------------------------------------------------------------------------------------\n    event SetNullSettlementDisputeEvent(NullSettlementDispute oldNullSettlementDispute,\n        NullSettlementDispute newNullSettlementDispute);\n    event StartChallengeEvent(address wallet, int256 amount, address stageCurrencyCt,\n        uint stageCurrencyId);\n    event StartChallengeByProxyEvent(address proxy, address wallet, int256 amount,\n        address stageCurrencyCt, uint stageCurrencyId);\n\n    //\n    // Constructor\n    // -----------------------------------------------------------------------------------------------------------------\n    constructor(address deployer) Ownable(deployer) public {\n    }\n\n    //\n    // Functions\n    // -----------------------------------------------------------------------------------------------------------------\n    /// @notice Set the settlement dispute contract\n    /// @param newNullSettlementDispute The (address of) NullSettlementDispute contract instance\n    function setNullSettlementDispute(NullSettlementDispute newNullSettlementDispute)\n    public\n    onlyDeployer\n    notNullAddress(newNullSettlementDispute)\n    {\n        NullSettlementDispute oldNullSettlementDispute = nullSettlementDispute;\n        nullSettlementDispute = newNullSettlementDispute;\n        emit SetNullSettlementDisputeEvent(oldNullSettlementDispute, nullSettlementDispute);\n    }\n\n    /// @notice Get the number of challenge wallets, i.e. wallets that have started null settlement challenge\n    /// @return The number of challenge wallets\n    function challengeWalletsCount()\n    public\n    view\n    returns (uint256)\n    {\n        return challengeWallets.length;\n    }\n\n    /// @notice Get the number of locked wallets, i.e. wallets whose null settlement challenge has disqualified\n    /// @return The number of locked wallets\n    function lockedWalletsCount()\n    public\n    view\n    returns (uint256)\n    {\n        return lockedWallets.length;\n    }\n\n    /// @notice Get the number of proposals\n    /// @return The number of proposals\n    function proposalsCount()\n    public\n    view\n    returns (uint256)\n    {\n        return proposals.length;\n    }\n\n    /// @notice Get the number of challenges\n    /// @return The number of challenges\n    function disqualificationsCount()\n    public\n    view\n    returns (uint256)\n    {\n        return disqualifications.length;\n    }\n\n    /// @notice Start settlement challenge\n    /// @param amount The concerned amount to stage\n    /// @param currencyCt The address of the concerned currency contract (address(0) == ETH)\n    /// @param currencyId The ID of the concerned currency (0 for ETH and ERC20)\n    function startChallenge(int256 amount, address currencyCt, uint256 currencyId)\n    public\n    {\n        // Require that wallet is not temporarily disqualified\n        require(!isLockedWallet(msg.sender));\n\n        // Start challenge for wallet\n        _startChallenge(msg.sender, amount, currencyCt, currencyId, true);\n\n        // Emit event\n        emit StartChallengeEvent(msg.sender, amount, currencyCt, currencyId);\n    }\n\n    /// @notice Start settlement challenge for the given wallet\n    /// @param wallet The address of the concerned wallet\n    /// @param amount The concerned amount to stage\n    /// @param currencyCt The address of the concerned currency contract (address(0) == ETH)\n    /// @param currencyId The ID of the concerned currency (0 for ETH and ERC20)\n    function startChallengeByProxy(address wallet, int256 amount, address currencyCt, uint256 currencyId)\n    public\n    onlyOperator\n    {\n        // Start challenge for wallet\n        _startChallenge(wallet, amount, currencyCt, currencyId, false);\n\n        // Emit event\n        emit StartChallengeByProxyEvent(msg.sender, wallet, amount, currencyCt, currencyId);\n    }\n\n    /// @notice Gauge whether the proposal for the given wallet and currency has expired\n    /// @param wallet The address of the concerned wallet\n    /// @param currencyCt The address of the concerned currency contract (address(0) == ETH)\n    /// @param currencyId The ID of the concerned currency (0 for ETH and ERC20)\n    /// @return true if proposal has expired, else false\n    function hasProposalExpired(address wallet, address currencyCt, uint256 currencyId)\n    public\n    view\n    returns (bool)\n    {\n        // 1-based index\n        uint256 index = proposalIndexByWalletCurrency[wallet][currencyCt][currencyId];\n        return (\n        0 == index ||\n        0 == proposals[index - 1].nonce ||\n        block.timestamp >= proposals[index - 1].expirationTime\n        );\n    }\n\n    /// @notice Get the challenge nonce of the given wallet\n    /// @param wallet The address of the concerned wallet\n    /// @param currencyCt The address of the concerned currency contract (address(0) == ETH)\n    /// @param currencyId The ID of the concerned currency (0 for ETH and ERC20)\n    /// @return The challenge nonce\n    function proposalNonce(address wallet, address currencyCt, uint256 currencyId)\n    public\n    view\n    returns (uint256)\n    {\n        uint256 index = proposalIndexByWalletCurrency[wallet][currencyCt][currencyId];\n        require(0 != index);\n        return proposals[index - 1].nonce;\n    }\n\n    /// @notice Get the settlement proposal block number of the given wallet\n    /// @param wallet The address of the concerned wallet\n    /// @param currencyCt The address of the concerned currency contract (address(0) == ETH)\n    /// @param currencyId The ID of the concerned currency (0 for ETH and ERC20)\n    /// @return The settlement proposal block number\n    function proposalBlockNumber(address wallet, address currencyCt, uint256 currencyId)\n    public\n    view\n    returns (uint256)\n    {\n        uint256 index = proposalIndexByWalletCurrency[wallet][currencyCt][currencyId];\n        require(0 != index);\n        return proposals[index - 1].blockNumber;\n    }\n\n    /// @notice Get the settlement proposal end time of the given wallet\n    /// @param wallet The address of the concerned wallet\n    /// @param currencyCt The address of the concerned currency contract (address(0) == ETH)\n    /// @param currencyId The ID of the concerned currency (0 for ETH and ERC20)\n    /// @return The settlement proposal end time\n    function proposalExpirationTime(address wallet, address currencyCt, uint256 currencyId)\n    public\n    view\n    returns (uint256)\n    {\n        uint256 index = proposalIndexByWalletCurrency[wallet][currencyCt][currencyId];\n        require(0 != index);\n        return proposals[index - 1].expirationTime;\n    }\n\n    /// @notice Get the challenge status of the given wallet\n    /// @param wallet The address of the concerned wallet\n    /// @param currencyCt The address of the concerned currency contract (address(0) == ETH)\n    /// @param currencyId The ID of the concerned currency (0 for ETH and ERC20)\n    /// @return The challenge status\n    function proposalStatus(address wallet, address currencyCt, uint256 currencyId)\n    public\n    view\n    returns (SettlementTypesLib.Status)\n    {\n        uint256 index = proposalIndexByWalletCurrency[wallet][currencyCt][currencyId];\n        require(0 != index);\n        return proposals[index - 1].status;\n    }\n\n    /// @notice Get the settlement proposal stage amount of the given wallet and currency\n    /// @param wallet The address of the concerned wallet\n    /// @param currencyCt The address of the concerned currency contract (address(0) == ETH)\n    /// @param currencyId The ID of the concerned currency (0 for ETH and ERC20)\n    /// @return The settlement proposal stage amount\n    function proposalStageAmount(address wallet, address currencyCt, uint256 currencyId)\n    public\n    view\n    returns (int256)\n    {\n        uint256 index = proposalIndexByWalletCurrency[wallet][currencyCt][currencyId];\n        require(0 != index);\n        return proposals[index - 1].stageAmount;\n    }\n\n    /// @notice Get the settlement proposal target balance amount of the given wallet and currency\n    /// @param wallet The address of the concerned wallet\n    /// @param currencyCt The address of the concerned currency contract (address(0) == ETH)\n    /// @param currencyId The ID of the concerned currency (0 for ETH and ERC20)\n    /// @return The settlement proposal target balance amount\n    function proposalTargetBalanceAmount(address wallet, address currencyCt, uint256 currencyId)\n    public\n    view\n    returns (int256)\n    {\n        uint256 index = proposalIndexByWalletCurrency[wallet][currencyCt][currencyId];\n        require(0 != index);\n        return proposals[index - 1].targetBalanceAmount;\n    }\n\n    /// @notice Get the balance reward of the given wallet's settlement proposal\n    /// @param wallet The address of the concerned wallet\n    /// @param currencyCt The address of the concerned currency contract (address(0) == ETH)\n    /// @param currencyId The ID of the concerned currency (0 for ETH and ERC20)\n    /// @return The balance reward of the settlement proposal\n    function proposalBalanceReward(address wallet, address currencyCt, uint256 currencyId)\n    public\n    view\n    returns (bool)\n    {\n        uint256 index = proposalIndexByWalletCurrency[wallet][currencyCt][currencyId];\n        require(0 != index);\n        return proposals[index - 1].balanceReward;\n    }\n\n    /// @notice Get the disqualification candidate type of the given wallet and currency\n    /// @param wallet The address of the concerned wallet\n    /// @param currencyCt The address of the concerned currency contract (address(0) == ETH)\n    /// @param currencyId The ID of the concerned currency (0 for ETH and ERC20)\n    /// @return The candidate type of the settlement disqualification\n    function disqualificationCandidateType(address wallet, address currencyCt, uint256 currencyId)\n    public\n    view\n    returns (SettlementTypesLib.CandidateType)\n    {\n        uint256 index = disqualificationIndexByWalletCurrency[wallet][currencyCt][currencyId];\n        require(0 != index);\n        return disqualifications[index - 1].candidateType;\n    }\n\n    /// @notice Get the disqualification candidate hash of the given wallet and currency\n    /// @param wallet The address of the concerned wallet\n    /// @param currencyCt The address of the concerned currency contract (address(0) == ETH)\n    /// @param currencyId The ID of the concerned currency (0 for ETH and ERC20)\n    /// @return The candidate hash of the settlement disqualification\n    function disqualificationCandidateHash(address wallet, address currencyCt, uint256 currencyId)\n    public\n    view\n    returns (bytes32)\n    {\n        uint256 index = disqualificationIndexByWalletCurrency[wallet][currencyCt][currencyId];\n        require(0 != index);\n        return disqualifications[index - 1].candidateHash;\n    }\n\n    /// @notice Get the disqualification challenger of the given wallet and currency\n    /// @param wallet The address of the concerned wallet\n    /// @param currencyCt The address of the concerned currency contract (address(0) == ETH)\n    /// @param currencyId The ID of the concerned currency (0 for ETH and ERC20)\n    /// @return The challenger of the settlement disqualification\n    function disqualificationChallenger(address wallet, address currencyCt, uint256 currencyId)\n    public\n    view\n    returns (address)\n    {\n        uint256 index = disqualificationIndexByWalletCurrency[wallet][currencyCt][currencyId];\n        require(0 != index);\n        return disqualifications[index - 1].challenger;\n    }\n\n    /// @notice Set settlement proposal end time property of the given wallet\n    /// @dev This function can only be called by this contract's dispute instance\n    /// @param wallet The address of the concerned wallet\n    /// @param expirationTime The end time value\n    function setProposalExpirationTime(address wallet, address currencyCt, uint256 currencyId,\n        uint256 expirationTime)\n    public\n    onlyNullSettlementDispute\n    {\n        uint256 index = proposalIndexByWalletCurrency[wallet][currencyCt][currencyId];\n        require(0 != index);\n        proposals[index - 1].expirationTime = expirationTime;\n    }\n\n    /// @notice Set settlement proposal status property of the given wallet\n    /// @dev This function can only be called by this contract's dispute instance\n    /// @param wallet The address of the concerned wallet\n    /// @param status The status value\n    function setProposalStatus(address wallet, address currencyCt, uint256 currencyId,\n        SettlementTypesLib.Status status)\n    public\n    onlyNullSettlementDispute\n    {\n        uint256 index = proposalIndexByWalletCurrency[wallet][currencyCt][currencyId];\n        require(0 != index);\n        proposals[index - 1].status = status;\n    }\n\n    /// @notice Challenge the settlement by providing order candidate\n    /// @param order The order candidate that challenges the null\n    function challengeByOrder(NahmiiTypesLib.Order order)\n    public\n    onlyOperationalModeNormal\n    {\n        nullSettlementDispute.challengeByOrder(order, msg.sender);\n    }\n\n    /// @notice Challenge the settlement by providing trade candidate\n    /// @param wallet The wallet whose settlement is being challenged\n    /// @param trade The trade candidate that challenges the null\n    function challengeByTrade(address wallet, NahmiiTypesLib.Trade trade)\n    public\n    onlyOperationalModeNormal\n    {\n        nullSettlementDispute.challengeByTrade(wallet, trade, msg.sender);\n    }\n\n    /// @notice Challenge the settlement by providing payment candidate\n    /// @param wallet The wallet whose settlement is being challenged\n    /// @param payment The payment candidate that challenges the null\n    function challengeByPayment(address wallet, NahmiiTypesLib.Payment payment)\n    public\n    onlyOperationalModeNormal\n    {\n        nullSettlementDispute.challengeByPayment(wallet, payment, msg.sender);\n    }\n\n    /// @notice Get the count of challenge candidate hashes\n    /// @return The count of challenge candidate order hashes\n    function candidateHashesCount()\n    public\n    view\n    returns (uint256)\n    {\n        return candidateHashes.length;\n    }\n\n    /// @notice Disqualify the given wallet\n    /// @dev This function can only be called by this contract's dispute instance\n    /// @param wallet The address of the concerned wallet\n    function lockWallet(address wallet)\n    public\n    onlyNullSettlementDispute\n    {\n        if (0 == unlockTimeByWallet[wallet]) {\n            lockedWallets.push(wallet);\n            lockedByWallet[wallet] = true;\n        }\n\n        unlockTimeByWallet[wallet] = block.timestamp.add(configuration.walletLockTimeout());\n    }\n\n    /// @notice Gauge whether the wallet is (temporarily) locked\n    /// @param wallet The address of the concerned wallet\n    /// @return true if wallet is locked, else false\n    function isLockedWallet(address wallet)\n    public\n    view\n    returns (bool)\n    {\n        return block.timestamp < unlockTimeByWallet[wallet];\n    }\n\n    /// @notice Add a disqualification instance\n    /// @param wallet The address of the concerned wallet\n    /// @param currencyCt The address of the concerned currency contract (address(0) == ETH)\n    /// @param currencyId The ID of the concerned currency (0 for ETH and ERC20)\n    /// @param candidateHash The candidate hash\n    /// @param candidateType The candidate type\n    /// @param challenger The concerned challenger\n    function addDisqualification(address wallet, address currencyCt, uint256 currencyId, bytes32 candidateHash,\n        SettlementTypesLib.CandidateType candidateType, address challenger)\n    public\n    onlyNullSettlementDispute\n    {\n        // Get the proposal index\n        uint256 index = proposalIndexByWalletCurrency[wallet][currencyCt][currencyId];\n        require(0 != index);\n\n        // Create disqualification\n        disqualifications.length++;\n\n        // Populate disqualification\n        disqualifications[disqualifications.length - 1].wallet = wallet;\n        disqualifications[disqualifications.length - 1].nonce = proposals[index - 1].nonce;\n        disqualifications[disqualifications.length - 1].currencyCt = currencyCt;\n        disqualifications[disqualifications.length - 1].currencyId = currencyId;\n        disqualifications[disqualifications.length - 1].candidateHash = candidateHash;\n        disqualifications[disqualifications.length - 1].candidateType = candidateType;\n        disqualifications[disqualifications.length - 1].challenger = challenger;\n\n        // Store disqualification index\n        disqualificationIndexByWalletCurrency[wallet][currencyCt][currencyId] = disqualifications.length;\n\n        // Store candidate hash\n        candidateHashes.push(candidateHash);\n    }\n\n    //\n    // Private functions\n    // -----------------------------------------------------------------------------------------------------------------\n    function _startChallenge(address wallet, int256 stageAmount, address currencyCt, uint256 currencyId,\n        bool balanceReward)\n    private\n    {\n        // Require that current block number is beyond the earliest settlement challenge block number\n        require(block.number >= configuration.earliestSettlementBlockNumber());\n\n        // Require that stage amount is positive\n        require(stageAmount.isPositiveInt256());\n\n        // Require that wallet has no overlap with active proposal\n        require(\n            hasProposalExpired(\n                wallet, currencyCt, currencyId\n            )\n        );\n\n        // Get the last logged active balance amount and block number\n        (int256 activeBalanceAmount, uint256 activeBalanceBlockNumber) =\n        _activeBalanceLogEntry(wallet, currencyCt, currencyId);\n\n        // Require that balance amount is not less than stage amount\n        require(activeBalanceAmount >= stageAmount);\n\n        // Create proposal\n        proposals.length++;\n\n        // Populate proposal\n        proposals[proposals.length - 1].wallet = wallet;\n        proposals[proposals.length - 1].nonce = ++nonce;\n        proposals[proposals.length - 1].blockNumber = activeBalanceBlockNumber;\n        proposals[proposals.length - 1].expirationTime = block.timestamp.add(configuration.settlementChallengeTimeout());\n        proposals[proposals.length - 1].status = SettlementTypesLib.Status.Qualified;\n        proposals[proposals.length - 1].currencyCt = currencyCt;\n        proposals[proposals.length - 1].currencyId = currencyId;\n        proposals[proposals.length - 1].stageAmount = stageAmount;\n        proposals[proposals.length - 1].targetBalanceAmount = activeBalanceAmount.sub(stageAmount);\n        proposals[proposals.length - 1].balanceReward = balanceReward;\n\n        // Store proposal index\n        proposalIndexByWalletCurrency[wallet][currencyCt][currencyId] = proposals.length;\n        proposalIndicesByWallet[wallet].push(proposals.length);\n\n        // Add wallet to store of challenge wallets\n        if (!challengeByWallets[wallet]) {\n            challengeByWallets[wallet] = true;\n            challengeWallets.push(wallet);\n        }\n    }\n\n    function _activeBalanceLogEntry(address wallet, address currencyCt, uint256 currencyId)\n    private\n    view\n    returns (int256 amount, uint256 blockNumber)\n    {\n        (int256 depositedAmount, uint256 depositedBlockNumber) =\n        0 < balanceTracker.logSize(wallet, balanceTracker.depositedBalanceType(), currencyCt, currencyId) ?\n        balanceTracker.lastLog(\n            wallet, balanceTracker.depositedBalanceType(), currencyCt, currencyId\n        ) :\n        (0, 0);\n\n        (int256 settledAmount, uint256 settledBlockNumber) =\n        0 < balanceTracker.logSize(wallet, balanceTracker.settledBalanceType(), currencyCt, currencyId) ?\n        balanceTracker.lastLog(\n            wallet, balanceTracker.settledBalanceType(), currencyCt, currencyId\n        ) :\n        (0, 0);\n\n        // Set amount as the sum of deposited and settled\n        amount = depositedAmount.add(settledAmount);\n\n        // Set block number as the latest of deposited and settled\n        blockNumber = depositedBlockNumber > settledBlockNumber ? depositedBlockNumber : settledBlockNumber;\n    }\n\n    //\n    // Modifiers\n    // -----------------------------------------------------------------------------------------------------------------\n    modifier onlyNullSettlementDispute() {\n        require(msg.sender == address(nullSettlementDispute));\n        _;\n    }\n}\n",
  "sourcePath": "/Users/kata/dev/hubii/striim-contracts/contracts/NullSettlementChallenge.sol",
  "compiler": {
    "name": "solc",
    "version": "0.4.25+commit.59dbf8f1.Emscripten.clang"
  },
  "schemaVersion": "2.0.1",
  "updatedAt": "2018-12-08T11:33:25.302Z"
}