{
  "contractName": "NullSettlementChallenge",
  "abi": [
    {
      "constant": true,
      "inputs": [
        {
          "name": "",
          "type": "uint256"
        }
      ],
      "name": "proposals",
      "outputs": [
        {
          "name": "wallet",
          "type": "address"
        },
        {
          "name": "nonce",
          "type": "uint256"
        },
        {
          "name": "blockNumber",
          "type": "uint256"
        },
        {
          "name": "expirationTime",
          "type": "uint256"
        },
        {
          "name": "status",
          "type": "uint8"
        },
        {
          "name": "currencyCt",
          "type": "address"
        },
        {
          "name": "currencyId",
          "type": "uint256"
        },
        {
          "name": "stageAmount",
          "type": "int256"
        },
        {
          "name": "targetBalanceAmount",
          "type": "int256"
        },
        {
          "name": "driipHash",
          "type": "bytes32"
        },
        {
          "name": "driipType",
          "type": "uint8"
        },
        {
          "name": "balanceReward",
          "type": "bool"
        }
      ],
      "payable": false,
      "stateMutability": "view",
      "type": "function"
    },
    {
      "constant": true,
      "inputs": [],
      "name": "destructor",
      "outputs": [
        {
          "name": "",
          "type": "address"
        }
      ],
      "payable": false,
      "stateMutability": "view",
      "type": "function"
    },
    {
      "constant": true,
      "inputs": [],
      "name": "operator",
      "outputs": [
        {
          "name": "",
          "type": "address"
        }
      ],
      "payable": false,
      "stateMutability": "view",
      "type": "function"
    },
    {
      "constant": true,
      "inputs": [],
      "name": "nullSettlementDispute",
      "outputs": [
        {
          "name": "",
          "type": "address"
        }
      ],
      "payable": false,
      "stateMutability": "view",
      "type": "function"
    },
    {
      "constant": false,
      "inputs": [
        {
          "name": "newConfiguration",
          "type": "address"
        }
      ],
      "name": "setConfiguration",
      "outputs": [],
      "payable": false,
      "stateMutability": "nonpayable",
      "type": "function"
    },
    {
      "constant": true,
      "inputs": [
        {
          "name": "",
          "type": "uint256"
        }
      ],
      "name": "candidateHashes",
      "outputs": [
        {
          "name": "",
          "type": "bytes32"
        }
      ],
      "payable": false,
      "stateMutability": "view",
      "type": "function"
    },
    {
      "constant": true,
      "inputs": [
        {
          "name": "",
          "type": "address"
        },
        {
          "name": "",
          "type": "address"
        },
        {
          "name": "",
          "type": "uint256"
        }
      ],
      "name": "proposalIndexByWalletCurrency",
      "outputs": [
        {
          "name": "",
          "type": "uint256"
        }
      ],
      "payable": false,
      "stateMutability": "view",
      "type": "function"
    },
    {
      "constant": true,
      "inputs": [],
      "name": "configuration",
      "outputs": [
        {
          "name": "",
          "type": "address"
        }
      ],
      "payable": false,
      "stateMutability": "view",
      "type": "function"
    },
    {
      "constant": true,
      "inputs": [
        {
          "name": "",
          "type": "uint256"
        }
      ],
      "name": "challengeWallets",
      "outputs": [
        {
          "name": "",
          "type": "address"
        }
      ],
      "payable": false,
      "stateMutability": "view",
      "type": "function"
    },
    {
      "constant": true,
      "inputs": [
        {
          "name": "",
          "type": "address"
        },
        {
          "name": "",
          "type": "uint256"
        }
      ],
      "name": "proposalIndicesByWallet",
      "outputs": [
        {
          "name": "",
          "type": "uint256"
        }
      ],
      "payable": false,
      "stateMutability": "view",
      "type": "function"
    },
    {
      "constant": false,
      "inputs": [],
      "name": "triggerDestroy",
      "outputs": [],
      "payable": false,
      "stateMutability": "nonpayable",
      "type": "function"
    },
    {
      "constant": false,
      "inputs": [
        {
          "name": "newDeployer",
          "type": "address"
        }
      ],
      "name": "setDeployer",
      "outputs": [],
      "payable": false,
      "stateMutability": "nonpayable",
      "type": "function"
    },
    {
      "constant": true,
      "inputs": [],
      "name": "nonce",
      "outputs": [
        {
          "name": "",
          "type": "uint256"
        }
      ],
      "payable": false,
      "stateMutability": "view",
      "type": "function"
    },
    {
      "constant": false,
      "inputs": [
        {
          "name": "newOperator",
          "type": "address"
        }
      ],
      "name": "setOperator",
      "outputs": [],
      "payable": false,
      "stateMutability": "nonpayable",
      "type": "function"
    },
    {
      "constant": false,
      "inputs": [
        {
          "name": "newAddress",
          "type": "address"
        }
      ],
      "name": "setClientFund",
      "outputs": [],
      "payable": false,
      "stateMutability": "nonpayable",
      "type": "function"
    },
    {
      "constant": true,
      "inputs": [
        {
          "name": "",
          "type": "address"
        },
        {
          "name": "",
          "type": "address"
        },
        {
          "name": "",
          "type": "uint256"
        }
      ],
      "name": "disqualificationIndexByWalletCurrency",
      "outputs": [
        {
          "name": "",
          "type": "uint256"
        }
      ],
      "payable": false,
      "stateMutability": "view",
      "type": "function"
    },
    {
      "constant": true,
      "inputs": [
        {
          "name": "",
          "type": "uint256"
        }
      ],
      "name": "lockedWallets",
      "outputs": [
        {
          "name": "",
          "type": "address"
        }
      ],
      "payable": false,
      "stateMutability": "view",
      "type": "function"
    },
    {
      "constant": true,
      "inputs": [],
      "name": "deployer",
      "outputs": [
        {
          "name": "",
          "type": "address"
        }
      ],
      "payable": false,
      "stateMutability": "view",
      "type": "function"
    },
    {
      "constant": true,
      "inputs": [
        {
          "name": "",
          "type": "uint256"
        }
      ],
      "name": "disqualifications",
      "outputs": [
        {
          "name": "wallet",
          "type": "address"
        },
        {
          "name": "nonce",
          "type": "uint256"
        },
        {
          "name": "currencyCt",
          "type": "address"
        },
        {
          "name": "currencyId",
          "type": "uint256"
        },
        {
          "name": "candidateHash",
          "type": "bytes32"
        },
        {
          "name": "candidateType",
          "type": "uint8"
        },
        {
          "name": "challenger",
          "type": "address"
        }
      ],
      "payable": false,
      "stateMutability": "view",
      "type": "function"
    },
    {
      "constant": true,
      "inputs": [
        {
          "name": "",
          "type": "address"
        }
      ],
      "name": "lockedByWallet",
      "outputs": [
        {
          "name": "",
          "type": "bool"
        }
      ],
      "payable": false,
      "stateMutability": "view",
      "type": "function"
    },
    {
      "constant": true,
      "inputs": [],
      "name": "clientFund",
      "outputs": [
        {
          "name": "",
          "type": "address"
        }
      ],
      "payable": false,
      "stateMutability": "view",
      "type": "function"
    },
    {
      "constant": true,
      "inputs": [
        {
          "name": "",
          "type": "address"
        }
      ],
      "name": "unlockTimeByWallet",
      "outputs": [
        {
          "name": "",
          "type": "uint256"
        }
      ],
      "payable": false,
      "stateMutability": "view",
      "type": "function"
    },
    {
      "inputs": [
        {
          "name": "deployer",
          "type": "address"
        }
      ],
      "payable": false,
      "stateMutability": "nonpayable",
      "type": "constructor"
    },
    {
      "anonymous": false,
      "inputs": [
        {
          "indexed": false,
          "name": "oldNullSettlementDispute",
          "type": "address"
        },
        {
          "indexed": false,
          "name": "newNullSettlementDispute",
          "type": "address"
        }
      ],
      "name": "SetNullSettlementDisputeEvent",
      "type": "event"
    },
    {
      "anonymous": false,
      "inputs": [
        {
          "indexed": false,
          "name": "wallet",
          "type": "address"
        },
        {
          "indexed": false,
          "name": "amount",
          "type": "int256"
        },
        {
          "indexed": false,
          "name": "stageCurrencyCt",
          "type": "address"
        },
        {
          "indexed": false,
          "name": "stageCurrencyId",
          "type": "uint256"
        }
      ],
      "name": "StartChallengeEvent",
      "type": "event"
    },
    {
      "anonymous": false,
      "inputs": [
        {
          "indexed": false,
          "name": "proxy",
          "type": "address"
        },
        {
          "indexed": false,
          "name": "wallet",
          "type": "address"
        },
        {
          "indexed": false,
          "name": "amount",
          "type": "int256"
        },
        {
          "indexed": false,
          "name": "stageCurrencyCt",
          "type": "address"
        },
        {
          "indexed": false,
          "name": "stageCurrencyId",
          "type": "uint256"
        }
      ],
      "name": "StartChallengeByProxyEvent",
      "type": "event"
    },
    {
      "anonymous": false,
      "inputs": [
        {
          "indexed": false,
          "name": "oldAddress",
          "type": "address"
        },
        {
          "indexed": false,
          "name": "newAddress",
          "type": "address"
        }
      ],
      "name": "SetClientFundEvent",
      "type": "event"
    },
    {
      "anonymous": false,
      "inputs": [
        {
          "indexed": false,
          "name": "oldConfiguration",
          "type": "address"
        },
        {
          "indexed": false,
          "name": "newConfiguration",
          "type": "address"
        }
      ],
      "name": "SetConfigurationEvent",
      "type": "event"
    },
    {
      "anonymous": false,
      "inputs": [
        {
          "indexed": false,
          "name": "oldDeployer",
          "type": "address"
        },
        {
          "indexed": false,
          "name": "newDeployer",
          "type": "address"
        }
      ],
      "name": "SetDeployerEvent",
      "type": "event"
    },
    {
      "anonymous": false,
      "inputs": [
        {
          "indexed": false,
          "name": "oldOperator",
          "type": "address"
        },
        {
          "indexed": false,
          "name": "newOperator",
          "type": "address"
        }
      ],
      "name": "SetOperatorEvent",
      "type": "event"
    },
    {
      "constant": false,
      "inputs": [
        {
          "name": "newNullSettlementDispute",
          "type": "address"
        }
      ],
      "name": "setNullSettlementDispute",
      "outputs": [],
      "payable": false,
      "stateMutability": "nonpayable",
      "type": "function"
    },
    {
      "constant": true,
      "inputs": [],
      "name": "challengeWalletsCount",
      "outputs": [
        {
          "name": "",
          "type": "uint256"
        }
      ],
      "payable": false,
      "stateMutability": "view",
      "type": "function"
    },
    {
      "constant": true,
      "inputs": [],
      "name": "lockedWalletsCount",
      "outputs": [
        {
          "name": "",
          "type": "uint256"
        }
      ],
      "payable": false,
      "stateMutability": "view",
      "type": "function"
    },
    {
      "constant": true,
      "inputs": [],
      "name": "proposalsCount",
      "outputs": [
        {
          "name": "",
          "type": "uint256"
        }
      ],
      "payable": false,
      "stateMutability": "view",
      "type": "function"
    },
    {
      "constant": true,
      "inputs": [],
      "name": "disqualificationsCount",
      "outputs": [
        {
          "name": "",
          "type": "uint256"
        }
      ],
      "payable": false,
      "stateMutability": "view",
      "type": "function"
    },
    {
      "constant": false,
      "inputs": [
        {
          "name": "amount",
          "type": "int256"
        },
        {
          "name": "currencyCt",
          "type": "address"
        },
        {
          "name": "currencyId",
          "type": "uint256"
        }
      ],
      "name": "startChallenge",
      "outputs": [],
      "payable": false,
      "stateMutability": "nonpayable",
      "type": "function"
    },
    {
      "constant": false,
      "inputs": [
        {
          "name": "wallet",
          "type": "address"
        },
        {
          "name": "amount",
          "type": "int256"
        },
        {
          "name": "currencyCt",
          "type": "address"
        },
        {
          "name": "currencyId",
          "type": "uint256"
        }
      ],
      "name": "startChallengeByProxy",
      "outputs": [],
      "payable": false,
      "stateMutability": "nonpayable",
      "type": "function"
    },
    {
      "constant": true,
      "inputs": [
        {
          "name": "wallet",
          "type": "address"
        },
        {
          "name": "currencyCt",
          "type": "address"
        },
        {
          "name": "currencyId",
          "type": "uint256"
        }
      ],
      "name": "hasProposalExpired",
      "outputs": [
        {
          "name": "",
          "type": "bool"
        }
      ],
      "payable": false,
      "stateMutability": "view",
      "type": "function"
    },
    {
      "constant": true,
      "inputs": [
        {
          "name": "wallet",
          "type": "address"
        },
        {
          "name": "currencyCt",
          "type": "address"
        },
        {
          "name": "currencyId",
          "type": "uint256"
        }
      ],
      "name": "proposalNonce",
      "outputs": [
        {
          "name": "",
          "type": "uint256"
        }
      ],
      "payable": false,
      "stateMutability": "view",
      "type": "function"
    },
    {
      "constant": true,
      "inputs": [
        {
          "name": "wallet",
          "type": "address"
        },
        {
          "name": "currencyCt",
          "type": "address"
        },
        {
          "name": "currencyId",
          "type": "uint256"
        }
      ],
      "name": "proposalBlockNumber",
      "outputs": [
        {
          "name": "",
          "type": "uint256"
        }
      ],
      "payable": false,
      "stateMutability": "view",
      "type": "function"
    },
    {
      "constant": true,
      "inputs": [
        {
          "name": "wallet",
          "type": "address"
        },
        {
          "name": "currencyCt",
          "type": "address"
        },
        {
          "name": "currencyId",
          "type": "uint256"
        }
      ],
      "name": "proposalExpirationTime",
      "outputs": [
        {
          "name": "",
          "type": "uint256"
        }
      ],
      "payable": false,
      "stateMutability": "view",
      "type": "function"
    },
    {
      "constant": true,
      "inputs": [
        {
          "name": "wallet",
          "type": "address"
        },
        {
          "name": "currencyCt",
          "type": "address"
        },
        {
          "name": "currencyId",
          "type": "uint256"
        }
      ],
      "name": "proposalStatus",
      "outputs": [
        {
          "name": "",
          "type": "uint8"
        }
      ],
      "payable": false,
      "stateMutability": "view",
      "type": "function"
    },
    {
      "constant": true,
      "inputs": [
        {
          "name": "wallet",
          "type": "address"
        },
        {
          "name": "currencyCt",
          "type": "address"
        },
        {
          "name": "currencyId",
          "type": "uint256"
        }
      ],
      "name": "proposalStageAmount",
      "outputs": [
        {
          "name": "",
          "type": "int256"
        }
      ],
      "payable": false,
      "stateMutability": "view",
      "type": "function"
    },
    {
      "constant": true,
      "inputs": [
        {
          "name": "wallet",
          "type": "address"
        },
        {
          "name": "currencyCt",
          "type": "address"
        },
        {
          "name": "currencyId",
          "type": "uint256"
        }
      ],
      "name": "proposalTargetBalanceAmount",
      "outputs": [
        {
          "name": "",
          "type": "int256"
        }
      ],
      "payable": false,
      "stateMutability": "view",
      "type": "function"
    },
    {
      "constant": true,
      "inputs": [
        {
          "name": "wallet",
          "type": "address"
        },
        {
          "name": "currencyCt",
          "type": "address"
        },
        {
          "name": "currencyId",
          "type": "uint256"
        }
      ],
      "name": "proposalBalanceReward",
      "outputs": [
        {
          "name": "",
          "type": "bool"
        }
      ],
      "payable": false,
      "stateMutability": "view",
      "type": "function"
    },
    {
      "constant": true,
      "inputs": [
        {
          "name": "wallet",
          "type": "address"
        },
        {
          "name": "currencyCt",
          "type": "address"
        },
        {
          "name": "currencyId",
          "type": "uint256"
        }
      ],
      "name": "disqualificationCandidateType",
      "outputs": [
        {
          "name": "",
          "type": "uint8"
        }
      ],
      "payable": false,
      "stateMutability": "view",
      "type": "function"
    },
    {
      "constant": true,
      "inputs": [
        {
          "name": "wallet",
          "type": "address"
        },
        {
          "name": "currencyCt",
          "type": "address"
        },
        {
          "name": "currencyId",
          "type": "uint256"
        }
      ],
      "name": "disqualificationCandidateHash",
      "outputs": [
        {
          "name": "",
          "type": "bytes32"
        }
      ],
      "payable": false,
      "stateMutability": "view",
      "type": "function"
    },
    {
      "constant": true,
      "inputs": [
        {
          "name": "wallet",
          "type": "address"
        },
        {
          "name": "currencyCt",
          "type": "address"
        },
        {
          "name": "currencyId",
          "type": "uint256"
        }
      ],
      "name": "disqualificationChallenger",
      "outputs": [
        {
          "name": "",
          "type": "address"
        }
      ],
      "payable": false,
      "stateMutability": "view",
      "type": "function"
    },
    {
      "constant": false,
      "inputs": [
        {
          "name": "wallet",
          "type": "address"
        },
        {
          "name": "currencyCt",
          "type": "address"
        },
        {
          "name": "currencyId",
          "type": "uint256"
        },
        {
          "name": "expirationTime",
          "type": "uint256"
        }
      ],
      "name": "setProposalExpirationTime",
      "outputs": [],
      "payable": false,
      "stateMutability": "nonpayable",
      "type": "function"
    },
    {
      "constant": false,
      "inputs": [
        {
          "name": "wallet",
          "type": "address"
        },
        {
          "name": "currencyCt",
          "type": "address"
        },
        {
          "name": "currencyId",
          "type": "uint256"
        },
        {
          "name": "status",
          "type": "uint8"
        }
      ],
      "name": "setProposalStatus",
      "outputs": [],
      "payable": false,
      "stateMutability": "nonpayable",
      "type": "function"
    },
    {
      "constant": false,
      "inputs": [
        {
          "components": [
            {
              "name": "nonce",
              "type": "uint256"
            },
            {
              "name": "wallet",
              "type": "address"
            },
            {
              "components": [
                {
                  "name": "intention",
                  "type": "uint8"
                },
                {
                  "name": "amount",
                  "type": "int256"
                },
                {
                  "components": [
                    {
                      "components": [
                        {
                          "name": "ct",
                          "type": "address"
                        },
                        {
                          "name": "id",
                          "type": "uint256"
                        }
                      ],
                      "name": "intended",
                      "type": "tuple"
                    },
                    {
                      "components": [
                        {
                          "name": "ct",
                          "type": "address"
                        },
                        {
                          "name": "id",
                          "type": "uint256"
                        }
                      ],
                      "name": "conjugate",
                      "type": "tuple"
                    }
                  ],
                  "name": "currencies",
                  "type": "tuple"
                },
                {
                  "name": "rate",
                  "type": "int256"
                },
                {
                  "components": [
                    {
                      "name": "current",
                      "type": "int256"
                    },
                    {
                      "name": "previous",
                      "type": "int256"
                    }
                  ],
                  "name": "residuals",
                  "type": "tuple"
                }
              ],
              "name": "placement",
              "type": "tuple"
            },
            {
              "components": [
                {
                  "components": [
                    {
                      "name": "hash",
                      "type": "bytes32"
                    },
                    {
                      "components": [
                        {
                          "name": "r",
                          "type": "bytes32"
                        },
                        {
                          "name": "s",
                          "type": "bytes32"
                        },
                        {
                          "name": "v",
                          "type": "uint8"
                        }
                      ],
                      "name": "signature",
                      "type": "tuple"
                    }
                  ],
                  "name": "wallet",
                  "type": "tuple"
                },
                {
                  "components": [
                    {
                      "name": "hash",
                      "type": "bytes32"
                    },
                    {
                      "components": [
                        {
                          "name": "r",
                          "type": "bytes32"
                        },
                        {
                          "name": "s",
                          "type": "bytes32"
                        },
                        {
                          "name": "v",
                          "type": "uint8"
                        }
                      ],
                      "name": "signature",
                      "type": "tuple"
                    }
                  ],
                  "name": "operator",
                  "type": "tuple"
                }
              ],
              "name": "seals",
              "type": "tuple"
            },
            {
              "name": "blockNumber",
              "type": "uint256"
            },
            {
              "name": "operatorId",
              "type": "uint256"
            }
          ],
          "name": "order",
          "type": "tuple"
        }
      ],
      "name": "challengeByOrder",
      "outputs": [],
      "payable": false,
      "stateMutability": "nonpayable",
      "type": "function"
    },
    {
      "constant": false,
      "inputs": [
        {
          "name": "wallet",
          "type": "address"
        },
        {
          "components": [
            {
              "name": "nonce",
              "type": "uint256"
            },
            {
              "name": "amount",
              "type": "int256"
            },
            {
              "components": [
                {
                  "components": [
                    {
                      "name": "ct",
                      "type": "address"
                    },
                    {
                      "name": "id",
                      "type": "uint256"
                    }
                  ],
                  "name": "intended",
                  "type": "tuple"
                },
                {
                  "components": [
                    {
                      "name": "ct",
                      "type": "address"
                    },
                    {
                      "name": "id",
                      "type": "uint256"
                    }
                  ],
                  "name": "conjugate",
                  "type": "tuple"
                }
              ],
              "name": "currencies",
              "type": "tuple"
            },
            {
              "name": "rate",
              "type": "int256"
            },
            {
              "components": [
                {
                  "name": "nonce",
                  "type": "uint256"
                },
                {
                  "name": "wallet",
                  "type": "address"
                },
                {
                  "name": "rollingVolume",
                  "type": "uint256"
                },
                {
                  "name": "liquidityRole",
                  "type": "uint8"
                },
                {
                  "components": [
                    {
                      "name": "amount",
                      "type": "int256"
                    },
                    {
                      "components": [
                        {
                          "name": "wallet",
                          "type": "bytes32"
                        },
                        {
                          "name": "operator",
                          "type": "bytes32"
                        }
                      ],
                      "name": "hashes",
                      "type": "tuple"
                    },
                    {
                      "components": [
                        {
                          "name": "current",
                          "type": "int256"
                        },
                        {
                          "name": "previous",
                          "type": "int256"
                        }
                      ],
                      "name": "residuals",
                      "type": "tuple"
                    }
                  ],
                  "name": "order",
                  "type": "tuple"
                },
                {
                  "components": [
                    {
                      "components": [
                        {
                          "name": "current",
                          "type": "int256"
                        },
                        {
                          "name": "previous",
                          "type": "int256"
                        }
                      ],
                      "name": "intended",
                      "type": "tuple"
                    },
                    {
                      "components": [
                        {
                          "name": "current",
                          "type": "int256"
                        },
                        {
                          "name": "previous",
                          "type": "int256"
                        }
                      ],
                      "name": "conjugate",
                      "type": "tuple"
                    }
                  ],
                  "name": "balances",
                  "type": "tuple"
                },
                {
                  "components": [
                    {
                      "components": [
                        {
                          "name": "amount",
                          "type": "int256"
                        },
                        {
                          "components": [
                            {
                              "name": "ct",
                              "type": "address"
                            },
                            {
                              "name": "id",
                              "type": "uint256"
                            }
                          ],
                          "name": "currency",
                          "type": "tuple"
                        }
                      ],
                      "name": "single",
                      "type": "tuple"
                    },
                    {
                      "components": [
                        {
                          "name": "amount",
                          "type": "int256"
                        },
                        {
                          "components": [
                            {
                              "name": "ct",
                              "type": "address"
                            },
                            {
                              "name": "id",
                              "type": "uint256"
                            }
                          ],
                          "name": "currency",
                          "type": "tuple"
                        }
                      ],
                      "name": "total",
                      "type": "tuple[]"
                    }
                  ],
                  "name": "fees",
                  "type": "tuple"
                }
              ],
              "name": "buyer",
              "type": "tuple"
            },
            {
              "components": [
                {
                  "name": "nonce",
                  "type": "uint256"
                },
                {
                  "name": "wallet",
                  "type": "address"
                },
                {
                  "name": "rollingVolume",
                  "type": "uint256"
                },
                {
                  "name": "liquidityRole",
                  "type": "uint8"
                },
                {
                  "components": [
                    {
                      "name": "amount",
                      "type": "int256"
                    },
                    {
                      "components": [
                        {
                          "name": "wallet",
                          "type": "bytes32"
                        },
                        {
                          "name": "operator",
                          "type": "bytes32"
                        }
                      ],
                      "name": "hashes",
                      "type": "tuple"
                    },
                    {
                      "components": [
                        {
                          "name": "current",
                          "type": "int256"
                        },
                        {
                          "name": "previous",
                          "type": "int256"
                        }
                      ],
                      "name": "residuals",
                      "type": "tuple"
                    }
                  ],
                  "name": "order",
                  "type": "tuple"
                },
                {
                  "components": [
                    {
                      "components": [
                        {
                          "name": "current",
                          "type": "int256"
                        },
                        {
                          "name": "previous",
                          "type": "int256"
                        }
                      ],
                      "name": "intended",
                      "type": "tuple"
                    },
                    {
                      "components": [
                        {
                          "name": "current",
                          "type": "int256"
                        },
                        {
                          "name": "previous",
                          "type": "int256"
                        }
                      ],
                      "name": "conjugate",
                      "type": "tuple"
                    }
                  ],
                  "name": "balances",
                  "type": "tuple"
                },
                {
                  "components": [
                    {
                      "components": [
                        {
                          "name": "amount",
                          "type": "int256"
                        },
                        {
                          "components": [
                            {
                              "name": "ct",
                              "type": "address"
                            },
                            {
                              "name": "id",
                              "type": "uint256"
                            }
                          ],
                          "name": "currency",
                          "type": "tuple"
                        }
                      ],
                      "name": "single",
                      "type": "tuple"
                    },
                    {
                      "components": [
                        {
                          "name": "amount",
                          "type": "int256"
                        },
                        {
                          "components": [
                            {
                              "name": "ct",
                              "type": "address"
                            },
                            {
                              "name": "id",
                              "type": "uint256"
                            }
                          ],
                          "name": "currency",
                          "type": "tuple"
                        }
                      ],
                      "name": "total",
                      "type": "tuple[]"
                    }
                  ],
                  "name": "fees",
                  "type": "tuple"
                }
              ],
              "name": "seller",
              "type": "tuple"
            },
            {
              "components": [
                {
                  "components": [
                    {
                      "name": "single",
                      "type": "int256"
                    },
                    {
                      "name": "total",
                      "type": "int256"
                    }
                  ],
                  "name": "intended",
                  "type": "tuple"
                },
                {
                  "components": [
                    {
                      "name": "single",
                      "type": "int256"
                    },
                    {
                      "name": "total",
                      "type": "int256"
                    }
                  ],
                  "name": "conjugate",
                  "type": "tuple"
                }
              ],
              "name": "transfers",
              "type": "tuple"
            },
            {
              "components": [
                {
                  "name": "hash",
                  "type": "bytes32"
                },
                {
                  "components": [
                    {
                      "name": "r",
                      "type": "bytes32"
                    },
                    {
                      "name": "s",
                      "type": "bytes32"
                    },
                    {
                      "name": "v",
                      "type": "uint8"
                    }
                  ],
                  "name": "signature",
                  "type": "tuple"
                }
              ],
              "name": "seal",
              "type": "tuple"
            },
            {
              "name": "blockNumber",
              "type": "uint256"
            },
            {
              "name": "operatorId",
              "type": "uint256"
            }
          ],
          "name": "trade",
          "type": "tuple"
        }
      ],
      "name": "challengeByTrade",
      "outputs": [],
      "payable": false,
      "stateMutability": "nonpayable",
      "type": "function"
    },
    {
      "constant": false,
      "inputs": [
        {
          "name": "wallet",
          "type": "address"
        },
        {
          "components": [
            {
              "name": "nonce",
              "type": "uint256"
            },
            {
              "name": "amount",
              "type": "int256"
            },
            {
              "components": [
                {
                  "name": "ct",
                  "type": "address"
                },
                {
                  "name": "id",
                  "type": "uint256"
                }
              ],
              "name": "currency",
              "type": "tuple"
            },
            {
              "components": [
                {
                  "name": "nonce",
                  "type": "uint256"
                },
                {
                  "name": "wallet",
                  "type": "address"
                },
                {
                  "components": [
                    {
                      "name": "current",
                      "type": "int256"
                    },
                    {
                      "name": "previous",
                      "type": "int256"
                    }
                  ],
                  "name": "balances",
                  "type": "tuple"
                },
                {
                  "components": [
                    {
                      "components": [
                        {
                          "name": "amount",
                          "type": "int256"
                        },
                        {
                          "components": [
                            {
                              "name": "ct",
                              "type": "address"
                            },
                            {
                              "name": "id",
                              "type": "uint256"
                            }
                          ],
                          "name": "currency",
                          "type": "tuple"
                        }
                      ],
                      "name": "single",
                      "type": "tuple"
                    },
                    {
                      "components": [
                        {
                          "name": "amount",
                          "type": "int256"
                        },
                        {
                          "components": [
                            {
                              "name": "ct",
                              "type": "address"
                            },
                            {
                              "name": "id",
                              "type": "uint256"
                            }
                          ],
                          "name": "currency",
                          "type": "tuple"
                        }
                      ],
                      "name": "total",
                      "type": "tuple[]"
                    }
                  ],
                  "name": "fees",
                  "type": "tuple"
                }
              ],
              "name": "sender",
              "type": "tuple"
            },
            {
              "components": [
                {
                  "name": "nonce",
                  "type": "uint256"
                },
                {
                  "name": "wallet",
                  "type": "address"
                },
                {
                  "components": [
                    {
                      "name": "current",
                      "type": "int256"
                    },
                    {
                      "name": "previous",
                      "type": "int256"
                    }
                  ],
                  "name": "balances",
                  "type": "tuple"
                },
                {
                  "components": [
                    {
                      "components": [
                        {
                          "name": "amount",
                          "type": "int256"
                        },
                        {
                          "components": [
                            {
                              "name": "ct",
                              "type": "address"
                            },
                            {
                              "name": "id",
                              "type": "uint256"
                            }
                          ],
                          "name": "currency",
                          "type": "tuple"
                        }
                      ],
                      "name": "total",
                      "type": "tuple[]"
                    }
                  ],
                  "name": "fees",
                  "type": "tuple"
                }
              ],
              "name": "recipient",
              "type": "tuple"
            },
            {
              "components": [
                {
                  "name": "single",
                  "type": "int256"
                },
                {
                  "name": "total",
                  "type": "int256"
                }
              ],
              "name": "transfers",
              "type": "tuple"
            },
            {
              "components": [
                {
                  "components": [
                    {
                      "name": "hash",
                      "type": "bytes32"
                    },
                    {
                      "components": [
                        {
                          "name": "r",
                          "type": "bytes32"
                        },
                        {
                          "name": "s",
                          "type": "bytes32"
                        },
                        {
                          "name": "v",
                          "type": "uint8"
                        }
                      ],
                      "name": "signature",
                      "type": "tuple"
                    }
                  ],
                  "name": "wallet",
                  "type": "tuple"
                },
                {
                  "components": [
                    {
                      "name": "hash",
                      "type": "bytes32"
                    },
                    {
                      "components": [
                        {
                          "name": "r",
                          "type": "bytes32"
                        },
                        {
                          "name": "s",
                          "type": "bytes32"
                        },
                        {
                          "name": "v",
                          "type": "uint8"
                        }
                      ],
                      "name": "signature",
                      "type": "tuple"
                    }
                  ],
                  "name": "operator",
                  "type": "tuple"
                }
              ],
              "name": "seals",
              "type": "tuple"
            },
            {
              "name": "blockNumber",
              "type": "uint256"
            },
            {
              "name": "operatorId",
              "type": "uint256"
            }
          ],
          "name": "payment",
          "type": "tuple"
        }
      ],
      "name": "challengeByPayment",
      "outputs": [],
      "payable": false,
      "stateMutability": "nonpayable",
      "type": "function"
    },
    {
      "constant": true,
      "inputs": [],
      "name": "candidateHashesCount",
      "outputs": [
        {
          "name": "",
          "type": "uint256"
        }
      ],
      "payable": false,
      "stateMutability": "view",
      "type": "function"
    },
    {
      "constant": false,
      "inputs": [
        {
          "name": "wallet",
          "type": "address"
        }
      ],
      "name": "lockWallet",
      "outputs": [],
      "payable": false,
      "stateMutability": "nonpayable",
      "type": "function"
    },
    {
      "constant": true,
      "inputs": [
        {
          "name": "wallet",
          "type": "address"
        }
      ],
      "name": "isLockedWallet",
      "outputs": [
        {
          "name": "",
          "type": "bool"
        }
      ],
      "payable": false,
      "stateMutability": "view",
      "type": "function"
    },
    {
      "constant": false,
      "inputs": [
        {
          "name": "wallet",
          "type": "address"
        },
        {
          "name": "currencyCt",
          "type": "address"
        },
        {
          "name": "currencyId",
          "type": "uint256"
        },
        {
          "name": "candidateHash",
          "type": "bytes32"
        },
        {
          "name": "candidateType",
          "type": "uint8"
        },
        {
          "name": "challenger",
          "type": "address"
        }
      ],
      "name": "addDisqualification",
      "outputs": [],
      "payable": false,
      "stateMutability": "nonpayable",
      "type": "function"
    }
  ],
  "bytecode": "0x60806040523480156200001157600080fd5b50604051602080620039eb8339810180604052620000339190810190620000a9565b8080600160a060020a03811615156200004b57600080fd5b600160a060020a0381163014156200006257600080fd5b5060008054600160a060020a03909216600160a060020a031992831681179091556001805490921617905550620000de565b6000620000a28251620000d2565b9392505050565b600060208284031215620000bc57600080fd5b6000620000ca848462000094565b949350505050565b600160a060020a031690565b6138fd80620000ee6000396000f3006080604052600436106102375763ffffffff60e060020a600035041663013cf08b811461023c5780630712abb01461027d578063077f9e0c146102aa5780630a9f46ad146102d75780630fc842a1146102f95780631110f49a1461032657806316987929146103485780631a9caa0214610368578063282c7b921461037d5780632831207f146103925780633bebdcb5146103b257806342cb4587146103d25780634476d23b146103f257806349a3db63146104075780635252358d14610427578063570ca735146104475780635ee357791461045c578063627f09c31461047e57806363376c4a1461049e578063657c9b80146104be57806366a6f36d146104de5780636c70bee9146104fe57806376cfd4f11461051357806385ea5e021461053357806390363c6f1461055357806393dfe6251461057357806394dd293c146105a057806396214735146105b5578063a4fc7859146105d5578063ac71d988146105f5578063ada072fb14610615578063affed0e01461062a578063b13fd3711461063f578063b3ab15fb1461065f578063b71ded2f1461067f578063ba42ff311461069f578063c1c68165146106bf578063c41570bd146106df578063cd808d94146106ff578063cdbf94191461071f578063d5f394881461073f578063dd27020014610754578063e74c81a214610787578063e754476f146107a7578063e769f40d146107bc578063f26a861e146107dc578063f7b87617146107f1578063fb1a825e14610811578063fca5192b14610831575b600080fd5b34801561024857600080fd5b5061025c610257366004612f0e565b610851565b6040516102749c9b9a999897969594939291906136d4565b60405180910390f35b34801561028957600080fd5b5061029d610298366004612bcc565b6108d2565b60405161027491906137da565b3480156102b657600080fd5b506102ca6102c5366004612ba6565b610940565b6040516102749190613787565b3480156102e357600080fd5b506102ec61095d565b6040516102749190613795565b34801561030557600080fd5b50610319610314366004612bcc565b610964565b6040516102749190613523565b34801561033257600080fd5b50610346610341366004612eef565b6109dd565b005b34801561035457600080fd5b506102ec610363366004612bcc565b610adc565b34801561037457600080fd5b506102ec610b46565b34801561038957600080fd5b506102ec610b4c565b34801561039e57600080fd5b506103466103ad366004612e80565b610b52565b3480156103be57600080fd5b506102ca6103cd366004612bcc565b610be3565b3480156103de57600080fd5b506102ec6103ed366004612bcc565b610c7a565b3480156103fe57600080fd5b50610319610ce4565b34801561041357600080fd5b50610346610422366004612deb565b610cf3565b34801561043357600080fd5b506102ca610442366004612bcc565b610df5565b34801561045357600080fd5b50610319610e68565b34801561046857600080fd5b50610471610e77565b60405161027491906137a3565b34801561048a57600080fd5b50610346610499366004612e80565b610e86565b3480156104aa57600080fd5b506102ec6104b9366004612f0e565b610f2d565b3480156104ca57600080fd5b506103466104d9366004612d9a565b610f4c565b3480156104ea57600080fd5b506102ec6104f9366004612bcc565b611018565b34801561050a57600080fd5b5061047161103b565b34801561051f57600080fd5b5061031961052e366004612f0e565b61104a565b34801561053f57600080fd5b5061034661054e366004612ca0565b611072565b34801561055f57600080fd5b506102ec61056e366004612e32565b61110c565b34801561057f57600080fd5b5061059361058e366004612bcc565b61113c565b60405161027491906137cc565b3480156105ac57600080fd5b506103466111aa565b3480156105c157600080fd5b506103466105d0366004612ba6565b6111d9565b3480156105e157600080fd5b506103466105f0366004612d01565b611288565b34801561060157600080fd5b506102ec610610366004612bcc565b61130c565b34801561062157600080fd5b506102ec611376565b34801561063657600080fd5b506102ec61137c565b34801561064b57600080fd5b5061034661065a366004612c19565b611382565b34801561066b57600080fd5b5061034661067a366004612ba6565b6115fd565b34801561068b57600080fd5b5061034661069a366004612e80565b6116a7565b3480156106ab57600080fd5b506102ec6106ba366004612bcc565b61173f565b3480156106cb57600080fd5b506103466106da366004612e9e565b611762565b3480156106eb57600080fd5b506103196106fa366004612f0e565b6117b8565b34801561070b57600080fd5b5061034661071a366004612ba6565b6117c6565b34801561072b57600080fd5b506102ec61073a366004612bcc565b61190c565b34801561074b57600080fd5b50610319611976565b34801561076057600080fd5b5061077461076f366004612f0e565b611985565b604051610274979695949392919061366c565b34801561079357600080fd5b506102ca6107a2366004612ba6565b6119e3565b3480156107b357600080fd5b506104716119f8565b3480156107c857600080fd5b506102ec6107d7366004612ba6565b611a07565b3480156107e857600080fd5b506102ec611a19565b3480156107fd57600080fd5b5061034661080c366004612d56565b611a1f565b34801561081d57600080fd5b506102ec61082c366004612bcc565b611a85565b34801561083d57600080fd5b506102ec61084c366004612bcc565b611aef565b600b80548290811061085f57fe5b60009182526020909120600a90910201805460018201546002830154600384015460048501546005860154600687015460078801546008890154600990990154600160a060020a039889169a5096989597949660ff8086169761010096879004909716969495939492938282169204168c565b600160a060020a038084166000908152600c60209081526040808320938616835292815282822084835290529081205480151561090e57600080fd5b600b8054600019830190811061092057fe5b60009182526020909120600a909102016004015460ff1695945050505050565b600160a060020a03166000908152600a6020526040902054421090565b600b545b90565b600160a060020a038084166000908152600f6020908152604080832093861683529281528282208483529052908120548015156109a057600080fd5b600e805460001983019081106109b257fe5b60009182526020909120600690910201600501546101009004600160a060020a031695945050505050565b600260009054906101000a9004600160a060020a0316600160a060020a031663f71e860f6040518163ffffffff1660e060020a028152600401602060405180830381600087803b158015610a3057600080fd5b505af1158015610a44573d6000803e3d6000fd5b505050506040513d601f19601f82011682018060405250610a689190810190612e62565b1515610a7357600080fd5b6004805460405160e060020a638eed8359028152600160a060020a0390911691638eed835991610aa79185913391016137e8565b600060405180830381600087803b158015610ac157600080fd5b505af1158015610ad5573d6000803e3d6000fd5b5050505050565b600160a060020a038084166000908152600c602090815260408083209386168352928152828220848352905290812054801515610b1857600080fd5b600b80546000198301908110610b2a57fe5b90600052602060002090600a0201600701549150509392505050565b60065490565b600e5490565b6000610b5c611b59565b1515610b6757600080fd5b81600160a060020a0381161515610b7d57600080fd5b60048054600160a060020a03858116600160a060020a03198316179283905560405191811694507f024f2a980aa7a47eb4d67ab19c6ee9ebabb88554ffe760c39dcb2c7f8f42859892610bd692869291909116906137b1565b60405180910390a1505050565b600160a060020a038084166000908152600c602090815260408083209386168352928152828220848352905290812054801580610c435750600b80546000198301908110610c2d57fe5b90600052602060002090600a0201600101546000145b80610c715750600b80546000198301908110610c5b57fe5b90600052602060002090600a0201600301544210155b95945050505050565b600160a060020a038084166000908152600c602090815260408083209386168352928152828220848352905290812054801515610cb657600080fd5b600b80546000198301908110610cc857fe5b90600052602060002090600a0201600601549150509392505050565b600054600160a060020a031690565b600260009054906101000a9004600160a060020a0316600160a060020a031663f71e860f6040518163ffffffff1660e060020a028152600401602060405180830381600087803b158015610d4657600080fd5b505af1158015610d5a573d6000803e3d6000fd5b505050506040513d601f19601f82011682018060405250610d7e9190810190612e62565b1515610d8957600080fd5b6004805460405160e060020a631114b317028152600160a060020a0390911691631114b31791610dbf918691869133910161364c565b600060405180830381600087803b158015610dd957600080fd5b505af1158015610ded573d6000803e3d6000fd5b505050505050565b600160a060020a038084166000908152600c602090815260408083209386168352928152828220848352905290812054801515610e3157600080fd5b600b80546000198301908110610e4357fe5b60009182526020909120600a9091020160090154610100900460ff1695945050505050565b600154600160a060020a031681565b600454600160a060020a031681565b6000610e90611b59565b1515610e9b57600080fd5b81600160a060020a0381161515610eb157600080fd5b6002548390600160a060020a039081169082168114610ad55760028054600160a060020a03878116600160a060020a0319831617909255604051911694507f634f61bf00e14adedce330c80c2823e16e184f189ebe853e1ddecc4a268477ff90610f1e90869088906137b1565b60405180910390a15050505050565b6010805482908110610f3b57fe5b600091825260209091200154905081565b600260009054906101000a9004600160a060020a0316600160a060020a031663f71e860f6040518163ffffffff1660e060020a028152600401602060405180830381600087803b158015610f9f57600080fd5b505af1158015610fb3573d6000803e3d6000fd5b505050506040513d601f19601f82011682018060405250610fd79190810190612e62565b1515610fe257600080fd5b6004805460405160e260020a631fc1229d028152600160a060020a0390911691637f048a7491610dbf918691869133910161361d565b600c60209081526000938452604080852082529284528284209052825290205481565b600254600160a060020a031681565b600680548290811061105857fe5b600091825260209091200154600160a060020a0316905081565b600454600090600160a060020a0316331461108c57600080fd5b50600160a060020a038085166000908152600c602090815260408083209387168352928152828220858352905220548015156110c757600080fd5b81600b600183038154811015156110da57fe5b600091825260209091206004600a9092020101805460ff19166001838181111561110057fe5b02179055505050505050565b600d6020528160005260406000208181548110151561112757fe5b90600052602060002001600091509150505481565b600160a060020a038084166000908152600f60209081526040808320938616835292815282822084835290529081205480151561117857600080fd5b600e8054600019830190811061118a57fe5b600091825260209091206006909102016005015460ff1695945050505050565b6111b2610ce4565b600160a060020a031633146111c657600080fd5b6111ce610ce4565b600160a060020a0316ff5b60006111e3611b59565b15156111ee57600080fd5b81600160a060020a038116151561120457600080fd5b600160a060020a03811630141561121a57600080fd5b600054600160a060020a038481169116146112835760008054600160a060020a03858116600160a060020a0319831617909255604051911692507f977e5fa58e458501775e0008d275006294c5249e3c08d1d0e3a9f3acad14f6e490610bd69084908690613531565b505050565b600454600090600160a060020a031633146112a257600080fd5b50600160a060020a038085166000908152600c602090815260408083209387168352928152828220858352905220548015156112dd57600080fd5b81600b600183038154811015156112f057fe5b90600052602060002090600a0201600301819055505050505050565b600160a060020a038084166000908152600f60209081526040808320938616835292815282822084835290529081205480151561134857600080fd5b600e8054600019830190811061135a57fe5b9060005260206000209060060201600401549150509392505050565b60105490565b60055481565b600454600090600160a060020a0316331461139c57600080fd5b50600160a060020a038087166000908152600c602090815260408083209389168352928152828220878352905220548015156113d757600080fd5b600e8054906113e990600183016121ba565b50600e805488919060001981019081106113ff57fe5b600091825260209091206006909102018054600160a060020a031916600160a060020a0392909216919091179055600b8054600019830190811061143f57fe5b600091825260209091206001600a909202010154600e8054600019810190811061146557fe5b6000918252602090912060016006909202010155600e8054879190600019810190811061148e57fe5b600091825260209091206006909102016002018054600160a060020a031916600160a060020a0392909216919091179055600e805486919060001981019081106114d457fe5b6000918252602090912060036006909202010155600e805485919060001981019081106114fd57fe5b6000918252602090912060046006909202010155600e8054849190600019810190811061152657fe5b60009182526020909120600560069092020101805460ff1916600183600381111561154d57fe5b0217905550600e8054839190600019810190811061156757fe5b60009182526020808320600692909202909101600501805461010060a860020a031916610100600160a060020a0395861602179055600e549983168252600f8152604080832099909316825297885281812096815295909652505050918120929092556010805460018101825592527f1b6847dc741a1b0cd08d278845f9d819d87b734759afb55fe2de5cb82a9ae67290910155565b6000611607611b6a565b151561161257600080fd5b81600160a060020a038116151561162857600080fd5b600160a060020a03811630141561163e57600080fd5b600154600160a060020a038481169116146112835760018054600160a060020a03858116600160a060020a0319831617909255604051911692507f9f611b789425d0d5b90b920f1b2852907dd865c80074a30b1629aaa041d1812c90610bd69084908690613531565b60006116b1611b59565b15156116bc57600080fd5b81600160a060020a03811615156116d257600080fd5b6003548390600160a060020a039081169082168114610ad55760038054600160a060020a03878116600160a060020a0319831617909255604051911694507f4d96d2a04c886b313bd1e28be6324ed4c8867b3203e512756722f8be0195e16d90610f1e90869088906137b1565b600f60209081526000938452604080852082529284528284209052825290205481565b61176b33610940565b1561177557600080fd5b611783338484846001611b7b565b7f3ea6a5f0533a257a4d3b7d514288450c5601dd58e5017bc15c7e32d6cf1ae03933848484604051610bd694939291906135f5565b600880548290811061105857fe5b600454600160a060020a031633146117dd57600080fd5b600160a060020a0381166000908152600a60205260409020541515611860576008805460018082019092557ff3f7a9fe364faab93b216da50a3214154f22a0a2b415b23a84c8169e8b636ee3018054600160a060020a031916600160a060020a0384169081179091556000908152600960205260409020805460ff191690911790555b6002546040805160e160020a6314f51fd502815290516118f092600160a060020a0316916329ea3faa9160048083019260209291908290030181600087803b1580156118ab57600080fd5b505af11580156118bf573d6000803e3d6000fd5b505050506040513d601f19601f820116820180604052506118e39190810190612f2c565b429063ffffffff61215716565b600160a060020a039091166000908152600a6020526040902055565b600160a060020a038084166000908152600c60209081526040808320938616835292815282822084835290529081205480151561194857600080fd5b600b8054600019830190811061195a57fe5b90600052602060002090600a0201600101549150509392505050565b600054600160a060020a031681565b600e80548290811061199357fe5b6000918252602090912060069091020180546001820154600283015460038401546004850154600590950154600160a060020a039485169650929491841693909260ff8116916101009091041687565b60096020526000908152604090205460ff1681565b600354600160a060020a031681565b600a6020526000908152604090205481565b60085490565b611a27611b59565b1515611a3257600080fd5b611a40848484846000611b7b565b7f5c2e5356cead72ecdf07d7e8b0d17de67df6aac7550613234585f8e5cf7c40763385858585604051611a7795949392919061354c565b60405180910390a150505050565b600160a060020a038084166000908152600c602090815260408083209386168352928152828220848352905290812054801515611ac157600080fd5b600b80546000198301908110611ad357fe5b90600052602060002090600a0201600301549150509392505050565b600160a060020a038084166000908152600c602090815260408083209386168352928152828220848352905290812054801515611b2b57600080fd5b600b80546000198301908110611b3d57fe5b90600052602060002090600a0201600201549150509392505050565b600054600160a060020a0316331490565b600154600160a060020a0316331490565b6000806000600260009054906101000a9004600160a060020a0316600160a060020a031663b6bf41766040518163ffffffff1660e060020a028152600401602060405180830381600087803b158015611bd357600080fd5b505af1158015611be7573d6000803e3d6000fd5b505050506040513d601f19601f82011682018060405250611c0b9190810190612f2c565b431015611c1757600080fd5b60405160e060020a636b84d93102815273__SafeMathIntLib________________________90636b84d93190611c51908a90600401613795565b60206040518083038186803b158015611c6957600080fd5b505af4158015611c7d573d6000803e3d6000fd5b505050506040513d601f19601f82011682018060405250611ca19190810190612e62565b1515611cac57600080fd5b611cb7888787610be3565b1515611cc257600080fd5b60035460405160e260020a630e5b5013028152600160a060020a039091169063396d404c90611cf9908b908a908a90600401613598565b602060405180830381600087803b158015611d1357600080fd5b505af1158015611d27573d6000803e3d6000fd5b505050506040513d601f19601f82011682018060405250611d4b9190810190612f2c565b925060008311611d5a57600080fd5b600354600160a060020a0316639f82dc31898888611d7f88600163ffffffff61216d16565b6040518563ffffffff1660e060020a028152600401611da194939291906135c0565b6040805180830381600087803b158015611dba57600080fd5b505af1158015611dce573d6000803e3d6000fd5b505050506040513d601f19601f82011682018060405250611df29190810190612ebf565b909250905086821215611e0457600080fd5b600b805490611e1690600183016121e6565b50600b80548991906000198101908110611e2c57fe5b60009182526020909120600a909102018054600160a060020a031916600160a060020a03929092169190911790556005805460010190819055600b80546000198101908110611e7757fe5b600091825260209091206001600a909202010155600b80548291906000198101908110611ea057fe5b90600052602060002090600a020160020181905550611f0b600260009054906101000a9004600160a060020a0316600160a060020a031663fbdfd8e76040518163ffffffff1660e060020a028152600401602060405180830381600087803b1580156118ab57600080fd5b600b80546000198101908110611f1d57fe5b6000918252602082206003600a909202010191909155600b80546000198101908110611f4557fe5b600091825260209091206004600a9092020101805460ff191660018381811115611f6b57fe5b0217905550600b80548791906000198101908110611f8557fe5b90600052602060002090600a020160040160016101000a815481600160a060020a030219169083600160a060020a0316021790555084600b6001600b8054905003815481101515611fd257fe5b600091825260209091206005600a909202010155600b80548891906000198101908110611ffb57fe5b600091825260209091206006600a90920201015561201f828863ffffffff61218416565b600b8054600019810190811061203157fe5b600091825260209091206007600a909202010155600b8054859190600019810190811061205a57fe5b600091825260208083206009600a909302019190910180549315156101000261ff001990941693909317909255600b54600160a060020a03808c16808452600c85526040808520928c1685529185528184208a85528552818420839055808452600d8552818420805460018101825590855285852001929092559082526007909252205460ff16151561214d57600160a060020a0388166000818152600760205260408120805460ff191660019081179091556006805491820181559091527ff652222313e28459528d920b65115c16c04f3efc82aaedc97be59f3f377c0d3f018054600160a060020a03191690911790555b5050505050505050565b60008282018381101561216657fe5b9392505050565b60008282111561217957fe5b508082035b92915050565b600080821215801561219857508282840313155b806121af57506000821280156121af575082828403135b151561217957600080fd5b815481835581811115611283576006028160060283600052602060002091820191016112839190612212565b81548183558181111561128357600a0281600a028360005260206000209182019101611283919061226f565b61096191905b8082111561226b578054600160a060020a03199081168255600060018301819055600283018054909216909155600382018190556004820155600581018054600160a860020a0319169055600601612218565b5090565b61096191905b8082111561226b578054600160a060020a03191681556000600182018190556002820181905560038201819055600482018054600160a860020a0319169055600582018190556006820181905560078201819055600882015560098101805461ffff19169055600a01612275565b60006121668235613855565b6000601f8201831361230057600080fd5b813561231361230e8261382b565b613805565b9150818183526020840193506020810190508385606084028201111561233857600080fd5b60005b83811015612366578161234e8882612429565b8452506020909201916060919091019060010161233b565b5050505092915050565b60006121668251613861565b60006121668235610961565b60006121668235613884565b6000612166823561388f565b6000612166823561389e565b60006121668251610961565b6000604082840312156123ca57600080fd5b6123d46040613805565b905060006123e284846122e3565b82525060206123f38484830161237c565b60208301525092915050565b60006040828403121561241157600080fd5b61241b6040613805565b905060006123e2848461237c565b60006060828403121561243b57600080fd5b6124456040613805565b90506000612453848461237c565b82525060206123f3848483016123b8565b60006080828403121561247657600080fd5b6124806040613805565b9050600061248e84846123b8565b82525060406123f3848483016123b8565b6000608082840312156124b157600080fd5b6124bb6040613805565b905060006124c984846123ff565b82525060406123f3848483016123ff565b600061012082840312156124ed57600080fd5b6124f760a0613805565b9050600061250584846123a0565b82525060206125168484830161237c565b602083015250604061252a84828501612464565b60408301525060c061253e8482850161237c565b60608301525060e0612552848285016123ff565b60808301525092915050565b60006102a0828403121561257157600080fd5b61257b60c0613805565b90506000612589848461237c565b825250602061259a848483016122e3565b60208301525060406125ae848285016124da565b6040830152506101606125c384828501612b5e565b6060830152506102606125d88482850161237c565b6080830152506102806125ed8482850161237c565b60a08301525092915050565b600060a0828403121561260b57600080fd5b6126156080613805565b90506000612623848461237c565b8252506020612634848483016122e3565b6020830152506040612648848285016123ff565b60408301525060808201356001604060020a0381111561266757600080fd5b612673848285016128e3565b60608301525092915050565b600060a0828403121561269157600080fd5b61269b6080613805565b905060006126a9848461237c565b82525060206126ba848483016122e3565b60208301525060406126ce848285016123ff565b60408301525060808201356001604060020a038111156126ed57600080fd5b61267384828501612891565b6000610240828403121561270c57600080fd5b612717610120613805565b90506000612725848461237c565b82525060206127368484830161237c565b602083015250604061274a848285016123b8565b60408301525060808201356001604060020a0381111561276957600080fd5b6127758482850161267f565b60608301525060a08201356001604060020a0381111561279457600080fd5b6127a0848285016125f9565b60808301525060c06127b4848285016123ff565b60a0830152506101006127c984828501612b5e565b60c0830152506102006127de8482850161237c565b60e0830152506102206127f38482850161237c565b6101008301525092915050565b60006080828403121561281257600080fd5b61281c6040613805565b9050600061282a848461237c565b82525060206123f38484830160006060828403121561284857600080fd5b6128526060613805565b90506000612860848461237c565b82525060206128718484830161237c565b602083015250604061288584828501612b9a565b60408301525092915050565b6000608082840312156128a357600080fd5b6128ad6040613805565b905060006128bb8484612429565b82525060608201356001604060020a038111156128d757600080fd5b6123f3848285016122ef565b6000602082840312156128f557600080fd5b6128ff6020613805565b905081356001604060020a0381111561291757600080fd5b612923848285016122ef565b82525092915050565b600060a0828403121561293e57600080fd5b6129486060613805565b90506000612956848461237c565b8252506020612967848483016123ff565b6020830152506060612885848285016123ff565b60006101c0828403121561298e57600080fd5b61299860e0613805565b905060006129a6848461237c565b82525060206129b7848483016122e3565b60208301525060406129cb8482850161237c565b60408301525060606129df848285016123a0565b60608301525060806129f38482850161292c565b608083015250610120612a088482850161249f565b60a0830152506101a08201356001604060020a03811115612a2857600080fd5b612a3484828501612891565b60c08301525092915050565b60006102608284031215612a5357600080fd5b612a5e610140613805565b90506000612a6c848461237c565b8252506020612a7d8484830161237c565b6020830152506040612a9184828501612464565b60408301525060c0612aa58482850161237c565b60608301525060e08201356001604060020a03811115612ac457600080fd5b612ad08482850161297b565b6080830152506101008201356001604060020a03811115612af057600080fd5b612afc8482850161297b565b60a083015250610120612b118482850161249f565b60c0830152506101a0612b2684828501612800565b60e083015250610220612b3b8482850161237c565b61010083015250610240612b518482850161237c565b6101208301525092915050565b60006101008284031215612b7157600080fd5b612b7b6040613805565b90506000612b898484612800565b82525060806123f384848301612800565b6000612166823561387e565b600060208284031215612bb857600080fd5b6000612bc484846122e3565b949350505050565b600080600060608486031215612be157600080fd5b6000612bed86866122e3565b9350506020612bfe868287016122e3565b9250506040612c0f8682870161237c565b9150509250925092565b60008060008060008060c08789031215612c3257600080fd5b6000612c3e89896122e3565b9650506020612c4f89828a016122e3565b9550506040612c6089828a0161237c565b9450506060612c7189828a0161237c565b9350506080612c8289828a01612394565b92505060a0612c9389828a016122e3565b9150509295509295509295565b60008060008060808587031215612cb657600080fd5b6000612cc287876122e3565b9450506020612cd3878288016122e3565b9350506040612ce48782880161237c565b9250506060612cf5878288016123a0565b91505092959194509250565b60008060008060808587031215612d1757600080fd5b6000612d2387876122e3565b9450506020612d34878288016122e3565b9350506040612d458782880161237c565b9250506060612cf58782880161237c565b60008060008060808587031215612d6c57600080fd5b6000612d7887876122e3565b9450506020612d898782880161237c565b9350506040612d45878288016122e3565b60008060408385031215612dad57600080fd5b6000612db985856122e3565b92505060208301356001604060020a03811115612dd557600080fd5b612de1858286016126f9565b9150509250929050565b60008060408385031215612dfe57600080fd5b6000612e0a85856122e3565b92505060208301356001604060020a03811115612e2657600080fd5b612de185828601612a40565b60008060408385031215612e4557600080fd5b6000612e5185856122e3565b9250506020612de18582860161237c565b600060208284031215612e7457600080fd5b6000612bc48484612370565b600060208284031215612e9257600080fd5b6000612bc48484612388565b600080600060608486031215612eb357600080fd5b6000612bed868661237c565b60008060408385031215612ed257600080fd5b6000612ede85856123ac565b9250506020612de1858286016123ac565b60006102a08284031215612f0257600080fd5b6000612bc4848461255e565b600060208284031215612f2057600080fd5b6000612bc4848461237c565b600060208284031215612f3e57600080fd5b6000612bc484846123ac565b612f5381613855565b82525050565b6000612f6482613851565b808452602084019350612f768361384b565b60005b82811015612fa657612f8c868351613018565b612f958261384b565b606096909601959150600101612f79565b5093949350505050565b612f5381613861565b612f5381610961565b612f5381613884565b612f53816138ad565b612f53816138b8565b80516040830190612fee8482612f4a565b5060208201516130016020850182612fb9565b50505050565b80516040830190612fee8482612fb9565b805160608301906130298482612fb9565b5060208201516130016020850182612fdd565b8051608083019061304d8482612fdd565b5060208201516130016040850182612fdd565b805160808301906130718482613007565b5060208201516130016040850182613007565b80516101208301906130968482612fd4565b5060208201516130a96020850182612fb9565b5060408201516130bc604085018261303c565b5060608201516130cf60c0850182612fb9565b50608082015161300160e0850182613007565b80516102a08301906130f48482612fb9565b5060208201516131076020850182612f4a565b50604082015161311a6040850182613084565b50606082015161312e6101608501826134f5565b506080820151613142610260850182612fb9565b5060a0820151613001610280850182612fb9565b805160009060a084019061316a8582612fb9565b50602083015161317d6020860182612f4a565b5060408301516131906040860182613007565b5060608301518482036080860152610c718282613343565b805160009060a08401906131bc8582612fb9565b5060208301516131cf6020860182612f4a565b5060408301516131e26040860182613007565b5060608301518482036080860152610c718282613317565b805160009061024084019061320f8582612fb9565b5060208301516132226020860182612fb9565b5060408301516132356040860182612fdd565b506060830151848203608086015261324d82826131a8565b915050608083015184820360a08601526132678282613156565b91505060a083015161327c60c0860182613007565b5060c08301516132906101008601826134f5565b5060e08301516132a4610200860182612fb9565b506101008301516132b9610220860182612fb9565b509392505050565b805160808301906132d28482612fb9565b5060208201516130016020850182805160608301906132f18482612fb9565b5060208201516133046020850182612fb9565b506040820151613001604085018261351a565b8051600090608084019061332b8582613018565b5060208301518482036060860152610c718282612f59565b8051602080845260009190840190610c718282612f59565b805160a083019061336c8482612fb9565b50602082015161337f6020850182613007565b5060408201516130016060850182613007565b80516000906101c08401906133a78582612fb9565b5060208301516133ba6020860182612f4a565b5060408301516133cd6040860182612fb9565b5060608301516133e06060860182612fd4565b5060808301516133f3608086018261335b565b5060a0830151613407610120860182613060565b5060c08301518482036101a0860152610c718282613317565b80516000906102608401906134358582612fb9565b5060208301516134486020860182612fb9565b50604083015161345b604086018261303c565b50606083015161346e60c0860182612fb9565b50608083015184820360e08601526134868282613392565b91505060a08301518482036101008601526134a18282613392565b91505060c08301516134b7610120860182613060565b5060e08301516134cb6101a08601826132c1565b506101008301516134e0610220860182612fb9565b506101208301516132b9610240860182612fb9565b805161010083019061350784826132c1565b50602082015161300160808501826132c1565b612f538161387e565b6020810161217e8284612f4a565b6040810161353f8285612f4a565b6121666020830184612f4a565b60a0810161355a8288612f4a565b6135676020830187612f4a565b6135746040830186612fb9565b6135816060830185612f4a565b61358e6080830184612fb9565b9695505050505050565b606081016135a68286612f4a565b6135b36020830185612f4a565b612bc46040830184612fb9565b608081016135ce8287612f4a565b6135db6020830186612f4a565b6135e86040830185612fb9565b610c716060830184612fb9565b608081016136038287612f4a565b6136106020830186612fb9565b6135e86040830185612f4a565b6060810161362b8286612f4a565b818103602083015261363d81856131fa565b9050612bc46040830184612f4a565b6060810161365a8286612f4a565b818103602083015261363d8185613420565b60e0810161367a828a612f4a565b6136876020830189612fb9565b6136946040830188612f4a565b6136a16060830187612fb9565b6136ae6080830186612fb9565b6136bb60a0830185612fcb565b6136c860c0830184612f4a565b98975050505050505050565b61018081016136e3828f612f4a565b6136f0602083018e612fb9565b6136fd604083018d612fb9565b61370a606083018c612fb9565b613717608083018b612fd4565b61372460a083018a612f4a565b61373160c0830189612fb9565b61373e60e0830188612fb9565b61374c610100830187612fb9565b61375a610120830186612fb9565b613768610140830185612fd4565b613776610160830184612fb0565b9d9c50505050505050505050505050565b6020810161217e8284612fb0565b6020810161217e8284612fb9565b6020810161217e8284612fc2565b604081016137bf8285612fc2565b6121666020830184612fc2565b6020810161217e8284612fcb565b6020810161217e8284612fd4565b6102c081016137f782856130e2565b6121666102a0830184612f4a565b6040518181016001604060020a038111828210171561382357600080fd5b604052919050565b60006001604060020a0382111561384157600080fd5b5060209081020190565b60200190565b5190565b600160a060020a031690565b151590565b60006004821061226b57fe5b60006002821061226b57fe5b60ff1690565b600061217e82613855565b60006004821061226b57600080fd5b60006002821061226b57600080fd5b600061217e82613866565b600061217e826138725600a265627a7a723058202978fa7ad6d4776b9ebe79e81eea55624616598b92dd8e6d1e24f987b0333fe66c6578706572696d656e74616cf50037",
  "source": "/*\n * Hubii Nahmii\n *\n * Compliant with the Hubii Nahmii specification v0.12.\n *\n * Copyright (C) 2017-2018 Hubii AS\n */\n\npragma solidity ^0.4.24;\npragma experimental ABIEncoderV2;\n\nimport {Ownable} from \"./Ownable.sol\";\nimport {Challenge} from \"./Challenge.sol\";\nimport {ClientFundable} from \"./ClientFundable.sol\";\nimport {SafeMathIntLib} from \"./SafeMathIntLib.sol\";\nimport {SafeMathUintLib} from \"./SafeMathUintLib.sol\";\nimport {NullSettlementDispute} from \"./NullSettlementDispute.sol\";\nimport {MonetaryTypesLib} from \"./MonetaryTypesLib.sol\";\nimport {NahmiiTypesLib} from \"./NahmiiTypesLib.sol\";\nimport {SettlementTypesLib} from \"./SettlementTypesLib.sol\";\n\n/**\n@title NullSettlementChallenge\n@notice Where null settlements are started and challenged\n*/\ncontract NullSettlementChallenge is Ownable, Challenge, ClientFundable {\n    using SafeMathIntLib for int256;\n    using SafeMathUintLib for uint256;\n\n    //\n    // Variables\n    // -----------------------------------------------------------------------------------------------------------------\n    NullSettlementDispute public nullSettlementDispute;\n\n    uint256 public nonce;\n\n    address[] public challengeWallets;\n    mapping(address => bool) challengeByWallets;\n\n    address[] public lockedWallets;\n    mapping(address => bool) public lockedByWallet;\n    mapping(address => uint) public unlockTimeByWallet;\n\n    SettlementTypesLib.Proposal[] public proposals;\n    mapping(address => mapping(address => mapping(uint256 => uint256))) public proposalIndexByWalletCurrency;\n    mapping(address => uint256[]) public proposalIndicesByWallet;\n\n    SettlementTypesLib.Disqualification[] public disqualifications;\n    mapping(address => mapping(address => mapping(uint256 => uint256))) public disqualificationIndexByWalletCurrency;\n\n    bytes32[] public candidateHashes;\n\n    //\n    // Events\n    // -----------------------------------------------------------------------------------------------------------------\n    event SetNullSettlementDisputeEvent(NullSettlementDispute oldNullSettlementDispute,\n        NullSettlementDispute newNullSettlementDispute);\n    event StartChallengeEvent(address wallet, int256 amount, address stageCurrencyCt,\n        uint stageCurrencyId);\n    event StartChallengeByProxyEvent(address proxy, address wallet, int256 amount,\n        address stageCurrencyCt, uint stageCurrencyId);\n\n    //\n    // Constructor\n    // -----------------------------------------------------------------------------------------------------------------\n    constructor(address deployer) Ownable(deployer) public {\n    }\n\n    //\n    // Functions\n    // -----------------------------------------------------------------------------------------------------------------\n    /// @notice Set the settlement dispute contract\n    /// @param newNullSettlementDispute The (address of) NullSettlementDispute contract instance\n    function setNullSettlementDispute(NullSettlementDispute newNullSettlementDispute)\n    public\n    onlyDeployer\n    notNullAddress(newNullSettlementDispute)\n    {\n        NullSettlementDispute oldNullSettlementDispute = nullSettlementDispute;\n        nullSettlementDispute = newNullSettlementDispute;\n        emit SetNullSettlementDisputeEvent(oldNullSettlementDispute, nullSettlementDispute);\n    }\n\n    /// @notice Get the number of challenge wallets, i.e. wallets that have started null settlement challenge\n    /// @return The number of challenge wallets\n    function challengeWalletsCount()\n    public\n    view\n    returns (uint256)\n    {\n        return challengeWallets.length;\n    }\n\n    /// @notice Get the number of locked wallets, i.e. wallets whose null settlement challenge has disqualified\n    /// @return The number of locked wallets\n    function lockedWalletsCount()\n    public\n    view\n    returns (uint256)\n    {\n        return lockedWallets.length;\n    }\n\n    /// @notice Get the number of proposals\n    /// @return The number of proposals\n    function proposalsCount()\n    public\n    view\n    returns (uint256)\n    {\n        return proposals.length;\n    }\n\n    /// @notice Get the number of challenges\n    /// @return The number of challenges\n    function disqualificationsCount()\n    public\n    view\n    returns (uint256)\n    {\n        return disqualifications.length;\n    }\n\n    /// @notice Start settlement challenge\n    /// @param amount The concerned amount to stage\n    /// @param currencyCt The address of the concerned currency contract (address(0) == ETH)\n    /// @param currencyId The ID of the concerned currency (0 for ETH and ERC20)\n    function startChallenge(int256 amount, address currencyCt, uint256 currencyId)\n    public\n    {\n        // Require that wallet is not temporarily disqualified\n        require(!isLockedWallet(msg.sender));\n\n        // Start challenge for wallet\n        startChallengePrivate(msg.sender, amount, currencyCt, currencyId, true);\n\n        // Emit event\n        emit StartChallengeEvent(msg.sender, amount, currencyCt, currencyId);\n    }\n\n    /// @notice Start settlement challenge for the given wallet\n    /// @param wallet The concerned wallet\n    /// @param amount The concerned amount to stage\n    /// @param currencyCt The address of the concerned currency contract (address(0) == ETH)\n    /// @param currencyId The ID of the concerned currency (0 for ETH and ERC20)\n    function startChallengeByProxy(address wallet, int256 amount, address currencyCt, uint256 currencyId)\n    public\n    onlyDeployer\n    {\n        // Start challenge for wallet\n        startChallengePrivate(wallet, amount, currencyCt, currencyId, false);\n\n        // Emit event\n        emit StartChallengeByProxyEvent(msg.sender, wallet, amount, currencyCt, currencyId);\n    }\n\n    /// @notice Gauge whether the proposal for the given wallet and currency has expired\n    /// @param wallet The concerned wallet\n    /// @param currencyCt The address of the concerned currency contract (address(0) == ETH)\n    /// @param currencyId The ID of the concerned currency (0 for ETH and ERC20)\n    /// @return true if proposal has expired, else false\n    function hasProposalExpired(address wallet, address currencyCt, uint256 currencyId)\n    public\n    view\n    returns (bool)\n    {\n        // 1-based index\n        uint256 index = proposalIndexByWalletCurrency[wallet][currencyCt][currencyId];\n        return (\n        0 == index ||\n        0 == proposals[index - 1].nonce ||\n        block.timestamp >= proposals[index - 1].expirationTime\n        );\n    }\n\n    /// @notice Get the challenge nonce of the given wallet\n    /// @param wallet The concerned wallet\n    /// @param currencyCt The address of the concerned currency contract (address(0) == ETH)\n    /// @param currencyId The ID of the concerned currency (0 for ETH and ERC20)\n    /// @return The challenge nonce\n    function proposalNonce(address wallet, address currencyCt, uint256 currencyId)\n    public\n    view\n    returns (uint256)\n    {\n        uint256 index = proposalIndexByWalletCurrency[wallet][currencyCt][currencyId];\n        require(0 != index);\n        return proposals[index - 1].nonce;\n    }\n\n    /// @notice Get the settlement proposal block number of the given wallet\n    /// @param wallet The concerned wallet\n    /// @param currencyCt The address of the concerned currency contract (address(0) == ETH)\n    /// @param currencyId The ID of the concerned currency (0 for ETH and ERC20)\n    /// @return The settlement proposal block number\n    function proposalBlockNumber(address wallet, address currencyCt, uint256 currencyId)\n    public\n    view\n    returns (uint256)\n    {\n        uint256 index = proposalIndexByWalletCurrency[wallet][currencyCt][currencyId];\n        require(0 != index);\n        return proposals[index - 1].blockNumber;\n    }\n\n    /// @notice Get the settlement proposal end time of the given wallet\n    /// @param wallet The concerned wallet\n    /// @param currencyCt The address of the concerned currency contract (address(0) == ETH)\n    /// @param currencyId The ID of the concerned currency (0 for ETH and ERC20)\n    /// @return The settlement proposal end time\n    function proposalExpirationTime(address wallet, address currencyCt, uint256 currencyId)\n    public\n    view\n    returns (uint256)\n    {\n        uint256 index = proposalIndexByWalletCurrency[wallet][currencyCt][currencyId];\n        require(0 != index);\n        return proposals[index - 1].expirationTime;\n    }\n\n    /// @notice Get the challenge status of the given wallet\n    /// @param wallet The concerned wallet\n    /// @param currencyCt The address of the concerned currency contract (address(0) == ETH)\n    /// @param currencyId The ID of the concerned currency (0 for ETH and ERC20)\n    /// @return The challenge status\n    function proposalStatus(address wallet, address currencyCt, uint256 currencyId)\n    public\n    view\n    returns (SettlementTypesLib.Status)\n    {\n        uint256 index = proposalIndexByWalletCurrency[wallet][currencyCt][currencyId];\n        require(0 != index);\n        return proposals[index - 1].status;\n    }\n\n    /// @notice Get the settlement proposal stage amount of the given wallet and currency\n    /// @param wallet The concerned wallet\n    /// @param currencyCt The address of the concerned currency contract (address(0) == ETH)\n    /// @param currencyId The ID of the concerned currency (0 for ETH and ERC20)\n    /// @return The settlement proposal stage amount\n    function proposalStageAmount(address wallet, address currencyCt, uint256 currencyId)\n    public\n    view\n    returns (int256)\n    {\n        uint256 index = proposalIndexByWalletCurrency[wallet][currencyCt][currencyId];\n        require(0 != index);\n        return proposals[index - 1].stageAmount;\n    }\n\n    /// @notice Get the settlement proposal target balance amount of the given wallet and currency\n    /// @param wallet The concerned wallet\n    /// @param currencyCt The address of the concerned currency contract (address(0) == ETH)\n    /// @param currencyId The ID of the concerned currency (0 for ETH and ERC20)\n    /// @return The settlement proposal target balance amount\n    function proposalTargetBalanceAmount(address wallet, address currencyCt, uint256 currencyId)\n    public\n    view\n    returns (int256)\n    {\n        uint256 index = proposalIndexByWalletCurrency[wallet][currencyCt][currencyId];\n        require(0 != index);\n        return proposals[index - 1].targetBalanceAmount;\n    }\n\n    /// @notice Get the balance reward of the given wallet's settlement proposal\n    /// @param wallet The concerned wallet\n    /// @param currencyCt The address of the concerned currency contract (address(0) == ETH)\n    /// @param currencyId The ID of the concerned currency (0 for ETH and ERC20)\n    /// @return The balance reward of the settlement proposal\n    function proposalBalanceReward(address wallet, address currencyCt, uint256 currencyId)\n    public\n    view\n    returns (bool)\n    {\n        uint256 index = proposalIndexByWalletCurrency[wallet][currencyCt][currencyId];\n        require(0 != index);\n        return proposals[index - 1].balanceReward;\n    }\n\n    /// @notice Get the disqualification candidate type of the given wallet and currency\n    /// @param wallet The concerned wallet\n    /// @param currencyCt The address of the concerned currency contract (address(0) == ETH)\n    /// @param currencyId The ID of the concerned currency (0 for ETH and ERC20)\n    /// @return The candidate type of the settlement disqualification\n    function disqualificationCandidateType(address wallet, address currencyCt, uint256 currencyId)\n    public\n    view\n    returns (SettlementTypesLib.CandidateType)\n    {\n        uint256 index = disqualificationIndexByWalletCurrency[wallet][currencyCt][currencyId];\n        require(0 != index);\n        return disqualifications[index - 1].candidateType;\n    }\n\n    /// @notice Get the disqualification candidate hash of the given wallet and currency\n    /// @param wallet The concerned wallet\n    /// @param currencyCt The address of the concerned currency contract (address(0) == ETH)\n    /// @param currencyId The ID of the concerned currency (0 for ETH and ERC20)\n    /// @return The candidate hash of the settlement disqualification\n    function disqualificationCandidateHash(address wallet, address currencyCt, uint256 currencyId)\n    public\n    view\n    returns (bytes32)\n    {\n        uint256 index = disqualificationIndexByWalletCurrency[wallet][currencyCt][currencyId];\n        require(0 != index);\n        return disqualifications[index - 1].candidateHash;\n    }\n\n    /// @notice Get the disqualification challenger of the given wallet and currency\n    /// @param wallet The concerned wallet\n    /// @param currencyCt The address of the concerned currency contract (address(0) == ETH)\n    /// @param currencyId The ID of the concerned currency (0 for ETH and ERC20)\n    /// @return The challenger of the settlement disqualification\n    function disqualificationChallenger(address wallet, address currencyCt, uint256 currencyId)\n    public\n    view\n    returns (address)\n    {\n        uint256 index = disqualificationIndexByWalletCurrency[wallet][currencyCt][currencyId];\n        require(0 != index);\n        return disqualifications[index - 1].challenger;\n    }\n\n    /// @notice Set settlement proposal end time property of the given wallet\n    /// @dev This function can only be called by this contract's dispute instance\n    /// @param wallet The concerned wallet\n    /// @param expirationTime The end time value\n    function setProposalExpirationTime(address wallet, address currencyCt, uint256 currencyId,\n        uint256 expirationTime)\n    public\n    onlyNullSettlementDispute\n    {\n        uint256 index = proposalIndexByWalletCurrency[wallet][currencyCt][currencyId];\n        require(0 != index);\n        proposals[index - 1].expirationTime = expirationTime;\n    }\n\n    /// @notice Set settlement proposal status property of the given wallet\n    /// @dev This function can only be called by this contract's dispute instance\n    /// @param wallet The concerned wallet\n    /// @param status The status value\n    function setProposalStatus(address wallet, address currencyCt, uint256 currencyId,\n        SettlementTypesLib.Status status)\n    public\n    onlyNullSettlementDispute\n    {\n        uint256 index = proposalIndexByWalletCurrency[wallet][currencyCt][currencyId];\n        require(0 != index);\n        proposals[index - 1].status = status;\n    }\n\n    /// @notice Challenge the settlement by providing order candidate\n    /// @param order The order candidate that challenges the null\n    function challengeByOrder(NahmiiTypesLib.Order order)\n    public\n    onlyOperationalModeNormal\n    {\n        nullSettlementDispute.challengeByOrder(order, msg.sender);\n    }\n\n    /// @notice Challenge the settlement by providing trade candidate\n    /// @param wallet The wallet whose settlement is being challenged\n    /// @param trade The trade candidate that challenges the null\n    function challengeByTrade(address wallet, NahmiiTypesLib.Trade trade)\n    public\n    onlyOperationalModeNormal\n    {\n        nullSettlementDispute.challengeByTrade(wallet, trade, msg.sender);\n    }\n\n    /// @notice Challenge the settlement by providing payment candidate\n    /// @param wallet The wallet whose settlement is being challenged\n    /// @param payment The payment candidate that challenges the null\n    function challengeByPayment(address wallet, NahmiiTypesLib.Payment payment)\n    public\n    onlyOperationalModeNormal\n    {\n        nullSettlementDispute.challengeByPayment(wallet, payment, msg.sender);\n    }\n\n    /// @notice Get the count of challenge candidate hashes\n    /// @return The count of challenge candidate order hashes\n    function candidateHashesCount()\n    public\n    view\n    returns (uint256)\n    {\n        return candidateHashes.length;\n    }\n\n    /// @notice Disqualify the given wallet\n    /// @dev This function can only be called by this contract's dispute instance\n    /// @param wallet The concerned wallet\n    function lockWallet(address wallet)\n    public\n    onlyNullSettlementDispute\n    {\n        if (0 == unlockTimeByWallet[wallet]) {\n            lockedWallets.push(wallet);\n            lockedByWallet[wallet] = true;\n        }\n\n        unlockTimeByWallet[wallet] = block.timestamp.add(configuration.walletLockTimeout());\n    }\n\n    /// @notice Gauge whether the wallet is (temporarily) locked\n    /// @param wallet The concerned wallet\n    /// @return true if wallet is locked, else false\n    function isLockedWallet(address wallet)\n    public\n    view\n    returns (bool)\n    {\n        return block.timestamp < unlockTimeByWallet[wallet];\n    }\n\n    /// @notice Add a disqualification instance\n    /// @param wallet The concerned wallet\n    /// @param currencyCt The address of the concerned currency contract (address(0) == ETH)\n    /// @param currencyId The ID of the concerned currency (0 for ETH and ERC20)\n    /// @param candidateHash The candidate hash\n    /// @param candidateType The candidate type\n    /// @param challenger The concerned challenger\n    function addDisqualification(address wallet, address currencyCt, uint256 currencyId, bytes32 candidateHash,\n        SettlementTypesLib.CandidateType candidateType, address challenger)\n    public\n    onlyNullSettlementDispute\n    {\n        // Get the proposal index\n        uint256 index = proposalIndexByWalletCurrency[wallet][currencyCt][currencyId];\n        require(0 != index);\n\n        // Create disqualification\n        disqualifications.length++;\n\n        // Populate disqualification\n        disqualifications[disqualifications.length - 1].wallet = wallet;\n        disqualifications[disqualifications.length - 1].nonce = proposals[index - 1].nonce;\n        disqualifications[disqualifications.length - 1].currencyCt = currencyCt;\n        disqualifications[disqualifications.length - 1].currencyId = currencyId;\n        disqualifications[disqualifications.length - 1].candidateHash = candidateHash;\n        disqualifications[disqualifications.length - 1].candidateType = candidateType;\n        disqualifications[disqualifications.length - 1].challenger = challenger;\n\n        // Store disqualification index\n        disqualificationIndexByWalletCurrency[wallet][currencyCt][currencyId] = disqualifications.length;\n\n        // Store candidate hash\n        candidateHashes.push(candidateHash);\n    }\n\n    //\n    // Private functions\n    // -----------------------------------------------------------------------------------------------------------------\n    function startChallengePrivate(address wallet, int256 stageAmount, address currencyCt, uint256 currencyId,\n        bool balanceReward)\n    private\n    {\n        // Require that current block number is beyond the earliest settlement challenge block number\n        require(block.number >= configuration.earliestSettlementBlockNumber());\n\n        // Require that stage amount is positive\n        require(stageAmount.isPositiveInt256());\n\n        // Require that wallet has no overlap with active proposal\n        require(hasProposalExpired(\n                wallet, currencyCt, currencyId\n            ));\n\n        uint256 activeBalanceLogEntriesCount = clientFund.activeBalanceLogEntriesCount(wallet, currencyCt, currencyId);\n\n        // Require that wallet has active balance log entries\n        require(activeBalanceLogEntriesCount > 0);\n\n        (int256 activeBalanceAmount, uint256 activeBalanceBlockNumber) = clientFund.activeBalanceLogEntry(\n            wallet, currencyCt, currencyId, activeBalanceLogEntriesCount.sub(1)\n        );\n\n        // Require that balance amount is not less than stage amount\n        require(activeBalanceAmount >= stageAmount);\n\n        // Create proposal\n        proposals.length++;\n\n        // Populate proposal\n        proposals[proposals.length - 1].wallet = wallet;\n        proposals[proposals.length - 1].nonce = ++nonce;\n        proposals[proposals.length - 1].blockNumber = activeBalanceBlockNumber;\n        proposals[proposals.length - 1].expirationTime = block.timestamp.add(configuration.settlementChallengeTimeout());\n        proposals[proposals.length - 1].status = SettlementTypesLib.Status.Qualified;\n        proposals[proposals.length - 1].currencyCt = currencyCt;\n        proposals[proposals.length - 1].currencyId = currencyId;\n        proposals[proposals.length - 1].stageAmount = stageAmount;\n        proposals[proposals.length - 1].targetBalanceAmount = activeBalanceAmount.sub(stageAmount);\n        proposals[proposals.length - 1].balanceReward = balanceReward;\n\n        // Store proposal index\n        proposalIndexByWalletCurrency[wallet][currencyCt][currencyId] = proposals.length;\n        proposalIndicesByWallet[wallet].push(proposals.length);\n\n        // Add wallet to store of challenge wallets\n        if (!challengeByWallets[wallet]) {\n            challengeByWallets[wallet] = true;\n            challengeWallets.push(wallet);\n        }\n    }\n\n    //\n    // Modifiers\n    // -----------------------------------------------------------------------------------------------------------------\n    modifier onlyNullSettlementDispute() {\n        require(msg.sender == address(nullSettlementDispute));\n        _;\n    }\n}\n",
  "sourcePath": "/Users/jensivar/workspace/hubiinetwork/nahmii-contracts/contracts/NullSettlementChallenge.sol",
  "compiler": {
    "name": "solc",
    "version": "0.4.24+commit.e67f0147.Emscripten.clang"
  },
  "schemaVersion": "2.0.0",
  "updatedAt": "2018-11-20T14:10:39.894Z"
}