{
  "contractName": "BalanceTracker",
  "abi": [
    {
      "constant": true,
      "inputs": [
        {
          "name": "service",
          "type": "address"
        }
      ],
      "name": "isRegisteredActiveService",
      "outputs": [
        {
          "name": "",
          "type": "bool"
        }
      ],
      "payable": false,
      "stateMutability": "view",
      "type": "function"
    },
    {
      "constant": false,
      "inputs": [],
      "name": "triggerSelfDestruction",
      "outputs": [],
      "payable": false,
      "stateMutability": "nonpayable",
      "type": "function"
    },
    {
      "constant": false,
      "inputs": [
        {
          "name": "service",
          "type": "address"
        },
        {
          "name": "action",
          "type": "string"
        }
      ],
      "name": "enableServiceAction",
      "outputs": [],
      "payable": false,
      "stateMutability": "nonpayable",
      "type": "function"
    },
    {
      "constant": true,
      "inputs": [
        {
          "name": "service",
          "type": "address"
        }
      ],
      "name": "isRegisteredService",
      "outputs": [
        {
          "name": "",
          "type": "bool"
        }
      ],
      "payable": false,
      "stateMutability": "view",
      "type": "function"
    },
    {
      "constant": true,
      "inputs": [],
      "name": "selfDestructionDisabled",
      "outputs": [
        {
          "name": "",
          "type": "bool"
        }
      ],
      "payable": false,
      "stateMutability": "view",
      "type": "function"
    },
    {
      "constant": false,
      "inputs": [
        {
          "name": "service",
          "type": "address"
        },
        {
          "name": "action",
          "type": "string"
        }
      ],
      "name": "disableServiceAction",
      "outputs": [],
      "payable": false,
      "stateMutability": "nonpayable",
      "type": "function"
    },
    {
      "constant": true,
      "inputs": [],
      "name": "serviceActivationTimeout",
      "outputs": [
        {
          "name": "",
          "type": "uint256"
        }
      ],
      "payable": false,
      "stateMutability": "view",
      "type": "function"
    },
    {
      "constant": true,
      "inputs": [],
      "name": "destructor",
      "outputs": [
        {
          "name": "",
          "type": "address"
        }
      ],
      "payable": false,
      "stateMutability": "view",
      "type": "function"
    },
    {
      "constant": true,
      "inputs": [],
      "name": "settledBalanceType",
      "outputs": [
        {
          "name": "",
          "type": "bytes32"
        }
      ],
      "payable": false,
      "stateMutability": "view",
      "type": "function"
    },
    {
      "constant": false,
      "inputs": [
        {
          "name": "service",
          "type": "address"
        }
      ],
      "name": "deregisterService",
      "outputs": [],
      "payable": false,
      "stateMutability": "nonpayable",
      "type": "function"
    },
    {
      "constant": true,
      "inputs": [],
      "name": "DEPOSITED_BALANCE_TYPE",
      "outputs": [
        {
          "name": "",
          "type": "string"
        }
      ],
      "payable": false,
      "stateMutability": "view",
      "type": "function"
    },
    {
      "constant": true,
      "inputs": [],
      "name": "STAGED_BALANCE_TYPE",
      "outputs": [
        {
          "name": "",
          "type": "string"
        }
      ],
      "payable": false,
      "stateMutability": "view",
      "type": "function"
    },
    {
      "constant": true,
      "inputs": [],
      "name": "operator",
      "outputs": [
        {
          "name": "",
          "type": "address"
        }
      ],
      "payable": false,
      "stateMutability": "view",
      "type": "function"
    },
    {
      "constant": true,
      "inputs": [
        {
          "name": "service",
          "type": "address"
        },
        {
          "name": "action",
          "type": "string"
        }
      ],
      "name": "isEnabledServiceAction",
      "outputs": [
        {
          "name": "",
          "type": "bool"
        }
      ],
      "payable": false,
      "stateMutability": "view",
      "type": "function"
    },
    {
      "constant": true,
      "inputs": [
        {
          "name": "",
          "type": "uint256"
        }
      ],
      "name": "_activeBalanceTypes",
      "outputs": [
        {
          "name": "",
          "type": "bytes32"
        }
      ],
      "payable": false,
      "stateMutability": "view",
      "type": "function"
    },
    {
      "constant": false,
      "inputs": [],
      "name": "disableSelfDestruction",
      "outputs": [],
      "payable": false,
      "stateMutability": "nonpayable",
      "type": "function"
    },
    {
      "constant": true,
      "inputs": [],
      "name": "stagedBalanceType",
      "outputs": [
        {
          "name": "",
          "type": "bytes32"
        }
      ],
      "payable": false,
      "stateMutability": "view",
      "type": "function"
    },
    {
      "constant": false,
      "inputs": [
        {
          "name": "timeoutInSeconds",
          "type": "uint256"
        }
      ],
      "name": "setServiceActivationTimeout",
      "outputs": [],
      "payable": false,
      "stateMutability": "nonpayable",
      "type": "function"
    },
    {
      "constant": true,
      "inputs": [
        {
          "name": "",
          "type": "address"
        }
      ],
      "name": "trackedWalletIndexByWallet",
      "outputs": [
        {
          "name": "",
          "type": "uint256"
        }
      ],
      "payable": false,
      "stateMutability": "view",
      "type": "function"
    },
    {
      "constant": false,
      "inputs": [
        {
          "name": "service",
          "type": "address"
        }
      ],
      "name": "registerServiceDeferred",
      "outputs": [],
      "payable": false,
      "stateMutability": "nonpayable",
      "type": "function"
    },
    {
      "constant": false,
      "inputs": [
        {
          "name": "newDeployer",
          "type": "address"
        }
      ],
      "name": "setDeployer",
      "outputs": [],
      "payable": false,
      "stateMutability": "nonpayable",
      "type": "function"
    },
    {
      "constant": true,
      "inputs": [
        {
          "name": "",
          "type": "uint256"
        }
      ],
      "name": "trackedBalanceTypes",
      "outputs": [
        {
          "name": "",
          "type": "bytes32"
        }
      ],
      "payable": false,
      "stateMutability": "view",
      "type": "function"
    },
    {
      "constant": true,
      "inputs": [
        {
          "name": "",
          "type": "uint256"
        }
      ],
      "name": "trackedWallets",
      "outputs": [
        {
          "name": "",
          "type": "address"
        }
      ],
      "payable": false,
      "stateMutability": "view",
      "type": "function"
    },
    {
      "constant": false,
      "inputs": [
        {
          "name": "newOperator",
          "type": "address"
        }
      ],
      "name": "setOperator",
      "outputs": [],
      "payable": false,
      "stateMutability": "nonpayable",
      "type": "function"
    },
    {
      "constant": true,
      "inputs": [
        {
          "name": "",
          "type": "uint256"
        }
      ],
      "name": "_allBalanceTypes",
      "outputs": [
        {
          "name": "",
          "type": "bytes32"
        }
      ],
      "payable": false,
      "stateMutability": "view",
      "type": "function"
    },
    {
      "constant": true,
      "inputs": [],
      "name": "SETTLED_BALANCE_TYPE",
      "outputs": [
        {
          "name": "",
          "type": "string"
        }
      ],
      "payable": false,
      "stateMutability": "view",
      "type": "function"
    },
    {
      "constant": true,
      "inputs": [
        {
          "name": "",
          "type": "bytes32"
        }
      ],
      "name": "trackedBalanceTypeMap",
      "outputs": [
        {
          "name": "",
          "type": "bool"
        }
      ],
      "payable": false,
      "stateMutability": "view",
      "type": "function"
    },
    {
      "constant": true,
      "inputs": [],
      "name": "deployer",
      "outputs": [
        {
          "name": "",
          "type": "address"
        }
      ],
      "payable": false,
      "stateMutability": "view",
      "type": "function"
    },
    {
      "constant": true,
      "inputs": [],
      "name": "depositedBalanceType",
      "outputs": [
        {
          "name": "",
          "type": "bytes32"
        }
      ],
      "payable": false,
      "stateMutability": "view",
      "type": "function"
    },
    {
      "constant": false,
      "inputs": [
        {
          "name": "service",
          "type": "address"
        }
      ],
      "name": "registerService",
      "outputs": [],
      "payable": false,
      "stateMutability": "nonpayable",
      "type": "function"
    },
    {
      "inputs": [
        {
          "name": "deployer",
          "type": "address"
        }
      ],
      "payable": false,
      "stateMutability": "nonpayable",
      "type": "constructor"
    },
    {
      "anonymous": false,
      "inputs": [
        {
          "indexed": false,
          "name": "timeoutInSeconds",
          "type": "uint256"
        }
      ],
      "name": "ServiceActivationTimeoutEvent",
      "type": "event"
    },
    {
      "anonymous": false,
      "inputs": [
        {
          "indexed": false,
          "name": "service",
          "type": "address"
        }
      ],
      "name": "RegisterServiceEvent",
      "type": "event"
    },
    {
      "anonymous": false,
      "inputs": [
        {
          "indexed": false,
          "name": "service",
          "type": "address"
        },
        {
          "indexed": false,
          "name": "timeout",
          "type": "uint256"
        }
      ],
      "name": "RegisterServiceDeferredEvent",
      "type": "event"
    },
    {
      "anonymous": false,
      "inputs": [
        {
          "indexed": false,
          "name": "service",
          "type": "address"
        }
      ],
      "name": "DeregisterServiceEvent",
      "type": "event"
    },
    {
      "anonymous": false,
      "inputs": [
        {
          "indexed": false,
          "name": "service",
          "type": "address"
        },
        {
          "indexed": false,
          "name": "action",
          "type": "string"
        }
      ],
      "name": "EnableServiceActionEvent",
      "type": "event"
    },
    {
      "anonymous": false,
      "inputs": [
        {
          "indexed": false,
          "name": "service",
          "type": "address"
        },
        {
          "indexed": false,
          "name": "action",
          "type": "string"
        }
      ],
      "name": "DisableServiceActionEvent",
      "type": "event"
    },
    {
      "anonymous": false,
      "inputs": [
        {
          "indexed": false,
          "name": "oldDeployer",
          "type": "address"
        },
        {
          "indexed": false,
          "name": "newDeployer",
          "type": "address"
        }
      ],
      "name": "SetDeployerEvent",
      "type": "event"
    },
    {
      "anonymous": false,
      "inputs": [
        {
          "indexed": false,
          "name": "oldOperator",
          "type": "address"
        },
        {
          "indexed": false,
          "name": "newOperator",
          "type": "address"
        }
      ],
      "name": "SetOperatorEvent",
      "type": "event"
    },
    {
      "anonymous": false,
      "inputs": [
        {
          "indexed": false,
          "name": "wallet",
          "type": "address"
        }
      ],
      "name": "SelfDestructionDisabledEvent",
      "type": "event"
    },
    {
      "anonymous": false,
      "inputs": [
        {
          "indexed": false,
          "name": "wallet",
          "type": "address"
        }
      ],
      "name": "TriggerSelfDestructionEvent",
      "type": "event"
    },
    {
      "constant": true,
      "inputs": [
        {
          "name": "wallet",
          "type": "address"
        },
        {
          "name": "_type",
          "type": "bytes32"
        },
        {
          "name": "currencyCt",
          "type": "address"
        },
        {
          "name": "currencyId",
          "type": "uint256"
        }
      ],
      "name": "get",
      "outputs": [
        {
          "name": "",
          "type": "int256"
        }
      ],
      "payable": false,
      "stateMutability": "view",
      "type": "function"
    },
    {
      "constant": true,
      "inputs": [
        {
          "name": "wallet",
          "type": "address"
        },
        {
          "name": "_type",
          "type": "bytes32"
        },
        {
          "name": "currencyCt",
          "type": "address"
        },
        {
          "name": "currencyId",
          "type": "uint256"
        },
        {
          "name": "indexLow",
          "type": "uint256"
        },
        {
          "name": "indexUp",
          "type": "uint256"
        }
      ],
      "name": "getByIndices",
      "outputs": [
        {
          "name": "",
          "type": "int256[]"
        }
      ],
      "payable": false,
      "stateMutability": "view",
      "type": "function"
    },
    {
      "constant": true,
      "inputs": [
        {
          "name": "wallet",
          "type": "address"
        },
        {
          "name": "_type",
          "type": "bytes32"
        },
        {
          "name": "currencyCt",
          "type": "address"
        },
        {
          "name": "currencyId",
          "type": "uint256"
        }
      ],
      "name": "getAll",
      "outputs": [
        {
          "name": "",
          "type": "int256[]"
        }
      ],
      "payable": false,
      "stateMutability": "view",
      "type": "function"
    },
    {
      "constant": true,
      "inputs": [
        {
          "name": "wallet",
          "type": "address"
        },
        {
          "name": "_type",
          "type": "bytes32"
        },
        {
          "name": "currencyCt",
          "type": "address"
        },
        {
          "name": "currencyId",
          "type": "uint256"
        }
      ],
      "name": "idsCount",
      "outputs": [
        {
          "name": "",
          "type": "uint256"
        }
      ],
      "payable": false,
      "stateMutability": "view",
      "type": "function"
    },
    {
      "constant": true,
      "inputs": [
        {
          "name": "wallet",
          "type": "address"
        },
        {
          "name": "_type",
          "type": "bytes32"
        },
        {
          "name": "id",
          "type": "int256"
        },
        {
          "name": "currencyCt",
          "type": "address"
        },
        {
          "name": "currencyId",
          "type": "uint256"
        }
      ],
      "name": "hasId",
      "outputs": [
        {
          "name": "",
          "type": "bool"
        }
      ],
      "payable": false,
      "stateMutability": "view",
      "type": "function"
    },
    {
      "constant": false,
      "inputs": [
        {
          "name": "wallet",
          "type": "address"
        },
        {
          "name": "_type",
          "type": "bytes32"
        },
        {
          "name": "value",
          "type": "int256"
        },
        {
          "name": "currencyCt",
          "type": "address"
        },
        {
          "name": "currencyId",
          "type": "uint256"
        },
        {
          "name": "fungible",
          "type": "bool"
        }
      ],
      "name": "set",
      "outputs": [],
      "payable": false,
      "stateMutability": "nonpayable",
      "type": "function"
    },
    {
      "constant": false,
      "inputs": [
        {
          "name": "wallet",
          "type": "address"
        },
        {
          "name": "_type",
          "type": "bytes32"
        },
        {
          "name": "ids",
          "type": "int256[]"
        },
        {
          "name": "currencyCt",
          "type": "address"
        },
        {
          "name": "currencyId",
          "type": "uint256"
        }
      ],
      "name": "setIds",
      "outputs": [],
      "payable": false,
      "stateMutability": "nonpayable",
      "type": "function"
    },
    {
      "constant": false,
      "inputs": [
        {
          "name": "wallet",
          "type": "address"
        },
        {
          "name": "_type",
          "type": "bytes32"
        },
        {
          "name": "value",
          "type": "int256"
        },
        {
          "name": "currencyCt",
          "type": "address"
        },
        {
          "name": "currencyId",
          "type": "uint256"
        },
        {
          "name": "fungible",
          "type": "bool"
        }
      ],
      "name": "add",
      "outputs": [],
      "payable": false,
      "stateMutability": "nonpayable",
      "type": "function"
    },
    {
      "constant": false,
      "inputs": [
        {
          "name": "wallet",
          "type": "address"
        },
        {
          "name": "_type",
          "type": "bytes32"
        },
        {
          "name": "value",
          "type": "int256"
        },
        {
          "name": "currencyCt",
          "type": "address"
        },
        {
          "name": "currencyId",
          "type": "uint256"
        },
        {
          "name": "fungible",
          "type": "bool"
        }
      ],
      "name": "sub",
      "outputs": [],
      "payable": false,
      "stateMutability": "nonpayable",
      "type": "function"
    },
    {
      "constant": true,
      "inputs": [
        {
          "name": "wallet",
          "type": "address"
        },
        {
          "name": "_type",
          "type": "bytes32"
        },
        {
          "name": "currencyCt",
          "type": "address"
        },
        {
          "name": "currencyId",
          "type": "uint256"
        }
      ],
      "name": "hasInUseCurrency",
      "outputs": [
        {
          "name": "",
          "type": "bool"
        }
      ],
      "payable": false,
      "stateMutability": "view",
      "type": "function"
    },
    {
      "constant": true,
      "inputs": [
        {
          "name": "wallet",
          "type": "address"
        },
        {
          "name": "_type",
          "type": "bytes32"
        },
        {
          "name": "currencyCt",
          "type": "address"
        },
        {
          "name": "currencyId",
          "type": "uint256"
        }
      ],
      "name": "hasEverUsedCurrency",
      "outputs": [
        {
          "name": "",
          "type": "bool"
        }
      ],
      "payable": false,
      "stateMutability": "view",
      "type": "function"
    },
    {
      "constant": true,
      "inputs": [
        {
          "name": "wallet",
          "type": "address"
        },
        {
          "name": "_type",
          "type": "bytes32"
        },
        {
          "name": "currencyCt",
          "type": "address"
        },
        {
          "name": "currencyId",
          "type": "uint256"
        }
      ],
      "name": "fungibleRecordsCount",
      "outputs": [
        {
          "name": "",
          "type": "uint256"
        }
      ],
      "payable": false,
      "stateMutability": "view",
      "type": "function"
    },
    {
      "constant": true,
      "inputs": [
        {
          "name": "wallet",
          "type": "address"
        },
        {
          "name": "_type",
          "type": "bytes32"
        },
        {
          "name": "currencyCt",
          "type": "address"
        },
        {
          "name": "currencyId",
          "type": "uint256"
        },
        {
          "name": "index",
          "type": "uint256"
        }
      ],
      "name": "fungibleRecordByIndex",
      "outputs": [
        {
          "name": "amount",
          "type": "int256"
        },
        {
          "name": "blockNumber",
          "type": "uint256"
        }
      ],
      "payable": false,
      "stateMutability": "view",
      "type": "function"
    },
    {
      "constant": true,
      "inputs": [
        {
          "name": "wallet",
          "type": "address"
        },
        {
          "name": "_type",
          "type": "bytes32"
        },
        {
          "name": "currencyCt",
          "type": "address"
        },
        {
          "name": "currencyId",
          "type": "uint256"
        },
        {
          "name": "_blockNumber",
          "type": "uint256"
        }
      ],
      "name": "fungibleRecordByBlockNumber",
      "outputs": [
        {
          "name": "amount",
          "type": "int256"
        },
        {
          "name": "blockNumber",
          "type": "uint256"
        }
      ],
      "payable": false,
      "stateMutability": "view",
      "type": "function"
    },
    {
      "constant": true,
      "inputs": [
        {
          "name": "wallet",
          "type": "address"
        },
        {
          "name": "_type",
          "type": "bytes32"
        },
        {
          "name": "currencyCt",
          "type": "address"
        },
        {
          "name": "currencyId",
          "type": "uint256"
        }
      ],
      "name": "lastFungibleRecord",
      "outputs": [
        {
          "name": "amount",
          "type": "int256"
        },
        {
          "name": "blockNumber",
          "type": "uint256"
        }
      ],
      "payable": false,
      "stateMutability": "view",
      "type": "function"
    },
    {
      "constant": true,
      "inputs": [
        {
          "name": "wallet",
          "type": "address"
        },
        {
          "name": "_type",
          "type": "bytes32"
        },
        {
          "name": "currencyCt",
          "type": "address"
        },
        {
          "name": "currencyId",
          "type": "uint256"
        }
      ],
      "name": "nonFungibleRecordsCount",
      "outputs": [
        {
          "name": "",
          "type": "uint256"
        }
      ],
      "payable": false,
      "stateMutability": "view",
      "type": "function"
    },
    {
      "constant": true,
      "inputs": [
        {
          "name": "wallet",
          "type": "address"
        },
        {
          "name": "_type",
          "type": "bytes32"
        },
        {
          "name": "currencyCt",
          "type": "address"
        },
        {
          "name": "currencyId",
          "type": "uint256"
        },
        {
          "name": "index",
          "type": "uint256"
        }
      ],
      "name": "nonFungibleRecordByIndex",
      "outputs": [
        {
          "name": "ids",
          "type": "int256[]"
        },
        {
          "name": "blockNumber",
          "type": "uint256"
        }
      ],
      "payable": false,
      "stateMutability": "view",
      "type": "function"
    },
    {
      "constant": true,
      "inputs": [
        {
          "name": "wallet",
          "type": "address"
        },
        {
          "name": "_type",
          "type": "bytes32"
        },
        {
          "name": "currencyCt",
          "type": "address"
        },
        {
          "name": "currencyId",
          "type": "uint256"
        },
        {
          "name": "_blockNumber",
          "type": "uint256"
        }
      ],
      "name": "nonFungibleRecordByBlockNumber",
      "outputs": [
        {
          "name": "ids",
          "type": "int256[]"
        },
        {
          "name": "blockNumber",
          "type": "uint256"
        }
      ],
      "payable": false,
      "stateMutability": "view",
      "type": "function"
    },
    {
      "constant": true,
      "inputs": [
        {
          "name": "wallet",
          "type": "address"
        },
        {
          "name": "_type",
          "type": "bytes32"
        },
        {
          "name": "currencyCt",
          "type": "address"
        },
        {
          "name": "currencyId",
          "type": "uint256"
        }
      ],
      "name": "lastNonFungibleRecord",
      "outputs": [
        {
          "name": "ids",
          "type": "int256[]"
        },
        {
          "name": "blockNumber",
          "type": "uint256"
        }
      ],
      "payable": false,
      "stateMutability": "view",
      "type": "function"
    },
    {
      "constant": true,
      "inputs": [],
      "name": "trackedBalanceTypesCount",
      "outputs": [
        {
          "name": "",
          "type": "uint256"
        }
      ],
      "payable": false,
      "stateMutability": "view",
      "type": "function"
    },
    {
      "constant": true,
      "inputs": [],
      "name": "trackedWalletsCount",
      "outputs": [
        {
          "name": "",
          "type": "uint256"
        }
      ],
      "payable": false,
      "stateMutability": "view",
      "type": "function"
    },
    {
      "constant": true,
      "inputs": [],
      "name": "allBalanceTypes",
      "outputs": [
        {
          "name": "",
          "type": "bytes32[]"
        }
      ],
      "payable": false,
      "stateMutability": "view",
      "type": "function"
    },
    {
      "constant": true,
      "inputs": [],
      "name": "activeBalanceTypes",
      "outputs": [
        {
          "name": "",
          "type": "bytes32[]"
        }
      ],
      "payable": false,
      "stateMutability": "view",
      "type": "function"
    },
    {
      "constant": true,
      "inputs": [
        {
          "name": "low",
          "type": "uint256"
        },
        {
          "name": "up",
          "type": "uint256"
        }
      ],
      "name": "trackedWalletsByIndices",
      "outputs": [
        {
          "name": "",
          "type": "address[]"
        }
      ],
      "payable": false,
      "stateMutability": "view",
      "type": "function"
    }
  ],
  "bytecode": "0x60806040523480156200001157600080fd5b5060405160208062003a5f83398101604052518080600160a060020a03811615156200003c57600080fd5b600160a060020a0381163014156200005357600080fd5b506000805461010060a860020a031916610100600160a060020a039390931692830217905560018054600160a060020a031916909117905560408051808201825260098082527f6465706f73697465640000000000000000000000000000000000000000000000602080840191825293519293929092019182918083835b60208310620000f25780518252601f199092019160209182019101620000d1565b6001836020036101000a0380198251168184511680821785525050505050509050019150506040516020818303038152906040526040518082805190602001908083835b60208310620001575780518252601f19909201916020918201910162000136565b51815160209384036101000a600019018019909216911617905260408051929094018290038220600455818401845260078083527f736574746c656400000000000000000000000000000000000000000000000000838301908152945192965091019350839291508083835b60208310620001e45780518252601f199092019160209182019101620001c3565b6001836020036101000a0380198251168184511680821785525050505050509050019150506040516020818303038152906040526040518082805190602001908083835b60208310620002495780518252601f19909201916020918201910162000228565b51815160209384036101000a600019018019909216911617905260408051929094018290038220600555818401845260068083527f7374616765640000000000000000000000000000000000000000000000000000838301908152945192965091019350839291508083835b60208310620002d65780518252601f199092019160209182019101620002b5565b6001836020036101000a0380198251168184511680821785525050505050509050019150506040516020818303038152906040526040518082805190602001908083835b602083106200033b5780518252601f1990920191602091820191016200031a565b5181516000196020949094036101000a93909301928316921916919091179052604051920182900390912060069081556005805460078054600181810183557fa66cc928b5edb82af9bd49922954155ab7b0942694bea4ce44661d9a8736c68891820193909355600480548354808601855583015594548254808501909355910155905460088054808401825560008290527ff3f7a9fe364faab93b216da50a3214154f22a0a2b415b23a84c8169e8b636ee3908101929092559254835492830190935501555050505061364a80620004156000396000f30060806040526004361061026e5763ffffffff60e060020a600035041663091a194b811461027357806312b9486a146102b35780631743d99f146102fd57806317ba3f90146103865780632738a112146103bb5780632b5672e3146103d25780632b91e0a9146104395780632f013a001461045a578063383aac891461046f5780633b58c501146104da5780633b7bea6c146105415780634476d23b146105565780634652ec741461058757806350b08c021461059c5780635106c203146105bd578063528162c214610647578063570ca7351461065c57806357ebc4e11461067157806359624806146106865780635df1b0a3146106b857806362d099a21461071f5780636f4a18151461074d5780636fdf5b791461077b57806370327ea11461079357806371f4ec51146107a857806373ac3024146107d6578063781069141461080457806379d6373c1461087c5780637d7a23aa146108915780637e15dd5c146108c85780638b4dd808146108e05780638e8cef121461090157806395b5269714610922578063962147351461095057806399acf79414610971578063a246138c14610989578063a9e93a9f146109ba578063abccebce146109ee578063ad10e48c14610a1f578063b3ab15fb14610a37578063b8a92a5514610a58578063b95ae1cd14610a70578063bd59b4b614610aa7578063c60c5b6c14610ad5578063d062ec1d14610aea578063d0df4d9d14610b21578063d2f50b4b14610b39578063d5f3948814610b67578063ded1131014610b7c578063e47da35214610b91578063ec3aa67e14610ba6578063f0a2240414610bbb578063fd9b97f514610bec578063fdd9ec7d14610c01575b600080fd5b34801561027f57600080fd5b506102a1600160a060020a036004358116906024359060443516606435610c22565b60408051918252519081900360200190f35b3480156102bf57600080fd5b506102e4600160a060020a036004358116906024359060443516606435608435610c61565b6040805192835260208301919091528051918290030190f35b34801561030957600080fd5b5061032b600160a060020a036004358116906024359060443516606435610ca6565b6040518080602001838152602001828103825284818151815260200191508051906020019060200280838360005b83811015610371578181015183820152602001610359565b50505050905001935050505060405180910390f35b34801561039257600080fd5b506103a7600160a060020a0360043516610cee565b604080519115158252519081900360200190f35b3480156103c757600080fd5b506103d0610d26565b005b3480156103de57600080fd5b5060408051602060046024803582810135601f81018590048502860185019096528585526103d0958335600160a060020a0316953695604494919390910191908190840183828082843750949750610d889650505050505050565b34801561044557600080fd5b506103a7600160a060020a0360043516610f23565b34801561046657600080fd5b506103a7610f41565b34801561047b57600080fd5b5061048a600435602435610f4a565b60408051602080825283518183015283519192839290830191858101910280838360005b838110156104c65781810151838201526020016104ae565b505050509050019250505060405180910390f35b3480156104e657600080fd5b5060408051602060046024803582810135601f81018590048502860185019096528585526103d0958335600160a060020a03169536956044949193909101919081908401838280828437509497506110979650505050505050565b34801561054d57600080fd5b506102a16111ac565b34801561056257600080fd5b5061056b6111b2565b60408051600160a060020a039092168252519081900360200190f35b34801561059357600080fd5b506102a16111c7565b3480156105a857600080fd5b506103d0600160a060020a03600435166111cd565b3480156105c957600080fd5b506105d261128c565b6040805160208082528351818301528351919283929083019185019080838360005b8381101561060c5781810151838201526020016105f4565b50505050905090810190601f1680156106395780820380516001836020036101000a031916815260200191505b509250505060405180910390f35b34801561065357600080fd5b506105d26112b2565b34801561066857600080fd5b5061056b6112d5565b34801561067d57600080fd5b506102a16112e4565b34801561069257600080fd5b506103a7600160a060020a036004358116906024359060443590606435166084356112ea565b3480156106c457600080fd5b5060408051602060046024803582810135601f81018590048502860185019096528585526103a7958335600160a060020a031695369560449491939091019190819084018382808284375094975061132c9650505050505050565b34801561072b57600080fd5b506103a7600160a060020a03600435811690602435906044351660643561137b565b34801561075957600080fd5b506102e4600160a060020a0360043581169060243590604435166064356113ec565b34801561078757600080fd5b506102a1600435611422565b34801561079f57600080fd5b506103d0611441565b3480156107b457600080fd5b506102a1600160a060020a03600435811690602435906044351660643561149f565b3480156107e257600080fd5b506103a7600160a060020a0360043581169060243590604435166064356114d3565b34801561081057600080fd5b5060408051602060046044358181013583810280860185019096528085526103d0958335600160a060020a031695602480359636969560649593949201929182918501908490808284375094975050508335600160a060020a0316945050506020909101359050611544565b34801561088857600080fd5b506102a16115a9565b34801561089d57600080fd5b506103d0600160a060020a0360043581169060243590604435906064351660843560a43515156115af565b3480156108d457600080fd5b506103d060043561164e565b3480156108ec57600080fd5b506102a1600160a060020a036004351661169c565b34801561090d57600080fd5b506103d0600160a060020a03600435166116ae565b34801561092e57600080fd5b506102a1600160a060020a036004358116906024359060443516606435611744565b34801561095c57600080fd5b506103d0600160a060020a036004351661177b565b34801561097d57600080fd5b506102a1600435611847565b34801561099557600080fd5b506102e4600160a060020a036004358116906024359060443516606435608435611855565b3480156109c657600080fd5b5061048a600160a060020a03600435811690602435906044351660643560843560a43561188c565b3480156109fa57600080fd5b5061032b600160a060020a0360043581169060243590604435166064356084356118d3565b348015610a2b57600080fd5b5061056b60043561190f565b348015610a4357600080fd5b506103d0600160a060020a0360043516611937565b348015610a6457600080fd5b506102a16004356119f4565b348015610a7c57600080fd5b506103d0600160a060020a0360043581169060243590604435906064351660843560a4351515611a02565b348015610ab357600080fd5b506102a1600160a060020a036004358116906024359060443516606435611a99565b348015610ae157600080fd5b506105d2611ad0565b348015610af657600080fd5b506103d0600160a060020a0360043581169060243590604435906064351660843560a4351515611af4565b348015610b2d57600080fd5b506103a7600435611b7b565b348015610b4557600080fd5b5061048a600160a060020a036004358116906024359060443516606435611b90565b348015610b7357600080fd5b5061056b611bca565b348015610b8857600080fd5b506102a1611bde565b348015610b9d57600080fd5b5061048a611be4565b348015610bb257600080fd5b5061048a611c3d565b348015610bc757600080fd5b5061032b600160a060020a036004358116906024359060443516606435608435611c94565b348015610bf857600080fd5b506102a1611cd0565b348015610c0d57600080fd5b506103d0600160a060020a0360043516611cd6565b600160a060020a0384166000908152600b602090815260408083208684529091528120610c5690848463ffffffff611d6016565b90505b949350505050565b600160a060020a0385166000908152600b6020908152604080832087845290915281208190610c989086868663ffffffff611d8d16565b915091509550959350505050565b600160a060020a0384166000908152600b60209081526040808320868452600101909152812060609190610ce190858563ffffffff611ed516565b9150915094509492505050565b6000610cf982610f23565b8015610d205750600160a060020a0382166000908152600260205260409020600101544210155b92915050565b33610d2f6111b2565b600160a060020a031614610d4257600080fd5b60005460ff1615610d5257600080fd5b6040805133815290517f787a5d936e74f4b564b9153575886059829c78cd9927b1be5e0d976b317ef7369181900360200190a133ff5b6000610d92611fce565b1515610d9d57600080fd5b82600160a060020a0381161515610db357600080fd5b600160a060020a038116301415610dc957600080fd5b600160a060020a03841660009081526002602052604090205460ff161515610df057600080fd5b610df983611fe4565b600160a060020a0385166000908152600260208181526040808420858552909201905290205490925060ff1615610e2f57600080fd5b600160a060020a03841660008181526002602081815260408084208785528084018352818520805460ff19166001908117909155938352600301805493840181558452818420909201869055815193845283810182815287519285019290925286517fec1b982d69bfc1a6fd8becf191d9a633486c822d3bdedd52303ca81fa635750194899489949193919260608501928601918190849084905b83811015610ee2578181015183820152602001610eca565b50505050905090810190601f168015610f0f5780820380516001836020036101000a031916815260200191505b50935050505060405180910390a150505050565b600160a060020a031660009081526002602052604090205460ff1690565b60005460ff1681565b600c5460609081906000908110610f6057600080fd5b83851115610f6d57600080fd5b600c546040805160e060020a63700f1a770281526004810187905260001990920160248301525173__SafeMathUintLib_______________________9163700f1a77916044808301926020929190829003018186803b158015610fcf57600080fd5b505af4158015610fe3573d6000803e3d6000fd5b505050506040513d6020811015610ff957600080fd5b5051604080516001888403018082526020818102830101909252919550801561102c578160200160208202803883390190505b5091508490505b83811161108f57600c80548290811061104857fe5b6000918252602090912001548251600160a060020a0390911690839087840390811061107057fe5b600160a060020a03909216602092830290910190910152600101611033565b509392505050565b60006110a1611fce565b15156110ac57600080fd5b82600160a060020a03811615156110c257600080fd5b600160a060020a0381163014156110d857600080fd5b6110e183611fe4565b600160a060020a0385166000908152600260208181526040808420858552909201905290205490925060ff16151561111857600080fd5b600160a060020a03841660008181526002602081815260408084208785529092018152818320805460ff19169055815193845283810182815287519285019290925286517f92f4af6130f47c92f3899e06611c8c6ef191fb81207ad2675d134af619d2fe7d948994899491939192606085019286019181908490849083811015610ee2578181015183820152602001610eca565b60035481565b6000546101009004600160a060020a03165b90565b60055481565b6111d5611fce565b15156111e057600080fd5b80600160a060020a03811615156111f657600080fd5b600160a060020a03811630141561120c57600080fd5b600160a060020a03821660009081526002602052604090205460ff16151561123357600080fd5b600160a060020a038216600081815260026020908152604091829020805460ff19169055815192835290517f777645c5437dfbf962f57a281ead25f3d513f2f8e938685bbfc1738e81c9880e9281900390910190a15050565b604080518082019091526009815260ba60020a6819195c1bdcda5d195902602082015281565b604080518082019091526006815260d260020a651cdd1859d95902602082015281565b600154600160a060020a031681565b60095490565b600160a060020a0385166000908152600b6020908152604080832087845260010190915281206113229085858563ffffffff6120ae16565b9695505050505050565b60008061133883611fe4565b905061134384610cee565b8015610c595750600160a060020a0384166000908152600260208181526040808420858552909201905290205460ff16949350505050565b600160a060020a0384166000908152600b6020908152604080832086845290915281206113af90848463ffffffff6120e516565b80610c565750600160a060020a0385166000908152600b602090815260408083208784526001019091529020610c5690848463ffffffff6120fb16565b600160a060020a0384166000908152600b6020908152604080832086845290915281208190610ce190858563ffffffff61211116565b600880548290811061143057fe5b600091825260209091200154905081565b3361144a6111b2565b600160a060020a03161461145d57600080fd5b6000805460ff191660011790556040805133815290517fd5a2a04a775c741c2ca0dc46ea7ce4835190e1aaf1ca018def0e82568ec336169181900360200190a1565b600160a060020a0384166000908152600b602090815260408083208684529091528120610c5690848463ffffffff6121a916565b600160a060020a0384166000908152600b60209081526040808320868452909152812061150790848463ffffffff6121d116565b80610c565750600160a060020a0385166000908152600b602090815260408083208784526001019091529020610c5690848463ffffffff6121e716565b61154d33610cee565b151561155857600080fd5b600160a060020a0385166000908152600b6020908152604080832087845260010190915290206115909084848463ffffffff6121fd16565b61159984612439565b6115a2856124a2565b5050505050565b60065481565b6115b833610cee565b15156115c357600080fd5b801561160357600160a060020a0386166000908152600b6020908152604080832088845290915290206115fe9085858563ffffffff61251d16565b61163d565b600160a060020a0386166000908152600b60209081526040808320888452600101909152902061163b9085858563ffffffff6125ce16565b505b611646866124a2565b505050505050565b611656611fce565b151561166157600080fd5b60038190556040805182815290517f4f1d324a1cbffc352fb64f1d73d95e4b200d92f99ef39bf2d7f5b41f946909d69181900360200190a150565b600d6020526000908152604090205481565b6116b6611fce565b15156116c157600080fd5b80600160a060020a03811615156116d757600080fd5b600160a060020a0381163014156116ed57600080fd5b6116f98260035461284f565b60035460408051600160a060020a0385168152602081019290925280517f7f3a8349917003ed377f6e9ae1608b92edd893903f8983bd274b1f8373dd3b119281900390910190a15050565b600160a060020a0384166000908152600b602090815260408083208684526001019091528120610c5690848463ffffffff6128a116565b6000611785611fce565b151561179057600080fd5b81600160a060020a03811615156117a657600080fd5b600160a060020a0381163014156117bc57600080fd5b600054600160a060020a0384811661010090920416146118425760008054600160a060020a0385811661010081810261010060a860020a0319851617909455604080519490930491909116808452602084019190915281519094507f977e5fa58e458501775e0008d275006294c5249e3c08d1d0e3a9f3acad14f6e49281900390910190a15b505050565b600980548290811061143057fe5b600160a060020a0385166000908152600b6020908152604080832087845290915281208190610c989086868663ffffffff6128ce16565b600160a060020a0386166000908152600b6020908152604080832088845260010190915290206060906118c8908686868663ffffffff61290e16565b979650505050505050565b600160a060020a0385166000908152600b60209081526040808320878452600101909152812060609190610c989086868663ffffffff612aa416565b600c80548290811061191d57fe5b600091825260209091200154600160a060020a0316905081565b6000611941612ae4565b151561194c57600080fd5b81600160a060020a038116151561196257600080fd5b600160a060020a03811630141561197857600080fd5b600154600160a060020a038481169116146118425760018054600160a060020a03858116600160a060020a0319831681179093556040805191909216808252602082019390935281519294507f9f611b789425d0d5b90b920f1b2852907dd865c80074a30b1629aaa041d1812c929081900390910190a1505050565b600780548290811061143057fe5b611a0b33610cee565b1515611a1657600080fd5b8015611a5657600160a060020a0386166000908152600b602090815260408083208884529091529020611a519085858563ffffffff612af516565b611a90565b600160a060020a0386166000908152600b602090815260408083208884526001019091529020611a8e9085858563ffffffff612b2716565b505b61163d85612439565b600160a060020a0384166000908152600b602090815260408083208684526001019091528120610c5690848463ffffffff6121a916565b604080518082019091526007815260ca60020a661cd95d1d1b195902602082015281565b611afd33610cee565b1515611b0857600080fd5b8015611b4357600160a060020a0386166000908152600b602090815260408083208884529091529020611a519085858563ffffffff612c8016565b600160a060020a0386166000908152600b602090815260408083208884526001019091529020611a909085858563ffffffff612cf716565b600a6020526000908152604090205460ff1681565b600160a060020a0384166000908152600b602090815260408083208684526001019091529020606090610c5690848463ffffffff612d3f16565b6000546101009004600160a060020a031681565b60045481565b60606008805480602002602001604051908101604052809291908181526020018280548015611c3357602002820191906000526020600020905b81548152600190910190602001808311611c1e575b5050505050905090565b60606007805480602002602001604051908101604052809291908181526020018280548015611c33576020028201919060005260206000209081548152600190910190602001808311611c1e575050505050905090565b600160a060020a0385166000908152600b60209081526040808320878452600101909152812060609190610c989086868663ffffffff612db316565b600c5490565b611cde611fce565b1515611ce957600080fd5b80600160a060020a0381161515611cff57600080fd5b600160a060020a038116301415611d1557600080fd5b611d2082600061284f565b60408051600160a060020a038416815290517fb619d545cb511bd5f02907a1eac4f4cb8dace7b1846852fb0bf5e553937481c19181900360200190a15050565b600160a060020a038216600090815260018401602090815260408083208484529091529020549392505050565b600160a060020a03831660009081526001850160209081526040808320858452909152812054819081901515611dc95760009250829150611ecb565b600160a060020a0386166000908152600188016020908152604080832088845282529182902054825160e060020a63700f1a77028152600481018890526000199091016024820152915173__SafeMathUintLib_______________________9263700f1a77926044808301939192829003018186803b158015611e4b57600080fd5b505af4158015611e5f573d6000803e3d6000fd5b505050506040513d6020811015611e7557600080fd5b5051600160a060020a03871660009081526001890160209081526040808320898452909152902080549195509085908110611eac57fe5b9060005260206000209060020201905080600001548160010154925092505b5094509492505050565b600160a060020a038216600090815260028401602090815260408083208484529091528120546060919081901515611f20576040805160008082526020820190925293509150611fc5565b600160a060020a03851660009081526002870160209081526040808320878452909152902080546000198101908110611f5557fe5b9060005260206000209060020201905080600001816001015481805480602002602001604051908101604052809291908181526020018280548015611fb957602002820191906000526020600020905b815481526020019060010190808311611fa5575b50505050509150925092505b50935093915050565b6000546101009004600160a060020a0316331490565b6000816040516020018082805190602001908083835b602083106120195780518252601f199092019160209182019101611ffa565b6001836020036101000a0380198251168184511680821785525050505050509050019150506040516020818303038152906040526040518082805190602001908083835b6020831061207c5780518252601f19909201916020918201910161205d565b5181516020939093036101000a6000190180199091169216919091179052604051920182900390912095945050505050565b600160a060020a03821660009081526001850160209081526040808320848452825280832086845290915281205411949350505050565b6000610c5960048501848463ffffffff612f5a16565b6000610c5960058501848463ffffffff612f5a16565b600160a060020a0382166000908152600184016020908152604080832084845290915281205481908190151561214d5760009250829150611fc5565b600160a060020a0385166000908152600187016020908152604080832087845290915290208054600019810190811061218257fe5b90600052602060002090600202019050806000015481600101549250925050935093915050565b600160a060020a03919091166000908152602092835260408082209282529190925290205490565b6000610c5960028501848463ffffffff612f5a16565b6000610c5960038501848463ffffffff612f5a16565b60005b600160a060020a03831660009081526020868152604080832085845290915290205481101561229557600160a060020a038316600081815260018701602090815260408083208684528252808320938352888252808320868452909152812080549192918391908590811061227157fe5b60009182526020808320909101548352820192909252604001902055600101612200565b600160a060020a038316600090815260208681526040808320858452825290912085516122c49287019061353e565b50600090505b600160a060020a03831660009081526020868152604080832085845290915290205481101561236057600160a060020a03831660008181526001878101602090815260408084208785528252808420948452898252808420878552909152822080549185019392918590811061233c57fe5b600091825260208083209091015483528201929092526040019020556001016122ca565b600160a060020a03831660008181526002870160209081526040808320868452825280832081519484528983528184208785528352928190208054606093810286018401835291850182815293949384939092908401828280156123e357602002820191906000526020600020905b8154815260200190600101908083116123cf575b505050918352505043602091820152825460018101808555600094855293829020835180516002909302909101926124209284929091019061353e565b50602082015181600101555050506115a2858484612f89565b6000818152600a602052604090205460ff16151561249f576000818152600a60205260408120805460ff191660019081179091556009805491820181559091527f6e1540171b6c0c960b71a7020d9f60077f6af931a8bbf590da0223dacf75c7af018190555b50565b600160a060020a0381166000908152600d6020526040902054151561249f57600c80546001810182557fdf6966c971051c3d54ec59162606531493a51404a002842f56009d7e5cf4a8c7018054600160a060020a031916600160a060020a03939093169283179055546000918252600d602052604090912055565b600160a060020a03821660009081526020858152604080832084845290915290205461254f908463ffffffff61302716565b600160a060020a0383166000818152602087815260408083208684528083528184208690559383526001808a0183528184208785528352818420825180840190935294835294815243818301908152845480870186559484529190922091516002909302909101918255519101556125c8848383613063565b50505050565b600160a060020a03821660009081526001850160209081526040808320848452825280832086845290915281205480151561260c5760009150612846565b600160a060020a03841660009081526020878152604080832086845290915290205481101561271657600160a060020a03841660009081526020878152604080832086845290915290208054600019810190811061266657fe5b6000918252602080832090910154600160a060020a038716835288825260408084208785529092529120805460001984019081106126a057fe5b6000918252602080832090910192909255600160a060020a038616808252600189018352604080832087845284528083209183528984528083208784529093529181208054849392919060001985019081106126f857fe5b90600052602060002001548152602001908152602001600020819055505b600160a060020a0384166000908152602087815260408083208684529091529020805490612748906000198301613589565b50600160a060020a038416600081815260018801602090815260408083208784528252808320898452825280832083905583835260028a018252808320878452825280832081519484528a83528184208885528352928190208054606093810286018401835291850182815293949384939092908401828280156127eb57602002820191906000526020600020905b8154815260200190600101908083116127d7575b505050918352505043602091820152825460018101808555600094855293829020835180516002909302909101926128289284929091019061353e565b5060208201518160010155505050612841868585612f89565b600191505b50949350505050565b600160a060020a03821660009081526002602052604090205460ff16151561289d57600160a060020a0382166000908152600260205260409020805460ff1916600190811782554283019101555b5050565b600160a060020a038216600090815260028401602090815260408083208484529091529020549392505050565b60008060006128df878787876130fc565b9050806000106128f157600080612900565b61290087878760018503611d8d565b925092505094509492505050565b600160a060020a03841660009081526020868152604080832086845290915281205460609182911515612951576040805160008152602081019091529250612a99565b600160a060020a03871660009081526020898152604080832089845282529182902054825160e060020a63700f1a77028152600481018890526000199091016024820152915173__SafeMathUintLib_______________________9263700f1a77926044808301939192829003018186803b1580156129cf57600080fd5b505af41580156129e3573d6000803e3d6000fd5b505050506040513d60208110156129f957600080fd5b50516040805160018884030180825260208181028301019092529195508015612a2c578160200160208202803883390190505b5091508490505b83811015612a9557600160a060020a0387166000908152602089815260408083208984529091529020805482908110612a6857fe5b906000526020600020015482868303815181101515612a8357fe5b60209081029091010152600101612a33565b8192505b505095945050505050565b6060600080612ab5878787876131d2565b905080600010612ad5576040805160008082526020820190925290612900565b61290087878760018503612db3565b600154600160a060020a0316331490565b600160a060020a03821660009081526020858152604080832084845290915290205461254f908463ffffffff61329c16565b600160a060020a038216600090815260018501602090815260408083208484528252808320868452909152812054811015612b6457506000610c59565b600160a060020a0383166000818152602087815260408083208684528083528184208054600181810183558287528587209091018b90558154878752908c01855283862089875285528386208b8752855283862081905595855260028b0184528285208886528452828520835195899052918452606093860285018401835291840185815290948493919291840182828015612c1f57602002820191906000526020600020905b815481526020019060010190808311612c0b575b50505091835250504360209182015282546001810180855560009485529382902083518051600290930290910192612c5c9284929091019061353e565b5060208201518160010155505050612c75858484612f89565b506001949350505050565b600160a060020a03821660008181526020868152604080832085845280835281842088905593835260018089018352818420868552835281842082518084019093529483528782524382840190815285548083018755958552929093209051600290940201928355519101556125c8848383613063565b6040805160018082528183019092526060916020808301908038833901905050905083816000815181101515612d2957fe5b602090810290910101526115a2858285856121fd565b600160a060020a038216600090815260208481526040808320848452825291829020805483518184028101840190945280845260609392830182828015612da557602002820191906000526020600020905b815481526020019060010190808311612d91575b505050505090509392505050565b600160a060020a038316600090815260028501602090815260408083208584529091528120546060919081901515612dfe576040805160008082526020820190925293509150611ecb565b600160a060020a0386166000908152600288016020908152604080832088845282529182902054825160e060020a63700f1a77028152600481018890526000199091016024820152915173__SafeMathUintLib_______________________9263700f1a77926044808301939192829003018186803b158015612e8057600080fd5b505af4158015612e94573d6000803e3d6000fd5b505050506040513d6020811015612eaa57600080fd5b5051600160a060020a03871660009081526002890160209081526040808320898452909152902080549195509085908110612ee157fe5b9060005260206000209060020201905080600001816001015481805480602002602001604051908101604052809291908181526020018280548015612f4557602002820191906000526020600020905b815481526020019060010190808311612f31575b50505050509150925092505094509492505050565b600160a060020a0382166000908152600184016020908152604080832084845290915290205415159392505050565b600160a060020a038216600090815260208481526040808320848452909152902054158015612fc75750612fc760038401838363ffffffff612f5a16565b15612fe557612fe060038401838363ffffffff6132d816565b611842565b612ff960038401838363ffffffff612f5a16565b15156118425761301360038401838363ffffffff61331316565b61184260058401838363ffffffff61331316565b600080821215801561303b57508282840313155b806130525750600082128015613052575082828403135b151561305d57600080fd5b50900390565b600160a060020a0382166000908152602084815260408083208484529091529020541580156130a157506130a160028401838363ffffffff612f5a16565b156130ba57612fe060028401838363ffffffff6132d816565b6130ce60028401838363ffffffff612f5a16565b1515611842576130e860028401838363ffffffff61331316565b61184260048401838363ffffffff61331316565b600160a060020a03831660009081526001850160209081526040808320858452909152812054819015156131335760009150612846565b50600160a060020a038416600090815260018601602090815260408083208684529091529020545b60008111156131c657600160a060020a0385166000908152600187016020908152604080832087845290915290208054849190600019840190811061319c57fe5b9060005260206000209060020201600101541115156131bd57809150612846565b6000190161315b565b50600095945050505050565b600160a060020a03831660009081526002850160209081526040808320858452909152812054819015156132095760009150612846565b50600160a060020a038416600090815260028601602090815260408083208684529091529020545b60008111156131c657600160a060020a0385166000908152600287016020908152604080832087845290915290208054849190600019840190811061327257fe5b90600052602060002090600202016001015411151561329357809150612846565b60001901613231565b60008282018183128015906132b15750838112155b806132c657506000831280156132c657508381125b15156132d157600080fd5b9392505050565b600160a060020a03821660009081526001840160209081526040808320848452909152812054908111156125c8576125c884600183036133b1565b600160a060020a03821660009081526001840160209081526040808320848452909152902054151561184257604080518082018252600160a060020a039384168082526020808301858152875460018082018a5560008a8152848120965160029093029096018054600160a060020a031916929099169190911788559051968101969096558654918352949095018452818120928152919092522055565b8154600090819083106133c357600080fd5b83548490849081106133d157fe5b60009182526020909120600290910201548454600160a060020a0390911692508490849081106133fd57fe5b60009182526020909120600160029092020101548454909150600019018310156134ff5783548490600019810190811061343357fe5b9060005260206000209060020201846000018481548110151561345257fe5b60009182526020822083546002909202018054600160a060020a031916600160a060020a0390921691909117815560019283015490830155855485830192870191908790879081106134a057fe5b60009182526020808320600290920290910154600160a060020a03168352820192909252604001812086549091908790879081106134da57fe5b9060005260206000209060020201600101548152602001908152602001600020819055505b835461350f8560001983016135ad565b50600160a060020a03909116600090815260019093016020908152604080852092855291905282209190915550565b828054828255906000526020600020908101928215613579579160200282015b8281111561357957825182559160200191906001019061355e565b506135859291506135d9565b5090565b815481835581811115611842576000838152602090206118429181019083016135d9565b8154818355818111156118425760020281600202836000526020600020918201910161184291906135f3565b6111c491905b8082111561358557600081556001016135df565b6111c491905b80821115613585578054600160a060020a0319168155600060018201556002016135f95600a165627a7a72305820b0ed3c97d0d98063facf38d20f0f1c4c6a74d03c5e0201b3173f34897c46f13c0029",
  "source": "/*\n * Hubii Nahmii\n *\n * Compliant with the Hubii Nahmii specification v0.12.\n *\n * Copyright (C) 2017-2018 Hubii AS\n */\n\npragma solidity ^0.4.25;\n\nimport {Ownable} from \"./Ownable.sol\";\nimport {Servable} from \"./Servable.sol\";\nimport {SafeMathIntLib} from \"./SafeMathIntLib.sol\";\nimport {SafeMathUintLib} from \"./SafeMathUintLib.sol\";\nimport {FungibleBalanceLib} from \"./FungibleBalanceLib.sol\";\nimport {NonFungibleBalanceLib} from \"./NonFungibleBalanceLib.sol\";\n\n/**\n * @title Balance tracker\n * @notice An ownable to track balances of generic types\n */\ncontract BalanceTracker is Ownable, Servable {\n    using SafeMathIntLib for int256;\n    using SafeMathUintLib for uint256;\n    using FungibleBalanceLib for FungibleBalanceLib.Balance;\n    using NonFungibleBalanceLib for NonFungibleBalanceLib.Balance;\n\n    //\n    // Constants\n    // -----------------------------------------------------------------------------------------------------------------\n    string constant public DEPOSITED_BALANCE_TYPE = \"deposited\";\n    string constant public SETTLED_BALANCE_TYPE = \"settled\";\n    string constant public STAGED_BALANCE_TYPE = \"staged\";\n\n    //\n    // Structures\n    // -----------------------------------------------------------------------------------------------------------------\n    struct Wallet {\n        mapping(bytes32 => FungibleBalanceLib.Balance) fungibleBalanceByType;\n        mapping(bytes32 => NonFungibleBalanceLib.Balance) nonFungibleBalanceByType;\n    }\n\n    //\n    // Variables\n    // -----------------------------------------------------------------------------------------------------------------\n    bytes32 public depositedBalanceType;\n    bytes32 public settledBalanceType;\n    bytes32 public stagedBalanceType;\n\n    bytes32[] public _allBalanceTypes;\n    bytes32[] public _activeBalanceTypes;\n\n    bytes32[] public trackedBalanceTypes;\n    mapping(bytes32 => bool) public trackedBalanceTypeMap;\n\n    mapping(address => Wallet) private walletMap;\n\n    address[] public trackedWallets;\n    mapping(address => uint256) public trackedWalletIndexByWallet;\n\n    //\n    // Constructor\n    // -----------------------------------------------------------------------------------------------------------------\n    constructor(address deployer) Ownable(deployer)\n    public\n    {\n        depositedBalanceType = keccak256(abi.encodePacked(DEPOSITED_BALANCE_TYPE));\n        settledBalanceType = keccak256(abi.encodePacked(SETTLED_BALANCE_TYPE));\n        stagedBalanceType = keccak256(abi.encodePacked(STAGED_BALANCE_TYPE));\n\n        _allBalanceTypes.push(settledBalanceType);\n        _allBalanceTypes.push(depositedBalanceType);\n        _allBalanceTypes.push(stagedBalanceType);\n\n        _activeBalanceTypes.push(settledBalanceType);\n        _activeBalanceTypes.push(depositedBalanceType);\n    }\n\n    //\n    // Functions\n    // -----------------------------------------------------------------------------------------------------------------\n    /// @notice Get the fungible balance (amount) of the given wallet, type and currency\n    /// @param wallet The address of the concerned wallet\n    /// @param _type The balance type\n    /// @param currencyCt The address of the concerned currency contract (address(0) == ETH)\n    /// @param currencyId The ID of the concerned currency (0 for ETH and ERC20)\n    /// @return The stored balance\n    function get(address wallet, bytes32 _type, address currencyCt, uint256 currencyId)\n    public\n    view\n    returns (int256)\n    {\n        return walletMap[wallet].fungibleBalanceByType[_type].get(currencyCt, currencyId);\n    }\n\n    /// @notice Get the non-fungible balance (IDs) of the given wallet, type, currency and index range\n    /// @param wallet The address of the concerned wallet\n    /// @param _type The balance type\n    /// @param currencyCt The address of the concerned currency contract (address(0) == ETH)\n    /// @param currencyId The ID of the concerned currency (0 for ETH and ERC20)\n    /// @param indexLow The lower index of IDs\n    /// @param indexUp The upper index of IDs\n    /// @return The stored balance\n    function getByIndices(address wallet, bytes32 _type, address currencyCt, uint256 currencyId,\n        uint256 indexLow, uint256 indexUp)\n    public\n    view\n    returns (int256[])\n    {\n        return walletMap[wallet].nonFungibleBalanceByType[_type].getByIndices(\n            currencyCt, currencyId, indexLow, indexUp\n        );\n    }\n\n    /// @notice Get all the non-fungible balance (IDs) of the given wallet, type and currency\n    /// @param wallet The address of the concerned wallet\n    /// @param _type The balance type\n    /// @param currencyCt The address of the concerned currency contract (address(0) == ETH)\n    /// @param currencyId The ID of the concerned currency (0 for ETH and ERC20)\n    /// @return The stored balance\n    function getAll(address wallet, bytes32 _type, address currencyCt, uint256 currencyId)\n    public\n    view\n    returns (int256[])\n    {\n        return walletMap[wallet].nonFungibleBalanceByType[_type].get(\n            currencyCt, currencyId\n        );\n    }\n\n    /// @notice Get the count of non-fungible IDs of the given wallet, type and currency\n    /// @param wallet The address of the concerned wallet\n    /// @param _type The balance type\n    /// @param currencyCt The address of the concerned currency contract (address(0) == ETH)\n    /// @param currencyId The ID of the concerned currency (0 for ETH and ERC20)\n    /// @return The count of IDs\n    function idsCount(address wallet, bytes32 _type, address currencyCt, uint256 currencyId)\n    public\n    view\n    returns (uint256)\n    {\n        return walletMap[wallet].nonFungibleBalanceByType[_type].idsCount(\n            currencyCt, currencyId\n        );\n    }\n\n    /// @notice Gauge whether the ID is included in the given wallet, type and currency\n    /// @param wallet The address of the concerned wallet\n    /// @param _type The balance type\n    /// @param id The ID of the concerned unit\n    /// @param currencyCt The address of the concerned currency contract (address(0) == ETH)\n    /// @param currencyId The ID of the concerned currency (0 for ETH and ERC20)\n    /// @return true if ID is included, else false\n    function hasId(address wallet, bytes32 _type, int256 id, address currencyCt, uint256 currencyId)\n    public\n    view\n    returns (bool)\n    {\n        return walletMap[wallet].nonFungibleBalanceByType[_type].hasId(\n            id, currencyCt, currencyId\n        );\n    }\n\n    /// @notice Set the balance of the given wallet, type and currency to the given value\n    /// @param wallet The address of the concerned wallet\n    /// @param _type The balance type\n    /// @param value The value (amount of fungible, id of non-fungible) to set\n    /// @param currencyCt The address of the concerned currency contract (address(0) == ETH)\n    /// @param currencyId The ID of the concerned currency (0 for ETH and ERC20)\n    /// @param fungible True if setting fungible balance, else false\n    function set(address wallet, bytes32 _type, int256 value, address currencyCt, uint256 currencyId, bool fungible)\n    public\n    onlyActiveService\n    {\n        // Update the balance\n        if (fungible)\n            walletMap[wallet].fungibleBalanceByType[_type].set(\n                value, currencyCt, currencyId\n            );\n\n        else\n            walletMap[wallet].nonFungibleBalanceByType[_type].set(\n                value, currencyCt, currencyId\n            );\n\n        // Update balance type hashes\n        _updateTrackedBalanceTypes(_type);\n\n        // Update tracked wallets\n        _updateTrackedWallets(wallet);\n    }\n\n    /// @notice Set the non-fungible balance IDs of the given wallet, type and currency to the given value\n    /// @param wallet The address of the concerned wallet\n    /// @param _type The balance type\n    /// @param ids The ids of non-fungible) to set\n    /// @param currencyCt The address of the concerned currency contract (address(0) == ETH)\n    /// @param currencyId The ID of the concerned currency (0 for ETH and ERC20)\n    function setIds(address wallet, bytes32 _type, int256[] ids, address currencyCt, uint256 currencyId)\n    public\n    onlyActiveService\n    {\n        // Update the balance\n        walletMap[wallet].nonFungibleBalanceByType[_type].set(\n            ids, currencyCt, currencyId\n        );\n\n        // Update balance type hashes\n        _updateTrackedBalanceTypes(_type);\n\n        // Update tracked wallets\n        _updateTrackedWallets(wallet);\n    }\n\n    /// @notice Add the given value to the balance of the given wallet, type and currency\n    /// @param wallet The address of the concerned wallet\n    /// @param _type The balance type\n    /// @param value The value (amount of fungible, id of non-fungible) to add\n    /// @param currencyCt The address of the concerned currency contract (address(0) == ETH)\n    /// @param currencyId The ID of the concerned currency (0 for ETH and ERC20)\n    /// @param fungible True if adding fungible balance, else false\n    function add(address wallet, bytes32 _type, int256 value, address currencyCt, uint256 currencyId,\n        bool fungible)\n    public\n    onlyActiveService\n    {\n        // Update the balance\n        if (fungible)\n            walletMap[wallet].fungibleBalanceByType[_type].add(\n                value, currencyCt, currencyId\n            );\n        else\n            walletMap[wallet].nonFungibleBalanceByType[_type].add(\n                value, currencyCt, currencyId\n            );\n\n        // Update balance type hashes\n        _updateTrackedBalanceTypes(_type);\n\n        // Update tracked wallets\n        _updateTrackedWallets(wallet);\n    }\n\n    /// @notice Subtract the given value from the balance of the given wallet, type and currency\n    /// @param wallet The address of the concerned wallet\n    /// @param _type The balance type\n    /// @param value The value (amount of fungible, id of non-fungible) to subtract\n    /// @param currencyCt The address of the concerned currency contract (address(0) == ETH)\n    /// @param currencyId The ID of the concerned currency (0 for ETH and ERC20)\n    /// @param fungible True if subtracting fungible balance, else false\n    function sub(address wallet, bytes32 _type, int256 value, address currencyCt, uint256 currencyId,\n        bool fungible)\n    public\n    onlyActiveService\n    {\n        // Update the balance\n        if (fungible)\n            walletMap[wallet].fungibleBalanceByType[_type].sub(\n                value, currencyCt, currencyId\n            );\n        else\n            walletMap[wallet].nonFungibleBalanceByType[_type].sub(\n                value, currencyCt, currencyId\n            );\n\n        // Update tracked wallets\n        _updateTrackedWallets(wallet);\n    }\n\n    /// @notice Gauge whether this tracker has in-use data for the given wallet, type and currency\n    /// @param wallet The address of the concerned wallet\n    /// @param _type The balance type\n    /// @param currencyCt The address of the concerned currency contract (address(0) == ETH)\n    /// @param currencyId The ID of the concerned currency (0 for ETH and ERC20)\n    /// @return true if data is stored, else false\n    function hasInUseCurrency(address wallet, bytes32 _type, address currencyCt, uint256 currencyId)\n    public\n    view\n    returns (bool)\n    {\n        return walletMap[wallet].fungibleBalanceByType[_type].hasInUseCurrency(currencyCt, currencyId)\n        || walletMap[wallet].nonFungibleBalanceByType[_type].hasInUseCurrency(currencyCt, currencyId);\n    }\n\n    /// @notice Gauge whether this tracker has ever-used data for the given wallet, type and currency\n    /// @param wallet The address of the concerned wallet\n    /// @param _type The balance type\n    /// @param currencyCt The address of the concerned currency contract (address(0) == ETH)\n    /// @param currencyId The ID of the concerned currency (0 for ETH and ERC20)\n    /// @return true if data is stored, else false\n    function hasEverUsedCurrency(address wallet, bytes32 _type, address currencyCt, uint256 currencyId)\n    public\n    view\n    returns (bool)\n    {\n        return walletMap[wallet].fungibleBalanceByType[_type].hasEverUsedCurrency(currencyCt, currencyId)\n        || walletMap[wallet].nonFungibleBalanceByType[_type].hasEverUsedCurrency(currencyCt, currencyId);\n    }\n\n    /// @notice Get the count of fungible balance records for the given wallet, type and currency\n    /// @param wallet The address of the concerned wallet\n    /// @param _type The balance type\n    /// @param currencyCt The address of the concerned currency contract (address(0) == ETH)\n    /// @param currencyId The ID of the concerned currency (0 for ETH and ERC20)\n    /// @return The count of balance log entries\n    function fungibleRecordsCount(address wallet, bytes32 _type, address currencyCt, uint256 currencyId)\n    public\n    view\n    returns (uint256)\n    {\n        return walletMap[wallet].fungibleBalanceByType[_type].recordsCount(currencyCt, currencyId);\n    }\n\n    /// @notice Get the fungible balance record for the given wallet, type, currency\n    /// log entry index\n    /// @param wallet The address of the concerned wallet\n    /// @param _type The balance type\n    /// @param currencyCt The address of the concerned currency contract (address(0) == ETH)\n    /// @param currencyId The ID of the concerned currency (0 for ETH and ERC20)\n    /// @param index The concerned record index\n    /// @return The balance record\n    function fungibleRecordByIndex(address wallet, bytes32 _type, address currencyCt, uint256 currencyId,\n        uint256 index)\n    public\n    view\n    returns (int256 amount, uint256 blockNumber)\n    {\n        return walletMap[wallet].fungibleBalanceByType[_type].recordByIndex(currencyCt, currencyId, index);\n    }\n\n    /// @notice Get the non-fungible balance record for the given wallet, type, currency\n    /// block number\n    /// @param wallet The address of the concerned wallet\n    /// @param _type The balance type\n    /// @param currencyCt The address of the concerned currency contract (address(0) == ETH)\n    /// @param currencyId The ID of the concerned currency (0 for ETH and ERC20)\n    /// @param _blockNumber The concerned block number\n    /// @return The balance record\n    function fungibleRecordByBlockNumber(address wallet, bytes32 _type, address currencyCt, uint256 currencyId,\n        uint256 _blockNumber)\n    public\n    view\n    returns (int256 amount, uint256 blockNumber)\n    {\n        return walletMap[wallet].fungibleBalanceByType[_type].recordByBlockNumber(currencyCt, currencyId, _blockNumber);\n    }\n\n    /// @notice Get the last (most recent) non-fungible balance record for the given wallet, type and currency\n    /// @param wallet The address of the concerned wallet\n    /// @param _type The balance type\n    /// @param currencyCt The address of the concerned currency contract (address(0) == ETH)\n    /// @param currencyId The ID of the concerned currency (0 for ETH and ERC20)\n    /// @return The last log entry\n    function lastFungibleRecord(address wallet, bytes32 _type, address currencyCt, uint256 currencyId)\n    public\n    view\n    returns (int256 amount, uint256 blockNumber)\n    {\n        return walletMap[wallet].fungibleBalanceByType[_type].lastRecord(currencyCt, currencyId);\n    }\n\n    /// @notice Get the count of non-fungible balance records for the given wallet, type and currency\n    /// @param wallet The address of the concerned wallet\n    /// @param _type The balance type\n    /// @param currencyCt The address of the concerned currency contract (address(0) == ETH)\n    /// @param currencyId The ID of the concerned currency (0 for ETH and ERC20)\n    /// @return The count of balance log entries\n    function nonFungibleRecordsCount(address wallet, bytes32 _type, address currencyCt, uint256 currencyId)\n    public\n    view\n    returns (uint256)\n    {\n        return walletMap[wallet].nonFungibleBalanceByType[_type].recordsCount(currencyCt, currencyId);\n    }\n\n    /// @notice Get the non-fungible balance record for the given wallet, type, currency\n    /// and record index\n    /// @param wallet The address of the concerned wallet\n    /// @param _type The balance type\n    /// @param currencyCt The address of the concerned currency contract (address(0) == ETH)\n    /// @param currencyId The ID of the concerned currency (0 for ETH and ERC20)\n    /// @param index The concerned record index\n    /// @return The balance record\n    function nonFungibleRecordByIndex(address wallet, bytes32 _type, address currencyCt, uint256 currencyId,\n        uint256 index)\n    public\n    view\n    returns (int256[] ids, uint256 blockNumber)\n    {\n        return walletMap[wallet].nonFungibleBalanceByType[_type].recordByIndex(currencyCt, currencyId, index);\n    }\n\n    /// @notice Get the non-fungible balance record for the given wallet, type, currency\n    /// and block number\n    /// @param wallet The address of the concerned wallet\n    /// @param _type The balance type\n    /// @param currencyCt The address of the concerned currency contract (address(0) == ETH)\n    /// @param currencyId The ID of the concerned currency (0 for ETH and ERC20)\n    /// @param _blockNumber The concerned block number\n    /// @return The balance record\n    function nonFungibleRecordByBlockNumber(address wallet, bytes32 _type, address currencyCt, uint256 currencyId,\n        uint256 _blockNumber)\n    public\n    view\n    returns (int256[] ids, uint256 blockNumber)\n    {\n        return walletMap[wallet].nonFungibleBalanceByType[_type].recordByBlockNumber(currencyCt, currencyId, _blockNumber);\n    }\n\n    /// @notice Get the last (most recent) non-fungible balance record for the given wallet, type and currency\n    /// @param wallet The address of the concerned wallet\n    /// @param _type The balance type\n    /// @param currencyCt The address of the concerned currency contract (address(0) == ETH)\n    /// @param currencyId The ID of the concerned currency (0 for ETH and ERC20)\n    /// @return The last log entry\n    function lastNonFungibleRecord(address wallet, bytes32 _type, address currencyCt, uint256 currencyId)\n    public\n    view\n    returns (int256[] ids, uint256 blockNumber)\n    {\n        return walletMap[wallet].nonFungibleBalanceByType[_type].lastRecord(currencyCt, currencyId);\n    }\n\n    /// @notice Get the count of tracked balance types\n    /// @return The count of tracked balance types\n    function trackedBalanceTypesCount()\n    public\n    view\n    returns (uint256)\n    {\n        return trackedBalanceTypes.length;\n    }\n\n    /// @notice Get the count of tracked wallets\n    /// @return The count of tracked wallets\n    function trackedWalletsCount()\n    public\n    view\n    returns (uint256)\n    {\n        return trackedWallets.length;\n    }\n\n    /// @notice Get the default full set of balance types\n    /// @return The set of all balance types\n    function allBalanceTypes()\n    public\n    view\n    returns (bytes32[])\n    {\n        return _allBalanceTypes;\n    }\n\n    /// @notice Get the default set of active balance types\n    /// @return The set of active balance types\n    function activeBalanceTypes()\n    public\n    view\n    returns (bytes32[])\n    {\n        return _activeBalanceTypes;\n    }\n\n    /// @notice Get the subset of tracked wallets in the given index range\n    /// @param low The lower index\n    /// @param up The upper index\n    /// @return The subset of tracked wallets\n    function trackedWalletsByIndices(uint256 low, uint256 up)\n    public\n    view\n    returns (address[])\n    {\n        require(0 < trackedWallets.length);\n        require(low <= up);\n\n        up = up.clampMax(trackedWallets.length - 1);\n        address[] memory _trackedWallets = new address[](up - low + 1);\n        for (uint256 i = low; i <= up; i++)\n            _trackedWallets[i - low] = trackedWallets[i];\n\n        return _trackedWallets;\n    }\n\n    //\n    // Private functions\n    // -----------------------------------------------------------------------------------------------------------------\n    function _updateTrackedBalanceTypes(bytes32 _type)\n    private\n    {\n        if (!trackedBalanceTypeMap[_type]) {\n            trackedBalanceTypeMap[_type] = true;\n            trackedBalanceTypes.push(_type);\n        }\n    }\n\n    function _updateTrackedWallets(address wallet)\n    private\n    {\n        if (0 == trackedWalletIndexByWallet[wallet]) {\n            trackedWallets.push(wallet);\n            trackedWalletIndexByWallet[wallet] = trackedWallets.length;\n        }\n    }\n}",
  "sourcePath": "/opt/buildagent/work/855e104608380c36/contracts/BalanceTracker.sol",
  "compiler": {
    "name": "solc",
    "version": "0.4.25+commit.59dbf8f1.Emscripten.clang"
  },
  "schemaVersion": "2.0.1",
  "updatedAt": "2018-12-21T12:49:49.925Z"
}