{
  "contractName": "ClientFund",
  "abi": [
    {
      "constant": false,
      "inputs": [
        {
          "name": "service",
          "type": "address"
        }
      ],
      "name": "authorizeRegisteredService",
      "outputs": [],
      "payable": false,
      "stateMutability": "nonpayable",
      "type": "function"
    },
    {
      "constant": true,
      "inputs": [
        {
          "name": "beneficiary",
          "type": "address"
        }
      ],
      "name": "isRegisteredBeneficiary",
      "outputs": [
        {
          "name": "",
          "type": "bool"
        }
      ],
      "payable": false,
      "stateMutability": "view",
      "type": "function"
    },
    {
      "constant": true,
      "inputs": [
        {
          "name": "service",
          "type": "address"
        },
        {
          "name": "action",
          "type": "string"
        },
        {
          "name": "wallet",
          "type": "address"
        }
      ],
      "name": "isAuthorizedRegisteredServiceAction",
      "outputs": [
        {
          "name": "",
          "type": "bool"
        }
      ],
      "payable": false,
      "stateMutability": "view",
      "type": "function"
    },
    {
      "constant": true,
      "inputs": [
        {
          "name": "service",
          "type": "address"
        }
      ],
      "name": "isRegisteredActiveService",
      "outputs": [
        {
          "name": "",
          "type": "bool"
        }
      ],
      "payable": false,
      "stateMutability": "view",
      "type": "function"
    },
    {
      "constant": true,
      "inputs": [],
      "name": "balanceTracker",
      "outputs": [
        {
          "name": "",
          "type": "address"
        }
      ],
      "payable": false,
      "stateMutability": "view",
      "type": "function"
    },
    {
      "constant": true,
      "inputs": [
        {
          "name": "",
          "type": "address"
        }
      ],
      "name": "initialServiceAuthorizedMap",
      "outputs": [
        {
          "name": "",
          "type": "bool"
        }
      ],
      "payable": false,
      "stateMutability": "view",
      "type": "function"
    },
    {
      "constant": false,
      "inputs": [
        {
          "name": "beneficiary",
          "type": "address"
        }
      ],
      "name": "deregisterBeneficiary",
      "outputs": [
        {
          "name": "",
          "type": "bool"
        }
      ],
      "payable": false,
      "stateMutability": "nonpayable",
      "type": "function"
    },
    {
      "constant": true,
      "inputs": [],
      "name": "walletLockerFrozen",
      "outputs": [
        {
          "name": "",
          "type": "bool"
        }
      ],
      "payable": false,
      "stateMutability": "view",
      "type": "function"
    },
    {
      "constant": false,
      "inputs": [],
      "name": "triggerSelfDestruction",
      "outputs": [],
      "payable": false,
      "stateMutability": "nonpayable",
      "type": "function"
    },
    {
      "constant": false,
      "inputs": [
        {
          "name": "service",
          "type": "address"
        },
        {
          "name": "action",
          "type": "string"
        }
      ],
      "name": "enableServiceAction",
      "outputs": [],
      "payable": false,
      "stateMutability": "nonpayable",
      "type": "function"
    },
    {
      "constant": true,
      "inputs": [
        {
          "name": "service",
          "type": "address"
        }
      ],
      "name": "isRegisteredService",
      "outputs": [
        {
          "name": "",
          "type": "bool"
        }
      ],
      "payable": false,
      "stateMutability": "view",
      "type": "function"
    },
    {
      "constant": true,
      "inputs": [],
      "name": "selfDestructionDisabled",
      "outputs": [
        {
          "name": "",
          "type": "bool"
        }
      ],
      "payable": false,
      "stateMutability": "view",
      "type": "function"
    },
    {
      "constant": false,
      "inputs": [
        {
          "name": "service",
          "type": "address"
        },
        {
          "name": "action",
          "type": "string"
        }
      ],
      "name": "disableServiceAction",
      "outputs": [],
      "payable": false,
      "stateMutability": "nonpayable",
      "type": "function"
    },
    {
      "constant": true,
      "inputs": [],
      "name": "serviceActivationTimeout",
      "outputs": [
        {
          "name": "",
          "type": "uint256"
        }
      ],
      "payable": false,
      "stateMutability": "view",
      "type": "function"
    },
    {
      "constant": true,
      "inputs": [],
      "name": "balanceTrackerFrozen",
      "outputs": [
        {
          "name": "",
          "type": "bool"
        }
      ],
      "payable": false,
      "stateMutability": "view",
      "type": "function"
    },
    {
      "constant": true,
      "inputs": [],
      "name": "destructor",
      "outputs": [
        {
          "name": "",
          "type": "address"
        }
      ],
      "payable": false,
      "stateMutability": "view",
      "type": "function"
    },
    {
      "constant": false,
      "inputs": [
        {
          "name": "service",
          "type": "address"
        }
      ],
      "name": "authorizeInitialService",
      "outputs": [],
      "payable": false,
      "stateMutability": "nonpayable",
      "type": "function"
    },
    {
      "constant": false,
      "inputs": [
        {
          "name": "service",
          "type": "address"
        }
      ],
      "name": "deregisterService",
      "outputs": [],
      "payable": false,
      "stateMutability": "nonpayable",
      "type": "function"
    },
    {
      "constant": true,
      "inputs": [],
      "name": "operator",
      "outputs": [
        {
          "name": "",
          "type": "address"
        }
      ],
      "payable": false,
      "stateMutability": "view",
      "type": "function"
    },
    {
      "constant": true,
      "inputs": [
        {
          "name": "service",
          "type": "address"
        },
        {
          "name": "wallet",
          "type": "address"
        }
      ],
      "name": "isAuthorizedRegisteredService",
      "outputs": [
        {
          "name": "",
          "type": "bool"
        }
      ],
      "payable": false,
      "stateMutability": "view",
      "type": "function"
    },
    {
      "constant": false,
      "inputs": [
        {
          "name": "newBalanceTracker",
          "type": "address"
        }
      ],
      "name": "setBalanceTracker",
      "outputs": [],
      "payable": false,
      "stateMutability": "nonpayable",
      "type": "function"
    },
    {
      "constant": false,
      "inputs": [],
      "name": "freezeWalletLocker",
      "outputs": [],
      "payable": false,
      "stateMutability": "nonpayable",
      "type": "function"
    },
    {
      "constant": true,
      "inputs": [
        {
          "name": "service",
          "type": "address"
        },
        {
          "name": "action",
          "type": "string"
        }
      ],
      "name": "isEnabledServiceAction",
      "outputs": [
        {
          "name": "",
          "type": "bool"
        }
      ],
      "payable": false,
      "stateMutability": "view",
      "type": "function"
    },
    {
      "constant": false,
      "inputs": [
        {
          "name": "service",
          "type": "address"
        },
        {
          "name": "action",
          "type": "string"
        }
      ],
      "name": "authorizeRegisteredServiceAction",
      "outputs": [],
      "payable": false,
      "stateMutability": "nonpayable",
      "type": "function"
    },
    {
      "constant": true,
      "inputs": [
        {
          "name": "",
          "type": "address"
        },
        {
          "name": "",
          "type": "address"
        }
      ],
      "name": "initialServiceWalletUnauthorizedMap",
      "outputs": [
        {
          "name": "",
          "type": "bool"
        }
      ],
      "payable": false,
      "stateMutability": "view",
      "type": "function"
    },
    {
      "constant": true,
      "inputs": [],
      "name": "registeredBeneficiariesCount",
      "outputs": [
        {
          "name": "",
          "type": "uint256"
        }
      ],
      "payable": false,
      "stateMutability": "view",
      "type": "function"
    },
    {
      "constant": true,
      "inputs": [
        {
          "name": "",
          "type": "address"
        },
        {
          "name": "",
          "type": "bytes32"
        },
        {
          "name": "",
          "type": "address"
        }
      ],
      "name": "serviceActionWalletTouchedMap",
      "outputs": [
        {
          "name": "",
          "type": "bool"
        }
      ],
      "payable": false,
      "stateMutability": "view",
      "type": "function"
    },
    {
      "constant": false,
      "inputs": [],
      "name": "disableSelfDestruction",
      "outputs": [],
      "payable": false,
      "stateMutability": "nonpayable",
      "type": "function"
    },
    {
      "constant": true,
      "inputs": [
        {
          "name": "",
          "type": "address"
        },
        {
          "name": "",
          "type": "address"
        }
      ],
      "name": "serviceWalletAuthorizedMap",
      "outputs": [
        {
          "name": "",
          "type": "bool"
        }
      ],
      "payable": false,
      "stateMutability": "view",
      "type": "function"
    },
    {
      "constant": true,
      "inputs": [],
      "name": "tokenHolderRevenueFund",
      "outputs": [
        {
          "name": "",
          "type": "address"
        }
      ],
      "payable": false,
      "stateMutability": "view",
      "type": "function"
    },
    {
      "constant": false,
      "inputs": [
        {
          "name": "timeoutInSeconds",
          "type": "uint256"
        }
      ],
      "name": "setServiceActivationTimeout",
      "outputs": [],
      "payable": false,
      "stateMutability": "nonpayable",
      "type": "function"
    },
    {
      "constant": true,
      "inputs": [],
      "name": "initialServiceAuthorizationDisabled",
      "outputs": [
        {
          "name": "",
          "type": "bool"
        }
      ],
      "payable": false,
      "stateMutability": "view",
      "type": "function"
    },
    {
      "constant": true,
      "inputs": [
        {
          "name": "",
          "type": "address"
        },
        {
          "name": "",
          "type": "bytes32"
        },
        {
          "name": "",
          "type": "address"
        }
      ],
      "name": "serviceActionWalletAuthorizedMap",
      "outputs": [
        {
          "name": "",
          "type": "bool"
        }
      ],
      "payable": false,
      "stateMutability": "view",
      "type": "function"
    },
    {
      "constant": false,
      "inputs": [
        {
          "name": "newWalletLocker",
          "type": "address"
        }
      ],
      "name": "setWalletLocker",
      "outputs": [],
      "payable": false,
      "stateMutability": "nonpayable",
      "type": "function"
    },
    {
      "constant": false,
      "inputs": [],
      "name": "freezeTransactionTracker",
      "outputs": [],
      "payable": false,
      "stateMutability": "nonpayable",
      "type": "function"
    },
    {
      "constant": true,
      "inputs": [],
      "name": "transactionTrackerFrozen",
      "outputs": [
        {
          "name": "",
          "type": "bool"
        }
      ],
      "payable": false,
      "stateMutability": "view",
      "type": "function"
    },
    {
      "constant": false,
      "inputs": [
        {
          "name": "service",
          "type": "address"
        },
        {
          "name": "action",
          "type": "string"
        }
      ],
      "name": "unauthorizeRegisteredServiceAction",
      "outputs": [],
      "payable": false,
      "stateMutability": "nonpayable",
      "type": "function"
    },
    {
      "constant": false,
      "inputs": [
        {
          "name": "service",
          "type": "address"
        }
      ],
      "name": "registerServiceDeferred",
      "outputs": [],
      "payable": false,
      "stateMutability": "nonpayable",
      "type": "function"
    },
    {
      "constant": false,
      "inputs": [
        {
          "name": "newDeployer",
          "type": "address"
        }
      ],
      "name": "setDeployer",
      "outputs": [],
      "payable": false,
      "stateMutability": "nonpayable",
      "type": "function"
    },
    {
      "constant": false,
      "inputs": [
        {
          "name": "service",
          "type": "address"
        }
      ],
      "name": "unauthorizeRegisteredService",
      "outputs": [],
      "payable": false,
      "stateMutability": "nonpayable",
      "type": "function"
    },
    {
      "constant": true,
      "inputs": [],
      "name": "transactionTracker",
      "outputs": [
        {
          "name": "",
          "type": "address"
        }
      ],
      "payable": false,
      "stateMutability": "view",
      "type": "function"
    },
    {
      "constant": true,
      "inputs": [],
      "name": "transferControllerManager",
      "outputs": [
        {
          "name": "",
          "type": "address"
        }
      ],
      "payable": false,
      "stateMutability": "view",
      "type": "function"
    },
    {
      "constant": false,
      "inputs": [
        {
          "name": "newOperator",
          "type": "address"
        }
      ],
      "name": "setOperator",
      "outputs": [],
      "payable": false,
      "stateMutability": "nonpayable",
      "type": "function"
    },
    {
      "constant": false,
      "inputs": [],
      "name": "freezeBalanceTracker",
      "outputs": [],
      "payable": false,
      "stateMutability": "nonpayable",
      "type": "function"
    },
    {
      "constant": true,
      "inputs": [
        {
          "name": "",
          "type": "uint256"
        }
      ],
      "name": "seizedWallets",
      "outputs": [
        {
          "name": "",
          "type": "address"
        }
      ],
      "payable": false,
      "stateMutability": "view",
      "type": "function"
    },
    {
      "constant": false,
      "inputs": [
        {
          "name": "beneficiary",
          "type": "address"
        }
      ],
      "name": "registerBeneficiary",
      "outputs": [
        {
          "name": "",
          "type": "bool"
        }
      ],
      "payable": false,
      "stateMutability": "nonpayable",
      "type": "function"
    },
    {
      "constant": false,
      "inputs": [
        {
          "name": "newTransactionTracker",
          "type": "address"
        }
      ],
      "name": "setTransactionTracker",
      "outputs": [],
      "payable": false,
      "stateMutability": "nonpayable",
      "type": "function"
    },
    {
      "constant": false,
      "inputs": [
        {
          "name": "newTransferControllerManager",
          "type": "address"
        }
      ],
      "name": "setTransferControllerManager",
      "outputs": [],
      "payable": false,
      "stateMutability": "nonpayable",
      "type": "function"
    },
    {
      "constant": true,
      "inputs": [],
      "name": "deployer",
      "outputs": [
        {
          "name": "",
          "type": "address"
        }
      ],
      "payable": false,
      "stateMutability": "view",
      "type": "function"
    },
    {
      "constant": true,
      "inputs": [
        {
          "name": "",
          "type": "address"
        }
      ],
      "name": "seizedByWallet",
      "outputs": [
        {
          "name": "",
          "type": "bool"
        }
      ],
      "payable": false,
      "stateMutability": "view",
      "type": "function"
    },
    {
      "constant": false,
      "inputs": [],
      "name": "disableInitialServiceAuthorization",
      "outputs": [],
      "payable": false,
      "stateMutability": "nonpayable",
      "type": "function"
    },
    {
      "constant": true,
      "inputs": [
        {
          "name": "",
          "type": "address"
        },
        {
          "name": "",
          "type": "address"
        },
        {
          "name": "",
          "type": "uint256"
        }
      ],
      "name": "serviceWalletActionList",
      "outputs": [
        {
          "name": "",
          "type": "bytes32"
        }
      ],
      "payable": false,
      "stateMutability": "view",
      "type": "function"
    },
    {
      "constant": true,
      "inputs": [],
      "name": "walletLocker",
      "outputs": [
        {
          "name": "",
          "type": "address"
        }
      ],
      "payable": false,
      "stateMutability": "view",
      "type": "function"
    },
    {
      "constant": false,
      "inputs": [
        {
          "name": "service",
          "type": "address"
        }
      ],
      "name": "registerService",
      "outputs": [],
      "payable": false,
      "stateMutability": "nonpayable",
      "type": "function"
    },
    {
      "inputs": [
        {
          "name": "deployer",
          "type": "address"
        }
      ],
      "payable": false,
      "stateMutability": "nonpayable",
      "type": "constructor"
    },
    {
      "payable": true,
      "stateMutability": "payable",
      "type": "fallback"
    },
    {
      "anonymous": false,
      "inputs": [
        {
          "indexed": false,
          "name": "oldTokenHolderRevenueFund",
          "type": "address"
        },
        {
          "indexed": false,
          "name": "newTokenHolderRevenueFund",
          "type": "address"
        }
      ],
      "name": "SetTokenHolderRevenueFundEvent",
      "type": "event"
    },
    {
      "anonymous": false,
      "inputs": [
        {
          "indexed": false,
          "name": "wallet",
          "type": "address"
        },
        {
          "indexed": false,
          "name": "balanceType",
          "type": "string"
        },
        {
          "indexed": false,
          "name": "value",
          "type": "int256"
        },
        {
          "indexed": false,
          "name": "currencyCt",
          "type": "address"
        },
        {
          "indexed": false,
          "name": "currencyId",
          "type": "uint256"
        },
        {
          "indexed": false,
          "name": "standard",
          "type": "string"
        }
      ],
      "name": "ReceiveEvent",
      "type": "event"
    },
    {
      "anonymous": false,
      "inputs": [
        {
          "indexed": false,
          "name": "wallet",
          "type": "address"
        },
        {
          "indexed": false,
          "name": "value",
          "type": "int256"
        },
        {
          "indexed": false,
          "name": "currencyCt",
          "type": "address"
        },
        {
          "indexed": false,
          "name": "currencyId",
          "type": "uint256"
        },
        {
          "indexed": false,
          "name": "standard",
          "type": "string"
        }
      ],
      "name": "WithdrawEvent",
      "type": "event"
    },
    {
      "anonymous": false,
      "inputs": [
        {
          "indexed": false,
          "name": "wallet",
          "type": "address"
        },
        {
          "indexed": false,
          "name": "value",
          "type": "int256"
        },
        {
          "indexed": false,
          "name": "currencyCt",
          "type": "address"
        },
        {
          "indexed": false,
          "name": "currencyId",
          "type": "uint256"
        }
      ],
      "name": "StageEvent",
      "type": "event"
    },
    {
      "anonymous": false,
      "inputs": [
        {
          "indexed": false,
          "name": "wallet",
          "type": "address"
        },
        {
          "indexed": false,
          "name": "value",
          "type": "int256"
        },
        {
          "indexed": false,
          "name": "currencyCt",
          "type": "address"
        },
        {
          "indexed": false,
          "name": "currencyId",
          "type": "uint256"
        }
      ],
      "name": "UnstageEvent",
      "type": "event"
    },
    {
      "anonymous": false,
      "inputs": [
        {
          "indexed": false,
          "name": "wallet",
          "type": "address"
        },
        {
          "indexed": false,
          "name": "value",
          "type": "int256"
        },
        {
          "indexed": false,
          "name": "currencyCt",
          "type": "address"
        },
        {
          "indexed": false,
          "name": "currencyId",
          "type": "uint256"
        }
      ],
      "name": "UpdateSettledBalanceEvent",
      "type": "event"
    },
    {
      "anonymous": false,
      "inputs": [
        {
          "indexed": false,
          "name": "sourceWallet",
          "type": "address"
        },
        {
          "indexed": false,
          "name": "beneficiary",
          "type": "address"
        },
        {
          "indexed": false,
          "name": "value",
          "type": "int256"
        },
        {
          "indexed": false,
          "name": "currencyCt",
          "type": "address"
        },
        {
          "indexed": false,
          "name": "currencyId",
          "type": "uint256"
        },
        {
          "indexed": false,
          "name": "standard",
          "type": "string"
        }
      ],
      "name": "StageToBeneficiaryEvent",
      "type": "event"
    },
    {
      "anonymous": false,
      "inputs": [
        {
          "indexed": false,
          "name": "wallet",
          "type": "address"
        },
        {
          "indexed": false,
          "name": "beneficiary",
          "type": "address"
        },
        {
          "indexed": false,
          "name": "value",
          "type": "int256"
        },
        {
          "indexed": false,
          "name": "currencyCt",
          "type": "address"
        },
        {
          "indexed": false,
          "name": "currencyId",
          "type": "uint256"
        }
      ],
      "name": "TransferToBeneficiaryEvent",
      "type": "event"
    },
    {
      "anonymous": false,
      "inputs": [
        {
          "indexed": false,
          "name": "seizedWallet",
          "type": "address"
        },
        {
          "indexed": false,
          "name": "seizerWallet",
          "type": "address"
        },
        {
          "indexed": false,
          "name": "value",
          "type": "int256"
        },
        {
          "indexed": false,
          "name": "currencyCt",
          "type": "address"
        },
        {
          "indexed": false,
          "name": "currencyId",
          "type": "uint256"
        }
      ],
      "name": "SeizeBalancesEvent",
      "type": "event"
    },
    {
      "anonymous": false,
      "inputs": [
        {
          "indexed": false,
          "name": "claimer",
          "type": "address"
        },
        {
          "indexed": false,
          "name": "balanceType",
          "type": "string"
        },
        {
          "indexed": false,
          "name": "currencyCt",
          "type": "address"
        },
        {
          "indexed": false,
          "name": "currencyId",
          "type": "uint256"
        },
        {
          "indexed": false,
          "name": "standard",
          "type": "string"
        }
      ],
      "name": "ClaimRevenueEvent",
      "type": "event"
    },
    {
      "anonymous": false,
      "inputs": [
        {
          "indexed": false,
          "name": "oldWalletLocker",
          "type": "address"
        },
        {
          "indexed": false,
          "name": "newWalletLocker",
          "type": "address"
        }
      ],
      "name": "SetWalletLockerEvent",
      "type": "event"
    },
    {
      "anonymous": false,
      "inputs": [],
      "name": "FreezeWalletLockerEvent",
      "type": "event"
    },
    {
      "anonymous": false,
      "inputs": [
        {
          "indexed": false,
          "name": "oldTransactionTracker",
          "type": "address"
        },
        {
          "indexed": false,
          "name": "newTransactionTracker",
          "type": "address"
        }
      ],
      "name": "SetTransactionTrackerEvent",
      "type": "event"
    },
    {
      "anonymous": false,
      "inputs": [],
      "name": "FreezeTransactionTrackerEvent",
      "type": "event"
    },
    {
      "anonymous": false,
      "inputs": [
        {
          "indexed": false,
          "name": "oldBalanceTracker",
          "type": "address"
        },
        {
          "indexed": false,
          "name": "newBalanceTracker",
          "type": "address"
        }
      ],
      "name": "SetBalanceTrackerEvent",
      "type": "event"
    },
    {
      "anonymous": false,
      "inputs": [],
      "name": "FreezeBalanceTrackerEvent",
      "type": "event"
    },
    {
      "anonymous": false,
      "inputs": [
        {
          "indexed": false,
          "name": "oldTransferControllerManager",
          "type": "address"
        },
        {
          "indexed": false,
          "name": "newTransferControllerManager",
          "type": "address"
        }
      ],
      "name": "SetTransferControllerManagerEvent",
      "type": "event"
    },
    {
      "anonymous": false,
      "inputs": [
        {
          "indexed": false,
          "name": "wallet",
          "type": "address"
        },
        {
          "indexed": false,
          "name": "service",
          "type": "address"
        }
      ],
      "name": "AuthorizeInitialServiceEvent",
      "type": "event"
    },
    {
      "anonymous": false,
      "inputs": [
        {
          "indexed": false,
          "name": "wallet",
          "type": "address"
        },
        {
          "indexed": false,
          "name": "service",
          "type": "address"
        }
      ],
      "name": "AuthorizeRegisteredServiceEvent",
      "type": "event"
    },
    {
      "anonymous": false,
      "inputs": [
        {
          "indexed": false,
          "name": "wallet",
          "type": "address"
        },
        {
          "indexed": false,
          "name": "service",
          "type": "address"
        },
        {
          "indexed": false,
          "name": "action",
          "type": "string"
        }
      ],
      "name": "AuthorizeRegisteredServiceActionEvent",
      "type": "event"
    },
    {
      "anonymous": false,
      "inputs": [
        {
          "indexed": false,
          "name": "wallet",
          "type": "address"
        },
        {
          "indexed": false,
          "name": "service",
          "type": "address"
        }
      ],
      "name": "UnauthorizeRegisteredServiceEvent",
      "type": "event"
    },
    {
      "anonymous": false,
      "inputs": [
        {
          "indexed": false,
          "name": "wallet",
          "type": "address"
        },
        {
          "indexed": false,
          "name": "service",
          "type": "address"
        },
        {
          "indexed": false,
          "name": "action",
          "type": "string"
        }
      ],
      "name": "UnauthorizeRegisteredServiceActionEvent",
      "type": "event"
    },
    {
      "anonymous": false,
      "inputs": [
        {
          "indexed": false,
          "name": "timeoutInSeconds",
          "type": "uint256"
        }
      ],
      "name": "ServiceActivationTimeoutEvent",
      "type": "event"
    },
    {
      "anonymous": false,
      "inputs": [
        {
          "indexed": false,
          "name": "service",
          "type": "address"
        }
      ],
      "name": "RegisterServiceEvent",
      "type": "event"
    },
    {
      "anonymous": false,
      "inputs": [
        {
          "indexed": false,
          "name": "service",
          "type": "address"
        },
        {
          "indexed": false,
          "name": "timeout",
          "type": "uint256"
        }
      ],
      "name": "RegisterServiceDeferredEvent",
      "type": "event"
    },
    {
      "anonymous": false,
      "inputs": [
        {
          "indexed": false,
          "name": "service",
          "type": "address"
        }
      ],
      "name": "DeregisterServiceEvent",
      "type": "event"
    },
    {
      "anonymous": false,
      "inputs": [
        {
          "indexed": false,
          "name": "service",
          "type": "address"
        },
        {
          "indexed": false,
          "name": "action",
          "type": "string"
        }
      ],
      "name": "EnableServiceActionEvent",
      "type": "event"
    },
    {
      "anonymous": false,
      "inputs": [
        {
          "indexed": false,
          "name": "service",
          "type": "address"
        },
        {
          "indexed": false,
          "name": "action",
          "type": "string"
        }
      ],
      "name": "DisableServiceActionEvent",
      "type": "event"
    },
    {
      "anonymous": false,
      "inputs": [
        {
          "indexed": false,
          "name": "beneficiary",
          "type": "address"
        }
      ],
      "name": "RegisterBeneficiaryEvent",
      "type": "event"
    },
    {
      "anonymous": false,
      "inputs": [
        {
          "indexed": false,
          "name": "beneficiary",
          "type": "address"
        }
      ],
      "name": "DeregisterBeneficiaryEvent",
      "type": "event"
    },
    {
      "anonymous": false,
      "inputs": [
        {
          "indexed": false,
          "name": "oldDeployer",
          "type": "address"
        },
        {
          "indexed": false,
          "name": "newDeployer",
          "type": "address"
        }
      ],
      "name": "SetDeployerEvent",
      "type": "event"
    },
    {
      "anonymous": false,
      "inputs": [
        {
          "indexed": false,
          "name": "oldOperator",
          "type": "address"
        },
        {
          "indexed": false,
          "name": "newOperator",
          "type": "address"
        }
      ],
      "name": "SetOperatorEvent",
      "type": "event"
    },
    {
      "anonymous": false,
      "inputs": [
        {
          "indexed": false,
          "name": "wallet",
          "type": "address"
        }
      ],
      "name": "SelfDestructionDisabledEvent",
      "type": "event"
    },
    {
      "anonymous": false,
      "inputs": [
        {
          "indexed": false,
          "name": "wallet",
          "type": "address"
        }
      ],
      "name": "TriggerSelfDestructionEvent",
      "type": "event"
    },
    {
      "constant": false,
      "inputs": [
        {
          "name": "newTokenHolderRevenueFund",
          "type": "address"
        }
      ],
      "name": "setTokenHolderRevenueFund",
      "outputs": [],
      "payable": false,
      "stateMutability": "nonpayable",
      "type": "function"
    },
    {
      "constant": false,
      "inputs": [
        {
          "name": "wallet",
          "type": "address"
        },
        {
          "name": "balanceType",
          "type": "string"
        }
      ],
      "name": "receiveEthersTo",
      "outputs": [],
      "payable": true,
      "stateMutability": "payable",
      "type": "function"
    },
    {
      "constant": false,
      "inputs": [
        {
          "name": "balanceType",
          "type": "string"
        },
        {
          "name": "value",
          "type": "int256"
        },
        {
          "name": "currencyCt",
          "type": "address"
        },
        {
          "name": "currencyId",
          "type": "uint256"
        },
        {
          "name": "standard",
          "type": "string"
        }
      ],
      "name": "receiveTokens",
      "outputs": [],
      "payable": false,
      "stateMutability": "nonpayable",
      "type": "function"
    },
    {
      "constant": false,
      "inputs": [
        {
          "name": "wallet",
          "type": "address"
        },
        {
          "name": "balanceType",
          "type": "string"
        },
        {
          "name": "value",
          "type": "int256"
        },
        {
          "name": "currencyCt",
          "type": "address"
        },
        {
          "name": "currencyId",
          "type": "uint256"
        },
        {
          "name": "standard",
          "type": "string"
        }
      ],
      "name": "receiveTokensTo",
      "outputs": [],
      "payable": false,
      "stateMutability": "nonpayable",
      "type": "function"
    },
    {
      "constant": false,
      "inputs": [
        {
          "name": "wallet",
          "type": "address"
        },
        {
          "name": "value",
          "type": "int256"
        },
        {
          "name": "currencyCt",
          "type": "address"
        },
        {
          "name": "currencyId",
          "type": "uint256"
        },
        {
          "name": "standard",
          "type": "string"
        },
        {
          "name": "blockNumber",
          "type": "uint256"
        }
      ],
      "name": "updateSettledBalance",
      "outputs": [],
      "payable": false,
      "stateMutability": "nonpayable",
      "type": "function"
    },
    {
      "constant": false,
      "inputs": [
        {
          "name": "wallet",
          "type": "address"
        },
        {
          "name": "value",
          "type": "int256"
        },
        {
          "name": "currencyCt",
          "type": "address"
        },
        {
          "name": "currencyId",
          "type": "uint256"
        },
        {
          "name": "standard",
          "type": "string"
        }
      ],
      "name": "stage",
      "outputs": [],
      "payable": false,
      "stateMutability": "nonpayable",
      "type": "function"
    },
    {
      "constant": false,
      "inputs": [
        {
          "name": "value",
          "type": "int256"
        },
        {
          "name": "currencyCt",
          "type": "address"
        },
        {
          "name": "currencyId",
          "type": "uint256"
        },
        {
          "name": "standard",
          "type": "string"
        }
      ],
      "name": "unstage",
      "outputs": [],
      "payable": false,
      "stateMutability": "nonpayable",
      "type": "function"
    },
    {
      "constant": false,
      "inputs": [
        {
          "name": "wallet",
          "type": "address"
        },
        {
          "name": "beneficiary",
          "type": "address"
        },
        {
          "name": "value",
          "type": "int256"
        },
        {
          "name": "currencyCt",
          "type": "address"
        },
        {
          "name": "currencyId",
          "type": "uint256"
        },
        {
          "name": "standard",
          "type": "string"
        }
      ],
      "name": "stageToBeneficiary",
      "outputs": [],
      "payable": false,
      "stateMutability": "nonpayable",
      "type": "function"
    },
    {
      "constant": false,
      "inputs": [
        {
          "name": "wallet",
          "type": "address"
        },
        {
          "name": "beneficiary",
          "type": "address"
        },
        {
          "name": "value",
          "type": "int256"
        },
        {
          "name": "currencyCt",
          "type": "address"
        },
        {
          "name": "currencyId",
          "type": "uint256"
        },
        {
          "name": "standard",
          "type": "string"
        }
      ],
      "name": "transferToBeneficiary",
      "outputs": [],
      "payable": false,
      "stateMutability": "nonpayable",
      "type": "function"
    },
    {
      "constant": false,
      "inputs": [
        {
          "name": "wallet",
          "type": "address"
        },
        {
          "name": "currencyCt",
          "type": "address"
        },
        {
          "name": "currencyId",
          "type": "uint256"
        },
        {
          "name": "standard",
          "type": "string"
        }
      ],
      "name": "seizeBalances",
      "outputs": [],
      "payable": false,
      "stateMutability": "nonpayable",
      "type": "function"
    },
    {
      "constant": false,
      "inputs": [
        {
          "name": "value",
          "type": "int256"
        },
        {
          "name": "currencyCt",
          "type": "address"
        },
        {
          "name": "currencyId",
          "type": "uint256"
        },
        {
          "name": "standard",
          "type": "string"
        }
      ],
      "name": "withdraw",
      "outputs": [],
      "payable": false,
      "stateMutability": "nonpayable",
      "type": "function"
    },
    {
      "constant": true,
      "inputs": [
        {
          "name": "wallet",
          "type": "address"
        }
      ],
      "name": "isSeizedWallet",
      "outputs": [
        {
          "name": "",
          "type": "bool"
        }
      ],
      "payable": false,
      "stateMutability": "view",
      "type": "function"
    },
    {
      "constant": true,
      "inputs": [],
      "name": "seizedWalletsCount",
      "outputs": [
        {
          "name": "",
          "type": "uint256"
        }
      ],
      "payable": false,
      "stateMutability": "view",
      "type": "function"
    },
    {
      "constant": false,
      "inputs": [
        {
          "name": "claimer",
          "type": "address"
        },
        {
          "name": "balanceType",
          "type": "string"
        },
        {
          "name": "currencyCt",
          "type": "address"
        },
        {
          "name": "currencyId",
          "type": "uint256"
        },
        {
          "name": "standard",
          "type": "string"
        }
      ],
      "name": "claimRevenue",
      "outputs": [],
      "payable": false,
      "stateMutability": "nonpayable",
      "type": "function"
    }
  ],
  "bytecode": "0x60806040523480156200001157600080fd5b5060405160208062005e758339810180604052620000339190810190620000bd565b8080600160a060020a03811615156200004b57600080fd5b600160a060020a0381163014156200006257600080fd5b506000805461010060a860020a031916610100600160a060020a039390931692830217905560018054600160a060020a03191690911790555062093a80600555620000f2565b6000620000b68251620000e6565b9392505050565b600060208284031215620000d057600080fd5b6000620000de8484620000a8565b949350505050565b600160a060020a031690565b615d7380620001026000396000f3006080604052600436106103085763ffffffff60e060020a60003504166301f3241f81146103a257806304fd3130146103c25780630c5d24fa146103f85780630f200f9b14610418578063158a03421461043857806317ba3f9014610458578063191390921461047857806319507d8a1461049a57806319e56365146104ba5780631caf1d6d146104da5780631da826be146104fa5780632145cd201461051a578063240625d81461053c5780632738a112146105515780632b5672e3146105665780632b91e0a9146105865780632f013a00146105a65780633b159b37146105bb5780633b58c501146105db5780633b7bea6c146105fb5780633e59b706146106105780634476d23b14610625578063449fb346146106475780634ddf63f61461066757806350b08c0214610687578063570ca735146106a757806357925b53146106bc578063598b75ad146106dc5780635dc60def146106fc5780635df1b0a3146107115780635f2896511461073157806362ac76211461075157806362f1e6b31461077157806364ba47521461079157806367299f36146107b1578063677ec9d6146107c657806370327ea1146107e65780637953d64d146107fb5780637dac26c71461081b5780637e15dd5c146108305780637f584f511461085057806384cfb40914610865578063892860b2146108855780638995d42f146108a557806389f90a80146108ba5780638a2f30cc146108cf5780638e8cef12146108ef578063962147351461090f578063a3e5175d1461092f578063a4cf2f1c1461094f578063a7654a1f14610964578063ad468df914610972578063af30b31214610992578063b3ab15fb146109a7578063b52d470a146109c7578063b9bb9cd9146109dc578063c45a9a7f146109fc578063cc0dad4a14610a1c578063cdd8b2b214610a3c578063d25a18e514610a5c578063d3b41bd214610a7c578063d5f3948814610a9c578063df9774d814610ab1578063e167d4f614610ad1578063e3d3e9fc14610ae6578063e8ae41e314610b06578063f8297dbe14610b1b578063fdd9ec7d14610b3b575b6103a033600e60009054906101000a9004600160a060020a0316600160a060020a0316635106c2036040518163ffffffff1660e060020a028152600401600060405180830381600087803b15801561035f57600080fd5b505af1158015610373573d6000803e3d6000fd5b505050506040513d6000823e601f3d908101601f1916820160405261039b9190810190615626565b610b5b565b005b3480156103ae57600080fd5b506103a06103bd366004615092565b610c2d565b3480156103ce57600080fd5b506103e26103dd366004615092565b610d27565b6040516103ef9190615b83565b60405180910390f35b34801561040457600080fd5b506103e26104133660046153f4565b610d43565b34801561042457600080fd5b506103a06104333660046155d4565b610dad565b34801561044457600080fd5b506103a06104533660046151f2565b61102b565b34801561046457600080fd5b506103e2610473366004615092565b611097565b34801561048457600080fd5b5061048d6110cf565b6040516103ef9190615b9f565b3480156104a657600080fd5b506103e26104b5366004615092565b6110de565b3480156104c657600080fd5b506103a06104d53660046155d4565b6110f3565b3480156104e657600080fd5b506103e26104f5366004615092565b6112c2565b34801561050657600080fd5b506103a0610515366004615598565b611458565b34801561052657600080fd5b5061052f6114f7565b6040516103ef9190615b91565b34801561054857600080fd5b506103e26114fe565b34801561055d57600080fd5b506103a061150e565b34801561057257600080fd5b506103a06105813660046153ad565b611574565b34801561059257600080fd5b506103e26105a1366004615092565b6116a4565b3480156105b257600080fd5b506103e26116c2565b3480156105c757600080fd5b506103a06105d636600461543d565b6116cb565b3480156105e757600080fd5b506103a06105f63660046153ad565b611784565b34801561060757600080fd5b5061052f611866565b34801561061c57600080fd5b506103e261186c565b34801561063157600080fd5b5061063a61187c565b6040516103ef9190615724565b34801561065357600080fd5b506103a0610662366004615137565b611890565b34801561067357600080fd5b506103a0610682366004615092565b61194b565b34801561069357600080fd5b506103a06106a2366004615092565b611a2c565b3480156106b357600080fd5b5061063a611ae2565b3480156106c857600080fd5b506103e26106d73660046150b0565b611af1565b3480156106e857600080fd5b506103a06106f7366004615598565b611b44565b34801561070857600080fd5b506103a0611bf3565b34801561071d57600080fd5b506103e261072c3660046153ad565b611c47565b34801561073d57600080fd5b506103a061074c366004615489565b611c98565b34801561075d57600080fd5b506103a061076c3660046153ad565b611ecc565b34801561077d57600080fd5b506103e261078c3660046150b0565b6120a1565b34801561079d57600080fd5b506103a06107ac36600461531c565b6120c1565b3480156107bd57600080fd5b5061052f6125a9565b3480156107d257600080fd5b506103e26107e13660046151af565b6125af565b3480156107f257600080fd5b506103a06125d5565b34801561080757600080fd5b506103e26108163660046150b0565b612638565b34801561082757600080fd5b5061048d612658565b34801561083c57600080fd5b506103a061084b366004615694565b612667565b34801561085c57600080fd5b506103e26126ba565b34801561087157600080fd5b506103e26108803660046151af565b6126c3565b34801561089157600080fd5b506103a06108a0366004615598565b6126e9565b3480156108b157600080fd5b506103a0612798565b3480156108c657600080fd5b506103e26127ec565b3480156108db57600080fd5b506103a06108ea3660046153ad565b6127fc565b3480156108fb57600080fd5b506103a061090a366004615092565b612931565b34801561091b57600080fd5b506103a061092a366004615092565b6129af565b34801561093b57600080fd5b506103a061094a366004615092565b612a6d565b34801561095b57600080fd5b5061048d612c33565b6103a061039b3660046153ad565b34801561097e57600080fd5b506103a061098d366004615290565b612c42565b34801561099e57600080fd5b5061048d612eb5565b3480156109b357600080fd5b506103a06109c2366004615092565b612ec4565b3480156109d357600080fd5b506103a0612f6e565b3480156109e857600080fd5b5061063a6109f7366004615694565b612fc2565b348015610a0857600080fd5b506103a0610a1736600461565a565b612fea565b348015610a2857600080fd5b506103e2610a37366004615092565b612ff8565b348015610a4857600080fd5b506103e2610a57366004615092565b613016565b348015610a6857600080fd5b506103a0610a77366004615598565b613105565b348015610a8857600080fd5b506103a0610a97366004615598565b6131b4565b348015610aa857600080fd5b5061063a61324c565b348015610abd57600080fd5b506103e2610acc366004615092565b613260565b348015610add57600080fd5b506103a0613275565b348015610af257600080fd5b5061052f610b013660046150ea565b613297565b348015610b1257600080fd5b5061048d6132d4565b348015610b2757600080fd5b506103a0610b363660046151f2565b6132e3565b348015610b4757600080fd5b506103a0610b56366004615092565b6133ba565b60405160e060020a63802d10af02815260009073__SafeMathIntLib________________________9063802d10af90610b98903490600401615b91565b60206040518083038186803b158015610bb057600080fd5b505af4158015610bc4573d6000803e3d6000fd5b505050506040513d601f19601f82011682018060405250610be8919081019061555c565b9050610bfa8383836000806001613433565b600080516020615d1a833981519152838383600080604051610c20959493929190615a66565b60405180910390a1505050565b80600160a060020a0381161515610c4357600080fd5b600160a060020a038116301415610c5957600080fd5b33600160a060020a0383161415610c6f57600080fd5b600160a060020a03821660009081526004602052604090205460ff161515610c9657600080fd5b600160a060020a03821660009081526007602052604090205460ff1615610cbc57600080fd5b600160a060020a038216600090815260096020908152604080832033808552925291829020805460ff1916600117905590517f7406a64e4e8c04b2a11d4cb484eb07cd5762012eafc449900b8d92de008ff27f91610d1b918590615732565b60405180910390a15050565b600160a060020a03166000908152600360205260408120541190565b600080610d4f84613934565b9050610d5b8585611c47565b8015610da45750610d6c85846139fe565b80610da45750600160a060020a038086166000908152600a6020908152604080832085845282528083209387168352929052205460ff165b95945050505050565b60405160e160020a6351750e5302815260009073__SafeMathIntLib________________________9063a2ea1ca690610dea908890600401615b91565b60206040518083038186803b158015610e0257600080fd5b505af4158015610e16573d6000803e3d6000fd5b505050506040513d601f19601f82011682018060405250610e3a919081019061553e565b1515610e4557600080fd5b60105460405160e160020a6315c3cbc1028152600160a060020a0390911690632b87978290610e7c9033908890889060040161584b565b602060405180830381600087803b158015610e9657600080fd5b505af1158015610eaa573d6000803e3d6000fd5b505050506040513d601f19601f82011682018060405250610ece919081019061553e565b15610ed857600080fd5b610ee3848484613a55565b9050610ef23386868685613af1565b600f546040805160e060020a63bde440cb0281529051929750600160a060020a0390911691639cab96d6913391849163bde440cb9160048083019260209291908290030181600087803b158015610f4857600080fd5b505af1158015610f5c573d6000803e3d6000fd5b505050506040513d601f19601f82011682018060405250610f80919081019061555c565b8888886040518663ffffffff1660e060020a028152600401610fa69594939291906158c3565b600060405180830381600087803b158015610fc057600080fd5b505af1158015610fd4573d6000803e3d6000fd5b50505050610fe53386868686613e9a565b7f8e0adde15ffb742f47e7888277a26cea416253fcb63186dc4949fe493e92b77c338686868660405161101c9594939291906159d0565b60405180910390a15050505050565b856110363382611af1565b151561104157600080fd5b61104f878787878787613fee565b7f70a0e35287634a0b4f96e261e0b71d0ae930837dabd35de9dfdad491a4eb6d378787878787604051611086959493929190615955565b60405180910390a150505050505050565b60006110a2826116a4565b80156110c95750600160a060020a0382166000908152600460205260409020600101544210155b92915050565b600e54600160a060020a031681565b60076020526000908152604090205460ff1681565b60405160e160020a6351750e5302815260009073__SafeMathIntLib________________________9063a2ea1ca690611130908890600401615b91565b60206040518083038186803b15801561114857600080fd5b505af415801561115c573d6000803e3d6000fd5b505050506040513d601f19601f82011682018060405250611180919081019061553e565b151561118b57600080fd5b611196848484613a55565b90506111a53386868685613af1565b600e546040805160e460020a630ded11310281529051929750600160a060020a039091169163b95ae1cd913391849163ded113109160048083019260209291908290030181600087803b1580156111fb57600080fd5b505af115801561120f573d6000803e3d6000fd5b505050506040513d601f19601f82011682018060405250611233919081019061555c565b888888876040518763ffffffff1660e060020a02815260040161125b969594939291906158de565b600060405180830381600087803b15801561127557600080fd5b505af1158015611289573d6000803e3d6000fd5b505050507f013970fdfcc3b9ba3657604311c39270a2b090a94528cfdfd09abaddc6e8fb523386868660405161101c9493929190615873565b6000806112cd61427c565b15156112d857600080fd5b82600160a060020a03811615156112ee57600080fd5b600160a060020a03841660009081526003602052604090205415156113165760009250611451565b600160a060020a0384166000908152600360205260409020546002546000199182019350018210156113e55760028054600019810190811061135457fe5b60009182526020909120015460028054600160a060020a03909216918490811061137a57fe5b9060005260206000200160006101000a815481600160a060020a030219169083600160a060020a0316021790555081600101600360006002858154811015156113bf57fe5b6000918252602080832090910154600160a060020a031683528201929092526040019020555b60028054906113f8906000198301614e7d565b50600160a060020a03841660009081526003602052604080822091909155517f33f51cf787669db5b5aff6ba597298fd010748de93aaadef29aae876cef4a8c390611444908690615724565b60405180910390a1600192505b5050919050565b600061146261427c565b151561146d57600080fd5b81600160a060020a038116151561148357600080fd5b6013548390600160a060020a0390811690821681146114f05760138054600160a060020a03878116600160a060020a0319831617909255604051911694507f059245e3752d2ad85a00b28db68f4b944c8269ef3c6bd378055bea9cd1fd07409061101c9086908890615bad565b5050505050565b6011545b90565b60105460a060020a900460ff1681565b3361151761187c565b600160a060020a03161461152a57600080fd5b60005460ff161561153a57600080fd5b7f787a5d936e74f4b564b9153575886059829c78cd9927b1be5e0d976b317ef736336040516115699190615724565b60405180910390a133ff5b600061157e61427c565b151561158957600080fd5b82600160a060020a038116151561159f57600080fd5b600160a060020a0381163014156115b557600080fd5b600160a060020a03841660009081526004602052604090205460ff1615156115dc57600080fd5b6115e583613934565b600160a060020a038516600090815260046020908152604080832084845260020190915290205490925060ff161561161c57600080fd5b600160a060020a0384166000908152600460208181526040808420868552600281018352818520805460ff19166001908117909155938352600301805493840181558452922001839055517fec1b982d69bfc1a6fd8becf191d9a633486c822d3bdedd52303ca81fa6357501906116969086908690615a17565b60405180910390a150505050565b600160a060020a031660009081526004602052604090205460ff1690565b60005460ff1681565b6116d3614292565b15156116de57600080fd5b60135460405160e060020a63ce256213028152600160a060020a039091169063ce2562139061171b90309089908990899089908990600401615bc8565b600060405180830381600087803b15801561173557600080fd5b505af1158015611749573d6000803e3d6000fd5b505050507fe413728068242467b29b57e8f9c4da8b4a4eb0ea41abe0cadddba823c043e088858585858560405161101c959493929190615a37565b600061178e61427c565b151561179957600080fd5b82600160a060020a03811615156117af57600080fd5b600160a060020a0381163014156117c557600080fd5b6117ce83613934565b600160a060020a038516600090815260046020908152604080832084845260020190915290205490925060ff16151561180657600080fd5b600160a060020a038416600090815260046020908152604080832085845260020190915290819020805460ff19169055517f92f4af6130f47c92f3899e06611c8c6ef191fb81207ad2675d134af619d2fe7d906116969086908690615a17565b60055481565b600e5460a060020a900460ff1681565b6000546101009004600160a060020a031690565b61189b838383613a55565b156118b1576118ac843385856142a3565b6118bd565b6118bd843385856144e5565b600160a060020a03841660009081526012602052604090205460ff16151561194557600160a060020a0384166000818152601260205260408120805460ff191660019081179091556011805491820181559091527f31ecc21a745e3968a04e9570e4425bc18fa8019c68028196b546d1669c200c68018054600160a060020a03191690911790555b50505050565b61195361427c565b151561195e57600080fd5b80600160a060020a038116151561197457600080fd5b600160a060020a03811630141561198a57600080fd5b60065460ff161561199a57600080fd5b33600160a060020a03831614156119b057600080fd5b600160a060020a03821660009081526004602052604090205460ff1615156119d757600080fd5b600160a060020a03821660009081526007602052604090819020805460ff19166001179055517f81c5f2034d05958dd641755044582c0aba29a94070f0a2641bb554325328bf1e90610d1b9033908590615732565b611a3461427c565b1515611a3f57600080fd5b80600160a060020a0381161515611a5557600080fd5b600160a060020a038116301415611a6b57600080fd5b600160a060020a03821660009081526004602052604090205460ff161515611a9257600080fd5b600160a060020a03821660009081526004602052604090819020805460ff19169055517f777645c5437dfbf962f57a281ead25f3d513f2f8e938685bbfc1738e81c9880e90610d1b908490615724565b600154600160a060020a031681565b6000611afc83611097565b8015611b3d5750611b0d83836139fe565b80611b3d5750600160a060020a0380841660009081526009602090815260408083209386168352929052205460ff165b9392505050565b6000611b4e61427c565b1515611b5957600080fd5b81600160a060020a0381161515611b6f57600080fd5b600e548390600160a060020a0390811690821681146114f057600e5460a060020a900460ff1615611b9f57600080fd5b600e8054600160a060020a03878116600160a060020a0319831617909255604051911694507fb2a91d3a71b0c5bc7c083153b3474378e489506ba98bd4ddb1b9056fdc594bb59061101c9086908890615bad565b611bfb61427c565b1515611c0657600080fd5b6010805460a060020a60ff02191660a060020a1790556040517f56ec8900b9c4bf84f4b715a53068ca06961dd49084c07b481931e2c2045346e690600090a1565b600080611c5383613934565b9050611c5e84611097565b8015611c905750600160a060020a038416600090815260046020908152604080832084845260020190915290205460ff165b949350505050565b60405160e160020a6351750e5302815260009073__SafeMathIntLib________________________9063a2ea1ca690611cd5908890600401615b91565b60206040518083038186803b158015611ced57600080fd5b505af4158015611d01573d6000803e3d6000fd5b505050506040513d601f19601f82011682018060405250611d25919081019061553e565b1515611d3057600080fd5b611d3a8483614829565b905080600160a060020a031681600160a060020a031663ad502f576040518163ffffffff1660e060020a028152600401602060405180830381600087803b158015611d8457600080fd5b505af1158015611d98573d6000803e3d6000fd5b505050506040513d601f19601f82011682018060405250611dbc919081019061557a565b6040805160e060020a9283900463ffffffff8116909302815233600482015230602482015260448101899052600160a060020a038816606482015260848101879052905160a48083019260009291908290030181865af4925050501515611e2257600080fd5b611ea5878787878786600160a060020a031663a89c2e5a6040518163ffffffff1660e060020a028152600401602060405180830381600087803b158015611e6857600080fd5b505af1158015611e7c573d6000803e3d6000fd5b505050506040513d601f19601f82011682018060405250611ea0919081019061553e565b613433565b600080516020615d1a83398151915287878787878760405161108696959493929190615ac0565b600082600160a060020a0381161515611ee457600080fd5b600160a060020a038116301415611efa57600080fd5b33600160a060020a0385161415611f1057600080fd5b611f1983613934565b600160a060020a03851660009081526004602052604090205490925060ff168015611f6a5750600160a060020a038416600090815260046020908152604080832085845260020190915290205460ff165b1515611f7557600080fd5b600160a060020a03841660009081526007602052604090205460ff1615611f9b57600080fd5b600160a060020a038416600081815260096020908152604080832033808552908352818420805460ff19908116909155858552600a84528285208886528452828520828652845282852080549091166001179055938352600b82528083208684528252808320938352929052205460ff16151561206e57600160a060020a0384166000818152600b60209081526040808320868452825280832033808552908352818420805460ff19166001908117909155948452600c8352818420908452825282208054938401815582529020018290555b7fc007803323f3ca89cb3f8af1a12f354dc108e9dd4988c312b3f7a878914987ce3385856040516116969392919061581e565b600860209081526000928352604080842090915290825290205460ff1681565b6000866120ce3382611af1565b15156120d957600080fd5b87600160a060020a03811615156120ef57600080fd5b60405160e060020a636b84d93102815273__SafeMathIntLib________________________90636b84d93190612129908b90600401615b91565b60206040518083038186803b15801561214157600080fd5b505af4158015612155573d6000803e3d6000fd5b505050506040513d601f19601f82011682018060405250612179919081019061553e565b151561218457600080fd5b61218f878787613a55565b1561239457600e546040805160e460020a630ded11310281529051600160a060020a039092169163a246138c918c91849163ded113109160048083019260209291908290030181600087803b1580156121e757600080fd5b505af11580156121fb573d6000803e3d6000fd5b505050506040513d601f19601f8201168201806040525061221f919081019061555c565b8a8a896040518663ffffffff1660e060020a02815260040161224595949392919061588e565b6040805180830381600087803b15801561225e57600080fd5b505af1158015612272573d6000803e3d6000fd5b505050506040513d601f19601f8201168201806040525061229691908101906155f6565b50600e546040805160e260020a631194bb1d0281529051929550600160a060020a039091169163d062ec1d918c918491634652ec749160048083019260209291908290030181600087803b1580156122ed57600080fd5b505af1158015612301573d6000803e3d6000fd5b505050506040513d601f19601f82011682018060405250612325919081019061555c565b6123358c8863ffffffff6148b116565b8b8b60016040518763ffffffff1660e060020a02815260040161235d969594939291906158de565b600060405180830381600087803b15801561237757600080fd5b505af115801561238b573d6000803e3d6000fd5b50505050612561565b600e546040805160e460020a630ded11310281529051600160a060020a0390921691637d7a23aa918c91849163ded113109160048083019260209291908290030181600087803b1580156123e757600080fd5b505af11580156123fb573d6000803e3d6000fd5b505050506040513d601f19601f8201168201806040525061241f919081019061555c565b8b8b8b60006040518763ffffffff1660e060020a028152600401612448969594939291906158de565b600060405180830381600087803b15801561246257600080fd5b505af1158015612476573d6000803e3d6000fd5b5050600e546040805160e260020a631194bb1d0281529051600160a060020a03909216935063b95ae1cd92508c918491634652ec749160048083019260209291908290030181600087803b1580156124cd57600080fd5b505af11580156124e1573d6000803e3d6000fd5b505050506040513d601f19601f82011682018060405250612505919081019061555c565b8b8b8b60006040518763ffffffff1660e060020a02815260040161252e969594939291906158de565b600060405180830381600087803b15801561254857600080fd5b505af115801561255c573d6000803e3d6000fd5b505050505b7f6ded3dfe9bc210e5b60b695bac6bd623844003b866c14264d44e91b8352a4fad898989896040516125969493929190615873565b60405180910390a1505050505050505050565b60025490565b600b60209081526000938452604080852082529284528284209052825290205460ff1681565b336125de61187c565b600160a060020a0316146125f157600080fd5b6000805460ff191660011790556040517fd5a2a04a775c741c2ca0dc46ea7ce4835190e1aaf1ca018def0e82568ec336169061262e903390615724565b60405180910390a1565b600960209081526000928352604080842090915290825290205460ff1681565b601354600160a060020a031681565b61266f61427c565b151561267a57600080fd5b60058190556040517f4f1d324a1cbffc352fb64f1d73d95e4b200d92f99ef39bf2d7f5b41f946909d6906126af908390615b91565b60405180910390a150565b60065460ff1681565b600a60209081526000938452604080852082529284528284209052825290205460ff1681565b60006126f361427c565b15156126fe57600080fd5b81600160a060020a038116151561271457600080fd5b6010548390600160a060020a0390811690821681146114f05760105460a060020a900460ff161561274457600080fd5b60108054600160a060020a03878116600160a060020a0319831617909255604051911694507fa44d361e26327b72a7ccbeae801b3c5cd7677ea4fa74168b289e273c46bfecfc9061101c9086908890615bad565b6127a061427c565b15156127ab57600080fd5b600f805460a060020a60ff02191660a060020a1790556040517fd7d1b6dcaeec9afa87c8c53d9da393505dee41c9ace60ab22f3b23db19ac282c90600090a1565b600f5460a060020a900460ff1681565b600082600160a060020a038116151561281457600080fd5b600160a060020a03811630141561282a57600080fd5b33600160a060020a038516141561284057600080fd5b61284983613934565b600160a060020a03851660009081526004602052604090205490925060ff16801561289a5750600160a060020a038416600090815260046020908152604080832085845260020190915290205460ff165b15156128a557600080fd5b600160a060020a03841660009081526007602052604090205460ff16156128cb57600080fd5b600160a060020a0384166000908152600a60209081526040808320858452825280832033808552925291829020805460ff1916905590517f6fa0cdb0b5c22004ccfcaee11eed450e0184dda8edd417ae2410f0a883fdb74091611696918790879061581e565b61293961427c565b151561294457600080fd5b80600160a060020a038116151561295a57600080fd5b600160a060020a03811630141561297057600080fd5b61297c826005546148ed565b7f7f3a8349917003ed377f6e9ae1608b92edd893903f8983bd274b1f8373dd3b1182600554604051610d1b929190615b68565b60006129b961427c565b15156129c457600080fd5b81600160a060020a03811615156129da57600080fd5b600160a060020a0381163014156129f057600080fd5b600054600160a060020a038481166101009092041614612a685760008054600160a060020a0385811661010090810261010060a860020a0319841617909355604051929091041692507f977e5fa58e458501775e0008d275006294c5249e3c08d1d0e3a9f3acad14f6e490610c209084908690615732565b505050565b600081600160a060020a0381161515612a8557600080fd5b600160a060020a038116301415612a9b57600080fd5b33600160a060020a0384161415612ab157600080fd5b600160a060020a03831660009081526004602052604090205460ff161515612ad857600080fd5b600160a060020a03831660009081526007602052604090205460ff1615612b2c57600160a060020a03831660009081526008602090815260408083203384529091529020805460ff19166001179055612c02565b600160a060020a03831660009081526009602090815260408083203384529091528120805460ff1916905591505b600160a060020a0383166000908152600c60209081526040808320338452909152902054821015612c0257600160a060020a0383166000908152600a60209081526040808320600c835281842033855290925282208054600193919086908110612bc057fe5b600091825260208083209190910154835282810193909352604091820181203382529092529020805460ff191691151591909117905560019190910190612b5a565b7fe25d4094f2181ddef4410dcc1539a7488abd881a90c56078314b9f70affc5f7e3384604051610c20929190615732565b600f54600160a060020a031681565b600085612c4f3382611af1565b1515612c5a57600080fd5b60405160e160020a6351750e5302815273__SafeMathIntLib________________________9063a2ea1ca690612c94908990600401615b91565b60206040518083038186803b158015612cac57600080fd5b505af4158015612cc0573d6000803e3d6000fd5b505050506040513d601f19601f82011682018060405250612ce4919081019061553e565b1515612cef57600080fd5b612cfa858585613a55565b9150612d9887600e60009054906101000a9004600160a060020a0316600160a060020a031663e47da3526040518163ffffffff1660e060020a028152600401600060405180830381600087803b158015612d5357600080fd5b505af1158015612d67573d6000803e3d6000fd5b505050506040513d6000823e601f3d908101601f19168201604052612d8f91908101906154d6565b8888888761493f565b600e546040805160e260020a631e758dcf0281529051929850600160a060020a039091169163b95ae1cd918a9184916379d6373c9160048083019260209291908290030181600087803b158015612dee57600080fd5b505af1158015612e02573d6000803e3d6000fd5b505050506040513d601f19601f82011682018060405250612e26919081019061555c565b898989886040518763ffffffff1660e060020a028152600401612e4e969594939291906158de565b600060405180830381600087803b158015612e6857600080fd5b505af1158015612e7c573d6000803e3d6000fd5b505050507f573abd56f40c687bfaaabb8d68c68c84cc343b51fe661ff2080e2a6977b3c2b4878787876040516110869493929190615873565b600d54600160a060020a031681565b6000612ece614292565b1515612ed957600080fd5b81600160a060020a0381161515612eef57600080fd5b600160a060020a038116301415612f0557600080fd5b600154600160a060020a03848116911614612a685760018054600160a060020a03858116600160a060020a0319831617909255604051911692507f9f611b789425d0d5b90b920f1b2852907dd865c80074a30b1629aaa041d1812c90610c209084908690615732565b612f7661427c565b1515612f8157600080fd5b600e805460a060020a60ff02191660a060020a1790556040517f9c567b65fe8caab5ec7bc979a498a1322c1d4baf01a30727cbca137187560ea290600090a1565b6011805482908110612fd057fe5b600091825260209091200154600160a060020a0316905081565b6114f0338686868686611c98565b600160a060020a031660009081526012602052604090205460ff1690565b600061302061427c565b151561302b57600080fd5b81600160a060020a038116151561304157600080fd5b600160a060020a038316600090815260036020526040812054111561306957600091506130ff565b600280546001810182557f405787fa12a823e0f2b7631cc41b3ba8828b3321ca811111fa75cd3aa3bb5ace018054600160a060020a031916600160a060020a03861690811790915590546000918252600360205260409182902055517fdd62ff6d9c23793871e7d4796bde6c5dfb2bf8bcbd4186411cee3eb9f6189521906130f2908590615724565b60405180910390a1600191505b50919050565b600061310f61427c565b151561311a57600080fd5b81600160a060020a038116151561313057600080fd5b600f548390600160a060020a0390811690821681146114f057600f5460a060020a900460ff161561316057600080fd5b600f8054600160a060020a03878116600160a060020a0319831617909255604051911694507fa935cd13e8b6831b708081e1b4745e4a9574dc3aae730671c18d113a5497c90b9061101c9086908890615bad565b60006131be61427c565b15156131c957600080fd5b81600160a060020a03811615156131df57600080fd5b600d548390600160a060020a0390811690821681146114f057600d8054600160a060020a03878116600160a060020a0319831617909255604051911694507fee9ef6d53e152e48b1ebc1c23943fb2b96e847465ed779a0e2121a388ea83d2f9061101c9086908890615bad565b6000546101009004600160a060020a031681565b60126020526000908152604090205460ff1681565b61327d61427c565b151561328857600080fd5b6006805460ff19166001179055565b600c602052826000526040600020602052816000526040600020818154811015156132be57fe5b9060005260206000200160009250925050505481565b601054600160a060020a031681565b6000866132f03382611af1565b15156132fb57600080fd5b613306858585613a55565b915061335f88600e60009054906101000a9004600160a060020a0316600160a060020a031663e47da3526040518163ffffffff1660e060020a028152600401600060405180830381600087803b158015612d5357600080fd5b955061336f888888888888613fee565b7f4c50864967876f6fcf5151a5e907d94d9c7b3d7780ca1c7f576680a2126ba39b8888888888886040516133a896959493929190615970565b60405180910390a15050505050505050565b6133c261427c565b15156133cd57600080fd5b80600160a060020a03811615156133e357600080fd5b600160a060020a0381163014156133f957600080fd5b6134048260006148ed565b7fb619d545cb511bd5f02907a1eac4f4cb8dace7b1846852fb0bf5e553937481c182604051610d1b9190615724565b600085516000106134ce57600e60009054906101000a9004600160a060020a0316600160a060020a031663ded113106040518163ffffffff1660e060020a028152600401602060405180830381600087803b15801561349157600080fd5b505af11580156134a5573d6000803e3d6000fd5b505050506040513d601f19601f820116820180604052506134c9919081019061555c565b613592565b856040516020018082805190602001908083835b602083106135015780518252601f1990920191602091820191016134e2565b6001836020036101000a0380198251168184511680821785525050505050509050019150506040516020818303038152906040526040518082805190602001908083835b602083106135645780518252601f199092019160209182019101613545565b6001836020036101000a03801982511681845116808217855250505050505090500191505060405180910390205b600e546040805160e260020a631e758dcf02815290519293508392600160a060020a03909216916379d6373c916004808201926020929091908290030181600087803b1580156135e157600080fd5b505af11580156135f5573d6000803e3d6000fd5b505050506040513d601f19601f82011682018060405250613619919081019061555c565b141561370957600e546040805160e260020a631e758dcf0281529051600160a060020a039092169163b95ae1cd918a9184916379d6373c9160048083019260209291908290030181600087803b15801561367257600080fd5b505af1158015613686573d6000803e3d6000fd5b505050506040513d601f19601f820116820180604052506136aa919081019061555c565b888888886040518763ffffffff1660e060020a0281526004016136d2969594939291906158de565b600060405180830381600087803b1580156136ec57600080fd5b505af1158015613700573d6000803e3d6000fd5b5050505061392b565b600e546040805160e460020a630ded113102815290518392600160a060020a03169163ded113109160048083019260209291908290030181600087803b15801561375257600080fd5b505af1158015613766573d6000803e3d6000fd5b505050506040513d601f19601f8201168201806040525061378a919081019061555c565b141561392657600e546040805160e460020a630ded11310281529051600160a060020a039092169163b95ae1cd918a91849163ded113109160048083019260209291908290030181600087803b1580156137e357600080fd5b505af11580156137f7573d6000803e3d6000fd5b505050506040513d601f19601f8201168201806040525061381b919081019061555c565b888888886040518763ffffffff1660e060020a028152600401613843969594939291906158de565b600060405180830381600087803b15801561385d57600080fd5b505af1158015613871573d6000803e3d6000fd5b5050600f546040805160e060020a63313004a90281529051600160a060020a039092169350639cab96d692508a91849163313004a99160048083019260209291908290030181600087803b1580156138c857600080fd5b505af11580156138dc573d6000803e3d6000fd5b505050506040513d601f19601f82011682018060405250613900919081019061555c565b8888886040518663ffffffff1660e060020a0281526004016136d29594939291906158c3565b600080fd5b50505050505050565b6000816040516020018082805190602001908083835b602083106139695780518252601f19909201916020918201910161394a565b6001836020036101000a0380198251168184511680821785525050505050509050019150506040516020818303038152906040526040518082805190602001908083835b602083106139cc5780518252601f1990920191602091820191016139ad565b5181516020939093036101000a6000190180199091169216919091179052604051920182900390912095945050505050565b600160a060020a03821660009081526007602052604081205460ff16613a25576000611b3d565b50600160a060020a03918216600090815260086020908152604080832093909416825291909152205460ff161590565b6000600160a060020a038416158015613a6c575082155b80611c905750613a7c8483614829565b600160a060020a031663a89c2e5a6040518163ffffffff1660e060020a028152600401602060405180830381600087803b158015613ab957600080fd5b505af1158015613acd573d6000803e3d6000fd5b505050506040513d601f19601f82011682018060405250611c90919081019061553e565b60008115613c9d57600e546040805160e260020a631e758dcf028152905173__SafeMathIntLib________________________9263755875b2928992600160a060020a03909216916371f4ec51918c9184916379d6373c9160048083019260209291908290030181600087803b158015613b6a57600080fd5b505af1158015613b7e573d6000803e3d6000fd5b505050506040513d601f19601f82011682018060405250613ba2919081019061555c565b8a8a6040518563ffffffff1660e060020a028152600401613bc69493929190615873565b602060405180830381600087803b158015613be057600080fd5b505af1158015613bf4573d6000803e3d6000fd5b505050506040513d601f19601f82011682018060405250613c18919081019061555c565b6040518363ffffffff1660e060020a028152600401613c38929190615c04565b60206040518083038186803b158015613c5057600080fd5b505af4158015613c64573d6000803e3d6000fd5b505050506040513d601f19601f82011682018060405250613c88919081019061555c565b94506000851215613c9857600080fd5b613dab565b600e546040805160e260020a631e758dcf0281529051600160a060020a0390921691635962480691899184916379d6373c9160048083019260209291908290030181600087803b158015613cf057600080fd5b505af1158015613d04573d6000803e3d6000fd5b505050506040513d601f19601f82011682018060405250613d28919081019061555c565b8888886040518663ffffffff1660e060020a028152600401613d4e9594939291906158c3565b602060405180830381600087803b158015613d6857600080fd5b505af1158015613d7c573d6000803e3d6000fd5b505050506040513d601f19601f82011682018060405250613da0919081019061553e565b1515613dab57600080fd5b600e546040805160e260020a631e758dcf0281529051600160a060020a0390921691637d7a23aa91899184916379d6373c9160048083019260209291908290030181600087803b158015613dfe57600080fd5b505af1158015613e12573d6000803e3d6000fd5b505050506040513d601f19601f82011682018060405250613e36919081019061555c565b888888886040518763ffffffff1660e060020a028152600401613e5e969594939291906158de565b600060405180830381600087803b158015613e7857600080fd5b505af1158015613e8c573d6000803e3d6000fd5b509698975050505050505050565b6000600160a060020a038416158015613eb1575082155b15613ef257604051600160a060020a0387169086156108fc029087906000818181858888f19350505050158015613eec573d6000803e3d6000fd5b50613fe6565b613efc8483614829565b905080600160a060020a031681600160a060020a0316637228941f6040518163ffffffff1660e060020a028152600401602060405180830381600087803b158015613f4657600080fd5b505af1158015613f5a573d6000803e3d6000fd5b505050506040513d601f19601f82011682018060405250613f7e919081019061557a565b6040805160e060020a9283900463ffffffff81169093028152306004820152600160a060020a038a81166024830152604482018a90528816606482015260848101879052905160a48083019260009291908290030181865af4925050501515613fe657600080fd5b505050505050565b60405160e160020a6351750e5302815260009073__SafeMathIntLib________________________9063a2ea1ca69061402b908890600401615b91565b60206040518083038186803b15801561404357600080fd5b505af4158015614057573d6000803e3d6000fd5b505050506040513d601f19601f8201168201806040525061407b919081019061553e565b151561408657600080fd5b61408f86610d27565b151561409a57600080fd5b600160a060020a0384161580156140af575082155b1561411c5760405160e060020a63a7654a1f028152600160a060020a0387169063a7654a1f9087906140e5908b90600401615aef565b6000604051808303818588803b1580156140fe57600080fd5b505af1158015614112573d6000803e3d6000fd5b505050505061392b565b6141268483614829565b905080600160a060020a031681600160a060020a0316631711a8946040518163ffffffff1660e060020a028152600401602060405180830381600087803b15801561417057600080fd5b505af1158015614184573d6000803e3d6000fd5b505050506040513d601f19601f820116820180604052506141a8919081019061557a565b6040805160e060020a9283900463ffffffff81169093028152600160a060020a038a81166004830152602482018a90528816604482015260648101879052905160848083019260009291908290030181865af492505050151561420a57600080fd5b60405160e060020a635f289651028152600160a060020a03871690635f28965190614241908a908990899089908990600401615b0e565b600060405180830381600087803b15801561425b57600080fd5b505af115801561426f573d6000803e3d6000fd5b5050505050505050505050565b6000546101009004600160a060020a0316331490565b600154600160a060020a0316331490565b60105460405160e060020a630d044085028152600091600160a060020a031690630d044085906142dd90889088908890889060040161574d565b602060405180830381600087803b1580156142f757600080fd5b505af115801561430b573d6000803e3d6000fd5b505050506040513d601f19601f8201168201806040525061432f919081019061555c565b90506000811361433e57600080fd5b6143d985600e60009054906101000a9004600160a060020a0316600160a060020a031663ec3aa67e6040518163ffffffff1660e060020a028152600401600060405180830381600087803b15801561439557600080fd5b505af11580156143a9573d6000803e3d6000fd5b505050506040513d6000823e601f3d908101601f191682016040526143d191908101906154d6565b838686614972565b50600e546040805160e260020a631e758dcf0281529051600160a060020a039092169163b95ae1cd91879184916379d6373c9160048083019260209291908290030181600087803b15801561442d57600080fd5b505af1158015614441573d6000803e3d6000fd5b505050506040513d601f19601f82011682018060405250614465919081019061555c565b84878760016040518763ffffffff1660e060020a02815260040161448e969594939291906158de565b600060405180830381600087803b1580156144a857600080fd5b505af11580156144bc573d6000803e3d6000fd5b50505050600080516020615cfa833981519152858583868660405161101c9594939291906157dc565b60105460405160e060020a639f45b2ab0281526000916060918391600160a060020a031690639f45b2ab90614524908a908a908a908a9060040161574d565b602060405180830381600087803b15801561453e57600080fd5b505af1158015614552573d6000803e3d6000fd5b505050506040513d601f19601f82011682018060405250614576919081019061555c565b92506000831161458557600080fd5b60105460405160e160020a6374b72475028152600160a060020a039091169063e96e48ea906145c7908a908a908a908a906000906000198c0190600401615782565b600060405180830381600087803b1580156145e157600080fd5b505af11580156145f5573d6000803e3d6000fd5b505050506040513d6000823e601f3d908101601f1916820160405261461d919081019061550a565b9150600090505b815181101561392b576146df87600e60009054906101000a9004600160a060020a0316600160a060020a031663ec3aa67e6040518163ffffffff1660e060020a028152600401600060405180830381600087803b15801561468457600080fd5b505af1158015614698573d6000803e3d6000fd5b505050506040513d6000823e601f3d908101601f191682016040526146c091908101906154d6565b84848151811015156146ce57fe5b906020019060200201518888614ced565b50600e546040805160e260020a631e758dcf0281529051600160a060020a039092169163b95ae1cd91899184916379d6373c9160048083019260209291908290030181600087803b15801561473357600080fd5b505af1158015614747573d6000803e3d6000fd5b505050506040513d601f19601f8201168201806040525061476b919081019061555c565b858581518110151561477957fe5b90602001906020020151898960006040518763ffffffff1660e060020a0281526004016147ab969594939291906158de565b600060405180830381600087803b1580156147c557600080fd5b505af11580156147d9573d6000803e3d6000fd5b50505050600080516020615cfa833981519152878784848151811015156147fc57fe5b9060200190602002015188886040516148199594939291906157dc565b60405180910390a1600101614624565b600d5460405160e460020a630c8a483b028152600091600160a060020a03169063c8a483b09061485f9086908690600401615a17565b602060405180830381600087803b15801561487957600080fd5b505af115801561488d573d6000803e3d6000fd5b505050506040513d601f19601f82011682018060405250611b3d91908101906155b6565b60008082121580156148c557508282840313155b806148dc57506000821280156148dc575082828403135b15156148e757600080fd5b50900390565b600160a060020a03821660009081526004602052604090205460ff16151561493b57600160a060020a0382166000908152600460205260409020805460ff1916600190811782554283019101555b5050565b6000811561495b576149548787878787614972565b9050614968565b6149548787878787614ced565b9695505050505050565b6000808080808781131561498557600080fd5b60009250600093505b8851841015614a5857600e548951614a4b91600160a060020a0316906371f4ec51908d908d90899081106149be57fe5b906020019060200201518b8b6040518563ffffffff1660e060020a0281526004016149ec9493929190615873565b602060405180830381600087803b158015614a0657600080fd5b505af1158015614a1a573d6000803e3d6000fd5b505050506040513d601f19601f82011682018060405250614a3e919081019061555c565b849063ffffffff614e4816565b600190940193925061498e565b60405160e160020a633aac3ad902815273__SafeMathIntLib________________________9063755875b290614a94908b908790600401615c04565b60206040518083038186803b158015614aac57600080fd5b505af4158015614ac0573d6000803e3d6000fd5b505050506040513d601f19601f82011682018060405250614ae4919081019061555c565b9750879150600093505b8851841015614cdf57600e548951600160a060020a03909116906371f4ec51908c908c9088908110614b1c57fe5b906020019060200201518a8a6040518563ffffffff1660e060020a028152600401614b4a9493929190615873565b602060405180830381600087803b158015614b6457600080fd5b505af1158015614b78573d6000803e3d6000fd5b505050506040513d601f19601f82011682018060405250614b9c919081019061555c565b9050818112614c3457600e548951600160a060020a0390911690637d7a23aa908c908c9088908110614bca57fe5b90602001906020020151858b8b60016040518763ffffffff1660e060020a028152600401614bfd969594939291906158de565b600060405180830381600087803b158015614c1757600080fd5b505af1158015614c2b573d6000803e3d6000fd5b50505050614cdf565b600e548951600160a060020a039091169063d062ec1d908c908c9088908110614c5957fe5b9060200190602002015160008b8b60016040518763ffffffff1660e060020a028152600401614c8d9695949392919061592d565b600060405180830381600087803b158015614ca757600080fd5b505af1158015614cbb573d6000803e3d6000fd5b50505050614cd281836148b190919063ffffffff16565b9150600190930192614aee565b509598975050505050505050565b6000805b8551811015614e3d57600e548651600160a060020a03909116906359624806908990899085908110614d1f57fe5b906020019060200201518888886040518663ffffffff1660e060020a028152600401614d4f9594939291906158c3565b602060405180830381600087803b158015614d6957600080fd5b505af1158015614d7d573d6000803e3d6000fd5b505050506040513d601f19601f82011682018060405250614da1919081019061553e565b15614e3557600e548651600160a060020a0390911690637d7a23aa908990899085908110614dcb57fe5b9060200190602002015188888860006040518763ffffffff1660e060020a028152600401614dfe969594939291906158de565b600060405180830381600087803b158015614e1857600080fd5b505af1158015614e2c573d6000803e3d6000fd5b50505050614e3d565b600101614cf1565b509295945050505050565b6000828201818312801590614e5d5750838112155b80614e725750600083128015614e7257508381125b1515611b3d57600080fd5b815481835581811115612a6857600083815260209020612a689181019083016114fb91905b80821115614eb65760008155600101614ea2565b5090565b6000611b3d8235615c83565b6000601f82018313614ed757600080fd5b8151614eea614ee582615c38565b615c12565b91508181835260208401935060208101905083856020840282011115614f0f57600080fd5b60005b83811015614f3b5781614f258882614fcd565b8452506020928301929190910190600101614f12565b5050505092915050565b6000601f82018313614f5657600080fd5b8151614f64614ee582615c38565b91508181835260208401935060208101905083856020840282011115614f8957600080fd5b60005b83811015614f3b5781614f9f8882614fcd565b8452506020928301929190910190600101614f8c565b6000611b3d8251615c8f565b6000611b3d82356114fb565b6000611b3d82516114fb565b6000611b3d8251615c94565b6000611b3d8235615ca1565b6000611b3d8251615ca1565b6000601f8201831361500e57600080fd5b815161501c614ee582615c58565b9150808252602083016020830185838301111561503857600080fd5b615043838284615cc3565b50505092915050565b6000601f8201831361505d57600080fd5b813561506b614ee582615c58565b9150808252602083016020830185838301111561508757600080fd5b615043838284615cb7565b6000602082840312156150a457600080fd5b6000611c908484614eba565b600080604083850312156150c357600080fd5b60006150cf8585614eba565b92505060206150e085828601614eba565b9150509250929050565b6000806000606084860312156150ff57600080fd5b600061510b8686614eba565b935050602061511c86828701614eba565b925050604061512d86828701614fc1565b9150509250925092565b6000806000806080858703121561514d57600080fd5b60006151598787614eba565b945050602061516a87828801614eba565b935050604061517b87828801614fc1565b92505060608501356001604060020a0381111561519757600080fd5b6151a38782880161504c565b91505092959194509250565b6000806000606084860312156151c457600080fd5b60006151d08686614eba565b93505060206151e186828701614fc1565b925050604061512d86828701614eba565b60008060008060008060c0878903121561520b57600080fd5b60006152178989614eba565b965050602061522889828a01614fe5565b955050604061523989828a01614fc1565b945050606061524a89828a01614eba565b935050608061525b89828a01614fc1565b92505060a08701356001604060020a0381111561527757600080fd5b61528389828a0161504c565b9150509295509295509295565b600080600080600060a086880312156152a857600080fd5b60006152b48888614eba565b95505060206152c588828901614fc1565b94505060406152d688828901614eba565b93505060606152e788828901614fc1565b92505060808601356001604060020a0381111561530357600080fd5b61530f8882890161504c565b9150509295509295909350565b60008060008060008060c0878903121561533557600080fd5b60006153418989614eba565b965050602061535289828a01614fc1565b955050604061536389828a01614eba565b945050606061537489828a01614fc1565b93505060808701356001604060020a0381111561539057600080fd5b61539c89828a0161504c565b92505060a061528389828a01614fc1565b600080604083850312156153c057600080fd5b60006153cc8585614eba565b92505060208301356001604060020a038111156153e857600080fd5b6150e08582860161504c565b60008060006060848603121561540957600080fd5b60006154158686614eba565b93505060208401356001604060020a0381111561543157600080fd5b6151e18682870161504c565b600080600080600060a0868803121561545557600080fd5b60006154618888614eba565b95505060208601356001604060020a0381111561547d57600080fd5b6152c58882890161504c565b60008060008060008060c087890312156154a257600080fd5b60006154ae8989614eba565b96505060208701356001604060020a038111156154ca57600080fd5b61522889828a0161504c565b6000602082840312156154e857600080fd5b81516001604060020a038111156154fe57600080fd5b611c9084828501614ec6565b60006020828403121561551c57600080fd5b81516001604060020a0381111561553257600080fd5b611c9084828501614f45565b60006020828403121561555057600080fd5b6000611c908484614fb5565b60006020828403121561556e57600080fd5b6000611c908484614fcd565b60006020828403121561558c57600080fd5b6000611c908484614fd9565b6000602082840312156155aa57600080fd5b6000611c908484614fe5565b6000602082840312156155c857600080fd5b6000611c908484614ff1565b600080600080608085870312156155ea57600080fd5b60006151598787614fc1565b6000806040838503121561560957600080fd5b60006156158585614fcd565b92505060206150e085828601614fcd565b60006020828403121561563857600080fd5b81516001604060020a0381111561564e57600080fd5b611c9084828501614ffd565b600080600080600060a0868803121561567257600080fd5b85356001604060020a0381111561568857600080fd5b6152b48882890161504c565b6000602082840312156156a657600080fd5b6000611c908484614fc1565b6156bb81615c83565b82525050565b6156bb81615c8f565b6156bb816114fb565b6156bb81615ca1565b6156bb81615cac565b60006156f082615c7f565b808452615704816020860160208601615cc3565b61570d81615cef565b9093016020019392505050565b6000815260200190565b602081016110c982846156b2565b6040810161574082856156b2565b611b3d60208301846156b2565b6080810161575b82876156b2565b61576860208301866156b2565b61577560408301856156b2565b610da460608301846156ca565b60c0810161579082896156b2565b61579d60208301886156b2565b6157aa60408301876156b2565b6157b760608301866156ca565b6157c460808301856156dc565b6157d160a08301846156ca565b979650505050505050565b60a081016157ea82886156b2565b6157f760208301876156b2565b61580460408301866156ca565b61581160608301856156b2565b61496860808301846156ca565b6060810161582c82866156b2565b61583960208301856156b2565b8181036040830152610da481846156e5565b6060810161585982866156b2565b61586660208301856156b2565b611c9060408301846156ca565b6080810161588182876156b2565b61576860208301866156ca565b60a0810161589c82886156b2565b6158a960208301876156ca565b6158b660408301866156b2565b61581160608301856156ca565b60a081016158d182886156b2565b6157f760208301876156ca565b60c081016158ec82896156b2565b6158f960208301886156ca565b61590660408301876156ca565b61591360608301866156b2565b61592060808301856156ca565b6157d160a08301846156c1565b60c0810161593b82896156b2565b61594860208301886156ca565b61590660408301876156dc565b60a0810161596382886156b2565b6157f760208301876156d3565b60c0810161597e82896156b2565b61598b60208301886156d3565b61599860408301876156ca565b6159a560608301866156b2565b6159b260808301856156ca565b81810360a08301526159c481846156e5565b98975050505050505050565b60a081016159de82886156b2565b6159eb60208301876156ca565b6159f860408301866156b2565b615a0560608301856156ca565b81810360808301526157d181846156e5565b60408101615a2582856156b2565b8181036020830152611c9081846156e5565b60a08101615a4582886156b2565b8181036020830152615a5781876156e5565b90506159f860408301866156b2565b60c08101615a7482886156b2565b8181036020830152615a8681876156e5565b9050615a9560408301866156ca565b615aa260608301856156b2565b615aaf60808301846156dc565b81810360a08301526157d18161571a565b60c08101615ace82896156b2565b8181036020830152615ae081886156e5565b905061599860408301876156ca565b60408101615afd82846156b2565b8181036020830152611b3d8161571a565b60c08101615b1c82886156b2565b8181036020830152615b2d8161571a565b9050615b3c60408301876156ca565b615b4960608301866156b2565b615b5660808301856156ca565b81810360a08301526157d181846156e5565b60408101615b7682856156b2565b611b3d60208301846156ca565b602081016110c982846156c1565b602081016110c982846156ca565b602081016110c982846156d3565b60408101615bbb82856156d3565b611b3d60208301846156d3565b60c08101615bd682896156d3565b615be360208301886156b2565b8181036040830152615bf581876156e5565b90506159a560608301866156b2565b60408101615b7682856156ca565b6040518181016001604060020a0381118282101715615c3057600080fd5b604052919050565b60006001604060020a03821115615c4e57600080fd5b5060209081020190565b60006001604060020a03821115615c6e57600080fd5b506020601f91909101601f19160190565b5190565b600160a060020a031690565b151590565b600160e060020a03191690565b60006110c982615c83565b60006110c9826114fb565b82818337506000910152565b60005b83811015615cde578181015183820152602001615cc6565b838111156119455750506000910152565b601f01601f19169056007c750f44230ed3db46106f40b3f7c4707c7814035e69e09d43699ccbe46b1061b1054d4e81cc81e966ba33c7ce386432dcf8d4d78798e7a1f7f0b4aaef360330a265627a7a72305820a3c5de56613ee02f088808f0ab6e4e1af6eeff58856db90831681a317f274e636c6578706572696d656e74616cf50037",
  "source": "/*\n * Hubii Nahmii\n *\n * Compliant with the Hubii Nahmii specification v0.12.\n *\n * Copyright (C) 2017-2018 Hubii AS\n */\n\npragma solidity ^0.4.25;\npragma experimental ABIEncoderV2;\n\nimport {Ownable} from \"./Ownable.sol\";\nimport {Beneficiary} from \"./Beneficiary.sol\";\nimport {Benefactor} from \"./Benefactor.sol\";\nimport {AuthorizableServable} from \"./AuthorizableServable.sol\";\nimport {TransferControllerManageable} from \"./TransferControllerManageable.sol\";\nimport {BalanceTrackable} from \"./BalanceTrackable.sol\";\nimport {TransactionTrackable} from \"./TransactionTrackable.sol\";\nimport {WalletLockable} from \"./WalletLockable.sol\";\nimport {TransferController} from \"./TransferController.sol\";\nimport {SafeMathIntLib} from \"./SafeMathIntLib.sol\";\nimport {TokenHolderRevenueFund} from \"./TokenHolderRevenueFund.sol\";\n\n/**\n * @title Client fund\n * @notice Where clients crypto is deposited into, staged and withdrawn from.\n */\ncontract ClientFund is Ownable, Beneficiary, Benefactor, AuthorizableServable, TransferControllerManageable,\nBalanceTrackable, TransactionTrackable, WalletLockable {\n    using SafeMathIntLib for int256;\n\n    address[] public seizedWallets;\n    mapping(address => bool) public seizedByWallet;\n\n    TokenHolderRevenueFund public tokenHolderRevenueFund;\n\n    //\n    // Events\n    // -----------------------------------------------------------------------------------------------------------------\n    event SetTokenHolderRevenueFundEvent(TokenHolderRevenueFund oldTokenHolderRevenueFund,\n        TokenHolderRevenueFund newTokenHolderRevenueFund);\n    event ReceiveEvent(address wallet, string balanceType, int256 value, address currencyCt,\n        uint256 currencyId, string standard);\n    event WithdrawEvent(address wallet, int256 value, address currencyCt, uint256 currencyId,\n        string standard);\n    event StageEvent(address wallet, int256 value, address currencyCt, uint256 currencyId);\n    event UnstageEvent(address wallet, int256 value, address currencyCt, uint256 currencyId);\n    event UpdateSettledBalanceEvent(address wallet, int256 value, address currencyCt,\n        uint256 currencyId);\n    event StageToBeneficiaryEvent(address sourceWallet, address beneficiary, int256 value,\n        address currencyCt, uint256 currencyId, string standard);\n    event TransferToBeneficiaryEvent(address wallet, address beneficiary, int256 value,\n        address currencyCt, uint256 currencyId);\n    event SeizeBalancesEvent(address seizedWallet, address seizerWallet, int256 value,\n        address currencyCt, uint256 currencyId);\n    event ClaimRevenueEvent(address claimer, string balanceType, address currencyCt,\n        uint256 currencyId, string standard);\n\n    //\n    // Constructor\n    // -----------------------------------------------------------------------------------------------------------------\n    constructor(address deployer) Ownable(deployer) Beneficiary() Benefactor()\n    public\n    {\n        serviceActivationTimeout = 1 weeks;\n    }\n\n    //\n    // Functions\n    // -----------------------------------------------------------------------------------------------------------------\n    /// @notice Set the token holder revenue fund contract\n    /// @param newTokenHolderRevenueFund The (address of) TokenHolderRevenueFund contract instance\n    function setTokenHolderRevenueFund(TokenHolderRevenueFund newTokenHolderRevenueFund)\n    public\n    onlyDeployer\n    notNullAddress(newTokenHolderRevenueFund)\n    notSameAddresses(newTokenHolderRevenueFund, tokenHolderRevenueFund)\n    {\n        // Set new token holder revenue fund\n        TokenHolderRevenueFund oldTokenHolderRevenueFund = tokenHolderRevenueFund;\n        tokenHolderRevenueFund = newTokenHolderRevenueFund;\n\n        // Emit event\n        emit SetTokenHolderRevenueFundEvent(oldTokenHolderRevenueFund, newTokenHolderRevenueFund);\n    }\n\n    /// @notice Fallback function that deposits ethers to msg.sender's deposited balance\n    function()\n    public\n    payable\n    {\n        receiveEthersTo(msg.sender, balanceTracker.DEPOSITED_BALANCE_TYPE());\n    }\n\n    /// @notice Receive ethers to the given wallet's balance of the given type\n    /// @param wallet The address of the concerned wallet\n    /// @param balanceType The target balance type\n    function receiveEthersTo(address wallet, string balanceType)\n    public\n    payable\n    {\n        int256 value = SafeMathIntLib.toNonZeroInt256(msg.value);\n\n        // Register reception\n        _receiveTo(wallet, balanceType, value, address(0), 0, true);\n\n        // Emit event\n        emit ReceiveEvent(wallet, balanceType, value, address(0), 0, \"\");\n    }\n\n    /// @notice Receive token to msg.sender's balance of the given type\n    /// @dev The wallet must approve of this ClientFund's transfer prior to calling this function\n    /// @param balanceType The target balance type\n    /// @param value The value (amount of fungible, id of non-fungible) to receive\n    /// @param currencyCt The address of the concerned currency contract (address(0) == ETH)\n    /// @param currencyId The ID of the concerned currency (0 for ETH and ERC20)\n    /// @param standard The standard of the token (\"\" for default registered, \"ERC20\", \"ERC721\")\n    function receiveTokens(string balanceType, int256 value, address currencyCt,\n        uint256 currencyId, string standard)\n    public\n    {\n        receiveTokensTo(msg.sender, balanceType, value, currencyCt, currencyId, standard);\n    }\n\n    /// @notice Receive token to the given wallet's balance of the given type\n    /// @dev The wallet must approve of this ClientFund's transfer prior to calling this function\n    /// @param wallet The address of the concerned wallet\n    /// @param balanceType The target balance type\n    /// @param value The value (amount of fungible, id of non-fungible) to receive\n    /// @param currencyCt The address of the concerned currency contract (address(0) == ETH)\n    /// @param currencyId The ID of the concerned currency (0 for ETH and ERC20)\n    function receiveTokensTo(address wallet, string balanceType, int256 value, address currencyCt,\n        uint256 currencyId, string standard)\n    public\n    {\n        require(value.isNonZeroPositiveInt256());\n\n        // Get transfer controller\n        TransferController controller = transferController(currencyCt, standard);\n\n        // Execute transfer\n        require(\n            address(controller).delegatecall(\n                controller.getReceiveSignature(), msg.sender, this, uint256(value), currencyCt, currencyId\n            )\n        );\n\n        // Register reception\n        _receiveTo(wallet, balanceType, value, currencyCt, currencyId, controller.isFungible());\n\n        // Emit event\n        emit ReceiveEvent(wallet, balanceType, value, currencyCt, currencyId, standard);\n    }\n\n    /// @notice Update the settled balance by the difference between provided off-chain balance amount\n    /// and deposited on-chain balance, where deposited balance is resolved at the given block number\n    /// @param wallet The address of the concerned wallet\n    /// @param value The target balance value (amount of fungible, id of non-fungible), i.e. off-chain balance\n    /// @param currencyCt The address of the concerned currency contract (address(0) == ETH)\n    /// @param currencyId The ID of the concerned currency (0 for ETH and ERC20)\n    /// @param standard The standard of the token (\"\" for default registered, \"ERC20\", \"ERC721\")\n    /// @param blockNumber The block number to which the settled balance is updated\n    function updateSettledBalance(address wallet, int256 value, address currencyCt, uint256 currencyId,\n        string standard, uint256 blockNumber)\n    public\n    onlyAuthorizedService(wallet)\n    notNullAddress(wallet)\n    {\n        require(value.isPositiveInt256());\n\n        if (_isFungible(currencyCt, currencyId, standard)) {\n            (int256 depositedValue,) = balanceTracker.fungibleRecordByBlockNumber(\n                wallet, balanceTracker.depositedBalanceType(), currencyCt, currencyId, blockNumber\n            );\n            balanceTracker.set(\n                wallet, balanceTracker.settledBalanceType(), value.sub(depositedValue),\n                currencyCt, currencyId, true\n            );\n\n        } else {\n            balanceTracker.sub(\n                wallet, balanceTracker.depositedBalanceType(), value, currencyCt, currencyId, false\n            );\n            balanceTracker.add(\n                wallet, balanceTracker.settledBalanceType(), value, currencyCt, currencyId, false\n            );\n        }\n\n        // Emit event\n        emit UpdateSettledBalanceEvent(wallet, value, currencyCt, currencyId);\n    }\n\n    /// @notice Stage a value for subsequent withdrawal\n    /// @param wallet The address of the concerned wallet\n    /// @param value The value (amount of fungible, id of non-fungible) to deposit\n    /// @param currencyCt The address of the concerned currency contract (address(0) == ETH)\n    /// @param currencyId The ID of the concerned currency (0 for ETH and ERC20)\n    /// @param standard The standard of the token (\"\" for default registered, \"ERC20\", \"ERC721\")\n    function stage(address wallet, int256 value, address currencyCt, uint256 currencyId,\n        string standard)\n    public\n    onlyAuthorizedService(wallet)\n    {\n        require(value.isNonZeroPositiveInt256());\n\n        // Deduce fungibility\n        bool fungible = _isFungible(currencyCt, currencyId, standard);\n\n        // Subtract stage value from settled, possibly also from deposited\n        value = _subtractSequentially(wallet, balanceTracker.activeBalanceTypes(), value, currencyCt, currencyId, fungible);\n\n        // Add to staged\n        balanceTracker.add(\n            wallet, balanceTracker.stagedBalanceType(), value, currencyCt, currencyId, fungible\n        );\n\n        // Emit event\n        emit StageEvent(wallet, value, currencyCt, currencyId);\n    }\n\n    /// @notice Unstage a staged value\n    /// @param value The value (amount of fungible, id of non-fungible) to deposit\n    /// @param currencyCt The address of the concerned currency contract (address(0) == ETH)\n    /// @param currencyId The ID of the concerned currency (0 for ETH and ERC20)\n    /// @param standard The standard of the token (\"\" for default registered, \"ERC20\", \"ERC721\")\n    function unstage(int256 value, address currencyCt, uint256 currencyId, string standard)\n    public\n    {\n        require(value.isNonZeroPositiveInt256());\n\n        // Deduce fungibility\n        bool fungible = _isFungible(currencyCt, currencyId, standard);\n\n        // Subtract unstage value from staged\n        value = _subtractFromStaged(msg.sender, value, currencyCt, currencyId, fungible);\n\n        balanceTracker.add(\n            msg.sender, balanceTracker.depositedBalanceType(), value, currencyCt, currencyId, fungible\n        );\n\n        // Emit event\n        emit UnstageEvent(msg.sender, value, currencyCt, currencyId);\n    }\n\n    /// @notice Stage the value from wallet to the given beneficiary and targeted to wallet\n    /// @param wallet The address of the concerned wallet\n    /// @param beneficiary The (address of) concerned beneficiary contract\n    /// @param value The value (amount of fungible, id of non-fungible) to stage\n    /// @param currencyCt The address of the concerned currency contract (address(0) == ETH)\n    /// @param currencyId The ID of the concerned currency (0 for ETH and ERC20)\n    /// @param standard The standard of the token (\"\" for default registered, \"ERC20\", \"ERC721\")\n    function stageToBeneficiary(address wallet, Beneficiary beneficiary, int256 value,\n        address currencyCt, uint256 currencyId, string standard)\n    public\n    onlyAuthorizedService(wallet)\n    {\n        // Deduce fungibility\n        bool fungible = _isFungible(currencyCt, currencyId, standard);\n\n        // Subtract stage value from settled, possibly also from deposited\n        value = _subtractSequentially(wallet, balanceTracker.activeBalanceTypes(), value, currencyCt, currencyId, fungible);\n\n        // Execute transfer\n        _transferToBeneficiary(wallet, beneficiary, value, currencyCt, currencyId, standard);\n\n        // Emit event\n        emit StageToBeneficiaryEvent(wallet, beneficiary, value, currencyCt, currencyId, standard);\n    }\n\n    /// @notice Transfer the given value of currency to the given beneficiary without target wallet\n    /// @param wallet The address of the concerned wallet\n    /// @param beneficiary The (address of) concerned beneficiary contract\n    /// @param value The value (amount of fungible, id of non-fungible) to transfer\n    /// @param currencyCt The address of the concerned currency contract (address(0) == ETH)\n    /// @param currencyId The ID of the concerned currency (0 for ETH and ERC20)\n    /// @param standard The standard of the token (\"\" for default registered, \"ERC20\", \"ERC721\")\n    function transferToBeneficiary(address wallet, Beneficiary beneficiary, int256 value,\n        address currencyCt, uint256 currencyId, string standard)\n    public\n    onlyAuthorizedService(wallet)\n    {\n        // Execute transfer\n        _transferToBeneficiary(wallet, beneficiary, value, currencyCt, currencyId, standard);\n\n        // Emit event\n        emit TransferToBeneficiaryEvent(wallet, beneficiary, value, currencyCt, currencyId);\n    }\n\n    /// @notice Seize balances in the given currency of the given wallet, provided that the wallet\n    /// is locked by the caller\n    /// @param wallet The address of the concerned wallet whose balances are seized\n    /// @param currencyCt The address of the concerned currency contract (address(0) == ETH)\n    /// @param currencyId The ID of the concerned currency (0 for ETH and ERC20)\n    /// @param standard The standard of the token (\"\" for default registered, \"ERC20\", \"ERC721\")\n    function seizeBalances(address wallet, address currencyCt, uint256 currencyId, string standard)\n    public\n    {\n        if (_isFungible(currencyCt, currencyId, standard))\n            _seizeFungibleBalances(wallet, msg.sender, currencyCt, currencyId);\n\n        else\n            _seizeNonFungibleBalances(wallet, msg.sender, currencyCt, currencyId);\n\n        // Add to the store of seized wallets\n        if (!seizedByWallet[wallet]) {\n            seizedByWallet[wallet] = true;\n            seizedWallets.push(wallet);\n        }\n    }\n\n    /// @notice Withdraw the given amount from staged balance\n    /// @param value The value (amount of fungible, id of non-fungible) to withdraw\n    /// @param currencyCt The address of the concerned currency contract (address(0) == ETH)\n    /// @param currencyId The ID of the concerned currency (0 for ETH and ERC20)\n    /// @param standard The standard of the token (\"\" for default registered, \"ERC20\", \"ERC721\")\n    function withdraw(int256 value, address currencyCt, uint256 currencyId, string standard)\n    public\n    {\n        require(value.isNonZeroPositiveInt256());\n\n        // Require that msg.sender and currency is not locked\n        require(!walletLocker.isLocked(msg.sender, currencyCt, currencyId));\n\n        // Deduce fungibility\n        bool fungible = _isFungible(currencyCt, currencyId, standard);\n\n        // Subtract unstage value from staged\n        value = _subtractFromStaged(msg.sender, value, currencyCt, currencyId, fungible);\n\n        // Log record of this transaction\n        transactionTracker.add(\n            msg.sender, transactionTracker.withdrawalTransactionType(), value, currencyCt, currencyId\n        );\n\n        // Execute transfer\n        _transferToWallet(msg.sender, value, currencyCt, currencyId, standard);\n\n        // Emit event\n        emit WithdrawEvent(msg.sender, value, currencyCt, currencyId, standard);\n    }\n\n    /// @notice Get the seized status of given wallet\n    /// @param wallet The address of the concerned wallet\n    /// @return true if wallet is seized, false otherwise\n    function isSeizedWallet(address wallet)\n    public\n    view\n    returns (bool)\n    {\n        return seizedByWallet[wallet];\n    }\n\n    /// @notice Get the number of wallets whose funds have been seized\n    /// @return Number of wallets\n    function seizedWalletsCount()\n    public\n    view\n    returns (uint256)\n    {\n        return seizedWallets.length;\n    }\n\n    /// @notice Claim revenue from token holder revenue fund based this contract's holdings of the\n    /// revenue token, this so that revenue may be shared amongst revenue token holders in nahmii\n    /// @param claimer The concerned address of claimer that will subsequently distribute revenue in nahmii\n    /// @param balanceType The target balance type for the reception in this contract\n    /// @param currencyCt The address of the concerned currency contract (address(0) == ETH)\n    /// @param currencyId The ID of the concerned currency (0 for ETH and ERC20)\n    /// @param standard The standard of the token (\"\" for default registered, \"ERC20\", \"ERC721\")\n    function claimRevenue(address claimer, string balanceType, address currencyCt,\n        uint256 currencyId, string standard)\n    public\n    onlyOperator\n    {\n        tokenHolderRevenueFund.claimAndTransferToBeneficiary(\n            this, claimer, balanceType,\n            currencyCt, currencyId, standard\n        );\n\n        emit ClaimRevenueEvent(claimer, balanceType, currencyCt, currencyId, standard);\n    }\n\n    //\n    // Private functions\n    // -----------------------------------------------------------------------------------------------------------------\n    function _receiveTo(address wallet, string balanceType, int256 value, address currencyCt,\n        uint256 currencyId, bool fungible)\n    private\n    {\n        bytes32 balanceHash = 0 < bytes(balanceType).length ?\n        keccak256(abi.encodePacked(balanceType)) :\n        balanceTracker.depositedBalanceType();\n\n        // Add to per-wallet staged balance\n        if (balanceTracker.stagedBalanceType() == balanceHash)\n            balanceTracker.add(\n                wallet, balanceTracker.stagedBalanceType(), value, currencyCt, currencyId, fungible\n            );\n\n        // Add to per-wallet deposited balance\n        else if (balanceTracker.depositedBalanceType() == balanceHash) {\n            balanceTracker.add(\n                wallet, balanceTracker.depositedBalanceType(), value, currencyCt, currencyId, fungible\n            );\n\n            // Log record of this transaction\n            transactionTracker.add(\n                wallet, transactionTracker.depositTransactionType(), value, currencyCt, currencyId\n            );\n        }\n\n        else\n            revert();\n    }\n\n    function _subtractSequentially(address wallet, bytes32[] balanceTypes, int256 value, address currencyCt,\n        uint256 currencyId, bool fungible)\n    private\n    returns (int256)\n    {\n        if (fungible)\n            return _subtractFungibleSequentially(wallet, balanceTypes, value, currencyCt, currencyId);\n        else\n            return _subtractNonFungibleSequentially(wallet, balanceTypes, value, currencyCt, currencyId);\n    }\n\n    function _subtractFungibleSequentially(address wallet, bytes32[] balanceTypes, int256 amount, address currencyCt, uint256 currencyId)\n    private\n    returns (int256)\n    {\n        // Require positive amount\n        require(0 <= amount);\n\n        uint256 i;\n        int256 totalBalanceAmount = 0;\n        for (i = 0; i < balanceTypes.length; i++)\n            totalBalanceAmount = totalBalanceAmount.add(\n                balanceTracker.get(\n                    wallet, balanceTypes[i], currencyCt, currencyId\n                )\n            );\n\n        // Clamp amount to stage\n        amount = amount.clampMax(totalBalanceAmount);\n\n        int256 _amount = amount;\n        for (i = 0; i < balanceTypes.length; i++) {\n            int256 typeAmount = balanceTracker.get(\n                wallet, balanceTypes[i], currencyCt, currencyId\n            );\n\n            if (typeAmount >= _amount) {\n                balanceTracker.sub(\n                    wallet, balanceTypes[i], _amount, currencyCt, currencyId, true\n                );\n                break;\n\n            } else {\n                balanceTracker.set(\n                    wallet, balanceTypes[i], 0, currencyCt, currencyId, true\n                );\n                _amount = _amount.sub(typeAmount);\n            }\n        }\n\n        return amount;\n    }\n\n    function _subtractNonFungibleSequentially(address wallet, bytes32[] balanceTypes, int256 id, address currencyCt, uint256 currencyId)\n    private\n    returns (int256)\n    {\n        for (uint256 i = 0; i < balanceTypes.length; i++)\n            if (balanceTracker.hasId(wallet, balanceTypes[i], id, currencyCt, currencyId)) {\n                balanceTracker.sub(wallet, balanceTypes[i], id, currencyCt, currencyId, false);\n                break;\n            }\n\n        return id;\n    }\n\n    function _subtractFromStaged(address wallet, int256 value, address currencyCt, uint256 currencyId, bool fungible)\n    private\n    returns (int256)\n    {\n        if (fungible) {\n            // Clamp value to unstage\n            value = value.clampMax(\n                balanceTracker.get(wallet, balanceTracker.stagedBalanceType(), currencyCt, currencyId)\n            );\n\n            // Require positive value\n            require(0 <= value);\n\n        } else {\n            // Require that value is included in staged balance\n            require(balanceTracker.hasId(wallet, balanceTracker.stagedBalanceType(), value, currencyCt, currencyId));\n        }\n\n        // Subtract from deposited balance\n        balanceTracker.sub(wallet, balanceTracker.stagedBalanceType(), value, currencyCt, currencyId, fungible);\n\n        return value;\n    }\n\n    function _transferToBeneficiary(address destWallet, Beneficiary beneficiary,\n        int256 value, address currencyCt, uint256 currencyId, string standard)\n    private\n    {\n        require(value.isNonZeroPositiveInt256());\n        require(isRegisteredBeneficiary(beneficiary));\n\n        // Transfer funds to the beneficiary\n        if (address(0) == currencyCt && 0 == currencyId)\n            beneficiary.receiveEthersTo.value(uint256(value))(destWallet, \"\");\n\n        else {\n            // Approve of beneficiary\n            TransferController controller = transferController(currencyCt, standard);\n            require(\n                address(controller).delegatecall(\n                    controller.getApproveSignature(), beneficiary, uint256(value), currencyCt, currencyId\n                )\n            );\n\n            // Transfer funds to the beneficiary\n            beneficiary.receiveTokensTo(destWallet, \"\", value, currencyCt, currencyId, standard);\n        }\n    }\n\n    function _transferToWallet(address wallet,\n        int256 value, address currencyCt, uint256 currencyId, string standard)\n    private\n    {\n        // Transfer ETH\n        if (address(0) == currencyCt && 0 == currencyId)\n            wallet.transfer(uint256(value));\n\n        // Transfer token\n        else {\n            TransferController controller = transferController(currencyCt, standard);\n            require(\n                address(controller).delegatecall(\n                    controller.getDispatchSignature(), this, wallet, uint256(value), currencyCt, currencyId\n                )\n            );\n        }\n    }\n\n    function _seizeFungibleBalances(address lockedWallet, address lockerWallet, address currencyCt,\n        uint256 currencyId)\n    private\n    {\n        // Get the locked amount\n        int256 amount = walletLocker.lockedAmount(lockedWallet, lockerWallet, currencyCt, currencyId);\n\n        // Require that locked amount is strictly positive\n        require(amount > 0);\n\n        // Subtract stage value from settled, possibly also from deposited\n        _subtractFungibleSequentially(lockedWallet, balanceTracker.allBalanceTypes(), amount, currencyCt, currencyId);\n\n        // Add to staged balance of sender\n        balanceTracker.add(\n            lockerWallet, balanceTracker.stagedBalanceType(), amount, currencyCt, currencyId, true\n        );\n\n        // Emit event\n        emit SeizeBalancesEvent(lockedWallet, lockerWallet, amount, currencyCt, currencyId);\n    }\n\n    function _seizeNonFungibleBalances(address lockedWallet, address lockerWallet, address currencyCt,\n        uint256 currencyId)\n    private\n    {\n        // Require that locked ids has entries\n        uint256 lockedIdsCount = walletLocker.lockedIdsCount(lockedWallet, lockerWallet, currencyCt, currencyId);\n        require(0 < lockedIdsCount);\n\n        // Get the locked amount\n        int256[] memory ids = walletLocker.lockedIdsByIndices(\n            lockedWallet, lockerWallet, currencyCt, currencyId, 0, lockedIdsCount - 1\n        );\n\n        for (uint256 i = 0; i < ids.length; i++) {\n            // Subtract from settled, possibly also from deposited\n            _subtractNonFungibleSequentially(lockedWallet, balanceTracker.allBalanceTypes(), ids[i], currencyCt, currencyId);\n\n            // Add to staged balance of sender\n            balanceTracker.add(\n                lockerWallet, balanceTracker.stagedBalanceType(), ids[i], currencyCt, currencyId, false\n            );\n\n            // Emit event\n            emit SeizeBalancesEvent(lockedWallet, lockerWallet, ids[i], currencyCt, currencyId);\n        }\n    }\n\n    function _isFungible(address currencyCt, uint256 currencyId, string standard)\n    private\n    view\n    returns (bool)\n    {\n        return (address(0) == currencyCt && 0 == currencyId) || transferController(currencyCt, standard).isFungible();\n    }\n}\n",
  "sourcePath": "/opt/buildagent/work/855e104608380c36/contracts/ClientFund.sol",
  "compiler": {
    "name": "solc",
    "version": "0.4.25+commit.59dbf8f1.Emscripten.clang"
  },
  "schemaVersion": "2.0.1",
  "updatedAt": "2018-12-21T12:49:50.068Z"
}