{
  "contractName": "DriipSettlementChallengeByPayment",
  "abi": [
    {
      "constant": true,
      "inputs": [],
      "name": "driipSettlementDisputeByPayment",
      "outputs": [
        {
          "name": "",
          "type": "address"
        }
      ],
      "payable": false,
      "stateMutability": "view",
      "type": "function"
    },
    {
      "constant": false,
      "inputs": [
        {
          "name": "newValidator",
          "type": "address"
        }
      ],
      "name": "setValidator",
      "outputs": [],
      "payable": false,
      "stateMutability": "nonpayable",
      "type": "function"
    },
    {
      "constant": true,
      "inputs": [],
      "name": "walletLockerFrozen",
      "outputs": [
        {
          "name": "",
          "type": "bool"
        }
      ],
      "payable": false,
      "stateMutability": "view",
      "type": "function"
    },
    {
      "constant": false,
      "inputs": [],
      "name": "triggerSelfDestruction",
      "outputs": [],
      "payable": false,
      "stateMutability": "nonpayable",
      "type": "function"
    },
    {
      "constant": true,
      "inputs": [],
      "name": "selfDestructionDisabled",
      "outputs": [
        {
          "name": "",
          "type": "bool"
        }
      ],
      "payable": false,
      "stateMutability": "view",
      "type": "function"
    },
    {
      "constant": true,
      "inputs": [],
      "name": "validator",
      "outputs": [
        {
          "name": "",
          "type": "address"
        }
      ],
      "payable": false,
      "stateMutability": "view",
      "type": "function"
    },
    {
      "constant": true,
      "inputs": [],
      "name": "destructor",
      "outputs": [
        {
          "name": "",
          "type": "address"
        }
      ],
      "payable": false,
      "stateMutability": "view",
      "type": "function"
    },
    {
      "constant": true,
      "inputs": [],
      "name": "driipSettlementChallengeState",
      "outputs": [
        {
          "name": "",
          "type": "address"
        }
      ],
      "payable": false,
      "stateMutability": "view",
      "type": "function"
    },
    {
      "constant": true,
      "inputs": [],
      "name": "operator",
      "outputs": [
        {
          "name": "",
          "type": "address"
        }
      ],
      "payable": false,
      "stateMutability": "view",
      "type": "function"
    },
    {
      "constant": false,
      "inputs": [],
      "name": "freezeWalletLocker",
      "outputs": [],
      "payable": false,
      "stateMutability": "nonpayable",
      "type": "function"
    },
    {
      "constant": false,
      "inputs": [
        {
          "name": "newConfiguration",
          "type": "address"
        }
      ],
      "name": "setConfiguration",
      "outputs": [],
      "payable": false,
      "stateMutability": "nonpayable",
      "type": "function"
    },
    {
      "constant": true,
      "inputs": [],
      "name": "configuration",
      "outputs": [
        {
          "name": "",
          "type": "address"
        }
      ],
      "payable": false,
      "stateMutability": "view",
      "type": "function"
    },
    {
      "constant": false,
      "inputs": [],
      "name": "disableSelfDestruction",
      "outputs": [],
      "payable": false,
      "stateMutability": "nonpayable",
      "type": "function"
    },
    {
      "constant": false,
      "inputs": [
        {
          "name": "newWalletLocker",
          "type": "address"
        }
      ],
      "name": "setWalletLocker",
      "outputs": [],
      "payable": false,
      "stateMutability": "nonpayable",
      "type": "function"
    },
    {
      "constant": false,
      "inputs": [
        {
          "name": "newDeployer",
          "type": "address"
        }
      ],
      "name": "setDeployer",
      "outputs": [],
      "payable": false,
      "stateMutability": "nonpayable",
      "type": "function"
    },
    {
      "constant": false,
      "inputs": [
        {
          "name": "newOperator",
          "type": "address"
        }
      ],
      "name": "setOperator",
      "outputs": [],
      "payable": false,
      "stateMutability": "nonpayable",
      "type": "function"
    },
    {
      "constant": true,
      "inputs": [],
      "name": "deployer",
      "outputs": [
        {
          "name": "",
          "type": "address"
        }
      ],
      "payable": false,
      "stateMutability": "view",
      "type": "function"
    },
    {
      "constant": true,
      "inputs": [],
      "name": "walletLocker",
      "outputs": [
        {
          "name": "",
          "type": "address"
        }
      ],
      "payable": false,
      "stateMutability": "view",
      "type": "function"
    },
    {
      "constant": true,
      "inputs": [],
      "name": "nullSettlementChallengeState",
      "outputs": [
        {
          "name": "",
          "type": "address"
        }
      ],
      "payable": false,
      "stateMutability": "view",
      "type": "function"
    },
    {
      "inputs": [
        {
          "name": "deployer",
          "type": "address"
        }
      ],
      "payable": false,
      "stateMutability": "nonpayable",
      "type": "constructor"
    },
    {
      "anonymous": false,
      "inputs": [
        {
          "indexed": false,
          "name": "oldDriipSettlementDisputeByPayment",
          "type": "address"
        },
        {
          "indexed": false,
          "name": "newDriipSettlementDisputeByPayment",
          "type": "address"
        }
      ],
      "name": "SetDriipSettlementDisputeByPaymentEvent",
      "type": "event"
    },
    {
      "anonymous": false,
      "inputs": [
        {
          "indexed": false,
          "name": "oldDriipSettlementChallengeState",
          "type": "address"
        },
        {
          "indexed": false,
          "name": "newDriipSettlementChallengeState",
          "type": "address"
        }
      ],
      "name": "SetDriipSettlementChallengeStateEvent",
      "type": "event"
    },
    {
      "anonymous": false,
      "inputs": [
        {
          "indexed": false,
          "name": "oldNullSettlementChallengeState",
          "type": "address"
        },
        {
          "indexed": false,
          "name": "newNullSettlementChallengeState",
          "type": "address"
        }
      ],
      "name": "SetNullSettlementChallengeStateEvent",
      "type": "event"
    },
    {
      "anonymous": false,
      "inputs": [
        {
          "indexed": false,
          "name": "wallet",
          "type": "address"
        },
        {
          "indexed": false,
          "name": "paymentHash",
          "type": "bytes32"
        },
        {
          "indexed": false,
          "name": "stageAmount",
          "type": "int256"
        }
      ],
      "name": "StartChallengeFromPaymentEvent",
      "type": "event"
    },
    {
      "anonymous": false,
      "inputs": [
        {
          "indexed": false,
          "name": "proxy",
          "type": "address"
        },
        {
          "indexed": false,
          "name": "wallet",
          "type": "address"
        },
        {
          "indexed": false,
          "name": "paymentHash",
          "type": "bytes32"
        },
        {
          "indexed": false,
          "name": "stageAmount",
          "type": "int256"
        }
      ],
      "name": "StartChallengeFromPaymentByProxyEvent",
      "type": "event"
    },
    {
      "anonymous": false,
      "inputs": [
        {
          "indexed": false,
          "name": "wallet",
          "type": "address"
        },
        {
          "indexed": false,
          "name": "currencyCt",
          "type": "address"
        },
        {
          "indexed": false,
          "name": "currencyId",
          "type": "uint256"
        }
      ],
      "name": "StopChallengeEvent",
      "type": "event"
    },
    {
      "anonymous": false,
      "inputs": [
        {
          "indexed": false,
          "name": "proxy",
          "type": "address"
        },
        {
          "indexed": false,
          "name": "wallet",
          "type": "address"
        },
        {
          "indexed": false,
          "name": "currencyCt",
          "type": "address"
        },
        {
          "indexed": false,
          "name": "currencyId",
          "type": "uint256"
        }
      ],
      "name": "StopChallengeByProxyEvent",
      "type": "event"
    },
    {
      "anonymous": false,
      "inputs": [
        {
          "indexed": false,
          "name": "oldWalletLocker",
          "type": "address"
        },
        {
          "indexed": false,
          "name": "newWalletLocker",
          "type": "address"
        }
      ],
      "name": "SetWalletLockerEvent",
      "type": "event"
    },
    {
      "anonymous": false,
      "inputs": [],
      "name": "FreezeWalletLockerEvent",
      "type": "event"
    },
    {
      "anonymous": false,
      "inputs": [
        {
          "indexed": false,
          "name": "oldValidator",
          "type": "address"
        },
        {
          "indexed": false,
          "name": "newValidator",
          "type": "address"
        }
      ],
      "name": "SetValidatorEvent",
      "type": "event"
    },
    {
      "anonymous": false,
      "inputs": [
        {
          "indexed": false,
          "name": "oldConfiguration",
          "type": "address"
        },
        {
          "indexed": false,
          "name": "newConfiguration",
          "type": "address"
        }
      ],
      "name": "SetConfigurationEvent",
      "type": "event"
    },
    {
      "anonymous": false,
      "inputs": [
        {
          "indexed": false,
          "name": "oldDeployer",
          "type": "address"
        },
        {
          "indexed": false,
          "name": "newDeployer",
          "type": "address"
        }
      ],
      "name": "SetDeployerEvent",
      "type": "event"
    },
    {
      "anonymous": false,
      "inputs": [
        {
          "indexed": false,
          "name": "oldOperator",
          "type": "address"
        },
        {
          "indexed": false,
          "name": "newOperator",
          "type": "address"
        }
      ],
      "name": "SetOperatorEvent",
      "type": "event"
    },
    {
      "anonymous": false,
      "inputs": [
        {
          "indexed": false,
          "name": "wallet",
          "type": "address"
        }
      ],
      "name": "SelfDestructionDisabledEvent",
      "type": "event"
    },
    {
      "anonymous": false,
      "inputs": [
        {
          "indexed": false,
          "name": "wallet",
          "type": "address"
        }
      ],
      "name": "TriggerSelfDestructionEvent",
      "type": "event"
    },
    {
      "constant": false,
      "inputs": [
        {
          "name": "newDriipSettlementDisputeByPayment",
          "type": "address"
        }
      ],
      "name": "setDriipSettlementDisputeByPayment",
      "outputs": [],
      "payable": false,
      "stateMutability": "nonpayable",
      "type": "function"
    },
    {
      "constant": false,
      "inputs": [
        {
          "name": "newDriipSettlementChallengeState",
          "type": "address"
        }
      ],
      "name": "setDriipSettlementChallengeState",
      "outputs": [],
      "payable": false,
      "stateMutability": "nonpayable",
      "type": "function"
    },
    {
      "constant": false,
      "inputs": [
        {
          "name": "newNullSettlementChallengeState",
          "type": "address"
        }
      ],
      "name": "setNullSettlementChallengeState",
      "outputs": [],
      "payable": false,
      "stateMutability": "nonpayable",
      "type": "function"
    },
    {
      "constant": false,
      "inputs": [
        {
          "components": [
            {
              "name": "nonce",
              "type": "uint256"
            },
            {
              "name": "amount",
              "type": "int256"
            },
            {
              "components": [
                {
                  "name": "ct",
                  "type": "address"
                },
                {
                  "name": "id",
                  "type": "uint256"
                }
              ],
              "name": "currency",
              "type": "tuple"
            },
            {
              "components": [
                {
                  "name": "nonce",
                  "type": "uint256"
                },
                {
                  "name": "wallet",
                  "type": "address"
                },
                {
                  "components": [
                    {
                      "name": "current",
                      "type": "int256"
                    },
                    {
                      "name": "previous",
                      "type": "int256"
                    }
                  ],
                  "name": "balances",
                  "type": "tuple"
                },
                {
                  "components": [
                    {
                      "components": [
                        {
                          "name": "amount",
                          "type": "int256"
                        },
                        {
                          "components": [
                            {
                              "name": "ct",
                              "type": "address"
                            },
                            {
                              "name": "id",
                              "type": "uint256"
                            }
                          ],
                          "name": "currency",
                          "type": "tuple"
                        }
                      ],
                      "name": "single",
                      "type": "tuple"
                    },
                    {
                      "components": [
                        {
                          "name": "originId",
                          "type": "uint256"
                        },
                        {
                          "components": [
                            {
                              "name": "amount",
                              "type": "int256"
                            },
                            {
                              "components": [
                                {
                                  "name": "ct",
                                  "type": "address"
                                },
                                {
                                  "name": "id",
                                  "type": "uint256"
                                }
                              ],
                              "name": "currency",
                              "type": "tuple"
                            }
                          ],
                          "name": "figure",
                          "type": "tuple"
                        }
                      ],
                      "name": "total",
                      "type": "tuple[]"
                    }
                  ],
                  "name": "fees",
                  "type": "tuple"
                }
              ],
              "name": "sender",
              "type": "tuple"
            },
            {
              "components": [
                {
                  "name": "nonce",
                  "type": "uint256"
                },
                {
                  "name": "wallet",
                  "type": "address"
                },
                {
                  "components": [
                    {
                      "name": "current",
                      "type": "int256"
                    },
                    {
                      "name": "previous",
                      "type": "int256"
                    }
                  ],
                  "name": "balances",
                  "type": "tuple"
                },
                {
                  "components": [
                    {
                      "components": [
                        {
                          "name": "originId",
                          "type": "uint256"
                        },
                        {
                          "components": [
                            {
                              "name": "amount",
                              "type": "int256"
                            },
                            {
                              "components": [
                                {
                                  "name": "ct",
                                  "type": "address"
                                },
                                {
                                  "name": "id",
                                  "type": "uint256"
                                }
                              ],
                              "name": "currency",
                              "type": "tuple"
                            }
                          ],
                          "name": "figure",
                          "type": "tuple"
                        }
                      ],
                      "name": "total",
                      "type": "tuple[]"
                    }
                  ],
                  "name": "fees",
                  "type": "tuple"
                }
              ],
              "name": "recipient",
              "type": "tuple"
            },
            {
              "components": [
                {
                  "name": "single",
                  "type": "int256"
                },
                {
                  "name": "total",
                  "type": "int256"
                }
              ],
              "name": "transfers",
              "type": "tuple"
            },
            {
              "components": [
                {
                  "components": [
                    {
                      "name": "hash",
                      "type": "bytes32"
                    },
                    {
                      "components": [
                        {
                          "name": "r",
                          "type": "bytes32"
                        },
                        {
                          "name": "s",
                          "type": "bytes32"
                        },
                        {
                          "name": "v",
                          "type": "uint8"
                        }
                      ],
                      "name": "signature",
                      "type": "tuple"
                    }
                  ],
                  "name": "wallet",
                  "type": "tuple"
                },
                {
                  "components": [
                    {
                      "name": "hash",
                      "type": "bytes32"
                    },
                    {
                      "components": [
                        {
                          "name": "r",
                          "type": "bytes32"
                        },
                        {
                          "name": "s",
                          "type": "bytes32"
                        },
                        {
                          "name": "v",
                          "type": "uint8"
                        }
                      ],
                      "name": "signature",
                      "type": "tuple"
                    }
                  ],
                  "name": "operator",
                  "type": "tuple"
                }
              ],
              "name": "seals",
              "type": "tuple"
            },
            {
              "name": "blockNumber",
              "type": "uint256"
            },
            {
              "name": "operatorId",
              "type": "uint256"
            }
          ],
          "name": "payment",
          "type": "tuple"
        },
        {
          "name": "stageAmount",
          "type": "int256"
        }
      ],
      "name": "startChallengeFromPayment",
      "outputs": [],
      "payable": false,
      "stateMutability": "nonpayable",
      "type": "function"
    },
    {
      "constant": false,
      "inputs": [
        {
          "name": "wallet",
          "type": "address"
        },
        {
          "components": [
            {
              "name": "nonce",
              "type": "uint256"
            },
            {
              "name": "amount",
              "type": "int256"
            },
            {
              "components": [
                {
                  "name": "ct",
                  "type": "address"
                },
                {
                  "name": "id",
                  "type": "uint256"
                }
              ],
              "name": "currency",
              "type": "tuple"
            },
            {
              "components": [
                {
                  "name": "nonce",
                  "type": "uint256"
                },
                {
                  "name": "wallet",
                  "type": "address"
                },
                {
                  "components": [
                    {
                      "name": "current",
                      "type": "int256"
                    },
                    {
                      "name": "previous",
                      "type": "int256"
                    }
                  ],
                  "name": "balances",
                  "type": "tuple"
                },
                {
                  "components": [
                    {
                      "components": [
                        {
                          "name": "amount",
                          "type": "int256"
                        },
                        {
                          "components": [
                            {
                              "name": "ct",
                              "type": "address"
                            },
                            {
                              "name": "id",
                              "type": "uint256"
                            }
                          ],
                          "name": "currency",
                          "type": "tuple"
                        }
                      ],
                      "name": "single",
                      "type": "tuple"
                    },
                    {
                      "components": [
                        {
                          "name": "originId",
                          "type": "uint256"
                        },
                        {
                          "components": [
                            {
                              "name": "amount",
                              "type": "int256"
                            },
                            {
                              "components": [
                                {
                                  "name": "ct",
                                  "type": "address"
                                },
                                {
                                  "name": "id",
                                  "type": "uint256"
                                }
                              ],
                              "name": "currency",
                              "type": "tuple"
                            }
                          ],
                          "name": "figure",
                          "type": "tuple"
                        }
                      ],
                      "name": "total",
                      "type": "tuple[]"
                    }
                  ],
                  "name": "fees",
                  "type": "tuple"
                }
              ],
              "name": "sender",
              "type": "tuple"
            },
            {
              "components": [
                {
                  "name": "nonce",
                  "type": "uint256"
                },
                {
                  "name": "wallet",
                  "type": "address"
                },
                {
                  "components": [
                    {
                      "name": "current",
                      "type": "int256"
                    },
                    {
                      "name": "previous",
                      "type": "int256"
                    }
                  ],
                  "name": "balances",
                  "type": "tuple"
                },
                {
                  "components": [
                    {
                      "components": [
                        {
                          "name": "originId",
                          "type": "uint256"
                        },
                        {
                          "components": [
                            {
                              "name": "amount",
                              "type": "int256"
                            },
                            {
                              "components": [
                                {
                                  "name": "ct",
                                  "type": "address"
                                },
                                {
                                  "name": "id",
                                  "type": "uint256"
                                }
                              ],
                              "name": "currency",
                              "type": "tuple"
                            }
                          ],
                          "name": "figure",
                          "type": "tuple"
                        }
                      ],
                      "name": "total",
                      "type": "tuple[]"
                    }
                  ],
                  "name": "fees",
                  "type": "tuple"
                }
              ],
              "name": "recipient",
              "type": "tuple"
            },
            {
              "components": [
                {
                  "name": "single",
                  "type": "int256"
                },
                {
                  "name": "total",
                  "type": "int256"
                }
              ],
              "name": "transfers",
              "type": "tuple"
            },
            {
              "components": [
                {
                  "components": [
                    {
                      "name": "hash",
                      "type": "bytes32"
                    },
                    {
                      "components": [
                        {
                          "name": "r",
                          "type": "bytes32"
                        },
                        {
                          "name": "s",
                          "type": "bytes32"
                        },
                        {
                          "name": "v",
                          "type": "uint8"
                        }
                      ],
                      "name": "signature",
                      "type": "tuple"
                    }
                  ],
                  "name": "wallet",
                  "type": "tuple"
                },
                {
                  "components": [
                    {
                      "name": "hash",
                      "type": "bytes32"
                    },
                    {
                      "components": [
                        {
                          "name": "r",
                          "type": "bytes32"
                        },
                        {
                          "name": "s",
                          "type": "bytes32"
                        },
                        {
                          "name": "v",
                          "type": "uint8"
                        }
                      ],
                      "name": "signature",
                      "type": "tuple"
                    }
                  ],
                  "name": "operator",
                  "type": "tuple"
                }
              ],
              "name": "seals",
              "type": "tuple"
            },
            {
              "name": "blockNumber",
              "type": "uint256"
            },
            {
              "name": "operatorId",
              "type": "uint256"
            }
          ],
          "name": "payment",
          "type": "tuple"
        },
        {
          "name": "stageAmount",
          "type": "int256"
        }
      ],
      "name": "startChallengeFromPaymentByProxy",
      "outputs": [],
      "payable": false,
      "stateMutability": "nonpayable",
      "type": "function"
    },
    {
      "constant": false,
      "inputs": [
        {
          "name": "currencyCt",
          "type": "address"
        },
        {
          "name": "currencyId",
          "type": "uint256"
        }
      ],
      "name": "stopChallenge",
      "outputs": [],
      "payable": false,
      "stateMutability": "nonpayable",
      "type": "function"
    },
    {
      "constant": false,
      "inputs": [
        {
          "name": "wallet",
          "type": "address"
        },
        {
          "name": "currencyCt",
          "type": "address"
        },
        {
          "name": "currencyId",
          "type": "uint256"
        }
      ],
      "name": "stopChallengeByProxy",
      "outputs": [],
      "payable": false,
      "stateMutability": "nonpayable",
      "type": "function"
    },
    {
      "constant": true,
      "inputs": [
        {
          "name": "wallet",
          "type": "address"
        },
        {
          "name": "currencyCt",
          "type": "address"
        },
        {
          "name": "currencyId",
          "type": "uint256"
        }
      ],
      "name": "hasProposalExpired",
      "outputs": [
        {
          "name": "",
          "type": "bool"
        }
      ],
      "payable": false,
      "stateMutability": "view",
      "type": "function"
    },
    {
      "constant": true,
      "inputs": [
        {
          "name": "wallet",
          "type": "address"
        },
        {
          "name": "currencyCt",
          "type": "address"
        },
        {
          "name": "currencyId",
          "type": "uint256"
        }
      ],
      "name": "proposalNonce",
      "outputs": [
        {
          "name": "",
          "type": "uint256"
        }
      ],
      "payable": false,
      "stateMutability": "view",
      "type": "function"
    },
    {
      "constant": true,
      "inputs": [
        {
          "name": "wallet",
          "type": "address"
        },
        {
          "name": "currencyCt",
          "type": "address"
        },
        {
          "name": "currencyId",
          "type": "uint256"
        }
      ],
      "name": "proposalBlockNumber",
      "outputs": [
        {
          "name": "",
          "type": "uint256"
        }
      ],
      "payable": false,
      "stateMutability": "view",
      "type": "function"
    },
    {
      "constant": true,
      "inputs": [
        {
          "name": "wallet",
          "type": "address"
        },
        {
          "name": "currencyCt",
          "type": "address"
        },
        {
          "name": "currencyId",
          "type": "uint256"
        }
      ],
      "name": "proposalExpirationTime",
      "outputs": [
        {
          "name": "",
          "type": "uint256"
        }
      ],
      "payable": false,
      "stateMutability": "view",
      "type": "function"
    },
    {
      "constant": true,
      "inputs": [
        {
          "name": "wallet",
          "type": "address"
        },
        {
          "name": "currencyCt",
          "type": "address"
        },
        {
          "name": "currencyId",
          "type": "uint256"
        }
      ],
      "name": "proposalStatus",
      "outputs": [
        {
          "name": "",
          "type": "uint8"
        }
      ],
      "payable": false,
      "stateMutability": "view",
      "type": "function"
    },
    {
      "constant": true,
      "inputs": [
        {
          "name": "wallet",
          "type": "address"
        },
        {
          "name": "currencyCt",
          "type": "address"
        },
        {
          "name": "currencyId",
          "type": "uint256"
        }
      ],
      "name": "proposalStageAmount",
      "outputs": [
        {
          "name": "",
          "type": "int256"
        }
      ],
      "payable": false,
      "stateMutability": "view",
      "type": "function"
    },
    {
      "constant": true,
      "inputs": [
        {
          "name": "wallet",
          "type": "address"
        },
        {
          "name": "currencyCt",
          "type": "address"
        },
        {
          "name": "currencyId",
          "type": "uint256"
        }
      ],
      "name": "proposalTargetBalanceAmount",
      "outputs": [
        {
          "name": "",
          "type": "int256"
        }
      ],
      "payable": false,
      "stateMutability": "view",
      "type": "function"
    },
    {
      "constant": true,
      "inputs": [
        {
          "name": "wallet",
          "type": "address"
        },
        {
          "name": "currencyCt",
          "type": "address"
        },
        {
          "name": "currencyId",
          "type": "uint256"
        }
      ],
      "name": "proposalChallengedHash",
      "outputs": [
        {
          "name": "",
          "type": "bytes32"
        }
      ],
      "payable": false,
      "stateMutability": "view",
      "type": "function"
    },
    {
      "constant": true,
      "inputs": [
        {
          "name": "wallet",
          "type": "address"
        },
        {
          "name": "currencyCt",
          "type": "address"
        },
        {
          "name": "currencyId",
          "type": "uint256"
        }
      ],
      "name": "proposalChallengedType",
      "outputs": [
        {
          "name": "",
          "type": "string"
        }
      ],
      "payable": false,
      "stateMutability": "view",
      "type": "function"
    },
    {
      "constant": true,
      "inputs": [
        {
          "name": "wallet",
          "type": "address"
        },
        {
          "name": "currencyCt",
          "type": "address"
        },
        {
          "name": "currencyId",
          "type": "uint256"
        }
      ],
      "name": "proposalWalletInitiated",
      "outputs": [
        {
          "name": "",
          "type": "bool"
        }
      ],
      "payable": false,
      "stateMutability": "view",
      "type": "function"
    },
    {
      "constant": true,
      "inputs": [
        {
          "name": "wallet",
          "type": "address"
        },
        {
          "name": "currencyCt",
          "type": "address"
        },
        {
          "name": "currencyId",
          "type": "uint256"
        }
      ],
      "name": "proposalDisqualificationChallenger",
      "outputs": [
        {
          "name": "",
          "type": "address"
        }
      ],
      "payable": false,
      "stateMutability": "view",
      "type": "function"
    },
    {
      "constant": true,
      "inputs": [
        {
          "name": "wallet",
          "type": "address"
        },
        {
          "name": "currencyCt",
          "type": "address"
        },
        {
          "name": "currencyId",
          "type": "uint256"
        }
      ],
      "name": "proposalDisqualificationBlockNumber",
      "outputs": [
        {
          "name": "",
          "type": "uint256"
        }
      ],
      "payable": false,
      "stateMutability": "view",
      "type": "function"
    },
    {
      "constant": true,
      "inputs": [
        {
          "name": "wallet",
          "type": "address"
        },
        {
          "name": "currencyCt",
          "type": "address"
        },
        {
          "name": "currencyId",
          "type": "uint256"
        }
      ],
      "name": "proposalDisqualificationCandidateType",
      "outputs": [
        {
          "name": "",
          "type": "string"
        }
      ],
      "payable": false,
      "stateMutability": "view",
      "type": "function"
    },
    {
      "constant": true,
      "inputs": [
        {
          "name": "wallet",
          "type": "address"
        },
        {
          "name": "currencyCt",
          "type": "address"
        },
        {
          "name": "currencyId",
          "type": "uint256"
        }
      ],
      "name": "proposalDisqualificationCandidateHash",
      "outputs": [
        {
          "name": "",
          "type": "bytes32"
        }
      ],
      "payable": false,
      "stateMutability": "view",
      "type": "function"
    },
    {
      "constant": false,
      "inputs": [
        {
          "name": "wallet",
          "type": "address"
        },
        {
          "components": [
            {
              "name": "nonce",
              "type": "uint256"
            },
            {
              "name": "amount",
              "type": "int256"
            },
            {
              "components": [
                {
                  "name": "ct",
                  "type": "address"
                },
                {
                  "name": "id",
                  "type": "uint256"
                }
              ],
              "name": "currency",
              "type": "tuple"
            },
            {
              "components": [
                {
                  "name": "nonce",
                  "type": "uint256"
                },
                {
                  "name": "wallet",
                  "type": "address"
                },
                {
                  "components": [
                    {
                      "name": "current",
                      "type": "int256"
                    },
                    {
                      "name": "previous",
                      "type": "int256"
                    }
                  ],
                  "name": "balances",
                  "type": "tuple"
                },
                {
                  "components": [
                    {
                      "components": [
                        {
                          "name": "amount",
                          "type": "int256"
                        },
                        {
                          "components": [
                            {
                              "name": "ct",
                              "type": "address"
                            },
                            {
                              "name": "id",
                              "type": "uint256"
                            }
                          ],
                          "name": "currency",
                          "type": "tuple"
                        }
                      ],
                      "name": "single",
                      "type": "tuple"
                    },
                    {
                      "components": [
                        {
                          "name": "originId",
                          "type": "uint256"
                        },
                        {
                          "components": [
                            {
                              "name": "amount",
                              "type": "int256"
                            },
                            {
                              "components": [
                                {
                                  "name": "ct",
                                  "type": "address"
                                },
                                {
                                  "name": "id",
                                  "type": "uint256"
                                }
                              ],
                              "name": "currency",
                              "type": "tuple"
                            }
                          ],
                          "name": "figure",
                          "type": "tuple"
                        }
                      ],
                      "name": "total",
                      "type": "tuple[]"
                    }
                  ],
                  "name": "fees",
                  "type": "tuple"
                }
              ],
              "name": "sender",
              "type": "tuple"
            },
            {
              "components": [
                {
                  "name": "nonce",
                  "type": "uint256"
                },
                {
                  "name": "wallet",
                  "type": "address"
                },
                {
                  "components": [
                    {
                      "name": "current",
                      "type": "int256"
                    },
                    {
                      "name": "previous",
                      "type": "int256"
                    }
                  ],
                  "name": "balances",
                  "type": "tuple"
                },
                {
                  "components": [
                    {
                      "components": [
                        {
                          "name": "originId",
                          "type": "uint256"
                        },
                        {
                          "components": [
                            {
                              "name": "amount",
                              "type": "int256"
                            },
                            {
                              "components": [
                                {
                                  "name": "ct",
                                  "type": "address"
                                },
                                {
                                  "name": "id",
                                  "type": "uint256"
                                }
                              ],
                              "name": "currency",
                              "type": "tuple"
                            }
                          ],
                          "name": "figure",
                          "type": "tuple"
                        }
                      ],
                      "name": "total",
                      "type": "tuple[]"
                    }
                  ],
                  "name": "fees",
                  "type": "tuple"
                }
              ],
              "name": "recipient",
              "type": "tuple"
            },
            {
              "components": [
                {
                  "name": "single",
                  "type": "int256"
                },
                {
                  "name": "total",
                  "type": "int256"
                }
              ],
              "name": "transfers",
              "type": "tuple"
            },
            {
              "components": [
                {
                  "components": [
                    {
                      "name": "hash",
                      "type": "bytes32"
                    },
                    {
                      "components": [
                        {
                          "name": "r",
                          "type": "bytes32"
                        },
                        {
                          "name": "s",
                          "type": "bytes32"
                        },
                        {
                          "name": "v",
                          "type": "uint8"
                        }
                      ],
                      "name": "signature",
                      "type": "tuple"
                    }
                  ],
                  "name": "wallet",
                  "type": "tuple"
                },
                {
                  "components": [
                    {
                      "name": "hash",
                      "type": "bytes32"
                    },
                    {
                      "components": [
                        {
                          "name": "r",
                          "type": "bytes32"
                        },
                        {
                          "name": "s",
                          "type": "bytes32"
                        },
                        {
                          "name": "v",
                          "type": "uint8"
                        }
                      ],
                      "name": "signature",
                      "type": "tuple"
                    }
                  ],
                  "name": "operator",
                  "type": "tuple"
                }
              ],
              "name": "seals",
              "type": "tuple"
            },
            {
              "name": "blockNumber",
              "type": "uint256"
            },
            {
              "name": "operatorId",
              "type": "uint256"
            }
          ],
          "name": "payment",
          "type": "tuple"
        }
      ],
      "name": "challengeByPayment",
      "outputs": [],
      "payable": false,
      "stateMutability": "nonpayable",
      "type": "function"
    }
  ],
  "bytecode": "0x60806040523480156200001157600080fd5b5060405160208062002b418339810180604052620000339190810190620000b6565b8080600160a060020a03811615156200004b57600080fd5b600160a060020a0381163014156200006257600080fd5b506000805461010060a860020a031916610100600160a060020a039390931692830217905560018054600160a060020a031916909117905550620000eb565b6000620000af8251620000df565b9392505050565b600060208284031215620000c957600080fd5b6000620000d78484620000a1565b949350505050565b600160a060020a031690565b612a4680620000fb6000396000f3006080604052600436106101df5763ffffffff60e060020a6000350416630712abb081146101e45780630fa6f23d1461021a5780631327d3d81461023c578063169879291461025e578063240625d81461028b5780632738a112146102ad5780632aa1c9d9146102c25780632d3aae3f146102e25780632f013a0014610302578063311a937f146103175780633a5381b5146103375780633bebdcb51461034c57806342cb45871461036c5780634476d23b1461038c5780634dc8eb79146103ae57806351d7cd61146103ce5780635618b56c146103e3578063570ca735146104105780635dc60def14610425578063627f09c31461043a5780636c70bee91461045a5780636ccb43c81461046f57806370327ea11461048f5780637da5b11c146104a4578063892860b2146104c457806396214735146104e457806396d5c24514610504578063972fcee0146105245780639882da6c14610544578063adfb677814610564578063b3ab15fb14610584578063c19df1e4146105a4578063cdbf9419146105c4578063d5b68c62146105e4578063d5f3948814610604578063e8ae41e314610619578063ed8a829d1461062e578063fa7424f21461064e578063fb1a825e14610663578063fca5192b14610683578063fcd30b02146106a3575b600080fd5b3480156101f057600080fd5b506102046101ff36600461213d565b6106c3565b60405161021191906128c0565b60405180910390f35b34801561022657600080fd5b5061022f61076b565b6040516102119190612897565b34801561024857600080fd5b5061025c610257366004612290565b61077a565b005b34801561026a57600080fd5b5061027e61027936600461213d565b610822565b6040516102119190612889565b34801561029757600080fd5b506102a06108c0565b604051610211919061287b565b3480156102b957600080fd5b5061025c6108d0565b3480156102ce57600080fd5b5061025c6102dd366004612290565b610936565b3480156102ee57600080fd5b5061025c6102fd3660046121db565b6109c7565b34801561030e57600080fd5b506102a0610a25565b34801561032357600080fd5b5061025c610332366004612300565b610a2e565b34801561034357600080fd5b5061022f610b12565b34801561035857600080fd5b506102a061036736600461213d565b610b21565b34801561037857600080fd5b5061027e61038736600461213d565b610bbf565b34801561039857600080fd5b506103a1610c0b565b60405161021191906126b3565b3480156103ba57600080fd5b5061025c6103c9366004612290565b610c1f565b3480156103da57600080fd5b5061022f610ca3565b3480156103ef57600080fd5b506104036103fe36600461213d565b610cb2565b60405161021191906128ce565b34801561041c57600080fd5b506103a1610d54565b34801561043157600080fd5b5061025c610d63565b34801561044657600080fd5b5061025c610455366004612290565b610db7565b34801561046657600080fd5b5061022f610e4f565b34801561047b57600080fd5b5061025c61048a366004612290565b610e5e565b34801561049b57600080fd5b5061025c610ee2565b3480156104b057600080fd5b506102a06104bf36600461213d565b610f45565b3480156104d057600080fd5b5061025c6104df366004612290565b610f91565b3480156104f057600080fd5b5061025c6104ff3660046120f9565b611040565b34801561051057600080fd5b5061040361051f36600461213d565b6110fe565b34801561053057600080fd5b5061025c61053f36600461213d565b61114a565b34801561055057600080fd5b5061027e61055f36600461213d565b6111bb565b34801561057057600080fd5b5061027e61057f36600461213d565b611207565b34801561059057600080fd5b5061025c61059f3660046120f9565b611253565b3480156105b057600080fd5b5061025c6105bf366004612224565b6112fd565b3480156105d057600080fd5b5061027e6105df36600461213d565b611359565b3480156105f057600080fd5b5061027e6105ff36600461213d565b6113a5565b34801561061057600080fd5b506103a16113f1565b34801561062557600080fd5b5061022f611405565b34801561063a57600080fd5b5061025c61064936600461218a565b611414565b34801561065a57600080fd5b5061022f611517565b34801561066f57600080fd5b5061027e61067e36600461213d565b611526565b34801561068f57600080fd5b5061027e61069e36600461213d565b611572565b3480156106af57600080fd5b506103a16106be36600461213d565b6115be565b600654604080518082018252600160a060020a03858116825260208201859052915160e060020a63b6e2fc33028152600093929092169163b6e2fc339161070f9188919060040161277c565b602060405180830381600087803b15801561072957600080fd5b505af115801561073d573d6000803e3d6000fd5b505050506040513d601f19601f8201168201806040525061076191908101906122ae565b90505b9392505050565b600554600160a060020a031681565b600061078461165c565b151561078f57600080fd5b81600160a060020a03811615156107a557600080fd5b6003548390600160a060020a03908116908216811461081b5760038054600160a060020a03878116600160a060020a0319831617909255604051911694507f1882af944a16549c3d4f60e3cd26f158b0c7aac3222cf32971fc21375ce05f609061081290869088906128a5565b60405180910390a15b5050505050565b600654604080518082018252600160a060020a03858116825260208201859052915160e060020a63c46fcd75028152600093929092169163c46fcd759161086e9188919060040161277c565b602060405180830381600087803b15801561088857600080fd5b505af115801561089c573d6000803e3d6000fd5b505050506040513d601f19601f820116820180604052506107619190810190612272565b60045460a060020a900460ff1681565b336108d9610c0b565b600160a060020a0316146108ec57600080fd5b60005460ff16156108fc57600080fd5b7f787a5d936e74f4b564b9153575886059829c78cd9927b1be5e0d976b317ef7363360405161092b91906126b3565b60405180910390a133ff5b600061094061165c565b151561094b57600080fd5b81600160a060020a038116151561096157600080fd5b60068054600160a060020a03858116600160a060020a03198316179283905560405191811694507f4f7125332801996cdeaabf9cff1ac89ddf4b52c673558936affe853ab64a88da926109ba92869291909116906128a5565b60405180910390a1505050565b6109cf611672565b15156109da57600080fd5b6109e78383836000611683565b60c082015160200151516040517f6d94b3aed7642f72cda497a37ad55b99c7d30002cbb67b058b558b2a92a4623d916109ba91339187918690612711565b60005460ff1681565b6004805460405160e260020a631293efbb028152600160a060020a0390911691634a4fbeec91610a60913391016126b3565b602060405180830381600087803b158015610a7a57600080fd5b505af1158015610a8e573d6000803e3d6000fd5b505050506040513d601f19601f82011682018060405250610ab29190810190612254565b15610abc57600080fd5b610ac93383836001611683565b60c082015160200151516040517f557f56c08862b8255911d43ddbdd429111241d48fd17bf432d41a6ae58ade7d391610b06913391908590612761565b60405180910390a15050565b600354600160a060020a031681565b600654604080518082018252600160a060020a03858116825260208201859052915160e060020a635482c7350281526000939290921691635482c73591610b6d9188919060040161277c565b602060405180830381600087803b158015610b8757600080fd5b505af1158015610b9b573d6000803e3d6000fd5b505050506040513d601f19601f820116820180604052506107619190810190612254565b600654604080518082018252600160a060020a03858116825260208201859052915160e160020a633007230f028152600093929092169163600e461e9161086e9188919060040161277c565b6000546101009004600160a060020a031690565b6000610c2961165c565b1515610c3457600080fd5b81600160a060020a0381161515610c4a57600080fd5b60058054600160a060020a03858116600160a060020a03198316179283905560405191811694507f663141f76be1f253f0e608edd55c18b0816521f3b635e072c1c2f710dde6ed19926109ba92869291909116906128a5565b600654600160a060020a031681565b600654604080518082018252600160a060020a03858116825260208201859052915160e160020a630b00ab71028152606093929092169163160156e291610cfe9188919060040161277c565b600060405180830381600087803b158015610d1857600080fd5b505af1158015610d2c573d6000803e3d6000fd5b505050506040513d6000823e601f3d908101601f1916820160405261076191908101906122cc565b600154600160a060020a031681565b610d6b61165c565b1515610d7657600080fd5b6004805460a060020a60ff02191660a060020a1790556040517f56ec8900b9c4bf84f4b715a53068ca06961dd49084c07b481931e2c2045346e690600090a1565b6000610dc161165c565b1515610dcc57600080fd5b81600160a060020a0381161515610de257600080fd5b6002548390600160a060020a03908116908216811461081b5760028054600160a060020a03878116600160a060020a0319831617909255604051911694507f634f61bf00e14adedce330c80c2823e16e184f189ebe853e1ddecc4a268477ff9061081290869088906128a5565b600254600160a060020a031681565b6000610e6861165c565b1515610e7357600080fd5b81600160a060020a0381161515610e8957600080fd5b60078054600160a060020a03858116600160a060020a03198316179283905560405191811694507ff21c127205310467822e10c64b2d9ffae588e019194d6af71f2bdddc0b7ef526926109ba92869291909116906128a5565b33610eeb610c0b565b600160a060020a031614610efe57600080fd5b6000805460ff191660011790556040517fd5a2a04a775c741c2ca0dc46ea7ce4835190e1aaf1ca018def0e82568ec3361690610f3b9033906126b3565b60405180910390a1565b600654604080518082018252600160a060020a03858116825260208201859052915160e260020a6333ca4eab028152600093929092169163cf293aac91610b6d9188919060040161277c565b6000610f9b61165c565b1515610fa657600080fd5b81600160a060020a0381161515610fbc57600080fd5b6004548390600160a060020a03908116908216811461081b5760045460a060020a900460ff1615610fec57600080fd5b60048054600160a060020a03878116600160a060020a0319831617909255604051911694507fa44d361e26327b72a7ccbeae801b3c5cd7677ea4fa74168b289e273c46bfecfc9061081290869088906128a5565b600061104a61165c565b151561105557600080fd5b81600160a060020a038116151561106b57600080fd5b600160a060020a03811630141561108157600080fd5b600054600160a060020a0384811661010090920416146110f95760008054600160a060020a0385811661010090810261010060a860020a0319841617909355604051929091041692507f977e5fa58e458501775e0008d275006294c5249e3c08d1d0e3a9f3acad14f6e4906109ba90849086906126c1565b505050565b600654604080518082018252600160a060020a03858116825260208201859052915160e060020a63dae56943028152606093929092169163dae5694391610cfe9188919060040161277c565b611152611672565b151561115d57600080fd5b61118683604080519081016040528085600160a060020a03168152602001848152506000611a07565b7f5d5800b5b4d9de839f4e933323589d790e5cc56733d895c8af8a69c8e1d830ca338484846040516109ba94939291906126dc565b600654604080518082018252600160a060020a03858116825260208201859052915160e060020a63da473c57028152600093929092169163da473c579161086e9188919060040161277c565b600654604080518082018252600160a060020a03858116825260208201859052915160e060020a631b90e3c10281526000939290921691631b90e3c19161086e9188919060040161277c565b600061125d611672565b151561126857600080fd5b81600160a060020a038116151561127e57600080fd5b600160a060020a03811630141561129457600080fd5b600154600160a060020a038481169116146110f95760018054600160a060020a03858116600160a060020a0319831617909255604051911692507f9f611b789425d0d5b90b920f1b2852907dd865c80074a30b1629aaa041d1812c906109ba90849086906126c1565b61132633604080519081016040528085600160a060020a03168152602001848152506001611a07565b7fc495387f762dad3340f9d4869758066c81d4592e6d13edc66792fe718d887d8f338383604051610b0693929190612739565b600654604080518082018252600160a060020a03858116825260208201859052915160e060020a632ee2ed250281526000939290921691632ee2ed259161086e9188919060040161277c565b600654604080518082018252600160a060020a03858116825260208201859052915160e160020a6345a76a610281526000939290921691638b4ed4c29161086e9188919060040161277c565b6000546101009004600160a060020a031681565b600454600160a060020a031681565b600260009054906101000a9004600160a060020a0316600160a060020a031663f71e860f6040518163ffffffff1660e060020a028152600401602060405180830381600087803b15801561146757600080fd5b505af115801561147b573d6000803e3d6000fd5b505050506040513d601f19601f8201168201806040525061149f9190810190612254565b15156114aa57600080fd5b60055460405160e260020a631a49a0cb028152600160a060020a0390911690636926832c906114e1908590859033906004016127bf565b600060405180830381600087803b1580156114fb57600080fd5b505af115801561150f573d6000803e3d6000fd5b505050505050565b600754600160a060020a031681565b600654604080518082018252600160a060020a03858116825260208201859052915160e060020a6356ec907502815260009392909216916356ec90759161086e9188919060040161277c565b600654604080518082018252600160a060020a03858116825260208201859052915160e060020a6309df8b0b02815260009392909216916309df8b0b9161086e9188919060040161277c565b600654604080518082018252600160a060020a03858116825260208201859052915160e060020a6356587229028152600093929092169163565872299161160a9188919060040161277c565b602060405180830381600087803b15801561162457600080fd5b505af1158015611638573d6000803e3d6000fd5b505050506040513d601f19601f82011682018060405250610761919081019061211f565b6000546101009004600160a060020a0316331490565b600154600160a060020a0316331490565b60035460405160e060020a63a865476b02815260009182918691600160a060020a03169063a865476b906116bb9084906004016128df565b602060405180830381600087803b1580156116d557600080fd5b505af11580156116e9573d6000803e3d6000fd5b505050506040513d601f19601f8201168201806040525061170d9190810190612254565b151561171857600080fd5b600260009054906101000a9004600160a060020a0316600160a060020a031663b6bf41766040518163ffffffff1660e060020a028152600401602060405180830381600087803b15801561176b57600080fd5b505af115801561177f573d6000803e3d6000fd5b505050506040513d601f19601f820116820180604052506117a39190810190612272565b4310156117af57600080fd5b60035460405160e160020a635f1132b7028152600160a060020a039091169063be22656e906117e49089908b906004016128f0565b602060405180830381600087803b1580156117fe57600080fd5b505af1158015611812573d6000803e3d6000fd5b505050506040513d601f19601f820116820180604052506118369190810190612254565b151561184157600080fd5b600754604080880151905160e060020a635482c735028152600160a060020a0390921691635482c7359161187a918b919060040161277c565b602060405180830381600087803b15801561189457600080fd5b505af11580156118a8573d6000803e3d6000fd5b505050506040513d601f19601f820116820180604052506118cc9190810190612254565b15156118d757600080fd5b6118e18688611a75565b6006549194509250600160a060020a031663e9c84a1888858861190a878263ffffffff611b3216565b8b604001518c60e001518b8e60c00151602001516000015173__PaymentTypesLib_______________________63ecf050e36040518163ffffffff1660e060020a02815260040160006040518083038186803b15801561196957600080fd5b505af415801561197d573d6000803e3d6000fd5b505050506040513d6000823e601f3d908101601f191682016040526119a591908101906122cc565b6040518a63ffffffff1660e060020a0281526004016119cc999897969594939291906127ee565b600060405180830381600087803b1580156119e657600080fd5b505af11580156119fa573d6000803e3d6000fd5b5050505050505050505050565b60065460405160e460020a63052a0dd1028152600160a060020a03909116906352a0dd1090611a3e90869086908690600401612797565b600060405180830381600087803b158015611a5857600080fd5b505af1158015611a6c573d6000803e3d6000fd5b50505050505050565b60035460405160e060020a63ef04ec950281526000918291600160a060020a039091169063ef04ec9590611aaf90879087906004016128f0565b602060405180830381600087803b158015611ac957600080fd5b505af1158015611add573d6000803e3d6000fd5b505050506040513d601f19601f82011682018060405250611b019190810190612254565b611b18576080840151805160409091015151611b27565b60608401518051604090910151515b915091509250929050565b6000808212158015611b4657508282840313155b80611b5d5750600082128015611b5d575082828403135b1515611b6857600080fd5b508082035b92915050565b60006107648235612987565b60006107648251612987565b6000601f82018313611b9c57600080fd5b8135611baf611baa82612936565b612910565b91508181835260208401935060208101905083856080840282011115611bd457600080fd5b60005b83811015611c025781611bea8882611d43565b84525060209092019160809190910190600101611bd7565b5050505092915050565b60006107648251612993565b60006107648235612998565b60006107648251612998565b600061076482356129b1565b600061076482516129bc565b6000601f82018313611c5957600080fd5b8151611c67611baa82612956565b91508082526020830160208301858383011115611c8357600080fd5b611c8e8382846129d6565b50505092915050565b600060408284031215611ca957600080fd5b611cb36040612910565b90506000611cc18484611b73565b8252506020611cd284848301611c18565b60208301525092915050565b600060408284031215611cf057600080fd5b611cfa6040612910565b90506000611cc18484611c18565b600060608284031215611d1a57600080fd5b611d246040612910565b90506000611d328484611c18565b8252506020611cd284848301611c97565b600060808284031215611d5557600080fd5b611d5f6040612910565b90506000611d6d8484611c18565b8252506020611cd284848301611d08565b600060a08284031215611d9057600080fd5b611d9a6080612910565b90506000611da88484611c18565b8252506020611db984848301611b73565b6020830152506040611dcd84828501611cde565b60408301525060808201356001604060020a03811115611dec57600080fd5b611df884828501612068565b60608301525092915050565b600060a08284031215611e1657600080fd5b611e206080612910565b90506000611e2e8484611c18565b8252506020611e3f84848301611b73565b6020830152506040611e5384828501611cde565b60408301525060808201356001604060020a03811115611e7257600080fd5b611df884828501612016565b60006102408284031215611e9157600080fd5b611e9c610120612910565b90506000611eaa8484611c18565b8252506020611ebb84848301611c18565b6020830152506040611ecf84828501611c97565b60408301525060808201356001604060020a03811115611eee57600080fd5b611efa84828501611e04565b60608301525060a08201356001604060020a03811115611f1957600080fd5b611f2584828501611d7e565b60808301525060c0611f3984828501611cde565b60a083015250610100611f4e848285016120b1565b60c083015250610200611f6384828501611c18565b60e083015250610220611f7884828501611c18565b6101008301525092915050565b600060808284031215611f9757600080fd5b611fa16040612910565b90506000611faf8484611c18565b8252506020611cd284848301600060608284031215611fcd57600080fd5b611fd76060612910565b90506000611fe58484611c18565b8252506020611ff684848301611c18565b602083015250604061200a848285016120ed565b60408301525092915050565b60006080828403121561202857600080fd5b6120326040612910565b905060006120408484611d08565b82525060608201356001604060020a0381111561205c57600080fd5b611cd284828501611b8b565b60006020828403121561207a57600080fd5b6120846020612910565b905081356001604060020a0381111561209c57600080fd5b6120a884828501611b8b565b82525092915050565b600061010082840312156120c457600080fd5b6120ce6040612910565b905060006120dc8484611f85565b8252506080611cd284848301611f85565b600061076482356129ab565b60006020828403121561210b57600080fd5b60006121178484611b73565b949350505050565b60006020828403121561213157600080fd5b60006121178484611b7f565b60008060006060848603121561215257600080fd5b600061215e8686611b73565b935050602061216f86828701611b73565b925050604061218086828701611c18565b9150509250925092565b6000806040838503121561219d57600080fd5b60006121a98585611b73565b92505060208301356001604060020a038111156121c557600080fd5b6121d185828601611e7e565b9150509250929050565b6000806000606084860312156121f057600080fd5b60006121fc8686611b73565b93505060208401356001604060020a0381111561221857600080fd5b61216f86828701611e7e565b6000806040838503121561223757600080fd5b60006122438585611b73565b92505060206121d185828601611c18565b60006020828403121561226657600080fd5b60006121178484611c0c565b60006020828403121561228457600080fd5b60006121178484611c24565b6000602082840312156122a257600080fd5b60006121178484611c30565b6000602082840312156122c057600080fd5b60006121178484611c3c565b6000602082840312156122de57600080fd5b81516001604060020a038111156122f457600080fd5b61211784828501611c48565b6000806040838503121561231357600080fd5b82356001604060020a0381111561232957600080fd5b61224385828601611e7e565b61233e81612987565b82525050565b600061234f82612983565b8084526020840193506123618361297d565b60005b8281101561239157612377868351612453565b6123808261297d565b608096909601959150600101612364565b5093949350505050565b61233e81612993565b61233e81612998565b61233e816129b1565b61233e816129cb565b60006123ca82612983565b8084526123de8160208601602086016129d6565b6123e781612a02565b9093016020019392505050565b805160408301906124058482612335565b50602082015161241860208501826123a4565b50505050565b8051604083019061240584826123a4565b8051606083019061244084826123a4565b50602082015161241860208501826123f4565b8051608083019061246484826123a4565b506020820151612418602085018261242f565b805160009060a084019061248b85826123a4565b50602083015161249e6020860182612335565b5060408301516124b1604086018261241e565b50606083015184820360808601526124c9828261266d565b95945050505050565b805160009060a08401906124e685826123a4565b5060208301516124f96020860182612335565b50604083015161250c604086018261241e565b50606083015184820360808601526124c98282612641565b805160009061024084019061253985826123a4565b50602083015161254c60208601826123a4565b50604083015161255f60408601826123f4565b506060830151848203608086015261257782826124d2565b915050608083015184820360a08601526125918282612477565b91505060a08301516125a660c086018261241e565b5060c08301516125ba610100860182612685565b5060e08301516125ce6102008601826123a4565b506101008301516125e36102208601826123a4565b509392505050565b805160808301906125fc84826123a4565b50602082015161241860208501828051606083019061261b84826123a4565b50602082015161262e60208501826123a4565b50604082015161241860408501826126aa565b80516000906080840190612655858261242f565b50602083015184820360608601526124c98282612344565b80516020808452600091908401906124c98282612344565b805161010083019061269784826125eb565b50602082015161241860808501826125eb565b61233e816129ab565b60208101611b6d8284612335565b604081016126cf8285612335565b6107646020830184612335565b608081016126ea8287612335565b6126f76020830186612335565b6127046040830185612335565b6124c960608301846123a4565b6080810161271f8287612335565b61272c6020830186612335565b61270460408301856123a4565b606081016127478286612335565b6127546020830185612335565b61211760408301846123a4565b6060810161276f8286612335565b61275460208301856123a4565b6060810161278a8285612335565b61076460208301846123f4565b608081016127a58286612335565b6127b260208301856123f4565b612117606083018461239b565b606081016127cd8286612335565b81810360208301526127df8185612524565b90506121176040830184612335565b61014081016127fd828c612335565b61280a602083018b6123a4565b612817604083018a6123a4565b61282460608301896123a4565b61283160808301886123f4565b61283e60c08301876123a4565b61284b60e083018661239b565b6128596101008301856123a4565b81810361012083015261286c81846123bf565b9b9a5050505050505050505050565b60208101611b6d828461239b565b60208101611b6d82846123a4565b60208101611b6d82846123ad565b604081016128b382856123ad565b61076460208301846123ad565b60208101611b6d82846123b6565b6020808252810161076481846123bf565b602080825281016107648184612524565b604080825281016129018185612524565b90506107646020830184612335565b6040518181016001604060020a038111828210171561292e57600080fd5b604052919050565b60006001604060020a0382111561294c57600080fd5b5060209081020190565b60006001604060020a0382111561296c57600080fd5b506020601f91909101601f19160190565b60200190565b5190565b600160a060020a031690565b151590565b90565b6000600282106129a757fe5b5090565b60ff1690565b6000611b6d82612987565b6000600282106129a757600080fd5b6000611b6d8261299b565b60005b838110156129f15781810151838201526020016129d9565b838111156124185750506000910152565b601f01601f1916905600a265627a7a723058206b6295e487ee610aa354de7663328edbc02818f8dd8a3bce600373ced11878e96c6578706572696d656e74616cf50037",
  "source": "/*\n * Hubii Nahmii\n *\n * Compliant with the Hubii Nahmii specification v0.12.\n *\n * Copyright (C) 2017-2018 Hubii AS\n */\n\npragma solidity ^0.4.25;\npragma experimental ABIEncoderV2;\n\nimport {Ownable} from \"./Ownable.sol\";\nimport {ConfigurableOperational} from \"./ConfigurableOperational.sol\";\nimport {Validatable} from \"./Validatable.sol\";\nimport {WalletLockable} from \"./WalletLockable.sol\";\nimport {SafeMathIntLib} from \"./SafeMathIntLib.sol\";\nimport {SafeMathUintLib} from \"./SafeMathUintLib.sol\";\nimport {DriipSettlementDisputeByPayment} from \"./DriipSettlementDisputeByPayment.sol\";\nimport {DriipSettlementChallengeState} from \"./DriipSettlementChallengeState.sol\";\nimport {NullSettlementChallengeState} from \"./NullSettlementChallengeState.sol\";\nimport {MonetaryTypesLib} from \"./MonetaryTypesLib.sol\";\nimport {NahmiiTypesLib} from \"./NahmiiTypesLib.sol\";\nimport {PaymentTypesLib} from \"./PaymentTypesLib.sol\";\nimport {SettlementChallengeTypesLib} from \"./SettlementChallengeTypesLib.sol\";\n\n/**\n * @title DriipSettlementChallengeByPayment\n * @notice Where driip settlements pertaining to payments are started and disputed\n */\ncontract DriipSettlementChallengeByPayment is Ownable, ConfigurableOperational, Validatable, WalletLockable {\n    using SafeMathIntLib for int256;\n    using SafeMathUintLib for uint256;\n\n    //\n    // Variables\n    // -----------------------------------------------------------------------------------------------------------------\n    DriipSettlementDisputeByPayment public driipSettlementDisputeByPayment;\n    DriipSettlementChallengeState public driipSettlementChallengeState;\n    NullSettlementChallengeState public nullSettlementChallengeState;\n\n    //\n    // Events\n    // -----------------------------------------------------------------------------------------------------------------\n    event SetDriipSettlementDisputeByPaymentEvent(DriipSettlementDisputeByPayment oldDriipSettlementDisputeByPayment,\n        DriipSettlementDisputeByPayment newDriipSettlementDisputeByPayment);\n    event SetDriipSettlementChallengeStateEvent(DriipSettlementChallengeState oldDriipSettlementChallengeState,\n        DriipSettlementChallengeState newDriipSettlementChallengeState);\n    event SetNullSettlementChallengeStateEvent(NullSettlementChallengeState oldNullSettlementChallengeState,\n        NullSettlementChallengeState newNullSettlementChallengeState);\n    event StartChallengeFromPaymentEvent(address wallet, bytes32 paymentHash, int256 stageAmount);\n    event StartChallengeFromPaymentByProxyEvent(address proxy, address wallet, bytes32 paymentHash,\n        int256 stageAmount);\n    event StopChallengeEvent(address wallet, address currencyCt, uint256 currencyId);\n    event StopChallengeByProxyEvent(address proxy, address wallet, address currencyCt, uint256 currencyId);\n\n    //\n    // Constructor\n    // -----------------------------------------------------------------------------------------------------------------\n    constructor(address deployer) Ownable(deployer) public {\n    }\n\n    //\n    // Functions\n    // -----------------------------------------------------------------------------------------------------------------\n    /// @notice Set the settlement dispute contract\n    /// @param newDriipSettlementDisputeByPayment The (address of) DriipSettlementDisputeByPayment contract instance\n    function setDriipSettlementDisputeByPayment(DriipSettlementDisputeByPayment newDriipSettlementDisputeByPayment)\n    public\n    onlyDeployer\n    notNullAddress(newDriipSettlementDisputeByPayment)\n    {\n        DriipSettlementDisputeByPayment oldDriipSettlementDisputeByPayment = driipSettlementDisputeByPayment;\n        driipSettlementDisputeByPayment = newDriipSettlementDisputeByPayment;\n        emit SetDriipSettlementDisputeByPaymentEvent(oldDriipSettlementDisputeByPayment, driipSettlementDisputeByPayment);\n    }\n\n    /// @notice Set the driip settlement challenge state contract\n    /// @param newDriipSettlementChallengeState The (address of) DriipSettlementChallengeState contract instance\n    function setDriipSettlementChallengeState(DriipSettlementChallengeState newDriipSettlementChallengeState)\n    public\n    onlyDeployer\n    notNullAddress(newDriipSettlementChallengeState)\n    {\n        DriipSettlementChallengeState oldDriipSettlementChallengeState = driipSettlementChallengeState;\n        driipSettlementChallengeState = newDriipSettlementChallengeState;\n        emit SetDriipSettlementChallengeStateEvent(oldDriipSettlementChallengeState, driipSettlementChallengeState);\n    }\n\n    /// @notice Set the null settlement challenge state contract\n    /// @param newNullSettlementChallengeState The (address of) NullSettlementChallengeState contract instance\n    function setNullSettlementChallengeState(NullSettlementChallengeState newNullSettlementChallengeState)\n    public\n    onlyDeployer\n    notNullAddress(newNullSettlementChallengeState)\n    {\n        NullSettlementChallengeState oldNullSettlementChallengeState = nullSettlementChallengeState;\n        nullSettlementChallengeState = newNullSettlementChallengeState;\n        emit SetNullSettlementChallengeStateEvent(oldNullSettlementChallengeState, nullSettlementChallengeState);\n    }\n\n    /// @notice Start settlement challenge on payment\n    /// @param payment The challenged payment\n    /// @param stageAmount Amount of payment currency to be staged\n    function startChallengeFromPayment(PaymentTypesLib.Payment payment, int256 stageAmount)\n    public\n    {\n        // Require that wallet is not temporarily disqualified\n        require(!walletLocker.isLocked(msg.sender));\n\n        // Start challenge for wallet\n        _startChallengeFromPayment(msg.sender, payment, stageAmount, true);\n\n        // Emit event\n        emit StartChallengeFromPaymentEvent(msg.sender, payment.seals.operator.hash, stageAmount);\n    }\n\n    /// @notice Start settlement challenge on payment\n    /// @param wallet The concerned party\n    /// @param payment The challenged payment\n    /// @param stageAmount Amount of payment currency to be staged\n    function startChallengeFromPaymentByProxy(address wallet, PaymentTypesLib.Payment payment, int256 stageAmount)\n    public\n    onlyOperator\n    {\n        // Start challenge for wallet\n        _startChallengeFromPayment(wallet, payment, stageAmount, false);\n\n        // Emit event\n        emit StartChallengeFromPaymentByProxyEvent(msg.sender, wallet, payment.seals.operator.hash, stageAmount);\n    }\n\n    /// @notice Stop settlement challenge\n    /// @param currencyCt The address of the concerned currency contract (address(0) == ETH)\n    /// @param currencyId The ID of the concerned currency (0 for ETH and ERC20)\n    function stopChallenge(address currencyCt, uint256 currencyId)\n    public\n    {\n        // Stop challenge\n        _stopChallenge(msg.sender, MonetaryTypesLib.Currency(currencyCt, currencyId), true);\n\n        // Emit event\n        emit StopChallengeEvent(msg.sender, currencyCt, currencyId);\n    }\n\n    /// @notice Stop settlement challenge\n    /// @param wallet The concerned wallet\n    /// @param currencyCt The address of the concerned currency contract (address(0) == ETH)\n    /// @param currencyId The ID of the concerned currency (0 for ETH and ERC20)\n    function stopChallengeByProxy(address wallet, address currencyCt, uint256 currencyId)\n    public\n    onlyOperator\n    {\n        // Stop challenge\n        _stopChallenge(wallet, MonetaryTypesLib.Currency(currencyCt, currencyId), false);\n\n        // Emit event\n        emit StopChallengeByProxyEvent(msg.sender, wallet, currencyCt, currencyId);\n    }\n\n    /// @notice Gauge whether the proposal for the given wallet and currency has expired\n    /// @param wallet The address of the concerned wallet\n    /// @param currencyCt The address of the concerned currency contract (address(0) == ETH)\n    /// @param currencyId The ID of the concerned currency (0 for ETH and ERC20)\n    /// @return true if proposal has expired, else false\n    function hasProposalExpired(address wallet, address currencyCt, uint256 currencyId)\n    public\n    view\n    returns (bool)\n    {\n        return driipSettlementChallengeState.hasProposalExpired(\n            wallet, MonetaryTypesLib.Currency(currencyCt, currencyId)\n        );\n    }\n\n    /// @notice Get the challenge nonce of the given wallet\n    /// @param wallet The address of the concerned wallet\n    /// @param currencyCt The address of the concerned currency contract (address(0) == ETH)\n    /// @param currencyId The ID of the concerned currency (0 for ETH and ERC20)\n    /// @return The challenge nonce\n    function proposalNonce(address wallet, address currencyCt, uint256 currencyId)\n    public\n    view\n    returns (uint256)\n    {\n        return driipSettlementChallengeState.proposalNonce(\n            wallet, MonetaryTypesLib.Currency(currencyCt, currencyId)\n        );\n    }\n\n    /// @notice Get the settlement proposal block number of the given wallet\n    /// @param wallet The address of the concerned wallet\n    /// @param currencyCt The address of the concerned currency contract (address(0) == ETH)\n    /// @param currencyId The ID of the concerned currency (0 for ETH and ERC20)\n    /// @return The settlement proposal block number\n    function proposalBlockNumber(address wallet, address currencyCt, uint256 currencyId)\n    public\n    view\n    returns (uint256)\n    {\n        return driipSettlementChallengeState.proposalBlockNumber(\n            wallet, MonetaryTypesLib.Currency(currencyCt, currencyId)\n        );\n    }\n\n    /// @notice Get the settlement proposal end time of the given wallet\n    /// @param wallet The address of the concerned wallet\n    /// @param currencyCt The address of the concerned currency contract (address(0) == ETH)\n    /// @param currencyId The ID of the concerned currency (0 for ETH and ERC20)\n    /// @return The settlement proposal end time\n    function proposalExpirationTime(address wallet, address currencyCt, uint256 currencyId)\n    public\n    view\n    returns (uint256)\n    {\n        return driipSettlementChallengeState.proposalExpirationTime(\n            wallet, MonetaryTypesLib.Currency(currencyCt, currencyId)\n        );\n    }\n\n    /// @notice Get the challenge status of the given wallet\n    /// @param wallet The address of the concerned wallet\n    /// @param currencyCt The address of the concerned currency contract (address(0) == ETH)\n    /// @param currencyId The ID of the concerned currency (0 for ETH and ERC20)\n    /// @return The challenge status\n    function proposalStatus(address wallet, address currencyCt, uint256 currencyId)\n    public\n    view\n    returns (SettlementChallengeTypesLib.Status)\n    {\n        return driipSettlementChallengeState.proposalStatus(\n            wallet, MonetaryTypesLib.Currency(currencyCt, currencyId)\n        );\n    }\n\n    /// @notice Get the settlement proposal stage amount of the given wallet and currency\n    /// @param wallet The address of the concerned wallet\n    /// @param currencyCt The address of the concerned currency contract (address(0) == ETH)\n    /// @param currencyId The ID of the concerned currency (0 for ETH and ERC20)\n    /// @return The settlement proposal stage amount\n    function proposalStageAmount(address wallet, address currencyCt, uint256 currencyId)\n    public\n    view\n    returns (int256)\n    {\n        return driipSettlementChallengeState.proposalStageAmount(\n            wallet, MonetaryTypesLib.Currency(currencyCt, currencyId)\n        );\n    }\n\n    /// @notice Get the settlement proposal target balance amount of the given wallet and currency\n    /// @param wallet The address of the concerned wallet\n    /// @param currencyCt The address of the concerned currency contract (address(0) == ETH)\n    /// @param currencyId The ID of the concerned currency (0 for ETH and ERC20)\n    /// @return The settlement proposal target balance amount\n    function proposalTargetBalanceAmount(address wallet, address currencyCt, uint256 currencyId)\n    public\n    view\n    returns (int256)\n    {\n        return driipSettlementChallengeState.proposalTargetBalanceAmount(\n            wallet, MonetaryTypesLib.Currency(currencyCt, currencyId)\n        );\n    }\n\n    /// @notice Get the settlement proposal driip hash of the given wallet and currency\n    /// @param wallet The address of the concerned wallet\n    /// @param currencyCt The address of the concerned currency contract (address(0) == ETH)\n    /// @param currencyId The ID of the concerned currency (0 for ETH and ERC20)\n    /// @return The settlement proposal driip hash\n    function proposalChallengedHash(address wallet, address currencyCt, uint256 currencyId)\n    public\n    view\n    returns (bytes32)\n    {\n        return driipSettlementChallengeState.proposalChallengedHash(\n            wallet, MonetaryTypesLib.Currency(currencyCt, currencyId)\n        );\n    }\n\n    /// @notice Get the settlement proposal driip type of the given wallet and currency\n    /// @param wallet The address of the concerned wallet\n    /// @param currencyCt The address of the concerned currency contract (address(0) == ETH)\n    /// @param currencyId The ID of the concerned currency (0 for ETH and ERC20)\n    /// @return The settlement proposal driip type\n    function proposalChallengedType(address wallet, address currencyCt, uint256 currencyId)\n    public\n    view\n    returns (string)\n    {\n        return driipSettlementChallengeState.proposalChallengedType(\n            wallet, MonetaryTypesLib.Currency(currencyCt, currencyId)\n        );\n    }\n\n    /// @notice Get the balance reward of the given wallet's settlement proposal\n    /// @param wallet The address of the concerned wallet\n    /// @param currencyCt The address of the concerned currency contract (address(0) == ETH)\n    /// @param currencyId The ID of the concerned currency (0 for ETH and ERC20)\n    /// @return The balance reward of the settlement proposal\n    function proposalWalletInitiated(address wallet, address currencyCt, uint256 currencyId)\n    public\n    view\n    returns (bool)\n    {\n        return driipSettlementChallengeState.proposalWalletInitiated(\n            wallet, MonetaryTypesLib.Currency(currencyCt, currencyId)\n        );\n    }\n\n    /// @notice Get the disqualification challenger of the given wallet and currency\n    /// @param wallet The address of the concerned wallet\n    /// @param currencyCt The address of the concerned currency contract (address(0) == ETH)\n    /// @param currencyId The ID of the concerned currency (0 for ETH and ERC20)\n    /// @return The challenger of the settlement disqualification\n    function proposalDisqualificationChallenger(address wallet, address currencyCt, uint256 currencyId)\n    public\n    view\n    returns (address)\n    {\n        return driipSettlementChallengeState.proposalDisqualificationChallenger(\n            wallet, MonetaryTypesLib.Currency(currencyCt, currencyId)\n        );\n    }\n    /// @notice Get the disqualification block number of the given wallet and currency\n    /// @param wallet The address of the concerned wallet\n    /// @param currencyCt The address of the concerned currency contract (address(0) == ETH)\n    /// @param currencyId The ID of the concerned currency (0 for ETH and ERC20)\n    /// @return The block number of the settlement disqualification\n    function proposalDisqualificationBlockNumber(address wallet, address currencyCt, uint256 currencyId)\n    public\n    view\n    returns (uint256)\n    {\n        return driipSettlementChallengeState.proposalDisqualificationBlockNumber(\n            wallet, MonetaryTypesLib.Currency(currencyCt, currencyId)\n        );\n    }\n\n    /// @notice Get the disqualification candidate type of the given wallet and currency\n    /// @param wallet The address of the concerned wallet\n    /// @param currencyCt The address of the concerned currency contract (address(0) == ETH)\n    /// @param currencyId The ID of the concerned currency (0 for ETH and ERC20)\n    /// @return The candidate type of the settlement disqualification\n    function proposalDisqualificationCandidateType(address wallet, address currencyCt, uint256 currencyId)\n    public\n    view\n    returns (string)\n    {\n        return driipSettlementChallengeState.proposalDisqualificationCandidateType(\n            wallet, MonetaryTypesLib.Currency(currencyCt, currencyId)\n        );\n    }\n\n    /// @notice Get the disqualification candidate hash of the given wallet and currency\n    /// @param wallet The address of the concerned wallet\n    /// @param currencyCt The address of the concerned currency contract (address(0) == ETH)\n    /// @param currencyId The ID of the concerned currency (0 for ETH and ERC20)\n    /// @return The candidate hash of the settlement disqualification\n    function proposalDisqualificationCandidateHash(address wallet, address currencyCt, uint256 currencyId)\n    public\n    view\n    returns (bytes32)\n    {\n        return driipSettlementChallengeState.proposalDisqualificationCandidateHash(\n            wallet, MonetaryTypesLib.Currency(currencyCt, currencyId)\n        );\n    }\n\n    /// @notice Challenge the settlement by providing payment candidate\n    /// @param wallet The wallet whose settlement is being challenged\n    /// @param payment The payment candidate that challenges the challenged driip\n    function challengeByPayment(address wallet, PaymentTypesLib.Payment payment)\n    public\n    onlyOperationalModeNormal\n    {\n        driipSettlementDisputeByPayment.challengeByPayment(wallet, payment, msg.sender);\n    }\n\n    //\n    // Private functions\n    // -----------------------------------------------------------------------------------------------------------------\n    function _startChallengeFromPayment(address wallet, PaymentTypesLib.Payment payment,\n        int256 stageAmount, bool walletInitiated)\n    private\n    onlySealedPayment(payment)\n    {\n        // Require that current block number is beyond the earliest settlement challenge block number\n        require(block.number >= configuration.earliestSettlementBlockNumber());\n\n        // Require that given wallet is a payment party\n        require(validator.isPaymentParty(payment, wallet));\n\n        // Require that there is no ongoing overlapping null settlement challenge\n        require(nullSettlementChallengeState.hasProposalExpired(wallet, payment.currency));\n\n        // Deduce the concerned balance amount\n        (uint256 nonce, int256 balanceAmount) = _paymentPartyProperties(payment, wallet);\n\n        // Add proposal, including assurance that there is no overlap with active proposal\n        driipSettlementChallengeState.addProposal(\n            wallet, nonce, stageAmount, balanceAmount.sub(stageAmount), payment.currency, payment.blockNumber,\n            walletInitiated, payment.seals.operator.hash, PaymentTypesLib.PAYMENT_TYPE()\n        );\n    }\n\n    function _stopChallenge(address wallet, MonetaryTypesLib.Currency currency, bool walletTerminated)\n    private\n    {\n        // Stop challenge\n        driipSettlementChallengeState.removeProposal(wallet, currency, walletTerminated);\n    }\n\n    function _paymentPartyProperties(PaymentTypesLib.Payment payment, address wallet)\n    private\n    view\n    returns (uint256, int256)\n    {\n        return validator.isPaymentSender(payment, wallet) ?\n        (payment.sender.nonce, payment.sender.balances.current) :\n    (payment.recipient.nonce, payment.recipient.balances.current);\n    }\n}\n",
  "sourcePath": "/Users/kata/dev/hubii/striim-contracts/contracts/DriipSettlementChallengeByPayment.sol",
  "compiler": {
    "name": "solc",
    "version": "0.4.25+commit.59dbf8f1.Emscripten.clang"
  },
  "schemaVersion": "2.0.2",
  "updatedAt": "2019-03-15T08:47:44.842Z"
}