{
    "contractName": "DriipSettlement",
    "abi": [
        {
            "constant": false,
            "inputs": [
                {
                    "name": "newFraudChallenge",
                    "type": "address"
                }
            ],
            "name": "setFraudChallenge",
            "outputs": [],
            "payable": false,
            "stateMutability": "nonpayable",
            "type": "function"
        },
        {
            "constant": true,
            "inputs": [
                {
                    "name": "",
                    "type": "uint256"
                }
            ],
            "name": "settlements",
            "outputs": [
                {
                    "name": "nonce",
                    "type": "uint256"
                },
                {
                    "name": "driipType",
                    "type": "uint8"
                },
                {
                    "components": [
                        {
                            "name": "nonce",
                            "type": "uint256"
                        },
                        {
                            "name": "wallet",
                            "type": "address"
                        },
                        {
                            "name": "done",
                            "type": "bool"
                        }
                    ],
                    "name": "origin",
                    "type": "tuple"
                },
                {
                    "components": [
                        {
                            "name": "nonce",
                            "type": "uint256"
                        },
                        {
                            "name": "wallet",
                            "type": "address"
                        },
                        {
                            "name": "done",
                            "type": "bool"
                        }
                    ],
                    "name": "target",
                    "type": "tuple"
                }
            ],
            "payable": false,
            "stateMutability": "view",
            "type": "function"
        },
        {
            "constant": false,
            "inputs": [
                {
                    "name": "newValidator",
                    "type": "address"
                }
            ],
            "name": "setValidator",
            "outputs": [],
            "payable": false,
            "stateMutability": "nonpayable",
            "type": "function"
        },
        {
            "constant": true,
            "inputs": [],
            "name": "walletLockerFrozen",
            "outputs": [
                {
                    "name": "",
                    "type": "bool"
                }
            ],
            "payable": false,
            "stateMutability": "view",
            "type": "function"
        },
        {
            "constant": false,
            "inputs": [],
            "name": "triggerSelfDestruction",
            "outputs": [],
            "payable": false,
            "stateMutability": "nonpayable",
            "type": "function"
        },
        {
            "constant": false,
            "inputs": [],
            "name": "disableUpdateOfCommunityVote",
            "outputs": [],
            "payable": false,
            "stateMutability": "nonpayable",
            "type": "function"
        },
        {
            "constant": true,
            "inputs": [],
            "name": "selfDestructionDisabled",
            "outputs": [
                {
                    "name": "",
                    "type": "bool"
                }
            ],
            "payable": false,
            "stateMutability": "view",
            "type": "function"
        },
        {
            "constant": true,
            "inputs": [],
            "name": "validator",
            "outputs": [
                {
                    "name": "",
                    "type": "address"
                }
            ],
            "payable": false,
            "stateMutability": "view",
            "type": "function"
        },
        {
            "constant": true,
            "inputs": [],
            "name": "fraudChallenge",
            "outputs": [
                {
                    "name": "",
                    "type": "address"
                }
            ],
            "payable": false,
            "stateMutability": "view",
            "type": "function"
        },
        {
            "constant": true,
            "inputs": [],
            "name": "destructor",
            "outputs": [
                {
                    "name": "",
                    "type": "address"
                }
            ],
            "payable": false,
            "stateMutability": "view",
            "type": "function"
        },
        {
            "constant": true,
            "inputs": [],
            "name": "operator",
            "outputs": [
                {
                    "name": "",
                    "type": "address"
                }
            ],
            "payable": false,
            "stateMutability": "view",
            "type": "function"
        },
        {
            "constant": false,
            "inputs": [],
            "name": "freezeWalletLocker",
            "outputs": [],
            "payable": false,
            "stateMutability": "nonpayable",
            "type": "function"
        },
        {
            "constant": false,
            "inputs": [
                {
                    "name": "newConfiguration",
                    "type": "address"
                }
            ],
            "name": "setConfiguration",
            "outputs": [],
            "payable": false,
            "stateMutability": "nonpayable",
            "type": "function"
        },
        {
            "constant": true,
            "inputs": [],
            "name": "configuration",
            "outputs": [
                {
                    "name": "",
                    "type": "address"
                }
            ],
            "payable": false,
            "stateMutability": "view",
            "type": "function"
        },
        {
            "constant": false,
            "inputs": [],
            "name": "disableSelfDestruction",
            "outputs": [],
            "payable": false,
            "stateMutability": "nonpayable",
            "type": "function"
        },
        {
            "constant": false,
            "inputs": [
                {
                    "name": "newWalletLocker",
                    "type": "address"
                }
            ],
            "name": "setWalletLocker",
            "outputs": [],
            "payable": false,
            "stateMutability": "nonpayable",
            "type": "function"
        },
        {
            "constant": true,
            "inputs": [],
            "name": "maxDriipNonce",
            "outputs": [
                {
                    "name": "",
                    "type": "uint256"
                }
            ],
            "payable": false,
            "stateMutability": "view",
            "type": "function"
        },
        {
            "constant": true,
            "inputs": [
                {
                    "name": "",
                    "type": "address"
                },
                {
                    "name": "",
                    "type": "uint256"
                }
            ],
            "name": "walletSettlementIndices",
            "outputs": [
                {
                    "name": "",
                    "type": "uint256"
                }
            ],
            "payable": false,
            "stateMutability": "view",
            "type": "function"
        },
        {
            "constant": false,
            "inputs": [
                {
                    "name": "newDeployer",
                    "type": "address"
                }
            ],
            "name": "setDeployer",
            "outputs": [],
            "payable": false,
            "stateMutability": "nonpayable",
            "type": "function"
        },
        {
            "constant": true,
            "inputs": [
                {
                    "name": "",
                    "type": "uint256"
                }
            ],
            "name": "nonceSettlementIndex",
            "outputs": [
                {
                    "name": "",
                    "type": "uint256"
                }
            ],
            "payable": false,
            "stateMutability": "view",
            "type": "function"
        },
        {
            "constant": true,
            "inputs": [],
            "name": "paymentsRevenueFund",
            "outputs": [
                {
                    "name": "",
                    "type": "address"
                }
            ],
            "payable": false,
            "stateMutability": "view",
            "type": "function"
        },
        {
            "constant": false,
            "inputs": [
                {
                    "name": "newOperator",
                    "type": "address"
                }
            ],
            "name": "setOperator",
            "outputs": [],
            "payable": false,
            "stateMutability": "nonpayable",
            "type": "function"
        },
        {
            "constant": false,
            "inputs": [
                {
                    "name": "newClientFund",
                    "type": "address"
                }
            ],
            "name": "setClientFund",
            "outputs": [],
            "payable": false,
            "stateMutability": "nonpayable",
            "type": "function"
        },
        {
            "constant": true,
            "inputs": [],
            "name": "communityVote",
            "outputs": [
                {
                    "name": "",
                    "type": "address"
                }
            ],
            "payable": false,
            "stateMutability": "view",
            "type": "function"
        },
        {
            "constant": true,
            "inputs": [],
            "name": "tradesRevenueFund",
            "outputs": [
                {
                    "name": "",
                    "type": "address"
                }
            ],
            "payable": false,
            "stateMutability": "view",
            "type": "function"
        },
        {
            "constant": true,
            "inputs": [],
            "name": "communityVoteUpdateDisabled",
            "outputs": [
                {
                    "name": "",
                    "type": "bool"
                }
            ],
            "payable": false,
            "stateMutability": "view",
            "type": "function"
        },
        {
            "constant": true,
            "inputs": [],
            "name": "deployer",
            "outputs": [
                {
                    "name": "",
                    "type": "address"
                }
            ],
            "payable": false,
            "stateMutability": "view",
            "type": "function"
        },
        {
            "constant": true,
            "inputs": [
                {
                    "name": "",
                    "type": "address"
                },
                {
                    "name": "",
                    "type": "uint256"
                }
            ],
            "name": "walletNonceSettlementIndex",
            "outputs": [
                {
                    "name": "",
                    "type": "uint256"
                }
            ],
            "payable": false,
            "stateMutability": "view",
            "type": "function"
        },
        {
            "constant": true,
            "inputs": [
                {
                    "name": "",
                    "type": "address"
                },
                {
                    "name": "",
                    "type": "address"
                },
                {
                    "name": "",
                    "type": "address"
                },
                {
                    "name": "",
                    "type": "address"
                },
                {
                    "name": "",
                    "type": "uint256"
                }
            ],
            "name": "feeTotalsMap",
            "outputs": [
                {
                    "name": "nonce",
                    "type": "uint256"
                },
                {
                    "name": "amount",
                    "type": "int256"
                }
            ],
            "payable": false,
            "stateMutability": "view",
            "type": "function"
        },
        {
            "constant": true,
            "inputs": [
                {
                    "name": "",
                    "type": "address"
                },
                {
                    "name": "",
                    "type": "address"
                },
                {
                    "name": "",
                    "type": "uint256"
                }
            ],
            "name": "walletCurrencyMaxDriipNonce",
            "outputs": [
                {
                    "name": "",
                    "type": "uint256"
                }
            ],
            "payable": false,
            "stateMutability": "view",
            "type": "function"
        },
        {
            "constant": true,
            "inputs": [],
            "name": "clientFund",
            "outputs": [
                {
                    "name": "",
                    "type": "address"
                }
            ],
            "payable": false,
            "stateMutability": "view",
            "type": "function"
        },
        {
            "constant": false,
            "inputs": [
                {
                    "name": "newCommunityVote",
                    "type": "address"
                }
            ],
            "name": "setCommunityVote",
            "outputs": [],
            "payable": false,
            "stateMutability": "nonpayable",
            "type": "function"
        },
        {
            "constant": true,
            "inputs": [],
            "name": "walletLocker",
            "outputs": [
                {
                    "name": "",
                    "type": "address"
                }
            ],
            "payable": false,
            "stateMutability": "view",
            "type": "function"
        },
        {
            "constant": true,
            "inputs": [],
            "name": "partnerFund",
            "outputs": [
                {
                    "name": "",
                    "type": "address"
                }
            ],
            "payable": false,
            "stateMutability": "view",
            "type": "function"
        },
        {
            "constant": true,
            "inputs": [],
            "name": "driipSettlementChallenge",
            "outputs": [
                {
                    "name": "",
                    "type": "address"
                }
            ],
            "payable": false,
            "stateMutability": "view",
            "type": "function"
        },
        {
            "inputs": [
                {
                    "name": "deployer",
                    "type": "address"
                }
            ],
            "payable": false,
            "stateMutability": "nonpayable",
            "type": "constructor"
        },
        {
            "anonymous": false,
            "inputs": [
                {
                    "indexed": false,
                    "name": "wallet",
                    "type": "address"
                },
                {
                    "components": [
                        {
                            "name": "nonce",
                            "type": "uint256"
                        },
                        {
                            "name": "amount",
                            "type": "int256"
                        },
                        {
                            "components": [
                                {
                                    "components": [
                                        {
                                            "name": "ct",
                                            "type": "address"
                                        },
                                        {
                                            "name": "id",
                                            "type": "uint256"
                                        }
                                    ],
                                    "name": "intended",
                                    "type": "tuple"
                                },
                                {
                                    "components": [
                                        {
                                            "name": "ct",
                                            "type": "address"
                                        },
                                        {
                                            "name": "id",
                                            "type": "uint256"
                                        }
                                    ],
                                    "name": "conjugate",
                                    "type": "tuple"
                                }
                            ],
                            "name": "currencies",
                            "type": "tuple"
                        },
                        {
                            "name": "rate",
                            "type": "int256"
                        },
                        {
                            "components": [
                                {
                                    "name": "nonce",
                                    "type": "uint256"
                                },
                                {
                                    "name": "wallet",
                                    "type": "address"
                                },
                                {
                                    "name": "rollingVolume",
                                    "type": "uint256"
                                },
                                {
                                    "name": "liquidityRole",
                                    "type": "uint8"
                                },
                                {
                                    "components": [
                                        {
                                            "name": "amount",
                                            "type": "int256"
                                        },
                                        {
                                            "components": [
                                                {
                                                    "name": "wallet",
                                                    "type": "bytes32"
                                                },
                                                {
                                                    "name": "operator",
                                                    "type": "bytes32"
                                                }
                                            ],
                                            "name": "hashes",
                                            "type": "tuple"
                                        },
                                        {
                                            "components": [
                                                {
                                                    "name": "current",
                                                    "type": "int256"
                                                },
                                                {
                                                    "name": "previous",
                                                    "type": "int256"
                                                }
                                            ],
                                            "name": "residuals",
                                            "type": "tuple"
                                        }
                                    ],
                                    "name": "order",
                                    "type": "tuple"
                                },
                                {
                                    "components": [
                                        {
                                            "components": [
                                                {
                                                    "name": "current",
                                                    "type": "int256"
                                                },
                                                {
                                                    "name": "previous",
                                                    "type": "int256"
                                                }
                                            ],
                                            "name": "intended",
                                            "type": "tuple"
                                        },
                                        {
                                            "components": [
                                                {
                                                    "name": "current",
                                                    "type": "int256"
                                                },
                                                {
                                                    "name": "previous",
                                                    "type": "int256"
                                                }
                                            ],
                                            "name": "conjugate",
                                            "type": "tuple"
                                        }
                                    ],
                                    "name": "balances",
                                    "type": "tuple"
                                },
                                {
                                    "components": [
                                        {
                                            "components": [
                                                {
                                                    "name": "amount",
                                                    "type": "int256"
                                                },
                                                {
                                                    "components": [
                                                        {
                                                            "name": "ct",
                                                            "type": "address"
                                                        },
                                                        {
                                                            "name": "id",
                                                            "type": "uint256"
                                                        }
                                                    ],
                                                    "name": "currency",
                                                    "type": "tuple"
                                                }
                                            ],
                                            "name": "single",
                                            "type": "tuple"
                                        },
                                        {
                                            "components": [
                                                {
                                                    "name": "originId",
                                                    "type": "uint256"
                                                },
                                                {
                                                    "components": [
                                                        {
                                                            "name": "amount",
                                                            "type": "int256"
                                                        },
                                                        {
                                                            "components": [
                                                                {
                                                                    "name": "ct",
                                                                    "type": "address"
                                                                },
                                                                {
                                                                    "name": "id",
                                                                    "type": "uint256"
                                                                }
                                                            ],
                                                            "name": "currency",
                                                            "type": "tuple"
                                                        }
                                                    ],
                                                    "name": "figure",
                                                    "type": "tuple"
                                                }
                                            ],
                                            "name": "total",
                                            "type": "tuple[]"
                                        }
                                    ],
                                    "name": "fees",
                                    "type": "tuple"
                                }
                            ],
                            "name": "buyer",
                            "type": "tuple"
                        },
                        {
                            "components": [
                                {
                                    "name": "nonce",
                                    "type": "uint256"
                                },
                                {
                                    "name": "wallet",
                                    "type": "address"
                                },
                                {
                                    "name": "rollingVolume",
                                    "type": "uint256"
                                },
                                {
                                    "name": "liquidityRole",
                                    "type": "uint8"
                                },
                                {
                                    "components": [
                                        {
                                            "name": "amount",
                                            "type": "int256"
                                        },
                                        {
                                            "components": [
                                                {
                                                    "name": "wallet",
                                                    "type": "bytes32"
                                                },
                                                {
                                                    "name": "operator",
                                                    "type": "bytes32"
                                                }
                                            ],
                                            "name": "hashes",
                                            "type": "tuple"
                                        },
                                        {
                                            "components": [
                                                {
                                                    "name": "current",
                                                    "type": "int256"
                                                },
                                                {
                                                    "name": "previous",
                                                    "type": "int256"
                                                }
                                            ],
                                            "name": "residuals",
                                            "type": "tuple"
                                        }
                                    ],
                                    "name": "order",
                                    "type": "tuple"
                                },
                                {
                                    "components": [
                                        {
                                            "components": [
                                                {
                                                    "name": "current",
                                                    "type": "int256"
                                                },
                                                {
                                                    "name": "previous",
                                                    "type": "int256"
                                                }
                                            ],
                                            "name": "intended",
                                            "type": "tuple"
                                        },
                                        {
                                            "components": [
                                                {
                                                    "name": "current",
                                                    "type": "int256"
                                                },
                                                {
                                                    "name": "previous",
                                                    "type": "int256"
                                                }
                                            ],
                                            "name": "conjugate",
                                            "type": "tuple"
                                        }
                                    ],
                                    "name": "balances",
                                    "type": "tuple"
                                },
                                {
                                    "components": [
                                        {
                                            "components": [
                                                {
                                                    "name": "amount",
                                                    "type": "int256"
                                                },
                                                {
                                                    "components": [
                                                        {
                                                            "name": "ct",
                                                            "type": "address"
                                                        },
                                                        {
                                                            "name": "id",
                                                            "type": "uint256"
                                                        }
                                                    ],
                                                    "name": "currency",
                                                    "type": "tuple"
                                                }
                                            ],
                                            "name": "single",
                                            "type": "tuple"
                                        },
                                        {
                                            "components": [
                                                {
                                                    "name": "originId",
                                                    "type": "uint256"
                                                },
                                                {
                                                    "components": [
                                                        {
                                                            "name": "amount",
                                                            "type": "int256"
                                                        },
                                                        {
                                                            "components": [
                                                                {
                                                                    "name": "ct",
                                                                    "type": "address"
                                                                },
                                                                {
                                                                    "name": "id",
                                                                    "type": "uint256"
                                                                }
                                                            ],
                                                            "name": "currency",
                                                            "type": "tuple"
                                                        }
                                                    ],
                                                    "name": "figure",
                                                    "type": "tuple"
                                                }
                                            ],
                                            "name": "total",
                                            "type": "tuple[]"
                                        }
                                    ],
                                    "name": "fees",
                                    "type": "tuple"
                                }
                            ],
                            "name": "seller",
                            "type": "tuple"
                        },
                        {
                            "components": [
                                {
                                    "components": [
                                        {
                                            "name": "single",
                                            "type": "int256"
                                        },
                                        {
                                            "name": "total",
                                            "type": "int256"
                                        }
                                    ],
                                    "name": "intended",
                                    "type": "tuple"
                                },
                                {
                                    "components": [
                                        {
                                            "name": "single",
                                            "type": "int256"
                                        },
                                        {
                                            "name": "total",
                                            "type": "int256"
                                        }
                                    ],
                                    "name": "conjugate",
                                    "type": "tuple"
                                }
                            ],
                            "name": "transfers",
                            "type": "tuple"
                        },
                        {
                            "components": [
                                {
                                    "name": "hash",
                                    "type": "bytes32"
                                },
                                {
                                    "components": [
                                        {
                                            "name": "r",
                                            "type": "bytes32"
                                        },
                                        {
                                            "name": "s",
                                            "type": "bytes32"
                                        },
                                        {
                                            "name": "v",
                                            "type": "uint8"
                                        }
                                    ],
                                    "name": "signature",
                                    "type": "tuple"
                                }
                            ],
                            "name": "seal",
                            "type": "tuple"
                        },
                        {
                            "name": "blockNumber",
                            "type": "uint256"
                        },
                        {
                            "name": "operatorId",
                            "type": "uint256"
                        }
                    ],
                    "indexed": false,
                    "name": "trade",
                    "type": "tuple"
                }
            ],
            "name": "SettleTradeEvent",
            "type": "event"
        },
        {
            "anonymous": false,
            "inputs": [
                {
                    "indexed": false,
                    "name": "proxy",
                    "type": "address"
                },
                {
                    "indexed": false,
                    "name": "wallet",
                    "type": "address"
                },
                {
                    "components": [
                        {
                            "name": "nonce",
                            "type": "uint256"
                        },
                        {
                            "name": "amount",
                            "type": "int256"
                        },
                        {
                            "components": [
                                {
                                    "components": [
                                        {
                                            "name": "ct",
                                            "type": "address"
                                        },
                                        {
                                            "name": "id",
                                            "type": "uint256"
                                        }
                                    ],
                                    "name": "intended",
                                    "type": "tuple"
                                },
                                {
                                    "components": [
                                        {
                                            "name": "ct",
                                            "type": "address"
                                        },
                                        {
                                            "name": "id",
                                            "type": "uint256"
                                        }
                                    ],
                                    "name": "conjugate",
                                    "type": "tuple"
                                }
                            ],
                            "name": "currencies",
                            "type": "tuple"
                        },
                        {
                            "name": "rate",
                            "type": "int256"
                        },
                        {
                            "components": [
                                {
                                    "name": "nonce",
                                    "type": "uint256"
                                },
                                {
                                    "name": "wallet",
                                    "type": "address"
                                },
                                {
                                    "name": "rollingVolume",
                                    "type": "uint256"
                                },
                                {
                                    "name": "liquidityRole",
                                    "type": "uint8"
                                },
                                {
                                    "components": [
                                        {
                                            "name": "amount",
                                            "type": "int256"
                                        },
                                        {
                                            "components": [
                                                {
                                                    "name": "wallet",
                                                    "type": "bytes32"
                                                },
                                                {
                                                    "name": "operator",
                                                    "type": "bytes32"
                                                }
                                            ],
                                            "name": "hashes",
                                            "type": "tuple"
                                        },
                                        {
                                            "components": [
                                                {
                                                    "name": "current",
                                                    "type": "int256"
                                                },
                                                {
                                                    "name": "previous",
                                                    "type": "int256"
                                                }
                                            ],
                                            "name": "residuals",
                                            "type": "tuple"
                                        }
                                    ],
                                    "name": "order",
                                    "type": "tuple"
                                },
                                {
                                    "components": [
                                        {
                                            "components": [
                                                {
                                                    "name": "current",
                                                    "type": "int256"
                                                },
                                                {
                                                    "name": "previous",
                                                    "type": "int256"
                                                }
                                            ],
                                            "name": "intended",
                                            "type": "tuple"
                                        },
                                        {
                                            "components": [
                                                {
                                                    "name": "current",
                                                    "type": "int256"
                                                },
                                                {
                                                    "name": "previous",
                                                    "type": "int256"
                                                }
                                            ],
                                            "name": "conjugate",
                                            "type": "tuple"
                                        }
                                    ],
                                    "name": "balances",
                                    "type": "tuple"
                                },
                                {
                                    "components": [
                                        {
                                            "components": [
                                                {
                                                    "name": "amount",
                                                    "type": "int256"
                                                },
                                                {
                                                    "components": [
                                                        {
                                                            "name": "ct",
                                                            "type": "address"
                                                        },
                                                        {
                                                            "name": "id",
                                                            "type": "uint256"
                                                        }
                                                    ],
                                                    "name": "currency",
                                                    "type": "tuple"
                                                }
                                            ],
                                            "name": "single",
                                            "type": "tuple"
                                        },
                                        {
                                            "components": [
                                                {
                                                    "name": "originId",
                                                    "type": "uint256"
                                                },
                                                {
                                                    "components": [
                                                        {
                                                            "name": "amount",
                                                            "type": "int256"
                                                        },
                                                        {
                                                            "components": [
                                                                {
                                                                    "name": "ct",
                                                                    "type": "address"
                                                                },
                                                                {
                                                                    "name": "id",
                                                                    "type": "uint256"
                                                                }
                                                            ],
                                                            "name": "currency",
                                                            "type": "tuple"
                                                        }
                                                    ],
                                                    "name": "figure",
                                                    "type": "tuple"
                                                }
                                            ],
                                            "name": "total",
                                            "type": "tuple[]"
                                        }
                                    ],
                                    "name": "fees",
                                    "type": "tuple"
                                }
                            ],
                            "name": "buyer",
                            "type": "tuple"
                        },
                        {
                            "components": [
                                {
                                    "name": "nonce",
                                    "type": "uint256"
                                },
                                {
                                    "name": "wallet",
                                    "type": "address"
                                },
                                {
                                    "name": "rollingVolume",
                                    "type": "uint256"
                                },
                                {
                                    "name": "liquidityRole",
                                    "type": "uint8"
                                },
                                {
                                    "components": [
                                        {
                                            "name": "amount",
                                            "type": "int256"
                                        },
                                        {
                                            "components": [
                                                {
                                                    "name": "wallet",
                                                    "type": "bytes32"
                                                },
                                                {
                                                    "name": "operator",
                                                    "type": "bytes32"
                                                }
                                            ],
                                            "name": "hashes",
                                            "type": "tuple"
                                        },
                                        {
                                            "components": [
                                                {
                                                    "name": "current",
                                                    "type": "int256"
                                                },
                                                {
                                                    "name": "previous",
                                                    "type": "int256"
                                                }
                                            ],
                                            "name": "residuals",
                                            "type": "tuple"
                                        }
                                    ],
                                    "name": "order",
                                    "type": "tuple"
                                },
                                {
                                    "components": [
                                        {
                                            "components": [
                                                {
                                                    "name": "current",
                                                    "type": "int256"
                                                },
                                                {
                                                    "name": "previous",
                                                    "type": "int256"
                                                }
                                            ],
                                            "name": "intended",
                                            "type": "tuple"
                                        },
                                        {
                                            "components": [
                                                {
                                                    "name": "current",
                                                    "type": "int256"
                                                },
                                                {
                                                    "name": "previous",
                                                    "type": "int256"
                                                }
                                            ],
                                            "name": "conjugate",
                                            "type": "tuple"
                                        }
                                    ],
                                    "name": "balances",
                                    "type": "tuple"
                                },
                                {
                                    "components": [
                                        {
                                            "components": [
                                                {
                                                    "name": "amount",
                                                    "type": "int256"
                                                },
                                                {
                                                    "components": [
                                                        {
                                                            "name": "ct",
                                                            "type": "address"
                                                        },
                                                        {
                                                            "name": "id",
                                                            "type": "uint256"
                                                        }
                                                    ],
                                                    "name": "currency",
                                                    "type": "tuple"
                                                }
                                            ],
                                            "name": "single",
                                            "type": "tuple"
                                        },
                                        {
                                            "components": [
                                                {
                                                    "name": "originId",
                                                    "type": "uint256"
                                                },
                                                {
                                                    "components": [
                                                        {
                                                            "name": "amount",
                                                            "type": "int256"
                                                        },
                                                        {
                                                            "components": [
                                                                {
                                                                    "name": "ct",
                                                                    "type": "address"
                                                                },
                                                                {
                                                                    "name": "id",
                                                                    "type": "uint256"
                                                                }
                                                            ],
                                                            "name": "currency",
                                                            "type": "tuple"
                                                        }
                                                    ],
                                                    "name": "figure",
                                                    "type": "tuple"
                                                }
                                            ],
                                            "name": "total",
                                            "type": "tuple[]"
                                        }
                                    ],
                                    "name": "fees",
                                    "type": "tuple"
                                }
                            ],
                            "name": "seller",
                            "type": "tuple"
                        },
                        {
                            "components": [
                                {
                                    "components": [
                                        {
                                            "name": "single",
                                            "type": "int256"
                                        },
                                        {
                                            "name": "total",
                                            "type": "int256"
                                        }
                                    ],
                                    "name": "intended",
                                    "type": "tuple"
                                },
                                {
                                    "components": [
                                        {
                                            "name": "single",
                                            "type": "int256"
                                        },
                                        {
                                            "name": "total",
                                            "type": "int256"
                                        }
                                    ],
                                    "name": "conjugate",
                                    "type": "tuple"
                                }
                            ],
                            "name": "transfers",
                            "type": "tuple"
                        },
                        {
                            "components": [
                                {
                                    "name": "hash",
                                    "type": "bytes32"
                                },
                                {
                                    "components": [
                                        {
                                            "name": "r",
                                            "type": "bytes32"
                                        },
                                        {
                                            "name": "s",
                                            "type": "bytes32"
                                        },
                                        {
                                            "name": "v",
                                            "type": "uint8"
                                        }
                                    ],
                                    "name": "signature",
                                    "type": "tuple"
                                }
                            ],
                            "name": "seal",
                            "type": "tuple"
                        },
                        {
                            "name": "blockNumber",
                            "type": "uint256"
                        },
                        {
                            "name": "operatorId",
                            "type": "uint256"
                        }
                    ],
                    "indexed": false,
                    "name": "trade",
                    "type": "tuple"
                }
            ],
            "name": "SettleTradeByProxyEvent",
            "type": "event"
        },
        {
            "anonymous": false,
            "inputs": [
                {
                    "indexed": false,
                    "name": "wallet",
                    "type": "address"
                },
                {
                    "components": [
                        {
                            "name": "nonce",
                            "type": "uint256"
                        },
                        {
                            "name": "amount",
                            "type": "int256"
                        },
                        {
                            "components": [
                                {
                                    "name": "ct",
                                    "type": "address"
                                },
                                {
                                    "name": "id",
                                    "type": "uint256"
                                }
                            ],
                            "name": "currency",
                            "type": "tuple"
                        },
                        {
                            "components": [
                                {
                                    "name": "nonce",
                                    "type": "uint256"
                                },
                                {
                                    "name": "wallet",
                                    "type": "address"
                                },
                                {
                                    "components": [
                                        {
                                            "name": "current",
                                            "type": "int256"
                                        },
                                        {
                                            "name": "previous",
                                            "type": "int256"
                                        }
                                    ],
                                    "name": "balances",
                                    "type": "tuple"
                                },
                                {
                                    "components": [
                                        {
                                            "components": [
                                                {
                                                    "name": "amount",
                                                    "type": "int256"
                                                },
                                                {
                                                    "components": [
                                                        {
                                                            "name": "ct",
                                                            "type": "address"
                                                        },
                                                        {
                                                            "name": "id",
                                                            "type": "uint256"
                                                        }
                                                    ],
                                                    "name": "currency",
                                                    "type": "tuple"
                                                }
                                            ],
                                            "name": "single",
                                            "type": "tuple"
                                        },
                                        {
                                            "components": [
                                                {
                                                    "name": "originId",
                                                    "type": "uint256"
                                                },
                                                {
                                                    "components": [
                                                        {
                                                            "name": "amount",
                                                            "type": "int256"
                                                        },
                                                        {
                                                            "components": [
                                                                {
                                                                    "name": "ct",
                                                                    "type": "address"
                                                                },
                                                                {
                                                                    "name": "id",
                                                                    "type": "uint256"
                                                                }
                                                            ],
                                                            "name": "currency",
                                                            "type": "tuple"
                                                        }
                                                    ],
                                                    "name": "figure",
                                                    "type": "tuple"
                                                }
                                            ],
                                            "name": "total",
                                            "type": "tuple[]"
                                        }
                                    ],
                                    "name": "fees",
                                    "type": "tuple"
                                }
                            ],
                            "name": "sender",
                            "type": "tuple"
                        },
                        {
                            "components": [
                                {
                                    "name": "nonce",
                                    "type": "uint256"
                                },
                                {
                                    "name": "wallet",
                                    "type": "address"
                                },
                                {
                                    "components": [
                                        {
                                            "name": "current",
                                            "type": "int256"
                                        },
                                        {
                                            "name": "previous",
                                            "type": "int256"
                                        }
                                    ],
                                    "name": "balances",
                                    "type": "tuple"
                                },
                                {
                                    "components": [
                                        {
                                            "components": [
                                                {
                                                    "name": "originId",
                                                    "type": "uint256"
                                                },
                                                {
                                                    "components": [
                                                        {
                                                            "name": "amount",
                                                            "type": "int256"
                                                        },
                                                        {
                                                            "components": [
                                                                {
                                                                    "name": "ct",
                                                                    "type": "address"
                                                                },
                                                                {
                                                                    "name": "id",
                                                                    "type": "uint256"
                                                                }
                                                            ],
                                                            "name": "currency",
                                                            "type": "tuple"
                                                        }
                                                    ],
                                                    "name": "figure",
                                                    "type": "tuple"
                                                }
                                            ],
                                            "name": "total",
                                            "type": "tuple[]"
                                        }
                                    ],
                                    "name": "fees",
                                    "type": "tuple"
                                }
                            ],
                            "name": "recipient",
                            "type": "tuple"
                        },
                        {
                            "components": [
                                {
                                    "name": "single",
                                    "type": "int256"
                                },
                                {
                                    "name": "total",
                                    "type": "int256"
                                }
                            ],
                            "name": "transfers",
                            "type": "tuple"
                        },
                        {
                            "components": [
                                {
                                    "components": [
                                        {
                                            "name": "hash",
                                            "type": "bytes32"
                                        },
                                        {
                                            "components": [
                                                {
                                                    "name": "r",
                                                    "type": "bytes32"
                                                },
                                                {
                                                    "name": "s",
                                                    "type": "bytes32"
                                                },
                                                {
                                                    "name": "v",
                                                    "type": "uint8"
                                                }
                                            ],
                                            "name": "signature",
                                            "type": "tuple"
                                        }
                                    ],
                                    "name": "wallet",
                                    "type": "tuple"
                                },
                                {
                                    "components": [
                                        {
                                            "name": "hash",
                                            "type": "bytes32"
                                        },
                                        {
                                            "components": [
                                                {
                                                    "name": "r",
                                                    "type": "bytes32"
                                                },
                                                {
                                                    "name": "s",
                                                    "type": "bytes32"
                                                },
                                                {
                                                    "name": "v",
                                                    "type": "uint8"
                                                }
                                            ],
                                            "name": "signature",
                                            "type": "tuple"
                                        }
                                    ],
                                    "name": "operator",
                                    "type": "tuple"
                                }
                            ],
                            "name": "seals",
                            "type": "tuple"
                        },
                        {
                            "name": "blockNumber",
                            "type": "uint256"
                        },
                        {
                            "name": "operatorId",
                            "type": "uint256"
                        }
                    ],
                    "indexed": false,
                    "name": "payment",
                    "type": "tuple"
                }
            ],
            "name": "SettlePaymentEvent",
            "type": "event"
        },
        {
            "anonymous": false,
            "inputs": [
                {
                    "indexed": false,
                    "name": "proxy",
                    "type": "address"
                },
                {
                    "indexed": false,
                    "name": "wallet",
                    "type": "address"
                },
                {
                    "components": [
                        {
                            "name": "nonce",
                            "type": "uint256"
                        },
                        {
                            "name": "amount",
                            "type": "int256"
                        },
                        {
                            "components": [
                                {
                                    "name": "ct",
                                    "type": "address"
                                },
                                {
                                    "name": "id",
                                    "type": "uint256"
                                }
                            ],
                            "name": "currency",
                            "type": "tuple"
                        },
                        {
                            "components": [
                                {
                                    "name": "nonce",
                                    "type": "uint256"
                                },
                                {
                                    "name": "wallet",
                                    "type": "address"
                                },
                                {
                                    "components": [
                                        {
                                            "name": "current",
                                            "type": "int256"
                                        },
                                        {
                                            "name": "previous",
                                            "type": "int256"
                                        }
                                    ],
                                    "name": "balances",
                                    "type": "tuple"
                                },
                                {
                                    "components": [
                                        {
                                            "components": [
                                                {
                                                    "name": "amount",
                                                    "type": "int256"
                                                },
                                                {
                                                    "components": [
                                                        {
                                                            "name": "ct",
                                                            "type": "address"
                                                        },
                                                        {
                                                            "name": "id",
                                                            "type": "uint256"
                                                        }
                                                    ],
                                                    "name": "currency",
                                                    "type": "tuple"
                                                }
                                            ],
                                            "name": "single",
                                            "type": "tuple"
                                        },
                                        {
                                            "components": [
                                                {
                                                    "name": "originId",
                                                    "type": "uint256"
                                                },
                                                {
                                                    "components": [
                                                        {
                                                            "name": "amount",
                                                            "type": "int256"
                                                        },
                                                        {
                                                            "components": [
                                                                {
                                                                    "name": "ct",
                                                                    "type": "address"
                                                                },
                                                                {
                                                                    "name": "id",
                                                                    "type": "uint256"
                                                                }
                                                            ],
                                                            "name": "currency",
                                                            "type": "tuple"
                                                        }
                                                    ],
                                                    "name": "figure",
                                                    "type": "tuple"
                                                }
                                            ],
                                            "name": "total",
                                            "type": "tuple[]"
                                        }
                                    ],
                                    "name": "fees",
                                    "type": "tuple"
                                }
                            ],
                            "name": "sender",
                            "type": "tuple"
                        },
                        {
                            "components": [
                                {
                                    "name": "nonce",
                                    "type": "uint256"
                                },
                                {
                                    "name": "wallet",
                                    "type": "address"
                                },
                                {
                                    "components": [
                                        {
                                            "name": "current",
                                            "type": "int256"
                                        },
                                        {
                                            "name": "previous",
                                            "type": "int256"
                                        }
                                    ],
                                    "name": "balances",
                                    "type": "tuple"
                                },
                                {
                                    "components": [
                                        {
                                            "components": [
                                                {
                                                    "name": "originId",
                                                    "type": "uint256"
                                                },
                                                {
                                                    "components": [
                                                        {
                                                            "name": "amount",
                                                            "type": "int256"
                                                        },
                                                        {
                                                            "components": [
                                                                {
                                                                    "name": "ct",
                                                                    "type": "address"
                                                                },
                                                                {
                                                                    "name": "id",
                                                                    "type": "uint256"
                                                                }
                                                            ],
                                                            "name": "currency",
                                                            "type": "tuple"
                                                        }
                                                    ],
                                                    "name": "figure",
                                                    "type": "tuple"
                                                }
                                            ],
                                            "name": "total",
                                            "type": "tuple[]"
                                        }
                                    ],
                                    "name": "fees",
                                    "type": "tuple"
                                }
                            ],
                            "name": "recipient",
                            "type": "tuple"
                        },
                        {
                            "components": [
                                {
                                    "name": "single",
                                    "type": "int256"
                                },
                                {
                                    "name": "total",
                                    "type": "int256"
                                }
                            ],
                            "name": "transfers",
                            "type": "tuple"
                        },
                        {
                            "components": [
                                {
                                    "components": [
                                        {
                                            "name": "hash",
                                            "type": "bytes32"
                                        },
                                        {
                                            "components": [
                                                {
                                                    "name": "r",
                                                    "type": "bytes32"
                                                },
                                                {
                                                    "name": "s",
                                                    "type": "bytes32"
                                                },
                                                {
                                                    "name": "v",
                                                    "type": "uint8"
                                                }
                                            ],
                                            "name": "signature",
                                            "type": "tuple"
                                        }
                                    ],
                                    "name": "wallet",
                                    "type": "tuple"
                                },
                                {
                                    "components": [
                                        {
                                            "name": "hash",
                                            "type": "bytes32"
                                        },
                                        {
                                            "components": [
                                                {
                                                    "name": "r",
                                                    "type": "bytes32"
                                                },
                                                {
                                                    "name": "s",
                                                    "type": "bytes32"
                                                },
                                                {
                                                    "name": "v",
                                                    "type": "uint8"
                                                }
                                            ],
                                            "name": "signature",
                                            "type": "tuple"
                                        }
                                    ],
                                    "name": "operator",
                                    "type": "tuple"
                                }
                            ],
                            "name": "seals",
                            "type": "tuple"
                        },
                        {
                            "name": "blockNumber",
                            "type": "uint256"
                        },
                        {
                            "name": "operatorId",
                            "type": "uint256"
                        }
                    ],
                    "indexed": false,
                    "name": "payment",
                    "type": "tuple"
                }
            ],
            "name": "SettlePaymentByProxyEvent",
            "type": "event"
        },
        {
            "anonymous": false,
            "inputs": [
                {
                    "indexed": false,
                    "name": "oldDriipSettlementChallenge",
                    "type": "address"
                },
                {
                    "indexed": false,
                    "name": "newDriipSettlementChallenge",
                    "type": "address"
                }
            ],
            "name": "SetDriipSettlementChallengeEvent",
            "type": "event"
        },
        {
            "anonymous": false,
            "inputs": [
                {
                    "indexed": false,
                    "name": "oldRevenueFund",
                    "type": "address"
                },
                {
                    "indexed": false,
                    "name": "newRevenueFund",
                    "type": "address"
                }
            ],
            "name": "SetTradesRevenueFundEvent",
            "type": "event"
        },
        {
            "anonymous": false,
            "inputs": [
                {
                    "indexed": false,
                    "name": "oldRevenueFund",
                    "type": "address"
                },
                {
                    "indexed": false,
                    "name": "newRevenueFund",
                    "type": "address"
                }
            ],
            "name": "SetPaymentsRevenueFundEvent",
            "type": "event"
        },
        {
            "anonymous": false,
            "inputs": [
                {
                    "indexed": false,
                    "name": "oldPartnerFund",
                    "type": "address"
                },
                {
                    "indexed": false,
                    "name": "newPartnerFund",
                    "type": "address"
                }
            ],
            "name": "SetPartnerFundEvent",
            "type": "event"
        },
        {
            "anonymous": false,
            "inputs": [
                {
                    "indexed": false,
                    "name": "wallet",
                    "type": "address"
                },
                {
                    "indexed": false,
                    "name": "deltaAmount",
                    "type": "int256"
                },
                {
                    "indexed": false,
                    "name": "cumulativeAmount",
                    "type": "int256"
                },
                {
                    "indexed": false,
                    "name": "currencyCt",
                    "type": "address"
                },
                {
                    "indexed": false,
                    "name": "currencyId",
                    "type": "uint256"
                }
            ],
            "name": "StageFeesEvent",
            "type": "event"
        },
        {
            "anonymous": false,
            "inputs": [
                {
                    "indexed": false,
                    "name": "oldWalletLocker",
                    "type": "address"
                },
                {
                    "indexed": false,
                    "name": "newWalletLocker",
                    "type": "address"
                }
            ],
            "name": "SetWalletLockerEvent",
            "type": "event"
        },
        {
            "anonymous": false,
            "inputs": [],
            "name": "FreezeWalletLockerEvent",
            "type": "event"
        },
        {
            "anonymous": false,
            "inputs": [
                {
                    "indexed": false,
                    "name": "oldFraudChallenge",
                    "type": "address"
                },
                {
                    "indexed": false,
                    "name": "newFraudChallenge",
                    "type": "address"
                }
            ],
            "name": "SetFraudChallengeEvent",
            "type": "event"
        },
        {
            "anonymous": false,
            "inputs": [
                {
                    "indexed": false,
                    "name": "oldCommunityVote",
                    "type": "address"
                },
                {
                    "indexed": false,
                    "name": "newCommunityVote",
                    "type": "address"
                }
            ],
            "name": "SetCommunityVoteEvent",
            "type": "event"
        },
        {
            "anonymous": false,
            "inputs": [
                {
                    "indexed": false,
                    "name": "oldClientFund",
                    "type": "address"
                },
                {
                    "indexed": false,
                    "name": "newClientFund",
                    "type": "address"
                }
            ],
            "name": "SetClientFundEvent",
            "type": "event"
        },
        {
            "anonymous": false,
            "inputs": [
                {
                    "indexed": false,
                    "name": "oldValidator",
                    "type": "address"
                },
                {
                    "indexed": false,
                    "name": "newValidator",
                    "type": "address"
                }
            ],
            "name": "SetValidatorEvent",
            "type": "event"
        },
        {
            "anonymous": false,
            "inputs": [
                {
                    "indexed": false,
                    "name": "oldConfiguration",
                    "type": "address"
                },
                {
                    "indexed": false,
                    "name": "newConfiguration",
                    "type": "address"
                }
            ],
            "name": "SetConfigurationEvent",
            "type": "event"
        },
        {
            "anonymous": false,
            "inputs": [
                {
                    "indexed": false,
                    "name": "oldDeployer",
                    "type": "address"
                },
                {
                    "indexed": false,
                    "name": "newDeployer",
                    "type": "address"
                }
            ],
            "name": "SetDeployerEvent",
            "type": "event"
        },
        {
            "anonymous": false,
            "inputs": [
                {
                    "indexed": false,
                    "name": "oldOperator",
                    "type": "address"
                },
                {
                    "indexed": false,
                    "name": "newOperator",
                    "type": "address"
                }
            ],
            "name": "SetOperatorEvent",
            "type": "event"
        },
        {
            "anonymous": false,
            "inputs": [
                {
                    "indexed": false,
                    "name": "wallet",
                    "type": "address"
                }
            ],
            "name": "SelfDestructionDisabledEvent",
            "type": "event"
        },
        {
            "anonymous": false,
            "inputs": [
                {
                    "indexed": false,
                    "name": "wallet",
                    "type": "address"
                }
            ],
            "name": "TriggerSelfDestructionEvent",
            "type": "event"
        },
        {
            "constant": false,
            "inputs": [
                {
                    "name": "newDriipSettlementChallenge",
                    "type": "address"
                }
            ],
            "name": "setDriipSettlementChallenge",
            "outputs": [],
            "payable": false,
            "stateMutability": "nonpayable",
            "type": "function"
        },
        {
            "constant": false,
            "inputs": [
                {
                    "name": "newTradesRevenueFund",
                    "type": "address"
                }
            ],
            "name": "setTradesRevenueFund",
            "outputs": [],
            "payable": false,
            "stateMutability": "nonpayable",
            "type": "function"
        },
        {
            "constant": false,
            "inputs": [
                {
                    "name": "newPaymentsRevenueFund",
                    "type": "address"
                }
            ],
            "name": "setPaymentsRevenueFund",
            "outputs": [],
            "payable": false,
            "stateMutability": "nonpayable",
            "type": "function"
        },
        {
            "constant": false,
            "inputs": [
                {
                    "name": "newPartnerFund",
                    "type": "address"
                }
            ],
            "name": "setPartnerFund",
            "outputs": [],
            "payable": false,
            "stateMutability": "nonpayable",
            "type": "function"
        },
        {
            "constant": true,
            "inputs": [],
            "name": "settlementsCount",
            "outputs": [
                {
                    "name": "",
                    "type": "uint256"
                }
            ],
            "payable": false,
            "stateMutability": "view",
            "type": "function"
        },
        {
            "constant": true,
            "inputs": [
                {
                    "name": "nonce",
                    "type": "uint256"
                }
            ],
            "name": "hasSettlementByNonce",
            "outputs": [
                {
                    "name": "",
                    "type": "bool"
                }
            ],
            "payable": false,
            "stateMutability": "view",
            "type": "function"
        },
        {
            "constant": true,
            "inputs": [
                {
                    "name": "nonce",
                    "type": "uint256"
                }
            ],
            "name": "settlementByNonce",
            "outputs": [
                {
                    "components": [
                        {
                            "name": "nonce",
                            "type": "uint256"
                        },
                        {
                            "name": "driipType",
                            "type": "uint8"
                        },
                        {
                            "components": [
                                {
                                    "name": "nonce",
                                    "type": "uint256"
                                },
                                {
                                    "name": "wallet",
                                    "type": "address"
                                },
                                {
                                    "name": "done",
                                    "type": "bool"
                                }
                            ],
                            "name": "origin",
                            "type": "tuple"
                        },
                        {
                            "components": [
                                {
                                    "name": "nonce",
                                    "type": "uint256"
                                },
                                {
                                    "name": "wallet",
                                    "type": "address"
                                },
                                {
                                    "name": "done",
                                    "type": "bool"
                                }
                            ],
                            "name": "target",
                            "type": "tuple"
                        }
                    ],
                    "name": "",
                    "type": "tuple"
                }
            ],
            "payable": false,
            "stateMutability": "view",
            "type": "function"
        },
        {
            "constant": true,
            "inputs": [
                {
                    "name": "wallet",
                    "type": "address"
                }
            ],
            "name": "settlementsCountByWallet",
            "outputs": [
                {
                    "name": "",
                    "type": "uint256"
                }
            ],
            "payable": false,
            "stateMutability": "view",
            "type": "function"
        },
        {
            "constant": true,
            "inputs": [
                {
                    "name": "wallet",
                    "type": "address"
                },
                {
                    "name": "index",
                    "type": "uint256"
                }
            ],
            "name": "settlementByWalletAndIndex",
            "outputs": [
                {
                    "components": [
                        {
                            "name": "nonce",
                            "type": "uint256"
                        },
                        {
                            "name": "driipType",
                            "type": "uint8"
                        },
                        {
                            "components": [
                                {
                                    "name": "nonce",
                                    "type": "uint256"
                                },
                                {
                                    "name": "wallet",
                                    "type": "address"
                                },
                                {
                                    "name": "done",
                                    "type": "bool"
                                }
                            ],
                            "name": "origin",
                            "type": "tuple"
                        },
                        {
                            "components": [
                                {
                                    "name": "nonce",
                                    "type": "uint256"
                                },
                                {
                                    "name": "wallet",
                                    "type": "address"
                                },
                                {
                                    "name": "done",
                                    "type": "bool"
                                }
                            ],
                            "name": "target",
                            "type": "tuple"
                        }
                    ],
                    "name": "",
                    "type": "tuple"
                }
            ],
            "payable": false,
            "stateMutability": "view",
            "type": "function"
        },
        {
            "constant": true,
            "inputs": [
                {
                    "name": "wallet",
                    "type": "address"
                },
                {
                    "name": "nonce",
                    "type": "uint256"
                }
            ],
            "name": "settlementByWalletAndNonce",
            "outputs": [
                {
                    "components": [
                        {
                            "name": "nonce",
                            "type": "uint256"
                        },
                        {
                            "name": "driipType",
                            "type": "uint8"
                        },
                        {
                            "components": [
                                {
                                    "name": "nonce",
                                    "type": "uint256"
                                },
                                {
                                    "name": "wallet",
                                    "type": "address"
                                },
                                {
                                    "name": "done",
                                    "type": "bool"
                                }
                            ],
                            "name": "origin",
                            "type": "tuple"
                        },
                        {
                            "components": [
                                {
                                    "name": "nonce",
                                    "type": "uint256"
                                },
                                {
                                    "name": "wallet",
                                    "type": "address"
                                },
                                {
                                    "name": "done",
                                    "type": "bool"
                                }
                            ],
                            "name": "target",
                            "type": "tuple"
                        }
                    ],
                    "name": "",
                    "type": "tuple"
                }
            ],
            "payable": false,
            "stateMutability": "view",
            "type": "function"
        },
        {
            "constant": false,
            "inputs": [],
            "name": "updateMaxDriipNonce",
            "outputs": [],
            "payable": false,
            "stateMutability": "nonpayable",
            "type": "function"
        },
        {
            "constant": false,
            "inputs": [
                {
                    "components": [
                        {
                            "name": "nonce",
                            "type": "uint256"
                        },
                        {
                            "name": "amount",
                            "type": "int256"
                        },
                        {
                            "components": [
                                {
                                    "components": [
                                        {
                                            "name": "ct",
                                            "type": "address"
                                        },
                                        {
                                            "name": "id",
                                            "type": "uint256"
                                        }
                                    ],
                                    "name": "intended",
                                    "type": "tuple"
                                },
                                {
                                    "components": [
                                        {
                                            "name": "ct",
                                            "type": "address"
                                        },
                                        {
                                            "name": "id",
                                            "type": "uint256"
                                        }
                                    ],
                                    "name": "conjugate",
                                    "type": "tuple"
                                }
                            ],
                            "name": "currencies",
                            "type": "tuple"
                        },
                        {
                            "name": "rate",
                            "type": "int256"
                        },
                        {
                            "components": [
                                {
                                    "name": "nonce",
                                    "type": "uint256"
                                },
                                {
                                    "name": "wallet",
                                    "type": "address"
                                },
                                {
                                    "name": "rollingVolume",
                                    "type": "uint256"
                                },
                                {
                                    "name": "liquidityRole",
                                    "type": "uint8"
                                },
                                {
                                    "components": [
                                        {
                                            "name": "amount",
                                            "type": "int256"
                                        },
                                        {
                                            "components": [
                                                {
                                                    "name": "wallet",
                                                    "type": "bytes32"
                                                },
                                                {
                                                    "name": "operator",
                                                    "type": "bytes32"
                                                }
                                            ],
                                            "name": "hashes",
                                            "type": "tuple"
                                        },
                                        {
                                            "components": [
                                                {
                                                    "name": "current",
                                                    "type": "int256"
                                                },
                                                {
                                                    "name": "previous",
                                                    "type": "int256"
                                                }
                                            ],
                                            "name": "residuals",
                                            "type": "tuple"
                                        }
                                    ],
                                    "name": "order",
                                    "type": "tuple"
                                },
                                {
                                    "components": [
                                        {
                                            "components": [
                                                {
                                                    "name": "current",
                                                    "type": "int256"
                                                },
                                                {
                                                    "name": "previous",
                                                    "type": "int256"
                                                }
                                            ],
                                            "name": "intended",
                                            "type": "tuple"
                                        },
                                        {
                                            "components": [
                                                {
                                                    "name": "current",
                                                    "type": "int256"
                                                },
                                                {
                                                    "name": "previous",
                                                    "type": "int256"
                                                }
                                            ],
                                            "name": "conjugate",
                                            "type": "tuple"
                                        }
                                    ],
                                    "name": "balances",
                                    "type": "tuple"
                                },
                                {
                                    "components": [
                                        {
                                            "components": [
                                                {
                                                    "name": "amount",
                                                    "type": "int256"
                                                },
                                                {
                                                    "components": [
                                                        {
                                                            "name": "ct",
                                                            "type": "address"
                                                        },
                                                        {
                                                            "name": "id",
                                                            "type": "uint256"
                                                        }
                                                    ],
                                                    "name": "currency",
                                                    "type": "tuple"
                                                }
                                            ],
                                            "name": "single",
                                            "type": "tuple"
                                        },
                                        {
                                            "components": [
                                                {
                                                    "name": "originId",
                                                    "type": "uint256"
                                                },
                                                {
                                                    "components": [
                                                        {
                                                            "name": "amount",
                                                            "type": "int256"
                                                        },
                                                        {
                                                            "components": [
                                                                {
                                                                    "name": "ct",
                                                                    "type": "address"
                                                                },
                                                                {
                                                                    "name": "id",
                                                                    "type": "uint256"
                                                                }
                                                            ],
                                                            "name": "currency",
                                                            "type": "tuple"
                                                        }
                                                    ],
                                                    "name": "figure",
                                                    "type": "tuple"
                                                }
                                            ],
                                            "name": "total",
                                            "type": "tuple[]"
                                        }
                                    ],
                                    "name": "fees",
                                    "type": "tuple"
                                }
                            ],
                            "name": "buyer",
                            "type": "tuple"
                        },
                        {
                            "components": [
                                {
                                    "name": "nonce",
                                    "type": "uint256"
                                },
                                {
                                    "name": "wallet",
                                    "type": "address"
                                },
                                {
                                    "name": "rollingVolume",
                                    "type": "uint256"
                                },
                                {
                                    "name": "liquidityRole",
                                    "type": "uint8"
                                },
                                {
                                    "components": [
                                        {
                                            "name": "amount",
                                            "type": "int256"
                                        },
                                        {
                                            "components": [
                                                {
                                                    "name": "wallet",
                                                    "type": "bytes32"
                                                },
                                                {
                                                    "name": "operator",
                                                    "type": "bytes32"
                                                }
                                            ],
                                            "name": "hashes",
                                            "type": "tuple"
                                        },
                                        {
                                            "components": [
                                                {
                                                    "name": "current",
                                                    "type": "int256"
                                                },
                                                {
                                                    "name": "previous",
                                                    "type": "int256"
                                                }
                                            ],
                                            "name": "residuals",
                                            "type": "tuple"
                                        }
                                    ],
                                    "name": "order",
                                    "type": "tuple"
                                },
                                {
                                    "components": [
                                        {
                                            "components": [
                                                {
                                                    "name": "current",
                                                    "type": "int256"
                                                },
                                                {
                                                    "name": "previous",
                                                    "type": "int256"
                                                }
                                            ],
                                            "name": "intended",
                                            "type": "tuple"
                                        },
                                        {
                                            "components": [
                                                {
                                                    "name": "current",
                                                    "type": "int256"
                                                },
                                                {
                                                    "name": "previous",
                                                    "type": "int256"
                                                }
                                            ],
                                            "name": "conjugate",
                                            "type": "tuple"
                                        }
                                    ],
                                    "name": "balances",
                                    "type": "tuple"
                                },
                                {
                                    "components": [
                                        {
                                            "components": [
                                                {
                                                    "name": "amount",
                                                    "type": "int256"
                                                },
                                                {
                                                    "components": [
                                                        {
                                                            "name": "ct",
                                                            "type": "address"
                                                        },
                                                        {
                                                            "name": "id",
                                                            "type": "uint256"
                                                        }
                                                    ],
                                                    "name": "currency",
                                                    "type": "tuple"
                                                }
                                            ],
                                            "name": "single",
                                            "type": "tuple"
                                        },
                                        {
                                            "components": [
                                                {
                                                    "name": "originId",
                                                    "type": "uint256"
                                                },
                                                {
                                                    "components": [
                                                        {
                                                            "name": "amount",
                                                            "type": "int256"
                                                        },
                                                        {
                                                            "components": [
                                                                {
                                                                    "name": "ct",
                                                                    "type": "address"
                                                                },
                                                                {
                                                                    "name": "id",
                                                                    "type": "uint256"
                                                                }
                                                            ],
                                                            "name": "currency",
                                                            "type": "tuple"
                                                        }
                                                    ],
                                                    "name": "figure",
                                                    "type": "tuple"
                                                }
                                            ],
                                            "name": "total",
                                            "type": "tuple[]"
                                        }
                                    ],
                                    "name": "fees",
                                    "type": "tuple"
                                }
                            ],
                            "name": "seller",
                            "type": "tuple"
                        },
                        {
                            "components": [
                                {
                                    "components": [
                                        {
                                            "name": "single",
                                            "type": "int256"
                                        },
                                        {
                                            "name": "total",
                                            "type": "int256"
                                        }
                                    ],
                                    "name": "intended",
                                    "type": "tuple"
                                },
                                {
                                    "components": [
                                        {
                                            "name": "single",
                                            "type": "int256"
                                        },
                                        {
                                            "name": "total",
                                            "type": "int256"
                                        }
                                    ],
                                    "name": "conjugate",
                                    "type": "tuple"
                                }
                            ],
                            "name": "transfers",
                            "type": "tuple"
                        },
                        {
                            "components": [
                                {
                                    "name": "hash",
                                    "type": "bytes32"
                                },
                                {
                                    "components": [
                                        {
                                            "name": "r",
                                            "type": "bytes32"
                                        },
                                        {
                                            "name": "s",
                                            "type": "bytes32"
                                        },
                                        {
                                            "name": "v",
                                            "type": "uint8"
                                        }
                                    ],
                                    "name": "signature",
                                    "type": "tuple"
                                }
                            ],
                            "name": "seal",
                            "type": "tuple"
                        },
                        {
                            "name": "blockNumber",
                            "type": "uint256"
                        },
                        {
                            "name": "operatorId",
                            "type": "uint256"
                        }
                    ],
                    "name": "trade",
                    "type": "tuple"
                }
            ],
            "name": "settleTrade",
            "outputs": [],
            "payable": false,
            "stateMutability": "nonpayable",
            "type": "function"
        },
        {
            "constant": false,
            "inputs": [
                {
                    "name": "wallet",
                    "type": "address"
                },
                {
                    "components": [
                        {
                            "name": "nonce",
                            "type": "uint256"
                        },
                        {
                            "name": "amount",
                            "type": "int256"
                        },
                        {
                            "components": [
                                {
                                    "components": [
                                        {
                                            "name": "ct",
                                            "type": "address"
                                        },
                                        {
                                            "name": "id",
                                            "type": "uint256"
                                        }
                                    ],
                                    "name": "intended",
                                    "type": "tuple"
                                },
                                {
                                    "components": [
                                        {
                                            "name": "ct",
                                            "type": "address"
                                        },
                                        {
                                            "name": "id",
                                            "type": "uint256"
                                        }
                                    ],
                                    "name": "conjugate",
                                    "type": "tuple"
                                }
                            ],
                            "name": "currencies",
                            "type": "tuple"
                        },
                        {
                            "name": "rate",
                            "type": "int256"
                        },
                        {
                            "components": [
                                {
                                    "name": "nonce",
                                    "type": "uint256"
                                },
                                {
                                    "name": "wallet",
                                    "type": "address"
                                },
                                {
                                    "name": "rollingVolume",
                                    "type": "uint256"
                                },
                                {
                                    "name": "liquidityRole",
                                    "type": "uint8"
                                },
                                {
                                    "components": [
                                        {
                                            "name": "amount",
                                            "type": "int256"
                                        },
                                        {
                                            "components": [
                                                {
                                                    "name": "wallet",
                                                    "type": "bytes32"
                                                },
                                                {
                                                    "name": "operator",
                                                    "type": "bytes32"
                                                }
                                            ],
                                            "name": "hashes",
                                            "type": "tuple"
                                        },
                                        {
                                            "components": [
                                                {
                                                    "name": "current",
                                                    "type": "int256"
                                                },
                                                {
                                                    "name": "previous",
                                                    "type": "int256"
                                                }
                                            ],
                                            "name": "residuals",
                                            "type": "tuple"
                                        }
                                    ],
                                    "name": "order",
                                    "type": "tuple"
                                },
                                {
                                    "components": [
                                        {
                                            "components": [
                                                {
                                                    "name": "current",
                                                    "type": "int256"
                                                },
                                                {
                                                    "name": "previous",
                                                    "type": "int256"
                                                }
                                            ],
                                            "name": "intended",
                                            "type": "tuple"
                                        },
                                        {
                                            "components": [
                                                {
                                                    "name": "current",
                                                    "type": "int256"
                                                },
                                                {
                                                    "name": "previous",
                                                    "type": "int256"
                                                }
                                            ],
                                            "name": "conjugate",
                                            "type": "tuple"
                                        }
                                    ],
                                    "name": "balances",
                                    "type": "tuple"
                                },
                                {
                                    "components": [
                                        {
                                            "components": [
                                                {
                                                    "name": "amount",
                                                    "type": "int256"
                                                },
                                                {
                                                    "components": [
                                                        {
                                                            "name": "ct",
                                                            "type": "address"
                                                        },
                                                        {
                                                            "name": "id",
                                                            "type": "uint256"
                                                        }
                                                    ],
                                                    "name": "currency",
                                                    "type": "tuple"
                                                }
                                            ],
                                            "name": "single",
                                            "type": "tuple"
                                        },
                                        {
                                            "components": [
                                                {
                                                    "name": "originId",
                                                    "type": "uint256"
                                                },
                                                {
                                                    "components": [
                                                        {
                                                            "name": "amount",
                                                            "type": "int256"
                                                        },
                                                        {
                                                            "components": [
                                                                {
                                                                    "name": "ct",
                                                                    "type": "address"
                                                                },
                                                                {
                                                                    "name": "id",
                                                                    "type": "uint256"
                                                                }
                                                            ],
                                                            "name": "currency",
                                                            "type": "tuple"
                                                        }
                                                    ],
                                                    "name": "figure",
                                                    "type": "tuple"
                                                }
                                            ],
                                            "name": "total",
                                            "type": "tuple[]"
                                        }
                                    ],
                                    "name": "fees",
                                    "type": "tuple"
                                }
                            ],
                            "name": "buyer",
                            "type": "tuple"
                        },
                        {
                            "components": [
                                {
                                    "name": "nonce",
                                    "type": "uint256"
                                },
                                {
                                    "name": "wallet",
                                    "type": "address"
                                },
                                {
                                    "name": "rollingVolume",
                                    "type": "uint256"
                                },
                                {
                                    "name": "liquidityRole",
                                    "type": "uint8"
                                },
                                {
                                    "components": [
                                        {
                                            "name": "amount",
                                            "type": "int256"
                                        },
                                        {
                                            "components": [
                                                {
                                                    "name": "wallet",
                                                    "type": "bytes32"
                                                },
                                                {
                                                    "name": "operator",
                                                    "type": "bytes32"
                                                }
                                            ],
                                            "name": "hashes",
                                            "type": "tuple"
                                        },
                                        {
                                            "components": [
                                                {
                                                    "name": "current",
                                                    "type": "int256"
                                                },
                                                {
                                                    "name": "previous",
                                                    "type": "int256"
                                                }
                                            ],
                                            "name": "residuals",
                                            "type": "tuple"
                                        }
                                    ],
                                    "name": "order",
                                    "type": "tuple"
                                },
                                {
                                    "components": [
                                        {
                                            "components": [
                                                {
                                                    "name": "current",
                                                    "type": "int256"
                                                },
                                                {
                                                    "name": "previous",
                                                    "type": "int256"
                                                }
                                            ],
                                            "name": "intended",
                                            "type": "tuple"
                                        },
                                        {
                                            "components": [
                                                {
                                                    "name": "current",
                                                    "type": "int256"
                                                },
                                                {
                                                    "name": "previous",
                                                    "type": "int256"
                                                }
                                            ],
                                            "name": "conjugate",
                                            "type": "tuple"
                                        }
                                    ],
                                    "name": "balances",
                                    "type": "tuple"
                                },
                                {
                                    "components": [
                                        {
                                            "components": [
                                                {
                                                    "name": "amount",
                                                    "type": "int256"
                                                },
                                                {
                                                    "components": [
                                                        {
                                                            "name": "ct",
                                                            "type": "address"
                                                        },
                                                        {
                                                            "name": "id",
                                                            "type": "uint256"
                                                        }
                                                    ],
                                                    "name": "currency",
                                                    "type": "tuple"
                                                }
                                            ],
                                            "name": "single",
                                            "type": "tuple"
                                        },
                                        {
                                            "components": [
                                                {
                                                    "name": "originId",
                                                    "type": "uint256"
                                                },
                                                {
                                                    "components": [
                                                        {
                                                            "name": "amount",
                                                            "type": "int256"
                                                        },
                                                        {
                                                            "components": [
                                                                {
                                                                    "name": "ct",
                                                                    "type": "address"
                                                                },
                                                                {
                                                                    "name": "id",
                                                                    "type": "uint256"
                                                                }
                                                            ],
                                                            "name": "currency",
                                                            "type": "tuple"
                                                        }
                                                    ],
                                                    "name": "figure",
                                                    "type": "tuple"
                                                }
                                            ],
                                            "name": "total",
                                            "type": "tuple[]"
                                        }
                                    ],
                                    "name": "fees",
                                    "type": "tuple"
                                }
                            ],
                            "name": "seller",
                            "type": "tuple"
                        },
                        {
                            "components": [
                                {
                                    "components": [
                                        {
                                            "name": "single",
                                            "type": "int256"
                                        },
                                        {
                                            "name": "total",
                                            "type": "int256"
                                        }
                                    ],
                                    "name": "intended",
                                    "type": "tuple"
                                },
                                {
                                    "components": [
                                        {
                                            "name": "single",
                                            "type": "int256"
                                        },
                                        {
                                            "name": "total",
                                            "type": "int256"
                                        }
                                    ],
                                    "name": "conjugate",
                                    "type": "tuple"
                                }
                            ],
                            "name": "transfers",
                            "type": "tuple"
                        },
                        {
                            "components": [
                                {
                                    "name": "hash",
                                    "type": "bytes32"
                                },
                                {
                                    "components": [
                                        {
                                            "name": "r",
                                            "type": "bytes32"
                                        },
                                        {
                                            "name": "s",
                                            "type": "bytes32"
                                        },
                                        {
                                            "name": "v",
                                            "type": "uint8"
                                        }
                                    ],
                                    "name": "signature",
                                    "type": "tuple"
                                }
                            ],
                            "name": "seal",
                            "type": "tuple"
                        },
                        {
                            "name": "blockNumber",
                            "type": "uint256"
                        },
                        {
                            "name": "operatorId",
                            "type": "uint256"
                        }
                    ],
                    "name": "trade",
                    "type": "tuple"
                }
            ],
            "name": "settleTradeByProxy",
            "outputs": [],
            "payable": false,
            "stateMutability": "nonpayable",
            "type": "function"
        },
        {
            "constant": false,
            "inputs": [
                {
                    "components": [
                        {
                            "name": "nonce",
                            "type": "uint256"
                        },
                        {
                            "name": "amount",
                            "type": "int256"
                        },
                        {
                            "components": [
                                {
                                    "name": "ct",
                                    "type": "address"
                                },
                                {
                                    "name": "id",
                                    "type": "uint256"
                                }
                            ],
                            "name": "currency",
                            "type": "tuple"
                        },
                        {
                            "components": [
                                {
                                    "name": "nonce",
                                    "type": "uint256"
                                },
                                {
                                    "name": "wallet",
                                    "type": "address"
                                },
                                {
                                    "components": [
                                        {
                                            "name": "current",
                                            "type": "int256"
                                        },
                                        {
                                            "name": "previous",
                                            "type": "int256"
                                        }
                                    ],
                                    "name": "balances",
                                    "type": "tuple"
                                },
                                {
                                    "components": [
                                        {
                                            "components": [
                                                {
                                                    "name": "amount",
                                                    "type": "int256"
                                                },
                                                {
                                                    "components": [
                                                        {
                                                            "name": "ct",
                                                            "type": "address"
                                                        },
                                                        {
                                                            "name": "id",
                                                            "type": "uint256"
                                                        }
                                                    ],
                                                    "name": "currency",
                                                    "type": "tuple"
                                                }
                                            ],
                                            "name": "single",
                                            "type": "tuple"
                                        },
                                        {
                                            "components": [
                                                {
                                                    "name": "originId",
                                                    "type": "uint256"
                                                },
                                                {
                                                    "components": [
                                                        {
                                                            "name": "amount",
                                                            "type": "int256"
                                                        },
                                                        {
                                                            "components": [
                                                                {
                                                                    "name": "ct",
                                                                    "type": "address"
                                                                },
                                                                {
                                                                    "name": "id",
                                                                    "type": "uint256"
                                                                }
                                                            ],
                                                            "name": "currency",
                                                            "type": "tuple"
                                                        }
                                                    ],
                                                    "name": "figure",
                                                    "type": "tuple"
                                                }
                                            ],
                                            "name": "total",
                                            "type": "tuple[]"
                                        }
                                    ],
                                    "name": "fees",
                                    "type": "tuple"
                                }
                            ],
                            "name": "sender",
                            "type": "tuple"
                        },
                        {
                            "components": [
                                {
                                    "name": "nonce",
                                    "type": "uint256"
                                },
                                {
                                    "name": "wallet",
                                    "type": "address"
                                },
                                {
                                    "components": [
                                        {
                                            "name": "current",
                                            "type": "int256"
                                        },
                                        {
                                            "name": "previous",
                                            "type": "int256"
                                        }
                                    ],
                                    "name": "balances",
                                    "type": "tuple"
                                },
                                {
                                    "components": [
                                        {
                                            "components": [
                                                {
                                                    "name": "originId",
                                                    "type": "uint256"
                                                },
                                                {
                                                    "components": [
                                                        {
                                                            "name": "amount",
                                                            "type": "int256"
                                                        },
                                                        {
                                                            "components": [
                                                                {
                                                                    "name": "ct",
                                                                    "type": "address"
                                                                },
                                                                {
                                                                    "name": "id",
                                                                    "type": "uint256"
                                                                }
                                                            ],
                                                            "name": "currency",
                                                            "type": "tuple"
                                                        }
                                                    ],
                                                    "name": "figure",
                                                    "type": "tuple"
                                                }
                                            ],
                                            "name": "total",
                                            "type": "tuple[]"
                                        }
                                    ],
                                    "name": "fees",
                                    "type": "tuple"
                                }
                            ],
                            "name": "recipient",
                            "type": "tuple"
                        },
                        {
                            "components": [
                                {
                                    "name": "single",
                                    "type": "int256"
                                },
                                {
                                    "name": "total",
                                    "type": "int256"
                                }
                            ],
                            "name": "transfers",
                            "type": "tuple"
                        },
                        {
                            "components": [
                                {
                                    "components": [
                                        {
                                            "name": "hash",
                                            "type": "bytes32"
                                        },
                                        {
                                            "components": [
                                                {
                                                    "name": "r",
                                                    "type": "bytes32"
                                                },
                                                {
                                                    "name": "s",
                                                    "type": "bytes32"
                                                },
                                                {
                                                    "name": "v",
                                                    "type": "uint8"
                                                }
                                            ],
                                            "name": "signature",
                                            "type": "tuple"
                                        }
                                    ],
                                    "name": "wallet",
                                    "type": "tuple"
                                },
                                {
                                    "components": [
                                        {
                                            "name": "hash",
                                            "type": "bytes32"
                                        },
                                        {
                                            "components": [
                                                {
                                                    "name": "r",
                                                    "type": "bytes32"
                                                },
                                                {
                                                    "name": "s",
                                                    "type": "bytes32"
                                                },
                                                {
                                                    "name": "v",
                                                    "type": "uint8"
                                                }
                                            ],
                                            "name": "signature",
                                            "type": "tuple"
                                        }
                                    ],
                                    "name": "operator",
                                    "type": "tuple"
                                }
                            ],
                            "name": "seals",
                            "type": "tuple"
                        },
                        {
                            "name": "blockNumber",
                            "type": "uint256"
                        },
                        {
                            "name": "operatorId",
                            "type": "uint256"
                        }
                    ],
                    "name": "payment",
                    "type": "tuple"
                }
            ],
            "name": "settlePayment",
            "outputs": [],
            "payable": false,
            "stateMutability": "nonpayable",
            "type": "function"
        },
        {
            "constant": false,
            "inputs": [
                {
                    "name": "wallet",
                    "type": "address"
                },
                {
                    "components": [
                        {
                            "name": "nonce",
                            "type": "uint256"
                        },
                        {
                            "name": "amount",
                            "type": "int256"
                        },
                        {
                            "components": [
                                {
                                    "name": "ct",
                                    "type": "address"
                                },
                                {
                                    "name": "id",
                                    "type": "uint256"
                                }
                            ],
                            "name": "currency",
                            "type": "tuple"
                        },
                        {
                            "components": [
                                {
                                    "name": "nonce",
                                    "type": "uint256"
                                },
                                {
                                    "name": "wallet",
                                    "type": "address"
                                },
                                {
                                    "components": [
                                        {
                                            "name": "current",
                                            "type": "int256"
                                        },
                                        {
                                            "name": "previous",
                                            "type": "int256"
                                        }
                                    ],
                                    "name": "balances",
                                    "type": "tuple"
                                },
                                {
                                    "components": [
                                        {
                                            "components": [
                                                {
                                                    "name": "amount",
                                                    "type": "int256"
                                                },
                                                {
                                                    "components": [
                                                        {
                                                            "name": "ct",
                                                            "type": "address"
                                                        },
                                                        {
                                                            "name": "id",
                                                            "type": "uint256"
                                                        }
                                                    ],
                                                    "name": "currency",
                                                    "type": "tuple"
                                                }
                                            ],
                                            "name": "single",
                                            "type": "tuple"
                                        },
                                        {
                                            "components": [
                                                {
                                                    "name": "originId",
                                                    "type": "uint256"
                                                },
                                                {
                                                    "components": [
                                                        {
                                                            "name": "amount",
                                                            "type": "int256"
                                                        },
                                                        {
                                                            "components": [
                                                                {
                                                                    "name": "ct",
                                                                    "type": "address"
                                                                },
                                                                {
                                                                    "name": "id",
                                                                    "type": "uint256"
                                                                }
                                                            ],
                                                            "name": "currency",
                                                            "type": "tuple"
                                                        }
                                                    ],
                                                    "name": "figure",
                                                    "type": "tuple"
                                                }
                                            ],
                                            "name": "total",
                                            "type": "tuple[]"
                                        }
                                    ],
                                    "name": "fees",
                                    "type": "tuple"
                                }
                            ],
                            "name": "sender",
                            "type": "tuple"
                        },
                        {
                            "components": [
                                {
                                    "name": "nonce",
                                    "type": "uint256"
                                },
                                {
                                    "name": "wallet",
                                    "type": "address"
                                },
                                {
                                    "components": [
                                        {
                                            "name": "current",
                                            "type": "int256"
                                        },
                                        {
                                            "name": "previous",
                                            "type": "int256"
                                        }
                                    ],
                                    "name": "balances",
                                    "type": "tuple"
                                },
                                {
                                    "components": [
                                        {
                                            "components": [
                                                {
                                                    "name": "originId",
                                                    "type": "uint256"
                                                },
                                                {
                                                    "components": [
                                                        {
                                                            "name": "amount",
                                                            "type": "int256"
                                                        },
                                                        {
                                                            "components": [
                                                                {
                                                                    "name": "ct",
                                                                    "type": "address"
                                                                },
                                                                {
                                                                    "name": "id",
                                                                    "type": "uint256"
                                                                }
                                                            ],
                                                            "name": "currency",
                                                            "type": "tuple"
                                                        }
                                                    ],
                                                    "name": "figure",
                                                    "type": "tuple"
                                                }
                                            ],
                                            "name": "total",
                                            "type": "tuple[]"
                                        }
                                    ],
                                    "name": "fees",
                                    "type": "tuple"
                                }
                            ],
                            "name": "recipient",
                            "type": "tuple"
                        },
                        {
                            "components": [
                                {
                                    "name": "single",
                                    "type": "int256"
                                },
                                {
                                    "name": "total",
                                    "type": "int256"
                                }
                            ],
                            "name": "transfers",
                            "type": "tuple"
                        },
                        {
                            "components": [
                                {
                                    "components": [
                                        {
                                            "name": "hash",
                                            "type": "bytes32"
                                        },
                                        {
                                            "components": [
                                                {
                                                    "name": "r",
                                                    "type": "bytes32"
                                                },
                                                {
                                                    "name": "s",
                                                    "type": "bytes32"
                                                },
                                                {
                                                    "name": "v",
                                                    "type": "uint8"
                                                }
                                            ],
                                            "name": "signature",
                                            "type": "tuple"
                                        }
                                    ],
                                    "name": "wallet",
                                    "type": "tuple"
                                },
                                {
                                    "components": [
                                        {
                                            "name": "hash",
                                            "type": "bytes32"
                                        },
                                        {
                                            "components": [
                                                {
                                                    "name": "r",
                                                    "type": "bytes32"
                                                },
                                                {
                                                    "name": "s",
                                                    "type": "bytes32"
                                                },
                                                {
                                                    "name": "v",
                                                    "type": "uint8"
                                                }
                                            ],
                                            "name": "signature",
                                            "type": "tuple"
                                        }
                                    ],
                                    "name": "operator",
                                    "type": "tuple"
                                }
                            ],
                            "name": "seals",
                            "type": "tuple"
                        },
                        {
                            "name": "blockNumber",
                            "type": "uint256"
                        },
                        {
                            "name": "operatorId",
                            "type": "uint256"
                        }
                    ],
                    "name": "payment",
                    "type": "tuple"
                }
            ],
            "name": "settlePaymentByProxy",
            "outputs": [],
            "payable": false,
            "stateMutability": "nonpayable",
            "type": "function"
        }
    ],
    "bytecode": "0x60806040523480156200001157600080fd5b5060405160208062004bc28339810180604052620000339190810190620000b6565b8080600160a060020a03811615156200004b57600080fd5b600160a060020a0381163014156200006257600080fd5b506000805461010060a860020a031916610100600160a060020a039390931692830217905560018054600160a060020a031916909117905550620000eb565b6000620000af8251620000df565b9392505050565b600060208284031215620000c957600080fd5b6000620000d78484620000a1565b949350505050565b600160a060020a031690565b614ac780620000fb6000396000f3006080604052600436106102415763ffffffff60e060020a60003504166244380a811461024657806301370d061461026857806308df7dc8146102885780631327d3d8146102c15780632344a493146102e1578063240625d8146103015780632738a112146103235780632a261473146103385780632b74d249146103585780632f013a001461036d5780633a5381b5146103825780633bd7857f146103a45780634476d23b146103b9578063570ca735146103db5780635dc60def146103f0578063627f09c3146104055780636c70bee91461042557806370327ea11461043a578063829f4a701461044f578063892860b21461046f578063897d36aa1461048f5780638c6913bc146104b15780638cf16a31146104c657806392f7bd7b146104e657806396214735146105065780639d4f7ebb14610526578063a08eda5414610546578063a68ecb4a14610573578063b3ab15fb14610588578063b71ded2f146105a8578063bf24e7d0146105c8578063c0ffe1b4146105dd578063c2050a68146105fd578063c81dd95a14610612578063cdacab2514610627578063d2f089361461063c578063d5f394881461065c578063d66c529114610671578063d77a5eb314610691578063da1f06b9146106bf578063db30fd10146106df578063e71dcc31146106ff578063e754476f1461071f578063e86ab8f614610734578063e8ae41e314610754578063f1aa773414610769578063f345fb441461077e578063f6d4c0ef1461079e578063fe4e7096146107b3578063ffa0343c146107d3575b600080fd5b34801561025257600080fd5b5061026661026136600461402a565b6107f3565b005b34801561027457600080fd5b5061026661028336600461402a565b610884565b34801561029457600080fd5b506102a86102a33660046140ec565b61092c565b6040516102b8949392919061499d565b60405180910390f35b3480156102cd57600080fd5b506102666102dc36600461402a565b6109c3565b3480156102ed57600080fd5b506102666102fc366004614084565b610a5b565b34801561030d57600080fd5b50610316610aa1565b6040516102b891906148f6565b34801561032f57600080fd5b50610266610ab1565b34801561034457600080fd5b5061026661035336600461402a565b610b17565b34801561036457600080fd5b50610266610b9b565b34801561037957600080fd5b50610316610bc6565b34801561038e57600080fd5b50610397610bcf565b6040516102b89190614912565b3480156103b057600080fd5b50610397610bde565b3480156103c557600080fd5b506103ce610bed565b6040516102b891906146c6565b3480156103e757600080fd5b506103ce610c01565b3480156103fc57600080fd5b50610266610c10565b34801561041157600080fd5b5061026661042036600461402a565b610c64565b34801561043157600080fd5b50610397610cfc565b34801561044657600080fd5b50610266610d0b565b34801561045b57600080fd5b5061031661046a3660046140ec565b610d6e565b34801561047b57600080fd5b5061026661048a36600461402a565b610d81565b34801561049b57600080fd5b506104a4610e30565b6040516102b89190614904565b3480156104bd57600080fd5b506104a4610e36565b3480156104d257600080fd5b506102666104e13660046140b8565b610e3c565b3480156104f257600080fd5b506104a4610501366004613fdc565b610e77565b34801561051257600080fd5b50610266610521366004613e64565b610ea7565b34801561053257600080fd5b506104a46105413660046140ec565b610f65565b34801561055257600080fd5b506105666105613660046140ec565b610f77565b6040516102b8919061496c565b34801561057f57600080fd5b5061039761107a565b34801561059457600080fd5b506102666105a3366004613e64565b611089565b3480156105b457600080fd5b506102666105c336600461402a565b611133565b3480156105d457600080fd5b506103976111cb565b3480156105e957600080fd5b506105666105f8366004613fdc565b6111da565b34801561060957600080fd5b5061039761130f565b34801561061e57600080fd5b5061031661131e565b34801561063357600080fd5b5061026661132e565b34801561064857600080fd5b50610566610657366004613fdc565b6113c3565b34801561066857600080fd5b506103ce611430565b34801561067d57600080fd5b506104a461068c366004613fdc565b611444565b34801561069d57600080fd5b506106b16106ac366004613e82565b611461565b6040516102b89291906149d3565b3480156106cb57600080fd5b506104a46106da366004613ef7565b61149c565b3480156106eb57600080fd5b506102666106fa366004613f44565b6114bf565b34801561070b57600080fd5b5061026661071a36600461402a565b61151b565b34801561072b57600080fd5b5061039761159f565b34801561074057600080fd5b5061026661074f36600461402a565b6115ae565b34801561076057600080fd5b5061039761165d565b34801561077557600080fd5b5061039761166c565b34801561078a57600080fd5b506104a4610799366004613e64565b61167b565b3480156107aa57600080fd5b50610397611696565b3480156107bf57600080fd5b506102666107ce366004613f95565b6116a5565b3480156107df57600080fd5b506102666107ee36600461402a565b6116f5565b60006107fd611779565b151561080857600080fd5b81600160a060020a038116151561081e57600080fd5b600b8054600160a060020a03858116600160a060020a03198316179283905560405191811694507f932adbf18b602b4c231659d4b3f7cc3bc5c6278b6eb84294543576750fa85686926108779286929190911690614920565b60405180910390a1505050565b600061088e611779565b151561089957600080fd5b81600160a060020a03811615156108af57600080fd5b6006548390600160a060020a0390811690821681146109255760068054600160a060020a03878116600160a060020a0319831617909255604051911694507f07998fa7be97abe2427246ae4688298c89d6196bbffdf0997b9495a8d27bc6739061091c9086908890614920565b60405180910390a15b5050505050565b600d80548290811061093a57fe5b6000918252602091829020600690910201805460018201546040805160608181018352600286015482526003860154600160a060020a03808216848a015260a060020a9182900460ff9081161515858701528551938401865260048901548452600590980154908116988301989098529096048516151591860191909152919450919091169184565b60006109cd611779565b15156109d857600080fd5b81600160a060020a03811615156109ee57600080fd5b6003548390600160a060020a0390811690821681146109255760038054600160a060020a03878116600160a060020a0319831617909255604051911694507f1882af944a16549c3d4f60e3cd26f158b0c7aac3222cf32971fc21375ce05f609061091c9086908890614920565b610a65338261178f565b7f79f20d50c1391dd0229ea2be00547bd25af2d7ee8e2dc956e3cb12a893c867133382604051610a969291906148b6565b60405180910390a150565b60075460a060020a900460ff1681565b33610aba610bed565b600160a060020a031614610acd57600080fd5b60005460ff1615610add57600080fd5b7f787a5d936e74f4b564b9153575886059829c78cd9927b1be5e0d976b317ef73633604051610b0c91906146c6565b60405180910390a133ff5b6000610b21611779565b1515610b2c57600080fd5b81600160a060020a0381161515610b4257600080fd5b600a8054600160a060020a03858116600160a060020a03198316179283905560405191811694507f74772b09ce5e44691e96408036457cb7dc339db427ef6803bab8c690f5139bb5926108779286929190911690614920565b610ba3611779565b1515610bae57600080fd5b6005805460a060020a60ff02191660a060020a179055565b60005460ff1681565b600354600160a060020a031681565b600654600160a060020a031681565b6000546101009004600160a060020a031690565b600154600160a060020a031681565b610c18611779565b1515610c2357600080fd5b6007805460a060020a60ff02191660a060020a1790556040517f56ec8900b9c4bf84f4b715a53068ca06961dd49084c07b481931e2c2045346e690600090a1565b6000610c6e611779565b1515610c7957600080fd5b81600160a060020a0381161515610c8f57600080fd5b6002548390600160a060020a0390811690821681146109255760028054600160a060020a03878116600160a060020a0319831617909255604051911694507f634f61bf00e14adedce330c80c2823e16e184f189ebe853e1ddecc4a268477ff9061091c9086908890614920565b600254600160a060020a031681565b33610d14610bed565b600160a060020a031614610d2757600080fd5b6000805460ff191660011790556040517fd5a2a04a775c741c2ca0dc46ea7ce4835190e1aaf1ca018def0e82568ec3361690610d649033906146c6565b60405180910390a1565b6000908152600e60205260408120541190565b6000610d8b611779565b1515610d9657600080fd5b81600160a060020a0381161515610dac57600080fd5b6007548390600160a060020a0390811690821681146109255760075460a060020a900460ff1615610ddc57600080fd5b60078054600160a060020a03878116600160a060020a0319831617909255604051911694507fa44d361e26327b72a7ccbeae801b3c5cd7677ea4fa74168b289e273c46bfecfc9061091c9086908890614920565b60085481565b600d5490565b610e463382612186565b7f657ab7ead09206283cbdeedb5264be5b351baa0c0f852fcfb6c6aa8182a64c573382604051610a969291906148d6565b600f60205281600052604060002081815481101515610e9257fe5b90600052602060002001600091509150505481565b6000610eb1611779565b1515610ebc57600080fd5b81600160a060020a0381161515610ed257600080fd5b600160a060020a038116301415610ee857600080fd5b600054600160a060020a038481166101009092041614610f605760008054600160a060020a0385811661010090810261010060a860020a0319841617909355604051929091041692507f977e5fa58e458501775e0008d275006294c5249e3c08d1d0e3a9f3acad14f6e49061087790849086906146d4565b505050565b600e6020526000908152604090205481565b610f7f613548565b610f8882610d6e565b1515610f9357600080fd5b6000828152600e6020526040902054600d8054909160001901908110610fb557fe5b906000526020600020906006020160806040519081016040529081600082015481526020016001820160009054906101000a900460ff166001811115610ff757fe5b600181111561100257fe5b81526040805160608181018352600285015482526003850154600160a060020a0380821660208581019190915260ff60a060020a938490048116151586880152818801959095528551938401865260048801548452600590970154908116968301969096529094041615158382015201529050919050565b600b54600160a060020a031681565b6000611093612f78565b151561109e57600080fd5b81600160a060020a03811615156110b457600080fd5b600160a060020a0381163014156110ca57600080fd5b600154600160a060020a03848116911614610f605760018054600160a060020a03858116600160a060020a0319831617909255604051911692507f9f611b789425d0d5b90b920f1b2852907dd865c80074a30b1629aaa041d1812c9061087790849086906146d4565b600061113d611779565b151561114857600080fd5b81600160a060020a038116151561115e57600080fd5b6004548390600160a060020a0390811690821681146109255760048054600160a060020a03878116600160a060020a0319831617909255604051911694507f4d96d2a04c886b313bd1e28be6324ed4c8867b3203e512756722f8be0195e16d9061091c9086908890614920565b600554600160a060020a031681565b6111e2613548565b600160a060020a0383166000908152600f6020526040902054821061120657600080fd5b600160a060020a0383166000908152600f602052604090208054600d916001918590811061123057fe5b90600052602060002001540381548110151561124857fe5b906000526020600020906006020160806040519081016040529081600082015481526020016001820160009054906101000a900460ff16600181111561128a57fe5b600181111561129557fe5b81526040805160608181018352600285015482526003850154600160a060020a0380821660208581019190915260ff60a060020a9384900481161515868801528188019590955285519384018652600488015484526005909701549081169683019690965290940416151583820152015290505b92915050565b600a54600160a060020a031681565b60055460a060020a900460ff1681565b6005546040805160e460020a6301f344070281529051600092600160a060020a031691631f34407091600480830192602092919082900301818787803b15801561137757600080fd5b505af115801561138b573d6000803e3d6000fd5b505050506040513d601f19601f820116820180604052506113af9190810190614066565b905060008111156113c05760088190555b50565b6113cb613548565b600160a060020a0383166000908152601060209081526040808320858452909152812054116113f957600080fd5b600160a060020a0383166000908152601060209081526040808320858452909152902054600d805490916000190190811061124857fe5b6000546101009004600160a060020a031681565b601060209081526000928352604080842090915290825290205481565b601260209081526000958652604080872082529486528486208152928552838520835290845282842090915282529020805460019091015482565b601160209081526000938452604080852082529284528284209052825290205481565b6114c7612f78565b15156114d257600080fd5b6114dc828261178f565b7f8af6c627a6990d6bfb23bf7a7c1d2200ce45a7f82927ee2710a70f2186481d2033838360405161150f939291906146ef565b60405180910390a15050565b6000611525611779565b151561153057600080fd5b81600160a060020a038116151561154657600080fd5b600c8054600160a060020a03858116600160a060020a03198316179283905560405191811694507f8b279c2b23bfeb78b16df477d9aca8834fa453d90eec75f2ab0c825a712c3d17926108779286929190911690614920565b600454600160a060020a031681565b60006115b8611779565b15156115c357600080fd5b81600160a060020a03811615156115d957600080fd5b6005548390600160a060020a0390811690821681146109255760055460a060020a900460ff161561160957600080fd5b60058054600160a060020a03878116600160a060020a0319831617909255604051911694507f624c4d4225a45f5bf8a9755adba1ef9be3464a9970b05a371fb6cca0c0caf2049061091c9086908890614920565b600754600160a060020a031681565b600c54600160a060020a031681565b600160a060020a03166000908152600f602052604090205490565b600954600160a060020a031681565b6116ad612f78565b15156116b857600080fd5b6116c28282612186565b7f5ddf2c9b4fff4cd73ea605875e6c0ac2282be29c511e97d607737a340849750733838360405161150f9392919061471c565b60006116ff611779565b151561170a57600080fd5b81600160a060020a038116151561172057600080fd5b60098054600160a060020a03858116600160a060020a03198316179283905560405191811694507f8a1a005b12d6687dbf2f09170ad28a9b5c8e8b2e1a9617db4529e643bf387399926108779286929190911690614920565b6000546101009004600160a060020a0316331490565b60035460405160e060020a63a865476b028152600091829160609183918691600160a060020a03169063a865476b906117cc90849060040161493b565b602060405180830381600087803b1580156117e657600080fd5b505af11580156117fa573d6000803e3d6000fd5b505050506040513d601f19601f8201168201806040525061181e919081019061400c565b151561182957600080fd5b60065460c0870151602001515160405160e360020a6310c7a6c1028152600160a060020a039092169163863d36089161186491600401614904565b602060405180830381600087803b15801561187e57600080fd5b505af1158015611892573d6000803e3d6000fd5b505050506040513d601f19601f820116820180604052506118b6919081019061400c565b156118c057600080fd5b60035460405160e160020a635f1132b7028152600160a060020a039091169063be22656e906118f59089908b9060040161494c565b602060405180830381600087803b15801561190f57600080fd5b505af1158015611923573d6000803e3d6000fd5b505050506040513d601f19601f82011682018060405250611947919081019061400c565b151561195257600080fd5b60055460405160e060020a639243c9db028152600160a060020a0390911690639243c9db90611985908a906004016146c6565b602060405180830381600087803b15801561199f57600080fd5b505af11580156119b3573d6000803e3d6000fd5b505050506040513d601f19601f820116820180604052506119d7919081019061400c565b156119e157600080fd5b60075460405160e260020a631293efbb028152600160a060020a0390911690634a4fbeec90611a14908a906004016146c6565b602060405180830381600087803b158015611a2e57600080fd5b505af1158015611a42573d6000803e3d6000fd5b505050506040513d601f19601f82011682018060405250611a66919081019061400c565b15611a7057600080fd5b6009546040808801518051602090910151915160e060020a633bebdcb5028152600160a060020a0390931692633bebdcb592611ab3928c92909190600401614749565b602060405180830381600087803b158015611acd57600080fd5b505af1158015611ae1573d6000803e3d6000fd5b505050506040513d601f19601f82011682018060405250611b05919081019061400c565b1515611b1057600080fd5b6009546040808801518051602090910151915160e460020a62712abb028152600160a060020a0390931692630712abb092611b52928c92909190600401614749565b602060405180830381600087803b158015611b6c57600080fd5b505af1158015611b80573d6000803e3d6000fd5b505050506040513d601f19601f82011682018060405250611ba49190810190614048565b6001811115611baf57fe5b15611bb957600080fd5b6009546040808801518051602090910151915160e060020a63cdbf9419028152600160a060020a039093169263cdbf941992611bfc928c92909190600401614749565b602060405180830381600087803b158015611c1657600080fd5b505af1158015611c2a573d6000803e3d6000fd5b505050506040513d601f19601f82011682018060405250611c4e9190810190614066565b865114611c5a57600080fd5b600260009054906101000a9004600160a060020a0316600160a060020a031663f71e860f6040518163ffffffff1660e060020a028152600401602060405180830381600087803b158015611cad57600080fd5b505af1158015611cc1573d6000803e3d6000fd5b505050506040513d601f19601f82011682018060405250611ce5919081019061400c565b8015611d775750600560009054906101000a9004600160a060020a0316600160a060020a031663994e20766040518163ffffffff1660e060020a028152600401602060405180830381600087803b158015611d3f57600080fd5b505af1158015611d53573d6000803e3d6000fd5b505050506040513d601f19601f82011682018060405250611d77919081019061400c565b80611d8457506008548651105b1515611d8f57600080fd5b8551611d9a90610d6e565b611dcb5785516060870151805160209182015160808a01518051930151611dc694936001939291612f89565b611dd8565b8551611dd89060016131b3565b9450611de4868861321b565b9350836001811115611df257fe5b158015611e0b5750600385015460a060020a900460ff16155b80611e385750836001811115611e1d57fe5b6001148015611e385750600585015460a060020a900460ff16155b1515611e4357600080fd5b836001811115611e4f57fe5b1515611e725760038501805460a060020a60ff02191660a060020a179055611e8b565b60058501805460a060020a60ff02191660a060020a1790555b60035460405160e060020a63ef04ec95028152600160a060020a039091169063ef04ec9590611ec09089908b9060040161494c565b602060405180830381600087803b158015611eda57600080fd5b505af1158015611eee573d6000803e3d6000fd5b505050506040513d601f19601f82011682018060405250611f12919081019061400c565b15611f36576060808701519081015160200151604090910151519093509150611f4e565b60808601516060810151516040909101515190935091505b8551600160a060020a038089166000908152601160209081526040808320818c0180515190951684528252808320935182015183529290522054101561213f578551600160a060020a038089166000908152601160209081526040808320818c01805151861685529083528184208151840151855283529281902094909455600480549251805192015160e08c0151955160e160020a63325d23a902815293909416946364ba475294612008948e948a949093910161481f565b600060405180830381600087803b15801561202257600080fd5b505af1158015612036573d6000803e3d6000fd5b5050600480546009546040808c01518051602090910151915160e060020a6342cb4587028152600160a060020a03948516975063ad468df996508e9593909416936342cb45879361208c93879392909101614749565b602060405180830381600087803b1580156120a657600080fd5b505af11580156120ba573d6000803e3d6000fd5b505050506040513d601f19601f820116820180604052506120de9190810190614066565b6040808b01518051602090910151915160e060020a63ffffffff871602815261210c949392906004016147cf565b600060405180830381600087803b15801561212657600080fd5b505af115801561213a573d6000803e3d6000fd5b505050505b600b54600160a060020a03161561216c57600b54865161216c9189918691600160a060020a03169061324f565b6008548651111561217d5785516008555b50505050505050565b60008061219161357a565b60035460405160e160020a637211c8c70281528591600160a060020a03169063e423918e906121c490849060040161497b565b602060405180830381600087803b1580156121de57600080fd5b505af11580156121f2573d6000803e3d6000fd5b505050506040513d601f19601f82011682018060405250612216919081019061400c565b151561222157600080fd5b60065460e08601515160405160e160020a6352c894d1028152600160a060020a039092169163a59129a29161225891600401614904565b602060405180830381600087803b15801561227257600080fd5b505af1158015612286573d6000803e3d6000fd5b505050506040513d601f19601f820116820180604052506122aa919081019061400c565b156122b457600080fd5b60035460405160e160020a6303e149c3028152600160a060020a03909116906307c29386906122e99088908a9060040161498c565b602060405180830381600087803b15801561230357600080fd5b505af1158015612317573d6000803e3d6000fd5b505050506040513d601f19601f8201168201806040525061233b919081019061400c565b151561234657600080fd5b60055460405160e060020a639243c9db028152600160a060020a0390911690639243c9db906123799089906004016146c6565b602060405180830381600087803b15801561239357600080fd5b505af11580156123a7573d6000803e3d6000fd5b505050506040513d601f19601f820116820180604052506123cb919081019061400c565b156123d557600080fd5b60075460405160e260020a631293efbb028152600160a060020a0390911690634a4fbeec906124089089906004016146c6565b602060405180830381600087803b15801561242257600080fd5b505af1158015612436573d6000803e3d6000fd5b505050506040513d601f19601f8201168201806040525061245a919081019061400c565b1561246457600080fd5b600954604080870151518051602090910151915160e060020a633bebdcb5028152600160a060020a0390931692633bebdcb5926124a8928b92909190600401614749565b602060405180830381600087803b1580156124c257600080fd5b505af11580156124d6573d6000803e3d6000fd5b505050506040513d601f19601f820116820180604052506124fa919081019061400c565b151561250557600080fd5b6009546040808701516020908101518051910151915160e060020a633bebdcb5028152600160a060020a0390931692633bebdcb59261254b928b92909190600401614749565b602060405180830381600087803b15801561256557600080fd5b505af1158015612579573d6000803e3d6000fd5b505050506040513d601f19601f8201168201806040525061259d919081019061400c565b15156125a857600080fd5b600954604080870151518051602090910151915160e460020a62712abb028152600160a060020a0390931692630712abb0926125eb928b92909190600401614749565b602060405180830381600087803b15801561260557600080fd5b505af1158015612619573d6000803e3d6000fd5b505050506040513d601f19601f8201168201806040525061263d9190810190614048565b600181111561264857fe5b1561265257600080fd5b6009546040808701516020908101518051910151915160e460020a62712abb028152600160a060020a0390931692630712abb092612697928b92909190600401614749565b602060405180830381600087803b1580156126b157600080fd5b505af11580156126c5573d6000803e3d6000fd5b505050506040513d601f19601f820116820180604052506126e99190810190614048565b60018111156126f457fe5b156126fe57600080fd5b600954604080870151518051602090910151915160e060020a63cdbf9419028152600160a060020a039093169263cdbf941992612742928b92909190600401614749565b602060405180830381600087803b15801561275c57600080fd5b505af1158015612770573d6000803e3d6000fd5b505050506040513d601f19601f820116820180604052506127949190810190614066565b8551146127a057600080fd5b6009546040808701516020908101518051910151915160e060020a63cdbf9419028152600160a060020a039093169263cdbf9419926127e6928b92909190600401614749565b602060405180830381600087803b15801561280057600080fd5b505af1158015612814573d6000803e3d6000fd5b505050506040513d601f19601f820116820180604052506128389190810190614066565b85511461284457600080fd5b600260009054906101000a9004600160a060020a0316600160a060020a031663f71e860f6040518163ffffffff1660e060020a028152600401602060405180830381600087803b15801561289757600080fd5b505af11580156128ab573d6000803e3d6000fd5b505050506040513d601f19601f820116820180604052506128cf919081019061400c565b80156129615750600560009054906101000a9004600160a060020a0316600160a060020a031663994e20766040518163ffffffff1660e060020a028152600401602060405180830381600087803b15801561292957600080fd5b505af115801561293d573d6000803e3d6000fd5b505050506040513d601f19601f82011682018060405250612961919081019061400c565b8061296e57506008548551105b151561297957600080fd5b845161298490610d6e565b6129b557845160a08601518051602091820151608089015180519301516129b094936000939291612f89565b6129c2565b84516129c29060006131b3565b93506129ce858761351e565b92508260018111156129dc57fe5b1580156129f55750600384015460a060020a900460ff16155b80612a225750826001811115612a0757fe5b6001148015612a225750600584015460a060020a900460ff16155b1515612a2d57600080fd5b826001811115612a3957fe5b1515612a5c5760038401805460a060020a60ff02191660a060020a179055612a75565b60058401805460a060020a60ff02191660a060020a1790555b60035460405160e060020a63059057d7028152600160a060020a039091169063059057d790612aaa9088908a9060040161498c565b602060405180830381600087803b158015612ac457600080fd5b505af1158015612ad8573d6000803e3d6000fd5b505050506040513d601f19601f82011682018060405250612afc919081019061400c565b612b0a578460a00151612b10565b84608001515b8551600160a060020a038089166000908152601160209081526040808320818c018051515190951684528252808320935151820151835292905220549193501115612d15578451600160a060020a038088166000908152601160209081526040808320818b0180515151861685529083528184208151518401518552835292819020949094556004805460a0880151515193515180519301516101008c0151965160e160020a63325d23a902815291909516956364ba475295612bdc958e95909490939192910161481f565b600060405180830381600087803b158015612bf657600080fd5b505af1158015612c0a573d6000803e3d6000fd5b5050600480546009546040808b0151518051602090910151915160e060020a6342cb4587028152600160a060020a03948516975063ad468df996508d9593909416936342cb458793612c6193879392909101614749565b602060405180830381600087803b158015612c7b57600080fd5b505af1158015612c8f573d6000803e3d6000fd5b505050506040513d601f19601f82011682018060405250612cb39190810190614066565b6040808a0151518051602090910151915160e060020a63ffffffff8716028152612ce2949392906004016147cf565b600060405180830381600087803b158015612cfc57600080fd5b505af1158015612d10573d6000803e3d6000fd5b505050505b8451600160a060020a038088166000908152601160209081526040808320818b01805184015151909516845282528083209351820151820151835292905220541015612f27578451600160a060020a038088166000908152601160209081526040808320818b018051840151518616855290835281842081518401518401518552835292819020949094556004805460a088015183015151935183015180519301516101008c0151965160e160020a63325d23a902815291909516956364ba475295612dea958e95909490939192910161481f565b600060405180830381600087803b158015612e0457600080fd5b505af1158015612e18573d6000803e3d6000fd5b5050600480546009546040808b01516020908101518051910151915160e060020a6342cb4587028152600160a060020a03948516975063ad468df996508d9593909416936342cb458793612e7193879392909101614749565b602060405180830381600087803b158015612e8b57600080fd5b505af1158015612e9f573d6000803e3d6000fd5b505050506040513d601f19601f82011682018060405250612ec39190810190614066565b6040808a01516020908101518051910151915160e060020a63ffffffff8716028152612ef4949392906004016147cf565b600060405180830381600087803b158015612f0e57600080fd5b505af1158015612f22573d6000803e3d6000fd5b505050505b600a54600160a060020a031615612f5f5760c082015160200151600a548651612f5f9289929091600160a060020a039091169061324f565b60085485511115612f705784516008555b505050505050565b600154600160a060020a0316331490565b6000612f93613548565b878152600060208201886001811115612fa857fe5b90816001811115612fb557fe5b9052506040805160608082018352898252600160a060020a03898116602080850191909152600084860181905287860194909452845180840186528a81529189168282015293810183905290850152600d805460018082018084559290935285517fd7b6990105719101dabeb77144f2a3385c8033acd3af97e9423a695e81ad1eb56006909202918201908155938601517fd7b6990105719101dabeb77144f2a3385c8033acd3af97e9423a695e81ad1eb6909101805492948794909360ff191690838181111561308257fe5b02179055506040828101518051600284015560208082015160038501805493850151600160a060020a0319948516600160a060020a039384161760a060020a60ff021990811660a060020a92151583021790925560609097015180516004880155808401516005909701805491870151919095169683169690961716941515909502939093179055600d805460008f8152600e85528381208290558c8616808252600f865284822080546001818101835591845287842001849055968c16808352858320805498890181558352868320909701839055815260108086528482208f835286528482208390559581529484528285208b865290935292208190558154909350909150600019830190811061319757fe5b9060005260206000209060060201925050509695505050505050565b6000828152600e6020526040812054600d805483919060001984019081106131d757fe5b6000918252602090912060016006909202018181015490925060ff16908111156131fd57fe5b84600181111561320957fe5b1461321357600080fd5b949350505050565b6000826060015160200151600160a060020a031682600160a060020a031614613245576001613248565b60005b9392505050565b6000808080805b875185101561351357878581518110151561326d57fe5b6020908102909101015151156132aa57600c548851600160a060020a039091169089908790811061329a57fe5b60209081029091010151516132ae565b8660005b600160a060020a03808c1660009081526012602090815260408083208487168452825280832093851683529290529081208b5193975091955090918a90889081106132f557fe5b90602001906020020151602001516020015160000151600160a060020a0316600160a060020a031681526020019081526020016000206000898781518110151561333b57fe5b90602001906020020151602001516020015160200151815260200190815260200160002091508582600001541015613508578582556001820154885189908790811061338357fe5b90602001906020020151602001516000015103905087858151811015156133a657fe5b602090810290910181015101515160018301556004548851600160a060020a039091169063158a0342908590879085908d908b9081106133e257fe5b60209081029091018101518101510151518d518e908c90811061340157fe5b906020019060200201516020015160200151602001516040518663ffffffff1660e060020a02815260040161343a959493929190614771565b600060405180830381600087803b15801561345457600080fd5b505af1158015613468573d6000803e3d6000fd5b505050507f64fcac3c2b1ccc98d3039b49f7668a97654165a070c78fa3163859e4d5d0978089828a8881518110151561349d57fe5b60209081029091018101510151518b518c908a9081106134b957fe5b60209081029091018101518101510151518c518d908b9081106134d857fe5b906020019060200201516020015160200151602001516040516134ff959493929190614874565b60405180910390a15b600190940193613256565b505050505050505050565b60008260a0015160200151600160a060020a031682600160a060020a031614613245576001613248565b6040805161010081018252600080825260208201529081016135686135c4565b81526020016135756135c4565b905290565b604080516102208101825260008082526020820181905291810182905290606082019081526020016135aa6135e4565b81526020016135b761360c565b8152602001613575613620565b604080516060810182526000808252602082018190529181019190915290565b60a060405190810160405280600081526020016135ff613641565b8152602001613575613641565b6080604051908101604052806135ff613641565b608060405190810160405280613634613658565b8152602001606081525090565b604080518082019091526000808252602082015290565b60606040519081016040528060008152602001613575604080518082019091526000808252602082015290565b60006132488235614a3e565b6000601f820183136136a257600080fd5b81356136b56136b082614a14565b6149ee565b915081818352602084019350602081019050838560808402820111156136da57600080fd5b60005b8381101561370857816136f0888261387c565b845250602090920191608091909101906001016136dd565b5050505092915050565b60006132488251614a4a565b60006132488235614a4f565b60006132488235614a68565b60006132488235614a73565b60006132488251614a73565b60006132488251614a4f565b60006040828403121561376c57600080fd5b61377660406149ee565b905060006137848484613685565b82525060206137958484830161371e565b60208301525092915050565b6000604082840312156137b357600080fd5b6137bd60406149ee565b90506000613784848461371e565b6000606082840312156137dd57600080fd5b6137e760406149ee565b905060006137f5848461371e565b82525060206137958484830161375a565b60006080828403121561381857600080fd5b61382260406149ee565b90506000613830848461375a565b82525060406137958484830161375a565b60006080828403121561385357600080fd5b61385d60406149ee565b9050600061386b84846137a1565b8252506040613795848483016137a1565b60006080828403121561388e57600080fd5b61389860406149ee565b905060006138a6848461371e565b8252506020613795848483016137cb565b600060a082840312156138c957600080fd5b6138d360806149ee565b905060006138e1848461371e565b82525060206138f284848301613685565b6020830152506040613906848285016137a1565b60408301525060808201356001604060020a0381111561392557600080fd5b61393184828501613ba1565b60608301525092915050565b600060a0828403121561394f57600080fd5b61395960806149ee565b90506000613967848461371e565b825250602061397884848301613685565b602083015250604061398c848285016137a1565b60408301525060808201356001604060020a038111156139ab57600080fd5b61393184828501613b4f565b600061024082840312156139ca57600080fd5b6139d56101206149ee565b905060006139e3848461371e565b82525060206139f48484830161371e565b6020830152506040613a088482850161375a565b60408301525060808201356001604060020a03811115613a2757600080fd5b613a338482850161393d565b60608301525060a08201356001604060020a03811115613a5257600080fd5b613a5e848285016138b7565b60808301525060c0613a72848285016137a1565b60a083015250610100613a8784828501613e1c565b60c083015250610200613a9c8482850161371e565b60e083015250610220613ab18482850161371e565b6101008301525092915050565b600060808284031215613ad057600080fd5b613ada60406149ee565b90506000613ae8848461371e565b825250602061379584848301600060608284031215613b0657600080fd5b613b1060606149ee565b90506000613b1e848461371e565b8252506020613b2f8484830161371e565b6020830152506040613b4384828501613e58565b60408301525092915050565b600060808284031215613b6157600080fd5b613b6b60406149ee565b90506000613b7984846137cb565b82525060608201356001604060020a03811115613b9557600080fd5b61379584828501613691565b600060208284031215613bb357600080fd5b613bbd60206149ee565b905081356001604060020a03811115613bd557600080fd5b613be184828501613691565b82525092915050565b600060a08284031215613bfc57600080fd5b613c0660606149ee565b90506000613c14848461371e565b8252506020613c25848483016137a1565b6020830152506060613b43848285016137a1565b60006101c08284031215613c4c57600080fd5b613c5660e06149ee565b90506000613c64848461371e565b8252506020613c7584848301613685565b6020830152506040613c898482850161371e565b6040830152506060613c9d84828501613736565b6060830152506080613cb184828501613bea565b608083015250610120613cc684828501613841565b60a0830152506101a08201356001604060020a03811115613ce657600080fd5b613cf284828501613b4f565b60c08301525092915050565b60006102608284031215613d1157600080fd5b613d1c6101406149ee565b90506000613d2a848461371e565b8252506020613d3b8484830161371e565b6020830152506040613d4f84828501613806565b60408301525060c0613d638482850161371e565b60608301525060e08201356001604060020a03811115613d8257600080fd5b613d8e84828501613c39565b6080830152506101008201356001604060020a03811115613dae57600080fd5b613dba84828501613c39565b60a083015250610120613dcf84828501613841565b60c0830152506101a0613de484828501613abe565b60e083015250610220613df98482850161371e565b61010083015250610240613e0f8482850161371e565b6101208301525092915050565b60006101008284031215613e2f57600080fd5b613e3960406149ee565b90506000613e478484613abe565b825250608061379584848301613abe565b60006132488235614a62565b600060208284031215613e7657600080fd5b60006132138484613685565b600080600080600060a08688031215613e9a57600080fd5b6000613ea68888613685565b9550506020613eb788828901613685565b9450506040613ec888828901613685565b9350506060613ed988828901613685565b9250506080613eea8882890161371e565b9150509295509295909350565b600080600060608486031215613f0c57600080fd5b6000613f188686613685565b9350506020613f2986828701613685565b9250506040613f3a8682870161371e565b9150509250925092565b60008060408385031215613f5757600080fd5b6000613f638585613685565b92505060208301356001604060020a03811115613f7f57600080fd5b613f8b858286016139b7565b9150509250929050565b60008060408385031215613fa857600080fd5b6000613fb48585613685565b92505060208301356001604060020a03811115613fd057600080fd5b613f8b85828601613cfe565b60008060408385031215613fef57600080fd5b6000613ffb8585613685565b9250506020613f8b8582860161371e565b60006020828403121561401e57600080fd5b60006132138484613712565b60006020828403121561403c57600080fd5b6000613213848461372a565b60006020828403121561405a57600080fd5b60006132138484613742565b60006020828403121561407857600080fd5b6000613213848461374e565b60006020828403121561409657600080fd5b81356001604060020a038111156140ac57600080fd5b613213848285016139b7565b6000602082840312156140ca57600080fd5b81356001604060020a038111156140e057600080fd5b61321384828501613cfe565b6000602082840312156140fe57600080fd5b6000613213848461371e565b61411381614a3e565b82525050565b600061412482614a3a565b80845260208401935061413683614a34565b60005b828110156141665761414c868351614245565b61415582614a34565b608096909601959150600101614139565b5093949350505050565b61411381614a4a565b61411381614a4f565b61411381614a68565b61411381614a82565b6000815260200190565b805160408301906141af848261410a565b5060208201516141c26020850182614179565b50505050565b805160408301906141af8482614179565b805160608301906141ea8482614179565b5060208201516141c2602085018261419e565b8051608083019061420e848261419e565b5060208201516141c2604085018261419e565b8051608083019061423284826141c8565b5060208201516141c260408501826141c8565b805160808301906142568482614179565b5060208201516141c260208501826141d9565b805160009060a084019061427d8582614179565b506020830151614290602086018261410a565b5060408301516142a360408601826141c8565b50606083015184820360808601526142bb82826144e6565b95945050505050565b805160009060a08401906142d88582614179565b5060208301516142eb602086018261410a565b5060408301516142fe60408601826141c8565b50606083015184820360808601526142bb82826144ba565b805160009061024084019061432b8582614179565b50602083015161433e6020860182614179565b506040830151614351604086018261419e565b506060830151848203608086015261436982826142c4565b915050608083015184820360a08601526143838282614269565b91505060a083015161439860c08601826141c8565b5060c08301516143ac610100860182614698565b5060e08301516143c0610200860182614179565b506101008301516143d5610220860182614179565b509392505050565b805160808301906143ee8482614179565b5060208201516141c26020850182614483565b805160608301906144128482614179565b506020820151614425602085018261410a565b5060408201516141c26040850182614170565b805161010083019061444a8482614179565b50602082015161445d602085018261418b565b5060408201516144706040850182614401565b5060608201516141c260a0850182614401565b805160608301906144948482614179565b5060208201516144a76020850182614179565b5060408201516141c260408501826146bd565b805160009060808401906144ce85826141d9565b50602083015184820360608601526142bb8282614119565b80516020808452600091908401906142bb8282614119565b805160a083019061450f8482614179565b50602082015161452260208501826141c8565b5060408201516141c260608501826141c8565b80516000906101c084019061454a8582614179565b50602083015161455d602086018261410a565b5060408301516145706040860182614179565b506060830151614583606086018261418b565b50608083015161459660808601826144fe565b5060a08301516145aa610120860182614221565b5060c08301518482036101a08601526142bb82826144ba565b80516000906102608401906145d88582614179565b5060208301516145eb6020860182614179565b5060408301516145fe60408601826141fd565b50606083015161461160c0860182614179565b50608083015184820360e08601526146298282614535565b91505060a08301518482036101008601526146448282614535565b91505060c083015161465a610120860182614221565b5060e083015161466e6101a08601826143dd565b50610100830151614683610220860182614179565b506101208301516143d5610240860182614179565b80516101008301906146aa84826143dd565b5060208201516141c260808501826143dd565b61411381614a62565b60208101611309828461410a565b604081016146e2828561410a565b613248602083018461410a565b606081016146fd828661410a565b61470a602083018561410a565b81810360408301526142bb8184614316565b6060810161472a828661410a565b614737602083018561410a565b81810360408301526142bb81846145c3565b60608101614757828661410a565b614764602083018561410a565b6132136040830184614179565b60c0810161477f828861410a565b61478c6020830187614182565b6147996040830186614179565b6147a6606083018561410a565b6147b36080830184614179565b81810360a08301526147c481614194565b979650505050505050565b60a081016147dd828761410a565b6147ea6020830186614179565b6147f7604083018561410a565b6148046060830184614179565b818103608083015261481581614194565b9695505050505050565b60c0810161482d828861410a565b61483a6020830187614179565b614847604083018661410a565b6148546060830185614179565b818103608083015261486581614194565b905061481560a0830184614179565b60a08101614882828861410a565b61488f6020830187614179565b61489c6040830186614179565b6148a9606083018561410a565b6148156080830184614179565b604081016148c4828561410a565b81810360208301526132138184614316565b604081016148e4828561410a565b818103602083015261321381846145c3565b602081016113098284614170565b602081016113098284614179565b602081016113098284614182565b6040810161492e8285614182565b6132486020830184614182565b602080825281016132488184614316565b6040808252810161495d8185614316565b9050613248602083018461410a565b61010081016113098284614438565b6020808252810161324881846145c3565b6040808252810161495d81856145c3565b61010081016149ac8287614179565b6149b9602083018661418b565b6149c66040830185614401565b6142bb60a0830184614401565b604081016149e18285614179565b6132486020830184614179565b6040518181016001604060020a0381118282101715614a0c57600080fd5b604052919050565b60006001604060020a03821115614a2a57600080fd5b5060209081020190565b60200190565b5190565b600160a060020a031690565b151590565b90565b600060028210614a5e57fe5b5090565b60ff1690565b600061130982614a3e565b600060028210614a5e57600080fd5b600061130982614a525600a265627a7a72305820f88ab42e6d250f961d0f20e337dcdec4228ab1ac5e9918ade7d64b8d69d601036c6578706572696d656e74616cf50037",
    "source": "/*\n * Hubii Nahmii\n *\n * Compliant with the Hubii Nahmii specification v0.12.\n *\n * Copyright (C) 2017-2018 Hubii AS\n */\n\npragma solidity ^0.4.25;\npragma experimental ABIEncoderV2;\n\nimport {Ownable} from \"./Ownable.sol\";\nimport {Configurable} from \"./Configurable.sol\";\nimport {Validatable} from \"./Validatable.sol\";\nimport {ClientFundable} from \"./ClientFundable.sol\";\nimport {CommunityVotable} from \"./CommunityVotable.sol\";\nimport {FraudChallengable} from \"./FraudChallengable.sol\";\nimport {WalletLockable} from \"./WalletLockable.sol\";\nimport {RevenueFund} from \"./RevenueFund.sol\";\nimport {PartnerFund} from \"./PartnerFund.sol\";\nimport {DriipSettlementChallenge} from \"./DriipSettlementChallenge.sol\";\nimport {Beneficiary} from \"./Beneficiary.sol\";\nimport {SafeMathIntLib} from \"./SafeMathIntLib.sol\";\nimport {SafeMathUintLib} from \"./SafeMathUintLib.sol\";\nimport {MonetaryTypesLib} from \"./MonetaryTypesLib.sol\";\nimport {NahmiiTypesLib} from \"./NahmiiTypesLib.sol\";\nimport {SettlementTypesLib} from \"./SettlementTypesLib.sol\";\n\n/**\n * @title DriipSettlement\n * @notice Where driip settlements are finalized\n */\ncontract DriipSettlement is Ownable, Configurable, Validatable, ClientFundable, CommunityVotable,\nFraudChallengable, WalletLockable {\n    using SafeMathIntLib for int256;\n    using SafeMathUintLib for uint256;\n\n    //\n    // Structures\n    // -----------------------------------------------------------------------------------------------------------------\n    struct Total {\n        uint256 nonce;\n        int256 amount;\n    }\n\n    //\n    // Variables\n    // -----------------------------------------------------------------------------------------------------------------\n    uint256 public maxDriipNonce;\n\n    DriipSettlementChallenge public driipSettlementChallenge;\n    RevenueFund public tradesRevenueFund;\n    RevenueFund public paymentsRevenueFund;\n    PartnerFund public partnerFund;\n\n    SettlementTypesLib.Settlement[] public settlements;\n    mapping(uint256 => uint256) public nonceSettlementIndex;\n    mapping(address => uint256[]) public walletSettlementIndices;\n    mapping(address => mapping(uint256 => uint256)) public walletNonceSettlementIndex;\n    mapping(address => mapping(address => mapping(uint256 => uint256))) public walletCurrencyMaxDriipNonce;\n\n    mapping(address => mapping(address => mapping(address => mapping(address => mapping(uint256 => Total))))) public feeTotalsMap;\n\n    //\n    // Events\n    // -----------------------------------------------------------------------------------------------------------------\n    event SettleTradeEvent(address wallet, NahmiiTypesLib.Trade trade);\n    event SettleTradeByProxyEvent(address proxy, address wallet, NahmiiTypesLib.Trade trade);\n    event SettlePaymentEvent(address wallet, NahmiiTypesLib.Payment payment);\n    event SettlePaymentByProxyEvent(address proxy, address wallet, NahmiiTypesLib.Payment payment);\n    event SetDriipSettlementChallengeEvent(DriipSettlementChallenge oldDriipSettlementChallenge,\n        DriipSettlementChallenge newDriipSettlementChallenge);\n    event SetTradesRevenueFundEvent(RevenueFund oldRevenueFund, RevenueFund newRevenueFund);\n    event SetPaymentsRevenueFundEvent(RevenueFund oldRevenueFund, RevenueFund newRevenueFund);\n    event SetPartnerFundEvent(PartnerFund oldPartnerFund, PartnerFund newPartnerFund);\n    event StageFeesEvent(address wallet, int256 deltaAmount, int256 cumulativeAmount,\n        address currencyCt, uint256 currencyId);\n\n    //\n    // Constructor\n    // -----------------------------------------------------------------------------------------------------------------\n    constructor(address deployer) Ownable(deployer) public {\n    }\n\n    //\n    // Functions\n    // -----------------------------------------------------------------------------------------------------------------\n    /// @notice Set the driip settlement challenge contract\n    /// @param newDriipSettlementChallenge The (address of) DriipSettlementChallenge contract instance\n    function setDriipSettlementChallenge(DriipSettlementChallenge newDriipSettlementChallenge) public\n    onlyDeployer\n    notNullAddress(newDriipSettlementChallenge)\n    {\n        DriipSettlementChallenge oldDriipSettlementChallenge = driipSettlementChallenge;\n        driipSettlementChallenge = newDriipSettlementChallenge;\n        emit SetDriipSettlementChallengeEvent(oldDriipSettlementChallenge, driipSettlementChallenge);\n    }\n\n    /// @notice Set the trades revenue fund contract\n    /// @param newTradesRevenueFund The (address of) trades RevenueFund contract instance\n    function setTradesRevenueFund(RevenueFund newTradesRevenueFund) public\n    onlyDeployer\n    notNullAddress(newTradesRevenueFund)\n    {\n        RevenueFund oldTradesRevenueFund = tradesRevenueFund;\n        tradesRevenueFund = newTradesRevenueFund;\n        emit SetTradesRevenueFundEvent(oldTradesRevenueFund, tradesRevenueFund);\n    }\n\n    /// @notice Set the payments revenue fund contract\n    /// @param newPaymentsRevenueFund The (address of) payments RevenueFund contract instance\n    function setPaymentsRevenueFund(RevenueFund newPaymentsRevenueFund) public\n    onlyDeployer\n    notNullAddress(newPaymentsRevenueFund)\n    {\n        RevenueFund oldPaymentsRevenueFund = paymentsRevenueFund;\n        paymentsRevenueFund = newPaymentsRevenueFund;\n        emit SetPaymentsRevenueFundEvent(oldPaymentsRevenueFund, paymentsRevenueFund);\n    }\n\n    /// @notice Set the partner fund contract\n    /// @param newPartnerFund The (address of) partner contract instance\n    function setPartnerFund(PartnerFund newPartnerFund) public\n    onlyDeployer\n    notNullAddress(newPartnerFund)\n    {\n        PartnerFund oldPartnerFund = partnerFund;\n        partnerFund = newPartnerFund;\n        emit SetPartnerFundEvent(oldPartnerFund, partnerFund);\n    }\n\n    /// @notice Get the count of settlements\n    function settlementsCount() public view returns (uint256) {\n        return settlements.length;\n    }\n\n    /// @notice Return boolean indicating whether there is already a settlement for the given (global) nonce\n    /// @param nonce The nonce for which to check for settlement\n    /// @return true if there exists a settlement for the provided nonce, false otherwise\n    function hasSettlementByNonce(uint256 nonce) public view returns (bool) {\n        return 0 < nonceSettlementIndex[nonce];\n    }\n\n    /// @notice Get the settlement for the given (global) nonce\n    /// @param nonce The nonce of the settlement\n    /// @return settlement of the provided nonce\n    function settlementByNonce(uint256 nonce) public view returns (SettlementTypesLib.Settlement) {\n        require(hasSettlementByNonce(nonce));\n        return settlements[nonceSettlementIndex[nonce] - 1];\n    }\n\n    /// @notice Get the count of settlements for given wallet\n    /// @param wallet The address for which to return settlement count\n    /// @return count of settlements for the provided wallet\n    function settlementsCountByWallet(address wallet) public view returns (uint256) {\n        return walletSettlementIndices[wallet].length;\n    }\n\n    /// @notice Get settlement of given wallet and index\n    /// @param wallet The address for which to return settlement\n    /// @param index The wallet's settlement index\n    /// @return settlement for the provided wallet and index\n    function settlementByWalletAndIndex(address wallet, uint256 index) public view returns (SettlementTypesLib.Settlement) {\n        require(walletSettlementIndices[wallet].length > index);\n        return settlements[walletSettlementIndices[wallet][index] - 1];\n    }\n\n    /// @notice Get settlement of given wallet and (wallet) nonce\n    /// @param wallet The address for which to return settlement\n    /// @param nonce The wallet's nonce\n    /// @return settlement for the provided wallet and index\n    function settlementByWalletAndNonce(address wallet, uint256 nonce) public view returns (SettlementTypesLib.Settlement) {\n        require(0 < walletNonceSettlementIndex[wallet][nonce]);\n        return settlements[walletNonceSettlementIndex[wallet][nonce] - 1];\n    }\n\n    /// @notice Update the max driip nonce property from CommunityVote contract\n    function updateMaxDriipNonce() public {\n        uint256 _maxDriipNonce = communityVote.getMaxDriipNonce();\n        if (_maxDriipNonce > 0) {\n            maxDriipNonce = _maxDriipNonce;\n        }\n    }\n\n    /// @notice Settle driip that is a trade\n    /// @param trade The trade to be settled\n    function settleTrade(NahmiiTypesLib.Trade trade)\n    public\n    {\n        // Settle trade\n        _settleTrade(msg.sender, trade);\n\n        // Emit event\n        emit SettleTradeEvent(msg.sender, trade);\n    }\n\n    /// @notice Settle driip that is a trade\n    /// @param wallet The wallet whose side of the trade is to be settled\n    /// @param trade The trade to be settled\n    function settleTradeByProxy(address wallet, NahmiiTypesLib.Trade trade)\n    public\n    onlyOperator\n    {\n        // Settle trade for wallet\n        _settleTrade(wallet, trade);\n\n        // Emit event\n        emit SettleTradeByProxyEvent(msg.sender, wallet, trade);\n    }\n\n    /// @notice Settle driip that is a payment\n    /// @param payment The payment to be settled\n    function settlePayment(NahmiiTypesLib.Payment payment)\n    public\n    {\n        // Settle payment\n        _settlePayment(msg.sender, payment);\n\n        // Emit event\n        emit SettlePaymentEvent(msg.sender, payment);\n    }\n\n    /// @notice Settle driip that is a payment\n    /// @param wallet The wallet whose side of the payment is to be settled\n    /// @param payment The payment to be settled\n    function settlePaymentByProxy(address wallet, NahmiiTypesLib.Payment payment)\n    public\n    onlyOperator\n    {\n        // Settle payment for wallet\n        _settlePayment(wallet, payment);\n\n        // Emit event\n        emit SettlePaymentByProxyEvent(msg.sender, wallet, payment);\n    }\n\n    function _settleTrade(address wallet, NahmiiTypesLib.Trade trade)\n    private\n    onlySealedTrade(trade)\n    {\n        require(!fraudChallenge.isFraudulentTradeHash(trade.seal.hash));\n        require(validator.isTradeParty(trade, wallet));\n        require(!communityVote.isDoubleSpenderWallet(wallet));\n\n        // Require that wallet is not locked\n        require(!walletLocker.isLocked(wallet));\n\n        // Require that proposal has expired\n        require(driipSettlementChallenge.hasProposalExpired(wallet, trade.currencies.intended.ct, trade.currencies.intended.id));\n        require(driipSettlementChallenge.hasProposalExpired(wallet, trade.currencies.conjugate.ct, trade.currencies.conjugate.id));\n\n        // Require that driip settlement challenge proposals qualified\n        require(SettlementTypesLib.Status.Qualified == driipSettlementChallenge.proposalStatus(\n            wallet, trade.currencies.intended.ct, trade.currencies.intended.id\n        ));\n        require(SettlementTypesLib.Status.Qualified == driipSettlementChallenge.proposalStatus(\n            wallet, trade.currencies.conjugate.ct, trade.currencies.conjugate.id\n        ));\n\n        // Require that the wallet's current driip settlement challenge is wrt this trade\n        require(trade.nonce == driipSettlementChallenge.proposalNonce(wallet, trade.currencies.intended.ct, trade.currencies.intended.id));\n        require(trade.nonce == driipSettlementChallenge.proposalNonce(wallet, trade.currencies.conjugate.ct, trade.currencies.conjugate.id));\n\n        // Require that operational mode is normal and data is available, or that nonce is\n        // smaller than max null nonce\n        require((configuration.isOperationalModeNormal() && communityVote.isDataAvailable())\n            || (trade.nonce < maxDriipNonce));\n\n        // Get settlement, or create one if no such settlement exists for the trade nonce\n        SettlementTypesLib.Settlement storage settlement = hasSettlementByNonce(trade.nonce) ?\n        getSettlement(\n            trade.nonce, NahmiiTypesLib.DriipType.Trade\n        ) :\n        createSettlement(\n            trade.nonce, NahmiiTypesLib.DriipType.Trade, trade.seller.nonce,\n            trade.seller.wallet, trade.buyer.nonce, trade.buyer.wallet\n        );\n\n        // Get settlement role\n        SettlementTypesLib.SettlementRole settlementRole = getSettlementRoleFromTrade(trade, wallet);\n\n        // If exists settlement of nonce then require that wallet has not already settled\n        require(\n            (SettlementTypesLib.SettlementRole.Origin == settlementRole && !settlement.origin.done) ||\n            (SettlementTypesLib.SettlementRole.Target == settlementRole && !settlement.target.done)\n        );\n\n        // Set address of origin or target to prevent the same settlement from being resettled by this wallet\n        if (SettlementTypesLib.SettlementRole.Origin == settlementRole)\n            settlement.origin.done = true;\n        else\n            settlement.target.done = true;\n\n        NahmiiTypesLib.TradeParty memory party = validator.isTradeBuyer(trade, wallet) ? trade.buyer : trade.seller;\n\n        // If wallet has previously settled balance of the intended currency with higher driip nonce, then don't\n        // settle its balance again\n        if (walletCurrencyMaxDriipNonce[wallet][trade.currencies.intended.ct][trade.currencies.intended.id] < trade.nonce) {\n            // Update settled nonce of wallet and currency\n            walletCurrencyMaxDriipNonce[wallet][trade.currencies.intended.ct][trade.currencies.intended.id] = trade.nonce;\n\n            // Update settled balance\n            clientFund.updateSettledBalance(\n                wallet, party.balances.intended.current, trade.currencies.intended.ct,\n                trade.currencies.intended.id, \"\", trade.blockNumber\n            );\n\n            // Stage (stage function assures positive amount only)\n            clientFund.stage(\n                wallet,\n                driipSettlementChallenge.proposalStageAmount(wallet, trade.currencies.intended.ct, trade.currencies.intended.id),\n                trade.currencies.intended.ct, trade.currencies.intended.id, \"\"\n            );\n        }\n\n        // If wallet has previously settled balance of the conjugate currency with higher driip nonce, then don't\n        // settle its balance again\n        if (walletCurrencyMaxDriipNonce[wallet][trade.currencies.conjugate.ct][trade.currencies.conjugate.id] < trade.nonce) {\n            // Update settled nonce of wallet and currency\n            walletCurrencyMaxDriipNonce[wallet][trade.currencies.conjugate.ct][trade.currencies.conjugate.id] = trade.nonce;\n\n            // Update settled balance\n            clientFund.updateSettledBalance(\n                wallet, party.balances.conjugate.current, trade.currencies.conjugate.ct,\n                trade.currencies.conjugate.id, \"\", trade.blockNumber\n            );\n\n            // Stage (stage function assures positive amount only)\n            clientFund.stage(\n                wallet,\n                driipSettlementChallenge.proposalStageAmount(wallet, trade.currencies.conjugate.ct, trade.currencies.conjugate.id),\n                trade.currencies.conjugate.ct, trade.currencies.conjugate.id, \"\"\n            );\n        }\n\n        // Stage fees to revenue fund\n        if (address(0) != address(tradesRevenueFund))\n            stageFees(wallet, party.fees.total, tradesRevenueFund, trade.nonce);\n\n        // If payment nonce is beyond max driip nonce then update max driip nonce\n        if (trade.nonce > maxDriipNonce)\n            maxDriipNonce = trade.nonce;\n    }\n\n    function _settlePayment(address wallet, NahmiiTypesLib.Payment payment)\n    private\n    onlySealedPayment(payment)\n    {\n        require(!fraudChallenge.isFraudulentPaymentHash(payment.seals.operator.hash));\n        require(validator.isPaymentParty(payment, wallet));\n        require(!communityVote.isDoubleSpenderWallet(wallet));\n\n        // Require that wallet is not locked\n        require(!walletLocker.isLocked(wallet));\n\n        // Require that proposal has expired\n        require(driipSettlementChallenge.hasProposalExpired(wallet, payment.currency.ct, payment.currency.id));\n\n        // Require that driip settlement challenge proposal qualified\n        require(SettlementTypesLib.Status.Qualified == driipSettlementChallenge.proposalStatus(\n            wallet, payment.currency.ct, payment.currency.id\n        ));\n\n        // Require that the wallet's current driip settlement challenge is wrt this payment\n        require(payment.nonce == driipSettlementChallenge.proposalNonce(wallet, payment.currency.ct, payment.currency.id));\n\n        // Require that operational mode is normal and data is available, or that nonce is\n        // smaller than max null nonce\n        require((configuration.isOperationalModeNormal() && communityVote.isDataAvailable())\n            || (payment.nonce < maxDriipNonce));\n\n        // Get settlement, or create one if no such settlement exists for the trade nonce\n        SettlementTypesLib.Settlement storage settlement = hasSettlementByNonce(payment.nonce) ?\n        getSettlement(payment.nonce, NahmiiTypesLib.DriipType.Payment) :\n        createSettlement(payment.nonce, NahmiiTypesLib.DriipType.Payment,\n            payment.sender.nonce, payment.sender.wallet, payment.recipient.nonce, payment.recipient.wallet);\n\n        // Get settlement role\n        SettlementTypesLib.SettlementRole settlementRole = getSettlementRoleFromPayment(payment, wallet);\n\n        // If exists settlement of nonce then require that wallet has not already settled\n        require(\n            (SettlementTypesLib.SettlementRole.Origin == settlementRole && !settlement.origin.done) ||\n            (SettlementTypesLib.SettlementRole.Target == settlementRole && !settlement.target.done)\n        );\n\n        // Set address of origin or target to prevent the same settlement from being resettled by this wallet\n        if (SettlementTypesLib.SettlementRole.Origin == settlementRole)\n            settlement.origin.done = true;\n        else\n            settlement.target.done = true;\n\n        NahmiiTypesLib.OriginFigure[] memory totalFees;\n        int256 currentBalance;\n        if (validator.isPaymentSender(payment, wallet)) {\n            totalFees = payment.sender.fees.total;\n            currentBalance = payment.sender.balances.current;\n        } else {\n            totalFees = payment.recipient.fees.total;\n            currentBalance = payment.recipient.balances.current;\n        }\n\n        // If wallet has previously settled balance of the concerned currency with higher driip nonce, then don't\n        // settle balance again\n        if (walletCurrencyMaxDriipNonce[wallet][payment.currency.ct][payment.currency.id] < payment.nonce) {\n            // Update settled nonce of wallet and currency\n            walletCurrencyMaxDriipNonce[wallet][payment.currency.ct][payment.currency.id] = payment.nonce;\n\n            // Update settled balance\n            clientFund.updateSettledBalance(\n                wallet, currentBalance, payment.currency.ct, payment.currency.id, \"\", payment.blockNumber\n            );\n\n            // Stage (stage function assures positive amount only)\n            clientFund.stage(\n                wallet, driipSettlementChallenge.proposalStageAmount(wallet, payment.currency.ct, payment.currency.id),\n                payment.currency.ct, payment.currency.id, \"\"\n            );\n        }\n\n        // Stage fees to revenue fund\n        if (address(0) != address(paymentsRevenueFund))\n            stageFees(wallet, totalFees, paymentsRevenueFund, payment.nonce);\n\n        // If payment nonce is beyond max driip nonce then update max driip nonce\n        if (payment.nonce > maxDriipNonce)\n            maxDriipNonce = payment.nonce;\n    }\n\n    function getSettlementRoleFromTrade(NahmiiTypesLib.Trade trade, address wallet)\n    private\n    pure\n    returns (SettlementTypesLib.SettlementRole)\n    {\n        return (wallet == trade.seller.wallet ?\n        SettlementTypesLib.SettlementRole.Origin :\n        SettlementTypesLib.SettlementRole.Target);\n    }\n\n    function getSettlementRoleFromPayment(NahmiiTypesLib.Payment payment, address wallet)\n    private\n    pure\n    returns (SettlementTypesLib.SettlementRole)\n    {\n        return (wallet == payment.sender.wallet ?\n        SettlementTypesLib.SettlementRole.Origin :\n        SettlementTypesLib.SettlementRole.Target);\n    }\n\n    function getSettlement(uint256 nonce, NahmiiTypesLib.DriipType driipType)\n    private\n    view\n    returns (SettlementTypesLib.Settlement storage)\n    {\n        uint256 index = nonceSettlementIndex[nonce];\n        SettlementTypesLib.Settlement storage settlement = settlements[index - 1];\n        require(driipType == settlement.driipType);\n        return settlement;\n    }\n\n    function createSettlement(uint256 nonce, NahmiiTypesLib.DriipType driipType,\n        uint256 originNonce, address originWallet, uint256 targetNonce, address targetWallet)\n    private\n    returns (SettlementTypesLib.Settlement storage)\n    {\n        SettlementTypesLib.Settlement memory settlement;\n        settlement.nonce = nonce;\n        settlement.driipType = driipType;\n        settlement.origin = SettlementTypesLib.SettlementParty(originNonce, originWallet, false);\n        settlement.target = SettlementTypesLib.SettlementParty(targetNonce, targetWallet, false);\n\n        settlements.push(settlement);\n\n        // Index is 1 based\n        uint256 index = settlements.length;\n        nonceSettlementIndex[nonce] = index;\n        walletSettlementIndices[originWallet].push(index);\n        walletSettlementIndices[targetWallet].push(index);\n        walletNonceSettlementIndex[originWallet][originNonce] = index;\n        walletNonceSettlementIndex[targetWallet][targetNonce] = index;\n\n        return settlements[index - 1];\n    }\n\n    function stageFees(address wallet, NahmiiTypesLib.OriginFigure[] fees,\n        Beneficiary protocolBeneficiary, uint256 nonce)\n    private\n    {\n        // For each origin figure...\n        for (uint256 i = 0; i < fees.length; i++) {\n            // Based on originId determine if this is protocol or partner fee, and if the latter define originId as destination in beneficiary\n            (Beneficiary beneficiary, address destination) =\n            (0 == fees[i].originId) ? (protocolBeneficiary, address(0)) : (partnerFund, address(fees[i].originId));\n\n            Total storage feeTotal = feeTotalsMap[wallet][address(beneficiary)][destination][fees[i].figure.currency.ct][fees[i].figure.currency.id];\n\n            // If wallet has previously settled fee of the concerned currency with higher driip nonce then don't settle again\n            if (feeTotal.nonce < nonce) {\n                feeTotal.nonce = nonce;\n\n                // Get the amount previously staged\n                int256 deltaAmount = fees[i].figure.amount - feeTotal.amount;\n\n                // Update the fee total amount\n                feeTotal.amount = fees[i].figure.amount;\n\n                // Transfer to beneficiary\n                clientFund.transferToBeneficiary(\n                    destination, beneficiary, deltaAmount, fees[i].figure.currency.ct, fees[i].figure.currency.id, \"\"\n                );\n\n                // Emit event\n                emit StageFeesEvent(\n                    wallet, deltaAmount, fees[i].figure.amount, fees[i].figure.currency.ct, fees[i].figure.currency.id\n                );\n            }\n        }\n    }\n}",
    "sourcePath": "/opt/buildagent/work/855e104608380c36/contracts/DriipSettlement.sol",
    "compiler": {
        "name": "solc",
        "version": "0.4.25+commit.59dbf8f1.Emscripten.clang"
    },
    "schemaVersion": "2.0.1",
    "updatedAt": "2019-01-31T11:28:29.522Z"
}