{
    "contractName": "DriipSettlementChallenge",
    "abi": [
        {
            "constant": true,
            "inputs": [
                {
                    "name": "",
                    "type": "uint256"
                }
            ],
            "name": "proposals",
            "outputs": [
                {
                    "name": "wallet",
                    "type": "address"
                },
                {
                    "name": "nonce",
                    "type": "uint256"
                },
                {
                    "name": "blockNumber",
                    "type": "uint256"
                },
                {
                    "name": "expirationTime",
                    "type": "uint256"
                },
                {
                    "name": "status",
                    "type": "uint8"
                },
                {
                    "components": [
                        {
                            "name": "ct",
                            "type": "address"
                        },
                        {
                            "name": "id",
                            "type": "uint256"
                        }
                    ],
                    "name": "currency",
                    "type": "tuple"
                },
                {
                    "name": "stageAmount",
                    "type": "int256"
                },
                {
                    "name": "targetBalanceAmount",
                    "type": "int256"
                },
                {
                    "name": "driipHash",
                    "type": "bytes32"
                },
                {
                    "name": "driipType",
                    "type": "uint8"
                },
                {
                    "name": "balanceReward",
                    "type": "bool"
                },
                {
                    "components": [
                        {
                            "name": "challenger",
                            "type": "address"
                        },
                        {
                            "name": "blockNumber",
                            "type": "uint256"
                        },
                        {
                            "name": "candidateHash",
                            "type": "bytes32"
                        },
                        {
                            "name": "candidateType",
                            "type": "uint8"
                        }
                    ],
                    "name": "disqualification",
                    "type": "tuple"
                }
            ],
            "payable": false,
            "stateMutability": "view",
            "type": "function"
        },
        {
            "constant": false,
            "inputs": [
                {
                    "name": "newValidator",
                    "type": "address"
                }
            ],
            "name": "setValidator",
            "outputs": [],
            "payable": false,
            "stateMutability": "nonpayable",
            "type": "function"
        },
        {
            "constant": true,
            "inputs": [
                {
                    "name": "",
                    "type": "uint256"
                }
            ],
            "name": "challengePaymentHashes",
            "outputs": [
                {
                    "name": "",
                    "type": "bytes32"
                }
            ],
            "payable": false,
            "stateMutability": "view",
            "type": "function"
        },
        {
            "constant": true,
            "inputs": [],
            "name": "walletLockerFrozen",
            "outputs": [
                {
                    "name": "",
                    "type": "bool"
                }
            ],
            "payable": false,
            "stateMutability": "view",
            "type": "function"
        },
        {
            "constant": false,
            "inputs": [],
            "name": "triggerSelfDestruction",
            "outputs": [],
            "payable": false,
            "stateMutability": "nonpayable",
            "type": "function"
        },
        {
            "constant": true,
            "inputs": [
                {
                    "name": "",
                    "type": "uint256"
                }
            ],
            "name": "challengeTradeHashes",
            "outputs": [
                {
                    "name": "",
                    "type": "bytes32"
                }
            ],
            "payable": false,
            "stateMutability": "view",
            "type": "function"
        },
        {
            "constant": true,
            "inputs": [],
            "name": "selfDestructionDisabled",
            "outputs": [
                {
                    "name": "",
                    "type": "bool"
                }
            ],
            "payable": false,
            "stateMutability": "view",
            "type": "function"
        },
        {
            "constant": true,
            "inputs": [],
            "name": "validator",
            "outputs": [
                {
                    "name": "",
                    "type": "address"
                }
            ],
            "payable": false,
            "stateMutability": "view",
            "type": "function"
        },
        {
            "constant": true,
            "inputs": [],
            "name": "destructor",
            "outputs": [
                {
                    "name": "",
                    "type": "address"
                }
            ],
            "payable": false,
            "stateMutability": "view",
            "type": "function"
        },
        {
            "constant": true,
            "inputs": [
                {
                    "name": "",
                    "type": "address"
                },
                {
                    "name": "",
                    "type": "uint256"
                }
            ],
            "name": "challengeTradeHashIndicesByWallet",
            "outputs": [
                {
                    "name": "",
                    "type": "uint256"
                }
            ],
            "payable": false,
            "stateMutability": "view",
            "type": "function"
        },
        {
            "constant": true,
            "inputs": [],
            "name": "operator",
            "outputs": [
                {
                    "name": "",
                    "type": "address"
                }
            ],
            "payable": false,
            "stateMutability": "view",
            "type": "function"
        },
        {
            "constant": false,
            "inputs": [],
            "name": "freezeWalletLocker",
            "outputs": [],
            "payable": false,
            "stateMutability": "nonpayable",
            "type": "function"
        },
        {
            "constant": false,
            "inputs": [
                {
                    "name": "newConfiguration",
                    "type": "address"
                }
            ],
            "name": "setConfiguration",
            "outputs": [],
            "payable": false,
            "stateMutability": "nonpayable",
            "type": "function"
        },
        {
            "constant": true,
            "inputs": [
                {
                    "name": "",
                    "type": "address"
                },
                {
                    "name": "",
                    "type": "address"
                },
                {
                    "name": "",
                    "type": "uint256"
                }
            ],
            "name": "proposalIndexByWalletCurrency",
            "outputs": [
                {
                    "name": "",
                    "type": "uint256"
                }
            ],
            "payable": false,
            "stateMutability": "view",
            "type": "function"
        },
        {
            "constant": true,
            "inputs": [],
            "name": "configuration",
            "outputs": [
                {
                    "name": "",
                    "type": "address"
                }
            ],
            "payable": false,
            "stateMutability": "view",
            "type": "function"
        },
        {
            "constant": false,
            "inputs": [],
            "name": "disableSelfDestruction",
            "outputs": [],
            "payable": false,
            "stateMutability": "nonpayable",
            "type": "function"
        },
        {
            "constant": true,
            "inputs": [
                {
                    "name": "",
                    "type": "uint256"
                }
            ],
            "name": "challengeWallets",
            "outputs": [
                {
                    "name": "",
                    "type": "address"
                }
            ],
            "payable": false,
            "stateMutability": "view",
            "type": "function"
        },
        {
            "constant": false,
            "inputs": [
                {
                    "name": "newWalletLocker",
                    "type": "address"
                }
            ],
            "name": "setWalletLocker",
            "outputs": [],
            "payable": false,
            "stateMutability": "nonpayable",
            "type": "function"
        },
        {
            "constant": true,
            "inputs": [
                {
                    "name": "",
                    "type": "address"
                },
                {
                    "name": "",
                    "type": "uint256"
                }
            ],
            "name": "proposalIndicesByWallet",
            "outputs": [
                {
                    "name": "",
                    "type": "uint256"
                }
            ],
            "payable": false,
            "stateMutability": "view",
            "type": "function"
        },
        {
            "constant": false,
            "inputs": [
                {
                    "name": "newDeployer",
                    "type": "address"
                }
            ],
            "name": "setDeployer",
            "outputs": [],
            "payable": false,
            "stateMutability": "nonpayable",
            "type": "function"
        },
        {
            "constant": false,
            "inputs": [
                {
                    "name": "newOperator",
                    "type": "address"
                }
            ],
            "name": "setOperator",
            "outputs": [],
            "payable": false,
            "stateMutability": "nonpayable",
            "type": "function"
        },
        {
            "constant": true,
            "inputs": [],
            "name": "driipSettlementDispute",
            "outputs": [
                {
                    "name": "",
                    "type": "address"
                }
            ],
            "payable": false,
            "stateMutability": "view",
            "type": "function"
        },
        {
            "constant": true,
            "inputs": [],
            "name": "deployer",
            "outputs": [
                {
                    "name": "",
                    "type": "address"
                }
            ],
            "payable": false,
            "stateMutability": "view",
            "type": "function"
        },
        {
            "constant": true,
            "inputs": [
                {
                    "name": "",
                    "type": "address"
                },
                {
                    "name": "",
                    "type": "uint256"
                }
            ],
            "name": "challengePaymentHashIndicesByWallet",
            "outputs": [
                {
                    "name": "",
                    "type": "uint256"
                }
            ],
            "payable": false,
            "stateMutability": "view",
            "type": "function"
        },
        {
            "constant": true,
            "inputs": [],
            "name": "walletLocker",
            "outputs": [
                {
                    "name": "",
                    "type": "address"
                }
            ],
            "payable": false,
            "stateMutability": "view",
            "type": "function"
        },
        {
            "inputs": [
                {
                    "name": "deployer",
                    "type": "address"
                }
            ],
            "payable": false,
            "stateMutability": "nonpayable",
            "type": "constructor"
        },
        {
            "anonymous": false,
            "inputs": [
                {
                    "indexed": false,
                    "name": "oldDriipSettlementDispute",
                    "type": "address"
                },
                {
                    "indexed": false,
                    "name": "newDriipSettlementDispute",
                    "type": "address"
                }
            ],
            "name": "SetDriipSettlementDisputeEvent",
            "type": "event"
        },
        {
            "anonymous": false,
            "inputs": [
                {
                    "indexed": false,
                    "name": "wallet",
                    "type": "address"
                },
                {
                    "indexed": false,
                    "name": "tradeHash",
                    "type": "bytes32"
                },
                {
                    "indexed": false,
                    "name": "intendedStageAmount",
                    "type": "int256"
                },
                {
                    "indexed": false,
                    "name": "conjugateStageAmount",
                    "type": "int256"
                }
            ],
            "name": "StartChallengeFromTradeEvent",
            "type": "event"
        },
        {
            "anonymous": false,
            "inputs": [
                {
                    "indexed": false,
                    "name": "proxy",
                    "type": "address"
                },
                {
                    "indexed": false,
                    "name": "wallet",
                    "type": "address"
                },
                {
                    "indexed": false,
                    "name": "tradeHash",
                    "type": "bytes32"
                },
                {
                    "indexed": false,
                    "name": "intendedStageAmount",
                    "type": "int256"
                },
                {
                    "indexed": false,
                    "name": "conjugateStageAmount",
                    "type": "int256"
                }
            ],
            "name": "StartChallengeFromTradeByProxyEvent",
            "type": "event"
        },
        {
            "anonymous": false,
            "inputs": [
                {
                    "indexed": false,
                    "name": "wallet",
                    "type": "address"
                },
                {
                    "indexed": false,
                    "name": "paymentHash",
                    "type": "bytes32"
                },
                {
                    "indexed": false,
                    "name": "stageAmount",
                    "type": "int256"
                }
            ],
            "name": "StartChallengeFromPaymentEvent",
            "type": "event"
        },
        {
            "anonymous": false,
            "inputs": [
                {
                    "indexed": false,
                    "name": "proxy",
                    "type": "address"
                },
                {
                    "indexed": false,
                    "name": "wallet",
                    "type": "address"
                },
                {
                    "indexed": false,
                    "name": "paymentHash",
                    "type": "bytes32"
                },
                {
                    "indexed": false,
                    "name": "stageAmount",
                    "type": "int256"
                }
            ],
            "name": "StartChallengeFromPaymentByProxyEvent",
            "type": "event"
        },
        {
            "anonymous": false,
            "inputs": [
                {
                    "indexed": false,
                    "name": "challengedWallet",
                    "type": "address"
                },
                {
                    "indexed": false,
                    "name": "currencyCt",
                    "type": "address"
                },
                {
                    "indexed": false,
                    "name": "currencyId",
                    "type": "uint256"
                },
                {
                    "indexed": false,
                    "name": "challengerWallet",
                    "type": "address"
                },
                {
                    "indexed": false,
                    "name": "candidateHash",
                    "type": "bytes32"
                },
                {
                    "indexed": false,
                    "name": "candidateType",
                    "type": "uint8"
                }
            ],
            "name": "DisqualifyProposalEvent",
            "type": "event"
        },
        {
            "anonymous": false,
            "inputs": [
                {
                    "indexed": false,
                    "name": "challengedWallet",
                    "type": "address"
                },
                {
                    "indexed": false,
                    "name": "currencyCt",
                    "type": "address"
                },
                {
                    "indexed": false,
                    "name": "currencyId",
                    "type": "uint256"
                },
                {
                    "indexed": false,
                    "name": "challengerWallet",
                    "type": "address"
                },
                {
                    "indexed": false,
                    "name": "candidateHash",
                    "type": "bytes32"
                },
                {
                    "indexed": false,
                    "name": "candidateType",
                    "type": "uint8"
                }
            ],
            "name": "QualifyProposalEvent",
            "type": "event"
        },
        {
            "anonymous": false,
            "inputs": [
                {
                    "indexed": false,
                    "name": "oldWalletLocker",
                    "type": "address"
                },
                {
                    "indexed": false,
                    "name": "newWalletLocker",
                    "type": "address"
                }
            ],
            "name": "SetWalletLockerEvent",
            "type": "event"
        },
        {
            "anonymous": false,
            "inputs": [],
            "name": "FreezeWalletLockerEvent",
            "type": "event"
        },
        {
            "anonymous": false,
            "inputs": [
                {
                    "indexed": false,
                    "name": "oldValidator",
                    "type": "address"
                },
                {
                    "indexed": false,
                    "name": "newValidator",
                    "type": "address"
                }
            ],
            "name": "SetValidatorEvent",
            "type": "event"
        },
        {
            "anonymous": false,
            "inputs": [
                {
                    "indexed": false,
                    "name": "oldConfiguration",
                    "type": "address"
                },
                {
                    "indexed": false,
                    "name": "newConfiguration",
                    "type": "address"
                }
            ],
            "name": "SetConfigurationEvent",
            "type": "event"
        },
        {
            "anonymous": false,
            "inputs": [
                {
                    "indexed": false,
                    "name": "oldDeployer",
                    "type": "address"
                },
                {
                    "indexed": false,
                    "name": "newDeployer",
                    "type": "address"
                }
            ],
            "name": "SetDeployerEvent",
            "type": "event"
        },
        {
            "anonymous": false,
            "inputs": [
                {
                    "indexed": false,
                    "name": "oldOperator",
                    "type": "address"
                },
                {
                    "indexed": false,
                    "name": "newOperator",
                    "type": "address"
                }
            ],
            "name": "SetOperatorEvent",
            "type": "event"
        },
        {
            "anonymous": false,
            "inputs": [
                {
                    "indexed": false,
                    "name": "wallet",
                    "type": "address"
                }
            ],
            "name": "SelfDestructionDisabledEvent",
            "type": "event"
        },
        {
            "anonymous": false,
            "inputs": [
                {
                    "indexed": false,
                    "name": "wallet",
                    "type": "address"
                }
            ],
            "name": "TriggerSelfDestructionEvent",
            "type": "event"
        },
        {
            "constant": false,
            "inputs": [
                {
                    "name": "newDriipSettlementDispute",
                    "type": "address"
                }
            ],
            "name": "setDriipSettlementDispute",
            "outputs": [],
            "payable": false,
            "stateMutability": "nonpayable",
            "type": "function"
        },
        {
            "constant": true,
            "inputs": [],
            "name": "challengeWalletsCount",
            "outputs": [
                {
                    "name": "",
                    "type": "uint256"
                }
            ],
            "payable": false,
            "stateMutability": "view",
            "type": "function"
        },
        {
            "constant": true,
            "inputs": [],
            "name": "proposalsCount",
            "outputs": [
                {
                    "name": "",
                    "type": "uint256"
                }
            ],
            "payable": false,
            "stateMutability": "view",
            "type": "function"
        },
        {
            "constant": true,
            "inputs": [],
            "name": "challengeTradeHashesCount",
            "outputs": [
                {
                    "name": "",
                    "type": "uint256"
                }
            ],
            "payable": false,
            "stateMutability": "view",
            "type": "function"
        },
        {
            "constant": true,
            "inputs": [],
            "name": "challengePaymentHashesCount",
            "outputs": [
                {
                    "name": "",
                    "type": "uint256"
                }
            ],
            "payable": false,
            "stateMutability": "view",
            "type": "function"
        },
        {
            "constant": true,
            "inputs": [
                {
                    "name": "wallet",
                    "type": "address"
                }
            ],
            "name": "walletChallengeTradeHashIndicesCount",
            "outputs": [
                {
                    "name": "",
                    "type": "uint256"
                }
            ],
            "payable": false,
            "stateMutability": "view",
            "type": "function"
        },
        {
            "constant": true,
            "inputs": [
                {
                    "name": "wallet",
                    "type": "address"
                }
            ],
            "name": "walletChallengePaymentHashIndicesCount",
            "outputs": [
                {
                    "name": "",
                    "type": "uint256"
                }
            ],
            "payable": false,
            "stateMutability": "view",
            "type": "function"
        },
        {
            "constant": false,
            "inputs": [
                {
                    "components": [
                        {
                            "name": "nonce",
                            "type": "uint256"
                        },
                        {
                            "name": "amount",
                            "type": "int256"
                        },
                        {
                            "components": [
                                {
                                    "components": [
                                        {
                                            "name": "ct",
                                            "type": "address"
                                        },
                                        {
                                            "name": "id",
                                            "type": "uint256"
                                        }
                                    ],
                                    "name": "intended",
                                    "type": "tuple"
                                },
                                {
                                    "components": [
                                        {
                                            "name": "ct",
                                            "type": "address"
                                        },
                                        {
                                            "name": "id",
                                            "type": "uint256"
                                        }
                                    ],
                                    "name": "conjugate",
                                    "type": "tuple"
                                }
                            ],
                            "name": "currencies",
                            "type": "tuple"
                        },
                        {
                            "name": "rate",
                            "type": "int256"
                        },
                        {
                            "components": [
                                {
                                    "name": "nonce",
                                    "type": "uint256"
                                },
                                {
                                    "name": "wallet",
                                    "type": "address"
                                },
                                {
                                    "name": "rollingVolume",
                                    "type": "uint256"
                                },
                                {
                                    "name": "liquidityRole",
                                    "type": "uint8"
                                },
                                {
                                    "components": [
                                        {
                                            "name": "amount",
                                            "type": "int256"
                                        },
                                        {
                                            "components": [
                                                {
                                                    "name": "wallet",
                                                    "type": "bytes32"
                                                },
                                                {
                                                    "name": "operator",
                                                    "type": "bytes32"
                                                }
                                            ],
                                            "name": "hashes",
                                            "type": "tuple"
                                        },
                                        {
                                            "components": [
                                                {
                                                    "name": "current",
                                                    "type": "int256"
                                                },
                                                {
                                                    "name": "previous",
                                                    "type": "int256"
                                                }
                                            ],
                                            "name": "residuals",
                                            "type": "tuple"
                                        }
                                    ],
                                    "name": "order",
                                    "type": "tuple"
                                },
                                {
                                    "components": [
                                        {
                                            "components": [
                                                {
                                                    "name": "current",
                                                    "type": "int256"
                                                },
                                                {
                                                    "name": "previous",
                                                    "type": "int256"
                                                }
                                            ],
                                            "name": "intended",
                                            "type": "tuple"
                                        },
                                        {
                                            "components": [
                                                {
                                                    "name": "current",
                                                    "type": "int256"
                                                },
                                                {
                                                    "name": "previous",
                                                    "type": "int256"
                                                }
                                            ],
                                            "name": "conjugate",
                                            "type": "tuple"
                                        }
                                    ],
                                    "name": "balances",
                                    "type": "tuple"
                                },
                                {
                                    "components": [
                                        {
                                            "components": [
                                                {
                                                    "name": "amount",
                                                    "type": "int256"
                                                },
                                                {
                                                    "components": [
                                                        {
                                                            "name": "ct",
                                                            "type": "address"
                                                        },
                                                        {
                                                            "name": "id",
                                                            "type": "uint256"
                                                        }
                                                    ],
                                                    "name": "currency",
                                                    "type": "tuple"
                                                }
                                            ],
                                            "name": "single",
                                            "type": "tuple"
                                        },
                                        {
                                            "components": [
                                                {
                                                    "name": "originId",
                                                    "type": "uint256"
                                                },
                                                {
                                                    "components": [
                                                        {
                                                            "name": "amount",
                                                            "type": "int256"
                                                        },
                                                        {
                                                            "components": [
                                                                {
                                                                    "name": "ct",
                                                                    "type": "address"
                                                                },
                                                                {
                                                                    "name": "id",
                                                                    "type": "uint256"
                                                                }
                                                            ],
                                                            "name": "currency",
                                                            "type": "tuple"
                                                        }
                                                    ],
                                                    "name": "figure",
                                                    "type": "tuple"
                                                }
                                            ],
                                            "name": "total",
                                            "type": "tuple[]"
                                        }
                                    ],
                                    "name": "fees",
                                    "type": "tuple"
                                }
                            ],
                            "name": "buyer",
                            "type": "tuple"
                        },
                        {
                            "components": [
                                {
                                    "name": "nonce",
                                    "type": "uint256"
                                },
                                {
                                    "name": "wallet",
                                    "type": "address"
                                },
                                {
                                    "name": "rollingVolume",
                                    "type": "uint256"
                                },
                                {
                                    "name": "liquidityRole",
                                    "type": "uint8"
                                },
                                {
                                    "components": [
                                        {
                                            "name": "amount",
                                            "type": "int256"
                                        },
                                        {
                                            "components": [
                                                {
                                                    "name": "wallet",
                                                    "type": "bytes32"
                                                },
                                                {
                                                    "name": "operator",
                                                    "type": "bytes32"
                                                }
                                            ],
                                            "name": "hashes",
                                            "type": "tuple"
                                        },
                                        {
                                            "components": [
                                                {
                                                    "name": "current",
                                                    "type": "int256"
                                                },
                                                {
                                                    "name": "previous",
                                                    "type": "int256"
                                                }
                                            ],
                                            "name": "residuals",
                                            "type": "tuple"
                                        }
                                    ],
                                    "name": "order",
                                    "type": "tuple"
                                },
                                {
                                    "components": [
                                        {
                                            "components": [
                                                {
                                                    "name": "current",
                                                    "type": "int256"
                                                },
                                                {
                                                    "name": "previous",
                                                    "type": "int256"
                                                }
                                            ],
                                            "name": "intended",
                                            "type": "tuple"
                                        },
                                        {
                                            "components": [
                                                {
                                                    "name": "current",
                                                    "type": "int256"
                                                },
                                                {
                                                    "name": "previous",
                                                    "type": "int256"
                                                }
                                            ],
                                            "name": "conjugate",
                                            "type": "tuple"
                                        }
                                    ],
                                    "name": "balances",
                                    "type": "tuple"
                                },
                                {
                                    "components": [
                                        {
                                            "components": [
                                                {
                                                    "name": "amount",
                                                    "type": "int256"
                                                },
                                                {
                                                    "components": [
                                                        {
                                                            "name": "ct",
                                                            "type": "address"
                                                        },
                                                        {
                                                            "name": "id",
                                                            "type": "uint256"
                                                        }
                                                    ],
                                                    "name": "currency",
                                                    "type": "tuple"
                                                }
                                            ],
                                            "name": "single",
                                            "type": "tuple"
                                        },
                                        {
                                            "components": [
                                                {
                                                    "name": "originId",
                                                    "type": "uint256"
                                                },
                                                {
                                                    "components": [
                                                        {
                                                            "name": "amount",
                                                            "type": "int256"
                                                        },
                                                        {
                                                            "components": [
                                                                {
                                                                    "name": "ct",
                                                                    "type": "address"
                                                                },
                                                                {
                                                                    "name": "id",
                                                                    "type": "uint256"
                                                                }
                                                            ],
                                                            "name": "currency",
                                                            "type": "tuple"
                                                        }
                                                    ],
                                                    "name": "figure",
                                                    "type": "tuple"
                                                }
                                            ],
                                            "name": "total",
                                            "type": "tuple[]"
                                        }
                                    ],
                                    "name": "fees",
                                    "type": "tuple"
                                }
                            ],
                            "name": "seller",
                            "type": "tuple"
                        },
                        {
                            "components": [
                                {
                                    "components": [
                                        {
                                            "name": "single",
                                            "type": "int256"
                                        },
                                        {
                                            "name": "total",
                                            "type": "int256"
                                        }
                                    ],
                                    "name": "intended",
                                    "type": "tuple"
                                },
                                {
                                    "components": [
                                        {
                                            "name": "single",
                                            "type": "int256"
                                        },
                                        {
                                            "name": "total",
                                            "type": "int256"
                                        }
                                    ],
                                    "name": "conjugate",
                                    "type": "tuple"
                                }
                            ],
                            "name": "transfers",
                            "type": "tuple"
                        },
                        {
                            "components": [
                                {
                                    "name": "hash",
                                    "type": "bytes32"
                                },
                                {
                                    "components": [
                                        {
                                            "name": "r",
                                            "type": "bytes32"
                                        },
                                        {
                                            "name": "s",
                                            "type": "bytes32"
                                        },
                                        {
                                            "name": "v",
                                            "type": "uint8"
                                        }
                                    ],
                                    "name": "signature",
                                    "type": "tuple"
                                }
                            ],
                            "name": "seal",
                            "type": "tuple"
                        },
                        {
                            "name": "blockNumber",
                            "type": "uint256"
                        },
                        {
                            "name": "operatorId",
                            "type": "uint256"
                        }
                    ],
                    "name": "trade",
                    "type": "tuple"
                },
                {
                    "name": "intendedStageAmount",
                    "type": "int256"
                },
                {
                    "name": "conjugateStageAmount",
                    "type": "int256"
                }
            ],
            "name": "startChallengeFromTrade",
            "outputs": [],
            "payable": false,
            "stateMutability": "nonpayable",
            "type": "function"
        },
        {
            "constant": false,
            "inputs": [
                {
                    "name": "wallet",
                    "type": "address"
                },
                {
                    "components": [
                        {
                            "name": "nonce",
                            "type": "uint256"
                        },
                        {
                            "name": "amount",
                            "type": "int256"
                        },
                        {
                            "components": [
                                {
                                    "components": [
                                        {
                                            "name": "ct",
                                            "type": "address"
                                        },
                                        {
                                            "name": "id",
                                            "type": "uint256"
                                        }
                                    ],
                                    "name": "intended",
                                    "type": "tuple"
                                },
                                {
                                    "components": [
                                        {
                                            "name": "ct",
                                            "type": "address"
                                        },
                                        {
                                            "name": "id",
                                            "type": "uint256"
                                        }
                                    ],
                                    "name": "conjugate",
                                    "type": "tuple"
                                }
                            ],
                            "name": "currencies",
                            "type": "tuple"
                        },
                        {
                            "name": "rate",
                            "type": "int256"
                        },
                        {
                            "components": [
                                {
                                    "name": "nonce",
                                    "type": "uint256"
                                },
                                {
                                    "name": "wallet",
                                    "type": "address"
                                },
                                {
                                    "name": "rollingVolume",
                                    "type": "uint256"
                                },
                                {
                                    "name": "liquidityRole",
                                    "type": "uint8"
                                },
                                {
                                    "components": [
                                        {
                                            "name": "amount",
                                            "type": "int256"
                                        },
                                        {
                                            "components": [
                                                {
                                                    "name": "wallet",
                                                    "type": "bytes32"
                                                },
                                                {
                                                    "name": "operator",
                                                    "type": "bytes32"
                                                }
                                            ],
                                            "name": "hashes",
                                            "type": "tuple"
                                        },
                                        {
                                            "components": [
                                                {
                                                    "name": "current",
                                                    "type": "int256"
                                                },
                                                {
                                                    "name": "previous",
                                                    "type": "int256"
                                                }
                                            ],
                                            "name": "residuals",
                                            "type": "tuple"
                                        }
                                    ],
                                    "name": "order",
                                    "type": "tuple"
                                },
                                {
                                    "components": [
                                        {
                                            "components": [
                                                {
                                                    "name": "current",
                                                    "type": "int256"
                                                },
                                                {
                                                    "name": "previous",
                                                    "type": "int256"
                                                }
                                            ],
                                            "name": "intended",
                                            "type": "tuple"
                                        },
                                        {
                                            "components": [
                                                {
                                                    "name": "current",
                                                    "type": "int256"
                                                },
                                                {
                                                    "name": "previous",
                                                    "type": "int256"
                                                }
                                            ],
                                            "name": "conjugate",
                                            "type": "tuple"
                                        }
                                    ],
                                    "name": "balances",
                                    "type": "tuple"
                                },
                                {
                                    "components": [
                                        {
                                            "components": [
                                                {
                                                    "name": "amount",
                                                    "type": "int256"
                                                },
                                                {
                                                    "components": [
                                                        {
                                                            "name": "ct",
                                                            "type": "address"
                                                        },
                                                        {
                                                            "name": "id",
                                                            "type": "uint256"
                                                        }
                                                    ],
                                                    "name": "currency",
                                                    "type": "tuple"
                                                }
                                            ],
                                            "name": "single",
                                            "type": "tuple"
                                        },
                                        {
                                            "components": [
                                                {
                                                    "name": "originId",
                                                    "type": "uint256"
                                                },
                                                {
                                                    "components": [
                                                        {
                                                            "name": "amount",
                                                            "type": "int256"
                                                        },
                                                        {
                                                            "components": [
                                                                {
                                                                    "name": "ct",
                                                                    "type": "address"
                                                                },
                                                                {
                                                                    "name": "id",
                                                                    "type": "uint256"
                                                                }
                                                            ],
                                                            "name": "currency",
                                                            "type": "tuple"
                                                        }
                                                    ],
                                                    "name": "figure",
                                                    "type": "tuple"
                                                }
                                            ],
                                            "name": "total",
                                            "type": "tuple[]"
                                        }
                                    ],
                                    "name": "fees",
                                    "type": "tuple"
                                }
                            ],
                            "name": "buyer",
                            "type": "tuple"
                        },
                        {
                            "components": [
                                {
                                    "name": "nonce",
                                    "type": "uint256"
                                },
                                {
                                    "name": "wallet",
                                    "type": "address"
                                },
                                {
                                    "name": "rollingVolume",
                                    "type": "uint256"
                                },
                                {
                                    "name": "liquidityRole",
                                    "type": "uint8"
                                },
                                {
                                    "components": [
                                        {
                                            "name": "amount",
                                            "type": "int256"
                                        },
                                        {
                                            "components": [
                                                {
                                                    "name": "wallet",
                                                    "type": "bytes32"
                                                },
                                                {
                                                    "name": "operator",
                                                    "type": "bytes32"
                                                }
                                            ],
                                            "name": "hashes",
                                            "type": "tuple"
                                        },
                                        {
                                            "components": [
                                                {
                                                    "name": "current",
                                                    "type": "int256"
                                                },
                                                {
                                                    "name": "previous",
                                                    "type": "int256"
                                                }
                                            ],
                                            "name": "residuals",
                                            "type": "tuple"
                                        }
                                    ],
                                    "name": "order",
                                    "type": "tuple"
                                },
                                {
                                    "components": [
                                        {
                                            "components": [
                                                {
                                                    "name": "current",
                                                    "type": "int256"
                                                },
                                                {
                                                    "name": "previous",
                                                    "type": "int256"
                                                }
                                            ],
                                            "name": "intended",
                                            "type": "tuple"
                                        },
                                        {
                                            "components": [
                                                {
                                                    "name": "current",
                                                    "type": "int256"
                                                },
                                                {
                                                    "name": "previous",
                                                    "type": "int256"
                                                }
                                            ],
                                            "name": "conjugate",
                                            "type": "tuple"
                                        }
                                    ],
                                    "name": "balances",
                                    "type": "tuple"
                                },
                                {
                                    "components": [
                                        {
                                            "components": [
                                                {
                                                    "name": "amount",
                                                    "type": "int256"
                                                },
                                                {
                                                    "components": [
                                                        {
                                                            "name": "ct",
                                                            "type": "address"
                                                        },
                                                        {
                                                            "name": "id",
                                                            "type": "uint256"
                                                        }
                                                    ],
                                                    "name": "currency",
                                                    "type": "tuple"
                                                }
                                            ],
                                            "name": "single",
                                            "type": "tuple"
                                        },
                                        {
                                            "components": [
                                                {
                                                    "name": "originId",
                                                    "type": "uint256"
                                                },
                                                {
                                                    "components": [
                                                        {
                                                            "name": "amount",
                                                            "type": "int256"
                                                        },
                                                        {
                                                            "components": [
                                                                {
                                                                    "name": "ct",
                                                                    "type": "address"
                                                                },
                                                                {
                                                                    "name": "id",
                                                                    "type": "uint256"
                                                                }
                                                            ],
                                                            "name": "currency",
                                                            "type": "tuple"
                                                        }
                                                    ],
                                                    "name": "figure",
                                                    "type": "tuple"
                                                }
                                            ],
                                            "name": "total",
                                            "type": "tuple[]"
                                        }
                                    ],
                                    "name": "fees",
                                    "type": "tuple"
                                }
                            ],
                            "name": "seller",
                            "type": "tuple"
                        },
                        {
                            "components": [
                                {
                                    "components": [
                                        {
                                            "name": "single",
                                            "type": "int256"
                                        },
                                        {
                                            "name": "total",
                                            "type": "int256"
                                        }
                                    ],
                                    "name": "intended",
                                    "type": "tuple"
                                },
                                {
                                    "components": [
                                        {
                                            "name": "single",
                                            "type": "int256"
                                        },
                                        {
                                            "name": "total",
                                            "type": "int256"
                                        }
                                    ],
                                    "name": "conjugate",
                                    "type": "tuple"
                                }
                            ],
                            "name": "transfers",
                            "type": "tuple"
                        },
                        {
                            "components": [
                                {
                                    "name": "hash",
                                    "type": "bytes32"
                                },
                                {
                                    "components": [
                                        {
                                            "name": "r",
                                            "type": "bytes32"
                                        },
                                        {
                                            "name": "s",
                                            "type": "bytes32"
                                        },
                                        {
                                            "name": "v",
                                            "type": "uint8"
                                        }
                                    ],
                                    "name": "signature",
                                    "type": "tuple"
                                }
                            ],
                            "name": "seal",
                            "type": "tuple"
                        },
                        {
                            "name": "blockNumber",
                            "type": "uint256"
                        },
                        {
                            "name": "operatorId",
                            "type": "uint256"
                        }
                    ],
                    "name": "trade",
                    "type": "tuple"
                },
                {
                    "name": "intendedStageAmount",
                    "type": "int256"
                },
                {
                    "name": "conjugateStageAmount",
                    "type": "int256"
                }
            ],
            "name": "startChallengeFromTradeByProxy",
            "outputs": [],
            "payable": false,
            "stateMutability": "nonpayable",
            "type": "function"
        },
        {
            "constant": false,
            "inputs": [
                {
                    "components": [
                        {
                            "name": "nonce",
                            "type": "uint256"
                        },
                        {
                            "name": "amount",
                            "type": "int256"
                        },
                        {
                            "components": [
                                {
                                    "name": "ct",
                                    "type": "address"
                                },
                                {
                                    "name": "id",
                                    "type": "uint256"
                                }
                            ],
                            "name": "currency",
                            "type": "tuple"
                        },
                        {
                            "components": [
                                {
                                    "name": "nonce",
                                    "type": "uint256"
                                },
                                {
                                    "name": "wallet",
                                    "type": "address"
                                },
                                {
                                    "components": [
                                        {
                                            "name": "current",
                                            "type": "int256"
                                        },
                                        {
                                            "name": "previous",
                                            "type": "int256"
                                        }
                                    ],
                                    "name": "balances",
                                    "type": "tuple"
                                },
                                {
                                    "components": [
                                        {
                                            "components": [
                                                {
                                                    "name": "amount",
                                                    "type": "int256"
                                                },
                                                {
                                                    "components": [
                                                        {
                                                            "name": "ct",
                                                            "type": "address"
                                                        },
                                                        {
                                                            "name": "id",
                                                            "type": "uint256"
                                                        }
                                                    ],
                                                    "name": "currency",
                                                    "type": "tuple"
                                                }
                                            ],
                                            "name": "single",
                                            "type": "tuple"
                                        },
                                        {
                                            "components": [
                                                {
                                                    "name": "originId",
                                                    "type": "uint256"
                                                },
                                                {
                                                    "components": [
                                                        {
                                                            "name": "amount",
                                                            "type": "int256"
                                                        },
                                                        {
                                                            "components": [
                                                                {
                                                                    "name": "ct",
                                                                    "type": "address"
                                                                },
                                                                {
                                                                    "name": "id",
                                                                    "type": "uint256"
                                                                }
                                                            ],
                                                            "name": "currency",
                                                            "type": "tuple"
                                                        }
                                                    ],
                                                    "name": "figure",
                                                    "type": "tuple"
                                                }
                                            ],
                                            "name": "total",
                                            "type": "tuple[]"
                                        }
                                    ],
                                    "name": "fees",
                                    "type": "tuple"
                                }
                            ],
                            "name": "sender",
                            "type": "tuple"
                        },
                        {
                            "components": [
                                {
                                    "name": "nonce",
                                    "type": "uint256"
                                },
                                {
                                    "name": "wallet",
                                    "type": "address"
                                },
                                {
                                    "components": [
                                        {
                                            "name": "current",
                                            "type": "int256"
                                        },
                                        {
                                            "name": "previous",
                                            "type": "int256"
                                        }
                                    ],
                                    "name": "balances",
                                    "type": "tuple"
                                },
                                {
                                    "components": [
                                        {
                                            "components": [
                                                {
                                                    "name": "originId",
                                                    "type": "uint256"
                                                },
                                                {
                                                    "components": [
                                                        {
                                                            "name": "amount",
                                                            "type": "int256"
                                                        },
                                                        {
                                                            "components": [
                                                                {
                                                                    "name": "ct",
                                                                    "type": "address"
                                                                },
                                                                {
                                                                    "name": "id",
                                                                    "type": "uint256"
                                                                }
                                                            ],
                                                            "name": "currency",
                                                            "type": "tuple"
                                                        }
                                                    ],
                                                    "name": "figure",
                                                    "type": "tuple"
                                                }
                                            ],
                                            "name": "total",
                                            "type": "tuple[]"
                                        }
                                    ],
                                    "name": "fees",
                                    "type": "tuple"
                                }
                            ],
                            "name": "recipient",
                            "type": "tuple"
                        },
                        {
                            "components": [
                                {
                                    "name": "single",
                                    "type": "int256"
                                },
                                {
                                    "name": "total",
                                    "type": "int256"
                                }
                            ],
                            "name": "transfers",
                            "type": "tuple"
                        },
                        {
                            "components": [
                                {
                                    "components": [
                                        {
                                            "name": "hash",
                                            "type": "bytes32"
                                        },
                                        {
                                            "components": [
                                                {
                                                    "name": "r",
                                                    "type": "bytes32"
                                                },
                                                {
                                                    "name": "s",
                                                    "type": "bytes32"
                                                },
                                                {
                                                    "name": "v",
                                                    "type": "uint8"
                                                }
                                            ],
                                            "name": "signature",
                                            "type": "tuple"
                                        }
                                    ],
                                    "name": "wallet",
                                    "type": "tuple"
                                },
                                {
                                    "components": [
                                        {
                                            "name": "hash",
                                            "type": "bytes32"
                                        },
                                        {
                                            "components": [
                                                {
                                                    "name": "r",
                                                    "type": "bytes32"
                                                },
                                                {
                                                    "name": "s",
                                                    "type": "bytes32"
                                                },
                                                {
                                                    "name": "v",
                                                    "type": "uint8"
                                                }
                                            ],
                                            "name": "signature",
                                            "type": "tuple"
                                        }
                                    ],
                                    "name": "operator",
                                    "type": "tuple"
                                }
                            ],
                            "name": "seals",
                            "type": "tuple"
                        },
                        {
                            "name": "blockNumber",
                            "type": "uint256"
                        },
                        {
                            "name": "operatorId",
                            "type": "uint256"
                        }
                    ],
                    "name": "payment",
                    "type": "tuple"
                },
                {
                    "name": "stageAmount",
                    "type": "int256"
                }
            ],
            "name": "startChallengeFromPayment",
            "outputs": [],
            "payable": false,
            "stateMutability": "nonpayable",
            "type": "function"
        },
        {
            "constant": false,
            "inputs": [
                {
                    "name": "wallet",
                    "type": "address"
                },
                {
                    "components": [
                        {
                            "name": "nonce",
                            "type": "uint256"
                        },
                        {
                            "name": "amount",
                            "type": "int256"
                        },
                        {
                            "components": [
                                {
                                    "name": "ct",
                                    "type": "address"
                                },
                                {
                                    "name": "id",
                                    "type": "uint256"
                                }
                            ],
                            "name": "currency",
                            "type": "tuple"
                        },
                        {
                            "components": [
                                {
                                    "name": "nonce",
                                    "type": "uint256"
                                },
                                {
                                    "name": "wallet",
                                    "type": "address"
                                },
                                {
                                    "components": [
                                        {
                                            "name": "current",
                                            "type": "int256"
                                        },
                                        {
                                            "name": "previous",
                                            "type": "int256"
                                        }
                                    ],
                                    "name": "balances",
                                    "type": "tuple"
                                },
                                {
                                    "components": [
                                        {
                                            "components": [
                                                {
                                                    "name": "amount",
                                                    "type": "int256"
                                                },
                                                {
                                                    "components": [
                                                        {
                                                            "name": "ct",
                                                            "type": "address"
                                                        },
                                                        {
                                                            "name": "id",
                                                            "type": "uint256"
                                                        }
                                                    ],
                                                    "name": "currency",
                                                    "type": "tuple"
                                                }
                                            ],
                                            "name": "single",
                                            "type": "tuple"
                                        },
                                        {
                                            "components": [
                                                {
                                                    "name": "originId",
                                                    "type": "uint256"
                                                },
                                                {
                                                    "components": [
                                                        {
                                                            "name": "amount",
                                                            "type": "int256"
                                                        },
                                                        {
                                                            "components": [
                                                                {
                                                                    "name": "ct",
                                                                    "type": "address"
                                                                },
                                                                {
                                                                    "name": "id",
                                                                    "type": "uint256"
                                                                }
                                                            ],
                                                            "name": "currency",
                                                            "type": "tuple"
                                                        }
                                                    ],
                                                    "name": "figure",
                                                    "type": "tuple"
                                                }
                                            ],
                                            "name": "total",
                                            "type": "tuple[]"
                                        }
                                    ],
                                    "name": "fees",
                                    "type": "tuple"
                                }
                            ],
                            "name": "sender",
                            "type": "tuple"
                        },
                        {
                            "components": [
                                {
                                    "name": "nonce",
                                    "type": "uint256"
                                },
                                {
                                    "name": "wallet",
                                    "type": "address"
                                },
                                {
                                    "components": [
                                        {
                                            "name": "current",
                                            "type": "int256"
                                        },
                                        {
                                            "name": "previous",
                                            "type": "int256"
                                        }
                                    ],
                                    "name": "balances",
                                    "type": "tuple"
                                },
                                {
                                    "components": [
                                        {
                                            "components": [
                                                {
                                                    "name": "originId",
                                                    "type": "uint256"
                                                },
                                                {
                                                    "components": [
                                                        {
                                                            "name": "amount",
                                                            "type": "int256"
                                                        },
                                                        {
                                                            "components": [
                                                                {
                                                                    "name": "ct",
                                                                    "type": "address"
                                                                },
                                                                {
                                                                    "name": "id",
                                                                    "type": "uint256"
                                                                }
                                                            ],
                                                            "name": "currency",
                                                            "type": "tuple"
                                                        }
                                                    ],
                                                    "name": "figure",
                                                    "type": "tuple"
                                                }
                                            ],
                                            "name": "total",
                                            "type": "tuple[]"
                                        }
                                    ],
                                    "name": "fees",
                                    "type": "tuple"
                                }
                            ],
                            "name": "recipient",
                            "type": "tuple"
                        },
                        {
                            "components": [
                                {
                                    "name": "single",
                                    "type": "int256"
                                },
                                {
                                    "name": "total",
                                    "type": "int256"
                                }
                            ],
                            "name": "transfers",
                            "type": "tuple"
                        },
                        {
                            "components": [
                                {
                                    "components": [
                                        {
                                            "name": "hash",
                                            "type": "bytes32"
                                        },
                                        {
                                            "components": [
                                                {
                                                    "name": "r",
                                                    "type": "bytes32"
                                                },
                                                {
                                                    "name": "s",
                                                    "type": "bytes32"
                                                },
                                                {
                                                    "name": "v",
                                                    "type": "uint8"
                                                }
                                            ],
                                            "name": "signature",
                                            "type": "tuple"
                                        }
                                    ],
                                    "name": "wallet",
                                    "type": "tuple"
                                },
                                {
                                    "components": [
                                        {
                                            "name": "hash",
                                            "type": "bytes32"
                                        },
                                        {
                                            "components": [
                                                {
                                                    "name": "r",
                                                    "type": "bytes32"
                                                },
                                                {
                                                    "name": "s",
                                                    "type": "bytes32"
                                                },
                                                {
                                                    "name": "v",
                                                    "type": "uint8"
                                                }
                                            ],
                                            "name": "signature",
                                            "type": "tuple"
                                        }
                                    ],
                                    "name": "operator",
                                    "type": "tuple"
                                }
                            ],
                            "name": "seals",
                            "type": "tuple"
                        },
                        {
                            "name": "blockNumber",
                            "type": "uint256"
                        },
                        {
                            "name": "operatorId",
                            "type": "uint256"
                        }
                    ],
                    "name": "payment",
                    "type": "tuple"
                },
                {
                    "name": "stageAmount",
                    "type": "int256"
                }
            ],
            "name": "startChallengeFromPaymentByProxy",
            "outputs": [],
            "payable": false,
            "stateMutability": "nonpayable",
            "type": "function"
        },
        {
            "constant": true,
            "inputs": [
                {
                    "name": "wallet",
                    "type": "address"
                },
                {
                    "name": "currencyCt",
                    "type": "address"
                },
                {
                    "name": "currencyId",
                    "type": "uint256"
                }
            ],
            "name": "hasProposalExpired",
            "outputs": [
                {
                    "name": "",
                    "type": "bool"
                }
            ],
            "payable": false,
            "stateMutability": "view",
            "type": "function"
        },
        {
            "constant": true,
            "inputs": [
                {
                    "name": "wallet",
                    "type": "address"
                },
                {
                    "name": "currencyCt",
                    "type": "address"
                },
                {
                    "name": "currencyId",
                    "type": "uint256"
                }
            ],
            "name": "proposalNonce",
            "outputs": [
                {
                    "name": "",
                    "type": "uint256"
                }
            ],
            "payable": false,
            "stateMutability": "view",
            "type": "function"
        },
        {
            "constant": true,
            "inputs": [
                {
                    "name": "wallet",
                    "type": "address"
                },
                {
                    "name": "currencyCt",
                    "type": "address"
                },
                {
                    "name": "currencyId",
                    "type": "uint256"
                }
            ],
            "name": "proposalBlockNumber",
            "outputs": [
                {
                    "name": "",
                    "type": "uint256"
                }
            ],
            "payable": false,
            "stateMutability": "view",
            "type": "function"
        },
        {
            "constant": true,
            "inputs": [
                {
                    "name": "wallet",
                    "type": "address"
                },
                {
                    "name": "currencyCt",
                    "type": "address"
                },
                {
                    "name": "currencyId",
                    "type": "uint256"
                }
            ],
            "name": "proposalExpirationTime",
            "outputs": [
                {
                    "name": "",
                    "type": "uint256"
                }
            ],
            "payable": false,
            "stateMutability": "view",
            "type": "function"
        },
        {
            "constant": true,
            "inputs": [
                {
                    "name": "wallet",
                    "type": "address"
                },
                {
                    "name": "currencyCt",
                    "type": "address"
                },
                {
                    "name": "currencyId",
                    "type": "uint256"
                }
            ],
            "name": "proposalStatus",
            "outputs": [
                {
                    "name": "",
                    "type": "uint8"
                }
            ],
            "payable": false,
            "stateMutability": "view",
            "type": "function"
        },
        {
            "constant": true,
            "inputs": [
                {
                    "name": "wallet",
                    "type": "address"
                },
                {
                    "name": "currencyCt",
                    "type": "address"
                },
                {
                    "name": "currencyId",
                    "type": "uint256"
                }
            ],
            "name": "proposalStageAmount",
            "outputs": [
                {
                    "name": "",
                    "type": "int256"
                }
            ],
            "payable": false,
            "stateMutability": "view",
            "type": "function"
        },
        {
            "constant": true,
            "inputs": [
                {
                    "name": "wallet",
                    "type": "address"
                },
                {
                    "name": "currencyCt",
                    "type": "address"
                },
                {
                    "name": "currencyId",
                    "type": "uint256"
                }
            ],
            "name": "proposalTargetBalanceAmount",
            "outputs": [
                {
                    "name": "",
                    "type": "int256"
                }
            ],
            "payable": false,
            "stateMutability": "view",
            "type": "function"
        },
        {
            "constant": true,
            "inputs": [
                {
                    "name": "wallet",
                    "type": "address"
                },
                {
                    "name": "currencyCt",
                    "type": "address"
                },
                {
                    "name": "currencyId",
                    "type": "uint256"
                }
            ],
            "name": "proposalDriipHash",
            "outputs": [
                {
                    "name": "",
                    "type": "bytes32"
                }
            ],
            "payable": false,
            "stateMutability": "view",
            "type": "function"
        },
        {
            "constant": true,
            "inputs": [
                {
                    "name": "wallet",
                    "type": "address"
                },
                {
                    "name": "currencyCt",
                    "type": "address"
                },
                {
                    "name": "currencyId",
                    "type": "uint256"
                }
            ],
            "name": "proposalDriipType",
            "outputs": [
                {
                    "name": "",
                    "type": "uint8"
                }
            ],
            "payable": false,
            "stateMutability": "view",
            "type": "function"
        },
        {
            "constant": true,
            "inputs": [
                {
                    "name": "wallet",
                    "type": "address"
                },
                {
                    "name": "currencyCt",
                    "type": "address"
                },
                {
                    "name": "currencyId",
                    "type": "uint256"
                }
            ],
            "name": "proposalBalanceReward",
            "outputs": [
                {
                    "name": "",
                    "type": "bool"
                }
            ],
            "payable": false,
            "stateMutability": "view",
            "type": "function"
        },
        {
            "constant": true,
            "inputs": [
                {
                    "name": "wallet",
                    "type": "address"
                },
                {
                    "name": "currencyCt",
                    "type": "address"
                },
                {
                    "name": "currencyId",
                    "type": "uint256"
                }
            ],
            "name": "proposalDisqualificationChallenger",
            "outputs": [
                {
                    "name": "",
                    "type": "address"
                }
            ],
            "payable": false,
            "stateMutability": "view",
            "type": "function"
        },
        {
            "constant": true,
            "inputs": [
                {
                    "name": "wallet",
                    "type": "address"
                },
                {
                    "name": "currencyCt",
                    "type": "address"
                },
                {
                    "name": "currencyId",
                    "type": "uint256"
                }
            ],
            "name": "proposalDisqualificationBlockNumber",
            "outputs": [
                {
                    "name": "",
                    "type": "uint256"
                }
            ],
            "payable": false,
            "stateMutability": "view",
            "type": "function"
        },
        {
            "constant": true,
            "inputs": [
                {
                    "name": "wallet",
                    "type": "address"
                },
                {
                    "name": "currencyCt",
                    "type": "address"
                },
                {
                    "name": "currencyId",
                    "type": "uint256"
                }
            ],
            "name": "proposalDisqualificationCandidateType",
            "outputs": [
                {
                    "name": "",
                    "type": "uint8"
                }
            ],
            "payable": false,
            "stateMutability": "view",
            "type": "function"
        },
        {
            "constant": true,
            "inputs": [
                {
                    "name": "wallet",
                    "type": "address"
                },
                {
                    "name": "currencyCt",
                    "type": "address"
                },
                {
                    "name": "currencyId",
                    "type": "uint256"
                }
            ],
            "name": "proposalDisqualificationCandidateHash",
            "outputs": [
                {
                    "name": "",
                    "type": "bytes32"
                }
            ],
            "payable": false,
            "stateMutability": "view",
            "type": "function"
        },
        {
            "constant": false,
            "inputs": [
                {
                    "name": "wallet",
                    "type": "address"
                },
                {
                    "name": "currencyCt",
                    "type": "address"
                },
                {
                    "name": "currencyId",
                    "type": "uint256"
                },
                {
                    "name": "expirationTime",
                    "type": "uint256"
                }
            ],
            "name": "setProposalExpirationTime",
            "outputs": [],
            "payable": false,
            "stateMutability": "nonpayable",
            "type": "function"
        },
        {
            "constant": false,
            "inputs": [
                {
                    "name": "wallet",
                    "type": "address"
                },
                {
                    "name": "currencyCt",
                    "type": "address"
                },
                {
                    "name": "currencyId",
                    "type": "uint256"
                },
                {
                    "name": "status",
                    "type": "uint8"
                }
            ],
            "name": "setProposalStatus",
            "outputs": [],
            "payable": false,
            "stateMutability": "nonpayable",
            "type": "function"
        },
        {
            "constant": false,
            "inputs": [
                {
                    "name": "challengedWallet",
                    "type": "address"
                },
                {
                    "name": "currencyCt",
                    "type": "address"
                },
                {
                    "name": "currencyId",
                    "type": "uint256"
                },
                {
                    "name": "challengerWallet",
                    "type": "address"
                },
                {
                    "name": "blockNumber",
                    "type": "uint256"
                },
                {
                    "name": "candidateHash",
                    "type": "bytes32"
                },
                {
                    "name": "candidateType",
                    "type": "uint8"
                }
            ],
            "name": "disqualifyProposal",
            "outputs": [],
            "payable": false,
            "stateMutability": "nonpayable",
            "type": "function"
        },
        {
            "constant": false,
            "inputs": [
                {
                    "name": "wallet",
                    "type": "address"
                },
                {
                    "name": "currencyCt",
                    "type": "address"
                },
                {
                    "name": "currencyId",
                    "type": "uint256"
                }
            ],
            "name": "qualifyProposal",
            "outputs": [],
            "payable": false,
            "stateMutability": "nonpayable",
            "type": "function"
        },
        {
            "constant": false,
            "inputs": [
                {
                    "components": [
                        {
                            "name": "nonce",
                            "type": "uint256"
                        },
                        {
                            "name": "wallet",
                            "type": "address"
                        },
                        {
                            "components": [
                                {
                                    "name": "intention",
                                    "type": "uint8"
                                },
                                {
                                    "name": "amount",
                                    "type": "int256"
                                },
                                {
                                    "components": [
                                        {
                                            "components": [
                                                {
                                                    "name": "ct",
                                                    "type": "address"
                                                },
                                                {
                                                    "name": "id",
                                                    "type": "uint256"
                                                }
                                            ],
                                            "name": "intended",
                                            "type": "tuple"
                                        },
                                        {
                                            "components": [
                                                {
                                                    "name": "ct",
                                                    "type": "address"
                                                },
                                                {
                                                    "name": "id",
                                                    "type": "uint256"
                                                }
                                            ],
                                            "name": "conjugate",
                                            "type": "tuple"
                                        }
                                    ],
                                    "name": "currencies",
                                    "type": "tuple"
                                },
                                {
                                    "name": "rate",
                                    "type": "int256"
                                },
                                {
                                    "components": [
                                        {
                                            "name": "current",
                                            "type": "int256"
                                        },
                                        {
                                            "name": "previous",
                                            "type": "int256"
                                        }
                                    ],
                                    "name": "residuals",
                                    "type": "tuple"
                                }
                            ],
                            "name": "placement",
                            "type": "tuple"
                        },
                        {
                            "components": [
                                {
                                    "components": [
                                        {
                                            "name": "hash",
                                            "type": "bytes32"
                                        },
                                        {
                                            "components": [
                                                {
                                                    "name": "r",
                                                    "type": "bytes32"
                                                },
                                                {
                                                    "name": "s",
                                                    "type": "bytes32"
                                                },
                                                {
                                                    "name": "v",
                                                    "type": "uint8"
                                                }
                                            ],
                                            "name": "signature",
                                            "type": "tuple"
                                        }
                                    ],
                                    "name": "wallet",
                                    "type": "tuple"
                                },
                                {
                                    "components": [
                                        {
                                            "name": "hash",
                                            "type": "bytes32"
                                        },
                                        {
                                            "components": [
                                                {
                                                    "name": "r",
                                                    "type": "bytes32"
                                                },
                                                {
                                                    "name": "s",
                                                    "type": "bytes32"
                                                },
                                                {
                                                    "name": "v",
                                                    "type": "uint8"
                                                }
                                            ],
                                            "name": "signature",
                                            "type": "tuple"
                                        }
                                    ],
                                    "name": "operator",
                                    "type": "tuple"
                                }
                            ],
                            "name": "seals",
                            "type": "tuple"
                        },
                        {
                            "name": "blockNumber",
                            "type": "uint256"
                        },
                        {
                            "name": "operatorId",
                            "type": "uint256"
                        }
                    ],
                    "name": "order",
                    "type": "tuple"
                }
            ],
            "name": "challengeByOrder",
            "outputs": [],
            "payable": false,
            "stateMutability": "nonpayable",
            "type": "function"
        },
        {
            "constant": false,
            "inputs": [
                {
                    "components": [
                        {
                            "name": "nonce",
                            "type": "uint256"
                        },
                        {
                            "name": "wallet",
                            "type": "address"
                        },
                        {
                            "components": [
                                {
                                    "name": "intention",
                                    "type": "uint8"
                                },
                                {
                                    "name": "amount",
                                    "type": "int256"
                                },
                                {
                                    "components": [
                                        {
                                            "components": [
                                                {
                                                    "name": "ct",
                                                    "type": "address"
                                                },
                                                {
                                                    "name": "id",
                                                    "type": "uint256"
                                                }
                                            ],
                                            "name": "intended",
                                            "type": "tuple"
                                        },
                                        {
                                            "components": [
                                                {
                                                    "name": "ct",
                                                    "type": "address"
                                                },
                                                {
                                                    "name": "id",
                                                    "type": "uint256"
                                                }
                                            ],
                                            "name": "conjugate",
                                            "type": "tuple"
                                        }
                                    ],
                                    "name": "currencies",
                                    "type": "tuple"
                                },
                                {
                                    "name": "rate",
                                    "type": "int256"
                                },
                                {
                                    "components": [
                                        {
                                            "name": "current",
                                            "type": "int256"
                                        },
                                        {
                                            "name": "previous",
                                            "type": "int256"
                                        }
                                    ],
                                    "name": "residuals",
                                    "type": "tuple"
                                }
                            ],
                            "name": "placement",
                            "type": "tuple"
                        },
                        {
                            "components": [
                                {
                                    "components": [
                                        {
                                            "name": "hash",
                                            "type": "bytes32"
                                        },
                                        {
                                            "components": [
                                                {
                                                    "name": "r",
                                                    "type": "bytes32"
                                                },
                                                {
                                                    "name": "s",
                                                    "type": "bytes32"
                                                },
                                                {
                                                    "name": "v",
                                                    "type": "uint8"
                                                }
                                            ],
                                            "name": "signature",
                                            "type": "tuple"
                                        }
                                    ],
                                    "name": "wallet",
                                    "type": "tuple"
                                },
                                {
                                    "components": [
                                        {
                                            "name": "hash",
                                            "type": "bytes32"
                                        },
                                        {
                                            "components": [
                                                {
                                                    "name": "r",
                                                    "type": "bytes32"
                                                },
                                                {
                                                    "name": "s",
                                                    "type": "bytes32"
                                                },
                                                {
                                                    "name": "v",
                                                    "type": "uint8"
                                                }
                                            ],
                                            "name": "signature",
                                            "type": "tuple"
                                        }
                                    ],
                                    "name": "operator",
                                    "type": "tuple"
                                }
                            ],
                            "name": "seals",
                            "type": "tuple"
                        },
                        {
                            "name": "blockNumber",
                            "type": "uint256"
                        },
                        {
                            "name": "operatorId",
                            "type": "uint256"
                        }
                    ],
                    "name": "order",
                    "type": "tuple"
                },
                {
                    "components": [
                        {
                            "name": "nonce",
                            "type": "uint256"
                        },
                        {
                            "name": "amount",
                            "type": "int256"
                        },
                        {
                            "components": [
                                {
                                    "components": [
                                        {
                                            "name": "ct",
                                            "type": "address"
                                        },
                                        {
                                            "name": "id",
                                            "type": "uint256"
                                        }
                                    ],
                                    "name": "intended",
                                    "type": "tuple"
                                },
                                {
                                    "components": [
                                        {
                                            "name": "ct",
                                            "type": "address"
                                        },
                                        {
                                            "name": "id",
                                            "type": "uint256"
                                        }
                                    ],
                                    "name": "conjugate",
                                    "type": "tuple"
                                }
                            ],
                            "name": "currencies",
                            "type": "tuple"
                        },
                        {
                            "name": "rate",
                            "type": "int256"
                        },
                        {
                            "components": [
                                {
                                    "name": "nonce",
                                    "type": "uint256"
                                },
                                {
                                    "name": "wallet",
                                    "type": "address"
                                },
                                {
                                    "name": "rollingVolume",
                                    "type": "uint256"
                                },
                                {
                                    "name": "liquidityRole",
                                    "type": "uint8"
                                },
                                {
                                    "components": [
                                        {
                                            "name": "amount",
                                            "type": "int256"
                                        },
                                        {
                                            "components": [
                                                {
                                                    "name": "wallet",
                                                    "type": "bytes32"
                                                },
                                                {
                                                    "name": "operator",
                                                    "type": "bytes32"
                                                }
                                            ],
                                            "name": "hashes",
                                            "type": "tuple"
                                        },
                                        {
                                            "components": [
                                                {
                                                    "name": "current",
                                                    "type": "int256"
                                                },
                                                {
                                                    "name": "previous",
                                                    "type": "int256"
                                                }
                                            ],
                                            "name": "residuals",
                                            "type": "tuple"
                                        }
                                    ],
                                    "name": "order",
                                    "type": "tuple"
                                },
                                {
                                    "components": [
                                        {
                                            "components": [
                                                {
                                                    "name": "current",
                                                    "type": "int256"
                                                },
                                                {
                                                    "name": "previous",
                                                    "type": "int256"
                                                }
                                            ],
                                            "name": "intended",
                                            "type": "tuple"
                                        },
                                        {
                                            "components": [
                                                {
                                                    "name": "current",
                                                    "type": "int256"
                                                },
                                                {
                                                    "name": "previous",
                                                    "type": "int256"
                                                }
                                            ],
                                            "name": "conjugate",
                                            "type": "tuple"
                                        }
                                    ],
                                    "name": "balances",
                                    "type": "tuple"
                                },
                                {
                                    "components": [
                                        {
                                            "components": [
                                                {
                                                    "name": "amount",
                                                    "type": "int256"
                                                },
                                                {
                                                    "components": [
                                                        {
                                                            "name": "ct",
                                                            "type": "address"
                                                        },
                                                        {
                                                            "name": "id",
                                                            "type": "uint256"
                                                        }
                                                    ],
                                                    "name": "currency",
                                                    "type": "tuple"
                                                }
                                            ],
                                            "name": "single",
                                            "type": "tuple"
                                        },
                                        {
                                            "components": [
                                                {
                                                    "name": "originId",
                                                    "type": "uint256"
                                                },
                                                {
                                                    "components": [
                                                        {
                                                            "name": "amount",
                                                            "type": "int256"
                                                        },
                                                        {
                                                            "components": [
                                                                {
                                                                    "name": "ct",
                                                                    "type": "address"
                                                                },
                                                                {
                                                                    "name": "id",
                                                                    "type": "uint256"
                                                                }
                                                            ],
                                                            "name": "currency",
                                                            "type": "tuple"
                                                        }
                                                    ],
                                                    "name": "figure",
                                                    "type": "tuple"
                                                }
                                            ],
                                            "name": "total",
                                            "type": "tuple[]"
                                        }
                                    ],
                                    "name": "fees",
                                    "type": "tuple"
                                }
                            ],
                            "name": "buyer",
                            "type": "tuple"
                        },
                        {
                            "components": [
                                {
                                    "name": "nonce",
                                    "type": "uint256"
                                },
                                {
                                    "name": "wallet",
                                    "type": "address"
                                },
                                {
                                    "name": "rollingVolume",
                                    "type": "uint256"
                                },
                                {
                                    "name": "liquidityRole",
                                    "type": "uint8"
                                },
                                {
                                    "components": [
                                        {
                                            "name": "amount",
                                            "type": "int256"
                                        },
                                        {
                                            "components": [
                                                {
                                                    "name": "wallet",
                                                    "type": "bytes32"
                                                },
                                                {
                                                    "name": "operator",
                                                    "type": "bytes32"
                                                }
                                            ],
                                            "name": "hashes",
                                            "type": "tuple"
                                        },
                                        {
                                            "components": [
                                                {
                                                    "name": "current",
                                                    "type": "int256"
                                                },
                                                {
                                                    "name": "previous",
                                                    "type": "int256"
                                                }
                                            ],
                                            "name": "residuals",
                                            "type": "tuple"
                                        }
                                    ],
                                    "name": "order",
                                    "type": "tuple"
                                },
                                {
                                    "components": [
                                        {
                                            "components": [
                                                {
                                                    "name": "current",
                                                    "type": "int256"
                                                },
                                                {
                                                    "name": "previous",
                                                    "type": "int256"
                                                }
                                            ],
                                            "name": "intended",
                                            "type": "tuple"
                                        },
                                        {
                                            "components": [
                                                {
                                                    "name": "current",
                                                    "type": "int256"
                                                },
                                                {
                                                    "name": "previous",
                                                    "type": "int256"
                                                }
                                            ],
                                            "name": "conjugate",
                                            "type": "tuple"
                                        }
                                    ],
                                    "name": "balances",
                                    "type": "tuple"
                                },
                                {
                                    "components": [
                                        {
                                            "components": [
                                                {
                                                    "name": "amount",
                                                    "type": "int256"
                                                },
                                                {
                                                    "components": [
                                                        {
                                                            "name": "ct",
                                                            "type": "address"
                                                        },
                                                        {
                                                            "name": "id",
                                                            "type": "uint256"
                                                        }
                                                    ],
                                                    "name": "currency",
                                                    "type": "tuple"
                                                }
                                            ],
                                            "name": "single",
                                            "type": "tuple"
                                        },
                                        {
                                            "components": [
                                                {
                                                    "name": "originId",
                                                    "type": "uint256"
                                                },
                                                {
                                                    "components": [
                                                        {
                                                            "name": "amount",
                                                            "type": "int256"
                                                        },
                                                        {
                                                            "components": [
                                                                {
                                                                    "name": "ct",
                                                                    "type": "address"
                                                                },
                                                                {
                                                                    "name": "id",
                                                                    "type": "uint256"
                                                                }
                                                            ],
                                                            "name": "currency",
                                                            "type": "tuple"
                                                        }
                                                    ],
                                                    "name": "figure",
                                                    "type": "tuple"
                                                }
                                            ],
                                            "name": "total",
                                            "type": "tuple[]"
                                        }
                                    ],
                                    "name": "fees",
                                    "type": "tuple"
                                }
                            ],
                            "name": "seller",
                            "type": "tuple"
                        },
                        {
                            "components": [
                                {
                                    "components": [
                                        {
                                            "name": "single",
                                            "type": "int256"
                                        },
                                        {
                                            "name": "total",
                                            "type": "int256"
                                        }
                                    ],
                                    "name": "intended",
                                    "type": "tuple"
                                },
                                {
                                    "components": [
                                        {
                                            "name": "single",
                                            "type": "int256"
                                        },
                                        {
                                            "name": "total",
                                            "type": "int256"
                                        }
                                    ],
                                    "name": "conjugate",
                                    "type": "tuple"
                                }
                            ],
                            "name": "transfers",
                            "type": "tuple"
                        },
                        {
                            "components": [
                                {
                                    "name": "hash",
                                    "type": "bytes32"
                                },
                                {
                                    "components": [
                                        {
                                            "name": "r",
                                            "type": "bytes32"
                                        },
                                        {
                                            "name": "s",
                                            "type": "bytes32"
                                        },
                                        {
                                            "name": "v",
                                            "type": "uint8"
                                        }
                                    ],
                                    "name": "signature",
                                    "type": "tuple"
                                }
                            ],
                            "name": "seal",
                            "type": "tuple"
                        },
                        {
                            "name": "blockNumber",
                            "type": "uint256"
                        },
                        {
                            "name": "operatorId",
                            "type": "uint256"
                        }
                    ],
                    "name": "trade",
                    "type": "tuple"
                }
            ],
            "name": "unchallengeOrderCandidateByTrade",
            "outputs": [],
            "payable": false,
            "stateMutability": "nonpayable",
            "type": "function"
        },
        {
            "constant": false,
            "inputs": [
                {
                    "name": "wallet",
                    "type": "address"
                },
                {
                    "components": [
                        {
                            "name": "nonce",
                            "type": "uint256"
                        },
                        {
                            "name": "amount",
                            "type": "int256"
                        },
                        {
                            "components": [
                                {
                                    "components": [
                                        {
                                            "name": "ct",
                                            "type": "address"
                                        },
                                        {
                                            "name": "id",
                                            "type": "uint256"
                                        }
                                    ],
                                    "name": "intended",
                                    "type": "tuple"
                                },
                                {
                                    "components": [
                                        {
                                            "name": "ct",
                                            "type": "address"
                                        },
                                        {
                                            "name": "id",
                                            "type": "uint256"
                                        }
                                    ],
                                    "name": "conjugate",
                                    "type": "tuple"
                                }
                            ],
                            "name": "currencies",
                            "type": "tuple"
                        },
                        {
                            "name": "rate",
                            "type": "int256"
                        },
                        {
                            "components": [
                                {
                                    "name": "nonce",
                                    "type": "uint256"
                                },
                                {
                                    "name": "wallet",
                                    "type": "address"
                                },
                                {
                                    "name": "rollingVolume",
                                    "type": "uint256"
                                },
                                {
                                    "name": "liquidityRole",
                                    "type": "uint8"
                                },
                                {
                                    "components": [
                                        {
                                            "name": "amount",
                                            "type": "int256"
                                        },
                                        {
                                            "components": [
                                                {
                                                    "name": "wallet",
                                                    "type": "bytes32"
                                                },
                                                {
                                                    "name": "operator",
                                                    "type": "bytes32"
                                                }
                                            ],
                                            "name": "hashes",
                                            "type": "tuple"
                                        },
                                        {
                                            "components": [
                                                {
                                                    "name": "current",
                                                    "type": "int256"
                                                },
                                                {
                                                    "name": "previous",
                                                    "type": "int256"
                                                }
                                            ],
                                            "name": "residuals",
                                            "type": "tuple"
                                        }
                                    ],
                                    "name": "order",
                                    "type": "tuple"
                                },
                                {
                                    "components": [
                                        {
                                            "components": [
                                                {
                                                    "name": "current",
                                                    "type": "int256"
                                                },
                                                {
                                                    "name": "previous",
                                                    "type": "int256"
                                                }
                                            ],
                                            "name": "intended",
                                            "type": "tuple"
                                        },
                                        {
                                            "components": [
                                                {
                                                    "name": "current",
                                                    "type": "int256"
                                                },
                                                {
                                                    "name": "previous",
                                                    "type": "int256"
                                                }
                                            ],
                                            "name": "conjugate",
                                            "type": "tuple"
                                        }
                                    ],
                                    "name": "balances",
                                    "type": "tuple"
                                },
                                {
                                    "components": [
                                        {
                                            "components": [
                                                {
                                                    "name": "amount",
                                                    "type": "int256"
                                                },
                                                {
                                                    "components": [
                                                        {
                                                            "name": "ct",
                                                            "type": "address"
                                                        },
                                                        {
                                                            "name": "id",
                                                            "type": "uint256"
                                                        }
                                                    ],
                                                    "name": "currency",
                                                    "type": "tuple"
                                                }
                                            ],
                                            "name": "single",
                                            "type": "tuple"
                                        },
                                        {
                                            "components": [
                                                {
                                                    "name": "originId",
                                                    "type": "uint256"
                                                },
                                                {
                                                    "components": [
                                                        {
                                                            "name": "amount",
                                                            "type": "int256"
                                                        },
                                                        {
                                                            "components": [
                                                                {
                                                                    "name": "ct",
                                                                    "type": "address"
                                                                },
                                                                {
                                                                    "name": "id",
                                                                    "type": "uint256"
                                                                }
                                                            ],
                                                            "name": "currency",
                                                            "type": "tuple"
                                                        }
                                                    ],
                                                    "name": "figure",
                                                    "type": "tuple"
                                                }
                                            ],
                                            "name": "total",
                                            "type": "tuple[]"
                                        }
                                    ],
                                    "name": "fees",
                                    "type": "tuple"
                                }
                            ],
                            "name": "buyer",
                            "type": "tuple"
                        },
                        {
                            "components": [
                                {
                                    "name": "nonce",
                                    "type": "uint256"
                                },
                                {
                                    "name": "wallet",
                                    "type": "address"
                                },
                                {
                                    "name": "rollingVolume",
                                    "type": "uint256"
                                },
                                {
                                    "name": "liquidityRole",
                                    "type": "uint8"
                                },
                                {
                                    "components": [
                                        {
                                            "name": "amount",
                                            "type": "int256"
                                        },
                                        {
                                            "components": [
                                                {
                                                    "name": "wallet",
                                                    "type": "bytes32"
                                                },
                                                {
                                                    "name": "operator",
                                                    "type": "bytes32"
                                                }
                                            ],
                                            "name": "hashes",
                                            "type": "tuple"
                                        },
                                        {
                                            "components": [
                                                {
                                                    "name": "current",
                                                    "type": "int256"
                                                },
                                                {
                                                    "name": "previous",
                                                    "type": "int256"
                                                }
                                            ],
                                            "name": "residuals",
                                            "type": "tuple"
                                        }
                                    ],
                                    "name": "order",
                                    "type": "tuple"
                                },
                                {
                                    "components": [
                                        {
                                            "components": [
                                                {
                                                    "name": "current",
                                                    "type": "int256"
                                                },
                                                {
                                                    "name": "previous",
                                                    "type": "int256"
                                                }
                                            ],
                                            "name": "intended",
                                            "type": "tuple"
                                        },
                                        {
                                            "components": [
                                                {
                                                    "name": "current",
                                                    "type": "int256"
                                                },
                                                {
                                                    "name": "previous",
                                                    "type": "int256"
                                                }
                                            ],
                                            "name": "conjugate",
                                            "type": "tuple"
                                        }
                                    ],
                                    "name": "balances",
                                    "type": "tuple"
                                },
                                {
                                    "components": [
                                        {
                                            "components": [
                                                {
                                                    "name": "amount",
                                                    "type": "int256"
                                                },
                                                {
                                                    "components": [
                                                        {
                                                            "name": "ct",
                                                            "type": "address"
                                                        },
                                                        {
                                                            "name": "id",
                                                            "type": "uint256"
                                                        }
                                                    ],
                                                    "name": "currency",
                                                    "type": "tuple"
                                                }
                                            ],
                                            "name": "single",
                                            "type": "tuple"
                                        },
                                        {
                                            "components": [
                                                {
                                                    "name": "originId",
                                                    "type": "uint256"
                                                },
                                                {
                                                    "components": [
                                                        {
                                                            "name": "amount",
                                                            "type": "int256"
                                                        },
                                                        {
                                                            "components": [
                                                                {
                                                                    "name": "ct",
                                                                    "type": "address"
                                                                },
                                                                {
                                                                    "name": "id",
                                                                    "type": "uint256"
                                                                }
                                                            ],
                                                            "name": "currency",
                                                            "type": "tuple"
                                                        }
                                                    ],
                                                    "name": "figure",
                                                    "type": "tuple"
                                                }
                                            ],
                                            "name": "total",
                                            "type": "tuple[]"
                                        }
                                    ],
                                    "name": "fees",
                                    "type": "tuple"
                                }
                            ],
                            "name": "seller",
                            "type": "tuple"
                        },
                        {
                            "components": [
                                {
                                    "components": [
                                        {
                                            "name": "single",
                                            "type": "int256"
                                        },
                                        {
                                            "name": "total",
                                            "type": "int256"
                                        }
                                    ],
                                    "name": "intended",
                                    "type": "tuple"
                                },
                                {
                                    "components": [
                                        {
                                            "name": "single",
                                            "type": "int256"
                                        },
                                        {
                                            "name": "total",
                                            "type": "int256"
                                        }
                                    ],
                                    "name": "conjugate",
                                    "type": "tuple"
                                }
                            ],
                            "name": "transfers",
                            "type": "tuple"
                        },
                        {
                            "components": [
                                {
                                    "name": "hash",
                                    "type": "bytes32"
                                },
                                {
                                    "components": [
                                        {
                                            "name": "r",
                                            "type": "bytes32"
                                        },
                                        {
                                            "name": "s",
                                            "type": "bytes32"
                                        },
                                        {
                                            "name": "v",
                                            "type": "uint8"
                                        }
                                    ],
                                    "name": "signature",
                                    "type": "tuple"
                                }
                            ],
                            "name": "seal",
                            "type": "tuple"
                        },
                        {
                            "name": "blockNumber",
                            "type": "uint256"
                        },
                        {
                            "name": "operatorId",
                            "type": "uint256"
                        }
                    ],
                    "name": "trade",
                    "type": "tuple"
                }
            ],
            "name": "challengeByTrade",
            "outputs": [],
            "payable": false,
            "stateMutability": "nonpayable",
            "type": "function"
        },
        {
            "constant": false,
            "inputs": [
                {
                    "name": "wallet",
                    "type": "address"
                },
                {
                    "components": [
                        {
                            "name": "nonce",
                            "type": "uint256"
                        },
                        {
                            "name": "amount",
                            "type": "int256"
                        },
                        {
                            "components": [
                                {
                                    "name": "ct",
                                    "type": "address"
                                },
                                {
                                    "name": "id",
                                    "type": "uint256"
                                }
                            ],
                            "name": "currency",
                            "type": "tuple"
                        },
                        {
                            "components": [
                                {
                                    "name": "nonce",
                                    "type": "uint256"
                                },
                                {
                                    "name": "wallet",
                                    "type": "address"
                                },
                                {
                                    "components": [
                                        {
                                            "name": "current",
                                            "type": "int256"
                                        },
                                        {
                                            "name": "previous",
                                            "type": "int256"
                                        }
                                    ],
                                    "name": "balances",
                                    "type": "tuple"
                                },
                                {
                                    "components": [
                                        {
                                            "components": [
                                                {
                                                    "name": "amount",
                                                    "type": "int256"
                                                },
                                                {
                                                    "components": [
                                                        {
                                                            "name": "ct",
                                                            "type": "address"
                                                        },
                                                        {
                                                            "name": "id",
                                                            "type": "uint256"
                                                        }
                                                    ],
                                                    "name": "currency",
                                                    "type": "tuple"
                                                }
                                            ],
                                            "name": "single",
                                            "type": "tuple"
                                        },
                                        {
                                            "components": [
                                                {
                                                    "name": "originId",
                                                    "type": "uint256"
                                                },
                                                {
                                                    "components": [
                                                        {
                                                            "name": "amount",
                                                            "type": "int256"
                                                        },
                                                        {
                                                            "components": [
                                                                {
                                                                    "name": "ct",
                                                                    "type": "address"
                                                                },
                                                                {
                                                                    "name": "id",
                                                                    "type": "uint256"
                                                                }
                                                            ],
                                                            "name": "currency",
                                                            "type": "tuple"
                                                        }
                                                    ],
                                                    "name": "figure",
                                                    "type": "tuple"
                                                }
                                            ],
                                            "name": "total",
                                            "type": "tuple[]"
                                        }
                                    ],
                                    "name": "fees",
                                    "type": "tuple"
                                }
                            ],
                            "name": "sender",
                            "type": "tuple"
                        },
                        {
                            "components": [
                                {
                                    "name": "nonce",
                                    "type": "uint256"
                                },
                                {
                                    "name": "wallet",
                                    "type": "address"
                                },
                                {
                                    "components": [
                                        {
                                            "name": "current",
                                            "type": "int256"
                                        },
                                        {
                                            "name": "previous",
                                            "type": "int256"
                                        }
                                    ],
                                    "name": "balances",
                                    "type": "tuple"
                                },
                                {
                                    "components": [
                                        {
                                            "components": [
                                                {
                                                    "name": "originId",
                                                    "type": "uint256"
                                                },
                                                {
                                                    "components": [
                                                        {
                                                            "name": "amount",
                                                            "type": "int256"
                                                        },
                                                        {
                                                            "components": [
                                                                {
                                                                    "name": "ct",
                                                                    "type": "address"
                                                                },
                                                                {
                                                                    "name": "id",
                                                                    "type": "uint256"
                                                                }
                                                            ],
                                                            "name": "currency",
                                                            "type": "tuple"
                                                        }
                                                    ],
                                                    "name": "figure",
                                                    "type": "tuple"
                                                }
                                            ],
                                            "name": "total",
                                            "type": "tuple[]"
                                        }
                                    ],
                                    "name": "fees",
                                    "type": "tuple"
                                }
                            ],
                            "name": "recipient",
                            "type": "tuple"
                        },
                        {
                            "components": [
                                {
                                    "name": "single",
                                    "type": "int256"
                                },
                                {
                                    "name": "total",
                                    "type": "int256"
                                }
                            ],
                            "name": "transfers",
                            "type": "tuple"
                        },
                        {
                            "components": [
                                {
                                    "components": [
                                        {
                                            "name": "hash",
                                            "type": "bytes32"
                                        },
                                        {
                                            "components": [
                                                {
                                                    "name": "r",
                                                    "type": "bytes32"
                                                },
                                                {
                                                    "name": "s",
                                                    "type": "bytes32"
                                                },
                                                {
                                                    "name": "v",
                                                    "type": "uint8"
                                                }
                                            ],
                                            "name": "signature",
                                            "type": "tuple"
                                        }
                                    ],
                                    "name": "wallet",
                                    "type": "tuple"
                                },
                                {
                                    "components": [
                                        {
                                            "name": "hash",
                                            "type": "bytes32"
                                        },
                                        {
                                            "components": [
                                                {
                                                    "name": "r",
                                                    "type": "bytes32"
                                                },
                                                {
                                                    "name": "s",
                                                    "type": "bytes32"
                                                },
                                                {
                                                    "name": "v",
                                                    "type": "uint8"
                                                }
                                            ],
                                            "name": "signature",
                                            "type": "tuple"
                                        }
                                    ],
                                    "name": "operator",
                                    "type": "tuple"
                                }
                            ],
                            "name": "seals",
                            "type": "tuple"
                        },
                        {
                            "name": "blockNumber",
                            "type": "uint256"
                        },
                        {
                            "name": "operatorId",
                            "type": "uint256"
                        }
                    ],
                    "name": "payment",
                    "type": "tuple"
                }
            ],
            "name": "challengeByPayment",
            "outputs": [],
            "payable": false,
            "stateMutability": "nonpayable",
            "type": "function"
        }
    ],
    "bytecode": "0x60806040523480156200001157600080fd5b5060405160208062004d418339810180604052620000339190810190620000b6565b8080600160a060020a03811615156200004b57600080fd5b600160a060020a0381163014156200006257600080fd5b506000805461010060a860020a031916610100600160a060020a039390931692830217905560018054600160a060020a031916909117905550620000eb565b6000620000af8251620000df565b9392505050565b600060208284031215620000c957600080fd5b6000620000d78484620000a1565b949350505050565b600160a060020a031690565b614c4680620000fb6000396000f30060806040526004361061029a5763ffffffff60e060020a600035041663013cf08b811461029f5780630712abb0146102e05780630a9f46ad1461030d5780631110f49a1461032f5780631327d3d8146103515780631698792914610371578063176983a8146103915780631a9caa02146103b15780631e4e550a146103c6578063240625d8146103e65780632738a11214610408578063278f25c21461041d5780632d3aae3f1461043d5780632f013a001461045d578063311a937f146104725780633a5381b5146104925780633bebdcb5146104b45780633c8be0f0146104d457806342cb4587146104e95780634476d23b1461050957806349c56d491461052b5780634ad420bc1461054b5780635252358d1461056b57806352b1cd0c1461058b5780635618b56c146105ab578063570ca735146105d85780635dc60def146105ed578063627f09c31461060257806366a6f36d146106225780636c70bee9146106425780636d66a9ea146106575780636e8e56001461067757806370327ea1146106975780637235b68b146106ac57806376cfd4f1146106cc578063811111b5146106ec57806385ea5e021461070c578063892860b21461072c57806390363c6f1461074c578063962147351461076c578063a4fc78591461078c578063adfb6778146107ac578063afd742eb146107cc578063b3ab15fb146107ec578063bb3270401461080c578063be0a6e6b1461082c578063cb0f433b1461084c578063cd5c4f5714610861578063cdbf941914610881578063d5b68c62146108a1578063d5f39488146108c1578063d8ac023e146108d6578063e8ae41e3146108f6578063ebea2e561461090b578063ed8a829d14610920578063fb1a825e14610940578063fca5192b14610960578063fcd30b0214610980575b600080fd5b3480156102ab57600080fd5b506102bf6102ba366004614184565b6109a0565b6040516102d79c9b9a99989796959493929190614997565b60405180910390f35b3480156102ec57600080fd5b506103006102fb366004613d75565b610b0d565b6040516102d79190614a9e565b34801561031957600080fd5b50610322610b7b565b6040516102d79190614a59565b34801561033b57600080fd5b5061034f61034a3660046140ab565b610b82565b005b34801561035d57600080fd5b5061034f61036c36600461408d565b610c82565b34801561037d57600080fd5b5061032261038c366004613d75565b610d29565b34801561039d57600080fd5b506103226103ac366004613d75565b610d93565b3480156103bd57600080fd5b50610322610dfd565b3480156103d257600080fd5b506103226103e1366004614184565b610e03565b3480156103f257600080fd5b506103fb610e22565b6040516102d79190614a4b565b34801561041457600080fd5b5061034f610e32565b34801561042957600080fd5b50610322610438366004614184565b610e98565b34801561044957600080fd5b5061034f610458366004613f65565b610ea6565b34801561046957600080fd5b506103fb610f11565b34801561047e57600080fd5b5061034f61048d366004614107565b610f1a565b34801561049e57600080fd5b506104a7610ffe565b6040516102d79190614a67565b3480156104c057600080fd5b506103fb6104cf366004613d75565b61100d565b3480156104e057600080fd5b506103226110a4565b3480156104f557600080fd5b50610322610504366004613d75565b6110aa565b34801561051557600080fd5b5061051e611114565b6040516102d79190614801565b34801561053757600080fd5b5061034f610546366004613fae565b611128565b34801561055757600080fd5b5061034f610566366004613d75565b61122b565b34801561057757600080fd5b506103fb610586366004613d75565b611489565b34801561059757600080fd5b506103226105a636600461403f565b6114fc565b3480156105b757600080fd5b506105cb6105c6366004613d75565b61152c565b6040516102d79190614a90565b3480156105e457600080fd5b5061051e61159a565b3480156105f957600080fd5b5061034f6115a9565b34801561060e57600080fd5b5061034f61061d36600461408d565b6115fd565b34801561062e57600080fd5b5061032261063d366004613d75565b611695565b34801561064e57600080fd5b506104a76116b8565b34801561066357600080fd5b50610322610672366004613d4f565b6116c7565b34801561068357600080fd5b5061034f61069236600461408d565b6116e2565b3480156106a357600080fd5b5061034f611766565b3480156106b857600080fd5b5061034f6106c7366004613ff5565b6117c9565b3480156106d857600080fd5b5061051e6106e7366004614184565b611834565b3480156106f857600080fd5b5061034f610707366004613dc2565b61185c565b34801561071857600080fd5b5061034f610727366004613e5e565b611a89565b34801561073857600080fd5b5061034f61074736600461408d565b611b23565b34801561075857600080fd5b5061032261076736600461403f565b611bd2565b34801561077857600080fd5b5061034f610787366004613d4f565b611bed565b34801561079857600080fd5b5061034f6107a7366004613ebf565b611cab565b3480156107b857600080fd5b506103226107c7366004613d75565b611d2f565b3480156107d857600080fd5b5061034f6107e736600461413c565b611d9c565b3480156107f857600080fd5b5061034f610807366004613d4f565b611e73565b34801561081857600080fd5b50610322610827366004613d4f565b611f1d565b34801561083857600080fd5b5061034f6108473660046140ca565b611f38565b34801561085857600080fd5b506104a7612004565b34801561086d57600080fd5b5061030061087c366004613d75565b612013565b34801561088d57600080fd5b5061032261089c366004613d75565b612081565b3480156108ad57600080fd5b506103226108bc366004613d75565b6120eb565b3480156108cd57600080fd5b5061051e612158565b3480156108e257600080fd5b506103226108f136600461403f565b61216c565b34801561090257600080fd5b506104a7612187565b34801561091757600080fd5b50610322612196565b34801561092c57600080fd5b5061034f61093b366004613f14565b61219c565b34801561094c57600080fd5b5061032261095b366004613d75565b612269565b34801561096c57600080fd5b5061032261097b366004613d75565b6122d3565b34801561098c57600080fd5b5061051e61099b366004613d75565b61233d565b60088054829081106109ae57fe5b90600052602060002090600f02016000915090508060000160009054906101000a9004600160a060020a0316908060010154908060020154908060030154908060040160009054906101000a900460ff1690806005016040805190810160405290816000820160009054906101000a9004600160a060020a0316600160a060020a0316600160a060020a031681526020016001820154815250509080600701549080600801549080600901549080600a0160009054906101000a900460ff169080600a0160019054906101000a900460ff169080600b01608060405190810160405290816000820160009054906101000a9004600160a060020a0316600160a060020a0316600160a060020a03168152602001600182015481526020016002820154600019166000191681526020016003820160009054906101000a900460ff166003811115610afa57fe5b6003811115610b0557fe5b90525090508c565b600160a060020a0380841660009081526009602090815260408083209386168352928152828220848352905290812054801515610b4957600080fd5b600880546000198301908110610b5b57fe5b60009182526020909120600f909102016004015460ff1695945050505050565b6008545b90565b600260009054906101000a9004600160a060020a0316600160a060020a031663f71e860f6040518163ffffffff1660e060020a028152600401602060405180830381600087803b158015610bd557600080fd5b505af1158015610be9573d6000803e3d6000fd5b505050506040513d601f19601f82011682018060405250610c0d919081019061406f565b1515610c1857600080fd5b60055460405160e060020a638eed8359028152600160a060020a0390911690638eed835990610c4d9084903390600401614aac565b600060405180830381600087803b158015610c6757600080fd5b505af1158015610c7b573d6000803e3d6000fd5b5050505050565b6000610c8c6123b1565b1515610c9757600080fd5b81600160a060020a0381161515610cad57600080fd5b6003548390600160a060020a039081169082168114610c7b5760038054600160a060020a03878116600160a060020a0319831617909255604051911694507f1882af944a16549c3d4f60e3cd26f158b0c7aac3222cf32971fc21375ce05f6090610d1a9086908890614a75565b60405180910390a15050505050565b600160a060020a0380841660009081526009602090815260408083209386168352928152828220848352905290812054801515610d6557600080fd5b600880546000198301908110610d7757fe5b90600052602060002090600f0201600801549150509392505050565b600160a060020a0380841660009081526009602090815260408083209386168352928152828220848352905290812054801515610dcf57600080fd5b600880546000198301908110610de157fe5b90600052602060002090600f0201600901549150509392505050565b60065490565b600d805482908110610e1157fe5b600091825260209091200154905081565b60045460a060020a900460ff1681565b33610e3b611114565b600160a060020a031614610e4e57600080fd5b60005460ff1615610e5e57600080fd5b7f787a5d936e74f4b564b9153575886059829c78cd9927b1be5e0d976b317ef73633604051610e8d9190614801565b60405180910390a133ff5b600b805482908110610e1157fe5b610eae6123c7565b1515610eb957600080fd5b610ec683838360006123d8565b60c082015160200151516040517f6d94b3aed7642f72cda497a37ad55b99c7d30002cbb67b058b558b2a92a4623d91610f049133918791869061482a565b60405180910390a1505050565b60005460ff1681565b6004805460405160e260020a631293efbb028152600160a060020a0390911691634a4fbeec91610f4c91339101614801565b602060405180830381600087803b158015610f6657600080fd5b505af1158015610f7a573d6000803e3d6000fd5b505050506040513d601f19601f82011682018060405250610f9e919081019061406f565b15610fa857600080fd5b610fb533838360016123d8565b60c082015160200151516040517f557f56c08862b8255911d43ddbdd429111241d48fd17bf432d41a6ae58ade7d391610ff2913391908590614905565b60405180910390a15050565b600354600160a060020a031681565b600160a060020a038084166000908152600960209081526040808320938616835292815282822084835290529081205480158061106d575060088054600019830190811061105757fe5b90600052602060002090600f0201600101546000145b8061109b575060088054600019830190811061108557fe5b90600052602060002090600f0201600301544210155b95945050505050565b600d5490565b600160a060020a03808416600090815260096020908152604080832093861683529281528282208483529052908120548015156110e657600080fd5b6008805460001983019081106110f857fe5b90600052602060002090600f0201600701549150509392505050565b6000546101009004600160a060020a031690565b600260009054906101000a9004600160a060020a0316600160a060020a031663f71e860f6040518163ffffffff1660e060020a028152600401602060405180830381600087803b15801561117b57600080fd5b505af115801561118f573d6000803e3d6000fd5b505050506040513d601f19601f820116820180604052506111b3919081019061406f565b15156111be57600080fd5b60055460405160e060020a6392272607028152600160a060020a03909116906392272607906111f590859085903390600401614977565b600060405180830381600087803b15801561120f57600080fd5b505af1158015611223573d6000803e3d6000fd5b505050505050565b600554600090600160a060020a0316331461124557600080fd5b50600160a060020a03808416600090815260096020908152604080832093861683529281528282208483529052205480151561128057600080fd5b7fd7476210a022ec605a8198ef14fb969f4a82a06ab7a419b91e5da9343e19971c8484846008600186038154811015156112b657fe5b60009182526020909120600b600f90920201015460088054600160a060020a039092169160001988019081106112e857fe5b90600052602060002090600f0201600b016002015460086001880381548110151561130f57fe5b60009182526020909120600e600f90920201015460405161133896959493929160ff16906148ab565b60405180910390a1600060086001830381548110151561135457fe5b600091825260209091206004600f9092020101805460ff19166001838181111561137a57fe5b02179055506002546040805160e060020a63fbdfd8e7028152905161140f92600160a060020a03169163fbdfd8e79160048083019260209291908290030181600087803b1580156113ca57600080fd5b505af11580156113de573d6000803e3d6000fd5b505050506040513d601f19601f8201168201806040525061140291908101906141a2565b429063ffffffff61263616565b60088054600019840190811061142157fe5b600091825260209091206003600f90920201015560088054600019830190811061144757fe5b600091825260208220600b600f909202019081018054600160a060020a0319169055600c8101829055600d810191909155600e01805460ff1916905550505050565b600160a060020a03808416600090815260096020908152604080832093861683529281528282208483529052908120548015156114c557600080fd5b6008805460001983019081106114d757fe5b60009182526020909120600f90910201600a0154610100900460ff1695945050505050565b600c6020528160005260406000208181548110151561151757fe5b90600052602060002001600091509150505481565b600160a060020a038084166000908152600960209081526040808320938616835292815282822084835290529081205480151561156857600080fd5b60088054600019830190811061157a57fe5b60009182526020909120600f90910201600e015460ff1695945050505050565b600154600160a060020a031681565b6115b16123b1565b15156115bc57600080fd5b6004805460a060020a60ff02191660a060020a1790556040517f56ec8900b9c4bf84f4b715a53068ca06961dd49084c07b481931e2c2045346e690600090a1565b60006116076123b1565b151561161257600080fd5b81600160a060020a038116151561162857600080fd5b6002548390600160a060020a039081169082168114610c7b5760028054600160a060020a03878116600160a060020a0319831617909255604051911694507f634f61bf00e14adedce330c80c2823e16e184f189ebe853e1ddecc4a268477ff90610d1a9086908890614a75565b600960209081526000938452604080852082529284528284209052825290205481565b600254600160a060020a031681565b600160a060020a03166000908152600e602052604090205490565b60006116ec6123b1565b15156116f757600080fd5b81600160a060020a038116151561170d57600080fd5b60058054600160a060020a03858116600160a060020a03198316179283905560405191811694507f9873fbb7f672f15a890bdae14e1c20df26d321d27306ea9151bf80ce80266d3b92610f049286929190911690614a75565b3361176f611114565b600160a060020a03161461178257600080fd5b6000805460ff191660011790556040517fd5a2a04a775c741c2ca0dc46ea7ce4835190e1aaf1ca018def0e82568ec33616906117bf903390614801565b60405180910390a1565b6117d16123c7565b15156117dc57600080fd5b6117ea84848484600061264c565b60e0830151516040517f0a6b525565da0cbced0dcf4a83758b063ce5e7238f632cab9b5cf4d30108e1c29161182691339188918790879061485f565b60405180910390a150505050565b600680548290811061184257fe5b600091825260209091200154600160a060020a0316905081565b600554600090600160a060020a0316331461187657600080fd5b50600160a060020a038088166000908152600960209081526040808320938a168352928152828220888352905220548015156118b157600080fd5b60016008600183038154811015156118c557fe5b600091825260209091206004600f9092020101805460ff1916600183818111156118eb57fe5b02179055506002546040805160e060020a63fbdfd8e7028152905161193b92600160a060020a03169163fbdfd8e79160048083019260209291908290030181600087803b1580156113ca57600080fd5b60088054600019840190811061194d57fe5b90600052602060002090600f0201600301819055508460086001830381548110151561197557fe5b90600052602060002090600f0201600b0160000160006101000a815481600160a060020a030219169083600160a060020a03160217905550836008600183038154811015156119c057fe5b60009182526020909120600c600f9092020101556008805484919060001984019081106119e957fe5b60009182526020909120600d600f909202010155600880548391906000198401908110611a1257fe5b60009182526020909120600e600f9092020101805460ff19166001836003811115611a3957fe5b02179055507fa0b7f84a6e07e377ed321c26dcf71a5dfc29c735054c576e63be4635d7b7459f888888888787604051611a77969594939291906148ab565b60405180910390a15050505050505050565b600554600090600160a060020a03163314611aa357600080fd5b50600160a060020a038085166000908152600960209081526040808320938716835292815282822085835290522054801515611ade57600080fd5b81600860018303815481101515611af157fe5b600091825260209091206004600f9092020101805460ff191660018381811115611b1757fe5b02179055505050505050565b6000611b2d6123b1565b1515611b3857600080fd5b81600160a060020a0381161515611b4e57600080fd5b6004548390600160a060020a039081169082168114610c7b5760045460a060020a900460ff1615611b7e57600080fd5b60048054600160a060020a03878116600160a060020a0319831617909255604051911694507fa44d361e26327b72a7ccbeae801b3c5cd7677ea4fa74168b289e273c46bfecfc90610d1a9086908890614a75565b600a6020528160005260406000208181548110151561151757fe5b6000611bf76123b1565b1515611c0257600080fd5b81600160a060020a0381161515611c1857600080fd5b600160a060020a038116301415611c2e57600080fd5b600054600160a060020a038481166101009092041614611ca65760008054600160a060020a0385811661010090810261010060a860020a0319841617909355604051929091041692507f977e5fa58e458501775e0008d275006294c5249e3c08d1d0e3a9f3acad14f6e490610f04908490869061480f565b505050565b600554600090600160a060020a03163314611cc557600080fd5b50600160a060020a038085166000908152600960209081526040808320938716835292815282822085835290522054801515611d0057600080fd5b81600860018303815481101515611d1357fe5b90600052602060002090600f0201600301819055505050505050565b600160a060020a0380841660009081526009602090815260408083209386168352928152828220848352905290812054801515611d6b57600080fd5b600880546000198301908110611d7d57fe5b90600052602060002090600f0201600b01600201549150509392505050565b6004805460405160e260020a631293efbb028152600160a060020a0390911691634a4fbeec91611dce91339101614801565b602060405180830381600087803b158015611de857600080fd5b505af1158015611dfc573d6000803e3d6000fd5b505050506040513d601f19601f82011682018060405250611e20919081019061406f565b15611e2a57600080fd5b611e3833848484600161264c565b60e0830151516040517f92fbfde4e67a0839d154cd36041dfd04992a08a0b09dfbf28e53ab646474bd2991610f04913391908690869061492d565b6000611e7d6123c7565b1515611e8857600080fd5b81600160a060020a0381161515611e9e57600080fd5b600160a060020a038116301415611eb457600080fd5b600154600160a060020a03848116911614611ca65760018054600160a060020a03858116600160a060020a0319831617909255604051911692507f9f611b789425d0d5b90b920f1b2852907dd865c80074a30b1629aaa041d1812c90610f04908490869061480f565b600160a060020a03166000908152600c602052604090205490565b600260009054906101000a9004600160a060020a0316600160a060020a031663f71e860f6040518163ffffffff1660e060020a028152600401602060405180830381600087803b158015611f8b57600080fd5b505af1158015611f9f573d6000803e3d6000fd5b505050506040513d601f19601f82011682018060405250611fc3919081019061406f565b1515611fce57600080fd5b60055460405160e360020a62c11527028152600160a060020a0390911690630608a938906111f590859085903390600401614ac9565b600554600160a060020a031681565b600160a060020a038084166000908152600960209081526040808320938616835292815282822084835290529081205480151561204f57600080fd5b60088054600019830190811061206157fe5b60009182526020909120600f90910201600a015460ff1695945050505050565b600160a060020a03808416600090815260096020908152604080832093861683529281528282208483529052908120548015156120bd57600080fd5b6008805460001983019081106120cf57fe5b90600052602060002090600f0201600101549150509392505050565b600160a060020a038084166000908152600960209081526040808320938616835292815282822084835290529081205480151561212757600080fd5b60088054600019830190811061213957fe5b90600052602060002090600f0201600b01600101549150509392505050565b6000546101009004600160a060020a031681565b600e6020528160005260406000208181548110151561151757fe5b600454600160a060020a031681565b600b5490565b600260009054906101000a9004600160a060020a0316600160a060020a031663f71e860f6040518163ffffffff1660e060020a028152600401602060405180830381600087803b1580156121ef57600080fd5b505af1158015612203573d6000803e3d6000fd5b505050506040513d601f19601f82011682018060405250612227919081019061406f565b151561223257600080fd5b60055460405160e260020a631a49a0cb028152600160a060020a0390911690636926832c906111f590859085903390600401614948565b600160a060020a03808416600090815260096020908152604080832093861683529281528282208483529052908120548015156122a557600080fd5b6008805460001983019081106122b757fe5b90600052602060002090600f0201600301549150509392505050565b600160a060020a038084166000908152600960209081526040808320938616835292815282822084835290529081205480151561230f57600080fd5b60088054600019830190811061232157fe5b90600052602060002090600f0201600201549150509392505050565b600160a060020a038084166000908152600960209081526040808320938616835292815282822084835290529081205480151561237957600080fd5b60088054600019830190811061238b57fe5b60009182526020909120600f90910201600b0154600160a060020a031695945050505050565b6000546101009004600160a060020a0316331490565b600154600160a060020a0316331490565b60035460405160e060020a63a865476b0281528491600160a060020a03169063a865476b9061240b908490600401614afb565b602060405180830381600087803b15801561242557600080fd5b505af1158015612439573d6000803e3d6000fd5b505050506040513d601f19601f8201168201806040525061245d919081019061406f565b151561246857600080fd5b600260009054906101000a9004600160a060020a0316600160a060020a031663b6bf41766040518163ffffffff1660e060020a028152600401602060405180830381600087803b1580156124bb57600080fd5b505af11580156124cf573d6000803e3d6000fd5b505050506040513d601f19601f820116820180604052506124f391908101906141a2565b4310156124ff57600080fd5b60035460405160e160020a635f1132b7028152600160a060020a039091169063be22656e906125349087908990600401614b0c565b602060405180830381600087803b15801561254e57600080fd5b505af1158015612562573d6000803e3d6000fd5b505050506040513d601f19601f82011682018060405250612586919081019061406f565b151561259157600080fd5b604084015180516020909101516125a991879161100d565b15156125b457600080fd5b6125c0858585856128da565b6125c985612cb6565b50505060c0015160209081015151600d8054600181810183557fd7b6990105719101dabeb77144f2a3385c8033acd3af97e9423a695e81ad1eb590910192909255600160a060020a039093166000908152600e835260408120935484549283018555938152919091200155565b60008282018381101561264557fe5b9392505050565b60035460405160e160020a637211c8c70281528591600160a060020a03169063e423918e9061267f908490600401614b2c565b602060405180830381600087803b15801561269957600080fd5b505af11580156126ad573d6000803e3d6000fd5b505050506040513d601f19601f820116820180604052506126d1919081019061406f565b15156126dc57600080fd5b600260009054906101000a9004600160a060020a0316600160a060020a031663b6bf41766040518163ffffffff1660e060020a028152600401602060405180830381600087803b15801561272f57600080fd5b505af1158015612743573d6000803e3d6000fd5b505050506040513d601f19601f8201168201806040525061276791908101906141a2565b43101561277357600080fd5b60035460405160e160020a6303e149c3028152600160a060020a03909116906307c29386906127a89088908a90600401614b3d565b602060405180830381600087803b1580156127c257600080fd5b505af11580156127d6573d6000803e3d6000fd5b505050506040513d601f19601f820116820180604052506127fa919081019061406f565b151561280557600080fd5b604085015151805160209091015161281e91889161100d565b151561282957600080fd5b6040850151602090810151805191015161284491889161100d565b151561284f57600080fd5b61285b86868685612d41565b61286786868585612d63565b61287086612cb6565b5050505060e0015151600b8054600180820183557f0175b7a638427703f0dbe7bb9bbf987a2551717b34e79f33b5b1008d1fa01db990910192909255600160a060020a03929092166000908152600c60209081526040822093548454938401855593825290200155565b60405160e060020a636b84d93102815260009073__SafeMathIntLib________________________90636b84d93190612917908690600401614a59565b60206040518083038186803b15801561292f57600080fd5b505af4158015612943573d6000803e3d6000fd5b505050506040513d601f19601f82011682018060405250612967919081019061406f565b151561297257600080fd5b61297c8486612d82565b90508281121561298b57600080fd5b600880549061299d9060018301613387565b506008805486919060001981019081106129b357fe5b60009182526020909120600f909102018054600160a060020a031916600160a060020a039290921691909117905583516008805460001981019081106129f557fe5b600091825260209091206001600f90920201015560e0840151600880546000198101908110612a2057fe5b90600052602060002090600f020160020181905550612a8b600260009054906101000a9004600160a060020a0316600160a060020a031663fbdfd8e76040518163ffffffff1660e060020a028152600401602060405180830381600087803b1580156113ca57600080fd5b600880546000198101908110612a9d57fe5b6000918252602082206003600f909202010191909155600880546000198101908110612ac557fe5b600091825260209091206004600f9092020101805460ff191660018381811115612aeb57fe5b02179055506040840151600880546000198101908110612b0757fe5b60009182526020918290208351600f9290920201600581018054600160a060020a031916600160a060020a0390931692909217909155910151600690910155600880548491906000198101908110612b5b57fe5b600091825260209091206007600f909202010155612b7f818463ffffffff612e3116565b600880546000198101908110612b9157fe5b60009182526020918290206008600f9092020181019290925560c086015101515181549091906000198101908110612bc557fe5b600091825260209091206009600f90920201015560088054600191906000198101908110612bef57fe5b60009182526020909120600a600f9092020101805460ff191660018381811115612c1557fe5b0217905550600880548391906000198101908110612c2f57fe5b60009182526020808320600a600f90930201820180549415156101000261ff001990951694909417909355600854600160a060020a03988916808452600985526040808520998101805151909b1685529885528884209951850151845298845287832081905597825282529485208054600181018255908652942090930193909355505050565b600160a060020a03811660009081526007602052604090205460ff161515612d3e57600160a060020a0381166000818152600760205260408120805460ff191660019081179091556006805491820181559091527ff652222313e28459528d920b65115c16c04f3efc82aaedc97be59f3f377c0d3f018054600160a060020a03191690911790555b50565b612d5d848484612d518789612e6d565b60408801515186612f17565b50505050565b612d5d848484612d7387896132d7565b87604001516020015186612f17565b60035460405160e060020a63ef04ec95028152600091600160a060020a03169063ef04ec9590612db89086908690600401614b0c565b602060405180830381600087803b158015612dd257600080fd5b505af1158015612de6573d6000803e3d6000fd5b505050506040513d601f19601f82011682018060405250612e0a919081019061406f565b612e1d5760808301516040015151612e28565b606083015160400151515b90505b92915050565b6000808212158015612e4557508282840313155b80612e5c5750600082128015612e5c575082828403135b1515612e6757600080fd5b50900390565b60035460405160e060020a63059057d7028152600091600160a060020a03169063059057d790612ea39086908690600401614b3d565b602060405180830381600087803b158015612ebd57600080fd5b505af1158015612ed1573d6000803e3d6000fd5b505050506040513d601f19601f82011682018060405250612ef5919081019061406f565b612f085760a08084015101515151612e28565b50506080015160a00151515190565b60405160e060020a636b84d93102815273__SafeMathIntLib________________________90636b84d93190612f51908790600401614a59565b60206040518083038186803b158015612f6957600080fd5b505af4158015612f7d573d6000803e3d6000fd5b505050506040513d601f19601f82011682018060405250612fa1919081019061406f565b1515612fac57600080fd5b83831215612fb957600080fd5b6008805490612fcb9060018301613387565b50600880548791906000198101908110612fe157fe5b60009182526020909120600f909102018054600160a060020a031916600160a060020a0392909216919091179055845160088054600019810190811061302357fe5b600091825260209091206001600f90920201015561010085015160088054600019810190811061304f57fe5b90600052602060002090600f0201600201819055506130ba600260009054906101000a9004600160a060020a0316600160a060020a031663fbdfd8e76040518163ffffffff1660e060020a028152600401602060405180830381600087803b1580156113ca57600080fd5b6008805460001981019081106130cc57fe5b6000918252602082206003600f9092020101919091556008805460001981019081106130f457fe5b600091825260209091206004600f9092020101805460ff19166001838181111561311a57fe5b021790555060088054839190600019810190811061313457fe5b60009182526020918290208351600f9290920201600581018054600160a060020a031916600160a060020a039093169290921790915591015160069091015560088054859190600019810190811061318857fe5b600091825260209091206007600f9092020101556131ac838563ffffffff612e3116565b6008805460001981019081106131be57fe5b600091825260209091206008600f9092020181019190915560e086015151815490919060001981019081106131ef57fe5b6000918252602082206009600f90920201019190915560088054600019810190811061321757fe5b60009182526020909120600a600f9092020101805460ff19166001838181111561323d57fe5b021790555060088054829190600019810190811061325757fe5b60009182526020808320600a600f90930201820180549415156101000261ff001990951694909417909355600854600160a060020a03998a168084526009855260408085208851909c1685529a85528a84209685015184529584528983208190559482528252968720805460018101825590885296209095015550505050565b60035460405160e060020a63059057d7028152600091600160a060020a03169063059057d79061330d9086908690600401614b3d565b602060405180830381600087803b15801561332757600080fd5b505af115801561333b573d6000803e3d6000fd5b505050506040513d601f19601f8201168201806040525061335f919081019061406f565b6133755760a08084015101516020015151612e28565b50506080015160a00151602001515190565b815481835581811115611ca657600083815260209020611ca691610b7f91600f9182028101918502015b8082111561344d578054600160a060020a03199081168255600060018301819055600283018190556003830181905560048301805460ff199081169091556005840180548416905560068401829055600784018290556008840182905560098401829055600a8401805461ffff19169055600b84018054909316909255600c8301819055600d830155600e820180549091169055600f016133b1565b5090565b6000612e288235614b9e565b6000601f8201831361346e57600080fd5b813561348161347c82614b74565b614b4e565b915081818352602084019350602081019050838560808402820111156134a657600080fd5b60005b838110156134d457816134bc888261375b565b845250602090920191608091909101906001016134a9565b5050505092915050565b6000612e288251614baa565b6000612e288235610b7f565b6000612e288235614bcd565b6000612e288235614bd8565b6000612e288235614be7565b60006040828403121561352c57600080fd5b6135366040614b4e565b905060006135448484613451565b8252506020613555848483016134ea565b60208301525092915050565b60006040828403121561357357600080fd5b61357d6040614b4e565b9050600061354484846134ea565b60006060828403121561359d57600080fd5b6135a76040614b4e565b905060006135b584846134ea565b82525060206135558484830161351a565b6000608082840312156135d857600080fd5b6135e26040614b4e565b905060006135f0848461351a565b82525060406135558484830161351a565b60006080828403121561361357600080fd5b61361d6040614b4e565b9050600061362b8484613561565b825250604061355584848301613561565b6000610120828403121561364f57600080fd5b61365960a0614b4e565b90506000613667848461350e565b8252506020613678848483016134ea565b602083015250604061368c848285016135c6565b60408301525060c06136a0848285016134ea565b60608301525060e06136b484828501613561565b60808301525092915050565b60006102a082840312156136d357600080fd5b6136dd60c0614b4e565b905060006136eb84846134ea565b82525060206136fc84848301613451565b60208301525060406137108482850161363c565b60408301525061016061372584828501613cfb565b60608301525061026061373a848285016134ea565b60808301525061028061374f848285016134ea565b60a08301525092915050565b60006080828403121561376d57600080fd5b6137776040614b4e565b9050600061378584846134ea565b82525060206135558484830161358b565b600060a082840312156137a857600080fd5b6137b26080614b4e565b905060006137c084846134ea565b82525060206137d184848301613451565b60208301525060406137e584828501613561565b60408301525060808201356001604060020a0381111561380457600080fd5b61381084828501613a80565b60608301525092915050565b600060a0828403121561382e57600080fd5b6138386080614b4e565b9050600061384684846134ea565b825250602061385784848301613451565b602083015250604061386b84828501613561565b60408301525060808201356001604060020a0381111561388a57600080fd5b61381084828501613a2e565b600061024082840312156138a957600080fd5b6138b4610120614b4e565b905060006138c284846134ea565b82525060206138d3848483016134ea565b60208301525060406138e78482850161351a565b60408301525060808201356001604060020a0381111561390657600080fd5b6139128482850161381c565b60608301525060a08201356001604060020a0381111561393157600080fd5b61393d84828501613796565b60808301525060c061395184828501613561565b60a08301525061010061396684828501613cfb565b60c08301525061020061397b848285016134ea565b60e083015250610220613990848285016134ea565b6101008301525092915050565b6000608082840312156139af57600080fd5b6139b96040614b4e565b905060006139c784846134ea565b8252506020613555848483016000606082840312156139e557600080fd5b6139ef6060614b4e565b905060006139fd84846134ea565b8252506020613a0e848483016134ea565b6020830152506040613a2284828501613d43565b60408301525092915050565b600060808284031215613a4057600080fd5b613a4a6040614b4e565b90506000613a58848461358b565b82525060608201356001604060020a03811115613a7457600080fd5b6135558482850161345d565b600060208284031215613a9257600080fd5b613a9c6020614b4e565b905081356001604060020a03811115613ab457600080fd5b613ac08482850161345d565b82525092915050565b600060a08284031215613adb57600080fd5b613ae56060614b4e565b90506000613af384846134ea565b8252506020613b0484848301613561565b6020830152506060613a2284828501613561565b60006101c08284031215613b2b57600080fd5b613b3560e0614b4e565b90506000613b4384846134ea565b8252506020613b5484848301613451565b6020830152506040613b68848285016134ea565b6040830152506060613b7c8482850161350e565b6060830152506080613b9084828501613ac9565b608083015250610120613ba584828501613601565b60a0830152506101a08201356001604060020a03811115613bc557600080fd5b613bd184828501613a2e565b60c08301525092915050565b60006102608284031215613bf057600080fd5b613bfb610140614b4e565b90506000613c0984846134ea565b8252506020613c1a848483016134ea565b6020830152506040613c2e848285016135c6565b60408301525060c0613c42848285016134ea565b60608301525060e08201356001604060020a03811115613c6157600080fd5b613c6d84828501613b18565b6080830152506101008201356001604060020a03811115613c8d57600080fd5b613c9984828501613b18565b60a083015250610120613cae84828501613601565b60c0830152506101a0613cc38482850161399d565b60e083015250610220613cd8848285016134ea565b61010083015250610240613cee848285016134ea565b6101208301525092915050565b60006101008284031215613d0e57600080fd5b613d186040614b4e565b90506000613d26848461399d565b82525060806135558484830161399d565b6000612e288251610b7f565b6000612e288235614bc7565b600060208284031215613d6157600080fd5b6000613d6d8484613451565b949350505050565b600080600060608486031215613d8a57600080fd5b6000613d968686613451565b9350506020613da786828701613451565b9250506040613db8868287016134ea565b9150509250925092565b600080600080600080600060e0888a031215613ddd57600080fd5b6000613de98a8a613451565b9750506020613dfa8a828b01613451565b9650506040613e0b8a828b016134ea565b9550506060613e1c8a828b01613451565b9450506080613e2d8a828b016134ea565b93505060a0613e3e8a828b016134ea565b92505060c0613e4f8a828b01613502565b91505092959891949750929550565b60008060008060808587031215613e7457600080fd5b6000613e808787613451565b9450506020613e9187828801613451565b9350506040613ea2878288016134ea565b9250506060613eb38782880161350e565b91505092959194509250565b60008060008060808587031215613ed557600080fd5b6000613ee18787613451565b9450506020613ef287828801613451565b9350506040613f03878288016134ea565b9250506060613eb3878288016134ea565b60008060408385031215613f2757600080fd5b6000613f338585613451565b92505060208301356001604060020a03811115613f4f57600080fd5b613f5b85828601613896565b9150509250929050565b600080600060608486031215613f7a57600080fd5b6000613f868686613451565b93505060208401356001604060020a03811115613fa257600080fd5b613da786828701613896565b60008060408385031215613fc157600080fd5b6000613fcd8585613451565b92505060208301356001604060020a03811115613fe957600080fd5b613f5b85828601613bdd565b6000806000806080858703121561400b57600080fd5b60006140178787613451565b94505060208501356001604060020a0381111561403357600080fd5b613ef287828801613bdd565b6000806040838503121561405257600080fd5b600061405e8585613451565b9250506020613f5b858286016134ea565b60006020828403121561408157600080fd5b6000613d6d84846134de565b60006020828403121561409f57600080fd5b6000613d6d84846134f6565b60006102a082840312156140be57600080fd5b6000613d6d84846136c0565b6000806102c083850312156140de57600080fd5b60006140ea85856136c0565b9250506102a08301356001604060020a03811115613fe957600080fd5b6000806040838503121561411a57600080fd5b82356001604060020a0381111561413057600080fd5b61405e85828601613896565b60008060006060848603121561415157600080fd5b83356001604060020a0381111561416757600080fd5b61417386828701613bdd565b9350506020613da7868287016134ea565b60006020828403121561419657600080fd5b6000613d6d84846134ea565b6000602082840312156141b457600080fd5b6000613d6d8484613d37565b6141c981614b9e565b82525050565b60006141da82614b9a565b8084526020840193506141ec83614b94565b60005b8281101561421c57614202868351614410565b61420b82614b94565b6080969096019591506001016141ef565b5093949350505050565b6141c981614baa565b6141c981610b7f565b6141c981614bcd565b6141c981614bf6565b6141c981614c01565b8051604083019061426484826141c0565b506020820151612d5d602085018261422f565b80516040830190614264848261422f565b8051608083019061429984826141c0565b5060208201516142ac602085018261422f565b5060408201516142bf604085018261422f565b506060820151612d5d6060850182614241565b805160608301906142e3848261422f565b506020820151612d5d6020850182614253565b805160808301906143078482614253565b506020820151612d5d6040850182614253565b8051608083019061432b8482614277565b506020820151612d5d6040850182614277565b8051610120830190614350848261424a565b506020820151614363602085018261422f565b50604082015161437660408501826142f6565b50606082015161438960c085018261422f565b506080820151612d5d60e0850182614277565b80516102a08301906143ae848261422f565b5060208201516143c160208501826141c0565b5060408201516143d4604085018261433e565b5060608201516143e86101608501826147d3565b5060808201516143fc61026085018261422f565b5060a0820151612d5d61028085018261422f565b80516080830190614421848261422f565b506020820151612d5d60208501826142d2565b805160009060a0840190614448858261422f565b50602083015161445b60208601826141c0565b50604083015161446e6040860182614277565b506060830151848203608086015261109b8282614621565b805160009060a084019061449a858261422f565b5060208301516144ad60208601826141c0565b5060408301516144c06040860182614277565b506060830151848203608086015261109b82826145f5565b80516000906102408401906144ed858261422f565b506020830151614500602086018261422f565b5060408301516145136040860182614253565b506060830151848203608086015261452b8282614486565b915050608083015184820360a08601526145458282614434565b91505060a083015161455a60c0860182614277565b5060c083015161456e6101008601826147d3565b5060e083015161458261020086018261422f565b5061010083015161459761022086018261422f565b509392505050565b805160808301906145b0848261422f565b506020820151612d5d6020850182805160608301906145cf848261422f565b5060208201516145e2602085018261422f565b506040820151612d5d60408501826147f8565b8051600090608084019061460985826142d2565b506020830151848203606086015261109b82826141cf565b805160208084526000919084019061109b82826141cf565b805160a083019061464a848261422f565b50602082015161465d6020850182614277565b506040820151612d5d6060850182614277565b80516000906101c0840190614685858261422f565b50602083015161469860208601826141c0565b5060408301516146ab604086018261422f565b5060608301516146be606086018261424a565b5060808301516146d16080860182614639565b5060a08301516146e561012086018261431a565b5060c08301518482036101a086015261109b82826145f5565b8051600090610260840190614713858261422f565b506020830151614726602086018261422f565b50604083015161473960408601826142f6565b50606083015161474c60c086018261422f565b50608083015184820360e08601526147648282614670565b91505060a083015184820361010086015261477f8282614670565b91505060c083015161479561012086018261431a565b5060e08301516147a96101a086018261459f565b506101008301516147be61022086018261422f565b5061012083015161459761024086018261422f565b80516101008301906147e5848261459f565b506020820151612d5d608085018261459f565b6141c981614bc7565b60208101612e2b82846141c0565b6040810161481d82856141c0565b61264560208301846141c0565b6080810161483882876141c0565b61484560208301866141c0565b614852604083018561422f565b61109b606083018461422f565b60a0810161486d82886141c0565b61487a60208301876141c0565b614887604083018661422f565b614894606083018561422f565b6148a1608083018461422f565b9695505050505050565b60c081016148b982896141c0565b6148c660208301886141c0565b6148d3604083018761422f565b6148e060608301866141c0565b6148ed608083018561422f565b6148fa60a0830184614241565b979650505050505050565b6060810161491382866141c0565b614920602083018561422f565b613d6d604083018461422f565b6080810161493b82876141c0565b614845602083018661422f565b6060810161495682866141c0565b818103602083015261496881856144d8565b9050613d6d60408301846141c0565b6060810161498582866141c0565b818103602083015261496881856146fe565b61020081016149a6828f6141c0565b6149b3602083018e61422f565b6149c0604083018d61422f565b6149cd606083018c61422f565b6149da608083018b61424a565b6149e760a083018a614253565b6149f460e083018961422f565b614a0261010083018861422f565b614a1061012083018761422f565b614a1e61014083018661424a565b614a2c610160830185614226565b614a3a610180830184614288565b9d9c50505050505050505050505050565b60208101612e2b8284614226565b60208101612e2b828461422f565b60208101612e2b8284614238565b60408101614a838285614238565b6126456020830184614238565b60208101612e2b8284614241565b60208101612e2b828461424a565b6102c08101614abb828561439c565b6126456102a08301846141c0565b6102e08101614ad8828661439c565b8181036102a0830152614aeb81856146fe565b9050613d6d6102c08301846141c0565b60208082528101612e2881846144d8565b60408082528101614b1d81856144d8565b905061264560208301846141c0565b60208082528101612e2881846146fe565b60408082528101614b1d81856146fe565b6040518181016001604060020a0381118282101715614b6c57600080fd5b604052919050565b60006001604060020a03821115614b8a57600080fd5b5060209081020190565b60200190565b5190565b600160a060020a031690565b151590565b60006004821061344d57fe5b60006002821061344d57fe5b60ff1690565b6000612e2b82614b9e565b60006004821061344d57600080fd5b60006002821061344d57600080fd5b6000612e2b82614baf565b6000612e2b82614bbb5600a265627a7a72305820d790d1219b26a70f8c5e84d0bd52d79afdf56fb56770ac0f6903c5ad7f9acecd6c6578706572696d656e74616cf50037",
    "source": "/*\n * Hubii Nahmii\n *\n * Compliant with the Hubii Nahmii specification v0.12.\n *\n * Copyright (C) 2017-2018 Hubii AS\n */\n\npragma solidity ^0.4.25;\npragma experimental ABIEncoderV2;\n\nimport {Ownable} from \"./Ownable.sol\";\nimport {Challenge} from \"./Challenge.sol\";\nimport {Validatable} from \"./Validatable.sol\";\nimport {WalletLockable} from \"./WalletLockable.sol\";\nimport {SafeMathIntLib} from \"./SafeMathIntLib.sol\";\nimport {SafeMathUintLib} from \"./SafeMathUintLib.sol\";\nimport {DriipSettlementDispute} from \"./DriipSettlementDispute.sol\";\nimport {MonetaryTypesLib} from \"./MonetaryTypesLib.sol\";\nimport {NahmiiTypesLib} from \"./NahmiiTypesLib.sol\";\nimport {SettlementTypesLib} from \"./SettlementTypesLib.sol\";\n\n/**\n * @title DriipSettlementChallenge\n * @notice Where driip settlements are started and challenged\n */\ncontract DriipSettlementChallenge is Ownable, Challenge, Validatable, WalletLockable {\n    using SafeMathIntLib for int256;\n    using SafeMathUintLib for uint256;\n\n    //\n    // Variables\n    // -----------------------------------------------------------------------------------------------------------------\n    DriipSettlementDispute public driipSettlementDispute;\n\n    address[] public challengeWallets;\n    mapping(address => bool) challengeByWallets;\n\n    SettlementTypesLib.Proposal[] public proposals;\n    mapping(address => mapping(address => mapping(uint256 => uint256))) public proposalIndexByWalletCurrency;\n    mapping(address => uint256[]) public proposalIndicesByWallet;\n\n    bytes32[] public challengeTradeHashes;\n    mapping(address => uint256[]) public challengeTradeHashIndicesByWallet;\n\n    bytes32[] public challengePaymentHashes;\n    mapping(address => uint256[]) public challengePaymentHashIndicesByWallet;\n\n    //\n    // Events\n    // -----------------------------------------------------------------------------------------------------------------\n    event SetDriipSettlementDisputeEvent(DriipSettlementDispute oldDriipSettlementDispute,\n        DriipSettlementDispute newDriipSettlementDispute);\n    event StartChallengeFromTradeEvent(address wallet, bytes32 tradeHash,\n        int256 intendedStageAmount, int256 conjugateStageAmount);\n    event StartChallengeFromTradeByProxyEvent(address proxy, address wallet, bytes32 tradeHash,\n        int256 intendedStageAmount, int256 conjugateStageAmount);\n    event StartChallengeFromPaymentEvent(address wallet, bytes32 paymentHash, int256 stageAmount);\n    event StartChallengeFromPaymentByProxyEvent(address proxy, address wallet, bytes32 paymentHash,\n        int256 stageAmount);\n    event DisqualifyProposalEvent(address challengedWallet, address currencyCt, uint256 currencyId,\n        address challengerWallet, bytes32 candidateHash, SettlementTypesLib.CandidateType candidateType);\n    event QualifyProposalEvent(address challengedWallet, address currencyCt, uint256 currencyId,\n        address challengerWallet, bytes32 candidateHash, SettlementTypesLib.CandidateType candidateType);\n\n    //\n    // Constructor\n    // -----------------------------------------------------------------------------------------------------------------\n    constructor(address deployer) Ownable(deployer) public {\n    }\n\n    //\n    // Functions\n    // -----------------------------------------------------------------------------------------------------------------\n    /// @notice Set the settlement dispute contract\n    /// @param newDriipSettlementDispute The (address of) DriipSettlementDispute contract instance\n    function setDriipSettlementDispute(DriipSettlementDispute newDriipSettlementDispute)\n    public\n    onlyDeployer\n    notNullAddress(newDriipSettlementDispute)\n    {\n        DriipSettlementDispute oldDriipSettlementDispute = driipSettlementDispute;\n        driipSettlementDispute = newDriipSettlementDispute;\n        emit SetDriipSettlementDisputeEvent(oldDriipSettlementDispute, driipSettlementDispute);\n    }\n\n    /// @notice Get the number of challenge wallets, i.e. wallets that have started driip settlement challenge\n    /// @return The number of challenge wallets\n    function challengeWalletsCount()\n    public\n    view\n    returns (uint256)\n    {\n        return challengeWallets.length;\n    }\n\n    /// @notice Get the number of proposals\n    /// @return The number of proposals\n    function proposalsCount()\n    public\n    view\n    returns (uint256)\n    {\n        return proposals.length;\n    }\n\n    /// @notice Get the number of challenged trade hashes\n    /// @return The count of challenged trade hashes\n    function challengeTradeHashesCount()\n    public\n    view\n    returns (uint256)\n    {\n        return challengeTradeHashes.length;\n    }\n\n    /// @notice Get the number of challenged payment hashes\n    /// @return The count of challenged payment hashes\n    function challengePaymentHashesCount()\n    public\n    view\n    returns (uint256)\n    {\n        return challengePaymentHashes.length;\n    }\n\n    /// @notice Get the number of current and past settlement challenges from trade for given wallet\n    /// @param wallet The wallet for which to return count\n    /// @return The count of settlement challenges from trade\n    function walletChallengeTradeHashIndicesCount(address wallet)\n    public\n    view\n    returns (uint256)\n    {\n        return challengeTradeHashIndicesByWallet[wallet].length;\n    }\n\n    /// @notice Get the number of current and past settlement challenges from payment for given wallet\n    /// @param wallet The wallet for which to return count\n    /// @return The count of settlement challenges from payment\n    function walletChallengePaymentHashIndicesCount(address wallet)\n    public\n    view\n    returns (uint256)\n    {\n        return challengePaymentHashIndicesByWallet[wallet].length;\n    }\n\n    /// @notice Start settlement challenge on trade\n    /// @param trade The challenged trade\n    /// @param intendedStageAmount Amount of intended currency to be staged\n    /// @param conjugateStageAmount Amount of conjugate currency to be staged\n    function startChallengeFromTrade(NahmiiTypesLib.Trade trade, int256 intendedStageAmount,\n        int256 conjugateStageAmount)\n    public\n    {\n        // Require that wallet is not temporarily disqualified\n        require(!walletLocker.isLocked(msg.sender));\n\n        // Start challenge\n        _startChallengeFromTrade(msg.sender, trade, intendedStageAmount, conjugateStageAmount, true);\n\n        // Emit event\n        emit StartChallengeFromTradeEvent(msg.sender, trade.seal.hash, intendedStageAmount, conjugateStageAmount);\n    }\n\n    /// @notice Start settlement challenge on trade by proxy\n    /// @param wallet The concerned party\n    /// @param trade The challenged trade\n    /// @param intendedStageAmount Amount of intended currency to be staged\n    /// @param conjugateStageAmount Amount of conjugate currency to be staged\n    function startChallengeFromTradeByProxy(address wallet, NahmiiTypesLib.Trade trade, int256 intendedStageAmount,\n        int256 conjugateStageAmount)\n    public\n    onlyOperator\n    {\n        // Start challenge for wallet\n        _startChallengeFromTrade(wallet, trade, intendedStageAmount, conjugateStageAmount, false);\n\n        // Emit event\n        emit StartChallengeFromTradeByProxyEvent(msg.sender, wallet, trade.seal.hash, intendedStageAmount, conjugateStageAmount);\n    }\n\n    /// @notice Start settlement challenge on payment\n    /// @param payment The challenged payment\n    /// @param stageAmount Amount of payment currency to be staged\n    function startChallengeFromPayment(NahmiiTypesLib.Payment payment, int256 stageAmount)\n    public\n    {\n        // Require that wallet is not temporarily disqualified\n        require(!walletLocker.isLocked(msg.sender));\n\n        // Start challenge for wallet\n        _startChallengeFromPayment(msg.sender, payment, stageAmount, true);\n\n        // Emit event\n        emit StartChallengeFromPaymentEvent(msg.sender, payment.seals.operator.hash, stageAmount);\n    }\n\n    /// @notice Start settlement challenge on payment\n    /// @param wallet The concerned party\n    /// @param payment The challenged payment\n    /// @param stageAmount Amount of payment currency to be staged\n    function startChallengeFromPaymentByProxy(address wallet, NahmiiTypesLib.Payment payment, int256 stageAmount)\n    public\n    onlyOperator\n    {\n        // Start challenge for wallet\n        _startChallengeFromPayment(wallet, payment, stageAmount, false);\n\n        // Emit event\n        emit StartChallengeFromPaymentByProxyEvent(msg.sender, wallet, payment.seals.operator.hash, stageAmount);\n    }\n\n    /// @notice Gauge whether the proposal for the given wallet and currency has expired\n    /// @param wallet The address of the concerned wallet\n    /// @param currencyCt The address of the concerned currency contract (address(0) == ETH)\n    /// @param currencyId The ID of the concerned currency (0 for ETH and ERC20)\n    /// @return true if proposal has expired, else false\n    function hasProposalExpired(address wallet, address currencyCt, uint256 currencyId)\n    public\n    view\n    returns (bool)\n    {\n        // 1-based index\n        uint256 index = proposalIndexByWalletCurrency[wallet][currencyCt][currencyId];\n        return (\n        0 == index ||\n        0 == proposals[index - 1].nonce ||\n        block.timestamp >= proposals[index - 1].expirationTime\n        );\n    }\n\n    /// @notice Get the challenge nonce of the given wallet\n    /// @param wallet The address of the concerned wallet\n    /// @param currencyCt The address of the concerned currency contract (address(0) == ETH)\n    /// @param currencyId The ID of the concerned currency (0 for ETH and ERC20)\n    /// @return The challenge nonce\n    function proposalNonce(address wallet, address currencyCt, uint256 currencyId)\n    public\n    view\n    returns (uint256)\n    {\n        uint256 index = proposalIndexByWalletCurrency[wallet][currencyCt][currencyId];\n        require(0 != index);\n        return proposals[index - 1].nonce;\n    }\n\n    /// @notice Get the settlement proposal block number of the given wallet\n    /// @param wallet The address of the concerned wallet\n    /// @param currencyCt The address of the concerned currency contract (address(0) == ETH)\n    /// @param currencyId The ID of the concerned currency (0 for ETH and ERC20)\n    /// @return The settlement proposal block number\n    function proposalBlockNumber(address wallet, address currencyCt, uint256 currencyId)\n    public\n    view\n    returns (uint256)\n    {\n        uint256 index = proposalIndexByWalletCurrency[wallet][currencyCt][currencyId];\n        require(0 != index);\n        return proposals[index - 1].blockNumber;\n    }\n\n    /// @notice Get the settlement proposal end time of the given wallet\n    /// @param wallet The address of the concerned wallet\n    /// @param currencyCt The address of the concerned currency contract (address(0) == ETH)\n    /// @param currencyId The ID of the concerned currency (0 for ETH and ERC20)\n    /// @return The settlement proposal end time\n    function proposalExpirationTime(address wallet, address currencyCt, uint256 currencyId)\n    public\n    view\n    returns (uint256)\n    {\n        uint256 index = proposalIndexByWalletCurrency[wallet][currencyCt][currencyId];\n        require(0 != index);\n        return proposals[index - 1].expirationTime;\n    }\n\n    /// @notice Get the challenge status of the given wallet\n    /// @param wallet The address of the concerned wallet\n    /// @param currencyCt The address of the concerned currency contract (address(0) == ETH)\n    /// @param currencyId The ID of the concerned currency (0 for ETH and ERC20)\n    /// @return The challenge status\n    function proposalStatus(address wallet, address currencyCt, uint256 currencyId)\n    public\n    view\n    returns (SettlementTypesLib.Status)\n    {\n        uint256 index = proposalIndexByWalletCurrency[wallet][currencyCt][currencyId];\n        require(0 != index);\n        return proposals[index - 1].status;\n    }\n\n    /// @notice Get the settlement proposal stage amount of the given wallet and currency\n    /// @param wallet The address of the concerned wallet\n    /// @param currencyCt The address of the concerned currency contract (address(0) == ETH)\n    /// @param currencyId The ID of the concerned currency (0 for ETH and ERC20)\n    /// @return The settlement proposal stage amount\n    function proposalStageAmount(address wallet, address currencyCt, uint256 currencyId)\n    public\n    view\n    returns (int256)\n    {\n        uint256 index = proposalIndexByWalletCurrency[wallet][currencyCt][currencyId];\n        require(0 != index);\n        return proposals[index - 1].stageAmount;\n    }\n\n    /// @notice Get the settlement proposal target balance amount of the given wallet and currency\n    /// @param wallet The address of the concerned wallet\n    /// @param currencyCt The address of the concerned currency contract (address(0) == ETH)\n    /// @param currencyId The ID of the concerned currency (0 for ETH and ERC20)\n    /// @return The settlement proposal target balance amount\n    function proposalTargetBalanceAmount(address wallet, address currencyCt, uint256 currencyId)\n    public\n    view\n    returns (int256)\n    {\n        uint256 index = proposalIndexByWalletCurrency[wallet][currencyCt][currencyId];\n        require(0 != index);\n        return proposals[index - 1].targetBalanceAmount;\n    }\n\n    /// @notice Get the settlement proposal driip hash of the given wallet and currency\n    /// @param wallet The address of the concerned wallet\n    /// @param currencyCt The address of the concerned currency contract (address(0) == ETH)\n    /// @param currencyId The ID of the concerned currency (0 for ETH and ERC20)\n    /// @return The settlement proposal driip hash\n    function proposalDriipHash(address wallet, address currencyCt, uint256 currencyId)\n    public\n    view\n    returns (bytes32)\n    {\n        uint256 index = proposalIndexByWalletCurrency[wallet][currencyCt][currencyId];\n        require(0 != index);\n        return proposals[index - 1].driipHash;\n    }\n\n    /// @notice Get the settlement proposal driip type of the given wallet and currency\n    /// @param wallet The address of the concerned wallet\n    /// @param currencyCt The address of the concerned currency contract (address(0) == ETH)\n    /// @param currencyId The ID of the concerned currency (0 for ETH and ERC20)\n    /// @return The settlement proposal driip type\n    function proposalDriipType(address wallet, address currencyCt, uint256 currencyId)\n    public\n    view\n    returns (NahmiiTypesLib.DriipType)\n    {\n        uint256 index = proposalIndexByWalletCurrency[wallet][currencyCt][currencyId];\n        require(0 != index);\n        return proposals[index - 1].driipType;\n    }\n\n    /// @notice Get the balance reward of the given wallet's settlement proposal\n    /// @param wallet The address of the concerned wallet\n    /// @param currencyCt The address of the concerned currency contract (address(0) == ETH)\n    /// @param currencyId The ID of the concerned currency (0 for ETH and ERC20)\n    /// @return The balance reward of the settlement proposal\n    function proposalBalanceReward(address wallet, address currencyCt, uint256 currencyId)\n    public\n    view\n    returns (bool)\n    {\n        uint256 index = proposalIndexByWalletCurrency[wallet][currencyCt][currencyId];\n        require(0 != index);\n        return proposals[index - 1].balanceReward;\n    }\n\n    /// @notice Get the disqualification challenger of the given wallet and currency\n    /// @param wallet The address of the concerned wallet\n    /// @param currencyCt The address of the concerned currency contract (address(0) == ETH)\n    /// @param currencyId The ID of the concerned currency (0 for ETH and ERC20)\n    /// @return The challenger of the settlement disqualification\n    function proposalDisqualificationChallenger(address wallet, address currencyCt, uint256 currencyId)\n    public\n    view\n    returns (address)\n    {\n        uint256 index = proposalIndexByWalletCurrency[wallet][currencyCt][currencyId];\n        require(0 != index);\n        return proposals[index - 1].disqualification.challenger;\n    }\n\n    /// @notice Get the disqualification block number of the given wallet and currency\n    /// @param wallet The address of the concerned wallet\n    /// @param currencyCt The address of the concerned currency contract (address(0) == ETH)\n    /// @param currencyId The ID of the concerned currency (0 for ETH and ERC20)\n    /// @return The block number of the settlement disqualification\n    function proposalDisqualificationBlockNumber(address wallet, address currencyCt, uint256 currencyId)\n    public\n    view\n    returns (uint256)\n    {\n        uint256 index = proposalIndexByWalletCurrency[wallet][currencyCt][currencyId];\n        require(0 != index);\n        return proposals[index - 1].disqualification.blockNumber;\n    }\n\n    /// @notice Get the disqualification candidate type of the given wallet and currency\n    /// @param wallet The address of the concerned wallet\n    /// @param currencyCt The address of the concerned currency contract (address(0) == ETH)\n    /// @param currencyId The ID of the concerned currency (0 for ETH and ERC20)\n    /// @return The candidate type of the settlement disqualification\n    function proposalDisqualificationCandidateType(address wallet, address currencyCt, uint256 currencyId)\n    public\n    view\n    returns (SettlementTypesLib.CandidateType)\n    {\n        uint256 index = proposalIndexByWalletCurrency[wallet][currencyCt][currencyId];\n        require(0 != index);\n        return proposals[index - 1].disqualification.candidateType;\n    }\n\n    /// @notice Get the disqualification candidate hash of the given wallet and currency\n    /// @param wallet The address of the concerned wallet\n    /// @param currencyCt The address of the concerned currency contract (address(0) == ETH)\n    /// @param currencyId The ID of the concerned currency (0 for ETH and ERC20)\n    /// @return The candidate hash of the settlement disqualification\n    function proposalDisqualificationCandidateHash(address wallet, address currencyCt, uint256 currencyId)\n    public\n    view\n    returns (bytes32)\n    {\n        uint256 index = proposalIndexByWalletCurrency[wallet][currencyCt][currencyId];\n        require(0 != index);\n        return proposals[index - 1].disqualification.candidateHash;\n    }\n\n    /// @notice Set settlement proposal end time property of the given wallet\n    /// @dev This function can only be called by this contract's dispute instance\n    /// @param wallet The address of the concerned wallet\n    /// @param currencyCt The address of the concerned currency contract (address(0) == ETH)\n    /// @param currencyId The ID of the concerned currency (0 for ETH and ERC20)\n    /// @param expirationTime The end time value\n    function setProposalExpirationTime(address wallet, address currencyCt, uint256 currencyId,\n        uint256 expirationTime)\n    public\n    onlyDriipSettlementDispute\n    {\n        uint256 index = proposalIndexByWalletCurrency[wallet][currencyCt][currencyId];\n        require(0 != index);\n        proposals[index - 1].expirationTime = expirationTime;\n    }\n\n    /// @notice Set settlement proposal status property of the given wallet\n    /// @dev This function can only be called by this contract's dispute instance\n    /// @param wallet The address of the concerned wallet\n    /// @param currencyCt The address of the concerned currency contract (address(0) == ETH)\n    /// @param currencyId The ID of the concerned currency (0 for ETH and ERC20)\n    /// @param status The status value\n    function setProposalStatus(address wallet, address currencyCt, uint256 currencyId,\n        SettlementTypesLib.Status status)\n    public\n    onlyDriipSettlementDispute\n    {\n        uint256 index = proposalIndexByWalletCurrency[wallet][currencyCt][currencyId];\n        require(0 != index);\n        proposals[index - 1].status = status;\n    }\n\n    /// @notice Disqualify a proposal\n    /// @dev A call to this function will intentionally override previous disqualifications if existent\n    /// @param challengedWallet The address of the concerned challenged wallet\n    /// @param currencyCt The address of the concerned currency contract (address(0) == ETH)\n    /// @param currencyId The ID of the concerned currency (0 for ETH and ERC20)\n    /// @param challengerWallet The address of the concerned challenger wallet\n    /// @param blockNumber The disqualification block number\n    /// @param candidateHash The candidate hash\n    /// @param candidateType The candidate type\n    function disqualifyProposal(address challengedWallet, address currencyCt, uint256 currencyId, address challengerWallet,\n        uint256 blockNumber, bytes32 candidateHash, SettlementTypesLib.CandidateType candidateType)\n    public\n    onlyDriipSettlementDispute\n    {\n        // Get the proposal index\n        uint256 index = proposalIndexByWalletCurrency[challengedWallet][currencyCt][currencyId];\n        require(0 != index);\n\n        // Update proposal\n        proposals[index - 1].status = SettlementTypesLib.Status.Disqualified;\n        proposals[index - 1].expirationTime = block.timestamp.add(configuration.settlementChallengeTimeout());\n        proposals[index - 1].disqualification.challenger = challengerWallet;\n        proposals[index - 1].disqualification.blockNumber = blockNumber;\n        proposals[index - 1].disqualification.candidateHash = candidateHash;\n        proposals[index - 1].disqualification.candidateType = candidateType;\n\n        // Emit event\n        emit DisqualifyProposalEvent(\n            challengedWallet, currencyCt, currencyId, challengerWallet, candidateHash, candidateType\n        );\n    }\n\n    /// @notice (Re)Qualify a proposal\n    /// @param wallet The address of the concerned challenged wallet\n    /// @param currencyCt The address of the concerned currency contract (address(0) == ETH)\n    /// @param currencyId The ID of the concerned currency (0 for ETH and ERC20)\n    function qualifyProposal(address wallet, address currencyCt, uint256 currencyId)\n    public\n    onlyDriipSettlementDispute\n    {\n        // Get the proposal index\n        uint256 index = proposalIndexByWalletCurrency[wallet][currencyCt][currencyId];\n        require(0 != index);\n\n        // Emit event\n        emit QualifyProposalEvent(\n            wallet, currencyCt, currencyId,\n            proposals[index - 1].disqualification.challenger,\n            proposals[index - 1].disqualification.candidateHash,\n            proposals[index - 1].disqualification.candidateType\n        );\n\n        // Update proposal\n        proposals[index - 1].status = SettlementTypesLib.Status.Qualified;\n        proposals[index - 1].expirationTime = block.timestamp.add(configuration.settlementChallengeTimeout());\n        delete proposals[index - 1].disqualification;\n    }\n\n    /// @notice Challenge the settlement by providing order candidate\n    /// @param order The order candidate that challenges the challenged driip\n    function challengeByOrder(NahmiiTypesLib.Order order)\n    public\n    onlyOperationalModeNormal\n    {\n        driipSettlementDispute.challengeByOrder(order, msg.sender);\n    }\n\n    /// @notice Unchallenge settlement by providing trade that shows that challenge order candidate has been filled\n    /// @param order The order candidate that challenged driip\n    /// @param trade The trade in which order has been filled\n    function unchallengeOrderCandidateByTrade(NahmiiTypesLib.Order order, NahmiiTypesLib.Trade trade)\n    public\n    onlyOperationalModeNormal\n    {\n        driipSettlementDispute.unchallengeOrderCandidateByTrade(order, trade, msg.sender);\n    }\n\n    /// @notice Challenge the settlement by providing trade candidate\n    /// @param wallet The wallet whose settlement is being challenged\n    /// @param trade The trade candidate that challenges the challenged driip\n    function challengeByTrade(address wallet, NahmiiTypesLib.Trade trade)\n    public\n    onlyOperationalModeNormal\n    {\n        driipSettlementDispute.challengeByTrade(wallet, trade, msg.sender);\n    }\n\n    /// @notice Challenge the settlement by providing payment candidate\n    /// @param wallet The wallet whose settlement is being challenged\n    /// @param payment The payment candidate that challenges the challenged driip\n    function challengeByPayment(address wallet, NahmiiTypesLib.Payment payment)\n    public\n    onlyOperationalModeNormal\n    {\n        driipSettlementDispute.challengeByPayment(wallet, payment, msg.sender);\n    }\n\n    //\n    // Private functions\n    // -----------------------------------------------------------------------------------------------------------------\n    function _startChallengeFromTrade(address wallet, NahmiiTypesLib.Trade trade,\n        int256 intendedStageAmount, int256 conjugateStageAmount, bool balanceReward)\n    private\n    onlySealedTrade(trade)\n    {\n        // Require that current block number is beyond the earliest settlement challenge block number\n        require(block.number >= configuration.earliestSettlementBlockNumber());\n\n        // Require that given wallet is a trade party\n        require(validator.isTradeParty(trade, wallet));\n\n        // Require that wallet has no overlap with active proposals\n        require(hasProposalExpired(\n                wallet, trade.currencies.intended.ct, trade.currencies.intended.id\n            ));\n        require(hasProposalExpired(\n                wallet, trade.currencies.conjugate.ct, trade.currencies.conjugate.id\n            ));\n\n        // Create proposals\n        _addIntendedProposalFromTrade(wallet, trade, intendedStageAmount, balanceReward);\n        _addConjugateProposalFromTrade(wallet, trade, conjugateStageAmount, balanceReward);\n\n        // Add wallet to store of challenge wallets\n        _addToChallengeWallets(wallet);\n\n        // Store driip hashes\n        challengeTradeHashes.push(trade.seal.hash);\n        challengeTradeHashIndicesByWallet[wallet].push(challengeTradeHashes.length);\n    }\n\n    function _startChallengeFromPayment(address wallet, NahmiiTypesLib.Payment payment,\n        int256 stageAmount, bool balanceReward)\n    private\n    onlySealedPayment(payment)\n    {\n        // Require that current block number is beyond the earliest settlement challenge block number\n        require(block.number >= configuration.earliestSettlementBlockNumber());\n\n        // Require that given wallet is a payment party\n        require(validator.isPaymentParty(payment, wallet));\n\n        // Require that wallet has no overlap with active proposal\n        require(\n            hasProposalExpired(\n                wallet, payment.currency.ct, payment.currency.id\n            )\n        );\n\n        // Create proposal\n        _addProposalFromPayment(wallet, payment, stageAmount, balanceReward);\n\n        // Add wallet to store of challenge wallets\n        _addToChallengeWallets(wallet);\n\n        // Store driip hashes\n        challengePaymentHashes.push(payment.seals.operator.hash);\n        challengePaymentHashIndicesByWallet[wallet].push(challengePaymentHashes.length);\n    }\n\n    function _addIntendedProposalFromTrade(address wallet, NahmiiTypesLib.Trade trade, int256 stageAmount, bool balanceReward)\n    private\n    {\n        _addProposalFromTrade(\n            wallet, trade, stageAmount,\n            _tradeIntendedBalanceAmount(trade, wallet),\n            trade.currencies.intended, balanceReward\n        );\n    }\n\n    function _addConjugateProposalFromTrade(address wallet, NahmiiTypesLib.Trade trade, int256 stageAmount, bool balanceReward)\n    private\n    {\n        _addProposalFromTrade(\n            wallet, trade, stageAmount,\n            _tradeConjugateBalanceAmount(trade, wallet),\n            trade.currencies.conjugate, balanceReward\n        );\n    }\n\n    function _addProposalFromTrade(address wallet, NahmiiTypesLib.Trade trade, int256 stageAmount,\n        int256 balanceAmount, MonetaryTypesLib.Currency currency, bool balanceReward)\n    private\n    {\n        // Require that stage amount is positive\n        require(stageAmount.isPositiveInt256());\n\n        // Require that balance amount is not less than stage amount\n        require(balanceAmount >= stageAmount);\n\n        // Create proposal\n        proposals.length++;\n\n        // Populate proposal\n        proposals[proposals.length - 1].wallet = wallet;\n        proposals[proposals.length - 1].nonce = trade.nonce;\n        proposals[proposals.length - 1].blockNumber = trade.blockNumber;\n        proposals[proposals.length - 1].expirationTime = block.timestamp.add(configuration.settlementChallengeTimeout());\n        proposals[proposals.length - 1].status = SettlementTypesLib.Status.Qualified;\n        proposals[proposals.length - 1].currency = currency;\n        proposals[proposals.length - 1].stageAmount = stageAmount;\n        proposals[proposals.length - 1].targetBalanceAmount = balanceAmount.sub(stageAmount);\n        proposals[proposals.length - 1].driipHash = trade.seal.hash;\n        proposals[proposals.length - 1].driipType = NahmiiTypesLib.DriipType.Trade;\n        proposals[proposals.length - 1].balanceReward = balanceReward;\n\n        // Store proposal index\n        proposalIndexByWalletCurrency[wallet][currency.ct][currency.id] = proposals.length;\n        proposalIndicesByWallet[wallet].push(proposals.length);\n    }\n\n    function _addProposalFromPayment(address wallet, NahmiiTypesLib.Payment payment, int256 stageAmount,\n        bool balanceReward)\n    private\n    {\n        // Require that stage amount is positive\n        require(stageAmount.isPositiveInt256());\n\n        // Deduce the concerned balance amount\n        int256 balanceAmount = _paymentBalanceAmount(payment, wallet);\n\n        // Require that balance amount is not less than stage amount\n        require(balanceAmount >= stageAmount);\n\n        // Create proposal\n        proposals.length++;\n\n        // Populate proposal\n        proposals[proposals.length - 1].wallet = wallet;\n        proposals[proposals.length - 1].nonce = payment.nonce;\n        proposals[proposals.length - 1].blockNumber = payment.blockNumber;\n        proposals[proposals.length - 1].expirationTime = block.timestamp.add(configuration.settlementChallengeTimeout());\n        proposals[proposals.length - 1].status = SettlementTypesLib.Status.Qualified;\n        proposals[proposals.length - 1].currency = payment.currency;\n        proposals[proposals.length - 1].stageAmount = stageAmount;\n        proposals[proposals.length - 1].targetBalanceAmount = balanceAmount.sub(stageAmount);\n        proposals[proposals.length - 1].driipHash = payment.seals.operator.hash;\n        proposals[proposals.length - 1].driipType = NahmiiTypesLib.DriipType.Payment;\n        proposals[proposals.length - 1].balanceReward = balanceReward;\n\n        // Store proposal index\n        proposalIndexByWalletCurrency[wallet][payment.currency.ct][payment.currency.id] = proposals.length;\n        proposalIndicesByWallet[wallet].push(proposals.length);\n    }\n\n    function _tradeIntendedBalanceAmount(NahmiiTypesLib.Trade trade, address wallet)\n    private\n    view\n    returns (int256)\n    {\n        return validator.isTradeBuyer(trade, wallet) ?\n        trade.buyer.balances.intended.current :\n        trade.seller.balances.intended.current;\n    }\n\n    function _tradeConjugateBalanceAmount(NahmiiTypesLib.Trade trade, address wallet)\n    private\n    view\n    returns (int256)\n    {\n        return validator.isTradeBuyer(trade, wallet) ?\n        trade.buyer.balances.conjugate.current :\n        trade.seller.balances.conjugate.current;\n    }\n\n    function _paymentBalanceAmount(NahmiiTypesLib.Payment payment, address wallet)\n    private\n    view\n    returns (int256)\n    {\n        return validator.isPaymentSender(payment, wallet) ?\n        payment.sender.balances.current :\n        payment.recipient.balances.current;\n    }\n\n    function _addToChallengeWallets(address wallet)\n    private\n    {\n        if (!challengeByWallets[wallet]) {\n            challengeByWallets[wallet] = true;\n            challengeWallets.push(wallet);\n        }\n    }\n\n    //\n    // Modifiers\n    // -----------------------------------------------------------------------------------------------------------------\n    modifier onlyDriipSettlementDispute() {\n        require(msg.sender == address(driipSettlementDispute));\n        _;\n    }\n}\n",
    "sourcePath": "/opt/buildagent/work/855e104608380c36/contracts/DriipSettlementChallenge.sol",
    "compiler": {
        "name": "solc",
        "version": "0.4.25+commit.59dbf8f1.Emscripten.clang"
    },
    "schemaVersion": "2.0.1",
    "updatedAt": "2019-01-31T11:28:29.847Z"
}