{
    "contractName": "DriipSettlementByPayment",
    "abi": [
        {
            "constant": false,
            "inputs": [
                {
                    "name": "newFraudChallenge",
                    "type": "address"
                }
            ],
            "name": "setFraudChallenge",
            "outputs": [],
            "payable": false,
            "stateMutability": "nonpayable",
            "type": "function"
        },
        {
            "constant": false,
            "inputs": [
                {
                    "name": "newValidator",
                    "type": "address"
                }
            ],
            "name": "setValidator",
            "outputs": [],
            "payable": false,
            "stateMutability": "nonpayable",
            "type": "function"
        },
        {
            "constant": true,
            "inputs": [],
            "name": "walletLockerFrozen",
            "outputs": [
                {
                    "name": "",
                    "type": "bool"
                }
            ],
            "payable": false,
            "stateMutability": "view",
            "type": "function"
        },
        {
            "constant": true,
            "inputs": [],
            "name": "driipSettlementState",
            "outputs": [
                {
                    "name": "",
                    "type": "address"
                }
            ],
            "payable": false,
            "stateMutability": "view",
            "type": "function"
        },
        {
            "constant": false,
            "inputs": [],
            "name": "triggerSelfDestruction",
            "outputs": [],
            "payable": false,
            "stateMutability": "nonpayable",
            "type": "function"
        },
        {
            "constant": true,
            "inputs": [],
            "name": "selfDestructionDisabled",
            "outputs": [
                {
                    "name": "",
                    "type": "bool"
                }
            ],
            "payable": false,
            "stateMutability": "view",
            "type": "function"
        },
        {
            "constant": true,
            "inputs": [],
            "name": "validator",
            "outputs": [
                {
                    "name": "",
                    "type": "address"
                }
            ],
            "payable": false,
            "stateMutability": "view",
            "type": "function"
        },
        {
            "constant": true,
            "inputs": [],
            "name": "fraudChallenge",
            "outputs": [
                {
                    "name": "",
                    "type": "address"
                }
            ],
            "payable": false,
            "stateMutability": "view",
            "type": "function"
        },
        {
            "constant": true,
            "inputs": [],
            "name": "destructor",
            "outputs": [
                {
                    "name": "",
                    "type": "address"
                }
            ],
            "payable": false,
            "stateMutability": "view",
            "type": "function"
        },
        {
            "constant": true,
            "inputs": [],
            "name": "driipSettlementChallengeState",
            "outputs": [
                {
                    "name": "",
                    "type": "address"
                }
            ],
            "payable": false,
            "stateMutability": "view",
            "type": "function"
        },
        {
            "constant": true,
            "inputs": [],
            "name": "operator",
            "outputs": [
                {
                    "name": "",
                    "type": "address"
                }
            ],
            "payable": false,
            "stateMutability": "view",
            "type": "function"
        },
        {
            "constant": false,
            "inputs": [],
            "name": "freezeWalletLocker",
            "outputs": [],
            "payable": false,
            "stateMutability": "nonpayable",
            "type": "function"
        },
        {
            "constant": false,
            "inputs": [
                {
                    "name": "newConfiguration",
                    "type": "address"
                }
            ],
            "name": "setConfiguration",
            "outputs": [],
            "payable": false,
            "stateMutability": "nonpayable",
            "type": "function"
        },
        {
            "constant": false,
            "inputs": [],
            "name": "freezeCommunityVote",
            "outputs": [],
            "payable": false,
            "stateMutability": "nonpayable",
            "type": "function"
        },
        {
            "constant": true,
            "inputs": [],
            "name": "configuration",
            "outputs": [
                {
                    "name": "",
                    "type": "address"
                }
            ],
            "payable": false,
            "stateMutability": "view",
            "type": "function"
        },
        {
            "constant": false,
            "inputs": [],
            "name": "disableSelfDestruction",
            "outputs": [],
            "payable": false,
            "stateMutability": "nonpayable",
            "type": "function"
        },
        {
            "constant": false,
            "inputs": [
                {
                    "name": "newWalletLocker",
                    "type": "address"
                }
            ],
            "name": "setWalletLocker",
            "outputs": [],
            "payable": false,
            "stateMutability": "nonpayable",
            "type": "function"
        },
        {
            "constant": true,
            "inputs": [],
            "name": "communityVoteFrozen",
            "outputs": [
                {
                    "name": "",
                    "type": "bool"
                }
            ],
            "payable": false,
            "stateMutability": "view",
            "type": "function"
        },
        {
            "constant": true,
            "inputs": [],
            "name": "revenueFund",
            "outputs": [
                {
                    "name": "",
                    "type": "address"
                }
            ],
            "payable": false,
            "stateMutability": "view",
            "type": "function"
        },
        {
            "constant": false,
            "inputs": [
                {
                    "name": "newDeployer",
                    "type": "address"
                }
            ],
            "name": "setDeployer",
            "outputs": [],
            "payable": false,
            "stateMutability": "nonpayable",
            "type": "function"
        },
        {
            "constant": false,
            "inputs": [
                {
                    "name": "newOperator",
                    "type": "address"
                }
            ],
            "name": "setOperator",
            "outputs": [],
            "payable": false,
            "stateMutability": "nonpayable",
            "type": "function"
        },
        {
            "constant": false,
            "inputs": [
                {
                    "name": "newClientFund",
                    "type": "address"
                }
            ],
            "name": "setClientFund",
            "outputs": [],
            "payable": false,
            "stateMutability": "nonpayable",
            "type": "function"
        },
        {
            "constant": true,
            "inputs": [],
            "name": "communityVote",
            "outputs": [
                {
                    "name": "",
                    "type": "address"
                }
            ],
            "payable": false,
            "stateMutability": "view",
            "type": "function"
        },
        {
            "constant": true,
            "inputs": [],
            "name": "deployer",
            "outputs": [
                {
                    "name": "",
                    "type": "address"
                }
            ],
            "payable": false,
            "stateMutability": "view",
            "type": "function"
        },
        {
            "constant": true,
            "inputs": [],
            "name": "clientFund",
            "outputs": [
                {
                    "name": "",
                    "type": "address"
                }
            ],
            "payable": false,
            "stateMutability": "view",
            "type": "function"
        },
        {
            "constant": false,
            "inputs": [
                {
                    "name": "newCommunityVote",
                    "type": "address"
                }
            ],
            "name": "setCommunityVote",
            "outputs": [],
            "payable": false,
            "stateMutability": "nonpayable",
            "type": "function"
        },
        {
            "constant": true,
            "inputs": [],
            "name": "walletLocker",
            "outputs": [
                {
                    "name": "",
                    "type": "address"
                }
            ],
            "payable": false,
            "stateMutability": "view",
            "type": "function"
        },
        {
            "constant": true,
            "inputs": [],
            "name": "partnerFund",
            "outputs": [
                {
                    "name": "",
                    "type": "address"
                }
            ],
            "payable": false,
            "stateMutability": "view",
            "type": "function"
        },
        {
            "inputs": [
                {
                    "name": "deployer",
                    "type": "address"
                }
            ],
            "payable": false,
            "stateMutability": "nonpayable",
            "type": "constructor"
        },
        {
            "anonymous": false,
            "inputs": [
                {
                    "indexed": false,
                    "name": "wallet",
                    "type": "address"
                },
                {
                    "components": [
                        {
                            "name": "nonce",
                            "type": "uint256"
                        },
                        {
                            "name": "amount",
                            "type": "int256"
                        },
                        {
                            "components": [
                                {
                                    "name": "ct",
                                    "type": "address"
                                },
                                {
                                    "name": "id",
                                    "type": "uint256"
                                }
                            ],
                            "name": "currency",
                            "type": "tuple"
                        },
                        {
                            "components": [
                                {
                                    "name": "nonce",
                                    "type": "uint256"
                                },
                                {
                                    "name": "wallet",
                                    "type": "address"
                                },
                                {
                                    "components": [
                                        {
                                            "name": "current",
                                            "type": "int256"
                                        },
                                        {
                                            "name": "previous",
                                            "type": "int256"
                                        }
                                    ],
                                    "name": "balances",
                                    "type": "tuple"
                                },
                                {
                                    "components": [
                                        {
                                            "components": [
                                                {
                                                    "name": "amount",
                                                    "type": "int256"
                                                },
                                                {
                                                    "components": [
                                                        {
                                                            "name": "ct",
                                                            "type": "address"
                                                        },
                                                        {
                                                            "name": "id",
                                                            "type": "uint256"
                                                        }
                                                    ],
                                                    "name": "currency",
                                                    "type": "tuple"
                                                }
                                            ],
                                            "name": "single",
                                            "type": "tuple"
                                        },
                                        {
                                            "components": [
                                                {
                                                    "name": "originId",
                                                    "type": "uint256"
                                                },
                                                {
                                                    "components": [
                                                        {
                                                            "name": "amount",
                                                            "type": "int256"
                                                        },
                                                        {
                                                            "components": [
                                                                {
                                                                    "name": "ct",
                                                                    "type": "address"
                                                                },
                                                                {
                                                                    "name": "id",
                                                                    "type": "uint256"
                                                                }
                                                            ],
                                                            "name": "currency",
                                                            "type": "tuple"
                                                        }
                                                    ],
                                                    "name": "figure",
                                                    "type": "tuple"
                                                }
                                            ],
                                            "name": "total",
                                            "type": "tuple[]"
                                        }
                                    ],
                                    "name": "fees",
                                    "type": "tuple"
                                }
                            ],
                            "name": "sender",
                            "type": "tuple"
                        },
                        {
                            "components": [
                                {
                                    "name": "nonce",
                                    "type": "uint256"
                                },
                                {
                                    "name": "wallet",
                                    "type": "address"
                                },
                                {
                                    "components": [
                                        {
                                            "name": "current",
                                            "type": "int256"
                                        },
                                        {
                                            "name": "previous",
                                            "type": "int256"
                                        }
                                    ],
                                    "name": "balances",
                                    "type": "tuple"
                                },
                                {
                                    "components": [
                                        {
                                            "components": [
                                                {
                                                    "name": "originId",
                                                    "type": "uint256"
                                                },
                                                {
                                                    "components": [
                                                        {
                                                            "name": "amount",
                                                            "type": "int256"
                                                        },
                                                        {
                                                            "components": [
                                                                {
                                                                    "name": "ct",
                                                                    "type": "address"
                                                                },
                                                                {
                                                                    "name": "id",
                                                                    "type": "uint256"
                                                                }
                                                            ],
                                                            "name": "currency",
                                                            "type": "tuple"
                                                        }
                                                    ],
                                                    "name": "figure",
                                                    "type": "tuple"
                                                }
                                            ],
                                            "name": "total",
                                            "type": "tuple[]"
                                        }
                                    ],
                                    "name": "fees",
                                    "type": "tuple"
                                }
                            ],
                            "name": "recipient",
                            "type": "tuple"
                        },
                        {
                            "components": [
                                {
                                    "name": "single",
                                    "type": "int256"
                                },
                                {
                                    "name": "total",
                                    "type": "int256"
                                }
                            ],
                            "name": "transfers",
                            "type": "tuple"
                        },
                        {
                            "components": [
                                {
                                    "components": [
                                        {
                                            "name": "hash",
                                            "type": "bytes32"
                                        },
                                        {
                                            "components": [
                                                {
                                                    "name": "r",
                                                    "type": "bytes32"
                                                },
                                                {
                                                    "name": "s",
                                                    "type": "bytes32"
                                                },
                                                {
                                                    "name": "v",
                                                    "type": "uint8"
                                                }
                                            ],
                                            "name": "signature",
                                            "type": "tuple"
                                        }
                                    ],
                                    "name": "wallet",
                                    "type": "tuple"
                                },
                                {
                                    "components": [
                                        {
                                            "name": "hash",
                                            "type": "bytes32"
                                        },
                                        {
                                            "components": [
                                                {
                                                    "name": "r",
                                                    "type": "bytes32"
                                                },
                                                {
                                                    "name": "s",
                                                    "type": "bytes32"
                                                },
                                                {
                                                    "name": "v",
                                                    "type": "uint8"
                                                }
                                            ],
                                            "name": "signature",
                                            "type": "tuple"
                                        }
                                    ],
                                    "name": "operator",
                                    "type": "tuple"
                                }
                            ],
                            "name": "seals",
                            "type": "tuple"
                        },
                        {
                            "name": "blockNumber",
                            "type": "uint256"
                        },
                        {
                            "name": "operatorId",
                            "type": "uint256"
                        }
                    ],
                    "indexed": false,
                    "name": "payment",
                    "type": "tuple"
                }
            ],
            "name": "SettlePaymentEvent",
            "type": "event"
        },
        {
            "anonymous": false,
            "inputs": [
                {
                    "indexed": false,
                    "name": "proxy",
                    "type": "address"
                },
                {
                    "indexed": false,
                    "name": "wallet",
                    "type": "address"
                },
                {
                    "components": [
                        {
                            "name": "nonce",
                            "type": "uint256"
                        },
                        {
                            "name": "amount",
                            "type": "int256"
                        },
                        {
                            "components": [
                                {
                                    "name": "ct",
                                    "type": "address"
                                },
                                {
                                    "name": "id",
                                    "type": "uint256"
                                }
                            ],
                            "name": "currency",
                            "type": "tuple"
                        },
                        {
                            "components": [
                                {
                                    "name": "nonce",
                                    "type": "uint256"
                                },
                                {
                                    "name": "wallet",
                                    "type": "address"
                                },
                                {
                                    "components": [
                                        {
                                            "name": "current",
                                            "type": "int256"
                                        },
                                        {
                                            "name": "previous",
                                            "type": "int256"
                                        }
                                    ],
                                    "name": "balances",
                                    "type": "tuple"
                                },
                                {
                                    "components": [
                                        {
                                            "components": [
                                                {
                                                    "name": "amount",
                                                    "type": "int256"
                                                },
                                                {
                                                    "components": [
                                                        {
                                                            "name": "ct",
                                                            "type": "address"
                                                        },
                                                        {
                                                            "name": "id",
                                                            "type": "uint256"
                                                        }
                                                    ],
                                                    "name": "currency",
                                                    "type": "tuple"
                                                }
                                            ],
                                            "name": "single",
                                            "type": "tuple"
                                        },
                                        {
                                            "components": [
                                                {
                                                    "name": "originId",
                                                    "type": "uint256"
                                                },
                                                {
                                                    "components": [
                                                        {
                                                            "name": "amount",
                                                            "type": "int256"
                                                        },
                                                        {
                                                            "components": [
                                                                {
                                                                    "name": "ct",
                                                                    "type": "address"
                                                                },
                                                                {
                                                                    "name": "id",
                                                                    "type": "uint256"
                                                                }
                                                            ],
                                                            "name": "currency",
                                                            "type": "tuple"
                                                        }
                                                    ],
                                                    "name": "figure",
                                                    "type": "tuple"
                                                }
                                            ],
                                            "name": "total",
                                            "type": "tuple[]"
                                        }
                                    ],
                                    "name": "fees",
                                    "type": "tuple"
                                }
                            ],
                            "name": "sender",
                            "type": "tuple"
                        },
                        {
                            "components": [
                                {
                                    "name": "nonce",
                                    "type": "uint256"
                                },
                                {
                                    "name": "wallet",
                                    "type": "address"
                                },
                                {
                                    "components": [
                                        {
                                            "name": "current",
                                            "type": "int256"
                                        },
                                        {
                                            "name": "previous",
                                            "type": "int256"
                                        }
                                    ],
                                    "name": "balances",
                                    "type": "tuple"
                                },
                                {
                                    "components": [
                                        {
                                            "components": [
                                                {
                                                    "name": "originId",
                                                    "type": "uint256"
                                                },
                                                {
                                                    "components": [
                                                        {
                                                            "name": "amount",
                                                            "type": "int256"
                                                        },
                                                        {
                                                            "components": [
                                                                {
                                                                    "name": "ct",
                                                                    "type": "address"
                                                                },
                                                                {
                                                                    "name": "id",
                                                                    "type": "uint256"
                                                                }
                                                            ],
                                                            "name": "currency",
                                                            "type": "tuple"
                                                        }
                                                    ],
                                                    "name": "figure",
                                                    "type": "tuple"
                                                }
                                            ],
                                            "name": "total",
                                            "type": "tuple[]"
                                        }
                                    ],
                                    "name": "fees",
                                    "type": "tuple"
                                }
                            ],
                            "name": "recipient",
                            "type": "tuple"
                        },
                        {
                            "components": [
                                {
                                    "name": "single",
                                    "type": "int256"
                                },
                                {
                                    "name": "total",
                                    "type": "int256"
                                }
                            ],
                            "name": "transfers",
                            "type": "tuple"
                        },
                        {
                            "components": [
                                {
                                    "components": [
                                        {
                                            "name": "hash",
                                            "type": "bytes32"
                                        },
                                        {
                                            "components": [
                                                {
                                                    "name": "r",
                                                    "type": "bytes32"
                                                },
                                                {
                                                    "name": "s",
                                                    "type": "bytes32"
                                                },
                                                {
                                                    "name": "v",
                                                    "type": "uint8"
                                                }
                                            ],
                                            "name": "signature",
                                            "type": "tuple"
                                        }
                                    ],
                                    "name": "wallet",
                                    "type": "tuple"
                                },
                                {
                                    "components": [
                                        {
                                            "name": "hash",
                                            "type": "bytes32"
                                        },
                                        {
                                            "components": [
                                                {
                                                    "name": "r",
                                                    "type": "bytes32"
                                                },
                                                {
                                                    "name": "s",
                                                    "type": "bytes32"
                                                },
                                                {
                                                    "name": "v",
                                                    "type": "uint8"
                                                }
                                            ],
                                            "name": "signature",
                                            "type": "tuple"
                                        }
                                    ],
                                    "name": "operator",
                                    "type": "tuple"
                                }
                            ],
                            "name": "seals",
                            "type": "tuple"
                        },
                        {
                            "name": "blockNumber",
                            "type": "uint256"
                        },
                        {
                            "name": "operatorId",
                            "type": "uint256"
                        }
                    ],
                    "indexed": false,
                    "name": "payment",
                    "type": "tuple"
                }
            ],
            "name": "SettlePaymentByProxyEvent",
            "type": "event"
        },
        {
            "anonymous": false,
            "inputs": [
                {
                    "indexed": false,
                    "name": "oldDriipSettlementChallengeState",
                    "type": "address"
                },
                {
                    "indexed": false,
                    "name": "newDriipSettlementChallengeState",
                    "type": "address"
                }
            ],
            "name": "SetDriipSettlementChallengeStateEvent",
            "type": "event"
        },
        {
            "anonymous": false,
            "inputs": [
                {
                    "indexed": false,
                    "name": "oldDriipSettlementState",
                    "type": "address"
                },
                {
                    "indexed": false,
                    "name": "newDriipSettlementState",
                    "type": "address"
                }
            ],
            "name": "SetDriipSettlementStateEvent",
            "type": "event"
        },
        {
            "anonymous": false,
            "inputs": [
                {
                    "indexed": false,
                    "name": "oldRevenueFund",
                    "type": "address"
                },
                {
                    "indexed": false,
                    "name": "newRevenueFund",
                    "type": "address"
                }
            ],
            "name": "SetRevenueFundEvent",
            "type": "event"
        },
        {
            "anonymous": false,
            "inputs": [
                {
                    "indexed": false,
                    "name": "oldPartnerFund",
                    "type": "address"
                },
                {
                    "indexed": false,
                    "name": "newPartnerFund",
                    "type": "address"
                }
            ],
            "name": "SetPartnerFundEvent",
            "type": "event"
        },
        {
            "anonymous": false,
            "inputs": [
                {
                    "indexed": false,
                    "name": "wallet",
                    "type": "address"
                },
                {
                    "indexed": false,
                    "name": "deltaAmount",
                    "type": "int256"
                },
                {
                    "indexed": false,
                    "name": "cumulativeAmount",
                    "type": "int256"
                },
                {
                    "indexed": false,
                    "name": "currencyCt",
                    "type": "address"
                },
                {
                    "indexed": false,
                    "name": "currencyId",
                    "type": "uint256"
                }
            ],
            "name": "StageFeesEvent",
            "type": "event"
        },
        {
            "anonymous": false,
            "inputs": [
                {
                    "indexed": false,
                    "name": "oldWalletLocker",
                    "type": "address"
                },
                {
                    "indexed": false,
                    "name": "newWalletLocker",
                    "type": "address"
                }
            ],
            "name": "SetWalletLockerEvent",
            "type": "event"
        },
        {
            "anonymous": false,
            "inputs": [],
            "name": "FreezeWalletLockerEvent",
            "type": "event"
        },
        {
            "anonymous": false,
            "inputs": [
                {
                    "indexed": false,
                    "name": "oldFraudChallenge",
                    "type": "address"
                },
                {
                    "indexed": false,
                    "name": "newFraudChallenge",
                    "type": "address"
                }
            ],
            "name": "SetFraudChallengeEvent",
            "type": "event"
        },
        {
            "anonymous": false,
            "inputs": [
                {
                    "indexed": false,
                    "name": "oldCommunityVote",
                    "type": "address"
                },
                {
                    "indexed": false,
                    "name": "newCommunityVote",
                    "type": "address"
                }
            ],
            "name": "SetCommunityVoteEvent",
            "type": "event"
        },
        {
            "anonymous": false,
            "inputs": [],
            "name": "FreezeCommunityVoteEvent",
            "type": "event"
        },
        {
            "anonymous": false,
            "inputs": [
                {
                    "indexed": false,
                    "name": "oldClientFund",
                    "type": "address"
                },
                {
                    "indexed": false,
                    "name": "newClientFund",
                    "type": "address"
                }
            ],
            "name": "SetClientFundEvent",
            "type": "event"
        },
        {
            "anonymous": false,
            "inputs": [
                {
                    "indexed": false,
                    "name": "oldValidator",
                    "type": "address"
                },
                {
                    "indexed": false,
                    "name": "newValidator",
                    "type": "address"
                }
            ],
            "name": "SetValidatorEvent",
            "type": "event"
        },
        {
            "anonymous": false,
            "inputs": [
                {
                    "indexed": false,
                    "name": "oldConfiguration",
                    "type": "address"
                },
                {
                    "indexed": false,
                    "name": "newConfiguration",
                    "type": "address"
                }
            ],
            "name": "SetConfigurationEvent",
            "type": "event"
        },
        {
            "anonymous": false,
            "inputs": [
                {
                    "indexed": false,
                    "name": "oldDeployer",
                    "type": "address"
                },
                {
                    "indexed": false,
                    "name": "newDeployer",
                    "type": "address"
                }
            ],
            "name": "SetDeployerEvent",
            "type": "event"
        },
        {
            "anonymous": false,
            "inputs": [
                {
                    "indexed": false,
                    "name": "oldOperator",
                    "type": "address"
                },
                {
                    "indexed": false,
                    "name": "newOperator",
                    "type": "address"
                }
            ],
            "name": "SetOperatorEvent",
            "type": "event"
        },
        {
            "anonymous": false,
            "inputs": [
                {
                    "indexed": false,
                    "name": "wallet",
                    "type": "address"
                }
            ],
            "name": "SelfDestructionDisabledEvent",
            "type": "event"
        },
        {
            "anonymous": false,
            "inputs": [
                {
                    "indexed": false,
                    "name": "wallet",
                    "type": "address"
                }
            ],
            "name": "TriggerSelfDestructionEvent",
            "type": "event"
        },
        {
            "constant": false,
            "inputs": [
                {
                    "name": "newDriipSettlementChallengeState",
                    "type": "address"
                }
            ],
            "name": "setDriipSettlementChallengeState",
            "outputs": [],
            "payable": false,
            "stateMutability": "nonpayable",
            "type": "function"
        },
        {
            "constant": false,
            "inputs": [
                {
                    "name": "newDriipSettlementState",
                    "type": "address"
                }
            ],
            "name": "setDriipSettlementState",
            "outputs": [],
            "payable": false,
            "stateMutability": "nonpayable",
            "type": "function"
        },
        {
            "constant": false,
            "inputs": [
                {
                    "name": "newRevenueFund",
                    "type": "address"
                }
            ],
            "name": "setRevenueFund",
            "outputs": [],
            "payable": false,
            "stateMutability": "nonpayable",
            "type": "function"
        },
        {
            "constant": false,
            "inputs": [
                {
                    "name": "newPartnerFund",
                    "type": "address"
                }
            ],
            "name": "setPartnerFund",
            "outputs": [],
            "payable": false,
            "stateMutability": "nonpayable",
            "type": "function"
        },
        {
            "constant": true,
            "inputs": [],
            "name": "settlementsCount",
            "outputs": [
                {
                    "name": "",
                    "type": "uint256"
                }
            ],
            "payable": false,
            "stateMutability": "view",
            "type": "function"
        },
        {
            "constant": true,
            "inputs": [
                {
                    "name": "wallet",
                    "type": "address"
                }
            ],
            "name": "settlementsCountByWallet",
            "outputs": [
                {
                    "name": "",
                    "type": "uint256"
                }
            ],
            "payable": false,
            "stateMutability": "view",
            "type": "function"
        },
        {
            "constant": true,
            "inputs": [
                {
                    "name": "wallet",
                    "type": "address"
                },
                {
                    "name": "index",
                    "type": "uint256"
                }
            ],
            "name": "settlementByWalletAndIndex",
            "outputs": [
                {
                    "components": [
                        {
                            "name": "settledType",
                            "type": "string"
                        },
                        {
                            "name": "settledHash",
                            "type": "bytes32"
                        },
                        {
                            "components": [
                                {
                                    "name": "nonce",
                                    "type": "uint256"
                                },
                                {
                                    "name": "wallet",
                                    "type": "address"
                                },
                                {
                                    "name": "done",
                                    "type": "bool"
                                }
                            ],
                            "name": "origin",
                            "type": "tuple"
                        },
                        {
                            "components": [
                                {
                                    "name": "nonce",
                                    "type": "uint256"
                                },
                                {
                                    "name": "wallet",
                                    "type": "address"
                                },
                                {
                                    "name": "done",
                                    "type": "bool"
                                }
                            ],
                            "name": "target",
                            "type": "tuple"
                        }
                    ],
                    "name": "",
                    "type": "tuple"
                }
            ],
            "payable": false,
            "stateMutability": "view",
            "type": "function"
        },
        {
            "constant": true,
            "inputs": [
                {
                    "name": "wallet",
                    "type": "address"
                },
                {
                    "name": "nonce",
                    "type": "uint256"
                }
            ],
            "name": "settlementByWalletAndNonce",
            "outputs": [
                {
                    "components": [
                        {
                            "name": "settledType",
                            "type": "string"
                        },
                        {
                            "name": "settledHash",
                            "type": "bytes32"
                        },
                        {
                            "components": [
                                {
                                    "name": "nonce",
                                    "type": "uint256"
                                },
                                {
                                    "name": "wallet",
                                    "type": "address"
                                },
                                {
                                    "name": "done",
                                    "type": "bool"
                                }
                            ],
                            "name": "origin",
                            "type": "tuple"
                        },
                        {
                            "components": [
                                {
                                    "name": "nonce",
                                    "type": "uint256"
                                },
                                {
                                    "name": "wallet",
                                    "type": "address"
                                },
                                {
                                    "name": "done",
                                    "type": "bool"
                                }
                            ],
                            "name": "target",
                            "type": "tuple"
                        }
                    ],
                    "name": "",
                    "type": "tuple"
                }
            ],
            "payable": false,
            "stateMutability": "view",
            "type": "function"
        },
        {
            "constant": false,
            "inputs": [
                {
                    "components": [
                        {
                            "name": "nonce",
                            "type": "uint256"
                        },
                        {
                            "name": "amount",
                            "type": "int256"
                        },
                        {
                            "components": [
                                {
                                    "name": "ct",
                                    "type": "address"
                                },
                                {
                                    "name": "id",
                                    "type": "uint256"
                                }
                            ],
                            "name": "currency",
                            "type": "tuple"
                        },
                        {
                            "components": [
                                {
                                    "name": "nonce",
                                    "type": "uint256"
                                },
                                {
                                    "name": "wallet",
                                    "type": "address"
                                },
                                {
                                    "components": [
                                        {
                                            "name": "current",
                                            "type": "int256"
                                        },
                                        {
                                            "name": "previous",
                                            "type": "int256"
                                        }
                                    ],
                                    "name": "balances",
                                    "type": "tuple"
                                },
                                {
                                    "components": [
                                        {
                                            "components": [
                                                {
                                                    "name": "amount",
                                                    "type": "int256"
                                                },
                                                {
                                                    "components": [
                                                        {
                                                            "name": "ct",
                                                            "type": "address"
                                                        },
                                                        {
                                                            "name": "id",
                                                            "type": "uint256"
                                                        }
                                                    ],
                                                    "name": "currency",
                                                    "type": "tuple"
                                                }
                                            ],
                                            "name": "single",
                                            "type": "tuple"
                                        },
                                        {
                                            "components": [
                                                {
                                                    "name": "originId",
                                                    "type": "uint256"
                                                },
                                                {
                                                    "components": [
                                                        {
                                                            "name": "amount",
                                                            "type": "int256"
                                                        },
                                                        {
                                                            "components": [
                                                                {
                                                                    "name": "ct",
                                                                    "type": "address"
                                                                },
                                                                {
                                                                    "name": "id",
                                                                    "type": "uint256"
                                                                }
                                                            ],
                                                            "name": "currency",
                                                            "type": "tuple"
                                                        }
                                                    ],
                                                    "name": "figure",
                                                    "type": "tuple"
                                                }
                                            ],
                                            "name": "total",
                                            "type": "tuple[]"
                                        }
                                    ],
                                    "name": "fees",
                                    "type": "tuple"
                                }
                            ],
                            "name": "sender",
                            "type": "tuple"
                        },
                        {
                            "components": [
                                {
                                    "name": "nonce",
                                    "type": "uint256"
                                },
                                {
                                    "name": "wallet",
                                    "type": "address"
                                },
                                {
                                    "components": [
                                        {
                                            "name": "current",
                                            "type": "int256"
                                        },
                                        {
                                            "name": "previous",
                                            "type": "int256"
                                        }
                                    ],
                                    "name": "balances",
                                    "type": "tuple"
                                },
                                {
                                    "components": [
                                        {
                                            "components": [
                                                {
                                                    "name": "originId",
                                                    "type": "uint256"
                                                },
                                                {
                                                    "components": [
                                                        {
                                                            "name": "amount",
                                                            "type": "int256"
                                                        },
                                                        {
                                                            "components": [
                                                                {
                                                                    "name": "ct",
                                                                    "type": "address"
                                                                },
                                                                {
                                                                    "name": "id",
                                                                    "type": "uint256"
                                                                }
                                                            ],
                                                            "name": "currency",
                                                            "type": "tuple"
                                                        }
                                                    ],
                                                    "name": "figure",
                                                    "type": "tuple"
                                                }
                                            ],
                                            "name": "total",
                                            "type": "tuple[]"
                                        }
                                    ],
                                    "name": "fees",
                                    "type": "tuple"
                                }
                            ],
                            "name": "recipient",
                            "type": "tuple"
                        },
                        {
                            "components": [
                                {
                                    "name": "single",
                                    "type": "int256"
                                },
                                {
                                    "name": "total",
                                    "type": "int256"
                                }
                            ],
                            "name": "transfers",
                            "type": "tuple"
                        },
                        {
                            "components": [
                                {
                                    "components": [
                                        {
                                            "name": "hash",
                                            "type": "bytes32"
                                        },
                                        {
                                            "components": [
                                                {
                                                    "name": "r",
                                                    "type": "bytes32"
                                                },
                                                {
                                                    "name": "s",
                                                    "type": "bytes32"
                                                },
                                                {
                                                    "name": "v",
                                                    "type": "uint8"
                                                }
                                            ],
                                            "name": "signature",
                                            "type": "tuple"
                                        }
                                    ],
                                    "name": "wallet",
                                    "type": "tuple"
                                },
                                {
                                    "components": [
                                        {
                                            "name": "hash",
                                            "type": "bytes32"
                                        },
                                        {
                                            "components": [
                                                {
                                                    "name": "r",
                                                    "type": "bytes32"
                                                },
                                                {
                                                    "name": "s",
                                                    "type": "bytes32"
                                                },
                                                {
                                                    "name": "v",
                                                    "type": "uint8"
                                                }
                                            ],
                                            "name": "signature",
                                            "type": "tuple"
                                        }
                                    ],
                                    "name": "operator",
                                    "type": "tuple"
                                }
                            ],
                            "name": "seals",
                            "type": "tuple"
                        },
                        {
                            "name": "blockNumber",
                            "type": "uint256"
                        },
                        {
                            "name": "operatorId",
                            "type": "uint256"
                        }
                    ],
                    "name": "payment",
                    "type": "tuple"
                }
            ],
            "name": "settlePayment",
            "outputs": [],
            "payable": false,
            "stateMutability": "nonpayable",
            "type": "function"
        },
        {
            "constant": false,
            "inputs": [
                {
                    "name": "wallet",
                    "type": "address"
                },
                {
                    "components": [
                        {
                            "name": "nonce",
                            "type": "uint256"
                        },
                        {
                            "name": "amount",
                            "type": "int256"
                        },
                        {
                            "components": [
                                {
                                    "name": "ct",
                                    "type": "address"
                                },
                                {
                                    "name": "id",
                                    "type": "uint256"
                                }
                            ],
                            "name": "currency",
                            "type": "tuple"
                        },
                        {
                            "components": [
                                {
                                    "name": "nonce",
                                    "type": "uint256"
                                },
                                {
                                    "name": "wallet",
                                    "type": "address"
                                },
                                {
                                    "components": [
                                        {
                                            "name": "current",
                                            "type": "int256"
                                        },
                                        {
                                            "name": "previous",
                                            "type": "int256"
                                        }
                                    ],
                                    "name": "balances",
                                    "type": "tuple"
                                },
                                {
                                    "components": [
                                        {
                                            "components": [
                                                {
                                                    "name": "amount",
                                                    "type": "int256"
                                                },
                                                {
                                                    "components": [
                                                        {
                                                            "name": "ct",
                                                            "type": "address"
                                                        },
                                                        {
                                                            "name": "id",
                                                            "type": "uint256"
                                                        }
                                                    ],
                                                    "name": "currency",
                                                    "type": "tuple"
                                                }
                                            ],
                                            "name": "single",
                                            "type": "tuple"
                                        },
                                        {
                                            "components": [
                                                {
                                                    "name": "originId",
                                                    "type": "uint256"
                                                },
                                                {
                                                    "components": [
                                                        {
                                                            "name": "amount",
                                                            "type": "int256"
                                                        },
                                                        {
                                                            "components": [
                                                                {
                                                                    "name": "ct",
                                                                    "type": "address"
                                                                },
                                                                {
                                                                    "name": "id",
                                                                    "type": "uint256"
                                                                }
                                                            ],
                                                            "name": "currency",
                                                            "type": "tuple"
                                                        }
                                                    ],
                                                    "name": "figure",
                                                    "type": "tuple"
                                                }
                                            ],
                                            "name": "total",
                                            "type": "tuple[]"
                                        }
                                    ],
                                    "name": "fees",
                                    "type": "tuple"
                                }
                            ],
                            "name": "sender",
                            "type": "tuple"
                        },
                        {
                            "components": [
                                {
                                    "name": "nonce",
                                    "type": "uint256"
                                },
                                {
                                    "name": "wallet",
                                    "type": "address"
                                },
                                {
                                    "components": [
                                        {
                                            "name": "current",
                                            "type": "int256"
                                        },
                                        {
                                            "name": "previous",
                                            "type": "int256"
                                        }
                                    ],
                                    "name": "balances",
                                    "type": "tuple"
                                },
                                {
                                    "components": [
                                        {
                                            "components": [
                                                {
                                                    "name": "originId",
                                                    "type": "uint256"
                                                },
                                                {
                                                    "components": [
                                                        {
                                                            "name": "amount",
                                                            "type": "int256"
                                                        },
                                                        {
                                                            "components": [
                                                                {
                                                                    "name": "ct",
                                                                    "type": "address"
                                                                },
                                                                {
                                                                    "name": "id",
                                                                    "type": "uint256"
                                                                }
                                                            ],
                                                            "name": "currency",
                                                            "type": "tuple"
                                                        }
                                                    ],
                                                    "name": "figure",
                                                    "type": "tuple"
                                                }
                                            ],
                                            "name": "total",
                                            "type": "tuple[]"
                                        }
                                    ],
                                    "name": "fees",
                                    "type": "tuple"
                                }
                            ],
                            "name": "recipient",
                            "type": "tuple"
                        },
                        {
                            "components": [
                                {
                                    "name": "single",
                                    "type": "int256"
                                },
                                {
                                    "name": "total",
                                    "type": "int256"
                                }
                            ],
                            "name": "transfers",
                            "type": "tuple"
                        },
                        {
                            "components": [
                                {
                                    "components": [
                                        {
                                            "name": "hash",
                                            "type": "bytes32"
                                        },
                                        {
                                            "components": [
                                                {
                                                    "name": "r",
                                                    "type": "bytes32"
                                                },
                                                {
                                                    "name": "s",
                                                    "type": "bytes32"
                                                },
                                                {
                                                    "name": "v",
                                                    "type": "uint8"
                                                }
                                            ],
                                            "name": "signature",
                                            "type": "tuple"
                                        }
                                    ],
                                    "name": "wallet",
                                    "type": "tuple"
                                },
                                {
                                    "components": [
                                        {
                                            "name": "hash",
                                            "type": "bytes32"
                                        },
                                        {
                                            "components": [
                                                {
                                                    "name": "r",
                                                    "type": "bytes32"
                                                },
                                                {
                                                    "name": "s",
                                                    "type": "bytes32"
                                                },
                                                {
                                                    "name": "v",
                                                    "type": "uint8"
                                                }
                                            ],
                                            "name": "signature",
                                            "type": "tuple"
                                        }
                                    ],
                                    "name": "operator",
                                    "type": "tuple"
                                }
                            ],
                            "name": "seals",
                            "type": "tuple"
                        },
                        {
                            "name": "blockNumber",
                            "type": "uint256"
                        },
                        {
                            "name": "operatorId",
                            "type": "uint256"
                        }
                    ],
                    "name": "payment",
                    "type": "tuple"
                }
            ],
            "name": "settlePaymentByProxy",
            "outputs": [],
            "payable": false,
            "stateMutability": "nonpayable",
            "type": "function"
        }
    ],
    "bytecode": "0x60806040523480156200001157600080fd5b506040516020806200367d8339810180604052620000339190810190620000b6565b8080600160a060020a03811615156200004b57600080fd5b600160a060020a0381163014156200006257600080fd5b506000805461010060a860020a031916610100600160a060020a039390931692830217905560018054600160a060020a031916909117905550620000eb565b6000620000af8251620000df565b9392505050565b600060208284031215620000c957600080fd5b6000620000d78484620000a1565b949350505050565b600160a060020a031690565b61358280620000fb6000396000f3006080604052600436106101be5763ffffffff60e060020a60003504166301370d0681146101c35780631327d3d8146101e55780632344a49314610205578063240625d81461022557806325c84441146102505780632738a112146102725780632aa1c9d9146102875780632f013a00146102a75780633a5381b5146102bc5780633bd7857f146102d1578063404e896f146102e65780634476d23b1461030657806351d7cd6114610328578063570ca7351461033d5780635dc60def14610352578063627f09c314610367578063670732a7146103875780636c70bee91461039c57806370327ea1146103b1578063892860b2146103c65780638c6913bc146103e65780638e9d6cbd1461040857806395ff296d1461041d5780639621473514610432578063b3ab15fb14610452578063b71ded2f14610472578063bf24e7d014610492578063c0ffe1b4146104a7578063d2f08936146104d4578063d5f39488146104f4578063db30fd1014610509578063e71dcc3114610529578063e754476f14610549578063e86ab8f61461055e578063e8ae41e31461057e578063f152dd3814610593578063f1aa7734146105b3578063f345fb44146105c8575b600080fd5b3480156101cf57600080fd5b506101e36101de366004612b6f565b6105e8565b005b3480156101f157600080fd5b506101e3610200366004612b6f565b610690565b34801561021157600080fd5b506101e3610220366004612bfd565b610728565b34801561023157600080fd5b5061023a61076e565b6040516102479190613371565b60405180910390f35b34801561025c57600080fd5b5061026561077e565b604051610247919061338d565b34801561027e57600080fd5b506101e361078d565b34801561029357600080fd5b506101e36102a2366004612b6f565b6107f3565b3480156102b357600080fd5b5061023a610884565b3480156102c857600080fd5b5061026561088d565b3480156102dd57600080fd5b5061026561089c565b3480156102f257600080fd5b506101e3610301366004612b6f565b6108ab565b34801561031257600080fd5b5061031b61092f565b604051610247919061307d565b34801561033457600080fd5b50610265610943565b34801561034957600080fd5b5061031b610952565b34801561035e57600080fd5b506101e3610961565b34801561037357600080fd5b506101e3610382366004612b6f565b6109b5565b34801561039357600080fd5b506101e3610a4d565b3480156103a857600080fd5b50610265610aa1565b3480156103bd57600080fd5b506101e3610ab0565b3480156103d257600080fd5b506101e36103e1366004612b6f565b610b13565b3480156103f257600080fd5b506103fb610bc2565b604051610247919061337f565b34801561041457600080fd5b5061023a610c48565b34801561042957600080fd5b50610265610c58565b34801561043e57600080fd5b506101e361044d366004612a8c565b610c67565b34801561045e57600080fd5b506101e361046d366004612a8c565b610d25565b34801561047e57600080fd5b506101e361048d366004612b6f565b610dcf565b34801561049e57600080fd5b50610265610e67565b3480156104b357600080fd5b506104c76104c2366004612b03565b610e76565b604051610247919061343b565b3480156104e057600080fd5b506104c76104ef366004612b03565b610f12565b34801561050057600080fd5b5061031b610f4f565b34801561051557600080fd5b506101e3610524366004612ab2565b610f63565b34801561053557600080fd5b506101e3610544366004612b6f565b610fbf565b34801561055557600080fd5b50610265611043565b34801561056a57600080fd5b506101e3610579366004612b6f565b611052565b34801561058a57600080fd5b50610265611101565b34801561059f57600080fd5b506101e36105ae366004612b6f565b611110565b3480156105bf57600080fd5b50610265611194565b3480156105d457600080fd5b506103fb6105e3366004612a8c565b6111a3565b60006105f2611229565b15156105fd57600080fd5b81600160a060020a038116151561061357600080fd5b6006548390600160a060020a0390811690821681146106895760068054600160a060020a03878116600160a060020a0319831617909255604051911694507f07998fa7be97abe2427246ae4688298c89d6196bbffdf0997b9495a8d27bc67390610680908690889061339b565b60405180910390a15b5050505050565b600061069a611229565b15156106a557600080fd5b81600160a060020a03811615156106bb57600080fd5b6003548390600160a060020a0390811690821681146106895760038054600160a060020a03878116600160a060020a0319831617909255604051911694507f1882af944a16549c3d4f60e3cd26f158b0c7aac3222cf32971fc21375ce05f6090610680908690889061339b565b610732338261123f565b7f79f20d50c1391dd0229ea2be00547bd25af2d7ee8e2dc956e3cb12a893c8671333826040516107639291906132d9565b60405180910390a150565b60075460a060020a900460ff1681565b600954600160a060020a031681565b3361079661092f565b600160a060020a0316146107a957600080fd5b60005460ff16156107b957600080fd5b7f787a5d936e74f4b564b9153575886059829c78cd9927b1be5e0d976b317ef736336040516107e8919061307d565b60405180910390a133ff5b60006107fd611229565b151561080857600080fd5b81600160a060020a038116151561081e57600080fd5b60088054600160a060020a03858116600160a060020a03198316179283905560405191811694507f4f7125332801996cdeaabf9cff1ac89ddf4b52c673558936affe853ab64a88da92610877928692919091169061339b565b60405180910390a1505050565b60005460ff1681565b600354600160a060020a031681565b600654600160a060020a031681565b60006108b5611229565b15156108c057600080fd5b81600160a060020a03811615156108d657600080fd5b60098054600160a060020a03858116600160a060020a03198316179283905560405191811694507f6d4735156f5fb1047cfcd4a9edf19e3291aec19d53916f8fee650ca3c2d7391092610877928692919091169061339b565b6000546101009004600160a060020a031690565b600854600160a060020a031681565b600154600160a060020a031681565b610969611229565b151561097457600080fd5b6007805460a060020a60ff02191660a060020a1790556040517f56ec8900b9c4bf84f4b715a53068ca06961dd49084c07b481931e2c2045346e690600090a1565b60006109bf611229565b15156109ca57600080fd5b81600160a060020a03811615156109e057600080fd5b6002548390600160a060020a0390811690821681146106895760028054600160a060020a03878116600160a060020a0319831617909255604051911694507f634f61bf00e14adedce330c80c2823e16e184f189ebe853e1ddecc4a268477ff90610680908690889061339b565b610a55611229565b1515610a6057600080fd5b6005805460a060020a60ff02191660a060020a1790556040517fc1668d45f18667fb6eadfbcacfd5cdcc7dd4ecdfc9b0ab8786cfdbad86bb83d890600090a1565b600254600160a060020a031681565b33610ab961092f565b600160a060020a031614610acc57600080fd5b6000805460ff191660011790556040517fd5a2a04a775c741c2ca0dc46ea7ce4835190e1aaf1ca018def0e82568ec3361690610b0990339061307d565b60405180910390a1565b6000610b1d611229565b1515610b2857600080fd5b81600160a060020a0381161515610b3e57600080fd5b6007548390600160a060020a0390811690821681146106895760075460a060020a900460ff1615610b6e57600080fd5b60078054600160a060020a03878116600160a060020a0319831617909255604051911694507fa44d361e26327b72a7ccbeae801b3c5cd7677ea4fa74168b289e273c46bfecfc90610680908690889061339b565b6009546040805160e260020a63231a44ef0281529051600092600160a060020a031691638c6913bc91600480830192602092919082900301818787803b158015610c0b57600080fd5b505af1158015610c1f573d6000803e3d6000fd5b505050506040513d601f19601f82011682018060405250610c439190810190612b51565b905090565b60055460a060020a900460ff1681565b600a54600160a060020a031681565b6000610c71611229565b1515610c7c57600080fd5b81600160a060020a0381161515610c9257600080fd5b600160a060020a038116301415610ca857600080fd5b600054600160a060020a038481166101009092041614610d205760008054600160a060020a0385811661010090810261010060a860020a0319841617909355604051929091041692507f977e5fa58e458501775e0008d275006294c5249e3c08d1d0e3a9f3acad14f6e490610877908490869061308b565b505050565b6000610d2f611ea0565b1515610d3a57600080fd5b81600160a060020a0381161515610d5057600080fd5b600160a060020a038116301415610d6657600080fd5b600154600160a060020a03848116911614610d205760018054600160a060020a03858116600160a060020a0319831617909255604051911692507f9f611b789425d0d5b90b920f1b2852907dd865c80074a30b1629aaa041d1812c90610877908490869061308b565b6000610dd9611229565b1515610de457600080fd5b81600160a060020a0381161515610dfa57600080fd5b6004548390600160a060020a0390811690821681146106895760048054600160a060020a03878116600160a060020a0319831617909255604051911694507f4d96d2a04c886b313bd1e28be6324ed4c8867b3203e512756722f8be0195e16d90610680908690889061339b565b600554600160a060020a031681565b610e7e6123a9565b60095460405160e260020a63303ff86d028152600160a060020a039091169063c0ffe1b490610eb390869086906004016132f9565b600060405180830381600087803b158015610ecd57600080fd5b505af1158015610ee1573d6000803e3d6000fd5b505050506040513d6000823e601f3d908101601f19168201604052610f099190810190612c31565b90505b92915050565b610f1a6123a9565b60095460405160e160020a636978449b028152600160a060020a039091169063d2f0893690610eb390869086906004016132f9565b6000546101009004600160a060020a031681565b610f6b611ea0565b1515610f7657600080fd5b610f80828261123f565b7f8af6c627a6990d6bfb23bf7a7c1d2200ce45a7f82927ee2710a70f2186481d20338383604051610fb3939291906130ad565b60405180910390a15050565b6000610fc9611229565b1515610fd457600080fd5b81600160a060020a0381161515610fea57600080fd5b600b8054600160a060020a03858116600160a060020a03198316179283905560405191811694507f8b279c2b23bfeb78b16df477d9aca8834fa453d90eec75f2ab0c825a712c3d1792610877928692919091169061339b565b600454600160a060020a031681565b600061105c611229565b151561106757600080fd5b81600160a060020a038116151561107d57600080fd5b6005548390600160a060020a0390811690821681146106895760055460a060020a900460ff16156110ad57600080fd5b60058054600160a060020a03878116600160a060020a0319831617909255604051911694507f624c4d4225a45f5bf8a9755adba1ef9be3464a9970b05a371fb6cca0c0caf20490610680908690889061339b565b600754600160a060020a031681565b600061111a611229565b151561112557600080fd5b81600160a060020a038116151561113b57600080fd5b600a8054600160a060020a03858116600160a060020a03198316179283905560405191811694507f0e0d0aee1efbecb32fba4a76ecc4cae4c9ed1c3ea3459ea8460c53ff4cb09bcf92610877928692919091169061339b565b600b54600160a060020a031681565b60095460405160e260020a633cd17ed1028152600091600160a060020a03169063f345fb44906111d790859060040161307d565b602060405180830381600087803b1580156111f157600080fd5b505af1158015611205573d6000803e3d6000fd5b505050506040513d601f19601f82011682018060405250610f0c9190810190612b51565b6000546101009004600160a060020a0316331490565b60035460405160e060020a63a865476b028152600091829160609183918691600160a060020a03169063a865476b9061127c90849060040161340a565b602060405180830381600087803b15801561129657600080fd5b505af11580156112aa573d6000803e3d6000fd5b505050506040513d601f19601f820116820180604052506112ce9190810190612b33565b15156112d957600080fd5b60035460405160e160020a635f1132b702815287918991600160a060020a039091169063be22656e90611312908590859060040161341b565b602060405180830381600087803b15801561132c57600080fd5b505af1158015611340573d6000803e3d6000fd5b505050506040513d601f19601f820116820180604052506113649190810190612b33565b151561136f57600080fd5b60065460c0890151602001515160405160e360020a6310c7a6c1028152600160a060020a039092169163863d3608916113aa9160040161337f565b602060405180830381600087803b1580156113c457600080fd5b505af11580156113d8573d6000803e3d6000fd5b505050506040513d601f19601f820116820180604052506113fc9190810190612b33565b1561140657600080fd5b60055460405160e060020a639243c9db028152600160a060020a0390911690639243c9db90611439908c9060040161307d565b602060405180830381600087803b15801561145357600080fd5b505af1158015611467573d6000803e3d6000fd5b505050506040513d601f19601f8201168201806040525061148b9190810190612b33565b1561149557600080fd5b60075460405160e260020a631293efbb028152600160a060020a0390911690634a4fbeec906114c8908c9060040161307d565b602060405180830381600087803b1580156114e257600080fd5b505af11580156114f6573d6000803e3d6000fd5b505050506040513d601f19601f8201168201806040525061151a9190810190612b33565b1561152457600080fd5b6008546040808a0151905160e060020a63da473c57028152600160a060020a039092169163da473c579161155d918d9190600401613296565b602060405180830381600087803b15801561157757600080fd5b505af115801561158b573d6000803e3d6000fd5b505050506040513d601f19601f820116820180604052506115af9190810190612b51565b60c08901516020015151146115c357600080fd5b6008546040808a0151905160e060020a635482c735028152600160a060020a0390921691635482c735916115fc918d9190600401613296565b602060405180830381600087803b15801561161657600080fd5b505af115801561162a573d6000803e3d6000fd5b505050506040513d601f19601f8201168201806040525061164e9190810190612b33565b151561165957600080fd5b6008546040808a0151905160e060020a63b6e2fc33028152600160a060020a039092169163b6e2fc3391611692918d9190600401613296565b602060405180830381600087803b1580156116ac57600080fd5b505af11580156116c0573d6000803e3d6000fd5b505050506040513d601f19601f820116820180604052506116e49190810190612b8d565b60018111156116ef57fe5b156116f957600080fd5b600260009054906101000a9004600160a060020a0316600160a060020a031663f71e860f6040518163ffffffff1660e060020a028152600401602060405180830381600087803b15801561174c57600080fd5b505af1158015611760573d6000803e3d6000fd5b505050506040513d601f19601f820116820180604052506117849190810190612b33565b80156118165750600560009054906101000a9004600160a060020a0316600160a060020a031663994e20766040518163ffffffff1660e060020a028152600401602060405180830381600087803b1580156117de57600080fd5b505af11580156117f2573d6000803e3d6000fd5b505050506040513d601f19601f820116820180604052506118169190810190612b33565b806118ab5750600960009054906101000a9004600160a060020a0316600160a060020a031663897d36aa6040518163ffffffff1660e060020a028152600401602060405180830381600087803b15801561186f57600080fd5b505af1158015611883573d6000803e3d6000fd5b505050506040513d601f19601f820116820180604052506118a79190810190612b51565b8851105b15156118b657600080fd5b600960009054906101000a9004600160a060020a0316600160a060020a0316638772531373__PaymentTypesLib_______________________63ecf050e36040518163ffffffff1660e060020a02815260040160006040518083038186803b15801561192157600080fd5b505af4158015611935573d6000803e3d6000fd5b505050506040513d6000823e601f3d908101601f1916820160405261195d9190810190612bab565b60c08b01516020908101515160608d015180830151905160808f015193840151935160405160e060020a63ffffffff89160281526119a0969591906004016133b6565b600060405180830381600087803b1580156119ba57600080fd5b505af11580156119ce573d6000803e3d6000fd5b505050506119dc888a611eb1565b60095460405160e060020a636b184dff028152949b509299509097509550600160a060020a031690636b184dff90611a1c908c908a908c90600401613314565b602060405180830381600087803b158015611a3657600080fd5b505af1158015611a4a573d6000803e3d6000fd5b505050506040513d601f19601f82011682018060405250611a6e9190810190612b33565b15611a7857600080fd5b60095460405160e060020a63e86c7f8d028152600160a060020a039091169063e86c7f8d90611ab2908c908a908c9060019060040161333c565b600060405180830381600087803b158015611acc57600080fd5b505af1158015611ae0573d6000803e3d6000fd5b50506009546040808c0151905160e060020a633858654b0281528a9450600160a060020a039092169250633858654b91611b1e918e91600401613296565b602060405180830381600087803b158015611b3857600080fd5b505af1158015611b4c573d6000803e3d6000fd5b505050506040513d601f19601f82011682018060405250611b709190810190612b51565b1015611d71576009546040808a0151905160e360020a6302847747028152600160a060020a0390921691631423ba3891611bb1918d91908b906004016132b1565b600060405180830381600087803b158015611bcb57600080fd5b505af1158015611bdf573d6000803e3d6000fd5b50505050600460009054906101000a9004600160a060020a0316600160a060020a03166364ba47528a868b60400151600001518c60400151602001518d60e001516040518663ffffffff1660e060020a028152600401611c439594939291906131ff565b600060405180830381600087803b158015611c5d57600080fd5b505af1158015611c71573d6000803e3d6000fd5b5050600480546008546040808e0151905160e160020a633007230f028152600160a060020a03938416965063ad468df995508f94929093169263600e461e92611cbe928692909101613296565b602060405180830381600087803b158015611cd857600080fd5b505af1158015611cec573d6000803e3d6000fd5b505050506040513d601f19601f82011682018060405250611d109190810190612b51565b6040808d01518051602090910151915160e060020a63ffffffff8716028152611d3e949392906004016131b9565b600060405180830381600087803b158015611d5857600080fd5b505af1158015611d6c573d6000803e3d6000fd5b505050505b600a54600160a060020a031615611d9c57600a54611d9c908a908790600160a060020a031689611f90565b600960009054906101000a9004600160a060020a0316600160a060020a031663897d36aa6040518163ffffffff1660e060020a028152600401602060405180830381600087803b158015611def57600080fd5b505af1158015611e03573d6000803e3d6000fd5b505050506040513d601f19601f82011682018060405250611e279190810190612b51565b88511115611e9557600954885160405160e260020a63123f2dcb028152600160a060020a03909216916348fcb72c91611e629160040161337f565b600060405180830381600087803b158015611e7c57600080fd5b505af1158015611e90573d6000803e3d6000fd5b505050505b505050505050505050565b600154600160a060020a0316331490565b60035460405160e060020a63ef04ec9502815260009182916060918391600160a060020a039091169063ef04ec9590611ef0908990899060040161341b565b602060405180830381600087803b158015611f0a57600080fd5b505af1158015611f1e573d6000803e3d6000fd5b505050506040513d601f19601f82011682018060405250611f429190810190612b33565b15611f6a57505050606080840151805191810151602001516040909101515160009350611f87565b505050506080820151805160608201515160409092015151600192905b92959194509250565b60008080805b865184101561239f578684815181101515611fad57fe5b602090810290910101515115611fea57600b548751600160a060020a0390911690889086908110611fda57fe5b6020908102909101015151611fee565b8560005b9250925084600960009054906101000a9004600160a060020a0316600160a060020a0316636e17226a8a86868c8a81518110151561202857fe5b9060200190602002015160200151602001516040518563ffffffff1660e060020a02815260040161205c94939291906130da565b6040805180830381600087803b15801561207557600080fd5b505af1158015612089573d6000803e3d6000fd5b505050506040513d601f19601f820116820180604052506120ad9190810190612bdf565b511015612394576009548751600160a060020a0390911690636e17226a908a90869086908c908a9081106120dd57fe5b9060200190602002015160200151602001516040518563ffffffff1660e060020a02815260040161211194939291906130da565b6040805180830381600087803b15801561212a57600080fd5b505af115801561213e573d6000803e3d6000fd5b505050506040513d601f19601f820116820180604052506121629190810190612bdf565b60200151878581518110151561217457fe5b60209081029091018101510151516009548951929091039250600160a060020a031690637657768c908a90869086908c908a9081106121af57fe5b90602001906020020151602001516020015160408051908101604052808c81526020018e8c8151811015156121e057fe5b6020908102909101810151015151905260405160e060020a63ffffffff881602815261221395949392919060040161310f565b600060405180830381600087803b15801561222d57600080fd5b505af1158015612241573d6000803e3d6000fd5b50506004548951600160a060020a03909116925063158a034291508490869085908c908a90811061226e57fe5b60209081029091018101518101510151518c518d908b90811061228d57fe5b906020019060200201516020015160200151602001516040518663ffffffff1660e060020a0281526004016122c695949392919061315b565b600060405180830381600087803b1580156122e057600080fd5b505af11580156122f4573d6000803e3d6000fd5b505050507f64fcac3c2b1ccc98d3039b49f7668a97654165a070c78fa3163859e4d5d097808882898781518110151561232957fe5b60209081029091018101510151518a518b908990811061234557fe5b60209081029091018101518101510151518b518c908a90811061236457fe5b9060200190602002015160200151602001516020015160405161238b959493929190613254565b60405180910390a15b600190930192611f96565b5050505050505050565b604080516101008101825260608152600060208201529081016123ca6123dc565b81526020016123d76123dc565b905290565b604080516060810182526000808252602082018190529181019190915290565b6000610f0982356134c3565b6000610f0982516134c3565b6000601f8201831361242557600080fd5b813561243861243382613472565b61344c565b9150818183526020840193506020810190508385608084028201111561245d57600080fd5b60005b8381101561248b57816124738882612607565b84525060209092019160809190910190600101612460565b5050505092915050565b6000610f0982516134cf565b6000610f0982356134d4565b6000610f0982516134d4565b6000610f0982356134ed565b6000610f0982516134f8565b6000601f820183136124e257600080fd5b81516124f061243382613492565b9150808252602083016020830185838301111561250c57600080fd5b612517838284613512565b50505092915050565b60006040828403121561253257600080fd5b61253c604061344c565b9050600061254a84846123fc565b825250602061255b848483016124a1565b60208301525092915050565b60006040828403121561257957600080fd5b612583604061344c565b9050600061254a84846124a1565b6000606082840312156125a357600080fd5b6125ad604061344c565b905060006125bb84846124a1565b825250602061255b84848301612520565b6000604082840312156125de57600080fd5b6125e8604061344c565b905060006125f684846124ad565b825250602061255b848483016124ad565b60006080828403121561261957600080fd5b612623604061344c565b9050600061263184846124a1565b825250602061255b84848301612591565b600060a0828403121561265457600080fd5b61265e608061344c565b9050600061266c84846124a1565b825250602061267d848483016123fc565b602083015250604061269184828501612567565b60408301525060808201356001604060020a038111156126b057600080fd5b6126bc848285016129fb565b60608301525092915050565b600060a082840312156126da57600080fd5b6126e4608061344c565b905060006126f284846124a1565b8252506020612703848483016123fc565b602083015250604061271784828501612567565b60408301525060808201356001604060020a0381111561273657600080fd5b6126bc848285016129a9565b6000610240828403121561275557600080fd5b61276061012061344c565b9050600061276e84846124a1565b825250602061277f848483016124a1565b602083015250604061279384828501612520565b60408301525060808201356001604060020a038111156127b257600080fd5b6127be848285016126c8565b60608301525060a08201356001604060020a038111156127dd57600080fd5b6127e984828501612642565b60808301525060c06127fd84828501612567565b60a08301525061010061281284828501612a44565b60c083015250610200612827848285016124a1565b60e08301525061022061283c848285016124a1565b6101008301525092915050565b60006080828403121561285b57600080fd5b612865604061344c565b9050600061287384846124a1565b825250602061255b8484830161295a565b60006060828403121561289657600080fd5b6128a0606061344c565b905060006128ae84846124ad565b82525060206128bf84848301612408565b60208301525060406128d384828501612495565b60408301525092915050565b600061010082840312156128f257600080fd5b6128fc608061344c565b82519091506001604060020a0381111561291557600080fd5b612921848285016124d1565b8252506020612932848483016124ad565b602083015250604061294684828501612884565b60408301525060a06126bc84828501612884565b60006060828403121561296c57600080fd5b612976606061344c565b9050600061298484846124a1565b8252506020612995848483016124a1565b60208301525060406128d384828501612a80565b6000608082840312156129bb57600080fd5b6129c5604061344c565b905060006129d38484612591565b82525060608201356001604060020a038111156129ef57600080fd5b61255b84828501612414565b600060208284031215612a0d57600080fd5b612a17602061344c565b905081356001604060020a03811115612a2f57600080fd5b612a3b84828501612414565b82525092915050565b60006101008284031215612a5757600080fd5b612a61604061344c565b90506000612a6f8484612849565b825250608061255b84848301612849565b6000610f0982356134e7565b600060208284031215612a9e57600080fd5b6000612aaa84846123fc565b949350505050565b60008060408385031215612ac557600080fd5b6000612ad185856123fc565b92505060208301356001604060020a03811115612aed57600080fd5b612af985828601612742565b9150509250929050565b60008060408385031215612b1657600080fd5b6000612b2285856123fc565b9250506020612af9858286016124a1565b600060208284031215612b4557600080fd5b6000612aaa8484612495565b600060208284031215612b6357600080fd5b6000612aaa84846124ad565b600060208284031215612b8157600080fd5b6000612aaa84846124b9565b600060208284031215612b9f57600080fd5b6000612aaa84846124c5565b600060208284031215612bbd57600080fd5b81516001604060020a03811115612bd357600080fd5b612aaa848285016124d1565b600060408284031215612bf157600080fd5b6000612aaa84846125cc565b600060208284031215612c0f57600080fd5b81356001604060020a03811115612c2557600080fd5b612aaa84828501612742565b600060208284031215612c4357600080fd5b81516001604060020a03811115612c5957600080fd5b612aaa848285016128df565b612c6e816134c3565b82525050565b6000612c7f826134bf565b808452602084019350612c91836134b9565b60005b82811015612cc157612ca7868351612d8d565b612cb0826134b9565b608096909601959150600101612c94565b5093949350505050565b612c6e816134cf565b612c6e816134d4565b612c6e816134ed565b612c6e81613507565b6000612cfa826134bf565b808452612d0e816020860160208601613512565b612d178161353e565b9093016020019392505050565b6000815260200190565b80516040830190612d3f8482612c65565b506020820151612d526020850182612cd4565b50505050565b80516040830190612d3f8482612cd4565b80516060830190612d7a8482612cd4565b506020820151612d526020850182612d2e565b80516080830190612d9e8482612cd4565b506020820151612d526020850182612d69565b805160009060a0840190612dc58582612cd4565b506020830151612dd86020860182612c65565b506040830151612deb6040860182612d58565b5060608301518482036080860152612e038282613037565b95945050505050565b805160009060a0840190612e208582612cd4565b506020830151612e336020860182612c65565b506040830151612e466040860182612d58565b5060608301518482036080860152612e03828261300b565b8051600090610240840190612e738582612cd4565b506020830151612e866020860182612cd4565b506040830151612e996040860182612d2e565b5060608301518482036080860152612eb18282612e0c565b915050608083015184820360a0860152612ecb8282612db1565b91505060a0830151612ee060c0860182612d58565b5060c0830151612ef461010086018261304f565b5060e0830151612f08610200860182612cd4565b50610100830151612f1d610220860182612cd4565b509392505050565b80516080830190612f368482612cd4565b506020820151612d526020850182612fd4565b80516060830190612f5a8482612cd4565b506020820151612f6d6020850182612c65565b506040820151612d526040850182612ccb565b805161010080845260009190840190612f998282612cef565b9150506020830151612fae6020860182612cd4565b506040830151612fc16040860182612f49565b506060830151612f1d60a0860182612f49565b80516060830190612fe58482612cd4565b506020820151612ff86020850182612cd4565b506040820151612d526040850182613074565b8051600090608084019061301f8582612d69565b5060208301518482036060860152612e038282612c74565b8051602080845260009190840190612e038282612c74565b80516101008301906130618482612f25565b506020820151612d526080850182612f25565b612c6e816134e7565b60208101610f0c8284612c65565b604081016130998285612c65565b6130a66020830184612c65565b9392505050565b606081016130bb8286612c65565b6130c86020830185612c65565b8181036040830152612e038184612e5e565b60a081016130e88287612c65565b6130f56020830186612cdd565b6131026040830185612c65565b612e036060830184612d2e565b60e0810161311d8288612c65565b61312a6020830187612cdd565b6131376040830186612c65565b6131446060830185612d2e565b61315160a0830184612d58565b9695505050505050565b60c081016131698288612c65565b6131766020830187612cdd565b6131836040830186612cd4565b6131906060830185612c65565b61319d6080830184612cd4565b81810360a08301526131ae81612d24565b979650505050505050565b60a081016131c78287612c65565b6131d46020830186612cd4565b6131e16040830185612c65565b6131ee6060830184612cd4565b818103608083015261315181612d24565b60c0810161320d8288612c65565b61321a6020830187612cd4565b6132276040830186612c65565b6132346060830185612cd4565b818103608083015261324581612d24565b905061315160a0830184612cd4565b60a081016132628288612c65565b61326f6020830187612cd4565b61327c6040830186612cd4565b6132896060830185612c65565b6131516080830184612cd4565b606081016132a48285612c65565b6130a66020830184612d2e565b608081016132bf8286612c65565b6132cc6020830185612d2e565b612aaa6060830184612cd4565b604081016132e78285612c65565b8181036020830152612aaa8184612e5e565b604081016133078285612c65565b6130a66020830184612cd4565b606081016133228286612c65565b61332f6020830185612cd4565b612aaa6040830184612ce6565b6080810161334a8287612c65565b6133576020830186612cd4565b6133646040830185612ce6565b612e036060830184612ccb565b60208101610f0c8284612ccb565b60208101610f0c8284612cd4565b60208101610f0c8284612cdd565b604081016133a98285612cdd565b6130a66020830184612cdd565b60c080825281016133c78189612cef565b90506133d66020830188612cd4565b6133e36040830187612c65565b6133f06060830186612cd4565b6133fd6080830185612c65565b6131ae60a0830184612cd4565b60208082528101610f098184612e5e565b6040808252810161342c8185612e5e565b90506130a66020830184612c65565b60208082528101610f098184612f80565b6040518181016001604060020a038111828210171561346a57600080fd5b604052919050565b60006001604060020a0382111561348857600080fd5b5060209081020190565b60006001604060020a038211156134a857600080fd5b506020601f91909101601f19160190565b60200190565b5190565b600160a060020a031690565b151590565b90565b6000600282106134e357fe5b5090565b60ff1690565b6000610f0c826134c3565b6000600282106134e357600080fd5b6000610f0c826134d7565b60005b8381101561352d578181015183820152602001613515565b83811115612d525750506000910152565b601f01601f1916905600a265627a7a723058208a7068430e3624801efd4e640852f0e8b06115078ef9b6cbfde2be0fbe86a1b56c6578706572696d656e74616cf50037",
    "source": "/*\n * Hubii Nahmii\n *\n * Compliant with the Hubii Nahmii specification v0.12.\n *\n * Copyright (C) 2017-2018 Hubii AS\n */\n\npragma solidity ^0.4.25;\npragma experimental ABIEncoderV2;\n\nimport {Ownable} from \"./Ownable.sol\";\nimport {Configurable} from \"./Configurable.sol\";\nimport {Validatable} from \"./Validatable.sol\";\nimport {ClientFundable} from \"./ClientFundable.sol\";\nimport {CommunityVotable} from \"./CommunityVotable.sol\";\nimport {FraudChallengable} from \"./FraudChallengable.sol\";\nimport {WalletLockable} from \"./WalletLockable.sol\";\nimport {RevenueFund} from \"./RevenueFund.sol\";\nimport {PartnerFund} from \"./PartnerFund.sol\";\nimport {DriipSettlementChallengeState} from \"./DriipSettlementChallengeState.sol\";\nimport {DriipSettlementState} from \"./DriipSettlementState.sol\";\nimport {Beneficiary} from \"./Beneficiary.sol\";\nimport {SafeMathIntLib} from \"./SafeMathIntLib.sol\";\nimport {SafeMathUintLib} from \"./SafeMathUintLib.sol\";\nimport {MonetaryTypesLib} from \"./MonetaryTypesLib.sol\";\nimport {NahmiiTypesLib} from \"./NahmiiTypesLib.sol\";\nimport {PaymentTypesLib} from \"./PaymentTypesLib.sol\";\nimport {DriipSettlementTypesLib} from \"./DriipSettlementTypesLib.sol\";\nimport {SettlementChallengeTypesLib} from \"./SettlementChallengeTypesLib.sol\";\n\n/**\n * @title DriipSettlementByPayment\n * @notice Where driip settlements pertaining to payment are finalized\n */\ncontract DriipSettlementByPayment is Ownable, Configurable, Validatable, ClientFundable, CommunityVotable,\nFraudChallengable, WalletLockable {\n    using SafeMathIntLib for int256;\n    using SafeMathUintLib for uint256;\n\n    //\n    // Variables\n    // -----------------------------------------------------------------------------------------------------------------\n    DriipSettlementChallengeState public driipSettlementChallengeState;\n    DriipSettlementState public driipSettlementState;\n    RevenueFund public revenueFund;\n    PartnerFund public partnerFund;\n\n    //\n    // Events\n    // -----------------------------------------------------------------------------------------------------------------\n    event SettlePaymentEvent(address wallet, PaymentTypesLib.Payment payment);\n    event SettlePaymentByProxyEvent(address proxy, address wallet, PaymentTypesLib.Payment payment);\n    event SetDriipSettlementChallengeStateEvent(DriipSettlementChallengeState oldDriipSettlementChallengeState,\n        DriipSettlementChallengeState newDriipSettlementChallengeState);\n    event SetDriipSettlementStateEvent(DriipSettlementState oldDriipSettlementState,\n        DriipSettlementState newDriipSettlementState);\n    event SetRevenueFundEvent(RevenueFund oldRevenueFund, RevenueFund newRevenueFund);\n    event SetPartnerFundEvent(PartnerFund oldPartnerFund, PartnerFund newPartnerFund);\n    event StageFeesEvent(address wallet, int256 deltaAmount, int256 cumulativeAmount,\n        address currencyCt, uint256 currencyId);\n\n    //\n    // Constructor\n    // -----------------------------------------------------------------------------------------------------------------\n    constructor(address deployer) Ownable(deployer) public {\n    }\n\n    //\n    // Functions\n    // -----------------------------------------------------------------------------------------------------------------\n    /// @notice Set the driip settlement challenge state contract\n    /// @param newDriipSettlementChallengeState The (address of) DriipSettlementChallengeState contract instance\n    function setDriipSettlementChallengeState(DriipSettlementChallengeState newDriipSettlementChallengeState)\n    public\n    onlyDeployer\n    notNullAddress(newDriipSettlementChallengeState)\n    {\n        DriipSettlementChallengeState oldDriipSettlementChallengeState = driipSettlementChallengeState;\n        driipSettlementChallengeState = newDriipSettlementChallengeState;\n        emit SetDriipSettlementChallengeStateEvent(oldDriipSettlementChallengeState, driipSettlementChallengeState);\n    }\n\n    /// @notice Set the driip settlement state contract\n    /// @param newDriipSettlementState The (address of) DriipSettlementState contract instance\n    function setDriipSettlementState(DriipSettlementState newDriipSettlementState)\n    public\n    onlyDeployer\n    notNullAddress(newDriipSettlementState)\n    {\n        DriipSettlementState oldDriipSettlementState = driipSettlementState;\n        driipSettlementState = newDriipSettlementState;\n        emit SetDriipSettlementStateEvent(oldDriipSettlementState, driipSettlementState);\n    }\n\n    /// @notice Set the revenue fund contract\n    /// @param newRevenueFund The (address of) RevenueFund contract instance\n    function setRevenueFund(RevenueFund newRevenueFund)\n    public\n    onlyDeployer\n    notNullAddress(newRevenueFund)\n    {\n        RevenueFund oldRevenueFund = revenueFund;\n        revenueFund = newRevenueFund;\n        emit SetRevenueFundEvent(oldRevenueFund, revenueFund);\n    }\n\n    /// @notice Set the partner fund contract\n    /// @param newPartnerFund The (address of) partner contract instance\n    function setPartnerFund(PartnerFund newPartnerFund)\n    public\n    onlyDeployer\n    notNullAddress(newPartnerFund)\n    {\n        PartnerFund oldPartnerFund = partnerFund;\n        partnerFund = newPartnerFund;\n        emit SetPartnerFundEvent(oldPartnerFund, partnerFund);\n    }\n\n    /// @notice Get the count of settlements\n    function settlementsCount()\n    public\n    view\n    returns (uint256)\n    {\n        return driipSettlementState.settlementsCount();\n    }\n\n    /// @notice Get the count of settlements for given wallet\n    /// @param wallet The address for which to return settlement count\n    /// @return count of settlements for the provided wallet\n    function settlementsCountByWallet(address wallet)\n    public\n    view\n    returns (uint256)\n    {\n        return driipSettlementState.settlementsCountByWallet(wallet);\n    }\n\n    /// @notice Get settlement of given wallet and index\n    /// @param wallet The address for which to return settlement\n    /// @param index The wallet's settlement index\n    /// @return settlement for the provided wallet and index\n    function settlementByWalletAndIndex(address wallet, uint256 index)\n    public\n    view\n    returns (DriipSettlementTypesLib.Settlement)\n    {\n        return driipSettlementState.settlementByWalletAndIndex(wallet, index);\n    }\n\n    /// @notice Get settlement of given wallet and wallet nonce\n    /// @param wallet The address for which to return settlement\n    /// @param nonce The wallet's nonce\n    /// @return settlement for the provided wallet and index\n    function settlementByWalletAndNonce(address wallet, uint256 nonce)\n    public\n    view\n    returns (DriipSettlementTypesLib.Settlement)\n    {\n        return driipSettlementState.settlementByWalletAndNonce(wallet, nonce);\n    }\n\n    /// @notice Settle driip that is a payment\n    /// @param payment The payment to be settled\n    function settlePayment(PaymentTypesLib.Payment payment)\n    public\n    {\n        // Settle payment\n        _settlePayment(msg.sender, payment);\n\n        // Emit event\n        emit SettlePaymentEvent(msg.sender, payment);\n    }\n\n    /// @notice Settle driip that is a payment\n    /// @param wallet The wallet whose side of the payment is to be settled\n    /// @param payment The payment to be settled\n    function settlePaymentByProxy(address wallet, PaymentTypesLib.Payment payment)\n    public\n    onlyOperator\n    {\n        // Settle payment for wallet\n        _settlePayment(wallet, payment);\n\n        // Emit event\n        emit SettlePaymentByProxyEvent(msg.sender, wallet, payment);\n    }\n\n    //\n    // Private functions\n    // -----------------------------------------------------------------------------------------------------------------\n    function _settlePayment(address wallet, PaymentTypesLib.Payment payment)\n    private\n    onlySealedPayment(payment)\n    onlyPaymentParty(payment, wallet)\n    {\n        require(!fraudChallenge.isFraudulentPaymentHash(payment.seals.operator.hash));\n        require(!communityVote.isDoubleSpenderWallet(wallet));\n\n        // Require that wallet is not locked\n        require(!walletLocker.isLocked(wallet));\n\n        // Require that the wallet's current driip settlement challenge proposal is defined wrt this payment\n        require(payment.seals.operator.hash == driipSettlementChallengeState.proposalChallengedHash(\n            wallet, payment.currency\n        ));\n\n        // Require that proposal has expired\n        require(driipSettlementChallengeState.hasProposalExpired(wallet, payment.currency));\n\n        // Require that driip settlement challenge proposal qualified\n        require(SettlementChallengeTypesLib.Status.Qualified == driipSettlementChallengeState.proposalStatus(\n            wallet, payment.currency\n        ));\n\n        // Require that operational mode is normal and data is available, or that nonce is\n        // smaller than max null nonce\n        require((configuration.isOperationalModeNormal() && communityVote.isDataAvailable())\n            || payment.nonce < driipSettlementState.maxDriipNonce());\n\n        // Init settlement, i.e. create one if no such settlement exists for the double pair of wallets and nonces\n        driipSettlementState.initSettlement(\n            PaymentTypesLib.PAYMENT_TYPE(), payment.seals.operator.hash,\n            payment.sender.wallet, payment.sender.nonce,\n            payment.recipient.wallet, payment.recipient.nonce\n        );\n\n        // Extract properties depending on settlement role\n        (\n        DriipSettlementTypesLib.SettlementRole settlementRole,uint256 walletNonce,\n        NahmiiTypesLib.OriginFigure[] memory totalFees, int256 currentBalance\n        ) = _getRoleProperties(payment, wallet);\n\n        // If exists settlement of nonce then require that wallet has not already settled\n        require(!driipSettlementState.isSettlementRoleDone(\n            wallet, walletNonce, settlementRole\n        ));\n\n        // Set address of origin or target to prevent the same settlement from being resettled by this wallet\n        driipSettlementState.setSettlementRoleDone(\n            wallet, walletNonce, settlementRole, true\n        );\n\n        // If wallet has previously settled balance of the concerned currency with higher wallet nonce, then don't\n        // settle balance again\n        if (driipSettlementState.maxNonceByWalletAndCurrency(wallet, payment.currency) < walletNonce) {\n            // Update settled nonce of wallet and currency\n            driipSettlementState.setMaxNonceByWalletAndCurrency(wallet, payment.currency, walletNonce);\n\n            // Update settled balance\n            clientFund.updateSettledBalance(\n                wallet, currentBalance, payment.currency.ct, payment.currency.id, \"\", payment.blockNumber\n            );\n\n            // Stage (stage function assures positive amount only)\n            clientFund.stage(\n                wallet, driipSettlementChallengeState.proposalStageAmount(wallet, payment.currency),\n                payment.currency.ct, payment.currency.id, \"\"\n            );\n        }\n\n        // Stage fees to revenue fund\n        if (address(0) != address(revenueFund))\n            _stageFees(wallet, totalFees, revenueFund, walletNonce);\n\n        // If payment global nonce is beyond max driip nonce then update max driip nonce\n        // TODO TBM when global nonce goes away\n        if (payment.nonce > driipSettlementState.maxDriipNonce())\n            driipSettlementState.setMaxDriipNonce(payment.nonce);\n    }\n\n    function _getRoleProperties(PaymentTypesLib.Payment payment, address wallet)\n    private\n    view\n    returns (\n        DriipSettlementTypesLib.SettlementRole settlementRole, uint256 walletNonce,\n        NahmiiTypesLib.OriginFigure[] memory totalFees, int256 currentBalance\n    )\n    {\n        if (validator.isPaymentSender(payment, wallet)) {\n            settlementRole = DriipSettlementTypesLib.SettlementRole.Origin;\n            walletNonce = payment.sender.nonce;\n            totalFees = payment.sender.fees.total;\n            currentBalance = payment.sender.balances.current;\n\n        } else {\n            settlementRole = DriipSettlementTypesLib.SettlementRole.Target;\n            walletNonce = payment.recipient.nonce;\n            totalFees = payment.recipient.fees.total;\n            currentBalance = payment.recipient.balances.current;\n        }\n    }\n\n    function _stageFees(address wallet, NahmiiTypesLib.OriginFigure[] fees,\n        Beneficiary protocolBeneficiary, uint256 nonce)\n    private\n    {\n        // For each origin figure...\n        for (uint256 i = 0; i < fees.length; i++) {\n            // Based on originId determine if this is protocol or partner fee, and if the latter define originId as destination in beneficiary\n            (Beneficiary beneficiary, address destination) =\n            (0 == fees[i].originId) ? (protocolBeneficiary, address(0)) : (partnerFund, address(fees[i].originId));\n\n            if (driipSettlementState.totalFee(wallet, beneficiary, destination, fees[i].figure.currency).nonce < nonce) {\n                // Get the amount previously staged\n                int256 deltaAmount = fees[i].figure.amount - driipSettlementState.totalFee(wallet, beneficiary, destination, fees[i].figure.currency).amount;\n\n                // Update fee total\n                driipSettlementState.setTotalFee(wallet, beneficiary, destination, fees[i].figure.currency, MonetaryTypesLib.NoncedAmount(nonce, fees[i].figure.amount));\n\n                // Transfer to beneficiary\n                clientFund.transferToBeneficiary(\n                    destination, beneficiary, deltaAmount, fees[i].figure.currency.ct, fees[i].figure.currency.id, \"\"\n                );\n\n                // Emit event\n                emit StageFeesEvent(\n                    wallet, deltaAmount, fees[i].figure.amount, fees[i].figure.currency.ct, fees[i].figure.currency.id\n                );\n            }\n        }\n    }\n}",
    "sourcePath": "/Users/kata/dev/hubii/striim-contracts/contracts/DriipSettlementByPayment.sol",
    "compiler": {
        "name": "solc",
        "version": "0.4.25+commit.59dbf8f1.Emscripten.clang"
    },
    "schemaVersion": "2.0.2",
    "updatedAt": "2019-03-16T03:24:51.646Z"
}