{
    "contractName": "NullSettlementState",
    "abi": [
        {
            "constant": true,
            "inputs": [],
            "name": "SET_MAX_NONCE_WALLET_CURRENCY_ACTION",
            "outputs": [
                {
                    "name": "",
                    "type": "string"
                }
            ],
            "payable": false,
            "stateMutability": "view",
            "type": "function"
        },
        {
            "constant": true,
            "inputs": [
                {
                    "name": "service",
                    "type": "address"
                }
            ],
            "name": "isRegisteredActiveService",
            "outputs": [
                {
                    "name": "",
                    "type": "bool"
                }
            ],
            "payable": false,
            "stateMutability": "view",
            "type": "function"
        },
        {
            "constant": false,
            "inputs": [],
            "name": "triggerSelfDestruction",
            "outputs": [],
            "payable": false,
            "stateMutability": "nonpayable",
            "type": "function"
        },
        {
            "constant": false,
            "inputs": [
                {
                    "name": "service",
                    "type": "address"
                },
                {
                    "name": "action",
                    "type": "string"
                }
            ],
            "name": "enableServiceAction",
            "outputs": [],
            "payable": false,
            "stateMutability": "nonpayable",
            "type": "function"
        },
        {
            "constant": true,
            "inputs": [
                {
                    "name": "service",
                    "type": "address"
                }
            ],
            "name": "isRegisteredService",
            "outputs": [
                {
                    "name": "",
                    "type": "bool"
                }
            ],
            "payable": false,
            "stateMutability": "view",
            "type": "function"
        },
        {
            "constant": true,
            "inputs": [],
            "name": "selfDestructionDisabled",
            "outputs": [
                {
                    "name": "",
                    "type": "bool"
                }
            ],
            "payable": false,
            "stateMutability": "view",
            "type": "function"
        },
        {
            "constant": false,
            "inputs": [
                {
                    "name": "service",
                    "type": "address"
                },
                {
                    "name": "action",
                    "type": "string"
                }
            ],
            "name": "disableServiceAction",
            "outputs": [],
            "payable": false,
            "stateMutability": "nonpayable",
            "type": "function"
        },
        {
            "constant": true,
            "inputs": [],
            "name": "serviceActivationTimeout",
            "outputs": [
                {
                    "name": "",
                    "type": "uint256"
                }
            ],
            "payable": false,
            "stateMutability": "view",
            "type": "function"
        },
        {
            "constant": true,
            "inputs": [],
            "name": "destructor",
            "outputs": [
                {
                    "name": "",
                    "type": "address"
                }
            ],
            "payable": false,
            "stateMutability": "view",
            "type": "function"
        },
        {
            "constant": false,
            "inputs": [
                {
                    "name": "service",
                    "type": "address"
                }
            ],
            "name": "deregisterService",
            "outputs": [],
            "payable": false,
            "stateMutability": "nonpayable",
            "type": "function"
        },
        {
            "constant": true,
            "inputs": [],
            "name": "operator",
            "outputs": [
                {
                    "name": "",
                    "type": "address"
                }
            ],
            "payable": false,
            "stateMutability": "view",
            "type": "function"
        },
        {
            "constant": true,
            "inputs": [
                {
                    "name": "service",
                    "type": "address"
                },
                {
                    "name": "action",
                    "type": "string"
                }
            ],
            "name": "isEnabledServiceAction",
            "outputs": [
                {
                    "name": "",
                    "type": "bool"
                }
            ],
            "payable": false,
            "stateMutability": "view",
            "type": "function"
        },
        {
            "constant": true,
            "inputs": [],
            "name": "maxNullNonce",
            "outputs": [
                {
                    "name": "",
                    "type": "uint256"
                }
            ],
            "payable": false,
            "stateMutability": "view",
            "type": "function"
        },
        {
            "constant": false,
            "inputs": [],
            "name": "freezeCommunityVote",
            "outputs": [],
            "payable": false,
            "stateMutability": "nonpayable",
            "type": "function"
        },
        {
            "constant": true,
            "inputs": [],
            "name": "SET_MAX_NULL_NONCE_ACTION",
            "outputs": [
                {
                    "name": "",
                    "type": "string"
                }
            ],
            "payable": false,
            "stateMutability": "view",
            "type": "function"
        },
        {
            "constant": false,
            "inputs": [],
            "name": "disableSelfDestruction",
            "outputs": [],
            "payable": false,
            "stateMutability": "nonpayable",
            "type": "function"
        },
        {
            "constant": false,
            "inputs": [
                {
                    "name": "timeoutInSeconds",
                    "type": "uint256"
                }
            ],
            "name": "setServiceActivationTimeout",
            "outputs": [],
            "payable": false,
            "stateMutability": "nonpayable",
            "type": "function"
        },
        {
            "constant": false,
            "inputs": [
                {
                    "name": "service",
                    "type": "address"
                }
            ],
            "name": "registerServiceDeferred",
            "outputs": [],
            "payable": false,
            "stateMutability": "nonpayable",
            "type": "function"
        },
        {
            "constant": true,
            "inputs": [],
            "name": "communityVoteFrozen",
            "outputs": [
                {
                    "name": "",
                    "type": "bool"
                }
            ],
            "payable": false,
            "stateMutability": "view",
            "type": "function"
        },
        {
            "constant": false,
            "inputs": [
                {
                    "name": "newDeployer",
                    "type": "address"
                }
            ],
            "name": "setDeployer",
            "outputs": [],
            "payable": false,
            "stateMutability": "nonpayable",
            "type": "function"
        },
        {
            "constant": false,
            "inputs": [
                {
                    "name": "newOperator",
                    "type": "address"
                }
            ],
            "name": "setOperator",
            "outputs": [],
            "payable": false,
            "stateMutability": "nonpayable",
            "type": "function"
        },
        {
            "constant": true,
            "inputs": [],
            "name": "communityVote",
            "outputs": [
                {
                    "name": "",
                    "type": "address"
                }
            ],
            "payable": false,
            "stateMutability": "view",
            "type": "function"
        },
        {
            "constant": true,
            "inputs": [],
            "name": "deployer",
            "outputs": [
                {
                    "name": "",
                    "type": "address"
                }
            ],
            "payable": false,
            "stateMutability": "view",
            "type": "function"
        },
        {
            "constant": false,
            "inputs": [
                {
                    "name": "newCommunityVote",
                    "type": "address"
                }
            ],
            "name": "setCommunityVote",
            "outputs": [],
            "payable": false,
            "stateMutability": "nonpayable",
            "type": "function"
        },
        {
            "constant": true,
            "inputs": [
                {
                    "name": "",
                    "type": "address"
                },
                {
                    "name": "",
                    "type": "address"
                },
                {
                    "name": "",
                    "type": "uint256"
                }
            ],
            "name": "walletCurrencyMaxNonce",
            "outputs": [
                {
                    "name": "",
                    "type": "uint256"
                }
            ],
            "payable": false,
            "stateMutability": "view",
            "type": "function"
        },
        {
            "constant": false,
            "inputs": [
                {
                    "name": "service",
                    "type": "address"
                }
            ],
            "name": "registerService",
            "outputs": [],
            "payable": false,
            "stateMutability": "nonpayable",
            "type": "function"
        },
        {
            "inputs": [
                {
                    "name": "deployer",
                    "type": "address"
                }
            ],
            "payable": false,
            "stateMutability": "nonpayable",
            "type": "constructor"
        },
        {
            "anonymous": false,
            "inputs": [
                {
                    "indexed": false,
                    "name": "maxNullNonce",
                    "type": "uint256"
                }
            ],
            "name": "SetMaxNullNonceEvent",
            "type": "event"
        },
        {
            "anonymous": false,
            "inputs": [
                {
                    "indexed": false,
                    "name": "wallet",
                    "type": "address"
                },
                {
                    "components": [
                        {
                            "name": "ct",
                            "type": "address"
                        },
                        {
                            "name": "id",
                            "type": "uint256"
                        }
                    ],
                    "indexed": false,
                    "name": "currency",
                    "type": "tuple"
                },
                {
                    "indexed": false,
                    "name": "maxNullNonce",
                    "type": "uint256"
                }
            ],
            "name": "SetMaxNonceByWalletAndCurrencyEvent",
            "type": "event"
        },
        {
            "anonymous": false,
            "inputs": [
                {
                    "indexed": false,
                    "name": "maxDriipNonce",
                    "type": "uint256"
                }
            ],
            "name": "updateMaxNullNonceFromCommunityVoteEvent",
            "type": "event"
        },
        {
            "anonymous": false,
            "inputs": [
                {
                    "indexed": false,
                    "name": "oldCommunityVote",
                    "type": "address"
                },
                {
                    "indexed": false,
                    "name": "newCommunityVote",
                    "type": "address"
                }
            ],
            "name": "SetCommunityVoteEvent",
            "type": "event"
        },
        {
            "anonymous": false,
            "inputs": [],
            "name": "FreezeCommunityVoteEvent",
            "type": "event"
        },
        {
            "anonymous": false,
            "inputs": [
                {
                    "indexed": false,
                    "name": "timeoutInSeconds",
                    "type": "uint256"
                }
            ],
            "name": "ServiceActivationTimeoutEvent",
            "type": "event"
        },
        {
            "anonymous": false,
            "inputs": [
                {
                    "indexed": false,
                    "name": "service",
                    "type": "address"
                }
            ],
            "name": "RegisterServiceEvent",
            "type": "event"
        },
        {
            "anonymous": false,
            "inputs": [
                {
                    "indexed": false,
                    "name": "service",
                    "type": "address"
                },
                {
                    "indexed": false,
                    "name": "timeout",
                    "type": "uint256"
                }
            ],
            "name": "RegisterServiceDeferredEvent",
            "type": "event"
        },
        {
            "anonymous": false,
            "inputs": [
                {
                    "indexed": false,
                    "name": "service",
                    "type": "address"
                }
            ],
            "name": "DeregisterServiceEvent",
            "type": "event"
        },
        {
            "anonymous": false,
            "inputs": [
                {
                    "indexed": false,
                    "name": "service",
                    "type": "address"
                },
                {
                    "indexed": false,
                    "name": "action",
                    "type": "string"
                }
            ],
            "name": "EnableServiceActionEvent",
            "type": "event"
        },
        {
            "anonymous": false,
            "inputs": [
                {
                    "indexed": false,
                    "name": "service",
                    "type": "address"
                },
                {
                    "indexed": false,
                    "name": "action",
                    "type": "string"
                }
            ],
            "name": "DisableServiceActionEvent",
            "type": "event"
        },
        {
            "anonymous": false,
            "inputs": [
                {
                    "indexed": false,
                    "name": "oldDeployer",
                    "type": "address"
                },
                {
                    "indexed": false,
                    "name": "newDeployer",
                    "type": "address"
                }
            ],
            "name": "SetDeployerEvent",
            "type": "event"
        },
        {
            "anonymous": false,
            "inputs": [
                {
                    "indexed": false,
                    "name": "oldOperator",
                    "type": "address"
                },
                {
                    "indexed": false,
                    "name": "newOperator",
                    "type": "address"
                }
            ],
            "name": "SetOperatorEvent",
            "type": "event"
        },
        {
            "anonymous": false,
            "inputs": [
                {
                    "indexed": false,
                    "name": "wallet",
                    "type": "address"
                }
            ],
            "name": "SelfDestructionDisabledEvent",
            "type": "event"
        },
        {
            "anonymous": false,
            "inputs": [
                {
                    "indexed": false,
                    "name": "wallet",
                    "type": "address"
                }
            ],
            "name": "TriggerSelfDestructionEvent",
            "type": "event"
        },
        {
            "constant": false,
            "inputs": [
                {
                    "name": "_maxNullNonce",
                    "type": "uint256"
                }
            ],
            "name": "setMaxNullNonce",
            "outputs": [],
            "payable": false,
            "stateMutability": "nonpayable",
            "type": "function"
        },
        {
            "constant": true,
            "inputs": [
                {
                    "name": "wallet",
                    "type": "address"
                },
                {
                    "components": [
                        {
                            "name": "ct",
                            "type": "address"
                        },
                        {
                            "name": "id",
                            "type": "uint256"
                        }
                    ],
                    "name": "currency",
                    "type": "tuple"
                }
            ],
            "name": "maxNonceByWalletAndCurrency",
            "outputs": [
                {
                    "name": "",
                    "type": "uint256"
                }
            ],
            "payable": false,
            "stateMutability": "view",
            "type": "function"
        },
        {
            "constant": false,
            "inputs": [
                {
                    "name": "wallet",
                    "type": "address"
                },
                {
                    "components": [
                        {
                            "name": "ct",
                            "type": "address"
                        },
                        {
                            "name": "id",
                            "type": "uint256"
                        }
                    ],
                    "name": "currency",
                    "type": "tuple"
                },
                {
                    "name": "_maxNullNonce",
                    "type": "uint256"
                }
            ],
            "name": "setMaxNonceByWalletAndCurrency",
            "outputs": [],
            "payable": false,
            "stateMutability": "nonpayable",
            "type": "function"
        },
        {
            "constant": false,
            "inputs": [],
            "name": "updateMaxNullNonceFromCommunityVote",
            "outputs": [],
            "payable": false,
            "stateMutability": "nonpayable",
            "type": "function"
        }
    ],
    "bytecode": "0x60806040523480156200001157600080fd5b50604051602080620016fd8339810180604052620000339190810190620000b6565b8080600160a060020a03811615156200004b57600080fd5b600160a060020a0381163014156200006257600080fd5b506000805461010060a860020a031916610100600160a060020a039390931692830217905560018054600160a060020a031916909117905550620000eb565b6000620000af8251620000df565b9392505050565b600060208284031215620000c957600080fd5b6000620000d78484620000a1565b949350505050565b600160a060020a031690565b61160280620000fb6000396000f3006080604052600436106101665763ffffffff60e060020a60003504166313912199811461016b5780631423ba381461019657806317ba3f90146101b85780632738a112146101e55780632b5672e3146101fa5780632b91e0a91461021a5780632f013a001461023a5780633858654b1461024f5780633b58c5011461027c5780633b7bea6c1461029c5780634476d23b146102b157806350b08c02146102d3578063570ca735146102f35780635df1b0a3146103085780636266236714610328578063670732a71461033d57806369cdd8351461035257806370327ea1146103675780637e15dd5c1461037c5780638e8cef121461039c5780638e9d6cbd146103bc57806396214735146103d1578063b3ab15fb146103f1578063be3be25114610411578063bf24e7d014610426578063d5f3948814610448578063e86ab8f61461045d578063e8bec62b1461047d578063f06846801461049d578063fdd9ec7d146104bd575b600080fd5b34801561017757600080fd5b506101806104dd565b60405161018d91906114d7565b60405180910390f35b3480156101a257600080fd5b506101b66101b13660046112ee565b610502565b005b3480156101c457600080fd5b506101d86101d3366004611202565b6105b0565b60405161018d91906114a0565b3480156101f157600080fd5b506101b66105e8565b34801561020657600080fd5b506101b661021536600461126d565b61064e565b34801561022657600080fd5b506101d8610235366004611202565b61076e565b34801561024657600080fd5b506101d861078c565b34801561025b57600080fd5b5061026f61026a3660046112be565b610795565b60405161018d91906114e8565b34801561028857600080fd5b506101b661029736600461126d565b6107cd565b3480156102a857600080fd5b5061026f6108ad565b3480156102bd57600080fd5b506102c66108b3565b60405161018d9190611414565b3480156102df57600080fd5b506101b66102ee366004611202565b6108c7565b3480156102ff57600080fd5b506102c6610989565b34801561031457600080fd5b506101d861032336600461126d565b610998565b34801561033457600080fd5b5061026f6109e8565b34801561034957600080fd5b506101b66109ee565b34801561035e57600080fd5b50610180610a42565b34801561037357600080fd5b506101b6610a71565b34801561038857600080fd5b506101b661039736600461134f565b610ad4565b3480156103a857600080fd5b506101b66103b7366004611202565b610b27565b3480156103c857600080fd5b506101d8610ba5565b3480156103dd57600080fd5b506101b66103ec366004611202565b610bb5565b3480156103fd57600080fd5b506101b661040c366004611202565b610c7c565b34801561041d57600080fd5b506101b6610d26565b34801561043257600080fd5b5061043b610df9565b60405161018d91906114ae565b34801561045457600080fd5b506102c6610e08565b34801561046957600080fd5b506101b6610478366004611331565b610e1c565b34801561048957600080fd5b5061026f610498366004611220565b610edb565b3480156104a957600080fd5b506101b66104b836600461134f565b610efe565b3480156104c957600080fd5b506101b66104d8366004611202565b610f74565b60408051808201909152601d81526000805160206115a9833981519152602082015281565b60408051808201909152601d81526000805160206115a9833981519152602082015261052e3382610998565b151561053957600080fd5b600160a060020a038085166000908152600660209081526040808320875190941683529281528282208682015183529052819020839055517f627686b1b476427bcfe4120b0777072ab5c48442194270d02480b3c6373459ac906105a29086908690869061145d565b60405180910390a150505050565b60006105bb8261076e565b80156105e25750600160a060020a0382166000908152600260205260409020600101544210155b92915050565b336105f16108b3565b600160a060020a03161461060457600080fd5b60005460ff161561061457600080fd5b7f787a5d936e74f4b564b9153575886059829c78cd9927b1be5e0d976b317ef736336040516106439190611414565b60405180910390a133ff5b6000610658610fed565b151561066357600080fd5b82600160a060020a038116151561067957600080fd5b600160a060020a03811630141561068f57600080fd5b600160a060020a03841660009081526002602052604090205460ff1615156106b657600080fd5b6106bf83611003565b600160a060020a0385166000908152600260208181526040808420858552909201905290205490925060ff16156106f557600080fd5b600160a060020a03841660009081526002602081815260408084208685528084018352818520805460ff19166001908117909155938352600301805493840181558452922001839055517fec1b982d69bfc1a6fd8becf191d9a633486c822d3bdedd52303ca81fa6357501906105a2908690869061143d565b600160a060020a031660009081526002602052604090205460ff1690565b60005460ff1681565b600160a060020a0391821660009081526006602090815260408083208451909516835293815283822092810151825291909152205490565b60006107d7610fed565b15156107e257600080fd5b82600160a060020a03811615156107f857600080fd5b600160a060020a03811630141561080e57600080fd5b61081783611003565b600160a060020a0385166000908152600260208181526040808420858552909201905290205490925060ff16151561084e57600080fd5b600160a060020a0384166000908152600260208181526040808420868552909201905290819020805460ff19169055517f92f4af6130f47c92f3899e06611c8c6ef191fb81207ad2675d134af619d2fe7d906105a2908690869061143d565b60035481565b6000546101009004600160a060020a031690565b6108cf610fed565b15156108da57600080fd5b80600160a060020a03811615156108f057600080fd5b600160a060020a03811630141561090657600080fd5b600160a060020a03821660009081526002602052604090205460ff16151561092d57600080fd5b600160a060020a03821660009081526002602052604090819020805460ff19169055517f777645c5437dfbf962f57a281ead25f3d513f2f8e938685bbfc1738e81c9880e9061097d908490611414565b60405180910390a15050565b600154600160a060020a031681565b6000806109a483611003565b90506109af846105b0565b80156109e05750600160a060020a0384166000908152600260208181526040808420858552909201905290205460ff165b949350505050565b60055481565b6109f6610fed565b1515610a0157600080fd5b6004805460a060020a60ff02191660a060020a1790556040517fc1668d45f18667fb6eadfbcacfd5cdcc7dd4ecdfc9b0ab8786cfdbad86bb83d890600090a1565b6040805180820190915260128152607060020a717365745f6d61785f6e756c6c5f6e6f6e636502602082015281565b33610a7a6108b3565b600160a060020a031614610a8d57600080fd5b6000805460ff191660011790556040517fd5a2a04a775c741c2ca0dc46ea7ce4835190e1aaf1ca018def0e82568ec3361690610aca903390611414565b60405180910390a1565b610adc610fed565b1515610ae757600080fd5b60038190556040517f4f1d324a1cbffc352fb64f1d73d95e4b200d92f99ef39bf2d7f5b41f946909d690610b1c9083906114e8565b60405180910390a150565b610b2f610fed565b1515610b3a57600080fd5b80600160a060020a0381161515610b5057600080fd5b600160a060020a038116301415610b6657600080fd5b610b72826003546110cd565b7f7f3a8349917003ed377f6e9ae1608b92edd893903f8983bd274b1f8373dd3b118260035460405161097d929190611485565b60045460a060020a900460ff1681565b6000610bbf610fed565b1515610bca57600080fd5b81600160a060020a0381161515610be057600080fd5b600160a060020a038116301415610bf657600080fd5b600054600160a060020a038481166101009092041614610c775760008054600160a060020a0385811661010090810261010060a860020a0319841617909355604051929091041692507f977e5fa58e458501775e0008d275006294c5249e3c08d1d0e3a9f3acad14f6e490610c6e9084908690611422565b60405180910390a15b505050565b6000610c8661111f565b1515610c9157600080fd5b81600160a060020a0381161515610ca757600080fd5b600160a060020a038116301415610cbd57600080fd5b600154600160a060020a03848116911614610c775760018054600160a060020a03858116600160a060020a0319831617909255604051911692507f9f611b789425d0d5b90b920f1b2852907dd865c80074a30b1629aaa041d1812c90610c6e9084908690611422565b6000600460009054906101000a9004600160a060020a0316600160a060020a031663b5b9c7bf6040518163ffffffff1660e060020a028152600401602060405180830381600087803b158015610d7b57600080fd5b505af1158015610d8f573d6000803e3d6000fd5b505050506040513d601f19601f82011682018060405250610db3919081019061136d565b9050801515610dc157610df6565b60058190556040517f87d01927ad7c730c244eb5203a54166a2e25f6b94e2064d4b18e6e231a84d02990610b1c9083906114e8565b50565b600454600160a060020a031681565b6000546101009004600160a060020a031681565b6000610e26610fed565b1515610e3157600080fd5b81600160a060020a0381161515610e4757600080fd5b6004548390600160a060020a039081169082168114610ed45760045460a060020a900460ff1615610e7757600080fd5b60048054600160a060020a03878116600160a060020a0319831617909255604051911694507f624c4d4225a45f5bf8a9755adba1ef9be3464a9970b05a371fb6cca0c0caf20490610ecb90869088906114bc565b60405180910390a15b5050505050565b600660209081526000938452604080852082529284528284209052825290205481565b6040805180820190915260128152607060020a717365745f6d61785f6e756c6c5f6e6f6e6365026020820152610f343382610998565b1515610f3f57600080fd5b60058290556040517fcdaada53179669398f6d8b3bff9dba1832f3de9589c72c40f11dc47accefecc69061097d9084906114e8565b610f7c610fed565b1515610f8757600080fd5b80600160a060020a0381161515610f9d57600080fd5b600160a060020a038116301415610fb357600080fd5b610fbe8260006110cd565b7fb619d545cb511bd5f02907a1eac4f4cb8dace7b1846852fb0bf5e553937481c18260405161097d9190611414565b6000546101009004600160a060020a0316331490565b6000816040516020018082805190602001908083835b602083106110385780518252601f199092019160209182019101611019565b6001836020036101000a0380198251168184511680821785525050505050509050019150506040516020818303038152906040526040518082805190602001908083835b6020831061109b5780518252601f19909201916020918201910161107c565b5181516020939093036101000a6000190180199091169216919091179052604051920182900390912095945050505050565b600160a060020a03821660009081526002602052604090205460ff16151561111b57600160a060020a0382166000908152600260205260409020805460ff1916600190811782554283019101555b5050565b600154600160a060020a0316331490565b600061113c8235611547565b9392505050565b600061113c823561155b565b6000601f8201831361116057600080fd5b813561117361116e8261151c565b6114f6565b9150808252602083016020830185838301111561118f57600080fd5b61119a838284611566565b50505092915050565b6000604082840312156111b557600080fd5b6111bf60406114f6565b905060006111cd8484611130565b82525060206111de848483016111ea565b60208301525092915050565b600061113c8235611558565b600061113c8251611558565b60006020828403121561121457600080fd5b60006109e08484611130565b60008060006060848603121561123557600080fd5b60006112418686611130565b935050602061125286828701611130565b9250506040611263868287016111ea565b9150509250925092565b6000806040838503121561128057600080fd5b600061128c8585611130565b92505060208301356001604060020a038111156112a857600080fd5b6112b48582860161114f565b9150509250929050565b600080606083850312156112d157600080fd5b60006112dd8585611130565b92505060206112b4858286016111a3565b60008060006080848603121561130357600080fd5b600061130f8686611130565b9350506020611320868287016111a3565b9250506060611263868287016111ea565b60006020828403121561134357600080fd5b60006109e08484611143565b60006020828403121561136157600080fd5b60006109e084846111ea565b60006020828403121561137f57600080fd5b60006109e084846111f6565b61139481611547565b82525050565b61139481611553565b6113948161155b565b60006113b782611543565b8084526113cb816020860160208601611572565b6113d48161159e565b9093016020019392505050565b805160408301906113f2848261138b565b506020820151611405602085018261140b565b50505050565b61139481611558565b602081016105e2828461138b565b60408101611430828561138b565b61113c602083018461138b565b6040810161144b828561138b565b81810360208301526109e081846113ac565b6080810161146b828661138b565b61147860208301856113e1565b6109e0606083018461140b565b60408101611493828561138b565b61113c602083018461140b565b602081016105e2828461139a565b602081016105e282846113a3565b604081016114ca82856113a3565b61113c60208301846113a3565b6020808252810161113c81846113ac565b602081016105e2828461140b565b6040518181016001604060020a038111828210171561151457600080fd5b604052919050565b60006001604060020a0382111561153257600080fd5b506020601f91909101601f19160190565b5190565b600160a060020a031690565b151590565b90565b60006105e282611547565b82818337506000910152565b60005b8381101561158d578181015183820152602001611575565b838111156114055750506000910152565b601f01601f19169056007365745f6d61785f6e6f6e63655f77616c6c65745f63757272656e6379000000a265627a7a723058200e6be73f3370fd97c9e625ac812afe7a96af5732b9d3857aaff8b8014248e3126c6578706572696d656e74616cf50037",
    "source": "/*\n * Hubii Nahmii\n *\n * Compliant with the Hubii Nahmii specification v0.12.\n *\n * Copyright (C) 2017-2018 Hubii AS\n */\n\npragma solidity ^0.4.25;\npragma experimental ABIEncoderV2;\n\nimport {Ownable} from \"./Ownable.sol\";\nimport {Servable} from \"./Servable.sol\";\nimport {CommunityVotable} from \"./CommunityVotable.sol\";\nimport {RevenueFund} from \"./RevenueFund.sol\";\nimport {Beneficiary} from \"./Beneficiary.sol\";\nimport {SafeMathIntLib} from \"./SafeMathIntLib.sol\";\nimport {SafeMathUintLib} from \"./SafeMathUintLib.sol\";\nimport {MonetaryTypesLib} from \"./MonetaryTypesLib.sol\";\n\n/**\n * @title NullSettlementState\n * @notice Where null settlement state is managed\n */\ncontract NullSettlementState is Ownable, Servable, CommunityVotable {\n    using SafeMathIntLib for int256;\n    using SafeMathUintLib for uint256;\n\n    //\n    // Constants\n    // -----------------------------------------------------------------------------------------------------------------\n    string constant public SET_MAX_NULL_NONCE_ACTION = \"set_max_null_nonce\";\n    string constant public SET_MAX_NONCE_WALLET_CURRENCY_ACTION = \"set_max_nonce_wallet_currency\";\n\n    //\n    // Variables\n    // -----------------------------------------------------------------------------------------------------------------\n    uint256 public maxNullNonce;\n\n    mapping(address => mapping(address => mapping(uint256 => uint256))) public walletCurrencyMaxNonce;\n\n    //\n    // Events\n    // -----------------------------------------------------------------------------------------------------------------\n    event SetMaxNullNonceEvent(uint256 maxNullNonce);\n    event SetMaxNonceByWalletAndCurrencyEvent(address wallet, MonetaryTypesLib.Currency currency,\n        uint256 maxNullNonce);\n    event updateMaxNullNonceFromCommunityVoteEvent(uint256 maxDriipNonce);\n\n    //\n    // Constructor\n    // -----------------------------------------------------------------------------------------------------------------\n    constructor(address deployer) Ownable(deployer) public {\n    }\n\n    //\n    // Functions\n    // -----------------------------------------------------------------------------------------------------------------\n    /// @notice Set the max null nonce\n    /// @param _maxNullNonce The max nonce\n    function setMaxNullNonce(uint256 _maxNullNonce)\n    public\n    onlyEnabledServiceAction(SET_MAX_NULL_NONCE_ACTION)\n    {\n        maxNullNonce = _maxNullNonce;\n\n        // Emit event\n        emit SetMaxNullNonceEvent(_maxNullNonce);\n    }\n\n    /// @notice Get the max null nonce of the given wallet and currency\n    /// @param wallet The address of the concerned wallet\n    /// @param currency The concerned currency\n    /// @return The max nonce\n    function maxNonceByWalletAndCurrency(address wallet, MonetaryTypesLib.Currency currency)\n    public\n    view\n    returns (uint256) {\n        return walletCurrencyMaxNonce[wallet][currency.ct][currency.id];\n    }\n\n    /// @notice Set the max null nonce of the given wallet and currency\n    /// @param wallet The address of the concerned wallet\n    /// @param currency The concerned currency\n    /// @param _maxNullNonce The max nonce\n    function setMaxNonceByWalletAndCurrency(address wallet, MonetaryTypesLib.Currency currency,\n        uint256 _maxNullNonce)\n    public\n    onlyEnabledServiceAction(SET_MAX_NONCE_WALLET_CURRENCY_ACTION)\n    {\n        walletCurrencyMaxNonce[wallet][currency.ct][currency.id] = _maxNullNonce;\n\n        // Emit event\n        emit SetMaxNonceByWalletAndCurrencyEvent(wallet, currency, _maxNullNonce);\n    }\n\n    /// @notice Update the max null settlement nonce property from CommunityVote contract\n    function updateMaxNullNonceFromCommunityVote()\n    public\n    {\n        uint256 _maxNullNonce = communityVote.getMaxNullNonce();\n        if (0 == _maxNullNonce)\n            return;\n\n        maxNullNonce = _maxNullNonce;\n\n        // Emit event\n        emit updateMaxNullNonceFromCommunityVoteEvent(maxNullNonce);\n    }\n}",
    "sourcePath": "/Users/kata/dev/hubii/striim-contracts/contracts/NullSettlementState.sol",
    "compiler": {
        "name": "solc",
        "version": "0.4.25+commit.59dbf8f1.Emscripten.clang"
    },
    "schemaVersion": "2.0.2",
    "updatedAt": "2019-03-16T07:40:15.722Z"
}