{
    "contractName": "NullSettlementChallengeByPayment",
    "abi": [
        {
            "constant": true,
            "inputs": [],
            "name": "balanceTracker",
            "outputs": [
                {
                    "name": "",
                    "type": "address"
                }
            ],
            "payable": false,
            "stateMutability": "view",
            "type": "function"
        },
        {
            "constant": true,
            "inputs": [],
            "name": "walletLockerFrozen",
            "outputs": [
                {
                    "name": "",
                    "type": "bool"
                }
            ],
            "payable": false,
            "stateMutability": "view",
            "type": "function"
        },
        {
            "constant": true,
            "inputs": [],
            "name": "driipSettlementState",
            "outputs": [
                {
                    "name": "",
                    "type": "address"
                }
            ],
            "payable": false,
            "stateMutability": "view",
            "type": "function"
        },
        {
            "constant": false,
            "inputs": [],
            "name": "triggerSelfDestruction",
            "outputs": [],
            "payable": false,
            "stateMutability": "nonpayable",
            "type": "function"
        },
        {
            "constant": true,
            "inputs": [],
            "name": "selfDestructionDisabled",
            "outputs": [
                {
                    "name": "",
                    "type": "bool"
                }
            ],
            "payable": false,
            "stateMutability": "view",
            "type": "function"
        },
        {
            "constant": true,
            "inputs": [],
            "name": "balanceTrackerFrozen",
            "outputs": [
                {
                    "name": "",
                    "type": "bool"
                }
            ],
            "payable": false,
            "stateMutability": "view",
            "type": "function"
        },
        {
            "constant": true,
            "inputs": [],
            "name": "nullSettlementDisputeByPayment",
            "outputs": [
                {
                    "name": "",
                    "type": "address"
                }
            ],
            "payable": false,
            "stateMutability": "view",
            "type": "function"
        },
        {
            "constant": true,
            "inputs": [],
            "name": "destructor",
            "outputs": [
                {
                    "name": "",
                    "type": "address"
                }
            ],
            "payable": false,
            "stateMutability": "view",
            "type": "function"
        },
        {
            "constant": true,
            "inputs": [],
            "name": "operator",
            "outputs": [
                {
                    "name": "",
                    "type": "address"
                }
            ],
            "payable": false,
            "stateMutability": "view",
            "type": "function"
        },
        {
            "constant": false,
            "inputs": [
                {
                    "name": "newBalanceTracker",
                    "type": "address"
                }
            ],
            "name": "setBalanceTracker",
            "outputs": [],
            "payable": false,
            "stateMutability": "nonpayable",
            "type": "function"
        },
        {
            "constant": false,
            "inputs": [],
            "name": "freezeWalletLocker",
            "outputs": [],
            "payable": false,
            "stateMutability": "nonpayable",
            "type": "function"
        },
        {
            "constant": false,
            "inputs": [
                {
                    "name": "newConfiguration",
                    "type": "address"
                }
            ],
            "name": "setConfiguration",
            "outputs": [],
            "payable": false,
            "stateMutability": "nonpayable",
            "type": "function"
        },
        {
            "constant": true,
            "inputs": [],
            "name": "configuration",
            "outputs": [
                {
                    "name": "",
                    "type": "address"
                }
            ],
            "payable": false,
            "stateMutability": "view",
            "type": "function"
        },
        {
            "constant": false,
            "inputs": [],
            "name": "disableSelfDestruction",
            "outputs": [],
            "payable": false,
            "stateMutability": "nonpayable",
            "type": "function"
        },
        {
            "constant": false,
            "inputs": [
                {
                    "name": "newWalletLocker",
                    "type": "address"
                }
            ],
            "name": "setWalletLocker",
            "outputs": [],
            "payable": false,
            "stateMutability": "nonpayable",
            "type": "function"
        },
        {
            "constant": false,
            "inputs": [
                {
                    "name": "newDeployer",
                    "type": "address"
                }
            ],
            "name": "setDeployer",
            "outputs": [],
            "payable": false,
            "stateMutability": "nonpayable",
            "type": "function"
        },
        {
            "constant": false,
            "inputs": [
                {
                    "name": "newOperator",
                    "type": "address"
                }
            ],
            "name": "setOperator",
            "outputs": [],
            "payable": false,
            "stateMutability": "nonpayable",
            "type": "function"
        },
        {
            "constant": false,
            "inputs": [],
            "name": "freezeBalanceTracker",
            "outputs": [],
            "payable": false,
            "stateMutability": "nonpayable",
            "type": "function"
        },
        {
            "constant": true,
            "inputs": [],
            "name": "deployer",
            "outputs": [
                {
                    "name": "",
                    "type": "address"
                }
            ],
            "payable": false,
            "stateMutability": "view",
            "type": "function"
        },
        {
            "constant": true,
            "inputs": [],
            "name": "walletLocker",
            "outputs": [
                {
                    "name": "",
                    "type": "address"
                }
            ],
            "payable": false,
            "stateMutability": "view",
            "type": "function"
        },
        {
            "constant": true,
            "inputs": [],
            "name": "nullSettlementChallengeState",
            "outputs": [
                {
                    "name": "",
                    "type": "address"
                }
            ],
            "payable": false,
            "stateMutability": "view",
            "type": "function"
        },
        {
            "inputs": [
                {
                    "name": "deployer",
                    "type": "address"
                }
            ],
            "payable": false,
            "stateMutability": "nonpayable",
            "type": "constructor"
        },
        {
            "anonymous": false,
            "inputs": [
                {
                    "indexed": false,
                    "name": "oldNullSettlementDisputeByPayment",
                    "type": "address"
                },
                {
                    "indexed": false,
                    "name": "newNullSettlementDisputeByPayment",
                    "type": "address"
                }
            ],
            "name": "SetNullSettlementDisputeByPaymentEvent",
            "type": "event"
        },
        {
            "anonymous": false,
            "inputs": [
                {
                    "indexed": false,
                    "name": "oldNullSettlementChallengeState",
                    "type": "address"
                },
                {
                    "indexed": false,
                    "name": "newNullSettlementChallengeState",
                    "type": "address"
                }
            ],
            "name": "SetNullSettlementChallengeStateEvent",
            "type": "event"
        },
        {
            "anonymous": false,
            "inputs": [
                {
                    "indexed": false,
                    "name": "oldDriipSettlementState",
                    "type": "address"
                },
                {
                    "indexed": false,
                    "name": "newDriipSettlementState",
                    "type": "address"
                }
            ],
            "name": "SetDriipSettlementStateEvent",
            "type": "event"
        },
        {
            "anonymous": false,
            "inputs": [
                {
                    "indexed": false,
                    "name": "wallet",
                    "type": "address"
                },
                {
                    "indexed": false,
                    "name": "amount",
                    "type": "int256"
                },
                {
                    "indexed": false,
                    "name": "stageCurrencyCt",
                    "type": "address"
                },
                {
                    "indexed": false,
                    "name": "stageCurrencyId",
                    "type": "uint256"
                }
            ],
            "name": "StartChallengeEvent",
            "type": "event"
        },
        {
            "anonymous": false,
            "inputs": [
                {
                    "indexed": false,
                    "name": "proxy",
                    "type": "address"
                },
                {
                    "indexed": false,
                    "name": "wallet",
                    "type": "address"
                },
                {
                    "indexed": false,
                    "name": "amount",
                    "type": "int256"
                },
                {
                    "indexed": false,
                    "name": "stageCurrencyCt",
                    "type": "address"
                },
                {
                    "indexed": false,
                    "name": "stageCurrencyId",
                    "type": "uint256"
                }
            ],
            "name": "StartChallengeByProxyEvent",
            "type": "event"
        },
        {
            "anonymous": false,
            "inputs": [
                {
                    "indexed": false,
                    "name": "wallet",
                    "type": "address"
                },
                {
                    "indexed": false,
                    "name": "currencyCt",
                    "type": "address"
                },
                {
                    "indexed": false,
                    "name": "currencyId",
                    "type": "uint256"
                }
            ],
            "name": "StopChallengeEvent",
            "type": "event"
        },
        {
            "anonymous": false,
            "inputs": [
                {
                    "indexed": false,
                    "name": "proxy",
                    "type": "address"
                },
                {
                    "indexed": false,
                    "name": "wallet",
                    "type": "address"
                },
                {
                    "indexed": false,
                    "name": "currencyCt",
                    "type": "address"
                },
                {
                    "indexed": false,
                    "name": "currencyId",
                    "type": "uint256"
                }
            ],
            "name": "StopChallengeByProxyEvent",
            "type": "event"
        },
        {
            "anonymous": false,
            "inputs": [
                {
                    "indexed": false,
                    "name": "oldWalletLocker",
                    "type": "address"
                },
                {
                    "indexed": false,
                    "name": "newWalletLocker",
                    "type": "address"
                }
            ],
            "name": "SetWalletLockerEvent",
            "type": "event"
        },
        {
            "anonymous": false,
            "inputs": [],
            "name": "FreezeWalletLockerEvent",
            "type": "event"
        },
        {
            "anonymous": false,
            "inputs": [
                {
                    "indexed": false,
                    "name": "oldBalanceTracker",
                    "type": "address"
                },
                {
                    "indexed": false,
                    "name": "newBalanceTracker",
                    "type": "address"
                }
            ],
            "name": "SetBalanceTrackerEvent",
            "type": "event"
        },
        {
            "anonymous": false,
            "inputs": [],
            "name": "FreezeBalanceTrackerEvent",
            "type": "event"
        },
        {
            "anonymous": false,
            "inputs": [
                {
                    "indexed": false,
                    "name": "oldConfiguration",
                    "type": "address"
                },
                {
                    "indexed": false,
                    "name": "newConfiguration",
                    "type": "address"
                }
            ],
            "name": "SetConfigurationEvent",
            "type": "event"
        },
        {
            "anonymous": false,
            "inputs": [
                {
                    "indexed": false,
                    "name": "oldDeployer",
                    "type": "address"
                },
                {
                    "indexed": false,
                    "name": "newDeployer",
                    "type": "address"
                }
            ],
            "name": "SetDeployerEvent",
            "type": "event"
        },
        {
            "anonymous": false,
            "inputs": [
                {
                    "indexed": false,
                    "name": "oldOperator",
                    "type": "address"
                },
                {
                    "indexed": false,
                    "name": "newOperator",
                    "type": "address"
                }
            ],
            "name": "SetOperatorEvent",
            "type": "event"
        },
        {
            "anonymous": false,
            "inputs": [
                {
                    "indexed": false,
                    "name": "wallet",
                    "type": "address"
                }
            ],
            "name": "SelfDestructionDisabledEvent",
            "type": "event"
        },
        {
            "anonymous": false,
            "inputs": [
                {
                    "indexed": false,
                    "name": "wallet",
                    "type": "address"
                }
            ],
            "name": "TriggerSelfDestructionEvent",
            "type": "event"
        },
        {
            "constant": false,
            "inputs": [
                {
                    "name": "newNullSettlementDisputeByPayment",
                    "type": "address"
                }
            ],
            "name": "setNullSettlementDisputeByPayment",
            "outputs": [],
            "payable": false,
            "stateMutability": "nonpayable",
            "type": "function"
        },
        {
            "constant": false,
            "inputs": [
                {
                    "name": "newNullSettlementChallengeState",
                    "type": "address"
                }
            ],
            "name": "setNullSettlementChallengeState",
            "outputs": [],
            "payable": false,
            "stateMutability": "nonpayable",
            "type": "function"
        },
        {
            "constant": false,
            "inputs": [
                {
                    "name": "newDriipSettlementState",
                    "type": "address"
                }
            ],
            "name": "setDriipSettlementState",
            "outputs": [],
            "payable": false,
            "stateMutability": "nonpayable",
            "type": "function"
        },
        {
            "constant": false,
            "inputs": [
                {
                    "name": "amount",
                    "type": "int256"
                },
                {
                    "name": "currencyCt",
                    "type": "address"
                },
                {
                    "name": "currencyId",
                    "type": "uint256"
                }
            ],
            "name": "startChallenge",
            "outputs": [],
            "payable": false,
            "stateMutability": "nonpayable",
            "type": "function"
        },
        {
            "constant": false,
            "inputs": [
                {
                    "name": "wallet",
                    "type": "address"
                },
                {
                    "name": "amount",
                    "type": "int256"
                },
                {
                    "name": "currencyCt",
                    "type": "address"
                },
                {
                    "name": "currencyId",
                    "type": "uint256"
                }
            ],
            "name": "startChallengeByProxy",
            "outputs": [],
            "payable": false,
            "stateMutability": "nonpayable",
            "type": "function"
        },
        {
            "constant": false,
            "inputs": [
                {
                    "name": "currencyCt",
                    "type": "address"
                },
                {
                    "name": "currencyId",
                    "type": "uint256"
                }
            ],
            "name": "stopChallenge",
            "outputs": [],
            "payable": false,
            "stateMutability": "nonpayable",
            "type": "function"
        },
        {
            "constant": false,
            "inputs": [
                {
                    "name": "wallet",
                    "type": "address"
                },
                {
                    "name": "currencyCt",
                    "type": "address"
                },
                {
                    "name": "currencyId",
                    "type": "uint256"
                }
            ],
            "name": "stopChallengeByProxy",
            "outputs": [],
            "payable": false,
            "stateMutability": "nonpayable",
            "type": "function"
        },
        {
            "constant": true,
            "inputs": [
                {
                    "name": "wallet",
                    "type": "address"
                },
                {
                    "name": "currencyCt",
                    "type": "address"
                },
                {
                    "name": "currencyId",
                    "type": "uint256"
                }
            ],
            "name": "hasProposalExpired",
            "outputs": [
                {
                    "name": "",
                    "type": "bool"
                }
            ],
            "payable": false,
            "stateMutability": "view",
            "type": "function"
        },
        {
            "constant": true,
            "inputs": [
                {
                    "name": "wallet",
                    "type": "address"
                },
                {
                    "name": "currencyCt",
                    "type": "address"
                },
                {
                    "name": "currencyId",
                    "type": "uint256"
                }
            ],
            "name": "proposalNonce",
            "outputs": [
                {
                    "name": "",
                    "type": "uint256"
                }
            ],
            "payable": false,
            "stateMutability": "view",
            "type": "function"
        },
        {
            "constant": true,
            "inputs": [
                {
                    "name": "wallet",
                    "type": "address"
                },
                {
                    "name": "currencyCt",
                    "type": "address"
                },
                {
                    "name": "currencyId",
                    "type": "uint256"
                }
            ],
            "name": "proposalBlockNumber",
            "outputs": [
                {
                    "name": "",
                    "type": "uint256"
                }
            ],
            "payable": false,
            "stateMutability": "view",
            "type": "function"
        },
        {
            "constant": true,
            "inputs": [
                {
                    "name": "wallet",
                    "type": "address"
                },
                {
                    "name": "currencyCt",
                    "type": "address"
                },
                {
                    "name": "currencyId",
                    "type": "uint256"
                }
            ],
            "name": "proposalExpirationTime",
            "outputs": [
                {
                    "name": "",
                    "type": "uint256"
                }
            ],
            "payable": false,
            "stateMutability": "view",
            "type": "function"
        },
        {
            "constant": true,
            "inputs": [
                {
                    "name": "wallet",
                    "type": "address"
                },
                {
                    "name": "currencyCt",
                    "type": "address"
                },
                {
                    "name": "currencyId",
                    "type": "uint256"
                }
            ],
            "name": "proposalStatus",
            "outputs": [
                {
                    "name": "",
                    "type": "uint8"
                }
            ],
            "payable": false,
            "stateMutability": "view",
            "type": "function"
        },
        {
            "constant": true,
            "inputs": [
                {
                    "name": "wallet",
                    "type": "address"
                },
                {
                    "name": "currencyCt",
                    "type": "address"
                },
                {
                    "name": "currencyId",
                    "type": "uint256"
                }
            ],
            "name": "proposalStageAmount",
            "outputs": [
                {
                    "name": "",
                    "type": "int256"
                }
            ],
            "payable": false,
            "stateMutability": "view",
            "type": "function"
        },
        {
            "constant": true,
            "inputs": [
                {
                    "name": "wallet",
                    "type": "address"
                },
                {
                    "name": "currencyCt",
                    "type": "address"
                },
                {
                    "name": "currencyId",
                    "type": "uint256"
                }
            ],
            "name": "proposalTargetBalanceAmount",
            "outputs": [
                {
                    "name": "",
                    "type": "int256"
                }
            ],
            "payable": false,
            "stateMutability": "view",
            "type": "function"
        },
        {
            "constant": true,
            "inputs": [
                {
                    "name": "wallet",
                    "type": "address"
                },
                {
                    "name": "currencyCt",
                    "type": "address"
                },
                {
                    "name": "currencyId",
                    "type": "uint256"
                }
            ],
            "name": "proposalWalletInitiated",
            "outputs": [
                {
                    "name": "",
                    "type": "bool"
                }
            ],
            "payable": false,
            "stateMutability": "view",
            "type": "function"
        },
        {
            "constant": true,
            "inputs": [
                {
                    "name": "wallet",
                    "type": "address"
                },
                {
                    "name": "currencyCt",
                    "type": "address"
                },
                {
                    "name": "currencyId",
                    "type": "uint256"
                }
            ],
            "name": "proposalDisqualificationChallenger",
            "outputs": [
                {
                    "name": "",
                    "type": "address"
                }
            ],
            "payable": false,
            "stateMutability": "view",
            "type": "function"
        },
        {
            "constant": true,
            "inputs": [
                {
                    "name": "wallet",
                    "type": "address"
                },
                {
                    "name": "currencyCt",
                    "type": "address"
                },
                {
                    "name": "currencyId",
                    "type": "uint256"
                }
            ],
            "name": "proposalDisqualificationBlockNumber",
            "outputs": [
                {
                    "name": "",
                    "type": "uint256"
                }
            ],
            "payable": false,
            "stateMutability": "view",
            "type": "function"
        },
        {
            "constant": true,
            "inputs": [
                {
                    "name": "wallet",
                    "type": "address"
                },
                {
                    "name": "currencyCt",
                    "type": "address"
                },
                {
                    "name": "currencyId",
                    "type": "uint256"
                }
            ],
            "name": "proposalDisqualificationCandidateType",
            "outputs": [
                {
                    "name": "",
                    "type": "string"
                }
            ],
            "payable": false,
            "stateMutability": "view",
            "type": "function"
        },
        {
            "constant": true,
            "inputs": [
                {
                    "name": "wallet",
                    "type": "address"
                },
                {
                    "name": "currencyCt",
                    "type": "address"
                },
                {
                    "name": "currencyId",
                    "type": "uint256"
                }
            ],
            "name": "proposalDisqualificationCandidateHash",
            "outputs": [
                {
                    "name": "",
                    "type": "bytes32"
                }
            ],
            "payable": false,
            "stateMutability": "view",
            "type": "function"
        },
        {
            "constant": false,
            "inputs": [
                {
                    "name": "wallet",
                    "type": "address"
                },
                {
                    "components": [
                        {
                            "name": "nonce",
                            "type": "uint256"
                        },
                        {
                            "name": "amount",
                            "type": "int256"
                        },
                        {
                            "components": [
                                {
                                    "name": "ct",
                                    "type": "address"
                                },
                                {
                                    "name": "id",
                                    "type": "uint256"
                                }
                            ],
                            "name": "currency",
                            "type": "tuple"
                        },
                        {
                            "components": [
                                {
                                    "name": "nonce",
                                    "type": "uint256"
                                },
                                {
                                    "name": "wallet",
                                    "type": "address"
                                },
                                {
                                    "components": [
                                        {
                                            "name": "current",
                                            "type": "int256"
                                        },
                                        {
                                            "name": "previous",
                                            "type": "int256"
                                        }
                                    ],
                                    "name": "balances",
                                    "type": "tuple"
                                },
                                {
                                    "components": [
                                        {
                                            "components": [
                                                {
                                                    "name": "amount",
                                                    "type": "int256"
                                                },
                                                {
                                                    "components": [
                                                        {
                                                            "name": "ct",
                                                            "type": "address"
                                                        },
                                                        {
                                                            "name": "id",
                                                            "type": "uint256"
                                                        }
                                                    ],
                                                    "name": "currency",
                                                    "type": "tuple"
                                                }
                                            ],
                                            "name": "single",
                                            "type": "tuple"
                                        },
                                        {
                                            "components": [
                                                {
                                                    "name": "originId",
                                                    "type": "uint256"
                                                },
                                                {
                                                    "components": [
                                                        {
                                                            "name": "amount",
                                                            "type": "int256"
                                                        },
                                                        {
                                                            "components": [
                                                                {
                                                                    "name": "ct",
                                                                    "type": "address"
                                                                },
                                                                {
                                                                    "name": "id",
                                                                    "type": "uint256"
                                                                }
                                                            ],
                                                            "name": "currency",
                                                            "type": "tuple"
                                                        }
                                                    ],
                                                    "name": "figure",
                                                    "type": "tuple"
                                                }
                                            ],
                                            "name": "total",
                                            "type": "tuple[]"
                                        }
                                    ],
                                    "name": "fees",
                                    "type": "tuple"
                                }
                            ],
                            "name": "sender",
                            "type": "tuple"
                        },
                        {
                            "components": [
                                {
                                    "name": "nonce",
                                    "type": "uint256"
                                },
                                {
                                    "name": "wallet",
                                    "type": "address"
                                },
                                {
                                    "components": [
                                        {
                                            "name": "current",
                                            "type": "int256"
                                        },
                                        {
                                            "name": "previous",
                                            "type": "int256"
                                        }
                                    ],
                                    "name": "balances",
                                    "type": "tuple"
                                },
                                {
                                    "components": [
                                        {
                                            "components": [
                                                {
                                                    "name": "originId",
                                                    "type": "uint256"
                                                },
                                                {
                                                    "components": [
                                                        {
                                                            "name": "amount",
                                                            "type": "int256"
                                                        },
                                                        {
                                                            "components": [
                                                                {
                                                                    "name": "ct",
                                                                    "type": "address"
                                                                },
                                                                {
                                                                    "name": "id",
                                                                    "type": "uint256"
                                                                }
                                                            ],
                                                            "name": "currency",
                                                            "type": "tuple"
                                                        }
                                                    ],
                                                    "name": "figure",
                                                    "type": "tuple"
                                                }
                                            ],
                                            "name": "total",
                                            "type": "tuple[]"
                                        }
                                    ],
                                    "name": "fees",
                                    "type": "tuple"
                                }
                            ],
                            "name": "recipient",
                            "type": "tuple"
                        },
                        {
                            "components": [
                                {
                                    "name": "single",
                                    "type": "int256"
                                },
                                {
                                    "name": "total",
                                    "type": "int256"
                                }
                            ],
                            "name": "transfers",
                            "type": "tuple"
                        },
                        {
                            "components": [
                                {
                                    "components": [
                                        {
                                            "name": "hash",
                                            "type": "bytes32"
                                        },
                                        {
                                            "components": [
                                                {
                                                    "name": "r",
                                                    "type": "bytes32"
                                                },
                                                {
                                                    "name": "s",
                                                    "type": "bytes32"
                                                },
                                                {
                                                    "name": "v",
                                                    "type": "uint8"
                                                }
                                            ],
                                            "name": "signature",
                                            "type": "tuple"
                                        }
                                    ],
                                    "name": "wallet",
                                    "type": "tuple"
                                },
                                {
                                    "components": [
                                        {
                                            "name": "hash",
                                            "type": "bytes32"
                                        },
                                        {
                                            "components": [
                                                {
                                                    "name": "r",
                                                    "type": "bytes32"
                                                },
                                                {
                                                    "name": "s",
                                                    "type": "bytes32"
                                                },
                                                {
                                                    "name": "v",
                                                    "type": "uint8"
                                                }
                                            ],
                                            "name": "signature",
                                            "type": "tuple"
                                        }
                                    ],
                                    "name": "operator",
                                    "type": "tuple"
                                }
                            ],
                            "name": "seals",
                            "type": "tuple"
                        },
                        {
                            "name": "blockNumber",
                            "type": "uint256"
                        },
                        {
                            "name": "operatorId",
                            "type": "uint256"
                        }
                    ],
                    "name": "payment",
                    "type": "tuple"
                }
            ],
            "name": "challengeByPayment",
            "outputs": [],
            "payable": false,
            "stateMutability": "nonpayable",
            "type": "function"
        }
    ],
    "bytecode": "0x60806040523480156200001157600080fd5b5060405160208062002b468339810180604052620000339190810190620000b6565b8080600160a060020a03811615156200004b57600080fd5b600160a060020a0381163014156200006257600080fd5b506000805461010060a860020a031916610100600160a060020a039390931692830217905560018054600160a060020a031916909117905550620000eb565b6000620000af8251620000df565b9392505050565b600060208284031215620000c957600080fd5b6000620000d78484620000a1565b949350505050565b600160a060020a031690565b612a4b80620000fb6000396000f3006080604052600436106101df5763ffffffff60e060020a6000350416630712abb081146101e4578063169879291461021a5780631913909214610247578063240625d81461026957806325c844411461028b5780632738a112146102a05780632f013a00146102b75780633a9a5169146102cc5780633bebdcb5146102ec5780633e59b7061461030c578063404e896f1461032157806342cb458714610341578063432737a9146103615780634476d23b146103765780635618b56c14610398578063570ca735146103c5578063598b75ad146103da5780635dc60def146103fa578063627f09c31461040f5780636c70bee91461042f5780636ccb43c81461044457806370327ea1146104645780637da5b11c14610479578063892860b21461049957806396214735146104b9578063972fcee0146104d9578063adfb6778146104f9578063b3ab15fb14610519578063b52d470a14610539578063c19df1e41461054e578063c1c681651461056e578063cdbf94191461058e578063d5b68c62146105ae578063d5f39488146105ce578063e8ae41e3146105e3578063ed8a829d146105f8578063f7b8761714610618578063fa7424f214610638578063fb1a825e1461064d578063fca5192b1461066d578063fcd30b021461068d575b600080fd5b3480156101f057600080fd5b506102046101ff36600461213f565b6106ad565b60405161021191906128f6565b60405180910390f35b34801561022657600080fd5b5061023a61023536600461213f565b610755565b60405161021191906128bf565b34801561025357600080fd5b5061025c6107f3565b60405161021191906128cd565b34801561027557600080fd5b5061027e610802565b60405161021191906128b1565b34801561029757600080fd5b5061025c610812565b3480156102ac57600080fd5b506102b5610821565b005b3480156102c357600080fd5b5061027e610887565b3480156102d857600080fd5b506102b56102e73660046122aa565b610890565b3480156102f857600080fd5b5061027e61030736600461213f565b610921565b34801561031857600080fd5b5061027e6109bf565b34801561032d57600080fd5b506102b561033c3660046122aa565b6109cf565b34801561034d57600080fd5b5061023a61035c36600461213f565b610a53565b34801561036d57600080fd5b5061025c610a9f565b34801561038257600080fd5b5061038b610aae565b60405161021191906126e9565b3480156103a457600080fd5b506103b86103b336600461213f565b610ac2565b6040516102119190612904565b3480156103d157600080fd5b5061038b610b64565b3480156103e657600080fd5b506102b56103f53660046122aa565b610b73565b34801561040657600080fd5b506102b5610c32565b34801561041b57600080fd5b506102b561042a3660046122aa565b610c86565b34801561043b57600080fd5b5061025c610d1e565b34801561045057600080fd5b506102b561045f3660046122aa565b610d2d565b34801561047057600080fd5b506102b5610db1565b34801561048557600080fd5b5061027e61049436600461213f565b610e14565b3480156104a557600080fd5b506102b56104b43660046122aa565b610e60565b3480156104c557600080fd5b506102b56104d43660046120fb565b610f0f565b3480156104e557600080fd5b506102b56104f436600461213f565b610fcd565b34801561050557600080fd5b5061023a61051436600461213f565b61103e565b34801561052557600080fd5b506102b56105343660046120fb565b61108a565b34801561054557600080fd5b506102b5611134565b34801561055a57600080fd5b506102b561056936600461223e565b611188565b34801561057a57600080fd5b506102b56105893660046122e6565b6111f0565b34801561059a57600080fd5b5061023a6105a936600461213f565b6112dd565b3480156105ba57600080fd5b5061023a6105c936600461213f565b611329565b3480156105da57600080fd5b5061038b611375565b3480156105ef57600080fd5b5061025c611389565b34801561060457600080fd5b506102b56106133660046121ed565b611398565b34801561062457600080fd5b506102b561063336600461218c565b61149b565b34801561064457600080fd5b5061025c61151d565b34801561065957600080fd5b5061023a61066836600461213f565b61152c565b34801561067957600080fd5b5061023a61068836600461213f565b611578565b34801561069957600080fd5b5061038b6106a836600461213f565b6115c4565b600654604080518082018252600160a060020a03858116825260208201859052915160e060020a63b6e2fc33028152600093929092169163b6e2fc33916106f9918891906004016127d6565b602060405180830381600087803b15801561071357600080fd5b505af1158015610727573d6000803e3d6000fd5b505050506040513d601f19601f8201168201806040525061074b91908101906122c8565b90505b9392505050565b600654604080518082018252600160a060020a03858116825260208201859052915160e060020a63c46fcd75028152600093929092169163c46fcd75916107a1918891906004016127d6565b602060405180830381600087803b1580156107bb57600080fd5b505af11580156107cf573d6000803e3d6000fd5b505050506040513d601f19601f8201168201806040525061074b919081019061228c565b600354600160a060020a031681565b60045460a060020a900460ff1681565b600754600160a060020a031681565b3361082a610aae565b600160a060020a03161461083d57600080fd5b60005460ff161561084d57600080fd5b7f787a5d936e74f4b564b9153575886059829c78cd9927b1be5e0d976b317ef7363360405161087c91906126e9565b60405180910390a133ff5b60005460ff1681565b600061089a611662565b15156108a557600080fd5b81600160a060020a03811615156108bb57600080fd5b60058054600160a060020a03858116600160a060020a03198316179283905560405191811694507fc6df38d22dc8a254e1252fc1b697f23c5120d8f4b93ee52e02c167913724e5a19261091492869291909116906128db565b60405180910390a1505050565b600654604080518082018252600160a060020a03858116825260208201859052915160e060020a635482c7350281526000939290921691635482c7359161096d918891906004016127d6565b602060405180830381600087803b15801561098757600080fd5b505af115801561099b573d6000803e3d6000fd5b505050506040513d601f19601f8201168201806040525061074b919081019061226e565b60035460a060020a900460ff1681565b60006109d9611662565b15156109e457600080fd5b81600160a060020a03811615156109fa57600080fd5b60078054600160a060020a03858116600160a060020a03198316179283905560405191811694507f6d4735156f5fb1047cfcd4a9edf19e3291aec19d53916f8fee650ca3c2d739109261091492869291909116906128db565b600654604080518082018252600160a060020a03858116825260208201859052915160e160020a633007230f028152600093929092169163600e461e916107a1918891906004016127d6565b600554600160a060020a031681565b6000546101009004600160a060020a031690565b600654604080518082018252600160a060020a03858116825260208201859052915160e160020a630b00ab71028152606093929092169163160156e291610b0e918891906004016127d6565b600060405180830381600087803b158015610b2857600080fd5b505af1158015610b3c573d6000803e3d6000fd5b505050506040513d6000823e601f3d908101601f1916820160405261074b9190810190612337565b600154600160a060020a031681565b6000610b7d611662565b1515610b8857600080fd5b81600160a060020a0381161515610b9e57600080fd5b6003548390600160a060020a039081169082168114610c2b5760035460a060020a900460ff1615610bce57600080fd5b60038054600160a060020a03878116600160a060020a0319831617909255604051911694507fb2a91d3a71b0c5bc7c083153b3474378e489506ba98bd4ddb1b9056fdc594bb590610c2290869088906128db565b60405180910390a15b5050505050565b610c3a611662565b1515610c4557600080fd5b6004805460a060020a60ff02191660a060020a1790556040517f56ec8900b9c4bf84f4b715a53068ca06961dd49084c07b481931e2c2045346e690600090a1565b6000610c90611662565b1515610c9b57600080fd5b81600160a060020a0381161515610cb157600080fd5b6002548390600160a060020a039081169082168114610c2b5760028054600160a060020a03878116600160a060020a0319831617909255604051911694507f634f61bf00e14adedce330c80c2823e16e184f189ebe853e1ddecc4a268477ff90610c2290869088906128db565b600254600160a060020a031681565b6000610d37611662565b1515610d4257600080fd5b81600160a060020a0381161515610d5857600080fd5b60068054600160a060020a03858116600160a060020a03198316179283905560405191811694507ff21c127205310467822e10c64b2d9ffae588e019194d6af71f2bdddc0b7ef5269261091492869291909116906128db565b33610dba610aae565b600160a060020a031614610dcd57600080fd5b6000805460ff191660011790556040517fd5a2a04a775c741c2ca0dc46ea7ce4835190e1aaf1ca018def0e82568ec3361690610e0a9033906126e9565b60405180910390a1565b600654604080518082018252600160a060020a03858116825260208201859052915160e260020a6333ca4eab028152600093929092169163cf293aac9161096d918891906004016127d6565b6000610e6a611662565b1515610e7557600080fd5b81600160a060020a0381161515610e8b57600080fd5b6004548390600160a060020a039081169082168114610c2b5760045460a060020a900460ff1615610ebb57600080fd5b60048054600160a060020a03878116600160a060020a0319831617909255604051911694507fa44d361e26327b72a7ccbeae801b3c5cd7677ea4fa74168b289e273c46bfecfc90610c2290869088906128db565b6000610f19611662565b1515610f2457600080fd5b81600160a060020a0381161515610f3a57600080fd5b600160a060020a038116301415610f5057600080fd5b600054600160a060020a038481166101009092041614610fc85760008054600160a060020a0385811661010090810261010060a860020a0319841617909355604051929091041692507f977e5fa58e458501775e0008d275006294c5249e3c08d1d0e3a9f3acad14f6e49061091490849086906126f7565b505050565b610fd5611678565b1515610fe057600080fd5b61100983604080519081016040528085600160a060020a03168152602001848152506000611689565b7f5d5800b5b4d9de839f4e933323589d790e5cc56733d895c8af8a69c8e1d830ca338484846040516109149493929190612712565b600654604080518082018252600160a060020a03858116825260208201859052915160e060020a631b90e3c10281526000939290921691631b90e3c1916107a1918891906004016127d6565b6000611094611678565b151561109f57600080fd5b81600160a060020a03811615156110b557600080fd5b600160a060020a0381163014156110cb57600080fd5b600154600160a060020a03848116911614610fc85760018054600160a060020a03858116600160a060020a0319831617909255604051911692507f9f611b789425d0d5b90b920f1b2852907dd865c80074a30b1629aaa041d1812c9061091490849086906126f7565b61113c611662565b151561114757600080fd5b6003805460a060020a60ff02191660a060020a1790556040517f9c567b65fe8caab5ec7bc979a498a1322c1d4baf01a30727cbca137187560ea290600090a1565b6111b133604080519081016040528085600160a060020a03168152602001848152506001611689565b7fc495387f762dad3340f9d4869758066c81d4592e6d13edc66792fe718d887d8f3383836040516111e493929190612793565b60405180910390a15050565b6004805460405160e260020a631293efbb028152600160a060020a0390911691634a4fbeec91611222913391016126e9565b602060405180830381600087803b15801561123c57600080fd5b505af1158015611250573d6000803e3d6000fd5b505050506040513d601f19601f82011682018060405250611274919081019061226e565b1561127e57600080fd5b6112a83384604080519081016040528086600160a060020a031681526020018581525060016116f7565b7f3ea6a5f0533a257a4d3b7d514288450c5601dd58e5017bc15c7e32d6cf1ae0393384848460405161091494939291906127bb565b600654604080518082018252600160a060020a03858116825260208201859052915160e060020a632ee2ed250281526000939290921691632ee2ed25916107a1918891906004016127d6565b600654604080518082018252600160a060020a03858116825260208201859052915160e160020a6345a76a610281526000939290921691638b4ed4c2916107a1918891906004016127d6565b6000546101009004600160a060020a031681565b600454600160a060020a031681565b600260009054906101000a9004600160a060020a0316600160a060020a031663f71e860f6040518163ffffffff1660e060020a028152600401602060405180830381600087803b1580156113eb57600080fd5b505af11580156113ff573d6000803e3d6000fd5b505050506040513d601f19601f82011682018060405250611423919081019061226e565b151561142e57600080fd5b60055460405160e260020a631a49a0cb028152600160a060020a0390911690636926832c9061146590859085903390600401612819565b600060405180830381600087803b15801561147f57600080fd5b505af1158015611493573d6000803e3d6000fd5b505050505050565b6114a3611678565b15156114ae57600080fd5b6114d88484604080519081016040528086600160a060020a031681526020018581525060006116f7565b7f5c2e5356cead72ecdf07d7e8b0d17de67df6aac7550613234585f8e5cf7c4076338585858560405161150f959493929190612747565b60405180910390a150505050565b600654600160a060020a031681565b600654604080518082018252600160a060020a03858116825260208201859052915160e060020a6356ec907502815260009392909216916356ec9075916107a1918891906004016127d6565b600654604080518082018252600160a060020a03858116825260208201859052915160e060020a6309df8b0b02815260009392909216916309df8b0b916107a1918891906004016127d6565b600654604080518082018252600160a060020a03858116825260208201859052915160e060020a63565872290281526000939290921691635658722991611610918891906004016127d6565b602060405180830381600087803b15801561162a57600080fd5b505af115801561163e573d6000803e3d6000fd5b505050506040513d601f19601f8201168201806040525061074b9190810190612121565b6000546101009004600160a060020a0316331490565b600154600160a060020a0316331490565b60065460405160e460020a63052a0dd1028152600160a060020a03909116906352a0dd10906116c0908690869086906004016127f1565b600060405180830381600087803b1580156116da57600080fd5b505af11580156116ee573d6000803e3d6000fd5b50505050505050565b6000806000600260009054906101000a9004600160a060020a0316600160a060020a031663b6bf41766040518163ffffffff1660e060020a028152600401602060405180830381600087803b15801561174f57600080fd5b505af1158015611763573d6000803e3d6000fd5b505050506040513d601f19601f82011682018060405250611787919081019061228c565b43101561179357600080fd5b61179d87866118b2565b60075460405160e060020a633858654b028152929550909350600160a060020a031690633858654b906117d6908a9089906004016127d6565b602060405180830381600087803b1580156117f057600080fd5b505af1158015611804573d6000803e3d6000fd5b505050506040513d601f19601f82011682018060405250611828919081019061228c565b600654909150600160a060020a0316633e169c5a88838961184f888263ffffffff611aff16565b8a888b6040518863ffffffff1660e060020a0281526004016118779796959493929190612848565b600060405180830381600087803b15801561189157600080fd5b505af11580156118a5573d6000803e3d6000fd5b5050505050505050505050565b6003546040805160e460020a630ded1131028152905160009283928392839283928392600160a060020a0390921691636f4a1815918b91849163ded1131091600480830192602092919082900301818a87803b15801561191157600080fd5b505af1158015611925573d6000803e3d6000fd5b505050506040513d601f19601f82011682018060405250611949919081019061228c565b8a5160208c015160405160e060020a63ffffffff871602815261197294939291906004016127bb565b6040805180830381600087803b15801561198b57600080fd5b505af115801561199f573d6000803e3d6000fd5b505050506040513d601f19601f820116820180604052506119c39190810190612307565b6003546040805160e260020a631194bb1d0281529051939750919550600160a060020a031691636f4a1815918b918491634652ec749160048083019260209291908290030181600087803b158015611a1a57600080fd5b505af1158015611a2e573d6000803e3d6000fd5b505050506040513d601f19601f82011682018060405250611a52919081019061228c565b8a5160208c015160405160e060020a63ffffffff8716028152611a7b94939291906004016127bb565b6040805180830381600087803b158015611a9457600080fd5b505af1158015611aa8573d6000803e3d6000fd5b505050506040513d601f19601f82011682018060405250611acc9190810190612307565b9092509050611ae1848363ffffffff611b4016565b9550808311611af05780611af2565b825b9450505050509250929050565b6000808212158015611b1357508282840313155b80611b2a5750600082128015611b2a575082828403135b1515611b3557600080fd5b508082035b92915050565b6000828201818312801590611b555750838112155b80611b6a5750600083128015611b6a57508381125b151561074e57600080fd5b600061074e823561298c565b600061074e825161298c565b6000601f82018313611b9e57600080fd5b8135611bb1611bac8261293b565b612915565b91508181835260208401935060208101905083856080840282011115611bd657600080fd5b60005b83811015611c045781611bec8882611d45565b84525060209092019160809190910190600101611bd9565b5050505092915050565b600061074e8251612998565b600061074e823561299d565b600061074e825161299d565b600061074e82356129b6565b600061074e82516129c1565b6000601f82018313611c5b57600080fd5b8151611c69611bac8261295b565b91508082526020830160208301858383011115611c8557600080fd5b611c908382846129db565b50505092915050565b600060408284031215611cab57600080fd5b611cb56040612915565b90506000611cc38484611b75565b8252506020611cd484848301611c1a565b60208301525092915050565b600060408284031215611cf257600080fd5b611cfc6040612915565b90506000611cc38484611c1a565b600060608284031215611d1c57600080fd5b611d266040612915565b90506000611d348484611c1a565b8252506020611cd484848301611c99565b600060808284031215611d5757600080fd5b611d616040612915565b90506000611d6f8484611c1a565b8252506020611cd484848301611d0a565b600060a08284031215611d9257600080fd5b611d9c6080612915565b90506000611daa8484611c1a565b8252506020611dbb84848301611b75565b6020830152506040611dcf84828501611ce0565b60408301525060808201356001604060020a03811115611dee57600080fd5b611dfa8482850161206a565b60608301525092915050565b600060a08284031215611e1857600080fd5b611e226080612915565b90506000611e308484611c1a565b8252506020611e4184848301611b75565b6020830152506040611e5584828501611ce0565b60408301525060808201356001604060020a03811115611e7457600080fd5b611dfa84828501612018565b60006102408284031215611e9357600080fd5b611e9e610120612915565b90506000611eac8484611c1a565b8252506020611ebd84848301611c1a565b6020830152506040611ed184828501611c99565b60408301525060808201356001604060020a03811115611ef057600080fd5b611efc84828501611e06565b60608301525060a08201356001604060020a03811115611f1b57600080fd5b611f2784828501611d80565b60808301525060c0611f3b84828501611ce0565b60a083015250610100611f50848285016120b3565b60c083015250610200611f6584828501611c1a565b60e083015250610220611f7a84828501611c1a565b6101008301525092915050565b600060808284031215611f9957600080fd5b611fa36040612915565b90506000611fb18484611c1a565b8252506020611cd484848301600060608284031215611fcf57600080fd5b611fd96060612915565b90506000611fe78484611c1a565b8252506020611ff884848301611c1a565b602083015250604061200c848285016120ef565b60408301525092915050565b60006080828403121561202a57600080fd5b6120346040612915565b905060006120428484611d0a565b82525060608201356001604060020a0381111561205e57600080fd5b611cd484828501611b8d565b60006020828403121561207c57600080fd5b6120866020612915565b905081356001604060020a0381111561209e57600080fd5b6120aa84828501611b8d565b82525092915050565b600061010082840312156120c657600080fd5b6120d06040612915565b905060006120de8484611f87565b8252506080611cd484848301611f87565b600061074e82356129b0565b60006020828403121561210d57600080fd5b60006121198484611b75565b949350505050565b60006020828403121561213357600080fd5b60006121198484611b81565b60008060006060848603121561215457600080fd5b60006121608686611b75565b935050602061217186828701611b75565b925050604061218286828701611c1a565b9150509250925092565b600080600080608085870312156121a257600080fd5b60006121ae8787611b75565b94505060206121bf87828801611c1a565b93505060406121d087828801611b75565b92505060606121e187828801611c1a565b91505092959194509250565b6000806040838503121561220057600080fd5b600061220c8585611b75565b92505060208301356001604060020a0381111561222857600080fd5b61223485828601611e80565b9150509250929050565b6000806040838503121561225157600080fd5b600061225d8585611b75565b925050602061223485828601611c1a565b60006020828403121561228057600080fd5b60006121198484611c0e565b60006020828403121561229e57600080fd5b60006121198484611c26565b6000602082840312156122bc57600080fd5b60006121198484611c32565b6000602082840312156122da57600080fd5b60006121198484611c3e565b6000806000606084860312156122fb57600080fd5b60006121608686611c1a565b6000806040838503121561231a57600080fd5b60006123268585611c26565b925050602061223485828601611c26565b60006020828403121561234957600080fd5b81516001604060020a0381111561235f57600080fd5b61211984828501611c4a565b6123748161298c565b82525050565b600061238582612988565b80845260208401935061239783612982565b60005b828110156123c7576123ad868351612489565b6123b682612982565b60809690960195915060010161239a565b5093949350505050565b61237481612998565b6123748161299d565b612374816129b6565b612374816129d0565b600061240082612988565b8084526124148160208601602086016129db565b61241d81612a07565b9093016020019392505050565b8051604083019061243b848261236b565b50602082015161244e60208501826123da565b50505050565b8051604083019061243b84826123da565b8051606083019061247684826123da565b50602082015161244e602085018261242a565b8051608083019061249a84826123da565b50602082015161244e6020850182612465565b805160009060a08401906124c185826123da565b5060208301516124d4602086018261236b565b5060408301516124e76040860182612454565b50606083015184820360808601526124ff82826126a3565b95945050505050565b805160009060a084019061251c85826123da565b50602083015161252f602086018261236b565b5060408301516125426040860182612454565b50606083015184820360808601526124ff8282612677565b805160009061024084019061256f85826123da565b50602083015161258260208601826123da565b506040830151612595604086018261242a565b50606083015184820360808601526125ad8282612508565b915050608083015184820360a08601526125c782826124ad565b91505060a08301516125dc60c0860182612454565b5060c08301516125f06101008601826126bb565b5060e08301516126046102008601826123da565b506101008301516126196102208601826123da565b509392505050565b8051608083019061263284826123da565b50602082015161244e60208501828051606083019061265184826123da565b50602082015161266460208501826123da565b50604082015161244e60408501826126e0565b8051600090608084019061268b8582612465565b50602083015184820360608601526124ff828261237a565b80516020808452600091908401906124ff828261237a565b80516101008301906126cd8482612621565b50602082015161244e6080850182612621565b612374816129b0565b60208101611b3a828461236b565b60408101612705828561236b565b61074e602083018461236b565b60808101612720828761236b565b61272d602083018661236b565b61273a604083018561236b565b6124ff60608301846123da565b60a08101612755828861236b565b612762602083018761236b565b61276f60408301866123da565b61277c606083018561236b565b61278960808301846123da565b9695505050505050565b606081016127a1828661236b565b6127ae602083018561236b565b61211960408301846123da565b608081016127c9828761236b565b61272d60208301866123da565b606081016127e4828561236b565b61074e602083018461242a565b608081016127ff828661236b565b61280c602083018561242a565b61211960608301846123d1565b60608101612827828661236b565b8181036020830152612839818561255a565b9050612119604083018461236b565b6101008101612857828a61236b565b61286460208301896123da565b61287160408301886123da565b61287e60608301876123da565b61288b608083018661242a565b61289860c08301856123da565b6128a560e08301846123d1565b98975050505050505050565b60208101611b3a82846123d1565b60208101611b3a82846123da565b60208101611b3a82846123e3565b604081016128e982856123e3565b61074e60208301846123e3565b60208101611b3a82846123ec565b6020808252810161074e81846123f5565b6040518181016001604060020a038111828210171561293357600080fd5b604052919050565b60006001604060020a0382111561295157600080fd5b5060209081020190565b60006001604060020a0382111561297157600080fd5b506020601f91909101601f19160190565b60200190565b5190565b600160a060020a031690565b151590565b90565b6000600282106129ac57fe5b5090565b60ff1690565b6000611b3a8261298c565b6000600282106129ac57600080fd5b6000611b3a826129a0565b60005b838110156129f65781810151838201526020016129de565b8381111561244e5750506000910152565b601f01601f1916905600a265627a7a723058209931c7c8e31521b2f0a5452ddcb0ecc8dbbfdaa71d52b82c7b2ceba8b9e6e8de6c6578706572696d656e74616cf50037",
    "source": "/*\n * Hubii Nahmii\n *\n * Compliant with the Hubii Nahmii specification v0.12.\n *\n * Copyright (C) 2017-2018 Hubii AS\n */\n\npragma solidity ^0.4.25;\npragma experimental ABIEncoderV2;\n\nimport {Ownable} from \"./Ownable.sol\";\nimport {ConfigurableOperational} from \"./ConfigurableOperational.sol\";\nimport {BalanceTrackable} from \"./BalanceTrackable.sol\";\nimport {WalletLockable} from \"./WalletLockable.sol\";\nimport {SafeMathIntLib} from \"./SafeMathIntLib.sol\";\nimport {SafeMathUintLib} from \"./SafeMathUintLib.sol\";\nimport {NullSettlementDisputeByPayment} from \"./NullSettlementDisputeByPayment.sol\";\nimport {NullSettlementChallengeState} from \"./NullSettlementChallengeState.sol\";\nimport {DriipSettlementState} from \"./DriipSettlementState.sol\";\nimport {MonetaryTypesLib} from \"./MonetaryTypesLib.sol\";\nimport {PaymentTypesLib} from \"./PaymentTypesLib.sol\";\nimport {SettlementChallengeTypesLib} from \"./SettlementChallengeTypesLib.sol\";\n\n/**\n * @title NullSettlementChallengeByPayment\n * @notice Where null settlements pertaining to payments are started and disputed\n */\ncontract NullSettlementChallengeByPayment is Ownable, ConfigurableOperational, BalanceTrackable, WalletLockable {\n    using SafeMathIntLib for int256;\n    using SafeMathUintLib for uint256;\n\n    //\n    // Variables\n    // -----------------------------------------------------------------------------------------------------------------\n    NullSettlementDisputeByPayment public nullSettlementDisputeByPayment;\n    NullSettlementChallengeState public nullSettlementChallengeState;\n    DriipSettlementState public driipSettlementState;\n\n    //\n    // Events\n    // -----------------------------------------------------------------------------------------------------------------\n    event SetNullSettlementDisputeByPaymentEvent(NullSettlementDisputeByPayment oldNullSettlementDisputeByPayment,\n        NullSettlementDisputeByPayment newNullSettlementDisputeByPayment);\n    event SetNullSettlementChallengeStateEvent(NullSettlementChallengeState oldNullSettlementChallengeState,\n        NullSettlementChallengeState newNullSettlementChallengeState);\n    event SetDriipSettlementStateEvent(DriipSettlementState oldDriipSettlementState,\n        DriipSettlementState newDriipSettlementState);\n    event StartChallengeEvent(address wallet, int256 amount, address stageCurrencyCt,\n        uint stageCurrencyId);\n    event StartChallengeByProxyEvent(address proxy, address wallet, int256 amount,\n        address stageCurrencyCt, uint stageCurrencyId);\n    event StopChallengeEvent(address wallet, address currencyCt, uint256 currencyId);\n    event StopChallengeByProxyEvent(address proxy, address wallet, address currencyCt, uint256 currencyId);\n\n    //\n    // Constructor\n    // -----------------------------------------------------------------------------------------------------------------\n    constructor(address deployer) Ownable(deployer) public {\n    }\n\n    //\n    // Functions\n    // -----------------------------------------------------------------------------------------------------------------\n    /// @notice Set the settlement dispute contract\n    /// @param newNullSettlementDisputeByPayment The (address of) NullSettlementDisputeByPayment contract instance\n    function setNullSettlementDisputeByPayment(NullSettlementDisputeByPayment newNullSettlementDisputeByPayment)\n    public\n    onlyDeployer\n    notNullAddress(newNullSettlementDisputeByPayment)\n    {\n        NullSettlementDisputeByPayment oldNullSettlementDisputeByPayment = nullSettlementDisputeByPayment;\n        nullSettlementDisputeByPayment = newNullSettlementDisputeByPayment;\n        emit SetNullSettlementDisputeByPaymentEvent(oldNullSettlementDisputeByPayment, nullSettlementDisputeByPayment);\n    }\n\n    /// @notice Set the settlement challenge state contract\n    /// @param newNullSettlementChallengeState The (address of) NullSettlementChallengeState contract instance\n    function setNullSettlementChallengeState(NullSettlementChallengeState newNullSettlementChallengeState)\n    public\n    onlyDeployer\n    notNullAddress(newNullSettlementChallengeState)\n    {\n        NullSettlementChallengeState oldNullSettlementChallengeState = nullSettlementChallengeState;\n        nullSettlementChallengeState = newNullSettlementChallengeState;\n        emit SetNullSettlementChallengeStateEvent(oldNullSettlementChallengeState, nullSettlementChallengeState);\n    }\n\n    /// @notice Set the driip settlement state contract\n    /// @param newDriipSettlementState The (address of) DriipSettlementState contract instance\n    function setDriipSettlementState(DriipSettlementState newDriipSettlementState)\n    public\n    onlyDeployer\n    notNullAddress(newDriipSettlementState)\n    {\n        DriipSettlementState oldDriipSettlementState = driipSettlementState;\n        driipSettlementState = newDriipSettlementState;\n        emit SetDriipSettlementStateEvent(oldDriipSettlementState, driipSettlementState);\n    }\n\n    /// @notice Start settlement challenge\n    /// @param amount The concerned amount to stage\n    /// @param currencyCt The address of the concerned currency contract (address(0) == ETH)\n    /// @param currencyId The ID of the concerned currency (0 for ETH and ERC20)\n    function startChallenge(int256 amount, address currencyCt, uint256 currencyId)\n    public\n    {\n        // Require that wallet is not locked\n        require(!walletLocker.isLocked(msg.sender));\n\n        // Start challenge for wallet\n        _startChallenge(msg.sender, amount, MonetaryTypesLib.Currency(currencyCt, currencyId), true);\n\n        // Emit event\n        emit StartChallengeEvent(msg.sender, amount, currencyCt, currencyId);\n    }\n\n    /// @notice Start settlement challenge for the given wallet\n    /// @param wallet The address of the concerned wallet\n    /// @param amount The concerned amount to stage\n    /// @param currencyCt The address of the concerned currency contract (address(0) == ETH)\n    /// @param currencyId The ID of the concerned currency (0 for ETH and ERC20)\n    function startChallengeByProxy(address wallet, int256 amount, address currencyCt, uint256 currencyId)\n    public\n    onlyOperator\n    {\n        // Start challenge for wallet\n        _startChallenge(wallet, amount, MonetaryTypesLib.Currency(currencyCt, currencyId), false);\n\n        // Emit event\n        emit StartChallengeByProxyEvent(msg.sender, wallet, amount, currencyCt, currencyId);\n    }\n\n    /// @notice Stop settlement challenge\n    /// @param currencyCt The address of the concerned currency contract (address(0) == ETH)\n    /// @param currencyId The ID of the concerned currency (0 for ETH and ERC20)\n    function stopChallenge(address currencyCt, uint256 currencyId)\n    public\n    {\n        // Stop challenge\n        _stopChallenge(msg.sender, MonetaryTypesLib.Currency(currencyCt, currencyId), true);\n\n        // Emit event\n        emit StopChallengeEvent(msg.sender, currencyCt, currencyId);\n    }\n\n    /// @notice Stop settlement challenge\n    /// @param wallet The concerned wallet\n    /// @param currencyCt The address of the concerned currency contract (address(0) == ETH)\n    /// @param currencyId The ID of the concerned currency (0 for ETH and ERC20)\n    function stopChallengeByProxy(address wallet, address currencyCt, uint256 currencyId)\n    public\n    onlyOperator\n    {\n        // Stop challenge\n        _stopChallenge(wallet, MonetaryTypesLib.Currency(currencyCt, currencyId), false);\n\n        // Emit event\n        emit StopChallengeByProxyEvent(msg.sender, wallet, currencyCt, currencyId);\n    }\n\n    /// @notice Gauge whether the proposal for the given wallet and currency has expired\n    /// @param wallet The address of the concerned wallet\n    /// @param currencyCt The address of the concerned currency contract (address(0) == ETH)\n    /// @param currencyId The ID of the concerned currency (0 for ETH and ERC20)\n    /// @return true if proposal has expired, else false\n    function hasProposalExpired(address wallet, address currencyCt, uint256 currencyId)\n    public\n    view\n    returns (bool)\n    {\n        return nullSettlementChallengeState.hasProposalExpired(\n            wallet, MonetaryTypesLib.Currency(currencyCt, currencyId)\n        );\n    }\n\n    /// @notice Get the challenge nonce of the given wallet\n    /// @param wallet The address of the concerned wallet\n    /// @param currencyCt The address of the concerned currency contract (address(0) == ETH)\n    /// @param currencyId The ID of the concerned currency (0 for ETH and ERC20)\n    /// @return The challenge nonce\n    function proposalNonce(address wallet, address currencyCt, uint256 currencyId)\n    public\n    view\n    returns (uint256)\n    {\n        return nullSettlementChallengeState.proposalNonce(\n            wallet, MonetaryTypesLib.Currency(currencyCt, currencyId)\n        );\n    }\n\n    /// @notice Get the settlement proposal block number of the given wallet\n    /// @param wallet The address of the concerned wallet\n    /// @param currencyCt The address of the concerned currency contract (address(0) == ETH)\n    /// @param currencyId The ID of the concerned currency (0 for ETH and ERC20)\n    /// @return The settlement proposal block number\n    function proposalBlockNumber(address wallet, address currencyCt, uint256 currencyId)\n    public\n    view\n    returns (uint256)\n    {\n        return nullSettlementChallengeState.proposalBlockNumber(\n            wallet, MonetaryTypesLib.Currency(currencyCt, currencyId)\n        );\n    }\n\n    /// @notice Get the settlement proposal end time of the given wallet\n    /// @param wallet The address of the concerned wallet\n    /// @param currencyCt The address of the concerned currency contract (address(0) == ETH)\n    /// @param currencyId The ID of the concerned currency (0 for ETH and ERC20)\n    /// @return The settlement proposal end time\n    function proposalExpirationTime(address wallet, address currencyCt, uint256 currencyId)\n    public\n    view\n    returns (uint256)\n    {\n        return nullSettlementChallengeState.proposalExpirationTime(\n            wallet, MonetaryTypesLib.Currency(currencyCt, currencyId)\n        );\n    }\n\n    /// @notice Get the challenge status of the given wallet\n    /// @param wallet The address of the concerned wallet\n    /// @param currencyCt The address of the concerned currency contract (address(0) == ETH)\n    /// @param currencyId The ID of the concerned currency (0 for ETH and ERC20)\n    /// @return The challenge status\n    function proposalStatus(address wallet, address currencyCt, uint256 currencyId)\n    public\n    view\n    returns (SettlementChallengeTypesLib.Status)\n    {\n        return nullSettlementChallengeState.proposalStatus(\n            wallet, MonetaryTypesLib.Currency(currencyCt, currencyId)\n        );\n    }\n\n    /// @notice Get the settlement proposal stage amount of the given wallet and currency\n    /// @param wallet The address of the concerned wallet\n    /// @param currencyCt The address of the concerned currency contract (address(0) == ETH)\n    /// @param currencyId The ID of the concerned currency (0 for ETH and ERC20)\n    /// @return The settlement proposal stage amount\n    function proposalStageAmount(address wallet, address currencyCt, uint256 currencyId)\n    public\n    view\n    returns (int256)\n    {\n        return nullSettlementChallengeState.proposalStageAmount(\n            wallet, MonetaryTypesLib.Currency(currencyCt, currencyId)\n        );\n    }\n\n    /// @notice Get the settlement proposal target balance amount of the given wallet and currency\n    /// @param wallet The address of the concerned wallet\n    /// @param currencyCt The address of the concerned currency contract (address(0) == ETH)\n    /// @param currencyId The ID of the concerned currency (0 for ETH and ERC20)\n    /// @return The settlement proposal target balance amount\n    function proposalTargetBalanceAmount(address wallet, address currencyCt, uint256 currencyId)\n    public\n    view\n    returns (int256)\n    {\n        return nullSettlementChallengeState.proposalTargetBalanceAmount(\n            wallet, MonetaryTypesLib.Currency(currencyCt, currencyId)\n        );\n    }\n\n    /// @notice Get the balance reward of the given wallet's settlement proposal\n    /// @param wallet The address of the concerned wallet\n    /// @param currencyCt The address of the concerned currency contract (address(0) == ETH)\n    /// @param currencyId The ID of the concerned currency (0 for ETH and ERC20)\n    /// @return The balance reward of the settlement proposal\n    function proposalWalletInitiated(address wallet, address currencyCt, uint256 currencyId)\n    public\n    view\n    returns (bool)\n    {\n        return nullSettlementChallengeState.proposalWalletInitiated(\n            wallet, MonetaryTypesLib.Currency(currencyCt, currencyId)\n        );\n    }\n\n    /// @notice Get the disqualification challenger of the given wallet and currency\n    /// @param wallet The address of the concerned wallet\n    /// @param currencyCt The address of the concerned currency contract (address(0) == ETH)\n    /// @param currencyId The ID of the concerned currency (0 for ETH and ERC20)\n    /// @return The challenger of the settlement disqualification\n    function proposalDisqualificationChallenger(address wallet, address currencyCt, uint256 currencyId)\n    public\n    view\n    returns (address)\n    {\n        return nullSettlementChallengeState.proposalDisqualificationChallenger(\n            wallet, MonetaryTypesLib.Currency(currencyCt, currencyId)\n        );\n    }\n\n    /// @notice Get the disqualification block number of the given wallet and currency\n    /// @param wallet The address of the concerned wallet\n    /// @param currencyCt The address of the concerned currency contract (address(0) == ETH)\n    /// @param currencyId The ID of the concerned currency (0 for ETH and ERC20)\n    /// @return The block number of the settlement disqualification\n    function proposalDisqualificationBlockNumber(address wallet, address currencyCt, uint256 currencyId)\n    public\n    view\n    returns (uint256)\n    {\n        return nullSettlementChallengeState.proposalDisqualificationBlockNumber(\n            wallet, MonetaryTypesLib.Currency(currencyCt, currencyId)\n        );\n    }\n\n    /// @notice Get the disqualification candidate type of the given wallet and currency\n    /// @param wallet The address of the concerned wallet\n    /// @param currencyCt The address of the concerned currency contract (address(0) == ETH)\n    /// @param currencyId The ID of the concerned currency (0 for ETH and ERC20)\n    /// @return The candidate type of the settlement disqualification\n    function proposalDisqualificationCandidateType(address wallet, address currencyCt, uint256 currencyId)\n    public\n    view\n    returns (string)\n    {\n        return nullSettlementChallengeState.proposalDisqualificationCandidateType(\n            wallet, MonetaryTypesLib.Currency(currencyCt, currencyId)\n        );\n    }\n\n    /// @notice Get the disqualification candidate hash of the given wallet and currency\n    /// @param wallet The address of the concerned wallet\n    /// @param currencyCt The address of the concerned currency contract (address(0) == ETH)\n    /// @param currencyId The ID of the concerned currency (0 for ETH and ERC20)\n    /// @return The candidate hash of the settlement disqualification\n    function proposalDisqualificationCandidateHash(address wallet, address currencyCt, uint256 currencyId)\n    public\n    view\n    returns (bytes32)\n    {\n        return nullSettlementChallengeState.proposalDisqualificationCandidateHash(\n            wallet, MonetaryTypesLib.Currency(currencyCt, currencyId)\n        );\n    }\n\n    /// @notice Challenge the settlement by providing payment candidate\n    /// @param wallet The wallet whose settlement is being challenged\n    /// @param payment The payment candidate that challenges the null\n    function challengeByPayment(address wallet, PaymentTypesLib.Payment payment)\n    public\n    onlyOperationalModeNormal\n    {\n        nullSettlementDisputeByPayment.challengeByPayment(wallet, payment, msg.sender);\n    }\n\n    //\n    // Private functions\n    // -----------------------------------------------------------------------------------------------------------------\n    function _startChallenge(address wallet, int256 stageAmount, MonetaryTypesLib.Currency currency,\n        bool walletInitiated)\n    private\n    {\n        // Require that current block number is beyond the earliest settlement challenge block number\n        require(block.number >= configuration.earliestSettlementBlockNumber());\n\n        // Get the last logged active balance amount and block number\n        (int256 activeBalanceAmount, uint256 activeBalanceBlockNumber) = _activeBalanceLogEntry(\n            wallet, currency\n        );\n\n        // Obtain highest settled wallet nonce\n        uint256 nonce = driipSettlementState.maxNonceByWalletAndCurrency(wallet, currency);\n\n        // Add proposal, including assurance that there is no overlap with active proposal\n        nullSettlementChallengeState.addProposal(\n            wallet, nonce, stageAmount, activeBalanceAmount.sub(stageAmount), currency,\n            activeBalanceBlockNumber, walletInitiated\n        );\n    }\n\n    function _stopChallenge(address wallet, MonetaryTypesLib.Currency currency, bool walletTerminated)\n    private\n    {\n        // Stop challenge\n        nullSettlementChallengeState.removeProposal(wallet, currency, walletTerminated);\n    }\n\n    function _activeBalanceLogEntry(address wallet,  MonetaryTypesLib.Currency currency)\n    private\n    view\n    returns (int256 amount, uint256 blockNumber)\n    {\n        // Get last log record of deposited and settled balances\n        (int256 depositedAmount, uint256 depositedBlockNumber) = balanceTracker.lastFungibleRecord(\n            wallet, balanceTracker.depositedBalanceType(), currency.ct, currency.id\n        );\n        (int256 settledAmount, uint256 settledBlockNumber) = balanceTracker.lastFungibleRecord(\n            wallet, balanceTracker.settledBalanceType(), currency.ct, currency.id\n        );\n\n        // Set amount as the sum of deposited and settled\n        amount = depositedAmount.add(settledAmount);\n\n        // Set block number as the latest of deposited and settled\n        blockNumber = depositedBlockNumber > settledBlockNumber ? depositedBlockNumber : settledBlockNumber;\n    }\n}\n",
    "sourcePath": "/Users/kata/dev/hubii/striim-contracts/contracts/NullSettlementChallengeByPayment.sol",
    "compiler": {
        "name": "solc",
        "version": "0.4.25+commit.59dbf8f1.Emscripten.clang"
    },
    "schemaVersion": "2.0.2",
    "updatedAt": "2019-03-15T08:03:48.815Z"
}