{
    "contractName": "NullSettlementChallenge",
    "abi": [
        {
            "constant": true,
            "inputs": [
                {
                    "name": "",
                    "type": "uint256"
                }
            ],
            "name": "proposals",
            "outputs": [
                {
                    "name": "wallet",
                    "type": "address"
                },
                {
                    "name": "nonce",
                    "type": "uint256"
                },
                {
                    "name": "blockNumber",
                    "type": "uint256"
                },
                {
                    "name": "expirationTime",
                    "type": "uint256"
                },
                {
                    "name": "status",
                    "type": "uint8"
                },
                {
                    "components": [
                        {
                            "name": "ct",
                            "type": "address"
                        },
                        {
                            "name": "id",
                            "type": "uint256"
                        }
                    ],
                    "name": "currency",
                    "type": "tuple"
                },
                {
                    "name": "stageAmount",
                    "type": "int256"
                },
                {
                    "name": "targetBalanceAmount",
                    "type": "int256"
                },
                {
                    "name": "driipHash",
                    "type": "bytes32"
                },
                {
                    "name": "driipType",
                    "type": "uint8"
                },
                {
                    "name": "balanceReward",
                    "type": "bool"
                },
                {
                    "components": [
                        {
                            "name": "challenger",
                            "type": "address"
                        },
                        {
                            "name": "blockNumber",
                            "type": "uint256"
                        },
                        {
                            "name": "candidateHash",
                            "type": "bytes32"
                        },
                        {
                            "name": "candidateType",
                            "type": "uint8"
                        }
                    ],
                    "name": "disqualification",
                    "type": "tuple"
                }
            ],
            "payable": false,
            "stateMutability": "view",
            "type": "function"
        },
        {
            "constant": true,
            "inputs": [],
            "name": "balanceTracker",
            "outputs": [
                {
                    "name": "",
                    "type": "address"
                }
            ],
            "payable": false,
            "stateMutability": "view",
            "type": "function"
        },
        {
            "constant": true,
            "inputs": [],
            "name": "walletLockerFrozen",
            "outputs": [
                {
                    "name": "",
                    "type": "bool"
                }
            ],
            "payable": false,
            "stateMutability": "view",
            "type": "function"
        },
        {
            "constant": false,
            "inputs": [],
            "name": "triggerSelfDestruction",
            "outputs": [],
            "payable": false,
            "stateMutability": "nonpayable",
            "type": "function"
        },
        {
            "constant": true,
            "inputs": [],
            "name": "selfDestructionDisabled",
            "outputs": [
                {
                    "name": "",
                    "type": "bool"
                }
            ],
            "payable": false,
            "stateMutability": "view",
            "type": "function"
        },
        {
            "constant": true,
            "inputs": [],
            "name": "balanceTrackerFrozen",
            "outputs": [
                {
                    "name": "",
                    "type": "bool"
                }
            ],
            "payable": false,
            "stateMutability": "view",
            "type": "function"
        },
        {
            "constant": true,
            "inputs": [],
            "name": "destructor",
            "outputs": [
                {
                    "name": "",
                    "type": "address"
                }
            ],
            "payable": false,
            "stateMutability": "view",
            "type": "function"
        },
        {
            "constant": true,
            "inputs": [],
            "name": "operator",
            "outputs": [
                {
                    "name": "",
                    "type": "address"
                }
            ],
            "payable": false,
            "stateMutability": "view",
            "type": "function"
        },
        {
            "constant": false,
            "inputs": [
                {
                    "name": "newBalanceTracker",
                    "type": "address"
                }
            ],
            "name": "setBalanceTracker",
            "outputs": [],
            "payable": false,
            "stateMutability": "nonpayable",
            "type": "function"
        },
        {
            "constant": false,
            "inputs": [],
            "name": "freezeWalletLocker",
            "outputs": [],
            "payable": false,
            "stateMutability": "nonpayable",
            "type": "function"
        },
        {
            "constant": true,
            "inputs": [],
            "name": "nullSettlementDispute",
            "outputs": [
                {
                    "name": "",
                    "type": "address"
                }
            ],
            "payable": false,
            "stateMutability": "view",
            "type": "function"
        },
        {
            "constant": false,
            "inputs": [
                {
                    "name": "newConfiguration",
                    "type": "address"
                }
            ],
            "name": "setConfiguration",
            "outputs": [],
            "payable": false,
            "stateMutability": "nonpayable",
            "type": "function"
        },
        {
            "constant": true,
            "inputs": [
                {
                    "name": "",
                    "type": "address"
                },
                {
                    "name": "",
                    "type": "address"
                },
                {
                    "name": "",
                    "type": "uint256"
                }
            ],
            "name": "proposalIndexByWalletCurrency",
            "outputs": [
                {
                    "name": "",
                    "type": "uint256"
                }
            ],
            "payable": false,
            "stateMutability": "view",
            "type": "function"
        },
        {
            "constant": true,
            "inputs": [],
            "name": "configuration",
            "outputs": [
                {
                    "name": "",
                    "type": "address"
                }
            ],
            "payable": false,
            "stateMutability": "view",
            "type": "function"
        },
        {
            "constant": false,
            "inputs": [],
            "name": "disableSelfDestruction",
            "outputs": [],
            "payable": false,
            "stateMutability": "nonpayable",
            "type": "function"
        },
        {
            "constant": true,
            "inputs": [
                {
                    "name": "",
                    "type": "uint256"
                }
            ],
            "name": "challengeWallets",
            "outputs": [
                {
                    "name": "",
                    "type": "address"
                }
            ],
            "payable": false,
            "stateMutability": "view",
            "type": "function"
        },
        {
            "constant": false,
            "inputs": [
                {
                    "name": "newWalletLocker",
                    "type": "address"
                }
            ],
            "name": "setWalletLocker",
            "outputs": [],
            "payable": false,
            "stateMutability": "nonpayable",
            "type": "function"
        },
        {
            "constant": true,
            "inputs": [
                {
                    "name": "",
                    "type": "address"
                },
                {
                    "name": "",
                    "type": "uint256"
                }
            ],
            "name": "proposalIndicesByWallet",
            "outputs": [
                {
                    "name": "",
                    "type": "uint256"
                }
            ],
            "payable": false,
            "stateMutability": "view",
            "type": "function"
        },
        {
            "constant": false,
            "inputs": [
                {
                    "name": "newDeployer",
                    "type": "address"
                }
            ],
            "name": "setDeployer",
            "outputs": [],
            "payable": false,
            "stateMutability": "nonpayable",
            "type": "function"
        },
        {
            "constant": true,
            "inputs": [],
            "name": "nonce",
            "outputs": [
                {
                    "name": "",
                    "type": "uint256"
                }
            ],
            "payable": false,
            "stateMutability": "view",
            "type": "function"
        },
        {
            "constant": false,
            "inputs": [
                {
                    "name": "newOperator",
                    "type": "address"
                }
            ],
            "name": "setOperator",
            "outputs": [],
            "payable": false,
            "stateMutability": "nonpayable",
            "type": "function"
        },
        {
            "constant": false,
            "inputs": [],
            "name": "freezeBalanceTracker",
            "outputs": [],
            "payable": false,
            "stateMutability": "nonpayable",
            "type": "function"
        },
        {
            "constant": true,
            "inputs": [],
            "name": "deployer",
            "outputs": [
                {
                    "name": "",
                    "type": "address"
                }
            ],
            "payable": false,
            "stateMutability": "view",
            "type": "function"
        },
        {
            "constant": true,
            "inputs": [],
            "name": "walletLocker",
            "outputs": [
                {
                    "name": "",
                    "type": "address"
                }
            ],
            "payable": false,
            "stateMutability": "view",
            "type": "function"
        },
        {
            "inputs": [
                {
                    "name": "deployer",
                    "type": "address"
                }
            ],
            "payable": false,
            "stateMutability": "nonpayable",
            "type": "constructor"
        },
        {
            "anonymous": false,
            "inputs": [
                {
                    "indexed": false,
                    "name": "oldNullSettlementDispute",
                    "type": "address"
                },
                {
                    "indexed": false,
                    "name": "newNullSettlementDispute",
                    "type": "address"
                }
            ],
            "name": "SetNullSettlementDisputeEvent",
            "type": "event"
        },
        {
            "anonymous": false,
            "inputs": [
                {
                    "indexed": false,
                    "name": "wallet",
                    "type": "address"
                },
                {
                    "indexed": false,
                    "name": "amount",
                    "type": "int256"
                },
                {
                    "indexed": false,
                    "name": "stageCurrencyCt",
                    "type": "address"
                },
                {
                    "indexed": false,
                    "name": "stageCurrencyId",
                    "type": "uint256"
                }
            ],
            "name": "StartChallengeEvent",
            "type": "event"
        },
        {
            "anonymous": false,
            "inputs": [
                {
                    "indexed": false,
                    "name": "proxy",
                    "type": "address"
                },
                {
                    "indexed": false,
                    "name": "wallet",
                    "type": "address"
                },
                {
                    "indexed": false,
                    "name": "amount",
                    "type": "int256"
                },
                {
                    "indexed": false,
                    "name": "stageCurrencyCt",
                    "type": "address"
                },
                {
                    "indexed": false,
                    "name": "stageCurrencyId",
                    "type": "uint256"
                }
            ],
            "name": "StartChallengeByProxyEvent",
            "type": "event"
        },
        {
            "anonymous": false,
            "inputs": [
                {
                    "indexed": false,
                    "name": "challengedWallet",
                    "type": "address"
                },
                {
                    "indexed": false,
                    "name": "currencyCt",
                    "type": "address"
                },
                {
                    "indexed": false,
                    "name": "currencyId",
                    "type": "uint256"
                },
                {
                    "indexed": false,
                    "name": "challengerWallet",
                    "type": "address"
                },
                {
                    "indexed": false,
                    "name": "candidateHash",
                    "type": "bytes32"
                },
                {
                    "indexed": false,
                    "name": "candidateType",
                    "type": "uint8"
                }
            ],
            "name": "DisqualifyProposalEvent",
            "type": "event"
        },
        {
            "anonymous": false,
            "inputs": [
                {
                    "indexed": false,
                    "name": "oldWalletLocker",
                    "type": "address"
                },
                {
                    "indexed": false,
                    "name": "newWalletLocker",
                    "type": "address"
                }
            ],
            "name": "SetWalletLockerEvent",
            "type": "event"
        },
        {
            "anonymous": false,
            "inputs": [],
            "name": "FreezeWalletLockerEvent",
            "type": "event"
        },
        {
            "anonymous": false,
            "inputs": [
                {
                    "indexed": false,
                    "name": "oldBalanceTracker",
                    "type": "address"
                },
                {
                    "indexed": false,
                    "name": "newBalanceTracker",
                    "type": "address"
                }
            ],
            "name": "SetBalanceTrackerEvent",
            "type": "event"
        },
        {
            "anonymous": false,
            "inputs": [],
            "name": "FreezeBalanceTrackerEvent",
            "type": "event"
        },
        {
            "anonymous": false,
            "inputs": [
                {
                    "indexed": false,
                    "name": "oldConfiguration",
                    "type": "address"
                },
                {
                    "indexed": false,
                    "name": "newConfiguration",
                    "type": "address"
                }
            ],
            "name": "SetConfigurationEvent",
            "type": "event"
        },
        {
            "anonymous": false,
            "inputs": [
                {
                    "indexed": false,
                    "name": "oldDeployer",
                    "type": "address"
                },
                {
                    "indexed": false,
                    "name": "newDeployer",
                    "type": "address"
                }
            ],
            "name": "SetDeployerEvent",
            "type": "event"
        },
        {
            "anonymous": false,
            "inputs": [
                {
                    "indexed": false,
                    "name": "oldOperator",
                    "type": "address"
                },
                {
                    "indexed": false,
                    "name": "newOperator",
                    "type": "address"
                }
            ],
            "name": "SetOperatorEvent",
            "type": "event"
        },
        {
            "anonymous": false,
            "inputs": [
                {
                    "indexed": false,
                    "name": "wallet",
                    "type": "address"
                }
            ],
            "name": "SelfDestructionDisabledEvent",
            "type": "event"
        },
        {
            "anonymous": false,
            "inputs": [
                {
                    "indexed": false,
                    "name": "wallet",
                    "type": "address"
                }
            ],
            "name": "TriggerSelfDestructionEvent",
            "type": "event"
        },
        {
            "constant": false,
            "inputs": [
                {
                    "name": "newNullSettlementDispute",
                    "type": "address"
                }
            ],
            "name": "setNullSettlementDispute",
            "outputs": [],
            "payable": false,
            "stateMutability": "nonpayable",
            "type": "function"
        },
        {
            "constant": true,
            "inputs": [],
            "name": "challengeWalletsCount",
            "outputs": [
                {
                    "name": "",
                    "type": "uint256"
                }
            ],
            "payable": false,
            "stateMutability": "view",
            "type": "function"
        },
        {
            "constant": true,
            "inputs": [],
            "name": "proposalsCount",
            "outputs": [
                {
                    "name": "",
                    "type": "uint256"
                }
            ],
            "payable": false,
            "stateMutability": "view",
            "type": "function"
        },
        {
            "constant": false,
            "inputs": [
                {
                    "name": "amount",
                    "type": "int256"
                },
                {
                    "name": "currencyCt",
                    "type": "address"
                },
                {
                    "name": "currencyId",
                    "type": "uint256"
                }
            ],
            "name": "startChallenge",
            "outputs": [],
            "payable": false,
            "stateMutability": "nonpayable",
            "type": "function"
        },
        {
            "constant": false,
            "inputs": [
                {
                    "name": "wallet",
                    "type": "address"
                },
                {
                    "name": "amount",
                    "type": "int256"
                },
                {
                    "name": "currencyCt",
                    "type": "address"
                },
                {
                    "name": "currencyId",
                    "type": "uint256"
                }
            ],
            "name": "startChallengeByProxy",
            "outputs": [],
            "payable": false,
            "stateMutability": "nonpayable",
            "type": "function"
        },
        {
            "constant": true,
            "inputs": [
                {
                    "name": "wallet",
                    "type": "address"
                },
                {
                    "name": "currencyCt",
                    "type": "address"
                },
                {
                    "name": "currencyId",
                    "type": "uint256"
                }
            ],
            "name": "hasProposalExpired",
            "outputs": [
                {
                    "name": "",
                    "type": "bool"
                }
            ],
            "payable": false,
            "stateMutability": "view",
            "type": "function"
        },
        {
            "constant": true,
            "inputs": [
                {
                    "name": "wallet",
                    "type": "address"
                },
                {
                    "name": "currencyCt",
                    "type": "address"
                },
                {
                    "name": "currencyId",
                    "type": "uint256"
                }
            ],
            "name": "proposalNonce",
            "outputs": [
                {
                    "name": "",
                    "type": "uint256"
                }
            ],
            "payable": false,
            "stateMutability": "view",
            "type": "function"
        },
        {
            "constant": true,
            "inputs": [
                {
                    "name": "wallet",
                    "type": "address"
                },
                {
                    "name": "currencyCt",
                    "type": "address"
                },
                {
                    "name": "currencyId",
                    "type": "uint256"
                }
            ],
            "name": "proposalBlockNumber",
            "outputs": [
                {
                    "name": "",
                    "type": "uint256"
                }
            ],
            "payable": false,
            "stateMutability": "view",
            "type": "function"
        },
        {
            "constant": true,
            "inputs": [
                {
                    "name": "wallet",
                    "type": "address"
                },
                {
                    "name": "currencyCt",
                    "type": "address"
                },
                {
                    "name": "currencyId",
                    "type": "uint256"
                }
            ],
            "name": "proposalExpirationTime",
            "outputs": [
                {
                    "name": "",
                    "type": "uint256"
                }
            ],
            "payable": false,
            "stateMutability": "view",
            "type": "function"
        },
        {
            "constant": true,
            "inputs": [
                {
                    "name": "wallet",
                    "type": "address"
                },
                {
                    "name": "currencyCt",
                    "type": "address"
                },
                {
                    "name": "currencyId",
                    "type": "uint256"
                }
            ],
            "name": "proposalStatus",
            "outputs": [
                {
                    "name": "",
                    "type": "uint8"
                }
            ],
            "payable": false,
            "stateMutability": "view",
            "type": "function"
        },
        {
            "constant": true,
            "inputs": [
                {
                    "name": "wallet",
                    "type": "address"
                },
                {
                    "name": "currencyCt",
                    "type": "address"
                },
                {
                    "name": "currencyId",
                    "type": "uint256"
                }
            ],
            "name": "proposalStageAmount",
            "outputs": [
                {
                    "name": "",
                    "type": "int256"
                }
            ],
            "payable": false,
            "stateMutability": "view",
            "type": "function"
        },
        {
            "constant": true,
            "inputs": [
                {
                    "name": "wallet",
                    "type": "address"
                },
                {
                    "name": "currencyCt",
                    "type": "address"
                },
                {
                    "name": "currencyId",
                    "type": "uint256"
                }
            ],
            "name": "proposalTargetBalanceAmount",
            "outputs": [
                {
                    "name": "",
                    "type": "int256"
                }
            ],
            "payable": false,
            "stateMutability": "view",
            "type": "function"
        },
        {
            "constant": true,
            "inputs": [
                {
                    "name": "wallet",
                    "type": "address"
                },
                {
                    "name": "currencyCt",
                    "type": "address"
                },
                {
                    "name": "currencyId",
                    "type": "uint256"
                }
            ],
            "name": "proposalBalanceReward",
            "outputs": [
                {
                    "name": "",
                    "type": "bool"
                }
            ],
            "payable": false,
            "stateMutability": "view",
            "type": "function"
        },
        {
            "constant": true,
            "inputs": [
                {
                    "name": "wallet",
                    "type": "address"
                },
                {
                    "name": "currencyCt",
                    "type": "address"
                },
                {
                    "name": "currencyId",
                    "type": "uint256"
                }
            ],
            "name": "proposalDisqualificationChallenger",
            "outputs": [
                {
                    "name": "",
                    "type": "address"
                }
            ],
            "payable": false,
            "stateMutability": "view",
            "type": "function"
        },
        {
            "constant": true,
            "inputs": [
                {
                    "name": "wallet",
                    "type": "address"
                },
                {
                    "name": "currencyCt",
                    "type": "address"
                },
                {
                    "name": "currencyId",
                    "type": "uint256"
                }
            ],
            "name": "proposalDisqualificationBlockNumber",
            "outputs": [
                {
                    "name": "",
                    "type": "uint256"
                }
            ],
            "payable": false,
            "stateMutability": "view",
            "type": "function"
        },
        {
            "constant": true,
            "inputs": [
                {
                    "name": "wallet",
                    "type": "address"
                },
                {
                    "name": "currencyCt",
                    "type": "address"
                },
                {
                    "name": "currencyId",
                    "type": "uint256"
                }
            ],
            "name": "proposalDisqualificationCandidateType",
            "outputs": [
                {
                    "name": "",
                    "type": "uint8"
                }
            ],
            "payable": false,
            "stateMutability": "view",
            "type": "function"
        },
        {
            "constant": true,
            "inputs": [
                {
                    "name": "wallet",
                    "type": "address"
                },
                {
                    "name": "currencyCt",
                    "type": "address"
                },
                {
                    "name": "currencyId",
                    "type": "uint256"
                }
            ],
            "name": "proposalDisqualificationCandidateHash",
            "outputs": [
                {
                    "name": "",
                    "type": "bytes32"
                }
            ],
            "payable": false,
            "stateMutability": "view",
            "type": "function"
        },
        {
            "constant": false,
            "inputs": [
                {
                    "name": "wallet",
                    "type": "address"
                },
                {
                    "name": "currencyCt",
                    "type": "address"
                },
                {
                    "name": "currencyId",
                    "type": "uint256"
                },
                {
                    "name": "expirationTime",
                    "type": "uint256"
                }
            ],
            "name": "setProposalExpirationTime",
            "outputs": [],
            "payable": false,
            "stateMutability": "nonpayable",
            "type": "function"
        },
        {
            "constant": false,
            "inputs": [
                {
                    "name": "wallet",
                    "type": "address"
                },
                {
                    "name": "currencyCt",
                    "type": "address"
                },
                {
                    "name": "currencyId",
                    "type": "uint256"
                },
                {
                    "name": "status",
                    "type": "uint8"
                }
            ],
            "name": "setProposalStatus",
            "outputs": [],
            "payable": false,
            "stateMutability": "nonpayable",
            "type": "function"
        },
        {
            "constant": false,
            "inputs": [
                {
                    "name": "challengedWallet",
                    "type": "address"
                },
                {
                    "name": "currencyCt",
                    "type": "address"
                },
                {
                    "name": "currencyId",
                    "type": "uint256"
                },
                {
                    "name": "challengerWallet",
                    "type": "address"
                },
                {
                    "name": "blockNumber",
                    "type": "uint256"
                },
                {
                    "name": "candidateHash",
                    "type": "bytes32"
                },
                {
                    "name": "candidateType",
                    "type": "uint8"
                }
            ],
            "name": "disqualifyProposal",
            "outputs": [],
            "payable": false,
            "stateMutability": "nonpayable",
            "type": "function"
        },
        {
            "constant": false,
            "inputs": [
                {
                    "components": [
                        {
                            "name": "nonce",
                            "type": "uint256"
                        },
                        {
                            "name": "wallet",
                            "type": "address"
                        },
                        {
                            "components": [
                                {
                                    "name": "intention",
                                    "type": "uint8"
                                },
                                {
                                    "name": "amount",
                                    "type": "int256"
                                },
                                {
                                    "components": [
                                        {
                                            "components": [
                                                {
                                                    "name": "ct",
                                                    "type": "address"
                                                },
                                                {
                                                    "name": "id",
                                                    "type": "uint256"
                                                }
                                            ],
                                            "name": "intended",
                                            "type": "tuple"
                                        },
                                        {
                                            "components": [
                                                {
                                                    "name": "ct",
                                                    "type": "address"
                                                },
                                                {
                                                    "name": "id",
                                                    "type": "uint256"
                                                }
                                            ],
                                            "name": "conjugate",
                                            "type": "tuple"
                                        }
                                    ],
                                    "name": "currencies",
                                    "type": "tuple"
                                },
                                {
                                    "name": "rate",
                                    "type": "int256"
                                },
                                {
                                    "components": [
                                        {
                                            "name": "current",
                                            "type": "int256"
                                        },
                                        {
                                            "name": "previous",
                                            "type": "int256"
                                        }
                                    ],
                                    "name": "residuals",
                                    "type": "tuple"
                                }
                            ],
                            "name": "placement",
                            "type": "tuple"
                        },
                        {
                            "components": [
                                {
                                    "components": [
                                        {
                                            "name": "hash",
                                            "type": "bytes32"
                                        },
                                        {
                                            "components": [
                                                {
                                                    "name": "r",
                                                    "type": "bytes32"
                                                },
                                                {
                                                    "name": "s",
                                                    "type": "bytes32"
                                                },
                                                {
                                                    "name": "v",
                                                    "type": "uint8"
                                                }
                                            ],
                                            "name": "signature",
                                            "type": "tuple"
                                        }
                                    ],
                                    "name": "wallet",
                                    "type": "tuple"
                                },
                                {
                                    "components": [
                                        {
                                            "name": "hash",
                                            "type": "bytes32"
                                        },
                                        {
                                            "components": [
                                                {
                                                    "name": "r",
                                                    "type": "bytes32"
                                                },
                                                {
                                                    "name": "s",
                                                    "type": "bytes32"
                                                },
                                                {
                                                    "name": "v",
                                                    "type": "uint8"
                                                }
                                            ],
                                            "name": "signature",
                                            "type": "tuple"
                                        }
                                    ],
                                    "name": "operator",
                                    "type": "tuple"
                                }
                            ],
                            "name": "seals",
                            "type": "tuple"
                        },
                        {
                            "name": "blockNumber",
                            "type": "uint256"
                        },
                        {
                            "name": "operatorId",
                            "type": "uint256"
                        }
                    ],
                    "name": "order",
                    "type": "tuple"
                }
            ],
            "name": "challengeByOrder",
            "outputs": [],
            "payable": false,
            "stateMutability": "nonpayable",
            "type": "function"
        },
        {
            "constant": false,
            "inputs": [
                {
                    "name": "wallet",
                    "type": "address"
                },
                {
                    "components": [
                        {
                            "name": "nonce",
                            "type": "uint256"
                        },
                        {
                            "name": "amount",
                            "type": "int256"
                        },
                        {
                            "components": [
                                {
                                    "components": [
                                        {
                                            "name": "ct",
                                            "type": "address"
                                        },
                                        {
                                            "name": "id",
                                            "type": "uint256"
                                        }
                                    ],
                                    "name": "intended",
                                    "type": "tuple"
                                },
                                {
                                    "components": [
                                        {
                                            "name": "ct",
                                            "type": "address"
                                        },
                                        {
                                            "name": "id",
                                            "type": "uint256"
                                        }
                                    ],
                                    "name": "conjugate",
                                    "type": "tuple"
                                }
                            ],
                            "name": "currencies",
                            "type": "tuple"
                        },
                        {
                            "name": "rate",
                            "type": "int256"
                        },
                        {
                            "components": [
                                {
                                    "name": "nonce",
                                    "type": "uint256"
                                },
                                {
                                    "name": "wallet",
                                    "type": "address"
                                },
                                {
                                    "name": "rollingVolume",
                                    "type": "uint256"
                                },
                                {
                                    "name": "liquidityRole",
                                    "type": "uint8"
                                },
                                {
                                    "components": [
                                        {
                                            "name": "amount",
                                            "type": "int256"
                                        },
                                        {
                                            "components": [
                                                {
                                                    "name": "wallet",
                                                    "type": "bytes32"
                                                },
                                                {
                                                    "name": "operator",
                                                    "type": "bytes32"
                                                }
                                            ],
                                            "name": "hashes",
                                            "type": "tuple"
                                        },
                                        {
                                            "components": [
                                                {
                                                    "name": "current",
                                                    "type": "int256"
                                                },
                                                {
                                                    "name": "previous",
                                                    "type": "int256"
                                                }
                                            ],
                                            "name": "residuals",
                                            "type": "tuple"
                                        }
                                    ],
                                    "name": "order",
                                    "type": "tuple"
                                },
                                {
                                    "components": [
                                        {
                                            "components": [
                                                {
                                                    "name": "current",
                                                    "type": "int256"
                                                },
                                                {
                                                    "name": "previous",
                                                    "type": "int256"
                                                }
                                            ],
                                            "name": "intended",
                                            "type": "tuple"
                                        },
                                        {
                                            "components": [
                                                {
                                                    "name": "current",
                                                    "type": "int256"
                                                },
                                                {
                                                    "name": "previous",
                                                    "type": "int256"
                                                }
                                            ],
                                            "name": "conjugate",
                                            "type": "tuple"
                                        }
                                    ],
                                    "name": "balances",
                                    "type": "tuple"
                                },
                                {
                                    "components": [
                                        {
                                            "components": [
                                                {
                                                    "name": "amount",
                                                    "type": "int256"
                                                },
                                                {
                                                    "components": [
                                                        {
                                                            "name": "ct",
                                                            "type": "address"
                                                        },
                                                        {
                                                            "name": "id",
                                                            "type": "uint256"
                                                        }
                                                    ],
                                                    "name": "currency",
                                                    "type": "tuple"
                                                }
                                            ],
                                            "name": "single",
                                            "type": "tuple"
                                        },
                                        {
                                            "components": [
                                                {
                                                    "name": "originId",
                                                    "type": "uint256"
                                                },
                                                {
                                                    "components": [
                                                        {
                                                            "name": "amount",
                                                            "type": "int256"
                                                        },
                                                        {
                                                            "components": [
                                                                {
                                                                    "name": "ct",
                                                                    "type": "address"
                                                                },
                                                                {
                                                                    "name": "id",
                                                                    "type": "uint256"
                                                                }
                                                            ],
                                                            "name": "currency",
                                                            "type": "tuple"
                                                        }
                                                    ],
                                                    "name": "figure",
                                                    "type": "tuple"
                                                }
                                            ],
                                            "name": "total",
                                            "type": "tuple[]"
                                        }
                                    ],
                                    "name": "fees",
                                    "type": "tuple"
                                }
                            ],
                            "name": "buyer",
                            "type": "tuple"
                        },
                        {
                            "components": [
                                {
                                    "name": "nonce",
                                    "type": "uint256"
                                },
                                {
                                    "name": "wallet",
                                    "type": "address"
                                },
                                {
                                    "name": "rollingVolume",
                                    "type": "uint256"
                                },
                                {
                                    "name": "liquidityRole",
                                    "type": "uint8"
                                },
                                {
                                    "components": [
                                        {
                                            "name": "amount",
                                            "type": "int256"
                                        },
                                        {
                                            "components": [
                                                {
                                                    "name": "wallet",
                                                    "type": "bytes32"
                                                },
                                                {
                                                    "name": "operator",
                                                    "type": "bytes32"
                                                }
                                            ],
                                            "name": "hashes",
                                            "type": "tuple"
                                        },
                                        {
                                            "components": [
                                                {
                                                    "name": "current",
                                                    "type": "int256"
                                                },
                                                {
                                                    "name": "previous",
                                                    "type": "int256"
                                                }
                                            ],
                                            "name": "residuals",
                                            "type": "tuple"
                                        }
                                    ],
                                    "name": "order",
                                    "type": "tuple"
                                },
                                {
                                    "components": [
                                        {
                                            "components": [
                                                {
                                                    "name": "current",
                                                    "type": "int256"
                                                },
                                                {
                                                    "name": "previous",
                                                    "type": "int256"
                                                }
                                            ],
                                            "name": "intended",
                                            "type": "tuple"
                                        },
                                        {
                                            "components": [
                                                {
                                                    "name": "current",
                                                    "type": "int256"
                                                },
                                                {
                                                    "name": "previous",
                                                    "type": "int256"
                                                }
                                            ],
                                            "name": "conjugate",
                                            "type": "tuple"
                                        }
                                    ],
                                    "name": "balances",
                                    "type": "tuple"
                                },
                                {
                                    "components": [
                                        {
                                            "components": [
                                                {
                                                    "name": "amount",
                                                    "type": "int256"
                                                },
                                                {
                                                    "components": [
                                                        {
                                                            "name": "ct",
                                                            "type": "address"
                                                        },
                                                        {
                                                            "name": "id",
                                                            "type": "uint256"
                                                        }
                                                    ],
                                                    "name": "currency",
                                                    "type": "tuple"
                                                }
                                            ],
                                            "name": "single",
                                            "type": "tuple"
                                        },
                                        {
                                            "components": [
                                                {
                                                    "name": "originId",
                                                    "type": "uint256"
                                                },
                                                {
                                                    "components": [
                                                        {
                                                            "name": "amount",
                                                            "type": "int256"
                                                        },
                                                        {
                                                            "components": [
                                                                {
                                                                    "name": "ct",
                                                                    "type": "address"
                                                                },
                                                                {
                                                                    "name": "id",
                                                                    "type": "uint256"
                                                                }
                                                            ],
                                                            "name": "currency",
                                                            "type": "tuple"
                                                        }
                                                    ],
                                                    "name": "figure",
                                                    "type": "tuple"
                                                }
                                            ],
                                            "name": "total",
                                            "type": "tuple[]"
                                        }
                                    ],
                                    "name": "fees",
                                    "type": "tuple"
                                }
                            ],
                            "name": "seller",
                            "type": "tuple"
                        },
                        {
                            "components": [
                                {
                                    "components": [
                                        {
                                            "name": "single",
                                            "type": "int256"
                                        },
                                        {
                                            "name": "total",
                                            "type": "int256"
                                        }
                                    ],
                                    "name": "intended",
                                    "type": "tuple"
                                },
                                {
                                    "components": [
                                        {
                                            "name": "single",
                                            "type": "int256"
                                        },
                                        {
                                            "name": "total",
                                            "type": "int256"
                                        }
                                    ],
                                    "name": "conjugate",
                                    "type": "tuple"
                                }
                            ],
                            "name": "transfers",
                            "type": "tuple"
                        },
                        {
                            "components": [
                                {
                                    "name": "hash",
                                    "type": "bytes32"
                                },
                                {
                                    "components": [
                                        {
                                            "name": "r",
                                            "type": "bytes32"
                                        },
                                        {
                                            "name": "s",
                                            "type": "bytes32"
                                        },
                                        {
                                            "name": "v",
                                            "type": "uint8"
                                        }
                                    ],
                                    "name": "signature",
                                    "type": "tuple"
                                }
                            ],
                            "name": "seal",
                            "type": "tuple"
                        },
                        {
                            "name": "blockNumber",
                            "type": "uint256"
                        },
                        {
                            "name": "operatorId",
                            "type": "uint256"
                        }
                    ],
                    "name": "trade",
                    "type": "tuple"
                }
            ],
            "name": "challengeByTrade",
            "outputs": [],
            "payable": false,
            "stateMutability": "nonpayable",
            "type": "function"
        },
        {
            "constant": false,
            "inputs": [
                {
                    "name": "wallet",
                    "type": "address"
                },
                {
                    "components": [
                        {
                            "name": "nonce",
                            "type": "uint256"
                        },
                        {
                            "name": "amount",
                            "type": "int256"
                        },
                        {
                            "components": [
                                {
                                    "name": "ct",
                                    "type": "address"
                                },
                                {
                                    "name": "id",
                                    "type": "uint256"
                                }
                            ],
                            "name": "currency",
                            "type": "tuple"
                        },
                        {
                            "components": [
                                {
                                    "name": "nonce",
                                    "type": "uint256"
                                },
                                {
                                    "name": "wallet",
                                    "type": "address"
                                },
                                {
                                    "components": [
                                        {
                                            "name": "current",
                                            "type": "int256"
                                        },
                                        {
                                            "name": "previous",
                                            "type": "int256"
                                        }
                                    ],
                                    "name": "balances",
                                    "type": "tuple"
                                },
                                {
                                    "components": [
                                        {
                                            "components": [
                                                {
                                                    "name": "amount",
                                                    "type": "int256"
                                                },
                                                {
                                                    "components": [
                                                        {
                                                            "name": "ct",
                                                            "type": "address"
                                                        },
                                                        {
                                                            "name": "id",
                                                            "type": "uint256"
                                                        }
                                                    ],
                                                    "name": "currency",
                                                    "type": "tuple"
                                                }
                                            ],
                                            "name": "single",
                                            "type": "tuple"
                                        },
                                        {
                                            "components": [
                                                {
                                                    "name": "originId",
                                                    "type": "uint256"
                                                },
                                                {
                                                    "components": [
                                                        {
                                                            "name": "amount",
                                                            "type": "int256"
                                                        },
                                                        {
                                                            "components": [
                                                                {
                                                                    "name": "ct",
                                                                    "type": "address"
                                                                },
                                                                {
                                                                    "name": "id",
                                                                    "type": "uint256"
                                                                }
                                                            ],
                                                            "name": "currency",
                                                            "type": "tuple"
                                                        }
                                                    ],
                                                    "name": "figure",
                                                    "type": "tuple"
                                                }
                                            ],
                                            "name": "total",
                                            "type": "tuple[]"
                                        }
                                    ],
                                    "name": "fees",
                                    "type": "tuple"
                                }
                            ],
                            "name": "sender",
                            "type": "tuple"
                        },
                        {
                            "components": [
                                {
                                    "name": "nonce",
                                    "type": "uint256"
                                },
                                {
                                    "name": "wallet",
                                    "type": "address"
                                },
                                {
                                    "components": [
                                        {
                                            "name": "current",
                                            "type": "int256"
                                        },
                                        {
                                            "name": "previous",
                                            "type": "int256"
                                        }
                                    ],
                                    "name": "balances",
                                    "type": "tuple"
                                },
                                {
                                    "components": [
                                        {
                                            "components": [
                                                {
                                                    "name": "originId",
                                                    "type": "uint256"
                                                },
                                                {
                                                    "components": [
                                                        {
                                                            "name": "amount",
                                                            "type": "int256"
                                                        },
                                                        {
                                                            "components": [
                                                                {
                                                                    "name": "ct",
                                                                    "type": "address"
                                                                },
                                                                {
                                                                    "name": "id",
                                                                    "type": "uint256"
                                                                }
                                                            ],
                                                            "name": "currency",
                                                            "type": "tuple"
                                                        }
                                                    ],
                                                    "name": "figure",
                                                    "type": "tuple"
                                                }
                                            ],
                                            "name": "total",
                                            "type": "tuple[]"
                                        }
                                    ],
                                    "name": "fees",
                                    "type": "tuple"
                                }
                            ],
                            "name": "recipient",
                            "type": "tuple"
                        },
                        {
                            "components": [
                                {
                                    "name": "single",
                                    "type": "int256"
                                },
                                {
                                    "name": "total",
                                    "type": "int256"
                                }
                            ],
                            "name": "transfers",
                            "type": "tuple"
                        },
                        {
                            "components": [
                                {
                                    "components": [
                                        {
                                            "name": "hash",
                                            "type": "bytes32"
                                        },
                                        {
                                            "components": [
                                                {
                                                    "name": "r",
                                                    "type": "bytes32"
                                                },
                                                {
                                                    "name": "s",
                                                    "type": "bytes32"
                                                },
                                                {
                                                    "name": "v",
                                                    "type": "uint8"
                                                }
                                            ],
                                            "name": "signature",
                                            "type": "tuple"
                                        }
                                    ],
                                    "name": "wallet",
                                    "type": "tuple"
                                },
                                {
                                    "components": [
                                        {
                                            "name": "hash",
                                            "type": "bytes32"
                                        },
                                        {
                                            "components": [
                                                {
                                                    "name": "r",
                                                    "type": "bytes32"
                                                },
                                                {
                                                    "name": "s",
                                                    "type": "bytes32"
                                                },
                                                {
                                                    "name": "v",
                                                    "type": "uint8"
                                                }
                                            ],
                                            "name": "signature",
                                            "type": "tuple"
                                        }
                                    ],
                                    "name": "operator",
                                    "type": "tuple"
                                }
                            ],
                            "name": "seals",
                            "type": "tuple"
                        },
                        {
                            "name": "blockNumber",
                            "type": "uint256"
                        },
                        {
                            "name": "operatorId",
                            "type": "uint256"
                        }
                    ],
                    "name": "payment",
                    "type": "tuple"
                }
            ],
            "name": "challengeByPayment",
            "outputs": [],
            "payable": false,
            "stateMutability": "nonpayable",
            "type": "function"
        }
    ],
    "bytecode": "0x60806040523480156200001157600080fd5b5060405160208062003cab8339810180604052620000339190810190620000b6565b8080600160a060020a03811615156200004b57600080fd5b600160a060020a0381163014156200006257600080fd5b506000805461010060a860020a031916610100600160a060020a039390931692830217905560018054600160a060020a031916909117905550620000eb565b6000620000af8251620000df565b9392505050565b600060208284031215620000c957600080fd5b6000620000d78484620000a1565b949350505050565b600160a060020a031690565b613bb080620000fb6000396000f3006080604052600436106102215763ffffffff60e060020a600035041663013cf08b81146102265780630712abb0146102675780630a9f46ad146102945780631110f49a146102b657806316987929146102d857806319139092146102f85780631a9caa021461031a578063240625d81461032f5780632738a112146103515780632831207f146103665780632f013a00146103865780633bebdcb51461039b5780633e59b706146103bb57806342cb4587146103d05780634476d23b146103f057806349c56d49146104125780635252358d146104325780635618b56c14610452578063570ca7351461047f578063598b75ad146104945780635dc60def146104b45780635ee35779146104c9578063627f09c3146104de57806366a6f36d146104fe5780636c70bee91461051e57806370327ea11461053357806376cfd4f114610548578063811111b51461056857806385ea5e0214610588578063892860b2146105a857806390363c6f146105c857806396214735146105e8578063a4fc785914610608578063adfb677814610628578063affed0e014610648578063b3ab15fb1461065d578063b52d470a1461067d578063c1c6816514610692578063cdbf9419146106b2578063d5b68c62146106d2578063d5f39488146106f2578063e8ae41e314610707578063ed8a829d1461071c578063f7b876171461073c578063fb1a825e1461075c578063fca5192b1461077c578063fcd30b021461079c575b600080fd5b34801561023257600080fd5b506102466102413660046131ce565b6107bc565b60405161025e9c9b9a99989796959493929190613986565b60405180910390f35b34801561027357600080fd5b50610287610282366004612e59565b610929565b60405161025e9190613a8d565b3480156102a057600080fd5b506102a9610997565b60405161025e9190613a48565b3480156102c257600080fd5b506102d66102d13660046131af565b61099e565b005b3480156102e457600080fd5b506102a96102f3366004612e59565b610a9e565b34801561030457600080fd5b5061030d610b08565b60405161025e9190613a56565b34801561032657600080fd5b506102a9610b17565b34801561033b57600080fd5b50610344610b1d565b60405161025e9190613a3a565b34801561035d57600080fd5b506102d6610b2d565b34801561037257600080fd5b506102d6610381366004613140565b610b93565b34801561039257600080fd5b50610344610c24565b3480156103a757600080fd5b506103446103b6366004612e59565b610c2d565b3480156103c757600080fd5b50610344610cc4565b3480156103dc57600080fd5b506102a96103eb366004612e59565b610cd4565b3480156103fc57600080fd5b50610405610d3e565b60405161025e9190613833565b34801561041e57600080fd5b506102d661042d36600461308d565b610d52565b34801561043e57600080fd5b5061034461044d366004612e59565b610e55565b34801561045e57600080fd5b5061047261046d366004612e59565b610ec8565b60405161025e9190613a7f565b34801561048b57600080fd5b50610405610f36565b3480156104a057600080fd5b506102d66104af366004613140565b610f45565b3480156104c057600080fd5b506102d6611003565b3480156104d557600080fd5b5061030d611057565b3480156104ea57600080fd5b506102d66104f9366004613140565b611066565b34801561050a57600080fd5b506102a9610519366004612e59565b6110fe565b34801561052a57600080fd5b5061030d611121565b34801561053f57600080fd5b506102d6611130565b34801561055457600080fd5b506104056105633660046131ce565b611193565b34801561057457600080fd5b506102d6610583366004612ea6565b6111bb565b34801561059457600080fd5b506102d66105a3366004612f42565b61142d565b3480156105b457600080fd5b506102d66105c3366004613140565b6114c7565b3480156105d457600080fd5b506102a96105e33660046130d4565b611576565b3480156105f457600080fd5b506102d6610603366004612e33565b6115a6565b34801561061457600080fd5b506102d6610623366004612fa3565b611664565b34801561063457600080fd5b506102a9610643366004612e59565b6116e8565b34801561065457600080fd5b506102a9611755565b34801561066957600080fd5b506102d6610678366004612e33565b61175b565b34801561068957600080fd5b506102d6611805565b34801561069e57600080fd5b506102d66106ad36600461315e565b611859565b3480156106be57600080fd5b506102a96106cd366004612e59565b61192a565b3480156106de57600080fd5b506102a96106ed366004612e59565b611994565b3480156106fe57600080fd5b50610405611a01565b34801561071357600080fd5b5061030d611a15565b34801561072857600080fd5b506102d661073736600461303c565b611a24565b34801561074857600080fd5b506102d6610757366004612ff8565b611af1565b34801561076857600080fd5b506102a9610777366004612e59565b611b57565b34801561078857600080fd5b506102a9610797366004612e59565b611bc1565b3480156107a857600080fd5b506104056107b7366004612e59565b611c2b565b60098054829081106107ca57fe5b90600052602060002090600f02016000915090508060000160009054906101000a9004600160a060020a0316908060010154908060020154908060030154908060040160009054906101000a900460ff1690806005016040805190810160405290816000820160009054906101000a9004600160a060020a0316600160a060020a0316600160a060020a031681526020016001820154815250509080600701549080600801549080600901549080600a0160009054906101000a900460ff169080600a0160019054906101000a900460ff169080600b01608060405190810160405290816000820160009054906101000a9004600160a060020a0316600160a060020a0316600160a060020a03168152602001600182015481526020016002820154600019166000191681526020016003820160009054906101000a900460ff16600381111561091657fe5b600381111561092157fe5b90525090508c565b600160a060020a038084166000908152600a60209081526040808320938616835292815282822084835290529081205480151561096557600080fd5b60098054600019830190811061097757fe5b60009182526020909120600f909102016004015460ff1695945050505050565b6009545b90565b600260009054906101000a9004600160a060020a0316600160a060020a031663f71e860f6040518163ffffffff1660e060020a028152600401602060405180830381600087803b1580156109f157600080fd5b505af1158015610a05573d6000803e3d6000fd5b505050506040513d601f19601f82011682018060405250610a299190810190613104565b1515610a3457600080fd5b60055460405160e060020a638eed8359028152600160a060020a0390911690638eed835990610a699084903390600401613a9b565b600060405180830381600087803b158015610a8357600080fd5b505af1158015610a97573d6000803e3d6000fd5b5050505050565b600160a060020a038084166000908152600a602090815260408083209386168352928152828220848352905290812054801515610ada57600080fd5b600980546000198301908110610aec57fe5b90600052602060002090600f0201600801549150509392505050565b600354600160a060020a031681565b60075490565b60045460a060020a900460ff1681565b33610b36610d3e565b600160a060020a031614610b4957600080fd5b60005460ff1615610b5957600080fd5b7f787a5d936e74f4b564b9153575886059829c78cd9927b1be5e0d976b317ef73633604051610b889190613833565b60405180910390a133ff5b6000610b9d611c9f565b1515610ba857600080fd5b81600160a060020a0381161515610bbe57600080fd5b60058054600160a060020a03858116600160a060020a03198316179283905560405191811694507f024f2a980aa7a47eb4d67ab19c6ee9ebabb88554ffe760c39dcb2c7f8f42859892610c179286929190911690613a64565b60405180910390a1505050565b60005460ff1681565b600160a060020a038084166000908152600a602090815260408083209386168352928152828220848352905290812054801580610c8d5750600980546000198301908110610c7757fe5b90600052602060002090600f0201600101546000145b80610cbb5750600980546000198301908110610ca557fe5b90600052602060002090600f0201600301544210155b95945050505050565b60035460a060020a900460ff1681565b600160a060020a038084166000908152600a602090815260408083209386168352928152828220848352905290812054801515610d1057600080fd5b600980546000198301908110610d2257fe5b90600052602060002090600f0201600701549150509392505050565b6000546101009004600160a060020a031690565b600260009054906101000a9004600160a060020a0316600160a060020a031663f71e860f6040518163ffffffff1660e060020a028152600401602060405180830381600087803b158015610da557600080fd5b505af1158015610db9573d6000803e3d6000fd5b505050506040513d601f19601f82011682018060405250610ddd9190810190613104565b1515610de857600080fd5b60055460405160e060020a6392272607028152600160a060020a0390911690639227260790610e1f90859085903390600401613966565b600060405180830381600087803b158015610e3957600080fd5b505af1158015610e4d573d6000803e3d6000fd5b505050505050565b600160a060020a038084166000908152600a602090815260408083209386168352928152828220848352905290812054801515610e9157600080fd5b600980546000198301908110610ea357fe5b60009182526020909120600f90910201600a0154610100900460ff1695945050505050565b600160a060020a038084166000908152600a602090815260408083209386168352928152828220848352905290812054801515610f0457600080fd5b600980546000198301908110610f1657fe5b60009182526020909120600f90910201600e015460ff1695945050505050565b600154600160a060020a031681565b6000610f4f611c9f565b1515610f5a57600080fd5b81600160a060020a0381161515610f7057600080fd5b6003548390600160a060020a039081169082168114610a975760035460a060020a900460ff1615610fa057600080fd5b60038054600160a060020a03878116600160a060020a0319831617909255604051911694507fb2a91d3a71b0c5bc7c083153b3474378e489506ba98bd4ddb1b9056fdc594bb590610ff49086908890613a64565b60405180910390a15050505050565b61100b611c9f565b151561101657600080fd5b6004805460a060020a60ff02191660a060020a1790556040517f56ec8900b9c4bf84f4b715a53068ca06961dd49084c07b481931e2c2045346e690600090a1565b600554600160a060020a031681565b6000611070611c9f565b151561107b57600080fd5b81600160a060020a038116151561109157600080fd5b6002548390600160a060020a039081169082168114610a975760028054600160a060020a03878116600160a060020a0319831617909255604051911694507f634f61bf00e14adedce330c80c2823e16e184f189ebe853e1ddecc4a268477ff90610ff49086908890613a64565b600a60209081526000938452604080852082529284528284209052825290205481565b600254600160a060020a031681565b33611139610d3e565b600160a060020a03161461114c57600080fd5b6000805460ff191660011790556040517fd5a2a04a775c741c2ca0dc46ea7ce4835190e1aaf1ca018def0e82568ec3361690611189903390613833565b60405180910390a1565b60078054829081106111a157fe5b600091825260209091200154600160a060020a0316905081565b600554600090600160a060020a031633146111d557600080fd5b50600160a060020a038088166000908152600a60209081526040808320938a1683529281528282208883529052205480151561121057600080fd5b600160096001830381548110151561122457fe5b600091825260209091206004600f9092020101805460ff19166001838181111561124a57fe5b02179055506002546040805160e060020a63fbdfd8e702815290516112df92600160a060020a03169163fbdfd8e79160048083019260209291908290030181600087803b15801561129a57600080fd5b505af11580156112ae573d6000803e3d6000fd5b505050506040513d601f19601f820116820180604052506112d29190810190613122565b429063ffffffff611cb516565b6009805460001984019081106112f157fe5b90600052602060002090600f0201600301819055508460096001830381548110151561131957fe5b90600052602060002090600f0201600b0160000160006101000a815481600160a060020a030219169083600160a060020a031602179055508360096001830381548110151561136457fe5b60009182526020909120600c600f90920201015560098054849190600019840190811061138d57fe5b60009182526020909120600d600f9092020101556009805483919060001984019081106113b657fe5b60009182526020909120600e600f9092020101805460ff191660018360038111156113dd57fe5b02179055507fa0b7f84a6e07e377ed321c26dcf71a5dfc29c735054c576e63be4635d7b7459f88888888878760405161141b969594939291906138a8565b60405180910390a15050505050505050565b600554600090600160a060020a0316331461144757600080fd5b50600160a060020a038085166000908152600a6020908152604080832093871683529281528282208583529052205480151561148257600080fd5b8160096001830381548110151561149557fe5b600091825260209091206004600f9092020101805460ff1916600183818111156114bb57fe5b02179055505050505050565b60006114d1611c9f565b15156114dc57600080fd5b81600160a060020a03811615156114f257600080fd5b6004548390600160a060020a039081169082168114610a975760045460a060020a900460ff161561152257600080fd5b60048054600160a060020a03878116600160a060020a0319831617909255604051911694507fa44d361e26327b72a7ccbeae801b3c5cd7677ea4fa74168b289e273c46bfecfc90610ff49086908890613a64565b600b6020528160005260406000208181548110151561159157fe5b90600052602060002001600091509150505481565b60006115b0611c9f565b15156115bb57600080fd5b81600160a060020a03811615156115d157600080fd5b600160a060020a0381163014156115e757600080fd5b600054600160a060020a03848116610100909204161461165f5760008054600160a060020a0385811661010090810261010060a860020a0319841617909355604051929091041692507f977e5fa58e458501775e0008d275006294c5249e3c08d1d0e3a9f3acad14f6e490610c179084908690613841565b505050565b600554600090600160a060020a0316331461167e57600080fd5b50600160a060020a038085166000908152600a602090815260408083209387168352928152828220858352905220548015156116b957600080fd5b816009600183038154811015156116cc57fe5b90600052602060002090600f0201600301819055505050505050565b600160a060020a038084166000908152600a60209081526040808320938616835292815282822084835290529081205480151561172457600080fd5b60098054600019830190811061173657fe5b90600052602060002090600f0201600b01600201549150509392505050565b60065481565b6000611765611ccb565b151561177057600080fd5b81600160a060020a038116151561178657600080fd5b600160a060020a03811630141561179c57600080fd5b600154600160a060020a0384811691161461165f5760018054600160a060020a03858116600160a060020a0319831617909255604051911692507f9f611b789425d0d5b90b920f1b2852907dd865c80074a30b1629aaa041d1812c90610c179084908690613841565b61180d611c9f565b151561181857600080fd5b6003805460a060020a60ff02191660a060020a1790556040517f9c567b65fe8caab5ec7bc979a498a1322c1d4baf01a30727cbca137187560ea290600090a1565b6004805460405160e260020a631293efbb028152600160a060020a0390911691634a4fbeec9161188b91339101613833565b602060405180830381600087803b1580156118a557600080fd5b505af11580156118b9573d6000803e3d6000fd5b505050506040513d601f19601f820116820180604052506118dd9190810190613104565b156118e757600080fd5b6118f5338484846001611cdc565b7f3ea6a5f0533a257a4d3b7d514288450c5601dd58e5017bc15c7e32d6cf1ae03933848484604051610c179493929190613902565b600160a060020a038084166000908152600a60209081526040808320938616835292815282822084835290529081205480151561196657600080fd5b60098054600019830190811061197857fe5b90600052602060002090600f0201600101549150509392505050565b600160a060020a038084166000908152600a6020908152604080832093861683529281528282208483529052908120548015156119d057600080fd5b6009805460001983019081106119e257fe5b90600052602060002090600f0201600b01600101549150509392505050565b6000546101009004600160a060020a031681565b600454600160a060020a031681565b600260009054906101000a9004600160a060020a0316600160a060020a031663f71e860f6040518163ffffffff1660e060020a028152600401602060405180830381600087803b158015611a7757600080fd5b505af1158015611a8b573d6000803e3d6000fd5b505050506040513d601f19601f82011682018060405250611aaf9190810190613104565b1515611aba57600080fd5b60055460405160e260020a631a49a0cb028152600160a060020a0390911690636926832c90610e1f90859085903390600401613937565b611af9611ccb565b1515611b0457600080fd5b611b12848484846000611cdc565b7f5c2e5356cead72ecdf07d7e8b0d17de67df6aac7550613234585f8e5cf7c40763385858585604051611b4995949392919061385c565b60405180910390a150505050565b600160a060020a038084166000908152600a602090815260408083209386168352928152828220848352905290812054801515611b9357600080fd5b600980546000198301908110611ba557fe5b90600052602060002090600f0201600301549150509392505050565b600160a060020a038084166000908152600a602090815260408083209386168352928152828220848352905290812054801515611bfd57600080fd5b600980546000198301908110611c0f57fe5b90600052602060002090600f0201600201549150509392505050565b600160a060020a038084166000908152600a602090815260408083209386168352928152828220848352905290812054801515611c6757600080fd5b600980546000198301908110611c7957fe5b60009182526020909120600f90910201600b0154600160a060020a031695945050505050565b6000546101009004600160a060020a0316331490565b600082820183811015611cc457fe5b9392505050565b600154600160a060020a0316331490565b600260009054906101000a9004600160a060020a0316600160a060020a031663b6bf41766040518163ffffffff1660e060020a028152600401602060405180830381600087803b158015611d2f57600080fd5b505af1158015611d43573d6000803e3d6000fd5b505050506040513d601f19601f82011682018060405250611d679190810190613122565b431015611d7357600080fd5b611d7e858484610c2d565b1515611d8957600080fd5b611d968585858585611d9f565b610a9785612126565b60405160e060020a636b84d931028152600090819073__SafeMathIntLib________________________90636b84d93190611dde908990600401613a48565b60206040518083038186803b158015611df657600080fd5b505af4158015611e0a573d6000803e3d6000fd5b505050506040513d601f19601f82011682018060405250611e2e9190810190613104565b1515611e3957600080fd5b611e448786866121b1565b909250905085821215611e5657600080fd5b6009805490611e68906001830161246b565b50600980548891906000198101908110611e7e57fe5b60009182526020909120600f909102018054600160a060020a031916600160a060020a03929092169190911790556006805460010190819055600980546000198101908110611ec957fe5b600091825260209091206001600f909202010155600980548291906000198101908110611ef257fe5b90600052602060002090600f020160020181905550611f5d600260009054906101000a9004600160a060020a0316600160a060020a031663fbdfd8e76040518163ffffffff1660e060020a028152600401602060405180830381600087803b15801561129a57600080fd5b600980546000198101908110611f6f57fe5b6000918252602082206003600f909202010191909155600980546000198101908110611f9757fe5b600091825260209091206004600f9092020101805460ff191660018381811115611fbd57fe5b021790555060408051808201909152600160a060020a038616815260208101859052600980546000198101908110611ff157fe5b60009182526020918290208351600f9290920201600581018054600160a060020a031916600160a060020a039093169290921790915591015160069091015560098054879190600019810190811061204557fe5b600091825260209091206007600f909202010155612069828763ffffffff6123f516565b60098054600019810190811061207b57fe5b600091825260209091206008600f9092020101556009805484919060001981019081106120a457fe5b60009182526020808320600a600f90930201820180549415156101000261ff001990951694909417909355600954600160a060020a039a8b16808452918452604080842099909b168352978352898220968252958252888120879055948552600b81529684208054600181018255908552969093209095019290925550505050565b600160a060020a03811660009081526008602052604090205460ff1615156121ae57600160a060020a0381166000818152600860205260408120805460ff191660019081179091556007805491820181559091527fa66cc928b5edb82af9bd49922954155ab7b0942694bea4ce44661d9a8736c688018054600160a060020a03191690911790555b50565b6003546040805160e460020a630ded1131028152905160009283928392839283928392600160a060020a0390921691636f4a1815918c91849163ded1131091600480830192602092919082900301818a87803b15801561221057600080fd5b505af1158015612224573d6000803e3d6000fd5b505050506040513d601f19601f820116820180604052506122489190810190613122565b8b8b6040518563ffffffff1660e060020a02815260040161226c9493929190613902565b6040805180830381600087803b15801561228557600080fd5b505af1158015612299573d6000803e3d6000fd5b505050506040513d601f19601f820116820180604052506122bd919081019061317f565b6003546040805160e260020a631194bb1d0281529051939750919550600160a060020a031691636f4a1815918c918491634652ec749160048083019260209291908290030181600087803b15801561231457600080fd5b505af1158015612328573d6000803e3d6000fd5b505050506040513d601f19601f8201168201806040525061234c9190810190613122565b8b8b6040518563ffffffff1660e060020a0281526004016123709493929190613902565b6040805180830381600087803b15801561238957600080fd5b505af115801561239d573d6000803e3d6000fd5b505050506040513d601f19601f820116820180604052506123c1919081019061317f565b90925090506123d6848363ffffffff61243616565b95508083116123e557806123e7565b825b945050505050935093915050565b600080821215801561240957508282840313155b806124205750600082128015612420575082828403135b151561242b57600080fd5b508082035b92915050565b600082820181831280159061244b5750838112155b80612460575060008312801561246057508381125b1515611cc457600080fd5b81548183558181111561165f5760008381526020902061165f9161099b91600f9182028101918502015b80821115612531578054600160a060020a03199081168255600060018301819055600283018190556003830181905560048301805460ff199081169091556005840180548416905560068401829055600784018290556008840182905560098401829055600a8401805461ffff19169055600b84018054909316909255600c8301819055600d830155600e820180549091169055600f01612495565b5090565b6000611cc48235613b08565b6000601f8201831361255257600080fd5b813561256561256082613ade565b613ab8565b9150818183526020840193506020810190508385608084028201111561258a57600080fd5b60005b838110156125b857816125a0888261284b565b8452506020909201916080919091019060010161258d565b5050505092915050565b6000611cc48251613b14565b6000611cc4823561099b565b6000611cc4825161099b565b6000611cc48235613b37565b6000611cc48235613b42565b6000611cc48235613b51565b60006040828403121561261c57600080fd5b6126266040613ab8565b905060006126348484612535565b8252506020612645848483016125ce565b60208301525092915050565b60006040828403121561266357600080fd5b61266d6040613ab8565b9050600061263484846125ce565b60006060828403121561268d57600080fd5b6126976040613ab8565b905060006126a584846125ce565b82525060206126458484830161260a565b6000608082840312156126c857600080fd5b6126d26040613ab8565b905060006126e0848461260a565b82525060406126458484830161260a565b60006080828403121561270357600080fd5b61270d6040613ab8565b9050600061271b8484612651565b825250604061264584848301612651565b6000610120828403121561273f57600080fd5b61274960a0613ab8565b9050600061275784846125fe565b8252506020612768848483016125ce565b602083015250604061277c848285016126b6565b60408301525060c0612790848285016125ce565b60608301525060e06127a484828501612651565b60808301525092915050565b60006102a082840312156127c357600080fd5b6127cd60c0613ab8565b905060006127db84846125ce565b82525060206127ec84848301612535565b60208301525060406128008482850161272c565b60408301525061016061281584828501612deb565b60608301525061026061282a848285016125ce565b60808301525061028061283f848285016125ce565b60a08301525092915050565b60006080828403121561285d57600080fd5b6128676040613ab8565b9050600061287584846125ce565b82525060206126458484830161267b565b600060a0828403121561289857600080fd5b6128a26080613ab8565b905060006128b084846125ce565b82525060206128c184848301612535565b60208301525060406128d584828501612651565b60408301525060808201356001604060020a038111156128f457600080fd5b61290084828501612b70565b60608301525092915050565b600060a0828403121561291e57600080fd5b6129286080613ab8565b9050600061293684846125ce565b825250602061294784848301612535565b602083015250604061295b84828501612651565b60408301525060808201356001604060020a0381111561297a57600080fd5b61290084828501612b1e565b6000610240828403121561299957600080fd5b6129a4610120613ab8565b905060006129b284846125ce565b82525060206129c3848483016125ce565b60208301525060406129d78482850161260a565b60408301525060808201356001604060020a038111156129f657600080fd5b612a028482850161290c565b60608301525060a08201356001604060020a03811115612a2157600080fd5b612a2d84828501612886565b60808301525060c0612a4184828501612651565b60a083015250610100612a5684828501612deb565b60c083015250610200612a6b848285016125ce565b60e083015250610220612a80848285016125ce565b6101008301525092915050565b600060808284031215612a9f57600080fd5b612aa96040613ab8565b90506000612ab784846125ce565b825250602061264584848301600060608284031215612ad557600080fd5b612adf6060613ab8565b90506000612aed84846125ce565b8252506020612afe848483016125ce565b6020830152506040612b1284828501612e27565b60408301525092915050565b600060808284031215612b3057600080fd5b612b3a6040613ab8565b90506000612b48848461267b565b82525060608201356001604060020a03811115612b6457600080fd5b61264584828501612541565b600060208284031215612b8257600080fd5b612b8c6020613ab8565b905081356001604060020a03811115612ba457600080fd5b612bb084828501612541565b82525092915050565b600060a08284031215612bcb57600080fd5b612bd56060613ab8565b90506000612be384846125ce565b8252506020612bf484848301612651565b6020830152506060612b1284828501612651565b60006101c08284031215612c1b57600080fd5b612c2560e0613ab8565b90506000612c3384846125ce565b8252506020612c4484848301612535565b6020830152506040612c58848285016125ce565b6040830152506060612c6c848285016125fe565b6060830152506080612c8084828501612bb9565b608083015250610120612c95848285016126f1565b60a0830152506101a08201356001604060020a03811115612cb557600080fd5b612cc184828501612b1e565b60c08301525092915050565b60006102608284031215612ce057600080fd5b612ceb610140613ab8565b90506000612cf984846125ce565b8252506020612d0a848483016125ce565b6020830152506040612d1e848285016126b6565b60408301525060c0612d32848285016125ce565b60608301525060e08201356001604060020a03811115612d5157600080fd5b612d5d84828501612c08565b6080830152506101008201356001604060020a03811115612d7d57600080fd5b612d8984828501612c08565b60a083015250610120612d9e848285016126f1565b60c0830152506101a0612db384828501612a8d565b60e083015250610220612dc8848285016125ce565b61010083015250610240612dde848285016125ce565b6101208301525092915050565b60006101008284031215612dfe57600080fd5b612e086040613ab8565b90506000612e168484612a8d565b825250608061264584848301612a8d565b6000611cc48235613b31565b600060208284031215612e4557600080fd5b6000612e518484612535565b949350505050565b600080600060608486031215612e6e57600080fd5b6000612e7a8686612535565b9350506020612e8b86828701612535565b9250506040612e9c868287016125ce565b9150509250925092565b600080600080600080600060e0888a031215612ec157600080fd5b6000612ecd8a8a612535565b9750506020612ede8a828b01612535565b9650506040612eef8a828b016125ce565b9550506060612f008a828b01612535565b9450506080612f118a828b016125ce565b93505060a0612f228a828b016125ce565b92505060c0612f338a828b016125f2565b91505092959891949750929550565b60008060008060808587031215612f5857600080fd5b6000612f648787612535565b9450506020612f7587828801612535565b9350506040612f86878288016125ce565b9250506060612f97878288016125fe565b91505092959194509250565b60008060008060808587031215612fb957600080fd5b6000612fc58787612535565b9450506020612fd687828801612535565b9350506040612fe7878288016125ce565b9250506060612f97878288016125ce565b6000806000806080858703121561300e57600080fd5b600061301a8787612535565b945050602061302b878288016125ce565b9350506040612fe787828801612535565b6000806040838503121561304f57600080fd5b600061305b8585612535565b92505060208301356001604060020a0381111561307757600080fd5b61308385828601612986565b9150509250929050565b600080604083850312156130a057600080fd5b60006130ac8585612535565b92505060208301356001604060020a038111156130c857600080fd5b61308385828601612ccd565b600080604083850312156130e757600080fd5b60006130f38585612535565b9250506020613083858286016125ce565b60006020828403121561311657600080fd5b6000612e5184846125c2565b60006020828403121561313457600080fd5b6000612e5184846125da565b60006020828403121561315257600080fd5b6000612e5184846125e6565b60008060006060848603121561317357600080fd5b6000612e7a86866125ce565b6000806040838503121561319257600080fd5b600061319e85856125da565b9250506020613083858286016125da565b60006102a082840312156131c257600080fd5b6000612e5184846127b0565b6000602082840312156131e057600080fd5b6000612e5184846125ce565b6131f581613b08565b82525050565b600061320682613b04565b80845260208401935061321883613afe565b60005b828110156132485761322e868351613442565b61323782613afe565b60809690960195915060010161321b565b5093949350505050565b6131f581613b14565b6131f58161099b565b6131f581613b37565b6131f581613b60565b6131f581613b6b565b8051604083019061329084826131ec565b5060208201516132a3602085018261325b565b50505050565b80516040830190613290848261325b565b805160808301906132cb84826131ec565b5060208201516132de602085018261325b565b5060408201516132f1604085018261325b565b5060608201516132a3606085018261326d565b80516060830190613315848261325b565b5060208201516132a3602085018261327f565b80516080830190613339848261327f565b5060208201516132a3604085018261327f565b8051608083019061335d84826132a9565b5060208201516132a360408501826132a9565b80516101208301906133828482613276565b506020820151613395602085018261325b565b5060408201516133a86040850182613328565b5060608201516133bb60c085018261325b565b5060808201516132a360e08501826132a9565b80516102a08301906133e0848261325b565b5060208201516133f360208501826131ec565b5060408201516134066040850182613370565b50606082015161341a610160850182613805565b50608082015161342e61026085018261325b565b5060a08201516132a361028085018261325b565b80516080830190613453848261325b565b5060208201516132a36020850182613304565b805160009060a084019061347a858261325b565b50602083015161348d60208601826131ec565b5060408301516134a060408601826132a9565b5060608301518482036080860152610cbb8282613653565b805160009060a08401906134cc858261325b565b5060208301516134df60208601826131ec565b5060408301516134f260408601826132a9565b5060608301518482036080860152610cbb8282613627565b805160009061024084019061351f858261325b565b506020830151613532602086018261325b565b506040830151613545604086018261327f565b506060830151848203608086015261355d82826134b8565b915050608083015184820360a08601526135778282613466565b91505060a083015161358c60c08601826132a9565b5060c08301516135a0610100860182613805565b5060e08301516135b461020086018261325b565b506101008301516135c961022086018261325b565b509392505050565b805160808301906135e2848261325b565b5060208201516132a3602085018280516060830190613601848261325b565b506020820151613614602085018261325b565b5060408201516132a3604085018261382a565b8051600090608084019061363b8582613304565b5060208301518482036060860152610cbb82826131fb565b8051602080845260009190840190610cbb82826131fb565b805160a083019061367c848261325b565b50602082015161368f60208501826132a9565b5060408201516132a360608501826132a9565b80516000906101c08401906136b7858261325b565b5060208301516136ca60208601826131ec565b5060408301516136dd604086018261325b565b5060608301516136f06060860182613276565b506080830151613703608086018261366b565b5060a083015161371761012086018261334c565b5060c08301518482036101a0860152610cbb8282613627565b8051600090610260840190613745858261325b565b506020830151613758602086018261325b565b50604083015161376b6040860182613328565b50606083015161377e60c086018261325b565b50608083015184820360e086015261379682826136a2565b91505060a08301518482036101008601526137b182826136a2565b91505060c08301516137c761012086018261334c565b5060e08301516137db6101a08601826135d1565b506101008301516137f061022086018261325b565b506101208301516135c961024086018261325b565b805161010083019061381784826135d1565b5060208201516132a360808501826135d1565b6131f581613b31565b6020810161243082846131ec565b6040810161384f82856131ec565b611cc460208301846131ec565b60a0810161386a82886131ec565b61387760208301876131ec565b613884604083018661325b565b61389160608301856131ec565b61389e608083018461325b565b9695505050505050565b60c081016138b682896131ec565b6138c360208301886131ec565b6138d0604083018761325b565b6138dd60608301866131ec565b6138ea608083018561325b565b6138f760a083018461326d565b979650505050505050565b6080810161391082876131ec565b61391d602083018661325b565b61392a60408301856131ec565b610cbb606083018461325b565b6060810161394582866131ec565b8181036020830152613957818561350a565b9050612e5160408301846131ec565b6060810161397482866131ec565b81810360208301526139578185613730565b6102008101613995828f6131ec565b6139a2602083018e61325b565b6139af604083018d61325b565b6139bc606083018c61325b565b6139c9608083018b613276565b6139d660a083018a61327f565b6139e360e083018961325b565b6139f161010083018861325b565b6139ff61012083018761325b565b613a0d610140830186613276565b613a1b610160830185613252565b613a296101808301846132ba565b9d9c50505050505050505050505050565b602081016124308284613252565b60208101612430828461325b565b602081016124308284613264565b60408101613a728285613264565b611cc46020830184613264565b60208101612430828461326d565b602081016124308284613276565b6102c08101613aaa82856133ce565b611cc46102a08301846131ec565b6040518181016001604060020a0381118282101715613ad657600080fd5b604052919050565b60006001604060020a03821115613af457600080fd5b5060209081020190565b60200190565b5190565b600160a060020a031690565b151590565b60006004821061253157fe5b60006002821061253157fe5b60ff1690565b600061243082613b08565b60006004821061253157600080fd5b60006002821061253157600080fd5b600061243082613b19565b600061243082613b255600a265627a7a72305820a52d893b61dd6f5d1061f6ad87bda00f6385e39acccb193ea647241c25c31c286c6578706572696d656e74616cf50037",
    "source": "/*\n * Hubii Nahmii\n *\n * Compliant with the Hubii Nahmii specification v0.12.\n *\n * Copyright (C) 2017-2018 Hubii AS\n */\n\npragma solidity ^0.4.25;\npragma experimental ABIEncoderV2;\n\nimport {Ownable} from \"./Ownable.sol\";\nimport {Challenge} from \"./Challenge.sol\";\nimport {BalanceTrackable} from \"./BalanceTrackable.sol\";\nimport {WalletLockable} from \"./WalletLockable.sol\";\nimport {SafeMathIntLib} from \"./SafeMathIntLib.sol\";\nimport {SafeMathUintLib} from \"./SafeMathUintLib.sol\";\nimport {NullSettlementDispute} from \"./NullSettlementDispute.sol\";\nimport {MonetaryTypesLib} from \"./MonetaryTypesLib.sol\";\nimport {NahmiiTypesLib} from \"./NahmiiTypesLib.sol\";\nimport {SettlementTypesLib} from \"./SettlementTypesLib.sol\";\n\n/**\n * @title NullSettlementChallenge\n * @notice Where null settlements are started and challenged\n */\ncontract NullSettlementChallenge is Ownable, Challenge, BalanceTrackable, WalletLockable {\n    using SafeMathIntLib for int256;\n    using SafeMathUintLib for uint256;\n\n    //\n    // Variables\n    // -----------------------------------------------------------------------------------------------------------------\n    NullSettlementDispute public nullSettlementDispute;\n\n    uint256 public nonce;\n\n    address[] public challengeWallets;\n    mapping(address => bool) challengeByWallets;\n\n    SettlementTypesLib.Proposal[] public proposals;\n    mapping(address => mapping(address => mapping(uint256 => uint256))) public proposalIndexByWalletCurrency;\n    mapping(address => uint256[]) public proposalIndicesByWallet;\n\n    //\n    // Events\n    // -----------------------------------------------------------------------------------------------------------------\n    event SetNullSettlementDisputeEvent(NullSettlementDispute oldNullSettlementDispute,\n        NullSettlementDispute newNullSettlementDispute);\n    event StartChallengeEvent(address wallet, int256 amount, address stageCurrencyCt,\n        uint stageCurrencyId);\n    event StartChallengeByProxyEvent(address proxy, address wallet, int256 amount,\n        address stageCurrencyCt, uint stageCurrencyId);\n    event DisqualifyProposalEvent(address challengedWallet, address currencyCt, uint256 currencyId,\n        address challengerWallet, bytes32 candidateHash, SettlementTypesLib.CandidateType candidateType);\n\n    //\n    // Constructor\n    // -----------------------------------------------------------------------------------------------------------------\n    constructor(address deployer) Ownable(deployer) public {\n    }\n\n    //\n    // Functions\n    // -----------------------------------------------------------------------------------------------------------------\n    /// @notice Set the settlement dispute contract\n    /// @param newNullSettlementDispute The (address of) NullSettlementDispute contract instance\n    function setNullSettlementDispute(NullSettlementDispute newNullSettlementDispute)\n    public\n    onlyDeployer\n    notNullAddress(newNullSettlementDispute)\n    {\n        NullSettlementDispute oldNullSettlementDispute = nullSettlementDispute;\n        nullSettlementDispute = newNullSettlementDispute;\n        emit SetNullSettlementDisputeEvent(oldNullSettlementDispute, nullSettlementDispute);\n    }\n\n    /// @notice Get the number of challenge wallets, i.e. wallets that have started null settlement challenge\n    /// @return The number of challenge wallets\n    function challengeWalletsCount()\n    public\n    view\n    returns (uint256)\n    {\n        return challengeWallets.length;\n    }\n\n    /// @notice Get the number of proposals\n    /// @return The number of proposals\n    function proposalsCount()\n    public\n    view\n    returns (uint256)\n    {\n        return proposals.length;\n    }\n\n    /// @notice Start settlement challenge\n    /// @param amount The concerned amount to stage\n    /// @param currencyCt The address of the concerned currency contract (address(0) == ETH)\n    /// @param currencyId The ID of the concerned currency (0 for ETH and ERC20)\n    function startChallenge(int256 amount, address currencyCt, uint256 currencyId)\n    public\n    {\n        // Require that wallet is not locked\n        require(!walletLocker.isLocked(msg.sender));\n\n        // Start challenge for wallet\n        _startChallenge(msg.sender, amount, currencyCt, currencyId, true);\n\n        // Emit event\n        emit StartChallengeEvent(msg.sender, amount, currencyCt, currencyId);\n    }\n\n    /// @notice Start settlement challenge for the given wallet\n    /// @param wallet The address of the concerned wallet\n    /// @param amount The concerned amount to stage\n    /// @param currencyCt The address of the concerned currency contract (address(0) == ETH)\n    /// @param currencyId The ID of the concerned currency (0 for ETH and ERC20)\n    function startChallengeByProxy(address wallet, int256 amount, address currencyCt, uint256 currencyId)\n    public\n    onlyOperator\n    {\n        // Start challenge for wallet\n        _startChallenge(wallet, amount, currencyCt, currencyId, false);\n\n        // Emit event\n        emit StartChallengeByProxyEvent(msg.sender, wallet, amount, currencyCt, currencyId);\n    }\n\n    /// @notice Gauge whether the proposal for the given wallet and currency has expired\n    /// @param wallet The address of the concerned wallet\n    /// @param currencyCt The address of the concerned currency contract (address(0) == ETH)\n    /// @param currencyId The ID of the concerned currency (0 for ETH and ERC20)\n    /// @return true if proposal has expired, else false\n    function hasProposalExpired(address wallet, address currencyCt, uint256 currencyId)\n    public\n    view\n    returns (bool)\n    {\n        // 1-based index\n        uint256 index = proposalIndexByWalletCurrency[wallet][currencyCt][currencyId];\n        return (\n        0 == index ||\n        0 == proposals[index - 1].nonce ||\n        block.timestamp >= proposals[index - 1].expirationTime\n        );\n    }\n\n    /// @notice Get the challenge nonce of the given wallet\n    /// @param wallet The address of the concerned wallet\n    /// @param currencyCt The address of the concerned currency contract (address(0) == ETH)\n    /// @param currencyId The ID of the concerned currency (0 for ETH and ERC20)\n    /// @return The challenge nonce\n    function proposalNonce(address wallet, address currencyCt, uint256 currencyId)\n    public\n    view\n    returns (uint256)\n    {\n        uint256 index = proposalIndexByWalletCurrency[wallet][currencyCt][currencyId];\n        require(0 != index);\n        return proposals[index - 1].nonce;\n    }\n\n    /// @notice Get the settlement proposal block number of the given wallet\n    /// @param wallet The address of the concerned wallet\n    /// @param currencyCt The address of the concerned currency contract (address(0) == ETH)\n    /// @param currencyId The ID of the concerned currency (0 for ETH and ERC20)\n    /// @return The settlement proposal block number\n    function proposalBlockNumber(address wallet, address currencyCt, uint256 currencyId)\n    public\n    view\n    returns (uint256)\n    {\n        uint256 index = proposalIndexByWalletCurrency[wallet][currencyCt][currencyId];\n        require(0 != index);\n        return proposals[index - 1].blockNumber;\n    }\n\n    /// @notice Get the settlement proposal end time of the given wallet\n    /// @param wallet The address of the concerned wallet\n    /// @param currencyCt The address of the concerned currency contract (address(0) == ETH)\n    /// @param currencyId The ID of the concerned currency (0 for ETH and ERC20)\n    /// @return The settlement proposal end time\n    function proposalExpirationTime(address wallet, address currencyCt, uint256 currencyId)\n    public\n    view\n    returns (uint256)\n    {\n        uint256 index = proposalIndexByWalletCurrency[wallet][currencyCt][currencyId];\n        require(0 != index);\n        return proposals[index - 1].expirationTime;\n    }\n\n    /// @notice Get the challenge status of the given wallet\n    /// @param wallet The address of the concerned wallet\n    /// @param currencyCt The address of the concerned currency contract (address(0) == ETH)\n    /// @param currencyId The ID of the concerned currency (0 for ETH and ERC20)\n    /// @return The challenge status\n    function proposalStatus(address wallet, address currencyCt, uint256 currencyId)\n    public\n    view\n    returns (SettlementTypesLib.Status)\n    {\n        uint256 index = proposalIndexByWalletCurrency[wallet][currencyCt][currencyId];\n        require(0 != index);\n        return proposals[index - 1].status;\n    }\n\n    /// @notice Get the settlement proposal stage amount of the given wallet and currency\n    /// @param wallet The address of the concerned wallet\n    /// @param currencyCt The address of the concerned currency contract (address(0) == ETH)\n    /// @param currencyId The ID of the concerned currency (0 for ETH and ERC20)\n    /// @return The settlement proposal stage amount\n    function proposalStageAmount(address wallet, address currencyCt, uint256 currencyId)\n    public\n    view\n    returns (int256)\n    {\n        uint256 index = proposalIndexByWalletCurrency[wallet][currencyCt][currencyId];\n        require(0 != index);\n        return proposals[index - 1].stageAmount;\n    }\n\n    /// @notice Get the settlement proposal target balance amount of the given wallet and currency\n    /// @param wallet The address of the concerned wallet\n    /// @param currencyCt The address of the concerned currency contract (address(0) == ETH)\n    /// @param currencyId The ID of the concerned currency (0 for ETH and ERC20)\n    /// @return The settlement proposal target balance amount\n    function proposalTargetBalanceAmount(address wallet, address currencyCt, uint256 currencyId)\n    public\n    view\n    returns (int256)\n    {\n        uint256 index = proposalIndexByWalletCurrency[wallet][currencyCt][currencyId];\n        require(0 != index);\n        return proposals[index - 1].targetBalanceAmount;\n    }\n\n    /// @notice Get the balance reward of the given wallet's settlement proposal\n    /// @param wallet The address of the concerned wallet\n    /// @param currencyCt The address of the concerned currency contract (address(0) == ETH)\n    /// @param currencyId The ID of the concerned currency (0 for ETH and ERC20)\n    /// @return The balance reward of the settlement proposal\n    function proposalBalanceReward(address wallet, address currencyCt, uint256 currencyId)\n    public\n    view\n    returns (bool)\n    {\n        uint256 index = proposalIndexByWalletCurrency[wallet][currencyCt][currencyId];\n        require(0 != index);\n        return proposals[index - 1].balanceReward;\n    }\n\n    /// @notice Get the disqualification challenger of the given wallet and currency\n    /// @param wallet The address of the concerned wallet\n    /// @param currencyCt The address of the concerned currency contract (address(0) == ETH)\n    /// @param currencyId The ID of the concerned currency (0 for ETH and ERC20)\n    /// @return The challenger of the settlement disqualification\n    function proposalDisqualificationChallenger(address wallet, address currencyCt, uint256 currencyId)\n    public\n    view\n    returns (address)\n    {\n        uint256 index = proposalIndexByWalletCurrency[wallet][currencyCt][currencyId];\n        require(0 != index);\n        return proposals[index - 1].disqualification.challenger;\n    }\n\n    /// @notice Get the disqualification block number of the given wallet and currency\n    /// @param wallet The address of the concerned wallet\n    /// @param currencyCt The address of the concerned currency contract (address(0) == ETH)\n    /// @param currencyId The ID of the concerned currency (0 for ETH and ERC20)\n    /// @return The block number of the settlement disqualification\n    function proposalDisqualificationBlockNumber(address wallet, address currencyCt, uint256 currencyId)\n    public\n    view\n    returns (uint256)\n    {\n        uint256 index = proposalIndexByWalletCurrency[wallet][currencyCt][currencyId];\n        require(0 != index);\n        return proposals[index - 1].disqualification.blockNumber;\n    }\n\n    /// @notice Get the disqualification candidate type of the given wallet and currency\n    /// @param wallet The address of the concerned wallet\n    /// @param currencyCt The address of the concerned currency contract (address(0) == ETH)\n    /// @param currencyId The ID of the concerned currency (0 for ETH and ERC20)\n    /// @return The candidate type of the settlement disqualification\n    function proposalDisqualificationCandidateType(address wallet, address currencyCt, uint256 currencyId)\n    public\n    view\n    returns (SettlementTypesLib.CandidateType)\n    {\n        uint256 index = proposalIndexByWalletCurrency[wallet][currencyCt][currencyId];\n        require(0 != index);\n        return proposals[index - 1].disqualification.candidateType;\n    }\n\n    /// @notice Get the disqualification candidate hash of the given wallet and currency\n    /// @param wallet The address of the concerned wallet\n    /// @param currencyCt The address of the concerned currency contract (address(0) == ETH)\n    /// @param currencyId The ID of the concerned currency (0 for ETH and ERC20)\n    /// @return The candidate hash of the settlement disqualification\n    function proposalDisqualificationCandidateHash(address wallet, address currencyCt, uint256 currencyId)\n    public\n    view\n    returns (bytes32)\n    {\n        uint256 index = proposalIndexByWalletCurrency[wallet][currencyCt][currencyId];\n        require(0 != index);\n        return proposals[index - 1].disqualification.candidateHash;\n    }\n\n    /// @notice Set settlement proposal end time property of the given wallet\n    /// @dev This function can only be called by this contract's dispute instance\n    /// @param wallet The address of the concerned wallet\n    /// @param expirationTime The end time value\n    function setProposalExpirationTime(address wallet, address currencyCt, uint256 currencyId,\n        uint256 expirationTime)\n    public\n    onlyNullSettlementDispute\n    {\n        uint256 index = proposalIndexByWalletCurrency[wallet][currencyCt][currencyId];\n        require(0 != index);\n        proposals[index - 1].expirationTime = expirationTime;\n    }\n\n    /// @notice Set settlement proposal status property of the given wallet\n    /// @dev This function can only be called by this contract's dispute instance\n    /// @param wallet The address of the concerned wallet\n    /// @param status The status value\n    function setProposalStatus(address wallet, address currencyCt, uint256 currencyId,\n        SettlementTypesLib.Status status)\n    public\n    onlyNullSettlementDispute\n    {\n        uint256 index = proposalIndexByWalletCurrency[wallet][currencyCt][currencyId];\n        require(0 != index);\n        proposals[index - 1].status = status;\n    }\n\n    /// @notice Disqualify a proposal\n    /// @dev A call to this function will intentionally override previous disqualifications if existent\n    /// @param challengedWallet The address of the concerned challenged wallet\n    /// @param currencyCt The address of the concerned currency contract (address(0) == ETH)\n    /// @param currencyId The ID of the concerned currency (0 for ETH and ERC20)\n    /// @param challengerWallet The address of the concerned challenger wallet\n    /// @param blockNumber The disqualification block number\n    /// @param candidateHash The candidate hash\n    /// @param candidateType The candidate type\n    function disqualifyProposal(address challengedWallet, address currencyCt, uint256 currencyId, address challengerWallet,\n        uint256 blockNumber, bytes32 candidateHash, SettlementTypesLib.CandidateType candidateType)\n    public\n    onlyNullSettlementDispute\n    {\n        // Get the proposal index\n        uint256 index = proposalIndexByWalletCurrency[challengedWallet][currencyCt][currencyId];\n        require(0 != index);\n\n        // Update proposal\n        proposals[index - 1].status = SettlementTypesLib.Status.Disqualified;\n        proposals[index - 1].expirationTime = block.timestamp.add(configuration.settlementChallengeTimeout());\n        proposals[index - 1].disqualification.challenger = challengerWallet;\n        proposals[index - 1].disqualification.blockNumber = blockNumber;\n        proposals[index - 1].disqualification.candidateHash = candidateHash;\n        proposals[index - 1].disqualification.candidateType = candidateType;\n\n        // Emit event\n        emit DisqualifyProposalEvent(\n            challengedWallet, currencyCt, currencyId, challengerWallet, candidateHash, candidateType\n        );\n    }\n\n    /// @notice Challenge the settlement by providing order candidate\n    /// @param order The order candidate that challenges the null\n    function challengeByOrder(NahmiiTypesLib.Order order)\n    public\n    onlyOperationalModeNormal\n    {\n        nullSettlementDispute.challengeByOrder(order, msg.sender);\n    }\n\n    /// @notice Challenge the settlement by providing trade candidate\n    /// @param wallet The wallet whose settlement is being challenged\n    /// @param trade The trade candidate that challenges the null\n    function challengeByTrade(address wallet, NahmiiTypesLib.Trade trade)\n    public\n    onlyOperationalModeNormal\n    {\n        nullSettlementDispute.challengeByTrade(wallet, trade, msg.sender);\n    }\n\n    /// @notice Challenge the settlement by providing payment candidate\n    /// @param wallet The wallet whose settlement is being challenged\n    /// @param payment The payment candidate that challenges the null\n    function challengeByPayment(address wallet, NahmiiTypesLib.Payment payment)\n    public\n    onlyOperationalModeNormal\n    {\n        nullSettlementDispute.challengeByPayment(wallet, payment, msg.sender);\n    }\n\n    //\n    // Private functions\n    // -----------------------------------------------------------------------------------------------------------------\n    function _startChallenge(address wallet, int256 stageAmount, address currencyCt, uint256 currencyId,\n        bool balanceReward)\n    private\n    {\n        // Require that current block number is beyond the earliest settlement challenge block number\n        require(block.number >= configuration.earliestSettlementBlockNumber());\n\n        // Require that wallet has no overlap with active proposal\n        require(\n            hasProposalExpired(\n                wallet, currencyCt, currencyId\n            )\n        );\n\n        // Create proposal\n        _addProposal(wallet, stageAmount, currencyCt, currencyId, balanceReward);\n\n        // Add wallet to store of challenge wallets\n        _addToChallengeWallets(wallet);\n    }\n\n    function _addProposal(address wallet, int256 stageAmount, address currencyCt, uint256 currencyId,\n        bool balanceReward)\n    private\n    {\n        // Require that stage amount is positive\n        require(stageAmount.isPositiveInt256());\n\n        // Get the last logged active balance amount and block number\n        (int256 activeBalanceAmount, uint256 activeBalanceBlockNumber) = _activeBalanceLogEntry(\n            wallet, currencyCt, currencyId\n        );\n\n        // Require that balance amount is not less than stage amount\n        require(activeBalanceAmount >= stageAmount);\n\n        // Create proposal\n        proposals.length++;\n\n        // Populate proposal\n        proposals[proposals.length - 1].wallet = wallet;\n        proposals[proposals.length - 1].nonce = ++nonce;\n        proposals[proposals.length - 1].blockNumber = activeBalanceBlockNumber;\n        proposals[proposals.length - 1].expirationTime = block.timestamp.add(configuration.settlementChallengeTimeout());\n        proposals[proposals.length - 1].status = SettlementTypesLib.Status.Qualified;\n        proposals[proposals.length - 1].currency = MonetaryTypesLib.Currency(currencyCt, currencyId);\n        proposals[proposals.length - 1].stageAmount = stageAmount;\n        proposals[proposals.length - 1].targetBalanceAmount = activeBalanceAmount.sub(stageAmount);\n        proposals[proposals.length - 1].balanceReward = balanceReward;\n\n        // Store proposal index\n        proposalIndexByWalletCurrency[wallet][currencyCt][currencyId] = proposals.length;\n        proposalIndicesByWallet[wallet].push(proposals.length);\n    }\n\n    function _activeBalanceLogEntry(address wallet, address currencyCt, uint256 currencyId)\n    private\n    view\n    returns (int256 amount, uint256 blockNumber)\n    {\n        // Get last log record of deposited and settled balances\n        (int256 depositedAmount, uint256 depositedBlockNumber) = balanceTracker.lastFungibleRecord(\n            wallet, balanceTracker.depositedBalanceType(), currencyCt, currencyId\n        );\n        (int256 settledAmount, uint256 settledBlockNumber) = balanceTracker.lastFungibleRecord(\n            wallet, balanceTracker.settledBalanceType(), currencyCt, currencyId\n        );\n\n        // Set amount as the sum of deposited and settled\n        amount = depositedAmount.add(settledAmount);\n\n        // Set block number as the latest of deposited and settled\n        blockNumber = depositedBlockNumber > settledBlockNumber ? depositedBlockNumber : settledBlockNumber;\n    }\n\n    function _addToChallengeWallets(address wallet)\n    private\n    {\n        if (!challengeByWallets[wallet]) {\n            challengeByWallets[wallet] = true;\n            challengeWallets.push(wallet);\n        }\n    }\n\n    //\n    // Modifiers\n    // -----------------------------------------------------------------------------------------------------------------\n    modifier onlyNullSettlementDispute() {\n        require(msg.sender == address(nullSettlementDispute));\n        _;\n    }\n}\n",
    "sourcePath": "/opt/buildagent/work/855e104608380c36/contracts/NullSettlementChallenge.sol",
    "compiler": {
        "name": "solc",
        "version": "0.4.25+commit.59dbf8f1.Emscripten.clang"
    },
    "schemaVersion": "2.0.1",
    "updatedAt": "2019-01-31T11:28:29.746Z"
}