{
  "contractName": "NullSettlement",
  "abi": [
    {
      "constant": false,
      "inputs": [],
      "name": "triggerSelfDestruction",
      "outputs": [],
      "payable": false,
      "stateMutability": "nonpayable",
      "type": "function"
    },
    {
      "constant": true,
      "inputs": [],
      "name": "selfDestructionDisabled",
      "outputs": [
        {
          "name": "",
          "type": "bool"
        }
      ],
      "payable": false,
      "stateMutability": "view",
      "type": "function"
    },
    {
      "constant": true,
      "inputs": [],
      "name": "destructor",
      "outputs": [
        {
          "name": "",
          "type": "address"
        }
      ],
      "payable": false,
      "stateMutability": "view",
      "type": "function"
    },
    {
      "constant": true,
      "inputs": [],
      "name": "operator",
      "outputs": [
        {
          "name": "",
          "type": "address"
        }
      ],
      "payable": false,
      "stateMutability": "view",
      "type": "function"
    },
    {
      "constant": false,
      "inputs": [
        {
          "name": "newConfiguration",
          "type": "address"
        }
      ],
      "name": "setConfiguration",
      "outputs": [],
      "payable": false,
      "stateMutability": "nonpayable",
      "type": "function"
    },
    {
      "constant": false,
      "inputs": [],
      "name": "freezeCommunityVote",
      "outputs": [],
      "payable": false,
      "stateMutability": "nonpayable",
      "type": "function"
    },
    {
      "constant": true,
      "inputs": [],
      "name": "configuration",
      "outputs": [
        {
          "name": "",
          "type": "address"
        }
      ],
      "payable": false,
      "stateMutability": "view",
      "type": "function"
    },
    {
      "constant": false,
      "inputs": [],
      "name": "disableSelfDestruction",
      "outputs": [],
      "payable": false,
      "stateMutability": "nonpayable",
      "type": "function"
    },
    {
      "constant": true,
      "inputs": [],
      "name": "nullSettlementState",
      "outputs": [
        {
          "name": "",
          "type": "address"
        }
      ],
      "payable": false,
      "stateMutability": "view",
      "type": "function"
    },
    {
      "constant": true,
      "inputs": [],
      "name": "communityVoteFrozen",
      "outputs": [
        {
          "name": "",
          "type": "bool"
        }
      ],
      "payable": false,
      "stateMutability": "view",
      "type": "function"
    },
    {
      "constant": false,
      "inputs": [
        {
          "name": "newDeployer",
          "type": "address"
        }
      ],
      "name": "setDeployer",
      "outputs": [],
      "payable": false,
      "stateMutability": "nonpayable",
      "type": "function"
    },
    {
      "constant": false,
      "inputs": [
        {
          "name": "newOperator",
          "type": "address"
        }
      ],
      "name": "setOperator",
      "outputs": [],
      "payable": false,
      "stateMutability": "nonpayable",
      "type": "function"
    },
    {
      "constant": false,
      "inputs": [
        {
          "name": "newClientFund",
          "type": "address"
        }
      ],
      "name": "setClientFund",
      "outputs": [],
      "payable": false,
      "stateMutability": "nonpayable",
      "type": "function"
    },
    {
      "constant": true,
      "inputs": [],
      "name": "communityVote",
      "outputs": [
        {
          "name": "",
          "type": "address"
        }
      ],
      "payable": false,
      "stateMutability": "view",
      "type": "function"
    },
    {
      "constant": true,
      "inputs": [],
      "name": "deployer",
      "outputs": [
        {
          "name": "",
          "type": "address"
        }
      ],
      "payable": false,
      "stateMutability": "view",
      "type": "function"
    },
    {
      "constant": true,
      "inputs": [],
      "name": "clientFund",
      "outputs": [
        {
          "name": "",
          "type": "address"
        }
      ],
      "payable": false,
      "stateMutability": "view",
      "type": "function"
    },
    {
      "constant": false,
      "inputs": [
        {
          "name": "newCommunityVote",
          "type": "address"
        }
      ],
      "name": "setCommunityVote",
      "outputs": [],
      "payable": false,
      "stateMutability": "nonpayable",
      "type": "function"
    },
    {
      "constant": true,
      "inputs": [],
      "name": "nullSettlementChallengeState",
      "outputs": [
        {
          "name": "",
          "type": "address"
        }
      ],
      "payable": false,
      "stateMutability": "view",
      "type": "function"
    },
    {
      "inputs": [
        {
          "name": "deployer",
          "type": "address"
        }
      ],
      "payable": false,
      "stateMutability": "nonpayable",
      "type": "constructor"
    },
    {
      "anonymous": false,
      "inputs": [
        {
          "indexed": false,
          "name": "oldNullSettlementChallengeState",
          "type": "address"
        },
        {
          "indexed": false,
          "name": "newNullSettlementChallengeState",
          "type": "address"
        }
      ],
      "name": "SetNullSettlementChallengeStateEvent",
      "type": "event"
    },
    {
      "anonymous": false,
      "inputs": [
        {
          "indexed": false,
          "name": "oldNullSettlementState",
          "type": "address"
        },
        {
          "indexed": false,
          "name": "newNullSettlementState",
          "type": "address"
        }
      ],
      "name": "SetNullSettlementStateEvent",
      "type": "event"
    },
    {
      "anonymous": false,
      "inputs": [
        {
          "indexed": false,
          "name": "wallet",
          "type": "address"
        },
        {
          "indexed": false,
          "name": "currencyCt",
          "type": "address"
        },
        {
          "indexed": false,
          "name": "currencyId",
          "type": "uint256"
        }
      ],
      "name": "SettleNullEvent",
      "type": "event"
    },
    {
      "anonymous": false,
      "inputs": [
        {
          "indexed": false,
          "name": "proxy",
          "type": "address"
        },
        {
          "indexed": false,
          "name": "wallet",
          "type": "address"
        },
        {
          "indexed": false,
          "name": "currencyCt",
          "type": "address"
        },
        {
          "indexed": false,
          "name": "currencyId",
          "type": "uint256"
        }
      ],
      "name": "SettleNullByProxyEvent",
      "type": "event"
    },
    {
      "anonymous": false,
      "inputs": [
        {
          "indexed": false,
          "name": "oldCommunityVote",
          "type": "address"
        },
        {
          "indexed": false,
          "name": "newCommunityVote",
          "type": "address"
        }
      ],
      "name": "SetCommunityVoteEvent",
      "type": "event"
    },
    {
      "anonymous": false,
      "inputs": [],
      "name": "FreezeCommunityVoteEvent",
      "type": "event"
    },
    {
      "anonymous": false,
      "inputs": [
        {
          "indexed": false,
          "name": "oldClientFund",
          "type": "address"
        },
        {
          "indexed": false,
          "name": "newClientFund",
          "type": "address"
        }
      ],
      "name": "SetClientFundEvent",
      "type": "event"
    },
    {
      "anonymous": false,
      "inputs": [
        {
          "indexed": false,
          "name": "oldConfiguration",
          "type": "address"
        },
        {
          "indexed": false,
          "name": "newConfiguration",
          "type": "address"
        }
      ],
      "name": "SetConfigurationEvent",
      "type": "event"
    },
    {
      "anonymous": false,
      "inputs": [
        {
          "indexed": false,
          "name": "oldDeployer",
          "type": "address"
        },
        {
          "indexed": false,
          "name": "newDeployer",
          "type": "address"
        }
      ],
      "name": "SetDeployerEvent",
      "type": "event"
    },
    {
      "anonymous": false,
      "inputs": [
        {
          "indexed": false,
          "name": "oldOperator",
          "type": "address"
        },
        {
          "indexed": false,
          "name": "newOperator",
          "type": "address"
        }
      ],
      "name": "SetOperatorEvent",
      "type": "event"
    },
    {
      "anonymous": false,
      "inputs": [
        {
          "indexed": false,
          "name": "wallet",
          "type": "address"
        }
      ],
      "name": "SelfDestructionDisabledEvent",
      "type": "event"
    },
    {
      "anonymous": false,
      "inputs": [
        {
          "indexed": false,
          "name": "wallet",
          "type": "address"
        }
      ],
      "name": "TriggerSelfDestructionEvent",
      "type": "event"
    },
    {
      "constant": false,
      "inputs": [
        {
          "name": "newNullSettlementChallengeState",
          "type": "address"
        }
      ],
      "name": "setNullSettlementChallengeState",
      "outputs": [],
      "payable": false,
      "stateMutability": "nonpayable",
      "type": "function"
    },
    {
      "constant": false,
      "inputs": [
        {
          "name": "newNullSettlementState",
          "type": "address"
        }
      ],
      "name": "setNullSettlementState",
      "outputs": [],
      "payable": false,
      "stateMutability": "nonpayable",
      "type": "function"
    },
    {
      "constant": false,
      "inputs": [
        {
          "name": "currencyCt",
          "type": "address"
        },
        {
          "name": "currencyId",
          "type": "uint256"
        }
      ],
      "name": "settleNull",
      "outputs": [],
      "payable": false,
      "stateMutability": "nonpayable",
      "type": "function"
    },
    {
      "constant": false,
      "inputs": [
        {
          "name": "wallet",
          "type": "address"
        },
        {
          "name": "currencyCt",
          "type": "address"
        },
        {
          "name": "currencyId",
          "type": "uint256"
        }
      ],
      "name": "settleNullByProxy",
      "outputs": [],
      "payable": false,
      "stateMutability": "nonpayable",
      "type": "function"
    }
  ],
  "bytecode": "0x608060405234801561001057600080fd5b5060405160208062001581833981018060405261003091908101906100ae565b8080600160a060020a038116151561004757600080fd5b600160a060020a03811630141561005d57600080fd5b506000805461010060a860020a031916610100600160a060020a039390931692830217905560018054600160a060020a0319169091179055506100e0565b60006100a782516100d4565b9392505050565b6000602082840312156100c057600080fd5b60006100cc848461009b565b949350505050565b600160a060020a031690565b61149180620000f06000396000f30060806040526004361061010e5763ffffffff60e060020a6000350416632738a11281146101135780632f013a001461012a5780634476d23b14610155578063570ca73514610177578063627f09c31461018c578063670732a7146101ac5780636c70bee9146101c15780636ccb43c8146101e357806370327ea11461020357806379bf6b36146102185780638e9d6cbd1461022d5780639621473514610242578063b3ab15fb14610262578063b71ded2f14610282578063bf24e7d0146102a2578063c0ed469a146102b7578063cb672aaf146102d7578063d5f39488146102f7578063da5a3b701461030c578063e754476f1461032c578063e86ab8f614610341578063fa7424f214610361575b600080fd5b34801561011f57600080fd5b50610128610376565b005b34801561013657600080fd5b5061013f6103dc565b60405161014c91906113e0565b60405180910390f35b34801561016157600080fd5b5061016a6103e5565b60405161014c91906112b8565b34801561018357600080fd5b5061016a6103f9565b34801561019857600080fd5b506101286101a7366004611200565b610408565b3480156101b857600080fd5b506101286104b0565b3480156101cd57600080fd5b506101d6610504565b60405161014c91906113ee565b3480156101ef57600080fd5b506101286101fe366004611200565b610513565b34801561020f57600080fd5b506101286105a4565b34801561022457600080fd5b506101d6610607565b34801561023957600080fd5b5061013f610616565b34801561024e57600080fd5b5061012861025d366004611135565b610626565b34801561026e57600080fd5b5061012861027d366004611135565b6106e4565b34801561028e57600080fd5b5061012861029d366004611200565b61078e565b3480156102ae57600080fd5b506101d6610826565b3480156102c357600080fd5b506101286102d23660046111a8565b610835565b3480156102e357600080fd5b506101286102f236600461115b565b61089b565b34801561030357600080fd5b5061016a61090a565b34801561031857600080fd5b50610128610327366004611200565b61091e565b34801561033857600080fd5b506101d66109a2565b34801561034d57600080fd5b5061012861035c366004611200565b6109b1565b34801561036d57600080fd5b506101d6610a60565b3361037f6103e5565b600160a060020a03161461039257600080fd5b60005460ff16156103a257600080fd5b7f787a5d936e74f4b564b9153575886059829c78cd9927b1be5e0d976b317ef736336040516103d191906112b8565b60405180910390a133ff5b60005460ff1681565b6000546101009004600160a060020a031690565b600154600160a060020a031681565b6000610412610a6f565b151561041d57600080fd5b81600160a060020a038116151561043357600080fd5b6002548390600160a060020a0390811690821681146104a95760028054600160a060020a03878116600160a060020a0319831617909255604051911694507f634f61bf00e14adedce330c80c2823e16e184f189ebe853e1ddecc4a268477ff906104a090869088906113fc565b60405180910390a15b5050505050565b6104b8610a6f565b15156104c357600080fd5b6004805460a060020a60ff02191660a060020a1790556040517fc1668d45f18667fb6eadfbcacfd5cdcc7dd4ecdfc9b0ab8786cfdbad86bb83d890600090a1565b600254600160a060020a031681565b600061051d610a6f565b151561052857600080fd5b81600160a060020a038116151561053e57600080fd5b60058054600160a060020a03858116600160a060020a03198316179283905560405191811694507ff21c127205310467822e10c64b2d9ffae588e019194d6af71f2bdddc0b7ef5269261059792869291909116906113fc565b60405180910390a1505050565b336105ad6103e5565b600160a060020a0316146105c057600080fd5b6000805460ff191660011790556040517fd5a2a04a775c741c2ca0dc46ea7ce4835190e1aaf1ca018def0e82568ec33616906105fd9033906112b8565b60405180910390a1565b600654600160a060020a031681565b60045460a060020a900460ff1681565b6000610630610a6f565b151561063b57600080fd5b81600160a060020a038116151561065157600080fd5b600160a060020a03811630141561066757600080fd5b600054600160a060020a0384811661010090920416146106df5760008054600160a060020a0385811661010090810261010060a860020a0319841617909355604051929091041692507f977e5fa58e458501775e0008d275006294c5249e3c08d1d0e3a9f3acad14f6e49061059790849086906112cc565b505050565b60006106ee610a85565b15156106f957600080fd5b81600160a060020a038116151561070f57600080fd5b600160a060020a03811630141561072557600080fd5b600154600160a060020a038481169116146106df5760018054600160a060020a03858116600160a060020a0319831617909255604051911692507f9f611b789425d0d5b90b920f1b2852907dd865c80074a30b1629aaa041d1812c9061059790849086906112cc565b6000610798610a6f565b15156107a357600080fd5b81600160a060020a03811615156107b957600080fd5b6003548390600160a060020a0390811690821681146104a95760038054600160a060020a03878116600160a060020a0319831617909255604051911694507f4d96d2a04c886b313bd1e28be6324ed4c8867b3203e512756722f8be0195e16d906104a090869088906113fc565b600454600160a060020a031681565b61085c33604080519081016040528085600160a060020a0316815260200184815250610a96565b7f6574166dc846aecab63a391ea731ee7c38e8135ea68ac3ae30841da74a85615b33838360405161088f93929190611325565b60405180910390a15050565b6108a3610a85565b15156108ae57600080fd5b6108d583604080519081016040528085600160a060020a0316815260200184815250610a96565b7f47db2eb1eec2571e1eca0e41d75ddc29f72e4860f69e8b63ecbb73e70faf309a3384848460405161059794939291906112e7565b6000546101009004600160a060020a031681565b6000610928610a6f565b151561093357600080fd5b81600160a060020a038116151561094957600080fd5b60068054600160a060020a03858116600160a060020a03198316179283905560405191811694507f7983934b0c7a4c64fbf3454ed2053b3bc71c8fd637308a7d2ee8eb51cbc68e359261059792869291909116906113fc565b600354600160a060020a031681565b60006109bb610a6f565b15156109c657600080fd5b81600160a060020a03811615156109dc57600080fd5b6004548390600160a060020a0390811690821681146104a95760045460a060020a900460ff1615610a0c57600080fd5b60048054600160a060020a03878116600160a060020a0319831617909255604051911694507f624c4d4225a45f5bf8a9755adba1ef9be3464a9970b05a371fb6cca0c0caf204906104a090869088906113fc565b600554600160a060020a031681565b6000546101009004600160a060020a0316331490565b600154600160a060020a0316331490565b60055460405160e060020a635482c735028152600091600160a060020a031690635482c73590610acc908690869060040161139d565b602060405180830381600087803b158015610ae657600080fd5b505af1158015610afa573d6000803e3d6000fd5b505050506040513d601f19601f82011682018060405250610b1e91908101906111e2565b1515610b2957600080fd5b60055460405160e060020a63b6e2fc33028152600160a060020a039091169063b6e2fc3390610b5e908690869060040161139d565b602060405180830381600087803b158015610b7857600080fd5b505af1158015610b8c573d6000803e3d6000fd5b505050506040513d601f19601f82011682018060405250610bb0919081019061121e565b6001811115610bbb57fe5b15610bc557600080fd5b60055460405160e060020a632ee2ed25028152600160a060020a0390911690632ee2ed2590610bfa908690869060040161139d565b602060405180830381600087803b158015610c1457600080fd5b505af1158015610c28573d6000803e3d6000fd5b505050506040513d601f19601f82011682018060405250610c4c919081019061123c565b9050600260009054906101000a9004600160a060020a0316600160a060020a031663f71e860f6040518163ffffffff1660e060020a028152600401602060405180830381600087803b158015610ca157600080fd5b505af1158015610cb5573d6000803e3d6000fd5b505050506040513d601f19601f82011682018060405250610cd991908101906111e2565b8015610d5f5750600480546040805160e160020a634ca7103b0281529051600160a060020a039092169263994e20769282820192602092908290030181600087803b158015610d2757600080fd5b505af1158015610d3b573d6000803e3d6000fd5b505050506040513d601f19601f82011682018060405250610d5f91908101906111e2565b80610df35750600660009054906101000a9004600160a060020a0316600160a060020a031663626623676040518163ffffffff1660e060020a028152600401602060405180830381600087803b158015610db857600080fd5b505af1158015610dcc573d6000803e3d6000fd5b505050506040513d601f19601f82011682018060405250610df0919081019061123c565b81105b1515610dfe57600080fd5b60065460405160e060020a633858654b028152600160a060020a0390911690633858654b90610e33908690869060040161139d565b602060405180830381600087803b158015610e4d57600080fd5b505af1158015610e61573d6000803e3d6000fd5b505050506040513d601f19601f82011682018060405250610e85919081019061123c565b8111610e9057600080fd5b60065460405160e360020a6302847747028152600160a060020a0390911690631423ba3890610ec7908690869086906004016113b8565b600060405180830381600087803b158015610ee157600080fd5b505af1158015610ef5573d6000803e3d6000fd5b505060035460055460405160e160020a633007230f028152600160a060020a03928316945063ad468df9935087929091169063600e461e90610f3d908490899060040161139d565b602060405180830381600087803b158015610f5757600080fd5b505af1158015610f6b573d6000803e3d6000fd5b505050506040513d601f19601f82011682018060405250610f8f919081019061123c565b8551602087015160405160e060020a63ffffffff8716028152610fb8949392919060040161134d565b600060405180830381600087803b158015610fd257600080fd5b505af1158015610fe6573d6000803e3d6000fd5b50505050600660009054906101000a9004600160a060020a0316600160a060020a031663626623676040518163ffffffff1660e060020a028152600401602060405180830381600087803b15801561103d57600080fd5b505af1158015611051573d6000803e3d6000fd5b505050506040513d601f19601f82011682018060405250611075919081019061123c565b8111156106df5760065460405160e760020a6301e0d08d028152600160a060020a039091169063f0684680906110af908490600401611417565b600060405180830381600087803b1580156110c957600080fd5b505af11580156110dd573d6000803e3d6000fd5b50505050505050565b60006110f28235611425565b9392505050565b60006110f28251611431565b60006110f28235611439565b60006110f28251611444565b60006110f28251611436565b60006110f28235611436565b60006020828403121561114757600080fd5b600061115384846110e6565b949350505050565b60008060006060848603121561117057600080fd5b600061117c86866110e6565b935050602061118d868287016110e6565b925050604061119e86828701611129565b9150509250925092565b600080604083850312156111bb57600080fd5b60006111c785856110e6565b92505060206111d885828601611129565b9150509250929050565b6000602082840312156111f457600080fd5b600061115384846110f9565b60006020828403121561121257600080fd5b60006111538484611105565b60006020828403121561123057600080fd5b60006111538484611111565b60006020828403121561124e57600080fd5b6000611153848461111d565b61126381611425565b82525050565b61126381611431565b61126381611439565b61126381611436565b6000815260200190565b8051604083019061129f848261125a565b5060208201516112b2602085018261127b565b50505050565b602081016112c6828461125a565b92915050565b604081016112da828561125a565b6110f2602083018461125a565b608081016112f5828761125a565b611302602083018661125a565b61130f604083018561125a565b61131c606083018461127b565b95945050505050565b60608101611333828661125a565b611340602083018561125a565b611153604083018461127b565b60a0810161135b828761125a565b611368602083018661127b565b611375604083018561125a565b611382606083018461127b565b818103608083015261139381611284565b9695505050505050565b606081016113ab828561125a565b6110f2602083018461128e565b608081016113c6828661125a565b6113d3602083018561128e565b611153606083018461127b565b602081016112c68284611269565b602081016112c68284611272565b6040810161140a8285611272565b6110f26020830184611272565b602081016112c6828461127b565b600160a060020a031690565b151590565b90565b60006112c682611425565b60006002821061145357600080fd5b50905600a265627a7a723058202f7c58688d90510c7cd6fdd459f40296f94cfe28529ad099926e5f6f496f1b896c6578706572696d656e74616cf50037",
  "source": "/*\n * Hubii Nahmii\n *\n * Compliant with the Hubii Nahmii specification v0.12.\n *\n * Copyright (C) 2017-2018 Hubii AS\n */\n\npragma solidity ^0.4.25;\npragma experimental ABIEncoderV2;\n\nimport {Ownable} from \"./Ownable.sol\";\nimport {Configurable} from \"./Configurable.sol\";\nimport {ClientFundable} from \"./ClientFundable.sol\";\nimport {CommunityVotable} from \"./CommunityVotable.sol\";\nimport {RevenueFund} from \"./RevenueFund.sol\";\nimport {NullSettlementChallengeState} from \"./NullSettlementChallengeState.sol\";\nimport {NullSettlementState} from \"./NullSettlementState.sol\";\nimport {Beneficiary} from \"./Beneficiary.sol\";\nimport {SafeMathIntLib} from \"./SafeMathIntLib.sol\";\nimport {SafeMathUintLib} from \"./SafeMathUintLib.sol\";\nimport {MonetaryTypesLib} from \"./MonetaryTypesLib.sol\";\nimport {SettlementChallengeTypesLib} from \"./SettlementChallengeTypesLib.sol\";\n\n/**\n * @title NullSettlement\n * @notice Where null settlement are finalized\n */\ncontract NullSettlement is Ownable, Configurable, ClientFundable, CommunityVotable {\n    using SafeMathIntLib for int256;\n    using SafeMathUintLib for uint256;\n\n    //\n    // Variables\n    // -----------------------------------------------------------------------------------------------------------------\n    NullSettlementChallengeState public nullSettlementChallengeState;\n    NullSettlementState public nullSettlementState;\n\n    //\n    // Events\n    // -----------------------------------------------------------------------------------------------------------------\n    event SetNullSettlementChallengeStateEvent(NullSettlementChallengeState oldNullSettlementChallengeState,\n        NullSettlementChallengeState newNullSettlementChallengeState);\n    event SetNullSettlementStateEvent(NullSettlementState oldNullSettlementState,\n        NullSettlementState newNullSettlementState);\n    event SettleNullEvent(address wallet, address currencyCt, uint256 currencyId);\n    event SettleNullByProxyEvent(address proxy, address wallet, address currencyCt,\n        uint256 currencyId);\n\n    //\n    // Constructor\n    // -----------------------------------------------------------------------------------------------------------------\n    constructor(address deployer) Ownable(deployer) public {\n    }\n\n    //\n    // Functions\n    // -----------------------------------------------------------------------------------------------------------------\n    /// @notice Set the null settlement challenge state contract\n    /// @param newNullSettlementChallengeState The (address of) NullSettlementChallengeState contract instance\n    function setNullSettlementChallengeState(NullSettlementChallengeState newNullSettlementChallengeState)\n    public\n    onlyDeployer\n    notNullAddress(newNullSettlementChallengeState)\n    {\n        NullSettlementChallengeState oldNullSettlementChallengeState = nullSettlementChallengeState;\n        nullSettlementChallengeState = newNullSettlementChallengeState;\n        emit SetNullSettlementChallengeStateEvent(oldNullSettlementChallengeState, nullSettlementChallengeState);\n    }\n\n    /// @notice Set the null settlement state contract\n    /// @param newNullSettlementState The (address of) NullSettlementState contract instance\n    function setNullSettlementState(NullSettlementState newNullSettlementState)\n    public\n    onlyDeployer\n    notNullAddress(newNullSettlementState)\n    {\n        NullSettlementState oldNullSettlementState = nullSettlementState;\n        nullSettlementState = newNullSettlementState;\n        emit SetNullSettlementStateEvent(oldNullSettlementState, nullSettlementState);\n    }\n\n    /// @notice Settle null\n    /// @param currencyCt The address of the concerned currency contract (address(0) == ETH)\n    /// @param currencyId The ID of the concerned currency (0 for ETH and ERC20)\n    function settleNull(address currencyCt, uint256 currencyId)\n    public\n    {\n        // Settle null\n        _settleNull(msg.sender, MonetaryTypesLib.Currency(currencyCt, currencyId));\n\n        // Emit event\n        emit SettleNullEvent(msg.sender, currencyCt, currencyId);\n    }\n\n    /// @notice Settle null by proxy\n    /// @param wallet The address of the concerned wallet\n    /// @param currencyCt The address of the concerned currency contract (address(0) == ETH)\n    /// @param currencyId The ID of the concerned currency (0 for ETH and ERC20)\n    function settleNullByProxy(address wallet, address currencyCt, uint256 currencyId)\n    public\n    onlyOperator\n    {\n        // Settle null of wallet\n        _settleNull(wallet, MonetaryTypesLib.Currency(currencyCt, currencyId));\n\n        // Emit event\n        emit SettleNullByProxyEvent(msg.sender, wallet, currencyCt, currencyId);\n    }\n\n    //\n    // Private functions\n    // -----------------------------------------------------------------------------------------------------------------\n    function _settleNull(address wallet, MonetaryTypesLib.Currency currency)\n    private\n    {\n        // Require that proposal has expired\n        require(nullSettlementChallengeState.hasProposalExpired(wallet, currency));\n\n        // Require that driip settlement challenge qualified\n        require(SettlementChallengeTypesLib.Status.Qualified == nullSettlementChallengeState.proposalStatus(\n            wallet, currency\n        ));\n\n        // Get proposal nonce\n        uint256 nonce = nullSettlementChallengeState.proposalNonce(wallet, currency);\n\n        // Require that operational mode is normal and data is available, or that nonce is\n        // smaller than max null nonce\n        require((configuration.isOperationalModeNormal() && communityVote.isDataAvailable())\n            || (nonce < nullSettlementState.maxNullNonce()));\n\n        // If wallet has previously settled balance of the concerned currency with higher\n        // null settlement nonce, then don't settle again\n        require(nonce > nullSettlementState.maxNonceByWalletAndCurrency(wallet, currency));\n\n        // Update settled nonce of wallet and currency\n        nullSettlementState.setMaxNonceByWalletAndCurrency(wallet, currency, nonce);\n\n        // Stage the proposed amount\n        clientFund.stage(\n            wallet,\n            nullSettlementChallengeState.proposalStageAmount(\n                wallet, currency\n            ),\n            currency.ct, currency.id, \"\"\n        );\n\n        // If payment nonce is beyond max null settlement nonce then update max null nonce\n        if (nonce > nullSettlementState.maxNullNonce())\n            nullSettlementState.setMaxNullNonce(nonce);\n    }\n}",
  "sourcePath": "/Users/kata/dev/hubii/striim-contracts/contracts/NullSettlement.sol",
  "compiler": {
    "name": "solc",
    "version": "0.4.25+commit.59dbf8f1.Emscripten.clang"
  },
  "schemaVersion": "2.0.2",
  "updatedAt": "2019-03-19T06:21:05.381Z"
}