{
  "contractName": "NullSettlementChallenge",
  "abi": [
    {
      "constant": true,
      "inputs": [
        {
          "name": "",
          "type": "uint256"
        }
      ],
      "name": "proposals",
      "outputs": [
        {
          "name": "wallet",
          "type": "address"
        },
        {
          "name": "nonce",
          "type": "uint256"
        },
        {
          "name": "blockNumber",
          "type": "uint256"
        },
        {
          "name": "expirationTime",
          "type": "uint256"
        },
        {
          "name": "status",
          "type": "uint8"
        },
        {
          "name": "currencyCt",
          "type": "address"
        },
        {
          "name": "currencyId",
          "type": "uint256"
        },
        {
          "name": "stageAmount",
          "type": "int256"
        },
        {
          "name": "targetBalanceAmount",
          "type": "int256"
        },
        {
          "name": "driipHash",
          "type": "bytes32"
        },
        {
          "name": "driipType",
          "type": "uint8"
        },
        {
          "name": "balanceReward",
          "type": "bool"
        }
      ],
      "payable": false,
      "stateMutability": "view",
      "type": "function"
    },
    {
      "constant": true,
      "inputs": [],
      "name": "balanceTracker",
      "outputs": [
        {
          "name": "",
          "type": "address"
        }
      ],
      "payable": false,
      "stateMutability": "view",
      "type": "function"
    },
    {
      "constant": false,
      "inputs": [],
      "name": "triggerSelfDestruction",
      "outputs": [],
      "payable": false,
      "stateMutability": "nonpayable",
      "type": "function"
    },
    {
      "constant": true,
      "inputs": [],
      "name": "selfDestructionDisabled",
      "outputs": [
        {
          "name": "",
          "type": "bool"
        }
      ],
      "payable": false,
      "stateMutability": "view",
      "type": "function"
    },
    {
      "constant": true,
      "inputs": [],
      "name": "balanceTrackerFrozen",
      "outputs": [
        {
          "name": "",
          "type": "bool"
        }
      ],
      "payable": false,
      "stateMutability": "view",
      "type": "function"
    },
    {
      "constant": true,
      "inputs": [],
      "name": "destructor",
      "outputs": [
        {
          "name": "",
          "type": "address"
        }
      ],
      "payable": false,
      "stateMutability": "view",
      "type": "function"
    },
    {
      "constant": true,
      "inputs": [],
      "name": "operator",
      "outputs": [
        {
          "name": "",
          "type": "address"
        }
      ],
      "payable": false,
      "stateMutability": "view",
      "type": "function"
    },
    {
      "constant": false,
      "inputs": [
        {
          "name": "newBalanceTracker",
          "type": "address"
        }
      ],
      "name": "setBalanceTracker",
      "outputs": [],
      "payable": false,
      "stateMutability": "nonpayable",
      "type": "function"
    },
    {
      "constant": true,
      "inputs": [],
      "name": "nullSettlementDispute",
      "outputs": [
        {
          "name": "",
          "type": "address"
        }
      ],
      "payable": false,
      "stateMutability": "view",
      "type": "function"
    },
    {
      "constant": false,
      "inputs": [
        {
          "name": "newConfiguration",
          "type": "address"
        }
      ],
      "name": "setConfiguration",
      "outputs": [],
      "payable": false,
      "stateMutability": "nonpayable",
      "type": "function"
    },
    {
      "constant": true,
      "inputs": [
        {
          "name": "",
          "type": "uint256"
        }
      ],
      "name": "candidateHashes",
      "outputs": [
        {
          "name": "",
          "type": "bytes32"
        }
      ],
      "payable": false,
      "stateMutability": "view",
      "type": "function"
    },
    {
      "constant": true,
      "inputs": [
        {
          "name": "",
          "type": "address"
        },
        {
          "name": "",
          "type": "address"
        },
        {
          "name": "",
          "type": "uint256"
        }
      ],
      "name": "proposalIndexByWalletCurrency",
      "outputs": [
        {
          "name": "",
          "type": "uint256"
        }
      ],
      "payable": false,
      "stateMutability": "view",
      "type": "function"
    },
    {
      "constant": true,
      "inputs": [],
      "name": "configuration",
      "outputs": [
        {
          "name": "",
          "type": "address"
        }
      ],
      "payable": false,
      "stateMutability": "view",
      "type": "function"
    },
    {
      "constant": false,
      "inputs": [],
      "name": "disableSelfDestruction",
      "outputs": [],
      "payable": false,
      "stateMutability": "nonpayable",
      "type": "function"
    },
    {
      "constant": true,
      "inputs": [
        {
          "name": "",
          "type": "uint256"
        }
      ],
      "name": "challengeWallets",
      "outputs": [
        {
          "name": "",
          "type": "address"
        }
      ],
      "payable": false,
      "stateMutability": "view",
      "type": "function"
    },
    {
      "constant": true,
      "inputs": [
        {
          "name": "",
          "type": "address"
        },
        {
          "name": "",
          "type": "uint256"
        }
      ],
      "name": "proposalIndicesByWallet",
      "outputs": [
        {
          "name": "",
          "type": "uint256"
        }
      ],
      "payable": false,
      "stateMutability": "view",
      "type": "function"
    },
    {
      "constant": false,
      "inputs": [
        {
          "name": "newDeployer",
          "type": "address"
        }
      ],
      "name": "setDeployer",
      "outputs": [],
      "payable": false,
      "stateMutability": "nonpayable",
      "type": "function"
    },
    {
      "constant": true,
      "inputs": [],
      "name": "nonce",
      "outputs": [
        {
          "name": "",
          "type": "uint256"
        }
      ],
      "payable": false,
      "stateMutability": "view",
      "type": "function"
    },
    {
      "constant": false,
      "inputs": [
        {
          "name": "newOperator",
          "type": "address"
        }
      ],
      "name": "setOperator",
      "outputs": [],
      "payable": false,
      "stateMutability": "nonpayable",
      "type": "function"
    },
    {
      "constant": false,
      "inputs": [],
      "name": "freezeBalanceTracker",
      "outputs": [],
      "payable": false,
      "stateMutability": "nonpayable",
      "type": "function"
    },
    {
      "constant": true,
      "inputs": [
        {
          "name": "",
          "type": "address"
        },
        {
          "name": "",
          "type": "address"
        },
        {
          "name": "",
          "type": "uint256"
        }
      ],
      "name": "disqualificationIndexByWalletCurrency",
      "outputs": [
        {
          "name": "",
          "type": "uint256"
        }
      ],
      "payable": false,
      "stateMutability": "view",
      "type": "function"
    },
    {
      "constant": true,
      "inputs": [
        {
          "name": "",
          "type": "uint256"
        }
      ],
      "name": "lockedWallets",
      "outputs": [
        {
          "name": "",
          "type": "address"
        }
      ],
      "payable": false,
      "stateMutability": "view",
      "type": "function"
    },
    {
      "constant": true,
      "inputs": [],
      "name": "deployer",
      "outputs": [
        {
          "name": "",
          "type": "address"
        }
      ],
      "payable": false,
      "stateMutability": "view",
      "type": "function"
    },
    {
      "constant": true,
      "inputs": [
        {
          "name": "",
          "type": "uint256"
        }
      ],
      "name": "disqualifications",
      "outputs": [
        {
          "name": "wallet",
          "type": "address"
        },
        {
          "name": "nonce",
          "type": "uint256"
        },
        {
          "name": "currencyCt",
          "type": "address"
        },
        {
          "name": "currencyId",
          "type": "uint256"
        },
        {
          "name": "candidateHash",
          "type": "bytes32"
        },
        {
          "name": "candidateType",
          "type": "uint8"
        },
        {
          "name": "challenger",
          "type": "address"
        }
      ],
      "payable": false,
      "stateMutability": "view",
      "type": "function"
    },
    {
      "constant": true,
      "inputs": [
        {
          "name": "",
          "type": "address"
        }
      ],
      "name": "lockedByWallet",
      "outputs": [
        {
          "name": "",
          "type": "bool"
        }
      ],
      "payable": false,
      "stateMutability": "view",
      "type": "function"
    },
    {
      "constant": true,
      "inputs": [
        {
          "name": "",
          "type": "address"
        }
      ],
      "name": "unlockTimeByWallet",
      "outputs": [
        {
          "name": "",
          "type": "uint256"
        }
      ],
      "payable": false,
      "stateMutability": "view",
      "type": "function"
    },
    {
      "inputs": [
        {
          "name": "deployer",
          "type": "address"
        }
      ],
      "payable": false,
      "stateMutability": "nonpayable",
      "type": "constructor"
    },
    {
      "anonymous": false,
      "inputs": [
        {
          "indexed": false,
          "name": "oldNullSettlementDispute",
          "type": "address"
        },
        {
          "indexed": false,
          "name": "newNullSettlementDispute",
          "type": "address"
        }
      ],
      "name": "SetNullSettlementDisputeEvent",
      "type": "event"
    },
    {
      "anonymous": false,
      "inputs": [
        {
          "indexed": false,
          "name": "wallet",
          "type": "address"
        },
        {
          "indexed": false,
          "name": "amount",
          "type": "int256"
        },
        {
          "indexed": false,
          "name": "stageCurrencyCt",
          "type": "address"
        },
        {
          "indexed": false,
          "name": "stageCurrencyId",
          "type": "uint256"
        }
      ],
      "name": "StartChallengeEvent",
      "type": "event"
    },
    {
      "anonymous": false,
      "inputs": [
        {
          "indexed": false,
          "name": "proxy",
          "type": "address"
        },
        {
          "indexed": false,
          "name": "wallet",
          "type": "address"
        },
        {
          "indexed": false,
          "name": "amount",
          "type": "int256"
        },
        {
          "indexed": false,
          "name": "stageCurrencyCt",
          "type": "address"
        },
        {
          "indexed": false,
          "name": "stageCurrencyId",
          "type": "uint256"
        }
      ],
      "name": "StartChallengeByProxyEvent",
      "type": "event"
    },
    {
      "anonymous": false,
      "inputs": [
        {
          "indexed": false,
          "name": "oldBalanceTracker",
          "type": "address"
        },
        {
          "indexed": false,
          "name": "newBalanceTracker",
          "type": "address"
        }
      ],
      "name": "SetBalanceTrackerEvent",
      "type": "event"
    },
    {
      "anonymous": false,
      "inputs": [],
      "name": "FreezeBalanceTrackerEvent",
      "type": "event"
    },
    {
      "anonymous": false,
      "inputs": [
        {
          "indexed": false,
          "name": "oldConfiguration",
          "type": "address"
        },
        {
          "indexed": false,
          "name": "newConfiguration",
          "type": "address"
        }
      ],
      "name": "SetConfigurationEvent",
      "type": "event"
    },
    {
      "anonymous": false,
      "inputs": [
        {
          "indexed": false,
          "name": "oldDeployer",
          "type": "address"
        },
        {
          "indexed": false,
          "name": "newDeployer",
          "type": "address"
        }
      ],
      "name": "SetDeployerEvent",
      "type": "event"
    },
    {
      "anonymous": false,
      "inputs": [
        {
          "indexed": false,
          "name": "oldOperator",
          "type": "address"
        },
        {
          "indexed": false,
          "name": "newOperator",
          "type": "address"
        }
      ],
      "name": "SetOperatorEvent",
      "type": "event"
    },
    {
      "anonymous": false,
      "inputs": [
        {
          "indexed": false,
          "name": "wallet",
          "type": "address"
        }
      ],
      "name": "SelfDestructionDisabledEvent",
      "type": "event"
    },
    {
      "anonymous": false,
      "inputs": [
        {
          "indexed": false,
          "name": "wallet",
          "type": "address"
        }
      ],
      "name": "TriggerSelfDestructionEvent",
      "type": "event"
    },
    {
      "constant": false,
      "inputs": [
        {
          "name": "newNullSettlementDispute",
          "type": "address"
        }
      ],
      "name": "setNullSettlementDispute",
      "outputs": [],
      "payable": false,
      "stateMutability": "nonpayable",
      "type": "function"
    },
    {
      "constant": true,
      "inputs": [],
      "name": "challengeWalletsCount",
      "outputs": [
        {
          "name": "",
          "type": "uint256"
        }
      ],
      "payable": false,
      "stateMutability": "view",
      "type": "function"
    },
    {
      "constant": true,
      "inputs": [],
      "name": "lockedWalletsCount",
      "outputs": [
        {
          "name": "",
          "type": "uint256"
        }
      ],
      "payable": false,
      "stateMutability": "view",
      "type": "function"
    },
    {
      "constant": true,
      "inputs": [],
      "name": "proposalsCount",
      "outputs": [
        {
          "name": "",
          "type": "uint256"
        }
      ],
      "payable": false,
      "stateMutability": "view",
      "type": "function"
    },
    {
      "constant": true,
      "inputs": [],
      "name": "disqualificationsCount",
      "outputs": [
        {
          "name": "",
          "type": "uint256"
        }
      ],
      "payable": false,
      "stateMutability": "view",
      "type": "function"
    },
    {
      "constant": false,
      "inputs": [
        {
          "name": "amount",
          "type": "int256"
        },
        {
          "name": "currencyCt",
          "type": "address"
        },
        {
          "name": "currencyId",
          "type": "uint256"
        }
      ],
      "name": "startChallenge",
      "outputs": [],
      "payable": false,
      "stateMutability": "nonpayable",
      "type": "function"
    },
    {
      "constant": false,
      "inputs": [
        {
          "name": "wallet",
          "type": "address"
        },
        {
          "name": "amount",
          "type": "int256"
        },
        {
          "name": "currencyCt",
          "type": "address"
        },
        {
          "name": "currencyId",
          "type": "uint256"
        }
      ],
      "name": "startChallengeByProxy",
      "outputs": [],
      "payable": false,
      "stateMutability": "nonpayable",
      "type": "function"
    },
    {
      "constant": true,
      "inputs": [
        {
          "name": "wallet",
          "type": "address"
        },
        {
          "name": "currencyCt",
          "type": "address"
        },
        {
          "name": "currencyId",
          "type": "uint256"
        }
      ],
      "name": "hasProposalExpired",
      "outputs": [
        {
          "name": "",
          "type": "bool"
        }
      ],
      "payable": false,
      "stateMutability": "view",
      "type": "function"
    },
    {
      "constant": true,
      "inputs": [
        {
          "name": "wallet",
          "type": "address"
        },
        {
          "name": "currencyCt",
          "type": "address"
        },
        {
          "name": "currencyId",
          "type": "uint256"
        }
      ],
      "name": "proposalNonce",
      "outputs": [
        {
          "name": "",
          "type": "uint256"
        }
      ],
      "payable": false,
      "stateMutability": "view",
      "type": "function"
    },
    {
      "constant": true,
      "inputs": [
        {
          "name": "wallet",
          "type": "address"
        },
        {
          "name": "currencyCt",
          "type": "address"
        },
        {
          "name": "currencyId",
          "type": "uint256"
        }
      ],
      "name": "proposalBlockNumber",
      "outputs": [
        {
          "name": "",
          "type": "uint256"
        }
      ],
      "payable": false,
      "stateMutability": "view",
      "type": "function"
    },
    {
      "constant": true,
      "inputs": [
        {
          "name": "wallet",
          "type": "address"
        },
        {
          "name": "currencyCt",
          "type": "address"
        },
        {
          "name": "currencyId",
          "type": "uint256"
        }
      ],
      "name": "proposalExpirationTime",
      "outputs": [
        {
          "name": "",
          "type": "uint256"
        }
      ],
      "payable": false,
      "stateMutability": "view",
      "type": "function"
    },
    {
      "constant": true,
      "inputs": [
        {
          "name": "wallet",
          "type": "address"
        },
        {
          "name": "currencyCt",
          "type": "address"
        },
        {
          "name": "currencyId",
          "type": "uint256"
        }
      ],
      "name": "proposalStatus",
      "outputs": [
        {
          "name": "",
          "type": "uint8"
        }
      ],
      "payable": false,
      "stateMutability": "view",
      "type": "function"
    },
    {
      "constant": true,
      "inputs": [
        {
          "name": "wallet",
          "type": "address"
        },
        {
          "name": "currencyCt",
          "type": "address"
        },
        {
          "name": "currencyId",
          "type": "uint256"
        }
      ],
      "name": "proposalStageAmount",
      "outputs": [
        {
          "name": "",
          "type": "int256"
        }
      ],
      "payable": false,
      "stateMutability": "view",
      "type": "function"
    },
    {
      "constant": true,
      "inputs": [
        {
          "name": "wallet",
          "type": "address"
        },
        {
          "name": "currencyCt",
          "type": "address"
        },
        {
          "name": "currencyId",
          "type": "uint256"
        }
      ],
      "name": "proposalTargetBalanceAmount",
      "outputs": [
        {
          "name": "",
          "type": "int256"
        }
      ],
      "payable": false,
      "stateMutability": "view",
      "type": "function"
    },
    {
      "constant": true,
      "inputs": [
        {
          "name": "wallet",
          "type": "address"
        },
        {
          "name": "currencyCt",
          "type": "address"
        },
        {
          "name": "currencyId",
          "type": "uint256"
        }
      ],
      "name": "proposalBalanceReward",
      "outputs": [
        {
          "name": "",
          "type": "bool"
        }
      ],
      "payable": false,
      "stateMutability": "view",
      "type": "function"
    },
    {
      "constant": true,
      "inputs": [
        {
          "name": "wallet",
          "type": "address"
        },
        {
          "name": "currencyCt",
          "type": "address"
        },
        {
          "name": "currencyId",
          "type": "uint256"
        }
      ],
      "name": "disqualificationCandidateType",
      "outputs": [
        {
          "name": "",
          "type": "uint8"
        }
      ],
      "payable": false,
      "stateMutability": "view",
      "type": "function"
    },
    {
      "constant": true,
      "inputs": [
        {
          "name": "wallet",
          "type": "address"
        },
        {
          "name": "currencyCt",
          "type": "address"
        },
        {
          "name": "currencyId",
          "type": "uint256"
        }
      ],
      "name": "disqualificationCandidateHash",
      "outputs": [
        {
          "name": "",
          "type": "bytes32"
        }
      ],
      "payable": false,
      "stateMutability": "view",
      "type": "function"
    },
    {
      "constant": true,
      "inputs": [
        {
          "name": "wallet",
          "type": "address"
        },
        {
          "name": "currencyCt",
          "type": "address"
        },
        {
          "name": "currencyId",
          "type": "uint256"
        }
      ],
      "name": "disqualificationChallenger",
      "outputs": [
        {
          "name": "",
          "type": "address"
        }
      ],
      "payable": false,
      "stateMutability": "view",
      "type": "function"
    },
    {
      "constant": false,
      "inputs": [
        {
          "name": "wallet",
          "type": "address"
        },
        {
          "name": "currencyCt",
          "type": "address"
        },
        {
          "name": "currencyId",
          "type": "uint256"
        },
        {
          "name": "expirationTime",
          "type": "uint256"
        }
      ],
      "name": "setProposalExpirationTime",
      "outputs": [],
      "payable": false,
      "stateMutability": "nonpayable",
      "type": "function"
    },
    {
      "constant": false,
      "inputs": [
        {
          "name": "wallet",
          "type": "address"
        },
        {
          "name": "currencyCt",
          "type": "address"
        },
        {
          "name": "currencyId",
          "type": "uint256"
        },
        {
          "name": "status",
          "type": "uint8"
        }
      ],
      "name": "setProposalStatus",
      "outputs": [],
      "payable": false,
      "stateMutability": "nonpayable",
      "type": "function"
    },
    {
      "constant": false,
      "inputs": [
        {
          "components": [
            {
              "name": "nonce",
              "type": "uint256"
            },
            {
              "name": "wallet",
              "type": "address"
            },
            {
              "components": [
                {
                  "name": "intention",
                  "type": "uint8"
                },
                {
                  "name": "amount",
                  "type": "int256"
                },
                {
                  "components": [
                    {
                      "components": [
                        {
                          "name": "ct",
                          "type": "address"
                        },
                        {
                          "name": "id",
                          "type": "uint256"
                        }
                      ],
                      "name": "intended",
                      "type": "tuple"
                    },
                    {
                      "components": [
                        {
                          "name": "ct",
                          "type": "address"
                        },
                        {
                          "name": "id",
                          "type": "uint256"
                        }
                      ],
                      "name": "conjugate",
                      "type": "tuple"
                    }
                  ],
                  "name": "currencies",
                  "type": "tuple"
                },
                {
                  "name": "rate",
                  "type": "int256"
                },
                {
                  "components": [
                    {
                      "name": "current",
                      "type": "int256"
                    },
                    {
                      "name": "previous",
                      "type": "int256"
                    }
                  ],
                  "name": "residuals",
                  "type": "tuple"
                }
              ],
              "name": "placement",
              "type": "tuple"
            },
            {
              "components": [
                {
                  "components": [
                    {
                      "name": "hash",
                      "type": "bytes32"
                    },
                    {
                      "components": [
                        {
                          "name": "r",
                          "type": "bytes32"
                        },
                        {
                          "name": "s",
                          "type": "bytes32"
                        },
                        {
                          "name": "v",
                          "type": "uint8"
                        }
                      ],
                      "name": "signature",
                      "type": "tuple"
                    }
                  ],
                  "name": "wallet",
                  "type": "tuple"
                },
                {
                  "components": [
                    {
                      "name": "hash",
                      "type": "bytes32"
                    },
                    {
                      "components": [
                        {
                          "name": "r",
                          "type": "bytes32"
                        },
                        {
                          "name": "s",
                          "type": "bytes32"
                        },
                        {
                          "name": "v",
                          "type": "uint8"
                        }
                      ],
                      "name": "signature",
                      "type": "tuple"
                    }
                  ],
                  "name": "operator",
                  "type": "tuple"
                }
              ],
              "name": "seals",
              "type": "tuple"
            },
            {
              "name": "blockNumber",
              "type": "uint256"
            },
            {
              "name": "operatorId",
              "type": "uint256"
            }
          ],
          "name": "order",
          "type": "tuple"
        }
      ],
      "name": "challengeByOrder",
      "outputs": [],
      "payable": false,
      "stateMutability": "nonpayable",
      "type": "function"
    },
    {
      "constant": false,
      "inputs": [
        {
          "name": "wallet",
          "type": "address"
        },
        {
          "components": [
            {
              "name": "nonce",
              "type": "uint256"
            },
            {
              "name": "amount",
              "type": "int256"
            },
            {
              "components": [
                {
                  "components": [
                    {
                      "name": "ct",
                      "type": "address"
                    },
                    {
                      "name": "id",
                      "type": "uint256"
                    }
                  ],
                  "name": "intended",
                  "type": "tuple"
                },
                {
                  "components": [
                    {
                      "name": "ct",
                      "type": "address"
                    },
                    {
                      "name": "id",
                      "type": "uint256"
                    }
                  ],
                  "name": "conjugate",
                  "type": "tuple"
                }
              ],
              "name": "currencies",
              "type": "tuple"
            },
            {
              "name": "rate",
              "type": "int256"
            },
            {
              "components": [
                {
                  "name": "nonce",
                  "type": "uint256"
                },
                {
                  "name": "wallet",
                  "type": "address"
                },
                {
                  "name": "rollingVolume",
                  "type": "uint256"
                },
                {
                  "name": "liquidityRole",
                  "type": "uint8"
                },
                {
                  "components": [
                    {
                      "name": "amount",
                      "type": "int256"
                    },
                    {
                      "components": [
                        {
                          "name": "wallet",
                          "type": "bytes32"
                        },
                        {
                          "name": "operator",
                          "type": "bytes32"
                        }
                      ],
                      "name": "hashes",
                      "type": "tuple"
                    },
                    {
                      "components": [
                        {
                          "name": "current",
                          "type": "int256"
                        },
                        {
                          "name": "previous",
                          "type": "int256"
                        }
                      ],
                      "name": "residuals",
                      "type": "tuple"
                    }
                  ],
                  "name": "order",
                  "type": "tuple"
                },
                {
                  "components": [
                    {
                      "components": [
                        {
                          "name": "current",
                          "type": "int256"
                        },
                        {
                          "name": "previous",
                          "type": "int256"
                        }
                      ],
                      "name": "intended",
                      "type": "tuple"
                    },
                    {
                      "components": [
                        {
                          "name": "current",
                          "type": "int256"
                        },
                        {
                          "name": "previous",
                          "type": "int256"
                        }
                      ],
                      "name": "conjugate",
                      "type": "tuple"
                    }
                  ],
                  "name": "balances",
                  "type": "tuple"
                },
                {
                  "components": [
                    {
                      "components": [
                        {
                          "name": "amount",
                          "type": "int256"
                        },
                        {
                          "components": [
                            {
                              "name": "ct",
                              "type": "address"
                            },
                            {
                              "name": "id",
                              "type": "uint256"
                            }
                          ],
                          "name": "currency",
                          "type": "tuple"
                        }
                      ],
                      "name": "single",
                      "type": "tuple"
                    },
                    {
                      "components": [
                        {
                          "name": "originId",
                          "type": "uint256"
                        },
                        {
                          "components": [
                            {
                              "name": "amount",
                              "type": "int256"
                            },
                            {
                              "components": [
                                {
                                  "name": "ct",
                                  "type": "address"
                                },
                                {
                                  "name": "id",
                                  "type": "uint256"
                                }
                              ],
                              "name": "currency",
                              "type": "tuple"
                            }
                          ],
                          "name": "figure",
                          "type": "tuple"
                        }
                      ],
                      "name": "total",
                      "type": "tuple[]"
                    }
                  ],
                  "name": "fees",
                  "type": "tuple"
                }
              ],
              "name": "buyer",
              "type": "tuple"
            },
            {
              "components": [
                {
                  "name": "nonce",
                  "type": "uint256"
                },
                {
                  "name": "wallet",
                  "type": "address"
                },
                {
                  "name": "rollingVolume",
                  "type": "uint256"
                },
                {
                  "name": "liquidityRole",
                  "type": "uint8"
                },
                {
                  "components": [
                    {
                      "name": "amount",
                      "type": "int256"
                    },
                    {
                      "components": [
                        {
                          "name": "wallet",
                          "type": "bytes32"
                        },
                        {
                          "name": "operator",
                          "type": "bytes32"
                        }
                      ],
                      "name": "hashes",
                      "type": "tuple"
                    },
                    {
                      "components": [
                        {
                          "name": "current",
                          "type": "int256"
                        },
                        {
                          "name": "previous",
                          "type": "int256"
                        }
                      ],
                      "name": "residuals",
                      "type": "tuple"
                    }
                  ],
                  "name": "order",
                  "type": "tuple"
                },
                {
                  "components": [
                    {
                      "components": [
                        {
                          "name": "current",
                          "type": "int256"
                        },
                        {
                          "name": "previous",
                          "type": "int256"
                        }
                      ],
                      "name": "intended",
                      "type": "tuple"
                    },
                    {
                      "components": [
                        {
                          "name": "current",
                          "type": "int256"
                        },
                        {
                          "name": "previous",
                          "type": "int256"
                        }
                      ],
                      "name": "conjugate",
                      "type": "tuple"
                    }
                  ],
                  "name": "balances",
                  "type": "tuple"
                },
                {
                  "components": [
                    {
                      "components": [
                        {
                          "name": "amount",
                          "type": "int256"
                        },
                        {
                          "components": [
                            {
                              "name": "ct",
                              "type": "address"
                            },
                            {
                              "name": "id",
                              "type": "uint256"
                            }
                          ],
                          "name": "currency",
                          "type": "tuple"
                        }
                      ],
                      "name": "single",
                      "type": "tuple"
                    },
                    {
                      "components": [
                        {
                          "name": "originId",
                          "type": "uint256"
                        },
                        {
                          "components": [
                            {
                              "name": "amount",
                              "type": "int256"
                            },
                            {
                              "components": [
                                {
                                  "name": "ct",
                                  "type": "address"
                                },
                                {
                                  "name": "id",
                                  "type": "uint256"
                                }
                              ],
                              "name": "currency",
                              "type": "tuple"
                            }
                          ],
                          "name": "figure",
                          "type": "tuple"
                        }
                      ],
                      "name": "total",
                      "type": "tuple[]"
                    }
                  ],
                  "name": "fees",
                  "type": "tuple"
                }
              ],
              "name": "seller",
              "type": "tuple"
            },
            {
              "components": [
                {
                  "components": [
                    {
                      "name": "single",
                      "type": "int256"
                    },
                    {
                      "name": "total",
                      "type": "int256"
                    }
                  ],
                  "name": "intended",
                  "type": "tuple"
                },
                {
                  "components": [
                    {
                      "name": "single",
                      "type": "int256"
                    },
                    {
                      "name": "total",
                      "type": "int256"
                    }
                  ],
                  "name": "conjugate",
                  "type": "tuple"
                }
              ],
              "name": "transfers",
              "type": "tuple"
            },
            {
              "components": [
                {
                  "name": "hash",
                  "type": "bytes32"
                },
                {
                  "components": [
                    {
                      "name": "r",
                      "type": "bytes32"
                    },
                    {
                      "name": "s",
                      "type": "bytes32"
                    },
                    {
                      "name": "v",
                      "type": "uint8"
                    }
                  ],
                  "name": "signature",
                  "type": "tuple"
                }
              ],
              "name": "seal",
              "type": "tuple"
            },
            {
              "name": "blockNumber",
              "type": "uint256"
            },
            {
              "name": "operatorId",
              "type": "uint256"
            }
          ],
          "name": "trade",
          "type": "tuple"
        }
      ],
      "name": "challengeByTrade",
      "outputs": [],
      "payable": false,
      "stateMutability": "nonpayable",
      "type": "function"
    },
    {
      "constant": false,
      "inputs": [
        {
          "name": "wallet",
          "type": "address"
        },
        {
          "components": [
            {
              "name": "nonce",
              "type": "uint256"
            },
            {
              "name": "amount",
              "type": "int256"
            },
            {
              "components": [
                {
                  "name": "ct",
                  "type": "address"
                },
                {
                  "name": "id",
                  "type": "uint256"
                }
              ],
              "name": "currency",
              "type": "tuple"
            },
            {
              "components": [
                {
                  "name": "nonce",
                  "type": "uint256"
                },
                {
                  "name": "wallet",
                  "type": "address"
                },
                {
                  "components": [
                    {
                      "name": "current",
                      "type": "int256"
                    },
                    {
                      "name": "previous",
                      "type": "int256"
                    }
                  ],
                  "name": "balances",
                  "type": "tuple"
                },
                {
                  "components": [
                    {
                      "components": [
                        {
                          "name": "amount",
                          "type": "int256"
                        },
                        {
                          "components": [
                            {
                              "name": "ct",
                              "type": "address"
                            },
                            {
                              "name": "id",
                              "type": "uint256"
                            }
                          ],
                          "name": "currency",
                          "type": "tuple"
                        }
                      ],
                      "name": "single",
                      "type": "tuple"
                    },
                    {
                      "components": [
                        {
                          "name": "originId",
                          "type": "uint256"
                        },
                        {
                          "components": [
                            {
                              "name": "amount",
                              "type": "int256"
                            },
                            {
                              "components": [
                                {
                                  "name": "ct",
                                  "type": "address"
                                },
                                {
                                  "name": "id",
                                  "type": "uint256"
                                }
                              ],
                              "name": "currency",
                              "type": "tuple"
                            }
                          ],
                          "name": "figure",
                          "type": "tuple"
                        }
                      ],
                      "name": "total",
                      "type": "tuple[]"
                    }
                  ],
                  "name": "fees",
                  "type": "tuple"
                }
              ],
              "name": "sender",
              "type": "tuple"
            },
            {
              "components": [
                {
                  "name": "nonce",
                  "type": "uint256"
                },
                {
                  "name": "wallet",
                  "type": "address"
                },
                {
                  "components": [
                    {
                      "name": "current",
                      "type": "int256"
                    },
                    {
                      "name": "previous",
                      "type": "int256"
                    }
                  ],
                  "name": "balances",
                  "type": "tuple"
                },
                {
                  "components": [
                    {
                      "components": [
                        {
                          "name": "originId",
                          "type": "uint256"
                        },
                        {
                          "components": [
                            {
                              "name": "amount",
                              "type": "int256"
                            },
                            {
                              "components": [
                                {
                                  "name": "ct",
                                  "type": "address"
                                },
                                {
                                  "name": "id",
                                  "type": "uint256"
                                }
                              ],
                              "name": "currency",
                              "type": "tuple"
                            }
                          ],
                          "name": "figure",
                          "type": "tuple"
                        }
                      ],
                      "name": "total",
                      "type": "tuple[]"
                    }
                  ],
                  "name": "fees",
                  "type": "tuple"
                }
              ],
              "name": "recipient",
              "type": "tuple"
            },
            {
              "components": [
                {
                  "name": "single",
                  "type": "int256"
                },
                {
                  "name": "total",
                  "type": "int256"
                }
              ],
              "name": "transfers",
              "type": "tuple"
            },
            {
              "components": [
                {
                  "components": [
                    {
                      "name": "hash",
                      "type": "bytes32"
                    },
                    {
                      "components": [
                        {
                          "name": "r",
                          "type": "bytes32"
                        },
                        {
                          "name": "s",
                          "type": "bytes32"
                        },
                        {
                          "name": "v",
                          "type": "uint8"
                        }
                      ],
                      "name": "signature",
                      "type": "tuple"
                    }
                  ],
                  "name": "wallet",
                  "type": "tuple"
                },
                {
                  "components": [
                    {
                      "name": "hash",
                      "type": "bytes32"
                    },
                    {
                      "components": [
                        {
                          "name": "r",
                          "type": "bytes32"
                        },
                        {
                          "name": "s",
                          "type": "bytes32"
                        },
                        {
                          "name": "v",
                          "type": "uint8"
                        }
                      ],
                      "name": "signature",
                      "type": "tuple"
                    }
                  ],
                  "name": "operator",
                  "type": "tuple"
                }
              ],
              "name": "seals",
              "type": "tuple"
            },
            {
              "name": "blockNumber",
              "type": "uint256"
            },
            {
              "name": "operatorId",
              "type": "uint256"
            }
          ],
          "name": "payment",
          "type": "tuple"
        }
      ],
      "name": "challengeByPayment",
      "outputs": [],
      "payable": false,
      "stateMutability": "nonpayable",
      "type": "function"
    },
    {
      "constant": true,
      "inputs": [],
      "name": "candidateHashesCount",
      "outputs": [
        {
          "name": "",
          "type": "uint256"
        }
      ],
      "payable": false,
      "stateMutability": "view",
      "type": "function"
    },
    {
      "constant": false,
      "inputs": [
        {
          "name": "wallet",
          "type": "address"
        }
      ],
      "name": "lockWallet",
      "outputs": [],
      "payable": false,
      "stateMutability": "nonpayable",
      "type": "function"
    },
    {
      "constant": true,
      "inputs": [
        {
          "name": "wallet",
          "type": "address"
        }
      ],
      "name": "isLockedWallet",
      "outputs": [
        {
          "name": "",
          "type": "bool"
        }
      ],
      "payable": false,
      "stateMutability": "view",
      "type": "function"
    },
    {
      "constant": false,
      "inputs": [
        {
          "name": "wallet",
          "type": "address"
        },
        {
          "name": "currencyCt",
          "type": "address"
        },
        {
          "name": "currencyId",
          "type": "uint256"
        },
        {
          "name": "candidateHash",
          "type": "bytes32"
        },
        {
          "name": "candidateType",
          "type": "uint8"
        },
        {
          "name": "challenger",
          "type": "address"
        }
      ],
      "name": "addDisqualification",
      "outputs": [],
      "payable": false,
      "stateMutability": "nonpayable",
      "type": "function"
    }
  ],
  "bytecode": "0x60806040523480156200001157600080fd5b5060405160208062003d088339810180604052620000339190810190620000b6565b8080600160a060020a03811615156200004b57600080fd5b600160a060020a0381163014156200006257600080fd5b506000805461010060a860020a031916610100600160a060020a039390931692830217905560018054600160a060020a031916909117905550620000eb565b6000620000af8251620000df565b9392505050565b600060208284031215620000c957600080fd5b6000620000d78484620000a1565b949350505050565b600160a060020a031690565b613c0d80620000fb6000396000f3006080604052600436106102635763ffffffff60e060020a600035041663013cf08b81146102685780630712abb0146102a9578063077f9e0c146102d65780630a9f46ad146103035780630fc842a1146103255780631110f49a14610352578063169879291461037457806319139092146103945780631a9caa02146103b65780632738a112146103cb578063282c7b92146103e05780632831207f146103f55780632f013a00146104155780633bebdcb51461042a5780633e59b7061461044a57806342cb45871461045f5780634476d23b1461047f57806349c56d49146104945780635252358d146104b4578063570ca735146104d4578063598b75ad146104e95780635ee3577914610509578063627f09c31461051e57806363376c4a1461053e57806366a6f36d1461055e5780636c70bee91461057e57806370327ea11461059357806376cfd4f1146105a857806385ea5e02146105c857806390363c6f146105e857806393dfe625146106085780639621473514610635578063a4fc785914610655578063ac71d98814610675578063ada072fb14610695578063affed0e0146106aa578063b13fd371146106bf578063b3ab15fb146106df578063b52d470a146106ff578063ba42ff3114610714578063c1c6816514610734578063c41570bd14610754578063cd808d9414610774578063cdbf941914610794578063d5f39488146107b4578063dd270200146107c9578063e74c81a2146107fc578063e769f40d1461081c578063ed8a829d1461083c578063f26a861e1461085c578063f7b8761714610871578063fb1a825e14610891578063fca5192b146108b1575b600080fd5b34801561027457600080fd5b50610288610283366004613268565b6108d1565b6040516102a09c9b9a999897969594939291906139e4565b60405180910390f35b3480156102b557600080fd5b506102c96102c4366004612f08565b610952565b6040516102a09190613aea565b3480156102e257600080fd5b506102f66102f1366004612ee2565b6109c0565b6040516102a09190613a97565b34801561030f57600080fd5b506103186109dd565b6040516102a09190613aa5565b34801561033157600080fd5b50610345610340366004612f08565b6109e4565b6040516102a09190613883565b34801561035e57600080fd5b5061037261036d366004613249565b610a5d565b005b34801561038057600080fd5b5061031861038f366004612f08565b610b5c565b3480156103a057600080fd5b506103a9610bc6565b6040516102a09190613ab3565b3480156103c257600080fd5b50610318610bd5565b3480156103d757600080fd5b50610372610bdb565b3480156103ec57600080fd5b50610318610c41565b34801561040157600080fd5b506103726104103660046131da565b610c47565b34801561042157600080fd5b506102f6610cd8565b34801561043657600080fd5b506102f6610445366004612f08565b610ce1565b34801561045657600080fd5b506102f6610d78565b34801561046b57600080fd5b5061031861047a366004612f08565b610d88565b34801561048b57600080fd5b50610345610df2565b3480156104a057600080fd5b506103726104af366004613127565b610e06565b3480156104c057600080fd5b506102f66104cf366004612f08565b610f08565b3480156104e057600080fd5b50610345610f7b565b3480156104f557600080fd5b506103726105043660046131da565b610f8a565b34801561051557600080fd5b506103a9611048565b34801561052a57600080fd5b506103726105393660046131da565b611057565b34801561054a57600080fd5b50610318610559366004613268565b6110ef565b34801561056a57600080fd5b50610318610579366004612f08565b61110e565b34801561058a57600080fd5b506103a9611131565b34801561059f57600080fd5b50610372611140565b3480156105b457600080fd5b506103456105c3366004613268565b6111a3565b3480156105d457600080fd5b506103726105e3366004612fdc565b6111cb565b3480156105f457600080fd5b5061031861060336600461316e565b611265565b34801561061457600080fd5b50610628610623366004612f08565b611295565b6040516102a09190613adc565b34801561064157600080fd5b50610372610650366004612ee2565b611303565b34801561066157600080fd5b5061037261067036600461303d565b6113c1565b34801561068157600080fd5b50610318610690366004612f08565b611445565b3480156106a157600080fd5b506103186114af565b3480156106b657600080fd5b506103186114b5565b3480156106cb57600080fd5b506103726106da366004612f55565b6114bb565b3480156106eb57600080fd5b506103726106fa366004612ee2565b611736565b34801561070b57600080fd5b506103726117e0565b34801561072057600080fd5b5061031861072f366004612f08565b611834565b34801561074057600080fd5b5061037261074f3660046131f8565b611857565b34801561076057600080fd5b5061034561076f366004613268565b6118ad565b34801561078057600080fd5b5061037261078f366004612ee2565b6118bb565b3480156107a057600080fd5b506103186107af366004612f08565b611a01565b3480156107c057600080fd5b50610345611a6b565b3480156107d557600080fd5b506107e96107e4366004613268565b611a7f565b6040516102a0979695949392919061397c565b34801561080857600080fd5b506102f6610817366004612ee2565b611add565b34801561082857600080fd5b50610318610837366004612ee2565b611af2565b34801561084857600080fd5b506103726108573660046130d6565b611b04565b34801561086857600080fd5b50610318611bd0565b34801561087d57600080fd5b5061037261088c366004613092565b611bd6565b34801561089d57600080fd5b506103186108ac366004612f08565b611c3c565b3480156108bd57600080fd5b506103186108cc366004612f08565b611ca6565b600b8054829081106108df57fe5b60009182526020909120600a90910201805460018201546002830154600384015460048501546005860154600687015460078801546008890154600990990154600160a060020a039889169a5096989597949660ff8086169761010096879004909716969495939492938282169204168c565b600160a060020a038084166000908152600c60209081526040808320938616835292815282822084835290529081205480151561098e57600080fd5b600b805460001983019081106109a057fe5b60009182526020909120600a909102016004015460ff1695945050505050565b600160a060020a03166000908152600a6020526040902054421090565b600b545b90565b600160a060020a038084166000908152600f602090815260408083209386168352928152828220848352905290812054801515610a2057600080fd5b600e80546000198301908110610a3257fe5b60009182526020909120600690910201600501546101009004600160a060020a031695945050505050565b600260009054906101000a9004600160a060020a0316600160a060020a031663f71e860f6040518163ffffffff1660e060020a028152600401602060405180830381600087803b158015610ab057600080fd5b505af1158015610ac4573d6000803e3d6000fd5b505050506040513d601f19601f82011682018060405250610ae8919081019061319e565b1515610af357600080fd5b6004805460405160e060020a638eed8359028152600160a060020a0390911691638eed835991610b27918591339101613af8565b600060405180830381600087803b158015610b4157600080fd5b505af1158015610b55573d6000803e3d6000fd5b5050505050565b600160a060020a038084166000908152600c602090815260408083209386168352928152828220848352905290812054801515610b9857600080fd5b600b80546000198301908110610baa57fe5b90600052602060002090600a0201600701549150509392505050565b600354600160a060020a031681565b60065490565b33610be4610df2565b600160a060020a031614610bf757600080fd5b60005460ff1615610c0757600080fd5b7f787a5d936e74f4b564b9153575886059829c78cd9927b1be5e0d976b317ef73633604051610c369190613883565b60405180910390a133ff5b600e5490565b6000610c51611d10565b1515610c5c57600080fd5b81600160a060020a0381161515610c7257600080fd5b60048054600160a060020a03858116600160a060020a03198316179283905560405191811694507f024f2a980aa7a47eb4d67ab19c6ee9ebabb88554ffe760c39dcb2c7f8f42859892610ccb9286929190911690613ac1565b60405180910390a1505050565b60005460ff1681565b600160a060020a038084166000908152600c602090815260408083209386168352928152828220848352905290812054801580610d415750600b80546000198301908110610d2b57fe5b90600052602060002090600a0201600101546000145b80610d6f5750600b80546000198301908110610d5957fe5b90600052602060002090600a0201600301544210155b95945050505050565b60035460a060020a900460ff1681565b600160a060020a038084166000908152600c602090815260408083209386168352928152828220848352905290812054801515610dc457600080fd5b600b80546000198301908110610dd657fe5b90600052602060002090600a0201600601549150509392505050565b6000546101009004600160a060020a031690565b600260009054906101000a9004600160a060020a0316600160a060020a031663f71e860f6040518163ffffffff1660e060020a028152600401602060405180830381600087803b158015610e5957600080fd5b505af1158015610e6d573d6000803e3d6000fd5b505050506040513d601f19601f82011682018060405250610e91919081019061319e565b1515610e9c57600080fd5b6004805460405160e060020a6392272607028152600160a060020a0390911691639227260791610ed2918691869133910161395c565b600060405180830381600087803b158015610eec57600080fd5b505af1158015610f00573d6000803e3d6000fd5b505050505050565b600160a060020a038084166000908152600c602090815260408083209386168352928152828220848352905290812054801515610f4457600080fd5b600b80546000198301908110610f5657fe5b60009182526020909120600a9091020160090154610100900460ff1695945050505050565b600154600160a060020a031681565b6000610f94611d10565b1515610f9f57600080fd5b81600160a060020a0381161515610fb557600080fd5b6003548390600160a060020a039081169082168114610b555760035460a060020a900460ff1615610fe557600080fd5b60038054600160a060020a03878116600160a060020a0319831617909255604051911694507fb2a91d3a71b0c5bc7c083153b3474378e489506ba98bd4ddb1b9056fdc594bb5906110399086908890613ac1565b60405180910390a15050505050565b600454600160a060020a031681565b6000611061611d10565b151561106c57600080fd5b81600160a060020a038116151561108257600080fd5b6002548390600160a060020a039081169082168114610b555760028054600160a060020a03878116600160a060020a0319831617909255604051911694507f634f61bf00e14adedce330c80c2823e16e184f189ebe853e1ddecc4a268477ff906110399086908890613ac1565b60108054829081106110fd57fe5b600091825260209091200154905081565b600c60209081526000938452604080852082529284528284209052825290205481565b600254600160a060020a031681565b33611149610df2565b600160a060020a03161461115c57600080fd5b6000805460ff191660011790556040517fd5a2a04a775c741c2ca0dc46ea7ce4835190e1aaf1ca018def0e82568ec3361690611199903390613883565b60405180910390a1565b60068054829081106111b157fe5b600091825260209091200154600160a060020a0316905081565b600454600090600160a060020a031633146111e557600080fd5b50600160a060020a038085166000908152600c6020908152604080832093871683529281528282208583529052205480151561122057600080fd5b81600b6001830381548110151561123357fe5b600091825260209091206004600a9092020101805460ff19166001838181111561125957fe5b02179055505050505050565b600d6020528160005260406000208181548110151561128057fe5b90600052602060002001600091509150505481565b600160a060020a038084166000908152600f6020908152604080832093861683529281528282208483529052908120548015156112d157600080fd5b600e805460001983019081106112e357fe5b600091825260209091206006909102016005015460ff1695945050505050565b600061130d611d10565b151561131857600080fd5b81600160a060020a038116151561132e57600080fd5b600160a060020a03811630141561134457600080fd5b600054600160a060020a0384811661010090920416146113bc5760008054600160a060020a0385811661010090810261010060a860020a0319841617909355604051929091041692507f977e5fa58e458501775e0008d275006294c5249e3c08d1d0e3a9f3acad14f6e490610ccb9084908690613891565b505050565b600454600090600160a060020a031633146113db57600080fd5b50600160a060020a038085166000908152600c6020908152604080832093871683529281528282208583529052205480151561141657600080fd5b81600b6001830381548110151561142957fe5b90600052602060002090600a0201600301819055505050505050565b600160a060020a038084166000908152600f60209081526040808320938616835292815282822084835290529081205480151561148157600080fd5b600e8054600019830190811061149357fe5b9060005260206000209060060201600401549150509392505050565b60105490565b60055481565b600454600090600160a060020a031633146114d557600080fd5b50600160a060020a038087166000908152600c6020908152604080832093891683529281528282208783529052205480151561151057600080fd5b600e80549061152290600183016124bb565b50600e8054889190600019810190811061153857fe5b600091825260209091206006909102018054600160a060020a031916600160a060020a0392909216919091179055600b8054600019830190811061157857fe5b600091825260209091206001600a909202010154600e8054600019810190811061159e57fe5b6000918252602090912060016006909202010155600e805487919060001981019081106115c757fe5b600091825260209091206006909102016002018054600160a060020a031916600160a060020a0392909216919091179055600e8054869190600019810190811061160d57fe5b6000918252602090912060036006909202010155600e8054859190600019810190811061163657fe5b6000918252602090912060046006909202010155600e8054849190600019810190811061165f57fe5b60009182526020909120600560069092020101805460ff1916600183600381111561168657fe5b0217905550600e805483919060001981019081106116a057fe5b60009182526020808320600692909202909101600501805461010060a860020a031916610100600160a060020a0395861602179055600e549983168252600f8152604080832099909316825297885281812096815295909652505050918120929092556010805460018101825592527f1b6847dc741a1b0cd08d278845f9d819d87b734759afb55fe2de5cb82a9ae67290910155565b6000611740611d26565b151561174b57600080fd5b81600160a060020a038116151561176157600080fd5b600160a060020a03811630141561177757600080fd5b600154600160a060020a038481169116146113bc5760018054600160a060020a03858116600160a060020a0319831617909255604051911692507f9f611b789425d0d5b90b920f1b2852907dd865c80074a30b1629aaa041d1812c90610ccb9084908690613891565b6117e8611d10565b15156117f357600080fd5b6003805460a060020a60ff02191660a060020a1790556040517f9c567b65fe8caab5ec7bc979a498a1322c1d4baf01a30727cbca137187560ea290600090a1565b600f60209081526000938452604080852082529284528284209052825290205481565b611860336109c0565b1561186a57600080fd5b611878338484846001611d37565b7f3ea6a5f0533a257a4d3b7d514288450c5601dd58e5017bc15c7e32d6cf1ae03933848484604051610ccb94939291906138f8565b60088054829081106111b157fe5b600454600160a060020a031633146118d257600080fd5b600160a060020a0381166000908152600a60205260409020541515611955576008805460018082019092557ff3f7a9fe364faab93b216da50a3214154f22a0a2b415b23a84c8169e8b636ee3018054600160a060020a031916600160a060020a0384169081179091556000908152600960205260409020805460ff191690911790555b6002546040805160e160020a6314f51fd502815290516119e592600160a060020a0316916329ea3faa9160048083019260209291908290030181600087803b1580156119a057600080fd5b505af11580156119b4573d6000803e3d6000fd5b505050506040513d601f19601f820116820180604052506119d891908101906131bc565b429063ffffffff6121eb16565b600160a060020a039091166000908152600a6020526040902055565b600160a060020a038084166000908152600c602090815260408083209386168352928152828220848352905290812054801515611a3d57600080fd5b600b80546000198301908110611a4f57fe5b90600052602060002090600a0201600101549150509392505050565b6000546101009004600160a060020a031681565b600e805482908110611a8d57fe5b6000918252602090912060069091020180546001820154600283015460038401546004850154600590950154600160a060020a039485169650929491841693909260ff8116916101009091041687565b60096020526000908152604090205460ff1681565b600a6020526000908152604090205481565b600260009054906101000a9004600160a060020a0316600160a060020a031663f71e860f6040518163ffffffff1660e060020a028152600401602060405180830381600087803b158015611b5757600080fd5b505af1158015611b6b573d6000803e3d6000fd5b505050506040513d601f19601f82011682018060405250611b8f919081019061319e565b1515611b9a57600080fd5b6004805460405160e260020a631a49a0cb028152600160a060020a0390911691636926832c91610ed2918691869133910161392d565b60085490565b611bde611d26565b1515611be957600080fd5b611bf7848484846000611d37565b7f5c2e5356cead72ecdf07d7e8b0d17de67df6aac7550613234585f8e5cf7c40763385858585604051611c2e9594939291906138ac565b60405180910390a150505050565b600160a060020a038084166000908152600c602090815260408083209386168352928152828220848352905290812054801515611c7857600080fd5b600b80546000198301908110611c8a57fe5b90600052602060002090600a0201600301549150509392505050565b600160a060020a038084166000908152600c602090815260408083209386168352928152828220848352905290812054801515611ce257600080fd5b600b80546000198301908110611cf457fe5b90600052602060002090600a0201600201549150509392505050565b6000546101009004600160a060020a0316331490565b600154600160a060020a0316331490565b600080600260009054906101000a9004600160a060020a0316600160a060020a031663b6bf41766040518163ffffffff1660e060020a028152600401602060405180830381600087803b158015611d8d57600080fd5b505af1158015611da1573d6000803e3d6000fd5b505050506040513d601f19601f82011682018060405250611dc591908101906131bc565b431015611dd157600080fd5b60405160e060020a636b84d93102815273__SafeMathIntLib________________________90636b84d93190611e0b908990600401613aa5565b60206040518083038186803b158015611e2357600080fd5b505af4158015611e37573d6000803e3d6000fd5b505050506040513d601f19601f82011682018060405250611e5b919081019061319e565b1515611e6657600080fd5b611e71878686610ce1565b1515611e7c57600080fd5b611e87878686612201565b909250905085821215611e9957600080fd5b600b805490611eab90600183016124e7565b50600b80548891906000198101908110611ec157fe5b60009182526020909120600a909102018054600160a060020a031916600160a060020a03929092169190911790556005805460010190819055600b80546000198101908110611f0c57fe5b600091825260209091206001600a909202010155600b80548291906000198101908110611f3557fe5b90600052602060002090600a020160020181905550611fa0600260009054906101000a9004600160a060020a0316600160a060020a031663fbdfd8e76040518163ffffffff1660e060020a028152600401602060405180830381600087803b1580156119a057600080fd5b600b80546000198101908110611fb257fe5b6000918252602082206003600a909202010191909155600b80546000198101908110611fda57fe5b600091825260209091206004600a9092020101805460ff19166001838181111561200057fe5b0217905550600b8054869190600019810190811061201a57fe5b90600052602060002090600a020160040160016101000a815481600160a060020a030219169083600160a060020a0316021790555083600b6001600b805490500381548110151561206757fe5b600091825260209091206005600a909202010155600b8054879190600019810190811061209057fe5b600091825260209091206006600a9092020101556120b4828763ffffffff61244516565b600b805460001981019081106120c657fe5b600091825260209091206007600a909202010155600b805484919060001981019081106120ef57fe5b600091825260208083206009600a909302019190910180549315156101000261ff001990941693909317909255600b54600160a060020a03808b16808452600c85526040808520928b1685529185528184208985528552818420839055808452600d8552818420805460018101825590855285852001929092559082526007909252205460ff1615156121e257600160a060020a0387166000818152600760205260408120805460ff191660019081179091556006805491820181559091527ff652222313e28459528d920b65115c16c04f3efc82aaedc97be59f3f377c0d3f018054600160a060020a03191690911790555b50505050505050565b6000828201838110156121fa57fe5b9392505050565b6003546040805160e460020a630ded1131028152905160009283928392839283928392600160a060020a0390921691636f4a1815918c91849163ded1131091600480830192602092919082900301818a87803b15801561226057600080fd5b505af1158015612274573d6000803e3d6000fd5b505050506040513d601f19601f8201168201806040525061229891908101906131bc565b8b8b6040518563ffffffff1660e060020a0281526004016122bc94939291906138f8565b6040805180830381600087803b1580156122d557600080fd5b505af11580156122e9573d6000803e3d6000fd5b505050506040513d601f19601f8201168201806040525061230d9190810190613219565b6003546040805160e260020a631194bb1d0281529051939750919550600160a060020a031691636f4a1815918c918491634652ec749160048083019260209291908290030181600087803b15801561236457600080fd5b505af1158015612378573d6000803e3d6000fd5b505050506040513d601f19601f8201168201806040525061239c91908101906131bc565b8b8b6040518563ffffffff1660e060020a0281526004016123c094939291906138f8565b6040805180830381600087803b1580156123d957600080fd5b505af11580156123ed573d6000803e3d6000fd5b505050506040513d601f19601f820116820180604052506124119190810190613219565b9092509050612426848363ffffffff61248616565b95508083116124355780612437565b825b945050505050935093915050565b600080821215801561245957508282840313155b806124705750600082128015612470575082828403135b151561247b57600080fd5b508082035b92915050565b600082820181831280159061249b5750838112155b806124b057506000831280156124b057508381125b15156121fa57600080fd5b8154818355818111156113bc576006028160060283600052602060002091820191016113bc9190612513565b8154818355818111156113bc57600a0281600a0283600052602060002091820191016113bc9190612570565b6109e191905b8082111561256c578054600160a060020a03199081168255600060018301819055600283018054909216909155600382018190556004820155600581018054600160a860020a0319169055600601612519565b5090565b6109e191905b8082111561256c578054600160a060020a03191681556000600182018190556002820181905560038201819055600482018054600160a860020a0319169055600582018190556006820181905560078201819055600882015560098101805461ffff19169055600a01612576565b60006121fa8235613b65565b6000601f8201831361260157600080fd5b813561261461260f82613b3b565b613b15565b9150818183526020840193506020810190508385608084028201111561263957600080fd5b60005b83811015612667578161264f88826128fa565b8452506020909201916080919091019060010161263c565b5050505092915050565b60006121fa8251613b71565b60006121fa82356109e1565b60006121fa82516109e1565b60006121fa8235613b94565b60006121fa8235613b9f565b60006121fa8235613bae565b6000604082840312156126cb57600080fd5b6126d56040613b15565b905060006126e384846125e4565b82525060206126f48484830161267d565b60208301525092915050565b60006040828403121561271257600080fd5b61271c6040613b15565b905060006126e3848461267d565b60006060828403121561273c57600080fd5b6127466040613b15565b90506000612754848461267d565b82525060206126f4848483016126b9565b60006080828403121561277757600080fd5b6127816040613b15565b9050600061278f84846126b9565b82525060406126f4848483016126b9565b6000608082840312156127b257600080fd5b6127bc6040613b15565b905060006127ca8484612700565b82525060406126f484848301612700565b600061012082840312156127ee57600080fd5b6127f860a0613b15565b9050600061280684846126ad565b82525060206128178484830161267d565b602083015250604061282b84828501612765565b60408301525060c061283f8482850161267d565b60608301525060e061285384828501612700565b60808301525092915050565b60006102a0828403121561287257600080fd5b61287c60c0613b15565b9050600061288a848461267d565b825250602061289b848483016125e4565b60208301525060406128af848285016127db565b6040830152506101606128c484828501612e9a565b6060830152506102606128d98482850161267d565b6080830152506102806128ee8482850161267d565b60a08301525092915050565b60006080828403121561290c57600080fd5b6129166040613b15565b90506000612924848461267d565b82525060206126f48484830161272a565b600060a0828403121561294757600080fd5b6129516080613b15565b9050600061295f848461267d565b8252506020612970848483016125e4565b602083015250604061298484828501612700565b60408301525060808201356001604060020a038111156129a357600080fd5b6129af84828501612c1f565b60608301525092915050565b600060a082840312156129cd57600080fd5b6129d76080613b15565b905060006129e5848461267d565b82525060206129f6848483016125e4565b6020830152506040612a0a84828501612700565b60408301525060808201356001604060020a03811115612a2957600080fd5b6129af84828501612bcd565b60006102408284031215612a4857600080fd5b612a53610120613b15565b90506000612a61848461267d565b8252506020612a728484830161267d565b6020830152506040612a86848285016126b9565b60408301525060808201356001604060020a03811115612aa557600080fd5b612ab1848285016129bb565b60608301525060a08201356001604060020a03811115612ad057600080fd5b612adc84828501612935565b60808301525060c0612af084828501612700565b60a083015250610100612b0584828501612e9a565b60c083015250610200612b1a8482850161267d565b60e083015250610220612b2f8482850161267d565b6101008301525092915050565b600060808284031215612b4e57600080fd5b612b586040613b15565b90506000612b66848461267d565b82525060206126f484848301600060608284031215612b8457600080fd5b612b8e6060613b15565b90506000612b9c848461267d565b8252506020612bad8484830161267d565b6020830152506040612bc184828501612ed6565b60408301525092915050565b600060808284031215612bdf57600080fd5b612be96040613b15565b90506000612bf7848461272a565b82525060608201356001604060020a03811115612c1357600080fd5b6126f4848285016125f0565b600060208284031215612c3157600080fd5b612c3b6020613b15565b905081356001604060020a03811115612c5357600080fd5b612c5f848285016125f0565b82525092915050565b600060a08284031215612c7a57600080fd5b612c846060613b15565b90506000612c92848461267d565b8252506020612ca384848301612700565b6020830152506060612bc184828501612700565b60006101c08284031215612cca57600080fd5b612cd460e0613b15565b90506000612ce2848461267d565b8252506020612cf3848483016125e4565b6020830152506040612d078482850161267d565b6040830152506060612d1b848285016126ad565b6060830152506080612d2f84828501612c68565b608083015250610120612d44848285016127a0565b60a0830152506101a08201356001604060020a03811115612d6457600080fd5b612d7084828501612bcd565b60c08301525092915050565b60006102608284031215612d8f57600080fd5b612d9a610140613b15565b90506000612da8848461267d565b8252506020612db98484830161267d565b6020830152506040612dcd84828501612765565b60408301525060c0612de18482850161267d565b60608301525060e08201356001604060020a03811115612e0057600080fd5b612e0c84828501612cb7565b6080830152506101008201356001604060020a03811115612e2c57600080fd5b612e3884828501612cb7565b60a083015250610120612e4d848285016127a0565b60c0830152506101a0612e6284828501612b3c565b60e083015250610220612e778482850161267d565b61010083015250610240612e8d8482850161267d565b6101208301525092915050565b60006101008284031215612ead57600080fd5b612eb76040613b15565b90506000612ec58484612b3c565b82525060806126f484848301612b3c565b60006121fa8235613b8e565b600060208284031215612ef457600080fd5b6000612f0084846125e4565b949350505050565b600080600060608486031215612f1d57600080fd5b6000612f2986866125e4565b9350506020612f3a868287016125e4565b9250506040612f4b8682870161267d565b9150509250925092565b60008060008060008060c08789031215612f6e57600080fd5b6000612f7a89896125e4565b9650506020612f8b89828a016125e4565b9550506040612f9c89828a0161267d565b9450506060612fad89828a0161267d565b9350506080612fbe89828a016126a1565b92505060a0612fcf89828a016125e4565b9150509295509295509295565b60008060008060808587031215612ff257600080fd5b6000612ffe87876125e4565b945050602061300f878288016125e4565b93505060406130208782880161267d565b9250506060613031878288016126ad565b91505092959194509250565b6000806000806080858703121561305357600080fd5b600061305f87876125e4565b9450506020613070878288016125e4565b93505060406130818782880161267d565b92505060606130318782880161267d565b600080600080608085870312156130a857600080fd5b60006130b487876125e4565b94505060206130c58782880161267d565b9350506040613081878288016125e4565b600080604083850312156130e957600080fd5b60006130f585856125e4565b92505060208301356001604060020a0381111561311157600080fd5b61311d85828601612a35565b9150509250929050565b6000806040838503121561313a57600080fd5b600061314685856125e4565b92505060208301356001604060020a0381111561316257600080fd5b61311d85828601612d7c565b6000806040838503121561318157600080fd5b600061318d85856125e4565b925050602061311d8582860161267d565b6000602082840312156131b057600080fd5b6000612f008484612671565b6000602082840312156131ce57600080fd5b6000612f008484612689565b6000602082840312156131ec57600080fd5b6000612f008484612695565b60008060006060848603121561320d57600080fd5b6000612f29868661267d565b6000806040838503121561322c57600080fd5b60006132388585612689565b925050602061311d85828601612689565b60006102a0828403121561325c57600080fd5b6000612f00848461285f565b60006020828403121561327a57600080fd5b6000612f00848461267d565b61328f81613b65565b82525050565b60006132a082613b61565b8084526020840193506132b283613b5b565b60005b828110156132e2576132c8868351613492565b6132d182613b5b565b6080969096019591506001016132b5565b5093949350505050565b61328f81613b71565b61328f816109e1565b61328f81613b94565b61328f81613bbd565b61328f81613bc8565b8051604083019061332a8482613286565b50602082015161333d60208501826132f5565b50505050565b8051604083019061332a84826132f5565b8051606083019061336584826132f5565b50602082015161333d6020850182613319565b805160808301906133898482613319565b50602082015161333d6040850182613319565b805160808301906133ad8482613343565b50602082015161333d6040850182613343565b80516101208301906133d28482613310565b5060208201516133e560208501826132f5565b5060408201516133f86040850182613378565b50606082015161340b60c08501826132f5565b50608082015161333d60e0850182613343565b80516102a083019061343084826132f5565b5060208201516134436020850182613286565b50604082015161345660408501826133c0565b50606082015161346a610160850182613855565b50608082015161347e6102608501826132f5565b5060a082015161333d6102808501826132f5565b805160808301906134a384826132f5565b50602082015161333d6020850182613354565b805160009060a08401906134ca85826132f5565b5060208301516134dd6020860182613286565b5060408301516134f06040860182613343565b5060608301518482036080860152610d6f82826136a3565b805160009060a084019061351c85826132f5565b50602083015161352f6020860182613286565b5060408301516135426040860182613343565b5060608301518482036080860152610d6f8282613677565b805160009061024084019061356f85826132f5565b50602083015161358260208601826132f5565b5060408301516135956040860182613319565b50606083015184820360808601526135ad8282613508565b915050608083015184820360a08601526135c782826134b6565b91505060a08301516135dc60c0860182613343565b5060c08301516135f0610100860182613855565b5060e08301516136046102008601826132f5565b506101008301516136196102208601826132f5565b509392505050565b8051608083019061363284826132f5565b50602082015161333d60208501828051606083019061365184826132f5565b50602082015161366460208501826132f5565b50604082015161333d604085018261387a565b8051600090608084019061368b8582613354565b5060208301518482036060860152610d6f8282613295565b8051602080845260009190840190610d6f8282613295565b805160a08301906136cc84826132f5565b5060208201516136df6020850182613343565b50604082015161333d6060850182613343565b80516000906101c084019061370785826132f5565b50602083015161371a6020860182613286565b50604083015161372d60408601826132f5565b5060608301516137406060860182613310565b50608083015161375360808601826136bb565b5060a083015161376761012086018261339c565b5060c08301518482036101a0860152610d6f8282613677565b805160009061026084019061379585826132f5565b5060208301516137a860208601826132f5565b5060408301516137bb6040860182613378565b5060608301516137ce60c08601826132f5565b50608083015184820360e08601526137e682826136f2565b91505060a083015184820361010086015261380182826136f2565b91505060c083015161381761012086018261339c565b5060e083015161382b6101a0860182613621565b506101008301516138406102208601826132f5565b506101208301516136196102408601826132f5565b80516101008301906138678482613621565b50602082015161333d6080850182613621565b61328f81613b8e565b602081016124808284613286565b6040810161389f8285613286565b6121fa6020830184613286565b60a081016138ba8288613286565b6138c76020830187613286565b6138d460408301866132f5565b6138e16060830185613286565b6138ee60808301846132f5565b9695505050505050565b608081016139068287613286565b61391360208301866132f5565b6139206040830185613286565b610d6f60608301846132f5565b6060810161393b8286613286565b818103602083015261394d818561355a565b9050612f006040830184613286565b6060810161396a8286613286565b818103602083015261394d8185613780565b60e0810161398a828a613286565b61399760208301896132f5565b6139a46040830188613286565b6139b160608301876132f5565b6139be60808301866132f5565b6139cb60a0830185613307565b6139d860c0830184613286565b98975050505050505050565b61018081016139f3828f613286565b613a00602083018e6132f5565b613a0d604083018d6132f5565b613a1a606083018c6132f5565b613a27608083018b613310565b613a3460a083018a613286565b613a4160c08301896132f5565b613a4e60e08301886132f5565b613a5c6101008301876132f5565b613a6a6101208301866132f5565b613a78610140830185613310565b613a866101608301846132ec565b9d9c50505050505050505050505050565b6020810161248082846132ec565b6020810161248082846132f5565b6020810161248082846132fe565b60408101613acf82856132fe565b6121fa60208301846132fe565b602081016124808284613307565b602081016124808284613310565b6102c08101613b07828561341e565b6121fa6102a0830184613286565b6040518181016001604060020a0381118282101715613b3357600080fd5b604052919050565b60006001604060020a03821115613b5157600080fd5b5060209081020190565b60200190565b5190565b600160a060020a031690565b151590565b60006004821061256c57fe5b60006002821061256c57fe5b60ff1690565b600061248082613b65565b60006004821061256c57600080fd5b60006002821061256c57600080fd5b600061248082613b76565b600061248082613b825600a265627a7a72305820ce2fd15a833b8a796744d1f9a2469b779153b91a0260320d00adb0618ad7f4b66c6578706572696d656e74616cf50037",
  "source": "/*\n * Hubii Nahmii\n *\n * Compliant with the Hubii Nahmii specification v0.12.\n *\n * Copyright (C) 2017-2018 Hubii AS\n */\n\npragma solidity ^0.4.25;\npragma experimental ABIEncoderV2;\n\nimport {Ownable} from \"./Ownable.sol\";\nimport {Challenge} from \"./Challenge.sol\";\nimport {BalanceTrackable} from \"./BalanceTrackable.sol\";\nimport {SafeMathIntLib} from \"./SafeMathIntLib.sol\";\nimport {SafeMathUintLib} from \"./SafeMathUintLib.sol\";\nimport {NullSettlementDispute} from \"./NullSettlementDispute.sol\";\nimport {NahmiiTypesLib} from \"./NahmiiTypesLib.sol\";\nimport {SettlementTypesLib} from \"./SettlementTypesLib.sol\";\n\n/**\n * @title NullSettlementChallenge\n * @notice Where null settlements are started and challenged\n */\ncontract NullSettlementChallenge is Ownable, Challenge, BalanceTrackable {\n    using SafeMathIntLib for int256;\n    using SafeMathUintLib for uint256;\n\n    //\n    // Variables\n    // -----------------------------------------------------------------------------------------------------------------\n    NullSettlementDispute public nullSettlementDispute;\n\n    uint256 public nonce;\n\n    address[] public challengeWallets;\n    mapping(address => bool) challengeByWallets;\n\n    address[] public lockedWallets;\n    mapping(address => bool) public lockedByWallet;\n    mapping(address => uint) public unlockTimeByWallet;\n\n    SettlementTypesLib.Proposal[] public proposals;\n    mapping(address => mapping(address => mapping(uint256 => uint256))) public proposalIndexByWalletCurrency;\n    mapping(address => uint256[]) public proposalIndicesByWallet;\n\n    SettlementTypesLib.Disqualification[] public disqualifications;\n    mapping(address => mapping(address => mapping(uint256 => uint256))) public disqualificationIndexByWalletCurrency;\n\n    bytes32[] public candidateHashes;\n\n    //\n    // Events\n    // -----------------------------------------------------------------------------------------------------------------\n    event SetNullSettlementDisputeEvent(NullSettlementDispute oldNullSettlementDispute,\n        NullSettlementDispute newNullSettlementDispute);\n    event StartChallengeEvent(address wallet, int256 amount, address stageCurrencyCt,\n        uint stageCurrencyId);\n    event StartChallengeByProxyEvent(address proxy, address wallet, int256 amount,\n        address stageCurrencyCt, uint stageCurrencyId);\n\n    //\n    // Constructor\n    // -----------------------------------------------------------------------------------------------------------------\n    constructor(address deployer) Ownable(deployer) public {\n    }\n\n    //\n    // Functions\n    // -----------------------------------------------------------------------------------------------------------------\n    /// @notice Set the settlement dispute contract\n    /// @param newNullSettlementDispute The (address of) NullSettlementDispute contract instance\n    function setNullSettlementDispute(NullSettlementDispute newNullSettlementDispute)\n    public\n    onlyDeployer\n    notNullAddress(newNullSettlementDispute)\n    {\n        NullSettlementDispute oldNullSettlementDispute = nullSettlementDispute;\n        nullSettlementDispute = newNullSettlementDispute;\n        emit SetNullSettlementDisputeEvent(oldNullSettlementDispute, nullSettlementDispute);\n    }\n\n    /// @notice Get the number of challenge wallets, i.e. wallets that have started null settlement challenge\n    /// @return The number of challenge wallets\n    function challengeWalletsCount()\n    public\n    view\n    returns (uint256)\n    {\n        return challengeWallets.length;\n    }\n\n    /// @notice Get the number of locked wallets, i.e. wallets whose null settlement challenge has disqualified\n    /// @return The number of locked wallets\n    function lockedWalletsCount()\n    public\n    view\n    returns (uint256)\n    {\n        return lockedWallets.length;\n    }\n\n    /// @notice Get the number of proposals\n    /// @return The number of proposals\n    function proposalsCount()\n    public\n    view\n    returns (uint256)\n    {\n        return proposals.length;\n    }\n\n    /// @notice Get the number of challenges\n    /// @return The number of challenges\n    function disqualificationsCount()\n    public\n    view\n    returns (uint256)\n    {\n        return disqualifications.length;\n    }\n\n    /// @notice Start settlement challenge\n    /// @param amount The concerned amount to stage\n    /// @param currencyCt The address of the concerned currency contract (address(0) == ETH)\n    /// @param currencyId The ID of the concerned currency (0 for ETH and ERC20)\n    function startChallenge(int256 amount, address currencyCt, uint256 currencyId)\n    public\n    {\n        // Require that wallet is not temporarily disqualified\n        require(!isLockedWallet(msg.sender));\n\n        // Start challenge for wallet\n        _startChallenge(msg.sender, amount, currencyCt, currencyId, true);\n\n        // Emit event\n        emit StartChallengeEvent(msg.sender, amount, currencyCt, currencyId);\n    }\n\n    /// @notice Start settlement challenge for the given wallet\n    /// @param wallet The address of the concerned wallet\n    /// @param amount The concerned amount to stage\n    /// @param currencyCt The address of the concerned currency contract (address(0) == ETH)\n    /// @param currencyId The ID of the concerned currency (0 for ETH and ERC20)\n    function startChallengeByProxy(address wallet, int256 amount, address currencyCt, uint256 currencyId)\n    public\n    onlyOperator\n    {\n        // Start challenge for wallet\n        _startChallenge(wallet, amount, currencyCt, currencyId, false);\n\n        // Emit event\n        emit StartChallengeByProxyEvent(msg.sender, wallet, amount, currencyCt, currencyId);\n    }\n\n    /// @notice Gauge whether the proposal for the given wallet and currency has expired\n    /// @param wallet The address of the concerned wallet\n    /// @param currencyCt The address of the concerned currency contract (address(0) == ETH)\n    /// @param currencyId The ID of the concerned currency (0 for ETH and ERC20)\n    /// @return true if proposal has expired, else false\n    function hasProposalExpired(address wallet, address currencyCt, uint256 currencyId)\n    public\n    view\n    returns (bool)\n    {\n        // 1-based index\n        uint256 index = proposalIndexByWalletCurrency[wallet][currencyCt][currencyId];\n        return (\n        0 == index ||\n        0 == proposals[index - 1].nonce ||\n        block.timestamp >= proposals[index - 1].expirationTime\n        );\n    }\n\n    /// @notice Get the challenge nonce of the given wallet\n    /// @param wallet The address of the concerned wallet\n    /// @param currencyCt The address of the concerned currency contract (address(0) == ETH)\n    /// @param currencyId The ID of the concerned currency (0 for ETH and ERC20)\n    /// @return The challenge nonce\n    function proposalNonce(address wallet, address currencyCt, uint256 currencyId)\n    public\n    view\n    returns (uint256)\n    {\n        uint256 index = proposalIndexByWalletCurrency[wallet][currencyCt][currencyId];\n        require(0 != index);\n        return proposals[index - 1].nonce;\n    }\n\n    /// @notice Get the settlement proposal block number of the given wallet\n    /// @param wallet The address of the concerned wallet\n    /// @param currencyCt The address of the concerned currency contract (address(0) == ETH)\n    /// @param currencyId The ID of the concerned currency (0 for ETH and ERC20)\n    /// @return The settlement proposal block number\n    function proposalBlockNumber(address wallet, address currencyCt, uint256 currencyId)\n    public\n    view\n    returns (uint256)\n    {\n        uint256 index = proposalIndexByWalletCurrency[wallet][currencyCt][currencyId];\n        require(0 != index);\n        return proposals[index - 1].blockNumber;\n    }\n\n    /// @notice Get the settlement proposal end time of the given wallet\n    /// @param wallet The address of the concerned wallet\n    /// @param currencyCt The address of the concerned currency contract (address(0) == ETH)\n    /// @param currencyId The ID of the concerned currency (0 for ETH and ERC20)\n    /// @return The settlement proposal end time\n    function proposalExpirationTime(address wallet, address currencyCt, uint256 currencyId)\n    public\n    view\n    returns (uint256)\n    {\n        uint256 index = proposalIndexByWalletCurrency[wallet][currencyCt][currencyId];\n        require(0 != index);\n        return proposals[index - 1].expirationTime;\n    }\n\n    /// @notice Get the challenge status of the given wallet\n    /// @param wallet The address of the concerned wallet\n    /// @param currencyCt The address of the concerned currency contract (address(0) == ETH)\n    /// @param currencyId The ID of the concerned currency (0 for ETH and ERC20)\n    /// @return The challenge status\n    function proposalStatus(address wallet, address currencyCt, uint256 currencyId)\n    public\n    view\n    returns (SettlementTypesLib.Status)\n    {\n        uint256 index = proposalIndexByWalletCurrency[wallet][currencyCt][currencyId];\n        require(0 != index);\n        return proposals[index - 1].status;\n    }\n\n    /// @notice Get the settlement proposal stage amount of the given wallet and currency\n    /// @param wallet The address of the concerned wallet\n    /// @param currencyCt The address of the concerned currency contract (address(0) == ETH)\n    /// @param currencyId The ID of the concerned currency (0 for ETH and ERC20)\n    /// @return The settlement proposal stage amount\n    function proposalStageAmount(address wallet, address currencyCt, uint256 currencyId)\n    public\n    view\n    returns (int256)\n    {\n        uint256 index = proposalIndexByWalletCurrency[wallet][currencyCt][currencyId];\n        require(0 != index);\n        return proposals[index - 1].stageAmount;\n    }\n\n    /// @notice Get the settlement proposal target balance amount of the given wallet and currency\n    /// @param wallet The address of the concerned wallet\n    /// @param currencyCt The address of the concerned currency contract (address(0) == ETH)\n    /// @param currencyId The ID of the concerned currency (0 for ETH and ERC20)\n    /// @return The settlement proposal target balance amount\n    function proposalTargetBalanceAmount(address wallet, address currencyCt, uint256 currencyId)\n    public\n    view\n    returns (int256)\n    {\n        uint256 index = proposalIndexByWalletCurrency[wallet][currencyCt][currencyId];\n        require(0 != index);\n        return proposals[index - 1].targetBalanceAmount;\n    }\n\n    /// @notice Get the balance reward of the given wallet's settlement proposal\n    /// @param wallet The address of the concerned wallet\n    /// @param currencyCt The address of the concerned currency contract (address(0) == ETH)\n    /// @param currencyId The ID of the concerned currency (0 for ETH and ERC20)\n    /// @return The balance reward of the settlement proposal\n    function proposalBalanceReward(address wallet, address currencyCt, uint256 currencyId)\n    public\n    view\n    returns (bool)\n    {\n        uint256 index = proposalIndexByWalletCurrency[wallet][currencyCt][currencyId];\n        require(0 != index);\n        return proposals[index - 1].balanceReward;\n    }\n\n    /// @notice Get the disqualification candidate type of the given wallet and currency\n    /// @param wallet The address of the concerned wallet\n    /// @param currencyCt The address of the concerned currency contract (address(0) == ETH)\n    /// @param currencyId The ID of the concerned currency (0 for ETH and ERC20)\n    /// @return The candidate type of the settlement disqualification\n    function disqualificationCandidateType(address wallet, address currencyCt, uint256 currencyId)\n    public\n    view\n    returns (SettlementTypesLib.CandidateType)\n    {\n        uint256 index = disqualificationIndexByWalletCurrency[wallet][currencyCt][currencyId];\n        require(0 != index);\n        return disqualifications[index - 1].candidateType;\n    }\n\n    /// @notice Get the disqualification candidate hash of the given wallet and currency\n    /// @param wallet The address of the concerned wallet\n    /// @param currencyCt The address of the concerned currency contract (address(0) == ETH)\n    /// @param currencyId The ID of the concerned currency (0 for ETH and ERC20)\n    /// @return The candidate hash of the settlement disqualification\n    function disqualificationCandidateHash(address wallet, address currencyCt, uint256 currencyId)\n    public\n    view\n    returns (bytes32)\n    {\n        uint256 index = disqualificationIndexByWalletCurrency[wallet][currencyCt][currencyId];\n        require(0 != index);\n        return disqualifications[index - 1].candidateHash;\n    }\n\n    /// @notice Get the disqualification challenger of the given wallet and currency\n    /// @param wallet The address of the concerned wallet\n    /// @param currencyCt The address of the concerned currency contract (address(0) == ETH)\n    /// @param currencyId The ID of the concerned currency (0 for ETH and ERC20)\n    /// @return The challenger of the settlement disqualification\n    function disqualificationChallenger(address wallet, address currencyCt, uint256 currencyId)\n    public\n    view\n    returns (address)\n    {\n        uint256 index = disqualificationIndexByWalletCurrency[wallet][currencyCt][currencyId];\n        require(0 != index);\n        return disqualifications[index - 1].challenger;\n    }\n\n    /// @notice Set settlement proposal end time property of the given wallet\n    /// @dev This function can only be called by this contract's dispute instance\n    /// @param wallet The address of the concerned wallet\n    /// @param expirationTime The end time value\n    function setProposalExpirationTime(address wallet, address currencyCt, uint256 currencyId,\n        uint256 expirationTime)\n    public\n    onlyNullSettlementDispute\n    {\n        uint256 index = proposalIndexByWalletCurrency[wallet][currencyCt][currencyId];\n        require(0 != index);\n        proposals[index - 1].expirationTime = expirationTime;\n    }\n\n    /// @notice Set settlement proposal status property of the given wallet\n    /// @dev This function can only be called by this contract's dispute instance\n    /// @param wallet The address of the concerned wallet\n    /// @param status The status value\n    function setProposalStatus(address wallet, address currencyCt, uint256 currencyId,\n        SettlementTypesLib.Status status)\n    public\n    onlyNullSettlementDispute\n    {\n        uint256 index = proposalIndexByWalletCurrency[wallet][currencyCt][currencyId];\n        require(0 != index);\n        proposals[index - 1].status = status;\n    }\n\n    /// @notice Challenge the settlement by providing order candidate\n    /// @param order The order candidate that challenges the null\n    function challengeByOrder(NahmiiTypesLib.Order order)\n    public\n    onlyOperationalModeNormal\n    {\n        nullSettlementDispute.challengeByOrder(order, msg.sender);\n    }\n\n    /// @notice Challenge the settlement by providing trade candidate\n    /// @param wallet The wallet whose settlement is being challenged\n    /// @param trade The trade candidate that challenges the null\n    function challengeByTrade(address wallet, NahmiiTypesLib.Trade trade)\n    public\n    onlyOperationalModeNormal\n    {\n        nullSettlementDispute.challengeByTrade(wallet, trade, msg.sender);\n    }\n\n    /// @notice Challenge the settlement by providing payment candidate\n    /// @param wallet The wallet whose settlement is being challenged\n    /// @param payment The payment candidate that challenges the null\n    function challengeByPayment(address wallet, NahmiiTypesLib.Payment payment)\n    public\n    onlyOperationalModeNormal\n    {\n        nullSettlementDispute.challengeByPayment(wallet, payment, msg.sender);\n    }\n\n    /// @notice Get the count of challenge candidate hashes\n    /// @return The count of challenge candidate order hashes\n    function candidateHashesCount()\n    public\n    view\n    returns (uint256)\n    {\n        return candidateHashes.length;\n    }\n\n    /// @notice Disqualify the given wallet\n    /// @dev This function can only be called by this contract's dispute instance\n    /// @param wallet The address of the concerned wallet\n    function lockWallet(address wallet)\n    public\n    onlyNullSettlementDispute\n    {\n        if (0 == unlockTimeByWallet[wallet]) {\n            lockedWallets.push(wallet);\n            lockedByWallet[wallet] = true;\n        }\n\n        unlockTimeByWallet[wallet] = block.timestamp.add(configuration.walletLockTimeout());\n    }\n\n    /// @notice Gauge whether the wallet is (temporarily) locked\n    /// @param wallet The address of the concerned wallet\n    /// @return true if wallet is locked, else false\n    function isLockedWallet(address wallet)\n    public\n    view\n    returns (bool)\n    {\n        return block.timestamp < unlockTimeByWallet[wallet];\n    }\n\n    /// @notice Add a disqualification instance\n    /// @param wallet The address of the concerned wallet\n    /// @param currencyCt The address of the concerned currency contract (address(0) == ETH)\n    /// @param currencyId The ID of the concerned currency (0 for ETH and ERC20)\n    /// @param candidateHash The candidate hash\n    /// @param candidateType The candidate type\n    /// @param challenger The concerned challenger\n    function addDisqualification(address wallet, address currencyCt, uint256 currencyId, bytes32 candidateHash,\n        SettlementTypesLib.CandidateType candidateType, address challenger)\n    public\n    onlyNullSettlementDispute\n    {\n        // Get the proposal index\n        uint256 index = proposalIndexByWalletCurrency[wallet][currencyCt][currencyId];\n        require(0 != index);\n\n        // Create disqualification\n        disqualifications.length++;\n\n        // Populate disqualification\n        disqualifications[disqualifications.length - 1].wallet = wallet;\n        disqualifications[disqualifications.length - 1].nonce = proposals[index - 1].nonce;\n        disqualifications[disqualifications.length - 1].currencyCt = currencyCt;\n        disqualifications[disqualifications.length - 1].currencyId = currencyId;\n        disqualifications[disqualifications.length - 1].candidateHash = candidateHash;\n        disqualifications[disqualifications.length - 1].candidateType = candidateType;\n        disqualifications[disqualifications.length - 1].challenger = challenger;\n\n        // Store disqualification index\n        disqualificationIndexByWalletCurrency[wallet][currencyCt][currencyId] = disqualifications.length;\n\n        // Store candidate hash\n        candidateHashes.push(candidateHash);\n    }\n\n    //\n    // Private functions\n    // -----------------------------------------------------------------------------------------------------------------\n    function _startChallenge(address wallet, int256 stageAmount, address currencyCt, uint256 currencyId,\n        bool balanceReward)\n    private\n    {\n        // Require that current block number is beyond the earliest settlement challenge block number\n        require(block.number >= configuration.earliestSettlementBlockNumber());\n\n        // Require that stage amount is positive\n        require(stageAmount.isPositiveInt256());\n\n        // Require that wallet has no overlap with active proposal\n        require(\n            hasProposalExpired(\n                wallet, currencyCt, currencyId\n            )\n        );\n\n        // Get the last logged active balance amount and block number\n        (int256 activeBalanceAmount, uint256 activeBalanceBlockNumber) =\n        _activeBalanceLogEntry(wallet, currencyCt, currencyId);\n\n        // Require that balance amount is not less than stage amount\n        require(activeBalanceAmount >= stageAmount);\n\n        // Create proposal\n        proposals.length++;\n\n        // Populate proposal\n        proposals[proposals.length - 1].wallet = wallet;\n        proposals[proposals.length - 1].nonce = ++nonce;\n        proposals[proposals.length - 1].blockNumber = activeBalanceBlockNumber;\n        proposals[proposals.length - 1].expirationTime = block.timestamp.add(configuration.settlementChallengeTimeout());\n        proposals[proposals.length - 1].status = SettlementTypesLib.Status.Qualified;\n        proposals[proposals.length - 1].currencyCt = currencyCt;\n        proposals[proposals.length - 1].currencyId = currencyId;\n        proposals[proposals.length - 1].stageAmount = stageAmount;\n        proposals[proposals.length - 1].targetBalanceAmount = activeBalanceAmount.sub(stageAmount);\n        proposals[proposals.length - 1].balanceReward = balanceReward;\n\n        // Store proposal index\n        proposalIndexByWalletCurrency[wallet][currencyCt][currencyId] = proposals.length;\n        proposalIndicesByWallet[wallet].push(proposals.length);\n\n        // Add wallet to store of challenge wallets\n        if (!challengeByWallets[wallet]) {\n            challengeByWallets[wallet] = true;\n            challengeWallets.push(wallet);\n        }\n    }\n\n    function _activeBalanceLogEntry(address wallet, address currencyCt, uint256 currencyId)\n    private\n    view\n    returns (int256 amount, uint256 blockNumber)\n    {\n        // Get last log record of deposited and settled balances\n        (int256 depositedAmount, uint256 depositedBlockNumber) = balanceTracker.lastFungibleRecord(\n            wallet, balanceTracker.depositedBalanceType(), currencyCt, currencyId\n        );\n        (int256 settledAmount, uint256 settledBlockNumber) = balanceTracker.lastFungibleRecord(\n            wallet, balanceTracker.settledBalanceType(), currencyCt, currencyId\n        );\n\n        // Set amount as the sum of deposited and settled\n        amount = depositedAmount.add(settledAmount);\n\n        // Set block number as the latest of deposited and settled\n        blockNumber = depositedBlockNumber > settledBlockNumber ? depositedBlockNumber : settledBlockNumber;\n    }\n\n    //\n    // Modifiers\n    // -----------------------------------------------------------------------------------------------------------------\n    modifier onlyNullSettlementDispute() {\n        require(msg.sender == address(nullSettlementDispute));\n        _;\n    }\n}\n",
  "sourcePath": "/opt/buildagent/work/855e104608380c36/contracts/NullSettlementChallenge.sol",
  "compiler": {
    "name": "solc",
    "version": "0.4.25+commit.59dbf8f1.Emscripten.clang"
  },
  "schemaVersion": "2.0.1",
  "updatedAt": "2018-12-21T12:49:50.478Z"
}